{
	"contracts/CreateQuiz.sol": {
		"CreateQuiz": {
			"abi": [
				{
					"anonymous": false,
					"inputs": [
						{
							"indexed": false,
							"internalType": "uint256",
							"name": "quizId",
							"type": "uint256"
						},
						{
							"indexed": false,
							"internalType": "string",
							"name": "question",
							"type": "string"
						},
						{
							"indexed": false,
							"internalType": "uint8",
							"name": "answer",
							"type": "uint8"
						}
					],
					"name": "NewQuiz",
					"type": "event"
				},
				{
					"anonymous": false,
					"inputs": [
						{
							"indexed": true,
							"internalType": "address",
							"name": "previousOwner",
							"type": "address"
						},
						{
							"indexed": true,
							"internalType": "address",
							"name": "newOwner",
							"type": "address"
						}
					],
					"name": "OwnershipTransferred",
					"type": "event"
				},
				{
					"inputs": [
						{
							"internalType": "string",
							"name": "_question",
							"type": "string"
						},
						{
							"internalType": "string",
							"name": "_choice1",
							"type": "string"
						},
						{
							"internalType": "string",
							"name": "_choice2",
							"type": "string"
						},
						{
							"internalType": "string",
							"name": "_choice3",
							"type": "string"
						},
						{
							"internalType": "string",
							"name": "_choice4",
							"type": "string"
						},
						{
							"internalType": "uint8",
							"name": "_answer",
							"type": "uint8"
						}
					],
					"name": "createQuiz",
					"outputs": [],
					"stateMutability": "nonpayable",
					"type": "function"
				},
				{
					"inputs": [],
					"name": "owner",
					"outputs": [
						{
							"internalType": "address",
							"name": "",
							"type": "address"
						}
					],
					"stateMutability": "view",
					"type": "function"
				},
				{
					"inputs": [
						{
							"internalType": "uint256",
							"name": "",
							"type": "uint256"
						}
					],
					"name": "quizzes",
					"outputs": [
						{
							"internalType": "string",
							"name": "question",
							"type": "string"
						},
						{
							"internalType": "string",
							"name": "choice1",
							"type": "string"
						},
						{
							"internalType": "string",
							"name": "choice2",
							"type": "string"
						},
						{
							"internalType": "string",
							"name": "choice3",
							"type": "string"
						},
						{
							"internalType": "string",
							"name": "choice4",
							"type": "string"
						},
						{
							"internalType": "uint8",
							"name": "answer",
							"type": "uint8"
						}
					],
					"stateMutability": "view",
					"type": "function"
				},
				{
					"inputs": [],
					"name": "renounceOwnership",
					"outputs": [],
					"stateMutability": "nonpayable",
					"type": "function"
				},
				{
					"inputs": [
						{
							"internalType": "address",
							"name": "newOwner",
							"type": "address"
						}
					],
					"name": "transferOwnership",
					"outputs": [],
					"stateMutability": "nonpayable",
					"type": "function"
				}
			],
			"devdoc": {
				"kind": "dev",
				"methods": {
					"owner()": {
						"details": "Returns the address of the current owner."
					},
					"renounceOwnership()": {
						"details": "Leaves the contract without owner. It will not be possible to call `onlyOwner` functions anymore. Can only be called by the current owner. NOTE: Renouncing ownership will leave the contract without an owner, thereby removing any functionality that is only available to the owner."
					},
					"transferOwnership(address)": {
						"details": "Transfers ownership of the contract to a new account (`newOwner`). Can only be called by the current owner."
					}
				},
				"version": 1
			},
			"evm": {
				"assembly": "    /* \"contracts/CreateQuiz.sol\":90:766  contract CreateQuiz is Ownable {... */\n  mstore(0x40, 0x80)\n  callvalue\n  dup1\n  iszero\n  tag_1\n  jumpi\n  0x00\n  dup1\n  revert\ntag_1:\n  pop\n    /* \"contracts/Ownable.sol\":914:946  _transferOwnership(_msgSender()) */\n  tag_4\n    /* \"contracts/Ownable.sol\":933:945  _msgSender() */\n  tag_5\n    /* \"contracts/Ownable.sol\":933:943  _msgSender */\n  shl(0x20, tag_6)\n    /* \"contracts/Ownable.sol\":933:945  _msgSender() */\n  0x20\n  shr\n  jump\t// in\ntag_5:\n    /* \"contracts/Ownable.sol\":914:932  _transferOwnership */\n  shl(0x20, tag_7)\n    /* \"contracts/Ownable.sol\":914:946  _transferOwnership(_msgSender()) */\n  0x20\n  shr\n  jump\t// in\ntag_4:\n    /* \"contracts/CreateQuiz.sol\":90:766  contract CreateQuiz is Ownable {... */\n  jump(tag_8)\n    /* \"contracts/Context.sol\":640:736  function _msgSender() internal view virtual returns (address) {... */\ntag_6:\n    /* \"contracts/Context.sol\":693:700  address */\n  0x00\n    /* \"contracts/Context.sol\":719:729  msg.sender */\n  caller\n    /* \"contracts/Context.sol\":712:729  return msg.sender */\n  swap1\n  pop\n    /* \"contracts/Context.sol\":640:736  function _msgSender() internal view virtual returns (address) {... */\n  swap1\n  jump\t// out\n    /* \"contracts/Ownable.sol\":2263:2450  function _transferOwnership(address newOwner) internal virtual {... */\ntag_7:\n    /* \"contracts/Ownable.sol\":2336:2352  address oldOwner */\n  0x00\n    /* \"contracts/Ownable.sol\":2355:2361  _owner */\n  dup1\n  0x00\n  swap1\n  sload\n  swap1\n  0x0100\n  exp\n  swap1\n  div\n  0xffffffffffffffffffffffffffffffffffffffff\n  and\n    /* \"contracts/Ownable.sol\":2336:2361  address oldOwner = _owner */\n  swap1\n  pop\n    /* \"contracts/Ownable.sol\":2380:2388  newOwner */\n  dup2\n    /* \"contracts/Ownable.sol\":2371:2377  _owner */\n  0x00\n  dup1\n    /* \"contracts/Ownable.sol\":2371:2388  _owner = newOwner */\n  0x0100\n  exp\n  dup2\n  sload\n  dup2\n  0xffffffffffffffffffffffffffffffffffffffff\n  mul\n  not\n  and\n  swap1\n  dup4\n  0xffffffffffffffffffffffffffffffffffffffff\n  and\n  mul\n  or\n  swap1\n  sstore\n  pop\n    /* \"contracts/Ownable.sol\":2434:2442  newOwner */\n  dup2\n    /* \"contracts/Ownable.sol\":2403:2443  OwnershipTransferred(oldOwner, newOwner) */\n  0xffffffffffffffffffffffffffffffffffffffff\n  and\n    /* \"contracts/Ownable.sol\":2424:2432  oldOwner */\n  dup2\n    /* \"contracts/Ownable.sol\":2403:2443  OwnershipTransferred(oldOwner, newOwner) */\n  0xffffffffffffffffffffffffffffffffffffffff\n  and\n  0x8be0079c531659141344cd1fd0a4f28419497f9722a3daafe3b4186f6b6457e0\n  mload(0x40)\n  mload(0x40)\n  dup1\n  swap2\n  sub\n  swap1\n  log3\n    /* \"contracts/Ownable.sol\":2326:2450  {... */\n  pop\n    /* \"contracts/Ownable.sol\":2263:2450  function _transferOwnership(address newOwner) internal virtual {... */\n  pop\n  jump\t// out\n    /* \"contracts/CreateQuiz.sol\":90:766  contract CreateQuiz is Ownable {... */\ntag_8:\n  dataSize(sub_0)\n  dup1\n  dataOffset(sub_0)\n  0x00\n  codecopy\n  0x00\n  return\nstop\n\nsub_0: assembly {\n        /* \"contracts/CreateQuiz.sol\":90:766  contract CreateQuiz is Ownable {... */\n      mstore(0x40, 0x80)\n      callvalue\n      dup1\n      iszero\n      tag_1\n      jumpi\n      0x00\n      dup1\n      revert\n    tag_1:\n      pop\n      jumpi(tag_2, lt(calldatasize, 0x04))\n      shr(0xe0, calldataload(0x00))\n      dup1\n      0x715018a6\n      eq\n      tag_3\n      jumpi\n      dup1\n      0x88409afa\n      eq\n      tag_4\n      jumpi\n      dup1\n      0x8da5cb5b\n      eq\n      tag_5\n      jumpi\n      dup1\n      0xbe78b631\n      eq\n      tag_6\n      jumpi\n      dup1\n      0xf2fde38b\n      eq\n      tag_7\n      jumpi\n    tag_2:\n      0x00\n      dup1\n      revert\n        /* \"contracts/Ownable.sol\":1661:1762  function renounceOwnership() public virtual onlyOwner {... */\n    tag_3:\n      tag_8\n      tag_9\n      jump\t// in\n    tag_8:\n      stop\n        /* \"contracts/CreateQuiz.sol\":360:381  Quiz[] public quizzes */\n    tag_4:\n      tag_10\n      0x04\n      dup1\n      calldatasize\n      sub\n      dup2\n      add\n      swap1\n      tag_11\n      swap2\n      swap1\n      tag_12\n      jump\t// in\n    tag_11:\n      tag_13\n      jump\t// in\n    tag_10:\n      mload(0x40)\n      tag_14\n      swap7\n      swap6\n      swap5\n      swap4\n      swap3\n      swap2\n      swap1\n      tag_15\n      jump\t// in\n    tag_14:\n      mload(0x40)\n      dup1\n      swap2\n      sub\n      swap1\n      return\n        /* \"contracts/Ownable.sol\":1029:1114  function owner() public view virtual returns (address) {... */\n    tag_5:\n      tag_16\n      tag_17\n      jump\t// in\n    tag_16:\n      mload(0x40)\n      tag_18\n      swap2\n      swap1\n      tag_19\n      jump\t// in\n    tag_18:\n      mload(0x40)\n      dup1\n      swap2\n      sub\n      swap1\n      return\n        /* \"contracts/CreateQuiz.sol\":388:763  function createQuiz(string memory _question, string memory _choice1, string memory _choice2, string memory _choice3, string memory _choice4, uint8 _answer) public {... */\n    tag_6:\n      tag_20\n      0x04\n      dup1\n      calldatasize\n      sub\n      dup2\n      add\n      swap1\n      tag_21\n      swap2\n      swap1\n      tag_22\n      jump\t// in\n    tag_21:\n      tag_23\n      jump\t// in\n    tag_20:\n      stop\n        /* \"contracts/Ownable.sol\":1911:2109  function transferOwnership(address newOwner) public virtual onlyOwner {... */\n    tag_7:\n      tag_24\n      0x04\n      dup1\n      calldatasize\n      sub\n      dup2\n      add\n      swap1\n      tag_25\n      swap2\n      swap1\n      tag_26\n      jump\t// in\n    tag_25:\n      tag_27\n      jump\t// in\n    tag_24:\n      stop\n        /* \"contracts/Ownable.sol\":1661:1762  function renounceOwnership() public virtual onlyOwner {... */\n    tag_9:\n        /* \"contracts/Ownable.sol\":1252:1264  _msgSender() */\n      tag_29\n        /* \"contracts/Ownable.sol\":1252:1262  _msgSender */\n      tag_30\n        /* \"contracts/Ownable.sol\":1252:1264  _msgSender() */\n      jump\t// in\n    tag_29:\n        /* \"contracts/Ownable.sol\":1241:1264  owner() == _msgSender() */\n      0xffffffffffffffffffffffffffffffffffffffff\n      and\n        /* \"contracts/Ownable.sol\":1241:1248  owner() */\n      tag_31\n        /* \"contracts/Ownable.sol\":1241:1246  owner */\n      tag_17\n        /* \"contracts/Ownable.sol\":1241:1248  owner() */\n      jump\t// in\n    tag_31:\n        /* \"contracts/Ownable.sol\":1241:1264  owner() == _msgSender() */\n      0xffffffffffffffffffffffffffffffffffffffff\n      and\n      eq\n        /* \"contracts/Ownable.sol\":1233:1301  require(owner() == _msgSender(), \"Ownable: caller is not the owner\") */\n      tag_32\n      jumpi\n      mload(0x40)\n      0x08c379a000000000000000000000000000000000000000000000000000000000\n      dup2\n      mstore\n      0x04\n      add\n      tag_33\n      swap1\n      tag_34\n      jump\t// in\n    tag_33:\n      mload(0x40)\n      dup1\n      swap2\n      sub\n      swap1\n      revert\n    tag_32:\n        /* \"contracts/Ownable.sol\":1725:1755  _transferOwnership(address(0)) */\n      tag_36\n        /* \"contracts/Ownable.sol\":1752:1753  0 */\n      0x00\n        /* \"contracts/Ownable.sol\":1725:1743  _transferOwnership */\n      tag_37\n        /* \"contracts/Ownable.sol\":1725:1755  _transferOwnership(address(0)) */\n      jump\t// in\n    tag_36:\n        /* \"contracts/Ownable.sol\":1661:1762  function renounceOwnership() public virtual onlyOwner {... */\n      jump\t// out\n        /* \"contracts/CreateQuiz.sol\":360:381  Quiz[] public quizzes */\n    tag_13:\n      0x01\n      dup2\n      dup2\n      sload\n      dup2\n      lt\n      tag_38\n      jumpi\n      0x00\n      dup1\n      revert\n    tag_38:\n      swap1\n      0x00\n      mstore\n      keccak256(0x00, 0x20)\n      swap1\n      0x06\n      mul\n      add\n      0x00\n      swap2\n      pop\n      swap1\n      pop\n      dup1\n      0x00\n      add\n      dup1\n      sload\n      tag_40\n      swap1\n      tag_41\n      jump\t// in\n    tag_40:\n      dup1\n      0x1f\n      add\n      0x20\n      dup1\n      swap2\n      div\n      mul\n      0x20\n      add\n      mload(0x40)\n      swap1\n      dup2\n      add\n      0x40\n      mstore\n      dup1\n      swap3\n      swap2\n      swap1\n      dup2\n      dup2\n      mstore\n      0x20\n      add\n      dup3\n      dup1\n      sload\n      tag_42\n      swap1\n      tag_41\n      jump\t// in\n    tag_42:\n      dup1\n      iszero\n      tag_43\n      jumpi\n      dup1\n      0x1f\n      lt\n      tag_44\n      jumpi\n      0x0100\n      dup1\n      dup4\n      sload\n      div\n      mul\n      dup4\n      mstore\n      swap2\n      0x20\n      add\n      swap2\n      jump(tag_43)\n    tag_44:\n      dup3\n      add\n      swap2\n      swap1\n      0x00\n      mstore\n      keccak256(0x00, 0x20)\n      swap1\n    tag_45:\n      dup2\n      sload\n      dup2\n      mstore\n      swap1\n      0x01\n      add\n      swap1\n      0x20\n      add\n      dup1\n      dup4\n      gt\n      tag_45\n      jumpi\n      dup3\n      swap1\n      sub\n      0x1f\n      and\n      dup3\n      add\n      swap2\n    tag_43:\n      pop\n      pop\n      pop\n      pop\n      pop\n      swap1\n      dup1\n      0x01\n      add\n      dup1\n      sload\n      tag_46\n      swap1\n      tag_41\n      jump\t// in\n    tag_46:\n      dup1\n      0x1f\n      add\n      0x20\n      dup1\n      swap2\n      div\n      mul\n      0x20\n      add\n      mload(0x40)\n      swap1\n      dup2\n      add\n      0x40\n      mstore\n      dup1\n      swap3\n      swap2\n      swap1\n      dup2\n      dup2\n      mstore\n      0x20\n      add\n      dup3\n      dup1\n      sload\n      tag_47\n      swap1\n      tag_41\n      jump\t// in\n    tag_47:\n      dup1\n      iszero\n      tag_48\n      jumpi\n      dup1\n      0x1f\n      lt\n      tag_49\n      jumpi\n      0x0100\n      dup1\n      dup4\n      sload\n      div\n      mul\n      dup4\n      mstore\n      swap2\n      0x20\n      add\n      swap2\n      jump(tag_48)\n    tag_49:\n      dup3\n      add\n      swap2\n      swap1\n      0x00\n      mstore\n      keccak256(0x00, 0x20)\n      swap1\n    tag_50:\n      dup2\n      sload\n      dup2\n      mstore\n      swap1\n      0x01\n      add\n      swap1\n      0x20\n      add\n      dup1\n      dup4\n      gt\n      tag_50\n      jumpi\n      dup3\n      swap1\n      sub\n      0x1f\n      and\n      dup3\n      add\n      swap2\n    tag_48:\n      pop\n      pop\n      pop\n      pop\n      pop\n      swap1\n      dup1\n      0x02\n      add\n      dup1\n      sload\n      tag_51\n      swap1\n      tag_41\n      jump\t// in\n    tag_51:\n      dup1\n      0x1f\n      add\n      0x20\n      dup1\n      swap2\n      div\n      mul\n      0x20\n      add\n      mload(0x40)\n      swap1\n      dup2\n      add\n      0x40\n      mstore\n      dup1\n      swap3\n      swap2\n      swap1\n      dup2\n      dup2\n      mstore\n      0x20\n      add\n      dup3\n      dup1\n      sload\n      tag_52\n      swap1\n      tag_41\n      jump\t// in\n    tag_52:\n      dup1\n      iszero\n      tag_53\n      jumpi\n      dup1\n      0x1f\n      lt\n      tag_54\n      jumpi\n      0x0100\n      dup1\n      dup4\n      sload\n      div\n      mul\n      dup4\n      mstore\n      swap2\n      0x20\n      add\n      swap2\n      jump(tag_53)\n    tag_54:\n      dup3\n      add\n      swap2\n      swap1\n      0x00\n      mstore\n      keccak256(0x00, 0x20)\n      swap1\n    tag_55:\n      dup2\n      sload\n      dup2\n      mstore\n      swap1\n      0x01\n      add\n      swap1\n      0x20\n      add\n      dup1\n      dup4\n      gt\n      tag_55\n      jumpi\n      dup3\n      swap1\n      sub\n      0x1f\n      and\n      dup3\n      add\n      swap2\n    tag_53:\n      pop\n      pop\n      pop\n      pop\n      pop\n      swap1\n      dup1\n      0x03\n      add\n      dup1\n      sload\n      tag_56\n      swap1\n      tag_41\n      jump\t// in\n    tag_56:\n      dup1\n      0x1f\n      add\n      0x20\n      dup1\n      swap2\n      div\n      mul\n      0x20\n      add\n      mload(0x40)\n      swap1\n      dup2\n      add\n      0x40\n      mstore\n      dup1\n      swap3\n      swap2\n      swap1\n      dup2\n      dup2\n      mstore\n      0x20\n      add\n      dup3\n      dup1\n      sload\n      tag_57\n      swap1\n      tag_41\n      jump\t// in\n    tag_57:\n      dup1\n      iszero\n      tag_58\n      jumpi\n      dup1\n      0x1f\n      lt\n      tag_59\n      jumpi\n      0x0100\n      dup1\n      dup4\n      sload\n      div\n      mul\n      dup4\n      mstore\n      swap2\n      0x20\n      add\n      swap2\n      jump(tag_58)\n    tag_59:\n      dup3\n      add\n      swap2\n      swap1\n      0x00\n      mstore\n      keccak256(0x00, 0x20)\n      swap1\n    tag_60:\n      dup2\n      sload\n      dup2\n      mstore\n      swap1\n      0x01\n      add\n      swap1\n      0x20\n      add\n      dup1\n      dup4\n      gt\n      tag_60\n      jumpi\n      dup3\n      swap1\n      sub\n      0x1f\n      and\n      dup3\n      add\n      swap2\n    tag_58:\n      pop\n      pop\n      pop\n      pop\n      pop\n      swap1\n      dup1\n      0x04\n      add\n      dup1\n      sload\n      tag_61\n      swap1\n      tag_41\n      jump\t// in\n    tag_61:\n      dup1\n      0x1f\n      add\n      0x20\n      dup1\n      swap2\n      div\n      mul\n      0x20\n      add\n      mload(0x40)\n      swap1\n      dup2\n      add\n      0x40\n      mstore\n      dup1\n      swap3\n      swap2\n      swap1\n      dup2\n      dup2\n      mstore\n      0x20\n      add\n      dup3\n      dup1\n      sload\n      tag_62\n      swap1\n      tag_41\n      jump\t// in\n    tag_62:\n      dup1\n      iszero\n      tag_63\n      jumpi\n      dup1\n      0x1f\n      lt\n      tag_64\n      jumpi\n      0x0100\n      dup1\n      dup4\n      sload\n      div\n      mul\n      dup4\n      mstore\n      swap2\n      0x20\n      add\n      swap2\n      jump(tag_63)\n    tag_64:\n      dup3\n      add\n      swap2\n      swap1\n      0x00\n      mstore\n      keccak256(0x00, 0x20)\n      swap1\n    tag_65:\n      dup2\n      sload\n      dup2\n      mstore\n      swap1\n      0x01\n      add\n      swap1\n      0x20\n      add\n      dup1\n      dup4\n      gt\n      tag_65\n      jumpi\n      dup3\n      swap1\n      sub\n      0x1f\n      and\n      dup3\n      add\n      swap2\n    tag_63:\n      pop\n      pop\n      pop\n      pop\n      pop\n      swap1\n      dup1\n      0x05\n      add\n      0x00\n      swap1\n      sload\n      swap1\n      0x0100\n      exp\n      swap1\n      div\n      0xff\n      and\n      swap1\n      pop\n      dup7\n      jump\t// out\n        /* \"contracts/Ownable.sol\":1029:1114  function owner() public view virtual returns (address) {... */\n    tag_17:\n        /* \"contracts/Ownable.sol\":1075:1082  address */\n      0x00\n        /* \"contracts/Ownable.sol\":1101:1107  _owner */\n      dup1\n      0x00\n      swap1\n      sload\n      swap1\n      0x0100\n      exp\n      swap1\n      div\n      0xffffffffffffffffffffffffffffffffffffffff\n      and\n        /* \"contracts/Ownable.sol\":1094:1107  return _owner */\n      swap1\n      pop\n        /* \"contracts/Ownable.sol\":1029:1114  function owner() public view virtual returns (address) {... */\n      swap1\n      jump\t// out\n        /* \"contracts/CreateQuiz.sol\":388:763  function createQuiz(string memory _question, string memory _choice1, string memory _choice2, string memory _choice3, string memory _choice4, uint8 _answer) public {... */\n    tag_23:\n        /* \"contracts/CreateQuiz.sol\":561:577  Quiz memory quiz */\n      0x00\n        /* \"contracts/CreateQuiz.sol\":580:644  Quiz(_question, _choice1, _choice2, _choice3, _choice4, _answer) */\n      mload(0x40)\n      dup1\n      0xc0\n      add\n      0x40\n      mstore\n      dup1\n        /* \"contracts/CreateQuiz.sol\":585:594  _question */\n      dup9\n        /* \"contracts/CreateQuiz.sol\":580:644  Quiz(_question, _choice1, _choice2, _choice3, _choice4, _answer) */\n      dup2\n      mstore\n      0x20\n      add\n        /* \"contracts/CreateQuiz.sol\":596:604  _choice1 */\n      dup8\n        /* \"contracts/CreateQuiz.sol\":580:644  Quiz(_question, _choice1, _choice2, _choice3, _choice4, _answer) */\n      dup2\n      mstore\n      0x20\n      add\n        /* \"contracts/CreateQuiz.sol\":606:614  _choice2 */\n      dup7\n        /* \"contracts/CreateQuiz.sol\":580:644  Quiz(_question, _choice1, _choice2, _choice3, _choice4, _answer) */\n      dup2\n      mstore\n      0x20\n      add\n        /* \"contracts/CreateQuiz.sol\":616:624  _choice3 */\n      dup6\n        /* \"contracts/CreateQuiz.sol\":580:644  Quiz(_question, _choice1, _choice2, _choice3, _choice4, _answer) */\n      dup2\n      mstore\n      0x20\n      add\n        /* \"contracts/CreateQuiz.sol\":626:634  _choice4 */\n      dup5\n        /* \"contracts/CreateQuiz.sol\":580:644  Quiz(_question, _choice1, _choice2, _choice3, _choice4, _answer) */\n      dup2\n      mstore\n      0x20\n      add\n        /* \"contracts/CreateQuiz.sol\":636:643  _answer */\n      dup4\n        /* \"contracts/CreateQuiz.sol\":580:644  Quiz(_question, _choice1, _choice2, _choice3, _choice4, _answer) */\n      0xff\n      and\n      dup2\n      mstore\n      pop\n        /* \"contracts/CreateQuiz.sol\":561:644  Quiz memory quiz = Quiz(_question, _choice1, _choice2, _choice3, _choice4, _answer) */\n      swap1\n      pop\n        /* \"contracts/CreateQuiz.sol\":654:661  quizzes */\n      0x01\n        /* \"contracts/CreateQuiz.sol\":667:671  quiz */\n      dup2\n        /* \"contracts/CreateQuiz.sol\":654:672  quizzes.push(quiz) */\n      swap1\n      dup1\n      0x01\n      dup2\n      sload\n      add\n      dup1\n      dup3\n      sstore\n      dup1\n      swap2\n      pop\n      pop\n      0x01\n      swap1\n      sub\n      swap1\n      0x00\n      mstore\n      keccak256(0x00, 0x20)\n      swap1\n      0x06\n      mul\n      add\n      0x00\n      swap1\n      swap2\n      swap1\n      swap2\n      swap1\n      swap2\n      pop\n      0x00\n      dup3\n      add\n      mload\n      dup2\n      0x00\n      add\n      swap1\n      dup1\n      mload\n      swap1\n      0x20\n      add\n      swap1\n      tag_69\n      swap3\n      swap2\n      swap1\n      tag_70\n      jump\t// in\n    tag_69:\n      pop\n      0x20\n      dup3\n      add\n      mload\n      dup2\n      0x01\n      add\n      swap1\n      dup1\n      mload\n      swap1\n      0x20\n      add\n      swap1\n      tag_71\n      swap3\n      swap2\n      swap1\n      tag_70\n      jump\t// in\n    tag_71:\n      pop\n      0x40\n      dup3\n      add\n      mload\n      dup2\n      0x02\n      add\n      swap1\n      dup1\n      mload\n      swap1\n      0x20\n      add\n      swap1\n      tag_72\n      swap3\n      swap2\n      swap1\n      tag_70\n      jump\t// in\n    tag_72:\n      pop\n      0x60\n      dup3\n      add\n      mload\n      dup2\n      0x03\n      add\n      swap1\n      dup1\n      mload\n      swap1\n      0x20\n      add\n      swap1\n      tag_73\n      swap3\n      swap2\n      swap1\n      tag_70\n      jump\t// in\n    tag_73:\n      pop\n      0x80\n      dup3\n      add\n      mload\n      dup2\n      0x04\n      add\n      swap1\n      dup1\n      mload\n      swap1\n      0x20\n      add\n      swap1\n      tag_74\n      swap3\n      swap2\n      swap1\n      tag_70\n      jump\t// in\n    tag_74:\n      pop\n      0xa0\n      dup3\n      add\n      mload\n      dup2\n      0x05\n      add\n      exp(0x0100, 0x00)\n      dup2\n      sload\n      dup2\n      0xff\n      mul\n      not\n      and\n      swap1\n      dup4\n      0xff\n      and\n      mul\n      or\n      swap1\n      sstore\n      pop\n      pop\n      pop\n        /* \"contracts/CreateQuiz.sol\":682:689  uint id */\n      0x00\n        /* \"contracts/CreateQuiz.sol\":709:710  1 */\n      0x01\n        /* \"contracts/CreateQuiz.sol\":692:699  quizzes */\n      dup1\n        /* \"contracts/CreateQuiz.sol\":692:706  quizzes.length */\n      dup1\n      sload\n      swap1\n      pop\n        /* \"contracts/CreateQuiz.sol\":692:710  quizzes.length - 1 */\n      tag_75\n      swap2\n      swap1\n      tag_76\n      jump\t// in\n    tag_75:\n        /* \"contracts/CreateQuiz.sol\":682:710  uint id = quizzes.length - 1 */\n      swap1\n      pop\n        /* \"contracts/CreateQuiz.sol\":725:756  NewQuiz(id, _question, _answer) */\n      0x65f15767962de789c9b272aab37bd0ebcf3f80d97767b708221524c9408debed\n        /* \"contracts/CreateQuiz.sol\":733:735  id */\n      dup2\n        /* \"contracts/CreateQuiz.sol\":737:746  _question */\n      dup10\n        /* \"contracts/CreateQuiz.sol\":748:755  _answer */\n      dup6\n        /* \"contracts/CreateQuiz.sol\":725:756  NewQuiz(id, _question, _answer) */\n      mload(0x40)\n      tag_77\n      swap4\n      swap3\n      swap2\n      swap1\n      tag_78\n      jump\t// in\n    tag_77:\n      mload(0x40)\n      dup1\n      swap2\n      sub\n      swap1\n      log1\n        /* \"contracts/CreateQuiz.sol\":551:763  {... */\n      pop\n      pop\n        /* \"contracts/CreateQuiz.sol\":388:763  function createQuiz(string memory _question, string memory _choice1, string memory _choice2, string memory _choice3, string memory _choice4, uint8 _answer) public {... */\n      pop\n      pop\n      pop\n      pop\n      pop\n      pop\n      jump\t// out\n        /* \"contracts/Ownable.sol\":1911:2109  function transferOwnership(address newOwner) public virtual onlyOwner {... */\n    tag_27:\n        /* \"contracts/Ownable.sol\":1252:1264  _msgSender() */\n      tag_80\n        /* \"contracts/Ownable.sol\":1252:1262  _msgSender */\n      tag_30\n        /* \"contracts/Ownable.sol\":1252:1264  _msgSender() */\n      jump\t// in\n    tag_80:\n        /* \"contracts/Ownable.sol\":1241:1264  owner() == _msgSender() */\n      0xffffffffffffffffffffffffffffffffffffffff\n      and\n        /* \"contracts/Ownable.sol\":1241:1248  owner() */\n      tag_81\n        /* \"contracts/Ownable.sol\":1241:1246  owner */\n      tag_17\n        /* \"contracts/Ownable.sol\":1241:1248  owner() */\n      jump\t// in\n    tag_81:\n        /* \"contracts/Ownable.sol\":1241:1264  owner() == _msgSender() */\n      0xffffffffffffffffffffffffffffffffffffffff\n      and\n      eq\n        /* \"contracts/Ownable.sol\":1233:1301  require(owner() == _msgSender(), \"Ownable: caller is not the owner\") */\n      tag_82\n      jumpi\n      mload(0x40)\n      0x08c379a000000000000000000000000000000000000000000000000000000000\n      dup2\n      mstore\n      0x04\n      add\n      tag_83\n      swap1\n      tag_34\n      jump\t// in\n    tag_83:\n      mload(0x40)\n      dup1\n      swap2\n      sub\n      swap1\n      revert\n    tag_82:\n        /* \"contracts/Ownable.sol\":2019:2020  0 */\n      0x00\n        /* \"contracts/Ownable.sol\":1999:2021  newOwner != address(0) */\n      0xffffffffffffffffffffffffffffffffffffffff\n      and\n        /* \"contracts/Ownable.sol\":1999:2007  newOwner */\n      dup2\n        /* \"contracts/Ownable.sol\":1999:2021  newOwner != address(0) */\n      0xffffffffffffffffffffffffffffffffffffffff\n      and\n      sub\n        /* \"contracts/Ownable.sol\":1991:2064  require(newOwner != address(0), \"Ownable: new owner is the zero address\") */\n      tag_85\n      jumpi\n      mload(0x40)\n      0x08c379a000000000000000000000000000000000000000000000000000000000\n      dup2\n      mstore\n      0x04\n      add\n      tag_86\n      swap1\n      tag_87\n      jump\t// in\n    tag_86:\n      mload(0x40)\n      dup1\n      swap2\n      sub\n      swap1\n      revert\n    tag_85:\n        /* \"contracts/Ownable.sol\":2074:2102  _transferOwnership(newOwner) */\n      tag_88\n        /* \"contracts/Ownable.sol\":2093:2101  newOwner */\n      dup2\n        /* \"contracts/Ownable.sol\":2074:2092  _transferOwnership */\n      tag_37\n        /* \"contracts/Ownable.sol\":2074:2102  _transferOwnership(newOwner) */\n      jump\t// in\n    tag_88:\n        /* \"contracts/Ownable.sol\":1911:2109  function transferOwnership(address newOwner) public virtual onlyOwner {... */\n      pop\n      jump\t// out\n        /* \"contracts/Context.sol\":640:736  function _msgSender() internal view virtual returns (address) {... */\n    tag_30:\n        /* \"contracts/Context.sol\":693:700  address */\n      0x00\n        /* \"contracts/Context.sol\":719:729  msg.sender */\n      caller\n        /* \"contracts/Context.sol\":712:729  return msg.sender */\n      swap1\n      pop\n        /* \"contracts/Context.sol\":640:736  function _msgSender() internal view virtual returns (address) {... */\n      swap1\n      jump\t// out\n        /* \"contracts/Ownable.sol\":2263:2450  function _transferOwnership(address newOwner) internal virtual {... */\n    tag_37:\n        /* \"contracts/Ownable.sol\":2336:2352  address oldOwner */\n      0x00\n        /* \"contracts/Ownable.sol\":2355:2361  _owner */\n      dup1\n      0x00\n      swap1\n      sload\n      swap1\n      0x0100\n      exp\n      swap1\n      div\n      0xffffffffffffffffffffffffffffffffffffffff\n      and\n        /* \"contracts/Ownable.sol\":2336:2361  address oldOwner = _owner */\n      swap1\n      pop\n        /* \"contracts/Ownable.sol\":2380:2388  newOwner */\n      dup2\n        /* \"contracts/Ownable.sol\":2371:2377  _owner */\n      0x00\n      dup1\n        /* \"contracts/Ownable.sol\":2371:2388  _owner = newOwner */\n      0x0100\n      exp\n      dup2\n      sload\n      dup2\n      0xffffffffffffffffffffffffffffffffffffffff\n      mul\n      not\n      and\n      swap1\n      dup4\n      0xffffffffffffffffffffffffffffffffffffffff\n      and\n      mul\n      or\n      swap1\n      sstore\n      pop\n        /* \"contracts/Ownable.sol\":2434:2442  newOwner */\n      dup2\n        /* \"contracts/Ownable.sol\":2403:2443  OwnershipTransferred(oldOwner, newOwner) */\n      0xffffffffffffffffffffffffffffffffffffffff\n      and\n        /* \"contracts/Ownable.sol\":2424:2432  oldOwner */\n      dup2\n        /* \"contracts/Ownable.sol\":2403:2443  OwnershipTransferred(oldOwner, newOwner) */\n      0xffffffffffffffffffffffffffffffffffffffff\n      and\n      0x8be0079c531659141344cd1fd0a4f28419497f9722a3daafe3b4186f6b6457e0\n      mload(0x40)\n      mload(0x40)\n      dup1\n      swap2\n      sub\n      swap1\n      log3\n        /* \"contracts/Ownable.sol\":2326:2450  {... */\n      pop\n        /* \"contracts/Ownable.sol\":2263:2450  function _transferOwnership(address newOwner) internal virtual {... */\n      pop\n      jump\t// out\n    tag_70:\n      dup3\n      dup1\n      sload\n      tag_91\n      swap1\n      tag_41\n      jump\t// in\n    tag_91:\n      swap1\n      0x00\n      mstore\n      keccak256(0x00, 0x20)\n      swap1\n      0x1f\n      add\n      0x20\n      swap1\n      div\n      dup2\n      add\n      swap3\n      dup3\n      tag_93\n      jumpi\n      0x00\n      dup6\n      sstore\n      jump(tag_92)\n    tag_93:\n      dup3\n      0x1f\n      lt\n      tag_94\n      jumpi\n      dup1\n      mload\n      not(0xff)\n      and\n      dup4\n      dup1\n      add\n      or\n      dup6\n      sstore\n      jump(tag_92)\n    tag_94:\n      dup3\n      dup1\n      add\n      0x01\n      add\n      dup6\n      sstore\n      dup3\n      iszero\n      tag_92\n      jumpi\n      swap2\n      dup3\n      add\n    tag_95:\n      dup3\n      dup2\n      gt\n      iszero\n      tag_96\n      jumpi\n      dup3\n      mload\n      dup3\n      sstore\n      swap2\n      0x20\n      add\n      swap2\n      swap1\n      0x01\n      add\n      swap1\n      jump(tag_95)\n    tag_96:\n    tag_92:\n      pop\n      swap1\n      pop\n      tag_97\n      swap2\n      swap1\n      tag_98\n      jump\t// in\n    tag_97:\n      pop\n      swap1\n      jump\t// out\n    tag_98:\n    tag_99:\n      dup1\n      dup3\n      gt\n      iszero\n      tag_100\n      jumpi\n      0x00\n      dup2\n      0x00\n      swap1\n      sstore\n      pop\n      0x01\n      add\n      jump(tag_99)\n    tag_100:\n      pop\n      swap1\n      jump\t// out\n        /* \"#utility.yul\":7:82   */\n    tag_101:\n        /* \"#utility.yul\":40:46   */\n      0x00\n        /* \"#utility.yul\":73:75   */\n      0x40\n        /* \"#utility.yul\":67:76   */\n      mload\n        /* \"#utility.yul\":57:76   */\n      swap1\n      pop\n        /* \"#utility.yul\":7:82   */\n      swap1\n      jump\t// out\n        /* \"#utility.yul\":88:205   */\n    tag_102:\n        /* \"#utility.yul\":197:198   */\n      0x00\n        /* \"#utility.yul\":194:195   */\n      dup1\n        /* \"#utility.yul\":187:199   */\n      revert\n        /* \"#utility.yul\":211:328   */\n    tag_103:\n        /* \"#utility.yul\":320:321   */\n      0x00\n        /* \"#utility.yul\":317:318   */\n      dup1\n        /* \"#utility.yul\":310:322   */\n      revert\n        /* \"#utility.yul\":334:411   */\n    tag_104:\n        /* \"#utility.yul\":371:378   */\n      0x00\n        /* \"#utility.yul\":400:405   */\n      dup2\n        /* \"#utility.yul\":389:405   */\n      swap1\n      pop\n        /* \"#utility.yul\":334:411   */\n      swap2\n      swap1\n      pop\n      jump\t// out\n        /* \"#utility.yul\":417:539   */\n    tag_105:\n        /* \"#utility.yul\":490:514   */\n      tag_143\n        /* \"#utility.yul\":508:513   */\n      dup2\n        /* \"#utility.yul\":490:514   */\n      tag_104\n      jump\t// in\n    tag_143:\n        /* \"#utility.yul\":483:488   */\n      dup2\n        /* \"#utility.yul\":480:515   */\n      eq\n        /* \"#utility.yul\":470:533   */\n      tag_144\n      jumpi\n        /* \"#utility.yul\":529:530   */\n      0x00\n        /* \"#utility.yul\":526:527   */\n      dup1\n        /* \"#utility.yul\":519:531   */\n      revert\n        /* \"#utility.yul\":470:533   */\n    tag_144:\n        /* \"#utility.yul\":417:539   */\n      pop\n      jump\t// out\n        /* \"#utility.yul\":545:684   */\n    tag_106:\n        /* \"#utility.yul\":591:596   */\n      0x00\n        /* \"#utility.yul\":629:635   */\n      dup2\n        /* \"#utility.yul\":616:636   */\n      calldataload\n        /* \"#utility.yul\":607:636   */\n      swap1\n      pop\n        /* \"#utility.yul\":645:678   */\n      tag_146\n        /* \"#utility.yul\":672:677   */\n      dup2\n        /* \"#utility.yul\":645:678   */\n      tag_105\n      jump\t// in\n    tag_146:\n        /* \"#utility.yul\":545:684   */\n      swap3\n      swap2\n      pop\n      pop\n      jump\t// out\n        /* \"#utility.yul\":690:1019   */\n    tag_12:\n        /* \"#utility.yul\":749:755   */\n      0x00\n        /* \"#utility.yul\":798:800   */\n      0x20\n        /* \"#utility.yul\":786:795   */\n      dup3\n        /* \"#utility.yul\":777:784   */\n      dup5\n        /* \"#utility.yul\":773:796   */\n      sub\n        /* \"#utility.yul\":769:801   */\n      slt\n        /* \"#utility.yul\":766:885   */\n      iszero\n      tag_148\n      jumpi\n        /* \"#utility.yul\":804:883   */\n      tag_149\n      tag_102\n      jump\t// in\n    tag_149:\n        /* \"#utility.yul\":766:885   */\n    tag_148:\n        /* \"#utility.yul\":924:925   */\n      0x00\n        /* \"#utility.yul\":949:1002   */\n      tag_150\n        /* \"#utility.yul\":994:1001   */\n      dup5\n        /* \"#utility.yul\":985:991   */\n      dup3\n        /* \"#utility.yul\":974:983   */\n      dup6\n        /* \"#utility.yul\":970:992   */\n      add\n        /* \"#utility.yul\":949:1002   */\n      tag_106\n      jump\t// in\n    tag_150:\n        /* \"#utility.yul\":939:1002   */\n      swap2\n      pop\n        /* \"#utility.yul\":895:1012   */\n      pop\n        /* \"#utility.yul\":690:1019   */\n      swap3\n      swap2\n      pop\n      pop\n      jump\t// out\n        /* \"#utility.yul\":1025:1124   */\n    tag_107:\n        /* \"#utility.yul\":1077:1083   */\n      0x00\n        /* \"#utility.yul\":1111:1116   */\n      dup2\n        /* \"#utility.yul\":1105:1117   */\n      mload\n        /* \"#utility.yul\":1095:1117   */\n      swap1\n      pop\n        /* \"#utility.yul\":1025:1124   */\n      swap2\n      swap1\n      pop\n      jump\t// out\n        /* \"#utility.yul\":1130:1299   */\n    tag_108:\n        /* \"#utility.yul\":1214:1225   */\n      0x00\n        /* \"#utility.yul\":1248:1254   */\n      dup3\n        /* \"#utility.yul\":1243:1246   */\n      dup3\n        /* \"#utility.yul\":1236:1255   */\n      mstore\n        /* \"#utility.yul\":1288:1292   */\n      0x20\n        /* \"#utility.yul\":1283:1286   */\n      dup3\n        /* \"#utility.yul\":1279:1293   */\n      add\n        /* \"#utility.yul\":1264:1293   */\n      swap1\n      pop\n        /* \"#utility.yul\":1130:1299   */\n      swap3\n      swap2\n      pop\n      pop\n      jump\t// out\n        /* \"#utility.yul\":1305:1612   */\n    tag_109:\n        /* \"#utility.yul\":1373:1374   */\n      0x00\n        /* \"#utility.yul\":1383:1496   */\n    tag_154:\n        /* \"#utility.yul\":1397:1403   */\n      dup4\n        /* \"#utility.yul\":1394:1395   */\n      dup2\n        /* \"#utility.yul\":1391:1404   */\n      lt\n        /* \"#utility.yul\":1383:1496   */\n      iszero\n      tag_156\n      jumpi\n        /* \"#utility.yul\":1482:1483   */\n      dup1\n        /* \"#utility.yul\":1477:1480   */\n      dup3\n        /* \"#utility.yul\":1473:1484   */\n      add\n        /* \"#utility.yul\":1467:1485   */\n      mload\n        /* \"#utility.yul\":1463:1464   */\n      dup2\n        /* \"#utility.yul\":1458:1461   */\n      dup5\n        /* \"#utility.yul\":1454:1465   */\n      add\n        /* \"#utility.yul\":1447:1486   */\n      mstore\n        /* \"#utility.yul\":1419:1421   */\n      0x20\n        /* \"#utility.yul\":1416:1417   */\n      dup2\n        /* \"#utility.yul\":1412:1422   */\n      add\n        /* \"#utility.yul\":1407:1422   */\n      swap1\n      pop\n        /* \"#utility.yul\":1383:1496   */\n      jump(tag_154)\n    tag_156:\n        /* \"#utility.yul\":1514:1520   */\n      dup4\n        /* \"#utility.yul\":1511:1512   */\n      dup2\n        /* \"#utility.yul\":1508:1521   */\n      gt\n        /* \"#utility.yul\":1505:1606   */\n      iszero\n      tag_157\n      jumpi\n        /* \"#utility.yul\":1594:1595   */\n      0x00\n        /* \"#utility.yul\":1585:1591   */\n      dup5\n        /* \"#utility.yul\":1580:1583   */\n      dup5\n        /* \"#utility.yul\":1576:1592   */\n      add\n        /* \"#utility.yul\":1569:1596   */\n      mstore\n        /* \"#utility.yul\":1505:1606   */\n    tag_157:\n        /* \"#utility.yul\":1354:1612   */\n      pop\n        /* \"#utility.yul\":1305:1612   */\n      pop\n      pop\n      pop\n      jump\t// out\n        /* \"#utility.yul\":1618:1720   */\n    tag_110:\n        /* \"#utility.yul\":1659:1665   */\n      0x00\n        /* \"#utility.yul\":1710:1712   */\n      0x1f\n        /* \"#utility.yul\":1706:1713   */\n      not\n        /* \"#utility.yul\":1701:1703   */\n      0x1f\n        /* \"#utility.yul\":1694:1699   */\n      dup4\n        /* \"#utility.yul\":1690:1704   */\n      add\n        /* \"#utility.yul\":1686:1714   */\n      and\n        /* \"#utility.yul\":1676:1714   */\n      swap1\n      pop\n        /* \"#utility.yul\":1618:1720   */\n      swap2\n      swap1\n      pop\n      jump\t// out\n        /* \"#utility.yul\":1726:2090   */\n    tag_111:\n        /* \"#utility.yul\":1814:1817   */\n      0x00\n        /* \"#utility.yul\":1842:1881   */\n      tag_160\n        /* \"#utility.yul\":1875:1880   */\n      dup3\n        /* \"#utility.yul\":1842:1881   */\n      tag_107\n      jump\t// in\n    tag_160:\n        /* \"#utility.yul\":1897:1968   */\n      tag_161\n        /* \"#utility.yul\":1961:1967   */\n      dup2\n        /* \"#utility.yul\":1956:1959   */\n      dup6\n        /* \"#utility.yul\":1897:1968   */\n      tag_108\n      jump\t// in\n    tag_161:\n        /* \"#utility.yul\":1890:1968   */\n      swap4\n      pop\n        /* \"#utility.yul\":1977:2029   */\n      tag_162\n        /* \"#utility.yul\":2022:2028   */\n      dup2\n        /* \"#utility.yul\":2017:2020   */\n      dup6\n        /* \"#utility.yul\":2010:2014   */\n      0x20\n        /* \"#utility.yul\":2003:2008   */\n      dup7\n        /* \"#utility.yul\":1999:2015   */\n      add\n        /* \"#utility.yul\":1977:2029   */\n      tag_109\n      jump\t// in\n    tag_162:\n        /* \"#utility.yul\":2054:2083   */\n      tag_163\n        /* \"#utility.yul\":2076:2082   */\n      dup2\n        /* \"#utility.yul\":2054:2083   */\n      tag_110\n      jump\t// in\n    tag_163:\n        /* \"#utility.yul\":2049:2052   */\n      dup5\n        /* \"#utility.yul\":2045:2084   */\n      add\n        /* \"#utility.yul\":2038:2084   */\n      swap2\n      pop\n        /* \"#utility.yul\":1818:2090   */\n      pop\n        /* \"#utility.yul\":1726:2090   */\n      swap3\n      swap2\n      pop\n      pop\n      jump\t// out\n        /* \"#utility.yul\":2096:2182   */\n    tag_112:\n        /* \"#utility.yul\":2131:2138   */\n      0x00\n        /* \"#utility.yul\":2171:2175   */\n      0xff\n        /* \"#utility.yul\":2164:2169   */\n      dup3\n        /* \"#utility.yul\":2160:2176   */\n      and\n        /* \"#utility.yul\":2149:2176   */\n      swap1\n      pop\n        /* \"#utility.yul\":2096:2182   */\n      swap2\n      swap1\n      pop\n      jump\t// out\n        /* \"#utility.yul\":2188:2300   */\n    tag_113:\n        /* \"#utility.yul\":2271:2293   */\n      tag_166\n        /* \"#utility.yul\":2287:2292   */\n      dup2\n        /* \"#utility.yul\":2271:2293   */\n      tag_112\n      jump\t// in\n    tag_166:\n        /* \"#utility.yul\":2266:2269   */\n      dup3\n        /* \"#utility.yul\":2259:2294   */\n      mstore\n        /* \"#utility.yul\":2188:2300   */\n      pop\n      pop\n      jump\t// out\n        /* \"#utility.yul\":2306:3528   */\n    tag_15:\n        /* \"#utility.yul\":2635:2639   */\n      0x00\n        /* \"#utility.yul\":2673:2676   */\n      0xc0\n        /* \"#utility.yul\":2662:2671   */\n      dup3\n        /* \"#utility.yul\":2658:2677   */\n      add\n        /* \"#utility.yul\":2650:2677   */\n      swap1\n      pop\n        /* \"#utility.yul\":2723:2732   */\n      dup2\n        /* \"#utility.yul\":2717:2721   */\n      dup2\n        /* \"#utility.yul\":2713:2733   */\n      sub\n        /* \"#utility.yul\":2709:2710   */\n      0x00\n        /* \"#utility.yul\":2698:2707   */\n      dup4\n        /* \"#utility.yul\":2694:2711   */\n      add\n        /* \"#utility.yul\":2687:2734   */\n      mstore\n        /* \"#utility.yul\":2751:2829   */\n      tag_168\n        /* \"#utility.yul\":2824:2828   */\n      dup2\n        /* \"#utility.yul\":2815:2821   */\n      dup10\n        /* \"#utility.yul\":2751:2829   */\n      tag_111\n      jump\t// in\n    tag_168:\n        /* \"#utility.yul\":2743:2829   */\n      swap1\n      pop\n        /* \"#utility.yul\":2876:2885   */\n      dup2\n        /* \"#utility.yul\":2870:2874   */\n      dup2\n        /* \"#utility.yul\":2866:2886   */\n      sub\n        /* \"#utility.yul\":2861:2863   */\n      0x20\n        /* \"#utility.yul\":2850:2859   */\n      dup4\n        /* \"#utility.yul\":2846:2864   */\n      add\n        /* \"#utility.yul\":2839:2887   */\n      mstore\n        /* \"#utility.yul\":2904:2982   */\n      tag_169\n        /* \"#utility.yul\":2977:2981   */\n      dup2\n        /* \"#utility.yul\":2968:2974   */\n      dup9\n        /* \"#utility.yul\":2904:2982   */\n      tag_111\n      jump\t// in\n    tag_169:\n        /* \"#utility.yul\":2896:2982   */\n      swap1\n      pop\n        /* \"#utility.yul\":3029:3038   */\n      dup2\n        /* \"#utility.yul\":3023:3027   */\n      dup2\n        /* \"#utility.yul\":3019:3039   */\n      sub\n        /* \"#utility.yul\":3014:3016   */\n      0x40\n        /* \"#utility.yul\":3003:3012   */\n      dup4\n        /* \"#utility.yul\":2999:3017   */\n      add\n        /* \"#utility.yul\":2992:3040   */\n      mstore\n        /* \"#utility.yul\":3057:3135   */\n      tag_170\n        /* \"#utility.yul\":3130:3134   */\n      dup2\n        /* \"#utility.yul\":3121:3127   */\n      dup8\n        /* \"#utility.yul\":3057:3135   */\n      tag_111\n      jump\t// in\n    tag_170:\n        /* \"#utility.yul\":3049:3135   */\n      swap1\n      pop\n        /* \"#utility.yul\":3182:3191   */\n      dup2\n        /* \"#utility.yul\":3176:3180   */\n      dup2\n        /* \"#utility.yul\":3172:3192   */\n      sub\n        /* \"#utility.yul\":3167:3169   */\n      0x60\n        /* \"#utility.yul\":3156:3165   */\n      dup4\n        /* \"#utility.yul\":3152:3170   */\n      add\n        /* \"#utility.yul\":3145:3193   */\n      mstore\n        /* \"#utility.yul\":3210:3288   */\n      tag_171\n        /* \"#utility.yul\":3283:3287   */\n      dup2\n        /* \"#utility.yul\":3274:3280   */\n      dup7\n        /* \"#utility.yul\":3210:3288   */\n      tag_111\n      jump\t// in\n    tag_171:\n        /* \"#utility.yul\":3202:3288   */\n      swap1\n      pop\n        /* \"#utility.yul\":3336:3345   */\n      dup2\n        /* \"#utility.yul\":3330:3334   */\n      dup2\n        /* \"#utility.yul\":3326:3346   */\n      sub\n        /* \"#utility.yul\":3320:3323   */\n      0x80\n        /* \"#utility.yul\":3309:3318   */\n      dup4\n        /* \"#utility.yul\":3305:3324   */\n      add\n        /* \"#utility.yul\":3298:3347   */\n      mstore\n        /* \"#utility.yul\":3364:3442   */\n      tag_172\n        /* \"#utility.yul\":3437:3441   */\n      dup2\n        /* \"#utility.yul\":3428:3434   */\n      dup6\n        /* \"#utility.yul\":3364:3442   */\n      tag_111\n      jump\t// in\n    tag_172:\n        /* \"#utility.yul\":3356:3442   */\n      swap1\n      pop\n        /* \"#utility.yul\":3452:3521   */\n      tag_173\n        /* \"#utility.yul\":3516:3519   */\n      0xa0\n        /* \"#utility.yul\":3505:3514   */\n      dup4\n        /* \"#utility.yul\":3501:3520   */\n      add\n        /* \"#utility.yul\":3492:3498   */\n      dup5\n        /* \"#utility.yul\":3452:3521   */\n      tag_113\n      jump\t// in\n    tag_173:\n        /* \"#utility.yul\":2306:3528   */\n      swap8\n      swap7\n      pop\n      pop\n      pop\n      pop\n      pop\n      pop\n      pop\n      jump\t// out\n        /* \"#utility.yul\":3534:3660   */\n    tag_114:\n        /* \"#utility.yul\":3571:3578   */\n      0x00\n        /* \"#utility.yul\":3611:3653   */\n      0xffffffffffffffffffffffffffffffffffffffff\n        /* \"#utility.yul\":3604:3609   */\n      dup3\n        /* \"#utility.yul\":3600:3654   */\n      and\n        /* \"#utility.yul\":3589:3654   */\n      swap1\n      pop\n        /* \"#utility.yul\":3534:3660   */\n      swap2\n      swap1\n      pop\n      jump\t// out\n        /* \"#utility.yul\":3666:3762   */\n    tag_115:\n        /* \"#utility.yul\":3703:3710   */\n      0x00\n        /* \"#utility.yul\":3732:3756   */\n      tag_176\n        /* \"#utility.yul\":3750:3755   */\n      dup3\n        /* \"#utility.yul\":3732:3756   */\n      tag_114\n      jump\t// in\n    tag_176:\n        /* \"#utility.yul\":3721:3756   */\n      swap1\n      pop\n        /* \"#utility.yul\":3666:3762   */\n      swap2\n      swap1\n      pop\n      jump\t// out\n        /* \"#utility.yul\":3768:3886   */\n    tag_116:\n        /* \"#utility.yul\":3855:3879   */\n      tag_178\n        /* \"#utility.yul\":3873:3878   */\n      dup2\n        /* \"#utility.yul\":3855:3879   */\n      tag_115\n      jump\t// in\n    tag_178:\n        /* \"#utility.yul\":3850:3853   */\n      dup3\n        /* \"#utility.yul\":3843:3880   */\n      mstore\n        /* \"#utility.yul\":3768:3886   */\n      pop\n      pop\n      jump\t// out\n        /* \"#utility.yul\":3892:4114   */\n    tag_19:\n        /* \"#utility.yul\":3985:3989   */\n      0x00\n        /* \"#utility.yul\":4023:4025   */\n      0x20\n        /* \"#utility.yul\":4012:4021   */\n      dup3\n        /* \"#utility.yul\":4008:4026   */\n      add\n        /* \"#utility.yul\":4000:4026   */\n      swap1\n      pop\n        /* \"#utility.yul\":4036:4107   */\n      tag_180\n        /* \"#utility.yul\":4104:4105   */\n      0x00\n        /* \"#utility.yul\":4093:4102   */\n      dup4\n        /* \"#utility.yul\":4089:4106   */\n      add\n        /* \"#utility.yul\":4080:4086   */\n      dup5\n        /* \"#utility.yul\":4036:4107   */\n      tag_116\n      jump\t// in\n    tag_180:\n        /* \"#utility.yul\":3892:4114   */\n      swap3\n      swap2\n      pop\n      pop\n      jump\t// out\n        /* \"#utility.yul\":4120:4237   */\n    tag_117:\n        /* \"#utility.yul\":4229:4230   */\n      0x00\n        /* \"#utility.yul\":4226:4227   */\n      dup1\n        /* \"#utility.yul\":4219:4231   */\n      revert\n        /* \"#utility.yul\":4243:4360   */\n    tag_118:\n        /* \"#utility.yul\":4352:4353   */\n      0x00\n        /* \"#utility.yul\":4349:4350   */\n      dup1\n        /* \"#utility.yul\":4342:4354   */\n      revert\n        /* \"#utility.yul\":4366:4546   */\n    tag_119:\n        /* \"#utility.yul\":4414:4491   */\n      0x4e487b7100000000000000000000000000000000000000000000000000000000\n        /* \"#utility.yul\":4411:4412   */\n      0x00\n        /* \"#utility.yul\":4404:4492   */\n      mstore\n        /* \"#utility.yul\":4511:4515   */\n      0x41\n        /* \"#utility.yul\":4508:4509   */\n      0x04\n        /* \"#utility.yul\":4501:4516   */\n      mstore\n        /* \"#utility.yul\":4535:4539   */\n      0x24\n        /* \"#utility.yul\":4532:4533   */\n      0x00\n        /* \"#utility.yul\":4525:4540   */\n      revert\n        /* \"#utility.yul\":4552:4833   */\n    tag_120:\n        /* \"#utility.yul\":4635:4662   */\n      tag_185\n        /* \"#utility.yul\":4657:4661   */\n      dup3\n        /* \"#utility.yul\":4635:4662   */\n      tag_110\n      jump\t// in\n    tag_185:\n        /* \"#utility.yul\":4627:4633   */\n      dup2\n        /* \"#utility.yul\":4623:4663   */\n      add\n        /* \"#utility.yul\":4765:4771   */\n      dup2\n        /* \"#utility.yul\":4753:4763   */\n      dup2\n        /* \"#utility.yul\":4750:4772   */\n      lt\n        /* \"#utility.yul\":4729:4747   */\n      0xffffffffffffffff\n        /* \"#utility.yul\":4717:4727   */\n      dup3\n        /* \"#utility.yul\":4714:4748   */\n      gt\n        /* \"#utility.yul\":4711:4773   */\n      or\n        /* \"#utility.yul\":4708:4796   */\n      iszero\n      tag_186\n      jumpi\n        /* \"#utility.yul\":4776:4794   */\n      tag_187\n      tag_119\n      jump\t// in\n    tag_187:\n        /* \"#utility.yul\":4708:4796   */\n    tag_186:\n        /* \"#utility.yul\":4816:4826   */\n      dup1\n        /* \"#utility.yul\":4812:4814   */\n      0x40\n        /* \"#utility.yul\":4805:4827   */\n      mstore\n        /* \"#utility.yul\":4595:4833   */\n      pop\n        /* \"#utility.yul\":4552:4833   */\n      pop\n      pop\n      jump\t// out\n        /* \"#utility.yul\":4839:4968   */\n    tag_121:\n        /* \"#utility.yul\":4873:4879   */\n      0x00\n        /* \"#utility.yul\":4900:4920   */\n      tag_189\n      tag_101\n      jump\t// in\n    tag_189:\n        /* \"#utility.yul\":4890:4920   */\n      swap1\n      pop\n        /* \"#utility.yul\":4929:4962   */\n      tag_190\n        /* \"#utility.yul\":4957:4961   */\n      dup3\n        /* \"#utility.yul\":4949:4955   */\n      dup3\n        /* \"#utility.yul\":4929:4962   */\n      tag_120\n      jump\t// in\n    tag_190:\n        /* \"#utility.yul\":4839:4968   */\n      swap2\n      swap1\n      pop\n      jump\t// out\n        /* \"#utility.yul\":4974:5282   */\n    tag_122:\n        /* \"#utility.yul\":5036:5040   */\n      0x00\n        /* \"#utility.yul\":5126:5144   */\n      0xffffffffffffffff\n        /* \"#utility.yul\":5118:5124   */\n      dup3\n        /* \"#utility.yul\":5115:5145   */\n      gt\n        /* \"#utility.yul\":5112:5168   */\n      iszero\n      tag_192\n      jumpi\n        /* \"#utility.yul\":5148:5166   */\n      tag_193\n      tag_119\n      jump\t// in\n    tag_193:\n        /* \"#utility.yul\":5112:5168   */\n    tag_192:\n        /* \"#utility.yul\":5186:5215   */\n      tag_194\n        /* \"#utility.yul\":5208:5214   */\n      dup3\n        /* \"#utility.yul\":5186:5215   */\n      tag_110\n      jump\t// in\n    tag_194:\n        /* \"#utility.yul\":5178:5215   */\n      swap1\n      pop\n        /* \"#utility.yul\":5270:5274   */\n      0x20\n        /* \"#utility.yul\":5264:5268   */\n      dup2\n        /* \"#utility.yul\":5260:5275   */\n      add\n        /* \"#utility.yul\":5252:5275   */\n      swap1\n      pop\n        /* \"#utility.yul\":4974:5282   */\n      swap2\n      swap1\n      pop\n      jump\t// out\n        /* \"#utility.yul\":5288:5442   */\n    tag_123:\n        /* \"#utility.yul\":5372:5378   */\n      dup3\n        /* \"#utility.yul\":5367:5370   */\n      dup2\n        /* \"#utility.yul\":5362:5365   */\n      dup4\n        /* \"#utility.yul\":5349:5379   */\n      calldatacopy\n        /* \"#utility.yul\":5434:5435   */\n      0x00\n        /* \"#utility.yul\":5425:5431   */\n      dup4\n        /* \"#utility.yul\":5420:5423   */\n      dup4\n        /* \"#utility.yul\":5416:5432   */\n      add\n        /* \"#utility.yul\":5409:5436   */\n      mstore\n        /* \"#utility.yul\":5288:5442   */\n      pop\n      pop\n      pop\n      jump\t// out\n        /* \"#utility.yul\":5448:5860   */\n    tag_124:\n        /* \"#utility.yul\":5526:5531   */\n      0x00\n        /* \"#utility.yul\":5551:5617   */\n      tag_197\n        /* \"#utility.yul\":5567:5616   */\n      tag_198\n        /* \"#utility.yul\":5609:5615   */\n      dup5\n        /* \"#utility.yul\":5567:5616   */\n      tag_122\n      jump\t// in\n    tag_198:\n        /* \"#utility.yul\":5551:5617   */\n      tag_121\n      jump\t// in\n    tag_197:\n        /* \"#utility.yul\":5542:5617   */\n      swap1\n      pop\n        /* \"#utility.yul\":5640:5646   */\n      dup3\n        /* \"#utility.yul\":5633:5638   */\n      dup2\n        /* \"#utility.yul\":5626:5647   */\n      mstore\n        /* \"#utility.yul\":5678:5682   */\n      0x20\n        /* \"#utility.yul\":5671:5676   */\n      dup2\n        /* \"#utility.yul\":5667:5683   */\n      add\n        /* \"#utility.yul\":5716:5719   */\n      dup5\n        /* \"#utility.yul\":5707:5713   */\n      dup5\n        /* \"#utility.yul\":5702:5705   */\n      dup5\n        /* \"#utility.yul\":5698:5714   */\n      add\n        /* \"#utility.yul\":5695:5720   */\n      gt\n        /* \"#utility.yul\":5692:5804   */\n      iszero\n      tag_199\n      jumpi\n        /* \"#utility.yul\":5723:5802   */\n      tag_200\n      tag_118\n      jump\t// in\n    tag_200:\n        /* \"#utility.yul\":5692:5804   */\n    tag_199:\n        /* \"#utility.yul\":5813:5854   */\n      tag_201\n        /* \"#utility.yul\":5847:5853   */\n      dup5\n        /* \"#utility.yul\":5842:5845   */\n      dup3\n        /* \"#utility.yul\":5837:5840   */\n      dup6\n        /* \"#utility.yul\":5813:5854   */\n      tag_123\n      jump\t// in\n    tag_201:\n        /* \"#utility.yul\":5532:5860   */\n      pop\n        /* \"#utility.yul\":5448:5860   */\n      swap4\n      swap3\n      pop\n      pop\n      pop\n      jump\t// out\n        /* \"#utility.yul\":5880:6220   */\n    tag_125:\n        /* \"#utility.yul\":5936:5941   */\n      0x00\n        /* \"#utility.yul\":5985:5988   */\n      dup3\n        /* \"#utility.yul\":5978:5982   */\n      0x1f\n        /* \"#utility.yul\":5970:5976   */\n      dup4\n        /* \"#utility.yul\":5966:5983   */\n      add\n        /* \"#utility.yul\":5962:5989   */\n      slt\n        /* \"#utility.yul\":5952:6074   */\n      tag_203\n      jumpi\n        /* \"#utility.yul\":5993:6072   */\n      tag_204\n      tag_117\n      jump\t// in\n    tag_204:\n        /* \"#utility.yul\":5952:6074   */\n    tag_203:\n        /* \"#utility.yul\":6110:6116   */\n      dup2\n        /* \"#utility.yul\":6097:6117   */\n      calldataload\n        /* \"#utility.yul\":6135:6214   */\n      tag_205\n        /* \"#utility.yul\":6210:6213   */\n      dup5\n        /* \"#utility.yul\":6202:6208   */\n      dup3\n        /* \"#utility.yul\":6195:6199   */\n      0x20\n        /* \"#utility.yul\":6187:6193   */\n      dup7\n        /* \"#utility.yul\":6183:6200   */\n      add\n        /* \"#utility.yul\":6135:6214   */\n      tag_124\n      jump\t// in\n    tag_205:\n        /* \"#utility.yul\":6126:6214   */\n      swap2\n      pop\n        /* \"#utility.yul\":5942:6220   */\n      pop\n        /* \"#utility.yul\":5880:6220   */\n      swap3\n      swap2\n      pop\n      pop\n      jump\t// out\n        /* \"#utility.yul\":6226:6344   */\n    tag_126:\n        /* \"#utility.yul\":6297:6319   */\n      tag_207\n        /* \"#utility.yul\":6313:6318   */\n      dup2\n        /* \"#utility.yul\":6297:6319   */\n      tag_112\n      jump\t// in\n    tag_207:\n        /* \"#utility.yul\":6290:6295   */\n      dup2\n        /* \"#utility.yul\":6287:6320   */\n      eq\n        /* \"#utility.yul\":6277:6338   */\n      tag_208\n      jumpi\n        /* \"#utility.yul\":6334:6335   */\n      0x00\n        /* \"#utility.yul\":6331:6332   */\n      dup1\n        /* \"#utility.yul\":6324:6336   */\n      revert\n        /* \"#utility.yul\":6277:6338   */\n    tag_208:\n        /* \"#utility.yul\":6226:6344   */\n      pop\n      jump\t// out\n        /* \"#utility.yul\":6350:6485   */\n    tag_127:\n        /* \"#utility.yul\":6394:6399   */\n      0x00\n        /* \"#utility.yul\":6432:6438   */\n      dup2\n        /* \"#utility.yul\":6419:6439   */\n      calldataload\n        /* \"#utility.yul\":6410:6439   */\n      swap1\n      pop\n        /* \"#utility.yul\":6448:6479   */\n      tag_210\n        /* \"#utility.yul\":6473:6478   */\n      dup2\n        /* \"#utility.yul\":6448:6479   */\n      tag_126\n      jump\t// in\n    tag_210:\n        /* \"#utility.yul\":6350:6485   */\n      swap3\n      swap2\n      pop\n      pop\n      jump\t// out\n        /* \"#utility.yul\":6491:8444   */\n    tag_22:\n        /* \"#utility.yul\":6643:6649   */\n      0x00\n        /* \"#utility.yul\":6651:6657   */\n      dup1\n        /* \"#utility.yul\":6659:6665   */\n      0x00\n        /* \"#utility.yul\":6667:6673   */\n      dup1\n        /* \"#utility.yul\":6675:6681   */\n      0x00\n        /* \"#utility.yul\":6683:6689   */\n      dup1\n        /* \"#utility.yul\":6732:6735   */\n      0xc0\n        /* \"#utility.yul\":6720:6729   */\n      dup8\n        /* \"#utility.yul\":6711:6718   */\n      dup10\n        /* \"#utility.yul\":6707:6730   */\n      sub\n        /* \"#utility.yul\":6703:6736   */\n      slt\n        /* \"#utility.yul\":6700:6820   */\n      iszero\n      tag_212\n      jumpi\n        /* \"#utility.yul\":6739:6818   */\n      tag_213\n      tag_102\n      jump\t// in\n    tag_213:\n        /* \"#utility.yul\":6700:6820   */\n    tag_212:\n        /* \"#utility.yul\":6887:6888   */\n      0x00\n        /* \"#utility.yul\":6876:6885   */\n      dup8\n        /* \"#utility.yul\":6872:6889   */\n      add\n        /* \"#utility.yul\":6859:6890   */\n      calldataload\n        /* \"#utility.yul\":6917:6935   */\n      0xffffffffffffffff\n        /* \"#utility.yul\":6909:6915   */\n      dup2\n        /* \"#utility.yul\":6906:6936   */\n      gt\n        /* \"#utility.yul\":6903:7020   */\n      iszero\n      tag_214\n      jumpi\n        /* \"#utility.yul\":6939:7018   */\n      tag_215\n      tag_103\n      jump\t// in\n    tag_215:\n        /* \"#utility.yul\":6903:7020   */\n    tag_214:\n        /* \"#utility.yul\":7044:7107   */\n      tag_216\n        /* \"#utility.yul\":7099:7106   */\n      dup10\n        /* \"#utility.yul\":7090:7096   */\n      dup3\n        /* \"#utility.yul\":7079:7088   */\n      dup11\n        /* \"#utility.yul\":7075:7097   */\n      add\n        /* \"#utility.yul\":7044:7107   */\n      tag_125\n      jump\t// in\n    tag_216:\n        /* \"#utility.yul\":7034:7107   */\n      swap7\n      pop\n        /* \"#utility.yul\":6830:7117   */\n      pop\n        /* \"#utility.yul\":7184:7186   */\n      0x20\n        /* \"#utility.yul\":7173:7182   */\n      dup8\n        /* \"#utility.yul\":7169:7187   */\n      add\n        /* \"#utility.yul\":7156:7188   */\n      calldataload\n        /* \"#utility.yul\":7215:7233   */\n      0xffffffffffffffff\n        /* \"#utility.yul\":7207:7213   */\n      dup2\n        /* \"#utility.yul\":7204:7234   */\n      gt\n        /* \"#utility.yul\":7201:7318   */\n      iszero\n      tag_217\n      jumpi\n        /* \"#utility.yul\":7237:7316   */\n      tag_218\n      tag_103\n      jump\t// in\n    tag_218:\n        /* \"#utility.yul\":7201:7318   */\n    tag_217:\n        /* \"#utility.yul\":7342:7405   */\n      tag_219\n        /* \"#utility.yul\":7397:7404   */\n      dup10\n        /* \"#utility.yul\":7388:7394   */\n      dup3\n        /* \"#utility.yul\":7377:7386   */\n      dup11\n        /* \"#utility.yul\":7373:7395   */\n      add\n        /* \"#utility.yul\":7342:7405   */\n      tag_125\n      jump\t// in\n    tag_219:\n        /* \"#utility.yul\":7332:7405   */\n      swap6\n      pop\n        /* \"#utility.yul\":7127:7415   */\n      pop\n        /* \"#utility.yul\":7482:7484   */\n      0x40\n        /* \"#utility.yul\":7471:7480   */\n      dup8\n        /* \"#utility.yul\":7467:7485   */\n      add\n        /* \"#utility.yul\":7454:7486   */\n      calldataload\n        /* \"#utility.yul\":7513:7531   */\n      0xffffffffffffffff\n        /* \"#utility.yul\":7505:7511   */\n      dup2\n        /* \"#utility.yul\":7502:7532   */\n      gt\n        /* \"#utility.yul\":7499:7616   */\n      iszero\n      tag_220\n      jumpi\n        /* \"#utility.yul\":7535:7614   */\n      tag_221\n      tag_103\n      jump\t// in\n    tag_221:\n        /* \"#utility.yul\":7499:7616   */\n    tag_220:\n        /* \"#utility.yul\":7640:7703   */\n      tag_222\n        /* \"#utility.yul\":7695:7702   */\n      dup10\n        /* \"#utility.yul\":7686:7692   */\n      dup3\n        /* \"#utility.yul\":7675:7684   */\n      dup11\n        /* \"#utility.yul\":7671:7693   */\n      add\n        /* \"#utility.yul\":7640:7703   */\n      tag_125\n      jump\t// in\n    tag_222:\n        /* \"#utility.yul\":7630:7703   */\n      swap5\n      pop\n        /* \"#utility.yul\":7425:7713   */\n      pop\n        /* \"#utility.yul\":7780:7782   */\n      0x60\n        /* \"#utility.yul\":7769:7778   */\n      dup8\n        /* \"#utility.yul\":7765:7783   */\n      add\n        /* \"#utility.yul\":7752:7784   */\n      calldataload\n        /* \"#utility.yul\":7811:7829   */\n      0xffffffffffffffff\n        /* \"#utility.yul\":7803:7809   */\n      dup2\n        /* \"#utility.yul\":7800:7830   */\n      gt\n        /* \"#utility.yul\":7797:7914   */\n      iszero\n      tag_223\n      jumpi\n        /* \"#utility.yul\":7833:7912   */\n      tag_224\n      tag_103\n      jump\t// in\n    tag_224:\n        /* \"#utility.yul\":7797:7914   */\n    tag_223:\n        /* \"#utility.yul\":7938:8001   */\n      tag_225\n        /* \"#utility.yul\":7993:8000   */\n      dup10\n        /* \"#utility.yul\":7984:7990   */\n      dup3\n        /* \"#utility.yul\":7973:7982   */\n      dup11\n        /* \"#utility.yul\":7969:7991   */\n      add\n        /* \"#utility.yul\":7938:8001   */\n      tag_125\n      jump\t// in\n    tag_225:\n        /* \"#utility.yul\":7928:8001   */\n      swap4\n      pop\n        /* \"#utility.yul\":7723:8011   */\n      pop\n        /* \"#utility.yul\":8078:8081   */\n      0x80\n        /* \"#utility.yul\":8067:8076   */\n      dup8\n        /* \"#utility.yul\":8063:8082   */\n      add\n        /* \"#utility.yul\":8050:8083   */\n      calldataload\n        /* \"#utility.yul\":8110:8128   */\n      0xffffffffffffffff\n        /* \"#utility.yul\":8102:8108   */\n      dup2\n        /* \"#utility.yul\":8099:8129   */\n      gt\n        /* \"#utility.yul\":8096:8213   */\n      iszero\n      tag_226\n      jumpi\n        /* \"#utility.yul\":8132:8211   */\n      tag_227\n      tag_103\n      jump\t// in\n    tag_227:\n        /* \"#utility.yul\":8096:8213   */\n    tag_226:\n        /* \"#utility.yul\":8237:8300   */\n      tag_228\n        /* \"#utility.yul\":8292:8299   */\n      dup10\n        /* \"#utility.yul\":8283:8289   */\n      dup3\n        /* \"#utility.yul\":8272:8281   */\n      dup11\n        /* \"#utility.yul\":8268:8290   */\n      add\n        /* \"#utility.yul\":8237:8300   */\n      tag_125\n      jump\t// in\n    tag_228:\n        /* \"#utility.yul\":8227:8300   */\n      swap3\n      pop\n        /* \"#utility.yul\":8021:8310   */\n      pop\n        /* \"#utility.yul\":8349:8352   */\n      0xa0\n        /* \"#utility.yul\":8376:8427   */\n      tag_229\n        /* \"#utility.yul\":8419:8426   */\n      dup10\n        /* \"#utility.yul\":8410:8416   */\n      dup3\n        /* \"#utility.yul\":8399:8408   */\n      dup11\n        /* \"#utility.yul\":8395:8417   */\n      add\n        /* \"#utility.yul\":8376:8427   */\n      tag_127\n      jump\t// in\n    tag_229:\n        /* \"#utility.yul\":8366:8427   */\n      swap2\n      pop\n        /* \"#utility.yul\":8320:8437   */\n      pop\n        /* \"#utility.yul\":6491:8444   */\n      swap3\n      swap6\n      pop\n      swap3\n      swap6\n      pop\n      swap3\n      swap6\n      jump\t// out\n        /* \"#utility.yul\":8450:8572   */\n    tag_128:\n        /* \"#utility.yul\":8523:8547   */\n      tag_231\n        /* \"#utility.yul\":8541:8546   */\n      dup2\n        /* \"#utility.yul\":8523:8547   */\n      tag_115\n      jump\t// in\n    tag_231:\n        /* \"#utility.yul\":8516:8521   */\n      dup2\n        /* \"#utility.yul\":8513:8548   */\n      eq\n        /* \"#utility.yul\":8503:8566   */\n      tag_232\n      jumpi\n        /* \"#utility.yul\":8562:8563   */\n      0x00\n        /* \"#utility.yul\":8559:8560   */\n      dup1\n        /* \"#utility.yul\":8552:8564   */\n      revert\n        /* \"#utility.yul\":8503:8566   */\n    tag_232:\n        /* \"#utility.yul\":8450:8572   */\n      pop\n      jump\t// out\n        /* \"#utility.yul\":8578:8717   */\n    tag_129:\n        /* \"#utility.yul\":8624:8629   */\n      0x00\n        /* \"#utility.yul\":8662:8668   */\n      dup2\n        /* \"#utility.yul\":8649:8669   */\n      calldataload\n        /* \"#utility.yul\":8640:8669   */\n      swap1\n      pop\n        /* \"#utility.yul\":8678:8711   */\n      tag_234\n        /* \"#utility.yul\":8705:8710   */\n      dup2\n        /* \"#utility.yul\":8678:8711   */\n      tag_128\n      jump\t// in\n    tag_234:\n        /* \"#utility.yul\":8578:8717   */\n      swap3\n      swap2\n      pop\n      pop\n      jump\t// out\n        /* \"#utility.yul\":8723:9052   */\n    tag_26:\n        /* \"#utility.yul\":8782:8788   */\n      0x00\n        /* \"#utility.yul\":8831:8833   */\n      0x20\n        /* \"#utility.yul\":8819:8828   */\n      dup3\n        /* \"#utility.yul\":8810:8817   */\n      dup5\n        /* \"#utility.yul\":8806:8829   */\n      sub\n        /* \"#utility.yul\":8802:8834   */\n      slt\n        /* \"#utility.yul\":8799:8918   */\n      iszero\n      tag_236\n      jumpi\n        /* \"#utility.yul\":8837:8916   */\n      tag_237\n      tag_102\n      jump\t// in\n    tag_237:\n        /* \"#utility.yul\":8799:8918   */\n    tag_236:\n        /* \"#utility.yul\":8957:8958   */\n      0x00\n        /* \"#utility.yul\":8982:9035   */\n      tag_238\n        /* \"#utility.yul\":9027:9034   */\n      dup5\n        /* \"#utility.yul\":9018:9024   */\n      dup3\n        /* \"#utility.yul\":9007:9016   */\n      dup6\n        /* \"#utility.yul\":9003:9025   */\n      add\n        /* \"#utility.yul\":8982:9035   */\n      tag_129\n      jump\t// in\n    tag_238:\n        /* \"#utility.yul\":8972:9035   */\n      swap2\n      pop\n        /* \"#utility.yul\":8928:9045   */\n      pop\n        /* \"#utility.yul\":8723:9052   */\n      swap3\n      swap2\n      pop\n      pop\n      jump\t// out\n        /* \"#utility.yul\":9058:9240   */\n    tag_130:\n        /* \"#utility.yul\":9198:9232   */\n      0x4f776e61626c653a2063616c6c6572206973206e6f7420746865206f776e6572\n        /* \"#utility.yul\":9194:9195   */\n      0x00\n        /* \"#utility.yul\":9186:9192   */\n      dup3\n        /* \"#utility.yul\":9182:9196   */\n      add\n        /* \"#utility.yul\":9175:9233   */\n      mstore\n        /* \"#utility.yul\":9058:9240   */\n      pop\n      jump\t// out\n        /* \"#utility.yul\":9246:9612   */\n    tag_131:\n        /* \"#utility.yul\":9388:9391   */\n      0x00\n        /* \"#utility.yul\":9409:9476   */\n      tag_241\n        /* \"#utility.yul\":9473:9475   */\n      0x20\n        /* \"#utility.yul\":9468:9471   */\n      dup4\n        /* \"#utility.yul\":9409:9476   */\n      tag_108\n      jump\t// in\n    tag_241:\n        /* \"#utility.yul\":9402:9476   */\n      swap2\n      pop\n        /* \"#utility.yul\":9485:9578   */\n      tag_242\n        /* \"#utility.yul\":9574:9577   */\n      dup3\n        /* \"#utility.yul\":9485:9578   */\n      tag_130\n      jump\t// in\n    tag_242:\n        /* \"#utility.yul\":9603:9605   */\n      0x20\n        /* \"#utility.yul\":9598:9601   */\n      dup3\n        /* \"#utility.yul\":9594:9606   */\n      add\n        /* \"#utility.yul\":9587:9606   */\n      swap1\n      pop\n        /* \"#utility.yul\":9246:9612   */\n      swap2\n      swap1\n      pop\n      jump\t// out\n        /* \"#utility.yul\":9618:10037   */\n    tag_34:\n        /* \"#utility.yul\":9784:9788   */\n      0x00\n        /* \"#utility.yul\":9822:9824   */\n      0x20\n        /* \"#utility.yul\":9811:9820   */\n      dup3\n        /* \"#utility.yul\":9807:9825   */\n      add\n        /* \"#utility.yul\":9799:9825   */\n      swap1\n      pop\n        /* \"#utility.yul\":9871:9880   */\n      dup2\n        /* \"#utility.yul\":9865:9869   */\n      dup2\n        /* \"#utility.yul\":9861:9881   */\n      sub\n        /* \"#utility.yul\":9857:9858   */\n      0x00\n        /* \"#utility.yul\":9846:9855   */\n      dup4\n        /* \"#utility.yul\":9842:9859   */\n      add\n        /* \"#utility.yul\":9835:9882   */\n      mstore\n        /* \"#utility.yul\":9899:10030   */\n      tag_244\n        /* \"#utility.yul\":10025:10029   */\n      dup2\n        /* \"#utility.yul\":9899:10030   */\n      tag_131\n      jump\t// in\n    tag_244:\n        /* \"#utility.yul\":9891:10030   */\n      swap1\n      pop\n        /* \"#utility.yul\":9618:10037   */\n      swap2\n      swap1\n      pop\n      jump\t// out\n        /* \"#utility.yul\":10043:10223   */\n    tag_132:\n        /* \"#utility.yul\":10091:10168   */\n      0x4e487b7100000000000000000000000000000000000000000000000000000000\n        /* \"#utility.yul\":10088:10089   */\n      0x00\n        /* \"#utility.yul\":10081:10169   */\n      mstore\n        /* \"#utility.yul\":10188:10192   */\n      0x22\n        /* \"#utility.yul\":10185:10186   */\n      0x04\n        /* \"#utility.yul\":10178:10193   */\n      mstore\n        /* \"#utility.yul\":10212:10216   */\n      0x24\n        /* \"#utility.yul\":10209:10210   */\n      0x00\n        /* \"#utility.yul\":10202:10217   */\n      revert\n        /* \"#utility.yul\":10229:10549   */\n    tag_41:\n        /* \"#utility.yul\":10273:10279   */\n      0x00\n        /* \"#utility.yul\":10310:10311   */\n      0x02\n        /* \"#utility.yul\":10304:10308   */\n      dup3\n        /* \"#utility.yul\":10300:10312   */\n      div\n        /* \"#utility.yul\":10290:10312   */\n      swap1\n      pop\n        /* \"#utility.yul\":10357:10358   */\n      0x01\n        /* \"#utility.yul\":10351:10355   */\n      dup3\n        /* \"#utility.yul\":10347:10359   */\n      and\n        /* \"#utility.yul\":10378:10396   */\n      dup1\n        /* \"#utility.yul\":10368:10449   */\n      tag_247\n      jumpi\n        /* \"#utility.yul\":10434:10438   */\n      0x7f\n        /* \"#utility.yul\":10426:10432   */\n      dup3\n        /* \"#utility.yul\":10422:10439   */\n      and\n        /* \"#utility.yul\":10412:10439   */\n      swap2\n      pop\n        /* \"#utility.yul\":10368:10449   */\n    tag_247:\n        /* \"#utility.yul\":10496:10498   */\n      0x20\n        /* \"#utility.yul\":10488:10494   */\n      dup3\n        /* \"#utility.yul\":10485:10499   */\n      lt\n        /* \"#utility.yul\":10465:10483   */\n      dup2\n        /* \"#utility.yul\":10462:10500   */\n      sub\n        /* \"#utility.yul\":10459:10543   */\n      tag_248\n      jumpi\n        /* \"#utility.yul\":10515:10533   */\n      tag_249\n      tag_132\n      jump\t// in\n    tag_249:\n        /* \"#utility.yul\":10459:10543   */\n    tag_248:\n        /* \"#utility.yul\":10280:10549   */\n      pop\n        /* \"#utility.yul\":10229:10549   */\n      swap2\n      swap1\n      pop\n      jump\t// out\n        /* \"#utility.yul\":10555:10735   */\n    tag_133:\n        /* \"#utility.yul\":10603:10680   */\n      0x4e487b7100000000000000000000000000000000000000000000000000000000\n        /* \"#utility.yul\":10600:10601   */\n      0x00\n        /* \"#utility.yul\":10593:10681   */\n      mstore\n        /* \"#utility.yul\":10700:10704   */\n      0x11\n        /* \"#utility.yul\":10697:10698   */\n      0x04\n        /* \"#utility.yul\":10690:10705   */\n      mstore\n        /* \"#utility.yul\":10724:10728   */\n      0x24\n        /* \"#utility.yul\":10721:10722   */\n      0x00\n        /* \"#utility.yul\":10714:10729   */\n      revert\n        /* \"#utility.yul\":10741:10932   */\n    tag_76:\n        /* \"#utility.yul\":10781:10785   */\n      0x00\n        /* \"#utility.yul\":10801:10821   */\n      tag_252\n        /* \"#utility.yul\":10819:10820   */\n      dup3\n        /* \"#utility.yul\":10801:10821   */\n      tag_104\n      jump\t// in\n    tag_252:\n        /* \"#utility.yul\":10796:10821   */\n      swap2\n      pop\n        /* \"#utility.yul\":10835:10855   */\n      tag_253\n        /* \"#utility.yul\":10853:10854   */\n      dup4\n        /* \"#utility.yul\":10835:10855   */\n      tag_104\n      jump\t// in\n    tag_253:\n        /* \"#utility.yul\":10830:10855   */\n      swap3\n      pop\n        /* \"#utility.yul\":10874:10875   */\n      dup3\n        /* \"#utility.yul\":10871:10872   */\n      dup3\n        /* \"#utility.yul\":10868:10876   */\n      lt\n        /* \"#utility.yul\":10865:10899   */\n      iszero\n      tag_254\n      jumpi\n        /* \"#utility.yul\":10879:10897   */\n      tag_255\n      tag_133\n      jump\t// in\n    tag_255:\n        /* \"#utility.yul\":10865:10899   */\n    tag_254:\n        /* \"#utility.yul\":10924:10925   */\n      dup3\n        /* \"#utility.yul\":10921:10922   */\n      dup3\n        /* \"#utility.yul\":10917:10926   */\n      sub\n        /* \"#utility.yul\":10909:10926   */\n      swap1\n      pop\n        /* \"#utility.yul\":10741:10932   */\n      swap3\n      swap2\n      pop\n      pop\n      jump\t// out\n        /* \"#utility.yul\":10938:11056   */\n    tag_134:\n        /* \"#utility.yul\":11025:11049   */\n      tag_257\n        /* \"#utility.yul\":11043:11048   */\n      dup2\n        /* \"#utility.yul\":11025:11049   */\n      tag_104\n      jump\t// in\n    tag_257:\n        /* \"#utility.yul\":11020:11023   */\n      dup3\n        /* \"#utility.yul\":11013:11050   */\n      mstore\n        /* \"#utility.yul\":10938:11056   */\n      pop\n      pop\n      jump\t// out\n        /* \"#utility.yul\":11062:11587   */\n    tag_78:\n        /* \"#utility.yul\":11227:11231   */\n      0x00\n        /* \"#utility.yul\":11265:11267   */\n      0x60\n        /* \"#utility.yul\":11254:11263   */\n      dup3\n        /* \"#utility.yul\":11250:11268   */\n      add\n        /* \"#utility.yul\":11242:11268   */\n      swap1\n      pop\n        /* \"#utility.yul\":11278:11349   */\n      tag_259\n        /* \"#utility.yul\":11346:11347   */\n      0x00\n        /* \"#utility.yul\":11335:11344   */\n      dup4\n        /* \"#utility.yul\":11331:11348   */\n      add\n        /* \"#utility.yul\":11322:11328   */\n      dup7\n        /* \"#utility.yul\":11278:11349   */\n      tag_134\n      jump\t// in\n    tag_259:\n        /* \"#utility.yul\":11396:11405   */\n      dup2\n        /* \"#utility.yul\":11390:11394   */\n      dup2\n        /* \"#utility.yul\":11386:11406   */\n      sub\n        /* \"#utility.yul\":11381:11383   */\n      0x20\n        /* \"#utility.yul\":11370:11379   */\n      dup4\n        /* \"#utility.yul\":11366:11384   */\n      add\n        /* \"#utility.yul\":11359:11407   */\n      mstore\n        /* \"#utility.yul\":11424:11502   */\n      tag_260\n        /* \"#utility.yul\":11497:11501   */\n      dup2\n        /* \"#utility.yul\":11488:11494   */\n      dup6\n        /* \"#utility.yul\":11424:11502   */\n      tag_111\n      jump\t// in\n    tag_260:\n        /* \"#utility.yul\":11416:11502   */\n      swap1\n      pop\n        /* \"#utility.yul\":11512:11580   */\n      tag_261\n        /* \"#utility.yul\":11576:11578   */\n      0x40\n        /* \"#utility.yul\":11565:11574   */\n      dup4\n        /* \"#utility.yul\":11561:11579   */\n      add\n        /* \"#utility.yul\":11552:11558   */\n      dup5\n        /* \"#utility.yul\":11512:11580   */\n      tag_113\n      jump\t// in\n    tag_261:\n        /* \"#utility.yul\":11062:11587   */\n      swap5\n      swap4\n      pop\n      pop\n      pop\n      pop\n      jump\t// out\n        /* \"#utility.yul\":11593:11818   */\n    tag_135:\n        /* \"#utility.yul\":11733:11767   */\n      0x4f776e61626c653a206e6577206f776e657220697320746865207a65726f2061\n        /* \"#utility.yul\":11729:11730   */\n      0x00\n        /* \"#utility.yul\":11721:11727   */\n      dup3\n        /* \"#utility.yul\":11717:11731   */\n      add\n        /* \"#utility.yul\":11710:11768   */\n      mstore\n        /* \"#utility.yul\":11802:11810   */\n      0x6464726573730000000000000000000000000000000000000000000000000000\n        /* \"#utility.yul\":11797:11799   */\n      0x20\n        /* \"#utility.yul\":11789:11795   */\n      dup3\n        /* \"#utility.yul\":11785:11800   */\n      add\n        /* \"#utility.yul\":11778:11811   */\n      mstore\n        /* \"#utility.yul\":11593:11818   */\n      pop\n      jump\t// out\n        /* \"#utility.yul\":11824:12190   */\n    tag_136:\n        /* \"#utility.yul\":11966:11969   */\n      0x00\n        /* \"#utility.yul\":11987:12054   */\n      tag_264\n        /* \"#utility.yul\":12051:12053   */\n      0x26\n        /* \"#utility.yul\":12046:12049   */\n      dup4\n        /* \"#utility.yul\":11987:12054   */\n      tag_108\n      jump\t// in\n    tag_264:\n        /* \"#utility.yul\":11980:12054   */\n      swap2\n      pop\n        /* \"#utility.yul\":12063:12156   */\n      tag_265\n        /* \"#utility.yul\":12152:12155   */\n      dup3\n        /* \"#utility.yul\":12063:12156   */\n      tag_135\n      jump\t// in\n    tag_265:\n        /* \"#utility.yul\":12181:12183   */\n      0x40\n        /* \"#utility.yul\":12176:12179   */\n      dup3\n        /* \"#utility.yul\":12172:12184   */\n      add\n        /* \"#utility.yul\":12165:12184   */\n      swap1\n      pop\n        /* \"#utility.yul\":11824:12190   */\n      swap2\n      swap1\n      pop\n      jump\t// out\n        /* \"#utility.yul\":12196:12615   */\n    tag_87:\n        /* \"#utility.yul\":12362:12366   */\n      0x00\n        /* \"#utility.yul\":12400:12402   */\n      0x20\n        /* \"#utility.yul\":12389:12398   */\n      dup3\n        /* \"#utility.yul\":12385:12403   */\n      add\n        /* \"#utility.yul\":12377:12403   */\n      swap1\n      pop\n        /* \"#utility.yul\":12449:12458   */\n      dup2\n        /* \"#utility.yul\":12443:12447   */\n      dup2\n        /* \"#utility.yul\":12439:12459   */\n      sub\n        /* \"#utility.yul\":12435:12436   */\n      0x00\n        /* \"#utility.yul\":12424:12433   */\n      dup4\n        /* \"#utility.yul\":12420:12437   */\n      add\n        /* \"#utility.yul\":12413:12460   */\n      mstore\n        /* \"#utility.yul\":12477:12608   */\n      tag_267\n        /* \"#utility.yul\":12603:12607   */\n      dup2\n        /* \"#utility.yul\":12477:12608   */\n      tag_136\n      jump\t// in\n    tag_267:\n        /* \"#utility.yul\":12469:12608   */\n      swap1\n      pop\n        /* \"#utility.yul\":12196:12615   */\n      swap2\n      swap1\n      pop\n      jump\t// out\n\n    auxdata: 0xa2646970667358221220e4c95980efa4af72c32076979e5032c493a83b04ee63d90137d33098ed36049664736f6c634300080e0033\n}\n",
				"bytecode": {
					"linkReferences": {},
					"object": "608060405234801561001057600080fd5b5061002d61002261003260201b60201c565b61003a60201b60201c565b6100fe565b600033905090565b60008060009054906101000a900473ffffffffffffffffffffffffffffffffffffffff169050816000806101000a81548173ffffffffffffffffffffffffffffffffffffffff021916908373ffffffffffffffffffffffffffffffffffffffff1602179055508173ffffffffffffffffffffffffffffffffffffffff168173ffffffffffffffffffffffffffffffffffffffff167f8be0079c531659141344cd1fd0a4f28419497f9722a3daafe3b4186f6b6457e060405160405180910390a35050565b610f9a8061010d6000396000f3fe608060405234801561001057600080fd5b50600436106100575760003560e01c8063715018a61461005c57806388409afa146100665780638da5cb5b1461009b578063be78b631146100b9578063f2fde38b146100d5575b600080fd5b6100646100f1565b005b610080600480360381019061007b91906108c1565b610179565b604051610092969594939291906109a3565b60405180910390f35b6100a361047a565b6040516100b09190610a68565b60405180910390f35b6100d360048036038101906100ce9190610be4565b6104a3565b005b6100ef60048036038101906100ea9190610d29565b610611565b005b6100f9610708565b73ffffffffffffffffffffffffffffffffffffffff1661011761047a565b73ffffffffffffffffffffffffffffffffffffffff161461016d576040517f08c379a000000000000000000000000000000000000000000000000000000000815260040161016490610da2565b60405180910390fd5b6101776000610710565b565b6001818154811061018957600080fd5b90600052602060002090600602016000915090508060000180546101ac90610df1565b80601f01602080910402602001604051908101604052809291908181526020018280546101d890610df1565b80156102255780601f106101fa57610100808354040283529160200191610225565b820191906000526020600020905b81548152906001019060200180831161020857829003601f168201915b50505050509080600101805461023a90610df1565b80601f016020809104026020016040519081016040528092919081815260200182805461026690610df1565b80156102b35780601f10610288576101008083540402835291602001916102b3565b820191906000526020600020905b81548152906001019060200180831161029657829003601f168201915b5050505050908060020180546102c890610df1565b80601f01602080910402602001604051908101604052809291908181526020018280546102f490610df1565b80156103415780601f1061031657610100808354040283529160200191610341565b820191906000526020600020905b81548152906001019060200180831161032457829003601f168201915b50505050509080600301805461035690610df1565b80601f016020809104026020016040519081016040528092919081815260200182805461038290610df1565b80156103cf5780601f106103a4576101008083540402835291602001916103cf565b820191906000526020600020905b8154815290600101906020018083116103b257829003601f168201915b5050505050908060040180546103e490610df1565b80601f016020809104026020016040519081016040528092919081815260200182805461041090610df1565b801561045d5780601f106104325761010080835404028352916020019161045d565b820191906000526020600020905b81548152906001019060200180831161044057829003601f168201915b5050505050908060050160009054906101000a900460ff16905086565b60008060009054906101000a900473ffffffffffffffffffffffffffffffffffffffff16905090565b60006040518060c001604052808881526020018781526020018681526020018581526020018481526020018360ff1681525090506001819080600181540180825580915050600190039060005260206000209060060201600090919091909150600082015181600001908051906020019061051f9291906107d4565b50602082015181600101908051906020019061053c9291906107d4565b5060408201518160020190805190602001906105599291906107d4565b5060608201518160030190805190602001906105769291906107d4565b5060808201518160040190805190602001906105939291906107d4565b5060a08201518160050160006101000a81548160ff021916908360ff16021790555050506000600180805490506105ca9190610e51565b90507f65f15767962de789c9b272aab37bd0ebcf3f80d97767b708221524c9408debed8189856040516105ff93929190610e94565b60405180910390a15050505050505050565b610619610708565b73ffffffffffffffffffffffffffffffffffffffff1661063761047a565b73ffffffffffffffffffffffffffffffffffffffff161461068d576040517f08c379a000000000000000000000000000000000000000000000000000000000815260040161068490610da2565b60405180910390fd5b600073ffffffffffffffffffffffffffffffffffffffff168173ffffffffffffffffffffffffffffffffffffffff16036106fc576040517f08c379a00000000000000000000000000000000000000000000000000000000081526004016106f390610f44565b60405180910390fd5b61070581610710565b50565b600033905090565b60008060009054906101000a900473ffffffffffffffffffffffffffffffffffffffff169050816000806101000a81548173ffffffffffffffffffffffffffffffffffffffff021916908373ffffffffffffffffffffffffffffffffffffffff1602179055508173ffffffffffffffffffffffffffffffffffffffff168173ffffffffffffffffffffffffffffffffffffffff167f8be0079c531659141344cd1fd0a4f28419497f9722a3daafe3b4186f6b6457e060405160405180910390a35050565b8280546107e090610df1565b90600052602060002090601f0160209004810192826108025760008555610849565b82601f1061081b57805160ff1916838001178555610849565b82800160010185558215610849579182015b8281111561084857825182559160200191906001019061082d565b5b509050610856919061085a565b5090565b5b8082111561087357600081600090555060010161085b565b5090565b6000604051905090565b600080fd5b600080fd5b6000819050919050565b61089e8161088b565b81146108a957600080fd5b50565b6000813590506108bb81610895565b92915050565b6000602082840312156108d7576108d6610881565b5b60006108e5848285016108ac565b91505092915050565b600081519050919050565b600082825260208201905092915050565b60005b8381101561092857808201518184015260208101905061090d565b83811115610937576000848401525b50505050565b6000601f19601f8301169050919050565b6000610959826108ee565b61096381856108f9565b935061097381856020860161090a565b61097c8161093d565b840191505092915050565b600060ff82169050919050565b61099d81610987565b82525050565b600060c08201905081810360008301526109bd818961094e565b905081810360208301526109d1818861094e565b905081810360408301526109e5818761094e565b905081810360608301526109f9818661094e565b90508181036080830152610a0d818561094e565b9050610a1c60a0830184610994565b979650505050505050565b600073ffffffffffffffffffffffffffffffffffffffff82169050919050565b6000610a5282610a27565b9050919050565b610a6281610a47565b82525050565b6000602082019050610a7d6000830184610a59565b92915050565b600080fd5b600080fd5b7f4e487b7100000000000000000000000000000000000000000000000000000000600052604160045260246000fd5b610ac58261093d565b810181811067ffffffffffffffff82111715610ae457610ae3610a8d565b5b80604052505050565b6000610af7610877565b9050610b038282610abc565b919050565b600067ffffffffffffffff821115610b2357610b22610a8d565b5b610b2c8261093d565b9050602081019050919050565b82818337600083830152505050565b6000610b5b610b5684610b08565b610aed565b905082815260208101848484011115610b7757610b76610a88565b5b610b82848285610b39565b509392505050565b600082601f830112610b9f57610b9e610a83565b5b8135610baf848260208601610b48565b91505092915050565b610bc181610987565b8114610bcc57600080fd5b50565b600081359050610bde81610bb8565b92915050565b60008060008060008060c08789031215610c0157610c00610881565b5b600087013567ffffffffffffffff811115610c1f57610c1e610886565b5b610c2b89828a01610b8a565b965050602087013567ffffffffffffffff811115610c4c57610c4b610886565b5b610c5889828a01610b8a565b955050604087013567ffffffffffffffff811115610c7957610c78610886565b5b610c8589828a01610b8a565b945050606087013567ffffffffffffffff811115610ca657610ca5610886565b5b610cb289828a01610b8a565b935050608087013567ffffffffffffffff811115610cd357610cd2610886565b5b610cdf89828a01610b8a565b92505060a0610cf089828a01610bcf565b9150509295509295509295565b610d0681610a47565b8114610d1157600080fd5b50565b600081359050610d2381610cfd565b92915050565b600060208284031215610d3f57610d3e610881565b5b6000610d4d84828501610d14565b91505092915050565b7f4f776e61626c653a2063616c6c6572206973206e6f7420746865206f776e6572600082015250565b6000610d8c6020836108f9565b9150610d9782610d56565b602082019050919050565b60006020820190508181036000830152610dbb81610d7f565b9050919050565b7f4e487b7100000000000000000000000000000000000000000000000000000000600052602260045260246000fd5b60006002820490506001821680610e0957607f821691505b602082108103610e1c57610e1b610dc2565b5b50919050565b7f4e487b7100000000000000000000000000000000000000000000000000000000600052601160045260246000fd5b6000610e5c8261088b565b9150610e678361088b565b925082821015610e7a57610e79610e22565b5b828203905092915050565b610e8e8161088b565b82525050565b6000606082019050610ea96000830186610e85565b8181036020830152610ebb818561094e565b9050610eca6040830184610994565b949350505050565b7f4f776e61626c653a206e6577206f776e657220697320746865207a65726f206160008201527f6464726573730000000000000000000000000000000000000000000000000000602082015250565b6000610f2e6026836108f9565b9150610f3982610ed2565b604082019050919050565b60006020820190508181036000830152610f5d81610f21565b905091905056fea2646970667358221220e4c95980efa4af72c32076979e5032c493a83b04ee63d90137d33098ed36049664736f6c634300080e0033",
					"opcodes": "PUSH1 0x80 PUSH1 0x40 MSTORE CALLVALUE DUP1 ISZERO PUSH2 0x10 JUMPI PUSH1 0x0 DUP1 REVERT JUMPDEST POP PUSH2 0x2D PUSH2 0x22 PUSH2 0x32 PUSH1 0x20 SHL PUSH1 0x20 SHR JUMP JUMPDEST PUSH2 0x3A PUSH1 0x20 SHL PUSH1 0x20 SHR JUMP JUMPDEST PUSH2 0xFE JUMP JUMPDEST PUSH1 0x0 CALLER SWAP1 POP SWAP1 JUMP JUMPDEST PUSH1 0x0 DUP1 PUSH1 0x0 SWAP1 SLOAD SWAP1 PUSH2 0x100 EXP SWAP1 DIV PUSH20 0xFFFFFFFFFFFFFFFFFFFFFFFFFFFFFFFFFFFFFFFF AND SWAP1 POP DUP2 PUSH1 0x0 DUP1 PUSH2 0x100 EXP DUP2 SLOAD DUP2 PUSH20 0xFFFFFFFFFFFFFFFFFFFFFFFFFFFFFFFFFFFFFFFF MUL NOT AND SWAP1 DUP4 PUSH20 0xFFFFFFFFFFFFFFFFFFFFFFFFFFFFFFFFFFFFFFFF AND MUL OR SWAP1 SSTORE POP DUP2 PUSH20 0xFFFFFFFFFFFFFFFFFFFFFFFFFFFFFFFFFFFFFFFF AND DUP2 PUSH20 0xFFFFFFFFFFFFFFFFFFFFFFFFFFFFFFFFFFFFFFFF AND PUSH32 0x8BE0079C531659141344CD1FD0A4F28419497F9722A3DAAFE3B4186F6B6457E0 PUSH1 0x40 MLOAD PUSH1 0x40 MLOAD DUP1 SWAP2 SUB SWAP1 LOG3 POP POP JUMP JUMPDEST PUSH2 0xF9A DUP1 PUSH2 0x10D PUSH1 0x0 CODECOPY PUSH1 0x0 RETURN INVALID PUSH1 0x80 PUSH1 0x40 MSTORE CALLVALUE DUP1 ISZERO PUSH2 0x10 JUMPI PUSH1 0x0 DUP1 REVERT JUMPDEST POP PUSH1 0x4 CALLDATASIZE LT PUSH2 0x57 JUMPI PUSH1 0x0 CALLDATALOAD PUSH1 0xE0 SHR DUP1 PUSH4 0x715018A6 EQ PUSH2 0x5C JUMPI DUP1 PUSH4 0x88409AFA EQ PUSH2 0x66 JUMPI DUP1 PUSH4 0x8DA5CB5B EQ PUSH2 0x9B JUMPI DUP1 PUSH4 0xBE78B631 EQ PUSH2 0xB9 JUMPI DUP1 PUSH4 0xF2FDE38B EQ PUSH2 0xD5 JUMPI JUMPDEST PUSH1 0x0 DUP1 REVERT JUMPDEST PUSH2 0x64 PUSH2 0xF1 JUMP JUMPDEST STOP JUMPDEST PUSH2 0x80 PUSH1 0x4 DUP1 CALLDATASIZE SUB DUP2 ADD SWAP1 PUSH2 0x7B SWAP2 SWAP1 PUSH2 0x8C1 JUMP JUMPDEST PUSH2 0x179 JUMP JUMPDEST PUSH1 0x40 MLOAD PUSH2 0x92 SWAP7 SWAP6 SWAP5 SWAP4 SWAP3 SWAP2 SWAP1 PUSH2 0x9A3 JUMP JUMPDEST PUSH1 0x40 MLOAD DUP1 SWAP2 SUB SWAP1 RETURN JUMPDEST PUSH2 0xA3 PUSH2 0x47A JUMP JUMPDEST PUSH1 0x40 MLOAD PUSH2 0xB0 SWAP2 SWAP1 PUSH2 0xA68 JUMP JUMPDEST PUSH1 0x40 MLOAD DUP1 SWAP2 SUB SWAP1 RETURN JUMPDEST PUSH2 0xD3 PUSH1 0x4 DUP1 CALLDATASIZE SUB DUP2 ADD SWAP1 PUSH2 0xCE SWAP2 SWAP1 PUSH2 0xBE4 JUMP JUMPDEST PUSH2 0x4A3 JUMP JUMPDEST STOP JUMPDEST PUSH2 0xEF PUSH1 0x4 DUP1 CALLDATASIZE SUB DUP2 ADD SWAP1 PUSH2 0xEA SWAP2 SWAP1 PUSH2 0xD29 JUMP JUMPDEST PUSH2 0x611 JUMP JUMPDEST STOP JUMPDEST PUSH2 0xF9 PUSH2 0x708 JUMP JUMPDEST PUSH20 0xFFFFFFFFFFFFFFFFFFFFFFFFFFFFFFFFFFFFFFFF AND PUSH2 0x117 PUSH2 0x47A JUMP JUMPDEST PUSH20 0xFFFFFFFFFFFFFFFFFFFFFFFFFFFFFFFFFFFFFFFF AND EQ PUSH2 0x16D JUMPI PUSH1 0x40 MLOAD PUSH32 0x8C379A000000000000000000000000000000000000000000000000000000000 DUP2 MSTORE PUSH1 0x4 ADD PUSH2 0x164 SWAP1 PUSH2 0xDA2 JUMP JUMPDEST PUSH1 0x40 MLOAD DUP1 SWAP2 SUB SWAP1 REVERT JUMPDEST PUSH2 0x177 PUSH1 0x0 PUSH2 0x710 JUMP JUMPDEST JUMP JUMPDEST PUSH1 0x1 DUP2 DUP2 SLOAD DUP2 LT PUSH2 0x189 JUMPI PUSH1 0x0 DUP1 REVERT JUMPDEST SWAP1 PUSH1 0x0 MSTORE PUSH1 0x20 PUSH1 0x0 KECCAK256 SWAP1 PUSH1 0x6 MUL ADD PUSH1 0x0 SWAP2 POP SWAP1 POP DUP1 PUSH1 0x0 ADD DUP1 SLOAD PUSH2 0x1AC SWAP1 PUSH2 0xDF1 JUMP JUMPDEST DUP1 PUSH1 0x1F ADD PUSH1 0x20 DUP1 SWAP2 DIV MUL PUSH1 0x20 ADD PUSH1 0x40 MLOAD SWAP1 DUP2 ADD PUSH1 0x40 MSTORE DUP1 SWAP3 SWAP2 SWAP1 DUP2 DUP2 MSTORE PUSH1 0x20 ADD DUP3 DUP1 SLOAD PUSH2 0x1D8 SWAP1 PUSH2 0xDF1 JUMP JUMPDEST DUP1 ISZERO PUSH2 0x225 JUMPI DUP1 PUSH1 0x1F LT PUSH2 0x1FA JUMPI PUSH2 0x100 DUP1 DUP4 SLOAD DIV MUL DUP4 MSTORE SWAP2 PUSH1 0x20 ADD SWAP2 PUSH2 0x225 JUMP JUMPDEST DUP3 ADD SWAP2 SWAP1 PUSH1 0x0 MSTORE PUSH1 0x20 PUSH1 0x0 KECCAK256 SWAP1 JUMPDEST DUP2 SLOAD DUP2 MSTORE SWAP1 PUSH1 0x1 ADD SWAP1 PUSH1 0x20 ADD DUP1 DUP4 GT PUSH2 0x208 JUMPI DUP3 SWAP1 SUB PUSH1 0x1F AND DUP3 ADD SWAP2 JUMPDEST POP POP POP POP POP SWAP1 DUP1 PUSH1 0x1 ADD DUP1 SLOAD PUSH2 0x23A SWAP1 PUSH2 0xDF1 JUMP JUMPDEST DUP1 PUSH1 0x1F ADD PUSH1 0x20 DUP1 SWAP2 DIV MUL PUSH1 0x20 ADD PUSH1 0x40 MLOAD SWAP1 DUP2 ADD PUSH1 0x40 MSTORE DUP1 SWAP3 SWAP2 SWAP1 DUP2 DUP2 MSTORE PUSH1 0x20 ADD DUP3 DUP1 SLOAD PUSH2 0x266 SWAP1 PUSH2 0xDF1 JUMP JUMPDEST DUP1 ISZERO PUSH2 0x2B3 JUMPI DUP1 PUSH1 0x1F LT PUSH2 0x288 JUMPI PUSH2 0x100 DUP1 DUP4 SLOAD DIV MUL DUP4 MSTORE SWAP2 PUSH1 0x20 ADD SWAP2 PUSH2 0x2B3 JUMP JUMPDEST DUP3 ADD SWAP2 SWAP1 PUSH1 0x0 MSTORE PUSH1 0x20 PUSH1 0x0 KECCAK256 SWAP1 JUMPDEST DUP2 SLOAD DUP2 MSTORE SWAP1 PUSH1 0x1 ADD SWAP1 PUSH1 0x20 ADD DUP1 DUP4 GT PUSH2 0x296 JUMPI DUP3 SWAP1 SUB PUSH1 0x1F AND DUP3 ADD SWAP2 JUMPDEST POP POP POP POP POP SWAP1 DUP1 PUSH1 0x2 ADD DUP1 SLOAD PUSH2 0x2C8 SWAP1 PUSH2 0xDF1 JUMP JUMPDEST DUP1 PUSH1 0x1F ADD PUSH1 0x20 DUP1 SWAP2 DIV MUL PUSH1 0x20 ADD PUSH1 0x40 MLOAD SWAP1 DUP2 ADD PUSH1 0x40 MSTORE DUP1 SWAP3 SWAP2 SWAP1 DUP2 DUP2 MSTORE PUSH1 0x20 ADD DUP3 DUP1 SLOAD PUSH2 0x2F4 SWAP1 PUSH2 0xDF1 JUMP JUMPDEST DUP1 ISZERO PUSH2 0x341 JUMPI DUP1 PUSH1 0x1F LT PUSH2 0x316 JUMPI PUSH2 0x100 DUP1 DUP4 SLOAD DIV MUL DUP4 MSTORE SWAP2 PUSH1 0x20 ADD SWAP2 PUSH2 0x341 JUMP JUMPDEST DUP3 ADD SWAP2 SWAP1 PUSH1 0x0 MSTORE PUSH1 0x20 PUSH1 0x0 KECCAK256 SWAP1 JUMPDEST DUP2 SLOAD DUP2 MSTORE SWAP1 PUSH1 0x1 ADD SWAP1 PUSH1 0x20 ADD DUP1 DUP4 GT PUSH2 0x324 JUMPI DUP3 SWAP1 SUB PUSH1 0x1F AND DUP3 ADD SWAP2 JUMPDEST POP POP POP POP POP SWAP1 DUP1 PUSH1 0x3 ADD DUP1 SLOAD PUSH2 0x356 SWAP1 PUSH2 0xDF1 JUMP JUMPDEST DUP1 PUSH1 0x1F ADD PUSH1 0x20 DUP1 SWAP2 DIV MUL PUSH1 0x20 ADD PUSH1 0x40 MLOAD SWAP1 DUP2 ADD PUSH1 0x40 MSTORE DUP1 SWAP3 SWAP2 SWAP1 DUP2 DUP2 MSTORE PUSH1 0x20 ADD DUP3 DUP1 SLOAD PUSH2 0x382 SWAP1 PUSH2 0xDF1 JUMP JUMPDEST DUP1 ISZERO PUSH2 0x3CF JUMPI DUP1 PUSH1 0x1F LT PUSH2 0x3A4 JUMPI PUSH2 0x100 DUP1 DUP4 SLOAD DIV MUL DUP4 MSTORE SWAP2 PUSH1 0x20 ADD SWAP2 PUSH2 0x3CF JUMP JUMPDEST DUP3 ADD SWAP2 SWAP1 PUSH1 0x0 MSTORE PUSH1 0x20 PUSH1 0x0 KECCAK256 SWAP1 JUMPDEST DUP2 SLOAD DUP2 MSTORE SWAP1 PUSH1 0x1 ADD SWAP1 PUSH1 0x20 ADD DUP1 DUP4 GT PUSH2 0x3B2 JUMPI DUP3 SWAP1 SUB PUSH1 0x1F AND DUP3 ADD SWAP2 JUMPDEST POP POP POP POP POP SWAP1 DUP1 PUSH1 0x4 ADD DUP1 SLOAD PUSH2 0x3E4 SWAP1 PUSH2 0xDF1 JUMP JUMPDEST DUP1 PUSH1 0x1F ADD PUSH1 0x20 DUP1 SWAP2 DIV MUL PUSH1 0x20 ADD PUSH1 0x40 MLOAD SWAP1 DUP2 ADD PUSH1 0x40 MSTORE DUP1 SWAP3 SWAP2 SWAP1 DUP2 DUP2 MSTORE PUSH1 0x20 ADD DUP3 DUP1 SLOAD PUSH2 0x410 SWAP1 PUSH2 0xDF1 JUMP JUMPDEST DUP1 ISZERO PUSH2 0x45D JUMPI DUP1 PUSH1 0x1F LT PUSH2 0x432 JUMPI PUSH2 0x100 DUP1 DUP4 SLOAD DIV MUL DUP4 MSTORE SWAP2 PUSH1 0x20 ADD SWAP2 PUSH2 0x45D JUMP JUMPDEST DUP3 ADD SWAP2 SWAP1 PUSH1 0x0 MSTORE PUSH1 0x20 PUSH1 0x0 KECCAK256 SWAP1 JUMPDEST DUP2 SLOAD DUP2 MSTORE SWAP1 PUSH1 0x1 ADD SWAP1 PUSH1 0x20 ADD DUP1 DUP4 GT PUSH2 0x440 JUMPI DUP3 SWAP1 SUB PUSH1 0x1F AND DUP3 ADD SWAP2 JUMPDEST POP POP POP POP POP SWAP1 DUP1 PUSH1 0x5 ADD PUSH1 0x0 SWAP1 SLOAD SWAP1 PUSH2 0x100 EXP SWAP1 DIV PUSH1 0xFF AND SWAP1 POP DUP7 JUMP JUMPDEST PUSH1 0x0 DUP1 PUSH1 0x0 SWAP1 SLOAD SWAP1 PUSH2 0x100 EXP SWAP1 DIV PUSH20 0xFFFFFFFFFFFFFFFFFFFFFFFFFFFFFFFFFFFFFFFF AND SWAP1 POP SWAP1 JUMP JUMPDEST PUSH1 0x0 PUSH1 0x40 MLOAD DUP1 PUSH1 0xC0 ADD PUSH1 0x40 MSTORE DUP1 DUP9 DUP2 MSTORE PUSH1 0x20 ADD DUP8 DUP2 MSTORE PUSH1 0x20 ADD DUP7 DUP2 MSTORE PUSH1 0x20 ADD DUP6 DUP2 MSTORE PUSH1 0x20 ADD DUP5 DUP2 MSTORE PUSH1 0x20 ADD DUP4 PUSH1 0xFF AND DUP2 MSTORE POP SWAP1 POP PUSH1 0x1 DUP2 SWAP1 DUP1 PUSH1 0x1 DUP2 SLOAD ADD DUP1 DUP3 SSTORE DUP1 SWAP2 POP POP PUSH1 0x1 SWAP1 SUB SWAP1 PUSH1 0x0 MSTORE PUSH1 0x20 PUSH1 0x0 KECCAK256 SWAP1 PUSH1 0x6 MUL ADD PUSH1 0x0 SWAP1 SWAP2 SWAP1 SWAP2 SWAP1 SWAP2 POP PUSH1 0x0 DUP3 ADD MLOAD DUP2 PUSH1 0x0 ADD SWAP1 DUP1 MLOAD SWAP1 PUSH1 0x20 ADD SWAP1 PUSH2 0x51F SWAP3 SWAP2 SWAP1 PUSH2 0x7D4 JUMP JUMPDEST POP PUSH1 0x20 DUP3 ADD MLOAD DUP2 PUSH1 0x1 ADD SWAP1 DUP1 MLOAD SWAP1 PUSH1 0x20 ADD SWAP1 PUSH2 0x53C SWAP3 SWAP2 SWAP1 PUSH2 0x7D4 JUMP JUMPDEST POP PUSH1 0x40 DUP3 ADD MLOAD DUP2 PUSH1 0x2 ADD SWAP1 DUP1 MLOAD SWAP1 PUSH1 0x20 ADD SWAP1 PUSH2 0x559 SWAP3 SWAP2 SWAP1 PUSH2 0x7D4 JUMP JUMPDEST POP PUSH1 0x60 DUP3 ADD MLOAD DUP2 PUSH1 0x3 ADD SWAP1 DUP1 MLOAD SWAP1 PUSH1 0x20 ADD SWAP1 PUSH2 0x576 SWAP3 SWAP2 SWAP1 PUSH2 0x7D4 JUMP JUMPDEST POP PUSH1 0x80 DUP3 ADD MLOAD DUP2 PUSH1 0x4 ADD SWAP1 DUP1 MLOAD SWAP1 PUSH1 0x20 ADD SWAP1 PUSH2 0x593 SWAP3 SWAP2 SWAP1 PUSH2 0x7D4 JUMP JUMPDEST POP PUSH1 0xA0 DUP3 ADD MLOAD DUP2 PUSH1 0x5 ADD PUSH1 0x0 PUSH2 0x100 EXP DUP2 SLOAD DUP2 PUSH1 0xFF MUL NOT AND SWAP1 DUP4 PUSH1 0xFF AND MUL OR SWAP1 SSTORE POP POP POP PUSH1 0x0 PUSH1 0x1 DUP1 DUP1 SLOAD SWAP1 POP PUSH2 0x5CA SWAP2 SWAP1 PUSH2 0xE51 JUMP JUMPDEST SWAP1 POP PUSH32 0x65F15767962DE789C9B272AAB37BD0EBCF3F80D97767B708221524C9408DEBED DUP2 DUP10 DUP6 PUSH1 0x40 MLOAD PUSH2 0x5FF SWAP4 SWAP3 SWAP2 SWAP1 PUSH2 0xE94 JUMP JUMPDEST PUSH1 0x40 MLOAD DUP1 SWAP2 SUB SWAP1 LOG1 POP POP POP POP POP POP POP POP JUMP JUMPDEST PUSH2 0x619 PUSH2 0x708 JUMP JUMPDEST PUSH20 0xFFFFFFFFFFFFFFFFFFFFFFFFFFFFFFFFFFFFFFFF AND PUSH2 0x637 PUSH2 0x47A JUMP JUMPDEST PUSH20 0xFFFFFFFFFFFFFFFFFFFFFFFFFFFFFFFFFFFFFFFF AND EQ PUSH2 0x68D JUMPI PUSH1 0x40 MLOAD PUSH32 0x8C379A000000000000000000000000000000000000000000000000000000000 DUP2 MSTORE PUSH1 0x4 ADD PUSH2 0x684 SWAP1 PUSH2 0xDA2 JUMP JUMPDEST PUSH1 0x40 MLOAD DUP1 SWAP2 SUB SWAP1 REVERT JUMPDEST PUSH1 0x0 PUSH20 0xFFFFFFFFFFFFFFFFFFFFFFFFFFFFFFFFFFFFFFFF AND DUP2 PUSH20 0xFFFFFFFFFFFFFFFFFFFFFFFFFFFFFFFFFFFFFFFF AND SUB PUSH2 0x6FC JUMPI PUSH1 0x40 MLOAD PUSH32 0x8C379A000000000000000000000000000000000000000000000000000000000 DUP2 MSTORE PUSH1 0x4 ADD PUSH2 0x6F3 SWAP1 PUSH2 0xF44 JUMP JUMPDEST PUSH1 0x40 MLOAD DUP1 SWAP2 SUB SWAP1 REVERT JUMPDEST PUSH2 0x705 DUP2 PUSH2 0x710 JUMP JUMPDEST POP JUMP JUMPDEST PUSH1 0x0 CALLER SWAP1 POP SWAP1 JUMP JUMPDEST PUSH1 0x0 DUP1 PUSH1 0x0 SWAP1 SLOAD SWAP1 PUSH2 0x100 EXP SWAP1 DIV PUSH20 0xFFFFFFFFFFFFFFFFFFFFFFFFFFFFFFFFFFFFFFFF AND SWAP1 POP DUP2 PUSH1 0x0 DUP1 PUSH2 0x100 EXP DUP2 SLOAD DUP2 PUSH20 0xFFFFFFFFFFFFFFFFFFFFFFFFFFFFFFFFFFFFFFFF MUL NOT AND SWAP1 DUP4 PUSH20 0xFFFFFFFFFFFFFFFFFFFFFFFFFFFFFFFFFFFFFFFF AND MUL OR SWAP1 SSTORE POP DUP2 PUSH20 0xFFFFFFFFFFFFFFFFFFFFFFFFFFFFFFFFFFFFFFFF AND DUP2 PUSH20 0xFFFFFFFFFFFFFFFFFFFFFFFFFFFFFFFFFFFFFFFF AND PUSH32 0x8BE0079C531659141344CD1FD0A4F28419497F9722A3DAAFE3B4186F6B6457E0 PUSH1 0x40 MLOAD PUSH1 0x40 MLOAD DUP1 SWAP2 SUB SWAP1 LOG3 POP POP JUMP JUMPDEST DUP3 DUP1 SLOAD PUSH2 0x7E0 SWAP1 PUSH2 0xDF1 JUMP JUMPDEST SWAP1 PUSH1 0x0 MSTORE PUSH1 0x20 PUSH1 0x0 KECCAK256 SWAP1 PUSH1 0x1F ADD PUSH1 0x20 SWAP1 DIV DUP2 ADD SWAP3 DUP3 PUSH2 0x802 JUMPI PUSH1 0x0 DUP6 SSTORE PUSH2 0x849 JUMP JUMPDEST DUP3 PUSH1 0x1F LT PUSH2 0x81B JUMPI DUP1 MLOAD PUSH1 0xFF NOT AND DUP4 DUP1 ADD OR DUP6 SSTORE PUSH2 0x849 JUMP JUMPDEST DUP3 DUP1 ADD PUSH1 0x1 ADD DUP6 SSTORE DUP3 ISZERO PUSH2 0x849 JUMPI SWAP2 DUP3 ADD JUMPDEST DUP3 DUP2 GT ISZERO PUSH2 0x848 JUMPI DUP3 MLOAD DUP3 SSTORE SWAP2 PUSH1 0x20 ADD SWAP2 SWAP1 PUSH1 0x1 ADD SWAP1 PUSH2 0x82D JUMP JUMPDEST JUMPDEST POP SWAP1 POP PUSH2 0x856 SWAP2 SWAP1 PUSH2 0x85A JUMP JUMPDEST POP SWAP1 JUMP JUMPDEST JUMPDEST DUP1 DUP3 GT ISZERO PUSH2 0x873 JUMPI PUSH1 0x0 DUP2 PUSH1 0x0 SWAP1 SSTORE POP PUSH1 0x1 ADD PUSH2 0x85B JUMP JUMPDEST POP SWAP1 JUMP JUMPDEST PUSH1 0x0 PUSH1 0x40 MLOAD SWAP1 POP SWAP1 JUMP JUMPDEST PUSH1 0x0 DUP1 REVERT JUMPDEST PUSH1 0x0 DUP1 REVERT JUMPDEST PUSH1 0x0 DUP2 SWAP1 POP SWAP2 SWAP1 POP JUMP JUMPDEST PUSH2 0x89E DUP2 PUSH2 0x88B JUMP JUMPDEST DUP2 EQ PUSH2 0x8A9 JUMPI PUSH1 0x0 DUP1 REVERT JUMPDEST POP JUMP JUMPDEST PUSH1 0x0 DUP2 CALLDATALOAD SWAP1 POP PUSH2 0x8BB DUP2 PUSH2 0x895 JUMP JUMPDEST SWAP3 SWAP2 POP POP JUMP JUMPDEST PUSH1 0x0 PUSH1 0x20 DUP3 DUP5 SUB SLT ISZERO PUSH2 0x8D7 JUMPI PUSH2 0x8D6 PUSH2 0x881 JUMP JUMPDEST JUMPDEST PUSH1 0x0 PUSH2 0x8E5 DUP5 DUP3 DUP6 ADD PUSH2 0x8AC JUMP JUMPDEST SWAP2 POP POP SWAP3 SWAP2 POP POP JUMP JUMPDEST PUSH1 0x0 DUP2 MLOAD SWAP1 POP SWAP2 SWAP1 POP JUMP JUMPDEST PUSH1 0x0 DUP3 DUP3 MSTORE PUSH1 0x20 DUP3 ADD SWAP1 POP SWAP3 SWAP2 POP POP JUMP JUMPDEST PUSH1 0x0 JUMPDEST DUP4 DUP2 LT ISZERO PUSH2 0x928 JUMPI DUP1 DUP3 ADD MLOAD DUP2 DUP5 ADD MSTORE PUSH1 0x20 DUP2 ADD SWAP1 POP PUSH2 0x90D JUMP JUMPDEST DUP4 DUP2 GT ISZERO PUSH2 0x937 JUMPI PUSH1 0x0 DUP5 DUP5 ADD MSTORE JUMPDEST POP POP POP POP JUMP JUMPDEST PUSH1 0x0 PUSH1 0x1F NOT PUSH1 0x1F DUP4 ADD AND SWAP1 POP SWAP2 SWAP1 POP JUMP JUMPDEST PUSH1 0x0 PUSH2 0x959 DUP3 PUSH2 0x8EE JUMP JUMPDEST PUSH2 0x963 DUP2 DUP6 PUSH2 0x8F9 JUMP JUMPDEST SWAP4 POP PUSH2 0x973 DUP2 DUP6 PUSH1 0x20 DUP7 ADD PUSH2 0x90A JUMP JUMPDEST PUSH2 0x97C DUP2 PUSH2 0x93D JUMP JUMPDEST DUP5 ADD SWAP2 POP POP SWAP3 SWAP2 POP POP JUMP JUMPDEST PUSH1 0x0 PUSH1 0xFF DUP3 AND SWAP1 POP SWAP2 SWAP1 POP JUMP JUMPDEST PUSH2 0x99D DUP2 PUSH2 0x987 JUMP JUMPDEST DUP3 MSTORE POP POP JUMP JUMPDEST PUSH1 0x0 PUSH1 0xC0 DUP3 ADD SWAP1 POP DUP2 DUP2 SUB PUSH1 0x0 DUP4 ADD MSTORE PUSH2 0x9BD DUP2 DUP10 PUSH2 0x94E JUMP JUMPDEST SWAP1 POP DUP2 DUP2 SUB PUSH1 0x20 DUP4 ADD MSTORE PUSH2 0x9D1 DUP2 DUP9 PUSH2 0x94E JUMP JUMPDEST SWAP1 POP DUP2 DUP2 SUB PUSH1 0x40 DUP4 ADD MSTORE PUSH2 0x9E5 DUP2 DUP8 PUSH2 0x94E JUMP JUMPDEST SWAP1 POP DUP2 DUP2 SUB PUSH1 0x60 DUP4 ADD MSTORE PUSH2 0x9F9 DUP2 DUP7 PUSH2 0x94E JUMP JUMPDEST SWAP1 POP DUP2 DUP2 SUB PUSH1 0x80 DUP4 ADD MSTORE PUSH2 0xA0D DUP2 DUP6 PUSH2 0x94E JUMP JUMPDEST SWAP1 POP PUSH2 0xA1C PUSH1 0xA0 DUP4 ADD DUP5 PUSH2 0x994 JUMP JUMPDEST SWAP8 SWAP7 POP POP POP POP POP POP POP JUMP JUMPDEST PUSH1 0x0 PUSH20 0xFFFFFFFFFFFFFFFFFFFFFFFFFFFFFFFFFFFFFFFF DUP3 AND SWAP1 POP SWAP2 SWAP1 POP JUMP JUMPDEST PUSH1 0x0 PUSH2 0xA52 DUP3 PUSH2 0xA27 JUMP JUMPDEST SWAP1 POP SWAP2 SWAP1 POP JUMP JUMPDEST PUSH2 0xA62 DUP2 PUSH2 0xA47 JUMP JUMPDEST DUP3 MSTORE POP POP JUMP JUMPDEST PUSH1 0x0 PUSH1 0x20 DUP3 ADD SWAP1 POP PUSH2 0xA7D PUSH1 0x0 DUP4 ADD DUP5 PUSH2 0xA59 JUMP JUMPDEST SWAP3 SWAP2 POP POP JUMP JUMPDEST PUSH1 0x0 DUP1 REVERT JUMPDEST PUSH1 0x0 DUP1 REVERT JUMPDEST PUSH32 0x4E487B7100000000000000000000000000000000000000000000000000000000 PUSH1 0x0 MSTORE PUSH1 0x41 PUSH1 0x4 MSTORE PUSH1 0x24 PUSH1 0x0 REVERT JUMPDEST PUSH2 0xAC5 DUP3 PUSH2 0x93D JUMP JUMPDEST DUP2 ADD DUP2 DUP2 LT PUSH8 0xFFFFFFFFFFFFFFFF DUP3 GT OR ISZERO PUSH2 0xAE4 JUMPI PUSH2 0xAE3 PUSH2 0xA8D JUMP JUMPDEST JUMPDEST DUP1 PUSH1 0x40 MSTORE POP POP POP JUMP JUMPDEST PUSH1 0x0 PUSH2 0xAF7 PUSH2 0x877 JUMP JUMPDEST SWAP1 POP PUSH2 0xB03 DUP3 DUP3 PUSH2 0xABC JUMP JUMPDEST SWAP2 SWAP1 POP JUMP JUMPDEST PUSH1 0x0 PUSH8 0xFFFFFFFFFFFFFFFF DUP3 GT ISZERO PUSH2 0xB23 JUMPI PUSH2 0xB22 PUSH2 0xA8D JUMP JUMPDEST JUMPDEST PUSH2 0xB2C DUP3 PUSH2 0x93D JUMP JUMPDEST SWAP1 POP PUSH1 0x20 DUP2 ADD SWAP1 POP SWAP2 SWAP1 POP JUMP JUMPDEST DUP3 DUP2 DUP4 CALLDATACOPY PUSH1 0x0 DUP4 DUP4 ADD MSTORE POP POP POP JUMP JUMPDEST PUSH1 0x0 PUSH2 0xB5B PUSH2 0xB56 DUP5 PUSH2 0xB08 JUMP JUMPDEST PUSH2 0xAED JUMP JUMPDEST SWAP1 POP DUP3 DUP2 MSTORE PUSH1 0x20 DUP2 ADD DUP5 DUP5 DUP5 ADD GT ISZERO PUSH2 0xB77 JUMPI PUSH2 0xB76 PUSH2 0xA88 JUMP JUMPDEST JUMPDEST PUSH2 0xB82 DUP5 DUP3 DUP6 PUSH2 0xB39 JUMP JUMPDEST POP SWAP4 SWAP3 POP POP POP JUMP JUMPDEST PUSH1 0x0 DUP3 PUSH1 0x1F DUP4 ADD SLT PUSH2 0xB9F JUMPI PUSH2 0xB9E PUSH2 0xA83 JUMP JUMPDEST JUMPDEST DUP2 CALLDATALOAD PUSH2 0xBAF DUP5 DUP3 PUSH1 0x20 DUP7 ADD PUSH2 0xB48 JUMP JUMPDEST SWAP2 POP POP SWAP3 SWAP2 POP POP JUMP JUMPDEST PUSH2 0xBC1 DUP2 PUSH2 0x987 JUMP JUMPDEST DUP2 EQ PUSH2 0xBCC JUMPI PUSH1 0x0 DUP1 REVERT JUMPDEST POP JUMP JUMPDEST PUSH1 0x0 DUP2 CALLDATALOAD SWAP1 POP PUSH2 0xBDE DUP2 PUSH2 0xBB8 JUMP JUMPDEST SWAP3 SWAP2 POP POP JUMP JUMPDEST PUSH1 0x0 DUP1 PUSH1 0x0 DUP1 PUSH1 0x0 DUP1 PUSH1 0xC0 DUP8 DUP10 SUB SLT ISZERO PUSH2 0xC01 JUMPI PUSH2 0xC00 PUSH2 0x881 JUMP JUMPDEST JUMPDEST PUSH1 0x0 DUP8 ADD CALLDATALOAD PUSH8 0xFFFFFFFFFFFFFFFF DUP2 GT ISZERO PUSH2 0xC1F JUMPI PUSH2 0xC1E PUSH2 0x886 JUMP JUMPDEST JUMPDEST PUSH2 0xC2B DUP10 DUP3 DUP11 ADD PUSH2 0xB8A JUMP JUMPDEST SWAP7 POP POP PUSH1 0x20 DUP8 ADD CALLDATALOAD PUSH8 0xFFFFFFFFFFFFFFFF DUP2 GT ISZERO PUSH2 0xC4C JUMPI PUSH2 0xC4B PUSH2 0x886 JUMP JUMPDEST JUMPDEST PUSH2 0xC58 DUP10 DUP3 DUP11 ADD PUSH2 0xB8A JUMP JUMPDEST SWAP6 POP POP PUSH1 0x40 DUP8 ADD CALLDATALOAD PUSH8 0xFFFFFFFFFFFFFFFF DUP2 GT ISZERO PUSH2 0xC79 JUMPI PUSH2 0xC78 PUSH2 0x886 JUMP JUMPDEST JUMPDEST PUSH2 0xC85 DUP10 DUP3 DUP11 ADD PUSH2 0xB8A JUMP JUMPDEST SWAP5 POP POP PUSH1 0x60 DUP8 ADD CALLDATALOAD PUSH8 0xFFFFFFFFFFFFFFFF DUP2 GT ISZERO PUSH2 0xCA6 JUMPI PUSH2 0xCA5 PUSH2 0x886 JUMP JUMPDEST JUMPDEST PUSH2 0xCB2 DUP10 DUP3 DUP11 ADD PUSH2 0xB8A JUMP JUMPDEST SWAP4 POP POP PUSH1 0x80 DUP8 ADD CALLDATALOAD PUSH8 0xFFFFFFFFFFFFFFFF DUP2 GT ISZERO PUSH2 0xCD3 JUMPI PUSH2 0xCD2 PUSH2 0x886 JUMP JUMPDEST JUMPDEST PUSH2 0xCDF DUP10 DUP3 DUP11 ADD PUSH2 0xB8A JUMP JUMPDEST SWAP3 POP POP PUSH1 0xA0 PUSH2 0xCF0 DUP10 DUP3 DUP11 ADD PUSH2 0xBCF JUMP JUMPDEST SWAP2 POP POP SWAP3 SWAP6 POP SWAP3 SWAP6 POP SWAP3 SWAP6 JUMP JUMPDEST PUSH2 0xD06 DUP2 PUSH2 0xA47 JUMP JUMPDEST DUP2 EQ PUSH2 0xD11 JUMPI PUSH1 0x0 DUP1 REVERT JUMPDEST POP JUMP JUMPDEST PUSH1 0x0 DUP2 CALLDATALOAD SWAP1 POP PUSH2 0xD23 DUP2 PUSH2 0xCFD JUMP JUMPDEST SWAP3 SWAP2 POP POP JUMP JUMPDEST PUSH1 0x0 PUSH1 0x20 DUP3 DUP5 SUB SLT ISZERO PUSH2 0xD3F JUMPI PUSH2 0xD3E PUSH2 0x881 JUMP JUMPDEST JUMPDEST PUSH1 0x0 PUSH2 0xD4D DUP5 DUP3 DUP6 ADD PUSH2 0xD14 JUMP JUMPDEST SWAP2 POP POP SWAP3 SWAP2 POP POP JUMP JUMPDEST PUSH32 0x4F776E61626C653A2063616C6C6572206973206E6F7420746865206F776E6572 PUSH1 0x0 DUP3 ADD MSTORE POP JUMP JUMPDEST PUSH1 0x0 PUSH2 0xD8C PUSH1 0x20 DUP4 PUSH2 0x8F9 JUMP JUMPDEST SWAP2 POP PUSH2 0xD97 DUP3 PUSH2 0xD56 JUMP JUMPDEST PUSH1 0x20 DUP3 ADD SWAP1 POP SWAP2 SWAP1 POP JUMP JUMPDEST PUSH1 0x0 PUSH1 0x20 DUP3 ADD SWAP1 POP DUP2 DUP2 SUB PUSH1 0x0 DUP4 ADD MSTORE PUSH2 0xDBB DUP2 PUSH2 0xD7F JUMP JUMPDEST SWAP1 POP SWAP2 SWAP1 POP JUMP JUMPDEST PUSH32 0x4E487B7100000000000000000000000000000000000000000000000000000000 PUSH1 0x0 MSTORE PUSH1 0x22 PUSH1 0x4 MSTORE PUSH1 0x24 PUSH1 0x0 REVERT JUMPDEST PUSH1 0x0 PUSH1 0x2 DUP3 DIV SWAP1 POP PUSH1 0x1 DUP3 AND DUP1 PUSH2 0xE09 JUMPI PUSH1 0x7F DUP3 AND SWAP2 POP JUMPDEST PUSH1 0x20 DUP3 LT DUP2 SUB PUSH2 0xE1C JUMPI PUSH2 0xE1B PUSH2 0xDC2 JUMP JUMPDEST JUMPDEST POP SWAP2 SWAP1 POP JUMP JUMPDEST PUSH32 0x4E487B7100000000000000000000000000000000000000000000000000000000 PUSH1 0x0 MSTORE PUSH1 0x11 PUSH1 0x4 MSTORE PUSH1 0x24 PUSH1 0x0 REVERT JUMPDEST PUSH1 0x0 PUSH2 0xE5C DUP3 PUSH2 0x88B JUMP JUMPDEST SWAP2 POP PUSH2 0xE67 DUP4 PUSH2 0x88B JUMP JUMPDEST SWAP3 POP DUP3 DUP3 LT ISZERO PUSH2 0xE7A JUMPI PUSH2 0xE79 PUSH2 0xE22 JUMP JUMPDEST JUMPDEST DUP3 DUP3 SUB SWAP1 POP SWAP3 SWAP2 POP POP JUMP JUMPDEST PUSH2 0xE8E DUP2 PUSH2 0x88B JUMP JUMPDEST DUP3 MSTORE POP POP JUMP JUMPDEST PUSH1 0x0 PUSH1 0x60 DUP3 ADD SWAP1 POP PUSH2 0xEA9 PUSH1 0x0 DUP4 ADD DUP7 PUSH2 0xE85 JUMP JUMPDEST DUP2 DUP2 SUB PUSH1 0x20 DUP4 ADD MSTORE PUSH2 0xEBB DUP2 DUP6 PUSH2 0x94E JUMP JUMPDEST SWAP1 POP PUSH2 0xECA PUSH1 0x40 DUP4 ADD DUP5 PUSH2 0x994 JUMP JUMPDEST SWAP5 SWAP4 POP POP POP POP JUMP JUMPDEST PUSH32 0x4F776E61626C653A206E6577206F776E657220697320746865207A65726F2061 PUSH1 0x0 DUP3 ADD MSTORE PUSH32 0x6464726573730000000000000000000000000000000000000000000000000000 PUSH1 0x20 DUP3 ADD MSTORE POP JUMP JUMPDEST PUSH1 0x0 PUSH2 0xF2E PUSH1 0x26 DUP4 PUSH2 0x8F9 JUMP JUMPDEST SWAP2 POP PUSH2 0xF39 DUP3 PUSH2 0xED2 JUMP JUMPDEST PUSH1 0x40 DUP3 ADD SWAP1 POP SWAP2 SWAP1 POP JUMP JUMPDEST PUSH1 0x0 PUSH1 0x20 DUP3 ADD SWAP1 POP DUP2 DUP2 SUB PUSH1 0x0 DUP4 ADD MSTORE PUSH2 0xF5D DUP2 PUSH2 0xF21 JUMP JUMPDEST SWAP1 POP SWAP2 SWAP1 POP JUMP INVALID LOG2 PUSH5 0x6970667358 0x22 SLT KECCAK256 0xE4 0xC9 MSIZE DUP1 0xEF LOG4 0xAF PUSH19 0xC32076979E5032C493A83B04EE63D90137D330 SWAP9 0xED CALLDATASIZE DIV SWAP7 PUSH5 0x736F6C6343 STOP ADDMOD 0xE STOP CALLER "
				},
				"gasEstimates": {
					"creation": {
						"codeDepositCost": "798800",
						"executionCost": "infinite",
						"totalCost": "infinite"
					},
					"external": {
						"createQuiz(string,string,string,string,string,uint8)": "infinite",
						"owner()": "2544",
						"quizzes(uint256)": "infinite",
						"renounceOwnership()": "30352",
						"transferOwnership(address)": "30786"
					}
				},
				"methodIdentifiers": {
					"createQuiz(string,string,string,string,string,uint8)": "be78b631",
					"owner()": "8da5cb5b",
					"quizzes(uint256)": "88409afa",
					"renounceOwnership()": "715018a6",
					"transferOwnership(address)": "f2fde38b"
				}
			},
			"storageLayout": {
				"storage": [
					{
						"astId": 107,
						"contract": "contracts/CreateQuiz.sol:CreateQuiz",
						"label": "_owner",
						"offset": 0,
						"slot": "0",
						"type": "t_address"
					},
					{
						"astId": 51,
						"contract": "contracts/CreateQuiz.sol:CreateQuiz",
						"label": "quizzes",
						"offset": 0,
						"slot": "1",
						"type": "t_array(t_struct(Quiz)47_storage)dyn_storage"
					}
				],
				"types": {
					"t_address": {
						"encoding": "inplace",
						"label": "address",
						"numberOfBytes": "20"
					},
					"t_array(t_struct(Quiz)47_storage)dyn_storage": {
						"base": "t_struct(Quiz)47_storage",
						"encoding": "dynamic_array",
						"label": "struct CreateQuiz.Quiz[]",
						"numberOfBytes": "32"
					},
					"t_string_storage": {
						"encoding": "bytes",
						"label": "string",
						"numberOfBytes": "32"
					},
					"t_struct(Quiz)47_storage": {
						"encoding": "inplace",
						"label": "struct CreateQuiz.Quiz",
						"members": [
							{
								"astId": 36,
								"contract": "contracts/CreateQuiz.sol:CreateQuiz",
								"label": "question",
								"offset": 0,
								"slot": "0",
								"type": "t_string_storage"
							},
							{
								"astId": 38,
								"contract": "contracts/CreateQuiz.sol:CreateQuiz",
								"label": "choice1",
								"offset": 0,
								"slot": "1",
								"type": "t_string_storage"
							},
							{
								"astId": 40,
								"contract": "contracts/CreateQuiz.sol:CreateQuiz",
								"label": "choice2",
								"offset": 0,
								"slot": "2",
								"type": "t_string_storage"
							},
							{
								"astId": 42,
								"contract": "contracts/CreateQuiz.sol:CreateQuiz",
								"label": "choice3",
								"offset": 0,
								"slot": "3",
								"type": "t_string_storage"
							},
							{
								"astId": 44,
								"contract": "contracts/CreateQuiz.sol:CreateQuiz",
								"label": "choice4",
								"offset": 0,
								"slot": "4",
								"type": "t_string_storage"
							},
							{
								"astId": 46,
								"contract": "contracts/CreateQuiz.sol:CreateQuiz",
								"label": "answer",
								"offset": 0,
								"slot": "5",
								"type": "t_uint8"
							}
						],
						"numberOfBytes": "192"
					},
					"t_uint8": {
						"encoding": "inplace",
						"label": "uint8",
						"numberOfBytes": "1"
					}
				}
			},
			"userdoc": {
				"kind": "user",
				"methods": {},
				"version": 1
			}
		}
	}
}