{
	"contracts/ViewQuiz.sol": {
		"ViewQuiz": {
			"abi": [
				{
					"anonymous": false,
					"inputs": [
						{
							"indexed": false,
							"internalType": "string",
							"name": "question",
							"type": "string"
						},
						{
							"indexed": false,
							"internalType": "uint8",
							"name": "answer",
							"type": "uint8"
						}
					],
					"name": "NewQuiz",
					"type": "event"
				},
				{
					"anonymous": false,
					"inputs": [
						{
							"indexed": true,
							"internalType": "address",
							"name": "previousOwner",
							"type": "address"
						},
						{
							"indexed": true,
							"internalType": "address",
							"name": "newOwner",
							"type": "address"
						}
					],
					"name": "OwnershipTransferred",
					"type": "event"
				},
				{
					"inputs": [
						{
							"internalType": "string",
							"name": "_question",
							"type": "string"
						},
						{
							"internalType": "string",
							"name": "_choice1",
							"type": "string"
						},
						{
							"internalType": "string",
							"name": "_choice2",
							"type": "string"
						},
						{
							"internalType": "string",
							"name": "_choice3",
							"type": "string"
						},
						{
							"internalType": "string",
							"name": "_choice4",
							"type": "string"
						},
						{
							"internalType": "string",
							"name": "_hint",
							"type": "string"
						},
						{
							"internalType": "uint8",
							"name": "_answer",
							"type": "uint8"
						},
						{
							"internalType": "uint8",
							"name": "_languageCode",
							"type": "uint8"
						}
					],
					"name": "_createQuiz",
					"outputs": [],
					"stateMutability": "nonpayable",
					"type": "function"
				},
				{
					"inputs": [
						{
							"internalType": "uint256",
							"name": "_quizId",
							"type": "uint256"
						},
						{
							"internalType": "bool",
							"name": "_quizStatus",
							"type": "bool"
						}
					],
					"name": "changeQuizStatus",
					"outputs": [],
					"stateMutability": "nonpayable",
					"type": "function"
				},
				{
					"inputs": [
						{
							"internalType": "uint256",
							"name": "_quizId",
							"type": "uint256"
						}
					],
					"name": "getQuizForOwner",
					"outputs": [
						{
							"components": [
								{
									"internalType": "string",
									"name": "question",
									"type": "string"
								},
								{
									"internalType": "string",
									"name": "choice1",
									"type": "string"
								},
								{
									"internalType": "string",
									"name": "choice2",
									"type": "string"
								},
								{
									"internalType": "string",
									"name": "choice3",
									"type": "string"
								},
								{
									"internalType": "string",
									"name": "choice4",
									"type": "string"
								},
								{
									"internalType": "string",
									"name": "hint",
									"type": "string"
								},
								{
									"internalType": "uint8",
									"name": "answer",
									"type": "uint8"
								},
								{
									"internalType": "uint8",
									"name": "languageCode",
									"type": "uint8"
								}
							],
							"internalType": "struct CreateQuiz.Quiz",
							"name": "",
							"type": "tuple"
						}
					],
					"stateMutability": "view",
					"type": "function"
				},
				{
					"inputs": [
						{
							"internalType": "string",
							"name": "_random",
							"type": "string"
						}
					],
					"name": "getRandomQuizQuestion",
					"outputs": [
						{
							"components": [
								{
									"internalType": "string",
									"name": "question",
									"type": "string"
								},
								{
									"internalType": "string",
									"name": "choice1",
									"type": "string"
								},
								{
									"internalType": "string",
									"name": "choice2",
									"type": "string"
								},
								{
									"internalType": "string",
									"name": "choice3",
									"type": "string"
								},
								{
									"internalType": "string",
									"name": "choice4",
									"type": "string"
								},
								{
									"internalType": "string",
									"name": "hint",
									"type": "string"
								}
							],
							"internalType": "struct ViewQuiz.QuizQuestion",
							"name": "",
							"type": "tuple"
						}
					],
					"stateMutability": "view",
					"type": "function"
				},
				{
					"inputs": [],
					"name": "owner",
					"outputs": [
						{
							"internalType": "address",
							"name": "",
							"type": "address"
						}
					],
					"stateMutability": "view",
					"type": "function"
				},
				{
					"inputs": [
						{
							"internalType": "uint256",
							"name": "",
							"type": "uint256"
						}
					],
					"name": "quizIsActive",
					"outputs": [
						{
							"internalType": "bool",
							"name": "",
							"type": "bool"
						}
					],
					"stateMutability": "view",
					"type": "function"
				},
				{
					"inputs": [
						{
							"internalType": "uint256",
							"name": "",
							"type": "uint256"
						}
					],
					"name": "quizOwner",
					"outputs": [
						{
							"internalType": "address",
							"name": "",
							"type": "address"
						}
					],
					"stateMutability": "view",
					"type": "function"
				},
				{
					"inputs": [
						{
							"internalType": "uint256",
							"name": "_quizId",
							"type": "uint256"
						},
						{
							"internalType": "bool",
							"name": "_quizStatus",
							"type": "bool"
						}
					],
					"name": "quizOwnerChangeStatus",
					"outputs": [],
					"stateMutability": "nonpayable",
					"type": "function"
				},
				{
					"inputs": [],
					"name": "renounceOwnership",
					"outputs": [],
					"stateMutability": "nonpayable",
					"type": "function"
				},
				{
					"inputs": [
						{
							"internalType": "address",
							"name": "newOwner",
							"type": "address"
						}
					],
					"name": "transferOwnership",
					"outputs": [],
					"stateMutability": "nonpayable",
					"type": "function"
				}
			],
			"devdoc": {
				"kind": "dev",
				"methods": {
					"owner()": {
						"details": "Returns the address of the current owner."
					},
					"renounceOwnership()": {
						"details": "Leaves the contract without owner. It will not be possible to call `onlyOwner` functions anymore. Can only be called by the current owner. NOTE: Renouncing ownership will leave the contract without an owner, thereby removing any functionality that is only available to the owner."
					},
					"transferOwnership(address)": {
						"details": "Transfers ownership of the contract to a new account (`newOwner`). Can only be called by the current owner."
					}
				},
				"version": 1
			},
			"evm": {
				"assembly": "    /* \"contracts/ViewQuiz.sol\":93:1015  contract ViewQuiz is CreateQuiz {... */\n  mstore(0x40, 0x80)\n  callvalue\n  dup1\n  iszero\n  tag_1\n  jumpi\n  0x00\n  dup1\n  revert\ntag_1:\n  pop\n    /* \"contracts/Ownable.sol\":914:946  _transferOwnership(_msgSender()) */\n  tag_4\n    /* \"contracts/Ownable.sol\":933:945  _msgSender() */\n  tag_5\n    /* \"contracts/Ownable.sol\":933:943  _msgSender */\n  shl(0x20, tag_6)\n    /* \"contracts/Ownable.sol\":933:945  _msgSender() */\n  0x20\n  shr\n  jump\t// in\ntag_5:\n    /* \"contracts/Ownable.sol\":914:932  _transferOwnership */\n  shl(0x20, tag_7)\n    /* \"contracts/Ownable.sol\":914:946  _transferOwnership(_msgSender()) */\n  0x20\n  shr\n  jump\t// in\ntag_4:\n    /* \"contracts/ViewQuiz.sol\":93:1015  contract ViewQuiz is CreateQuiz {... */\n  jump(tag_8)\n    /* \"contracts/Context.sol\":640:736  function _msgSender() internal view virtual returns (address) {... */\ntag_6:\n    /* \"contracts/Context.sol\":693:700  address */\n  0x00\n    /* \"contracts/Context.sol\":719:729  msg.sender */\n  caller\n    /* \"contracts/Context.sol\":712:729  return msg.sender */\n  swap1\n  pop\n    /* \"contracts/Context.sol\":640:736  function _msgSender() internal view virtual returns (address) {... */\n  swap1\n  jump\t// out\n    /* \"contracts/Ownable.sol\":2263:2450  function _transferOwnership(address newOwner) internal virtual {... */\ntag_7:\n    /* \"contracts/Ownable.sol\":2336:2352  address oldOwner */\n  0x00\n    /* \"contracts/Ownable.sol\":2355:2361  _owner */\n  dup1\n  0x00\n  swap1\n  sload\n  swap1\n  0x0100\n  exp\n  swap1\n  div\n  0xffffffffffffffffffffffffffffffffffffffff\n  and\n    /* \"contracts/Ownable.sol\":2336:2361  address oldOwner = _owner */\n  swap1\n  pop\n    /* \"contracts/Ownable.sol\":2380:2388  newOwner */\n  dup2\n    /* \"contracts/Ownable.sol\":2371:2377  _owner */\n  0x00\n  dup1\n    /* \"contracts/Ownable.sol\":2371:2388  _owner = newOwner */\n  0x0100\n  exp\n  dup2\n  sload\n  dup2\n  0xffffffffffffffffffffffffffffffffffffffff\n  mul\n  not\n  and\n  swap1\n  dup4\n  0xffffffffffffffffffffffffffffffffffffffff\n  and\n  mul\n  or\n  swap1\n  sstore\n  pop\n    /* \"contracts/Ownable.sol\":2434:2442  newOwner */\n  dup2\n    /* \"contracts/Ownable.sol\":2403:2443  OwnershipTransferred(oldOwner, newOwner) */\n  0xffffffffffffffffffffffffffffffffffffffff\n  and\n    /* \"contracts/Ownable.sol\":2424:2432  oldOwner */\n  dup2\n    /* \"contracts/Ownable.sol\":2403:2443  OwnershipTransferred(oldOwner, newOwner) */\n  0xffffffffffffffffffffffffffffffffffffffff\n  and\n  0x8be0079c531659141344cd1fd0a4f28419497f9722a3daafe3b4186f6b6457e0\n  mload(0x40)\n  mload(0x40)\n  dup1\n  swap2\n  sub\n  swap1\n  log3\n    /* \"contracts/Ownable.sol\":2326:2450  {... */\n  pop\n    /* \"contracts/Ownable.sol\":2263:2450  function _transferOwnership(address newOwner) internal virtual {... */\n  pop\n  jump\t// out\n    /* \"contracts/ViewQuiz.sol\":93:1015  contract ViewQuiz is CreateQuiz {... */\ntag_8:\n  dataSize(sub_0)\n  dup1\n  dataOffset(sub_0)\n  0x00\n  codecopy\n  0x00\n  return\nstop\n\nsub_0: assembly {\n        /* \"contracts/ViewQuiz.sol\":93:1015  contract ViewQuiz is CreateQuiz {... */\n      mstore(0x40, 0x80)\n      callvalue\n      dup1\n      iszero\n      tag_1\n      jumpi\n      0x00\n      dup1\n      revert\n    tag_1:\n      pop\n      jumpi(tag_2, lt(calldatasize, 0x04))\n      shr(0xe0, calldataload(0x00))\n      dup1\n      0x8da5cb5b\n      gt\n      tag_13\n      jumpi\n      dup1\n      0x8da5cb5b\n      eq\n      tag_8\n      jumpi\n      dup1\n      0x9302b2b7\n      eq\n      tag_9\n      jumpi\n      dup1\n      0xaecab072\n      eq\n      tag_10\n      jumpi\n      dup1\n      0xe013d704\n      eq\n      tag_11\n      jumpi\n      dup1\n      0xf2fde38b\n      eq\n      tag_12\n      jumpi\n      jump(tag_2)\n    tag_13:\n      dup1\n      0x1d3f7559\n      eq\n      tag_3\n      jumpi\n      dup1\n      0x377def85\n      eq\n      tag_4\n      jumpi\n      dup1\n      0x400ae0f9\n      eq\n      tag_5\n      jumpi\n      dup1\n      0x51a1d40e\n      eq\n      tag_6\n      jumpi\n      dup1\n      0x715018a6\n      eq\n      tag_7\n      jumpi\n    tag_2:\n      0x00\n      dup1\n      revert\n        /* \"contracts/CreateQuiz.sol\":1478:1605  function changeQuizStatus(uint _quizId, bool _quizStatus) public onlyOwner {... */\n    tag_3:\n      tag_14\n      0x04\n      dup1\n      calldatasize\n      sub\n      dup2\n      add\n      swap1\n      tag_15\n      swap2\n      swap1\n      tag_16\n      jump\t// in\n    tag_15:\n      tag_17\n      jump\t// in\n    tag_14:\n      stop\n        /* \"contracts/CreateQuiz.sol\":1243:1388  function quizOwnerChangeStatus(uint _quizId, bool _quizStatus) public onlyQuizOwner(_quizId) {... */\n    tag_4:\n      tag_18\n      0x04\n      dup1\n      calldatasize\n      sub\n      dup2\n      add\n      swap1\n      tag_19\n      swap2\n      swap1\n      tag_16\n      jump\t// in\n    tag_19:\n      tag_20\n      jump\t// in\n    tag_18:\n      stop\n        /* \"contracts/CreateQuiz.sol\":474:516  mapping (uint => address) public quizOwner */\n    tag_5:\n      tag_21\n      0x04\n      dup1\n      calldatasize\n      sub\n      dup2\n      add\n      swap1\n      tag_22\n      swap2\n      swap1\n      tag_23\n      jump\t// in\n    tag_22:\n      tag_24\n      jump\t// in\n    tag_21:\n      mload(0x40)\n      tag_25\n      swap2\n      swap1\n      tag_26\n      jump\t// in\n    tag_25:\n      mload(0x40)\n      dup1\n      swap2\n      sub\n      swap1\n      return\n        /* \"contracts/CreateQuiz.sol\":426:468  mapping (uint => bool) public quizIsActive */\n    tag_6:\n      tag_27\n      0x04\n      dup1\n      calldatasize\n      sub\n      dup2\n      add\n      swap1\n      tag_28\n      swap2\n      swap1\n      tag_23\n      jump\t// in\n    tag_28:\n      tag_29\n      jump\t// in\n    tag_27:\n      mload(0x40)\n      tag_30\n      swap2\n      swap1\n      tag_31\n      jump\t// in\n    tag_30:\n      mload(0x40)\n      dup1\n      swap2\n      sub\n      swap1\n      return\n        /* \"contracts/Ownable.sol\":1661:1762  function renounceOwnership() public virtual onlyOwner {... */\n    tag_7:\n      tag_32\n      tag_33\n      jump\t// in\n    tag_32:\n      stop\n        /* \"contracts/Ownable.sol\":1029:1114  function owner() public view virtual returns (address) {... */\n    tag_8:\n      tag_34\n      tag_35\n      jump\t// in\n    tag_34:\n      mload(0x40)\n      tag_36\n      swap2\n      swap1\n      tag_26\n      jump\t// in\n    tag_36:\n      mload(0x40)\n      dup1\n      swap2\n      sub\n      swap1\n      return\n        /* \"contracts/ViewQuiz.sol\":766:1012  function getRandomQuizQuestion(string memory _random) public view returns (QuizQuestion memory) {... */\n    tag_9:\n      tag_37\n      0x04\n      dup1\n      calldatasize\n      sub\n      dup2\n      add\n      swap1\n      tag_38\n      swap2\n      swap1\n      tag_39\n      jump\t// in\n    tag_38:\n      tag_40\n      jump\t// in\n    tag_37:\n      mload(0x40)\n      tag_41\n      swap2\n      swap1\n      tag_42\n      jump\t// in\n    tag_41:\n      mload(0x40)\n      dup1\n      swap2\n      sub\n      swap1\n      return\n        /* \"contracts/ViewQuiz.sol\":646:759  function getQuizForOwner(uint _quizId) public view returns (Quiz memory) {... */\n    tag_10:\n      tag_43\n      0x04\n      dup1\n      calldatasize\n      sub\n      dup2\n      add\n      swap1\n      tag_44\n      swap2\n      swap1\n      tag_23\n      jump\t// in\n    tag_44:\n      tag_45\n      jump\t// in\n    tag_43:\n      mload(0x40)\n      tag_46\n      swap2\n      swap1\n      tag_47\n      jump\t// in\n    tag_46:\n      mload(0x40)\n      dup1\n      swap2\n      sub\n      swap1\n      return\n        /* \"contracts/CreateQuiz.sol\":708:1180  function _createQuiz(string memory _question, string memory _choice1, string memory _choice2, string memory _choice3, string memory _choice4, string memory _hint, uint8 _answer, uint8 _languageCode) public {... */\n    tag_11:\n      tag_48\n      0x04\n      dup1\n      calldatasize\n      sub\n      dup2\n      add\n      swap1\n      tag_49\n      swap2\n      swap1\n      tag_50\n      jump\t// in\n    tag_49:\n      tag_51\n      jump\t// in\n    tag_48:\n      stop\n        /* \"contracts/Ownable.sol\":1911:2109  function transferOwnership(address newOwner) public virtual onlyOwner {... */\n    tag_12:\n      tag_52\n      0x04\n      dup1\n      calldatasize\n      sub\n      dup2\n      add\n      swap1\n      tag_53\n      swap2\n      swap1\n      tag_54\n      jump\t// in\n    tag_53:\n      tag_55\n      jump\t// in\n    tag_52:\n      stop\n        /* \"contracts/CreateQuiz.sol\":1478:1605  function changeQuizStatus(uint _quizId, bool _quizStatus) public onlyOwner {... */\n    tag_17:\n        /* \"contracts/Ownable.sol\":1252:1264  _msgSender() */\n      tag_57\n        /* \"contracts/Ownable.sol\":1252:1262  _msgSender */\n      tag_58\n        /* \"contracts/Ownable.sol\":1252:1264  _msgSender() */\n      jump\t// in\n    tag_57:\n        /* \"contracts/Ownable.sol\":1241:1264  owner() == _msgSender() */\n      0xffffffffffffffffffffffffffffffffffffffff\n      and\n        /* \"contracts/Ownable.sol\":1241:1248  owner() */\n      tag_59\n        /* \"contracts/Ownable.sol\":1241:1246  owner */\n      tag_35\n        /* \"contracts/Ownable.sol\":1241:1248  owner() */\n      jump\t// in\n    tag_59:\n        /* \"contracts/Ownable.sol\":1241:1264  owner() == _msgSender() */\n      0xffffffffffffffffffffffffffffffffffffffff\n      and\n      eq\n        /* \"contracts/Ownable.sol\":1233:1301  require(owner() == _msgSender(), \"Ownable: caller is not the owner\") */\n      tag_60\n      jumpi\n      mload(0x40)\n      0x08c379a000000000000000000000000000000000000000000000000000000000\n      dup2\n      mstore\n      0x04\n      add\n      tag_61\n      swap1\n      tag_62\n      jump\t// in\n    tag_61:\n      mload(0x40)\n      dup1\n      swap2\n      sub\n      swap1\n      revert\n    tag_60:\n        /* \"contracts/CreateQuiz.sol\":1587:1598  _quizStatus */\n      dup1\n        /* \"contracts/CreateQuiz.sol\":1563:1575  quizIsActive */\n      0x02\n        /* \"contracts/CreateQuiz.sol\":1563:1584  quizIsActive[_quizId] */\n      0x00\n        /* \"contracts/CreateQuiz.sol\":1576:1583  _quizId */\n      dup5\n        /* \"contracts/CreateQuiz.sol\":1563:1584  quizIsActive[_quizId] */\n      dup2\n      mstore\n      0x20\n      add\n      swap1\n      dup2\n      mstore\n      0x20\n      add\n      0x00\n      keccak256\n      0x00\n        /* \"contracts/CreateQuiz.sol\":1563:1598  quizIsActive[_quizId] = _quizStatus */\n      0x0100\n      exp\n      dup2\n      sload\n      dup2\n      0xff\n      mul\n      not\n      and\n      swap1\n      dup4\n      iszero\n      iszero\n      mul\n      or\n      swap1\n      sstore\n      pop\n        /* \"contracts/CreateQuiz.sol\":1478:1605  function changeQuizStatus(uint _quizId, bool _quizStatus) public onlyOwner {... */\n      pop\n      pop\n      jump\t// out\n        /* \"contracts/CreateQuiz.sol\":1243:1388  function quizOwnerChangeStatus(uint _quizId, bool _quizStatus) public onlyQuizOwner(_quizId) {... */\n    tag_20:\n        /* \"contracts/CreateQuiz.sol\":1327:1334  _quizId */\n      dup2\n        /* \"contracts/CreateQuiz.sol\":601:611  msg.sender */\n      caller\n        /* \"contracts/CreateQuiz.sol\":579:611  quizOwner[_quizId] == msg.sender */\n      0xffffffffffffffffffffffffffffffffffffffff\n      and\n        /* \"contracts/CreateQuiz.sol\":579:588  quizOwner */\n      0x03\n        /* \"contracts/CreateQuiz.sol\":579:597  quizOwner[_quizId] */\n      0x00\n        /* \"contracts/CreateQuiz.sol\":589:596  _quizId */\n      dup4\n        /* \"contracts/CreateQuiz.sol\":579:597  quizOwner[_quizId] */\n      dup2\n      mstore\n      0x20\n      add\n      swap1\n      dup2\n      mstore\n      0x20\n      add\n      0x00\n      keccak256\n      0x00\n      swap1\n      sload\n      swap1\n      0x0100\n      exp\n      swap1\n      div\n      0xffffffffffffffffffffffffffffffffffffffff\n      and\n        /* \"contracts/CreateQuiz.sol\":579:611  quizOwner[_quizId] == msg.sender */\n      0xffffffffffffffffffffffffffffffffffffffff\n      and\n      eq\n        /* \"contracts/CreateQuiz.sol\":571:612  require(quizOwner[_quizId] == msg.sender) */\n      tag_65\n      jumpi\n      0x00\n      dup1\n      revert\n    tag_65:\n        /* \"contracts/CreateQuiz.sol\":1370:1381  _quizStatus */\n      dup2\n        /* \"contracts/CreateQuiz.sol\":1346:1358  quizIsActive */\n      0x02\n        /* \"contracts/CreateQuiz.sol\":1346:1367  quizIsActive[_quizId] */\n      0x00\n        /* \"contracts/CreateQuiz.sol\":1359:1366  _quizId */\n      dup6\n        /* \"contracts/CreateQuiz.sol\":1346:1367  quizIsActive[_quizId] */\n      dup2\n      mstore\n      0x20\n      add\n      swap1\n      dup2\n      mstore\n      0x20\n      add\n      0x00\n      keccak256\n      0x00\n        /* \"contracts/CreateQuiz.sol\":1346:1381  quizIsActive[_quizId] = _quizStatus */\n      0x0100\n      exp\n      dup2\n      sload\n      dup2\n      0xff\n      mul\n      not\n      and\n      swap1\n      dup4\n      iszero\n      iszero\n      mul\n      or\n      swap1\n      sstore\n      pop\n        /* \"contracts/CreateQuiz.sol\":1243:1388  function quizOwnerChangeStatus(uint _quizId, bool _quizStatus) public onlyQuizOwner(_quizId) {... */\n      pop\n      pop\n      pop\n      jump\t// out\n        /* \"contracts/CreateQuiz.sol\":474:516  mapping (uint => address) public quizOwner */\n    tag_24:\n      mstore(0x20, 0x03)\n      dup1\n      0x00\n      mstore\n      keccak256(0x00, 0x40)\n      0x00\n      swap2\n      pop\n      sload\n      swap1\n      0x0100\n      exp\n      swap1\n      div\n      0xffffffffffffffffffffffffffffffffffffffff\n      and\n      dup2\n      jump\t// out\n        /* \"contracts/CreateQuiz.sol\":426:468  mapping (uint => bool) public quizIsActive */\n    tag_29:\n      mstore(0x20, 0x02)\n      dup1\n      0x00\n      mstore\n      keccak256(0x00, 0x40)\n      0x00\n      swap2\n      pop\n      sload\n      swap1\n      0x0100\n      exp\n      swap1\n      div\n      0xff\n      and\n      dup2\n      jump\t// out\n        /* \"contracts/Ownable.sol\":1661:1762  function renounceOwnership() public virtual onlyOwner {... */\n    tag_33:\n        /* \"contracts/Ownable.sol\":1252:1264  _msgSender() */\n      tag_68\n        /* \"contracts/Ownable.sol\":1252:1262  _msgSender */\n      tag_58\n        /* \"contracts/Ownable.sol\":1252:1264  _msgSender() */\n      jump\t// in\n    tag_68:\n        /* \"contracts/Ownable.sol\":1241:1264  owner() == _msgSender() */\n      0xffffffffffffffffffffffffffffffffffffffff\n      and\n        /* \"contracts/Ownable.sol\":1241:1248  owner() */\n      tag_69\n        /* \"contracts/Ownable.sol\":1241:1246  owner */\n      tag_35\n        /* \"contracts/Ownable.sol\":1241:1248  owner() */\n      jump\t// in\n    tag_69:\n        /* \"contracts/Ownable.sol\":1241:1264  owner() == _msgSender() */\n      0xffffffffffffffffffffffffffffffffffffffff\n      and\n      eq\n        /* \"contracts/Ownable.sol\":1233:1301  require(owner() == _msgSender(), \"Ownable: caller is not the owner\") */\n      tag_70\n      jumpi\n      mload(0x40)\n      0x08c379a000000000000000000000000000000000000000000000000000000000\n      dup2\n      mstore\n      0x04\n      add\n      tag_71\n      swap1\n      tag_62\n      jump\t// in\n    tag_71:\n      mload(0x40)\n      dup1\n      swap2\n      sub\n      swap1\n      revert\n    tag_70:\n        /* \"contracts/Ownable.sol\":1725:1755  _transferOwnership(address(0)) */\n      tag_73\n        /* \"contracts/Ownable.sol\":1752:1753  0 */\n      0x00\n        /* \"contracts/Ownable.sol\":1725:1743  _transferOwnership */\n      tag_74\n        /* \"contracts/Ownable.sol\":1725:1755  _transferOwnership(address(0)) */\n      jump\t// in\n    tag_73:\n        /* \"contracts/Ownable.sol\":1661:1762  function renounceOwnership() public virtual onlyOwner {... */\n      jump\t// out\n        /* \"contracts/Ownable.sol\":1029:1114  function owner() public view virtual returns (address) {... */\n    tag_35:\n        /* \"contracts/Ownable.sol\":1075:1082  address */\n      0x00\n        /* \"contracts/Ownable.sol\":1101:1107  _owner */\n      dup1\n      0x00\n      swap1\n      sload\n      swap1\n      0x0100\n      exp\n      swap1\n      div\n      0xffffffffffffffffffffffffffffffffffffffff\n      and\n        /* \"contracts/Ownable.sol\":1094:1107  return _owner */\n      swap1\n      pop\n        /* \"contracts/Ownable.sol\":1029:1114  function owner() public view virtual returns (address) {... */\n      swap1\n      jump\t// out\n        /* \"contracts/ViewQuiz.sol\":766:1012  function getRandomQuizQuestion(string memory _random) public view returns (QuizQuestion memory) {... */\n    tag_40:\n        /* \"contracts/ViewQuiz.sol\":841:860  QuizQuestion memory */\n      tag_76\n      tag_77\n      jump\t// in\n    tag_76:\n        /* \"contracts/ViewQuiz.sol\":872:881  uint rand */\n      0x00\n        /* \"contracts/ViewQuiz.sol\":910:917  _random */\n      dup3\n        /* \"contracts/ViewQuiz.sol\":899:918  abi.encode(_random) */\n      add(0x20, mload(0x40))\n      tag_79\n      swap2\n      swap1\n      tag_80\n      jump\t// in\n    tag_79:\n      mload(0x40)\n      0x20\n      dup2\n      dup4\n      sub\n      sub\n      dup2\n      mstore\n      swap1\n      0x40\n      mstore\n        /* \"contracts/ViewQuiz.sol\":889:919  keccak256(abi.encode(_random)) */\n      dup1\n      mload\n      swap1\n      0x20\n      add\n      keccak256\n        /* \"contracts/ViewQuiz.sol\":884:920  uint(keccak256(abi.encode(_random))) */\n      0x00\n      shr\n        /* \"contracts/ViewQuiz.sol\":872:920  uint rand = uint(keccak256(abi.encode(_random))) */\n      swap1\n      pop\n        /* \"contracts/ViewQuiz.sol\":930:941  uint quizId */\n      0x00\n        /* \"contracts/ViewQuiz.sol\":951:958  quizzes */\n      0x01\n        /* \"contracts/ViewQuiz.sol\":951:965  quizzes.length */\n      dup1\n      sload\n      swap1\n      pop\n        /* \"contracts/ViewQuiz.sol\":944:948  rand */\n      dup3\n        /* \"contracts/ViewQuiz.sol\":944:965  rand % quizzes.length */\n      tag_81\n      swap2\n      swap1\n      tag_82\n      jump\t// in\n    tag_81:\n        /* \"contracts/ViewQuiz.sol\":930:965  uint quizId = rand % quizzes.length */\n      swap1\n      pop\n        /* \"contracts/ViewQuiz.sol\":982:1005  getQuizQuestion(quizId) */\n      tag_83\n        /* \"contracts/ViewQuiz.sol\":998:1004  quizId */\n      dup2\n        /* \"contracts/ViewQuiz.sol\":982:997  getQuizQuestion */\n      tag_84\n        /* \"contracts/ViewQuiz.sol\":982:1005  getQuizQuestion(quizId) */\n      jump\t// in\n    tag_83:\n        /* \"contracts/ViewQuiz.sol\":975:1005  return getQuizQuestion(quizId) */\n      swap3\n      pop\n      pop\n      pop\n        /* \"contracts/ViewQuiz.sol\":766:1012  function getRandomQuizQuestion(string memory _random) public view returns (QuizQuestion memory) {... */\n      swap2\n      swap1\n      pop\n      jump\t// out\n        /* \"contracts/ViewQuiz.sol\":646:759  function getQuizForOwner(uint _quizId) public view returns (Quiz memory) {... */\n    tag_45:\n        /* \"contracts/ViewQuiz.sol\":706:717  Quiz memory */\n      tag_85\n      tag_86\n      jump\t// in\n    tag_85:\n        /* \"contracts/ViewQuiz.sol\":736:743  quizzes */\n      0x01\n        /* \"contracts/ViewQuiz.sol\":744:751  _quizId */\n      dup3\n        /* \"contracts/ViewQuiz.sol\":736:752  quizzes[_quizId] */\n      dup2\n      sload\n      dup2\n      lt\n      tag_88\n      jumpi\n      tag_89\n      tag_90\n      jump\t// in\n    tag_89:\n    tag_88:\n      swap1\n      0x00\n      mstore\n      keccak256(0x00, 0x20)\n      swap1\n      0x07\n      mul\n      add\n        /* \"contracts/ViewQuiz.sol\":729:752  return quizzes[_quizId] */\n      mload(0x40)\n      dup1\n      0x0100\n      add\n      0x40\n      mstore\n      swap1\n      dup2\n      0x00\n      dup3\n      add\n      dup1\n      sload\n      tag_92\n      swap1\n      tag_93\n      jump\t// in\n    tag_92:\n      dup1\n      0x1f\n      add\n      0x20\n      dup1\n      swap2\n      div\n      mul\n      0x20\n      add\n      mload(0x40)\n      swap1\n      dup2\n      add\n      0x40\n      mstore\n      dup1\n      swap3\n      swap2\n      swap1\n      dup2\n      dup2\n      mstore\n      0x20\n      add\n      dup3\n      dup1\n      sload\n      tag_94\n      swap1\n      tag_93\n      jump\t// in\n    tag_94:\n      dup1\n      iszero\n      tag_95\n      jumpi\n      dup1\n      0x1f\n      lt\n      tag_96\n      jumpi\n      0x0100\n      dup1\n      dup4\n      sload\n      div\n      mul\n      dup4\n      mstore\n      swap2\n      0x20\n      add\n      swap2\n      jump(tag_95)\n    tag_96:\n      dup3\n      add\n      swap2\n      swap1\n      0x00\n      mstore\n      keccak256(0x00, 0x20)\n      swap1\n    tag_97:\n      dup2\n      sload\n      dup2\n      mstore\n      swap1\n      0x01\n      add\n      swap1\n      0x20\n      add\n      dup1\n      dup4\n      gt\n      tag_97\n      jumpi\n      dup3\n      swap1\n      sub\n      0x1f\n      and\n      dup3\n      add\n      swap2\n    tag_95:\n      pop\n      pop\n      pop\n      pop\n      pop\n      dup2\n      mstore\n      0x20\n      add\n      0x01\n      dup3\n      add\n      dup1\n      sload\n      tag_98\n      swap1\n      tag_93\n      jump\t// in\n    tag_98:\n      dup1\n      0x1f\n      add\n      0x20\n      dup1\n      swap2\n      div\n      mul\n      0x20\n      add\n      mload(0x40)\n      swap1\n      dup2\n      add\n      0x40\n      mstore\n      dup1\n      swap3\n      swap2\n      swap1\n      dup2\n      dup2\n      mstore\n      0x20\n      add\n      dup3\n      dup1\n      sload\n      tag_99\n      swap1\n      tag_93\n      jump\t// in\n    tag_99:\n      dup1\n      iszero\n      tag_100\n      jumpi\n      dup1\n      0x1f\n      lt\n      tag_101\n      jumpi\n      0x0100\n      dup1\n      dup4\n      sload\n      div\n      mul\n      dup4\n      mstore\n      swap2\n      0x20\n      add\n      swap2\n      jump(tag_100)\n    tag_101:\n      dup3\n      add\n      swap2\n      swap1\n      0x00\n      mstore\n      keccak256(0x00, 0x20)\n      swap1\n    tag_102:\n      dup2\n      sload\n      dup2\n      mstore\n      swap1\n      0x01\n      add\n      swap1\n      0x20\n      add\n      dup1\n      dup4\n      gt\n      tag_102\n      jumpi\n      dup3\n      swap1\n      sub\n      0x1f\n      and\n      dup3\n      add\n      swap2\n    tag_100:\n      pop\n      pop\n      pop\n      pop\n      pop\n      dup2\n      mstore\n      0x20\n      add\n      0x02\n      dup3\n      add\n      dup1\n      sload\n      tag_103\n      swap1\n      tag_93\n      jump\t// in\n    tag_103:\n      dup1\n      0x1f\n      add\n      0x20\n      dup1\n      swap2\n      div\n      mul\n      0x20\n      add\n      mload(0x40)\n      swap1\n      dup2\n      add\n      0x40\n      mstore\n      dup1\n      swap3\n      swap2\n      swap1\n      dup2\n      dup2\n      mstore\n      0x20\n      add\n      dup3\n      dup1\n      sload\n      tag_104\n      swap1\n      tag_93\n      jump\t// in\n    tag_104:\n      dup1\n      iszero\n      tag_105\n      jumpi\n      dup1\n      0x1f\n      lt\n      tag_106\n      jumpi\n      0x0100\n      dup1\n      dup4\n      sload\n      div\n      mul\n      dup4\n      mstore\n      swap2\n      0x20\n      add\n      swap2\n      jump(tag_105)\n    tag_106:\n      dup3\n      add\n      swap2\n      swap1\n      0x00\n      mstore\n      keccak256(0x00, 0x20)\n      swap1\n    tag_107:\n      dup2\n      sload\n      dup2\n      mstore\n      swap1\n      0x01\n      add\n      swap1\n      0x20\n      add\n      dup1\n      dup4\n      gt\n      tag_107\n      jumpi\n      dup3\n      swap1\n      sub\n      0x1f\n      and\n      dup3\n      add\n      swap2\n    tag_105:\n      pop\n      pop\n      pop\n      pop\n      pop\n      dup2\n      mstore\n      0x20\n      add\n      0x03\n      dup3\n      add\n      dup1\n      sload\n      tag_108\n      swap1\n      tag_93\n      jump\t// in\n    tag_108:\n      dup1\n      0x1f\n      add\n      0x20\n      dup1\n      swap2\n      div\n      mul\n      0x20\n      add\n      mload(0x40)\n      swap1\n      dup2\n      add\n      0x40\n      mstore\n      dup1\n      swap3\n      swap2\n      swap1\n      dup2\n      dup2\n      mstore\n      0x20\n      add\n      dup3\n      dup1\n      sload\n      tag_109\n      swap1\n      tag_93\n      jump\t// in\n    tag_109:\n      dup1\n      iszero\n      tag_110\n      jumpi\n      dup1\n      0x1f\n      lt\n      tag_111\n      jumpi\n      0x0100\n      dup1\n      dup4\n      sload\n      div\n      mul\n      dup4\n      mstore\n      swap2\n      0x20\n      add\n      swap2\n      jump(tag_110)\n    tag_111:\n      dup3\n      add\n      swap2\n      swap1\n      0x00\n      mstore\n      keccak256(0x00, 0x20)\n      swap1\n    tag_112:\n      dup2\n      sload\n      dup2\n      mstore\n      swap1\n      0x01\n      add\n      swap1\n      0x20\n      add\n      dup1\n      dup4\n      gt\n      tag_112\n      jumpi\n      dup3\n      swap1\n      sub\n      0x1f\n      and\n      dup3\n      add\n      swap2\n    tag_110:\n      pop\n      pop\n      pop\n      pop\n      pop\n      dup2\n      mstore\n      0x20\n      add\n      0x04\n      dup3\n      add\n      dup1\n      sload\n      tag_113\n      swap1\n      tag_93\n      jump\t// in\n    tag_113:\n      dup1\n      0x1f\n      add\n      0x20\n      dup1\n      swap2\n      div\n      mul\n      0x20\n      add\n      mload(0x40)\n      swap1\n      dup2\n      add\n      0x40\n      mstore\n      dup1\n      swap3\n      swap2\n      swap1\n      dup2\n      dup2\n      mstore\n      0x20\n      add\n      dup3\n      dup1\n      sload\n      tag_114\n      swap1\n      tag_93\n      jump\t// in\n    tag_114:\n      dup1\n      iszero\n      tag_115\n      jumpi\n      dup1\n      0x1f\n      lt\n      tag_116\n      jumpi\n      0x0100\n      dup1\n      dup4\n      sload\n      div\n      mul\n      dup4\n      mstore\n      swap2\n      0x20\n      add\n      swap2\n      jump(tag_115)\n    tag_116:\n      dup3\n      add\n      swap2\n      swap1\n      0x00\n      mstore\n      keccak256(0x00, 0x20)\n      swap1\n    tag_117:\n      dup2\n      sload\n      dup2\n      mstore\n      swap1\n      0x01\n      add\n      swap1\n      0x20\n      add\n      dup1\n      dup4\n      gt\n      tag_117\n      jumpi\n      dup3\n      swap1\n      sub\n      0x1f\n      and\n      dup3\n      add\n      swap2\n    tag_115:\n      pop\n      pop\n      pop\n      pop\n      pop\n      dup2\n      mstore\n      0x20\n      add\n      0x05\n      dup3\n      add\n      dup1\n      sload\n      tag_118\n      swap1\n      tag_93\n      jump\t// in\n    tag_118:\n      dup1\n      0x1f\n      add\n      0x20\n      dup1\n      swap2\n      div\n      mul\n      0x20\n      add\n      mload(0x40)\n      swap1\n      dup2\n      add\n      0x40\n      mstore\n      dup1\n      swap3\n      swap2\n      swap1\n      dup2\n      dup2\n      mstore\n      0x20\n      add\n      dup3\n      dup1\n      sload\n      tag_119\n      swap1\n      tag_93\n      jump\t// in\n    tag_119:\n      dup1\n      iszero\n      tag_120\n      jumpi\n      dup1\n      0x1f\n      lt\n      tag_121\n      jumpi\n      0x0100\n      dup1\n      dup4\n      sload\n      div\n      mul\n      dup4\n      mstore\n      swap2\n      0x20\n      add\n      swap2\n      jump(tag_120)\n    tag_121:\n      dup3\n      add\n      swap2\n      swap1\n      0x00\n      mstore\n      keccak256(0x00, 0x20)\n      swap1\n    tag_122:\n      dup2\n      sload\n      dup2\n      mstore\n      swap1\n      0x01\n      add\n      swap1\n      0x20\n      add\n      dup1\n      dup4\n      gt\n      tag_122\n      jumpi\n      dup3\n      swap1\n      sub\n      0x1f\n      and\n      dup3\n      add\n      swap2\n    tag_120:\n      pop\n      pop\n      pop\n      pop\n      pop\n      dup2\n      mstore\n      0x20\n      add\n      0x06\n      dup3\n      add\n      0x00\n      swap1\n      sload\n      swap1\n      0x0100\n      exp\n      swap1\n      div\n      0xff\n      and\n      0xff\n      and\n      0xff\n      and\n      dup2\n      mstore\n      0x20\n      add\n      0x06\n      dup3\n      add\n      0x01\n      swap1\n      sload\n      swap1\n      0x0100\n      exp\n      swap1\n      div\n      0xff\n      and\n      0xff\n      and\n      0xff\n      and\n      dup2\n      mstore\n      pop\n      pop\n      swap1\n      pop\n        /* \"contracts/ViewQuiz.sol\":646:759  function getQuizForOwner(uint _quizId) public view returns (Quiz memory) {... */\n      swap2\n      swap1\n      pop\n      jump\t// out\n        /* \"contracts/CreateQuiz.sol\":708:1180  function _createQuiz(string memory _question, string memory _choice1, string memory _choice2, string memory _choice3, string memory _choice4, string memory _hint, uint8 _answer, uint8 _languageCode) public {... */\n    tag_51:\n        /* \"contracts/CreateQuiz.sol\":924:931  quizzes */\n      0x01\n        /* \"contracts/CreateQuiz.sol\":937:1023  Quiz(_question, _choice1, _choice2, _choice3, _choice4, _hint, _answer, _languageCode) */\n      mload(0x40)\n      dup1\n      0x0100\n      add\n      0x40\n      mstore\n      dup1\n        /* \"contracts/CreateQuiz.sol\":942:951  _question */\n      dup11\n        /* \"contracts/CreateQuiz.sol\":937:1023  Quiz(_question, _choice1, _choice2, _choice3, _choice4, _hint, _answer, _languageCode) */\n      dup2\n      mstore\n      0x20\n      add\n        /* \"contracts/CreateQuiz.sol\":953:961  _choice1 */\n      dup10\n        /* \"contracts/CreateQuiz.sol\":937:1023  Quiz(_question, _choice1, _choice2, _choice3, _choice4, _hint, _answer, _languageCode) */\n      dup2\n      mstore\n      0x20\n      add\n        /* \"contracts/CreateQuiz.sol\":963:971  _choice2 */\n      dup9\n        /* \"contracts/CreateQuiz.sol\":937:1023  Quiz(_question, _choice1, _choice2, _choice3, _choice4, _hint, _answer, _languageCode) */\n      dup2\n      mstore\n      0x20\n      add\n        /* \"contracts/CreateQuiz.sol\":973:981  _choice3 */\n      dup8\n        /* \"contracts/CreateQuiz.sol\":937:1023  Quiz(_question, _choice1, _choice2, _choice3, _choice4, _hint, _answer, _languageCode) */\n      dup2\n      mstore\n      0x20\n      add\n        /* \"contracts/CreateQuiz.sol\":983:991  _choice4 */\n      dup7\n        /* \"contracts/CreateQuiz.sol\":937:1023  Quiz(_question, _choice1, _choice2, _choice3, _choice4, _hint, _answer, _languageCode) */\n      dup2\n      mstore\n      0x20\n      add\n        /* \"contracts/CreateQuiz.sol\":993:998  _hint */\n      dup6\n        /* \"contracts/CreateQuiz.sol\":937:1023  Quiz(_question, _choice1, _choice2, _choice3, _choice4, _hint, _answer, _languageCode) */\n      dup2\n      mstore\n      0x20\n      add\n        /* \"contracts/CreateQuiz.sol\":1000:1007  _answer */\n      dup5\n        /* \"contracts/CreateQuiz.sol\":937:1023  Quiz(_question, _choice1, _choice2, _choice3, _choice4, _hint, _answer, _languageCode) */\n      0xff\n      and\n      dup2\n      mstore\n      0x20\n      add\n        /* \"contracts/CreateQuiz.sol\":1009:1022  _languageCode */\n      dup4\n        /* \"contracts/CreateQuiz.sol\":937:1023  Quiz(_question, _choice1, _choice2, _choice3, _choice4, _hint, _answer, _languageCode) */\n      0xff\n      and\n      dup2\n      mstore\n      pop\n        /* \"contracts/CreateQuiz.sol\":924:1024  quizzes.push(Quiz(_question, _choice1, _choice2, _choice3, _choice4, _hint, _answer, _languageCode)) */\n      swap1\n      dup1\n      0x01\n      dup2\n      sload\n      add\n      dup1\n      dup3\n      sstore\n      dup1\n      swap2\n      pop\n      pop\n      0x01\n      swap1\n      sub\n      swap1\n      0x00\n      mstore\n      keccak256(0x00, 0x20)\n      swap1\n      0x07\n      mul\n      add\n      0x00\n      swap1\n      swap2\n      swap1\n      swap2\n      swap1\n      swap2\n      pop\n      0x00\n      dup3\n      add\n      mload\n      dup2\n      0x00\n      add\n      swap1\n      dup1\n      mload\n      swap1\n      0x20\n      add\n      swap1\n      tag_125\n      swap3\n      swap2\n      swap1\n      tag_126\n      jump\t// in\n    tag_125:\n      pop\n      0x20\n      dup3\n      add\n      mload\n      dup2\n      0x01\n      add\n      swap1\n      dup1\n      mload\n      swap1\n      0x20\n      add\n      swap1\n      tag_127\n      swap3\n      swap2\n      swap1\n      tag_126\n      jump\t// in\n    tag_127:\n      pop\n      0x40\n      dup3\n      add\n      mload\n      dup2\n      0x02\n      add\n      swap1\n      dup1\n      mload\n      swap1\n      0x20\n      add\n      swap1\n      tag_128\n      swap3\n      swap2\n      swap1\n      tag_126\n      jump\t// in\n    tag_128:\n      pop\n      0x60\n      dup3\n      add\n      mload\n      dup2\n      0x03\n      add\n      swap1\n      dup1\n      mload\n      swap1\n      0x20\n      add\n      swap1\n      tag_129\n      swap3\n      swap2\n      swap1\n      tag_126\n      jump\t// in\n    tag_129:\n      pop\n      0x80\n      dup3\n      add\n      mload\n      dup2\n      0x04\n      add\n      swap1\n      dup1\n      mload\n      swap1\n      0x20\n      add\n      swap1\n      tag_130\n      swap3\n      swap2\n      swap1\n      tag_126\n      jump\t// in\n    tag_130:\n      pop\n      0xa0\n      dup3\n      add\n      mload\n      dup2\n      0x05\n      add\n      swap1\n      dup1\n      mload\n      swap1\n      0x20\n      add\n      swap1\n      tag_131\n      swap3\n      swap2\n      swap1\n      tag_126\n      jump\t// in\n    tag_131:\n      pop\n      0xc0\n      dup3\n      add\n      mload\n      dup2\n      0x06\n      add\n      exp(0x0100, 0x00)\n      dup2\n      sload\n      dup2\n      0xff\n      mul\n      not\n      and\n      swap1\n      dup4\n      0xff\n      and\n      mul\n      or\n      swap1\n      sstore\n      pop\n      0xe0\n      dup3\n      add\n      mload\n      dup2\n      0x06\n      add\n      exp(0x0100, 0x01)\n      dup2\n      sload\n      dup2\n      0xff\n      mul\n      not\n      and\n      swap1\n      dup4\n      0xff\n      and\n      mul\n      or\n      swap1\n      sstore\n      pop\n      pop\n      pop\n        /* \"contracts/CreateQuiz.sol\":1034:1041  uint id */\n      0x00\n        /* \"contracts/CreateQuiz.sol\":1061:1062  1 */\n      0x01\n        /* \"contracts/CreateQuiz.sol\":1044:1051  quizzes */\n      dup1\n        /* \"contracts/CreateQuiz.sol\":1044:1058  quizzes.length */\n      dup1\n      sload\n      swap1\n      pop\n        /* \"contracts/CreateQuiz.sol\":1044:1062  quizzes.length - 1 */\n      tag_132\n      swap2\n      swap1\n      tag_133\n      jump\t// in\n    tag_132:\n        /* \"contracts/CreateQuiz.sol\":1034:1062  uint id = quizzes.length - 1 */\n      swap1\n      pop\n        /* \"contracts/CreateQuiz.sol\":1088:1098  msg.sender */\n      caller\n        /* \"contracts/CreateQuiz.sol\":1072:1081  quizOwner */\n      0x03\n        /* \"contracts/CreateQuiz.sol\":1072:1085  quizOwner[id] */\n      0x00\n        /* \"contracts/CreateQuiz.sol\":1082:1084  id */\n      dup4\n        /* \"contracts/CreateQuiz.sol\":1072:1085  quizOwner[id] */\n      dup2\n      mstore\n      0x20\n      add\n      swap1\n      dup2\n      mstore\n      0x20\n      add\n      0x00\n      keccak256\n      0x00\n        /* \"contracts/CreateQuiz.sol\":1072:1098  quizOwner[id] = msg.sender */\n      0x0100\n      exp\n      dup2\n      sload\n      dup2\n      0xffffffffffffffffffffffffffffffffffffffff\n      mul\n      not\n      and\n      swap1\n      dup4\n      0xffffffffffffffffffffffffffffffffffffffff\n      and\n      mul\n      or\n      swap1\n      sstore\n      pop\n        /* \"contracts/CreateQuiz.sol\":1127:1131  true */\n      0x01\n        /* \"contracts/CreateQuiz.sol\":1108:1120  quizIsActive */\n      0x02\n        /* \"contracts/CreateQuiz.sol\":1108:1124  quizIsActive[id] */\n      0x00\n        /* \"contracts/CreateQuiz.sol\":1121:1123  id */\n      dup4\n        /* \"contracts/CreateQuiz.sol\":1108:1124  quizIsActive[id] */\n      dup2\n      mstore\n      0x20\n      add\n      swap1\n      dup2\n      mstore\n      0x20\n      add\n      0x00\n      keccak256\n      0x00\n        /* \"contracts/CreateQuiz.sol\":1108:1131  quizIsActive[id] = true */\n      0x0100\n      exp\n      dup2\n      sload\n      dup2\n      0xff\n      mul\n      not\n      and\n      swap1\n      dup4\n      iszero\n      iszero\n      mul\n      or\n      swap1\n      sstore\n      pop\n        /* \"contracts/CreateQuiz.sol\":1146:1173  NewQuiz(_question, _answer) */\n      0x545dca5d847b655a9f03cdf5619f53f0b2546051fd0d015b18c09ae2a8b1a765\n        /* \"contracts/CreateQuiz.sol\":1154:1163  _question */\n      dup10\n        /* \"contracts/CreateQuiz.sol\":1165:1172  _answer */\n      dup5\n        /* \"contracts/CreateQuiz.sol\":1146:1173  NewQuiz(_question, _answer) */\n      mload(0x40)\n      tag_134\n      swap3\n      swap2\n      swap1\n      tag_135\n      jump\t// in\n    tag_134:\n      mload(0x40)\n      dup1\n      swap2\n      sub\n      swap1\n      log1\n        /* \"contracts/CreateQuiz.sol\":914:1180  {... */\n      pop\n        /* \"contracts/CreateQuiz.sol\":708:1180  function _createQuiz(string memory _question, string memory _choice1, string memory _choice2, string memory _choice3, string memory _choice4, string memory _hint, uint8 _answer, uint8 _languageCode) public {... */\n      pop\n      pop\n      pop\n      pop\n      pop\n      pop\n      pop\n      pop\n      jump\t// out\n        /* \"contracts/Ownable.sol\":1911:2109  function transferOwnership(address newOwner) public virtual onlyOwner {... */\n    tag_55:\n        /* \"contracts/Ownable.sol\":1252:1264  _msgSender() */\n      tag_137\n        /* \"contracts/Ownable.sol\":1252:1262  _msgSender */\n      tag_58\n        /* \"contracts/Ownable.sol\":1252:1264  _msgSender() */\n      jump\t// in\n    tag_137:\n        /* \"contracts/Ownable.sol\":1241:1264  owner() == _msgSender() */\n      0xffffffffffffffffffffffffffffffffffffffff\n      and\n        /* \"contracts/Ownable.sol\":1241:1248  owner() */\n      tag_138\n        /* \"contracts/Ownable.sol\":1241:1246  owner */\n      tag_35\n        /* \"contracts/Ownable.sol\":1241:1248  owner() */\n      jump\t// in\n    tag_138:\n        /* \"contracts/Ownable.sol\":1241:1264  owner() == _msgSender() */\n      0xffffffffffffffffffffffffffffffffffffffff\n      and\n      eq\n        /* \"contracts/Ownable.sol\":1233:1301  require(owner() == _msgSender(), \"Ownable: caller is not the owner\") */\n      tag_139\n      jumpi\n      mload(0x40)\n      0x08c379a000000000000000000000000000000000000000000000000000000000\n      dup2\n      mstore\n      0x04\n      add\n      tag_140\n      swap1\n      tag_62\n      jump\t// in\n    tag_140:\n      mload(0x40)\n      dup1\n      swap2\n      sub\n      swap1\n      revert\n    tag_139:\n        /* \"contracts/Ownable.sol\":2019:2020  0 */\n      0x00\n        /* \"contracts/Ownable.sol\":1999:2021  newOwner != address(0) */\n      0xffffffffffffffffffffffffffffffffffffffff\n      and\n        /* \"contracts/Ownable.sol\":1999:2007  newOwner */\n      dup2\n        /* \"contracts/Ownable.sol\":1999:2021  newOwner != address(0) */\n      0xffffffffffffffffffffffffffffffffffffffff\n      and\n      sub\n        /* \"contracts/Ownable.sol\":1991:2064  require(newOwner != address(0), \"Ownable: new owner is the zero address\") */\n      tag_142\n      jumpi\n      mload(0x40)\n      0x08c379a000000000000000000000000000000000000000000000000000000000\n      dup2\n      mstore\n      0x04\n      add\n      tag_143\n      swap1\n      tag_144\n      jump\t// in\n    tag_143:\n      mload(0x40)\n      dup1\n      swap2\n      sub\n      swap1\n      revert\n    tag_142:\n        /* \"contracts/Ownable.sol\":2074:2102  _transferOwnership(newOwner) */\n      tag_145\n        /* \"contracts/Ownable.sol\":2093:2101  newOwner */\n      dup2\n        /* \"contracts/Ownable.sol\":2074:2092  _transferOwnership */\n      tag_74\n        /* \"contracts/Ownable.sol\":2074:2102  _transferOwnership(newOwner) */\n      jump\t// in\n    tag_145:\n        /* \"contracts/Ownable.sol\":1911:2109  function transferOwnership(address newOwner) public virtual onlyOwner {... */\n      pop\n      jump\t// out\n        /* \"contracts/Context.sol\":640:736  function _msgSender() internal view virtual returns (address) {... */\n    tag_58:\n        /* \"contracts/Context.sol\":693:700  address */\n      0x00\n        /* \"contracts/Context.sol\":719:729  msg.sender */\n      caller\n        /* \"contracts/Context.sol\":712:729  return msg.sender */\n      swap1\n      pop\n        /* \"contracts/Context.sol\":640:736  function _msgSender() internal view virtual returns (address) {... */\n      swap1\n      jump\t// out\n        /* \"contracts/Ownable.sol\":2263:2450  function _transferOwnership(address newOwner) internal virtual {... */\n    tag_74:\n        /* \"contracts/Ownable.sol\":2336:2352  address oldOwner */\n      0x00\n        /* \"contracts/Ownable.sol\":2355:2361  _owner */\n      dup1\n      0x00\n      swap1\n      sload\n      swap1\n      0x0100\n      exp\n      swap1\n      div\n      0xffffffffffffffffffffffffffffffffffffffff\n      and\n        /* \"contracts/Ownable.sol\":2336:2361  address oldOwner = _owner */\n      swap1\n      pop\n        /* \"contracts/Ownable.sol\":2380:2388  newOwner */\n      dup2\n        /* \"contracts/Ownable.sol\":2371:2377  _owner */\n      0x00\n      dup1\n        /* \"contracts/Ownable.sol\":2371:2388  _owner = newOwner */\n      0x0100\n      exp\n      dup2\n      sload\n      dup2\n      0xffffffffffffffffffffffffffffffffffffffff\n      mul\n      not\n      and\n      swap1\n      dup4\n      0xffffffffffffffffffffffffffffffffffffffff\n      and\n      mul\n      or\n      swap1\n      sstore\n      pop\n        /* \"contracts/Ownable.sol\":2434:2442  newOwner */\n      dup2\n        /* \"contracts/Ownable.sol\":2403:2443  OwnershipTransferred(oldOwner, newOwner) */\n      0xffffffffffffffffffffffffffffffffffffffff\n      and\n        /* \"contracts/Ownable.sol\":2424:2432  oldOwner */\n      dup2\n        /* \"contracts/Ownable.sol\":2403:2443  OwnershipTransferred(oldOwner, newOwner) */\n      0xffffffffffffffffffffffffffffffffffffffff\n      and\n      0x8be0079c531659141344cd1fd0a4f28419497f9722a3daafe3b4186f6b6457e0\n      mload(0x40)\n      mload(0x40)\n      dup1\n      swap2\n      sub\n      swap1\n      log3\n        /* \"contracts/Ownable.sol\":2326:2450  {... */\n      pop\n        /* \"contracts/Ownable.sol\":2263:2450  function _transferOwnership(address newOwner) internal virtual {... */\n      pop\n      jump\t// out\n        /* \"contracts/ViewQuiz.sol\":358:603  function getQuizQuestion(uint _quizId) private view returns (QuizQuestion memory) {... */\n    tag_84:\n        /* \"contracts/ViewQuiz.sol\":419:438  QuizQuestion memory */\n      tag_148\n      tag_77\n      jump\t// in\n    tag_148:\n        /* \"contracts/ViewQuiz.sol\":450:466  Quiz memory quiz */\n      0x00\n        /* \"contracts/ViewQuiz.sol\":469:476  quizzes */\n      0x01\n        /* \"contracts/ViewQuiz.sol\":477:484  _quizId */\n      dup4\n        /* \"contracts/ViewQuiz.sol\":469:485  quizzes[_quizId] */\n      dup2\n      sload\n      dup2\n      lt\n      tag_150\n      jumpi\n      tag_151\n      tag_90\n      jump\t// in\n    tag_151:\n    tag_150:\n      swap1\n      0x00\n      mstore\n      keccak256(0x00, 0x20)\n      swap1\n      0x07\n      mul\n      add\n        /* \"contracts/ViewQuiz.sol\":450:485  Quiz memory quiz = quizzes[_quizId] */\n      mload(0x40)\n      dup1\n      0x0100\n      add\n      0x40\n      mstore\n      swap1\n      dup2\n      0x00\n      dup3\n      add\n      dup1\n      sload\n      tag_153\n      swap1\n      tag_93\n      jump\t// in\n    tag_153:\n      dup1\n      0x1f\n      add\n      0x20\n      dup1\n      swap2\n      div\n      mul\n      0x20\n      add\n      mload(0x40)\n      swap1\n      dup2\n      add\n      0x40\n      mstore\n      dup1\n      swap3\n      swap2\n      swap1\n      dup2\n      dup2\n      mstore\n      0x20\n      add\n      dup3\n      dup1\n      sload\n      tag_154\n      swap1\n      tag_93\n      jump\t// in\n    tag_154:\n      dup1\n      iszero\n      tag_155\n      jumpi\n      dup1\n      0x1f\n      lt\n      tag_156\n      jumpi\n      0x0100\n      dup1\n      dup4\n      sload\n      div\n      mul\n      dup4\n      mstore\n      swap2\n      0x20\n      add\n      swap2\n      jump(tag_155)\n    tag_156:\n      dup3\n      add\n      swap2\n      swap1\n      0x00\n      mstore\n      keccak256(0x00, 0x20)\n      swap1\n    tag_157:\n      dup2\n      sload\n      dup2\n      mstore\n      swap1\n      0x01\n      add\n      swap1\n      0x20\n      add\n      dup1\n      dup4\n      gt\n      tag_157\n      jumpi\n      dup3\n      swap1\n      sub\n      0x1f\n      and\n      dup3\n      add\n      swap2\n    tag_155:\n      pop\n      pop\n      pop\n      pop\n      pop\n      dup2\n      mstore\n      0x20\n      add\n      0x01\n      dup3\n      add\n      dup1\n      sload\n      tag_158\n      swap1\n      tag_93\n      jump\t// in\n    tag_158:\n      dup1\n      0x1f\n      add\n      0x20\n      dup1\n      swap2\n      div\n      mul\n      0x20\n      add\n      mload(0x40)\n      swap1\n      dup2\n      add\n      0x40\n      mstore\n      dup1\n      swap3\n      swap2\n      swap1\n      dup2\n      dup2\n      mstore\n      0x20\n      add\n      dup3\n      dup1\n      sload\n      tag_159\n      swap1\n      tag_93\n      jump\t// in\n    tag_159:\n      dup1\n      iszero\n      tag_160\n      jumpi\n      dup1\n      0x1f\n      lt\n      tag_161\n      jumpi\n      0x0100\n      dup1\n      dup4\n      sload\n      div\n      mul\n      dup4\n      mstore\n      swap2\n      0x20\n      add\n      swap2\n      jump(tag_160)\n    tag_161:\n      dup3\n      add\n      swap2\n      swap1\n      0x00\n      mstore\n      keccak256(0x00, 0x20)\n      swap1\n    tag_162:\n      dup2\n      sload\n      dup2\n      mstore\n      swap1\n      0x01\n      add\n      swap1\n      0x20\n      add\n      dup1\n      dup4\n      gt\n      tag_162\n      jumpi\n      dup3\n      swap1\n      sub\n      0x1f\n      and\n      dup3\n      add\n      swap2\n    tag_160:\n      pop\n      pop\n      pop\n      pop\n      pop\n      dup2\n      mstore\n      0x20\n      add\n      0x02\n      dup3\n      add\n      dup1\n      sload\n      tag_163\n      swap1\n      tag_93\n      jump\t// in\n    tag_163:\n      dup1\n      0x1f\n      add\n      0x20\n      dup1\n      swap2\n      div\n      mul\n      0x20\n      add\n      mload(0x40)\n      swap1\n      dup2\n      add\n      0x40\n      mstore\n      dup1\n      swap3\n      swap2\n      swap1\n      dup2\n      dup2\n      mstore\n      0x20\n      add\n      dup3\n      dup1\n      sload\n      tag_164\n      swap1\n      tag_93\n      jump\t// in\n    tag_164:\n      dup1\n      iszero\n      tag_165\n      jumpi\n      dup1\n      0x1f\n      lt\n      tag_166\n      jumpi\n      0x0100\n      dup1\n      dup4\n      sload\n      div\n      mul\n      dup4\n      mstore\n      swap2\n      0x20\n      add\n      swap2\n      jump(tag_165)\n    tag_166:\n      dup3\n      add\n      swap2\n      swap1\n      0x00\n      mstore\n      keccak256(0x00, 0x20)\n      swap1\n    tag_167:\n      dup2\n      sload\n      dup2\n      mstore\n      swap1\n      0x01\n      add\n      swap1\n      0x20\n      add\n      dup1\n      dup4\n      gt\n      tag_167\n      jumpi\n      dup3\n      swap1\n      sub\n      0x1f\n      and\n      dup3\n      add\n      swap2\n    tag_165:\n      pop\n      pop\n      pop\n      pop\n      pop\n      dup2\n      mstore\n      0x20\n      add\n      0x03\n      dup3\n      add\n      dup1\n      sload\n      tag_168\n      swap1\n      tag_93\n      jump\t// in\n    tag_168:\n      dup1\n      0x1f\n      add\n      0x20\n      dup1\n      swap2\n      div\n      mul\n      0x20\n      add\n      mload(0x40)\n      swap1\n      dup2\n      add\n      0x40\n      mstore\n      dup1\n      swap3\n      swap2\n      swap1\n      dup2\n      dup2\n      mstore\n      0x20\n      add\n      dup3\n      dup1\n      sload\n      tag_169\n      swap1\n      tag_93\n      jump\t// in\n    tag_169:\n      dup1\n      iszero\n      tag_170\n      jumpi\n      dup1\n      0x1f\n      lt\n      tag_171\n      jumpi\n      0x0100\n      dup1\n      dup4\n      sload\n      div\n      mul\n      dup4\n      mstore\n      swap2\n      0x20\n      add\n      swap2\n      jump(tag_170)\n    tag_171:\n      dup3\n      add\n      swap2\n      swap1\n      0x00\n      mstore\n      keccak256(0x00, 0x20)\n      swap1\n    tag_172:\n      dup2\n      sload\n      dup2\n      mstore\n      swap1\n      0x01\n      add\n      swap1\n      0x20\n      add\n      dup1\n      dup4\n      gt\n      tag_172\n      jumpi\n      dup3\n      swap1\n      sub\n      0x1f\n      and\n      dup3\n      add\n      swap2\n    tag_170:\n      pop\n      pop\n      pop\n      pop\n      pop\n      dup2\n      mstore\n      0x20\n      add\n      0x04\n      dup3\n      add\n      dup1\n      sload\n      tag_173\n      swap1\n      tag_93\n      jump\t// in\n    tag_173:\n      dup1\n      0x1f\n      add\n      0x20\n      dup1\n      swap2\n      div\n      mul\n      0x20\n      add\n      mload(0x40)\n      swap1\n      dup2\n      add\n      0x40\n      mstore\n      dup1\n      swap3\n      swap2\n      swap1\n      dup2\n      dup2\n      mstore\n      0x20\n      add\n      dup3\n      dup1\n      sload\n      tag_174\n      swap1\n      tag_93\n      jump\t// in\n    tag_174:\n      dup1\n      iszero\n      tag_175\n      jumpi\n      dup1\n      0x1f\n      lt\n      tag_176\n      jumpi\n      0x0100\n      dup1\n      dup4\n      sload\n      div\n      mul\n      dup4\n      mstore\n      swap2\n      0x20\n      add\n      swap2\n      jump(tag_175)\n    tag_176:\n      dup3\n      add\n      swap2\n      swap1\n      0x00\n      mstore\n      keccak256(0x00, 0x20)\n      swap1\n    tag_177:\n      dup2\n      sload\n      dup2\n      mstore\n      swap1\n      0x01\n      add\n      swap1\n      0x20\n      add\n      dup1\n      dup4\n      gt\n      tag_177\n      jumpi\n      dup3\n      swap1\n      sub\n      0x1f\n      and\n      dup3\n      add\n      swap2\n    tag_175:\n      pop\n      pop\n      pop\n      pop\n      pop\n      dup2\n      mstore\n      0x20\n      add\n      0x05\n      dup3\n      add\n      dup1\n      sload\n      tag_178\n      swap1\n      tag_93\n      jump\t// in\n    tag_178:\n      dup1\n      0x1f\n      add\n      0x20\n      dup1\n      swap2\n      div\n      mul\n      0x20\n      add\n      mload(0x40)\n      swap1\n      dup2\n      add\n      0x40\n      mstore\n      dup1\n      swap3\n      swap2\n      swap1\n      dup2\n      dup2\n      mstore\n      0x20\n      add\n      dup3\n      dup1\n      sload\n      tag_179\n      swap1\n      tag_93\n      jump\t// in\n    tag_179:\n      dup1\n      iszero\n      tag_180\n      jumpi\n      dup1\n      0x1f\n      lt\n      tag_181\n      jumpi\n      0x0100\n      dup1\n      dup4\n      sload\n      div\n      mul\n      dup4\n      mstore\n      swap2\n      0x20\n      add\n      swap2\n      jump(tag_180)\n    tag_181:\n      dup3\n      add\n      swap2\n      swap1\n      0x00\n      mstore\n      keccak256(0x00, 0x20)\n      swap1\n    tag_182:\n      dup2\n      sload\n      dup2\n      mstore\n      swap1\n      0x01\n      add\n      swap1\n      0x20\n      add\n      dup1\n      dup4\n      gt\n      tag_182\n      jumpi\n      dup3\n      swap1\n      sub\n      0x1f\n      and\n      dup3\n      add\n      swap2\n    tag_180:\n      pop\n      pop\n      pop\n      pop\n      pop\n      dup2\n      mstore\n      0x20\n      add\n      0x06\n      dup3\n      add\n      0x00\n      swap1\n      sload\n      swap1\n      0x0100\n      exp\n      swap1\n      div\n      0xff\n      and\n      0xff\n      and\n      0xff\n      and\n      dup2\n      mstore\n      0x20\n      add\n      0x06\n      dup3\n      add\n      0x01\n      swap1\n      sload\n      swap1\n      0x0100\n      exp\n      swap1\n      div\n      0xff\n      and\n      0xff\n      and\n      0xff\n      and\n      dup2\n      mstore\n      pop\n      pop\n      swap1\n      pop\n        /* \"contracts/ViewQuiz.sol\":502:596  QuizQuestion(quiz.question, quiz.choice1, quiz.choice2, quiz.choice3, quiz.choice4, quiz.hint) */\n      mload(0x40)\n      dup1\n      0xc0\n      add\n      0x40\n      mstore\n      dup1\n        /* \"contracts/ViewQuiz.sol\":515:519  quiz */\n      dup3\n        /* \"contracts/ViewQuiz.sol\":515:528  quiz.question */\n      0x00\n      add\n      mload\n        /* \"contracts/ViewQuiz.sol\":502:596  QuizQuestion(quiz.question, quiz.choice1, quiz.choice2, quiz.choice3, quiz.choice4, quiz.hint) */\n      dup2\n      mstore\n      0x20\n      add\n        /* \"contracts/ViewQuiz.sol\":530:534  quiz */\n      dup3\n        /* \"contracts/ViewQuiz.sol\":530:542  quiz.choice1 */\n      0x20\n      add\n      mload\n        /* \"contracts/ViewQuiz.sol\":502:596  QuizQuestion(quiz.question, quiz.choice1, quiz.choice2, quiz.choice3, quiz.choice4, quiz.hint) */\n      dup2\n      mstore\n      0x20\n      add\n        /* \"contracts/ViewQuiz.sol\":544:548  quiz */\n      dup3\n        /* \"contracts/ViewQuiz.sol\":544:556  quiz.choice2 */\n      0x40\n      add\n      mload\n        /* \"contracts/ViewQuiz.sol\":502:596  QuizQuestion(quiz.question, quiz.choice1, quiz.choice2, quiz.choice3, quiz.choice4, quiz.hint) */\n      dup2\n      mstore\n      0x20\n      add\n        /* \"contracts/ViewQuiz.sol\":558:562  quiz */\n      dup3\n        /* \"contracts/ViewQuiz.sol\":558:570  quiz.choice3 */\n      0x60\n      add\n      mload\n        /* \"contracts/ViewQuiz.sol\":502:596  QuizQuestion(quiz.question, quiz.choice1, quiz.choice2, quiz.choice3, quiz.choice4, quiz.hint) */\n      dup2\n      mstore\n      0x20\n      add\n        /* \"contracts/ViewQuiz.sol\":572:576  quiz */\n      dup3\n        /* \"contracts/ViewQuiz.sol\":572:584  quiz.choice4 */\n      0x80\n      add\n      mload\n        /* \"contracts/ViewQuiz.sol\":502:596  QuizQuestion(quiz.question, quiz.choice1, quiz.choice2, quiz.choice3, quiz.choice4, quiz.hint) */\n      dup2\n      mstore\n      0x20\n      add\n        /* \"contracts/ViewQuiz.sol\":586:590  quiz */\n      dup3\n        /* \"contracts/ViewQuiz.sol\":586:595  quiz.hint */\n      0xa0\n      add\n      mload\n        /* \"contracts/ViewQuiz.sol\":502:596  QuizQuestion(quiz.question, quiz.choice1, quiz.choice2, quiz.choice3, quiz.choice4, quiz.hint) */\n      dup2\n      mstore\n      pop\n        /* \"contracts/ViewQuiz.sol\":495:596  return QuizQuestion(quiz.question, quiz.choice1, quiz.choice2, quiz.choice3, quiz.choice4, quiz.hint) */\n      swap2\n      pop\n      pop\n        /* \"contracts/ViewQuiz.sol\":358:603  function getQuizQuestion(uint _quizId) private view returns (QuizQuestion memory) {... */\n      swap2\n      swap1\n      pop\n      jump\t// out\n    tag_77:\n      mload(0x40)\n      dup1\n      0xc0\n      add\n      0x40\n      mstore\n      dup1\n      0x60\n      dup2\n      mstore\n      0x20\n      add\n      0x60\n      dup2\n      mstore\n      0x20\n      add\n      0x60\n      dup2\n      mstore\n      0x20\n      add\n      0x60\n      dup2\n      mstore\n      0x20\n      add\n      0x60\n      dup2\n      mstore\n      0x20\n      add\n      0x60\n      dup2\n      mstore\n      pop\n      swap1\n      jump\t// out\n    tag_86:\n      mload(0x40)\n      dup1\n      0x0100\n      add\n      0x40\n      mstore\n      dup1\n      0x60\n      dup2\n      mstore\n      0x20\n      add\n      0x60\n      dup2\n      mstore\n      0x20\n      add\n      0x60\n      dup2\n      mstore\n      0x20\n      add\n      0x60\n      dup2\n      mstore\n      0x20\n      add\n      0x60\n      dup2\n      mstore\n      0x20\n      add\n      0x60\n      dup2\n      mstore\n      0x20\n      add\n      and(0xff, 0x00)\n      dup2\n      mstore\n      0x20\n      add\n      and(0xff, 0x00)\n      dup2\n      mstore\n      pop\n      swap1\n      jump\t// out\n    tag_126:\n      dup3\n      dup1\n      sload\n      tag_183\n      swap1\n      tag_93\n      jump\t// in\n    tag_183:\n      swap1\n      0x00\n      mstore\n      keccak256(0x00, 0x20)\n      swap1\n      0x1f\n      add\n      0x20\n      swap1\n      div\n      dup2\n      add\n      swap3\n      dup3\n      tag_185\n      jumpi\n      0x00\n      dup6\n      sstore\n      jump(tag_184)\n    tag_185:\n      dup3\n      0x1f\n      lt\n      tag_186\n      jumpi\n      dup1\n      mload\n      not(0xff)\n      and\n      dup4\n      dup1\n      add\n      or\n      dup6\n      sstore\n      jump(tag_184)\n    tag_186:\n      dup3\n      dup1\n      add\n      0x01\n      add\n      dup6\n      sstore\n      dup3\n      iszero\n      tag_184\n      jumpi\n      swap2\n      dup3\n      add\n    tag_187:\n      dup3\n      dup2\n      gt\n      iszero\n      tag_188\n      jumpi\n      dup3\n      mload\n      dup3\n      sstore\n      swap2\n      0x20\n      add\n      swap2\n      swap1\n      0x01\n      add\n      swap1\n      jump(tag_187)\n    tag_188:\n    tag_184:\n      pop\n      swap1\n      pop\n      tag_189\n      swap2\n      swap1\n      tag_190\n      jump\t// in\n    tag_189:\n      pop\n      swap1\n      jump\t// out\n    tag_190:\n    tag_191:\n      dup1\n      dup3\n      gt\n      iszero\n      tag_192\n      jumpi\n      0x00\n      dup2\n      0x00\n      swap1\n      sstore\n      pop\n      0x01\n      add\n      jump(tag_191)\n    tag_192:\n      pop\n      swap1\n      jump\t// out\n        /* \"#utility.yul\":7:82   */\n    tag_193:\n        /* \"#utility.yul\":40:46   */\n      0x00\n        /* \"#utility.yul\":73:75   */\n      0x40\n        /* \"#utility.yul\":67:76   */\n      mload\n        /* \"#utility.yul\":57:76   */\n      swap1\n      pop\n        /* \"#utility.yul\":7:82   */\n      swap1\n      jump\t// out\n        /* \"#utility.yul\":88:205   */\n    tag_194:\n        /* \"#utility.yul\":197:198   */\n      0x00\n        /* \"#utility.yul\":194:195   */\n      dup1\n        /* \"#utility.yul\":187:199   */\n      revert\n        /* \"#utility.yul\":211:328   */\n    tag_195:\n        /* \"#utility.yul\":320:321   */\n      0x00\n        /* \"#utility.yul\":317:318   */\n      dup1\n        /* \"#utility.yul\":310:322   */\n      revert\n        /* \"#utility.yul\":334:411   */\n    tag_196:\n        /* \"#utility.yul\":371:378   */\n      0x00\n        /* \"#utility.yul\":400:405   */\n      dup2\n        /* \"#utility.yul\":389:405   */\n      swap1\n      pop\n        /* \"#utility.yul\":334:411   */\n      swap2\n      swap1\n      pop\n      jump\t// out\n        /* \"#utility.yul\":417:539   */\n    tag_197:\n        /* \"#utility.yul\":490:514   */\n      tag_244\n        /* \"#utility.yul\":508:513   */\n      dup2\n        /* \"#utility.yul\":490:514   */\n      tag_196\n      jump\t// in\n    tag_244:\n        /* \"#utility.yul\":483:488   */\n      dup2\n        /* \"#utility.yul\":480:515   */\n      eq\n        /* \"#utility.yul\":470:533   */\n      tag_245\n      jumpi\n        /* \"#utility.yul\":529:530   */\n      0x00\n        /* \"#utility.yul\":526:527   */\n      dup1\n        /* \"#utility.yul\":519:531   */\n      revert\n        /* \"#utility.yul\":470:533   */\n    tag_245:\n        /* \"#utility.yul\":417:539   */\n      pop\n      jump\t// out\n        /* \"#utility.yul\":545:684   */\n    tag_198:\n        /* \"#utility.yul\":591:596   */\n      0x00\n        /* \"#utility.yul\":629:635   */\n      dup2\n        /* \"#utility.yul\":616:636   */\n      calldataload\n        /* \"#utility.yul\":607:636   */\n      swap1\n      pop\n        /* \"#utility.yul\":645:678   */\n      tag_247\n        /* \"#utility.yul\":672:677   */\n      dup2\n        /* \"#utility.yul\":645:678   */\n      tag_197\n      jump\t// in\n    tag_247:\n        /* \"#utility.yul\":545:684   */\n      swap3\n      swap2\n      pop\n      pop\n      jump\t// out\n        /* \"#utility.yul\":690:780   */\n    tag_199:\n        /* \"#utility.yul\":724:731   */\n      0x00\n        /* \"#utility.yul\":767:772   */\n      dup2\n        /* \"#utility.yul\":760:773   */\n      iszero\n        /* \"#utility.yul\":753:774   */\n      iszero\n        /* \"#utility.yul\":742:774   */\n      swap1\n      pop\n        /* \"#utility.yul\":690:780   */\n      swap2\n      swap1\n      pop\n      jump\t// out\n        /* \"#utility.yul\":786:902   */\n    tag_200:\n        /* \"#utility.yul\":856:877   */\n      tag_250\n        /* \"#utility.yul\":871:876   */\n      dup2\n        /* \"#utility.yul\":856:877   */\n      tag_199\n      jump\t// in\n    tag_250:\n        /* \"#utility.yul\":849:854   */\n      dup2\n        /* \"#utility.yul\":846:878   */\n      eq\n        /* \"#utility.yul\":836:896   */\n      tag_251\n      jumpi\n        /* \"#utility.yul\":892:893   */\n      0x00\n        /* \"#utility.yul\":889:890   */\n      dup1\n        /* \"#utility.yul\":882:894   */\n      revert\n        /* \"#utility.yul\":836:896   */\n    tag_251:\n        /* \"#utility.yul\":786:902   */\n      pop\n      jump\t// out\n        /* \"#utility.yul\":908:1041   */\n    tag_201:\n        /* \"#utility.yul\":951:956   */\n      0x00\n        /* \"#utility.yul\":989:995   */\n      dup2\n        /* \"#utility.yul\":976:996   */\n      calldataload\n        /* \"#utility.yul\":967:996   */\n      swap1\n      pop\n        /* \"#utility.yul\":1005:1035   */\n      tag_253\n        /* \"#utility.yul\":1029:1034   */\n      dup2\n        /* \"#utility.yul\":1005:1035   */\n      tag_200\n      jump\t// in\n    tag_253:\n        /* \"#utility.yul\":908:1041   */\n      swap3\n      swap2\n      pop\n      pop\n      jump\t// out\n        /* \"#utility.yul\":1047:1515   */\n    tag_16:\n        /* \"#utility.yul\":1112:1118   */\n      0x00\n        /* \"#utility.yul\":1120:1126   */\n      dup1\n        /* \"#utility.yul\":1169:1171   */\n      0x40\n        /* \"#utility.yul\":1157:1166   */\n      dup4\n        /* \"#utility.yul\":1148:1155   */\n      dup6\n        /* \"#utility.yul\":1144:1167   */\n      sub\n        /* \"#utility.yul\":1140:1172   */\n      slt\n        /* \"#utility.yul\":1137:1256   */\n      iszero\n      tag_255\n      jumpi\n        /* \"#utility.yul\":1175:1254   */\n      tag_256\n      tag_194\n      jump\t// in\n    tag_256:\n        /* \"#utility.yul\":1137:1256   */\n    tag_255:\n        /* \"#utility.yul\":1295:1296   */\n      0x00\n        /* \"#utility.yul\":1320:1373   */\n      tag_257\n        /* \"#utility.yul\":1365:1372   */\n      dup6\n        /* \"#utility.yul\":1356:1362   */\n      dup3\n        /* \"#utility.yul\":1345:1354   */\n      dup7\n        /* \"#utility.yul\":1341:1363   */\n      add\n        /* \"#utility.yul\":1320:1373   */\n      tag_198\n      jump\t// in\n    tag_257:\n        /* \"#utility.yul\":1310:1373   */\n      swap3\n      pop\n        /* \"#utility.yul\":1266:1383   */\n      pop\n        /* \"#utility.yul\":1422:1424   */\n      0x20\n        /* \"#utility.yul\":1448:1498   */\n      tag_258\n        /* \"#utility.yul\":1490:1497   */\n      dup6\n        /* \"#utility.yul\":1481:1487   */\n      dup3\n        /* \"#utility.yul\":1470:1479   */\n      dup7\n        /* \"#utility.yul\":1466:1488   */\n      add\n        /* \"#utility.yul\":1448:1498   */\n      tag_201\n      jump\t// in\n    tag_258:\n        /* \"#utility.yul\":1438:1498   */\n      swap2\n      pop\n        /* \"#utility.yul\":1393:1508   */\n      pop\n        /* \"#utility.yul\":1047:1515   */\n      swap3\n      pop\n      swap3\n      swap1\n      pop\n      jump\t// out\n        /* \"#utility.yul\":1521:1850   */\n    tag_23:\n        /* \"#utility.yul\":1580:1586   */\n      0x00\n        /* \"#utility.yul\":1629:1631   */\n      0x20\n        /* \"#utility.yul\":1617:1626   */\n      dup3\n        /* \"#utility.yul\":1608:1615   */\n      dup5\n        /* \"#utility.yul\":1604:1627   */\n      sub\n        /* \"#utility.yul\":1600:1632   */\n      slt\n        /* \"#utility.yul\":1597:1716   */\n      iszero\n      tag_260\n      jumpi\n        /* \"#utility.yul\":1635:1714   */\n      tag_261\n      tag_194\n      jump\t// in\n    tag_261:\n        /* \"#utility.yul\":1597:1716   */\n    tag_260:\n        /* \"#utility.yul\":1755:1756   */\n      0x00\n        /* \"#utility.yul\":1780:1833   */\n      tag_262\n        /* \"#utility.yul\":1825:1832   */\n      dup5\n        /* \"#utility.yul\":1816:1822   */\n      dup3\n        /* \"#utility.yul\":1805:1814   */\n      dup6\n        /* \"#utility.yul\":1801:1823   */\n      add\n        /* \"#utility.yul\":1780:1833   */\n      tag_198\n      jump\t// in\n    tag_262:\n        /* \"#utility.yul\":1770:1833   */\n      swap2\n      pop\n        /* \"#utility.yul\":1726:1843   */\n      pop\n        /* \"#utility.yul\":1521:1850   */\n      swap3\n      swap2\n      pop\n      pop\n      jump\t// out\n        /* \"#utility.yul\":1856:1982   */\n    tag_202:\n        /* \"#utility.yul\":1893:1900   */\n      0x00\n        /* \"#utility.yul\":1933:1975   */\n      0xffffffffffffffffffffffffffffffffffffffff\n        /* \"#utility.yul\":1926:1931   */\n      dup3\n        /* \"#utility.yul\":1922:1976   */\n      and\n        /* \"#utility.yul\":1911:1976   */\n      swap1\n      pop\n        /* \"#utility.yul\":1856:1982   */\n      swap2\n      swap1\n      pop\n      jump\t// out\n        /* \"#utility.yul\":1988:2084   */\n    tag_203:\n        /* \"#utility.yul\":2025:2032   */\n      0x00\n        /* \"#utility.yul\":2054:2078   */\n      tag_265\n        /* \"#utility.yul\":2072:2077   */\n      dup3\n        /* \"#utility.yul\":2054:2078   */\n      tag_202\n      jump\t// in\n    tag_265:\n        /* \"#utility.yul\":2043:2078   */\n      swap1\n      pop\n        /* \"#utility.yul\":1988:2084   */\n      swap2\n      swap1\n      pop\n      jump\t// out\n        /* \"#utility.yul\":2090:2208   */\n    tag_204:\n        /* \"#utility.yul\":2177:2201   */\n      tag_267\n        /* \"#utility.yul\":2195:2200   */\n      dup2\n        /* \"#utility.yul\":2177:2201   */\n      tag_203\n      jump\t// in\n    tag_267:\n        /* \"#utility.yul\":2172:2175   */\n      dup3\n        /* \"#utility.yul\":2165:2202   */\n      mstore\n        /* \"#utility.yul\":2090:2208   */\n      pop\n      pop\n      jump\t// out\n        /* \"#utility.yul\":2214:2436   */\n    tag_26:\n        /* \"#utility.yul\":2307:2311   */\n      0x00\n        /* \"#utility.yul\":2345:2347   */\n      0x20\n        /* \"#utility.yul\":2334:2343   */\n      dup3\n        /* \"#utility.yul\":2330:2348   */\n      add\n        /* \"#utility.yul\":2322:2348   */\n      swap1\n      pop\n        /* \"#utility.yul\":2358:2429   */\n      tag_269\n        /* \"#utility.yul\":2426:2427   */\n      0x00\n        /* \"#utility.yul\":2415:2424   */\n      dup4\n        /* \"#utility.yul\":2411:2428   */\n      add\n        /* \"#utility.yul\":2402:2408   */\n      dup5\n        /* \"#utility.yul\":2358:2429   */\n      tag_204\n      jump\t// in\n    tag_269:\n        /* \"#utility.yul\":2214:2436   */\n      swap3\n      swap2\n      pop\n      pop\n      jump\t// out\n        /* \"#utility.yul\":2442:2551   */\n    tag_205:\n        /* \"#utility.yul\":2523:2544   */\n      tag_271\n        /* \"#utility.yul\":2538:2543   */\n      dup2\n        /* \"#utility.yul\":2523:2544   */\n      tag_199\n      jump\t// in\n    tag_271:\n        /* \"#utility.yul\":2518:2521   */\n      dup3\n        /* \"#utility.yul\":2511:2545   */\n      mstore\n        /* \"#utility.yul\":2442:2551   */\n      pop\n      pop\n      jump\t// out\n        /* \"#utility.yul\":2557:2767   */\n    tag_31:\n        /* \"#utility.yul\":2644:2648   */\n      0x00\n        /* \"#utility.yul\":2682:2684   */\n      0x20\n        /* \"#utility.yul\":2671:2680   */\n      dup3\n        /* \"#utility.yul\":2667:2685   */\n      add\n        /* \"#utility.yul\":2659:2685   */\n      swap1\n      pop\n        /* \"#utility.yul\":2695:2760   */\n      tag_273\n        /* \"#utility.yul\":2757:2758   */\n      0x00\n        /* \"#utility.yul\":2746:2755   */\n      dup4\n        /* \"#utility.yul\":2742:2759   */\n      add\n        /* \"#utility.yul\":2733:2739   */\n      dup5\n        /* \"#utility.yul\":2695:2760   */\n      tag_205\n      jump\t// in\n    tag_273:\n        /* \"#utility.yul\":2557:2767   */\n      swap3\n      swap2\n      pop\n      pop\n      jump\t// out\n        /* \"#utility.yul\":2773:2890   */\n    tag_206:\n        /* \"#utility.yul\":2882:2883   */\n      0x00\n        /* \"#utility.yul\":2879:2880   */\n      dup1\n        /* \"#utility.yul\":2872:2884   */\n      revert\n        /* \"#utility.yul\":2896:3013   */\n    tag_207:\n        /* \"#utility.yul\":3005:3006   */\n      0x00\n        /* \"#utility.yul\":3002:3003   */\n      dup1\n        /* \"#utility.yul\":2995:3007   */\n      revert\n        /* \"#utility.yul\":3019:3121   */\n    tag_208:\n        /* \"#utility.yul\":3060:3066   */\n      0x00\n        /* \"#utility.yul\":3111:3113   */\n      0x1f\n        /* \"#utility.yul\":3107:3114   */\n      not\n        /* \"#utility.yul\":3102:3104   */\n      0x1f\n        /* \"#utility.yul\":3095:3100   */\n      dup4\n        /* \"#utility.yul\":3091:3105   */\n      add\n        /* \"#utility.yul\":3087:3115   */\n      and\n        /* \"#utility.yul\":3077:3115   */\n      swap1\n      pop\n        /* \"#utility.yul\":3019:3121   */\n      swap2\n      swap1\n      pop\n      jump\t// out\n        /* \"#utility.yul\":3127:3307   */\n    tag_209:\n        /* \"#utility.yul\":3175:3252   */\n      0x4e487b7100000000000000000000000000000000000000000000000000000000\n        /* \"#utility.yul\":3172:3173   */\n      0x00\n        /* \"#utility.yul\":3165:3253   */\n      mstore\n        /* \"#utility.yul\":3272:3276   */\n      0x41\n        /* \"#utility.yul\":3269:3270   */\n      0x04\n        /* \"#utility.yul\":3262:3277   */\n      mstore\n        /* \"#utility.yul\":3296:3300   */\n      0x24\n        /* \"#utility.yul\":3293:3294   */\n      0x00\n        /* \"#utility.yul\":3286:3301   */\n      revert\n        /* \"#utility.yul\":3313:3594   */\n    tag_210:\n        /* \"#utility.yul\":3396:3423   */\n      tag_279\n        /* \"#utility.yul\":3418:3422   */\n      dup3\n        /* \"#utility.yul\":3396:3423   */\n      tag_208\n      jump\t// in\n    tag_279:\n        /* \"#utility.yul\":3388:3394   */\n      dup2\n        /* \"#utility.yul\":3384:3424   */\n      add\n        /* \"#utility.yul\":3526:3532   */\n      dup2\n        /* \"#utility.yul\":3514:3524   */\n      dup2\n        /* \"#utility.yul\":3511:3533   */\n      lt\n        /* \"#utility.yul\":3490:3508   */\n      0xffffffffffffffff\n        /* \"#utility.yul\":3478:3488   */\n      dup3\n        /* \"#utility.yul\":3475:3509   */\n      gt\n        /* \"#utility.yul\":3472:3534   */\n      or\n        /* \"#utility.yul\":3469:3557   */\n      iszero\n      tag_280\n      jumpi\n        /* \"#utility.yul\":3537:3555   */\n      tag_281\n      tag_209\n      jump\t// in\n    tag_281:\n        /* \"#utility.yul\":3469:3557   */\n    tag_280:\n        /* \"#utility.yul\":3577:3587   */\n      dup1\n        /* \"#utility.yul\":3573:3575   */\n      0x40\n        /* \"#utility.yul\":3566:3588   */\n      mstore\n        /* \"#utility.yul\":3356:3594   */\n      pop\n        /* \"#utility.yul\":3313:3594   */\n      pop\n      pop\n      jump\t// out\n        /* \"#utility.yul\":3600:3729   */\n    tag_211:\n        /* \"#utility.yul\":3634:3640   */\n      0x00\n        /* \"#utility.yul\":3661:3681   */\n      tag_283\n      tag_193\n      jump\t// in\n    tag_283:\n        /* \"#utility.yul\":3651:3681   */\n      swap1\n      pop\n        /* \"#utility.yul\":3690:3723   */\n      tag_284\n        /* \"#utility.yul\":3718:3722   */\n      dup3\n        /* \"#utility.yul\":3710:3716   */\n      dup3\n        /* \"#utility.yul\":3690:3723   */\n      tag_210\n      jump\t// in\n    tag_284:\n        /* \"#utility.yul\":3600:3729   */\n      swap2\n      swap1\n      pop\n      jump\t// out\n        /* \"#utility.yul\":3735:4043   */\n    tag_212:\n        /* \"#utility.yul\":3797:3801   */\n      0x00\n        /* \"#utility.yul\":3887:3905   */\n      0xffffffffffffffff\n        /* \"#utility.yul\":3879:3885   */\n      dup3\n        /* \"#utility.yul\":3876:3906   */\n      gt\n        /* \"#utility.yul\":3873:3929   */\n      iszero\n      tag_286\n      jumpi\n        /* \"#utility.yul\":3909:3927   */\n      tag_287\n      tag_209\n      jump\t// in\n    tag_287:\n        /* \"#utility.yul\":3873:3929   */\n    tag_286:\n        /* \"#utility.yul\":3947:3976   */\n      tag_288\n        /* \"#utility.yul\":3969:3975   */\n      dup3\n        /* \"#utility.yul\":3947:3976   */\n      tag_208\n      jump\t// in\n    tag_288:\n        /* \"#utility.yul\":3939:3976   */\n      swap1\n      pop\n        /* \"#utility.yul\":4031:4035   */\n      0x20\n        /* \"#utility.yul\":4025:4029   */\n      dup2\n        /* \"#utility.yul\":4021:4036   */\n      add\n        /* \"#utility.yul\":4013:4036   */\n      swap1\n      pop\n        /* \"#utility.yul\":3735:4043   */\n      swap2\n      swap1\n      pop\n      jump\t// out\n        /* \"#utility.yul\":4049:4203   */\n    tag_213:\n        /* \"#utility.yul\":4133:4139   */\n      dup3\n        /* \"#utility.yul\":4128:4131   */\n      dup2\n        /* \"#utility.yul\":4123:4126   */\n      dup4\n        /* \"#utility.yul\":4110:4140   */\n      calldatacopy\n        /* \"#utility.yul\":4195:4196   */\n      0x00\n        /* \"#utility.yul\":4186:4192   */\n      dup4\n        /* \"#utility.yul\":4181:4184   */\n      dup4\n        /* \"#utility.yul\":4177:4193   */\n      add\n        /* \"#utility.yul\":4170:4197   */\n      mstore\n        /* \"#utility.yul\":4049:4203   */\n      pop\n      pop\n      pop\n      jump\t// out\n        /* \"#utility.yul\":4209:4621   */\n    tag_214:\n        /* \"#utility.yul\":4287:4292   */\n      0x00\n        /* \"#utility.yul\":4312:4378   */\n      tag_291\n        /* \"#utility.yul\":4328:4377   */\n      tag_292\n        /* \"#utility.yul\":4370:4376   */\n      dup5\n        /* \"#utility.yul\":4328:4377   */\n      tag_212\n      jump\t// in\n    tag_292:\n        /* \"#utility.yul\":4312:4378   */\n      tag_211\n      jump\t// in\n    tag_291:\n        /* \"#utility.yul\":4303:4378   */\n      swap1\n      pop\n        /* \"#utility.yul\":4401:4407   */\n      dup3\n        /* \"#utility.yul\":4394:4399   */\n      dup2\n        /* \"#utility.yul\":4387:4408   */\n      mstore\n        /* \"#utility.yul\":4439:4443   */\n      0x20\n        /* \"#utility.yul\":4432:4437   */\n      dup2\n        /* \"#utility.yul\":4428:4444   */\n      add\n        /* \"#utility.yul\":4477:4480   */\n      dup5\n        /* \"#utility.yul\":4468:4474   */\n      dup5\n        /* \"#utility.yul\":4463:4466   */\n      dup5\n        /* \"#utility.yul\":4459:4475   */\n      add\n        /* \"#utility.yul\":4456:4481   */\n      gt\n        /* \"#utility.yul\":4453:4565   */\n      iszero\n      tag_293\n      jumpi\n        /* \"#utility.yul\":4484:4563   */\n      tag_294\n      tag_207\n      jump\t// in\n    tag_294:\n        /* \"#utility.yul\":4453:4565   */\n    tag_293:\n        /* \"#utility.yul\":4574:4615   */\n      tag_295\n        /* \"#utility.yul\":4608:4614   */\n      dup5\n        /* \"#utility.yul\":4603:4606   */\n      dup3\n        /* \"#utility.yul\":4598:4601   */\n      dup6\n        /* \"#utility.yul\":4574:4615   */\n      tag_213\n      jump\t// in\n    tag_295:\n        /* \"#utility.yul\":4293:4621   */\n      pop\n        /* \"#utility.yul\":4209:4621   */\n      swap4\n      swap3\n      pop\n      pop\n      pop\n      jump\t// out\n        /* \"#utility.yul\":4641:4981   */\n    tag_215:\n        /* \"#utility.yul\":4697:4702   */\n      0x00\n        /* \"#utility.yul\":4746:4749   */\n      dup3\n        /* \"#utility.yul\":4739:4743   */\n      0x1f\n        /* \"#utility.yul\":4731:4737   */\n      dup4\n        /* \"#utility.yul\":4727:4744   */\n      add\n        /* \"#utility.yul\":4723:4750   */\n      slt\n        /* \"#utility.yul\":4713:4835   */\n      tag_297\n      jumpi\n        /* \"#utility.yul\":4754:4833   */\n      tag_298\n      tag_206\n      jump\t// in\n    tag_298:\n        /* \"#utility.yul\":4713:4835   */\n    tag_297:\n        /* \"#utility.yul\":4871:4877   */\n      dup2\n        /* \"#utility.yul\":4858:4878   */\n      calldataload\n        /* \"#utility.yul\":4896:4975   */\n      tag_299\n        /* \"#utility.yul\":4971:4974   */\n      dup5\n        /* \"#utility.yul\":4963:4969   */\n      dup3\n        /* \"#utility.yul\":4956:4960   */\n      0x20\n        /* \"#utility.yul\":4948:4954   */\n      dup7\n        /* \"#utility.yul\":4944:4961   */\n      add\n        /* \"#utility.yul\":4896:4975   */\n      tag_214\n      jump\t// in\n    tag_299:\n        /* \"#utility.yul\":4887:4975   */\n      swap2\n      pop\n        /* \"#utility.yul\":4703:4981   */\n      pop\n        /* \"#utility.yul\":4641:4981   */\n      swap3\n      swap2\n      pop\n      pop\n      jump\t// out\n        /* \"#utility.yul\":4987:5496   */\n    tag_39:\n        /* \"#utility.yul\":5056:5062   */\n      0x00\n        /* \"#utility.yul\":5105:5107   */\n      0x20\n        /* \"#utility.yul\":5093:5102   */\n      dup3\n        /* \"#utility.yul\":5084:5091   */\n      dup5\n        /* \"#utility.yul\":5080:5103   */\n      sub\n        /* \"#utility.yul\":5076:5108   */\n      slt\n        /* \"#utility.yul\":5073:5192   */\n      iszero\n      tag_301\n      jumpi\n        /* \"#utility.yul\":5111:5190   */\n      tag_302\n      tag_194\n      jump\t// in\n    tag_302:\n        /* \"#utility.yul\":5073:5192   */\n    tag_301:\n        /* \"#utility.yul\":5259:5260   */\n      0x00\n        /* \"#utility.yul\":5248:5257   */\n      dup3\n        /* \"#utility.yul\":5244:5261   */\n      add\n        /* \"#utility.yul\":5231:5262   */\n      calldataload\n        /* \"#utility.yul\":5289:5307   */\n      0xffffffffffffffff\n        /* \"#utility.yul\":5281:5287   */\n      dup2\n        /* \"#utility.yul\":5278:5308   */\n      gt\n        /* \"#utility.yul\":5275:5392   */\n      iszero\n      tag_303\n      jumpi\n        /* \"#utility.yul\":5311:5390   */\n      tag_304\n      tag_195\n      jump\t// in\n    tag_304:\n        /* \"#utility.yul\":5275:5392   */\n    tag_303:\n        /* \"#utility.yul\":5416:5479   */\n      tag_305\n        /* \"#utility.yul\":5471:5478   */\n      dup5\n        /* \"#utility.yul\":5462:5468   */\n      dup3\n        /* \"#utility.yul\":5451:5460   */\n      dup6\n        /* \"#utility.yul\":5447:5469   */\n      add\n        /* \"#utility.yul\":5416:5479   */\n      tag_215\n      jump\t// in\n    tag_305:\n        /* \"#utility.yul\":5406:5479   */\n      swap2\n      pop\n        /* \"#utility.yul\":5202:5489   */\n      pop\n        /* \"#utility.yul\":4987:5496   */\n      swap3\n      swap2\n      pop\n      pop\n      jump\t// out\n        /* \"#utility.yul\":5502:5601   */\n    tag_216:\n        /* \"#utility.yul\":5554:5560   */\n      0x00\n        /* \"#utility.yul\":5588:5593   */\n      dup2\n        /* \"#utility.yul\":5582:5594   */\n      mload\n        /* \"#utility.yul\":5572:5594   */\n      swap1\n      pop\n        /* \"#utility.yul\":5502:5601   */\n      swap2\n      swap1\n      pop\n      jump\t// out\n        /* \"#utility.yul\":5607:5766   */\n    tag_217:\n        /* \"#utility.yul\":5681:5692   */\n      0x00\n        /* \"#utility.yul\":5715:5721   */\n      dup3\n        /* \"#utility.yul\":5710:5713   */\n      dup3\n        /* \"#utility.yul\":5703:5722   */\n      mstore\n        /* \"#utility.yul\":5755:5759   */\n      0x20\n        /* \"#utility.yul\":5750:5753   */\n      dup3\n        /* \"#utility.yul\":5746:5760   */\n      add\n        /* \"#utility.yul\":5731:5760   */\n      swap1\n      pop\n        /* \"#utility.yul\":5607:5766   */\n      swap3\n      swap2\n      pop\n      pop\n      jump\t// out\n        /* \"#utility.yul\":5772:6079   */\n    tag_218:\n        /* \"#utility.yul\":5840:5841   */\n      0x00\n        /* \"#utility.yul\":5850:5963   */\n    tag_309:\n        /* \"#utility.yul\":5864:5870   */\n      dup4\n        /* \"#utility.yul\":5861:5862   */\n      dup2\n        /* \"#utility.yul\":5858:5871   */\n      lt\n        /* \"#utility.yul\":5850:5963   */\n      iszero\n      tag_311\n      jumpi\n        /* \"#utility.yul\":5949:5950   */\n      dup1\n        /* \"#utility.yul\":5944:5947   */\n      dup3\n        /* \"#utility.yul\":5940:5951   */\n      add\n        /* \"#utility.yul\":5934:5952   */\n      mload\n        /* \"#utility.yul\":5930:5931   */\n      dup2\n        /* \"#utility.yul\":5925:5928   */\n      dup5\n        /* \"#utility.yul\":5921:5932   */\n      add\n        /* \"#utility.yul\":5914:5953   */\n      mstore\n        /* \"#utility.yul\":5886:5888   */\n      0x20\n        /* \"#utility.yul\":5883:5884   */\n      dup2\n        /* \"#utility.yul\":5879:5889   */\n      add\n        /* \"#utility.yul\":5874:5889   */\n      swap1\n      pop\n        /* \"#utility.yul\":5850:5963   */\n      jump(tag_309)\n    tag_311:\n        /* \"#utility.yul\":5981:5987   */\n      dup4\n        /* \"#utility.yul\":5978:5979   */\n      dup2\n        /* \"#utility.yul\":5975:5988   */\n      gt\n        /* \"#utility.yul\":5972:6073   */\n      iszero\n      tag_312\n      jumpi\n        /* \"#utility.yul\":6061:6062   */\n      0x00\n        /* \"#utility.yul\":6052:6058   */\n      dup5\n        /* \"#utility.yul\":6047:6050   */\n      dup5\n        /* \"#utility.yul\":6043:6059   */\n      add\n        /* \"#utility.yul\":6036:6063   */\n      mstore\n        /* \"#utility.yul\":5972:6073   */\n    tag_312:\n        /* \"#utility.yul\":5821:6079   */\n      pop\n        /* \"#utility.yul\":5772:6079   */\n      pop\n      pop\n      pop\n      jump\t// out\n        /* \"#utility.yul\":6085:6429   */\n    tag_219:\n        /* \"#utility.yul\":6163:6166   */\n      0x00\n        /* \"#utility.yul\":6191:6230   */\n      tag_314\n        /* \"#utility.yul\":6224:6229   */\n      dup3\n        /* \"#utility.yul\":6191:6230   */\n      tag_216\n      jump\t// in\n    tag_314:\n        /* \"#utility.yul\":6246:6307   */\n      tag_315\n        /* \"#utility.yul\":6300:6306   */\n      dup2\n        /* \"#utility.yul\":6295:6298   */\n      dup6\n        /* \"#utility.yul\":6246:6307   */\n      tag_217\n      jump\t// in\n    tag_315:\n        /* \"#utility.yul\":6239:6307   */\n      swap4\n      pop\n        /* \"#utility.yul\":6316:6368   */\n      tag_316\n        /* \"#utility.yul\":6361:6367   */\n      dup2\n        /* \"#utility.yul\":6356:6359   */\n      dup6\n        /* \"#utility.yul\":6349:6353   */\n      0x20\n        /* \"#utility.yul\":6342:6347   */\n      dup7\n        /* \"#utility.yul\":6338:6354   */\n      add\n        /* \"#utility.yul\":6316:6368   */\n      tag_218\n      jump\t// in\n    tag_316:\n        /* \"#utility.yul\":6393:6422   */\n      tag_317\n        /* \"#utility.yul\":6415:6421   */\n      dup2\n        /* \"#utility.yul\":6393:6422   */\n      tag_208\n      jump\t// in\n    tag_317:\n        /* \"#utility.yul\":6388:6391   */\n      dup5\n        /* \"#utility.yul\":6384:6423   */\n      add\n        /* \"#utility.yul\":6377:6423   */\n      swap2\n      pop\n        /* \"#utility.yul\":6167:6429   */\n      pop\n        /* \"#utility.yul\":6085:6429   */\n      swap3\n      swap2\n      pop\n      pop\n      jump\t// out\n        /* \"#utility.yul\":6503:8184   */\n    tag_220:\n        /* \"#utility.yul\":6630:6633   */\n      0x00\n        /* \"#utility.yul\":6666:6670   */\n      0xc0\n        /* \"#utility.yul\":6661:6664   */\n      dup4\n        /* \"#utility.yul\":6657:6671   */\n      add\n        /* \"#utility.yul\":6757:6761   */\n      0x00\n        /* \"#utility.yul\":6750:6755   */\n      dup4\n        /* \"#utility.yul\":6746:6762   */\n      add\n        /* \"#utility.yul\":6740:6763   */\n      mload\n        /* \"#utility.yul\":6810:6813   */\n      dup5\n        /* \"#utility.yul\":6804:6808   */\n      dup3\n        /* \"#utility.yul\":6800:6814   */\n      sub\n        /* \"#utility.yul\":6793:6797   */\n      0x00\n        /* \"#utility.yul\":6788:6791   */\n      dup7\n        /* \"#utility.yul\":6784:6798   */\n      add\n        /* \"#utility.yul\":6777:6815   */\n      mstore\n        /* \"#utility.yul\":6836:6909   */\n      tag_319\n        /* \"#utility.yul\":6904:6908   */\n      dup3\n        /* \"#utility.yul\":6890:6902   */\n      dup3\n        /* \"#utility.yul\":6836:6909   */\n      tag_219\n      jump\t// in\n    tag_319:\n        /* \"#utility.yul\":6828:6909   */\n      swap2\n      pop\n        /* \"#utility.yul\":6681:6920   */\n      pop\n        /* \"#utility.yul\":7005:7009   */\n      0x20\n        /* \"#utility.yul\":6998:7003   */\n      dup4\n        /* \"#utility.yul\":6994:7010   */\n      add\n        /* \"#utility.yul\":6988:7011   */\n      mload\n        /* \"#utility.yul\":7058:7061   */\n      dup5\n        /* \"#utility.yul\":7052:7056   */\n      dup3\n        /* \"#utility.yul\":7048:7062   */\n      sub\n        /* \"#utility.yul\":7041:7045   */\n      0x20\n        /* \"#utility.yul\":7036:7039   */\n      dup7\n        /* \"#utility.yul\":7032:7046   */\n      add\n        /* \"#utility.yul\":7025:7063   */\n      mstore\n        /* \"#utility.yul\":7084:7157   */\n      tag_320\n        /* \"#utility.yul\":7152:7156   */\n      dup3\n        /* \"#utility.yul\":7138:7150   */\n      dup3\n        /* \"#utility.yul\":7084:7157   */\n      tag_219\n      jump\t// in\n    tag_320:\n        /* \"#utility.yul\":7076:7157   */\n      swap2\n      pop\n        /* \"#utility.yul\":6930:7168   */\n      pop\n        /* \"#utility.yul\":7253:7257   */\n      0x40\n        /* \"#utility.yul\":7246:7251   */\n      dup4\n        /* \"#utility.yul\":7242:7258   */\n      add\n        /* \"#utility.yul\":7236:7259   */\n      mload\n        /* \"#utility.yul\":7306:7309   */\n      dup5\n        /* \"#utility.yul\":7300:7304   */\n      dup3\n        /* \"#utility.yul\":7296:7310   */\n      sub\n        /* \"#utility.yul\":7289:7293   */\n      0x40\n        /* \"#utility.yul\":7284:7287   */\n      dup7\n        /* \"#utility.yul\":7280:7294   */\n      add\n        /* \"#utility.yul\":7273:7311   */\n      mstore\n        /* \"#utility.yul\":7332:7405   */\n      tag_321\n        /* \"#utility.yul\":7400:7404   */\n      dup3\n        /* \"#utility.yul\":7386:7398   */\n      dup3\n        /* \"#utility.yul\":7332:7405   */\n      tag_219\n      jump\t// in\n    tag_321:\n        /* \"#utility.yul\":7324:7405   */\n      swap2\n      pop\n        /* \"#utility.yul\":7178:7416   */\n      pop\n        /* \"#utility.yul\":7501:7505   */\n      0x60\n        /* \"#utility.yul\":7494:7499   */\n      dup4\n        /* \"#utility.yul\":7490:7506   */\n      add\n        /* \"#utility.yul\":7484:7507   */\n      mload\n        /* \"#utility.yul\":7554:7557   */\n      dup5\n        /* \"#utility.yul\":7548:7552   */\n      dup3\n        /* \"#utility.yul\":7544:7558   */\n      sub\n        /* \"#utility.yul\":7537:7541   */\n      0x60\n        /* \"#utility.yul\":7532:7535   */\n      dup7\n        /* \"#utility.yul\":7528:7542   */\n      add\n        /* \"#utility.yul\":7521:7559   */\n      mstore\n        /* \"#utility.yul\":7580:7653   */\n      tag_322\n        /* \"#utility.yul\":7648:7652   */\n      dup3\n        /* \"#utility.yul\":7634:7646   */\n      dup3\n        /* \"#utility.yul\":7580:7653   */\n      tag_219\n      jump\t// in\n    tag_322:\n        /* \"#utility.yul\":7572:7653   */\n      swap2\n      pop\n        /* \"#utility.yul\":7426:7664   */\n      pop\n        /* \"#utility.yul\":7749:7753   */\n      0x80\n        /* \"#utility.yul\":7742:7747   */\n      dup4\n        /* \"#utility.yul\":7738:7754   */\n      add\n        /* \"#utility.yul\":7732:7755   */\n      mload\n        /* \"#utility.yul\":7802:7805   */\n      dup5\n        /* \"#utility.yul\":7796:7800   */\n      dup3\n        /* \"#utility.yul\":7792:7806   */\n      sub\n        /* \"#utility.yul\":7785:7789   */\n      0x80\n        /* \"#utility.yul\":7780:7783   */\n      dup7\n        /* \"#utility.yul\":7776:7790   */\n      add\n        /* \"#utility.yul\":7769:7807   */\n      mstore\n        /* \"#utility.yul\":7828:7901   */\n      tag_323\n        /* \"#utility.yul\":7896:7900   */\n      dup3\n        /* \"#utility.yul\":7882:7894   */\n      dup3\n        /* \"#utility.yul\":7828:7901   */\n      tag_219\n      jump\t// in\n    tag_323:\n        /* \"#utility.yul\":7820:7901   */\n      swap2\n      pop\n        /* \"#utility.yul\":7674:7912   */\n      pop\n        /* \"#utility.yul\":7994:7998   */\n      0xa0\n        /* \"#utility.yul\":7987:7992   */\n      dup4\n        /* \"#utility.yul\":7983:7999   */\n      add\n        /* \"#utility.yul\":7977:8000   */\n      mload\n        /* \"#utility.yul\":8047:8050   */\n      dup5\n        /* \"#utility.yul\":8041:8045   */\n      dup3\n        /* \"#utility.yul\":8037:8051   */\n      sub\n        /* \"#utility.yul\":8030:8034   */\n      0xa0\n        /* \"#utility.yul\":8025:8028   */\n      dup7\n        /* \"#utility.yul\":8021:8035   */\n      add\n        /* \"#utility.yul\":8014:8052   */\n      mstore\n        /* \"#utility.yul\":8073:8146   */\n      tag_324\n        /* \"#utility.yul\":8141:8145   */\n      dup3\n        /* \"#utility.yul\":8127:8139   */\n      dup3\n        /* \"#utility.yul\":8073:8146   */\n      tag_219\n      jump\t// in\n    tag_324:\n        /* \"#utility.yul\":8065:8146   */\n      swap2\n      pop\n        /* \"#utility.yul\":7922:8157   */\n      pop\n        /* \"#utility.yul\":8174:8178   */\n      dup1\n        /* \"#utility.yul\":8167:8178   */\n      swap2\n      pop\n        /* \"#utility.yul\":6635:8184   */\n      pop\n        /* \"#utility.yul\":6503:8184   */\n      swap3\n      swap2\n      pop\n      pop\n      jump\t// out\n        /* \"#utility.yul\":8190:8579   */\n    tag_42:\n        /* \"#utility.yul\":8341:8345   */\n      0x00\n        /* \"#utility.yul\":8379:8381   */\n      0x20\n        /* \"#utility.yul\":8368:8377   */\n      dup3\n        /* \"#utility.yul\":8364:8382   */\n      add\n        /* \"#utility.yul\":8356:8382   */\n      swap1\n      pop\n        /* \"#utility.yul\":8428:8437   */\n      dup2\n        /* \"#utility.yul\":8422:8426   */\n      dup2\n        /* \"#utility.yul\":8418:8438   */\n      sub\n        /* \"#utility.yul\":8414:8415   */\n      0x00\n        /* \"#utility.yul\":8403:8412   */\n      dup4\n        /* \"#utility.yul\":8399:8416   */\n      add\n        /* \"#utility.yul\":8392:8439   */\n      mstore\n        /* \"#utility.yul\":8456:8572   */\n      tag_326\n        /* \"#utility.yul\":8567:8571   */\n      dup2\n        /* \"#utility.yul\":8558:8564   */\n      dup5\n        /* \"#utility.yul\":8456:8572   */\n      tag_220\n      jump\t// in\n    tag_326:\n        /* \"#utility.yul\":8448:8572   */\n      swap1\n      pop\n        /* \"#utility.yul\":8190:8579   */\n      swap3\n      swap2\n      pop\n      pop\n      jump\t// out\n        /* \"#utility.yul\":8585:8671   */\n    tag_221:\n        /* \"#utility.yul\":8620:8627   */\n      0x00\n        /* \"#utility.yul\":8660:8664   */\n      0xff\n        /* \"#utility.yul\":8653:8658   */\n      dup3\n        /* \"#utility.yul\":8649:8665   */\n      and\n        /* \"#utility.yul\":8638:8665   */\n      swap1\n      pop\n        /* \"#utility.yul\":8585:8671   */\n      swap2\n      swap1\n      pop\n      jump\t// out\n        /* \"#utility.yul\":8677:8779   */\n    tag_222:\n        /* \"#utility.yul\":8750:8772   */\n      tag_329\n        /* \"#utility.yul\":8766:8771   */\n      dup2\n        /* \"#utility.yul\":8750:8772   */\n      tag_221\n      jump\t// in\n    tag_329:\n        /* \"#utility.yul\":8745:8748   */\n      dup3\n        /* \"#utility.yul\":8738:8773   */\n      mstore\n        /* \"#utility.yul\":8677:8779   */\n      pop\n      pop\n      jump\t// out\n        /* \"#utility.yul\":8841:10856   */\n    tag_223:\n        /* \"#utility.yul\":8950:8953   */\n      0x00\n        /* \"#utility.yul\":8986:8992   */\n      0x0100\n        /* \"#utility.yul\":8981:8984   */\n      dup4\n        /* \"#utility.yul\":8977:8993   */\n      add\n        /* \"#utility.yul\":9079:9083   */\n      0x00\n        /* \"#utility.yul\":9072:9077   */\n      dup4\n        /* \"#utility.yul\":9068:9084   */\n      add\n        /* \"#utility.yul\":9062:9085   */\n      mload\n        /* \"#utility.yul\":9132:9135   */\n      dup5\n        /* \"#utility.yul\":9126:9130   */\n      dup3\n        /* \"#utility.yul\":9122:9136   */\n      sub\n        /* \"#utility.yul\":9115:9119   */\n      0x00\n        /* \"#utility.yul\":9110:9113   */\n      dup7\n        /* \"#utility.yul\":9106:9120   */\n      add\n        /* \"#utility.yul\":9099:9137   */\n      mstore\n        /* \"#utility.yul\":9158:9231   */\n      tag_331\n        /* \"#utility.yul\":9226:9230   */\n      dup3\n        /* \"#utility.yul\":9212:9224   */\n      dup3\n        /* \"#utility.yul\":9158:9231   */\n      tag_219\n      jump\t// in\n    tag_331:\n        /* \"#utility.yul\":9150:9231   */\n      swap2\n      pop\n        /* \"#utility.yul\":9003:9242   */\n      pop\n        /* \"#utility.yul\":9327:9331   */\n      0x20\n        /* \"#utility.yul\":9320:9325   */\n      dup4\n        /* \"#utility.yul\":9316:9332   */\n      add\n        /* \"#utility.yul\":9310:9333   */\n      mload\n        /* \"#utility.yul\":9380:9383   */\n      dup5\n        /* \"#utility.yul\":9374:9378   */\n      dup3\n        /* \"#utility.yul\":9370:9384   */\n      sub\n        /* \"#utility.yul\":9363:9367   */\n      0x20\n        /* \"#utility.yul\":9358:9361   */\n      dup7\n        /* \"#utility.yul\":9354:9368   */\n      add\n        /* \"#utility.yul\":9347:9385   */\n      mstore\n        /* \"#utility.yul\":9406:9479   */\n      tag_332\n        /* \"#utility.yul\":9474:9478   */\n      dup3\n        /* \"#utility.yul\":9460:9472   */\n      dup3\n        /* \"#utility.yul\":9406:9479   */\n      tag_219\n      jump\t// in\n    tag_332:\n        /* \"#utility.yul\":9398:9479   */\n      swap2\n      pop\n        /* \"#utility.yul\":9252:9490   */\n      pop\n        /* \"#utility.yul\":9575:9579   */\n      0x40\n        /* \"#utility.yul\":9568:9573   */\n      dup4\n        /* \"#utility.yul\":9564:9580   */\n      add\n        /* \"#utility.yul\":9558:9581   */\n      mload\n        /* \"#utility.yul\":9628:9631   */\n      dup5\n        /* \"#utility.yul\":9622:9626   */\n      dup3\n        /* \"#utility.yul\":9618:9632   */\n      sub\n        /* \"#utility.yul\":9611:9615   */\n      0x40\n        /* \"#utility.yul\":9606:9609   */\n      dup7\n        /* \"#utility.yul\":9602:9616   */\n      add\n        /* \"#utility.yul\":9595:9633   */\n      mstore\n        /* \"#utility.yul\":9654:9727   */\n      tag_333\n        /* \"#utility.yul\":9722:9726   */\n      dup3\n        /* \"#utility.yul\":9708:9720   */\n      dup3\n        /* \"#utility.yul\":9654:9727   */\n      tag_219\n      jump\t// in\n    tag_333:\n        /* \"#utility.yul\":9646:9727   */\n      swap2\n      pop\n        /* \"#utility.yul\":9500:9738   */\n      pop\n        /* \"#utility.yul\":9823:9827   */\n      0x60\n        /* \"#utility.yul\":9816:9821   */\n      dup4\n        /* \"#utility.yul\":9812:9828   */\n      add\n        /* \"#utility.yul\":9806:9829   */\n      mload\n        /* \"#utility.yul\":9876:9879   */\n      dup5\n        /* \"#utility.yul\":9870:9874   */\n      dup3\n        /* \"#utility.yul\":9866:9880   */\n      sub\n        /* \"#utility.yul\":9859:9863   */\n      0x60\n        /* \"#utility.yul\":9854:9857   */\n      dup7\n        /* \"#utility.yul\":9850:9864   */\n      add\n        /* \"#utility.yul\":9843:9881   */\n      mstore\n        /* \"#utility.yul\":9902:9975   */\n      tag_334\n        /* \"#utility.yul\":9970:9974   */\n      dup3\n        /* \"#utility.yul\":9956:9968   */\n      dup3\n        /* \"#utility.yul\":9902:9975   */\n      tag_219\n      jump\t// in\n    tag_334:\n        /* \"#utility.yul\":9894:9975   */\n      swap2\n      pop\n        /* \"#utility.yul\":9748:9986   */\n      pop\n        /* \"#utility.yul\":10071:10075   */\n      0x80\n        /* \"#utility.yul\":10064:10069   */\n      dup4\n        /* \"#utility.yul\":10060:10076   */\n      add\n        /* \"#utility.yul\":10054:10077   */\n      mload\n        /* \"#utility.yul\":10124:10127   */\n      dup5\n        /* \"#utility.yul\":10118:10122   */\n      dup3\n        /* \"#utility.yul\":10114:10128   */\n      sub\n        /* \"#utility.yul\":10107:10111   */\n      0x80\n        /* \"#utility.yul\":10102:10105   */\n      dup7\n        /* \"#utility.yul\":10098:10112   */\n      add\n        /* \"#utility.yul\":10091:10129   */\n      mstore\n        /* \"#utility.yul\":10150:10223   */\n      tag_335\n        /* \"#utility.yul\":10218:10222   */\n      dup3\n        /* \"#utility.yul\":10204:10216   */\n      dup3\n        /* \"#utility.yul\":10150:10223   */\n      tag_219\n      jump\t// in\n    tag_335:\n        /* \"#utility.yul\":10142:10223   */\n      swap2\n      pop\n        /* \"#utility.yul\":9996:10234   */\n      pop\n        /* \"#utility.yul\":10316:10320   */\n      0xa0\n        /* \"#utility.yul\":10309:10314   */\n      dup4\n        /* \"#utility.yul\":10305:10321   */\n      add\n        /* \"#utility.yul\":10299:10322   */\n      mload\n        /* \"#utility.yul\":10369:10372   */\n      dup5\n        /* \"#utility.yul\":10363:10367   */\n      dup3\n        /* \"#utility.yul\":10359:10373   */\n      sub\n        /* \"#utility.yul\":10352:10356   */\n      0xa0\n        /* \"#utility.yul\":10347:10350   */\n      dup7\n        /* \"#utility.yul\":10343:10357   */\n      add\n        /* \"#utility.yul\":10336:10374   */\n      mstore\n        /* \"#utility.yul\":10395:10468   */\n      tag_336\n        /* \"#utility.yul\":10463:10467   */\n      dup3\n        /* \"#utility.yul\":10449:10461   */\n      dup3\n        /* \"#utility.yul\":10395:10468   */\n      tag_219\n      jump\t// in\n    tag_336:\n        /* \"#utility.yul\":10387:10468   */\n      swap2\n      pop\n        /* \"#utility.yul\":10244:10479   */\n      pop\n        /* \"#utility.yul\":10563:10567   */\n      0xc0\n        /* \"#utility.yul\":10556:10561   */\n      dup4\n        /* \"#utility.yul\":10552:10568   */\n      add\n        /* \"#utility.yul\":10546:10569   */\n      mload\n        /* \"#utility.yul\":10582:10641   */\n      tag_337\n        /* \"#utility.yul\":10635:10639   */\n      0xc0\n        /* \"#utility.yul\":10630:10633   */\n      dup7\n        /* \"#utility.yul\":10626:10640   */\n      add\n        /* \"#utility.yul\":10612:10624   */\n      dup3\n        /* \"#utility.yul\":10582:10641   */\n      tag_222\n      jump\t// in\n    tag_337:\n        /* \"#utility.yul\":10489:10651   */\n      pop\n        /* \"#utility.yul\":10741:10745   */\n      0xe0\n        /* \"#utility.yul\":10734:10739   */\n      dup4\n        /* \"#utility.yul\":10730:10746   */\n      add\n        /* \"#utility.yul\":10724:10747   */\n      mload\n        /* \"#utility.yul\":10760:10819   */\n      tag_338\n        /* \"#utility.yul\":10813:10817   */\n      0xe0\n        /* \"#utility.yul\":10808:10811   */\n      dup7\n        /* \"#utility.yul\":10804:10818   */\n      add\n        /* \"#utility.yul\":10790:10802   */\n      dup3\n        /* \"#utility.yul\":10760:10819   */\n      tag_222\n      jump\t// in\n    tag_338:\n        /* \"#utility.yul\":10661:10829   */\n      pop\n        /* \"#utility.yul\":10846:10850   */\n      dup1\n        /* \"#utility.yul\":10839:10850   */\n      swap2\n      pop\n        /* \"#utility.yul\":8955:10856   */\n      pop\n        /* \"#utility.yul\":8841:10856   */\n      swap3\n      swap2\n      pop\n      pop\n      jump\t// out\n        /* \"#utility.yul\":10862:11215   */\n    tag_47:\n        /* \"#utility.yul\":10995:10999   */\n      0x00\n        /* \"#utility.yul\":11033:11035   */\n      0x20\n        /* \"#utility.yul\":11022:11031   */\n      dup3\n        /* \"#utility.yul\":11018:11036   */\n      add\n        /* \"#utility.yul\":11010:11036   */\n      swap1\n      pop\n        /* \"#utility.yul\":11082:11091   */\n      dup2\n        /* \"#utility.yul\":11076:11080   */\n      dup2\n        /* \"#utility.yul\":11072:11092   */\n      sub\n        /* \"#utility.yul\":11068:11069   */\n      0x00\n        /* \"#utility.yul\":11057:11066   */\n      dup4\n        /* \"#utility.yul\":11053:11070   */\n      add\n        /* \"#utility.yul\":11046:11093   */\n      mstore\n        /* \"#utility.yul\":11110:11208   */\n      tag_340\n        /* \"#utility.yul\":11203:11207   */\n      dup2\n        /* \"#utility.yul\":11194:11200   */\n      dup5\n        /* \"#utility.yul\":11110:11208   */\n      tag_223\n      jump\t// in\n    tag_340:\n        /* \"#utility.yul\":11102:11208   */\n      swap1\n      pop\n        /* \"#utility.yul\":10862:11215   */\n      swap3\n      swap2\n      pop\n      pop\n      jump\t// out\n        /* \"#utility.yul\":11221:11339   */\n    tag_224:\n        /* \"#utility.yul\":11292:11314   */\n      tag_342\n        /* \"#utility.yul\":11308:11313   */\n      dup2\n        /* \"#utility.yul\":11292:11314   */\n      tag_221\n      jump\t// in\n    tag_342:\n        /* \"#utility.yul\":11285:11290   */\n      dup2\n        /* \"#utility.yul\":11282:11315   */\n      eq\n        /* \"#utility.yul\":11272:11333   */\n      tag_343\n      jumpi\n        /* \"#utility.yul\":11329:11330   */\n      0x00\n        /* \"#utility.yul\":11326:11327   */\n      dup1\n        /* \"#utility.yul\":11319:11331   */\n      revert\n        /* \"#utility.yul\":11272:11333   */\n    tag_343:\n        /* \"#utility.yul\":11221:11339   */\n      pop\n      jump\t// out\n        /* \"#utility.yul\":11345:11480   */\n    tag_225:\n        /* \"#utility.yul\":11389:11394   */\n      0x00\n        /* \"#utility.yul\":11427:11433   */\n      dup2\n        /* \"#utility.yul\":11414:11434   */\n      calldataload\n        /* \"#utility.yul\":11405:11434   */\n      swap1\n      pop\n        /* \"#utility.yul\":11443:11474   */\n      tag_345\n        /* \"#utility.yul\":11468:11473   */\n      dup2\n        /* \"#utility.yul\":11443:11474   */\n      tag_224\n      jump\t// in\n    tag_345:\n        /* \"#utility.yul\":11345:11480   */\n      swap3\n      swap2\n      pop\n      pop\n      jump\t// out\n        /* \"#utility.yul\":11486:13907   */\n    tag_50:\n        /* \"#utility.yul\":11664:11670   */\n      0x00\n        /* \"#utility.yul\":11672:11678   */\n      dup1\n        /* \"#utility.yul\":11680:11686   */\n      0x00\n        /* \"#utility.yul\":11688:11694   */\n      dup1\n        /* \"#utility.yul\":11696:11702   */\n      0x00\n        /* \"#utility.yul\":11704:11710   */\n      dup1\n        /* \"#utility.yul\":11712:11718   */\n      0x00\n        /* \"#utility.yul\":11720:11726   */\n      dup1\n        /* \"#utility.yul\":11769:11772   */\n      0x0100\n        /* \"#utility.yul\":11757:11766   */\n      dup10\n        /* \"#utility.yul\":11748:11755   */\n      dup12\n        /* \"#utility.yul\":11744:11767   */\n      sub\n        /* \"#utility.yul\":11740:11773   */\n      slt\n        /* \"#utility.yul\":11737:11857   */\n      iszero\n      tag_347\n      jumpi\n        /* \"#utility.yul\":11776:11855   */\n      tag_348\n      tag_194\n      jump\t// in\n    tag_348:\n        /* \"#utility.yul\":11737:11857   */\n    tag_347:\n        /* \"#utility.yul\":11924:11925   */\n      0x00\n        /* \"#utility.yul\":11913:11922   */\n      dup10\n        /* \"#utility.yul\":11909:11926   */\n      add\n        /* \"#utility.yul\":11896:11927   */\n      calldataload\n        /* \"#utility.yul\":11954:11972   */\n      0xffffffffffffffff\n        /* \"#utility.yul\":11946:11952   */\n      dup2\n        /* \"#utility.yul\":11943:11973   */\n      gt\n        /* \"#utility.yul\":11940:12057   */\n      iszero\n      tag_349\n      jumpi\n        /* \"#utility.yul\":11976:12055   */\n      tag_350\n      tag_195\n      jump\t// in\n    tag_350:\n        /* \"#utility.yul\":11940:12057   */\n    tag_349:\n        /* \"#utility.yul\":12081:12144   */\n      tag_351\n        /* \"#utility.yul\":12136:12143   */\n      dup12\n        /* \"#utility.yul\":12127:12133   */\n      dup3\n        /* \"#utility.yul\":12116:12125   */\n      dup13\n        /* \"#utility.yul\":12112:12134   */\n      add\n        /* \"#utility.yul\":12081:12144   */\n      tag_215\n      jump\t// in\n    tag_351:\n        /* \"#utility.yul\":12071:12144   */\n      swap9\n      pop\n        /* \"#utility.yul\":11867:12154   */\n      pop\n        /* \"#utility.yul\":12221:12223   */\n      0x20\n        /* \"#utility.yul\":12210:12219   */\n      dup10\n        /* \"#utility.yul\":12206:12224   */\n      add\n        /* \"#utility.yul\":12193:12225   */\n      calldataload\n        /* \"#utility.yul\":12252:12270   */\n      0xffffffffffffffff\n        /* \"#utility.yul\":12244:12250   */\n      dup2\n        /* \"#utility.yul\":12241:12271   */\n      gt\n        /* \"#utility.yul\":12238:12355   */\n      iszero\n      tag_352\n      jumpi\n        /* \"#utility.yul\":12274:12353   */\n      tag_353\n      tag_195\n      jump\t// in\n    tag_353:\n        /* \"#utility.yul\":12238:12355   */\n    tag_352:\n        /* \"#utility.yul\":12379:12442   */\n      tag_354\n        /* \"#utility.yul\":12434:12441   */\n      dup12\n        /* \"#utility.yul\":12425:12431   */\n      dup3\n        /* \"#utility.yul\":12414:12423   */\n      dup13\n        /* \"#utility.yul\":12410:12432   */\n      add\n        /* \"#utility.yul\":12379:12442   */\n      tag_215\n      jump\t// in\n    tag_354:\n        /* \"#utility.yul\":12369:12442   */\n      swap8\n      pop\n        /* \"#utility.yul\":12164:12452   */\n      pop\n        /* \"#utility.yul\":12519:12521   */\n      0x40\n        /* \"#utility.yul\":12508:12517   */\n      dup10\n        /* \"#utility.yul\":12504:12522   */\n      add\n        /* \"#utility.yul\":12491:12523   */\n      calldataload\n        /* \"#utility.yul\":12550:12568   */\n      0xffffffffffffffff\n        /* \"#utility.yul\":12542:12548   */\n      dup2\n        /* \"#utility.yul\":12539:12569   */\n      gt\n        /* \"#utility.yul\":12536:12653   */\n      iszero\n      tag_355\n      jumpi\n        /* \"#utility.yul\":12572:12651   */\n      tag_356\n      tag_195\n      jump\t// in\n    tag_356:\n        /* \"#utility.yul\":12536:12653   */\n    tag_355:\n        /* \"#utility.yul\":12677:12740   */\n      tag_357\n        /* \"#utility.yul\":12732:12739   */\n      dup12\n        /* \"#utility.yul\":12723:12729   */\n      dup3\n        /* \"#utility.yul\":12712:12721   */\n      dup13\n        /* \"#utility.yul\":12708:12730   */\n      add\n        /* \"#utility.yul\":12677:12740   */\n      tag_215\n      jump\t// in\n    tag_357:\n        /* \"#utility.yul\":12667:12740   */\n      swap7\n      pop\n        /* \"#utility.yul\":12462:12750   */\n      pop\n        /* \"#utility.yul\":12817:12819   */\n      0x60\n        /* \"#utility.yul\":12806:12815   */\n      dup10\n        /* \"#utility.yul\":12802:12820   */\n      add\n        /* \"#utility.yul\":12789:12821   */\n      calldataload\n        /* \"#utility.yul\":12848:12866   */\n      0xffffffffffffffff\n        /* \"#utility.yul\":12840:12846   */\n      dup2\n        /* \"#utility.yul\":12837:12867   */\n      gt\n        /* \"#utility.yul\":12834:12951   */\n      iszero\n      tag_358\n      jumpi\n        /* \"#utility.yul\":12870:12949   */\n      tag_359\n      tag_195\n      jump\t// in\n    tag_359:\n        /* \"#utility.yul\":12834:12951   */\n    tag_358:\n        /* \"#utility.yul\":12975:13038   */\n      tag_360\n        /* \"#utility.yul\":13030:13037   */\n      dup12\n        /* \"#utility.yul\":13021:13027   */\n      dup3\n        /* \"#utility.yul\":13010:13019   */\n      dup13\n        /* \"#utility.yul\":13006:13028   */\n      add\n        /* \"#utility.yul\":12975:13038   */\n      tag_215\n      jump\t// in\n    tag_360:\n        /* \"#utility.yul\":12965:13038   */\n      swap6\n      pop\n        /* \"#utility.yul\":12760:13048   */\n      pop\n        /* \"#utility.yul\":13115:13118   */\n      0x80\n        /* \"#utility.yul\":13104:13113   */\n      dup10\n        /* \"#utility.yul\":13100:13119   */\n      add\n        /* \"#utility.yul\":13087:13120   */\n      calldataload\n        /* \"#utility.yul\":13147:13165   */\n      0xffffffffffffffff\n        /* \"#utility.yul\":13139:13145   */\n      dup2\n        /* \"#utility.yul\":13136:13166   */\n      gt\n        /* \"#utility.yul\":13133:13250   */\n      iszero\n      tag_361\n      jumpi\n        /* \"#utility.yul\":13169:13248   */\n      tag_362\n      tag_195\n      jump\t// in\n    tag_362:\n        /* \"#utility.yul\":13133:13250   */\n    tag_361:\n        /* \"#utility.yul\":13274:13337   */\n      tag_363\n        /* \"#utility.yul\":13329:13336   */\n      dup12\n        /* \"#utility.yul\":13320:13326   */\n      dup3\n        /* \"#utility.yul\":13309:13318   */\n      dup13\n        /* \"#utility.yul\":13305:13327   */\n      add\n        /* \"#utility.yul\":13274:13337   */\n      tag_215\n      jump\t// in\n    tag_363:\n        /* \"#utility.yul\":13264:13337   */\n      swap5\n      pop\n        /* \"#utility.yul\":13058:13347   */\n      pop\n        /* \"#utility.yul\":13414:13417   */\n      0xa0\n        /* \"#utility.yul\":13403:13412   */\n      dup10\n        /* \"#utility.yul\":13399:13418   */\n      add\n        /* \"#utility.yul\":13386:13419   */\n      calldataload\n        /* \"#utility.yul\":13446:13464   */\n      0xffffffffffffffff\n        /* \"#utility.yul\":13438:13444   */\n      dup2\n        /* \"#utility.yul\":13435:13465   */\n      gt\n        /* \"#utility.yul\":13432:13549   */\n      iszero\n      tag_364\n      jumpi\n        /* \"#utility.yul\":13468:13547   */\n      tag_365\n      tag_195\n      jump\t// in\n    tag_365:\n        /* \"#utility.yul\":13432:13549   */\n    tag_364:\n        /* \"#utility.yul\":13573:13636   */\n      tag_366\n        /* \"#utility.yul\":13628:13635   */\n      dup12\n        /* \"#utility.yul\":13619:13625   */\n      dup3\n        /* \"#utility.yul\":13608:13617   */\n      dup13\n        /* \"#utility.yul\":13604:13626   */\n      add\n        /* \"#utility.yul\":13573:13636   */\n      tag_215\n      jump\t// in\n    tag_366:\n        /* \"#utility.yul\":13563:13636   */\n      swap4\n      pop\n        /* \"#utility.yul\":13357:13646   */\n      pop\n        /* \"#utility.yul\":13685:13688   */\n      0xc0\n        /* \"#utility.yul\":13712:13763   */\n      tag_367\n        /* \"#utility.yul\":13755:13762   */\n      dup12\n        /* \"#utility.yul\":13746:13752   */\n      dup3\n        /* \"#utility.yul\":13735:13744   */\n      dup13\n        /* \"#utility.yul\":13731:13753   */\n      add\n        /* \"#utility.yul\":13712:13763   */\n      tag_225\n      jump\t// in\n    tag_367:\n        /* \"#utility.yul\":13702:13763   */\n      swap3\n      pop\n        /* \"#utility.yul\":13656:13773   */\n      pop\n        /* \"#utility.yul\":13812:13815   */\n      0xe0\n        /* \"#utility.yul\":13839:13890   */\n      tag_368\n        /* \"#utility.yul\":13882:13889   */\n      dup12\n        /* \"#utility.yul\":13873:13879   */\n      dup3\n        /* \"#utility.yul\":13862:13871   */\n      dup13\n        /* \"#utility.yul\":13858:13880   */\n      add\n        /* \"#utility.yul\":13839:13890   */\n      tag_225\n      jump\t// in\n    tag_368:\n        /* \"#utility.yul\":13829:13890   */\n      swap2\n      pop\n        /* \"#utility.yul\":13783:13900   */\n      pop\n        /* \"#utility.yul\":11486:13907   */\n      swap3\n      swap6\n      swap9\n      pop\n      swap3\n      swap6\n      swap9\n      swap1\n      swap4\n      swap7\n      pop\n      jump\t// out\n        /* \"#utility.yul\":13913:14035   */\n    tag_226:\n        /* \"#utility.yul\":13986:14010   */\n      tag_370\n        /* \"#utility.yul\":14004:14009   */\n      dup2\n        /* \"#utility.yul\":13986:14010   */\n      tag_203\n      jump\t// in\n    tag_370:\n        /* \"#utility.yul\":13979:13984   */\n      dup2\n        /* \"#utility.yul\":13976:14011   */\n      eq\n        /* \"#utility.yul\":13966:14029   */\n      tag_371\n      jumpi\n        /* \"#utility.yul\":14025:14026   */\n      0x00\n        /* \"#utility.yul\":14022:14023   */\n      dup1\n        /* \"#utility.yul\":14015:14027   */\n      revert\n        /* \"#utility.yul\":13966:14029   */\n    tag_371:\n        /* \"#utility.yul\":13913:14035   */\n      pop\n      jump\t// out\n        /* \"#utility.yul\":14041:14180   */\n    tag_227:\n        /* \"#utility.yul\":14087:14092   */\n      0x00\n        /* \"#utility.yul\":14125:14131   */\n      dup2\n        /* \"#utility.yul\":14112:14132   */\n      calldataload\n        /* \"#utility.yul\":14103:14132   */\n      swap1\n      pop\n        /* \"#utility.yul\":14141:14174   */\n      tag_373\n        /* \"#utility.yul\":14168:14173   */\n      dup2\n        /* \"#utility.yul\":14141:14174   */\n      tag_226\n      jump\t// in\n    tag_373:\n        /* \"#utility.yul\":14041:14180   */\n      swap3\n      swap2\n      pop\n      pop\n      jump\t// out\n        /* \"#utility.yul\":14186:14515   */\n    tag_54:\n        /* \"#utility.yul\":14245:14251   */\n      0x00\n        /* \"#utility.yul\":14294:14296   */\n      0x20\n        /* \"#utility.yul\":14282:14291   */\n      dup3\n        /* \"#utility.yul\":14273:14280   */\n      dup5\n        /* \"#utility.yul\":14269:14292   */\n      sub\n        /* \"#utility.yul\":14265:14297   */\n      slt\n        /* \"#utility.yul\":14262:14381   */\n      iszero\n      tag_375\n      jumpi\n        /* \"#utility.yul\":14300:14379   */\n      tag_376\n      tag_194\n      jump\t// in\n    tag_376:\n        /* \"#utility.yul\":14262:14381   */\n    tag_375:\n        /* \"#utility.yul\":14420:14421   */\n      0x00\n        /* \"#utility.yul\":14445:14498   */\n      tag_377\n        /* \"#utility.yul\":14490:14497   */\n      dup5\n        /* \"#utility.yul\":14481:14487   */\n      dup3\n        /* \"#utility.yul\":14470:14479   */\n      dup6\n        /* \"#utility.yul\":14466:14488   */\n      add\n        /* \"#utility.yul\":14445:14498   */\n      tag_227\n      jump\t// in\n    tag_377:\n        /* \"#utility.yul\":14435:14498   */\n      swap2\n      pop\n        /* \"#utility.yul\":14391:14508   */\n      pop\n        /* \"#utility.yul\":14186:14515   */\n      swap3\n      swap2\n      pop\n      pop\n      jump\t// out\n        /* \"#utility.yul\":14521:14690   */\n    tag_228:\n        /* \"#utility.yul\":14605:14616   */\n      0x00\n        /* \"#utility.yul\":14639:14645   */\n      dup3\n        /* \"#utility.yul\":14634:14637   */\n      dup3\n        /* \"#utility.yul\":14627:14646   */\n      mstore\n        /* \"#utility.yul\":14679:14683   */\n      0x20\n        /* \"#utility.yul\":14674:14677   */\n      dup3\n        /* \"#utility.yul\":14670:14684   */\n      add\n        /* \"#utility.yul\":14655:14684   */\n      swap1\n      pop\n        /* \"#utility.yul\":14521:14690   */\n      swap3\n      swap2\n      pop\n      pop\n      jump\t// out\n        /* \"#utility.yul\":14696:14878   */\n    tag_229:\n        /* \"#utility.yul\":14836:14870   */\n      0x4f776e61626c653a2063616c6c6572206973206e6f7420746865206f776e6572\n        /* \"#utility.yul\":14832:14833   */\n      0x00\n        /* \"#utility.yul\":14824:14830   */\n      dup3\n        /* \"#utility.yul\":14820:14834   */\n      add\n        /* \"#utility.yul\":14813:14871   */\n      mstore\n        /* \"#utility.yul\":14696:14878   */\n      pop\n      jump\t// out\n        /* \"#utility.yul\":14884:15250   */\n    tag_230:\n        /* \"#utility.yul\":15026:15029   */\n      0x00\n        /* \"#utility.yul\":15047:15114   */\n      tag_381\n        /* \"#utility.yul\":15111:15113   */\n      0x20\n        /* \"#utility.yul\":15106:15109   */\n      dup4\n        /* \"#utility.yul\":15047:15114   */\n      tag_228\n      jump\t// in\n    tag_381:\n        /* \"#utility.yul\":15040:15114   */\n      swap2\n      pop\n        /* \"#utility.yul\":15123:15216   */\n      tag_382\n        /* \"#utility.yul\":15212:15215   */\n      dup3\n        /* \"#utility.yul\":15123:15216   */\n      tag_229\n      jump\t// in\n    tag_382:\n        /* \"#utility.yul\":15241:15243   */\n      0x20\n        /* \"#utility.yul\":15236:15239   */\n      dup3\n        /* \"#utility.yul\":15232:15244   */\n      add\n        /* \"#utility.yul\":15225:15244   */\n      swap1\n      pop\n        /* \"#utility.yul\":14884:15250   */\n      swap2\n      swap1\n      pop\n      jump\t// out\n        /* \"#utility.yul\":15256:15675   */\n    tag_62:\n        /* \"#utility.yul\":15422:15426   */\n      0x00\n        /* \"#utility.yul\":15460:15462   */\n      0x20\n        /* \"#utility.yul\":15449:15458   */\n      dup3\n        /* \"#utility.yul\":15445:15463   */\n      add\n        /* \"#utility.yul\":15437:15463   */\n      swap1\n      pop\n        /* \"#utility.yul\":15509:15518   */\n      dup2\n        /* \"#utility.yul\":15503:15507   */\n      dup2\n        /* \"#utility.yul\":15499:15519   */\n      sub\n        /* \"#utility.yul\":15495:15496   */\n      0x00\n        /* \"#utility.yul\":15484:15493   */\n      dup4\n        /* \"#utility.yul\":15480:15497   */\n      add\n        /* \"#utility.yul\":15473:15520   */\n      mstore\n        /* \"#utility.yul\":15537:15668   */\n      tag_384\n        /* \"#utility.yul\":15663:15667   */\n      dup2\n        /* \"#utility.yul\":15537:15668   */\n      tag_230\n      jump\t// in\n    tag_384:\n        /* \"#utility.yul\":15529:15668   */\n      swap1\n      pop\n        /* \"#utility.yul\":15256:15675   */\n      swap2\n      swap1\n      pop\n      jump\t// out\n        /* \"#utility.yul\":15681:16045   */\n    tag_231:\n        /* \"#utility.yul\":15769:15772   */\n      0x00\n        /* \"#utility.yul\":15797:15836   */\n      tag_386\n        /* \"#utility.yul\":15830:15835   */\n      dup3\n        /* \"#utility.yul\":15797:15836   */\n      tag_216\n      jump\t// in\n    tag_386:\n        /* \"#utility.yul\":15852:15923   */\n      tag_387\n        /* \"#utility.yul\":15916:15922   */\n      dup2\n        /* \"#utility.yul\":15911:15914   */\n      dup6\n        /* \"#utility.yul\":15852:15923   */\n      tag_228\n      jump\t// in\n    tag_387:\n        /* \"#utility.yul\":15845:15923   */\n      swap4\n      pop\n        /* \"#utility.yul\":15932:15984   */\n      tag_388\n        /* \"#utility.yul\":15977:15983   */\n      dup2\n        /* \"#utility.yul\":15972:15975   */\n      dup6\n        /* \"#utility.yul\":15965:15969   */\n      0x20\n        /* \"#utility.yul\":15958:15963   */\n      dup7\n        /* \"#utility.yul\":15954:15970   */\n      add\n        /* \"#utility.yul\":15932:15984   */\n      tag_218\n      jump\t// in\n    tag_388:\n        /* \"#utility.yul\":16009:16038   */\n      tag_389\n        /* \"#utility.yul\":16031:16037   */\n      dup2\n        /* \"#utility.yul\":16009:16038   */\n      tag_208\n      jump\t// in\n    tag_389:\n        /* \"#utility.yul\":16004:16007   */\n      dup5\n        /* \"#utility.yul\":16000:16039   */\n      add\n        /* \"#utility.yul\":15993:16039   */\n      swap2\n      pop\n        /* \"#utility.yul\":15773:16045   */\n      pop\n        /* \"#utility.yul\":15681:16045   */\n      swap3\n      swap2\n      pop\n      pop\n      jump\t// out\n        /* \"#utility.yul\":16051:16364   */\n    tag_80:\n        /* \"#utility.yul\":16164:16168   */\n      0x00\n        /* \"#utility.yul\":16202:16204   */\n      0x20\n        /* \"#utility.yul\":16191:16200   */\n      dup3\n        /* \"#utility.yul\":16187:16205   */\n      add\n        /* \"#utility.yul\":16179:16205   */\n      swap1\n      pop\n        /* \"#utility.yul\":16251:16260   */\n      dup2\n        /* \"#utility.yul\":16245:16249   */\n      dup2\n        /* \"#utility.yul\":16241:16261   */\n      sub\n        /* \"#utility.yul\":16237:16238   */\n      0x00\n        /* \"#utility.yul\":16226:16235   */\n      dup4\n        /* \"#utility.yul\":16222:16239   */\n      add\n        /* \"#utility.yul\":16215:16262   */\n      mstore\n        /* \"#utility.yul\":16279:16357   */\n      tag_391\n        /* \"#utility.yul\":16352:16356   */\n      dup2\n        /* \"#utility.yul\":16343:16349   */\n      dup5\n        /* \"#utility.yul\":16279:16357   */\n      tag_231\n      jump\t// in\n    tag_391:\n        /* \"#utility.yul\":16271:16357   */\n      swap1\n      pop\n        /* \"#utility.yul\":16051:16364   */\n      swap3\n      swap2\n      pop\n      pop\n      jump\t// out\n        /* \"#utility.yul\":16370:16550   */\n    tag_232:\n        /* \"#utility.yul\":16418:16495   */\n      0x4e487b7100000000000000000000000000000000000000000000000000000000\n        /* \"#utility.yul\":16415:16416   */\n      0x00\n        /* \"#utility.yul\":16408:16496   */\n      mstore\n        /* \"#utility.yul\":16515:16519   */\n      0x12\n        /* \"#utility.yul\":16512:16513   */\n      0x04\n        /* \"#utility.yul\":16505:16520   */\n      mstore\n        /* \"#utility.yul\":16539:16543   */\n      0x24\n        /* \"#utility.yul\":16536:16537   */\n      0x00\n        /* \"#utility.yul\":16529:16544   */\n      revert\n        /* \"#utility.yul\":16556:16732   */\n    tag_82:\n        /* \"#utility.yul\":16588:16589   */\n      0x00\n        /* \"#utility.yul\":16605:16625   */\n      tag_394\n        /* \"#utility.yul\":16623:16624   */\n      dup3\n        /* \"#utility.yul\":16605:16625   */\n      tag_196\n      jump\t// in\n    tag_394:\n        /* \"#utility.yul\":16600:16625   */\n      swap2\n      pop\n        /* \"#utility.yul\":16639:16659   */\n      tag_395\n        /* \"#utility.yul\":16657:16658   */\n      dup4\n        /* \"#utility.yul\":16639:16659   */\n      tag_196\n      jump\t// in\n    tag_395:\n        /* \"#utility.yul\":16634:16659   */\n      swap3\n      pop\n        /* \"#utility.yul\":16678:16679   */\n      dup3\n        /* \"#utility.yul\":16668:16703   */\n      tag_396\n      jumpi\n        /* \"#utility.yul\":16683:16701   */\n      tag_397\n      tag_232\n      jump\t// in\n    tag_397:\n        /* \"#utility.yul\":16668:16703   */\n    tag_396:\n        /* \"#utility.yul\":16724:16725   */\n      dup3\n        /* \"#utility.yul\":16721:16722   */\n      dup3\n        /* \"#utility.yul\":16717:16726   */\n      mod\n        /* \"#utility.yul\":16712:16726   */\n      swap1\n      pop\n        /* \"#utility.yul\":16556:16732   */\n      swap3\n      swap2\n      pop\n      pop\n      jump\t// out\n        /* \"#utility.yul\":16738:16918   */\n    tag_90:\n        /* \"#utility.yul\":16786:16863   */\n      0x4e487b7100000000000000000000000000000000000000000000000000000000\n        /* \"#utility.yul\":16783:16784   */\n      0x00\n        /* \"#utility.yul\":16776:16864   */\n      mstore\n        /* \"#utility.yul\":16883:16887   */\n      0x32\n        /* \"#utility.yul\":16880:16881   */\n      0x04\n        /* \"#utility.yul\":16873:16888   */\n      mstore\n        /* \"#utility.yul\":16907:16911   */\n      0x24\n        /* \"#utility.yul\":16904:16905   */\n      0x00\n        /* \"#utility.yul\":16897:16912   */\n      revert\n        /* \"#utility.yul\":16924:17104   */\n    tag_233:\n        /* \"#utility.yul\":16972:17049   */\n      0x4e487b7100000000000000000000000000000000000000000000000000000000\n        /* \"#utility.yul\":16969:16970   */\n      0x00\n        /* \"#utility.yul\":16962:17050   */\n      mstore\n        /* \"#utility.yul\":17069:17073   */\n      0x22\n        /* \"#utility.yul\":17066:17067   */\n      0x04\n        /* \"#utility.yul\":17059:17074   */\n      mstore\n        /* \"#utility.yul\":17093:17097   */\n      0x24\n        /* \"#utility.yul\":17090:17091   */\n      0x00\n        /* \"#utility.yul\":17083:17098   */\n      revert\n        /* \"#utility.yul\":17110:17430   */\n    tag_93:\n        /* \"#utility.yul\":17154:17160   */\n      0x00\n        /* \"#utility.yul\":17191:17192   */\n      0x02\n        /* \"#utility.yul\":17185:17189   */\n      dup3\n        /* \"#utility.yul\":17181:17193   */\n      div\n        /* \"#utility.yul\":17171:17193   */\n      swap1\n      pop\n        /* \"#utility.yul\":17238:17239   */\n      0x01\n        /* \"#utility.yul\":17232:17236   */\n      dup3\n        /* \"#utility.yul\":17228:17240   */\n      and\n        /* \"#utility.yul\":17259:17277   */\n      dup1\n        /* \"#utility.yul\":17249:17330   */\n      tag_401\n      jumpi\n        /* \"#utility.yul\":17315:17319   */\n      0x7f\n        /* \"#utility.yul\":17307:17313   */\n      dup3\n        /* \"#utility.yul\":17303:17320   */\n      and\n        /* \"#utility.yul\":17293:17320   */\n      swap2\n      pop\n        /* \"#utility.yul\":17249:17330   */\n    tag_401:\n        /* \"#utility.yul\":17377:17379   */\n      0x20\n        /* \"#utility.yul\":17369:17375   */\n      dup3\n        /* \"#utility.yul\":17366:17380   */\n      lt\n        /* \"#utility.yul\":17346:17364   */\n      dup2\n        /* \"#utility.yul\":17343:17381   */\n      sub\n        /* \"#utility.yul\":17340:17424   */\n      tag_402\n      jumpi\n        /* \"#utility.yul\":17396:17414   */\n      tag_403\n      tag_233\n      jump\t// in\n    tag_403:\n        /* \"#utility.yul\":17340:17424   */\n    tag_402:\n        /* \"#utility.yul\":17161:17430   */\n      pop\n        /* \"#utility.yul\":17110:17430   */\n      swap2\n      swap1\n      pop\n      jump\t// out\n        /* \"#utility.yul\":17436:17616   */\n    tag_234:\n        /* \"#utility.yul\":17484:17561   */\n      0x4e487b7100000000000000000000000000000000000000000000000000000000\n        /* \"#utility.yul\":17481:17482   */\n      0x00\n        /* \"#utility.yul\":17474:17562   */\n      mstore\n        /* \"#utility.yul\":17581:17585   */\n      0x11\n        /* \"#utility.yul\":17578:17579   */\n      0x04\n        /* \"#utility.yul\":17571:17586   */\n      mstore\n        /* \"#utility.yul\":17605:17609   */\n      0x24\n        /* \"#utility.yul\":17602:17603   */\n      0x00\n        /* \"#utility.yul\":17595:17610   */\n      revert\n        /* \"#utility.yul\":17622:17813   */\n    tag_133:\n        /* \"#utility.yul\":17662:17666   */\n      0x00\n        /* \"#utility.yul\":17682:17702   */\n      tag_406\n        /* \"#utility.yul\":17700:17701   */\n      dup3\n        /* \"#utility.yul\":17682:17702   */\n      tag_196\n      jump\t// in\n    tag_406:\n        /* \"#utility.yul\":17677:17702   */\n      swap2\n      pop\n        /* \"#utility.yul\":17716:17736   */\n      tag_407\n        /* \"#utility.yul\":17734:17735   */\n      dup4\n        /* \"#utility.yul\":17716:17736   */\n      tag_196\n      jump\t// in\n    tag_407:\n        /* \"#utility.yul\":17711:17736   */\n      swap3\n      pop\n        /* \"#utility.yul\":17755:17756   */\n      dup3\n        /* \"#utility.yul\":17752:17753   */\n      dup3\n        /* \"#utility.yul\":17749:17757   */\n      lt\n        /* \"#utility.yul\":17746:17780   */\n      iszero\n      tag_408\n      jumpi\n        /* \"#utility.yul\":17760:17778   */\n      tag_409\n      tag_234\n      jump\t// in\n    tag_409:\n        /* \"#utility.yul\":17746:17780   */\n    tag_408:\n        /* \"#utility.yul\":17805:17806   */\n      dup3\n        /* \"#utility.yul\":17802:17803   */\n      dup3\n        /* \"#utility.yul\":17798:17807   */\n      sub\n        /* \"#utility.yul\":17790:17807   */\n      swap1\n      pop\n        /* \"#utility.yul\":17622:17813   */\n      swap3\n      swap2\n      pop\n      pop\n      jump\t// out\n        /* \"#utility.yul\":17819:17931   */\n    tag_235:\n        /* \"#utility.yul\":17902:17924   */\n      tag_411\n        /* \"#utility.yul\":17918:17923   */\n      dup2\n        /* \"#utility.yul\":17902:17924   */\n      tag_221\n      jump\t// in\n    tag_411:\n        /* \"#utility.yul\":17897:17900   */\n      dup3\n        /* \"#utility.yul\":17890:17925   */\n      mstore\n        /* \"#utility.yul\":17819:17931   */\n      pop\n      pop\n      jump\t// out\n        /* \"#utility.yul\":17937:18352   */\n    tag_135:\n        /* \"#utility.yul\":18074:18078   */\n      0x00\n        /* \"#utility.yul\":18112:18114   */\n      0x40\n        /* \"#utility.yul\":18101:18110   */\n      dup3\n        /* \"#utility.yul\":18097:18115   */\n      add\n        /* \"#utility.yul\":18089:18115   */\n      swap1\n      pop\n        /* \"#utility.yul\":18161:18170   */\n      dup2\n        /* \"#utility.yul\":18155:18159   */\n      dup2\n        /* \"#utility.yul\":18151:18171   */\n      sub\n        /* \"#utility.yul\":18147:18148   */\n      0x00\n        /* \"#utility.yul\":18136:18145   */\n      dup4\n        /* \"#utility.yul\":18132:18149   */\n      add\n        /* \"#utility.yul\":18125:18172   */\n      mstore\n        /* \"#utility.yul\":18189:18267   */\n      tag_413\n        /* \"#utility.yul\":18262:18266   */\n      dup2\n        /* \"#utility.yul\":18253:18259   */\n      dup6\n        /* \"#utility.yul\":18189:18267   */\n      tag_231\n      jump\t// in\n    tag_413:\n        /* \"#utility.yul\":18181:18267   */\n      swap1\n      pop\n        /* \"#utility.yul\":18277:18345   */\n      tag_414\n        /* \"#utility.yul\":18341:18343   */\n      0x20\n        /* \"#utility.yul\":18330:18339   */\n      dup4\n        /* \"#utility.yul\":18326:18344   */\n      add\n        /* \"#utility.yul\":18317:18323   */\n      dup5\n        /* \"#utility.yul\":18277:18345   */\n      tag_235\n      jump\t// in\n    tag_414:\n        /* \"#utility.yul\":17937:18352   */\n      swap4\n      swap3\n      pop\n      pop\n      pop\n      jump\t// out\n        /* \"#utility.yul\":18358:18583   */\n    tag_236:\n        /* \"#utility.yul\":18498:18532   */\n      0x4f776e61626c653a206e6577206f776e657220697320746865207a65726f2061\n        /* \"#utility.yul\":18494:18495   */\n      0x00\n        /* \"#utility.yul\":18486:18492   */\n      dup3\n        /* \"#utility.yul\":18482:18496   */\n      add\n        /* \"#utility.yul\":18475:18533   */\n      mstore\n        /* \"#utility.yul\":18567:18575   */\n      0x6464726573730000000000000000000000000000000000000000000000000000\n        /* \"#utility.yul\":18562:18564   */\n      0x20\n        /* \"#utility.yul\":18554:18560   */\n      dup3\n        /* \"#utility.yul\":18550:18565   */\n      add\n        /* \"#utility.yul\":18543:18576   */\n      mstore\n        /* \"#utility.yul\":18358:18583   */\n      pop\n      jump\t// out\n        /* \"#utility.yul\":18589:18955   */\n    tag_237:\n        /* \"#utility.yul\":18731:18734   */\n      0x00\n        /* \"#utility.yul\":18752:18819   */\n      tag_417\n        /* \"#utility.yul\":18816:18818   */\n      0x26\n        /* \"#utility.yul\":18811:18814   */\n      dup4\n        /* \"#utility.yul\":18752:18819   */\n      tag_228\n      jump\t// in\n    tag_417:\n        /* \"#utility.yul\":18745:18819   */\n      swap2\n      pop\n        /* \"#utility.yul\":18828:18921   */\n      tag_418\n        /* \"#utility.yul\":18917:18920   */\n      dup3\n        /* \"#utility.yul\":18828:18921   */\n      tag_236\n      jump\t// in\n    tag_418:\n        /* \"#utility.yul\":18946:18948   */\n      0x40\n        /* \"#utility.yul\":18941:18944   */\n      dup3\n        /* \"#utility.yul\":18937:18949   */\n      add\n        /* \"#utility.yul\":18930:18949   */\n      swap1\n      pop\n        /* \"#utility.yul\":18589:18955   */\n      swap2\n      swap1\n      pop\n      jump\t// out\n        /* \"#utility.yul\":18961:19380   */\n    tag_144:\n        /* \"#utility.yul\":19127:19131   */\n      0x00\n        /* \"#utility.yul\":19165:19167   */\n      0x20\n        /* \"#utility.yul\":19154:19163   */\n      dup3\n        /* \"#utility.yul\":19150:19168   */\n      add\n        /* \"#utility.yul\":19142:19168   */\n      swap1\n      pop\n        /* \"#utility.yul\":19214:19223   */\n      dup2\n        /* \"#utility.yul\":19208:19212   */\n      dup2\n        /* \"#utility.yul\":19204:19224   */\n      sub\n        /* \"#utility.yul\":19200:19201   */\n      0x00\n        /* \"#utility.yul\":19189:19198   */\n      dup4\n        /* \"#utility.yul\":19185:19202   */\n      add\n        /* \"#utility.yul\":19178:19225   */\n      mstore\n        /* \"#utility.yul\":19242:19373   */\n      tag_420\n        /* \"#utility.yul\":19368:19372   */\n      dup2\n        /* \"#utility.yul\":19242:19373   */\n      tag_237\n      jump\t// in\n    tag_420:\n        /* \"#utility.yul\":19234:19373   */\n      swap1\n      pop\n        /* \"#utility.yul\":18961:19380   */\n      swap2\n      swap1\n      pop\n      jump\t// out\n\n    auxdata: 0xa2646970667358221220bf7960743b294bf4aa24b8b50e0cd604f997e3dbb03caa1dcbc6b907692c56bd64736f6c634300080e0033\n}\n",
				"bytecode": {
					"linkReferences": {},
					"object": "608060405234801561001057600080fd5b5061002d61002261003260201b60201c565b61003a60201b60201c565b6100fe565b600033905090565b60008060009054906101000a900473ffffffffffffffffffffffffffffffffffffffff169050816000806101000a81548173ffffffffffffffffffffffffffffffffffffffff021916908373ffffffffffffffffffffffffffffffffffffffff1602179055508173ffffffffffffffffffffffffffffffffffffffff168173ffffffffffffffffffffffffffffffffffffffff167f8be0079c531659141344cd1fd0a4f28419497f9722a3daafe3b4186f6b6457e060405160405180910390a35050565b611c4d8061010d6000396000f3fe608060405234801561001057600080fd5b506004361061009e5760003560e01c80638da5cb5b116100665780638da5cb5b146101455780639302b2b714610163578063aecab07214610193578063e013d704146101c3578063f2fde38b146101df5761009e565b80631d3f7559146100a3578063377def85146100bf578063400ae0f9146100db57806351a1d40e1461010b578063715018a61461013b575b600080fd5b6100bd60048036038101906100b89190611250565b6101fb565b005b6100d960048036038101906100d49190611250565b6102a6565b005b6100f560048036038101906100f09190611290565b610342565b60405161010291906112fe565b60405180910390f35b61012560048036038101906101209190611290565b610375565b6040516101329190611328565b60405180910390f35b610143610395565b005b61014d61041d565b60405161015a91906112fe565b60405180910390f35b61017d60048036038101906101789190611489565b610446565b60405161018a9190611606565b60405180910390f35b6101ad60048036038101906101a89190611290565b6104a3565b6040516101ba9190611717565b60405180910390f35b6101dd60048036038101906101d89190611765565b610886565b005b6101f960048036038101906101f491906118ef565b610aba565b005b610203610bb1565b73ffffffffffffffffffffffffffffffffffffffff1661022161041d565b73ffffffffffffffffffffffffffffffffffffffff1614610277576040517f08c379a000000000000000000000000000000000000000000000000000000000815260040161026e90611979565b60405180910390fd5b806002600084815260200190815260200160002060006101000a81548160ff0219169083151502179055505050565b813373ffffffffffffffffffffffffffffffffffffffff166003600083815260200190815260200160002060009054906101000a900473ffffffffffffffffffffffffffffffffffffffff1673ffffffffffffffffffffffffffffffffffffffff161461031257600080fd5b816002600085815260200190815260200160002060006101000a81548160ff021916908315150217905550505050565b60036020528060005260406000206000915054906101000a900473ffffffffffffffffffffffffffffffffffffffff1681565b60026020528060005260406000206000915054906101000a900460ff1681565b61039d610bb1565b73ffffffffffffffffffffffffffffffffffffffff166103bb61041d565b73ffffffffffffffffffffffffffffffffffffffff1614610411576040517f08c379a000000000000000000000000000000000000000000000000000000000815260040161040890611979565b60405180910390fd5b61041b6000610bb9565b565b60008060009054906101000a900473ffffffffffffffffffffffffffffffffffffffff16905090565b61044e6110aa565b60008260405160200161046191906119d2565b6040516020818303038152906040528051906020012060001c905060006001805490508261048f9190611a23565b905061049a81610c7d565b92505050919050565b6104ab6110e0565b600182815481106104bf576104be611a54565b5b9060005260206000209060070201604051806101000160405290816000820180546104e990611ab2565b80601f016020809104026020016040519081016040528092919081815260200182805461051590611ab2565b80156105625780601f1061053757610100808354040283529160200191610562565b820191906000526020600020905b81548152906001019060200180831161054557829003601f168201915b5050505050815260200160018201805461057b90611ab2565b80601f01602080910402602001604051908101604052809291908181526020018280546105a790611ab2565b80156105f45780601f106105c9576101008083540402835291602001916105f4565b820191906000526020600020905b8154815290600101906020018083116105d757829003601f168201915b5050505050815260200160028201805461060d90611ab2565b80601f016020809104026020016040519081016040528092919081815260200182805461063990611ab2565b80156106865780601f1061065b57610100808354040283529160200191610686565b820191906000526020600020905b81548152906001019060200180831161066957829003601f168201915b5050505050815260200160038201805461069f90611ab2565b80601f01602080910402602001604051908101604052809291908181526020018280546106cb90611ab2565b80156107185780601f106106ed57610100808354040283529160200191610718565b820191906000526020600020905b8154815290600101906020018083116106fb57829003601f168201915b5050505050815260200160048201805461073190611ab2565b80601f016020809104026020016040519081016040528092919081815260200182805461075d90611ab2565b80156107aa5780601f1061077f576101008083540402835291602001916107aa565b820191906000526020600020905b81548152906001019060200180831161078d57829003601f168201915b505050505081526020016005820180546107c390611ab2565b80601f01602080910402602001604051908101604052809291908181526020018280546107ef90611ab2565b801561083c5780601f106108115761010080835404028352916020019161083c565b820191906000526020600020905b81548152906001019060200180831161081f57829003601f168201915b505050505081526020016006820160009054906101000a900460ff1660ff1660ff1681526020016006820160019054906101000a900460ff1660ff1660ff16815250509050919050565b60016040518061010001604052808a81526020018981526020018881526020018781526020018681526020018581526020018460ff1681526020018360ff168152509080600181540180825580915050600190039060005260206000209060070201600090919091909150600082015181600001908051906020019061090d92919061112b565b50602082015181600101908051906020019061092a92919061112b565b50604082015181600201908051906020019061094792919061112b565b50606082015181600301908051906020019061096492919061112b565b50608082015181600401908051906020019061098192919061112b565b5060a082015181600501908051906020019061099e92919061112b565b5060c08201518160060160006101000a81548160ff021916908360ff16021790555060e08201518160060160016101000a81548160ff021916908360ff16021790555050506000600180805490506109f69190611b12565b9050336003600083815260200190815260200160002060006101000a81548173ffffffffffffffffffffffffffffffffffffffff021916908373ffffffffffffffffffffffffffffffffffffffff16021790555060016002600083815260200190815260200160002060006101000a81548160ff0219169083151502179055507f545dca5d847b655a9f03cdf5619f53f0b2546051fd0d015b18c09ae2a8b1a7658984604051610aa7929190611b55565b60405180910390a1505050505050505050565b610ac2610bb1565b73ffffffffffffffffffffffffffffffffffffffff16610ae061041d565b73ffffffffffffffffffffffffffffffffffffffff1614610b36576040517f08c379a0000000000000000000000000000000000000000000000000000000008152600401610b2d90611979565b60405180910390fd5b600073ffffffffffffffffffffffffffffffffffffffff168173ffffffffffffffffffffffffffffffffffffffff1603610ba5576040517f08c379a0000000000000000000000000000000000000000000000000000000008152600401610b9c90611bf7565b60405180910390fd5b610bae81610bb9565b50565b600033905090565b60008060009054906101000a900473ffffffffffffffffffffffffffffffffffffffff169050816000806101000a81548173ffffffffffffffffffffffffffffffffffffffff021916908373ffffffffffffffffffffffffffffffffffffffff1602179055508173ffffffffffffffffffffffffffffffffffffffff168173ffffffffffffffffffffffffffffffffffffffff167f8be0079c531659141344cd1fd0a4f28419497f9722a3daafe3b4186f6b6457e060405160405180910390a35050565b610c856110aa565b600060018381548110610c9b57610c9a611a54565b5b906000526020600020906007020160405180610100016040529081600082018054610cc590611ab2565b80601f0160208091040260200160405190810160405280929190818152602001828054610cf190611ab2565b8015610d3e5780601f10610d1357610100808354040283529160200191610d3e565b820191906000526020600020905b815481529060010190602001808311610d2157829003601f168201915b50505050508152602001600182018054610d5790611ab2565b80601f0160208091040260200160405190810160405280929190818152602001828054610d8390611ab2565b8015610dd05780601f10610da557610100808354040283529160200191610dd0565b820191906000526020600020905b815481529060010190602001808311610db357829003601f168201915b50505050508152602001600282018054610de990611ab2565b80601f0160208091040260200160405190810160405280929190818152602001828054610e1590611ab2565b8015610e625780601f10610e3757610100808354040283529160200191610e62565b820191906000526020600020905b815481529060010190602001808311610e4557829003601f168201915b50505050508152602001600382018054610e7b90611ab2565b80601f0160208091040260200160405190810160405280929190818152602001828054610ea790611ab2565b8015610ef45780601f10610ec957610100808354040283529160200191610ef4565b820191906000526020600020905b815481529060010190602001808311610ed757829003601f168201915b50505050508152602001600482018054610f0d90611ab2565b80601f0160208091040260200160405190810160405280929190818152602001828054610f3990611ab2565b8015610f865780601f10610f5b57610100808354040283529160200191610f86565b820191906000526020600020905b815481529060010190602001808311610f6957829003601f168201915b50505050508152602001600582018054610f9f90611ab2565b80601f0160208091040260200160405190810160405280929190818152602001828054610fcb90611ab2565b80156110185780601f10610fed57610100808354040283529160200191611018565b820191906000526020600020905b815481529060010190602001808311610ffb57829003601f168201915b505050505081526020016006820160009054906101000a900460ff1660ff1660ff1681526020016006820160019054906101000a900460ff1660ff1660ff168152505090506040518060c0016040528082600001518152602001826020015181526020018260400151815260200182606001518152602001826080015181526020018260a00151815250915050919050565b6040518060c001604052806060815260200160608152602001606081526020016060815260200160608152602001606081525090565b604051806101000160405280606081526020016060815260200160608152602001606081526020016060815260200160608152602001600060ff168152602001600060ff1681525090565b82805461113790611ab2565b90600052602060002090601f01602090048101928261115957600085556111a0565b82601f1061117257805160ff19168380011785556111a0565b828001600101855582156111a0579182015b8281111561119f578251825591602001919060010190611184565b5b5090506111ad91906111b1565b5090565b5b808211156111ca5760008160009055506001016111b2565b5090565b6000604051905090565b600080fd5b600080fd5b6000819050919050565b6111f5816111e2565b811461120057600080fd5b50565b600081359050611212816111ec565b92915050565b60008115159050919050565b61122d81611218565b811461123857600080fd5b50565b60008135905061124a81611224565b92915050565b60008060408385031215611267576112666111d8565b5b600061127585828601611203565b92505060206112868582860161123b565b9150509250929050565b6000602082840312156112a6576112a56111d8565b5b60006112b484828501611203565b91505092915050565b600073ffffffffffffffffffffffffffffffffffffffff82169050919050565b60006112e8826112bd565b9050919050565b6112f8816112dd565b82525050565b600060208201905061131360008301846112ef565b92915050565b61132281611218565b82525050565b600060208201905061133d6000830184611319565b92915050565b600080fd5b600080fd5b6000601f19601f8301169050919050565b7f4e487b7100000000000000000000000000000000000000000000000000000000600052604160045260246000fd5b6113968261134d565b810181811067ffffffffffffffff821117156113b5576113b461135e565b5b80604052505050565b60006113c86111ce565b90506113d4828261138d565b919050565b600067ffffffffffffffff8211156113f4576113f361135e565b5b6113fd8261134d565b9050602081019050919050565b82818337600083830152505050565b600061142c611427846113d9565b6113be565b90508281526020810184848401111561144857611447611348565b5b61145384828561140a565b509392505050565b600082601f8301126114705761146f611343565b5b8135611480848260208601611419565b91505092915050565b60006020828403121561149f5761149e6111d8565b5b600082013567ffffffffffffffff8111156114bd576114bc6111dd565b5b6114c98482850161145b565b91505092915050565b600081519050919050565b600082825260208201905092915050565b60005b8381101561150c5780820151818401526020810190506114f1565b8381111561151b576000848401525b50505050565b600061152c826114d2565b61153681856114dd565b93506115468185602086016114ee565b61154f8161134d565b840191505092915050565b600060c08301600083015184820360008601526115778282611521565b915050602083015184820360208601526115918282611521565b915050604083015184820360408601526115ab8282611521565b915050606083015184820360608601526115c58282611521565b915050608083015184820360808601526115df8282611521565b91505060a083015184820360a08601526115f98282611521565b9150508091505092915050565b60006020820190508181036000830152611620818461155a565b905092915050565b600060ff82169050919050565b61163e81611628565b82525050565b60006101008301600083015184820360008601526116628282611521565b9150506020830151848203602086015261167c8282611521565b915050604083015184820360408601526116968282611521565b915050606083015184820360608601526116b08282611521565b915050608083015184820360808601526116ca8282611521565b91505060a083015184820360a08601526116e48282611521565b91505060c08301516116f960c0860182611635565b5060e083015161170c60e0860182611635565b508091505092915050565b600060208201905081810360008301526117318184611644565b905092915050565b61174281611628565b811461174d57600080fd5b50565b60008135905061175f81611739565b92915050565b600080600080600080600080610100898b031215611786576117856111d8565b5b600089013567ffffffffffffffff8111156117a4576117a36111dd565b5b6117b08b828c0161145b565b985050602089013567ffffffffffffffff8111156117d1576117d06111dd565b5b6117dd8b828c0161145b565b975050604089013567ffffffffffffffff8111156117fe576117fd6111dd565b5b61180a8b828c0161145b565b965050606089013567ffffffffffffffff81111561182b5761182a6111dd565b5b6118378b828c0161145b565b955050608089013567ffffffffffffffff811115611858576118576111dd565b5b6118648b828c0161145b565b94505060a089013567ffffffffffffffff811115611885576118846111dd565b5b6118918b828c0161145b565b93505060c06118a28b828c01611750565b92505060e06118b38b828c01611750565b9150509295985092959890939650565b6118cc816112dd565b81146118d757600080fd5b50565b6000813590506118e9816118c3565b92915050565b600060208284031215611905576119046111d8565b5b6000611913848285016118da565b91505092915050565b600082825260208201905092915050565b7f4f776e61626c653a2063616c6c6572206973206e6f7420746865206f776e6572600082015250565b600061196360208361191c565b915061196e8261192d565b602082019050919050565b6000602082019050818103600083015261199281611956565b9050919050565b60006119a4826114d2565b6119ae818561191c565b93506119be8185602086016114ee565b6119c78161134d565b840191505092915050565b600060208201905081810360008301526119ec8184611999565b905092915050565b7f4e487b7100000000000000000000000000000000000000000000000000000000600052601260045260246000fd5b6000611a2e826111e2565b9150611a39836111e2565b925082611a4957611a486119f4565b5b828206905092915050565b7f4e487b7100000000000000000000000000000000000000000000000000000000600052603260045260246000fd5b7f4e487b7100000000000000000000000000000000000000000000000000000000600052602260045260246000fd5b60006002820490506001821680611aca57607f821691505b602082108103611add57611adc611a83565b5b50919050565b7f4e487b7100000000000000000000000000000000000000000000000000000000600052601160045260246000fd5b6000611b1d826111e2565b9150611b28836111e2565b925082821015611b3b57611b3a611ae3565b5b828203905092915050565b611b4f81611628565b82525050565b60006040820190508181036000830152611b6f8185611999565b9050611b7e6020830184611b46565b9392505050565b7f4f776e61626c653a206e6577206f776e657220697320746865207a65726f206160008201527f6464726573730000000000000000000000000000000000000000000000000000602082015250565b6000611be160268361191c565b9150611bec82611b85565b604082019050919050565b60006020820190508181036000830152611c1081611bd4565b905091905056fea2646970667358221220bf7960743b294bf4aa24b8b50e0cd604f997e3dbb03caa1dcbc6b907692c56bd64736f6c634300080e0033",
					"opcodes": "PUSH1 0x80 PUSH1 0x40 MSTORE CALLVALUE DUP1 ISZERO PUSH2 0x10 JUMPI PUSH1 0x0 DUP1 REVERT JUMPDEST POP PUSH2 0x2D PUSH2 0x22 PUSH2 0x32 PUSH1 0x20 SHL PUSH1 0x20 SHR JUMP JUMPDEST PUSH2 0x3A PUSH1 0x20 SHL PUSH1 0x20 SHR JUMP JUMPDEST PUSH2 0xFE JUMP JUMPDEST PUSH1 0x0 CALLER SWAP1 POP SWAP1 JUMP JUMPDEST PUSH1 0x0 DUP1 PUSH1 0x0 SWAP1 SLOAD SWAP1 PUSH2 0x100 EXP SWAP1 DIV PUSH20 0xFFFFFFFFFFFFFFFFFFFFFFFFFFFFFFFFFFFFFFFF AND SWAP1 POP DUP2 PUSH1 0x0 DUP1 PUSH2 0x100 EXP DUP2 SLOAD DUP2 PUSH20 0xFFFFFFFFFFFFFFFFFFFFFFFFFFFFFFFFFFFFFFFF MUL NOT AND SWAP1 DUP4 PUSH20 0xFFFFFFFFFFFFFFFFFFFFFFFFFFFFFFFFFFFFFFFF AND MUL OR SWAP1 SSTORE POP DUP2 PUSH20 0xFFFFFFFFFFFFFFFFFFFFFFFFFFFFFFFFFFFFFFFF AND DUP2 PUSH20 0xFFFFFFFFFFFFFFFFFFFFFFFFFFFFFFFFFFFFFFFF AND PUSH32 0x8BE0079C531659141344CD1FD0A4F28419497F9722A3DAAFE3B4186F6B6457E0 PUSH1 0x40 MLOAD PUSH1 0x40 MLOAD DUP1 SWAP2 SUB SWAP1 LOG3 POP POP JUMP JUMPDEST PUSH2 0x1C4D DUP1 PUSH2 0x10D PUSH1 0x0 CODECOPY PUSH1 0x0 RETURN INVALID PUSH1 0x80 PUSH1 0x40 MSTORE CALLVALUE DUP1 ISZERO PUSH2 0x10 JUMPI PUSH1 0x0 DUP1 REVERT JUMPDEST POP PUSH1 0x4 CALLDATASIZE LT PUSH2 0x9E JUMPI PUSH1 0x0 CALLDATALOAD PUSH1 0xE0 SHR DUP1 PUSH4 0x8DA5CB5B GT PUSH2 0x66 JUMPI DUP1 PUSH4 0x8DA5CB5B EQ PUSH2 0x145 JUMPI DUP1 PUSH4 0x9302B2B7 EQ PUSH2 0x163 JUMPI DUP1 PUSH4 0xAECAB072 EQ PUSH2 0x193 JUMPI DUP1 PUSH4 0xE013D704 EQ PUSH2 0x1C3 JUMPI DUP1 PUSH4 0xF2FDE38B EQ PUSH2 0x1DF JUMPI PUSH2 0x9E JUMP JUMPDEST DUP1 PUSH4 0x1D3F7559 EQ PUSH2 0xA3 JUMPI DUP1 PUSH4 0x377DEF85 EQ PUSH2 0xBF JUMPI DUP1 PUSH4 0x400AE0F9 EQ PUSH2 0xDB JUMPI DUP1 PUSH4 0x51A1D40E EQ PUSH2 0x10B JUMPI DUP1 PUSH4 0x715018A6 EQ PUSH2 0x13B JUMPI JUMPDEST PUSH1 0x0 DUP1 REVERT JUMPDEST PUSH2 0xBD PUSH1 0x4 DUP1 CALLDATASIZE SUB DUP2 ADD SWAP1 PUSH2 0xB8 SWAP2 SWAP1 PUSH2 0x1250 JUMP JUMPDEST PUSH2 0x1FB JUMP JUMPDEST STOP JUMPDEST PUSH2 0xD9 PUSH1 0x4 DUP1 CALLDATASIZE SUB DUP2 ADD SWAP1 PUSH2 0xD4 SWAP2 SWAP1 PUSH2 0x1250 JUMP JUMPDEST PUSH2 0x2A6 JUMP JUMPDEST STOP JUMPDEST PUSH2 0xF5 PUSH1 0x4 DUP1 CALLDATASIZE SUB DUP2 ADD SWAP1 PUSH2 0xF0 SWAP2 SWAP1 PUSH2 0x1290 JUMP JUMPDEST PUSH2 0x342 JUMP JUMPDEST PUSH1 0x40 MLOAD PUSH2 0x102 SWAP2 SWAP1 PUSH2 0x12FE JUMP JUMPDEST PUSH1 0x40 MLOAD DUP1 SWAP2 SUB SWAP1 RETURN JUMPDEST PUSH2 0x125 PUSH1 0x4 DUP1 CALLDATASIZE SUB DUP2 ADD SWAP1 PUSH2 0x120 SWAP2 SWAP1 PUSH2 0x1290 JUMP JUMPDEST PUSH2 0x375 JUMP JUMPDEST PUSH1 0x40 MLOAD PUSH2 0x132 SWAP2 SWAP1 PUSH2 0x1328 JUMP JUMPDEST PUSH1 0x40 MLOAD DUP1 SWAP2 SUB SWAP1 RETURN JUMPDEST PUSH2 0x143 PUSH2 0x395 JUMP JUMPDEST STOP JUMPDEST PUSH2 0x14D PUSH2 0x41D JUMP JUMPDEST PUSH1 0x40 MLOAD PUSH2 0x15A SWAP2 SWAP1 PUSH2 0x12FE JUMP JUMPDEST PUSH1 0x40 MLOAD DUP1 SWAP2 SUB SWAP1 RETURN JUMPDEST PUSH2 0x17D PUSH1 0x4 DUP1 CALLDATASIZE SUB DUP2 ADD SWAP1 PUSH2 0x178 SWAP2 SWAP1 PUSH2 0x1489 JUMP JUMPDEST PUSH2 0x446 JUMP JUMPDEST PUSH1 0x40 MLOAD PUSH2 0x18A SWAP2 SWAP1 PUSH2 0x1606 JUMP JUMPDEST PUSH1 0x40 MLOAD DUP1 SWAP2 SUB SWAP1 RETURN JUMPDEST PUSH2 0x1AD PUSH1 0x4 DUP1 CALLDATASIZE SUB DUP2 ADD SWAP1 PUSH2 0x1A8 SWAP2 SWAP1 PUSH2 0x1290 JUMP JUMPDEST PUSH2 0x4A3 JUMP JUMPDEST PUSH1 0x40 MLOAD PUSH2 0x1BA SWAP2 SWAP1 PUSH2 0x1717 JUMP JUMPDEST PUSH1 0x40 MLOAD DUP1 SWAP2 SUB SWAP1 RETURN JUMPDEST PUSH2 0x1DD PUSH1 0x4 DUP1 CALLDATASIZE SUB DUP2 ADD SWAP1 PUSH2 0x1D8 SWAP2 SWAP1 PUSH2 0x1765 JUMP JUMPDEST PUSH2 0x886 JUMP JUMPDEST STOP JUMPDEST PUSH2 0x1F9 PUSH1 0x4 DUP1 CALLDATASIZE SUB DUP2 ADD SWAP1 PUSH2 0x1F4 SWAP2 SWAP1 PUSH2 0x18EF JUMP JUMPDEST PUSH2 0xABA JUMP JUMPDEST STOP JUMPDEST PUSH2 0x203 PUSH2 0xBB1 JUMP JUMPDEST PUSH20 0xFFFFFFFFFFFFFFFFFFFFFFFFFFFFFFFFFFFFFFFF AND PUSH2 0x221 PUSH2 0x41D JUMP JUMPDEST PUSH20 0xFFFFFFFFFFFFFFFFFFFFFFFFFFFFFFFFFFFFFFFF AND EQ PUSH2 0x277 JUMPI PUSH1 0x40 MLOAD PUSH32 0x8C379A000000000000000000000000000000000000000000000000000000000 DUP2 MSTORE PUSH1 0x4 ADD PUSH2 0x26E SWAP1 PUSH2 0x1979 JUMP JUMPDEST PUSH1 0x40 MLOAD DUP1 SWAP2 SUB SWAP1 REVERT JUMPDEST DUP1 PUSH1 0x2 PUSH1 0x0 DUP5 DUP2 MSTORE PUSH1 0x20 ADD SWAP1 DUP2 MSTORE PUSH1 0x20 ADD PUSH1 0x0 KECCAK256 PUSH1 0x0 PUSH2 0x100 EXP DUP2 SLOAD DUP2 PUSH1 0xFF MUL NOT AND SWAP1 DUP4 ISZERO ISZERO MUL OR SWAP1 SSTORE POP POP POP JUMP JUMPDEST DUP2 CALLER PUSH20 0xFFFFFFFFFFFFFFFFFFFFFFFFFFFFFFFFFFFFFFFF AND PUSH1 0x3 PUSH1 0x0 DUP4 DUP2 MSTORE PUSH1 0x20 ADD SWAP1 DUP2 MSTORE PUSH1 0x20 ADD PUSH1 0x0 KECCAK256 PUSH1 0x0 SWAP1 SLOAD SWAP1 PUSH2 0x100 EXP SWAP1 DIV PUSH20 0xFFFFFFFFFFFFFFFFFFFFFFFFFFFFFFFFFFFFFFFF AND PUSH20 0xFFFFFFFFFFFFFFFFFFFFFFFFFFFFFFFFFFFFFFFF AND EQ PUSH2 0x312 JUMPI PUSH1 0x0 DUP1 REVERT JUMPDEST DUP2 PUSH1 0x2 PUSH1 0x0 DUP6 DUP2 MSTORE PUSH1 0x20 ADD SWAP1 DUP2 MSTORE PUSH1 0x20 ADD PUSH1 0x0 KECCAK256 PUSH1 0x0 PUSH2 0x100 EXP DUP2 SLOAD DUP2 PUSH1 0xFF MUL NOT AND SWAP1 DUP4 ISZERO ISZERO MUL OR SWAP1 SSTORE POP POP POP POP JUMP JUMPDEST PUSH1 0x3 PUSH1 0x20 MSTORE DUP1 PUSH1 0x0 MSTORE PUSH1 0x40 PUSH1 0x0 KECCAK256 PUSH1 0x0 SWAP2 POP SLOAD SWAP1 PUSH2 0x100 EXP SWAP1 DIV PUSH20 0xFFFFFFFFFFFFFFFFFFFFFFFFFFFFFFFFFFFFFFFF AND DUP2 JUMP JUMPDEST PUSH1 0x2 PUSH1 0x20 MSTORE DUP1 PUSH1 0x0 MSTORE PUSH1 0x40 PUSH1 0x0 KECCAK256 PUSH1 0x0 SWAP2 POP SLOAD SWAP1 PUSH2 0x100 EXP SWAP1 DIV PUSH1 0xFF AND DUP2 JUMP JUMPDEST PUSH2 0x39D PUSH2 0xBB1 JUMP JUMPDEST PUSH20 0xFFFFFFFFFFFFFFFFFFFFFFFFFFFFFFFFFFFFFFFF AND PUSH2 0x3BB PUSH2 0x41D JUMP JUMPDEST PUSH20 0xFFFFFFFFFFFFFFFFFFFFFFFFFFFFFFFFFFFFFFFF AND EQ PUSH2 0x411 JUMPI PUSH1 0x40 MLOAD PUSH32 0x8C379A000000000000000000000000000000000000000000000000000000000 DUP2 MSTORE PUSH1 0x4 ADD PUSH2 0x408 SWAP1 PUSH2 0x1979 JUMP JUMPDEST PUSH1 0x40 MLOAD DUP1 SWAP2 SUB SWAP1 REVERT JUMPDEST PUSH2 0x41B PUSH1 0x0 PUSH2 0xBB9 JUMP JUMPDEST JUMP JUMPDEST PUSH1 0x0 DUP1 PUSH1 0x0 SWAP1 SLOAD SWAP1 PUSH2 0x100 EXP SWAP1 DIV PUSH20 0xFFFFFFFFFFFFFFFFFFFFFFFFFFFFFFFFFFFFFFFF AND SWAP1 POP SWAP1 JUMP JUMPDEST PUSH2 0x44E PUSH2 0x10AA JUMP JUMPDEST PUSH1 0x0 DUP3 PUSH1 0x40 MLOAD PUSH1 0x20 ADD PUSH2 0x461 SWAP2 SWAP1 PUSH2 0x19D2 JUMP JUMPDEST PUSH1 0x40 MLOAD PUSH1 0x20 DUP2 DUP4 SUB SUB DUP2 MSTORE SWAP1 PUSH1 0x40 MSTORE DUP1 MLOAD SWAP1 PUSH1 0x20 ADD KECCAK256 PUSH1 0x0 SHR SWAP1 POP PUSH1 0x0 PUSH1 0x1 DUP1 SLOAD SWAP1 POP DUP3 PUSH2 0x48F SWAP2 SWAP1 PUSH2 0x1A23 JUMP JUMPDEST SWAP1 POP PUSH2 0x49A DUP2 PUSH2 0xC7D JUMP JUMPDEST SWAP3 POP POP POP SWAP2 SWAP1 POP JUMP JUMPDEST PUSH2 0x4AB PUSH2 0x10E0 JUMP JUMPDEST PUSH1 0x1 DUP3 DUP2 SLOAD DUP2 LT PUSH2 0x4BF JUMPI PUSH2 0x4BE PUSH2 0x1A54 JUMP JUMPDEST JUMPDEST SWAP1 PUSH1 0x0 MSTORE PUSH1 0x20 PUSH1 0x0 KECCAK256 SWAP1 PUSH1 0x7 MUL ADD PUSH1 0x40 MLOAD DUP1 PUSH2 0x100 ADD PUSH1 0x40 MSTORE SWAP1 DUP2 PUSH1 0x0 DUP3 ADD DUP1 SLOAD PUSH2 0x4E9 SWAP1 PUSH2 0x1AB2 JUMP JUMPDEST DUP1 PUSH1 0x1F ADD PUSH1 0x20 DUP1 SWAP2 DIV MUL PUSH1 0x20 ADD PUSH1 0x40 MLOAD SWAP1 DUP2 ADD PUSH1 0x40 MSTORE DUP1 SWAP3 SWAP2 SWAP1 DUP2 DUP2 MSTORE PUSH1 0x20 ADD DUP3 DUP1 SLOAD PUSH2 0x515 SWAP1 PUSH2 0x1AB2 JUMP JUMPDEST DUP1 ISZERO PUSH2 0x562 JUMPI DUP1 PUSH1 0x1F LT PUSH2 0x537 JUMPI PUSH2 0x100 DUP1 DUP4 SLOAD DIV MUL DUP4 MSTORE SWAP2 PUSH1 0x20 ADD SWAP2 PUSH2 0x562 JUMP JUMPDEST DUP3 ADD SWAP2 SWAP1 PUSH1 0x0 MSTORE PUSH1 0x20 PUSH1 0x0 KECCAK256 SWAP1 JUMPDEST DUP2 SLOAD DUP2 MSTORE SWAP1 PUSH1 0x1 ADD SWAP1 PUSH1 0x20 ADD DUP1 DUP4 GT PUSH2 0x545 JUMPI DUP3 SWAP1 SUB PUSH1 0x1F AND DUP3 ADD SWAP2 JUMPDEST POP POP POP POP POP DUP2 MSTORE PUSH1 0x20 ADD PUSH1 0x1 DUP3 ADD DUP1 SLOAD PUSH2 0x57B SWAP1 PUSH2 0x1AB2 JUMP JUMPDEST DUP1 PUSH1 0x1F ADD PUSH1 0x20 DUP1 SWAP2 DIV MUL PUSH1 0x20 ADD PUSH1 0x40 MLOAD SWAP1 DUP2 ADD PUSH1 0x40 MSTORE DUP1 SWAP3 SWAP2 SWAP1 DUP2 DUP2 MSTORE PUSH1 0x20 ADD DUP3 DUP1 SLOAD PUSH2 0x5A7 SWAP1 PUSH2 0x1AB2 JUMP JUMPDEST DUP1 ISZERO PUSH2 0x5F4 JUMPI DUP1 PUSH1 0x1F LT PUSH2 0x5C9 JUMPI PUSH2 0x100 DUP1 DUP4 SLOAD DIV MUL DUP4 MSTORE SWAP2 PUSH1 0x20 ADD SWAP2 PUSH2 0x5F4 JUMP JUMPDEST DUP3 ADD SWAP2 SWAP1 PUSH1 0x0 MSTORE PUSH1 0x20 PUSH1 0x0 KECCAK256 SWAP1 JUMPDEST DUP2 SLOAD DUP2 MSTORE SWAP1 PUSH1 0x1 ADD SWAP1 PUSH1 0x20 ADD DUP1 DUP4 GT PUSH2 0x5D7 JUMPI DUP3 SWAP1 SUB PUSH1 0x1F AND DUP3 ADD SWAP2 JUMPDEST POP POP POP POP POP DUP2 MSTORE PUSH1 0x20 ADD PUSH1 0x2 DUP3 ADD DUP1 SLOAD PUSH2 0x60D SWAP1 PUSH2 0x1AB2 JUMP JUMPDEST DUP1 PUSH1 0x1F ADD PUSH1 0x20 DUP1 SWAP2 DIV MUL PUSH1 0x20 ADD PUSH1 0x40 MLOAD SWAP1 DUP2 ADD PUSH1 0x40 MSTORE DUP1 SWAP3 SWAP2 SWAP1 DUP2 DUP2 MSTORE PUSH1 0x20 ADD DUP3 DUP1 SLOAD PUSH2 0x639 SWAP1 PUSH2 0x1AB2 JUMP JUMPDEST DUP1 ISZERO PUSH2 0x686 JUMPI DUP1 PUSH1 0x1F LT PUSH2 0x65B JUMPI PUSH2 0x100 DUP1 DUP4 SLOAD DIV MUL DUP4 MSTORE SWAP2 PUSH1 0x20 ADD SWAP2 PUSH2 0x686 JUMP JUMPDEST DUP3 ADD SWAP2 SWAP1 PUSH1 0x0 MSTORE PUSH1 0x20 PUSH1 0x0 KECCAK256 SWAP1 JUMPDEST DUP2 SLOAD DUP2 MSTORE SWAP1 PUSH1 0x1 ADD SWAP1 PUSH1 0x20 ADD DUP1 DUP4 GT PUSH2 0x669 JUMPI DUP3 SWAP1 SUB PUSH1 0x1F AND DUP3 ADD SWAP2 JUMPDEST POP POP POP POP POP DUP2 MSTORE PUSH1 0x20 ADD PUSH1 0x3 DUP3 ADD DUP1 SLOAD PUSH2 0x69F SWAP1 PUSH2 0x1AB2 JUMP JUMPDEST DUP1 PUSH1 0x1F ADD PUSH1 0x20 DUP1 SWAP2 DIV MUL PUSH1 0x20 ADD PUSH1 0x40 MLOAD SWAP1 DUP2 ADD PUSH1 0x40 MSTORE DUP1 SWAP3 SWAP2 SWAP1 DUP2 DUP2 MSTORE PUSH1 0x20 ADD DUP3 DUP1 SLOAD PUSH2 0x6CB SWAP1 PUSH2 0x1AB2 JUMP JUMPDEST DUP1 ISZERO PUSH2 0x718 JUMPI DUP1 PUSH1 0x1F LT PUSH2 0x6ED JUMPI PUSH2 0x100 DUP1 DUP4 SLOAD DIV MUL DUP4 MSTORE SWAP2 PUSH1 0x20 ADD SWAP2 PUSH2 0x718 JUMP JUMPDEST DUP3 ADD SWAP2 SWAP1 PUSH1 0x0 MSTORE PUSH1 0x20 PUSH1 0x0 KECCAK256 SWAP1 JUMPDEST DUP2 SLOAD DUP2 MSTORE SWAP1 PUSH1 0x1 ADD SWAP1 PUSH1 0x20 ADD DUP1 DUP4 GT PUSH2 0x6FB JUMPI DUP3 SWAP1 SUB PUSH1 0x1F AND DUP3 ADD SWAP2 JUMPDEST POP POP POP POP POP DUP2 MSTORE PUSH1 0x20 ADD PUSH1 0x4 DUP3 ADD DUP1 SLOAD PUSH2 0x731 SWAP1 PUSH2 0x1AB2 JUMP JUMPDEST DUP1 PUSH1 0x1F ADD PUSH1 0x20 DUP1 SWAP2 DIV MUL PUSH1 0x20 ADD PUSH1 0x40 MLOAD SWAP1 DUP2 ADD PUSH1 0x40 MSTORE DUP1 SWAP3 SWAP2 SWAP1 DUP2 DUP2 MSTORE PUSH1 0x20 ADD DUP3 DUP1 SLOAD PUSH2 0x75D SWAP1 PUSH2 0x1AB2 JUMP JUMPDEST DUP1 ISZERO PUSH2 0x7AA JUMPI DUP1 PUSH1 0x1F LT PUSH2 0x77F JUMPI PUSH2 0x100 DUP1 DUP4 SLOAD DIV MUL DUP4 MSTORE SWAP2 PUSH1 0x20 ADD SWAP2 PUSH2 0x7AA JUMP JUMPDEST DUP3 ADD SWAP2 SWAP1 PUSH1 0x0 MSTORE PUSH1 0x20 PUSH1 0x0 KECCAK256 SWAP1 JUMPDEST DUP2 SLOAD DUP2 MSTORE SWAP1 PUSH1 0x1 ADD SWAP1 PUSH1 0x20 ADD DUP1 DUP4 GT PUSH2 0x78D JUMPI DUP3 SWAP1 SUB PUSH1 0x1F AND DUP3 ADD SWAP2 JUMPDEST POP POP POP POP POP DUP2 MSTORE PUSH1 0x20 ADD PUSH1 0x5 DUP3 ADD DUP1 SLOAD PUSH2 0x7C3 SWAP1 PUSH2 0x1AB2 JUMP JUMPDEST DUP1 PUSH1 0x1F ADD PUSH1 0x20 DUP1 SWAP2 DIV MUL PUSH1 0x20 ADD PUSH1 0x40 MLOAD SWAP1 DUP2 ADD PUSH1 0x40 MSTORE DUP1 SWAP3 SWAP2 SWAP1 DUP2 DUP2 MSTORE PUSH1 0x20 ADD DUP3 DUP1 SLOAD PUSH2 0x7EF SWAP1 PUSH2 0x1AB2 JUMP JUMPDEST DUP1 ISZERO PUSH2 0x83C JUMPI DUP1 PUSH1 0x1F LT PUSH2 0x811 JUMPI PUSH2 0x100 DUP1 DUP4 SLOAD DIV MUL DUP4 MSTORE SWAP2 PUSH1 0x20 ADD SWAP2 PUSH2 0x83C JUMP JUMPDEST DUP3 ADD SWAP2 SWAP1 PUSH1 0x0 MSTORE PUSH1 0x20 PUSH1 0x0 KECCAK256 SWAP1 JUMPDEST DUP2 SLOAD DUP2 MSTORE SWAP1 PUSH1 0x1 ADD SWAP1 PUSH1 0x20 ADD DUP1 DUP4 GT PUSH2 0x81F JUMPI DUP3 SWAP1 SUB PUSH1 0x1F AND DUP3 ADD SWAP2 JUMPDEST POP POP POP POP POP DUP2 MSTORE PUSH1 0x20 ADD PUSH1 0x6 DUP3 ADD PUSH1 0x0 SWAP1 SLOAD SWAP1 PUSH2 0x100 EXP SWAP1 DIV PUSH1 0xFF AND PUSH1 0xFF AND PUSH1 0xFF AND DUP2 MSTORE PUSH1 0x20 ADD PUSH1 0x6 DUP3 ADD PUSH1 0x1 SWAP1 SLOAD SWAP1 PUSH2 0x100 EXP SWAP1 DIV PUSH1 0xFF AND PUSH1 0xFF AND PUSH1 0xFF AND DUP2 MSTORE POP POP SWAP1 POP SWAP2 SWAP1 POP JUMP JUMPDEST PUSH1 0x1 PUSH1 0x40 MLOAD DUP1 PUSH2 0x100 ADD PUSH1 0x40 MSTORE DUP1 DUP11 DUP2 MSTORE PUSH1 0x20 ADD DUP10 DUP2 MSTORE PUSH1 0x20 ADD DUP9 DUP2 MSTORE PUSH1 0x20 ADD DUP8 DUP2 MSTORE PUSH1 0x20 ADD DUP7 DUP2 MSTORE PUSH1 0x20 ADD DUP6 DUP2 MSTORE PUSH1 0x20 ADD DUP5 PUSH1 0xFF AND DUP2 MSTORE PUSH1 0x20 ADD DUP4 PUSH1 0xFF AND DUP2 MSTORE POP SWAP1 DUP1 PUSH1 0x1 DUP2 SLOAD ADD DUP1 DUP3 SSTORE DUP1 SWAP2 POP POP PUSH1 0x1 SWAP1 SUB SWAP1 PUSH1 0x0 MSTORE PUSH1 0x20 PUSH1 0x0 KECCAK256 SWAP1 PUSH1 0x7 MUL ADD PUSH1 0x0 SWAP1 SWAP2 SWAP1 SWAP2 SWAP1 SWAP2 POP PUSH1 0x0 DUP3 ADD MLOAD DUP2 PUSH1 0x0 ADD SWAP1 DUP1 MLOAD SWAP1 PUSH1 0x20 ADD SWAP1 PUSH2 0x90D SWAP3 SWAP2 SWAP1 PUSH2 0x112B JUMP JUMPDEST POP PUSH1 0x20 DUP3 ADD MLOAD DUP2 PUSH1 0x1 ADD SWAP1 DUP1 MLOAD SWAP1 PUSH1 0x20 ADD SWAP1 PUSH2 0x92A SWAP3 SWAP2 SWAP1 PUSH2 0x112B JUMP JUMPDEST POP PUSH1 0x40 DUP3 ADD MLOAD DUP2 PUSH1 0x2 ADD SWAP1 DUP1 MLOAD SWAP1 PUSH1 0x20 ADD SWAP1 PUSH2 0x947 SWAP3 SWAP2 SWAP1 PUSH2 0x112B JUMP JUMPDEST POP PUSH1 0x60 DUP3 ADD MLOAD DUP2 PUSH1 0x3 ADD SWAP1 DUP1 MLOAD SWAP1 PUSH1 0x20 ADD SWAP1 PUSH2 0x964 SWAP3 SWAP2 SWAP1 PUSH2 0x112B JUMP JUMPDEST POP PUSH1 0x80 DUP3 ADD MLOAD DUP2 PUSH1 0x4 ADD SWAP1 DUP1 MLOAD SWAP1 PUSH1 0x20 ADD SWAP1 PUSH2 0x981 SWAP3 SWAP2 SWAP1 PUSH2 0x112B JUMP JUMPDEST POP PUSH1 0xA0 DUP3 ADD MLOAD DUP2 PUSH1 0x5 ADD SWAP1 DUP1 MLOAD SWAP1 PUSH1 0x20 ADD SWAP1 PUSH2 0x99E SWAP3 SWAP2 SWAP1 PUSH2 0x112B JUMP JUMPDEST POP PUSH1 0xC0 DUP3 ADD MLOAD DUP2 PUSH1 0x6 ADD PUSH1 0x0 PUSH2 0x100 EXP DUP2 SLOAD DUP2 PUSH1 0xFF MUL NOT AND SWAP1 DUP4 PUSH1 0xFF AND MUL OR SWAP1 SSTORE POP PUSH1 0xE0 DUP3 ADD MLOAD DUP2 PUSH1 0x6 ADD PUSH1 0x1 PUSH2 0x100 EXP DUP2 SLOAD DUP2 PUSH1 0xFF MUL NOT AND SWAP1 DUP4 PUSH1 0xFF AND MUL OR SWAP1 SSTORE POP POP POP PUSH1 0x0 PUSH1 0x1 DUP1 DUP1 SLOAD SWAP1 POP PUSH2 0x9F6 SWAP2 SWAP1 PUSH2 0x1B12 JUMP JUMPDEST SWAP1 POP CALLER PUSH1 0x3 PUSH1 0x0 DUP4 DUP2 MSTORE PUSH1 0x20 ADD SWAP1 DUP2 MSTORE PUSH1 0x20 ADD PUSH1 0x0 KECCAK256 PUSH1 0x0 PUSH2 0x100 EXP DUP2 SLOAD DUP2 PUSH20 0xFFFFFFFFFFFFFFFFFFFFFFFFFFFFFFFFFFFFFFFF MUL NOT AND SWAP1 DUP4 PUSH20 0xFFFFFFFFFFFFFFFFFFFFFFFFFFFFFFFFFFFFFFFF AND MUL OR SWAP1 SSTORE POP PUSH1 0x1 PUSH1 0x2 PUSH1 0x0 DUP4 DUP2 MSTORE PUSH1 0x20 ADD SWAP1 DUP2 MSTORE PUSH1 0x20 ADD PUSH1 0x0 KECCAK256 PUSH1 0x0 PUSH2 0x100 EXP DUP2 SLOAD DUP2 PUSH1 0xFF MUL NOT AND SWAP1 DUP4 ISZERO ISZERO MUL OR SWAP1 SSTORE POP PUSH32 0x545DCA5D847B655A9F03CDF5619F53F0B2546051FD0D015B18C09AE2A8B1A765 DUP10 DUP5 PUSH1 0x40 MLOAD PUSH2 0xAA7 SWAP3 SWAP2 SWAP1 PUSH2 0x1B55 JUMP JUMPDEST PUSH1 0x40 MLOAD DUP1 SWAP2 SUB SWAP1 LOG1 POP POP POP POP POP POP POP POP POP JUMP JUMPDEST PUSH2 0xAC2 PUSH2 0xBB1 JUMP JUMPDEST PUSH20 0xFFFFFFFFFFFFFFFFFFFFFFFFFFFFFFFFFFFFFFFF AND PUSH2 0xAE0 PUSH2 0x41D JUMP JUMPDEST PUSH20 0xFFFFFFFFFFFFFFFFFFFFFFFFFFFFFFFFFFFFFFFF AND EQ PUSH2 0xB36 JUMPI PUSH1 0x40 MLOAD PUSH32 0x8C379A000000000000000000000000000000000000000000000000000000000 DUP2 MSTORE PUSH1 0x4 ADD PUSH2 0xB2D SWAP1 PUSH2 0x1979 JUMP JUMPDEST PUSH1 0x40 MLOAD DUP1 SWAP2 SUB SWAP1 REVERT JUMPDEST PUSH1 0x0 PUSH20 0xFFFFFFFFFFFFFFFFFFFFFFFFFFFFFFFFFFFFFFFF AND DUP2 PUSH20 0xFFFFFFFFFFFFFFFFFFFFFFFFFFFFFFFFFFFFFFFF AND SUB PUSH2 0xBA5 JUMPI PUSH1 0x40 MLOAD PUSH32 0x8C379A000000000000000000000000000000000000000000000000000000000 DUP2 MSTORE PUSH1 0x4 ADD PUSH2 0xB9C SWAP1 PUSH2 0x1BF7 JUMP JUMPDEST PUSH1 0x40 MLOAD DUP1 SWAP2 SUB SWAP1 REVERT JUMPDEST PUSH2 0xBAE DUP2 PUSH2 0xBB9 JUMP JUMPDEST POP JUMP JUMPDEST PUSH1 0x0 CALLER SWAP1 POP SWAP1 JUMP JUMPDEST PUSH1 0x0 DUP1 PUSH1 0x0 SWAP1 SLOAD SWAP1 PUSH2 0x100 EXP SWAP1 DIV PUSH20 0xFFFFFFFFFFFFFFFFFFFFFFFFFFFFFFFFFFFFFFFF AND SWAP1 POP DUP2 PUSH1 0x0 DUP1 PUSH2 0x100 EXP DUP2 SLOAD DUP2 PUSH20 0xFFFFFFFFFFFFFFFFFFFFFFFFFFFFFFFFFFFFFFFF MUL NOT AND SWAP1 DUP4 PUSH20 0xFFFFFFFFFFFFFFFFFFFFFFFFFFFFFFFFFFFFFFFF AND MUL OR SWAP1 SSTORE POP DUP2 PUSH20 0xFFFFFFFFFFFFFFFFFFFFFFFFFFFFFFFFFFFFFFFF AND DUP2 PUSH20 0xFFFFFFFFFFFFFFFFFFFFFFFFFFFFFFFFFFFFFFFF AND PUSH32 0x8BE0079C531659141344CD1FD0A4F28419497F9722A3DAAFE3B4186F6B6457E0 PUSH1 0x40 MLOAD PUSH1 0x40 MLOAD DUP1 SWAP2 SUB SWAP1 LOG3 POP POP JUMP JUMPDEST PUSH2 0xC85 PUSH2 0x10AA JUMP JUMPDEST PUSH1 0x0 PUSH1 0x1 DUP4 DUP2 SLOAD DUP2 LT PUSH2 0xC9B JUMPI PUSH2 0xC9A PUSH2 0x1A54 JUMP JUMPDEST JUMPDEST SWAP1 PUSH1 0x0 MSTORE PUSH1 0x20 PUSH1 0x0 KECCAK256 SWAP1 PUSH1 0x7 MUL ADD PUSH1 0x40 MLOAD DUP1 PUSH2 0x100 ADD PUSH1 0x40 MSTORE SWAP1 DUP2 PUSH1 0x0 DUP3 ADD DUP1 SLOAD PUSH2 0xCC5 SWAP1 PUSH2 0x1AB2 JUMP JUMPDEST DUP1 PUSH1 0x1F ADD PUSH1 0x20 DUP1 SWAP2 DIV MUL PUSH1 0x20 ADD PUSH1 0x40 MLOAD SWAP1 DUP2 ADD PUSH1 0x40 MSTORE DUP1 SWAP3 SWAP2 SWAP1 DUP2 DUP2 MSTORE PUSH1 0x20 ADD DUP3 DUP1 SLOAD PUSH2 0xCF1 SWAP1 PUSH2 0x1AB2 JUMP JUMPDEST DUP1 ISZERO PUSH2 0xD3E JUMPI DUP1 PUSH1 0x1F LT PUSH2 0xD13 JUMPI PUSH2 0x100 DUP1 DUP4 SLOAD DIV MUL DUP4 MSTORE SWAP2 PUSH1 0x20 ADD SWAP2 PUSH2 0xD3E JUMP JUMPDEST DUP3 ADD SWAP2 SWAP1 PUSH1 0x0 MSTORE PUSH1 0x20 PUSH1 0x0 KECCAK256 SWAP1 JUMPDEST DUP2 SLOAD DUP2 MSTORE SWAP1 PUSH1 0x1 ADD SWAP1 PUSH1 0x20 ADD DUP1 DUP4 GT PUSH2 0xD21 JUMPI DUP3 SWAP1 SUB PUSH1 0x1F AND DUP3 ADD SWAP2 JUMPDEST POP POP POP POP POP DUP2 MSTORE PUSH1 0x20 ADD PUSH1 0x1 DUP3 ADD DUP1 SLOAD PUSH2 0xD57 SWAP1 PUSH2 0x1AB2 JUMP JUMPDEST DUP1 PUSH1 0x1F ADD PUSH1 0x20 DUP1 SWAP2 DIV MUL PUSH1 0x20 ADD PUSH1 0x40 MLOAD SWAP1 DUP2 ADD PUSH1 0x40 MSTORE DUP1 SWAP3 SWAP2 SWAP1 DUP2 DUP2 MSTORE PUSH1 0x20 ADD DUP3 DUP1 SLOAD PUSH2 0xD83 SWAP1 PUSH2 0x1AB2 JUMP JUMPDEST DUP1 ISZERO PUSH2 0xDD0 JUMPI DUP1 PUSH1 0x1F LT PUSH2 0xDA5 JUMPI PUSH2 0x100 DUP1 DUP4 SLOAD DIV MUL DUP4 MSTORE SWAP2 PUSH1 0x20 ADD SWAP2 PUSH2 0xDD0 JUMP JUMPDEST DUP3 ADD SWAP2 SWAP1 PUSH1 0x0 MSTORE PUSH1 0x20 PUSH1 0x0 KECCAK256 SWAP1 JUMPDEST DUP2 SLOAD DUP2 MSTORE SWAP1 PUSH1 0x1 ADD SWAP1 PUSH1 0x20 ADD DUP1 DUP4 GT PUSH2 0xDB3 JUMPI DUP3 SWAP1 SUB PUSH1 0x1F AND DUP3 ADD SWAP2 JUMPDEST POP POP POP POP POP DUP2 MSTORE PUSH1 0x20 ADD PUSH1 0x2 DUP3 ADD DUP1 SLOAD PUSH2 0xDE9 SWAP1 PUSH2 0x1AB2 JUMP JUMPDEST DUP1 PUSH1 0x1F ADD PUSH1 0x20 DUP1 SWAP2 DIV MUL PUSH1 0x20 ADD PUSH1 0x40 MLOAD SWAP1 DUP2 ADD PUSH1 0x40 MSTORE DUP1 SWAP3 SWAP2 SWAP1 DUP2 DUP2 MSTORE PUSH1 0x20 ADD DUP3 DUP1 SLOAD PUSH2 0xE15 SWAP1 PUSH2 0x1AB2 JUMP JUMPDEST DUP1 ISZERO PUSH2 0xE62 JUMPI DUP1 PUSH1 0x1F LT PUSH2 0xE37 JUMPI PUSH2 0x100 DUP1 DUP4 SLOAD DIV MUL DUP4 MSTORE SWAP2 PUSH1 0x20 ADD SWAP2 PUSH2 0xE62 JUMP JUMPDEST DUP3 ADD SWAP2 SWAP1 PUSH1 0x0 MSTORE PUSH1 0x20 PUSH1 0x0 KECCAK256 SWAP1 JUMPDEST DUP2 SLOAD DUP2 MSTORE SWAP1 PUSH1 0x1 ADD SWAP1 PUSH1 0x20 ADD DUP1 DUP4 GT PUSH2 0xE45 JUMPI DUP3 SWAP1 SUB PUSH1 0x1F AND DUP3 ADD SWAP2 JUMPDEST POP POP POP POP POP DUP2 MSTORE PUSH1 0x20 ADD PUSH1 0x3 DUP3 ADD DUP1 SLOAD PUSH2 0xE7B SWAP1 PUSH2 0x1AB2 JUMP JUMPDEST DUP1 PUSH1 0x1F ADD PUSH1 0x20 DUP1 SWAP2 DIV MUL PUSH1 0x20 ADD PUSH1 0x40 MLOAD SWAP1 DUP2 ADD PUSH1 0x40 MSTORE DUP1 SWAP3 SWAP2 SWAP1 DUP2 DUP2 MSTORE PUSH1 0x20 ADD DUP3 DUP1 SLOAD PUSH2 0xEA7 SWAP1 PUSH2 0x1AB2 JUMP JUMPDEST DUP1 ISZERO PUSH2 0xEF4 JUMPI DUP1 PUSH1 0x1F LT PUSH2 0xEC9 JUMPI PUSH2 0x100 DUP1 DUP4 SLOAD DIV MUL DUP4 MSTORE SWAP2 PUSH1 0x20 ADD SWAP2 PUSH2 0xEF4 JUMP JUMPDEST DUP3 ADD SWAP2 SWAP1 PUSH1 0x0 MSTORE PUSH1 0x20 PUSH1 0x0 KECCAK256 SWAP1 JUMPDEST DUP2 SLOAD DUP2 MSTORE SWAP1 PUSH1 0x1 ADD SWAP1 PUSH1 0x20 ADD DUP1 DUP4 GT PUSH2 0xED7 JUMPI DUP3 SWAP1 SUB PUSH1 0x1F AND DUP3 ADD SWAP2 JUMPDEST POP POP POP POP POP DUP2 MSTORE PUSH1 0x20 ADD PUSH1 0x4 DUP3 ADD DUP1 SLOAD PUSH2 0xF0D SWAP1 PUSH2 0x1AB2 JUMP JUMPDEST DUP1 PUSH1 0x1F ADD PUSH1 0x20 DUP1 SWAP2 DIV MUL PUSH1 0x20 ADD PUSH1 0x40 MLOAD SWAP1 DUP2 ADD PUSH1 0x40 MSTORE DUP1 SWAP3 SWAP2 SWAP1 DUP2 DUP2 MSTORE PUSH1 0x20 ADD DUP3 DUP1 SLOAD PUSH2 0xF39 SWAP1 PUSH2 0x1AB2 JUMP JUMPDEST DUP1 ISZERO PUSH2 0xF86 JUMPI DUP1 PUSH1 0x1F LT PUSH2 0xF5B JUMPI PUSH2 0x100 DUP1 DUP4 SLOAD DIV MUL DUP4 MSTORE SWAP2 PUSH1 0x20 ADD SWAP2 PUSH2 0xF86 JUMP JUMPDEST DUP3 ADD SWAP2 SWAP1 PUSH1 0x0 MSTORE PUSH1 0x20 PUSH1 0x0 KECCAK256 SWAP1 JUMPDEST DUP2 SLOAD DUP2 MSTORE SWAP1 PUSH1 0x1 ADD SWAP1 PUSH1 0x20 ADD DUP1 DUP4 GT PUSH2 0xF69 JUMPI DUP3 SWAP1 SUB PUSH1 0x1F AND DUP3 ADD SWAP2 JUMPDEST POP POP POP POP POP DUP2 MSTORE PUSH1 0x20 ADD PUSH1 0x5 DUP3 ADD DUP1 SLOAD PUSH2 0xF9F SWAP1 PUSH2 0x1AB2 JUMP JUMPDEST DUP1 PUSH1 0x1F ADD PUSH1 0x20 DUP1 SWAP2 DIV MUL PUSH1 0x20 ADD PUSH1 0x40 MLOAD SWAP1 DUP2 ADD PUSH1 0x40 MSTORE DUP1 SWAP3 SWAP2 SWAP1 DUP2 DUP2 MSTORE PUSH1 0x20 ADD DUP3 DUP1 SLOAD PUSH2 0xFCB SWAP1 PUSH2 0x1AB2 JUMP JUMPDEST DUP1 ISZERO PUSH2 0x1018 JUMPI DUP1 PUSH1 0x1F LT PUSH2 0xFED JUMPI PUSH2 0x100 DUP1 DUP4 SLOAD DIV MUL DUP4 MSTORE SWAP2 PUSH1 0x20 ADD SWAP2 PUSH2 0x1018 JUMP JUMPDEST DUP3 ADD SWAP2 SWAP1 PUSH1 0x0 MSTORE PUSH1 0x20 PUSH1 0x0 KECCAK256 SWAP1 JUMPDEST DUP2 SLOAD DUP2 MSTORE SWAP1 PUSH1 0x1 ADD SWAP1 PUSH1 0x20 ADD DUP1 DUP4 GT PUSH2 0xFFB JUMPI DUP3 SWAP1 SUB PUSH1 0x1F AND DUP3 ADD SWAP2 JUMPDEST POP POP POP POP POP DUP2 MSTORE PUSH1 0x20 ADD PUSH1 0x6 DUP3 ADD PUSH1 0x0 SWAP1 SLOAD SWAP1 PUSH2 0x100 EXP SWAP1 DIV PUSH1 0xFF AND PUSH1 0xFF AND PUSH1 0xFF AND DUP2 MSTORE PUSH1 0x20 ADD PUSH1 0x6 DUP3 ADD PUSH1 0x1 SWAP1 SLOAD SWAP1 PUSH2 0x100 EXP SWAP1 DIV PUSH1 0xFF AND PUSH1 0xFF AND PUSH1 0xFF AND DUP2 MSTORE POP POP SWAP1 POP PUSH1 0x40 MLOAD DUP1 PUSH1 0xC0 ADD PUSH1 0x40 MSTORE DUP1 DUP3 PUSH1 0x0 ADD MLOAD DUP2 MSTORE PUSH1 0x20 ADD DUP3 PUSH1 0x20 ADD MLOAD DUP2 MSTORE PUSH1 0x20 ADD DUP3 PUSH1 0x40 ADD MLOAD DUP2 MSTORE PUSH1 0x20 ADD DUP3 PUSH1 0x60 ADD MLOAD DUP2 MSTORE PUSH1 0x20 ADD DUP3 PUSH1 0x80 ADD MLOAD DUP2 MSTORE PUSH1 0x20 ADD DUP3 PUSH1 0xA0 ADD MLOAD DUP2 MSTORE POP SWAP2 POP POP SWAP2 SWAP1 POP JUMP JUMPDEST PUSH1 0x40 MLOAD DUP1 PUSH1 0xC0 ADD PUSH1 0x40 MSTORE DUP1 PUSH1 0x60 DUP2 MSTORE PUSH1 0x20 ADD PUSH1 0x60 DUP2 MSTORE PUSH1 0x20 ADD PUSH1 0x60 DUP2 MSTORE PUSH1 0x20 ADD PUSH1 0x60 DUP2 MSTORE PUSH1 0x20 ADD PUSH1 0x60 DUP2 MSTORE PUSH1 0x20 ADD PUSH1 0x60 DUP2 MSTORE POP SWAP1 JUMP JUMPDEST PUSH1 0x40 MLOAD DUP1 PUSH2 0x100 ADD PUSH1 0x40 MSTORE DUP1 PUSH1 0x60 DUP2 MSTORE PUSH1 0x20 ADD PUSH1 0x60 DUP2 MSTORE PUSH1 0x20 ADD PUSH1 0x60 DUP2 MSTORE PUSH1 0x20 ADD PUSH1 0x60 DUP2 MSTORE PUSH1 0x20 ADD PUSH1 0x60 DUP2 MSTORE PUSH1 0x20 ADD PUSH1 0x60 DUP2 MSTORE PUSH1 0x20 ADD PUSH1 0x0 PUSH1 0xFF AND DUP2 MSTORE PUSH1 0x20 ADD PUSH1 0x0 PUSH1 0xFF AND DUP2 MSTORE POP SWAP1 JUMP JUMPDEST DUP3 DUP1 SLOAD PUSH2 0x1137 SWAP1 PUSH2 0x1AB2 JUMP JUMPDEST SWAP1 PUSH1 0x0 MSTORE PUSH1 0x20 PUSH1 0x0 KECCAK256 SWAP1 PUSH1 0x1F ADD PUSH1 0x20 SWAP1 DIV DUP2 ADD SWAP3 DUP3 PUSH2 0x1159 JUMPI PUSH1 0x0 DUP6 SSTORE PUSH2 0x11A0 JUMP JUMPDEST DUP3 PUSH1 0x1F LT PUSH2 0x1172 JUMPI DUP1 MLOAD PUSH1 0xFF NOT AND DUP4 DUP1 ADD OR DUP6 SSTORE PUSH2 0x11A0 JUMP JUMPDEST DUP3 DUP1 ADD PUSH1 0x1 ADD DUP6 SSTORE DUP3 ISZERO PUSH2 0x11A0 JUMPI SWAP2 DUP3 ADD JUMPDEST DUP3 DUP2 GT ISZERO PUSH2 0x119F JUMPI DUP3 MLOAD DUP3 SSTORE SWAP2 PUSH1 0x20 ADD SWAP2 SWAP1 PUSH1 0x1 ADD SWAP1 PUSH2 0x1184 JUMP JUMPDEST JUMPDEST POP SWAP1 POP PUSH2 0x11AD SWAP2 SWAP1 PUSH2 0x11B1 JUMP JUMPDEST POP SWAP1 JUMP JUMPDEST JUMPDEST DUP1 DUP3 GT ISZERO PUSH2 0x11CA JUMPI PUSH1 0x0 DUP2 PUSH1 0x0 SWAP1 SSTORE POP PUSH1 0x1 ADD PUSH2 0x11B2 JUMP JUMPDEST POP SWAP1 JUMP JUMPDEST PUSH1 0x0 PUSH1 0x40 MLOAD SWAP1 POP SWAP1 JUMP JUMPDEST PUSH1 0x0 DUP1 REVERT JUMPDEST PUSH1 0x0 DUP1 REVERT JUMPDEST PUSH1 0x0 DUP2 SWAP1 POP SWAP2 SWAP1 POP JUMP JUMPDEST PUSH2 0x11F5 DUP2 PUSH2 0x11E2 JUMP JUMPDEST DUP2 EQ PUSH2 0x1200 JUMPI PUSH1 0x0 DUP1 REVERT JUMPDEST POP JUMP JUMPDEST PUSH1 0x0 DUP2 CALLDATALOAD SWAP1 POP PUSH2 0x1212 DUP2 PUSH2 0x11EC JUMP JUMPDEST SWAP3 SWAP2 POP POP JUMP JUMPDEST PUSH1 0x0 DUP2 ISZERO ISZERO SWAP1 POP SWAP2 SWAP1 POP JUMP JUMPDEST PUSH2 0x122D DUP2 PUSH2 0x1218 JUMP JUMPDEST DUP2 EQ PUSH2 0x1238 JUMPI PUSH1 0x0 DUP1 REVERT JUMPDEST POP JUMP JUMPDEST PUSH1 0x0 DUP2 CALLDATALOAD SWAP1 POP PUSH2 0x124A DUP2 PUSH2 0x1224 JUMP JUMPDEST SWAP3 SWAP2 POP POP JUMP JUMPDEST PUSH1 0x0 DUP1 PUSH1 0x40 DUP4 DUP6 SUB SLT ISZERO PUSH2 0x1267 JUMPI PUSH2 0x1266 PUSH2 0x11D8 JUMP JUMPDEST JUMPDEST PUSH1 0x0 PUSH2 0x1275 DUP6 DUP3 DUP7 ADD PUSH2 0x1203 JUMP JUMPDEST SWAP3 POP POP PUSH1 0x20 PUSH2 0x1286 DUP6 DUP3 DUP7 ADD PUSH2 0x123B JUMP JUMPDEST SWAP2 POP POP SWAP3 POP SWAP3 SWAP1 POP JUMP JUMPDEST PUSH1 0x0 PUSH1 0x20 DUP3 DUP5 SUB SLT ISZERO PUSH2 0x12A6 JUMPI PUSH2 0x12A5 PUSH2 0x11D8 JUMP JUMPDEST JUMPDEST PUSH1 0x0 PUSH2 0x12B4 DUP5 DUP3 DUP6 ADD PUSH2 0x1203 JUMP JUMPDEST SWAP2 POP POP SWAP3 SWAP2 POP POP JUMP JUMPDEST PUSH1 0x0 PUSH20 0xFFFFFFFFFFFFFFFFFFFFFFFFFFFFFFFFFFFFFFFF DUP3 AND SWAP1 POP SWAP2 SWAP1 POP JUMP JUMPDEST PUSH1 0x0 PUSH2 0x12E8 DUP3 PUSH2 0x12BD JUMP JUMPDEST SWAP1 POP SWAP2 SWAP1 POP JUMP JUMPDEST PUSH2 0x12F8 DUP2 PUSH2 0x12DD JUMP JUMPDEST DUP3 MSTORE POP POP JUMP JUMPDEST PUSH1 0x0 PUSH1 0x20 DUP3 ADD SWAP1 POP PUSH2 0x1313 PUSH1 0x0 DUP4 ADD DUP5 PUSH2 0x12EF JUMP JUMPDEST SWAP3 SWAP2 POP POP JUMP JUMPDEST PUSH2 0x1322 DUP2 PUSH2 0x1218 JUMP JUMPDEST DUP3 MSTORE POP POP JUMP JUMPDEST PUSH1 0x0 PUSH1 0x20 DUP3 ADD SWAP1 POP PUSH2 0x133D PUSH1 0x0 DUP4 ADD DUP5 PUSH2 0x1319 JUMP JUMPDEST SWAP3 SWAP2 POP POP JUMP JUMPDEST PUSH1 0x0 DUP1 REVERT JUMPDEST PUSH1 0x0 DUP1 REVERT JUMPDEST PUSH1 0x0 PUSH1 0x1F NOT PUSH1 0x1F DUP4 ADD AND SWAP1 POP SWAP2 SWAP1 POP JUMP JUMPDEST PUSH32 0x4E487B7100000000000000000000000000000000000000000000000000000000 PUSH1 0x0 MSTORE PUSH1 0x41 PUSH1 0x4 MSTORE PUSH1 0x24 PUSH1 0x0 REVERT JUMPDEST PUSH2 0x1396 DUP3 PUSH2 0x134D JUMP JUMPDEST DUP2 ADD DUP2 DUP2 LT PUSH8 0xFFFFFFFFFFFFFFFF DUP3 GT OR ISZERO PUSH2 0x13B5 JUMPI PUSH2 0x13B4 PUSH2 0x135E JUMP JUMPDEST JUMPDEST DUP1 PUSH1 0x40 MSTORE POP POP POP JUMP JUMPDEST PUSH1 0x0 PUSH2 0x13C8 PUSH2 0x11CE JUMP JUMPDEST SWAP1 POP PUSH2 0x13D4 DUP3 DUP3 PUSH2 0x138D JUMP JUMPDEST SWAP2 SWAP1 POP JUMP JUMPDEST PUSH1 0x0 PUSH8 0xFFFFFFFFFFFFFFFF DUP3 GT ISZERO PUSH2 0x13F4 JUMPI PUSH2 0x13F3 PUSH2 0x135E JUMP JUMPDEST JUMPDEST PUSH2 0x13FD DUP3 PUSH2 0x134D JUMP JUMPDEST SWAP1 POP PUSH1 0x20 DUP2 ADD SWAP1 POP SWAP2 SWAP1 POP JUMP JUMPDEST DUP3 DUP2 DUP4 CALLDATACOPY PUSH1 0x0 DUP4 DUP4 ADD MSTORE POP POP POP JUMP JUMPDEST PUSH1 0x0 PUSH2 0x142C PUSH2 0x1427 DUP5 PUSH2 0x13D9 JUMP JUMPDEST PUSH2 0x13BE JUMP JUMPDEST SWAP1 POP DUP3 DUP2 MSTORE PUSH1 0x20 DUP2 ADD DUP5 DUP5 DUP5 ADD GT ISZERO PUSH2 0x1448 JUMPI PUSH2 0x1447 PUSH2 0x1348 JUMP JUMPDEST JUMPDEST PUSH2 0x1453 DUP5 DUP3 DUP6 PUSH2 0x140A JUMP JUMPDEST POP SWAP4 SWAP3 POP POP POP JUMP JUMPDEST PUSH1 0x0 DUP3 PUSH1 0x1F DUP4 ADD SLT PUSH2 0x1470 JUMPI PUSH2 0x146F PUSH2 0x1343 JUMP JUMPDEST JUMPDEST DUP2 CALLDATALOAD PUSH2 0x1480 DUP5 DUP3 PUSH1 0x20 DUP7 ADD PUSH2 0x1419 JUMP JUMPDEST SWAP2 POP POP SWAP3 SWAP2 POP POP JUMP JUMPDEST PUSH1 0x0 PUSH1 0x20 DUP3 DUP5 SUB SLT ISZERO PUSH2 0x149F JUMPI PUSH2 0x149E PUSH2 0x11D8 JUMP JUMPDEST JUMPDEST PUSH1 0x0 DUP3 ADD CALLDATALOAD PUSH8 0xFFFFFFFFFFFFFFFF DUP2 GT ISZERO PUSH2 0x14BD JUMPI PUSH2 0x14BC PUSH2 0x11DD JUMP JUMPDEST JUMPDEST PUSH2 0x14C9 DUP5 DUP3 DUP6 ADD PUSH2 0x145B JUMP JUMPDEST SWAP2 POP POP SWAP3 SWAP2 POP POP JUMP JUMPDEST PUSH1 0x0 DUP2 MLOAD SWAP1 POP SWAP2 SWAP1 POP JUMP JUMPDEST PUSH1 0x0 DUP3 DUP3 MSTORE PUSH1 0x20 DUP3 ADD SWAP1 POP SWAP3 SWAP2 POP POP JUMP JUMPDEST PUSH1 0x0 JUMPDEST DUP4 DUP2 LT ISZERO PUSH2 0x150C JUMPI DUP1 DUP3 ADD MLOAD DUP2 DUP5 ADD MSTORE PUSH1 0x20 DUP2 ADD SWAP1 POP PUSH2 0x14F1 JUMP JUMPDEST DUP4 DUP2 GT ISZERO PUSH2 0x151B JUMPI PUSH1 0x0 DUP5 DUP5 ADD MSTORE JUMPDEST POP POP POP POP JUMP JUMPDEST PUSH1 0x0 PUSH2 0x152C DUP3 PUSH2 0x14D2 JUMP JUMPDEST PUSH2 0x1536 DUP2 DUP6 PUSH2 0x14DD JUMP JUMPDEST SWAP4 POP PUSH2 0x1546 DUP2 DUP6 PUSH1 0x20 DUP7 ADD PUSH2 0x14EE JUMP JUMPDEST PUSH2 0x154F DUP2 PUSH2 0x134D JUMP JUMPDEST DUP5 ADD SWAP2 POP POP SWAP3 SWAP2 POP POP JUMP JUMPDEST PUSH1 0x0 PUSH1 0xC0 DUP4 ADD PUSH1 0x0 DUP4 ADD MLOAD DUP5 DUP3 SUB PUSH1 0x0 DUP7 ADD MSTORE PUSH2 0x1577 DUP3 DUP3 PUSH2 0x1521 JUMP JUMPDEST SWAP2 POP POP PUSH1 0x20 DUP4 ADD MLOAD DUP5 DUP3 SUB PUSH1 0x20 DUP7 ADD MSTORE PUSH2 0x1591 DUP3 DUP3 PUSH2 0x1521 JUMP JUMPDEST SWAP2 POP POP PUSH1 0x40 DUP4 ADD MLOAD DUP5 DUP3 SUB PUSH1 0x40 DUP7 ADD MSTORE PUSH2 0x15AB DUP3 DUP3 PUSH2 0x1521 JUMP JUMPDEST SWAP2 POP POP PUSH1 0x60 DUP4 ADD MLOAD DUP5 DUP3 SUB PUSH1 0x60 DUP7 ADD MSTORE PUSH2 0x15C5 DUP3 DUP3 PUSH2 0x1521 JUMP JUMPDEST SWAP2 POP POP PUSH1 0x80 DUP4 ADD MLOAD DUP5 DUP3 SUB PUSH1 0x80 DUP7 ADD MSTORE PUSH2 0x15DF DUP3 DUP3 PUSH2 0x1521 JUMP JUMPDEST SWAP2 POP POP PUSH1 0xA0 DUP4 ADD MLOAD DUP5 DUP3 SUB PUSH1 0xA0 DUP7 ADD MSTORE PUSH2 0x15F9 DUP3 DUP3 PUSH2 0x1521 JUMP JUMPDEST SWAP2 POP POP DUP1 SWAP2 POP POP SWAP3 SWAP2 POP POP JUMP JUMPDEST PUSH1 0x0 PUSH1 0x20 DUP3 ADD SWAP1 POP DUP2 DUP2 SUB PUSH1 0x0 DUP4 ADD MSTORE PUSH2 0x1620 DUP2 DUP5 PUSH2 0x155A JUMP JUMPDEST SWAP1 POP SWAP3 SWAP2 POP POP JUMP JUMPDEST PUSH1 0x0 PUSH1 0xFF DUP3 AND SWAP1 POP SWAP2 SWAP1 POP JUMP JUMPDEST PUSH2 0x163E DUP2 PUSH2 0x1628 JUMP JUMPDEST DUP3 MSTORE POP POP JUMP JUMPDEST PUSH1 0x0 PUSH2 0x100 DUP4 ADD PUSH1 0x0 DUP4 ADD MLOAD DUP5 DUP3 SUB PUSH1 0x0 DUP7 ADD MSTORE PUSH2 0x1662 DUP3 DUP3 PUSH2 0x1521 JUMP JUMPDEST SWAP2 POP POP PUSH1 0x20 DUP4 ADD MLOAD DUP5 DUP3 SUB PUSH1 0x20 DUP7 ADD MSTORE PUSH2 0x167C DUP3 DUP3 PUSH2 0x1521 JUMP JUMPDEST SWAP2 POP POP PUSH1 0x40 DUP4 ADD MLOAD DUP5 DUP3 SUB PUSH1 0x40 DUP7 ADD MSTORE PUSH2 0x1696 DUP3 DUP3 PUSH2 0x1521 JUMP JUMPDEST SWAP2 POP POP PUSH1 0x60 DUP4 ADD MLOAD DUP5 DUP3 SUB PUSH1 0x60 DUP7 ADD MSTORE PUSH2 0x16B0 DUP3 DUP3 PUSH2 0x1521 JUMP JUMPDEST SWAP2 POP POP PUSH1 0x80 DUP4 ADD MLOAD DUP5 DUP3 SUB PUSH1 0x80 DUP7 ADD MSTORE PUSH2 0x16CA DUP3 DUP3 PUSH2 0x1521 JUMP JUMPDEST SWAP2 POP POP PUSH1 0xA0 DUP4 ADD MLOAD DUP5 DUP3 SUB PUSH1 0xA0 DUP7 ADD MSTORE PUSH2 0x16E4 DUP3 DUP3 PUSH2 0x1521 JUMP JUMPDEST SWAP2 POP POP PUSH1 0xC0 DUP4 ADD MLOAD PUSH2 0x16F9 PUSH1 0xC0 DUP7 ADD DUP3 PUSH2 0x1635 JUMP JUMPDEST POP PUSH1 0xE0 DUP4 ADD MLOAD PUSH2 0x170C PUSH1 0xE0 DUP7 ADD DUP3 PUSH2 0x1635 JUMP JUMPDEST POP DUP1 SWAP2 POP POP SWAP3 SWAP2 POP POP JUMP JUMPDEST PUSH1 0x0 PUSH1 0x20 DUP3 ADD SWAP1 POP DUP2 DUP2 SUB PUSH1 0x0 DUP4 ADD MSTORE PUSH2 0x1731 DUP2 DUP5 PUSH2 0x1644 JUMP JUMPDEST SWAP1 POP SWAP3 SWAP2 POP POP JUMP JUMPDEST PUSH2 0x1742 DUP2 PUSH2 0x1628 JUMP JUMPDEST DUP2 EQ PUSH2 0x174D JUMPI PUSH1 0x0 DUP1 REVERT JUMPDEST POP JUMP JUMPDEST PUSH1 0x0 DUP2 CALLDATALOAD SWAP1 POP PUSH2 0x175F DUP2 PUSH2 0x1739 JUMP JUMPDEST SWAP3 SWAP2 POP POP JUMP JUMPDEST PUSH1 0x0 DUP1 PUSH1 0x0 DUP1 PUSH1 0x0 DUP1 PUSH1 0x0 DUP1 PUSH2 0x100 DUP10 DUP12 SUB SLT ISZERO PUSH2 0x1786 JUMPI PUSH2 0x1785 PUSH2 0x11D8 JUMP JUMPDEST JUMPDEST PUSH1 0x0 DUP10 ADD CALLDATALOAD PUSH8 0xFFFFFFFFFFFFFFFF DUP2 GT ISZERO PUSH2 0x17A4 JUMPI PUSH2 0x17A3 PUSH2 0x11DD JUMP JUMPDEST JUMPDEST PUSH2 0x17B0 DUP12 DUP3 DUP13 ADD PUSH2 0x145B JUMP JUMPDEST SWAP9 POP POP PUSH1 0x20 DUP10 ADD CALLDATALOAD PUSH8 0xFFFFFFFFFFFFFFFF DUP2 GT ISZERO PUSH2 0x17D1 JUMPI PUSH2 0x17D0 PUSH2 0x11DD JUMP JUMPDEST JUMPDEST PUSH2 0x17DD DUP12 DUP3 DUP13 ADD PUSH2 0x145B JUMP JUMPDEST SWAP8 POP POP PUSH1 0x40 DUP10 ADD CALLDATALOAD PUSH8 0xFFFFFFFFFFFFFFFF DUP2 GT ISZERO PUSH2 0x17FE JUMPI PUSH2 0x17FD PUSH2 0x11DD JUMP JUMPDEST JUMPDEST PUSH2 0x180A DUP12 DUP3 DUP13 ADD PUSH2 0x145B JUMP JUMPDEST SWAP7 POP POP PUSH1 0x60 DUP10 ADD CALLDATALOAD PUSH8 0xFFFFFFFFFFFFFFFF DUP2 GT ISZERO PUSH2 0x182B JUMPI PUSH2 0x182A PUSH2 0x11DD JUMP JUMPDEST JUMPDEST PUSH2 0x1837 DUP12 DUP3 DUP13 ADD PUSH2 0x145B JUMP JUMPDEST SWAP6 POP POP PUSH1 0x80 DUP10 ADD CALLDATALOAD PUSH8 0xFFFFFFFFFFFFFFFF DUP2 GT ISZERO PUSH2 0x1858 JUMPI PUSH2 0x1857 PUSH2 0x11DD JUMP JUMPDEST JUMPDEST PUSH2 0x1864 DUP12 DUP3 DUP13 ADD PUSH2 0x145B JUMP JUMPDEST SWAP5 POP POP PUSH1 0xA0 DUP10 ADD CALLDATALOAD PUSH8 0xFFFFFFFFFFFFFFFF DUP2 GT ISZERO PUSH2 0x1885 JUMPI PUSH2 0x1884 PUSH2 0x11DD JUMP JUMPDEST JUMPDEST PUSH2 0x1891 DUP12 DUP3 DUP13 ADD PUSH2 0x145B JUMP JUMPDEST SWAP4 POP POP PUSH1 0xC0 PUSH2 0x18A2 DUP12 DUP3 DUP13 ADD PUSH2 0x1750 JUMP JUMPDEST SWAP3 POP POP PUSH1 0xE0 PUSH2 0x18B3 DUP12 DUP3 DUP13 ADD PUSH2 0x1750 JUMP JUMPDEST SWAP2 POP POP SWAP3 SWAP6 SWAP9 POP SWAP3 SWAP6 SWAP9 SWAP1 SWAP4 SWAP7 POP JUMP JUMPDEST PUSH2 0x18CC DUP2 PUSH2 0x12DD JUMP JUMPDEST DUP2 EQ PUSH2 0x18D7 JUMPI PUSH1 0x0 DUP1 REVERT JUMPDEST POP JUMP JUMPDEST PUSH1 0x0 DUP2 CALLDATALOAD SWAP1 POP PUSH2 0x18E9 DUP2 PUSH2 0x18C3 JUMP JUMPDEST SWAP3 SWAP2 POP POP JUMP JUMPDEST PUSH1 0x0 PUSH1 0x20 DUP3 DUP5 SUB SLT ISZERO PUSH2 0x1905 JUMPI PUSH2 0x1904 PUSH2 0x11D8 JUMP JUMPDEST JUMPDEST PUSH1 0x0 PUSH2 0x1913 DUP5 DUP3 DUP6 ADD PUSH2 0x18DA JUMP JUMPDEST SWAP2 POP POP SWAP3 SWAP2 POP POP JUMP JUMPDEST PUSH1 0x0 DUP3 DUP3 MSTORE PUSH1 0x20 DUP3 ADD SWAP1 POP SWAP3 SWAP2 POP POP JUMP JUMPDEST PUSH32 0x4F776E61626C653A2063616C6C6572206973206E6F7420746865206F776E6572 PUSH1 0x0 DUP3 ADD MSTORE POP JUMP JUMPDEST PUSH1 0x0 PUSH2 0x1963 PUSH1 0x20 DUP4 PUSH2 0x191C JUMP JUMPDEST SWAP2 POP PUSH2 0x196E DUP3 PUSH2 0x192D JUMP JUMPDEST PUSH1 0x20 DUP3 ADD SWAP1 POP SWAP2 SWAP1 POP JUMP JUMPDEST PUSH1 0x0 PUSH1 0x20 DUP3 ADD SWAP1 POP DUP2 DUP2 SUB PUSH1 0x0 DUP4 ADD MSTORE PUSH2 0x1992 DUP2 PUSH2 0x1956 JUMP JUMPDEST SWAP1 POP SWAP2 SWAP1 POP JUMP JUMPDEST PUSH1 0x0 PUSH2 0x19A4 DUP3 PUSH2 0x14D2 JUMP JUMPDEST PUSH2 0x19AE DUP2 DUP6 PUSH2 0x191C JUMP JUMPDEST SWAP4 POP PUSH2 0x19BE DUP2 DUP6 PUSH1 0x20 DUP7 ADD PUSH2 0x14EE JUMP JUMPDEST PUSH2 0x19C7 DUP2 PUSH2 0x134D JUMP JUMPDEST DUP5 ADD SWAP2 POP POP SWAP3 SWAP2 POP POP JUMP JUMPDEST PUSH1 0x0 PUSH1 0x20 DUP3 ADD SWAP1 POP DUP2 DUP2 SUB PUSH1 0x0 DUP4 ADD MSTORE PUSH2 0x19EC DUP2 DUP5 PUSH2 0x1999 JUMP JUMPDEST SWAP1 POP SWAP3 SWAP2 POP POP JUMP JUMPDEST PUSH32 0x4E487B7100000000000000000000000000000000000000000000000000000000 PUSH1 0x0 MSTORE PUSH1 0x12 PUSH1 0x4 MSTORE PUSH1 0x24 PUSH1 0x0 REVERT JUMPDEST PUSH1 0x0 PUSH2 0x1A2E DUP3 PUSH2 0x11E2 JUMP JUMPDEST SWAP2 POP PUSH2 0x1A39 DUP4 PUSH2 0x11E2 JUMP JUMPDEST SWAP3 POP DUP3 PUSH2 0x1A49 JUMPI PUSH2 0x1A48 PUSH2 0x19F4 JUMP JUMPDEST JUMPDEST DUP3 DUP3 MOD SWAP1 POP SWAP3 SWAP2 POP POP JUMP JUMPDEST PUSH32 0x4E487B7100000000000000000000000000000000000000000000000000000000 PUSH1 0x0 MSTORE PUSH1 0x32 PUSH1 0x4 MSTORE PUSH1 0x24 PUSH1 0x0 REVERT JUMPDEST PUSH32 0x4E487B7100000000000000000000000000000000000000000000000000000000 PUSH1 0x0 MSTORE PUSH1 0x22 PUSH1 0x4 MSTORE PUSH1 0x24 PUSH1 0x0 REVERT JUMPDEST PUSH1 0x0 PUSH1 0x2 DUP3 DIV SWAP1 POP PUSH1 0x1 DUP3 AND DUP1 PUSH2 0x1ACA JUMPI PUSH1 0x7F DUP3 AND SWAP2 POP JUMPDEST PUSH1 0x20 DUP3 LT DUP2 SUB PUSH2 0x1ADD JUMPI PUSH2 0x1ADC PUSH2 0x1A83 JUMP JUMPDEST JUMPDEST POP SWAP2 SWAP1 POP JUMP JUMPDEST PUSH32 0x4E487B7100000000000000000000000000000000000000000000000000000000 PUSH1 0x0 MSTORE PUSH1 0x11 PUSH1 0x4 MSTORE PUSH1 0x24 PUSH1 0x0 REVERT JUMPDEST PUSH1 0x0 PUSH2 0x1B1D DUP3 PUSH2 0x11E2 JUMP JUMPDEST SWAP2 POP PUSH2 0x1B28 DUP4 PUSH2 0x11E2 JUMP JUMPDEST SWAP3 POP DUP3 DUP3 LT ISZERO PUSH2 0x1B3B JUMPI PUSH2 0x1B3A PUSH2 0x1AE3 JUMP JUMPDEST JUMPDEST DUP3 DUP3 SUB SWAP1 POP SWAP3 SWAP2 POP POP JUMP JUMPDEST PUSH2 0x1B4F DUP2 PUSH2 0x1628 JUMP JUMPDEST DUP3 MSTORE POP POP JUMP JUMPDEST PUSH1 0x0 PUSH1 0x40 DUP3 ADD SWAP1 POP DUP2 DUP2 SUB PUSH1 0x0 DUP4 ADD MSTORE PUSH2 0x1B6F DUP2 DUP6 PUSH2 0x1999 JUMP JUMPDEST SWAP1 POP PUSH2 0x1B7E PUSH1 0x20 DUP4 ADD DUP5 PUSH2 0x1B46 JUMP JUMPDEST SWAP4 SWAP3 POP POP POP JUMP JUMPDEST PUSH32 0x4F776E61626C653A206E6577206F776E657220697320746865207A65726F2061 PUSH1 0x0 DUP3 ADD MSTORE PUSH32 0x6464726573730000000000000000000000000000000000000000000000000000 PUSH1 0x20 DUP3 ADD MSTORE POP JUMP JUMPDEST PUSH1 0x0 PUSH2 0x1BE1 PUSH1 0x26 DUP4 PUSH2 0x191C JUMP JUMPDEST SWAP2 POP PUSH2 0x1BEC DUP3 PUSH2 0x1B85 JUMP JUMPDEST PUSH1 0x40 DUP3 ADD SWAP1 POP SWAP2 SWAP1 POP JUMP JUMPDEST PUSH1 0x0 PUSH1 0x20 DUP3 ADD SWAP1 POP DUP2 DUP2 SUB PUSH1 0x0 DUP4 ADD MSTORE PUSH2 0x1C10 DUP2 PUSH2 0x1BD4 JUMP JUMPDEST SWAP1 POP SWAP2 SWAP1 POP JUMP INVALID LOG2 PUSH5 0x6970667358 0x22 SLT KECCAK256 0xBF PUSH26 0x60743B294BF4AA24B8B50E0CD604F997E3DBB03CAA1DCBC6B907 PUSH10 0x2C56BD64736F6C634300 ADDMOD 0xE STOP CALLER "
				},
				"gasEstimates": {
					"creation": {
						"codeDepositCost": "1449000",
						"executionCost": "infinite",
						"totalCost": "infinite"
					},
					"external": {
						"_createQuiz(string,string,string,string,string,string,uint8,uint8)": "infinite",
						"changeQuizStatus(uint256,bool)": "27171",
						"getQuizForOwner(uint256)": "infinite",
						"getRandomQuizQuestion(string)": "infinite",
						"owner()": "2522",
						"quizIsActive(uint256)": "2863",
						"quizOwner(uint256)": "2884",
						"quizOwnerChangeStatus(uint256,bool)": "27206",
						"renounceOwnership()": "30463",
						"transferOwnership(address)": "30808"
					},
					"internal": {
						"getQuizQuestion(uint256)": "infinite"
					}
				},
				"methodIdentifiers": {
					"_createQuiz(string,string,string,string,string,string,uint8,uint8)": "e013d704",
					"changeQuizStatus(uint256,bool)": "1d3f7559",
					"getQuizForOwner(uint256)": "aecab072",
					"getRandomQuizQuestion(string)": "9302b2b7",
					"owner()": "8da5cb5b",
					"quizIsActive(uint256)": "51a1d40e",
					"quizOwner(uint256)": "400ae0f9",
					"quizOwnerChangeStatus(uint256,bool)": "377def85",
					"renounceOwnership()": "715018a6",
					"transferOwnership(address)": "f2fde38b"
				}
			},
			"storageLayout": {
				"storage": [
					{
						"astId": 178,
						"contract": "contracts/ViewQuiz.sol:ViewQuiz",
						"label": "_owner",
						"offset": 0,
						"slot": "0",
						"type": "t_address"
					},
					{
						"astId": 53,
						"contract": "contracts/ViewQuiz.sol:ViewQuiz",
						"label": "quizzes",
						"offset": 0,
						"slot": "1",
						"type": "t_array(t_struct(Quiz)49_storage)dyn_storage"
					},
					{
						"astId": 57,
						"contract": "contracts/ViewQuiz.sol:ViewQuiz",
						"label": "quizIsActive",
						"offset": 0,
						"slot": "2",
						"type": "t_mapping(t_uint256,t_bool)"
					},
					{
						"astId": 61,
						"contract": "contracts/ViewQuiz.sol:ViewQuiz",
						"label": "quizOwner",
						"offset": 0,
						"slot": "3",
						"type": "t_mapping(t_uint256,t_address)"
					}
				],
				"types": {
					"t_address": {
						"encoding": "inplace",
						"label": "address",
						"numberOfBytes": "20"
					},
					"t_array(t_struct(Quiz)49_storage)dyn_storage": {
						"base": "t_struct(Quiz)49_storage",
						"encoding": "dynamic_array",
						"label": "struct CreateQuiz.Quiz[]",
						"numberOfBytes": "32"
					},
					"t_bool": {
						"encoding": "inplace",
						"label": "bool",
						"numberOfBytes": "1"
					},
					"t_mapping(t_uint256,t_address)": {
						"encoding": "mapping",
						"key": "t_uint256",
						"label": "mapping(uint256 => address)",
						"numberOfBytes": "32",
						"value": "t_address"
					},
					"t_mapping(t_uint256,t_bool)": {
						"encoding": "mapping",
						"key": "t_uint256",
						"label": "mapping(uint256 => bool)",
						"numberOfBytes": "32",
						"value": "t_bool"
					},
					"t_string_storage": {
						"encoding": "bytes",
						"label": "string",
						"numberOfBytes": "32"
					},
					"t_struct(Quiz)49_storage": {
						"encoding": "inplace",
						"label": "struct CreateQuiz.Quiz",
						"members": [
							{
								"astId": 34,
								"contract": "contracts/ViewQuiz.sol:ViewQuiz",
								"label": "question",
								"offset": 0,
								"slot": "0",
								"type": "t_string_storage"
							},
							{
								"astId": 36,
								"contract": "contracts/ViewQuiz.sol:ViewQuiz",
								"label": "choice1",
								"offset": 0,
								"slot": "1",
								"type": "t_string_storage"
							},
							{
								"astId": 38,
								"contract": "contracts/ViewQuiz.sol:ViewQuiz",
								"label": "choice2",
								"offset": 0,
								"slot": "2",
								"type": "t_string_storage"
							},
							{
								"astId": 40,
								"contract": "contracts/ViewQuiz.sol:ViewQuiz",
								"label": "choice3",
								"offset": 0,
								"slot": "3",
								"type": "t_string_storage"
							},
							{
								"astId": 42,
								"contract": "contracts/ViewQuiz.sol:ViewQuiz",
								"label": "choice4",
								"offset": 0,
								"slot": "4",
								"type": "t_string_storage"
							},
							{
								"astId": 44,
								"contract": "contracts/ViewQuiz.sol:ViewQuiz",
								"label": "hint",
								"offset": 0,
								"slot": "5",
								"type": "t_string_storage"
							},
							{
								"astId": 46,
								"contract": "contracts/ViewQuiz.sol:ViewQuiz",
								"label": "answer",
								"offset": 0,
								"slot": "6",
								"type": "t_uint8"
							},
							{
								"astId": 48,
								"contract": "contracts/ViewQuiz.sol:ViewQuiz",
								"label": "languageCode",
								"offset": 1,
								"slot": "6",
								"type": "t_uint8"
							}
						],
						"numberOfBytes": "224"
					},
					"t_uint256": {
						"encoding": "inplace",
						"label": "uint256",
						"numberOfBytes": "32"
					},
					"t_uint8": {
						"encoding": "inplace",
						"label": "uint8",
						"numberOfBytes": "1"
					}
				}
			},
			"userdoc": {
				"kind": "user",
				"methods": {},
				"version": 1
			}
		}
	}
}