{
	"contracts/ViewQuiz.sol": {
		"ViewQuiz": {
			"abi": [
				{
					"anonymous": false,
					"inputs": [
						{
							"components": [
								{
									"internalType": "string",
									"name": "question",
									"type": "string"
								},
								{
									"internalType": "string",
									"name": "choice1",
									"type": "string"
								},
								{
									"internalType": "string",
									"name": "choice2",
									"type": "string"
								},
								{
									"internalType": "string",
									"name": "choice3",
									"type": "string"
								},
								{
									"internalType": "string",
									"name": "choice4",
									"type": "string"
								},
								{
									"internalType": "string",
									"name": "hint",
									"type": "string"
								},
								{
									"internalType": "uint8",
									"name": "languageCode",
									"type": "uint8"
								},
								{
									"internalType": "uint256",
									"name": "reward",
									"type": "uint256"
								},
								{
									"internalType": "uint256",
									"name": "rewardPool",
									"type": "uint256"
								}
							],
							"indexed": false,
							"internalType": "struct CreateQuiz.Quiz",
							"name": "quiz",
							"type": "tuple"
						}
					],
					"name": "GetQuiz",
					"type": "event"
				},
				{
					"anonymous": false,
					"inputs": [
						{
							"indexed": false,
							"internalType": "string",
							"name": "question",
							"type": "string"
						},
						{
							"indexed": false,
							"internalType": "uint8",
							"name": "answer",
							"type": "uint8"
						}
					],
					"name": "NewQuiz",
					"type": "event"
				},
				{
					"anonymous": false,
					"inputs": [
						{
							"indexed": true,
							"internalType": "address",
							"name": "previousOwner",
							"type": "address"
						},
						{
							"indexed": true,
							"internalType": "address",
							"name": "newOwner",
							"type": "address"
						}
					],
					"name": "OwnershipTransferred",
					"type": "event"
				},
				{
					"anonymous": false,
					"inputs": [
						{
							"components": [
								{
									"internalType": "string",
									"name": "question",
									"type": "string"
								},
								{
									"internalType": "string",
									"name": "choice1",
									"type": "string"
								},
								{
									"internalType": "string",
									"name": "choice2",
									"type": "string"
								},
								{
									"internalType": "string",
									"name": "choice3",
									"type": "string"
								},
								{
									"internalType": "string",
									"name": "choice4",
									"type": "string"
								},
								{
									"internalType": "string",
									"name": "hint",
									"type": "string"
								},
								{
									"internalType": "uint8",
									"name": "languageCode",
									"type": "uint8"
								},
								{
									"internalType": "uint256",
									"name": "reward",
									"type": "uint256"
								},
								{
									"internalType": "uint256",
									"name": "rewardPool",
									"type": "uint256"
								}
							],
							"indexed": false,
							"internalType": "struct CreateQuiz.Quiz",
							"name": "quiz",
							"type": "tuple"
						},
						{
							"indexed": false,
							"internalType": "uint8",
							"name": "answer",
							"type": "uint8"
						}
					],
					"name": "QuizOwnerGetQuiz",
					"type": "event"
				},
				{
					"inputs": [
						{
							"internalType": "uint256",
							"name": "_quizId",
							"type": "uint256"
						},
						{
							"internalType": "bool",
							"name": "_quizStatus",
							"type": "bool"
						}
					],
					"name": "changeQuizStatus",
					"outputs": [],
					"stateMutability": "nonpayable",
					"type": "function"
				},
				{
					"inputs": [
						{
							"internalType": "string",
							"name": "_question",
							"type": "string"
						},
						{
							"internalType": "string",
							"name": "_choice1",
							"type": "string"
						},
						{
							"internalType": "string",
							"name": "_choice2",
							"type": "string"
						},
						{
							"internalType": "string",
							"name": "_choice3",
							"type": "string"
						},
						{
							"internalType": "string",
							"name": "_choice4",
							"type": "string"
						},
						{
							"internalType": "string",
							"name": "_hint",
							"type": "string"
						},
						{
							"internalType": "uint8",
							"name": "_answer",
							"type": "uint8"
						},
						{
							"internalType": "uint8",
							"name": "_languageCode",
							"type": "uint8"
						},
						{
							"internalType": "uint256",
							"name": "_reward",
							"type": "uint256"
						},
						{
							"internalType": "uint256",
							"name": "_rewardPool",
							"type": "uint256"
						}
					],
					"name": "createQuiz",
					"outputs": [],
					"stateMutability": "payable",
					"type": "function"
				},
				{
					"inputs": [],
					"name": "getRandomQuiz",
					"outputs": [
						{
							"components": [
								{
									"internalType": "string",
									"name": "question",
									"type": "string"
								},
								{
									"internalType": "string",
									"name": "choice1",
									"type": "string"
								},
								{
									"internalType": "string",
									"name": "choice2",
									"type": "string"
								},
								{
									"internalType": "string",
									"name": "choice3",
									"type": "string"
								},
								{
									"internalType": "string",
									"name": "choice4",
									"type": "string"
								},
								{
									"internalType": "string",
									"name": "hint",
									"type": "string"
								},
								{
									"internalType": "uint8",
									"name": "languageCode",
									"type": "uint8"
								},
								{
									"internalType": "uint256",
									"name": "reward",
									"type": "uint256"
								},
								{
									"internalType": "uint256",
									"name": "rewardPool",
									"type": "uint256"
								}
							],
							"internalType": "struct CreateQuiz.Quiz",
							"name": "",
							"type": "tuple"
						}
					],
					"stateMutability": "view",
					"type": "function"
				},
				{
					"inputs": [],
					"name": "owner",
					"outputs": [
						{
							"internalType": "address",
							"name": "",
							"type": "address"
						}
					],
					"stateMutability": "view",
					"type": "function"
				},
				{
					"inputs": [
						{
							"internalType": "uint256",
							"name": "",
							"type": "uint256"
						}
					],
					"name": "quizIsActive",
					"outputs": [
						{
							"internalType": "bool",
							"name": "",
							"type": "bool"
						}
					],
					"stateMutability": "view",
					"type": "function"
				},
				{
					"inputs": [
						{
							"internalType": "uint256",
							"name": "",
							"type": "uint256"
						}
					],
					"name": "quizOwner",
					"outputs": [
						{
							"internalType": "address",
							"name": "",
							"type": "address"
						}
					],
					"stateMutability": "view",
					"type": "function"
				},
				{
					"inputs": [
						{
							"internalType": "uint256",
							"name": "_quizId",
							"type": "uint256"
						},
						{
							"internalType": "string",
							"name": "_hint",
							"type": "string"
						}
					],
					"name": "quizOwnerChangeHint",
					"outputs": [],
					"stateMutability": "nonpayable",
					"type": "function"
				},
				{
					"inputs": [
						{
							"internalType": "uint256",
							"name": "_quizId",
							"type": "uint256"
						},
						{
							"internalType": "bool",
							"name": "_quizStatus",
							"type": "bool"
						}
					],
					"name": "quizOwnerChangeStatus",
					"outputs": [],
					"stateMutability": "nonpayable",
					"type": "function"
				},
				{
					"inputs": [
						{
							"internalType": "uint256",
							"name": "_quizId",
							"type": "uint256"
						}
					],
					"name": "quizOwnerGetQuiz",
					"outputs": [
						{
							"components": [
								{
									"internalType": "string",
									"name": "question",
									"type": "string"
								},
								{
									"internalType": "string",
									"name": "choice1",
									"type": "string"
								},
								{
									"internalType": "string",
									"name": "choice2",
									"type": "string"
								},
								{
									"internalType": "string",
									"name": "choice3",
									"type": "string"
								},
								{
									"internalType": "string",
									"name": "choice4",
									"type": "string"
								},
								{
									"internalType": "string",
									"name": "hint",
									"type": "string"
								},
								{
									"internalType": "uint8",
									"name": "languageCode",
									"type": "uint8"
								},
								{
									"internalType": "uint256",
									"name": "reward",
									"type": "uint256"
								},
								{
									"internalType": "uint256",
									"name": "rewardPool",
									"type": "uint256"
								}
							],
							"internalType": "struct CreateQuiz.Quiz",
							"name": "",
							"type": "tuple"
						},
						{
							"internalType": "uint8",
							"name": "",
							"type": "uint8"
						}
					],
					"stateMutability": "view",
					"type": "function"
				},
				{
					"inputs": [],
					"name": "renounceOwnership",
					"outputs": [],
					"stateMutability": "nonpayable",
					"type": "function"
				},
				{
					"inputs": [
						{
							"internalType": "address",
							"name": "newOwner",
							"type": "address"
						}
					],
					"name": "transferOwnership",
					"outputs": [],
					"stateMutability": "nonpayable",
					"type": "function"
				}
			],
			"devdoc": {
				"kind": "dev",
				"methods": {
					"owner()": {
						"details": "Returns the address of the current owner."
					},
					"renounceOwnership()": {
						"details": "Leaves the contract without owner. It will not be possible to call `onlyOwner` functions anymore. Can only be called by the current owner. NOTE: Renouncing ownership will leave the contract without an owner, thereby removing any functionality that is only available to the owner."
					},
					"transferOwnership(address)": {
						"details": "Transfers ownership of the contract to a new account (`newOwner`). Can only be called by the current owner."
					}
				},
				"version": 1
			},
			"evm": {
				"assembly": "    /* \"contracts/ViewQuiz.sol\":93:1343  contract ViewQuiz is CreateQuiz {... */\n  mstore(0x40, 0x80)\n  callvalue\n  dup1\n  iszero\n  tag_1\n  jumpi\n  0x00\n  dup1\n  revert\ntag_1:\n  pop\n    /* \"contracts/Ownable.sol\":914:946  _transferOwnership(_msgSender()) */\n  tag_4\n    /* \"contracts/Ownable.sol\":933:945  _msgSender() */\n  tag_5\n    /* \"contracts/Ownable.sol\":933:943  _msgSender */\n  shl(0x20, tag_6)\n    /* \"contracts/Ownable.sol\":933:945  _msgSender() */\n  0x20\n  shr\n  jump\t// in\ntag_5:\n    /* \"contracts/Ownable.sol\":914:932  _transferOwnership */\n  shl(0x20, tag_7)\n    /* \"contracts/Ownable.sol\":914:946  _transferOwnership(_msgSender()) */\n  0x20\n  shr\n  jump\t// in\ntag_4:\n    /* \"contracts/ViewQuiz.sol\":93:1343  contract ViewQuiz is CreateQuiz {... */\n  jump(tag_8)\n    /* \"contracts/Context.sol\":640:736  function _msgSender() internal view virtual returns (address) {... */\ntag_6:\n    /* \"contracts/Context.sol\":693:700  address */\n  0x00\n    /* \"contracts/Context.sol\":719:729  msg.sender */\n  caller\n    /* \"contracts/Context.sol\":712:729  return msg.sender */\n  swap1\n  pop\n    /* \"contracts/Context.sol\":640:736  function _msgSender() internal view virtual returns (address) {... */\n  swap1\n  jump\t// out\n    /* \"contracts/Ownable.sol\":2263:2450  function _transferOwnership(address newOwner) internal virtual {... */\ntag_7:\n    /* \"contracts/Ownable.sol\":2336:2352  address oldOwner */\n  0x00\n    /* \"contracts/Ownable.sol\":2355:2361  _owner */\n  dup1\n  0x00\n  swap1\n  sload\n  swap1\n  0x0100\n  exp\n  swap1\n  div\n  0xffffffffffffffffffffffffffffffffffffffff\n  and\n    /* \"contracts/Ownable.sol\":2336:2361  address oldOwner = _owner */\n  swap1\n  pop\n    /* \"contracts/Ownable.sol\":2380:2388  newOwner */\n  dup2\n    /* \"contracts/Ownable.sol\":2371:2377  _owner */\n  0x00\n  dup1\n    /* \"contracts/Ownable.sol\":2371:2388  _owner = newOwner */\n  0x0100\n  exp\n  dup2\n  sload\n  dup2\n  0xffffffffffffffffffffffffffffffffffffffff\n  mul\n  not\n  and\n  swap1\n  dup4\n  0xffffffffffffffffffffffffffffffffffffffff\n  and\n  mul\n  or\n  swap1\n  sstore\n  pop\n    /* \"contracts/Ownable.sol\":2434:2442  newOwner */\n  dup2\n    /* \"contracts/Ownable.sol\":2403:2443  OwnershipTransferred(oldOwner, newOwner) */\n  0xffffffffffffffffffffffffffffffffffffffff\n  and\n    /* \"contracts/Ownable.sol\":2424:2432  oldOwner */\n  dup2\n    /* \"contracts/Ownable.sol\":2403:2443  OwnershipTransferred(oldOwner, newOwner) */\n  0xffffffffffffffffffffffffffffffffffffffff\n  and\n  0x8be0079c531659141344cd1fd0a4f28419497f9722a3daafe3b4186f6b6457e0\n  mload(0x40)\n  mload(0x40)\n  dup1\n  swap2\n  sub\n  swap1\n  log3\n    /* \"contracts/Ownable.sol\":2326:2450  {... */\n  pop\n    /* \"contracts/Ownable.sol\":2263:2450  function _transferOwnership(address newOwner) internal virtual {... */\n  pop\n  jump\t// out\n    /* \"contracts/ViewQuiz.sol\":93:1343  contract ViewQuiz is CreateQuiz {... */\ntag_8:\n  dataSize(sub_0)\n  dup1\n  dataOffset(sub_0)\n  0x00\n  codecopy\n  0x00\n  return\nstop\n\nsub_0: assembly {\n        /* \"contracts/ViewQuiz.sol\":93:1343  contract ViewQuiz is CreateQuiz {... */\n      mstore(0x40, 0x80)\n      jumpi(tag_1, lt(calldatasize, 0x04))\n      shr(0xe0, calldataload(0x00))\n      dup1\n      0x8da5cb5b\n      gt\n      tag_13\n      jumpi\n      dup1\n      0x8da5cb5b\n      eq\n      tag_7\n      jumpi\n      dup1\n      0x9a2dc409\n      eq\n      tag_8\n      jumpi\n      dup1\n      0xa0af60de\n      eq\n      tag_9\n      jumpi\n      dup1\n      0xb9360cf1\n      eq\n      tag_10\n      jumpi\n      dup1\n      0xf2fde38b\n      eq\n      tag_11\n      jumpi\n      dup1\n      0xfbb3b6ce\n      eq\n      tag_12\n      jumpi\n      jump(tag_1)\n    tag_13:\n      dup1\n      0x1d3f7559\n      eq\n      tag_2\n      jumpi\n      dup1\n      0x377def85\n      eq\n      tag_3\n      jumpi\n      dup1\n      0x400ae0f9\n      eq\n      tag_4\n      jumpi\n      dup1\n      0x51a1d40e\n      eq\n      tag_5\n      jumpi\n      dup1\n      0x715018a6\n      eq\n      tag_6\n      jumpi\n    tag_1:\n      0x00\n      dup1\n      revert\n        /* \"contracts/CreateQuiz.sol\":2382:2509  function changeQuizStatus(uint _quizId, bool _quizStatus) public onlyOwner {... */\n    tag_2:\n      callvalue\n      dup1\n      iszero\n      tag_14\n      jumpi\n      0x00\n      dup1\n      revert\n    tag_14:\n      pop\n      tag_15\n      0x04\n      dup1\n      calldatasize\n      sub\n      dup2\n      add\n      swap1\n      tag_16\n      swap2\n      swap1\n      tag_17\n      jump\t// in\n    tag_16:\n      tag_18\n      jump\t// in\n    tag_15:\n      stop\n        /* \"contracts/CreateQuiz.sol\":1946:2091  function quizOwnerChangeStatus(uint _quizId, bool _quizStatus) public onlyQuizOwner(_quizId) {... */\n    tag_3:\n      callvalue\n      dup1\n      iszero\n      tag_19\n      jumpi\n      0x00\n      dup1\n      revert\n    tag_19:\n      pop\n      tag_20\n      0x04\n      dup1\n      calldatasize\n      sub\n      dup2\n      add\n      swap1\n      tag_21\n      swap2\n      swap1\n      tag_17\n      jump\t// in\n    tag_21:\n      tag_22\n      jump\t// in\n    tag_20:\n      stop\n        /* \"contracts/CreateQuiz.sol\":547:589  mapping (uint => address) public quizOwner */\n    tag_4:\n      callvalue\n      dup1\n      iszero\n      tag_23\n      jumpi\n      0x00\n      dup1\n      revert\n    tag_23:\n      pop\n      tag_24\n      0x04\n      dup1\n      calldatasize\n      sub\n      dup2\n      add\n      swap1\n      tag_25\n      swap2\n      swap1\n      tag_26\n      jump\t// in\n    tag_25:\n      tag_27\n      jump\t// in\n    tag_24:\n      mload(0x40)\n      tag_28\n      swap2\n      swap1\n      tag_29\n      jump\t// in\n    tag_28:\n      mload(0x40)\n      dup1\n      swap2\n      sub\n      swap1\n      return\n        /* \"contracts/CreateQuiz.sol\":450:492  mapping (uint => bool) public quizIsActive */\n    tag_5:\n      callvalue\n      dup1\n      iszero\n      tag_30\n      jumpi\n      0x00\n      dup1\n      revert\n    tag_30:\n      pop\n      tag_31\n      0x04\n      dup1\n      calldatasize\n      sub\n      dup2\n      add\n      swap1\n      tag_32\n      swap2\n      swap1\n      tag_26\n      jump\t// in\n    tag_32:\n      tag_33\n      jump\t// in\n    tag_31:\n      mload(0x40)\n      tag_34\n      swap2\n      swap1\n      tag_35\n      jump\t// in\n    tag_34:\n      mload(0x40)\n      dup1\n      swap2\n      sub\n      swap1\n      return\n        /* \"contracts/Ownable.sol\":1661:1762  function renounceOwnership() public virtual onlyOwner {... */\n    tag_6:\n      callvalue\n      dup1\n      iszero\n      tag_36\n      jumpi\n      0x00\n      dup1\n      revert\n    tag_36:\n      pop\n      tag_37\n      tag_38\n      jump\t// in\n    tag_37:\n      stop\n        /* \"contracts/Ownable.sol\":1029:1114  function owner() public view virtual returns (address) {... */\n    tag_7:\n      callvalue\n      dup1\n      iszero\n      tag_39\n      jumpi\n      0x00\n      dup1\n      revert\n    tag_39:\n      pop\n      tag_40\n      tag_41\n      jump\t// in\n    tag_40:\n      mload(0x40)\n      tag_42\n      swap2\n      swap1\n      tag_29\n      jump\t// in\n    tag_42:\n      mload(0x40)\n      dup1\n      swap2\n      sub\n      swap1\n      return\n        /* \"contracts/CreateQuiz.sol\":1378:1883  function createQuiz(string memory _question, string memory _choice1, string memory _choice2, string memory _choice3, string memory _choice4, string memory _hint, uint8 _answer, uint8 _languageCode, uint _reward, uint _rewardPool) public payable {... */\n    tag_8:\n      tag_43\n      0x04\n      dup1\n      calldatasize\n      sub\n      dup2\n      add\n      swap1\n      tag_44\n      swap2\n      swap1\n      tag_45\n      jump\t// in\n    tag_44:\n      tag_46\n      jump\t// in\n    tag_43:\n      stop\n        /* \"contracts/ViewQuiz.sol\":264:837  function getRandomQuiz() public view returns (Quiz memory) {... */\n    tag_9:\n      callvalue\n      dup1\n      iszero\n      tag_47\n      jumpi\n      0x00\n      dup1\n      revert\n    tag_47:\n      pop\n      tag_48\n      tag_49\n      jump\t// in\n    tag_48:\n      mload(0x40)\n      tag_50\n      swap2\n      swap1\n      tag_51\n      jump\t// in\n    tag_50:\n      mload(0x40)\n      dup1\n      swap2\n      sub\n      swap1\n      return\n        /* \"contracts/ViewQuiz.sol\":1100:1339  function quizOwnerGetQuiz(uint _quizId) public view onlyQuizOwner(_quizId) returns (Quiz memory, uint8) {... */\n    tag_10:\n      callvalue\n      dup1\n      iszero\n      tag_52\n      jumpi\n      0x00\n      dup1\n      revert\n    tag_52:\n      pop\n      tag_53\n      0x04\n      dup1\n      calldatasize\n      sub\n      dup2\n      add\n      swap1\n      tag_54\n      swap2\n      swap1\n      tag_26\n      jump\t// in\n    tag_54:\n      tag_55\n      jump\t// in\n    tag_53:\n      mload(0x40)\n      tag_56\n      swap3\n      swap2\n      swap1\n      tag_57\n      jump\t// in\n    tag_56:\n      mload(0x40)\n      dup1\n      swap2\n      sub\n      swap1\n      return\n        /* \"contracts/Ownable.sol\":1911:2109  function transferOwnership(address newOwner) public virtual onlyOwner {... */\n    tag_11:\n      callvalue\n      dup1\n      iszero\n      tag_58\n      jumpi\n      0x00\n      dup1\n      revert\n    tag_58:\n      pop\n      tag_59\n      0x04\n      dup1\n      calldatasize\n      sub\n      dup2\n      add\n      swap1\n      tag_60\n      swap2\n      swap1\n      tag_61\n      jump\t// in\n    tag_60:\n      tag_62\n      jump\t// in\n    tag_59:\n      stop\n        /* \"contracts/CreateQuiz.sol\":2152:2292  function quizOwnerChangeHint(uint _quizId, string memory _hint) public onlyQuizOwner(_quizId) {... */\n    tag_12:\n      callvalue\n      dup1\n      iszero\n      tag_63\n      jumpi\n      0x00\n      dup1\n      revert\n    tag_63:\n      pop\n      tag_64\n      0x04\n      dup1\n      calldatasize\n      sub\n      dup2\n      add\n      swap1\n      tag_65\n      swap2\n      swap1\n      tag_66\n      jump\t// in\n    tag_65:\n      tag_67\n      jump\t// in\n    tag_64:\n      stop\n        /* \"contracts/CreateQuiz.sol\":2382:2509  function changeQuizStatus(uint _quizId, bool _quizStatus) public onlyOwner {... */\n    tag_18:\n        /* \"contracts/Ownable.sol\":1252:1264  _msgSender() */\n      tag_69\n        /* \"contracts/Ownable.sol\":1252:1262  _msgSender */\n      tag_70\n        /* \"contracts/Ownable.sol\":1252:1264  _msgSender() */\n      jump\t// in\n    tag_69:\n        /* \"contracts/Ownable.sol\":1241:1264  owner() == _msgSender() */\n      0xffffffffffffffffffffffffffffffffffffffff\n      and\n        /* \"contracts/Ownable.sol\":1241:1248  owner() */\n      tag_71\n        /* \"contracts/Ownable.sol\":1241:1246  owner */\n      tag_41\n        /* \"contracts/Ownable.sol\":1241:1248  owner() */\n      jump\t// in\n    tag_71:\n        /* \"contracts/Ownable.sol\":1241:1264  owner() == _msgSender() */\n      0xffffffffffffffffffffffffffffffffffffffff\n      and\n      eq\n        /* \"contracts/Ownable.sol\":1233:1301  require(owner() == _msgSender(), \"Ownable: caller is not the owner\") */\n      tag_72\n      jumpi\n      mload(0x40)\n      0x08c379a000000000000000000000000000000000000000000000000000000000\n      dup2\n      mstore\n      0x04\n      add\n      tag_73\n      swap1\n      tag_74\n      jump\t// in\n    tag_73:\n      mload(0x40)\n      dup1\n      swap2\n      sub\n      swap1\n      revert\n    tag_72:\n        /* \"contracts/CreateQuiz.sol\":2491:2502  _quizStatus */\n      dup1\n        /* \"contracts/CreateQuiz.sol\":2467:2479  quizIsActive */\n      0x02\n        /* \"contracts/CreateQuiz.sol\":2467:2488  quizIsActive[_quizId] */\n      0x00\n        /* \"contracts/CreateQuiz.sol\":2480:2487  _quizId */\n      dup5\n        /* \"contracts/CreateQuiz.sol\":2467:2488  quizIsActive[_quizId] */\n      dup2\n      mstore\n      0x20\n      add\n      swap1\n      dup2\n      mstore\n      0x20\n      add\n      0x00\n      keccak256\n      0x00\n        /* \"contracts/CreateQuiz.sol\":2467:2502  quizIsActive[_quizId] = _quizStatus */\n      0x0100\n      exp\n      dup2\n      sload\n      dup2\n      0xff\n      mul\n      not\n      and\n      swap1\n      dup4\n      iszero\n      iszero\n      mul\n      or\n      swap1\n      sstore\n      pop\n        /* \"contracts/CreateQuiz.sol\":2382:2509  function changeQuizStatus(uint _quizId, bool _quizStatus) public onlyOwner {... */\n      pop\n      pop\n      jump\t// out\n        /* \"contracts/CreateQuiz.sol\":1946:2091  function quizOwnerChangeStatus(uint _quizId, bool _quizStatus) public onlyQuizOwner(_quizId) {... */\n    tag_22:\n        /* \"contracts/CreateQuiz.sol\":2030:2037  _quizId */\n      dup2\n        /* \"contracts/CreateQuiz.sol\":674:684  msg.sender */\n      caller\n        /* \"contracts/CreateQuiz.sol\":652:684  quizOwner[_quizId] == msg.sender */\n      0xffffffffffffffffffffffffffffffffffffffff\n      and\n        /* \"contracts/CreateQuiz.sol\":652:661  quizOwner */\n      0x04\n        /* \"contracts/CreateQuiz.sol\":652:670  quizOwner[_quizId] */\n      0x00\n        /* \"contracts/CreateQuiz.sol\":662:669  _quizId */\n      dup4\n        /* \"contracts/CreateQuiz.sol\":652:670  quizOwner[_quizId] */\n      dup2\n      mstore\n      0x20\n      add\n      swap1\n      dup2\n      mstore\n      0x20\n      add\n      0x00\n      keccak256\n      0x00\n      swap1\n      sload\n      swap1\n      0x0100\n      exp\n      swap1\n      div\n      0xffffffffffffffffffffffffffffffffffffffff\n      and\n        /* \"contracts/CreateQuiz.sol\":652:684  quizOwner[_quizId] == msg.sender */\n      0xffffffffffffffffffffffffffffffffffffffff\n      and\n      eq\n        /* \"contracts/CreateQuiz.sol\":644:685  require(quizOwner[_quizId] == msg.sender) */\n      tag_77\n      jumpi\n      0x00\n      dup1\n      revert\n    tag_77:\n        /* \"contracts/CreateQuiz.sol\":2073:2084  _quizStatus */\n      dup2\n        /* \"contracts/CreateQuiz.sol\":2049:2061  quizIsActive */\n      0x02\n        /* \"contracts/CreateQuiz.sol\":2049:2070  quizIsActive[_quizId] */\n      0x00\n        /* \"contracts/CreateQuiz.sol\":2062:2069  _quizId */\n      dup6\n        /* \"contracts/CreateQuiz.sol\":2049:2070  quizIsActive[_quizId] */\n      dup2\n      mstore\n      0x20\n      add\n      swap1\n      dup2\n      mstore\n      0x20\n      add\n      0x00\n      keccak256\n      0x00\n        /* \"contracts/CreateQuiz.sol\":2049:2084  quizIsActive[_quizId] = _quizStatus */\n      0x0100\n      exp\n      dup2\n      sload\n      dup2\n      0xff\n      mul\n      not\n      and\n      swap1\n      dup4\n      iszero\n      iszero\n      mul\n      or\n      swap1\n      sstore\n      pop\n        /* \"contracts/CreateQuiz.sol\":1946:2091  function quizOwnerChangeStatus(uint _quizId, bool _quizStatus) public onlyQuizOwner(_quizId) {... */\n      pop\n      pop\n      pop\n      jump\t// out\n        /* \"contracts/CreateQuiz.sol\":547:589  mapping (uint => address) public quizOwner */\n    tag_27:\n      mstore(0x20, 0x04)\n      dup1\n      0x00\n      mstore\n      keccak256(0x00, 0x40)\n      0x00\n      swap2\n      pop\n      sload\n      swap1\n      0x0100\n      exp\n      swap1\n      div\n      0xffffffffffffffffffffffffffffffffffffffff\n      and\n      dup2\n      jump\t// out\n        /* \"contracts/CreateQuiz.sol\":450:492  mapping (uint => bool) public quizIsActive */\n    tag_33:\n      mstore(0x20, 0x02)\n      dup1\n      0x00\n      mstore\n      keccak256(0x00, 0x40)\n      0x00\n      swap2\n      pop\n      sload\n      swap1\n      0x0100\n      exp\n      swap1\n      div\n      0xff\n      and\n      dup2\n      jump\t// out\n        /* \"contracts/Ownable.sol\":1661:1762  function renounceOwnership() public virtual onlyOwner {... */\n    tag_38:\n        /* \"contracts/Ownable.sol\":1252:1264  _msgSender() */\n      tag_80\n        /* \"contracts/Ownable.sol\":1252:1262  _msgSender */\n      tag_70\n        /* \"contracts/Ownable.sol\":1252:1264  _msgSender() */\n      jump\t// in\n    tag_80:\n        /* \"contracts/Ownable.sol\":1241:1264  owner() == _msgSender() */\n      0xffffffffffffffffffffffffffffffffffffffff\n      and\n        /* \"contracts/Ownable.sol\":1241:1248  owner() */\n      tag_81\n        /* \"contracts/Ownable.sol\":1241:1246  owner */\n      tag_41\n        /* \"contracts/Ownable.sol\":1241:1248  owner() */\n      jump\t// in\n    tag_81:\n        /* \"contracts/Ownable.sol\":1241:1264  owner() == _msgSender() */\n      0xffffffffffffffffffffffffffffffffffffffff\n      and\n      eq\n        /* \"contracts/Ownable.sol\":1233:1301  require(owner() == _msgSender(), \"Ownable: caller is not the owner\") */\n      tag_82\n      jumpi\n      mload(0x40)\n      0x08c379a000000000000000000000000000000000000000000000000000000000\n      dup2\n      mstore\n      0x04\n      add\n      tag_83\n      swap1\n      tag_74\n      jump\t// in\n    tag_83:\n      mload(0x40)\n      dup1\n      swap2\n      sub\n      swap1\n      revert\n    tag_82:\n        /* \"contracts/Ownable.sol\":1725:1755  _transferOwnership(address(0)) */\n      tag_85\n        /* \"contracts/Ownable.sol\":1752:1753  0 */\n      0x00\n        /* \"contracts/Ownable.sol\":1725:1743  _transferOwnership */\n      tag_86\n        /* \"contracts/Ownable.sol\":1725:1755  _transferOwnership(address(0)) */\n      jump\t// in\n    tag_85:\n        /* \"contracts/Ownable.sol\":1661:1762  function renounceOwnership() public virtual onlyOwner {... */\n      jump\t// out\n        /* \"contracts/Ownable.sol\":1029:1114  function owner() public view virtual returns (address) {... */\n    tag_41:\n        /* \"contracts/Ownable.sol\":1075:1082  address */\n      0x00\n        /* \"contracts/Ownable.sol\":1101:1107  _owner */\n      dup1\n      0x00\n      swap1\n      sload\n      swap1\n      0x0100\n      exp\n      swap1\n      div\n      0xffffffffffffffffffffffffffffffffffffffff\n      and\n        /* \"contracts/Ownable.sol\":1094:1107  return _owner */\n      swap1\n      pop\n        /* \"contracts/Ownable.sol\":1029:1114  function owner() public view virtual returns (address) {... */\n      swap1\n      jump\t// out\n        /* \"contracts/CreateQuiz.sol\":1378:1883  function createQuiz(string memory _question, string memory _choice1, string memory _choice2, string memory _choice3, string memory _choice4, string memory _hint, uint8 _answer, uint8 _languageCode, uint _reward, uint _rewardPool) public payable {... */\n    tag_46:\n        /* \"contracts/CreateQuiz.sol\":1654:1665  _rewardPool */\n      dup1\n        /* \"contracts/CreateQuiz.sol\":1641:1650  msg.value */\n      callvalue\n        /* \"contracts/CreateQuiz.sol\":1641:1665  msg.value == _rewardPool */\n      eq\n        /* \"contracts/CreateQuiz.sol\":1633:1666  require(msg.value == _rewardPool) */\n      tag_89\n      jumpi\n      0x00\n      dup1\n      revert\n    tag_89:\n        /* \"contracts/CreateQuiz.sol\":1709:1710  0 */\n      0x00\n        /* \"contracts/CreateQuiz.sol\":1698:1705  _reward */\n      dup3\n        /* \"contracts/CreateQuiz.sol\":1684:1695  _rewardPool */\n      dup3\n        /* \"contracts/CreateQuiz.sol\":1684:1705  _rewardPool % _reward */\n      tag_90\n      swap2\n      swap1\n      tag_91\n      jump\t// in\n    tag_90:\n        /* \"contracts/CreateQuiz.sol\":1684:1710  _rewardPool % _reward == 0 */\n      eq\n        /* \"contracts/CreateQuiz.sol\":1676:1711  require(_rewardPool % _reward == 0) */\n      tag_92\n      jumpi\n      0x00\n      dup1\n      revert\n    tag_92:\n        /* \"contracts/CreateQuiz.sol\":1743:1750  _reward */\n      dup2\n        /* \"contracts/CreateQuiz.sol\":1729:1740  _rewardPool */\n      dup2\n        /* \"contracts/CreateQuiz.sol\":1729:1750  _rewardPool > _reward */\n      gt\n        /* \"contracts/CreateQuiz.sol\":1721:1751  require(_rewardPool > _reward) */\n      tag_93\n      jumpi\n      0x00\n      dup1\n      revert\n    tag_93:\n        /* \"contracts/CreateQuiz.sol\":1761:1876  _createQuiz(_question, _choice1, _choice2, _choice3, _choice4, _hint, _answer, _languageCode, _reward, _rewardPool) */\n      tag_94\n        /* \"contracts/CreateQuiz.sol\":1773:1782  _question */\n      dup11\n        /* \"contracts/CreateQuiz.sol\":1784:1792  _choice1 */\n      dup11\n        /* \"contracts/CreateQuiz.sol\":1794:1802  _choice2 */\n      dup11\n        /* \"contracts/CreateQuiz.sol\":1804:1812  _choice3 */\n      dup11\n        /* \"contracts/CreateQuiz.sol\":1814:1822  _choice4 */\n      dup11\n        /* \"contracts/CreateQuiz.sol\":1824:1829  _hint */\n      dup11\n        /* \"contracts/CreateQuiz.sol\":1831:1838  _answer */\n      dup11\n        /* \"contracts/CreateQuiz.sol\":1840:1853  _languageCode */\n      dup11\n        /* \"contracts/CreateQuiz.sol\":1855:1862  _reward */\n      dup11\n        /* \"contracts/CreateQuiz.sol\":1864:1875  _rewardPool */\n      dup11\n        /* \"contracts/CreateQuiz.sol\":1761:1772  _createQuiz */\n      tag_95\n        /* \"contracts/CreateQuiz.sol\":1761:1876  _createQuiz(_question, _choice1, _choice2, _choice3, _choice4, _hint, _answer, _languageCode, _reward, _rewardPool) */\n      jump\t// in\n    tag_94:\n        /* \"contracts/CreateQuiz.sol\":1378:1883  function createQuiz(string memory _question, string memory _choice1, string memory _choice2, string memory _choice3, string memory _choice4, string memory _hint, uint8 _answer, uint8 _languageCode, uint _reward, uint _rewardPool) public payable {... */\n      pop\n      pop\n      pop\n      pop\n      pop\n      pop\n      pop\n      pop\n      pop\n      pop\n      jump\t// out\n        /* \"contracts/ViewQuiz.sol\":264:837  function getRandomQuiz() public view returns (Quiz memory) {... */\n    tag_49:\n        /* \"contracts/ViewQuiz.sol\":310:321  Quiz memory */\n      tag_96\n      tag_97\n      jump\t// in\n    tag_96:\n        /* \"contracts/ViewQuiz.sol\":720:731  uint quizId */\n      0x00\n        /* \"contracts/ViewQuiz.sol\":745:761  Quiz memory quiz */\n      dup1\n        /* \"contracts/ViewQuiz.sol\":764:771  quizzes */\n      0x01\n        /* \"contracts/ViewQuiz.sol\":772:778  quizId */\n      dup3\n        /* \"contracts/ViewQuiz.sol\":764:779  quizzes[quizId] */\n      dup2\n      sload\n      dup2\n      lt\n      tag_99\n      jumpi\n      tag_100\n      tag_101\n      jump\t// in\n    tag_100:\n    tag_99:\n      swap1\n      0x00\n      mstore\n      keccak256(0x00, 0x20)\n      swap1\n      0x09\n      mul\n      add\n        /* \"contracts/ViewQuiz.sol\":745:779  Quiz memory quiz = quizzes[quizId] */\n      mload(0x40)\n      dup1\n      0x0120\n      add\n      0x40\n      mstore\n      swap1\n      dup2\n      0x00\n      dup3\n      add\n      dup1\n      sload\n      tag_103\n      swap1\n      tag_104\n      jump\t// in\n    tag_103:\n      dup1\n      0x1f\n      add\n      0x20\n      dup1\n      swap2\n      div\n      mul\n      0x20\n      add\n      mload(0x40)\n      swap1\n      dup2\n      add\n      0x40\n      mstore\n      dup1\n      swap3\n      swap2\n      swap1\n      dup2\n      dup2\n      mstore\n      0x20\n      add\n      dup3\n      dup1\n      sload\n      tag_105\n      swap1\n      tag_104\n      jump\t// in\n    tag_105:\n      dup1\n      iszero\n      tag_106\n      jumpi\n      dup1\n      0x1f\n      lt\n      tag_107\n      jumpi\n      0x0100\n      dup1\n      dup4\n      sload\n      div\n      mul\n      dup4\n      mstore\n      swap2\n      0x20\n      add\n      swap2\n      jump(tag_106)\n    tag_107:\n      dup3\n      add\n      swap2\n      swap1\n      0x00\n      mstore\n      keccak256(0x00, 0x20)\n      swap1\n    tag_108:\n      dup2\n      sload\n      dup2\n      mstore\n      swap1\n      0x01\n      add\n      swap1\n      0x20\n      add\n      dup1\n      dup4\n      gt\n      tag_108\n      jumpi\n      dup3\n      swap1\n      sub\n      0x1f\n      and\n      dup3\n      add\n      swap2\n    tag_106:\n      pop\n      pop\n      pop\n      pop\n      pop\n      dup2\n      mstore\n      0x20\n      add\n      0x01\n      dup3\n      add\n      dup1\n      sload\n      tag_109\n      swap1\n      tag_104\n      jump\t// in\n    tag_109:\n      dup1\n      0x1f\n      add\n      0x20\n      dup1\n      swap2\n      div\n      mul\n      0x20\n      add\n      mload(0x40)\n      swap1\n      dup2\n      add\n      0x40\n      mstore\n      dup1\n      swap3\n      swap2\n      swap1\n      dup2\n      dup2\n      mstore\n      0x20\n      add\n      dup3\n      dup1\n      sload\n      tag_110\n      swap1\n      tag_104\n      jump\t// in\n    tag_110:\n      dup1\n      iszero\n      tag_111\n      jumpi\n      dup1\n      0x1f\n      lt\n      tag_112\n      jumpi\n      0x0100\n      dup1\n      dup4\n      sload\n      div\n      mul\n      dup4\n      mstore\n      swap2\n      0x20\n      add\n      swap2\n      jump(tag_111)\n    tag_112:\n      dup3\n      add\n      swap2\n      swap1\n      0x00\n      mstore\n      keccak256(0x00, 0x20)\n      swap1\n    tag_113:\n      dup2\n      sload\n      dup2\n      mstore\n      swap1\n      0x01\n      add\n      swap1\n      0x20\n      add\n      dup1\n      dup4\n      gt\n      tag_113\n      jumpi\n      dup3\n      swap1\n      sub\n      0x1f\n      and\n      dup3\n      add\n      swap2\n    tag_111:\n      pop\n      pop\n      pop\n      pop\n      pop\n      dup2\n      mstore\n      0x20\n      add\n      0x02\n      dup3\n      add\n      dup1\n      sload\n      tag_114\n      swap1\n      tag_104\n      jump\t// in\n    tag_114:\n      dup1\n      0x1f\n      add\n      0x20\n      dup1\n      swap2\n      div\n      mul\n      0x20\n      add\n      mload(0x40)\n      swap1\n      dup2\n      add\n      0x40\n      mstore\n      dup1\n      swap3\n      swap2\n      swap1\n      dup2\n      dup2\n      mstore\n      0x20\n      add\n      dup3\n      dup1\n      sload\n      tag_115\n      swap1\n      tag_104\n      jump\t// in\n    tag_115:\n      dup1\n      iszero\n      tag_116\n      jumpi\n      dup1\n      0x1f\n      lt\n      tag_117\n      jumpi\n      0x0100\n      dup1\n      dup4\n      sload\n      div\n      mul\n      dup4\n      mstore\n      swap2\n      0x20\n      add\n      swap2\n      jump(tag_116)\n    tag_117:\n      dup3\n      add\n      swap2\n      swap1\n      0x00\n      mstore\n      keccak256(0x00, 0x20)\n      swap1\n    tag_118:\n      dup2\n      sload\n      dup2\n      mstore\n      swap1\n      0x01\n      add\n      swap1\n      0x20\n      add\n      dup1\n      dup4\n      gt\n      tag_118\n      jumpi\n      dup3\n      swap1\n      sub\n      0x1f\n      and\n      dup3\n      add\n      swap2\n    tag_116:\n      pop\n      pop\n      pop\n      pop\n      pop\n      dup2\n      mstore\n      0x20\n      add\n      0x03\n      dup3\n      add\n      dup1\n      sload\n      tag_119\n      swap1\n      tag_104\n      jump\t// in\n    tag_119:\n      dup1\n      0x1f\n      add\n      0x20\n      dup1\n      swap2\n      div\n      mul\n      0x20\n      add\n      mload(0x40)\n      swap1\n      dup2\n      add\n      0x40\n      mstore\n      dup1\n      swap3\n      swap2\n      swap1\n      dup2\n      dup2\n      mstore\n      0x20\n      add\n      dup3\n      dup1\n      sload\n      tag_120\n      swap1\n      tag_104\n      jump\t// in\n    tag_120:\n      dup1\n      iszero\n      tag_121\n      jumpi\n      dup1\n      0x1f\n      lt\n      tag_122\n      jumpi\n      0x0100\n      dup1\n      dup4\n      sload\n      div\n      mul\n      dup4\n      mstore\n      swap2\n      0x20\n      add\n      swap2\n      jump(tag_121)\n    tag_122:\n      dup3\n      add\n      swap2\n      swap1\n      0x00\n      mstore\n      keccak256(0x00, 0x20)\n      swap1\n    tag_123:\n      dup2\n      sload\n      dup2\n      mstore\n      swap1\n      0x01\n      add\n      swap1\n      0x20\n      add\n      dup1\n      dup4\n      gt\n      tag_123\n      jumpi\n      dup3\n      swap1\n      sub\n      0x1f\n      and\n      dup3\n      add\n      swap2\n    tag_121:\n      pop\n      pop\n      pop\n      pop\n      pop\n      dup2\n      mstore\n      0x20\n      add\n      0x04\n      dup3\n      add\n      dup1\n      sload\n      tag_124\n      swap1\n      tag_104\n      jump\t// in\n    tag_124:\n      dup1\n      0x1f\n      add\n      0x20\n      dup1\n      swap2\n      div\n      mul\n      0x20\n      add\n      mload(0x40)\n      swap1\n      dup2\n      add\n      0x40\n      mstore\n      dup1\n      swap3\n      swap2\n      swap1\n      dup2\n      dup2\n      mstore\n      0x20\n      add\n      dup3\n      dup1\n      sload\n      tag_125\n      swap1\n      tag_104\n      jump\t// in\n    tag_125:\n      dup1\n      iszero\n      tag_126\n      jumpi\n      dup1\n      0x1f\n      lt\n      tag_127\n      jumpi\n      0x0100\n      dup1\n      dup4\n      sload\n      div\n      mul\n      dup4\n      mstore\n      swap2\n      0x20\n      add\n      swap2\n      jump(tag_126)\n    tag_127:\n      dup3\n      add\n      swap2\n      swap1\n      0x00\n      mstore\n      keccak256(0x00, 0x20)\n      swap1\n    tag_128:\n      dup2\n      sload\n      dup2\n      mstore\n      swap1\n      0x01\n      add\n      swap1\n      0x20\n      add\n      dup1\n      dup4\n      gt\n      tag_128\n      jumpi\n      dup3\n      swap1\n      sub\n      0x1f\n      and\n      dup3\n      add\n      swap2\n    tag_126:\n      pop\n      pop\n      pop\n      pop\n      pop\n      dup2\n      mstore\n      0x20\n      add\n      0x05\n      dup3\n      add\n      dup1\n      sload\n      tag_129\n      swap1\n      tag_104\n      jump\t// in\n    tag_129:\n      dup1\n      0x1f\n      add\n      0x20\n      dup1\n      swap2\n      div\n      mul\n      0x20\n      add\n      mload(0x40)\n      swap1\n      dup2\n      add\n      0x40\n      mstore\n      dup1\n      swap3\n      swap2\n      swap1\n      dup2\n      dup2\n      mstore\n      0x20\n      add\n      dup3\n      dup1\n      sload\n      tag_130\n      swap1\n      tag_104\n      jump\t// in\n    tag_130:\n      dup1\n      iszero\n      tag_131\n      jumpi\n      dup1\n      0x1f\n      lt\n      tag_132\n      jumpi\n      0x0100\n      dup1\n      dup4\n      sload\n      div\n      mul\n      dup4\n      mstore\n      swap2\n      0x20\n      add\n      swap2\n      jump(tag_131)\n    tag_132:\n      dup3\n      add\n      swap2\n      swap1\n      0x00\n      mstore\n      keccak256(0x00, 0x20)\n      swap1\n    tag_133:\n      dup2\n      sload\n      dup2\n      mstore\n      swap1\n      0x01\n      add\n      swap1\n      0x20\n      add\n      dup1\n      dup4\n      gt\n      tag_133\n      jumpi\n      dup3\n      swap1\n      sub\n      0x1f\n      and\n      dup3\n      add\n      swap2\n    tag_131:\n      pop\n      pop\n      pop\n      pop\n      pop\n      dup2\n      mstore\n      0x20\n      add\n      0x06\n      dup3\n      add\n      0x00\n      swap1\n      sload\n      swap1\n      0x0100\n      exp\n      swap1\n      div\n      0xff\n      and\n      0xff\n      and\n      0xff\n      and\n      dup2\n      mstore\n      0x20\n      add\n      0x07\n      dup3\n      add\n      sload\n      dup2\n      mstore\n      0x20\n      add\n      0x08\n      dup3\n      add\n      sload\n      dup2\n      mstore\n      pop\n      pop\n      swap1\n      pop\n        /* \"contracts/ViewQuiz.sol\":826:830  quiz */\n      dup1\n        /* \"contracts/ViewQuiz.sol\":819:830  return quiz */\n      swap3\n      pop\n      pop\n      pop\n        /* \"contracts/ViewQuiz.sol\":264:837  function getRandomQuiz() public view returns (Quiz memory) {... */\n      swap1\n      jump\t// out\n        /* \"contracts/ViewQuiz.sol\":1100:1339  function quizOwnerGetQuiz(uint _quizId) public view onlyQuizOwner(_quizId) returns (Quiz memory, uint8) {... */\n    tag_55:\n        /* \"contracts/ViewQuiz.sol\":1184:1195  Quiz memory */\n      tag_134\n      tag_97\n      jump\t// in\n    tag_134:\n        /* \"contracts/ViewQuiz.sol\":1197:1202  uint8 */\n      0x00\n        /* \"contracts/ViewQuiz.sol\":1166:1173  _quizId */\n      dup3\n        /* \"contracts/CreateQuiz.sol\":674:684  msg.sender */\n      caller\n        /* \"contracts/CreateQuiz.sol\":652:684  quizOwner[_quizId] == msg.sender */\n      0xffffffffffffffffffffffffffffffffffffffff\n      and\n        /* \"contracts/CreateQuiz.sol\":652:661  quizOwner */\n      0x04\n        /* \"contracts/CreateQuiz.sol\":652:670  quizOwner[_quizId] */\n      0x00\n        /* \"contracts/CreateQuiz.sol\":662:669  _quizId */\n      dup4\n        /* \"contracts/CreateQuiz.sol\":652:670  quizOwner[_quizId] */\n      dup2\n      mstore\n      0x20\n      add\n      swap1\n      dup2\n      mstore\n      0x20\n      add\n      0x00\n      keccak256\n      0x00\n      swap1\n      sload\n      swap1\n      0x0100\n      exp\n      swap1\n      div\n      0xffffffffffffffffffffffffffffffffffffffff\n      and\n        /* \"contracts/CreateQuiz.sol\":652:684  quizOwner[_quizId] == msg.sender */\n      0xffffffffffffffffffffffffffffffffffffffff\n      and\n      eq\n        /* \"contracts/CreateQuiz.sol\":644:685  require(quizOwner[_quizId] == msg.sender) */\n      tag_136\n      jumpi\n      0x00\n      dup1\n      revert\n    tag_136:\n        /* \"contracts/ViewQuiz.sol\":1294:1301  quizzes */\n      0x01\n        /* \"contracts/ViewQuiz.sol\":1302:1309  _quizId */\n      dup5\n        /* \"contracts/ViewQuiz.sol\":1294:1310  quizzes[_quizId] */\n      dup2\n      sload\n      dup2\n      lt\n      tag_138\n      jumpi\n      tag_139\n      tag_101\n      jump\t// in\n    tag_139:\n    tag_138:\n      swap1\n      0x00\n      mstore\n      keccak256(0x00, 0x20)\n      swap1\n      0x09\n      mul\n      add\n        /* \"contracts/ViewQuiz.sol\":1312:1322  quizAnswer */\n      0x03\n        /* \"contracts/ViewQuiz.sol\":1312:1331  quizAnswer[_quizId] */\n      0x00\n        /* \"contracts/ViewQuiz.sol\":1323:1330  _quizId */\n      dup7\n        /* \"contracts/ViewQuiz.sol\":1312:1331  quizAnswer[_quizId] */\n      dup2\n      mstore\n      0x20\n      add\n      swap1\n      dup2\n      mstore\n      0x20\n      add\n      0x00\n      keccak256\n      0x00\n      swap1\n      sload\n      swap1\n      0x0100\n      exp\n      swap1\n      div\n      0xff\n      and\n        /* \"contracts/ViewQuiz.sol\":1286:1332  return (quizzes[_quizId], quizAnswer[_quizId]) */\n      dup2\n      mload(0x40)\n      dup1\n      0x0120\n      add\n      0x40\n      mstore\n      swap1\n      dup2\n      0x00\n      dup3\n      add\n      dup1\n      sload\n      tag_141\n      swap1\n      tag_104\n      jump\t// in\n    tag_141:\n      dup1\n      0x1f\n      add\n      0x20\n      dup1\n      swap2\n      div\n      mul\n      0x20\n      add\n      mload(0x40)\n      swap1\n      dup2\n      add\n      0x40\n      mstore\n      dup1\n      swap3\n      swap2\n      swap1\n      dup2\n      dup2\n      mstore\n      0x20\n      add\n      dup3\n      dup1\n      sload\n      tag_142\n      swap1\n      tag_104\n      jump\t// in\n    tag_142:\n      dup1\n      iszero\n      tag_143\n      jumpi\n      dup1\n      0x1f\n      lt\n      tag_144\n      jumpi\n      0x0100\n      dup1\n      dup4\n      sload\n      div\n      mul\n      dup4\n      mstore\n      swap2\n      0x20\n      add\n      swap2\n      jump(tag_143)\n    tag_144:\n      dup3\n      add\n      swap2\n      swap1\n      0x00\n      mstore\n      keccak256(0x00, 0x20)\n      swap1\n    tag_145:\n      dup2\n      sload\n      dup2\n      mstore\n      swap1\n      0x01\n      add\n      swap1\n      0x20\n      add\n      dup1\n      dup4\n      gt\n      tag_145\n      jumpi\n      dup3\n      swap1\n      sub\n      0x1f\n      and\n      dup3\n      add\n      swap2\n    tag_143:\n      pop\n      pop\n      pop\n      pop\n      pop\n      dup2\n      mstore\n      0x20\n      add\n      0x01\n      dup3\n      add\n      dup1\n      sload\n      tag_146\n      swap1\n      tag_104\n      jump\t// in\n    tag_146:\n      dup1\n      0x1f\n      add\n      0x20\n      dup1\n      swap2\n      div\n      mul\n      0x20\n      add\n      mload(0x40)\n      swap1\n      dup2\n      add\n      0x40\n      mstore\n      dup1\n      swap3\n      swap2\n      swap1\n      dup2\n      dup2\n      mstore\n      0x20\n      add\n      dup3\n      dup1\n      sload\n      tag_147\n      swap1\n      tag_104\n      jump\t// in\n    tag_147:\n      dup1\n      iszero\n      tag_148\n      jumpi\n      dup1\n      0x1f\n      lt\n      tag_149\n      jumpi\n      0x0100\n      dup1\n      dup4\n      sload\n      div\n      mul\n      dup4\n      mstore\n      swap2\n      0x20\n      add\n      swap2\n      jump(tag_148)\n    tag_149:\n      dup3\n      add\n      swap2\n      swap1\n      0x00\n      mstore\n      keccak256(0x00, 0x20)\n      swap1\n    tag_150:\n      dup2\n      sload\n      dup2\n      mstore\n      swap1\n      0x01\n      add\n      swap1\n      0x20\n      add\n      dup1\n      dup4\n      gt\n      tag_150\n      jumpi\n      dup3\n      swap1\n      sub\n      0x1f\n      and\n      dup3\n      add\n      swap2\n    tag_148:\n      pop\n      pop\n      pop\n      pop\n      pop\n      dup2\n      mstore\n      0x20\n      add\n      0x02\n      dup3\n      add\n      dup1\n      sload\n      tag_151\n      swap1\n      tag_104\n      jump\t// in\n    tag_151:\n      dup1\n      0x1f\n      add\n      0x20\n      dup1\n      swap2\n      div\n      mul\n      0x20\n      add\n      mload(0x40)\n      swap1\n      dup2\n      add\n      0x40\n      mstore\n      dup1\n      swap3\n      swap2\n      swap1\n      dup2\n      dup2\n      mstore\n      0x20\n      add\n      dup3\n      dup1\n      sload\n      tag_152\n      swap1\n      tag_104\n      jump\t// in\n    tag_152:\n      dup1\n      iszero\n      tag_153\n      jumpi\n      dup1\n      0x1f\n      lt\n      tag_154\n      jumpi\n      0x0100\n      dup1\n      dup4\n      sload\n      div\n      mul\n      dup4\n      mstore\n      swap2\n      0x20\n      add\n      swap2\n      jump(tag_153)\n    tag_154:\n      dup3\n      add\n      swap2\n      swap1\n      0x00\n      mstore\n      keccak256(0x00, 0x20)\n      swap1\n    tag_155:\n      dup2\n      sload\n      dup2\n      mstore\n      swap1\n      0x01\n      add\n      swap1\n      0x20\n      add\n      dup1\n      dup4\n      gt\n      tag_155\n      jumpi\n      dup3\n      swap1\n      sub\n      0x1f\n      and\n      dup3\n      add\n      swap2\n    tag_153:\n      pop\n      pop\n      pop\n      pop\n      pop\n      dup2\n      mstore\n      0x20\n      add\n      0x03\n      dup3\n      add\n      dup1\n      sload\n      tag_156\n      swap1\n      tag_104\n      jump\t// in\n    tag_156:\n      dup1\n      0x1f\n      add\n      0x20\n      dup1\n      swap2\n      div\n      mul\n      0x20\n      add\n      mload(0x40)\n      swap1\n      dup2\n      add\n      0x40\n      mstore\n      dup1\n      swap3\n      swap2\n      swap1\n      dup2\n      dup2\n      mstore\n      0x20\n      add\n      dup3\n      dup1\n      sload\n      tag_157\n      swap1\n      tag_104\n      jump\t// in\n    tag_157:\n      dup1\n      iszero\n      tag_158\n      jumpi\n      dup1\n      0x1f\n      lt\n      tag_159\n      jumpi\n      0x0100\n      dup1\n      dup4\n      sload\n      div\n      mul\n      dup4\n      mstore\n      swap2\n      0x20\n      add\n      swap2\n      jump(tag_158)\n    tag_159:\n      dup3\n      add\n      swap2\n      swap1\n      0x00\n      mstore\n      keccak256(0x00, 0x20)\n      swap1\n    tag_160:\n      dup2\n      sload\n      dup2\n      mstore\n      swap1\n      0x01\n      add\n      swap1\n      0x20\n      add\n      dup1\n      dup4\n      gt\n      tag_160\n      jumpi\n      dup3\n      swap1\n      sub\n      0x1f\n      and\n      dup3\n      add\n      swap2\n    tag_158:\n      pop\n      pop\n      pop\n      pop\n      pop\n      dup2\n      mstore\n      0x20\n      add\n      0x04\n      dup3\n      add\n      dup1\n      sload\n      tag_161\n      swap1\n      tag_104\n      jump\t// in\n    tag_161:\n      dup1\n      0x1f\n      add\n      0x20\n      dup1\n      swap2\n      div\n      mul\n      0x20\n      add\n      mload(0x40)\n      swap1\n      dup2\n      add\n      0x40\n      mstore\n      dup1\n      swap3\n      swap2\n      swap1\n      dup2\n      dup2\n      mstore\n      0x20\n      add\n      dup3\n      dup1\n      sload\n      tag_162\n      swap1\n      tag_104\n      jump\t// in\n    tag_162:\n      dup1\n      iszero\n      tag_163\n      jumpi\n      dup1\n      0x1f\n      lt\n      tag_164\n      jumpi\n      0x0100\n      dup1\n      dup4\n      sload\n      div\n      mul\n      dup4\n      mstore\n      swap2\n      0x20\n      add\n      swap2\n      jump(tag_163)\n    tag_164:\n      dup3\n      add\n      swap2\n      swap1\n      0x00\n      mstore\n      keccak256(0x00, 0x20)\n      swap1\n    tag_165:\n      dup2\n      sload\n      dup2\n      mstore\n      swap1\n      0x01\n      add\n      swap1\n      0x20\n      add\n      dup1\n      dup4\n      gt\n      tag_165\n      jumpi\n      dup3\n      swap1\n      sub\n      0x1f\n      and\n      dup3\n      add\n      swap2\n    tag_163:\n      pop\n      pop\n      pop\n      pop\n      pop\n      dup2\n      mstore\n      0x20\n      add\n      0x05\n      dup3\n      add\n      dup1\n      sload\n      tag_166\n      swap1\n      tag_104\n      jump\t// in\n    tag_166:\n      dup1\n      0x1f\n      add\n      0x20\n      dup1\n      swap2\n      div\n      mul\n      0x20\n      add\n      mload(0x40)\n      swap1\n      dup2\n      add\n      0x40\n      mstore\n      dup1\n      swap3\n      swap2\n      swap1\n      dup2\n      dup2\n      mstore\n      0x20\n      add\n      dup3\n      dup1\n      sload\n      tag_167\n      swap1\n      tag_104\n      jump\t// in\n    tag_167:\n      dup1\n      iszero\n      tag_168\n      jumpi\n      dup1\n      0x1f\n      lt\n      tag_169\n      jumpi\n      0x0100\n      dup1\n      dup4\n      sload\n      div\n      mul\n      dup4\n      mstore\n      swap2\n      0x20\n      add\n      swap2\n      jump(tag_168)\n    tag_169:\n      dup3\n      add\n      swap2\n      swap1\n      0x00\n      mstore\n      keccak256(0x00, 0x20)\n      swap1\n    tag_170:\n      dup2\n      sload\n      dup2\n      mstore\n      swap1\n      0x01\n      add\n      swap1\n      0x20\n      add\n      dup1\n      dup4\n      gt\n      tag_170\n      jumpi\n      dup3\n      swap1\n      sub\n      0x1f\n      and\n      dup3\n      add\n      swap2\n    tag_168:\n      pop\n      pop\n      pop\n      pop\n      pop\n      dup2\n      mstore\n      0x20\n      add\n      0x06\n      dup3\n      add\n      0x00\n      swap1\n      sload\n      swap1\n      0x0100\n      exp\n      swap1\n      div\n      0xff\n      and\n      0xff\n      and\n      0xff\n      and\n      dup2\n      mstore\n      0x20\n      add\n      0x07\n      dup3\n      add\n      sload\n      dup2\n      mstore\n      0x20\n      add\n      0x08\n      dup3\n      add\n      sload\n      dup2\n      mstore\n      pop\n      pop\n      swap2\n      pop\n      swap3\n      pop\n      swap3\n      pop\n        /* \"contracts/ViewQuiz.sol\":1100:1339  function quizOwnerGetQuiz(uint _quizId) public view onlyQuizOwner(_quizId) returns (Quiz memory, uint8) {... */\n      pop\n      swap2\n      pop\n      swap2\n      jump\t// out\n        /* \"contracts/Ownable.sol\":1911:2109  function transferOwnership(address newOwner) public virtual onlyOwner {... */\n    tag_62:\n        /* \"contracts/Ownable.sol\":1252:1264  _msgSender() */\n      tag_172\n        /* \"contracts/Ownable.sol\":1252:1262  _msgSender */\n      tag_70\n        /* \"contracts/Ownable.sol\":1252:1264  _msgSender() */\n      jump\t// in\n    tag_172:\n        /* \"contracts/Ownable.sol\":1241:1264  owner() == _msgSender() */\n      0xffffffffffffffffffffffffffffffffffffffff\n      and\n        /* \"contracts/Ownable.sol\":1241:1248  owner() */\n      tag_173\n        /* \"contracts/Ownable.sol\":1241:1246  owner */\n      tag_41\n        /* \"contracts/Ownable.sol\":1241:1248  owner() */\n      jump\t// in\n    tag_173:\n        /* \"contracts/Ownable.sol\":1241:1264  owner() == _msgSender() */\n      0xffffffffffffffffffffffffffffffffffffffff\n      and\n      eq\n        /* \"contracts/Ownable.sol\":1233:1301  require(owner() == _msgSender(), \"Ownable: caller is not the owner\") */\n      tag_174\n      jumpi\n      mload(0x40)\n      0x08c379a000000000000000000000000000000000000000000000000000000000\n      dup2\n      mstore\n      0x04\n      add\n      tag_175\n      swap1\n      tag_74\n      jump\t// in\n    tag_175:\n      mload(0x40)\n      dup1\n      swap2\n      sub\n      swap1\n      revert\n    tag_174:\n        /* \"contracts/Ownable.sol\":2019:2020  0 */\n      0x00\n        /* \"contracts/Ownable.sol\":1999:2021  newOwner != address(0) */\n      0xffffffffffffffffffffffffffffffffffffffff\n      and\n        /* \"contracts/Ownable.sol\":1999:2007  newOwner */\n      dup2\n        /* \"contracts/Ownable.sol\":1999:2021  newOwner != address(0) */\n      0xffffffffffffffffffffffffffffffffffffffff\n      and\n      sub\n        /* \"contracts/Ownable.sol\":1991:2064  require(newOwner != address(0), \"Ownable: new owner is the zero address\") */\n      tag_177\n      jumpi\n      mload(0x40)\n      0x08c379a000000000000000000000000000000000000000000000000000000000\n      dup2\n      mstore\n      0x04\n      add\n      tag_178\n      swap1\n      tag_179\n      jump\t// in\n    tag_178:\n      mload(0x40)\n      dup1\n      swap2\n      sub\n      swap1\n      revert\n    tag_177:\n        /* \"contracts/Ownable.sol\":2074:2102  _transferOwnership(newOwner) */\n      tag_180\n        /* \"contracts/Ownable.sol\":2093:2101  newOwner */\n      dup2\n        /* \"contracts/Ownable.sol\":2074:2092  _transferOwnership */\n      tag_86\n        /* \"contracts/Ownable.sol\":2074:2102  _transferOwnership(newOwner) */\n      jump\t// in\n    tag_180:\n        /* \"contracts/Ownable.sol\":1911:2109  function transferOwnership(address newOwner) public virtual onlyOwner {... */\n      pop\n      jump\t// out\n        /* \"contracts/CreateQuiz.sol\":2152:2292  function quizOwnerChangeHint(uint _quizId, string memory _hint) public onlyQuizOwner(_quizId) {... */\n    tag_67:\n        /* \"contracts/CreateQuiz.sol\":2237:2244  _quizId */\n      dup2\n        /* \"contracts/CreateQuiz.sol\":674:684  msg.sender */\n      caller\n        /* \"contracts/CreateQuiz.sol\":652:684  quizOwner[_quizId] == msg.sender */\n      0xffffffffffffffffffffffffffffffffffffffff\n      and\n        /* \"contracts/CreateQuiz.sol\":652:661  quizOwner */\n      0x04\n        /* \"contracts/CreateQuiz.sol\":652:670  quizOwner[_quizId] */\n      0x00\n        /* \"contracts/CreateQuiz.sol\":662:669  _quizId */\n      dup4\n        /* \"contracts/CreateQuiz.sol\":652:670  quizOwner[_quizId] */\n      dup2\n      mstore\n      0x20\n      add\n      swap1\n      dup2\n      mstore\n      0x20\n      add\n      0x00\n      keccak256\n      0x00\n      swap1\n      sload\n      swap1\n      0x0100\n      exp\n      swap1\n      div\n      0xffffffffffffffffffffffffffffffffffffffff\n      and\n        /* \"contracts/CreateQuiz.sol\":652:684  quizOwner[_quizId] == msg.sender */\n      0xffffffffffffffffffffffffffffffffffffffff\n      and\n      eq\n        /* \"contracts/CreateQuiz.sol\":644:685  require(quizOwner[_quizId] == msg.sender) */\n      tag_182\n      jumpi\n      0x00\n      dup1\n      revert\n    tag_182:\n        /* \"contracts/CreateQuiz.sol\":2280:2285  _hint */\n      dup2\n        /* \"contracts/CreateQuiz.sol\":2256:2263  quizzes */\n      0x01\n        /* \"contracts/CreateQuiz.sol\":2264:2271  _quizId */\n      dup5\n        /* \"contracts/CreateQuiz.sol\":2256:2272  quizzes[_quizId] */\n      dup2\n      sload\n      dup2\n      lt\n      tag_184\n      jumpi\n      tag_185\n      tag_101\n      jump\t// in\n    tag_185:\n    tag_184:\n      swap1\n      0x00\n      mstore\n      keccak256(0x00, 0x20)\n      swap1\n      0x09\n      mul\n      add\n        /* \"contracts/CreateQuiz.sol\":2256:2277  quizzes[_quizId].hint */\n      0x05\n      add\n        /* \"contracts/CreateQuiz.sol\":2256:2285  quizzes[_quizId].hint = _hint */\n      swap1\n      dup1\n      mload\n      swap1\n      0x20\n      add\n      swap1\n      tag_187\n      swap3\n      swap2\n      swap1\n      tag_188\n      jump\t// in\n    tag_187:\n      pop\n        /* \"contracts/CreateQuiz.sol\":2152:2292  function quizOwnerChangeHint(uint _quizId, string memory _hint) public onlyQuizOwner(_quizId) {... */\n      pop\n      pop\n      pop\n      jump\t// out\n        /* \"contracts/Context.sol\":640:736  function _msgSender() internal view virtual returns (address) {... */\n    tag_70:\n        /* \"contracts/Context.sol\":693:700  address */\n      0x00\n        /* \"contracts/Context.sol\":719:729  msg.sender */\n      caller\n        /* \"contracts/Context.sol\":712:729  return msg.sender */\n      swap1\n      pop\n        /* \"contracts/Context.sol\":640:736  function _msgSender() internal view virtual returns (address) {... */\n      swap1\n      jump\t// out\n        /* \"contracts/Ownable.sol\":2263:2450  function _transferOwnership(address newOwner) internal virtual {... */\n    tag_86:\n        /* \"contracts/Ownable.sol\":2336:2352  address oldOwner */\n      0x00\n        /* \"contracts/Ownable.sol\":2355:2361  _owner */\n      dup1\n      0x00\n      swap1\n      sload\n      swap1\n      0x0100\n      exp\n      swap1\n      div\n      0xffffffffffffffffffffffffffffffffffffffff\n      and\n        /* \"contracts/Ownable.sol\":2336:2361  address oldOwner = _owner */\n      swap1\n      pop\n        /* \"contracts/Ownable.sol\":2380:2388  newOwner */\n      dup2\n        /* \"contracts/Ownable.sol\":2371:2377  _owner */\n      0x00\n      dup1\n        /* \"contracts/Ownable.sol\":2371:2388  _owner = newOwner */\n      0x0100\n      exp\n      dup2\n      sload\n      dup2\n      0xffffffffffffffffffffffffffffffffffffffff\n      mul\n      not\n      and\n      swap1\n      dup4\n      0xffffffffffffffffffffffffffffffffffffffff\n      and\n      mul\n      or\n      swap1\n      sstore\n      pop\n        /* \"contracts/Ownable.sol\":2434:2442  newOwner */\n      dup2\n        /* \"contracts/Ownable.sol\":2403:2443  OwnershipTransferred(oldOwner, newOwner) */\n      0xffffffffffffffffffffffffffffffffffffffff\n      and\n        /* \"contracts/Ownable.sol\":2424:2432  oldOwner */\n      dup2\n        /* \"contracts/Ownable.sol\":2403:2443  OwnershipTransferred(oldOwner, newOwner) */\n      0xffffffffffffffffffffffffffffffffffffffff\n      and\n      0x8be0079c531659141344cd1fd0a4f28419497f9722a3daafe3b4186f6b6457e0\n      mload(0x40)\n      mload(0x40)\n      dup1\n      swap2\n      sub\n      swap1\n      log3\n        /* \"contracts/Ownable.sol\":2326:2450  {... */\n      pop\n        /* \"contracts/Ownable.sol\":2263:2450  function _transferOwnership(address newOwner) internal virtual {... */\n      pop\n      jump\t// out\n        /* \"contracts/CreateQuiz.sol\":781:1333  function _createQuiz(string memory _question, string memory _choice1, string memory _choice2, string memory _choice3, string memory _choice4, string memory _hint, uint8 _answer, uint8 _languageCode, uint _reward, uint _rewardPool) private {... */\n    tag_95:\n        /* \"contracts/CreateQuiz.sol\":1030:1037  quizzes */\n      0x01\n        /* \"contracts/CreateQuiz.sol\":1043:1142  Quiz(_question, _choice1, _choice2, _choice3, _choice4, _hint, _languageCode, _reward, _rewardPool) */\n      mload(0x40)\n      dup1\n      0x0120\n      add\n      0x40\n      mstore\n      dup1\n        /* \"contracts/CreateQuiz.sol\":1048:1057  _question */\n      dup13\n        /* \"contracts/CreateQuiz.sol\":1043:1142  Quiz(_question, _choice1, _choice2, _choice3, _choice4, _hint, _languageCode, _reward, _rewardPool) */\n      dup2\n      mstore\n      0x20\n      add\n        /* \"contracts/CreateQuiz.sol\":1059:1067  _choice1 */\n      dup12\n        /* \"contracts/CreateQuiz.sol\":1043:1142  Quiz(_question, _choice1, _choice2, _choice3, _choice4, _hint, _languageCode, _reward, _rewardPool) */\n      dup2\n      mstore\n      0x20\n      add\n        /* \"contracts/CreateQuiz.sol\":1069:1077  _choice2 */\n      dup11\n        /* \"contracts/CreateQuiz.sol\":1043:1142  Quiz(_question, _choice1, _choice2, _choice3, _choice4, _hint, _languageCode, _reward, _rewardPool) */\n      dup2\n      mstore\n      0x20\n      add\n        /* \"contracts/CreateQuiz.sol\":1079:1087  _choice3 */\n      dup10\n        /* \"contracts/CreateQuiz.sol\":1043:1142  Quiz(_question, _choice1, _choice2, _choice3, _choice4, _hint, _languageCode, _reward, _rewardPool) */\n      dup2\n      mstore\n      0x20\n      add\n        /* \"contracts/CreateQuiz.sol\":1089:1097  _choice4 */\n      dup9\n        /* \"contracts/CreateQuiz.sol\":1043:1142  Quiz(_question, _choice1, _choice2, _choice3, _choice4, _hint, _languageCode, _reward, _rewardPool) */\n      dup2\n      mstore\n      0x20\n      add\n        /* \"contracts/CreateQuiz.sol\":1099:1104  _hint */\n      dup8\n        /* \"contracts/CreateQuiz.sol\":1043:1142  Quiz(_question, _choice1, _choice2, _choice3, _choice4, _hint, _languageCode, _reward, _rewardPool) */\n      dup2\n      mstore\n      0x20\n      add\n        /* \"contracts/CreateQuiz.sol\":1106:1119  _languageCode */\n      dup6\n        /* \"contracts/CreateQuiz.sol\":1043:1142  Quiz(_question, _choice1, _choice2, _choice3, _choice4, _hint, _languageCode, _reward, _rewardPool) */\n      0xff\n      and\n      dup2\n      mstore\n      0x20\n      add\n        /* \"contracts/CreateQuiz.sol\":1121:1128  _reward */\n      dup5\n        /* \"contracts/CreateQuiz.sol\":1043:1142  Quiz(_question, _choice1, _choice2, _choice3, _choice4, _hint, _languageCode, _reward, _rewardPool) */\n      dup2\n      mstore\n      0x20\n      add\n        /* \"contracts/CreateQuiz.sol\":1130:1141  _rewardPool */\n      dup4\n        /* \"contracts/CreateQuiz.sol\":1043:1142  Quiz(_question, _choice1, _choice2, _choice3, _choice4, _hint, _languageCode, _reward, _rewardPool) */\n      dup2\n      mstore\n      pop\n        /* \"contracts/CreateQuiz.sol\":1030:1143  quizzes.push(Quiz(_question, _choice1, _choice2, _choice3, _choice4, _hint, _languageCode, _reward, _rewardPool)) */\n      swap1\n      dup1\n      0x01\n      dup2\n      sload\n      add\n      dup1\n      dup3\n      sstore\n      dup1\n      swap2\n      pop\n      pop\n      0x01\n      swap1\n      sub\n      swap1\n      0x00\n      mstore\n      keccak256(0x00, 0x20)\n      swap1\n      0x09\n      mul\n      add\n      0x00\n      swap1\n      swap2\n      swap1\n      swap2\n      swap1\n      swap2\n      pop\n      0x00\n      dup3\n      add\n      mload\n      dup2\n      0x00\n      add\n      swap1\n      dup1\n      mload\n      swap1\n      0x20\n      add\n      swap1\n      tag_193\n      swap3\n      swap2\n      swap1\n      tag_188\n      jump\t// in\n    tag_193:\n      pop\n      0x20\n      dup3\n      add\n      mload\n      dup2\n      0x01\n      add\n      swap1\n      dup1\n      mload\n      swap1\n      0x20\n      add\n      swap1\n      tag_194\n      swap3\n      swap2\n      swap1\n      tag_188\n      jump\t// in\n    tag_194:\n      pop\n      0x40\n      dup3\n      add\n      mload\n      dup2\n      0x02\n      add\n      swap1\n      dup1\n      mload\n      swap1\n      0x20\n      add\n      swap1\n      tag_195\n      swap3\n      swap2\n      swap1\n      tag_188\n      jump\t// in\n    tag_195:\n      pop\n      0x60\n      dup3\n      add\n      mload\n      dup2\n      0x03\n      add\n      swap1\n      dup1\n      mload\n      swap1\n      0x20\n      add\n      swap1\n      tag_196\n      swap3\n      swap2\n      swap1\n      tag_188\n      jump\t// in\n    tag_196:\n      pop\n      0x80\n      dup3\n      add\n      mload\n      dup2\n      0x04\n      add\n      swap1\n      dup1\n      mload\n      swap1\n      0x20\n      add\n      swap1\n      tag_197\n      swap3\n      swap2\n      swap1\n      tag_188\n      jump\t// in\n    tag_197:\n      pop\n      0xa0\n      dup3\n      add\n      mload\n      dup2\n      0x05\n      add\n      swap1\n      dup1\n      mload\n      swap1\n      0x20\n      add\n      swap1\n      tag_198\n      swap3\n      swap2\n      swap1\n      tag_188\n      jump\t// in\n    tag_198:\n      pop\n      0xc0\n      dup3\n      add\n      mload\n      dup2\n      0x06\n      add\n      exp(0x0100, 0x00)\n      dup2\n      sload\n      dup2\n      0xff\n      mul\n      not\n      and\n      swap1\n      dup4\n      0xff\n      and\n      mul\n      or\n      swap1\n      sstore\n      pop\n      0xe0\n      dup3\n      add\n      mload\n      dup2\n      0x07\n      add\n      sstore\n      0x0100\n      dup3\n      add\n      mload\n      dup2\n      0x08\n      add\n      sstore\n      pop\n      pop\n        /* \"contracts/CreateQuiz.sol\":1153:1160  uint id */\n      0x00\n        /* \"contracts/CreateQuiz.sol\":1180:1181  1 */\n      0x01\n        /* \"contracts/CreateQuiz.sol\":1163:1170  quizzes */\n      dup1\n        /* \"contracts/CreateQuiz.sol\":1163:1177  quizzes.length */\n      dup1\n      sload\n      swap1\n      pop\n        /* \"contracts/CreateQuiz.sol\":1163:1181  quizzes.length - 1 */\n      tag_199\n      swap2\n      swap1\n      tag_200\n      jump\t// in\n    tag_199:\n        /* \"contracts/CreateQuiz.sol\":1153:1181  uint id = quizzes.length - 1 */\n      swap1\n      pop\n        /* \"contracts/CreateQuiz.sol\":1208:1215  _answer */\n      dup5\n        /* \"contracts/CreateQuiz.sol\":1191:1201  quizAnswer */\n      0x03\n        /* \"contracts/CreateQuiz.sol\":1191:1205  quizAnswer[id] */\n      0x00\n        /* \"contracts/CreateQuiz.sol\":1202:1204  id */\n      dup4\n        /* \"contracts/CreateQuiz.sol\":1191:1205  quizAnswer[id] */\n      dup2\n      mstore\n      0x20\n      add\n      swap1\n      dup2\n      mstore\n      0x20\n      add\n      0x00\n      keccak256\n      0x00\n        /* \"contracts/CreateQuiz.sol\":1191:1215  quizAnswer[id] = _answer */\n      0x0100\n      exp\n      dup2\n      sload\n      dup2\n      0xff\n      mul\n      not\n      and\n      swap1\n      dup4\n      0xff\n      and\n      mul\n      or\n      swap1\n      sstore\n      pop\n        /* \"contracts/CreateQuiz.sol\":1241:1251  msg.sender */\n      caller\n        /* \"contracts/CreateQuiz.sol\":1225:1234  quizOwner */\n      0x04\n        /* \"contracts/CreateQuiz.sol\":1225:1238  quizOwner[id] */\n      0x00\n        /* \"contracts/CreateQuiz.sol\":1235:1237  id */\n      dup4\n        /* \"contracts/CreateQuiz.sol\":1225:1238  quizOwner[id] */\n      dup2\n      mstore\n      0x20\n      add\n      swap1\n      dup2\n      mstore\n      0x20\n      add\n      0x00\n      keccak256\n      0x00\n        /* \"contracts/CreateQuiz.sol\":1225:1251  quizOwner[id] = msg.sender */\n      0x0100\n      exp\n      dup2\n      sload\n      dup2\n      0xffffffffffffffffffffffffffffffffffffffff\n      mul\n      not\n      and\n      swap1\n      dup4\n      0xffffffffffffffffffffffffffffffffffffffff\n      and\n      mul\n      or\n      swap1\n      sstore\n      pop\n        /* \"contracts/CreateQuiz.sol\":1280:1284  true */\n      0x01\n        /* \"contracts/CreateQuiz.sol\":1261:1273  quizIsActive */\n      0x02\n        /* \"contracts/CreateQuiz.sol\":1261:1277  quizIsActive[id] */\n      0x00\n        /* \"contracts/CreateQuiz.sol\":1274:1276  id */\n      dup4\n        /* \"contracts/CreateQuiz.sol\":1261:1277  quizIsActive[id] */\n      dup2\n      mstore\n      0x20\n      add\n      swap1\n      dup2\n      mstore\n      0x20\n      add\n      0x00\n      keccak256\n      0x00\n        /* \"contracts/CreateQuiz.sol\":1261:1284  quizIsActive[id] = true */\n      0x0100\n      exp\n      dup2\n      sload\n      dup2\n      0xff\n      mul\n      not\n      and\n      swap1\n      dup4\n      iszero\n      iszero\n      mul\n      or\n      swap1\n      sstore\n      pop\n        /* \"contracts/CreateQuiz.sol\":1299:1326  NewQuiz(_question, _answer) */\n      0x545dca5d847b655a9f03cdf5619f53f0b2546051fd0d015b18c09ae2a8b1a765\n        /* \"contracts/CreateQuiz.sol\":1307:1316  _question */\n      dup12\n        /* \"contracts/CreateQuiz.sol\":1318:1325  _answer */\n      dup7\n        /* \"contracts/CreateQuiz.sol\":1299:1326  NewQuiz(_question, _answer) */\n      mload(0x40)\n      tag_201\n      swap3\n      swap2\n      swap1\n      tag_202\n      jump\t// in\n    tag_201:\n      mload(0x40)\n      dup1\n      swap2\n      sub\n      swap1\n      log1\n        /* \"contracts/CreateQuiz.sol\":1020:1333  {... */\n      pop\n        /* \"contracts/CreateQuiz.sol\":781:1333  function _createQuiz(string memory _question, string memory _choice1, string memory _choice2, string memory _choice3, string memory _choice4, string memory _hint, uint8 _answer, uint8 _languageCode, uint _reward, uint _rewardPool) private {... */\n      pop\n      pop\n      pop\n      pop\n      pop\n      pop\n      pop\n      pop\n      pop\n      pop\n      jump\t// out\n    tag_97:\n      mload(0x40)\n      dup1\n      0x0120\n      add\n      0x40\n      mstore\n      dup1\n      0x60\n      dup2\n      mstore\n      0x20\n      add\n      0x60\n      dup2\n      mstore\n      0x20\n      add\n      0x60\n      dup2\n      mstore\n      0x20\n      add\n      0x60\n      dup2\n      mstore\n      0x20\n      add\n      0x60\n      dup2\n      mstore\n      0x20\n      add\n      0x60\n      dup2\n      mstore\n      0x20\n      add\n      and(0xff, 0x00)\n      dup2\n      mstore\n      0x20\n      add\n      0x00\n      dup2\n      mstore\n      0x20\n      add\n      0x00\n      dup2\n      mstore\n      pop\n      swap1\n      jump\t// out\n    tag_188:\n      dup3\n      dup1\n      sload\n      tag_203\n      swap1\n      tag_104\n      jump\t// in\n    tag_203:\n      swap1\n      0x00\n      mstore\n      keccak256(0x00, 0x20)\n      swap1\n      0x1f\n      add\n      0x20\n      swap1\n      div\n      dup2\n      add\n      swap3\n      dup3\n      tag_205\n      jumpi\n      0x00\n      dup6\n      sstore\n      jump(tag_204)\n    tag_205:\n      dup3\n      0x1f\n      lt\n      tag_206\n      jumpi\n      dup1\n      mload\n      not(0xff)\n      and\n      dup4\n      dup1\n      add\n      or\n      dup6\n      sstore\n      jump(tag_204)\n    tag_206:\n      dup3\n      dup1\n      add\n      0x01\n      add\n      dup6\n      sstore\n      dup3\n      iszero\n      tag_204\n      jumpi\n      swap2\n      dup3\n      add\n    tag_207:\n      dup3\n      dup2\n      gt\n      iszero\n      tag_208\n      jumpi\n      dup3\n      mload\n      dup3\n      sstore\n      swap2\n      0x20\n      add\n      swap2\n      swap1\n      0x01\n      add\n      swap1\n      jump(tag_207)\n    tag_208:\n    tag_204:\n      pop\n      swap1\n      pop\n      tag_209\n      swap2\n      swap1\n      tag_210\n      jump\t// in\n    tag_209:\n      pop\n      swap1\n      jump\t// out\n    tag_210:\n    tag_211:\n      dup1\n      dup3\n      gt\n      iszero\n      tag_212\n      jumpi\n      0x00\n      dup2\n      0x00\n      swap1\n      sstore\n      pop\n      0x01\n      add\n      jump(tag_211)\n    tag_212:\n      pop\n      swap1\n      jump\t// out\n        /* \"#utility.yul\":7:82   */\n    tag_213:\n        /* \"#utility.yul\":40:46   */\n      0x00\n        /* \"#utility.yul\":73:75   */\n      0x40\n        /* \"#utility.yul\":67:76   */\n      mload\n        /* \"#utility.yul\":57:76   */\n      swap1\n      pop\n        /* \"#utility.yul\":7:82   */\n      swap1\n      jump\t// out\n        /* \"#utility.yul\":88:205   */\n    tag_214:\n        /* \"#utility.yul\":197:198   */\n      0x00\n        /* \"#utility.yul\":194:195   */\n      dup1\n        /* \"#utility.yul\":187:199   */\n      revert\n        /* \"#utility.yul\":211:328   */\n    tag_215:\n        /* \"#utility.yul\":320:321   */\n      0x00\n        /* \"#utility.yul\":317:318   */\n      dup1\n        /* \"#utility.yul\":310:322   */\n      revert\n        /* \"#utility.yul\":334:411   */\n    tag_216:\n        /* \"#utility.yul\":371:378   */\n      0x00\n        /* \"#utility.yul\":400:405   */\n      dup2\n        /* \"#utility.yul\":389:405   */\n      swap1\n      pop\n        /* \"#utility.yul\":334:411   */\n      swap2\n      swap1\n      pop\n      jump\t// out\n        /* \"#utility.yul\":417:539   */\n    tag_217:\n        /* \"#utility.yul\":490:514   */\n      tag_264\n        /* \"#utility.yul\":508:513   */\n      dup2\n        /* \"#utility.yul\":490:514   */\n      tag_216\n      jump\t// in\n    tag_264:\n        /* \"#utility.yul\":483:488   */\n      dup2\n        /* \"#utility.yul\":480:515   */\n      eq\n        /* \"#utility.yul\":470:533   */\n      tag_265\n      jumpi\n        /* \"#utility.yul\":529:530   */\n      0x00\n        /* \"#utility.yul\":526:527   */\n      dup1\n        /* \"#utility.yul\":519:531   */\n      revert\n        /* \"#utility.yul\":470:533   */\n    tag_265:\n        /* \"#utility.yul\":417:539   */\n      pop\n      jump\t// out\n        /* \"#utility.yul\":545:684   */\n    tag_218:\n        /* \"#utility.yul\":591:596   */\n      0x00\n        /* \"#utility.yul\":629:635   */\n      dup2\n        /* \"#utility.yul\":616:636   */\n      calldataload\n        /* \"#utility.yul\":607:636   */\n      swap1\n      pop\n        /* \"#utility.yul\":645:678   */\n      tag_267\n        /* \"#utility.yul\":672:677   */\n      dup2\n        /* \"#utility.yul\":645:678   */\n      tag_217\n      jump\t// in\n    tag_267:\n        /* \"#utility.yul\":545:684   */\n      swap3\n      swap2\n      pop\n      pop\n      jump\t// out\n        /* \"#utility.yul\":690:780   */\n    tag_219:\n        /* \"#utility.yul\":724:731   */\n      0x00\n        /* \"#utility.yul\":767:772   */\n      dup2\n        /* \"#utility.yul\":760:773   */\n      iszero\n        /* \"#utility.yul\":753:774   */\n      iszero\n        /* \"#utility.yul\":742:774   */\n      swap1\n      pop\n        /* \"#utility.yul\":690:780   */\n      swap2\n      swap1\n      pop\n      jump\t// out\n        /* \"#utility.yul\":786:902   */\n    tag_220:\n        /* \"#utility.yul\":856:877   */\n      tag_270\n        /* \"#utility.yul\":871:876   */\n      dup2\n        /* \"#utility.yul\":856:877   */\n      tag_219\n      jump\t// in\n    tag_270:\n        /* \"#utility.yul\":849:854   */\n      dup2\n        /* \"#utility.yul\":846:878   */\n      eq\n        /* \"#utility.yul\":836:896   */\n      tag_271\n      jumpi\n        /* \"#utility.yul\":892:893   */\n      0x00\n        /* \"#utility.yul\":889:890   */\n      dup1\n        /* \"#utility.yul\":882:894   */\n      revert\n        /* \"#utility.yul\":836:896   */\n    tag_271:\n        /* \"#utility.yul\":786:902   */\n      pop\n      jump\t// out\n        /* \"#utility.yul\":908:1041   */\n    tag_221:\n        /* \"#utility.yul\":951:956   */\n      0x00\n        /* \"#utility.yul\":989:995   */\n      dup2\n        /* \"#utility.yul\":976:996   */\n      calldataload\n        /* \"#utility.yul\":967:996   */\n      swap1\n      pop\n        /* \"#utility.yul\":1005:1035   */\n      tag_273\n        /* \"#utility.yul\":1029:1034   */\n      dup2\n        /* \"#utility.yul\":1005:1035   */\n      tag_220\n      jump\t// in\n    tag_273:\n        /* \"#utility.yul\":908:1041   */\n      swap3\n      swap2\n      pop\n      pop\n      jump\t// out\n        /* \"#utility.yul\":1047:1515   */\n    tag_17:\n        /* \"#utility.yul\":1112:1118   */\n      0x00\n        /* \"#utility.yul\":1120:1126   */\n      dup1\n        /* \"#utility.yul\":1169:1171   */\n      0x40\n        /* \"#utility.yul\":1157:1166   */\n      dup4\n        /* \"#utility.yul\":1148:1155   */\n      dup6\n        /* \"#utility.yul\":1144:1167   */\n      sub\n        /* \"#utility.yul\":1140:1172   */\n      slt\n        /* \"#utility.yul\":1137:1256   */\n      iszero\n      tag_275\n      jumpi\n        /* \"#utility.yul\":1175:1254   */\n      tag_276\n      tag_214\n      jump\t// in\n    tag_276:\n        /* \"#utility.yul\":1137:1256   */\n    tag_275:\n        /* \"#utility.yul\":1295:1296   */\n      0x00\n        /* \"#utility.yul\":1320:1373   */\n      tag_277\n        /* \"#utility.yul\":1365:1372   */\n      dup6\n        /* \"#utility.yul\":1356:1362   */\n      dup3\n        /* \"#utility.yul\":1345:1354   */\n      dup7\n        /* \"#utility.yul\":1341:1363   */\n      add\n        /* \"#utility.yul\":1320:1373   */\n      tag_218\n      jump\t// in\n    tag_277:\n        /* \"#utility.yul\":1310:1373   */\n      swap3\n      pop\n        /* \"#utility.yul\":1266:1383   */\n      pop\n        /* \"#utility.yul\":1422:1424   */\n      0x20\n        /* \"#utility.yul\":1448:1498   */\n      tag_278\n        /* \"#utility.yul\":1490:1497   */\n      dup6\n        /* \"#utility.yul\":1481:1487   */\n      dup3\n        /* \"#utility.yul\":1470:1479   */\n      dup7\n        /* \"#utility.yul\":1466:1488   */\n      add\n        /* \"#utility.yul\":1448:1498   */\n      tag_221\n      jump\t// in\n    tag_278:\n        /* \"#utility.yul\":1438:1498   */\n      swap2\n      pop\n        /* \"#utility.yul\":1393:1508   */\n      pop\n        /* \"#utility.yul\":1047:1515   */\n      swap3\n      pop\n      swap3\n      swap1\n      pop\n      jump\t// out\n        /* \"#utility.yul\":1521:1850   */\n    tag_26:\n        /* \"#utility.yul\":1580:1586   */\n      0x00\n        /* \"#utility.yul\":1629:1631   */\n      0x20\n        /* \"#utility.yul\":1617:1626   */\n      dup3\n        /* \"#utility.yul\":1608:1615   */\n      dup5\n        /* \"#utility.yul\":1604:1627   */\n      sub\n        /* \"#utility.yul\":1600:1632   */\n      slt\n        /* \"#utility.yul\":1597:1716   */\n      iszero\n      tag_280\n      jumpi\n        /* \"#utility.yul\":1635:1714   */\n      tag_281\n      tag_214\n      jump\t// in\n    tag_281:\n        /* \"#utility.yul\":1597:1716   */\n    tag_280:\n        /* \"#utility.yul\":1755:1756   */\n      0x00\n        /* \"#utility.yul\":1780:1833   */\n      tag_282\n        /* \"#utility.yul\":1825:1832   */\n      dup5\n        /* \"#utility.yul\":1816:1822   */\n      dup3\n        /* \"#utility.yul\":1805:1814   */\n      dup6\n        /* \"#utility.yul\":1801:1823   */\n      add\n        /* \"#utility.yul\":1780:1833   */\n      tag_218\n      jump\t// in\n    tag_282:\n        /* \"#utility.yul\":1770:1833   */\n      swap2\n      pop\n        /* \"#utility.yul\":1726:1843   */\n      pop\n        /* \"#utility.yul\":1521:1850   */\n      swap3\n      swap2\n      pop\n      pop\n      jump\t// out\n        /* \"#utility.yul\":1856:1982   */\n    tag_222:\n        /* \"#utility.yul\":1893:1900   */\n      0x00\n        /* \"#utility.yul\":1933:1975   */\n      0xffffffffffffffffffffffffffffffffffffffff\n        /* \"#utility.yul\":1926:1931   */\n      dup3\n        /* \"#utility.yul\":1922:1976   */\n      and\n        /* \"#utility.yul\":1911:1976   */\n      swap1\n      pop\n        /* \"#utility.yul\":1856:1982   */\n      swap2\n      swap1\n      pop\n      jump\t// out\n        /* \"#utility.yul\":1988:2084   */\n    tag_223:\n        /* \"#utility.yul\":2025:2032   */\n      0x00\n        /* \"#utility.yul\":2054:2078   */\n      tag_285\n        /* \"#utility.yul\":2072:2077   */\n      dup3\n        /* \"#utility.yul\":2054:2078   */\n      tag_222\n      jump\t// in\n    tag_285:\n        /* \"#utility.yul\":2043:2078   */\n      swap1\n      pop\n        /* \"#utility.yul\":1988:2084   */\n      swap2\n      swap1\n      pop\n      jump\t// out\n        /* \"#utility.yul\":2090:2208   */\n    tag_224:\n        /* \"#utility.yul\":2177:2201   */\n      tag_287\n        /* \"#utility.yul\":2195:2200   */\n      dup2\n        /* \"#utility.yul\":2177:2201   */\n      tag_223\n      jump\t// in\n    tag_287:\n        /* \"#utility.yul\":2172:2175   */\n      dup3\n        /* \"#utility.yul\":2165:2202   */\n      mstore\n        /* \"#utility.yul\":2090:2208   */\n      pop\n      pop\n      jump\t// out\n        /* \"#utility.yul\":2214:2436   */\n    tag_29:\n        /* \"#utility.yul\":2307:2311   */\n      0x00\n        /* \"#utility.yul\":2345:2347   */\n      0x20\n        /* \"#utility.yul\":2334:2343   */\n      dup3\n        /* \"#utility.yul\":2330:2348   */\n      add\n        /* \"#utility.yul\":2322:2348   */\n      swap1\n      pop\n        /* \"#utility.yul\":2358:2429   */\n      tag_289\n        /* \"#utility.yul\":2426:2427   */\n      0x00\n        /* \"#utility.yul\":2415:2424   */\n      dup4\n        /* \"#utility.yul\":2411:2428   */\n      add\n        /* \"#utility.yul\":2402:2408   */\n      dup5\n        /* \"#utility.yul\":2358:2429   */\n      tag_224\n      jump\t// in\n    tag_289:\n        /* \"#utility.yul\":2214:2436   */\n      swap3\n      swap2\n      pop\n      pop\n      jump\t// out\n        /* \"#utility.yul\":2442:2551   */\n    tag_225:\n        /* \"#utility.yul\":2523:2544   */\n      tag_291\n        /* \"#utility.yul\":2538:2543   */\n      dup2\n        /* \"#utility.yul\":2523:2544   */\n      tag_219\n      jump\t// in\n    tag_291:\n        /* \"#utility.yul\":2518:2521   */\n      dup3\n        /* \"#utility.yul\":2511:2545   */\n      mstore\n        /* \"#utility.yul\":2442:2551   */\n      pop\n      pop\n      jump\t// out\n        /* \"#utility.yul\":2557:2767   */\n    tag_35:\n        /* \"#utility.yul\":2644:2648   */\n      0x00\n        /* \"#utility.yul\":2682:2684   */\n      0x20\n        /* \"#utility.yul\":2671:2680   */\n      dup3\n        /* \"#utility.yul\":2667:2685   */\n      add\n        /* \"#utility.yul\":2659:2685   */\n      swap1\n      pop\n        /* \"#utility.yul\":2695:2760   */\n      tag_293\n        /* \"#utility.yul\":2757:2758   */\n      0x00\n        /* \"#utility.yul\":2746:2755   */\n      dup4\n        /* \"#utility.yul\":2742:2759   */\n      add\n        /* \"#utility.yul\":2733:2739   */\n      dup5\n        /* \"#utility.yul\":2695:2760   */\n      tag_225\n      jump\t// in\n    tag_293:\n        /* \"#utility.yul\":2557:2767   */\n      swap3\n      swap2\n      pop\n      pop\n      jump\t// out\n        /* \"#utility.yul\":2773:2890   */\n    tag_226:\n        /* \"#utility.yul\":2882:2883   */\n      0x00\n        /* \"#utility.yul\":2879:2880   */\n      dup1\n        /* \"#utility.yul\":2872:2884   */\n      revert\n        /* \"#utility.yul\":2896:3013   */\n    tag_227:\n        /* \"#utility.yul\":3005:3006   */\n      0x00\n        /* \"#utility.yul\":3002:3003   */\n      dup1\n        /* \"#utility.yul\":2995:3007   */\n      revert\n        /* \"#utility.yul\":3019:3121   */\n    tag_228:\n        /* \"#utility.yul\":3060:3066   */\n      0x00\n        /* \"#utility.yul\":3111:3113   */\n      0x1f\n        /* \"#utility.yul\":3107:3114   */\n      not\n        /* \"#utility.yul\":3102:3104   */\n      0x1f\n        /* \"#utility.yul\":3095:3100   */\n      dup4\n        /* \"#utility.yul\":3091:3105   */\n      add\n        /* \"#utility.yul\":3087:3115   */\n      and\n        /* \"#utility.yul\":3077:3115   */\n      swap1\n      pop\n        /* \"#utility.yul\":3019:3121   */\n      swap2\n      swap1\n      pop\n      jump\t// out\n        /* \"#utility.yul\":3127:3307   */\n    tag_229:\n        /* \"#utility.yul\":3175:3252   */\n      0x4e487b7100000000000000000000000000000000000000000000000000000000\n        /* \"#utility.yul\":3172:3173   */\n      0x00\n        /* \"#utility.yul\":3165:3253   */\n      mstore\n        /* \"#utility.yul\":3272:3276   */\n      0x41\n        /* \"#utility.yul\":3269:3270   */\n      0x04\n        /* \"#utility.yul\":3262:3277   */\n      mstore\n        /* \"#utility.yul\":3296:3300   */\n      0x24\n        /* \"#utility.yul\":3293:3294   */\n      0x00\n        /* \"#utility.yul\":3286:3301   */\n      revert\n        /* \"#utility.yul\":3313:3594   */\n    tag_230:\n        /* \"#utility.yul\":3396:3423   */\n      tag_299\n        /* \"#utility.yul\":3418:3422   */\n      dup3\n        /* \"#utility.yul\":3396:3423   */\n      tag_228\n      jump\t// in\n    tag_299:\n        /* \"#utility.yul\":3388:3394   */\n      dup2\n        /* \"#utility.yul\":3384:3424   */\n      add\n        /* \"#utility.yul\":3526:3532   */\n      dup2\n        /* \"#utility.yul\":3514:3524   */\n      dup2\n        /* \"#utility.yul\":3511:3533   */\n      lt\n        /* \"#utility.yul\":3490:3508   */\n      0xffffffffffffffff\n        /* \"#utility.yul\":3478:3488   */\n      dup3\n        /* \"#utility.yul\":3475:3509   */\n      gt\n        /* \"#utility.yul\":3472:3534   */\n      or\n        /* \"#utility.yul\":3469:3557   */\n      iszero\n      tag_300\n      jumpi\n        /* \"#utility.yul\":3537:3555   */\n      tag_301\n      tag_229\n      jump\t// in\n    tag_301:\n        /* \"#utility.yul\":3469:3557   */\n    tag_300:\n        /* \"#utility.yul\":3577:3587   */\n      dup1\n        /* \"#utility.yul\":3573:3575   */\n      0x40\n        /* \"#utility.yul\":3566:3588   */\n      mstore\n        /* \"#utility.yul\":3356:3594   */\n      pop\n        /* \"#utility.yul\":3313:3594   */\n      pop\n      pop\n      jump\t// out\n        /* \"#utility.yul\":3600:3729   */\n    tag_231:\n        /* \"#utility.yul\":3634:3640   */\n      0x00\n        /* \"#utility.yul\":3661:3681   */\n      tag_303\n      tag_213\n      jump\t// in\n    tag_303:\n        /* \"#utility.yul\":3651:3681   */\n      swap1\n      pop\n        /* \"#utility.yul\":3690:3723   */\n      tag_304\n        /* \"#utility.yul\":3718:3722   */\n      dup3\n        /* \"#utility.yul\":3710:3716   */\n      dup3\n        /* \"#utility.yul\":3690:3723   */\n      tag_230\n      jump\t// in\n    tag_304:\n        /* \"#utility.yul\":3600:3729   */\n      swap2\n      swap1\n      pop\n      jump\t// out\n        /* \"#utility.yul\":3735:4043   */\n    tag_232:\n        /* \"#utility.yul\":3797:3801   */\n      0x00\n        /* \"#utility.yul\":3887:3905   */\n      0xffffffffffffffff\n        /* \"#utility.yul\":3879:3885   */\n      dup3\n        /* \"#utility.yul\":3876:3906   */\n      gt\n        /* \"#utility.yul\":3873:3929   */\n      iszero\n      tag_306\n      jumpi\n        /* \"#utility.yul\":3909:3927   */\n      tag_307\n      tag_229\n      jump\t// in\n    tag_307:\n        /* \"#utility.yul\":3873:3929   */\n    tag_306:\n        /* \"#utility.yul\":3947:3976   */\n      tag_308\n        /* \"#utility.yul\":3969:3975   */\n      dup3\n        /* \"#utility.yul\":3947:3976   */\n      tag_228\n      jump\t// in\n    tag_308:\n        /* \"#utility.yul\":3939:3976   */\n      swap1\n      pop\n        /* \"#utility.yul\":4031:4035   */\n      0x20\n        /* \"#utility.yul\":4025:4029   */\n      dup2\n        /* \"#utility.yul\":4021:4036   */\n      add\n        /* \"#utility.yul\":4013:4036   */\n      swap1\n      pop\n        /* \"#utility.yul\":3735:4043   */\n      swap2\n      swap1\n      pop\n      jump\t// out\n        /* \"#utility.yul\":4049:4203   */\n    tag_233:\n        /* \"#utility.yul\":4133:4139   */\n      dup3\n        /* \"#utility.yul\":4128:4131   */\n      dup2\n        /* \"#utility.yul\":4123:4126   */\n      dup4\n        /* \"#utility.yul\":4110:4140   */\n      calldatacopy\n        /* \"#utility.yul\":4195:4196   */\n      0x00\n        /* \"#utility.yul\":4186:4192   */\n      dup4\n        /* \"#utility.yul\":4181:4184   */\n      dup4\n        /* \"#utility.yul\":4177:4193   */\n      add\n        /* \"#utility.yul\":4170:4197   */\n      mstore\n        /* \"#utility.yul\":4049:4203   */\n      pop\n      pop\n      pop\n      jump\t// out\n        /* \"#utility.yul\":4209:4621   */\n    tag_234:\n        /* \"#utility.yul\":4287:4292   */\n      0x00\n        /* \"#utility.yul\":4312:4378   */\n      tag_311\n        /* \"#utility.yul\":4328:4377   */\n      tag_312\n        /* \"#utility.yul\":4370:4376   */\n      dup5\n        /* \"#utility.yul\":4328:4377   */\n      tag_232\n      jump\t// in\n    tag_312:\n        /* \"#utility.yul\":4312:4378   */\n      tag_231\n      jump\t// in\n    tag_311:\n        /* \"#utility.yul\":4303:4378   */\n      swap1\n      pop\n        /* \"#utility.yul\":4401:4407   */\n      dup3\n        /* \"#utility.yul\":4394:4399   */\n      dup2\n        /* \"#utility.yul\":4387:4408   */\n      mstore\n        /* \"#utility.yul\":4439:4443   */\n      0x20\n        /* \"#utility.yul\":4432:4437   */\n      dup2\n        /* \"#utility.yul\":4428:4444   */\n      add\n        /* \"#utility.yul\":4477:4480   */\n      dup5\n        /* \"#utility.yul\":4468:4474   */\n      dup5\n        /* \"#utility.yul\":4463:4466   */\n      dup5\n        /* \"#utility.yul\":4459:4475   */\n      add\n        /* \"#utility.yul\":4456:4481   */\n      gt\n        /* \"#utility.yul\":4453:4565   */\n      iszero\n      tag_313\n      jumpi\n        /* \"#utility.yul\":4484:4563   */\n      tag_314\n      tag_227\n      jump\t// in\n    tag_314:\n        /* \"#utility.yul\":4453:4565   */\n    tag_313:\n        /* \"#utility.yul\":4574:4615   */\n      tag_315\n        /* \"#utility.yul\":4608:4614   */\n      dup5\n        /* \"#utility.yul\":4603:4606   */\n      dup3\n        /* \"#utility.yul\":4598:4601   */\n      dup6\n        /* \"#utility.yul\":4574:4615   */\n      tag_233\n      jump\t// in\n    tag_315:\n        /* \"#utility.yul\":4293:4621   */\n      pop\n        /* \"#utility.yul\":4209:4621   */\n      swap4\n      swap3\n      pop\n      pop\n      pop\n      jump\t// out\n        /* \"#utility.yul\":4641:4981   */\n    tag_235:\n        /* \"#utility.yul\":4697:4702   */\n      0x00\n        /* \"#utility.yul\":4746:4749   */\n      dup3\n        /* \"#utility.yul\":4739:4743   */\n      0x1f\n        /* \"#utility.yul\":4731:4737   */\n      dup4\n        /* \"#utility.yul\":4727:4744   */\n      add\n        /* \"#utility.yul\":4723:4750   */\n      slt\n        /* \"#utility.yul\":4713:4835   */\n      tag_317\n      jumpi\n        /* \"#utility.yul\":4754:4833   */\n      tag_318\n      tag_226\n      jump\t// in\n    tag_318:\n        /* \"#utility.yul\":4713:4835   */\n    tag_317:\n        /* \"#utility.yul\":4871:4877   */\n      dup2\n        /* \"#utility.yul\":4858:4878   */\n      calldataload\n        /* \"#utility.yul\":4896:4975   */\n      tag_319\n        /* \"#utility.yul\":4971:4974   */\n      dup5\n        /* \"#utility.yul\":4963:4969   */\n      dup3\n        /* \"#utility.yul\":4956:4960   */\n      0x20\n        /* \"#utility.yul\":4948:4954   */\n      dup7\n        /* \"#utility.yul\":4944:4961   */\n      add\n        /* \"#utility.yul\":4896:4975   */\n      tag_234\n      jump\t// in\n    tag_319:\n        /* \"#utility.yul\":4887:4975   */\n      swap2\n      pop\n        /* \"#utility.yul\":4703:4981   */\n      pop\n        /* \"#utility.yul\":4641:4981   */\n      swap3\n      swap2\n      pop\n      pop\n      jump\t// out\n        /* \"#utility.yul\":4987:5073   */\n    tag_236:\n        /* \"#utility.yul\":5022:5029   */\n      0x00\n        /* \"#utility.yul\":5062:5066   */\n      0xff\n        /* \"#utility.yul\":5055:5060   */\n      dup3\n        /* \"#utility.yul\":5051:5067   */\n      and\n        /* \"#utility.yul\":5040:5067   */\n      swap1\n      pop\n        /* \"#utility.yul\":4987:5073   */\n      swap2\n      swap1\n      pop\n      jump\t// out\n        /* \"#utility.yul\":5079:5197   */\n    tag_237:\n        /* \"#utility.yul\":5150:5172   */\n      tag_322\n        /* \"#utility.yul\":5166:5171   */\n      dup2\n        /* \"#utility.yul\":5150:5172   */\n      tag_236\n      jump\t// in\n    tag_322:\n        /* \"#utility.yul\":5143:5148   */\n      dup2\n        /* \"#utility.yul\":5140:5173   */\n      eq\n        /* \"#utility.yul\":5130:5191   */\n      tag_323\n      jumpi\n        /* \"#utility.yul\":5187:5188   */\n      0x00\n        /* \"#utility.yul\":5184:5185   */\n      dup1\n        /* \"#utility.yul\":5177:5189   */\n      revert\n        /* \"#utility.yul\":5130:5191   */\n    tag_323:\n        /* \"#utility.yul\":5079:5197   */\n      pop\n      jump\t// out\n        /* \"#utility.yul\":5203:5338   */\n    tag_238:\n        /* \"#utility.yul\":5247:5252   */\n      0x00\n        /* \"#utility.yul\":5285:5291   */\n      dup2\n        /* \"#utility.yul\":5272:5292   */\n      calldataload\n        /* \"#utility.yul\":5263:5292   */\n      swap1\n      pop\n        /* \"#utility.yul\":5301:5332   */\n      tag_325\n        /* \"#utility.yul\":5326:5331   */\n      dup2\n        /* \"#utility.yul\":5301:5332   */\n      tag_237\n      jump\t// in\n    tag_325:\n        /* \"#utility.yul\":5203:5338   */\n      swap3\n      swap2\n      pop\n      pop\n      jump\t// out\n        /* \"#utility.yul\":5344:8057   */\n    tag_45:\n        /* \"#utility.yul\":5540:5546   */\n      0x00\n        /* \"#utility.yul\":5548:5554   */\n      dup1\n        /* \"#utility.yul\":5556:5562   */\n      0x00\n        /* \"#utility.yul\":5564:5570   */\n      dup1\n        /* \"#utility.yul\":5572:5578   */\n      0x00\n        /* \"#utility.yul\":5580:5586   */\n      dup1\n        /* \"#utility.yul\":5588:5594   */\n      0x00\n        /* \"#utility.yul\":5596:5602   */\n      dup1\n        /* \"#utility.yul\":5604:5610   */\n      0x00\n        /* \"#utility.yul\":5612:5618   */\n      dup1\n        /* \"#utility.yul\":5661:5664   */\n      0x0140\n        /* \"#utility.yul\":5649:5658   */\n      dup12\n        /* \"#utility.yul\":5640:5647   */\n      dup14\n        /* \"#utility.yul\":5636:5659   */\n      sub\n        /* \"#utility.yul\":5632:5665   */\n      slt\n        /* \"#utility.yul\":5629:5749   */\n      iszero\n      tag_327\n      jumpi\n        /* \"#utility.yul\":5668:5747   */\n      tag_328\n      tag_214\n      jump\t// in\n    tag_328:\n        /* \"#utility.yul\":5629:5749   */\n    tag_327:\n        /* \"#utility.yul\":5816:5817   */\n      0x00\n        /* \"#utility.yul\":5805:5814   */\n      dup12\n        /* \"#utility.yul\":5801:5818   */\n      add\n        /* \"#utility.yul\":5788:5819   */\n      calldataload\n        /* \"#utility.yul\":5846:5864   */\n      0xffffffffffffffff\n        /* \"#utility.yul\":5838:5844   */\n      dup2\n        /* \"#utility.yul\":5835:5865   */\n      gt\n        /* \"#utility.yul\":5832:5949   */\n      iszero\n      tag_329\n      jumpi\n        /* \"#utility.yul\":5868:5947   */\n      tag_330\n      tag_215\n      jump\t// in\n    tag_330:\n        /* \"#utility.yul\":5832:5949   */\n    tag_329:\n        /* \"#utility.yul\":5973:6036   */\n      tag_331\n        /* \"#utility.yul\":6028:6035   */\n      dup14\n        /* \"#utility.yul\":6019:6025   */\n      dup3\n        /* \"#utility.yul\":6008:6017   */\n      dup15\n        /* \"#utility.yul\":6004:6026   */\n      add\n        /* \"#utility.yul\":5973:6036   */\n      tag_235\n      jump\t// in\n    tag_331:\n        /* \"#utility.yul\":5963:6036   */\n      swap11\n      pop\n        /* \"#utility.yul\":5759:6046   */\n      pop\n        /* \"#utility.yul\":6113:6115   */\n      0x20\n        /* \"#utility.yul\":6102:6111   */\n      dup12\n        /* \"#utility.yul\":6098:6116   */\n      add\n        /* \"#utility.yul\":6085:6117   */\n      calldataload\n        /* \"#utility.yul\":6144:6162   */\n      0xffffffffffffffff\n        /* \"#utility.yul\":6136:6142   */\n      dup2\n        /* \"#utility.yul\":6133:6163   */\n      gt\n        /* \"#utility.yul\":6130:6247   */\n      iszero\n      tag_332\n      jumpi\n        /* \"#utility.yul\":6166:6245   */\n      tag_333\n      tag_215\n      jump\t// in\n    tag_333:\n        /* \"#utility.yul\":6130:6247   */\n    tag_332:\n        /* \"#utility.yul\":6271:6334   */\n      tag_334\n        /* \"#utility.yul\":6326:6333   */\n      dup14\n        /* \"#utility.yul\":6317:6323   */\n      dup3\n        /* \"#utility.yul\":6306:6315   */\n      dup15\n        /* \"#utility.yul\":6302:6324   */\n      add\n        /* \"#utility.yul\":6271:6334   */\n      tag_235\n      jump\t// in\n    tag_334:\n        /* \"#utility.yul\":6261:6334   */\n      swap10\n      pop\n        /* \"#utility.yul\":6056:6344   */\n      pop\n        /* \"#utility.yul\":6411:6413   */\n      0x40\n        /* \"#utility.yul\":6400:6409   */\n      dup12\n        /* \"#utility.yul\":6396:6414   */\n      add\n        /* \"#utility.yul\":6383:6415   */\n      calldataload\n        /* \"#utility.yul\":6442:6460   */\n      0xffffffffffffffff\n        /* \"#utility.yul\":6434:6440   */\n      dup2\n        /* \"#utility.yul\":6431:6461   */\n      gt\n        /* \"#utility.yul\":6428:6545   */\n      iszero\n      tag_335\n      jumpi\n        /* \"#utility.yul\":6464:6543   */\n      tag_336\n      tag_215\n      jump\t// in\n    tag_336:\n        /* \"#utility.yul\":6428:6545   */\n    tag_335:\n        /* \"#utility.yul\":6569:6632   */\n      tag_337\n        /* \"#utility.yul\":6624:6631   */\n      dup14\n        /* \"#utility.yul\":6615:6621   */\n      dup3\n        /* \"#utility.yul\":6604:6613   */\n      dup15\n        /* \"#utility.yul\":6600:6622   */\n      add\n        /* \"#utility.yul\":6569:6632   */\n      tag_235\n      jump\t// in\n    tag_337:\n        /* \"#utility.yul\":6559:6632   */\n      swap9\n      pop\n        /* \"#utility.yul\":6354:6642   */\n      pop\n        /* \"#utility.yul\":6709:6711   */\n      0x60\n        /* \"#utility.yul\":6698:6707   */\n      dup12\n        /* \"#utility.yul\":6694:6712   */\n      add\n        /* \"#utility.yul\":6681:6713   */\n      calldataload\n        /* \"#utility.yul\":6740:6758   */\n      0xffffffffffffffff\n        /* \"#utility.yul\":6732:6738   */\n      dup2\n        /* \"#utility.yul\":6729:6759   */\n      gt\n        /* \"#utility.yul\":6726:6843   */\n      iszero\n      tag_338\n      jumpi\n        /* \"#utility.yul\":6762:6841   */\n      tag_339\n      tag_215\n      jump\t// in\n    tag_339:\n        /* \"#utility.yul\":6726:6843   */\n    tag_338:\n        /* \"#utility.yul\":6867:6930   */\n      tag_340\n        /* \"#utility.yul\":6922:6929   */\n      dup14\n        /* \"#utility.yul\":6913:6919   */\n      dup3\n        /* \"#utility.yul\":6902:6911   */\n      dup15\n        /* \"#utility.yul\":6898:6920   */\n      add\n        /* \"#utility.yul\":6867:6930   */\n      tag_235\n      jump\t// in\n    tag_340:\n        /* \"#utility.yul\":6857:6930   */\n      swap8\n      pop\n        /* \"#utility.yul\":6652:6940   */\n      pop\n        /* \"#utility.yul\":7007:7010   */\n      0x80\n        /* \"#utility.yul\":6996:7005   */\n      dup12\n        /* \"#utility.yul\":6992:7011   */\n      add\n        /* \"#utility.yul\":6979:7012   */\n      calldataload\n        /* \"#utility.yul\":7039:7057   */\n      0xffffffffffffffff\n        /* \"#utility.yul\":7031:7037   */\n      dup2\n        /* \"#utility.yul\":7028:7058   */\n      gt\n        /* \"#utility.yul\":7025:7142   */\n      iszero\n      tag_341\n      jumpi\n        /* \"#utility.yul\":7061:7140   */\n      tag_342\n      tag_215\n      jump\t// in\n    tag_342:\n        /* \"#utility.yul\":7025:7142   */\n    tag_341:\n        /* \"#utility.yul\":7166:7229   */\n      tag_343\n        /* \"#utility.yul\":7221:7228   */\n      dup14\n        /* \"#utility.yul\":7212:7218   */\n      dup3\n        /* \"#utility.yul\":7201:7210   */\n      dup15\n        /* \"#utility.yul\":7197:7219   */\n      add\n        /* \"#utility.yul\":7166:7229   */\n      tag_235\n      jump\t// in\n    tag_343:\n        /* \"#utility.yul\":7156:7229   */\n      swap7\n      pop\n        /* \"#utility.yul\":6950:7239   */\n      pop\n        /* \"#utility.yul\":7306:7309   */\n      0xa0\n        /* \"#utility.yul\":7295:7304   */\n      dup12\n        /* \"#utility.yul\":7291:7310   */\n      add\n        /* \"#utility.yul\":7278:7311   */\n      calldataload\n        /* \"#utility.yul\":7338:7356   */\n      0xffffffffffffffff\n        /* \"#utility.yul\":7330:7336   */\n      dup2\n        /* \"#utility.yul\":7327:7357   */\n      gt\n        /* \"#utility.yul\":7324:7441   */\n      iszero\n      tag_344\n      jumpi\n        /* \"#utility.yul\":7360:7439   */\n      tag_345\n      tag_215\n      jump\t// in\n    tag_345:\n        /* \"#utility.yul\":7324:7441   */\n    tag_344:\n        /* \"#utility.yul\":7465:7528   */\n      tag_346\n        /* \"#utility.yul\":7520:7527   */\n      dup14\n        /* \"#utility.yul\":7511:7517   */\n      dup3\n        /* \"#utility.yul\":7500:7509   */\n      dup15\n        /* \"#utility.yul\":7496:7518   */\n      add\n        /* \"#utility.yul\":7465:7528   */\n      tag_235\n      jump\t// in\n    tag_346:\n        /* \"#utility.yul\":7455:7528   */\n      swap6\n      pop\n        /* \"#utility.yul\":7249:7538   */\n      pop\n        /* \"#utility.yul\":7577:7580   */\n      0xc0\n        /* \"#utility.yul\":7604:7655   */\n      tag_347\n        /* \"#utility.yul\":7647:7654   */\n      dup14\n        /* \"#utility.yul\":7638:7644   */\n      dup3\n        /* \"#utility.yul\":7627:7636   */\n      dup15\n        /* \"#utility.yul\":7623:7645   */\n      add\n        /* \"#utility.yul\":7604:7655   */\n      tag_238\n      jump\t// in\n    tag_347:\n        /* \"#utility.yul\":7594:7655   */\n      swap5\n      pop\n        /* \"#utility.yul\":7548:7665   */\n      pop\n        /* \"#utility.yul\":7704:7707   */\n      0xe0\n        /* \"#utility.yul\":7731:7782   */\n      tag_348\n        /* \"#utility.yul\":7774:7781   */\n      dup14\n        /* \"#utility.yul\":7765:7771   */\n      dup3\n        /* \"#utility.yul\":7754:7763   */\n      dup15\n        /* \"#utility.yul\":7750:7772   */\n      add\n        /* \"#utility.yul\":7731:7782   */\n      tag_238\n      jump\t// in\n    tag_348:\n        /* \"#utility.yul\":7721:7782   */\n      swap4\n      pop\n        /* \"#utility.yul\":7675:7792   */\n      pop\n        /* \"#utility.yul\":7831:7834   */\n      0x0100\n        /* \"#utility.yul\":7858:7911   */\n      tag_349\n        /* \"#utility.yul\":7903:7910   */\n      dup14\n        /* \"#utility.yul\":7894:7900   */\n      dup3\n        /* \"#utility.yul\":7883:7892   */\n      dup15\n        /* \"#utility.yul\":7879:7901   */\n      add\n        /* \"#utility.yul\":7858:7911   */\n      tag_218\n      jump\t// in\n    tag_349:\n        /* \"#utility.yul\":7848:7911   */\n      swap3\n      pop\n        /* \"#utility.yul\":7802:7921   */\n      pop\n        /* \"#utility.yul\":7960:7963   */\n      0x0120\n        /* \"#utility.yul\":7987:8040   */\n      tag_350\n        /* \"#utility.yul\":8032:8039   */\n      dup14\n        /* \"#utility.yul\":8023:8029   */\n      dup3\n        /* \"#utility.yul\":8012:8021   */\n      dup15\n        /* \"#utility.yul\":8008:8030   */\n      add\n        /* \"#utility.yul\":7987:8040   */\n      tag_218\n      jump\t// in\n    tag_350:\n        /* \"#utility.yul\":7977:8040   */\n      swap2\n      pop\n        /* \"#utility.yul\":7931:8050   */\n      pop\n        /* \"#utility.yul\":5344:8057   */\n      swap3\n      swap6\n      swap9\n      swap12\n      swap2\n      swap5\n      swap8\n      swap11\n      pop\n      swap3\n      swap6\n      swap9\n      pop\n      jump\t// out\n        /* \"#utility.yul\":8063:8162   */\n    tag_239:\n        /* \"#utility.yul\":8115:8121   */\n      0x00\n        /* \"#utility.yul\":8149:8154   */\n      dup2\n        /* \"#utility.yul\":8143:8155   */\n      mload\n        /* \"#utility.yul\":8133:8155   */\n      swap1\n      pop\n        /* \"#utility.yul\":8063:8162   */\n      swap2\n      swap1\n      pop\n      jump\t// out\n        /* \"#utility.yul\":8168:8327   */\n    tag_240:\n        /* \"#utility.yul\":8242:8253   */\n      0x00\n        /* \"#utility.yul\":8276:8282   */\n      dup3\n        /* \"#utility.yul\":8271:8274   */\n      dup3\n        /* \"#utility.yul\":8264:8283   */\n      mstore\n        /* \"#utility.yul\":8316:8320   */\n      0x20\n        /* \"#utility.yul\":8311:8314   */\n      dup3\n        /* \"#utility.yul\":8307:8321   */\n      add\n        /* \"#utility.yul\":8292:8321   */\n      swap1\n      pop\n        /* \"#utility.yul\":8168:8327   */\n      swap3\n      swap2\n      pop\n      pop\n      jump\t// out\n        /* \"#utility.yul\":8333:8640   */\n    tag_241:\n        /* \"#utility.yul\":8401:8402   */\n      0x00\n        /* \"#utility.yul\":8411:8524   */\n    tag_354:\n        /* \"#utility.yul\":8425:8431   */\n      dup4\n        /* \"#utility.yul\":8422:8423   */\n      dup2\n        /* \"#utility.yul\":8419:8432   */\n      lt\n        /* \"#utility.yul\":8411:8524   */\n      iszero\n      tag_356\n      jumpi\n        /* \"#utility.yul\":8510:8511   */\n      dup1\n        /* \"#utility.yul\":8505:8508   */\n      dup3\n        /* \"#utility.yul\":8501:8512   */\n      add\n        /* \"#utility.yul\":8495:8513   */\n      mload\n        /* \"#utility.yul\":8491:8492   */\n      dup2\n        /* \"#utility.yul\":8486:8489   */\n      dup5\n        /* \"#utility.yul\":8482:8493   */\n      add\n        /* \"#utility.yul\":8475:8514   */\n      mstore\n        /* \"#utility.yul\":8447:8449   */\n      0x20\n        /* \"#utility.yul\":8444:8445   */\n      dup2\n        /* \"#utility.yul\":8440:8450   */\n      add\n        /* \"#utility.yul\":8435:8450   */\n      swap1\n      pop\n        /* \"#utility.yul\":8411:8524   */\n      jump(tag_354)\n    tag_356:\n        /* \"#utility.yul\":8542:8548   */\n      dup4\n        /* \"#utility.yul\":8539:8540   */\n      dup2\n        /* \"#utility.yul\":8536:8549   */\n      gt\n        /* \"#utility.yul\":8533:8634   */\n      iszero\n      tag_357\n      jumpi\n        /* \"#utility.yul\":8622:8623   */\n      0x00\n        /* \"#utility.yul\":8613:8619   */\n      dup5\n        /* \"#utility.yul\":8608:8611   */\n      dup5\n        /* \"#utility.yul\":8604:8620   */\n      add\n        /* \"#utility.yul\":8597:8624   */\n      mstore\n        /* \"#utility.yul\":8533:8634   */\n    tag_357:\n        /* \"#utility.yul\":8382:8640   */\n      pop\n        /* \"#utility.yul\":8333:8640   */\n      pop\n      pop\n      pop\n      jump\t// out\n        /* \"#utility.yul\":8646:8990   */\n    tag_242:\n        /* \"#utility.yul\":8724:8727   */\n      0x00\n        /* \"#utility.yul\":8752:8791   */\n      tag_359\n        /* \"#utility.yul\":8785:8790   */\n      dup3\n        /* \"#utility.yul\":8752:8791   */\n      tag_239\n      jump\t// in\n    tag_359:\n        /* \"#utility.yul\":8807:8868   */\n      tag_360\n        /* \"#utility.yul\":8861:8867   */\n      dup2\n        /* \"#utility.yul\":8856:8859   */\n      dup6\n        /* \"#utility.yul\":8807:8868   */\n      tag_240\n      jump\t// in\n    tag_360:\n        /* \"#utility.yul\":8800:8868   */\n      swap4\n      pop\n        /* \"#utility.yul\":8877:8929   */\n      tag_361\n        /* \"#utility.yul\":8922:8928   */\n      dup2\n        /* \"#utility.yul\":8917:8920   */\n      dup6\n        /* \"#utility.yul\":8910:8914   */\n      0x20\n        /* \"#utility.yul\":8903:8908   */\n      dup7\n        /* \"#utility.yul\":8899:8915   */\n      add\n        /* \"#utility.yul\":8877:8929   */\n      tag_241\n      jump\t// in\n    tag_361:\n        /* \"#utility.yul\":8954:8983   */\n      tag_362\n        /* \"#utility.yul\":8976:8982   */\n      dup2\n        /* \"#utility.yul\":8954:8983   */\n      tag_228\n      jump\t// in\n    tag_362:\n        /* \"#utility.yul\":8949:8952   */\n      dup5\n        /* \"#utility.yul\":8945:8984   */\n      add\n        /* \"#utility.yul\":8938:8984   */\n      swap2\n      pop\n        /* \"#utility.yul\":8728:8990   */\n      pop\n        /* \"#utility.yul\":8646:8990   */\n      swap3\n      swap2\n      pop\n      pop\n      jump\t// out\n        /* \"#utility.yul\":8996:9098   */\n    tag_243:\n        /* \"#utility.yul\":9069:9091   */\n      tag_364\n        /* \"#utility.yul\":9085:9090   */\n      dup2\n        /* \"#utility.yul\":9069:9091   */\n      tag_236\n      jump\t// in\n    tag_364:\n        /* \"#utility.yul\":9064:9067   */\n      dup3\n        /* \"#utility.yul\":9057:9092   */\n      mstore\n        /* \"#utility.yul\":8996:9098   */\n      pop\n      pop\n      jump\t// out\n        /* \"#utility.yul\":9104:9212   */\n    tag_244:\n        /* \"#utility.yul\":9181:9205   */\n      tag_366\n        /* \"#utility.yul\":9199:9204   */\n      dup2\n        /* \"#utility.yul\":9181:9205   */\n      tag_216\n      jump\t// in\n    tag_366:\n        /* \"#utility.yul\":9176:9179   */\n      dup3\n        /* \"#utility.yul\":9169:9206   */\n      mstore\n        /* \"#utility.yul\":9104:9212   */\n      pop\n      pop\n      jump\t// out\n        /* \"#utility.yul\":9274:11477   */\n    tag_245:\n        /* \"#utility.yul\":9383:9386   */\n      0x00\n        /* \"#utility.yul\":9419:9425   */\n      0x0120\n        /* \"#utility.yul\":9414:9417   */\n      dup4\n        /* \"#utility.yul\":9410:9426   */\n      add\n        /* \"#utility.yul\":9512:9516   */\n      0x00\n        /* \"#utility.yul\":9505:9510   */\n      dup4\n        /* \"#utility.yul\":9501:9517   */\n      add\n        /* \"#utility.yul\":9495:9518   */\n      mload\n        /* \"#utility.yul\":9565:9568   */\n      dup5\n        /* \"#utility.yul\":9559:9563   */\n      dup3\n        /* \"#utility.yul\":9555:9569   */\n      sub\n        /* \"#utility.yul\":9548:9552   */\n      0x00\n        /* \"#utility.yul\":9543:9546   */\n      dup7\n        /* \"#utility.yul\":9539:9553   */\n      add\n        /* \"#utility.yul\":9532:9570   */\n      mstore\n        /* \"#utility.yul\":9591:9664   */\n      tag_368\n        /* \"#utility.yul\":9659:9663   */\n      dup3\n        /* \"#utility.yul\":9645:9657   */\n      dup3\n        /* \"#utility.yul\":9591:9664   */\n      tag_242\n      jump\t// in\n    tag_368:\n        /* \"#utility.yul\":9583:9664   */\n      swap2\n      pop\n        /* \"#utility.yul\":9436:9675   */\n      pop\n        /* \"#utility.yul\":9760:9764   */\n      0x20\n        /* \"#utility.yul\":9753:9758   */\n      dup4\n        /* \"#utility.yul\":9749:9765   */\n      add\n        /* \"#utility.yul\":9743:9766   */\n      mload\n        /* \"#utility.yul\":9813:9816   */\n      dup5\n        /* \"#utility.yul\":9807:9811   */\n      dup3\n        /* \"#utility.yul\":9803:9817   */\n      sub\n        /* \"#utility.yul\":9796:9800   */\n      0x20\n        /* \"#utility.yul\":9791:9794   */\n      dup7\n        /* \"#utility.yul\":9787:9801   */\n      add\n        /* \"#utility.yul\":9780:9818   */\n      mstore\n        /* \"#utility.yul\":9839:9912   */\n      tag_369\n        /* \"#utility.yul\":9907:9911   */\n      dup3\n        /* \"#utility.yul\":9893:9905   */\n      dup3\n        /* \"#utility.yul\":9839:9912   */\n      tag_242\n      jump\t// in\n    tag_369:\n        /* \"#utility.yul\":9831:9912   */\n      swap2\n      pop\n        /* \"#utility.yul\":9685:9923   */\n      pop\n        /* \"#utility.yul\":10008:10012   */\n      0x40\n        /* \"#utility.yul\":10001:10006   */\n      dup4\n        /* \"#utility.yul\":9997:10013   */\n      add\n        /* \"#utility.yul\":9991:10014   */\n      mload\n        /* \"#utility.yul\":10061:10064   */\n      dup5\n        /* \"#utility.yul\":10055:10059   */\n      dup3\n        /* \"#utility.yul\":10051:10065   */\n      sub\n        /* \"#utility.yul\":10044:10048   */\n      0x40\n        /* \"#utility.yul\":10039:10042   */\n      dup7\n        /* \"#utility.yul\":10035:10049   */\n      add\n        /* \"#utility.yul\":10028:10066   */\n      mstore\n        /* \"#utility.yul\":10087:10160   */\n      tag_370\n        /* \"#utility.yul\":10155:10159   */\n      dup3\n        /* \"#utility.yul\":10141:10153   */\n      dup3\n        /* \"#utility.yul\":10087:10160   */\n      tag_242\n      jump\t// in\n    tag_370:\n        /* \"#utility.yul\":10079:10160   */\n      swap2\n      pop\n        /* \"#utility.yul\":9933:10171   */\n      pop\n        /* \"#utility.yul\":10256:10260   */\n      0x60\n        /* \"#utility.yul\":10249:10254   */\n      dup4\n        /* \"#utility.yul\":10245:10261   */\n      add\n        /* \"#utility.yul\":10239:10262   */\n      mload\n        /* \"#utility.yul\":10309:10312   */\n      dup5\n        /* \"#utility.yul\":10303:10307   */\n      dup3\n        /* \"#utility.yul\":10299:10313   */\n      sub\n        /* \"#utility.yul\":10292:10296   */\n      0x60\n        /* \"#utility.yul\":10287:10290   */\n      dup7\n        /* \"#utility.yul\":10283:10297   */\n      add\n        /* \"#utility.yul\":10276:10314   */\n      mstore\n        /* \"#utility.yul\":10335:10408   */\n      tag_371\n        /* \"#utility.yul\":10403:10407   */\n      dup3\n        /* \"#utility.yul\":10389:10401   */\n      dup3\n        /* \"#utility.yul\":10335:10408   */\n      tag_242\n      jump\t// in\n    tag_371:\n        /* \"#utility.yul\":10327:10408   */\n      swap2\n      pop\n        /* \"#utility.yul\":10181:10419   */\n      pop\n        /* \"#utility.yul\":10504:10508   */\n      0x80\n        /* \"#utility.yul\":10497:10502   */\n      dup4\n        /* \"#utility.yul\":10493:10509   */\n      add\n        /* \"#utility.yul\":10487:10510   */\n      mload\n        /* \"#utility.yul\":10557:10560   */\n      dup5\n        /* \"#utility.yul\":10551:10555   */\n      dup3\n        /* \"#utility.yul\":10547:10561   */\n      sub\n        /* \"#utility.yul\":10540:10544   */\n      0x80\n        /* \"#utility.yul\":10535:10538   */\n      dup7\n        /* \"#utility.yul\":10531:10545   */\n      add\n        /* \"#utility.yul\":10524:10562   */\n      mstore\n        /* \"#utility.yul\":10583:10656   */\n      tag_372\n        /* \"#utility.yul\":10651:10655   */\n      dup3\n        /* \"#utility.yul\":10637:10649   */\n      dup3\n        /* \"#utility.yul\":10583:10656   */\n      tag_242\n      jump\t// in\n    tag_372:\n        /* \"#utility.yul\":10575:10656   */\n      swap2\n      pop\n        /* \"#utility.yul\":10429:10667   */\n      pop\n        /* \"#utility.yul\":10749:10753   */\n      0xa0\n        /* \"#utility.yul\":10742:10747   */\n      dup4\n        /* \"#utility.yul\":10738:10754   */\n      add\n        /* \"#utility.yul\":10732:10755   */\n      mload\n        /* \"#utility.yul\":10802:10805   */\n      dup5\n        /* \"#utility.yul\":10796:10800   */\n      dup3\n        /* \"#utility.yul\":10792:10806   */\n      sub\n        /* \"#utility.yul\":10785:10789   */\n      0xa0\n        /* \"#utility.yul\":10780:10783   */\n      dup7\n        /* \"#utility.yul\":10776:10790   */\n      add\n        /* \"#utility.yul\":10769:10807   */\n      mstore\n        /* \"#utility.yul\":10828:10901   */\n      tag_373\n        /* \"#utility.yul\":10896:10900   */\n      dup3\n        /* \"#utility.yul\":10882:10894   */\n      dup3\n        /* \"#utility.yul\":10828:10901   */\n      tag_242\n      jump\t// in\n    tag_373:\n        /* \"#utility.yul\":10820:10901   */\n      swap2\n      pop\n        /* \"#utility.yul\":10677:10912   */\n      pop\n        /* \"#utility.yul\":11002:11006   */\n      0xc0\n        /* \"#utility.yul\":10995:11000   */\n      dup4\n        /* \"#utility.yul\":10991:11007   */\n      add\n        /* \"#utility.yul\":10985:11008   */\n      mload\n        /* \"#utility.yul\":11021:11080   */\n      tag_374\n        /* \"#utility.yul\":11074:11078   */\n      0xc0\n        /* \"#utility.yul\":11069:11072   */\n      dup7\n        /* \"#utility.yul\":11065:11079   */\n      add\n        /* \"#utility.yul\":11051:11063   */\n      dup3\n        /* \"#utility.yul\":11021:11080   */\n      tag_243\n      jump\t// in\n    tag_374:\n        /* \"#utility.yul\":10922:11090   */\n      pop\n        /* \"#utility.yul\":11174:11178   */\n      0xe0\n        /* \"#utility.yul\":11167:11172   */\n      dup4\n        /* \"#utility.yul\":11163:11179   */\n      add\n        /* \"#utility.yul\":11157:11180   */\n      mload\n        /* \"#utility.yul\":11193:11256   */\n      tag_375\n        /* \"#utility.yul\":11250:11254   */\n      0xe0\n        /* \"#utility.yul\":11245:11248   */\n      dup7\n        /* \"#utility.yul\":11241:11255   */\n      add\n        /* \"#utility.yul\":11227:11239   */\n      dup3\n        /* \"#utility.yul\":11193:11256   */\n      tag_244\n      jump\t// in\n    tag_375:\n        /* \"#utility.yul\":11100:11266   */\n      pop\n        /* \"#utility.yul\":11354:11360   */\n      0x0100\n        /* \"#utility.yul\":11347:11352   */\n      dup4\n        /* \"#utility.yul\":11343:11361   */\n      add\n        /* \"#utility.yul\":11337:11362   */\n      mload\n        /* \"#utility.yul\":11375:11440   */\n      tag_376\n        /* \"#utility.yul\":11432:11438   */\n      0x0100\n        /* \"#utility.yul\":11427:11430   */\n      dup7\n        /* \"#utility.yul\":11423:11439   */\n      add\n        /* \"#utility.yul\":11409:11421   */\n      dup3\n        /* \"#utility.yul\":11375:11440   */\n      tag_244\n      jump\t// in\n    tag_376:\n        /* \"#utility.yul\":11276:11450   */\n      pop\n        /* \"#utility.yul\":11467:11471   */\n      dup1\n        /* \"#utility.yul\":11460:11471   */\n      swap2\n      pop\n        /* \"#utility.yul\":9388:11477   */\n      pop\n        /* \"#utility.yul\":9274:11477   */\n      swap3\n      swap2\n      pop\n      pop\n      jump\t// out\n        /* \"#utility.yul\":11483:11836   */\n    tag_51:\n        /* \"#utility.yul\":11616:11620   */\n      0x00\n        /* \"#utility.yul\":11654:11656   */\n      0x20\n        /* \"#utility.yul\":11643:11652   */\n      dup3\n        /* \"#utility.yul\":11639:11657   */\n      add\n        /* \"#utility.yul\":11631:11657   */\n      swap1\n      pop\n        /* \"#utility.yul\":11703:11712   */\n      dup2\n        /* \"#utility.yul\":11697:11701   */\n      dup2\n        /* \"#utility.yul\":11693:11713   */\n      sub\n        /* \"#utility.yul\":11689:11690   */\n      0x00\n        /* \"#utility.yul\":11678:11687   */\n      dup4\n        /* \"#utility.yul\":11674:11691   */\n      add\n        /* \"#utility.yul\":11667:11714   */\n      mstore\n        /* \"#utility.yul\":11731:11829   */\n      tag_378\n        /* \"#utility.yul\":11824:11828   */\n      dup2\n        /* \"#utility.yul\":11815:11821   */\n      dup5\n        /* \"#utility.yul\":11731:11829   */\n      tag_245\n      jump\t// in\n    tag_378:\n        /* \"#utility.yul\":11723:11829   */\n      swap1\n      pop\n        /* \"#utility.yul\":11483:11836   */\n      swap3\n      swap2\n      pop\n      pop\n      jump\t// out\n        /* \"#utility.yul\":11842:11954   */\n    tag_246:\n        /* \"#utility.yul\":11925:11947   */\n      tag_380\n        /* \"#utility.yul\":11941:11946   */\n      dup2\n        /* \"#utility.yul\":11925:11947   */\n      tag_236\n      jump\t// in\n    tag_380:\n        /* \"#utility.yul\":11920:11923   */\n      dup3\n        /* \"#utility.yul\":11913:11948   */\n      mstore\n        /* \"#utility.yul\":11842:11954   */\n      pop\n      pop\n      jump\t// out\n        /* \"#utility.yul\":11960:12415   */\n    tag_57:\n        /* \"#utility.yul\":12117:12121   */\n      0x00\n        /* \"#utility.yul\":12155:12157   */\n      0x40\n        /* \"#utility.yul\":12144:12153   */\n      dup3\n        /* \"#utility.yul\":12140:12158   */\n      add\n        /* \"#utility.yul\":12132:12158   */\n      swap1\n      pop\n        /* \"#utility.yul\":12204:12213   */\n      dup2\n        /* \"#utility.yul\":12198:12202   */\n      dup2\n        /* \"#utility.yul\":12194:12214   */\n      sub\n        /* \"#utility.yul\":12190:12191   */\n      0x00\n        /* \"#utility.yul\":12179:12188   */\n      dup4\n        /* \"#utility.yul\":12175:12192   */\n      add\n        /* \"#utility.yul\":12168:12215   */\n      mstore\n        /* \"#utility.yul\":12232:12330   */\n      tag_382\n        /* \"#utility.yul\":12325:12329   */\n      dup2\n        /* \"#utility.yul\":12316:12322   */\n      dup6\n        /* \"#utility.yul\":12232:12330   */\n      tag_245\n      jump\t// in\n    tag_382:\n        /* \"#utility.yul\":12224:12330   */\n      swap1\n      pop\n        /* \"#utility.yul\":12340:12408   */\n      tag_383\n        /* \"#utility.yul\":12404:12406   */\n      0x20\n        /* \"#utility.yul\":12393:12402   */\n      dup4\n        /* \"#utility.yul\":12389:12407   */\n      add\n        /* \"#utility.yul\":12380:12386   */\n      dup5\n        /* \"#utility.yul\":12340:12408   */\n      tag_246\n      jump\t// in\n    tag_383:\n        /* \"#utility.yul\":11960:12415   */\n      swap4\n      swap3\n      pop\n      pop\n      pop\n      jump\t// out\n        /* \"#utility.yul\":12421:12543   */\n    tag_247:\n        /* \"#utility.yul\":12494:12518   */\n      tag_385\n        /* \"#utility.yul\":12512:12517   */\n      dup2\n        /* \"#utility.yul\":12494:12518   */\n      tag_223\n      jump\t// in\n    tag_385:\n        /* \"#utility.yul\":12487:12492   */\n      dup2\n        /* \"#utility.yul\":12484:12519   */\n      eq\n        /* \"#utility.yul\":12474:12537   */\n      tag_386\n      jumpi\n        /* \"#utility.yul\":12533:12534   */\n      0x00\n        /* \"#utility.yul\":12530:12531   */\n      dup1\n        /* \"#utility.yul\":12523:12535   */\n      revert\n        /* \"#utility.yul\":12474:12537   */\n    tag_386:\n        /* \"#utility.yul\":12421:12543   */\n      pop\n      jump\t// out\n        /* \"#utility.yul\":12549:12688   */\n    tag_248:\n        /* \"#utility.yul\":12595:12600   */\n      0x00\n        /* \"#utility.yul\":12633:12639   */\n      dup2\n        /* \"#utility.yul\":12620:12640   */\n      calldataload\n        /* \"#utility.yul\":12611:12640   */\n      swap1\n      pop\n        /* \"#utility.yul\":12649:12682   */\n      tag_388\n        /* \"#utility.yul\":12676:12681   */\n      dup2\n        /* \"#utility.yul\":12649:12682   */\n      tag_247\n      jump\t// in\n    tag_388:\n        /* \"#utility.yul\":12549:12688   */\n      swap3\n      swap2\n      pop\n      pop\n      jump\t// out\n        /* \"#utility.yul\":12694:13023   */\n    tag_61:\n        /* \"#utility.yul\":12753:12759   */\n      0x00\n        /* \"#utility.yul\":12802:12804   */\n      0x20\n        /* \"#utility.yul\":12790:12799   */\n      dup3\n        /* \"#utility.yul\":12781:12788   */\n      dup5\n        /* \"#utility.yul\":12777:12800   */\n      sub\n        /* \"#utility.yul\":12773:12805   */\n      slt\n        /* \"#utility.yul\":12770:12889   */\n      iszero\n      tag_390\n      jumpi\n        /* \"#utility.yul\":12808:12887   */\n      tag_391\n      tag_214\n      jump\t// in\n    tag_391:\n        /* \"#utility.yul\":12770:12889   */\n    tag_390:\n        /* \"#utility.yul\":12928:12929   */\n      0x00\n        /* \"#utility.yul\":12953:13006   */\n      tag_392\n        /* \"#utility.yul\":12998:13005   */\n      dup5\n        /* \"#utility.yul\":12989:12995   */\n      dup3\n        /* \"#utility.yul\":12978:12987   */\n      dup6\n        /* \"#utility.yul\":12974:12996   */\n      add\n        /* \"#utility.yul\":12953:13006   */\n      tag_248\n      jump\t// in\n    tag_392:\n        /* \"#utility.yul\":12943:13006   */\n      swap2\n      pop\n        /* \"#utility.yul\":12899:13016   */\n      pop\n        /* \"#utility.yul\":12694:13023   */\n      swap3\n      swap2\n      pop\n      pop\n      jump\t// out\n        /* \"#utility.yul\":13029:13683   */\n    tag_66:\n        /* \"#utility.yul\":13107:13113   */\n      0x00\n        /* \"#utility.yul\":13115:13121   */\n      dup1\n        /* \"#utility.yul\":13164:13166   */\n      0x40\n        /* \"#utility.yul\":13152:13161   */\n      dup4\n        /* \"#utility.yul\":13143:13150   */\n      dup6\n        /* \"#utility.yul\":13139:13162   */\n      sub\n        /* \"#utility.yul\":13135:13167   */\n      slt\n        /* \"#utility.yul\":13132:13251   */\n      iszero\n      tag_394\n      jumpi\n        /* \"#utility.yul\":13170:13249   */\n      tag_395\n      tag_214\n      jump\t// in\n    tag_395:\n        /* \"#utility.yul\":13132:13251   */\n    tag_394:\n        /* \"#utility.yul\":13290:13291   */\n      0x00\n        /* \"#utility.yul\":13315:13368   */\n      tag_396\n        /* \"#utility.yul\":13360:13367   */\n      dup6\n        /* \"#utility.yul\":13351:13357   */\n      dup3\n        /* \"#utility.yul\":13340:13349   */\n      dup7\n        /* \"#utility.yul\":13336:13358   */\n      add\n        /* \"#utility.yul\":13315:13368   */\n      tag_218\n      jump\t// in\n    tag_396:\n        /* \"#utility.yul\":13305:13368   */\n      swap3\n      pop\n        /* \"#utility.yul\":13261:13378   */\n      pop\n        /* \"#utility.yul\":13445:13447   */\n      0x20\n        /* \"#utility.yul\":13434:13443   */\n      dup4\n        /* \"#utility.yul\":13430:13448   */\n      add\n        /* \"#utility.yul\":13417:13449   */\n      calldataload\n        /* \"#utility.yul\":13476:13494   */\n      0xffffffffffffffff\n        /* \"#utility.yul\":13468:13474   */\n      dup2\n        /* \"#utility.yul\":13465:13495   */\n      gt\n        /* \"#utility.yul\":13462:13579   */\n      iszero\n      tag_397\n      jumpi\n        /* \"#utility.yul\":13498:13577   */\n      tag_398\n      tag_215\n      jump\t// in\n    tag_398:\n        /* \"#utility.yul\":13462:13579   */\n    tag_397:\n        /* \"#utility.yul\":13603:13666   */\n      tag_399\n        /* \"#utility.yul\":13658:13665   */\n      dup6\n        /* \"#utility.yul\":13649:13655   */\n      dup3\n        /* \"#utility.yul\":13638:13647   */\n      dup7\n        /* \"#utility.yul\":13634:13656   */\n      add\n        /* \"#utility.yul\":13603:13666   */\n      tag_235\n      jump\t// in\n    tag_399:\n        /* \"#utility.yul\":13593:13666   */\n      swap2\n      pop\n        /* \"#utility.yul\":13388:13676   */\n      pop\n        /* \"#utility.yul\":13029:13683   */\n      swap3\n      pop\n      swap3\n      swap1\n      pop\n      jump\t// out\n        /* \"#utility.yul\":13689:13858   */\n    tag_249:\n        /* \"#utility.yul\":13773:13784   */\n      0x00\n        /* \"#utility.yul\":13807:13813   */\n      dup3\n        /* \"#utility.yul\":13802:13805   */\n      dup3\n        /* \"#utility.yul\":13795:13814   */\n      mstore\n        /* \"#utility.yul\":13847:13851   */\n      0x20\n        /* \"#utility.yul\":13842:13845   */\n      dup3\n        /* \"#utility.yul\":13838:13852   */\n      add\n        /* \"#utility.yul\":13823:13852   */\n      swap1\n      pop\n        /* \"#utility.yul\":13689:13858   */\n      swap3\n      swap2\n      pop\n      pop\n      jump\t// out\n        /* \"#utility.yul\":13864:14046   */\n    tag_250:\n        /* \"#utility.yul\":14004:14038   */\n      0x4f776e61626c653a2063616c6c6572206973206e6f7420746865206f776e6572\n        /* \"#utility.yul\":14000:14001   */\n      0x00\n        /* \"#utility.yul\":13992:13998   */\n      dup3\n        /* \"#utility.yul\":13988:14002   */\n      add\n        /* \"#utility.yul\":13981:14039   */\n      mstore\n        /* \"#utility.yul\":13864:14046   */\n      pop\n      jump\t// out\n        /* \"#utility.yul\":14052:14418   */\n    tag_251:\n        /* \"#utility.yul\":14194:14197   */\n      0x00\n        /* \"#utility.yul\":14215:14282   */\n      tag_403\n        /* \"#utility.yul\":14279:14281   */\n      0x20\n        /* \"#utility.yul\":14274:14277   */\n      dup4\n        /* \"#utility.yul\":14215:14282   */\n      tag_249\n      jump\t// in\n    tag_403:\n        /* \"#utility.yul\":14208:14282   */\n      swap2\n      pop\n        /* \"#utility.yul\":14291:14384   */\n      tag_404\n        /* \"#utility.yul\":14380:14383   */\n      dup3\n        /* \"#utility.yul\":14291:14384   */\n      tag_250\n      jump\t// in\n    tag_404:\n        /* \"#utility.yul\":14409:14411   */\n      0x20\n        /* \"#utility.yul\":14404:14407   */\n      dup3\n        /* \"#utility.yul\":14400:14412   */\n      add\n        /* \"#utility.yul\":14393:14412   */\n      swap1\n      pop\n        /* \"#utility.yul\":14052:14418   */\n      swap2\n      swap1\n      pop\n      jump\t// out\n        /* \"#utility.yul\":14424:14843   */\n    tag_74:\n        /* \"#utility.yul\":14590:14594   */\n      0x00\n        /* \"#utility.yul\":14628:14630   */\n      0x20\n        /* \"#utility.yul\":14617:14626   */\n      dup3\n        /* \"#utility.yul\":14613:14631   */\n      add\n        /* \"#utility.yul\":14605:14631   */\n      swap1\n      pop\n        /* \"#utility.yul\":14677:14686   */\n      dup2\n        /* \"#utility.yul\":14671:14675   */\n      dup2\n        /* \"#utility.yul\":14667:14687   */\n      sub\n        /* \"#utility.yul\":14663:14664   */\n      0x00\n        /* \"#utility.yul\":14652:14661   */\n      dup4\n        /* \"#utility.yul\":14648:14665   */\n      add\n        /* \"#utility.yul\":14641:14688   */\n      mstore\n        /* \"#utility.yul\":14705:14836   */\n      tag_406\n        /* \"#utility.yul\":14831:14835   */\n      dup2\n        /* \"#utility.yul\":14705:14836   */\n      tag_251\n      jump\t// in\n    tag_406:\n        /* \"#utility.yul\":14697:14836   */\n      swap1\n      pop\n        /* \"#utility.yul\":14424:14843   */\n      swap2\n      swap1\n      pop\n      jump\t// out\n        /* \"#utility.yul\":14849:15029   */\n    tag_252:\n        /* \"#utility.yul\":14897:14974   */\n      0x4e487b7100000000000000000000000000000000000000000000000000000000\n        /* \"#utility.yul\":14894:14895   */\n      0x00\n        /* \"#utility.yul\":14887:14975   */\n      mstore\n        /* \"#utility.yul\":14994:14998   */\n      0x12\n        /* \"#utility.yul\":14991:14992   */\n      0x04\n        /* \"#utility.yul\":14984:14999   */\n      mstore\n        /* \"#utility.yul\":15018:15022   */\n      0x24\n        /* \"#utility.yul\":15015:15016   */\n      0x00\n        /* \"#utility.yul\":15008:15023   */\n      revert\n        /* \"#utility.yul\":15035:15211   */\n    tag_91:\n        /* \"#utility.yul\":15067:15068   */\n      0x00\n        /* \"#utility.yul\":15084:15104   */\n      tag_409\n        /* \"#utility.yul\":15102:15103   */\n      dup3\n        /* \"#utility.yul\":15084:15104   */\n      tag_216\n      jump\t// in\n    tag_409:\n        /* \"#utility.yul\":15079:15104   */\n      swap2\n      pop\n        /* \"#utility.yul\":15118:15138   */\n      tag_410\n        /* \"#utility.yul\":15136:15137   */\n      dup4\n        /* \"#utility.yul\":15118:15138   */\n      tag_216\n      jump\t// in\n    tag_410:\n        /* \"#utility.yul\":15113:15138   */\n      swap3\n      pop\n        /* \"#utility.yul\":15157:15158   */\n      dup3\n        /* \"#utility.yul\":15147:15182   */\n      tag_411\n      jumpi\n        /* \"#utility.yul\":15162:15180   */\n      tag_412\n      tag_252\n      jump\t// in\n    tag_412:\n        /* \"#utility.yul\":15147:15182   */\n    tag_411:\n        /* \"#utility.yul\":15203:15204   */\n      dup3\n        /* \"#utility.yul\":15200:15201   */\n      dup3\n        /* \"#utility.yul\":15196:15205   */\n      mod\n        /* \"#utility.yul\":15191:15205   */\n      swap1\n      pop\n        /* \"#utility.yul\":15035:15211   */\n      swap3\n      swap2\n      pop\n      pop\n      jump\t// out\n        /* \"#utility.yul\":15217:15397   */\n    tag_101:\n        /* \"#utility.yul\":15265:15342   */\n      0x4e487b7100000000000000000000000000000000000000000000000000000000\n        /* \"#utility.yul\":15262:15263   */\n      0x00\n        /* \"#utility.yul\":15255:15343   */\n      mstore\n        /* \"#utility.yul\":15362:15366   */\n      0x32\n        /* \"#utility.yul\":15359:15360   */\n      0x04\n        /* \"#utility.yul\":15352:15367   */\n      mstore\n        /* \"#utility.yul\":15386:15390   */\n      0x24\n        /* \"#utility.yul\":15383:15384   */\n      0x00\n        /* \"#utility.yul\":15376:15391   */\n      revert\n        /* \"#utility.yul\":15403:15583   */\n    tag_253:\n        /* \"#utility.yul\":15451:15528   */\n      0x4e487b7100000000000000000000000000000000000000000000000000000000\n        /* \"#utility.yul\":15448:15449   */\n      0x00\n        /* \"#utility.yul\":15441:15529   */\n      mstore\n        /* \"#utility.yul\":15548:15552   */\n      0x22\n        /* \"#utility.yul\":15545:15546   */\n      0x04\n        /* \"#utility.yul\":15538:15553   */\n      mstore\n        /* \"#utility.yul\":15572:15576   */\n      0x24\n        /* \"#utility.yul\":15569:15570   */\n      0x00\n        /* \"#utility.yul\":15562:15577   */\n      revert\n        /* \"#utility.yul\":15589:15909   */\n    tag_104:\n        /* \"#utility.yul\":15633:15639   */\n      0x00\n        /* \"#utility.yul\":15670:15671   */\n      0x02\n        /* \"#utility.yul\":15664:15668   */\n      dup3\n        /* \"#utility.yul\":15660:15672   */\n      div\n        /* \"#utility.yul\":15650:15672   */\n      swap1\n      pop\n        /* \"#utility.yul\":15717:15718   */\n      0x01\n        /* \"#utility.yul\":15711:15715   */\n      dup3\n        /* \"#utility.yul\":15707:15719   */\n      and\n        /* \"#utility.yul\":15738:15756   */\n      dup1\n        /* \"#utility.yul\":15728:15809   */\n      tag_416\n      jumpi\n        /* \"#utility.yul\":15794:15798   */\n      0x7f\n        /* \"#utility.yul\":15786:15792   */\n      dup3\n        /* \"#utility.yul\":15782:15799   */\n      and\n        /* \"#utility.yul\":15772:15799   */\n      swap2\n      pop\n        /* \"#utility.yul\":15728:15809   */\n    tag_416:\n        /* \"#utility.yul\":15856:15858   */\n      0x20\n        /* \"#utility.yul\":15848:15854   */\n      dup3\n        /* \"#utility.yul\":15845:15859   */\n      lt\n        /* \"#utility.yul\":15825:15843   */\n      dup2\n        /* \"#utility.yul\":15822:15860   */\n      sub\n        /* \"#utility.yul\":15819:15903   */\n      tag_417\n      jumpi\n        /* \"#utility.yul\":15875:15893   */\n      tag_418\n      tag_253\n      jump\t// in\n    tag_418:\n        /* \"#utility.yul\":15819:15903   */\n    tag_417:\n        /* \"#utility.yul\":15640:15909   */\n      pop\n        /* \"#utility.yul\":15589:15909   */\n      swap2\n      swap1\n      pop\n      jump\t// out\n        /* \"#utility.yul\":15915:16140   */\n    tag_254:\n        /* \"#utility.yul\":16055:16089   */\n      0x4f776e61626c653a206e6577206f776e657220697320746865207a65726f2061\n        /* \"#utility.yul\":16051:16052   */\n      0x00\n        /* \"#utility.yul\":16043:16049   */\n      dup3\n        /* \"#utility.yul\":16039:16053   */\n      add\n        /* \"#utility.yul\":16032:16090   */\n      mstore\n        /* \"#utility.yul\":16124:16132   */\n      0x6464726573730000000000000000000000000000000000000000000000000000\n        /* \"#utility.yul\":16119:16121   */\n      0x20\n        /* \"#utility.yul\":16111:16117   */\n      dup3\n        /* \"#utility.yul\":16107:16122   */\n      add\n        /* \"#utility.yul\":16100:16133   */\n      mstore\n        /* \"#utility.yul\":15915:16140   */\n      pop\n      jump\t// out\n        /* \"#utility.yul\":16146:16512   */\n    tag_255:\n        /* \"#utility.yul\":16288:16291   */\n      0x00\n        /* \"#utility.yul\":16309:16376   */\n      tag_421\n        /* \"#utility.yul\":16373:16375   */\n      0x26\n        /* \"#utility.yul\":16368:16371   */\n      dup4\n        /* \"#utility.yul\":16309:16376   */\n      tag_249\n      jump\t// in\n    tag_421:\n        /* \"#utility.yul\":16302:16376   */\n      swap2\n      pop\n        /* \"#utility.yul\":16385:16478   */\n      tag_422\n        /* \"#utility.yul\":16474:16477   */\n      dup3\n        /* \"#utility.yul\":16385:16478   */\n      tag_254\n      jump\t// in\n    tag_422:\n        /* \"#utility.yul\":16503:16505   */\n      0x40\n        /* \"#utility.yul\":16498:16501   */\n      dup3\n        /* \"#utility.yul\":16494:16506   */\n      add\n        /* \"#utility.yul\":16487:16506   */\n      swap1\n      pop\n        /* \"#utility.yul\":16146:16512   */\n      swap2\n      swap1\n      pop\n      jump\t// out\n        /* \"#utility.yul\":16518:16937   */\n    tag_179:\n        /* \"#utility.yul\":16684:16688   */\n      0x00\n        /* \"#utility.yul\":16722:16724   */\n      0x20\n        /* \"#utility.yul\":16711:16720   */\n      dup3\n        /* \"#utility.yul\":16707:16725   */\n      add\n        /* \"#utility.yul\":16699:16725   */\n      swap1\n      pop\n        /* \"#utility.yul\":16771:16780   */\n      dup2\n        /* \"#utility.yul\":16765:16769   */\n      dup2\n        /* \"#utility.yul\":16761:16781   */\n      sub\n        /* \"#utility.yul\":16757:16758   */\n      0x00\n        /* \"#utility.yul\":16746:16755   */\n      dup4\n        /* \"#utility.yul\":16742:16759   */\n      add\n        /* \"#utility.yul\":16735:16782   */\n      mstore\n        /* \"#utility.yul\":16799:16930   */\n      tag_424\n        /* \"#utility.yul\":16925:16929   */\n      dup2\n        /* \"#utility.yul\":16799:16930   */\n      tag_255\n      jump\t// in\n    tag_424:\n        /* \"#utility.yul\":16791:16930   */\n      swap1\n      pop\n        /* \"#utility.yul\":16518:16937   */\n      swap2\n      swap1\n      pop\n      jump\t// out\n        /* \"#utility.yul\":16943:17123   */\n    tag_256:\n        /* \"#utility.yul\":16991:17068   */\n      0x4e487b7100000000000000000000000000000000000000000000000000000000\n        /* \"#utility.yul\":16988:16989   */\n      0x00\n        /* \"#utility.yul\":16981:17069   */\n      mstore\n        /* \"#utility.yul\":17088:17092   */\n      0x11\n        /* \"#utility.yul\":17085:17086   */\n      0x04\n        /* \"#utility.yul\":17078:17093   */\n      mstore\n        /* \"#utility.yul\":17112:17116   */\n      0x24\n        /* \"#utility.yul\":17109:17110   */\n      0x00\n        /* \"#utility.yul\":17102:17117   */\n      revert\n        /* \"#utility.yul\":17129:17320   */\n    tag_200:\n        /* \"#utility.yul\":17169:17173   */\n      0x00\n        /* \"#utility.yul\":17189:17209   */\n      tag_427\n        /* \"#utility.yul\":17207:17208   */\n      dup3\n        /* \"#utility.yul\":17189:17209   */\n      tag_216\n      jump\t// in\n    tag_427:\n        /* \"#utility.yul\":17184:17209   */\n      swap2\n      pop\n        /* \"#utility.yul\":17223:17243   */\n      tag_428\n        /* \"#utility.yul\":17241:17242   */\n      dup4\n        /* \"#utility.yul\":17223:17243   */\n      tag_216\n      jump\t// in\n    tag_428:\n        /* \"#utility.yul\":17218:17243   */\n      swap3\n      pop\n        /* \"#utility.yul\":17262:17263   */\n      dup3\n        /* \"#utility.yul\":17259:17260   */\n      dup3\n        /* \"#utility.yul\":17256:17264   */\n      lt\n        /* \"#utility.yul\":17253:17287   */\n      iszero\n      tag_429\n      jumpi\n        /* \"#utility.yul\":17267:17285   */\n      tag_430\n      tag_256\n      jump\t// in\n    tag_430:\n        /* \"#utility.yul\":17253:17287   */\n    tag_429:\n        /* \"#utility.yul\":17312:17313   */\n      dup3\n        /* \"#utility.yul\":17309:17310   */\n      dup3\n        /* \"#utility.yul\":17305:17314   */\n      sub\n        /* \"#utility.yul\":17297:17314   */\n      swap1\n      pop\n        /* \"#utility.yul\":17129:17320   */\n      swap3\n      swap2\n      pop\n      pop\n      jump\t// out\n        /* \"#utility.yul\":17326:17690   */\n    tag_257:\n        /* \"#utility.yul\":17414:17417   */\n      0x00\n        /* \"#utility.yul\":17442:17481   */\n      tag_432\n        /* \"#utility.yul\":17475:17480   */\n      dup3\n        /* \"#utility.yul\":17442:17481   */\n      tag_239\n      jump\t// in\n    tag_432:\n        /* \"#utility.yul\":17497:17568   */\n      tag_433\n        /* \"#utility.yul\":17561:17567   */\n      dup2\n        /* \"#utility.yul\":17556:17559   */\n      dup6\n        /* \"#utility.yul\":17497:17568   */\n      tag_249\n      jump\t// in\n    tag_433:\n        /* \"#utility.yul\":17490:17568   */\n      swap4\n      pop\n        /* \"#utility.yul\":17577:17629   */\n      tag_434\n        /* \"#utility.yul\":17622:17628   */\n      dup2\n        /* \"#utility.yul\":17617:17620   */\n      dup6\n        /* \"#utility.yul\":17610:17614   */\n      0x20\n        /* \"#utility.yul\":17603:17608   */\n      dup7\n        /* \"#utility.yul\":17599:17615   */\n      add\n        /* \"#utility.yul\":17577:17629   */\n      tag_241\n      jump\t// in\n    tag_434:\n        /* \"#utility.yul\":17654:17683   */\n      tag_435\n        /* \"#utility.yul\":17676:17682   */\n      dup2\n        /* \"#utility.yul\":17654:17683   */\n      tag_228\n      jump\t// in\n    tag_435:\n        /* \"#utility.yul\":17649:17652   */\n      dup5\n        /* \"#utility.yul\":17645:17684   */\n      add\n        /* \"#utility.yul\":17638:17684   */\n      swap2\n      pop\n        /* \"#utility.yul\":17418:17690   */\n      pop\n        /* \"#utility.yul\":17326:17690   */\n      swap3\n      swap2\n      pop\n      pop\n      jump\t// out\n        /* \"#utility.yul\":17696:18111   */\n    tag_202:\n        /* \"#utility.yul\":17833:17837   */\n      0x00\n        /* \"#utility.yul\":17871:17873   */\n      0x40\n        /* \"#utility.yul\":17860:17869   */\n      dup3\n        /* \"#utility.yul\":17856:17874   */\n      add\n        /* \"#utility.yul\":17848:17874   */\n      swap1\n      pop\n        /* \"#utility.yul\":17920:17929   */\n      dup2\n        /* \"#utility.yul\":17914:17918   */\n      dup2\n        /* \"#utility.yul\":17910:17930   */\n      sub\n        /* \"#utility.yul\":17906:17907   */\n      0x00\n        /* \"#utility.yul\":17895:17904   */\n      dup4\n        /* \"#utility.yul\":17891:17908   */\n      add\n        /* \"#utility.yul\":17884:17931   */\n      mstore\n        /* \"#utility.yul\":17948:18026   */\n      tag_437\n        /* \"#utility.yul\":18021:18025   */\n      dup2\n        /* \"#utility.yul\":18012:18018   */\n      dup6\n        /* \"#utility.yul\":17948:18026   */\n      tag_257\n      jump\t// in\n    tag_437:\n        /* \"#utility.yul\":17940:18026   */\n      swap1\n      pop\n        /* \"#utility.yul\":18036:18104   */\n      tag_438\n        /* \"#utility.yul\":18100:18102   */\n      0x20\n        /* \"#utility.yul\":18089:18098   */\n      dup4\n        /* \"#utility.yul\":18085:18103   */\n      add\n        /* \"#utility.yul\":18076:18082   */\n      dup5\n        /* \"#utility.yul\":18036:18104   */\n      tag_246\n      jump\t// in\n    tag_438:\n        /* \"#utility.yul\":17696:18111   */\n      swap4\n      swap3\n      pop\n      pop\n      pop\n      jump\t// out\n\n    auxdata: 0xa264697066735822122020683d597e02081f65631afa902741c8ace01e471ce5e44ab4bf1c0e2e6d37a864736f6c634300080e0033\n}\n",
				"bytecode": {
					"linkReferences": {},
					"object": "608060405234801561001057600080fd5b5061002d61002261003260201b60201c565b61003a60201b60201c565b6100fe565b600033905090565b60008060009054906101000a900473ffffffffffffffffffffffffffffffffffffffff169050816000806101000a81548173ffffffffffffffffffffffffffffffffffffffff021916908373ffffffffffffffffffffffffffffffffffffffff1602179055508173ffffffffffffffffffffffffffffffffffffffff168173ffffffffffffffffffffffffffffffffffffffff167f8be0079c531659141344cd1fd0a4f28419497f9722a3daafe3b4186f6b6457e060405160405180910390a35050565b611d468061010d6000396000f3fe60806040526004361061009c5760003560e01c80638da5cb5b116100645780638da5cb5b146101845780639a2dc409146101af578063a0af60de146101cb578063b9360cf1146101f6578063f2fde38b14610234578063fbb3b6ce1461025d5761009c565b80631d3f7559146100a1578063377def85146100ca578063400ae0f9146100f357806351a1d40e14610130578063715018a61461016d575b600080fd5b3480156100ad57600080fd5b506100c860048036038101906100c391906113a9565b610286565b005b3480156100d657600080fd5b506100f160048036038101906100ec91906113a9565b610331565b005b3480156100ff57600080fd5b5061011a600480360381019061011591906113e9565b6103cd565b6040516101279190611457565b60405180910390f35b34801561013c57600080fd5b50610157600480360381019061015291906113e9565b610400565b6040516101649190611481565b60405180910390f35b34801561017957600080fd5b50610182610420565b005b34801561019057600080fd5b506101996104a8565b6040516101a69190611457565b60405180910390f35b6101c960048036038101906101c4919061161b565b6104d1565b005b3480156101d757600080fd5b506101e061051f565b6040516101ed9190611930565b60405180910390f35b34801561020257600080fd5b5061021d600480360381019061021891906113e9565b6108ff565b60405161022b929190611961565b60405180910390f35b34801561024057600080fd5b5061025b600480360381019061025691906119bd565b610d6e565b005b34801561026957600080fd5b50610284600480360381019061027f91906119ea565b610e65565b005b61028e610f10565b73ffffffffffffffffffffffffffffffffffffffff166102ac6104a8565b73ffffffffffffffffffffffffffffffffffffffff1614610302576040517f08c379a00000000000000000000000000000000000000000000000000000000081526004016102f990611aa3565b60405180910390fd5b806002600084815260200190815260200160002060006101000a81548160ff0219169083151502179055505050565b813373ffffffffffffffffffffffffffffffffffffffff166004600083815260200190815260200160002060009054906101000a900473ffffffffffffffffffffffffffffffffffffffff1673ffffffffffffffffffffffffffffffffffffffff161461039d57600080fd5b816002600085815260200190815260200160002060006101000a81548160ff021916908315150217905550505050565b60046020528060005260406000206000915054906101000a900473ffffffffffffffffffffffffffffffffffffffff1681565b60026020528060005260406000206000915054906101000a900460ff1681565b610428610f10565b73ffffffffffffffffffffffffffffffffffffffff166104466104a8565b73ffffffffffffffffffffffffffffffffffffffff161461049c576040517f08c379a000000000000000000000000000000000000000000000000000000000815260040161049390611aa3565b60405180910390fd5b6104a66000610f18565b565b60008060009054906101000a900473ffffffffffffffffffffffffffffffffffffffff16905090565b8034146104dd57600080fd5b600082826104eb9190611af2565b146104f557600080fd5b81811161050157600080fd5b6105138a8a8a8a8a8a8a8a8a8a610fdc565b50505050505050505050565b610527611235565b6000806001828154811061053e5761053d611b23565b5b90600052602060002090600902016040518061012001604052908160008201805461056890611b81565b80601f016020809104026020016040519081016040528092919081815260200182805461059490611b81565b80156105e15780601f106105b6576101008083540402835291602001916105e1565b820191906000526020600020905b8154815290600101906020018083116105c457829003601f168201915b505050505081526020016001820180546105fa90611b81565b80601f016020809104026020016040519081016040528092919081815260200182805461062690611b81565b80156106735780601f1061064857610100808354040283529160200191610673565b820191906000526020600020905b81548152906001019060200180831161065657829003601f168201915b5050505050815260200160028201805461068c90611b81565b80601f01602080910402602001604051908101604052809291908181526020018280546106b890611b81565b80156107055780601f106106da57610100808354040283529160200191610705565b820191906000526020600020905b8154815290600101906020018083116106e857829003601f168201915b5050505050815260200160038201805461071e90611b81565b80601f016020809104026020016040519081016040528092919081815260200182805461074a90611b81565b80156107975780601f1061076c57610100808354040283529160200191610797565b820191906000526020600020905b81548152906001019060200180831161077a57829003601f168201915b505050505081526020016004820180546107b090611b81565b80601f01602080910402602001604051908101604052809291908181526020018280546107dc90611b81565b80156108295780601f106107fe57610100808354040283529160200191610829565b820191906000526020600020905b81548152906001019060200180831161080c57829003601f168201915b5050505050815260200160058201805461084290611b81565b80601f016020809104026020016040519081016040528092919081815260200182805461086e90611b81565b80156108bb5780601f10610890576101008083540402835291602001916108bb565b820191906000526020600020905b81548152906001019060200180831161089e57829003601f168201915b505050505081526020016006820160009054906101000a900460ff1660ff1660ff168152602001600782015481526020016008820154815250509050809250505090565b610907611235565b6000823373ffffffffffffffffffffffffffffffffffffffff166004600083815260200190815260200160002060009054906101000a900473ffffffffffffffffffffffffffffffffffffffff1673ffffffffffffffffffffffffffffffffffffffff161461097557600080fd5b6001848154811061098957610988611b23565b5b90600052602060002090600902016003600086815260200190815260200160002060009054906101000a900460ff1681604051806101200160405290816000820180546109d590611b81565b80601f0160208091040260200160405190810160405280929190818152602001828054610a0190611b81565b8015610a4e5780601f10610a2357610100808354040283529160200191610a4e565b820191906000526020600020905b815481529060010190602001808311610a3157829003601f168201915b50505050508152602001600182018054610a6790611b81565b80601f0160208091040260200160405190810160405280929190818152602001828054610a9390611b81565b8015610ae05780601f10610ab557610100808354040283529160200191610ae0565b820191906000526020600020905b815481529060010190602001808311610ac357829003601f168201915b50505050508152602001600282018054610af990611b81565b80601f0160208091040260200160405190810160405280929190818152602001828054610b2590611b81565b8015610b725780601f10610b4757610100808354040283529160200191610b72565b820191906000526020600020905b815481529060010190602001808311610b5557829003601f168201915b50505050508152602001600382018054610b8b90611b81565b80601f0160208091040260200160405190810160405280929190818152602001828054610bb790611b81565b8015610c045780601f10610bd957610100808354040283529160200191610c04565b820191906000526020600020905b815481529060010190602001808311610be757829003601f168201915b50505050508152602001600482018054610c1d90611b81565b80601f0160208091040260200160405190810160405280929190818152602001828054610c4990611b81565b8015610c965780601f10610c6b57610100808354040283529160200191610c96565b820191906000526020600020905b815481529060010190602001808311610c7957829003601f168201915b50505050508152602001600582018054610caf90611b81565b80601f0160208091040260200160405190810160405280929190818152602001828054610cdb90611b81565b8015610d285780601f10610cfd57610100808354040283529160200191610d28565b820191906000526020600020905b815481529060010190602001808311610d0b57829003601f168201915b505050505081526020016006820160009054906101000a900460ff1660ff1660ff1681526020016007820154815260200160088201548152505091509250925050915091565b610d76610f10565b73ffffffffffffffffffffffffffffffffffffffff16610d946104a8565b73ffffffffffffffffffffffffffffffffffffffff1614610dea576040517f08c379a0000000000000000000000000000000000000000000000000000000008152600401610de190611aa3565b60405180910390fd5b600073ffffffffffffffffffffffffffffffffffffffff168173ffffffffffffffffffffffffffffffffffffffff1603610e59576040517f08c379a0000000000000000000000000000000000000000000000000000000008152600401610e5090611c24565b60405180910390fd5b610e6281610f18565b50565b813373ffffffffffffffffffffffffffffffffffffffff166004600083815260200190815260200160002060009054906101000a900473ffffffffffffffffffffffffffffffffffffffff1673ffffffffffffffffffffffffffffffffffffffff1614610ed157600080fd5b8160018481548110610ee657610ee5611b23565b5b90600052602060002090600902016005019080519060200190610f0a929190611284565b50505050565b600033905090565b60008060009054906101000a900473ffffffffffffffffffffffffffffffffffffffff169050816000806101000a81548173ffffffffffffffffffffffffffffffffffffffff021916908373ffffffffffffffffffffffffffffffffffffffff1602179055508173ffffffffffffffffffffffffffffffffffffffff168173ffffffffffffffffffffffffffffffffffffffff167f8be0079c531659141344cd1fd0a4f28419497f9722a3daafe3b4186f6b6457e060405160405180910390a35050565b60016040518061012001604052808c81526020018b81526020018a81526020018981526020018881526020018781526020018560ff1681526020018481526020018381525090806001815401808255809150506001900390600052602060002090600902016000909190919091506000820151816000019080519060200190611066929190611284565b506020820151816001019080519060200190611083929190611284565b5060408201518160020190805190602001906110a0929190611284565b5060608201518160030190805190602001906110bd929190611284565b5060808201518160040190805190602001906110da929190611284565b5060a08201518160050190805190602001906110f7929190611284565b5060c08201518160060160006101000a81548160ff021916908360ff16021790555060e08201518160070155610100820151816008015550506000600180805490506111439190611c73565b9050846003600083815260200190815260200160002060006101000a81548160ff021916908360ff160217905550336004600083815260200190815260200160002060006101000a81548173ffffffffffffffffffffffffffffffffffffffff021916908373ffffffffffffffffffffffffffffffffffffffff16021790555060016002600083815260200190815260200160002060006101000a81548160ff0219169083151502179055507f545dca5d847b655a9f03cdf5619f53f0b2546051fd0d015b18c09ae2a8b1a7658b86604051611220929190611ce0565b60405180910390a15050505050505050505050565b604051806101200160405280606081526020016060815260200160608152602001606081526020016060815260200160608152602001600060ff16815260200160008152602001600081525090565b82805461129090611b81565b90600052602060002090601f0160209004810192826112b257600085556112f9565b82601f106112cb57805160ff19168380011785556112f9565b828001600101855582156112f9579182015b828111156112f85782518255916020019190600101906112dd565b5b509050611306919061130a565b5090565b5b8082111561132357600081600090555060010161130b565b5090565b6000604051905090565b600080fd5b600080fd5b6000819050919050565b61134e8161133b565b811461135957600080fd5b50565b60008135905061136b81611345565b92915050565b60008115159050919050565b61138681611371565b811461139157600080fd5b50565b6000813590506113a38161137d565b92915050565b600080604083850312156113c0576113bf611331565b5b60006113ce8582860161135c565b92505060206113df85828601611394565b9150509250929050565b6000602082840312156113ff576113fe611331565b5b600061140d8482850161135c565b91505092915050565b600073ffffffffffffffffffffffffffffffffffffffff82169050919050565b600061144182611416565b9050919050565b61145181611436565b82525050565b600060208201905061146c6000830184611448565b92915050565b61147b81611371565b82525050565b60006020820190506114966000830184611472565b92915050565b600080fd5b600080fd5b6000601f19601f8301169050919050565b7f4e487b7100000000000000000000000000000000000000000000000000000000600052604160045260246000fd5b6114ef826114a6565b810181811067ffffffffffffffff8211171561150e5761150d6114b7565b5b80604052505050565b6000611521611327565b905061152d82826114e6565b919050565b600067ffffffffffffffff82111561154d5761154c6114b7565b5b611556826114a6565b9050602081019050919050565b82818337600083830152505050565b600061158561158084611532565b611517565b9050828152602081018484840111156115a1576115a06114a1565b5b6115ac848285611563565b509392505050565b600082601f8301126115c9576115c861149c565b5b81356115d9848260208601611572565b91505092915050565b600060ff82169050919050565b6115f8816115e2565b811461160357600080fd5b50565b600081359050611615816115ef565b92915050565b6000806000806000806000806000806101408b8d03121561163f5761163e611331565b5b60008b013567ffffffffffffffff81111561165d5761165c611336565b5b6116698d828e016115b4565b9a505060208b013567ffffffffffffffff81111561168a57611689611336565b5b6116968d828e016115b4565b99505060408b013567ffffffffffffffff8111156116b7576116b6611336565b5b6116c38d828e016115b4565b98505060608b013567ffffffffffffffff8111156116e4576116e3611336565b5b6116f08d828e016115b4565b97505060808b013567ffffffffffffffff81111561171157611710611336565b5b61171d8d828e016115b4565b96505060a08b013567ffffffffffffffff81111561173e5761173d611336565b5b61174a8d828e016115b4565b95505060c061175b8d828e01611606565b94505060e061176c8d828e01611606565b93505061010061177e8d828e0161135c565b9250506101206117908d828e0161135c565b9150509295989b9194979a5092959850565b600081519050919050565b600082825260208201905092915050565b60005b838110156117dc5780820151818401526020810190506117c1565b838111156117eb576000848401525b50505050565b60006117fc826117a2565b61180681856117ad565b93506118168185602086016117be565b61181f816114a6565b840191505092915050565b611833816115e2565b82525050565b6118428161133b565b82525050565b600061012083016000830151848203600086015261186682826117f1565b9150506020830151848203602086015261188082826117f1565b9150506040830151848203604086015261189a82826117f1565b915050606083015184820360608601526118b482826117f1565b915050608083015184820360808601526118ce82826117f1565b91505060a083015184820360a08601526118e882826117f1565b91505060c08301516118fd60c086018261182a565b5060e083015161191060e0860182611839565b50610100830151611925610100860182611839565b508091505092915050565b6000602082019050818103600083015261194a8184611848565b905092915050565b61195b816115e2565b82525050565b6000604082019050818103600083015261197b8185611848565b905061198a6020830184611952565b9392505050565b61199a81611436565b81146119a557600080fd5b50565b6000813590506119b781611991565b92915050565b6000602082840312156119d3576119d2611331565b5b60006119e1848285016119a8565b91505092915050565b60008060408385031215611a0157611a00611331565b5b6000611a0f8582860161135c565b925050602083013567ffffffffffffffff811115611a3057611a2f611336565b5b611a3c858286016115b4565b9150509250929050565b600082825260208201905092915050565b7f4f776e61626c653a2063616c6c6572206973206e6f7420746865206f776e6572600082015250565b6000611a8d602083611a46565b9150611a9882611a57565b602082019050919050565b60006020820190508181036000830152611abc81611a80565b9050919050565b7f4e487b7100000000000000000000000000000000000000000000000000000000600052601260045260246000fd5b6000611afd8261133b565b9150611b088361133b565b925082611b1857611b17611ac3565b5b828206905092915050565b7f4e487b7100000000000000000000000000000000000000000000000000000000600052603260045260246000fd5b7f4e487b7100000000000000000000000000000000000000000000000000000000600052602260045260246000fd5b60006002820490506001821680611b9957607f821691505b602082108103611bac57611bab611b52565b5b50919050565b7f4f776e61626c653a206e6577206f776e657220697320746865207a65726f206160008201527f6464726573730000000000000000000000000000000000000000000000000000602082015250565b6000611c0e602683611a46565b9150611c1982611bb2565b604082019050919050565b60006020820190508181036000830152611c3d81611c01565b9050919050565b7f4e487b7100000000000000000000000000000000000000000000000000000000600052601160045260246000fd5b6000611c7e8261133b565b9150611c898361133b565b925082821015611c9c57611c9b611c44565b5b828203905092915050565b6000611cb2826117a2565b611cbc8185611a46565b9350611ccc8185602086016117be565b611cd5816114a6565b840191505092915050565b60006040820190508181036000830152611cfa8185611ca7565b9050611d096020830184611952565b939250505056fea264697066735822122020683d597e02081f65631afa902741c8ace01e471ce5e44ab4bf1c0e2e6d37a864736f6c634300080e0033",
					"opcodes": "PUSH1 0x80 PUSH1 0x40 MSTORE CALLVALUE DUP1 ISZERO PUSH2 0x10 JUMPI PUSH1 0x0 DUP1 REVERT JUMPDEST POP PUSH2 0x2D PUSH2 0x22 PUSH2 0x32 PUSH1 0x20 SHL PUSH1 0x20 SHR JUMP JUMPDEST PUSH2 0x3A PUSH1 0x20 SHL PUSH1 0x20 SHR JUMP JUMPDEST PUSH2 0xFE JUMP JUMPDEST PUSH1 0x0 CALLER SWAP1 POP SWAP1 JUMP JUMPDEST PUSH1 0x0 DUP1 PUSH1 0x0 SWAP1 SLOAD SWAP1 PUSH2 0x100 EXP SWAP1 DIV PUSH20 0xFFFFFFFFFFFFFFFFFFFFFFFFFFFFFFFFFFFFFFFF AND SWAP1 POP DUP2 PUSH1 0x0 DUP1 PUSH2 0x100 EXP DUP2 SLOAD DUP2 PUSH20 0xFFFFFFFFFFFFFFFFFFFFFFFFFFFFFFFFFFFFFFFF MUL NOT AND SWAP1 DUP4 PUSH20 0xFFFFFFFFFFFFFFFFFFFFFFFFFFFFFFFFFFFFFFFF AND MUL OR SWAP1 SSTORE POP DUP2 PUSH20 0xFFFFFFFFFFFFFFFFFFFFFFFFFFFFFFFFFFFFFFFF AND DUP2 PUSH20 0xFFFFFFFFFFFFFFFFFFFFFFFFFFFFFFFFFFFFFFFF AND PUSH32 0x8BE0079C531659141344CD1FD0A4F28419497F9722A3DAAFE3B4186F6B6457E0 PUSH1 0x40 MLOAD PUSH1 0x40 MLOAD DUP1 SWAP2 SUB SWAP1 LOG3 POP POP JUMP JUMPDEST PUSH2 0x1D46 DUP1 PUSH2 0x10D PUSH1 0x0 CODECOPY PUSH1 0x0 RETURN INVALID PUSH1 0x80 PUSH1 0x40 MSTORE PUSH1 0x4 CALLDATASIZE LT PUSH2 0x9C JUMPI PUSH1 0x0 CALLDATALOAD PUSH1 0xE0 SHR DUP1 PUSH4 0x8DA5CB5B GT PUSH2 0x64 JUMPI DUP1 PUSH4 0x8DA5CB5B EQ PUSH2 0x184 JUMPI DUP1 PUSH4 0x9A2DC409 EQ PUSH2 0x1AF JUMPI DUP1 PUSH4 0xA0AF60DE EQ PUSH2 0x1CB JUMPI DUP1 PUSH4 0xB9360CF1 EQ PUSH2 0x1F6 JUMPI DUP1 PUSH4 0xF2FDE38B EQ PUSH2 0x234 JUMPI DUP1 PUSH4 0xFBB3B6CE EQ PUSH2 0x25D JUMPI PUSH2 0x9C JUMP JUMPDEST DUP1 PUSH4 0x1D3F7559 EQ PUSH2 0xA1 JUMPI DUP1 PUSH4 0x377DEF85 EQ PUSH2 0xCA JUMPI DUP1 PUSH4 0x400AE0F9 EQ PUSH2 0xF3 JUMPI DUP1 PUSH4 0x51A1D40E EQ PUSH2 0x130 JUMPI DUP1 PUSH4 0x715018A6 EQ PUSH2 0x16D JUMPI JUMPDEST PUSH1 0x0 DUP1 REVERT JUMPDEST CALLVALUE DUP1 ISZERO PUSH2 0xAD JUMPI PUSH1 0x0 DUP1 REVERT JUMPDEST POP PUSH2 0xC8 PUSH1 0x4 DUP1 CALLDATASIZE SUB DUP2 ADD SWAP1 PUSH2 0xC3 SWAP2 SWAP1 PUSH2 0x13A9 JUMP JUMPDEST PUSH2 0x286 JUMP JUMPDEST STOP JUMPDEST CALLVALUE DUP1 ISZERO PUSH2 0xD6 JUMPI PUSH1 0x0 DUP1 REVERT JUMPDEST POP PUSH2 0xF1 PUSH1 0x4 DUP1 CALLDATASIZE SUB DUP2 ADD SWAP1 PUSH2 0xEC SWAP2 SWAP1 PUSH2 0x13A9 JUMP JUMPDEST PUSH2 0x331 JUMP JUMPDEST STOP JUMPDEST CALLVALUE DUP1 ISZERO PUSH2 0xFF JUMPI PUSH1 0x0 DUP1 REVERT JUMPDEST POP PUSH2 0x11A PUSH1 0x4 DUP1 CALLDATASIZE SUB DUP2 ADD SWAP1 PUSH2 0x115 SWAP2 SWAP1 PUSH2 0x13E9 JUMP JUMPDEST PUSH2 0x3CD JUMP JUMPDEST PUSH1 0x40 MLOAD PUSH2 0x127 SWAP2 SWAP1 PUSH2 0x1457 JUMP JUMPDEST PUSH1 0x40 MLOAD DUP1 SWAP2 SUB SWAP1 RETURN JUMPDEST CALLVALUE DUP1 ISZERO PUSH2 0x13C JUMPI PUSH1 0x0 DUP1 REVERT JUMPDEST POP PUSH2 0x157 PUSH1 0x4 DUP1 CALLDATASIZE SUB DUP2 ADD SWAP1 PUSH2 0x152 SWAP2 SWAP1 PUSH2 0x13E9 JUMP JUMPDEST PUSH2 0x400 JUMP JUMPDEST PUSH1 0x40 MLOAD PUSH2 0x164 SWAP2 SWAP1 PUSH2 0x1481 JUMP JUMPDEST PUSH1 0x40 MLOAD DUP1 SWAP2 SUB SWAP1 RETURN JUMPDEST CALLVALUE DUP1 ISZERO PUSH2 0x179 JUMPI PUSH1 0x0 DUP1 REVERT JUMPDEST POP PUSH2 0x182 PUSH2 0x420 JUMP JUMPDEST STOP JUMPDEST CALLVALUE DUP1 ISZERO PUSH2 0x190 JUMPI PUSH1 0x0 DUP1 REVERT JUMPDEST POP PUSH2 0x199 PUSH2 0x4A8 JUMP JUMPDEST PUSH1 0x40 MLOAD PUSH2 0x1A6 SWAP2 SWAP1 PUSH2 0x1457 JUMP JUMPDEST PUSH1 0x40 MLOAD DUP1 SWAP2 SUB SWAP1 RETURN JUMPDEST PUSH2 0x1C9 PUSH1 0x4 DUP1 CALLDATASIZE SUB DUP2 ADD SWAP1 PUSH2 0x1C4 SWAP2 SWAP1 PUSH2 0x161B JUMP JUMPDEST PUSH2 0x4D1 JUMP JUMPDEST STOP JUMPDEST CALLVALUE DUP1 ISZERO PUSH2 0x1D7 JUMPI PUSH1 0x0 DUP1 REVERT JUMPDEST POP PUSH2 0x1E0 PUSH2 0x51F JUMP JUMPDEST PUSH1 0x40 MLOAD PUSH2 0x1ED SWAP2 SWAP1 PUSH2 0x1930 JUMP JUMPDEST PUSH1 0x40 MLOAD DUP1 SWAP2 SUB SWAP1 RETURN JUMPDEST CALLVALUE DUP1 ISZERO PUSH2 0x202 JUMPI PUSH1 0x0 DUP1 REVERT JUMPDEST POP PUSH2 0x21D PUSH1 0x4 DUP1 CALLDATASIZE SUB DUP2 ADD SWAP1 PUSH2 0x218 SWAP2 SWAP1 PUSH2 0x13E9 JUMP JUMPDEST PUSH2 0x8FF JUMP JUMPDEST PUSH1 0x40 MLOAD PUSH2 0x22B SWAP3 SWAP2 SWAP1 PUSH2 0x1961 JUMP JUMPDEST PUSH1 0x40 MLOAD DUP1 SWAP2 SUB SWAP1 RETURN JUMPDEST CALLVALUE DUP1 ISZERO PUSH2 0x240 JUMPI PUSH1 0x0 DUP1 REVERT JUMPDEST POP PUSH2 0x25B PUSH1 0x4 DUP1 CALLDATASIZE SUB DUP2 ADD SWAP1 PUSH2 0x256 SWAP2 SWAP1 PUSH2 0x19BD JUMP JUMPDEST PUSH2 0xD6E JUMP JUMPDEST STOP JUMPDEST CALLVALUE DUP1 ISZERO PUSH2 0x269 JUMPI PUSH1 0x0 DUP1 REVERT JUMPDEST POP PUSH2 0x284 PUSH1 0x4 DUP1 CALLDATASIZE SUB DUP2 ADD SWAP1 PUSH2 0x27F SWAP2 SWAP1 PUSH2 0x19EA JUMP JUMPDEST PUSH2 0xE65 JUMP JUMPDEST STOP JUMPDEST PUSH2 0x28E PUSH2 0xF10 JUMP JUMPDEST PUSH20 0xFFFFFFFFFFFFFFFFFFFFFFFFFFFFFFFFFFFFFFFF AND PUSH2 0x2AC PUSH2 0x4A8 JUMP JUMPDEST PUSH20 0xFFFFFFFFFFFFFFFFFFFFFFFFFFFFFFFFFFFFFFFF AND EQ PUSH2 0x302 JUMPI PUSH1 0x40 MLOAD PUSH32 0x8C379A000000000000000000000000000000000000000000000000000000000 DUP2 MSTORE PUSH1 0x4 ADD PUSH2 0x2F9 SWAP1 PUSH2 0x1AA3 JUMP JUMPDEST PUSH1 0x40 MLOAD DUP1 SWAP2 SUB SWAP1 REVERT JUMPDEST DUP1 PUSH1 0x2 PUSH1 0x0 DUP5 DUP2 MSTORE PUSH1 0x20 ADD SWAP1 DUP2 MSTORE PUSH1 0x20 ADD PUSH1 0x0 KECCAK256 PUSH1 0x0 PUSH2 0x100 EXP DUP2 SLOAD DUP2 PUSH1 0xFF MUL NOT AND SWAP1 DUP4 ISZERO ISZERO MUL OR SWAP1 SSTORE POP POP POP JUMP JUMPDEST DUP2 CALLER PUSH20 0xFFFFFFFFFFFFFFFFFFFFFFFFFFFFFFFFFFFFFFFF AND PUSH1 0x4 PUSH1 0x0 DUP4 DUP2 MSTORE PUSH1 0x20 ADD SWAP1 DUP2 MSTORE PUSH1 0x20 ADD PUSH1 0x0 KECCAK256 PUSH1 0x0 SWAP1 SLOAD SWAP1 PUSH2 0x100 EXP SWAP1 DIV PUSH20 0xFFFFFFFFFFFFFFFFFFFFFFFFFFFFFFFFFFFFFFFF AND PUSH20 0xFFFFFFFFFFFFFFFFFFFFFFFFFFFFFFFFFFFFFFFF AND EQ PUSH2 0x39D JUMPI PUSH1 0x0 DUP1 REVERT JUMPDEST DUP2 PUSH1 0x2 PUSH1 0x0 DUP6 DUP2 MSTORE PUSH1 0x20 ADD SWAP1 DUP2 MSTORE PUSH1 0x20 ADD PUSH1 0x0 KECCAK256 PUSH1 0x0 PUSH2 0x100 EXP DUP2 SLOAD DUP2 PUSH1 0xFF MUL NOT AND SWAP1 DUP4 ISZERO ISZERO MUL OR SWAP1 SSTORE POP POP POP POP JUMP JUMPDEST PUSH1 0x4 PUSH1 0x20 MSTORE DUP1 PUSH1 0x0 MSTORE PUSH1 0x40 PUSH1 0x0 KECCAK256 PUSH1 0x0 SWAP2 POP SLOAD SWAP1 PUSH2 0x100 EXP SWAP1 DIV PUSH20 0xFFFFFFFFFFFFFFFFFFFFFFFFFFFFFFFFFFFFFFFF AND DUP2 JUMP JUMPDEST PUSH1 0x2 PUSH1 0x20 MSTORE DUP1 PUSH1 0x0 MSTORE PUSH1 0x40 PUSH1 0x0 KECCAK256 PUSH1 0x0 SWAP2 POP SLOAD SWAP1 PUSH2 0x100 EXP SWAP1 DIV PUSH1 0xFF AND DUP2 JUMP JUMPDEST PUSH2 0x428 PUSH2 0xF10 JUMP JUMPDEST PUSH20 0xFFFFFFFFFFFFFFFFFFFFFFFFFFFFFFFFFFFFFFFF AND PUSH2 0x446 PUSH2 0x4A8 JUMP JUMPDEST PUSH20 0xFFFFFFFFFFFFFFFFFFFFFFFFFFFFFFFFFFFFFFFF AND EQ PUSH2 0x49C JUMPI PUSH1 0x40 MLOAD PUSH32 0x8C379A000000000000000000000000000000000000000000000000000000000 DUP2 MSTORE PUSH1 0x4 ADD PUSH2 0x493 SWAP1 PUSH2 0x1AA3 JUMP JUMPDEST PUSH1 0x40 MLOAD DUP1 SWAP2 SUB SWAP1 REVERT JUMPDEST PUSH2 0x4A6 PUSH1 0x0 PUSH2 0xF18 JUMP JUMPDEST JUMP JUMPDEST PUSH1 0x0 DUP1 PUSH1 0x0 SWAP1 SLOAD SWAP1 PUSH2 0x100 EXP SWAP1 DIV PUSH20 0xFFFFFFFFFFFFFFFFFFFFFFFFFFFFFFFFFFFFFFFF AND SWAP1 POP SWAP1 JUMP JUMPDEST DUP1 CALLVALUE EQ PUSH2 0x4DD JUMPI PUSH1 0x0 DUP1 REVERT JUMPDEST PUSH1 0x0 DUP3 DUP3 PUSH2 0x4EB SWAP2 SWAP1 PUSH2 0x1AF2 JUMP JUMPDEST EQ PUSH2 0x4F5 JUMPI PUSH1 0x0 DUP1 REVERT JUMPDEST DUP2 DUP2 GT PUSH2 0x501 JUMPI PUSH1 0x0 DUP1 REVERT JUMPDEST PUSH2 0x513 DUP11 DUP11 DUP11 DUP11 DUP11 DUP11 DUP11 DUP11 DUP11 DUP11 PUSH2 0xFDC JUMP JUMPDEST POP POP POP POP POP POP POP POP POP POP JUMP JUMPDEST PUSH2 0x527 PUSH2 0x1235 JUMP JUMPDEST PUSH1 0x0 DUP1 PUSH1 0x1 DUP3 DUP2 SLOAD DUP2 LT PUSH2 0x53E JUMPI PUSH2 0x53D PUSH2 0x1B23 JUMP JUMPDEST JUMPDEST SWAP1 PUSH1 0x0 MSTORE PUSH1 0x20 PUSH1 0x0 KECCAK256 SWAP1 PUSH1 0x9 MUL ADD PUSH1 0x40 MLOAD DUP1 PUSH2 0x120 ADD PUSH1 0x40 MSTORE SWAP1 DUP2 PUSH1 0x0 DUP3 ADD DUP1 SLOAD PUSH2 0x568 SWAP1 PUSH2 0x1B81 JUMP JUMPDEST DUP1 PUSH1 0x1F ADD PUSH1 0x20 DUP1 SWAP2 DIV MUL PUSH1 0x20 ADD PUSH1 0x40 MLOAD SWAP1 DUP2 ADD PUSH1 0x40 MSTORE DUP1 SWAP3 SWAP2 SWAP1 DUP2 DUP2 MSTORE PUSH1 0x20 ADD DUP3 DUP1 SLOAD PUSH2 0x594 SWAP1 PUSH2 0x1B81 JUMP JUMPDEST DUP1 ISZERO PUSH2 0x5E1 JUMPI DUP1 PUSH1 0x1F LT PUSH2 0x5B6 JUMPI PUSH2 0x100 DUP1 DUP4 SLOAD DIV MUL DUP4 MSTORE SWAP2 PUSH1 0x20 ADD SWAP2 PUSH2 0x5E1 JUMP JUMPDEST DUP3 ADD SWAP2 SWAP1 PUSH1 0x0 MSTORE PUSH1 0x20 PUSH1 0x0 KECCAK256 SWAP1 JUMPDEST DUP2 SLOAD DUP2 MSTORE SWAP1 PUSH1 0x1 ADD SWAP1 PUSH1 0x20 ADD DUP1 DUP4 GT PUSH2 0x5C4 JUMPI DUP3 SWAP1 SUB PUSH1 0x1F AND DUP3 ADD SWAP2 JUMPDEST POP POP POP POP POP DUP2 MSTORE PUSH1 0x20 ADD PUSH1 0x1 DUP3 ADD DUP1 SLOAD PUSH2 0x5FA SWAP1 PUSH2 0x1B81 JUMP JUMPDEST DUP1 PUSH1 0x1F ADD PUSH1 0x20 DUP1 SWAP2 DIV MUL PUSH1 0x20 ADD PUSH1 0x40 MLOAD SWAP1 DUP2 ADD PUSH1 0x40 MSTORE DUP1 SWAP3 SWAP2 SWAP1 DUP2 DUP2 MSTORE PUSH1 0x20 ADD DUP3 DUP1 SLOAD PUSH2 0x626 SWAP1 PUSH2 0x1B81 JUMP JUMPDEST DUP1 ISZERO PUSH2 0x673 JUMPI DUP1 PUSH1 0x1F LT PUSH2 0x648 JUMPI PUSH2 0x100 DUP1 DUP4 SLOAD DIV MUL DUP4 MSTORE SWAP2 PUSH1 0x20 ADD SWAP2 PUSH2 0x673 JUMP JUMPDEST DUP3 ADD SWAP2 SWAP1 PUSH1 0x0 MSTORE PUSH1 0x20 PUSH1 0x0 KECCAK256 SWAP1 JUMPDEST DUP2 SLOAD DUP2 MSTORE SWAP1 PUSH1 0x1 ADD SWAP1 PUSH1 0x20 ADD DUP1 DUP4 GT PUSH2 0x656 JUMPI DUP3 SWAP1 SUB PUSH1 0x1F AND DUP3 ADD SWAP2 JUMPDEST POP POP POP POP POP DUP2 MSTORE PUSH1 0x20 ADD PUSH1 0x2 DUP3 ADD DUP1 SLOAD PUSH2 0x68C SWAP1 PUSH2 0x1B81 JUMP JUMPDEST DUP1 PUSH1 0x1F ADD PUSH1 0x20 DUP1 SWAP2 DIV MUL PUSH1 0x20 ADD PUSH1 0x40 MLOAD SWAP1 DUP2 ADD PUSH1 0x40 MSTORE DUP1 SWAP3 SWAP2 SWAP1 DUP2 DUP2 MSTORE PUSH1 0x20 ADD DUP3 DUP1 SLOAD PUSH2 0x6B8 SWAP1 PUSH2 0x1B81 JUMP JUMPDEST DUP1 ISZERO PUSH2 0x705 JUMPI DUP1 PUSH1 0x1F LT PUSH2 0x6DA JUMPI PUSH2 0x100 DUP1 DUP4 SLOAD DIV MUL DUP4 MSTORE SWAP2 PUSH1 0x20 ADD SWAP2 PUSH2 0x705 JUMP JUMPDEST DUP3 ADD SWAP2 SWAP1 PUSH1 0x0 MSTORE PUSH1 0x20 PUSH1 0x0 KECCAK256 SWAP1 JUMPDEST DUP2 SLOAD DUP2 MSTORE SWAP1 PUSH1 0x1 ADD SWAP1 PUSH1 0x20 ADD DUP1 DUP4 GT PUSH2 0x6E8 JUMPI DUP3 SWAP1 SUB PUSH1 0x1F AND DUP3 ADD SWAP2 JUMPDEST POP POP POP POP POP DUP2 MSTORE PUSH1 0x20 ADD PUSH1 0x3 DUP3 ADD DUP1 SLOAD PUSH2 0x71E SWAP1 PUSH2 0x1B81 JUMP JUMPDEST DUP1 PUSH1 0x1F ADD PUSH1 0x20 DUP1 SWAP2 DIV MUL PUSH1 0x20 ADD PUSH1 0x40 MLOAD SWAP1 DUP2 ADD PUSH1 0x40 MSTORE DUP1 SWAP3 SWAP2 SWAP1 DUP2 DUP2 MSTORE PUSH1 0x20 ADD DUP3 DUP1 SLOAD PUSH2 0x74A SWAP1 PUSH2 0x1B81 JUMP JUMPDEST DUP1 ISZERO PUSH2 0x797 JUMPI DUP1 PUSH1 0x1F LT PUSH2 0x76C JUMPI PUSH2 0x100 DUP1 DUP4 SLOAD DIV MUL DUP4 MSTORE SWAP2 PUSH1 0x20 ADD SWAP2 PUSH2 0x797 JUMP JUMPDEST DUP3 ADD SWAP2 SWAP1 PUSH1 0x0 MSTORE PUSH1 0x20 PUSH1 0x0 KECCAK256 SWAP1 JUMPDEST DUP2 SLOAD DUP2 MSTORE SWAP1 PUSH1 0x1 ADD SWAP1 PUSH1 0x20 ADD DUP1 DUP4 GT PUSH2 0x77A JUMPI DUP3 SWAP1 SUB PUSH1 0x1F AND DUP3 ADD SWAP2 JUMPDEST POP POP POP POP POP DUP2 MSTORE PUSH1 0x20 ADD PUSH1 0x4 DUP3 ADD DUP1 SLOAD PUSH2 0x7B0 SWAP1 PUSH2 0x1B81 JUMP JUMPDEST DUP1 PUSH1 0x1F ADD PUSH1 0x20 DUP1 SWAP2 DIV MUL PUSH1 0x20 ADD PUSH1 0x40 MLOAD SWAP1 DUP2 ADD PUSH1 0x40 MSTORE DUP1 SWAP3 SWAP2 SWAP1 DUP2 DUP2 MSTORE PUSH1 0x20 ADD DUP3 DUP1 SLOAD PUSH2 0x7DC SWAP1 PUSH2 0x1B81 JUMP JUMPDEST DUP1 ISZERO PUSH2 0x829 JUMPI DUP1 PUSH1 0x1F LT PUSH2 0x7FE JUMPI PUSH2 0x100 DUP1 DUP4 SLOAD DIV MUL DUP4 MSTORE SWAP2 PUSH1 0x20 ADD SWAP2 PUSH2 0x829 JUMP JUMPDEST DUP3 ADD SWAP2 SWAP1 PUSH1 0x0 MSTORE PUSH1 0x20 PUSH1 0x0 KECCAK256 SWAP1 JUMPDEST DUP2 SLOAD DUP2 MSTORE SWAP1 PUSH1 0x1 ADD SWAP1 PUSH1 0x20 ADD DUP1 DUP4 GT PUSH2 0x80C JUMPI DUP3 SWAP1 SUB PUSH1 0x1F AND DUP3 ADD SWAP2 JUMPDEST POP POP POP POP POP DUP2 MSTORE PUSH1 0x20 ADD PUSH1 0x5 DUP3 ADD DUP1 SLOAD PUSH2 0x842 SWAP1 PUSH2 0x1B81 JUMP JUMPDEST DUP1 PUSH1 0x1F ADD PUSH1 0x20 DUP1 SWAP2 DIV MUL PUSH1 0x20 ADD PUSH1 0x40 MLOAD SWAP1 DUP2 ADD PUSH1 0x40 MSTORE DUP1 SWAP3 SWAP2 SWAP1 DUP2 DUP2 MSTORE PUSH1 0x20 ADD DUP3 DUP1 SLOAD PUSH2 0x86E SWAP1 PUSH2 0x1B81 JUMP JUMPDEST DUP1 ISZERO PUSH2 0x8BB JUMPI DUP1 PUSH1 0x1F LT PUSH2 0x890 JUMPI PUSH2 0x100 DUP1 DUP4 SLOAD DIV MUL DUP4 MSTORE SWAP2 PUSH1 0x20 ADD SWAP2 PUSH2 0x8BB JUMP JUMPDEST DUP3 ADD SWAP2 SWAP1 PUSH1 0x0 MSTORE PUSH1 0x20 PUSH1 0x0 KECCAK256 SWAP1 JUMPDEST DUP2 SLOAD DUP2 MSTORE SWAP1 PUSH1 0x1 ADD SWAP1 PUSH1 0x20 ADD DUP1 DUP4 GT PUSH2 0x89E JUMPI DUP3 SWAP1 SUB PUSH1 0x1F AND DUP3 ADD SWAP2 JUMPDEST POP POP POP POP POP DUP2 MSTORE PUSH1 0x20 ADD PUSH1 0x6 DUP3 ADD PUSH1 0x0 SWAP1 SLOAD SWAP1 PUSH2 0x100 EXP SWAP1 DIV PUSH1 0xFF AND PUSH1 0xFF AND PUSH1 0xFF AND DUP2 MSTORE PUSH1 0x20 ADD PUSH1 0x7 DUP3 ADD SLOAD DUP2 MSTORE PUSH1 0x20 ADD PUSH1 0x8 DUP3 ADD SLOAD DUP2 MSTORE POP POP SWAP1 POP DUP1 SWAP3 POP POP POP SWAP1 JUMP JUMPDEST PUSH2 0x907 PUSH2 0x1235 JUMP JUMPDEST PUSH1 0x0 DUP3 CALLER PUSH20 0xFFFFFFFFFFFFFFFFFFFFFFFFFFFFFFFFFFFFFFFF AND PUSH1 0x4 PUSH1 0x0 DUP4 DUP2 MSTORE PUSH1 0x20 ADD SWAP1 DUP2 MSTORE PUSH1 0x20 ADD PUSH1 0x0 KECCAK256 PUSH1 0x0 SWAP1 SLOAD SWAP1 PUSH2 0x100 EXP SWAP1 DIV PUSH20 0xFFFFFFFFFFFFFFFFFFFFFFFFFFFFFFFFFFFFFFFF AND PUSH20 0xFFFFFFFFFFFFFFFFFFFFFFFFFFFFFFFFFFFFFFFF AND EQ PUSH2 0x975 JUMPI PUSH1 0x0 DUP1 REVERT JUMPDEST PUSH1 0x1 DUP5 DUP2 SLOAD DUP2 LT PUSH2 0x989 JUMPI PUSH2 0x988 PUSH2 0x1B23 JUMP JUMPDEST JUMPDEST SWAP1 PUSH1 0x0 MSTORE PUSH1 0x20 PUSH1 0x0 KECCAK256 SWAP1 PUSH1 0x9 MUL ADD PUSH1 0x3 PUSH1 0x0 DUP7 DUP2 MSTORE PUSH1 0x20 ADD SWAP1 DUP2 MSTORE PUSH1 0x20 ADD PUSH1 0x0 KECCAK256 PUSH1 0x0 SWAP1 SLOAD SWAP1 PUSH2 0x100 EXP SWAP1 DIV PUSH1 0xFF AND DUP2 PUSH1 0x40 MLOAD DUP1 PUSH2 0x120 ADD PUSH1 0x40 MSTORE SWAP1 DUP2 PUSH1 0x0 DUP3 ADD DUP1 SLOAD PUSH2 0x9D5 SWAP1 PUSH2 0x1B81 JUMP JUMPDEST DUP1 PUSH1 0x1F ADD PUSH1 0x20 DUP1 SWAP2 DIV MUL PUSH1 0x20 ADD PUSH1 0x40 MLOAD SWAP1 DUP2 ADD PUSH1 0x40 MSTORE DUP1 SWAP3 SWAP2 SWAP1 DUP2 DUP2 MSTORE PUSH1 0x20 ADD DUP3 DUP1 SLOAD PUSH2 0xA01 SWAP1 PUSH2 0x1B81 JUMP JUMPDEST DUP1 ISZERO PUSH2 0xA4E JUMPI DUP1 PUSH1 0x1F LT PUSH2 0xA23 JUMPI PUSH2 0x100 DUP1 DUP4 SLOAD DIV MUL DUP4 MSTORE SWAP2 PUSH1 0x20 ADD SWAP2 PUSH2 0xA4E JUMP JUMPDEST DUP3 ADD SWAP2 SWAP1 PUSH1 0x0 MSTORE PUSH1 0x20 PUSH1 0x0 KECCAK256 SWAP1 JUMPDEST DUP2 SLOAD DUP2 MSTORE SWAP1 PUSH1 0x1 ADD SWAP1 PUSH1 0x20 ADD DUP1 DUP4 GT PUSH2 0xA31 JUMPI DUP3 SWAP1 SUB PUSH1 0x1F AND DUP3 ADD SWAP2 JUMPDEST POP POP POP POP POP DUP2 MSTORE PUSH1 0x20 ADD PUSH1 0x1 DUP3 ADD DUP1 SLOAD PUSH2 0xA67 SWAP1 PUSH2 0x1B81 JUMP JUMPDEST DUP1 PUSH1 0x1F ADD PUSH1 0x20 DUP1 SWAP2 DIV MUL PUSH1 0x20 ADD PUSH1 0x40 MLOAD SWAP1 DUP2 ADD PUSH1 0x40 MSTORE DUP1 SWAP3 SWAP2 SWAP1 DUP2 DUP2 MSTORE PUSH1 0x20 ADD DUP3 DUP1 SLOAD PUSH2 0xA93 SWAP1 PUSH2 0x1B81 JUMP JUMPDEST DUP1 ISZERO PUSH2 0xAE0 JUMPI DUP1 PUSH1 0x1F LT PUSH2 0xAB5 JUMPI PUSH2 0x100 DUP1 DUP4 SLOAD DIV MUL DUP4 MSTORE SWAP2 PUSH1 0x20 ADD SWAP2 PUSH2 0xAE0 JUMP JUMPDEST DUP3 ADD SWAP2 SWAP1 PUSH1 0x0 MSTORE PUSH1 0x20 PUSH1 0x0 KECCAK256 SWAP1 JUMPDEST DUP2 SLOAD DUP2 MSTORE SWAP1 PUSH1 0x1 ADD SWAP1 PUSH1 0x20 ADD DUP1 DUP4 GT PUSH2 0xAC3 JUMPI DUP3 SWAP1 SUB PUSH1 0x1F AND DUP3 ADD SWAP2 JUMPDEST POP POP POP POP POP DUP2 MSTORE PUSH1 0x20 ADD PUSH1 0x2 DUP3 ADD DUP1 SLOAD PUSH2 0xAF9 SWAP1 PUSH2 0x1B81 JUMP JUMPDEST DUP1 PUSH1 0x1F ADD PUSH1 0x20 DUP1 SWAP2 DIV MUL PUSH1 0x20 ADD PUSH1 0x40 MLOAD SWAP1 DUP2 ADD PUSH1 0x40 MSTORE DUP1 SWAP3 SWAP2 SWAP1 DUP2 DUP2 MSTORE PUSH1 0x20 ADD DUP3 DUP1 SLOAD PUSH2 0xB25 SWAP1 PUSH2 0x1B81 JUMP JUMPDEST DUP1 ISZERO PUSH2 0xB72 JUMPI DUP1 PUSH1 0x1F LT PUSH2 0xB47 JUMPI PUSH2 0x100 DUP1 DUP4 SLOAD DIV MUL DUP4 MSTORE SWAP2 PUSH1 0x20 ADD SWAP2 PUSH2 0xB72 JUMP JUMPDEST DUP3 ADD SWAP2 SWAP1 PUSH1 0x0 MSTORE PUSH1 0x20 PUSH1 0x0 KECCAK256 SWAP1 JUMPDEST DUP2 SLOAD DUP2 MSTORE SWAP1 PUSH1 0x1 ADD SWAP1 PUSH1 0x20 ADD DUP1 DUP4 GT PUSH2 0xB55 JUMPI DUP3 SWAP1 SUB PUSH1 0x1F AND DUP3 ADD SWAP2 JUMPDEST POP POP POP POP POP DUP2 MSTORE PUSH1 0x20 ADD PUSH1 0x3 DUP3 ADD DUP1 SLOAD PUSH2 0xB8B SWAP1 PUSH2 0x1B81 JUMP JUMPDEST DUP1 PUSH1 0x1F ADD PUSH1 0x20 DUP1 SWAP2 DIV MUL PUSH1 0x20 ADD PUSH1 0x40 MLOAD SWAP1 DUP2 ADD PUSH1 0x40 MSTORE DUP1 SWAP3 SWAP2 SWAP1 DUP2 DUP2 MSTORE PUSH1 0x20 ADD DUP3 DUP1 SLOAD PUSH2 0xBB7 SWAP1 PUSH2 0x1B81 JUMP JUMPDEST DUP1 ISZERO PUSH2 0xC04 JUMPI DUP1 PUSH1 0x1F LT PUSH2 0xBD9 JUMPI PUSH2 0x100 DUP1 DUP4 SLOAD DIV MUL DUP4 MSTORE SWAP2 PUSH1 0x20 ADD SWAP2 PUSH2 0xC04 JUMP JUMPDEST DUP3 ADD SWAP2 SWAP1 PUSH1 0x0 MSTORE PUSH1 0x20 PUSH1 0x0 KECCAK256 SWAP1 JUMPDEST DUP2 SLOAD DUP2 MSTORE SWAP1 PUSH1 0x1 ADD SWAP1 PUSH1 0x20 ADD DUP1 DUP4 GT PUSH2 0xBE7 JUMPI DUP3 SWAP1 SUB PUSH1 0x1F AND DUP3 ADD SWAP2 JUMPDEST POP POP POP POP POP DUP2 MSTORE PUSH1 0x20 ADD PUSH1 0x4 DUP3 ADD DUP1 SLOAD PUSH2 0xC1D SWAP1 PUSH2 0x1B81 JUMP JUMPDEST DUP1 PUSH1 0x1F ADD PUSH1 0x20 DUP1 SWAP2 DIV MUL PUSH1 0x20 ADD PUSH1 0x40 MLOAD SWAP1 DUP2 ADD PUSH1 0x40 MSTORE DUP1 SWAP3 SWAP2 SWAP1 DUP2 DUP2 MSTORE PUSH1 0x20 ADD DUP3 DUP1 SLOAD PUSH2 0xC49 SWAP1 PUSH2 0x1B81 JUMP JUMPDEST DUP1 ISZERO PUSH2 0xC96 JUMPI DUP1 PUSH1 0x1F LT PUSH2 0xC6B JUMPI PUSH2 0x100 DUP1 DUP4 SLOAD DIV MUL DUP4 MSTORE SWAP2 PUSH1 0x20 ADD SWAP2 PUSH2 0xC96 JUMP JUMPDEST DUP3 ADD SWAP2 SWAP1 PUSH1 0x0 MSTORE PUSH1 0x20 PUSH1 0x0 KECCAK256 SWAP1 JUMPDEST DUP2 SLOAD DUP2 MSTORE SWAP1 PUSH1 0x1 ADD SWAP1 PUSH1 0x20 ADD DUP1 DUP4 GT PUSH2 0xC79 JUMPI DUP3 SWAP1 SUB PUSH1 0x1F AND DUP3 ADD SWAP2 JUMPDEST POP POP POP POP POP DUP2 MSTORE PUSH1 0x20 ADD PUSH1 0x5 DUP3 ADD DUP1 SLOAD PUSH2 0xCAF SWAP1 PUSH2 0x1B81 JUMP JUMPDEST DUP1 PUSH1 0x1F ADD PUSH1 0x20 DUP1 SWAP2 DIV MUL PUSH1 0x20 ADD PUSH1 0x40 MLOAD SWAP1 DUP2 ADD PUSH1 0x40 MSTORE DUP1 SWAP3 SWAP2 SWAP1 DUP2 DUP2 MSTORE PUSH1 0x20 ADD DUP3 DUP1 SLOAD PUSH2 0xCDB SWAP1 PUSH2 0x1B81 JUMP JUMPDEST DUP1 ISZERO PUSH2 0xD28 JUMPI DUP1 PUSH1 0x1F LT PUSH2 0xCFD JUMPI PUSH2 0x100 DUP1 DUP4 SLOAD DIV MUL DUP4 MSTORE SWAP2 PUSH1 0x20 ADD SWAP2 PUSH2 0xD28 JUMP JUMPDEST DUP3 ADD SWAP2 SWAP1 PUSH1 0x0 MSTORE PUSH1 0x20 PUSH1 0x0 KECCAK256 SWAP1 JUMPDEST DUP2 SLOAD DUP2 MSTORE SWAP1 PUSH1 0x1 ADD SWAP1 PUSH1 0x20 ADD DUP1 DUP4 GT PUSH2 0xD0B JUMPI DUP3 SWAP1 SUB PUSH1 0x1F AND DUP3 ADD SWAP2 JUMPDEST POP POP POP POP POP DUP2 MSTORE PUSH1 0x20 ADD PUSH1 0x6 DUP3 ADD PUSH1 0x0 SWAP1 SLOAD SWAP1 PUSH2 0x100 EXP SWAP1 DIV PUSH1 0xFF AND PUSH1 0xFF AND PUSH1 0xFF AND DUP2 MSTORE PUSH1 0x20 ADD PUSH1 0x7 DUP3 ADD SLOAD DUP2 MSTORE PUSH1 0x20 ADD PUSH1 0x8 DUP3 ADD SLOAD DUP2 MSTORE POP POP SWAP2 POP SWAP3 POP SWAP3 POP POP SWAP2 POP SWAP2 JUMP JUMPDEST PUSH2 0xD76 PUSH2 0xF10 JUMP JUMPDEST PUSH20 0xFFFFFFFFFFFFFFFFFFFFFFFFFFFFFFFFFFFFFFFF AND PUSH2 0xD94 PUSH2 0x4A8 JUMP JUMPDEST PUSH20 0xFFFFFFFFFFFFFFFFFFFFFFFFFFFFFFFFFFFFFFFF AND EQ PUSH2 0xDEA JUMPI PUSH1 0x40 MLOAD PUSH32 0x8C379A000000000000000000000000000000000000000000000000000000000 DUP2 MSTORE PUSH1 0x4 ADD PUSH2 0xDE1 SWAP1 PUSH2 0x1AA3 JUMP JUMPDEST PUSH1 0x40 MLOAD DUP1 SWAP2 SUB SWAP1 REVERT JUMPDEST PUSH1 0x0 PUSH20 0xFFFFFFFFFFFFFFFFFFFFFFFFFFFFFFFFFFFFFFFF AND DUP2 PUSH20 0xFFFFFFFFFFFFFFFFFFFFFFFFFFFFFFFFFFFFFFFF AND SUB PUSH2 0xE59 JUMPI PUSH1 0x40 MLOAD PUSH32 0x8C379A000000000000000000000000000000000000000000000000000000000 DUP2 MSTORE PUSH1 0x4 ADD PUSH2 0xE50 SWAP1 PUSH2 0x1C24 JUMP JUMPDEST PUSH1 0x40 MLOAD DUP1 SWAP2 SUB SWAP1 REVERT JUMPDEST PUSH2 0xE62 DUP2 PUSH2 0xF18 JUMP JUMPDEST POP JUMP JUMPDEST DUP2 CALLER PUSH20 0xFFFFFFFFFFFFFFFFFFFFFFFFFFFFFFFFFFFFFFFF AND PUSH1 0x4 PUSH1 0x0 DUP4 DUP2 MSTORE PUSH1 0x20 ADD SWAP1 DUP2 MSTORE PUSH1 0x20 ADD PUSH1 0x0 KECCAK256 PUSH1 0x0 SWAP1 SLOAD SWAP1 PUSH2 0x100 EXP SWAP1 DIV PUSH20 0xFFFFFFFFFFFFFFFFFFFFFFFFFFFFFFFFFFFFFFFF AND PUSH20 0xFFFFFFFFFFFFFFFFFFFFFFFFFFFFFFFFFFFFFFFF AND EQ PUSH2 0xED1 JUMPI PUSH1 0x0 DUP1 REVERT JUMPDEST DUP2 PUSH1 0x1 DUP5 DUP2 SLOAD DUP2 LT PUSH2 0xEE6 JUMPI PUSH2 0xEE5 PUSH2 0x1B23 JUMP JUMPDEST JUMPDEST SWAP1 PUSH1 0x0 MSTORE PUSH1 0x20 PUSH1 0x0 KECCAK256 SWAP1 PUSH1 0x9 MUL ADD PUSH1 0x5 ADD SWAP1 DUP1 MLOAD SWAP1 PUSH1 0x20 ADD SWAP1 PUSH2 0xF0A SWAP3 SWAP2 SWAP1 PUSH2 0x1284 JUMP JUMPDEST POP POP POP POP JUMP JUMPDEST PUSH1 0x0 CALLER SWAP1 POP SWAP1 JUMP JUMPDEST PUSH1 0x0 DUP1 PUSH1 0x0 SWAP1 SLOAD SWAP1 PUSH2 0x100 EXP SWAP1 DIV PUSH20 0xFFFFFFFFFFFFFFFFFFFFFFFFFFFFFFFFFFFFFFFF AND SWAP1 POP DUP2 PUSH1 0x0 DUP1 PUSH2 0x100 EXP DUP2 SLOAD DUP2 PUSH20 0xFFFFFFFFFFFFFFFFFFFFFFFFFFFFFFFFFFFFFFFF MUL NOT AND SWAP1 DUP4 PUSH20 0xFFFFFFFFFFFFFFFFFFFFFFFFFFFFFFFFFFFFFFFF AND MUL OR SWAP1 SSTORE POP DUP2 PUSH20 0xFFFFFFFFFFFFFFFFFFFFFFFFFFFFFFFFFFFFFFFF AND DUP2 PUSH20 0xFFFFFFFFFFFFFFFFFFFFFFFFFFFFFFFFFFFFFFFF AND PUSH32 0x8BE0079C531659141344CD1FD0A4F28419497F9722A3DAAFE3B4186F6B6457E0 PUSH1 0x40 MLOAD PUSH1 0x40 MLOAD DUP1 SWAP2 SUB SWAP1 LOG3 POP POP JUMP JUMPDEST PUSH1 0x1 PUSH1 0x40 MLOAD DUP1 PUSH2 0x120 ADD PUSH1 0x40 MSTORE DUP1 DUP13 DUP2 MSTORE PUSH1 0x20 ADD DUP12 DUP2 MSTORE PUSH1 0x20 ADD DUP11 DUP2 MSTORE PUSH1 0x20 ADD DUP10 DUP2 MSTORE PUSH1 0x20 ADD DUP9 DUP2 MSTORE PUSH1 0x20 ADD DUP8 DUP2 MSTORE PUSH1 0x20 ADD DUP6 PUSH1 0xFF AND DUP2 MSTORE PUSH1 0x20 ADD DUP5 DUP2 MSTORE PUSH1 0x20 ADD DUP4 DUP2 MSTORE POP SWAP1 DUP1 PUSH1 0x1 DUP2 SLOAD ADD DUP1 DUP3 SSTORE DUP1 SWAP2 POP POP PUSH1 0x1 SWAP1 SUB SWAP1 PUSH1 0x0 MSTORE PUSH1 0x20 PUSH1 0x0 KECCAK256 SWAP1 PUSH1 0x9 MUL ADD PUSH1 0x0 SWAP1 SWAP2 SWAP1 SWAP2 SWAP1 SWAP2 POP PUSH1 0x0 DUP3 ADD MLOAD DUP2 PUSH1 0x0 ADD SWAP1 DUP1 MLOAD SWAP1 PUSH1 0x20 ADD SWAP1 PUSH2 0x1066 SWAP3 SWAP2 SWAP1 PUSH2 0x1284 JUMP JUMPDEST POP PUSH1 0x20 DUP3 ADD MLOAD DUP2 PUSH1 0x1 ADD SWAP1 DUP1 MLOAD SWAP1 PUSH1 0x20 ADD SWAP1 PUSH2 0x1083 SWAP3 SWAP2 SWAP1 PUSH2 0x1284 JUMP JUMPDEST POP PUSH1 0x40 DUP3 ADD MLOAD DUP2 PUSH1 0x2 ADD SWAP1 DUP1 MLOAD SWAP1 PUSH1 0x20 ADD SWAP1 PUSH2 0x10A0 SWAP3 SWAP2 SWAP1 PUSH2 0x1284 JUMP JUMPDEST POP PUSH1 0x60 DUP3 ADD MLOAD DUP2 PUSH1 0x3 ADD SWAP1 DUP1 MLOAD SWAP1 PUSH1 0x20 ADD SWAP1 PUSH2 0x10BD SWAP3 SWAP2 SWAP1 PUSH2 0x1284 JUMP JUMPDEST POP PUSH1 0x80 DUP3 ADD MLOAD DUP2 PUSH1 0x4 ADD SWAP1 DUP1 MLOAD SWAP1 PUSH1 0x20 ADD SWAP1 PUSH2 0x10DA SWAP3 SWAP2 SWAP1 PUSH2 0x1284 JUMP JUMPDEST POP PUSH1 0xA0 DUP3 ADD MLOAD DUP2 PUSH1 0x5 ADD SWAP1 DUP1 MLOAD SWAP1 PUSH1 0x20 ADD SWAP1 PUSH2 0x10F7 SWAP3 SWAP2 SWAP1 PUSH2 0x1284 JUMP JUMPDEST POP PUSH1 0xC0 DUP3 ADD MLOAD DUP2 PUSH1 0x6 ADD PUSH1 0x0 PUSH2 0x100 EXP DUP2 SLOAD DUP2 PUSH1 0xFF MUL NOT AND SWAP1 DUP4 PUSH1 0xFF AND MUL OR SWAP1 SSTORE POP PUSH1 0xE0 DUP3 ADD MLOAD DUP2 PUSH1 0x7 ADD SSTORE PUSH2 0x100 DUP3 ADD MLOAD DUP2 PUSH1 0x8 ADD SSTORE POP POP PUSH1 0x0 PUSH1 0x1 DUP1 DUP1 SLOAD SWAP1 POP PUSH2 0x1143 SWAP2 SWAP1 PUSH2 0x1C73 JUMP JUMPDEST SWAP1 POP DUP5 PUSH1 0x3 PUSH1 0x0 DUP4 DUP2 MSTORE PUSH1 0x20 ADD SWAP1 DUP2 MSTORE PUSH1 0x20 ADD PUSH1 0x0 KECCAK256 PUSH1 0x0 PUSH2 0x100 EXP DUP2 SLOAD DUP2 PUSH1 0xFF MUL NOT AND SWAP1 DUP4 PUSH1 0xFF AND MUL OR SWAP1 SSTORE POP CALLER PUSH1 0x4 PUSH1 0x0 DUP4 DUP2 MSTORE PUSH1 0x20 ADD SWAP1 DUP2 MSTORE PUSH1 0x20 ADD PUSH1 0x0 KECCAK256 PUSH1 0x0 PUSH2 0x100 EXP DUP2 SLOAD DUP2 PUSH20 0xFFFFFFFFFFFFFFFFFFFFFFFFFFFFFFFFFFFFFFFF MUL NOT AND SWAP1 DUP4 PUSH20 0xFFFFFFFFFFFFFFFFFFFFFFFFFFFFFFFFFFFFFFFF AND MUL OR SWAP1 SSTORE POP PUSH1 0x1 PUSH1 0x2 PUSH1 0x0 DUP4 DUP2 MSTORE PUSH1 0x20 ADD SWAP1 DUP2 MSTORE PUSH1 0x20 ADD PUSH1 0x0 KECCAK256 PUSH1 0x0 PUSH2 0x100 EXP DUP2 SLOAD DUP2 PUSH1 0xFF MUL NOT AND SWAP1 DUP4 ISZERO ISZERO MUL OR SWAP1 SSTORE POP PUSH32 0x545DCA5D847B655A9F03CDF5619F53F0B2546051FD0D015B18C09AE2A8B1A765 DUP12 DUP7 PUSH1 0x40 MLOAD PUSH2 0x1220 SWAP3 SWAP2 SWAP1 PUSH2 0x1CE0 JUMP JUMPDEST PUSH1 0x40 MLOAD DUP1 SWAP2 SUB SWAP1 LOG1 POP POP POP POP POP POP POP POP POP POP POP JUMP JUMPDEST PUSH1 0x40 MLOAD DUP1 PUSH2 0x120 ADD PUSH1 0x40 MSTORE DUP1 PUSH1 0x60 DUP2 MSTORE PUSH1 0x20 ADD PUSH1 0x60 DUP2 MSTORE PUSH1 0x20 ADD PUSH1 0x60 DUP2 MSTORE PUSH1 0x20 ADD PUSH1 0x60 DUP2 MSTORE PUSH1 0x20 ADD PUSH1 0x60 DUP2 MSTORE PUSH1 0x20 ADD PUSH1 0x60 DUP2 MSTORE PUSH1 0x20 ADD PUSH1 0x0 PUSH1 0xFF AND DUP2 MSTORE PUSH1 0x20 ADD PUSH1 0x0 DUP2 MSTORE PUSH1 0x20 ADD PUSH1 0x0 DUP2 MSTORE POP SWAP1 JUMP JUMPDEST DUP3 DUP1 SLOAD PUSH2 0x1290 SWAP1 PUSH2 0x1B81 JUMP JUMPDEST SWAP1 PUSH1 0x0 MSTORE PUSH1 0x20 PUSH1 0x0 KECCAK256 SWAP1 PUSH1 0x1F ADD PUSH1 0x20 SWAP1 DIV DUP2 ADD SWAP3 DUP3 PUSH2 0x12B2 JUMPI PUSH1 0x0 DUP6 SSTORE PUSH2 0x12F9 JUMP JUMPDEST DUP3 PUSH1 0x1F LT PUSH2 0x12CB JUMPI DUP1 MLOAD PUSH1 0xFF NOT AND DUP4 DUP1 ADD OR DUP6 SSTORE PUSH2 0x12F9 JUMP JUMPDEST DUP3 DUP1 ADD PUSH1 0x1 ADD DUP6 SSTORE DUP3 ISZERO PUSH2 0x12F9 JUMPI SWAP2 DUP3 ADD JUMPDEST DUP3 DUP2 GT ISZERO PUSH2 0x12F8 JUMPI DUP3 MLOAD DUP3 SSTORE SWAP2 PUSH1 0x20 ADD SWAP2 SWAP1 PUSH1 0x1 ADD SWAP1 PUSH2 0x12DD JUMP JUMPDEST JUMPDEST POP SWAP1 POP PUSH2 0x1306 SWAP2 SWAP1 PUSH2 0x130A JUMP JUMPDEST POP SWAP1 JUMP JUMPDEST JUMPDEST DUP1 DUP3 GT ISZERO PUSH2 0x1323 JUMPI PUSH1 0x0 DUP2 PUSH1 0x0 SWAP1 SSTORE POP PUSH1 0x1 ADD PUSH2 0x130B JUMP JUMPDEST POP SWAP1 JUMP JUMPDEST PUSH1 0x0 PUSH1 0x40 MLOAD SWAP1 POP SWAP1 JUMP JUMPDEST PUSH1 0x0 DUP1 REVERT JUMPDEST PUSH1 0x0 DUP1 REVERT JUMPDEST PUSH1 0x0 DUP2 SWAP1 POP SWAP2 SWAP1 POP JUMP JUMPDEST PUSH2 0x134E DUP2 PUSH2 0x133B JUMP JUMPDEST DUP2 EQ PUSH2 0x1359 JUMPI PUSH1 0x0 DUP1 REVERT JUMPDEST POP JUMP JUMPDEST PUSH1 0x0 DUP2 CALLDATALOAD SWAP1 POP PUSH2 0x136B DUP2 PUSH2 0x1345 JUMP JUMPDEST SWAP3 SWAP2 POP POP JUMP JUMPDEST PUSH1 0x0 DUP2 ISZERO ISZERO SWAP1 POP SWAP2 SWAP1 POP JUMP JUMPDEST PUSH2 0x1386 DUP2 PUSH2 0x1371 JUMP JUMPDEST DUP2 EQ PUSH2 0x1391 JUMPI PUSH1 0x0 DUP1 REVERT JUMPDEST POP JUMP JUMPDEST PUSH1 0x0 DUP2 CALLDATALOAD SWAP1 POP PUSH2 0x13A3 DUP2 PUSH2 0x137D JUMP JUMPDEST SWAP3 SWAP2 POP POP JUMP JUMPDEST PUSH1 0x0 DUP1 PUSH1 0x40 DUP4 DUP6 SUB SLT ISZERO PUSH2 0x13C0 JUMPI PUSH2 0x13BF PUSH2 0x1331 JUMP JUMPDEST JUMPDEST PUSH1 0x0 PUSH2 0x13CE DUP6 DUP3 DUP7 ADD PUSH2 0x135C JUMP JUMPDEST SWAP3 POP POP PUSH1 0x20 PUSH2 0x13DF DUP6 DUP3 DUP7 ADD PUSH2 0x1394 JUMP JUMPDEST SWAP2 POP POP SWAP3 POP SWAP3 SWAP1 POP JUMP JUMPDEST PUSH1 0x0 PUSH1 0x20 DUP3 DUP5 SUB SLT ISZERO PUSH2 0x13FF JUMPI PUSH2 0x13FE PUSH2 0x1331 JUMP JUMPDEST JUMPDEST PUSH1 0x0 PUSH2 0x140D DUP5 DUP3 DUP6 ADD PUSH2 0x135C JUMP JUMPDEST SWAP2 POP POP SWAP3 SWAP2 POP POP JUMP JUMPDEST PUSH1 0x0 PUSH20 0xFFFFFFFFFFFFFFFFFFFFFFFFFFFFFFFFFFFFFFFF DUP3 AND SWAP1 POP SWAP2 SWAP1 POP JUMP JUMPDEST PUSH1 0x0 PUSH2 0x1441 DUP3 PUSH2 0x1416 JUMP JUMPDEST SWAP1 POP SWAP2 SWAP1 POP JUMP JUMPDEST PUSH2 0x1451 DUP2 PUSH2 0x1436 JUMP JUMPDEST DUP3 MSTORE POP POP JUMP JUMPDEST PUSH1 0x0 PUSH1 0x20 DUP3 ADD SWAP1 POP PUSH2 0x146C PUSH1 0x0 DUP4 ADD DUP5 PUSH2 0x1448 JUMP JUMPDEST SWAP3 SWAP2 POP POP JUMP JUMPDEST PUSH2 0x147B DUP2 PUSH2 0x1371 JUMP JUMPDEST DUP3 MSTORE POP POP JUMP JUMPDEST PUSH1 0x0 PUSH1 0x20 DUP3 ADD SWAP1 POP PUSH2 0x1496 PUSH1 0x0 DUP4 ADD DUP5 PUSH2 0x1472 JUMP JUMPDEST SWAP3 SWAP2 POP POP JUMP JUMPDEST PUSH1 0x0 DUP1 REVERT JUMPDEST PUSH1 0x0 DUP1 REVERT JUMPDEST PUSH1 0x0 PUSH1 0x1F NOT PUSH1 0x1F DUP4 ADD AND SWAP1 POP SWAP2 SWAP1 POP JUMP JUMPDEST PUSH32 0x4E487B7100000000000000000000000000000000000000000000000000000000 PUSH1 0x0 MSTORE PUSH1 0x41 PUSH1 0x4 MSTORE PUSH1 0x24 PUSH1 0x0 REVERT JUMPDEST PUSH2 0x14EF DUP3 PUSH2 0x14A6 JUMP JUMPDEST DUP2 ADD DUP2 DUP2 LT PUSH8 0xFFFFFFFFFFFFFFFF DUP3 GT OR ISZERO PUSH2 0x150E JUMPI PUSH2 0x150D PUSH2 0x14B7 JUMP JUMPDEST JUMPDEST DUP1 PUSH1 0x40 MSTORE POP POP POP JUMP JUMPDEST PUSH1 0x0 PUSH2 0x1521 PUSH2 0x1327 JUMP JUMPDEST SWAP1 POP PUSH2 0x152D DUP3 DUP3 PUSH2 0x14E6 JUMP JUMPDEST SWAP2 SWAP1 POP JUMP JUMPDEST PUSH1 0x0 PUSH8 0xFFFFFFFFFFFFFFFF DUP3 GT ISZERO PUSH2 0x154D JUMPI PUSH2 0x154C PUSH2 0x14B7 JUMP JUMPDEST JUMPDEST PUSH2 0x1556 DUP3 PUSH2 0x14A6 JUMP JUMPDEST SWAP1 POP PUSH1 0x20 DUP2 ADD SWAP1 POP SWAP2 SWAP1 POP JUMP JUMPDEST DUP3 DUP2 DUP4 CALLDATACOPY PUSH1 0x0 DUP4 DUP4 ADD MSTORE POP POP POP JUMP JUMPDEST PUSH1 0x0 PUSH2 0x1585 PUSH2 0x1580 DUP5 PUSH2 0x1532 JUMP JUMPDEST PUSH2 0x1517 JUMP JUMPDEST SWAP1 POP DUP3 DUP2 MSTORE PUSH1 0x20 DUP2 ADD DUP5 DUP5 DUP5 ADD GT ISZERO PUSH2 0x15A1 JUMPI PUSH2 0x15A0 PUSH2 0x14A1 JUMP JUMPDEST JUMPDEST PUSH2 0x15AC DUP5 DUP3 DUP6 PUSH2 0x1563 JUMP JUMPDEST POP SWAP4 SWAP3 POP POP POP JUMP JUMPDEST PUSH1 0x0 DUP3 PUSH1 0x1F DUP4 ADD SLT PUSH2 0x15C9 JUMPI PUSH2 0x15C8 PUSH2 0x149C JUMP JUMPDEST JUMPDEST DUP2 CALLDATALOAD PUSH2 0x15D9 DUP5 DUP3 PUSH1 0x20 DUP7 ADD PUSH2 0x1572 JUMP JUMPDEST SWAP2 POP POP SWAP3 SWAP2 POP POP JUMP JUMPDEST PUSH1 0x0 PUSH1 0xFF DUP3 AND SWAP1 POP SWAP2 SWAP1 POP JUMP JUMPDEST PUSH2 0x15F8 DUP2 PUSH2 0x15E2 JUMP JUMPDEST DUP2 EQ PUSH2 0x1603 JUMPI PUSH1 0x0 DUP1 REVERT JUMPDEST POP JUMP JUMPDEST PUSH1 0x0 DUP2 CALLDATALOAD SWAP1 POP PUSH2 0x1615 DUP2 PUSH2 0x15EF JUMP JUMPDEST SWAP3 SWAP2 POP POP JUMP JUMPDEST PUSH1 0x0 DUP1 PUSH1 0x0 DUP1 PUSH1 0x0 DUP1 PUSH1 0x0 DUP1 PUSH1 0x0 DUP1 PUSH2 0x140 DUP12 DUP14 SUB SLT ISZERO PUSH2 0x163F JUMPI PUSH2 0x163E PUSH2 0x1331 JUMP JUMPDEST JUMPDEST PUSH1 0x0 DUP12 ADD CALLDATALOAD PUSH8 0xFFFFFFFFFFFFFFFF DUP2 GT ISZERO PUSH2 0x165D JUMPI PUSH2 0x165C PUSH2 0x1336 JUMP JUMPDEST JUMPDEST PUSH2 0x1669 DUP14 DUP3 DUP15 ADD PUSH2 0x15B4 JUMP JUMPDEST SWAP11 POP POP PUSH1 0x20 DUP12 ADD CALLDATALOAD PUSH8 0xFFFFFFFFFFFFFFFF DUP2 GT ISZERO PUSH2 0x168A JUMPI PUSH2 0x1689 PUSH2 0x1336 JUMP JUMPDEST JUMPDEST PUSH2 0x1696 DUP14 DUP3 DUP15 ADD PUSH2 0x15B4 JUMP JUMPDEST SWAP10 POP POP PUSH1 0x40 DUP12 ADD CALLDATALOAD PUSH8 0xFFFFFFFFFFFFFFFF DUP2 GT ISZERO PUSH2 0x16B7 JUMPI PUSH2 0x16B6 PUSH2 0x1336 JUMP JUMPDEST JUMPDEST PUSH2 0x16C3 DUP14 DUP3 DUP15 ADD PUSH2 0x15B4 JUMP JUMPDEST SWAP9 POP POP PUSH1 0x60 DUP12 ADD CALLDATALOAD PUSH8 0xFFFFFFFFFFFFFFFF DUP2 GT ISZERO PUSH2 0x16E4 JUMPI PUSH2 0x16E3 PUSH2 0x1336 JUMP JUMPDEST JUMPDEST PUSH2 0x16F0 DUP14 DUP3 DUP15 ADD PUSH2 0x15B4 JUMP JUMPDEST SWAP8 POP POP PUSH1 0x80 DUP12 ADD CALLDATALOAD PUSH8 0xFFFFFFFFFFFFFFFF DUP2 GT ISZERO PUSH2 0x1711 JUMPI PUSH2 0x1710 PUSH2 0x1336 JUMP JUMPDEST JUMPDEST PUSH2 0x171D DUP14 DUP3 DUP15 ADD PUSH2 0x15B4 JUMP JUMPDEST SWAP7 POP POP PUSH1 0xA0 DUP12 ADD CALLDATALOAD PUSH8 0xFFFFFFFFFFFFFFFF DUP2 GT ISZERO PUSH2 0x173E JUMPI PUSH2 0x173D PUSH2 0x1336 JUMP JUMPDEST JUMPDEST PUSH2 0x174A DUP14 DUP3 DUP15 ADD PUSH2 0x15B4 JUMP JUMPDEST SWAP6 POP POP PUSH1 0xC0 PUSH2 0x175B DUP14 DUP3 DUP15 ADD PUSH2 0x1606 JUMP JUMPDEST SWAP5 POP POP PUSH1 0xE0 PUSH2 0x176C DUP14 DUP3 DUP15 ADD PUSH2 0x1606 JUMP JUMPDEST SWAP4 POP POP PUSH2 0x100 PUSH2 0x177E DUP14 DUP3 DUP15 ADD PUSH2 0x135C JUMP JUMPDEST SWAP3 POP POP PUSH2 0x120 PUSH2 0x1790 DUP14 DUP3 DUP15 ADD PUSH2 0x135C JUMP JUMPDEST SWAP2 POP POP SWAP3 SWAP6 SWAP9 SWAP12 SWAP2 SWAP5 SWAP8 SWAP11 POP SWAP3 SWAP6 SWAP9 POP JUMP JUMPDEST PUSH1 0x0 DUP2 MLOAD SWAP1 POP SWAP2 SWAP1 POP JUMP JUMPDEST PUSH1 0x0 DUP3 DUP3 MSTORE PUSH1 0x20 DUP3 ADD SWAP1 POP SWAP3 SWAP2 POP POP JUMP JUMPDEST PUSH1 0x0 JUMPDEST DUP4 DUP2 LT ISZERO PUSH2 0x17DC JUMPI DUP1 DUP3 ADD MLOAD DUP2 DUP5 ADD MSTORE PUSH1 0x20 DUP2 ADD SWAP1 POP PUSH2 0x17C1 JUMP JUMPDEST DUP4 DUP2 GT ISZERO PUSH2 0x17EB JUMPI PUSH1 0x0 DUP5 DUP5 ADD MSTORE JUMPDEST POP POP POP POP JUMP JUMPDEST PUSH1 0x0 PUSH2 0x17FC DUP3 PUSH2 0x17A2 JUMP JUMPDEST PUSH2 0x1806 DUP2 DUP6 PUSH2 0x17AD JUMP JUMPDEST SWAP4 POP PUSH2 0x1816 DUP2 DUP6 PUSH1 0x20 DUP7 ADD PUSH2 0x17BE JUMP JUMPDEST PUSH2 0x181F DUP2 PUSH2 0x14A6 JUMP JUMPDEST DUP5 ADD SWAP2 POP POP SWAP3 SWAP2 POP POP JUMP JUMPDEST PUSH2 0x1833 DUP2 PUSH2 0x15E2 JUMP JUMPDEST DUP3 MSTORE POP POP JUMP JUMPDEST PUSH2 0x1842 DUP2 PUSH2 0x133B JUMP JUMPDEST DUP3 MSTORE POP POP JUMP JUMPDEST PUSH1 0x0 PUSH2 0x120 DUP4 ADD PUSH1 0x0 DUP4 ADD MLOAD DUP5 DUP3 SUB PUSH1 0x0 DUP7 ADD MSTORE PUSH2 0x1866 DUP3 DUP3 PUSH2 0x17F1 JUMP JUMPDEST SWAP2 POP POP PUSH1 0x20 DUP4 ADD MLOAD DUP5 DUP3 SUB PUSH1 0x20 DUP7 ADD MSTORE PUSH2 0x1880 DUP3 DUP3 PUSH2 0x17F1 JUMP JUMPDEST SWAP2 POP POP PUSH1 0x40 DUP4 ADD MLOAD DUP5 DUP3 SUB PUSH1 0x40 DUP7 ADD MSTORE PUSH2 0x189A DUP3 DUP3 PUSH2 0x17F1 JUMP JUMPDEST SWAP2 POP POP PUSH1 0x60 DUP4 ADD MLOAD DUP5 DUP3 SUB PUSH1 0x60 DUP7 ADD MSTORE PUSH2 0x18B4 DUP3 DUP3 PUSH2 0x17F1 JUMP JUMPDEST SWAP2 POP POP PUSH1 0x80 DUP4 ADD MLOAD DUP5 DUP3 SUB PUSH1 0x80 DUP7 ADD MSTORE PUSH2 0x18CE DUP3 DUP3 PUSH2 0x17F1 JUMP JUMPDEST SWAP2 POP POP PUSH1 0xA0 DUP4 ADD MLOAD DUP5 DUP3 SUB PUSH1 0xA0 DUP7 ADD MSTORE PUSH2 0x18E8 DUP3 DUP3 PUSH2 0x17F1 JUMP JUMPDEST SWAP2 POP POP PUSH1 0xC0 DUP4 ADD MLOAD PUSH2 0x18FD PUSH1 0xC0 DUP7 ADD DUP3 PUSH2 0x182A JUMP JUMPDEST POP PUSH1 0xE0 DUP4 ADD MLOAD PUSH2 0x1910 PUSH1 0xE0 DUP7 ADD DUP3 PUSH2 0x1839 JUMP JUMPDEST POP PUSH2 0x100 DUP4 ADD MLOAD PUSH2 0x1925 PUSH2 0x100 DUP7 ADD DUP3 PUSH2 0x1839 JUMP JUMPDEST POP DUP1 SWAP2 POP POP SWAP3 SWAP2 POP POP JUMP JUMPDEST PUSH1 0x0 PUSH1 0x20 DUP3 ADD SWAP1 POP DUP2 DUP2 SUB PUSH1 0x0 DUP4 ADD MSTORE PUSH2 0x194A DUP2 DUP5 PUSH2 0x1848 JUMP JUMPDEST SWAP1 POP SWAP3 SWAP2 POP POP JUMP JUMPDEST PUSH2 0x195B DUP2 PUSH2 0x15E2 JUMP JUMPDEST DUP3 MSTORE POP POP JUMP JUMPDEST PUSH1 0x0 PUSH1 0x40 DUP3 ADD SWAP1 POP DUP2 DUP2 SUB PUSH1 0x0 DUP4 ADD MSTORE PUSH2 0x197B DUP2 DUP6 PUSH2 0x1848 JUMP JUMPDEST SWAP1 POP PUSH2 0x198A PUSH1 0x20 DUP4 ADD DUP5 PUSH2 0x1952 JUMP JUMPDEST SWAP4 SWAP3 POP POP POP JUMP JUMPDEST PUSH2 0x199A DUP2 PUSH2 0x1436 JUMP JUMPDEST DUP2 EQ PUSH2 0x19A5 JUMPI PUSH1 0x0 DUP1 REVERT JUMPDEST POP JUMP JUMPDEST PUSH1 0x0 DUP2 CALLDATALOAD SWAP1 POP PUSH2 0x19B7 DUP2 PUSH2 0x1991 JUMP JUMPDEST SWAP3 SWAP2 POP POP JUMP JUMPDEST PUSH1 0x0 PUSH1 0x20 DUP3 DUP5 SUB SLT ISZERO PUSH2 0x19D3 JUMPI PUSH2 0x19D2 PUSH2 0x1331 JUMP JUMPDEST JUMPDEST PUSH1 0x0 PUSH2 0x19E1 DUP5 DUP3 DUP6 ADD PUSH2 0x19A8 JUMP JUMPDEST SWAP2 POP POP SWAP3 SWAP2 POP POP JUMP JUMPDEST PUSH1 0x0 DUP1 PUSH1 0x40 DUP4 DUP6 SUB SLT ISZERO PUSH2 0x1A01 JUMPI PUSH2 0x1A00 PUSH2 0x1331 JUMP JUMPDEST JUMPDEST PUSH1 0x0 PUSH2 0x1A0F DUP6 DUP3 DUP7 ADD PUSH2 0x135C JUMP JUMPDEST SWAP3 POP POP PUSH1 0x20 DUP4 ADD CALLDATALOAD PUSH8 0xFFFFFFFFFFFFFFFF DUP2 GT ISZERO PUSH2 0x1A30 JUMPI PUSH2 0x1A2F PUSH2 0x1336 JUMP JUMPDEST JUMPDEST PUSH2 0x1A3C DUP6 DUP3 DUP7 ADD PUSH2 0x15B4 JUMP JUMPDEST SWAP2 POP POP SWAP3 POP SWAP3 SWAP1 POP JUMP JUMPDEST PUSH1 0x0 DUP3 DUP3 MSTORE PUSH1 0x20 DUP3 ADD SWAP1 POP SWAP3 SWAP2 POP POP JUMP JUMPDEST PUSH32 0x4F776E61626C653A2063616C6C6572206973206E6F7420746865206F776E6572 PUSH1 0x0 DUP3 ADD MSTORE POP JUMP JUMPDEST PUSH1 0x0 PUSH2 0x1A8D PUSH1 0x20 DUP4 PUSH2 0x1A46 JUMP JUMPDEST SWAP2 POP PUSH2 0x1A98 DUP3 PUSH2 0x1A57 JUMP JUMPDEST PUSH1 0x20 DUP3 ADD SWAP1 POP SWAP2 SWAP1 POP JUMP JUMPDEST PUSH1 0x0 PUSH1 0x20 DUP3 ADD SWAP1 POP DUP2 DUP2 SUB PUSH1 0x0 DUP4 ADD MSTORE PUSH2 0x1ABC DUP2 PUSH2 0x1A80 JUMP JUMPDEST SWAP1 POP SWAP2 SWAP1 POP JUMP JUMPDEST PUSH32 0x4E487B7100000000000000000000000000000000000000000000000000000000 PUSH1 0x0 MSTORE PUSH1 0x12 PUSH1 0x4 MSTORE PUSH1 0x24 PUSH1 0x0 REVERT JUMPDEST PUSH1 0x0 PUSH2 0x1AFD DUP3 PUSH2 0x133B JUMP JUMPDEST SWAP2 POP PUSH2 0x1B08 DUP4 PUSH2 0x133B JUMP JUMPDEST SWAP3 POP DUP3 PUSH2 0x1B18 JUMPI PUSH2 0x1B17 PUSH2 0x1AC3 JUMP JUMPDEST JUMPDEST DUP3 DUP3 MOD SWAP1 POP SWAP3 SWAP2 POP POP JUMP JUMPDEST PUSH32 0x4E487B7100000000000000000000000000000000000000000000000000000000 PUSH1 0x0 MSTORE PUSH1 0x32 PUSH1 0x4 MSTORE PUSH1 0x24 PUSH1 0x0 REVERT JUMPDEST PUSH32 0x4E487B7100000000000000000000000000000000000000000000000000000000 PUSH1 0x0 MSTORE PUSH1 0x22 PUSH1 0x4 MSTORE PUSH1 0x24 PUSH1 0x0 REVERT JUMPDEST PUSH1 0x0 PUSH1 0x2 DUP3 DIV SWAP1 POP PUSH1 0x1 DUP3 AND DUP1 PUSH2 0x1B99 JUMPI PUSH1 0x7F DUP3 AND SWAP2 POP JUMPDEST PUSH1 0x20 DUP3 LT DUP2 SUB PUSH2 0x1BAC JUMPI PUSH2 0x1BAB PUSH2 0x1B52 JUMP JUMPDEST JUMPDEST POP SWAP2 SWAP1 POP JUMP JUMPDEST PUSH32 0x4F776E61626C653A206E6577206F776E657220697320746865207A65726F2061 PUSH1 0x0 DUP3 ADD MSTORE PUSH32 0x6464726573730000000000000000000000000000000000000000000000000000 PUSH1 0x20 DUP3 ADD MSTORE POP JUMP JUMPDEST PUSH1 0x0 PUSH2 0x1C0E PUSH1 0x26 DUP4 PUSH2 0x1A46 JUMP JUMPDEST SWAP2 POP PUSH2 0x1C19 DUP3 PUSH2 0x1BB2 JUMP JUMPDEST PUSH1 0x40 DUP3 ADD SWAP1 POP SWAP2 SWAP1 POP JUMP JUMPDEST PUSH1 0x0 PUSH1 0x20 DUP3 ADD SWAP1 POP DUP2 DUP2 SUB PUSH1 0x0 DUP4 ADD MSTORE PUSH2 0x1C3D DUP2 PUSH2 0x1C01 JUMP JUMPDEST SWAP1 POP SWAP2 SWAP1 POP JUMP JUMPDEST PUSH32 0x4E487B7100000000000000000000000000000000000000000000000000000000 PUSH1 0x0 MSTORE PUSH1 0x11 PUSH1 0x4 MSTORE PUSH1 0x24 PUSH1 0x0 REVERT JUMPDEST PUSH1 0x0 PUSH2 0x1C7E DUP3 PUSH2 0x133B JUMP JUMPDEST SWAP2 POP PUSH2 0x1C89 DUP4 PUSH2 0x133B JUMP JUMPDEST SWAP3 POP DUP3 DUP3 LT ISZERO PUSH2 0x1C9C JUMPI PUSH2 0x1C9B PUSH2 0x1C44 JUMP JUMPDEST JUMPDEST DUP3 DUP3 SUB SWAP1 POP SWAP3 SWAP2 POP POP JUMP JUMPDEST PUSH1 0x0 PUSH2 0x1CB2 DUP3 PUSH2 0x17A2 JUMP JUMPDEST PUSH2 0x1CBC DUP2 DUP6 PUSH2 0x1A46 JUMP JUMPDEST SWAP4 POP PUSH2 0x1CCC DUP2 DUP6 PUSH1 0x20 DUP7 ADD PUSH2 0x17BE JUMP JUMPDEST PUSH2 0x1CD5 DUP2 PUSH2 0x14A6 JUMP JUMPDEST DUP5 ADD SWAP2 POP POP SWAP3 SWAP2 POP POP JUMP JUMPDEST PUSH1 0x0 PUSH1 0x40 DUP3 ADD SWAP1 POP DUP2 DUP2 SUB PUSH1 0x0 DUP4 ADD MSTORE PUSH2 0x1CFA DUP2 DUP6 PUSH2 0x1CA7 JUMP JUMPDEST SWAP1 POP PUSH2 0x1D09 PUSH1 0x20 DUP4 ADD DUP5 PUSH2 0x1952 JUMP JUMPDEST SWAP4 SWAP3 POP POP POP JUMP INVALID LOG2 PUSH5 0x6970667358 0x22 SLT KECCAK256 KECCAK256 PUSH9 0x3D597E02081F65631A STATICCALL SWAP1 0x27 COINBASE 0xC8 0xAC 0xE0 0x1E SELFBALANCE SHR 0xE5 0xE4 0x4A 0xB4 0xBF SHR 0xE 0x2E PUSH14 0x37A864736F6C634300080E003300 "
				},
				"gasEstimates": {
					"creation": {
						"codeDepositCost": "1498800",
						"executionCost": "infinite",
						"totalCost": "infinite"
					},
					"external": {
						"changeQuizStatus(uint256,bool)": "27171",
						"createQuiz(string,string,string,string,string,string,uint8,uint8,uint256,uint256)": "infinite",
						"getRandomQuiz()": "infinite",
						"owner()": "2522",
						"quizIsActive(uint256)": "2863",
						"quizOwner(uint256)": "2884",
						"quizOwnerChangeHint(uint256,string)": "infinite",
						"quizOwnerChangeStatus(uint256,bool)": "27206",
						"quizOwnerGetQuiz(uint256)": "infinite",
						"renounceOwnership()": "30463",
						"transferOwnership(address)": "30808"
					}
				},
				"methodIdentifiers": {
					"changeQuizStatus(uint256,bool)": "1d3f7559",
					"createQuiz(string,string,string,string,string,string,uint8,uint8,uint256,uint256)": "9a2dc409",
					"getRandomQuiz()": "a0af60de",
					"owner()": "8da5cb5b",
					"quizIsActive(uint256)": "51a1d40e",
					"quizOwner(uint256)": "400ae0f9",
					"quizOwnerChangeHint(uint256,string)": "fbb3b6ce",
					"quizOwnerChangeStatus(uint256,bool)": "377def85",
					"quizOwnerGetQuiz(uint256)": "b9360cf1",
					"renounceOwnership()": "715018a6",
					"transferOwnership(address)": "f2fde38b"
				}
			},
			"storageLayout": {
				"storage": [
					{
						"astId": 271,
						"contract": "contracts/ViewQuiz.sol:ViewQuiz",
						"label": "_owner",
						"offset": 0,
						"slot": "0",
						"type": "t_address"
					},
					{
						"astId": 55,
						"contract": "contracts/ViewQuiz.sol:ViewQuiz",
						"label": "quizzes",
						"offset": 0,
						"slot": "1",
						"type": "t_array(t_struct(Quiz)51_storage)dyn_storage"
					},
					{
						"astId": 59,
						"contract": "contracts/ViewQuiz.sol:ViewQuiz",
						"label": "quizIsActive",
						"offset": 0,
						"slot": "2",
						"type": "t_mapping(t_uint256,t_bool)"
					},
					{
						"astId": 63,
						"contract": "contracts/ViewQuiz.sol:ViewQuiz",
						"label": "quizAnswer",
						"offset": 0,
						"slot": "3",
						"type": "t_mapping(t_uint256,t_uint8)"
					},
					{
						"astId": 67,
						"contract": "contracts/ViewQuiz.sol:ViewQuiz",
						"label": "quizOwner",
						"offset": 0,
						"slot": "4",
						"type": "t_mapping(t_uint256,t_address)"
					}
				],
				"types": {
					"t_address": {
						"encoding": "inplace",
						"label": "address",
						"numberOfBytes": "20"
					},
					"t_array(t_struct(Quiz)51_storage)dyn_storage": {
						"base": "t_struct(Quiz)51_storage",
						"encoding": "dynamic_array",
						"label": "struct CreateQuiz.Quiz[]",
						"numberOfBytes": "32"
					},
					"t_bool": {
						"encoding": "inplace",
						"label": "bool",
						"numberOfBytes": "1"
					},
					"t_mapping(t_uint256,t_address)": {
						"encoding": "mapping",
						"key": "t_uint256",
						"label": "mapping(uint256 => address)",
						"numberOfBytes": "32",
						"value": "t_address"
					},
					"t_mapping(t_uint256,t_bool)": {
						"encoding": "mapping",
						"key": "t_uint256",
						"label": "mapping(uint256 => bool)",
						"numberOfBytes": "32",
						"value": "t_bool"
					},
					"t_mapping(t_uint256,t_uint8)": {
						"encoding": "mapping",
						"key": "t_uint256",
						"label": "mapping(uint256 => uint8)",
						"numberOfBytes": "32",
						"value": "t_uint8"
					},
					"t_string_storage": {
						"encoding": "bytes",
						"label": "string",
						"numberOfBytes": "32"
					},
					"t_struct(Quiz)51_storage": {
						"encoding": "inplace",
						"label": "struct CreateQuiz.Quiz",
						"members": [
							{
								"astId": 34,
								"contract": "contracts/ViewQuiz.sol:ViewQuiz",
								"label": "question",
								"offset": 0,
								"slot": "0",
								"type": "t_string_storage"
							},
							{
								"astId": 36,
								"contract": "contracts/ViewQuiz.sol:ViewQuiz",
								"label": "choice1",
								"offset": 0,
								"slot": "1",
								"type": "t_string_storage"
							},
							{
								"astId": 38,
								"contract": "contracts/ViewQuiz.sol:ViewQuiz",
								"label": "choice2",
								"offset": 0,
								"slot": "2",
								"type": "t_string_storage"
							},
							{
								"astId": 40,
								"contract": "contracts/ViewQuiz.sol:ViewQuiz",
								"label": "choice3",
								"offset": 0,
								"slot": "3",
								"type": "t_string_storage"
							},
							{
								"astId": 42,
								"contract": "contracts/ViewQuiz.sol:ViewQuiz",
								"label": "choice4",
								"offset": 0,
								"slot": "4",
								"type": "t_string_storage"
							},
							{
								"astId": 44,
								"contract": "contracts/ViewQuiz.sol:ViewQuiz",
								"label": "hint",
								"offset": 0,
								"slot": "5",
								"type": "t_string_storage"
							},
							{
								"astId": 46,
								"contract": "contracts/ViewQuiz.sol:ViewQuiz",
								"label": "languageCode",
								"offset": 0,
								"slot": "6",
								"type": "t_uint8"
							},
							{
								"astId": 48,
								"contract": "contracts/ViewQuiz.sol:ViewQuiz",
								"label": "reward",
								"offset": 0,
								"slot": "7",
								"type": "t_uint256"
							},
							{
								"astId": 50,
								"contract": "contracts/ViewQuiz.sol:ViewQuiz",
								"label": "rewardPool",
								"offset": 0,
								"slot": "8",
								"type": "t_uint256"
							}
						],
						"numberOfBytes": "288"
					},
					"t_uint256": {
						"encoding": "inplace",
						"label": "uint256",
						"numberOfBytes": "32"
					},
					"t_uint8": {
						"encoding": "inplace",
						"label": "uint8",
						"numberOfBytes": "1"
					}
				}
			},
			"userdoc": {
				"kind": "user",
				"methods": {},
				"version": 1
			}
		}
	}
}