{
	"contracts/AnswerQuiz.sol": {
		"AnswerQuiz": {
			"abi": [
				{
					"anonymous": false,
					"inputs": [
						{
							"components": [
								{
									"internalType": "string",
									"name": "question",
									"type": "string"
								},
								{
									"internalType": "string",
									"name": "choice1",
									"type": "string"
								},
								{
									"internalType": "string",
									"name": "choice2",
									"type": "string"
								},
								{
									"internalType": "string",
									"name": "choice3",
									"type": "string"
								},
								{
									"internalType": "string",
									"name": "choice4",
									"type": "string"
								},
								{
									"internalType": "string",
									"name": "hint",
									"type": "string"
								},
								{
									"internalType": "uint8",
									"name": "languageCode",
									"type": "uint8"
								},
								{
									"internalType": "uint256",
									"name": "reward",
									"type": "uint256"
								},
								{
									"internalType": "uint256",
									"name": "rewardPool",
									"type": "uint256"
								}
							],
							"indexed": false,
							"internalType": "struct CreateQuiz.Quiz",
							"name": "quiz",
							"type": "tuple"
						}
					],
					"name": "GetQuiz",
					"type": "event"
				},
				{
					"anonymous": false,
					"inputs": [
						{
							"indexed": false,
							"internalType": "string",
							"name": "question",
							"type": "string"
						},
						{
							"indexed": false,
							"internalType": "uint8",
							"name": "answer",
							"type": "uint8"
						}
					],
					"name": "NewQuiz",
					"type": "event"
				},
				{
					"anonymous": false,
					"inputs": [
						{
							"indexed": true,
							"internalType": "address",
							"name": "previousOwner",
							"type": "address"
						},
						{
							"indexed": true,
							"internalType": "address",
							"name": "newOwner",
							"type": "address"
						}
					],
					"name": "OwnershipTransferred",
					"type": "event"
				},
				{
					"anonymous": false,
					"inputs": [
						{
							"components": [
								{
									"internalType": "string",
									"name": "question",
									"type": "string"
								},
								{
									"internalType": "string",
									"name": "choice1",
									"type": "string"
								},
								{
									"internalType": "string",
									"name": "choice2",
									"type": "string"
								},
								{
									"internalType": "string",
									"name": "choice3",
									"type": "string"
								},
								{
									"internalType": "string",
									"name": "choice4",
									"type": "string"
								},
								{
									"internalType": "string",
									"name": "hint",
									"type": "string"
								},
								{
									"internalType": "uint8",
									"name": "languageCode",
									"type": "uint8"
								},
								{
									"internalType": "uint256",
									"name": "reward",
									"type": "uint256"
								},
								{
									"internalType": "uint256",
									"name": "rewardPool",
									"type": "uint256"
								}
							],
							"indexed": false,
							"internalType": "struct CreateQuiz.Quiz",
							"name": "quiz",
							"type": "tuple"
						},
						{
							"indexed": false,
							"internalType": "uint8",
							"name": "answer",
							"type": "uint8"
						}
					],
					"name": "QuizOwnerGetQuiz",
					"type": "event"
				},
				{
					"inputs": [
						{
							"internalType": "uint256",
							"name": "_quizId",
							"type": "uint256"
						},
						{
							"internalType": "uint8",
							"name": "_answer",
							"type": "uint8"
						}
					],
					"name": "answerQuiz",
					"outputs": [],
					"stateMutability": "nonpayable",
					"type": "function"
				},
				{
					"inputs": [
						{
							"internalType": "uint256",
							"name": "_quizId",
							"type": "uint256"
						},
						{
							"internalType": "bool",
							"name": "_quizStatus",
							"type": "bool"
						}
					],
					"name": "changeQuizStatus",
					"outputs": [],
					"stateMutability": "nonpayable",
					"type": "function"
				},
				{
					"inputs": [
						{
							"internalType": "string",
							"name": "_seed",
							"type": "string"
						}
					],
					"name": "getRandomQuiz",
					"outputs": [
						{
							"components": [
								{
									"internalType": "string",
									"name": "question",
									"type": "string"
								},
								{
									"internalType": "string",
									"name": "choice1",
									"type": "string"
								},
								{
									"internalType": "string",
									"name": "choice2",
									"type": "string"
								},
								{
									"internalType": "string",
									"name": "choice3",
									"type": "string"
								},
								{
									"internalType": "string",
									"name": "choice4",
									"type": "string"
								},
								{
									"internalType": "string",
									"name": "hint",
									"type": "string"
								},
								{
									"internalType": "uint8",
									"name": "languageCode",
									"type": "uint8"
								},
								{
									"internalType": "uint256",
									"name": "reward",
									"type": "uint256"
								},
								{
									"internalType": "uint256",
									"name": "rewardPool",
									"type": "uint256"
								}
							],
							"internalType": "struct CreateQuiz.Quiz",
							"name": "",
							"type": "tuple"
						}
					],
					"stateMutability": "nonpayable",
					"type": "function"
				},
				{
					"inputs": [],
					"name": "owner",
					"outputs": [
						{
							"internalType": "address",
							"name": "",
							"type": "address"
						}
					],
					"stateMutability": "view",
					"type": "function"
				},
				{
					"inputs": [
						{
							"internalType": "uint256",
							"name": "",
							"type": "uint256"
						}
					],
					"name": "quizIsActive",
					"outputs": [
						{
							"internalType": "bool",
							"name": "",
							"type": "bool"
						}
					],
					"stateMutability": "view",
					"type": "function"
				},
				{
					"inputs": [
						{
							"internalType": "uint256",
							"name": "",
							"type": "uint256"
						}
					],
					"name": "quizOwner",
					"outputs": [
						{
							"internalType": "address",
							"name": "",
							"type": "address"
						}
					],
					"stateMutability": "view",
					"type": "function"
				},
				{
					"inputs": [
						{
							"internalType": "uint256",
							"name": "_quizId",
							"type": "uint256"
						},
						{
							"internalType": "string",
							"name": "_hint",
							"type": "string"
						}
					],
					"name": "quizOwnerChangeHint",
					"outputs": [],
					"stateMutability": "nonpayable",
					"type": "function"
				},
				{
					"inputs": [
						{
							"internalType": "uint256",
							"name": "_quizId",
							"type": "uint256"
						},
						{
							"internalType": "bool",
							"name": "_quizStatus",
							"type": "bool"
						}
					],
					"name": "quizOwnerChangeStatus",
					"outputs": [],
					"stateMutability": "nonpayable",
					"type": "function"
				},
				{
					"inputs": [
						{
							"internalType": "uint256",
							"name": "_quizId",
							"type": "uint256"
						}
					],
					"name": "quizOwnerGetQuiz",
					"outputs": [
						{
							"components": [
								{
									"internalType": "string",
									"name": "question",
									"type": "string"
								},
								{
									"internalType": "string",
									"name": "choice1",
									"type": "string"
								},
								{
									"internalType": "string",
									"name": "choice2",
									"type": "string"
								},
								{
									"internalType": "string",
									"name": "choice3",
									"type": "string"
								},
								{
									"internalType": "string",
									"name": "choice4",
									"type": "string"
								},
								{
									"internalType": "string",
									"name": "hint",
									"type": "string"
								},
								{
									"internalType": "uint8",
									"name": "languageCode",
									"type": "uint8"
								},
								{
									"internalType": "uint256",
									"name": "reward",
									"type": "uint256"
								},
								{
									"internalType": "uint256",
									"name": "rewardPool",
									"type": "uint256"
								}
							],
							"internalType": "struct CreateQuiz.Quiz",
							"name": "",
							"type": "tuple"
						},
						{
							"internalType": "uint8",
							"name": "",
							"type": "uint8"
						}
					],
					"stateMutability": "nonpayable",
					"type": "function"
				},
				{
					"inputs": [],
					"name": "renounceOwnership",
					"outputs": [],
					"stateMutability": "nonpayable",
					"type": "function"
				},
				{
					"inputs": [
						{
							"internalType": "address",
							"name": "newOwner",
							"type": "address"
						}
					],
					"name": "transferOwnership",
					"outputs": [],
					"stateMutability": "nonpayable",
					"type": "function"
				}
			],
			"devdoc": {
				"kind": "dev",
				"methods": {
					"owner()": {
						"details": "Returns the address of the current owner."
					},
					"renounceOwnership()": {
						"details": "Leaves the contract without owner. It will not be possible to call `onlyOwner` functions anymore. Can only be called by the current owner. NOTE: Renouncing ownership will leave the contract without an owner, thereby removing any functionality that is only available to the owner."
					},
					"transferOwnership(address)": {
						"details": "Transfers ownership of the contract to a new account (`newOwner`). Can only be called by the current owner."
					}
				},
				"version": 1
			},
			"evm": {
				"assembly": "    /* \"contracts/AnswerQuiz.sol\":91:384  contract AnswerQuiz is ViewQuiz {... */\n  mstore(0x40, 0x80)\n  callvalue\n  dup1\n  iszero\n  tag_1\n  jumpi\n  0x00\n  dup1\n  revert\ntag_1:\n  pop\n    /* \"contracts/Ownable.sol\":914:946  _transferOwnership(_msgSender()) */\n  tag_4\n    /* \"contracts/Ownable.sol\":933:945  _msgSender() */\n  tag_5\n    /* \"contracts/Ownable.sol\":933:943  _msgSender */\n  shl(0x20, tag_6)\n    /* \"contracts/Ownable.sol\":933:945  _msgSender() */\n  0x20\n  shr\n  jump\t// in\ntag_5:\n    /* \"contracts/Ownable.sol\":914:932  _transferOwnership */\n  shl(0x20, tag_7)\n    /* \"contracts/Ownable.sol\":914:946  _transferOwnership(_msgSender()) */\n  0x20\n  shr\n  jump\t// in\ntag_4:\n    /* \"contracts/AnswerQuiz.sol\":91:384  contract AnswerQuiz is ViewQuiz {... */\n  jump(tag_8)\n    /* \"contracts/Context.sol\":640:736  function _msgSender() internal view virtual returns (address) {... */\ntag_6:\n    /* \"contracts/Context.sol\":693:700  address */\n  0x00\n    /* \"contracts/Context.sol\":719:729  msg.sender */\n  caller\n    /* \"contracts/Context.sol\":712:729  return msg.sender */\n  swap1\n  pop\n    /* \"contracts/Context.sol\":640:736  function _msgSender() internal view virtual returns (address) {... */\n  swap1\n  jump\t// out\n    /* \"contracts/Ownable.sol\":2263:2450  function _transferOwnership(address newOwner) internal virtual {... */\ntag_7:\n    /* \"contracts/Ownable.sol\":2336:2352  address oldOwner */\n  0x00\n    /* \"contracts/Ownable.sol\":2355:2361  _owner */\n  dup1\n  0x00\n  swap1\n  sload\n  swap1\n  0x0100\n  exp\n  swap1\n  div\n  0xffffffffffffffffffffffffffffffffffffffff\n  and\n    /* \"contracts/Ownable.sol\":2336:2361  address oldOwner = _owner */\n  swap1\n  pop\n    /* \"contracts/Ownable.sol\":2380:2388  newOwner */\n  dup2\n    /* \"contracts/Ownable.sol\":2371:2377  _owner */\n  0x00\n  dup1\n    /* \"contracts/Ownable.sol\":2371:2388  _owner = newOwner */\n  0x0100\n  exp\n  dup2\n  sload\n  dup2\n  0xffffffffffffffffffffffffffffffffffffffff\n  mul\n  not\n  and\n  swap1\n  dup4\n  0xffffffffffffffffffffffffffffffffffffffff\n  and\n  mul\n  or\n  swap1\n  sstore\n  pop\n    /* \"contracts/Ownable.sol\":2434:2442  newOwner */\n  dup2\n    /* \"contracts/Ownable.sol\":2403:2443  OwnershipTransferred(oldOwner, newOwner) */\n  0xffffffffffffffffffffffffffffffffffffffff\n  and\n    /* \"contracts/Ownable.sol\":2424:2432  oldOwner */\n  dup2\n    /* \"contracts/Ownable.sol\":2403:2443  OwnershipTransferred(oldOwner, newOwner) */\n  0xffffffffffffffffffffffffffffffffffffffff\n  and\n  0x8be0079c531659141344cd1fd0a4f28419497f9722a3daafe3b4186f6b6457e0\n  mload(0x40)\n  mload(0x40)\n  dup1\n  swap2\n  sub\n  swap1\n  log3\n    /* \"contracts/Ownable.sol\":2326:2450  {... */\n  pop\n    /* \"contracts/Ownable.sol\":2263:2450  function _transferOwnership(address newOwner) internal virtual {... */\n  pop\n  jump\t// out\n    /* \"contracts/AnswerQuiz.sol\":91:384  contract AnswerQuiz is ViewQuiz {... */\ntag_8:\n  dataSize(sub_0)\n  dup1\n  dataOffset(sub_0)\n  0x00\n  codecopy\n  0x00\n  return\nstop\n\nsub_0: assembly {\n        /* \"contracts/AnswerQuiz.sol\":91:384  contract AnswerQuiz is ViewQuiz {... */\n      mstore(0x40, 0x80)\n      callvalue\n      dup1\n      iszero\n      tag_1\n      jumpi\n      0x00\n      dup1\n      revert\n    tag_1:\n      pop\n      jumpi(tag_2, lt(calldatasize, 0x04))\n      shr(0xe0, calldataload(0x00))\n      dup1\n      0x728b0d87\n      gt\n      tag_14\n      jumpi\n      dup1\n      0x728b0d87\n      eq\n      tag_8\n      jumpi\n      dup1\n      0x8da5cb5b\n      eq\n      tag_9\n      jumpi\n      dup1\n      0xa70434b3\n      eq\n      tag_10\n      jumpi\n      dup1\n      0xb9360cf1\n      eq\n      tag_11\n      jumpi\n      dup1\n      0xf2fde38b\n      eq\n      tag_12\n      jumpi\n      dup1\n      0xfbb3b6ce\n      eq\n      tag_13\n      jumpi\n      jump(tag_2)\n    tag_14:\n      dup1\n      0x1d3f7559\n      eq\n      tag_3\n      jumpi\n      dup1\n      0x377def85\n      eq\n      tag_4\n      jumpi\n      dup1\n      0x400ae0f9\n      eq\n      tag_5\n      jumpi\n      dup1\n      0x51a1d40e\n      eq\n      tag_6\n      jumpi\n      dup1\n      0x715018a6\n      eq\n      tag_7\n      jumpi\n    tag_2:\n      0x00\n      dup1\n      revert\n        /* \"contracts/CreateQuiz.sol\":1962:2089  function changeQuizStatus(uint _quizId, bool _quizStatus) public onlyOwner {... */\n    tag_3:\n      tag_15\n      0x04\n      dup1\n      calldatasize\n      sub\n      dup2\n      add\n      swap1\n      tag_16\n      swap2\n      swap1\n      tag_17\n      jump\t// in\n    tag_16:\n      tag_18\n      jump\t// in\n    tag_15:\n      stop\n        /* \"contracts/CreateQuiz.sol\":1526:1671  function quizOwnerChangeStatus(uint _quizId, bool _quizStatus) public onlyQuizOwner(_quizId) {... */\n    tag_4:\n      tag_19\n      0x04\n      dup1\n      calldatasize\n      sub\n      dup2\n      add\n      swap1\n      tag_20\n      swap2\n      swap1\n      tag_17\n      jump\t// in\n    tag_20:\n      tag_21\n      jump\t// in\n    tag_19:\n      stop\n        /* \"contracts/CreateQuiz.sol\":547:589  mapping (uint => address) public quizOwner */\n    tag_5:\n      tag_22\n      0x04\n      dup1\n      calldatasize\n      sub\n      dup2\n      add\n      swap1\n      tag_23\n      swap2\n      swap1\n      tag_24\n      jump\t// in\n    tag_23:\n      tag_25\n      jump\t// in\n    tag_22:\n      mload(0x40)\n      tag_26\n      swap2\n      swap1\n      tag_27\n      jump\t// in\n    tag_26:\n      mload(0x40)\n      dup1\n      swap2\n      sub\n      swap1\n      return\n        /* \"contracts/CreateQuiz.sol\":450:492  mapping (uint => bool) public quizIsActive */\n    tag_6:\n      tag_28\n      0x04\n      dup1\n      calldatasize\n      sub\n      dup2\n      add\n      swap1\n      tag_29\n      swap2\n      swap1\n      tag_24\n      jump\t// in\n    tag_29:\n      tag_30\n      jump\t// in\n    tag_28:\n      mload(0x40)\n      tag_31\n      swap2\n      swap1\n      tag_32\n      jump\t// in\n    tag_31:\n      mload(0x40)\n      dup1\n      swap2\n      sub\n      swap1\n      return\n        /* \"contracts/Ownable.sol\":1661:1762  function renounceOwnership() public virtual onlyOwner {... */\n    tag_7:\n      tag_33\n      tag_34\n      jump\t// in\n    tag_33:\n      stop\n        /* \"contracts/ViewQuiz.sol\":256:617  function getRandomQuiz(string memory _seed) public returns (Quiz memory) {... */\n    tag_8:\n      tag_35\n      0x04\n      dup1\n      calldatasize\n      sub\n      dup2\n      add\n      swap1\n      tag_36\n      swap2\n      swap1\n      tag_37\n      jump\t// in\n    tag_36:\n      tag_38\n      jump\t// in\n    tag_35:\n      mload(0x40)\n      tag_39\n      swap2\n      swap1\n      tag_40\n      jump\t// in\n    tag_39:\n      mload(0x40)\n      dup1\n      swap2\n      sub\n      swap1\n      return\n        /* \"contracts/Ownable.sol\":1029:1114  function owner() public view virtual returns (address) {... */\n    tag_9:\n      tag_41\n      tag_42\n      jump\t// in\n    tag_41:\n      mload(0x40)\n      tag_43\n      swap2\n      swap1\n      tag_27\n      jump\t// in\n    tag_43:\n      mload(0x40)\n      dup1\n      swap2\n      sub\n      swap1\n      return\n        /* \"contracts/AnswerQuiz.sol\":134:382  function answerQuiz(uint _quizId, uint8 _answer) public {... */\n    tag_10:\n      tag_44\n      0x04\n      dup1\n      calldatasize\n      sub\n      dup2\n      add\n      swap1\n      tag_45\n      swap2\n      swap1\n      tag_46\n      jump\t// in\n    tag_45:\n      tag_47\n      jump\t// in\n    tag_44:\n      stop\n        /* \"contracts/ViewQuiz.sol\":880:1112  function quizOwnerGetQuiz(uint _quizId) public onlyQuizOwner(_quizId) returns (Quiz memory, uint8) {... */\n    tag_11:\n      tag_48\n      0x04\n      dup1\n      calldatasize\n      sub\n      dup2\n      add\n      swap1\n      tag_49\n      swap2\n      swap1\n      tag_24\n      jump\t// in\n    tag_49:\n      tag_50\n      jump\t// in\n    tag_48:\n      mload(0x40)\n      tag_51\n      swap3\n      swap2\n      swap1\n      tag_52\n      jump\t// in\n    tag_51:\n      mload(0x40)\n      dup1\n      swap2\n      sub\n      swap1\n      return\n        /* \"contracts/Ownable.sol\":1911:2109  function transferOwnership(address newOwner) public virtual onlyOwner {... */\n    tag_12:\n      tag_53\n      0x04\n      dup1\n      calldatasize\n      sub\n      dup2\n      add\n      swap1\n      tag_54\n      swap2\n      swap1\n      tag_55\n      jump\t// in\n    tag_54:\n      tag_56\n      jump\t// in\n    tag_53:\n      stop\n        /* \"contracts/CreateQuiz.sol\":1732:1872  function quizOwnerChangeHint(uint _quizId, string memory _hint) public onlyQuizOwner(_quizId) {... */\n    tag_13:\n      tag_57\n      0x04\n      dup1\n      calldatasize\n      sub\n      dup2\n      add\n      swap1\n      tag_58\n      swap2\n      swap1\n      tag_59\n      jump\t// in\n    tag_58:\n      tag_60\n      jump\t// in\n    tag_57:\n      stop\n        /* \"contracts/CreateQuiz.sol\":1962:2089  function changeQuizStatus(uint _quizId, bool _quizStatus) public onlyOwner {... */\n    tag_18:\n        /* \"contracts/Ownable.sol\":1252:1264  _msgSender() */\n      tag_62\n        /* \"contracts/Ownable.sol\":1252:1262  _msgSender */\n      tag_63\n        /* \"contracts/Ownable.sol\":1252:1264  _msgSender() */\n      jump\t// in\n    tag_62:\n        /* \"contracts/Ownable.sol\":1241:1264  owner() == _msgSender() */\n      0xffffffffffffffffffffffffffffffffffffffff\n      and\n        /* \"contracts/Ownable.sol\":1241:1248  owner() */\n      tag_64\n        /* \"contracts/Ownable.sol\":1241:1246  owner */\n      tag_42\n        /* \"contracts/Ownable.sol\":1241:1248  owner() */\n      jump\t// in\n    tag_64:\n        /* \"contracts/Ownable.sol\":1241:1264  owner() == _msgSender() */\n      0xffffffffffffffffffffffffffffffffffffffff\n      and\n      eq\n        /* \"contracts/Ownable.sol\":1233:1301  require(owner() == _msgSender(), \"Ownable: caller is not the owner\") */\n      tag_65\n      jumpi\n      mload(0x40)\n      0x08c379a000000000000000000000000000000000000000000000000000000000\n      dup2\n      mstore\n      0x04\n      add\n      tag_66\n      swap1\n      tag_67\n      jump\t// in\n    tag_66:\n      mload(0x40)\n      dup1\n      swap2\n      sub\n      swap1\n      revert\n    tag_65:\n        /* \"contracts/CreateQuiz.sol\":2071:2082  _quizStatus */\n      dup1\n        /* \"contracts/CreateQuiz.sol\":2047:2059  quizIsActive */\n      0x02\n        /* \"contracts/CreateQuiz.sol\":2047:2068  quizIsActive[_quizId] */\n      0x00\n        /* \"contracts/CreateQuiz.sol\":2060:2067  _quizId */\n      dup5\n        /* \"contracts/CreateQuiz.sol\":2047:2068  quizIsActive[_quizId] */\n      dup2\n      mstore\n      0x20\n      add\n      swap1\n      dup2\n      mstore\n      0x20\n      add\n      0x00\n      keccak256\n      0x00\n        /* \"contracts/CreateQuiz.sol\":2047:2082  quizIsActive[_quizId] = _quizStatus */\n      0x0100\n      exp\n      dup2\n      sload\n      dup2\n      0xff\n      mul\n      not\n      and\n      swap1\n      dup4\n      iszero\n      iszero\n      mul\n      or\n      swap1\n      sstore\n      pop\n        /* \"contracts/CreateQuiz.sol\":1962:2089  function changeQuizStatus(uint _quizId, bool _quizStatus) public onlyOwner {... */\n      pop\n      pop\n      jump\t// out\n        /* \"contracts/CreateQuiz.sol\":1526:1671  function quizOwnerChangeStatus(uint _quizId, bool _quizStatus) public onlyQuizOwner(_quizId) {... */\n    tag_21:\n        /* \"contracts/CreateQuiz.sol\":1610:1617  _quizId */\n      dup2\n        /* \"contracts/CreateQuiz.sol\":674:684  msg.sender */\n      caller\n        /* \"contracts/CreateQuiz.sol\":652:684  quizOwner[_quizId] == msg.sender */\n      0xffffffffffffffffffffffffffffffffffffffff\n      and\n        /* \"contracts/CreateQuiz.sol\":652:661  quizOwner */\n      0x04\n        /* \"contracts/CreateQuiz.sol\":652:670  quizOwner[_quizId] */\n      0x00\n        /* \"contracts/CreateQuiz.sol\":662:669  _quizId */\n      dup4\n        /* \"contracts/CreateQuiz.sol\":652:670  quizOwner[_quizId] */\n      dup2\n      mstore\n      0x20\n      add\n      swap1\n      dup2\n      mstore\n      0x20\n      add\n      0x00\n      keccak256\n      0x00\n      swap1\n      sload\n      swap1\n      0x0100\n      exp\n      swap1\n      div\n      0xffffffffffffffffffffffffffffffffffffffff\n      and\n        /* \"contracts/CreateQuiz.sol\":652:684  quizOwner[_quizId] == msg.sender */\n      0xffffffffffffffffffffffffffffffffffffffff\n      and\n      eq\n        /* \"contracts/CreateQuiz.sol\":644:685  require(quizOwner[_quizId] == msg.sender) */\n      tag_70\n      jumpi\n      0x00\n      dup1\n      revert\n    tag_70:\n        /* \"contracts/CreateQuiz.sol\":1653:1664  _quizStatus */\n      dup2\n        /* \"contracts/CreateQuiz.sol\":1629:1641  quizIsActive */\n      0x02\n        /* \"contracts/CreateQuiz.sol\":1629:1650  quizIsActive[_quizId] */\n      0x00\n        /* \"contracts/CreateQuiz.sol\":1642:1649  _quizId */\n      dup6\n        /* \"contracts/CreateQuiz.sol\":1629:1650  quizIsActive[_quizId] */\n      dup2\n      mstore\n      0x20\n      add\n      swap1\n      dup2\n      mstore\n      0x20\n      add\n      0x00\n      keccak256\n      0x00\n        /* \"contracts/CreateQuiz.sol\":1629:1664  quizIsActive[_quizId] = _quizStatus */\n      0x0100\n      exp\n      dup2\n      sload\n      dup2\n      0xff\n      mul\n      not\n      and\n      swap1\n      dup4\n      iszero\n      iszero\n      mul\n      or\n      swap1\n      sstore\n      pop\n        /* \"contracts/CreateQuiz.sol\":1526:1671  function quizOwnerChangeStatus(uint _quizId, bool _quizStatus) public onlyQuizOwner(_quizId) {... */\n      pop\n      pop\n      pop\n      jump\t// out\n        /* \"contracts/CreateQuiz.sol\":547:589  mapping (uint => address) public quizOwner */\n    tag_25:\n      mstore(0x20, 0x04)\n      dup1\n      0x00\n      mstore\n      keccak256(0x00, 0x40)\n      0x00\n      swap2\n      pop\n      sload\n      swap1\n      0x0100\n      exp\n      swap1\n      div\n      0xffffffffffffffffffffffffffffffffffffffff\n      and\n      dup2\n      jump\t// out\n        /* \"contracts/CreateQuiz.sol\":450:492  mapping (uint => bool) public quizIsActive */\n    tag_30:\n      mstore(0x20, 0x02)\n      dup1\n      0x00\n      mstore\n      keccak256(0x00, 0x40)\n      0x00\n      swap2\n      pop\n      sload\n      swap1\n      0x0100\n      exp\n      swap1\n      div\n      0xff\n      and\n      dup2\n      jump\t// out\n        /* \"contracts/Ownable.sol\":1661:1762  function renounceOwnership() public virtual onlyOwner {... */\n    tag_34:\n        /* \"contracts/Ownable.sol\":1252:1264  _msgSender() */\n      tag_73\n        /* \"contracts/Ownable.sol\":1252:1262  _msgSender */\n      tag_63\n        /* \"contracts/Ownable.sol\":1252:1264  _msgSender() */\n      jump\t// in\n    tag_73:\n        /* \"contracts/Ownable.sol\":1241:1264  owner() == _msgSender() */\n      0xffffffffffffffffffffffffffffffffffffffff\n      and\n        /* \"contracts/Ownable.sol\":1241:1248  owner() */\n      tag_74\n        /* \"contracts/Ownable.sol\":1241:1246  owner */\n      tag_42\n        /* \"contracts/Ownable.sol\":1241:1248  owner() */\n      jump\t// in\n    tag_74:\n        /* \"contracts/Ownable.sol\":1241:1264  owner() == _msgSender() */\n      0xffffffffffffffffffffffffffffffffffffffff\n      and\n      eq\n        /* \"contracts/Ownable.sol\":1233:1301  require(owner() == _msgSender(), \"Ownable: caller is not the owner\") */\n      tag_75\n      jumpi\n      mload(0x40)\n      0x08c379a000000000000000000000000000000000000000000000000000000000\n      dup2\n      mstore\n      0x04\n      add\n      tag_76\n      swap1\n      tag_67\n      jump\t// in\n    tag_76:\n      mload(0x40)\n      dup1\n      swap2\n      sub\n      swap1\n      revert\n    tag_75:\n        /* \"contracts/Ownable.sol\":1725:1755  _transferOwnership(address(0)) */\n      tag_78\n        /* \"contracts/Ownable.sol\":1752:1753  0 */\n      0x00\n        /* \"contracts/Ownable.sol\":1725:1743  _transferOwnership */\n      tag_79\n        /* \"contracts/Ownable.sol\":1725:1755  _transferOwnership(address(0)) */\n      jump\t// in\n    tag_78:\n        /* \"contracts/Ownable.sol\":1661:1762  function renounceOwnership() public virtual onlyOwner {... */\n      jump\t// out\n        /* \"contracts/ViewQuiz.sol\":256:617  function getRandomQuiz(string memory _seed) public returns (Quiz memory) {... */\n    tag_38:\n        /* \"contracts/ViewQuiz.sol\":316:327  Quiz memory */\n      tag_80\n      tag_81\n      jump\t// in\n    tag_80:\n        /* \"contracts/ViewQuiz.sol\":339:361  uint storedBlockNumber */\n      0x00\n        /* \"contracts/ViewQuiz.sol\":379:380  1 */\n      0x01\n        /* \"contracts/ViewQuiz.sol\":364:376  block.number */\n      number\n        /* \"contracts/ViewQuiz.sol\":364:380  block.number + 1 */\n      tag_83\n      swap2\n      swap1\n      tag_84\n      jump\t// in\n    tag_83:\n        /* \"contracts/ViewQuiz.sol\":339:380  uint storedBlockNumber = block.number + 1 */\n      swap1\n      pop\n        /* \"contracts/ViewQuiz.sol\":390:399  uint rand */\n      0x00\n        /* \"contracts/ViewQuiz.sol\":434:439  _seed */\n      dup4\n        /* \"contracts/ViewQuiz.sol\":451:468  storedBlockNumber */\n      dup3\n        /* \"contracts/ViewQuiz.sol\":441:469  blockhash(storedBlockNumber) */\n      blockhash\n        /* \"contracts/ViewQuiz.sol\":417:470  abi.encodePacked(_seed, blockhash(storedBlockNumber)) */\n      add(0x20, mload(0x40))\n      tag_85\n      swap3\n      swap2\n      swap1\n      tag_86\n      jump\t// in\n    tag_85:\n      mload(0x40)\n      0x20\n      dup2\n      dup4\n      sub\n      sub\n      dup2\n      mstore\n      swap1\n      0x40\n      mstore\n        /* \"contracts/ViewQuiz.sol\":407:471  keccak256(abi.encodePacked(_seed, blockhash(storedBlockNumber))) */\n      dup1\n      mload\n      swap1\n      0x20\n      add\n      keccak256\n        /* \"contracts/ViewQuiz.sol\":402:472  uint(keccak256(abi.encodePacked(_seed, blockhash(storedBlockNumber)))) */\n      0x00\n      shr\n        /* \"contracts/ViewQuiz.sol\":390:472  uint rand = uint(keccak256(abi.encodePacked(_seed, blockhash(storedBlockNumber)))) */\n      swap1\n      pop\n        /* \"contracts/ViewQuiz.sol\":482:493  uint quizId */\n      0x00\n        /* \"contracts/ViewQuiz.sol\":503:510  quizzes */\n      0x01\n        /* \"contracts/ViewQuiz.sol\":503:517  quizzes.length */\n      dup1\n      sload\n      swap1\n      pop\n        /* \"contracts/ViewQuiz.sol\":496:500  rand */\n      dup3\n        /* \"contracts/ViewQuiz.sol\":496:517  rand % quizzes.length */\n      tag_87\n      swap2\n      swap1\n      tag_88\n      jump\t// in\n    tag_87:\n        /* \"contracts/ViewQuiz.sol\":482:517  uint quizId = rand % quizzes.length */\n      swap1\n      pop\n        /* \"contracts/ViewQuiz.sol\":527:543  Quiz memory quiz */\n      0x00\n        /* \"contracts/ViewQuiz.sol\":546:553  quizzes */\n      0x01\n        /* \"contracts/ViewQuiz.sol\":554:560  quizId */\n      dup3\n        /* \"contracts/ViewQuiz.sol\":546:561  quizzes[quizId] */\n      dup2\n      sload\n      dup2\n      lt\n      tag_89\n      jumpi\n      tag_90\n      tag_91\n      jump\t// in\n    tag_90:\n    tag_89:\n      swap1\n      0x00\n      mstore\n      keccak256(0x00, 0x20)\n      swap1\n      0x09\n      mul\n      add\n        /* \"contracts/ViewQuiz.sol\":527:561  Quiz memory quiz = quizzes[quizId] */\n      mload(0x40)\n      dup1\n      0x0120\n      add\n      0x40\n      mstore\n      swap1\n      dup2\n      0x00\n      dup3\n      add\n      dup1\n      sload\n      tag_93\n      swap1\n      tag_94\n      jump\t// in\n    tag_93:\n      dup1\n      0x1f\n      add\n      0x20\n      dup1\n      swap2\n      div\n      mul\n      0x20\n      add\n      mload(0x40)\n      swap1\n      dup2\n      add\n      0x40\n      mstore\n      dup1\n      swap3\n      swap2\n      swap1\n      dup2\n      dup2\n      mstore\n      0x20\n      add\n      dup3\n      dup1\n      sload\n      tag_95\n      swap1\n      tag_94\n      jump\t// in\n    tag_95:\n      dup1\n      iszero\n      tag_96\n      jumpi\n      dup1\n      0x1f\n      lt\n      tag_97\n      jumpi\n      0x0100\n      dup1\n      dup4\n      sload\n      div\n      mul\n      dup4\n      mstore\n      swap2\n      0x20\n      add\n      swap2\n      jump(tag_96)\n    tag_97:\n      dup3\n      add\n      swap2\n      swap1\n      0x00\n      mstore\n      keccak256(0x00, 0x20)\n      swap1\n    tag_98:\n      dup2\n      sload\n      dup2\n      mstore\n      swap1\n      0x01\n      add\n      swap1\n      0x20\n      add\n      dup1\n      dup4\n      gt\n      tag_98\n      jumpi\n      dup3\n      swap1\n      sub\n      0x1f\n      and\n      dup3\n      add\n      swap2\n    tag_96:\n      pop\n      pop\n      pop\n      pop\n      pop\n      dup2\n      mstore\n      0x20\n      add\n      0x01\n      dup3\n      add\n      dup1\n      sload\n      tag_99\n      swap1\n      tag_94\n      jump\t// in\n    tag_99:\n      dup1\n      0x1f\n      add\n      0x20\n      dup1\n      swap2\n      div\n      mul\n      0x20\n      add\n      mload(0x40)\n      swap1\n      dup2\n      add\n      0x40\n      mstore\n      dup1\n      swap3\n      swap2\n      swap1\n      dup2\n      dup2\n      mstore\n      0x20\n      add\n      dup3\n      dup1\n      sload\n      tag_100\n      swap1\n      tag_94\n      jump\t// in\n    tag_100:\n      dup1\n      iszero\n      tag_101\n      jumpi\n      dup1\n      0x1f\n      lt\n      tag_102\n      jumpi\n      0x0100\n      dup1\n      dup4\n      sload\n      div\n      mul\n      dup4\n      mstore\n      swap2\n      0x20\n      add\n      swap2\n      jump(tag_101)\n    tag_102:\n      dup3\n      add\n      swap2\n      swap1\n      0x00\n      mstore\n      keccak256(0x00, 0x20)\n      swap1\n    tag_103:\n      dup2\n      sload\n      dup2\n      mstore\n      swap1\n      0x01\n      add\n      swap1\n      0x20\n      add\n      dup1\n      dup4\n      gt\n      tag_103\n      jumpi\n      dup3\n      swap1\n      sub\n      0x1f\n      and\n      dup3\n      add\n      swap2\n    tag_101:\n      pop\n      pop\n      pop\n      pop\n      pop\n      dup2\n      mstore\n      0x20\n      add\n      0x02\n      dup3\n      add\n      dup1\n      sload\n      tag_104\n      swap1\n      tag_94\n      jump\t// in\n    tag_104:\n      dup1\n      0x1f\n      add\n      0x20\n      dup1\n      swap2\n      div\n      mul\n      0x20\n      add\n      mload(0x40)\n      swap1\n      dup2\n      add\n      0x40\n      mstore\n      dup1\n      swap3\n      swap2\n      swap1\n      dup2\n      dup2\n      mstore\n      0x20\n      add\n      dup3\n      dup1\n      sload\n      tag_105\n      swap1\n      tag_94\n      jump\t// in\n    tag_105:\n      dup1\n      iszero\n      tag_106\n      jumpi\n      dup1\n      0x1f\n      lt\n      tag_107\n      jumpi\n      0x0100\n      dup1\n      dup4\n      sload\n      div\n      mul\n      dup4\n      mstore\n      swap2\n      0x20\n      add\n      swap2\n      jump(tag_106)\n    tag_107:\n      dup3\n      add\n      swap2\n      swap1\n      0x00\n      mstore\n      keccak256(0x00, 0x20)\n      swap1\n    tag_108:\n      dup2\n      sload\n      dup2\n      mstore\n      swap1\n      0x01\n      add\n      swap1\n      0x20\n      add\n      dup1\n      dup4\n      gt\n      tag_108\n      jumpi\n      dup3\n      swap1\n      sub\n      0x1f\n      and\n      dup3\n      add\n      swap2\n    tag_106:\n      pop\n      pop\n      pop\n      pop\n      pop\n      dup2\n      mstore\n      0x20\n      add\n      0x03\n      dup3\n      add\n      dup1\n      sload\n      tag_109\n      swap1\n      tag_94\n      jump\t// in\n    tag_109:\n      dup1\n      0x1f\n      add\n      0x20\n      dup1\n      swap2\n      div\n      mul\n      0x20\n      add\n      mload(0x40)\n      swap1\n      dup2\n      add\n      0x40\n      mstore\n      dup1\n      swap3\n      swap2\n      swap1\n      dup2\n      dup2\n      mstore\n      0x20\n      add\n      dup3\n      dup1\n      sload\n      tag_110\n      swap1\n      tag_94\n      jump\t// in\n    tag_110:\n      dup1\n      iszero\n      tag_111\n      jumpi\n      dup1\n      0x1f\n      lt\n      tag_112\n      jumpi\n      0x0100\n      dup1\n      dup4\n      sload\n      div\n      mul\n      dup4\n      mstore\n      swap2\n      0x20\n      add\n      swap2\n      jump(tag_111)\n    tag_112:\n      dup3\n      add\n      swap2\n      swap1\n      0x00\n      mstore\n      keccak256(0x00, 0x20)\n      swap1\n    tag_113:\n      dup2\n      sload\n      dup2\n      mstore\n      swap1\n      0x01\n      add\n      swap1\n      0x20\n      add\n      dup1\n      dup4\n      gt\n      tag_113\n      jumpi\n      dup3\n      swap1\n      sub\n      0x1f\n      and\n      dup3\n      add\n      swap2\n    tag_111:\n      pop\n      pop\n      pop\n      pop\n      pop\n      dup2\n      mstore\n      0x20\n      add\n      0x04\n      dup3\n      add\n      dup1\n      sload\n      tag_114\n      swap1\n      tag_94\n      jump\t// in\n    tag_114:\n      dup1\n      0x1f\n      add\n      0x20\n      dup1\n      swap2\n      div\n      mul\n      0x20\n      add\n      mload(0x40)\n      swap1\n      dup2\n      add\n      0x40\n      mstore\n      dup1\n      swap3\n      swap2\n      swap1\n      dup2\n      dup2\n      mstore\n      0x20\n      add\n      dup3\n      dup1\n      sload\n      tag_115\n      swap1\n      tag_94\n      jump\t// in\n    tag_115:\n      dup1\n      iszero\n      tag_116\n      jumpi\n      dup1\n      0x1f\n      lt\n      tag_117\n      jumpi\n      0x0100\n      dup1\n      dup4\n      sload\n      div\n      mul\n      dup4\n      mstore\n      swap2\n      0x20\n      add\n      swap2\n      jump(tag_116)\n    tag_117:\n      dup3\n      add\n      swap2\n      swap1\n      0x00\n      mstore\n      keccak256(0x00, 0x20)\n      swap1\n    tag_118:\n      dup2\n      sload\n      dup2\n      mstore\n      swap1\n      0x01\n      add\n      swap1\n      0x20\n      add\n      dup1\n      dup4\n      gt\n      tag_118\n      jumpi\n      dup3\n      swap1\n      sub\n      0x1f\n      and\n      dup3\n      add\n      swap2\n    tag_116:\n      pop\n      pop\n      pop\n      pop\n      pop\n      dup2\n      mstore\n      0x20\n      add\n      0x05\n      dup3\n      add\n      dup1\n      sload\n      tag_119\n      swap1\n      tag_94\n      jump\t// in\n    tag_119:\n      dup1\n      0x1f\n      add\n      0x20\n      dup1\n      swap2\n      div\n      mul\n      0x20\n      add\n      mload(0x40)\n      swap1\n      dup2\n      add\n      0x40\n      mstore\n      dup1\n      swap3\n      swap2\n      swap1\n      dup2\n      dup2\n      mstore\n      0x20\n      add\n      dup3\n      dup1\n      sload\n      tag_120\n      swap1\n      tag_94\n      jump\t// in\n    tag_120:\n      dup1\n      iszero\n      tag_121\n      jumpi\n      dup1\n      0x1f\n      lt\n      tag_122\n      jumpi\n      0x0100\n      dup1\n      dup4\n      sload\n      div\n      mul\n      dup4\n      mstore\n      swap2\n      0x20\n      add\n      swap2\n      jump(tag_121)\n    tag_122:\n      dup3\n      add\n      swap2\n      swap1\n      0x00\n      mstore\n      keccak256(0x00, 0x20)\n      swap1\n    tag_123:\n      dup2\n      sload\n      dup2\n      mstore\n      swap1\n      0x01\n      add\n      swap1\n      0x20\n      add\n      dup1\n      dup4\n      gt\n      tag_123\n      jumpi\n      dup3\n      swap1\n      sub\n      0x1f\n      and\n      dup3\n      add\n      swap2\n    tag_121:\n      pop\n      pop\n      pop\n      pop\n      pop\n      dup2\n      mstore\n      0x20\n      add\n      0x06\n      dup3\n      add\n      0x00\n      swap1\n      sload\n      swap1\n      0x0100\n      exp\n      swap1\n      div\n      0xff\n      and\n      0xff\n      and\n      0xff\n      and\n      dup2\n      mstore\n      0x20\n      add\n      0x07\n      dup3\n      add\n      sload\n      dup2\n      mstore\n      0x20\n      add\n      0x08\n      dup3\n      add\n      sload\n      dup2\n      mstore\n      pop\n      pop\n      swap1\n      pop\n        /* \"contracts/ViewQuiz.sol\":576:589  GetQuiz(quiz) */\n      0xebb434edb545766f69737b9159b386efa8edaef27eb5737e074ea04d9bdc7b54\n        /* \"contracts/ViewQuiz.sol\":584:588  quiz */\n      dup2\n        /* \"contracts/ViewQuiz.sol\":576:589  GetQuiz(quiz) */\n      mload(0x40)\n      tag_124\n      swap2\n      swap1\n      tag_40\n      jump\t// in\n    tag_124:\n      mload(0x40)\n      dup1\n      swap2\n      sub\n      swap1\n      log1\n        /* \"contracts/ViewQuiz.sol\":606:610  quiz */\n      dup1\n        /* \"contracts/ViewQuiz.sol\":599:610  return quiz */\n      swap5\n      pop\n      pop\n      pop\n      pop\n      pop\n        /* \"contracts/ViewQuiz.sol\":256:617  function getRandomQuiz(string memory _seed) public returns (Quiz memory) {... */\n      swap2\n      swap1\n      pop\n      jump\t// out\n        /* \"contracts/Ownable.sol\":1029:1114  function owner() public view virtual returns (address) {... */\n    tag_42:\n        /* \"contracts/Ownable.sol\":1075:1082  address */\n      0x00\n        /* \"contracts/Ownable.sol\":1101:1107  _owner */\n      dup1\n      0x00\n      swap1\n      sload\n      swap1\n      0x0100\n      exp\n      swap1\n      div\n      0xffffffffffffffffffffffffffffffffffffffff\n      and\n        /* \"contracts/Ownable.sol\":1094:1107  return _owner */\n      swap1\n      pop\n        /* \"contracts/Ownable.sol\":1029:1114  function owner() public view virtual returns (address) {... */\n      swap1\n      jump\t// out\n        /* \"contracts/AnswerQuiz.sol\":134:382  function answerQuiz(uint _quizId, uint8 _answer) public {... */\n    tag_47:\n        /* \"contracts/AnswerQuiz.sol\":233:237  true */\n      0x01\n        /* \"contracts/AnswerQuiz.sol\":208:237  quizIsActive[_quizId] == true */\n      iszero\n      iszero\n        /* \"contracts/AnswerQuiz.sol\":208:220  quizIsActive */\n      0x02\n        /* \"contracts/AnswerQuiz.sol\":208:229  quizIsActive[_quizId] */\n      0x00\n        /* \"contracts/AnswerQuiz.sol\":221:228  _quizId */\n      dup5\n        /* \"contracts/AnswerQuiz.sol\":208:229  quizIsActive[_quizId] */\n      dup2\n      mstore\n      0x20\n      add\n      swap1\n      dup2\n      mstore\n      0x20\n      add\n      0x00\n      keccak256\n      0x00\n      swap1\n      sload\n      swap1\n      0x0100\n      exp\n      swap1\n      div\n      0xff\n      and\n        /* \"contracts/AnswerQuiz.sol\":208:237  quizIsActive[_quizId] == true */\n      iszero\n      iszero\n      eq\n        /* \"contracts/AnswerQuiz.sol\":200:238  require(quizIsActive[_quizId] == true) */\n      tag_127\n      jumpi\n      0x00\n      dup1\n      revert\n    tag_127:\n        /* \"contracts/AnswerQuiz.sol\":263:273  quizAnswer */\n      0x03\n        /* \"contracts/AnswerQuiz.sol\":263:282  quizAnswer[_quizId] */\n      0x00\n        /* \"contracts/AnswerQuiz.sol\":274:281  _quizId */\n      dup4\n        /* \"contracts/AnswerQuiz.sol\":263:282  quizAnswer[_quizId] */\n      dup2\n      mstore\n      0x20\n      add\n      swap1\n      dup2\n      mstore\n      0x20\n      add\n      0x00\n      keccak256\n      0x00\n      swap1\n      sload\n      swap1\n      0x0100\n      exp\n      swap1\n      pop\n      pop\n        /* \"contracts/AnswerQuiz.sol\":134:382  function answerQuiz(uint _quizId, uint8 _answer) public {... */\n      pop\n      pop\n      jump\t// out\n        /* \"contracts/ViewQuiz.sol\":880:1112  function quizOwnerGetQuiz(uint _quizId) public onlyQuizOwner(_quizId) returns (Quiz memory, uint8) {... */\n    tag_50:\n        /* \"contracts/ViewQuiz.sol\":959:970  Quiz memory */\n      tag_130\n      tag_81\n      jump\t// in\n    tag_130:\n        /* \"contracts/ViewQuiz.sol\":972:977  uint8 */\n      0x00\n        /* \"contracts/ViewQuiz.sol\":941:948  _quizId */\n      dup3\n        /* \"contracts/CreateQuiz.sol\":674:684  msg.sender */\n      caller\n        /* \"contracts/CreateQuiz.sol\":652:684  quizOwner[_quizId] == msg.sender */\n      0xffffffffffffffffffffffffffffffffffffffff\n      and\n        /* \"contracts/CreateQuiz.sol\":652:661  quizOwner */\n      0x04\n        /* \"contracts/CreateQuiz.sol\":652:670  quizOwner[_quizId] */\n      0x00\n        /* \"contracts/CreateQuiz.sol\":662:669  _quizId */\n      dup4\n        /* \"contracts/CreateQuiz.sol\":652:670  quizOwner[_quizId] */\n      dup2\n      mstore\n      0x20\n      add\n      swap1\n      dup2\n      mstore\n      0x20\n      add\n      0x00\n      keccak256\n      0x00\n      swap1\n      sload\n      swap1\n      0x0100\n      exp\n      swap1\n      div\n      0xffffffffffffffffffffffffffffffffffffffff\n      and\n        /* \"contracts/CreateQuiz.sol\":652:684  quizOwner[_quizId] == msg.sender */\n      0xffffffffffffffffffffffffffffffffffffffff\n      and\n      eq\n        /* \"contracts/CreateQuiz.sol\":644:685  require(quizOwner[_quizId] == msg.sender) */\n      tag_132\n      jumpi\n      0x00\n      dup1\n      revert\n    tag_132:\n        /* \"contracts/ViewQuiz.sol\":994:1049  QuizOwnerGetQuiz(quizzes[_quizId], quizAnswer[_quizId]) */\n      0x1a74486300338ccfc1d22ebc3073195695d7bb84c8326394ea4e38ab4fead21f\n        /* \"contracts/ViewQuiz.sol\":1011:1018  quizzes */\n      0x01\n        /* \"contracts/ViewQuiz.sol\":1019:1026  _quizId */\n      dup6\n        /* \"contracts/ViewQuiz.sol\":1011:1027  quizzes[_quizId] */\n      dup2\n      sload\n      dup2\n      lt\n      tag_134\n      jumpi\n      tag_135\n      tag_91\n      jump\t// in\n    tag_135:\n    tag_134:\n      swap1\n      0x00\n      mstore\n      keccak256(0x00, 0x20)\n      swap1\n      0x09\n      mul\n      add\n        /* \"contracts/ViewQuiz.sol\":1029:1039  quizAnswer */\n      0x03\n        /* \"contracts/ViewQuiz.sol\":1029:1048  quizAnswer[_quizId] */\n      0x00\n        /* \"contracts/ViewQuiz.sol\":1040:1047  _quizId */\n      dup8\n        /* \"contracts/ViewQuiz.sol\":1029:1048  quizAnswer[_quizId] */\n      dup2\n      mstore\n      0x20\n      add\n      swap1\n      dup2\n      mstore\n      0x20\n      add\n      0x00\n      keccak256\n      0x00\n      swap1\n      sload\n      swap1\n      0x0100\n      exp\n      swap1\n      div\n      0xff\n      and\n        /* \"contracts/ViewQuiz.sol\":994:1049  QuizOwnerGetQuiz(quizzes[_quizId], quizAnswer[_quizId]) */\n      mload(0x40)\n      tag_137\n      swap3\n      swap2\n      swap1\n      tag_138\n      jump\t// in\n    tag_137:\n      mload(0x40)\n      dup1\n      swap2\n      sub\n      swap1\n      log1\n        /* \"contracts/ViewQuiz.sol\":1067:1074  quizzes */\n      0x01\n        /* \"contracts/ViewQuiz.sol\":1075:1082  _quizId */\n      dup5\n        /* \"contracts/ViewQuiz.sol\":1067:1083  quizzes[_quizId] */\n      dup2\n      sload\n      dup2\n      lt\n      tag_139\n      jumpi\n      tag_140\n      tag_91\n      jump\t// in\n    tag_140:\n    tag_139:\n      swap1\n      0x00\n      mstore\n      keccak256(0x00, 0x20)\n      swap1\n      0x09\n      mul\n      add\n        /* \"contracts/ViewQuiz.sol\":1085:1095  quizAnswer */\n      0x03\n        /* \"contracts/ViewQuiz.sol\":1085:1104  quizAnswer[_quizId] */\n      0x00\n        /* \"contracts/ViewQuiz.sol\":1096:1103  _quizId */\n      dup7\n        /* \"contracts/ViewQuiz.sol\":1085:1104  quizAnswer[_quizId] */\n      dup2\n      mstore\n      0x20\n      add\n      swap1\n      dup2\n      mstore\n      0x20\n      add\n      0x00\n      keccak256\n      0x00\n      swap1\n      sload\n      swap1\n      0x0100\n      exp\n      swap1\n      div\n      0xff\n      and\n        /* \"contracts/ViewQuiz.sol\":1059:1105  return (quizzes[_quizId], quizAnswer[_quizId]) */\n      dup2\n      mload(0x40)\n      dup1\n      0x0120\n      add\n      0x40\n      mstore\n      swap1\n      dup2\n      0x00\n      dup3\n      add\n      dup1\n      sload\n      tag_142\n      swap1\n      tag_94\n      jump\t// in\n    tag_142:\n      dup1\n      0x1f\n      add\n      0x20\n      dup1\n      swap2\n      div\n      mul\n      0x20\n      add\n      mload(0x40)\n      swap1\n      dup2\n      add\n      0x40\n      mstore\n      dup1\n      swap3\n      swap2\n      swap1\n      dup2\n      dup2\n      mstore\n      0x20\n      add\n      dup3\n      dup1\n      sload\n      tag_143\n      swap1\n      tag_94\n      jump\t// in\n    tag_143:\n      dup1\n      iszero\n      tag_144\n      jumpi\n      dup1\n      0x1f\n      lt\n      tag_145\n      jumpi\n      0x0100\n      dup1\n      dup4\n      sload\n      div\n      mul\n      dup4\n      mstore\n      swap2\n      0x20\n      add\n      swap2\n      jump(tag_144)\n    tag_145:\n      dup3\n      add\n      swap2\n      swap1\n      0x00\n      mstore\n      keccak256(0x00, 0x20)\n      swap1\n    tag_146:\n      dup2\n      sload\n      dup2\n      mstore\n      swap1\n      0x01\n      add\n      swap1\n      0x20\n      add\n      dup1\n      dup4\n      gt\n      tag_146\n      jumpi\n      dup3\n      swap1\n      sub\n      0x1f\n      and\n      dup3\n      add\n      swap2\n    tag_144:\n      pop\n      pop\n      pop\n      pop\n      pop\n      dup2\n      mstore\n      0x20\n      add\n      0x01\n      dup3\n      add\n      dup1\n      sload\n      tag_147\n      swap1\n      tag_94\n      jump\t// in\n    tag_147:\n      dup1\n      0x1f\n      add\n      0x20\n      dup1\n      swap2\n      div\n      mul\n      0x20\n      add\n      mload(0x40)\n      swap1\n      dup2\n      add\n      0x40\n      mstore\n      dup1\n      swap3\n      swap2\n      swap1\n      dup2\n      dup2\n      mstore\n      0x20\n      add\n      dup3\n      dup1\n      sload\n      tag_148\n      swap1\n      tag_94\n      jump\t// in\n    tag_148:\n      dup1\n      iszero\n      tag_149\n      jumpi\n      dup1\n      0x1f\n      lt\n      tag_150\n      jumpi\n      0x0100\n      dup1\n      dup4\n      sload\n      div\n      mul\n      dup4\n      mstore\n      swap2\n      0x20\n      add\n      swap2\n      jump(tag_149)\n    tag_150:\n      dup3\n      add\n      swap2\n      swap1\n      0x00\n      mstore\n      keccak256(0x00, 0x20)\n      swap1\n    tag_151:\n      dup2\n      sload\n      dup2\n      mstore\n      swap1\n      0x01\n      add\n      swap1\n      0x20\n      add\n      dup1\n      dup4\n      gt\n      tag_151\n      jumpi\n      dup3\n      swap1\n      sub\n      0x1f\n      and\n      dup3\n      add\n      swap2\n    tag_149:\n      pop\n      pop\n      pop\n      pop\n      pop\n      dup2\n      mstore\n      0x20\n      add\n      0x02\n      dup3\n      add\n      dup1\n      sload\n      tag_152\n      swap1\n      tag_94\n      jump\t// in\n    tag_152:\n      dup1\n      0x1f\n      add\n      0x20\n      dup1\n      swap2\n      div\n      mul\n      0x20\n      add\n      mload(0x40)\n      swap1\n      dup2\n      add\n      0x40\n      mstore\n      dup1\n      swap3\n      swap2\n      swap1\n      dup2\n      dup2\n      mstore\n      0x20\n      add\n      dup3\n      dup1\n      sload\n      tag_153\n      swap1\n      tag_94\n      jump\t// in\n    tag_153:\n      dup1\n      iszero\n      tag_154\n      jumpi\n      dup1\n      0x1f\n      lt\n      tag_155\n      jumpi\n      0x0100\n      dup1\n      dup4\n      sload\n      div\n      mul\n      dup4\n      mstore\n      swap2\n      0x20\n      add\n      swap2\n      jump(tag_154)\n    tag_155:\n      dup3\n      add\n      swap2\n      swap1\n      0x00\n      mstore\n      keccak256(0x00, 0x20)\n      swap1\n    tag_156:\n      dup2\n      sload\n      dup2\n      mstore\n      swap1\n      0x01\n      add\n      swap1\n      0x20\n      add\n      dup1\n      dup4\n      gt\n      tag_156\n      jumpi\n      dup3\n      swap1\n      sub\n      0x1f\n      and\n      dup3\n      add\n      swap2\n    tag_154:\n      pop\n      pop\n      pop\n      pop\n      pop\n      dup2\n      mstore\n      0x20\n      add\n      0x03\n      dup3\n      add\n      dup1\n      sload\n      tag_157\n      swap1\n      tag_94\n      jump\t// in\n    tag_157:\n      dup1\n      0x1f\n      add\n      0x20\n      dup1\n      swap2\n      div\n      mul\n      0x20\n      add\n      mload(0x40)\n      swap1\n      dup2\n      add\n      0x40\n      mstore\n      dup1\n      swap3\n      swap2\n      swap1\n      dup2\n      dup2\n      mstore\n      0x20\n      add\n      dup3\n      dup1\n      sload\n      tag_158\n      swap1\n      tag_94\n      jump\t// in\n    tag_158:\n      dup1\n      iszero\n      tag_159\n      jumpi\n      dup1\n      0x1f\n      lt\n      tag_160\n      jumpi\n      0x0100\n      dup1\n      dup4\n      sload\n      div\n      mul\n      dup4\n      mstore\n      swap2\n      0x20\n      add\n      swap2\n      jump(tag_159)\n    tag_160:\n      dup3\n      add\n      swap2\n      swap1\n      0x00\n      mstore\n      keccak256(0x00, 0x20)\n      swap1\n    tag_161:\n      dup2\n      sload\n      dup2\n      mstore\n      swap1\n      0x01\n      add\n      swap1\n      0x20\n      add\n      dup1\n      dup4\n      gt\n      tag_161\n      jumpi\n      dup3\n      swap1\n      sub\n      0x1f\n      and\n      dup3\n      add\n      swap2\n    tag_159:\n      pop\n      pop\n      pop\n      pop\n      pop\n      dup2\n      mstore\n      0x20\n      add\n      0x04\n      dup3\n      add\n      dup1\n      sload\n      tag_162\n      swap1\n      tag_94\n      jump\t// in\n    tag_162:\n      dup1\n      0x1f\n      add\n      0x20\n      dup1\n      swap2\n      div\n      mul\n      0x20\n      add\n      mload(0x40)\n      swap1\n      dup2\n      add\n      0x40\n      mstore\n      dup1\n      swap3\n      swap2\n      swap1\n      dup2\n      dup2\n      mstore\n      0x20\n      add\n      dup3\n      dup1\n      sload\n      tag_163\n      swap1\n      tag_94\n      jump\t// in\n    tag_163:\n      dup1\n      iszero\n      tag_164\n      jumpi\n      dup1\n      0x1f\n      lt\n      tag_165\n      jumpi\n      0x0100\n      dup1\n      dup4\n      sload\n      div\n      mul\n      dup4\n      mstore\n      swap2\n      0x20\n      add\n      swap2\n      jump(tag_164)\n    tag_165:\n      dup3\n      add\n      swap2\n      swap1\n      0x00\n      mstore\n      keccak256(0x00, 0x20)\n      swap1\n    tag_166:\n      dup2\n      sload\n      dup2\n      mstore\n      swap1\n      0x01\n      add\n      swap1\n      0x20\n      add\n      dup1\n      dup4\n      gt\n      tag_166\n      jumpi\n      dup3\n      swap1\n      sub\n      0x1f\n      and\n      dup3\n      add\n      swap2\n    tag_164:\n      pop\n      pop\n      pop\n      pop\n      pop\n      dup2\n      mstore\n      0x20\n      add\n      0x05\n      dup3\n      add\n      dup1\n      sload\n      tag_167\n      swap1\n      tag_94\n      jump\t// in\n    tag_167:\n      dup1\n      0x1f\n      add\n      0x20\n      dup1\n      swap2\n      div\n      mul\n      0x20\n      add\n      mload(0x40)\n      swap1\n      dup2\n      add\n      0x40\n      mstore\n      dup1\n      swap3\n      swap2\n      swap1\n      dup2\n      dup2\n      mstore\n      0x20\n      add\n      dup3\n      dup1\n      sload\n      tag_168\n      swap1\n      tag_94\n      jump\t// in\n    tag_168:\n      dup1\n      iszero\n      tag_169\n      jumpi\n      dup1\n      0x1f\n      lt\n      tag_170\n      jumpi\n      0x0100\n      dup1\n      dup4\n      sload\n      div\n      mul\n      dup4\n      mstore\n      swap2\n      0x20\n      add\n      swap2\n      jump(tag_169)\n    tag_170:\n      dup3\n      add\n      swap2\n      swap1\n      0x00\n      mstore\n      keccak256(0x00, 0x20)\n      swap1\n    tag_171:\n      dup2\n      sload\n      dup2\n      mstore\n      swap1\n      0x01\n      add\n      swap1\n      0x20\n      add\n      dup1\n      dup4\n      gt\n      tag_171\n      jumpi\n      dup3\n      swap1\n      sub\n      0x1f\n      and\n      dup3\n      add\n      swap2\n    tag_169:\n      pop\n      pop\n      pop\n      pop\n      pop\n      dup2\n      mstore\n      0x20\n      add\n      0x06\n      dup3\n      add\n      0x00\n      swap1\n      sload\n      swap1\n      0x0100\n      exp\n      swap1\n      div\n      0xff\n      and\n      0xff\n      and\n      0xff\n      and\n      dup2\n      mstore\n      0x20\n      add\n      0x07\n      dup3\n      add\n      sload\n      dup2\n      mstore\n      0x20\n      add\n      0x08\n      dup3\n      add\n      sload\n      dup2\n      mstore\n      pop\n      pop\n      swap2\n      pop\n      swap3\n      pop\n      swap3\n      pop\n        /* \"contracts/ViewQuiz.sol\":880:1112  function quizOwnerGetQuiz(uint _quizId) public onlyQuizOwner(_quizId) returns (Quiz memory, uint8) {... */\n      pop\n      swap2\n      pop\n      swap2\n      jump\t// out\n        /* \"contracts/Ownable.sol\":1911:2109  function transferOwnership(address newOwner) public virtual onlyOwner {... */\n    tag_56:\n        /* \"contracts/Ownable.sol\":1252:1264  _msgSender() */\n      tag_173\n        /* \"contracts/Ownable.sol\":1252:1262  _msgSender */\n      tag_63\n        /* \"contracts/Ownable.sol\":1252:1264  _msgSender() */\n      jump\t// in\n    tag_173:\n        /* \"contracts/Ownable.sol\":1241:1264  owner() == _msgSender() */\n      0xffffffffffffffffffffffffffffffffffffffff\n      and\n        /* \"contracts/Ownable.sol\":1241:1248  owner() */\n      tag_174\n        /* \"contracts/Ownable.sol\":1241:1246  owner */\n      tag_42\n        /* \"contracts/Ownable.sol\":1241:1248  owner() */\n      jump\t// in\n    tag_174:\n        /* \"contracts/Ownable.sol\":1241:1264  owner() == _msgSender() */\n      0xffffffffffffffffffffffffffffffffffffffff\n      and\n      eq\n        /* \"contracts/Ownable.sol\":1233:1301  require(owner() == _msgSender(), \"Ownable: caller is not the owner\") */\n      tag_175\n      jumpi\n      mload(0x40)\n      0x08c379a000000000000000000000000000000000000000000000000000000000\n      dup2\n      mstore\n      0x04\n      add\n      tag_176\n      swap1\n      tag_67\n      jump\t// in\n    tag_176:\n      mload(0x40)\n      dup1\n      swap2\n      sub\n      swap1\n      revert\n    tag_175:\n        /* \"contracts/Ownable.sol\":2019:2020  0 */\n      0x00\n        /* \"contracts/Ownable.sol\":1999:2021  newOwner != address(0) */\n      0xffffffffffffffffffffffffffffffffffffffff\n      and\n        /* \"contracts/Ownable.sol\":1999:2007  newOwner */\n      dup2\n        /* \"contracts/Ownable.sol\":1999:2021  newOwner != address(0) */\n      0xffffffffffffffffffffffffffffffffffffffff\n      and\n      sub\n        /* \"contracts/Ownable.sol\":1991:2064  require(newOwner != address(0), \"Ownable: new owner is the zero address\") */\n      tag_178\n      jumpi\n      mload(0x40)\n      0x08c379a000000000000000000000000000000000000000000000000000000000\n      dup2\n      mstore\n      0x04\n      add\n      tag_179\n      swap1\n      tag_180\n      jump\t// in\n    tag_179:\n      mload(0x40)\n      dup1\n      swap2\n      sub\n      swap1\n      revert\n    tag_178:\n        /* \"contracts/Ownable.sol\":2074:2102  _transferOwnership(newOwner) */\n      tag_181\n        /* \"contracts/Ownable.sol\":2093:2101  newOwner */\n      dup2\n        /* \"contracts/Ownable.sol\":2074:2092  _transferOwnership */\n      tag_79\n        /* \"contracts/Ownable.sol\":2074:2102  _transferOwnership(newOwner) */\n      jump\t// in\n    tag_181:\n        /* \"contracts/Ownable.sol\":1911:2109  function transferOwnership(address newOwner) public virtual onlyOwner {... */\n      pop\n      jump\t// out\n        /* \"contracts/CreateQuiz.sol\":1732:1872  function quizOwnerChangeHint(uint _quizId, string memory _hint) public onlyQuizOwner(_quizId) {... */\n    tag_60:\n        /* \"contracts/CreateQuiz.sol\":1817:1824  _quizId */\n      dup2\n        /* \"contracts/CreateQuiz.sol\":674:684  msg.sender */\n      caller\n        /* \"contracts/CreateQuiz.sol\":652:684  quizOwner[_quizId] == msg.sender */\n      0xffffffffffffffffffffffffffffffffffffffff\n      and\n        /* \"contracts/CreateQuiz.sol\":652:661  quizOwner */\n      0x04\n        /* \"contracts/CreateQuiz.sol\":652:670  quizOwner[_quizId] */\n      0x00\n        /* \"contracts/CreateQuiz.sol\":662:669  _quizId */\n      dup4\n        /* \"contracts/CreateQuiz.sol\":652:670  quizOwner[_quizId] */\n      dup2\n      mstore\n      0x20\n      add\n      swap1\n      dup2\n      mstore\n      0x20\n      add\n      0x00\n      keccak256\n      0x00\n      swap1\n      sload\n      swap1\n      0x0100\n      exp\n      swap1\n      div\n      0xffffffffffffffffffffffffffffffffffffffff\n      and\n        /* \"contracts/CreateQuiz.sol\":652:684  quizOwner[_quizId] == msg.sender */\n      0xffffffffffffffffffffffffffffffffffffffff\n      and\n      eq\n        /* \"contracts/CreateQuiz.sol\":644:685  require(quizOwner[_quizId] == msg.sender) */\n      tag_183\n      jumpi\n      0x00\n      dup1\n      revert\n    tag_183:\n        /* \"contracts/CreateQuiz.sol\":1860:1865  _hint */\n      dup2\n        /* \"contracts/CreateQuiz.sol\":1836:1843  quizzes */\n      0x01\n        /* \"contracts/CreateQuiz.sol\":1844:1851  _quizId */\n      dup5\n        /* \"contracts/CreateQuiz.sol\":1836:1852  quizzes[_quizId] */\n      dup2\n      sload\n      dup2\n      lt\n      tag_185\n      jumpi\n      tag_186\n      tag_91\n      jump\t// in\n    tag_186:\n    tag_185:\n      swap1\n      0x00\n      mstore\n      keccak256(0x00, 0x20)\n      swap1\n      0x09\n      mul\n      add\n        /* \"contracts/CreateQuiz.sol\":1836:1857  quizzes[_quizId].hint */\n      0x05\n      add\n        /* \"contracts/CreateQuiz.sol\":1836:1865  quizzes[_quizId].hint = _hint */\n      swap1\n      dup1\n      mload\n      swap1\n      0x20\n      add\n      swap1\n      tag_188\n      swap3\n      swap2\n      swap1\n      tag_189\n      jump\t// in\n    tag_188:\n      pop\n        /* \"contracts/CreateQuiz.sol\":1732:1872  function quizOwnerChangeHint(uint _quizId, string memory _hint) public onlyQuizOwner(_quizId) {... */\n      pop\n      pop\n      pop\n      jump\t// out\n        /* \"contracts/Context.sol\":640:736  function _msgSender() internal view virtual returns (address) {... */\n    tag_63:\n        /* \"contracts/Context.sol\":693:700  address */\n      0x00\n        /* \"contracts/Context.sol\":719:729  msg.sender */\n      caller\n        /* \"contracts/Context.sol\":712:729  return msg.sender */\n      swap1\n      pop\n        /* \"contracts/Context.sol\":640:736  function _msgSender() internal view virtual returns (address) {... */\n      swap1\n      jump\t// out\n        /* \"contracts/Ownable.sol\":2263:2450  function _transferOwnership(address newOwner) internal virtual {... */\n    tag_79:\n        /* \"contracts/Ownable.sol\":2336:2352  address oldOwner */\n      0x00\n        /* \"contracts/Ownable.sol\":2355:2361  _owner */\n      dup1\n      0x00\n      swap1\n      sload\n      swap1\n      0x0100\n      exp\n      swap1\n      div\n      0xffffffffffffffffffffffffffffffffffffffff\n      and\n        /* \"contracts/Ownable.sol\":2336:2361  address oldOwner = _owner */\n      swap1\n      pop\n        /* \"contracts/Ownable.sol\":2380:2388  newOwner */\n      dup2\n        /* \"contracts/Ownable.sol\":2371:2377  _owner */\n      0x00\n      dup1\n        /* \"contracts/Ownable.sol\":2371:2388  _owner = newOwner */\n      0x0100\n      exp\n      dup2\n      sload\n      dup2\n      0xffffffffffffffffffffffffffffffffffffffff\n      mul\n      not\n      and\n      swap1\n      dup4\n      0xffffffffffffffffffffffffffffffffffffffff\n      and\n      mul\n      or\n      swap1\n      sstore\n      pop\n        /* \"contracts/Ownable.sol\":2434:2442  newOwner */\n      dup2\n        /* \"contracts/Ownable.sol\":2403:2443  OwnershipTransferred(oldOwner, newOwner) */\n      0xffffffffffffffffffffffffffffffffffffffff\n      and\n        /* \"contracts/Ownable.sol\":2424:2432  oldOwner */\n      dup2\n        /* \"contracts/Ownable.sol\":2403:2443  OwnershipTransferred(oldOwner, newOwner) */\n      0xffffffffffffffffffffffffffffffffffffffff\n      and\n      0x8be0079c531659141344cd1fd0a4f28419497f9722a3daafe3b4186f6b6457e0\n      mload(0x40)\n      mload(0x40)\n      dup1\n      swap2\n      sub\n      swap1\n      log3\n        /* \"contracts/Ownable.sol\":2326:2450  {... */\n      pop\n        /* \"contracts/Ownable.sol\":2263:2450  function _transferOwnership(address newOwner) internal virtual {... */\n      pop\n      jump\t// out\n    tag_81:\n      mload(0x40)\n      dup1\n      0x0120\n      add\n      0x40\n      mstore\n      dup1\n      0x60\n      dup2\n      mstore\n      0x20\n      add\n      0x60\n      dup2\n      mstore\n      0x20\n      add\n      0x60\n      dup2\n      mstore\n      0x20\n      add\n      0x60\n      dup2\n      mstore\n      0x20\n      add\n      0x60\n      dup2\n      mstore\n      0x20\n      add\n      0x60\n      dup2\n      mstore\n      0x20\n      add\n      and(0xff, 0x00)\n      dup2\n      mstore\n      0x20\n      add\n      0x00\n      dup2\n      mstore\n      0x20\n      add\n      0x00\n      dup2\n      mstore\n      pop\n      swap1\n      jump\t// out\n    tag_189:\n      dup3\n      dup1\n      sload\n      tag_192\n      swap1\n      tag_94\n      jump\t// in\n    tag_192:\n      swap1\n      0x00\n      mstore\n      keccak256(0x00, 0x20)\n      swap1\n      0x1f\n      add\n      0x20\n      swap1\n      div\n      dup2\n      add\n      swap3\n      dup3\n      tag_194\n      jumpi\n      0x00\n      dup6\n      sstore\n      jump(tag_193)\n    tag_194:\n      dup3\n      0x1f\n      lt\n      tag_195\n      jumpi\n      dup1\n      mload\n      not(0xff)\n      and\n      dup4\n      dup1\n      add\n      or\n      dup6\n      sstore\n      jump(tag_193)\n    tag_195:\n      dup3\n      dup1\n      add\n      0x01\n      add\n      dup6\n      sstore\n      dup3\n      iszero\n      tag_193\n      jumpi\n      swap2\n      dup3\n      add\n    tag_196:\n      dup3\n      dup2\n      gt\n      iszero\n      tag_197\n      jumpi\n      dup3\n      mload\n      dup3\n      sstore\n      swap2\n      0x20\n      add\n      swap2\n      swap1\n      0x01\n      add\n      swap1\n      jump(tag_196)\n    tag_197:\n    tag_193:\n      pop\n      swap1\n      pop\n      tag_198\n      swap2\n      swap1\n      tag_199\n      jump\t// in\n    tag_198:\n      pop\n      swap1\n      jump\t// out\n    tag_199:\n    tag_200:\n      dup1\n      dup3\n      gt\n      iszero\n      tag_201\n      jumpi\n      0x00\n      dup2\n      0x00\n      swap1\n      sstore\n      pop\n      0x01\n      add\n      jump(tag_200)\n    tag_201:\n      pop\n      swap1\n      jump\t// out\n        /* \"#utility.yul\":7:82   */\n    tag_202:\n        /* \"#utility.yul\":40:46   */\n      0x00\n        /* \"#utility.yul\":73:75   */\n      0x40\n        /* \"#utility.yul\":67:76   */\n      mload\n        /* \"#utility.yul\":57:76   */\n      swap1\n      pop\n        /* \"#utility.yul\":7:82   */\n      swap1\n      jump\t// out\n        /* \"#utility.yul\":88:205   */\n    tag_203:\n        /* \"#utility.yul\":197:198   */\n      0x00\n        /* \"#utility.yul\":194:195   */\n      dup1\n        /* \"#utility.yul\":187:199   */\n      revert\n        /* \"#utility.yul\":211:328   */\n    tag_204:\n        /* \"#utility.yul\":320:321   */\n      0x00\n        /* \"#utility.yul\":317:318   */\n      dup1\n        /* \"#utility.yul\":310:322   */\n      revert\n        /* \"#utility.yul\":334:411   */\n    tag_205:\n        /* \"#utility.yul\":371:378   */\n      0x00\n        /* \"#utility.yul\":400:405   */\n      dup2\n        /* \"#utility.yul\":389:405   */\n      swap1\n      pop\n        /* \"#utility.yul\":334:411   */\n      swap2\n      swap1\n      pop\n      jump\t// out\n        /* \"#utility.yul\":417:539   */\n    tag_206:\n        /* \"#utility.yul\":490:514   */\n      tag_265\n        /* \"#utility.yul\":508:513   */\n      dup2\n        /* \"#utility.yul\":490:514   */\n      tag_205\n      jump\t// in\n    tag_265:\n        /* \"#utility.yul\":483:488   */\n      dup2\n        /* \"#utility.yul\":480:515   */\n      eq\n        /* \"#utility.yul\":470:533   */\n      tag_266\n      jumpi\n        /* \"#utility.yul\":529:530   */\n      0x00\n        /* \"#utility.yul\":526:527   */\n      dup1\n        /* \"#utility.yul\":519:531   */\n      revert\n        /* \"#utility.yul\":470:533   */\n    tag_266:\n        /* \"#utility.yul\":417:539   */\n      pop\n      jump\t// out\n        /* \"#utility.yul\":545:684   */\n    tag_207:\n        /* \"#utility.yul\":591:596   */\n      0x00\n        /* \"#utility.yul\":629:635   */\n      dup2\n        /* \"#utility.yul\":616:636   */\n      calldataload\n        /* \"#utility.yul\":607:636   */\n      swap1\n      pop\n        /* \"#utility.yul\":645:678   */\n      tag_268\n        /* \"#utility.yul\":672:677   */\n      dup2\n        /* \"#utility.yul\":645:678   */\n      tag_206\n      jump\t// in\n    tag_268:\n        /* \"#utility.yul\":545:684   */\n      swap3\n      swap2\n      pop\n      pop\n      jump\t// out\n        /* \"#utility.yul\":690:780   */\n    tag_208:\n        /* \"#utility.yul\":724:731   */\n      0x00\n        /* \"#utility.yul\":767:772   */\n      dup2\n        /* \"#utility.yul\":760:773   */\n      iszero\n        /* \"#utility.yul\":753:774   */\n      iszero\n        /* \"#utility.yul\":742:774   */\n      swap1\n      pop\n        /* \"#utility.yul\":690:780   */\n      swap2\n      swap1\n      pop\n      jump\t// out\n        /* \"#utility.yul\":786:902   */\n    tag_209:\n        /* \"#utility.yul\":856:877   */\n      tag_271\n        /* \"#utility.yul\":871:876   */\n      dup2\n        /* \"#utility.yul\":856:877   */\n      tag_208\n      jump\t// in\n    tag_271:\n        /* \"#utility.yul\":849:854   */\n      dup2\n        /* \"#utility.yul\":846:878   */\n      eq\n        /* \"#utility.yul\":836:896   */\n      tag_272\n      jumpi\n        /* \"#utility.yul\":892:893   */\n      0x00\n        /* \"#utility.yul\":889:890   */\n      dup1\n        /* \"#utility.yul\":882:894   */\n      revert\n        /* \"#utility.yul\":836:896   */\n    tag_272:\n        /* \"#utility.yul\":786:902   */\n      pop\n      jump\t// out\n        /* \"#utility.yul\":908:1041   */\n    tag_210:\n        /* \"#utility.yul\":951:956   */\n      0x00\n        /* \"#utility.yul\":989:995   */\n      dup2\n        /* \"#utility.yul\":976:996   */\n      calldataload\n        /* \"#utility.yul\":967:996   */\n      swap1\n      pop\n        /* \"#utility.yul\":1005:1035   */\n      tag_274\n        /* \"#utility.yul\":1029:1034   */\n      dup2\n        /* \"#utility.yul\":1005:1035   */\n      tag_209\n      jump\t// in\n    tag_274:\n        /* \"#utility.yul\":908:1041   */\n      swap3\n      swap2\n      pop\n      pop\n      jump\t// out\n        /* \"#utility.yul\":1047:1515   */\n    tag_17:\n        /* \"#utility.yul\":1112:1118   */\n      0x00\n        /* \"#utility.yul\":1120:1126   */\n      dup1\n        /* \"#utility.yul\":1169:1171   */\n      0x40\n        /* \"#utility.yul\":1157:1166   */\n      dup4\n        /* \"#utility.yul\":1148:1155   */\n      dup6\n        /* \"#utility.yul\":1144:1167   */\n      sub\n        /* \"#utility.yul\":1140:1172   */\n      slt\n        /* \"#utility.yul\":1137:1256   */\n      iszero\n      tag_276\n      jumpi\n        /* \"#utility.yul\":1175:1254   */\n      tag_277\n      tag_203\n      jump\t// in\n    tag_277:\n        /* \"#utility.yul\":1137:1256   */\n    tag_276:\n        /* \"#utility.yul\":1295:1296   */\n      0x00\n        /* \"#utility.yul\":1320:1373   */\n      tag_278\n        /* \"#utility.yul\":1365:1372   */\n      dup6\n        /* \"#utility.yul\":1356:1362   */\n      dup3\n        /* \"#utility.yul\":1345:1354   */\n      dup7\n        /* \"#utility.yul\":1341:1363   */\n      add\n        /* \"#utility.yul\":1320:1373   */\n      tag_207\n      jump\t// in\n    tag_278:\n        /* \"#utility.yul\":1310:1373   */\n      swap3\n      pop\n        /* \"#utility.yul\":1266:1383   */\n      pop\n        /* \"#utility.yul\":1422:1424   */\n      0x20\n        /* \"#utility.yul\":1448:1498   */\n      tag_279\n        /* \"#utility.yul\":1490:1497   */\n      dup6\n        /* \"#utility.yul\":1481:1487   */\n      dup3\n        /* \"#utility.yul\":1470:1479   */\n      dup7\n        /* \"#utility.yul\":1466:1488   */\n      add\n        /* \"#utility.yul\":1448:1498   */\n      tag_210\n      jump\t// in\n    tag_279:\n        /* \"#utility.yul\":1438:1498   */\n      swap2\n      pop\n        /* \"#utility.yul\":1393:1508   */\n      pop\n        /* \"#utility.yul\":1047:1515   */\n      swap3\n      pop\n      swap3\n      swap1\n      pop\n      jump\t// out\n        /* \"#utility.yul\":1521:1850   */\n    tag_24:\n        /* \"#utility.yul\":1580:1586   */\n      0x00\n        /* \"#utility.yul\":1629:1631   */\n      0x20\n        /* \"#utility.yul\":1617:1626   */\n      dup3\n        /* \"#utility.yul\":1608:1615   */\n      dup5\n        /* \"#utility.yul\":1604:1627   */\n      sub\n        /* \"#utility.yul\":1600:1632   */\n      slt\n        /* \"#utility.yul\":1597:1716   */\n      iszero\n      tag_281\n      jumpi\n        /* \"#utility.yul\":1635:1714   */\n      tag_282\n      tag_203\n      jump\t// in\n    tag_282:\n        /* \"#utility.yul\":1597:1716   */\n    tag_281:\n        /* \"#utility.yul\":1755:1756   */\n      0x00\n        /* \"#utility.yul\":1780:1833   */\n      tag_283\n        /* \"#utility.yul\":1825:1832   */\n      dup5\n        /* \"#utility.yul\":1816:1822   */\n      dup3\n        /* \"#utility.yul\":1805:1814   */\n      dup6\n        /* \"#utility.yul\":1801:1823   */\n      add\n        /* \"#utility.yul\":1780:1833   */\n      tag_207\n      jump\t// in\n    tag_283:\n        /* \"#utility.yul\":1770:1833   */\n      swap2\n      pop\n        /* \"#utility.yul\":1726:1843   */\n      pop\n        /* \"#utility.yul\":1521:1850   */\n      swap3\n      swap2\n      pop\n      pop\n      jump\t// out\n        /* \"#utility.yul\":1856:1982   */\n    tag_211:\n        /* \"#utility.yul\":1893:1900   */\n      0x00\n        /* \"#utility.yul\":1933:1975   */\n      0xffffffffffffffffffffffffffffffffffffffff\n        /* \"#utility.yul\":1926:1931   */\n      dup3\n        /* \"#utility.yul\":1922:1976   */\n      and\n        /* \"#utility.yul\":1911:1976   */\n      swap1\n      pop\n        /* \"#utility.yul\":1856:1982   */\n      swap2\n      swap1\n      pop\n      jump\t// out\n        /* \"#utility.yul\":1988:2084   */\n    tag_212:\n        /* \"#utility.yul\":2025:2032   */\n      0x00\n        /* \"#utility.yul\":2054:2078   */\n      tag_286\n        /* \"#utility.yul\":2072:2077   */\n      dup3\n        /* \"#utility.yul\":2054:2078   */\n      tag_211\n      jump\t// in\n    tag_286:\n        /* \"#utility.yul\":2043:2078   */\n      swap1\n      pop\n        /* \"#utility.yul\":1988:2084   */\n      swap2\n      swap1\n      pop\n      jump\t// out\n        /* \"#utility.yul\":2090:2208   */\n    tag_213:\n        /* \"#utility.yul\":2177:2201   */\n      tag_288\n        /* \"#utility.yul\":2195:2200   */\n      dup2\n        /* \"#utility.yul\":2177:2201   */\n      tag_212\n      jump\t// in\n    tag_288:\n        /* \"#utility.yul\":2172:2175   */\n      dup3\n        /* \"#utility.yul\":2165:2202   */\n      mstore\n        /* \"#utility.yul\":2090:2208   */\n      pop\n      pop\n      jump\t// out\n        /* \"#utility.yul\":2214:2436   */\n    tag_27:\n        /* \"#utility.yul\":2307:2311   */\n      0x00\n        /* \"#utility.yul\":2345:2347   */\n      0x20\n        /* \"#utility.yul\":2334:2343   */\n      dup3\n        /* \"#utility.yul\":2330:2348   */\n      add\n        /* \"#utility.yul\":2322:2348   */\n      swap1\n      pop\n        /* \"#utility.yul\":2358:2429   */\n      tag_290\n        /* \"#utility.yul\":2426:2427   */\n      0x00\n        /* \"#utility.yul\":2415:2424   */\n      dup4\n        /* \"#utility.yul\":2411:2428   */\n      add\n        /* \"#utility.yul\":2402:2408   */\n      dup5\n        /* \"#utility.yul\":2358:2429   */\n      tag_213\n      jump\t// in\n    tag_290:\n        /* \"#utility.yul\":2214:2436   */\n      swap3\n      swap2\n      pop\n      pop\n      jump\t// out\n        /* \"#utility.yul\":2442:2551   */\n    tag_214:\n        /* \"#utility.yul\":2523:2544   */\n      tag_292\n        /* \"#utility.yul\":2538:2543   */\n      dup2\n        /* \"#utility.yul\":2523:2544   */\n      tag_208\n      jump\t// in\n    tag_292:\n        /* \"#utility.yul\":2518:2521   */\n      dup3\n        /* \"#utility.yul\":2511:2545   */\n      mstore\n        /* \"#utility.yul\":2442:2551   */\n      pop\n      pop\n      jump\t// out\n        /* \"#utility.yul\":2557:2767   */\n    tag_32:\n        /* \"#utility.yul\":2644:2648   */\n      0x00\n        /* \"#utility.yul\":2682:2684   */\n      0x20\n        /* \"#utility.yul\":2671:2680   */\n      dup3\n        /* \"#utility.yul\":2667:2685   */\n      add\n        /* \"#utility.yul\":2659:2685   */\n      swap1\n      pop\n        /* \"#utility.yul\":2695:2760   */\n      tag_294\n        /* \"#utility.yul\":2757:2758   */\n      0x00\n        /* \"#utility.yul\":2746:2755   */\n      dup4\n        /* \"#utility.yul\":2742:2759   */\n      add\n        /* \"#utility.yul\":2733:2739   */\n      dup5\n        /* \"#utility.yul\":2695:2760   */\n      tag_214\n      jump\t// in\n    tag_294:\n        /* \"#utility.yul\":2557:2767   */\n      swap3\n      swap2\n      pop\n      pop\n      jump\t// out\n        /* \"#utility.yul\":2773:2890   */\n    tag_215:\n        /* \"#utility.yul\":2882:2883   */\n      0x00\n        /* \"#utility.yul\":2879:2880   */\n      dup1\n        /* \"#utility.yul\":2872:2884   */\n      revert\n        /* \"#utility.yul\":2896:3013   */\n    tag_216:\n        /* \"#utility.yul\":3005:3006   */\n      0x00\n        /* \"#utility.yul\":3002:3003   */\n      dup1\n        /* \"#utility.yul\":2995:3007   */\n      revert\n        /* \"#utility.yul\":3019:3121   */\n    tag_217:\n        /* \"#utility.yul\":3060:3066   */\n      0x00\n        /* \"#utility.yul\":3111:3113   */\n      0x1f\n        /* \"#utility.yul\":3107:3114   */\n      not\n        /* \"#utility.yul\":3102:3104   */\n      0x1f\n        /* \"#utility.yul\":3095:3100   */\n      dup4\n        /* \"#utility.yul\":3091:3105   */\n      add\n        /* \"#utility.yul\":3087:3115   */\n      and\n        /* \"#utility.yul\":3077:3115   */\n      swap1\n      pop\n        /* \"#utility.yul\":3019:3121   */\n      swap2\n      swap1\n      pop\n      jump\t// out\n        /* \"#utility.yul\":3127:3307   */\n    tag_218:\n        /* \"#utility.yul\":3175:3252   */\n      0x4e487b7100000000000000000000000000000000000000000000000000000000\n        /* \"#utility.yul\":3172:3173   */\n      0x00\n        /* \"#utility.yul\":3165:3253   */\n      mstore\n        /* \"#utility.yul\":3272:3276   */\n      0x41\n        /* \"#utility.yul\":3269:3270   */\n      0x04\n        /* \"#utility.yul\":3262:3277   */\n      mstore\n        /* \"#utility.yul\":3296:3300   */\n      0x24\n        /* \"#utility.yul\":3293:3294   */\n      0x00\n        /* \"#utility.yul\":3286:3301   */\n      revert\n        /* \"#utility.yul\":3313:3594   */\n    tag_219:\n        /* \"#utility.yul\":3396:3423   */\n      tag_300\n        /* \"#utility.yul\":3418:3422   */\n      dup3\n        /* \"#utility.yul\":3396:3423   */\n      tag_217\n      jump\t// in\n    tag_300:\n        /* \"#utility.yul\":3388:3394   */\n      dup2\n        /* \"#utility.yul\":3384:3424   */\n      add\n        /* \"#utility.yul\":3526:3532   */\n      dup2\n        /* \"#utility.yul\":3514:3524   */\n      dup2\n        /* \"#utility.yul\":3511:3533   */\n      lt\n        /* \"#utility.yul\":3490:3508   */\n      0xffffffffffffffff\n        /* \"#utility.yul\":3478:3488   */\n      dup3\n        /* \"#utility.yul\":3475:3509   */\n      gt\n        /* \"#utility.yul\":3472:3534   */\n      or\n        /* \"#utility.yul\":3469:3557   */\n      iszero\n      tag_301\n      jumpi\n        /* \"#utility.yul\":3537:3555   */\n      tag_302\n      tag_218\n      jump\t// in\n    tag_302:\n        /* \"#utility.yul\":3469:3557   */\n    tag_301:\n        /* \"#utility.yul\":3577:3587   */\n      dup1\n        /* \"#utility.yul\":3573:3575   */\n      0x40\n        /* \"#utility.yul\":3566:3588   */\n      mstore\n        /* \"#utility.yul\":3356:3594   */\n      pop\n        /* \"#utility.yul\":3313:3594   */\n      pop\n      pop\n      jump\t// out\n        /* \"#utility.yul\":3600:3729   */\n    tag_220:\n        /* \"#utility.yul\":3634:3640   */\n      0x00\n        /* \"#utility.yul\":3661:3681   */\n      tag_304\n      tag_202\n      jump\t// in\n    tag_304:\n        /* \"#utility.yul\":3651:3681   */\n      swap1\n      pop\n        /* \"#utility.yul\":3690:3723   */\n      tag_305\n        /* \"#utility.yul\":3718:3722   */\n      dup3\n        /* \"#utility.yul\":3710:3716   */\n      dup3\n        /* \"#utility.yul\":3690:3723   */\n      tag_219\n      jump\t// in\n    tag_305:\n        /* \"#utility.yul\":3600:3729   */\n      swap2\n      swap1\n      pop\n      jump\t// out\n        /* \"#utility.yul\":3735:4043   */\n    tag_221:\n        /* \"#utility.yul\":3797:3801   */\n      0x00\n        /* \"#utility.yul\":3887:3905   */\n      0xffffffffffffffff\n        /* \"#utility.yul\":3879:3885   */\n      dup3\n        /* \"#utility.yul\":3876:3906   */\n      gt\n        /* \"#utility.yul\":3873:3929   */\n      iszero\n      tag_307\n      jumpi\n        /* \"#utility.yul\":3909:3927   */\n      tag_308\n      tag_218\n      jump\t// in\n    tag_308:\n        /* \"#utility.yul\":3873:3929   */\n    tag_307:\n        /* \"#utility.yul\":3947:3976   */\n      tag_309\n        /* \"#utility.yul\":3969:3975   */\n      dup3\n        /* \"#utility.yul\":3947:3976   */\n      tag_217\n      jump\t// in\n    tag_309:\n        /* \"#utility.yul\":3939:3976   */\n      swap1\n      pop\n        /* \"#utility.yul\":4031:4035   */\n      0x20\n        /* \"#utility.yul\":4025:4029   */\n      dup2\n        /* \"#utility.yul\":4021:4036   */\n      add\n        /* \"#utility.yul\":4013:4036   */\n      swap1\n      pop\n        /* \"#utility.yul\":3735:4043   */\n      swap2\n      swap1\n      pop\n      jump\t// out\n        /* \"#utility.yul\":4049:4203   */\n    tag_222:\n        /* \"#utility.yul\":4133:4139   */\n      dup3\n        /* \"#utility.yul\":4128:4131   */\n      dup2\n        /* \"#utility.yul\":4123:4126   */\n      dup4\n        /* \"#utility.yul\":4110:4140   */\n      calldatacopy\n        /* \"#utility.yul\":4195:4196   */\n      0x00\n        /* \"#utility.yul\":4186:4192   */\n      dup4\n        /* \"#utility.yul\":4181:4184   */\n      dup4\n        /* \"#utility.yul\":4177:4193   */\n      add\n        /* \"#utility.yul\":4170:4197   */\n      mstore\n        /* \"#utility.yul\":4049:4203   */\n      pop\n      pop\n      pop\n      jump\t// out\n        /* \"#utility.yul\":4209:4621   */\n    tag_223:\n        /* \"#utility.yul\":4287:4292   */\n      0x00\n        /* \"#utility.yul\":4312:4378   */\n      tag_312\n        /* \"#utility.yul\":4328:4377   */\n      tag_313\n        /* \"#utility.yul\":4370:4376   */\n      dup5\n        /* \"#utility.yul\":4328:4377   */\n      tag_221\n      jump\t// in\n    tag_313:\n        /* \"#utility.yul\":4312:4378   */\n      tag_220\n      jump\t// in\n    tag_312:\n        /* \"#utility.yul\":4303:4378   */\n      swap1\n      pop\n        /* \"#utility.yul\":4401:4407   */\n      dup3\n        /* \"#utility.yul\":4394:4399   */\n      dup2\n        /* \"#utility.yul\":4387:4408   */\n      mstore\n        /* \"#utility.yul\":4439:4443   */\n      0x20\n        /* \"#utility.yul\":4432:4437   */\n      dup2\n        /* \"#utility.yul\":4428:4444   */\n      add\n        /* \"#utility.yul\":4477:4480   */\n      dup5\n        /* \"#utility.yul\":4468:4474   */\n      dup5\n        /* \"#utility.yul\":4463:4466   */\n      dup5\n        /* \"#utility.yul\":4459:4475   */\n      add\n        /* \"#utility.yul\":4456:4481   */\n      gt\n        /* \"#utility.yul\":4453:4565   */\n      iszero\n      tag_314\n      jumpi\n        /* \"#utility.yul\":4484:4563   */\n      tag_315\n      tag_216\n      jump\t// in\n    tag_315:\n        /* \"#utility.yul\":4453:4565   */\n    tag_314:\n        /* \"#utility.yul\":4574:4615   */\n      tag_316\n        /* \"#utility.yul\":4608:4614   */\n      dup5\n        /* \"#utility.yul\":4603:4606   */\n      dup3\n        /* \"#utility.yul\":4598:4601   */\n      dup6\n        /* \"#utility.yul\":4574:4615   */\n      tag_222\n      jump\t// in\n    tag_316:\n        /* \"#utility.yul\":4293:4621   */\n      pop\n        /* \"#utility.yul\":4209:4621   */\n      swap4\n      swap3\n      pop\n      pop\n      pop\n      jump\t// out\n        /* \"#utility.yul\":4641:4981   */\n    tag_224:\n        /* \"#utility.yul\":4697:4702   */\n      0x00\n        /* \"#utility.yul\":4746:4749   */\n      dup3\n        /* \"#utility.yul\":4739:4743   */\n      0x1f\n        /* \"#utility.yul\":4731:4737   */\n      dup4\n        /* \"#utility.yul\":4727:4744   */\n      add\n        /* \"#utility.yul\":4723:4750   */\n      slt\n        /* \"#utility.yul\":4713:4835   */\n      tag_318\n      jumpi\n        /* \"#utility.yul\":4754:4833   */\n      tag_319\n      tag_215\n      jump\t// in\n    tag_319:\n        /* \"#utility.yul\":4713:4835   */\n    tag_318:\n        /* \"#utility.yul\":4871:4877   */\n      dup2\n        /* \"#utility.yul\":4858:4878   */\n      calldataload\n        /* \"#utility.yul\":4896:4975   */\n      tag_320\n        /* \"#utility.yul\":4971:4974   */\n      dup5\n        /* \"#utility.yul\":4963:4969   */\n      dup3\n        /* \"#utility.yul\":4956:4960   */\n      0x20\n        /* \"#utility.yul\":4948:4954   */\n      dup7\n        /* \"#utility.yul\":4944:4961   */\n      add\n        /* \"#utility.yul\":4896:4975   */\n      tag_223\n      jump\t// in\n    tag_320:\n        /* \"#utility.yul\":4887:4975   */\n      swap2\n      pop\n        /* \"#utility.yul\":4703:4981   */\n      pop\n        /* \"#utility.yul\":4641:4981   */\n      swap3\n      swap2\n      pop\n      pop\n      jump\t// out\n        /* \"#utility.yul\":4987:5496   */\n    tag_37:\n        /* \"#utility.yul\":5056:5062   */\n      0x00\n        /* \"#utility.yul\":5105:5107   */\n      0x20\n        /* \"#utility.yul\":5093:5102   */\n      dup3\n        /* \"#utility.yul\":5084:5091   */\n      dup5\n        /* \"#utility.yul\":5080:5103   */\n      sub\n        /* \"#utility.yul\":5076:5108   */\n      slt\n        /* \"#utility.yul\":5073:5192   */\n      iszero\n      tag_322\n      jumpi\n        /* \"#utility.yul\":5111:5190   */\n      tag_323\n      tag_203\n      jump\t// in\n    tag_323:\n        /* \"#utility.yul\":5073:5192   */\n    tag_322:\n        /* \"#utility.yul\":5259:5260   */\n      0x00\n        /* \"#utility.yul\":5248:5257   */\n      dup3\n        /* \"#utility.yul\":5244:5261   */\n      add\n        /* \"#utility.yul\":5231:5262   */\n      calldataload\n        /* \"#utility.yul\":5289:5307   */\n      0xffffffffffffffff\n        /* \"#utility.yul\":5281:5287   */\n      dup2\n        /* \"#utility.yul\":5278:5308   */\n      gt\n        /* \"#utility.yul\":5275:5392   */\n      iszero\n      tag_324\n      jumpi\n        /* \"#utility.yul\":5311:5390   */\n      tag_325\n      tag_204\n      jump\t// in\n    tag_325:\n        /* \"#utility.yul\":5275:5392   */\n    tag_324:\n        /* \"#utility.yul\":5416:5479   */\n      tag_326\n        /* \"#utility.yul\":5471:5478   */\n      dup5\n        /* \"#utility.yul\":5462:5468   */\n      dup3\n        /* \"#utility.yul\":5451:5460   */\n      dup6\n        /* \"#utility.yul\":5447:5469   */\n      add\n        /* \"#utility.yul\":5416:5479   */\n      tag_224\n      jump\t// in\n    tag_326:\n        /* \"#utility.yul\":5406:5479   */\n      swap2\n      pop\n        /* \"#utility.yul\":5202:5489   */\n      pop\n        /* \"#utility.yul\":4987:5496   */\n      swap3\n      swap2\n      pop\n      pop\n      jump\t// out\n        /* \"#utility.yul\":5502:5601   */\n    tag_225:\n        /* \"#utility.yul\":5554:5560   */\n      0x00\n        /* \"#utility.yul\":5588:5593   */\n      dup2\n        /* \"#utility.yul\":5582:5594   */\n      mload\n        /* \"#utility.yul\":5572:5594   */\n      swap1\n      pop\n        /* \"#utility.yul\":5502:5601   */\n      swap2\n      swap1\n      pop\n      jump\t// out\n        /* \"#utility.yul\":5607:5766   */\n    tag_226:\n        /* \"#utility.yul\":5681:5692   */\n      0x00\n        /* \"#utility.yul\":5715:5721   */\n      dup3\n        /* \"#utility.yul\":5710:5713   */\n      dup3\n        /* \"#utility.yul\":5703:5722   */\n      mstore\n        /* \"#utility.yul\":5755:5759   */\n      0x20\n        /* \"#utility.yul\":5750:5753   */\n      dup3\n        /* \"#utility.yul\":5746:5760   */\n      add\n        /* \"#utility.yul\":5731:5760   */\n      swap1\n      pop\n        /* \"#utility.yul\":5607:5766   */\n      swap3\n      swap2\n      pop\n      pop\n      jump\t// out\n        /* \"#utility.yul\":5772:6079   */\n    tag_227:\n        /* \"#utility.yul\":5840:5841   */\n      0x00\n        /* \"#utility.yul\":5850:5963   */\n    tag_330:\n        /* \"#utility.yul\":5864:5870   */\n      dup4\n        /* \"#utility.yul\":5861:5862   */\n      dup2\n        /* \"#utility.yul\":5858:5871   */\n      lt\n        /* \"#utility.yul\":5850:5963   */\n      iszero\n      tag_332\n      jumpi\n        /* \"#utility.yul\":5949:5950   */\n      dup1\n        /* \"#utility.yul\":5944:5947   */\n      dup3\n        /* \"#utility.yul\":5940:5951   */\n      add\n        /* \"#utility.yul\":5934:5952   */\n      mload\n        /* \"#utility.yul\":5930:5931   */\n      dup2\n        /* \"#utility.yul\":5925:5928   */\n      dup5\n        /* \"#utility.yul\":5921:5932   */\n      add\n        /* \"#utility.yul\":5914:5953   */\n      mstore\n        /* \"#utility.yul\":5886:5888   */\n      0x20\n        /* \"#utility.yul\":5883:5884   */\n      dup2\n        /* \"#utility.yul\":5879:5889   */\n      add\n        /* \"#utility.yul\":5874:5889   */\n      swap1\n      pop\n        /* \"#utility.yul\":5850:5963   */\n      jump(tag_330)\n    tag_332:\n        /* \"#utility.yul\":5981:5987   */\n      dup4\n        /* \"#utility.yul\":5978:5979   */\n      dup2\n        /* \"#utility.yul\":5975:5988   */\n      gt\n        /* \"#utility.yul\":5972:6073   */\n      iszero\n      tag_333\n      jumpi\n        /* \"#utility.yul\":6061:6062   */\n      0x00\n        /* \"#utility.yul\":6052:6058   */\n      dup5\n        /* \"#utility.yul\":6047:6050   */\n      dup5\n        /* \"#utility.yul\":6043:6059   */\n      add\n        /* \"#utility.yul\":6036:6063   */\n      mstore\n        /* \"#utility.yul\":5972:6073   */\n    tag_333:\n        /* \"#utility.yul\":5821:6079   */\n      pop\n        /* \"#utility.yul\":5772:6079   */\n      pop\n      pop\n      pop\n      jump\t// out\n        /* \"#utility.yul\":6085:6429   */\n    tag_228:\n        /* \"#utility.yul\":6163:6166   */\n      0x00\n        /* \"#utility.yul\":6191:6230   */\n      tag_335\n        /* \"#utility.yul\":6224:6229   */\n      dup3\n        /* \"#utility.yul\":6191:6230   */\n      tag_225\n      jump\t// in\n    tag_335:\n        /* \"#utility.yul\":6246:6307   */\n      tag_336\n        /* \"#utility.yul\":6300:6306   */\n      dup2\n        /* \"#utility.yul\":6295:6298   */\n      dup6\n        /* \"#utility.yul\":6246:6307   */\n      tag_226\n      jump\t// in\n    tag_336:\n        /* \"#utility.yul\":6239:6307   */\n      swap4\n      pop\n        /* \"#utility.yul\":6316:6368   */\n      tag_337\n        /* \"#utility.yul\":6361:6367   */\n      dup2\n        /* \"#utility.yul\":6356:6359   */\n      dup6\n        /* \"#utility.yul\":6349:6353   */\n      0x20\n        /* \"#utility.yul\":6342:6347   */\n      dup7\n        /* \"#utility.yul\":6338:6354   */\n      add\n        /* \"#utility.yul\":6316:6368   */\n      tag_227\n      jump\t// in\n    tag_337:\n        /* \"#utility.yul\":6393:6422   */\n      tag_338\n        /* \"#utility.yul\":6415:6421   */\n      dup2\n        /* \"#utility.yul\":6393:6422   */\n      tag_217\n      jump\t// in\n    tag_338:\n        /* \"#utility.yul\":6388:6391   */\n      dup5\n        /* \"#utility.yul\":6384:6423   */\n      add\n        /* \"#utility.yul\":6377:6423   */\n      swap2\n      pop\n        /* \"#utility.yul\":6167:6429   */\n      pop\n        /* \"#utility.yul\":6085:6429   */\n      swap3\n      swap2\n      pop\n      pop\n      jump\t// out\n        /* \"#utility.yul\":6435:6521   */\n    tag_229:\n        /* \"#utility.yul\":6470:6477   */\n      0x00\n        /* \"#utility.yul\":6510:6514   */\n      0xff\n        /* \"#utility.yul\":6503:6508   */\n      dup3\n        /* \"#utility.yul\":6499:6515   */\n      and\n        /* \"#utility.yul\":6488:6515   */\n      swap1\n      pop\n        /* \"#utility.yul\":6435:6521   */\n      swap2\n      swap1\n      pop\n      jump\t// out\n        /* \"#utility.yul\":6527:6629   */\n    tag_230:\n        /* \"#utility.yul\":6600:6622   */\n      tag_341\n        /* \"#utility.yul\":6616:6621   */\n      dup2\n        /* \"#utility.yul\":6600:6622   */\n      tag_229\n      jump\t// in\n    tag_341:\n        /* \"#utility.yul\":6595:6598   */\n      dup3\n        /* \"#utility.yul\":6588:6623   */\n      mstore\n        /* \"#utility.yul\":6527:6629   */\n      pop\n      pop\n      jump\t// out\n        /* \"#utility.yul\":6635:6743   */\n    tag_231:\n        /* \"#utility.yul\":6712:6736   */\n      tag_343\n        /* \"#utility.yul\":6730:6735   */\n      dup2\n        /* \"#utility.yul\":6712:6736   */\n      tag_205\n      jump\t// in\n    tag_343:\n        /* \"#utility.yul\":6707:6710   */\n      dup3\n        /* \"#utility.yul\":6700:6737   */\n      mstore\n        /* \"#utility.yul\":6635:6743   */\n      pop\n      pop\n      jump\t// out\n        /* \"#utility.yul\":6805:9008   */\n    tag_232:\n        /* \"#utility.yul\":6914:6917   */\n      0x00\n        /* \"#utility.yul\":6950:6956   */\n      0x0120\n        /* \"#utility.yul\":6945:6948   */\n      dup4\n        /* \"#utility.yul\":6941:6957   */\n      add\n        /* \"#utility.yul\":7043:7047   */\n      0x00\n        /* \"#utility.yul\":7036:7041   */\n      dup4\n        /* \"#utility.yul\":7032:7048   */\n      add\n        /* \"#utility.yul\":7026:7049   */\n      mload\n        /* \"#utility.yul\":7096:7099   */\n      dup5\n        /* \"#utility.yul\":7090:7094   */\n      dup3\n        /* \"#utility.yul\":7086:7100   */\n      sub\n        /* \"#utility.yul\":7079:7083   */\n      0x00\n        /* \"#utility.yul\":7074:7077   */\n      dup7\n        /* \"#utility.yul\":7070:7084   */\n      add\n        /* \"#utility.yul\":7063:7101   */\n      mstore\n        /* \"#utility.yul\":7122:7195   */\n      tag_345\n        /* \"#utility.yul\":7190:7194   */\n      dup3\n        /* \"#utility.yul\":7176:7188   */\n      dup3\n        /* \"#utility.yul\":7122:7195   */\n      tag_228\n      jump\t// in\n    tag_345:\n        /* \"#utility.yul\":7114:7195   */\n      swap2\n      pop\n        /* \"#utility.yul\":6967:7206   */\n      pop\n        /* \"#utility.yul\":7291:7295   */\n      0x20\n        /* \"#utility.yul\":7284:7289   */\n      dup4\n        /* \"#utility.yul\":7280:7296   */\n      add\n        /* \"#utility.yul\":7274:7297   */\n      mload\n        /* \"#utility.yul\":7344:7347   */\n      dup5\n        /* \"#utility.yul\":7338:7342   */\n      dup3\n        /* \"#utility.yul\":7334:7348   */\n      sub\n        /* \"#utility.yul\":7327:7331   */\n      0x20\n        /* \"#utility.yul\":7322:7325   */\n      dup7\n        /* \"#utility.yul\":7318:7332   */\n      add\n        /* \"#utility.yul\":7311:7349   */\n      mstore\n        /* \"#utility.yul\":7370:7443   */\n      tag_346\n        /* \"#utility.yul\":7438:7442   */\n      dup3\n        /* \"#utility.yul\":7424:7436   */\n      dup3\n        /* \"#utility.yul\":7370:7443   */\n      tag_228\n      jump\t// in\n    tag_346:\n        /* \"#utility.yul\":7362:7443   */\n      swap2\n      pop\n        /* \"#utility.yul\":7216:7454   */\n      pop\n        /* \"#utility.yul\":7539:7543   */\n      0x40\n        /* \"#utility.yul\":7532:7537   */\n      dup4\n        /* \"#utility.yul\":7528:7544   */\n      add\n        /* \"#utility.yul\":7522:7545   */\n      mload\n        /* \"#utility.yul\":7592:7595   */\n      dup5\n        /* \"#utility.yul\":7586:7590   */\n      dup3\n        /* \"#utility.yul\":7582:7596   */\n      sub\n        /* \"#utility.yul\":7575:7579   */\n      0x40\n        /* \"#utility.yul\":7570:7573   */\n      dup7\n        /* \"#utility.yul\":7566:7580   */\n      add\n        /* \"#utility.yul\":7559:7597   */\n      mstore\n        /* \"#utility.yul\":7618:7691   */\n      tag_347\n        /* \"#utility.yul\":7686:7690   */\n      dup3\n        /* \"#utility.yul\":7672:7684   */\n      dup3\n        /* \"#utility.yul\":7618:7691   */\n      tag_228\n      jump\t// in\n    tag_347:\n        /* \"#utility.yul\":7610:7691   */\n      swap2\n      pop\n        /* \"#utility.yul\":7464:7702   */\n      pop\n        /* \"#utility.yul\":7787:7791   */\n      0x60\n        /* \"#utility.yul\":7780:7785   */\n      dup4\n        /* \"#utility.yul\":7776:7792   */\n      add\n        /* \"#utility.yul\":7770:7793   */\n      mload\n        /* \"#utility.yul\":7840:7843   */\n      dup5\n        /* \"#utility.yul\":7834:7838   */\n      dup3\n        /* \"#utility.yul\":7830:7844   */\n      sub\n        /* \"#utility.yul\":7823:7827   */\n      0x60\n        /* \"#utility.yul\":7818:7821   */\n      dup7\n        /* \"#utility.yul\":7814:7828   */\n      add\n        /* \"#utility.yul\":7807:7845   */\n      mstore\n        /* \"#utility.yul\":7866:7939   */\n      tag_348\n        /* \"#utility.yul\":7934:7938   */\n      dup3\n        /* \"#utility.yul\":7920:7932   */\n      dup3\n        /* \"#utility.yul\":7866:7939   */\n      tag_228\n      jump\t// in\n    tag_348:\n        /* \"#utility.yul\":7858:7939   */\n      swap2\n      pop\n        /* \"#utility.yul\":7712:7950   */\n      pop\n        /* \"#utility.yul\":8035:8039   */\n      0x80\n        /* \"#utility.yul\":8028:8033   */\n      dup4\n        /* \"#utility.yul\":8024:8040   */\n      add\n        /* \"#utility.yul\":8018:8041   */\n      mload\n        /* \"#utility.yul\":8088:8091   */\n      dup5\n        /* \"#utility.yul\":8082:8086   */\n      dup3\n        /* \"#utility.yul\":8078:8092   */\n      sub\n        /* \"#utility.yul\":8071:8075   */\n      0x80\n        /* \"#utility.yul\":8066:8069   */\n      dup7\n        /* \"#utility.yul\":8062:8076   */\n      add\n        /* \"#utility.yul\":8055:8093   */\n      mstore\n        /* \"#utility.yul\":8114:8187   */\n      tag_349\n        /* \"#utility.yul\":8182:8186   */\n      dup3\n        /* \"#utility.yul\":8168:8180   */\n      dup3\n        /* \"#utility.yul\":8114:8187   */\n      tag_228\n      jump\t// in\n    tag_349:\n        /* \"#utility.yul\":8106:8187   */\n      swap2\n      pop\n        /* \"#utility.yul\":7960:8198   */\n      pop\n        /* \"#utility.yul\":8280:8284   */\n      0xa0\n        /* \"#utility.yul\":8273:8278   */\n      dup4\n        /* \"#utility.yul\":8269:8285   */\n      add\n        /* \"#utility.yul\":8263:8286   */\n      mload\n        /* \"#utility.yul\":8333:8336   */\n      dup5\n        /* \"#utility.yul\":8327:8331   */\n      dup3\n        /* \"#utility.yul\":8323:8337   */\n      sub\n        /* \"#utility.yul\":8316:8320   */\n      0xa0\n        /* \"#utility.yul\":8311:8314   */\n      dup7\n        /* \"#utility.yul\":8307:8321   */\n      add\n        /* \"#utility.yul\":8300:8338   */\n      mstore\n        /* \"#utility.yul\":8359:8432   */\n      tag_350\n        /* \"#utility.yul\":8427:8431   */\n      dup3\n        /* \"#utility.yul\":8413:8425   */\n      dup3\n        /* \"#utility.yul\":8359:8432   */\n      tag_228\n      jump\t// in\n    tag_350:\n        /* \"#utility.yul\":8351:8432   */\n      swap2\n      pop\n        /* \"#utility.yul\":8208:8443   */\n      pop\n        /* \"#utility.yul\":8533:8537   */\n      0xc0\n        /* \"#utility.yul\":8526:8531   */\n      dup4\n        /* \"#utility.yul\":8522:8538   */\n      add\n        /* \"#utility.yul\":8516:8539   */\n      mload\n        /* \"#utility.yul\":8552:8611   */\n      tag_351\n        /* \"#utility.yul\":8605:8609   */\n      0xc0\n        /* \"#utility.yul\":8600:8603   */\n      dup7\n        /* \"#utility.yul\":8596:8610   */\n      add\n        /* \"#utility.yul\":8582:8594   */\n      dup3\n        /* \"#utility.yul\":8552:8611   */\n      tag_230\n      jump\t// in\n    tag_351:\n        /* \"#utility.yul\":8453:8621   */\n      pop\n        /* \"#utility.yul\":8705:8709   */\n      0xe0\n        /* \"#utility.yul\":8698:8703   */\n      dup4\n        /* \"#utility.yul\":8694:8710   */\n      add\n        /* \"#utility.yul\":8688:8711   */\n      mload\n        /* \"#utility.yul\":8724:8787   */\n      tag_352\n        /* \"#utility.yul\":8781:8785   */\n      0xe0\n        /* \"#utility.yul\":8776:8779   */\n      dup7\n        /* \"#utility.yul\":8772:8786   */\n      add\n        /* \"#utility.yul\":8758:8770   */\n      dup3\n        /* \"#utility.yul\":8724:8787   */\n      tag_231\n      jump\t// in\n    tag_352:\n        /* \"#utility.yul\":8631:8797   */\n      pop\n        /* \"#utility.yul\":8885:8891   */\n      0x0100\n        /* \"#utility.yul\":8878:8883   */\n      dup4\n        /* \"#utility.yul\":8874:8892   */\n      add\n        /* \"#utility.yul\":8868:8893   */\n      mload\n        /* \"#utility.yul\":8906:8971   */\n      tag_353\n        /* \"#utility.yul\":8963:8969   */\n      0x0100\n        /* \"#utility.yul\":8958:8961   */\n      dup7\n        /* \"#utility.yul\":8954:8970   */\n      add\n        /* \"#utility.yul\":8940:8952   */\n      dup3\n        /* \"#utility.yul\":8906:8971   */\n      tag_231\n      jump\t// in\n    tag_353:\n        /* \"#utility.yul\":8807:8981   */\n      pop\n        /* \"#utility.yul\":8998:9002   */\n      dup1\n        /* \"#utility.yul\":8991:9002   */\n      swap2\n      pop\n        /* \"#utility.yul\":6919:9008   */\n      pop\n        /* \"#utility.yul\":6805:9008   */\n      swap3\n      swap2\n      pop\n      pop\n      jump\t// out\n        /* \"#utility.yul\":9014:9367   */\n    tag_40:\n        /* \"#utility.yul\":9147:9151   */\n      0x00\n        /* \"#utility.yul\":9185:9187   */\n      0x20\n        /* \"#utility.yul\":9174:9183   */\n      dup3\n        /* \"#utility.yul\":9170:9188   */\n      add\n        /* \"#utility.yul\":9162:9188   */\n      swap1\n      pop\n        /* \"#utility.yul\":9234:9243   */\n      dup2\n        /* \"#utility.yul\":9228:9232   */\n      dup2\n        /* \"#utility.yul\":9224:9244   */\n      sub\n        /* \"#utility.yul\":9220:9221   */\n      0x00\n        /* \"#utility.yul\":9209:9218   */\n      dup4\n        /* \"#utility.yul\":9205:9222   */\n      add\n        /* \"#utility.yul\":9198:9245   */\n      mstore\n        /* \"#utility.yul\":9262:9360   */\n      tag_355\n        /* \"#utility.yul\":9355:9359   */\n      dup2\n        /* \"#utility.yul\":9346:9352   */\n      dup5\n        /* \"#utility.yul\":9262:9360   */\n      tag_232\n      jump\t// in\n    tag_355:\n        /* \"#utility.yul\":9254:9360   */\n      swap1\n      pop\n        /* \"#utility.yul\":9014:9367   */\n      swap3\n      swap2\n      pop\n      pop\n      jump\t// out\n        /* \"#utility.yul\":9373:9491   */\n    tag_233:\n        /* \"#utility.yul\":9444:9466   */\n      tag_357\n        /* \"#utility.yul\":9460:9465   */\n      dup2\n        /* \"#utility.yul\":9444:9466   */\n      tag_229\n      jump\t// in\n    tag_357:\n        /* \"#utility.yul\":9437:9442   */\n      dup2\n        /* \"#utility.yul\":9434:9467   */\n      eq\n        /* \"#utility.yul\":9424:9485   */\n      tag_358\n      jumpi\n        /* \"#utility.yul\":9481:9482   */\n      0x00\n        /* \"#utility.yul\":9478:9479   */\n      dup1\n        /* \"#utility.yul\":9471:9483   */\n      revert\n        /* \"#utility.yul\":9424:9485   */\n    tag_358:\n        /* \"#utility.yul\":9373:9491   */\n      pop\n      jump\t// out\n        /* \"#utility.yul\":9497:9632   */\n    tag_234:\n        /* \"#utility.yul\":9541:9546   */\n      0x00\n        /* \"#utility.yul\":9579:9585   */\n      dup2\n        /* \"#utility.yul\":9566:9586   */\n      calldataload\n        /* \"#utility.yul\":9557:9586   */\n      swap1\n      pop\n        /* \"#utility.yul\":9595:9626   */\n      tag_360\n        /* \"#utility.yul\":9620:9625   */\n      dup2\n        /* \"#utility.yul\":9595:9626   */\n      tag_233\n      jump\t// in\n    tag_360:\n        /* \"#utility.yul\":9497:9632   */\n      swap3\n      swap2\n      pop\n      pop\n      jump\t// out\n        /* \"#utility.yul\":9638:10108   */\n    tag_46:\n        /* \"#utility.yul\":9704:9710   */\n      0x00\n        /* \"#utility.yul\":9712:9718   */\n      dup1\n        /* \"#utility.yul\":9761:9763   */\n      0x40\n        /* \"#utility.yul\":9749:9758   */\n      dup4\n        /* \"#utility.yul\":9740:9747   */\n      dup6\n        /* \"#utility.yul\":9736:9759   */\n      sub\n        /* \"#utility.yul\":9732:9764   */\n      slt\n        /* \"#utility.yul\":9729:9848   */\n      iszero\n      tag_362\n      jumpi\n        /* \"#utility.yul\":9767:9846   */\n      tag_363\n      tag_203\n      jump\t// in\n    tag_363:\n        /* \"#utility.yul\":9729:9848   */\n    tag_362:\n        /* \"#utility.yul\":9887:9888   */\n      0x00\n        /* \"#utility.yul\":9912:9965   */\n      tag_364\n        /* \"#utility.yul\":9957:9964   */\n      dup6\n        /* \"#utility.yul\":9948:9954   */\n      dup3\n        /* \"#utility.yul\":9937:9946   */\n      dup7\n        /* \"#utility.yul\":9933:9955   */\n      add\n        /* \"#utility.yul\":9912:9965   */\n      tag_207\n      jump\t// in\n    tag_364:\n        /* \"#utility.yul\":9902:9965   */\n      swap3\n      pop\n        /* \"#utility.yul\":9858:9975   */\n      pop\n        /* \"#utility.yul\":10014:10016   */\n      0x20\n        /* \"#utility.yul\":10040:10091   */\n      tag_365\n        /* \"#utility.yul\":10083:10090   */\n      dup6\n        /* \"#utility.yul\":10074:10080   */\n      dup3\n        /* \"#utility.yul\":10063:10072   */\n      dup7\n        /* \"#utility.yul\":10059:10081   */\n      add\n        /* \"#utility.yul\":10040:10091   */\n      tag_234\n      jump\t// in\n    tag_365:\n        /* \"#utility.yul\":10030:10091   */\n      swap2\n      pop\n        /* \"#utility.yul\":9985:10101   */\n      pop\n        /* \"#utility.yul\":9638:10108   */\n      swap3\n      pop\n      swap3\n      swap1\n      pop\n      jump\t// out\n        /* \"#utility.yul\":10114:10226   */\n    tag_235:\n        /* \"#utility.yul\":10197:10219   */\n      tag_367\n        /* \"#utility.yul\":10213:10218   */\n      dup2\n        /* \"#utility.yul\":10197:10219   */\n      tag_229\n      jump\t// in\n    tag_367:\n        /* \"#utility.yul\":10192:10195   */\n      dup3\n        /* \"#utility.yul\":10185:10220   */\n      mstore\n        /* \"#utility.yul\":10114:10226   */\n      pop\n      pop\n      jump\t// out\n        /* \"#utility.yul\":10232:10687   */\n    tag_52:\n        /* \"#utility.yul\":10389:10393   */\n      0x00\n        /* \"#utility.yul\":10427:10429   */\n      0x40\n        /* \"#utility.yul\":10416:10425   */\n      dup3\n        /* \"#utility.yul\":10412:10430   */\n      add\n        /* \"#utility.yul\":10404:10430   */\n      swap1\n      pop\n        /* \"#utility.yul\":10476:10485   */\n      dup2\n        /* \"#utility.yul\":10470:10474   */\n      dup2\n        /* \"#utility.yul\":10466:10486   */\n      sub\n        /* \"#utility.yul\":10462:10463   */\n      0x00\n        /* \"#utility.yul\":10451:10460   */\n      dup4\n        /* \"#utility.yul\":10447:10464   */\n      add\n        /* \"#utility.yul\":10440:10487   */\n      mstore\n        /* \"#utility.yul\":10504:10602   */\n      tag_369\n        /* \"#utility.yul\":10597:10601   */\n      dup2\n        /* \"#utility.yul\":10588:10594   */\n      dup6\n        /* \"#utility.yul\":10504:10602   */\n      tag_232\n      jump\t// in\n    tag_369:\n        /* \"#utility.yul\":10496:10602   */\n      swap1\n      pop\n        /* \"#utility.yul\":10612:10680   */\n      tag_370\n        /* \"#utility.yul\":10676:10678   */\n      0x20\n        /* \"#utility.yul\":10665:10674   */\n      dup4\n        /* \"#utility.yul\":10661:10679   */\n      add\n        /* \"#utility.yul\":10652:10658   */\n      dup5\n        /* \"#utility.yul\":10612:10680   */\n      tag_235\n      jump\t// in\n    tag_370:\n        /* \"#utility.yul\":10232:10687   */\n      swap4\n      swap3\n      pop\n      pop\n      pop\n      jump\t// out\n        /* \"#utility.yul\":10693:10815   */\n    tag_236:\n        /* \"#utility.yul\":10766:10790   */\n      tag_372\n        /* \"#utility.yul\":10784:10789   */\n      dup2\n        /* \"#utility.yul\":10766:10790   */\n      tag_212\n      jump\t// in\n    tag_372:\n        /* \"#utility.yul\":10759:10764   */\n      dup2\n        /* \"#utility.yul\":10756:10791   */\n      eq\n        /* \"#utility.yul\":10746:10809   */\n      tag_373\n      jumpi\n        /* \"#utility.yul\":10805:10806   */\n      0x00\n        /* \"#utility.yul\":10802:10803   */\n      dup1\n        /* \"#utility.yul\":10795:10807   */\n      revert\n        /* \"#utility.yul\":10746:10809   */\n    tag_373:\n        /* \"#utility.yul\":10693:10815   */\n      pop\n      jump\t// out\n        /* \"#utility.yul\":10821:10960   */\n    tag_237:\n        /* \"#utility.yul\":10867:10872   */\n      0x00\n        /* \"#utility.yul\":10905:10911   */\n      dup2\n        /* \"#utility.yul\":10892:10912   */\n      calldataload\n        /* \"#utility.yul\":10883:10912   */\n      swap1\n      pop\n        /* \"#utility.yul\":10921:10954   */\n      tag_375\n        /* \"#utility.yul\":10948:10953   */\n      dup2\n        /* \"#utility.yul\":10921:10954   */\n      tag_236\n      jump\t// in\n    tag_375:\n        /* \"#utility.yul\":10821:10960   */\n      swap3\n      swap2\n      pop\n      pop\n      jump\t// out\n        /* \"#utility.yul\":10966:11295   */\n    tag_55:\n        /* \"#utility.yul\":11025:11031   */\n      0x00\n        /* \"#utility.yul\":11074:11076   */\n      0x20\n        /* \"#utility.yul\":11062:11071   */\n      dup3\n        /* \"#utility.yul\":11053:11060   */\n      dup5\n        /* \"#utility.yul\":11049:11072   */\n      sub\n        /* \"#utility.yul\":11045:11077   */\n      slt\n        /* \"#utility.yul\":11042:11161   */\n      iszero\n      tag_377\n      jumpi\n        /* \"#utility.yul\":11080:11159   */\n      tag_378\n      tag_203\n      jump\t// in\n    tag_378:\n        /* \"#utility.yul\":11042:11161   */\n    tag_377:\n        /* \"#utility.yul\":11200:11201   */\n      0x00\n        /* \"#utility.yul\":11225:11278   */\n      tag_379\n        /* \"#utility.yul\":11270:11277   */\n      dup5\n        /* \"#utility.yul\":11261:11267   */\n      dup3\n        /* \"#utility.yul\":11250:11259   */\n      dup6\n        /* \"#utility.yul\":11246:11268   */\n      add\n        /* \"#utility.yul\":11225:11278   */\n      tag_237\n      jump\t// in\n    tag_379:\n        /* \"#utility.yul\":11215:11278   */\n      swap2\n      pop\n        /* \"#utility.yul\":11171:11288   */\n      pop\n        /* \"#utility.yul\":10966:11295   */\n      swap3\n      swap2\n      pop\n      pop\n      jump\t// out\n        /* \"#utility.yul\":11301:11955   */\n    tag_59:\n        /* \"#utility.yul\":11379:11385   */\n      0x00\n        /* \"#utility.yul\":11387:11393   */\n      dup1\n        /* \"#utility.yul\":11436:11438   */\n      0x40\n        /* \"#utility.yul\":11424:11433   */\n      dup4\n        /* \"#utility.yul\":11415:11422   */\n      dup6\n        /* \"#utility.yul\":11411:11434   */\n      sub\n        /* \"#utility.yul\":11407:11439   */\n      slt\n        /* \"#utility.yul\":11404:11523   */\n      iszero\n      tag_381\n      jumpi\n        /* \"#utility.yul\":11442:11521   */\n      tag_382\n      tag_203\n      jump\t// in\n    tag_382:\n        /* \"#utility.yul\":11404:11523   */\n    tag_381:\n        /* \"#utility.yul\":11562:11563   */\n      0x00\n        /* \"#utility.yul\":11587:11640   */\n      tag_383\n        /* \"#utility.yul\":11632:11639   */\n      dup6\n        /* \"#utility.yul\":11623:11629   */\n      dup3\n        /* \"#utility.yul\":11612:11621   */\n      dup7\n        /* \"#utility.yul\":11608:11630   */\n      add\n        /* \"#utility.yul\":11587:11640   */\n      tag_207\n      jump\t// in\n    tag_383:\n        /* \"#utility.yul\":11577:11640   */\n      swap3\n      pop\n        /* \"#utility.yul\":11533:11650   */\n      pop\n        /* \"#utility.yul\":11717:11719   */\n      0x20\n        /* \"#utility.yul\":11706:11715   */\n      dup4\n        /* \"#utility.yul\":11702:11720   */\n      add\n        /* \"#utility.yul\":11689:11721   */\n      calldataload\n        /* \"#utility.yul\":11748:11766   */\n      0xffffffffffffffff\n        /* \"#utility.yul\":11740:11746   */\n      dup2\n        /* \"#utility.yul\":11737:11767   */\n      gt\n        /* \"#utility.yul\":11734:11851   */\n      iszero\n      tag_384\n      jumpi\n        /* \"#utility.yul\":11770:11849   */\n      tag_385\n      tag_204\n      jump\t// in\n    tag_385:\n        /* \"#utility.yul\":11734:11851   */\n    tag_384:\n        /* \"#utility.yul\":11875:11938   */\n      tag_386\n        /* \"#utility.yul\":11930:11937   */\n      dup6\n        /* \"#utility.yul\":11921:11927   */\n      dup3\n        /* \"#utility.yul\":11910:11919   */\n      dup7\n        /* \"#utility.yul\":11906:11928   */\n      add\n        /* \"#utility.yul\":11875:11938   */\n      tag_224\n      jump\t// in\n    tag_386:\n        /* \"#utility.yul\":11865:11938   */\n      swap2\n      pop\n        /* \"#utility.yul\":11660:11948   */\n      pop\n        /* \"#utility.yul\":11301:11955   */\n      swap3\n      pop\n      swap3\n      swap1\n      pop\n      jump\t// out\n        /* \"#utility.yul\":11961:12130   */\n    tag_238:\n        /* \"#utility.yul\":12045:12056   */\n      0x00\n        /* \"#utility.yul\":12079:12085   */\n      dup3\n        /* \"#utility.yul\":12074:12077   */\n      dup3\n        /* \"#utility.yul\":12067:12086   */\n      mstore\n        /* \"#utility.yul\":12119:12123   */\n      0x20\n        /* \"#utility.yul\":12114:12117   */\n      dup3\n        /* \"#utility.yul\":12110:12124   */\n      add\n        /* \"#utility.yul\":12095:12124   */\n      swap1\n      pop\n        /* \"#utility.yul\":11961:12130   */\n      swap3\n      swap2\n      pop\n      pop\n      jump\t// out\n        /* \"#utility.yul\":12136:12318   */\n    tag_239:\n        /* \"#utility.yul\":12276:12310   */\n      0x4f776e61626c653a2063616c6c6572206973206e6f7420746865206f776e6572\n        /* \"#utility.yul\":12272:12273   */\n      0x00\n        /* \"#utility.yul\":12264:12270   */\n      dup3\n        /* \"#utility.yul\":12260:12274   */\n      add\n        /* \"#utility.yul\":12253:12311   */\n      mstore\n        /* \"#utility.yul\":12136:12318   */\n      pop\n      jump\t// out\n        /* \"#utility.yul\":12324:12690   */\n    tag_240:\n        /* \"#utility.yul\":12466:12469   */\n      0x00\n        /* \"#utility.yul\":12487:12554   */\n      tag_390\n        /* \"#utility.yul\":12551:12553   */\n      0x20\n        /* \"#utility.yul\":12546:12549   */\n      dup4\n        /* \"#utility.yul\":12487:12554   */\n      tag_238\n      jump\t// in\n    tag_390:\n        /* \"#utility.yul\":12480:12554   */\n      swap2\n      pop\n        /* \"#utility.yul\":12563:12656   */\n      tag_391\n        /* \"#utility.yul\":12652:12655   */\n      dup3\n        /* \"#utility.yul\":12563:12656   */\n      tag_239\n      jump\t// in\n    tag_391:\n        /* \"#utility.yul\":12681:12683   */\n      0x20\n        /* \"#utility.yul\":12676:12679   */\n      dup3\n        /* \"#utility.yul\":12672:12684   */\n      add\n        /* \"#utility.yul\":12665:12684   */\n      swap1\n      pop\n        /* \"#utility.yul\":12324:12690   */\n      swap2\n      swap1\n      pop\n      jump\t// out\n        /* \"#utility.yul\":12696:13115   */\n    tag_67:\n        /* \"#utility.yul\":12862:12866   */\n      0x00\n        /* \"#utility.yul\":12900:12902   */\n      0x20\n        /* \"#utility.yul\":12889:12898   */\n      dup3\n        /* \"#utility.yul\":12885:12903   */\n      add\n        /* \"#utility.yul\":12877:12903   */\n      swap1\n      pop\n        /* \"#utility.yul\":12949:12958   */\n      dup2\n        /* \"#utility.yul\":12943:12947   */\n      dup2\n        /* \"#utility.yul\":12939:12959   */\n      sub\n        /* \"#utility.yul\":12935:12936   */\n      0x00\n        /* \"#utility.yul\":12924:12933   */\n      dup4\n        /* \"#utility.yul\":12920:12937   */\n      add\n        /* \"#utility.yul\":12913:12960   */\n      mstore\n        /* \"#utility.yul\":12977:13108   */\n      tag_393\n        /* \"#utility.yul\":13103:13107   */\n      dup2\n        /* \"#utility.yul\":12977:13108   */\n      tag_240\n      jump\t// in\n    tag_393:\n        /* \"#utility.yul\":12969:13108   */\n      swap1\n      pop\n        /* \"#utility.yul\":12696:13115   */\n      swap2\n      swap1\n      pop\n      jump\t// out\n        /* \"#utility.yul\":13121:13301   */\n    tag_241:\n        /* \"#utility.yul\":13169:13246   */\n      0x4e487b7100000000000000000000000000000000000000000000000000000000\n        /* \"#utility.yul\":13166:13167   */\n      0x00\n        /* \"#utility.yul\":13159:13247   */\n      mstore\n        /* \"#utility.yul\":13266:13270   */\n      0x11\n        /* \"#utility.yul\":13263:13264   */\n      0x04\n        /* \"#utility.yul\":13256:13271   */\n      mstore\n        /* \"#utility.yul\":13290:13294   */\n      0x24\n        /* \"#utility.yul\":13287:13288   */\n      0x00\n        /* \"#utility.yul\":13280:13295   */\n      revert\n        /* \"#utility.yul\":13307:13612   */\n    tag_84:\n        /* \"#utility.yul\":13347:13350   */\n      0x00\n        /* \"#utility.yul\":13366:13386   */\n      tag_396\n        /* \"#utility.yul\":13384:13385   */\n      dup3\n        /* \"#utility.yul\":13366:13386   */\n      tag_205\n      jump\t// in\n    tag_396:\n        /* \"#utility.yul\":13361:13386   */\n      swap2\n      pop\n        /* \"#utility.yul\":13400:13420   */\n      tag_397\n        /* \"#utility.yul\":13418:13419   */\n      dup4\n        /* \"#utility.yul\":13400:13420   */\n      tag_205\n      jump\t// in\n    tag_397:\n        /* \"#utility.yul\":13395:13420   */\n      swap3\n      pop\n        /* \"#utility.yul\":13554:13555   */\n      dup3\n        /* \"#utility.yul\":13486:13552   */\n      0xffffffffffffffffffffffffffffffffffffffffffffffffffffffffffffffff\n        /* \"#utility.yul\":13482:13556   */\n      sub\n        /* \"#utility.yul\":13479:13480   */\n      dup3\n        /* \"#utility.yul\":13476:13557   */\n      gt\n        /* \"#utility.yul\":13473:13580   */\n      iszero\n      tag_398\n      jumpi\n        /* \"#utility.yul\":13560:13578   */\n      tag_399\n      tag_241\n      jump\t// in\n    tag_399:\n        /* \"#utility.yul\":13473:13580   */\n    tag_398:\n        /* \"#utility.yul\":13604:13605   */\n      dup3\n        /* \"#utility.yul\":13601:13602   */\n      dup3\n        /* \"#utility.yul\":13597:13606   */\n      add\n        /* \"#utility.yul\":13590:13606   */\n      swap1\n      pop\n        /* \"#utility.yul\":13307:13612   */\n      swap3\n      swap2\n      pop\n      pop\n      jump\t// out\n        /* \"#utility.yul\":13618:13766   */\n    tag_242:\n        /* \"#utility.yul\":13720:13731   */\n      0x00\n        /* \"#utility.yul\":13757:13760   */\n      dup2\n        /* \"#utility.yul\":13742:13760   */\n      swap1\n      pop\n        /* \"#utility.yul\":13618:13766   */\n      swap3\n      swap2\n      pop\n      pop\n      jump\t// out\n        /* \"#utility.yul\":13772:14149   */\n    tag_243:\n        /* \"#utility.yul\":13878:13881   */\n      0x00\n        /* \"#utility.yul\":13906:13945   */\n      tag_402\n        /* \"#utility.yul\":13939:13944   */\n      dup3\n        /* \"#utility.yul\":13906:13945   */\n      tag_225\n      jump\t// in\n    tag_402:\n        /* \"#utility.yul\":13961:14050   */\n      tag_403\n        /* \"#utility.yul\":14043:14049   */\n      dup2\n        /* \"#utility.yul\":14038:14041   */\n      dup6\n        /* \"#utility.yul\":13961:14050   */\n      tag_242\n      jump\t// in\n    tag_403:\n        /* \"#utility.yul\":13954:14050   */\n      swap4\n      pop\n        /* \"#utility.yul\":14059:14111   */\n      tag_404\n        /* \"#utility.yul\":14104:14110   */\n      dup2\n        /* \"#utility.yul\":14099:14102   */\n      dup6\n        /* \"#utility.yul\":14092:14096   */\n      0x20\n        /* \"#utility.yul\":14085:14090   */\n      dup7\n        /* \"#utility.yul\":14081:14097   */\n      add\n        /* \"#utility.yul\":14059:14111   */\n      tag_227\n      jump\t// in\n    tag_404:\n        /* \"#utility.yul\":14136:14142   */\n      dup1\n        /* \"#utility.yul\":14131:14134   */\n      dup5\n        /* \"#utility.yul\":14127:14143   */\n      add\n        /* \"#utility.yul\":14120:14143   */\n      swap2\n      pop\n        /* \"#utility.yul\":13882:14149   */\n      pop\n        /* \"#utility.yul\":13772:14149   */\n      swap3\n      swap2\n      pop\n      pop\n      jump\t// out\n        /* \"#utility.yul\":14155:14232   */\n    tag_244:\n        /* \"#utility.yul\":14192:14199   */\n      0x00\n        /* \"#utility.yul\":14221:14226   */\n      dup2\n        /* \"#utility.yul\":14210:14226   */\n      swap1\n      pop\n        /* \"#utility.yul\":14155:14232   */\n      swap2\n      swap1\n      pop\n      jump\t// out\n        /* \"#utility.yul\":14238:14317   */\n    tag_245:\n        /* \"#utility.yul\":14277:14284   */\n      0x00\n        /* \"#utility.yul\":14306:14311   */\n      dup2\n        /* \"#utility.yul\":14295:14311   */\n      swap1\n      pop\n        /* \"#utility.yul\":14238:14317   */\n      swap2\n      swap1\n      pop\n      jump\t// out\n        /* \"#utility.yul\":14323:14480   */\n    tag_246:\n        /* \"#utility.yul\":14428:14473   */\n      tag_408\n        /* \"#utility.yul\":14448:14472   */\n      tag_409\n        /* \"#utility.yul\":14466:14471   */\n      dup3\n        /* \"#utility.yul\":14448:14472   */\n      tag_244\n      jump\t// in\n    tag_409:\n        /* \"#utility.yul\":14428:14473   */\n      tag_245\n      jump\t// in\n    tag_408:\n        /* \"#utility.yul\":14423:14426   */\n      dup3\n        /* \"#utility.yul\":14416:14474   */\n      mstore\n        /* \"#utility.yul\":14323:14480   */\n      pop\n      pop\n      jump\t// out\n        /* \"#utility.yul\":14486:14902   */\n    tag_86:\n        /* \"#utility.yul\":14646:14649   */\n      0x00\n        /* \"#utility.yul\":14668:14763   */\n      tag_411\n        /* \"#utility.yul\":14759:14762   */\n      dup3\n        /* \"#utility.yul\":14750:14756   */\n      dup6\n        /* \"#utility.yul\":14668:14763   */\n      tag_243\n      jump\t// in\n    tag_411:\n        /* \"#utility.yul\":14661:14763   */\n      swap2\n      pop\n        /* \"#utility.yul\":14773:14848   */\n      tag_412\n        /* \"#utility.yul\":14844:14847   */\n      dup3\n        /* \"#utility.yul\":14835:14841   */\n      dup5\n        /* \"#utility.yul\":14773:14848   */\n      tag_246\n      jump\t// in\n    tag_412:\n        /* \"#utility.yul\":14873:14875   */\n      0x20\n        /* \"#utility.yul\":14868:14871   */\n      dup3\n        /* \"#utility.yul\":14864:14876   */\n      add\n        /* \"#utility.yul\":14857:14876   */\n      swap2\n      pop\n        /* \"#utility.yul\":14893:14896   */\n      dup2\n        /* \"#utility.yul\":14886:14896   */\n      swap1\n      pop\n        /* \"#utility.yul\":14486:14902   */\n      swap4\n      swap3\n      pop\n      pop\n      pop\n      jump\t// out\n        /* \"#utility.yul\":14908:15088   */\n    tag_247:\n        /* \"#utility.yul\":14956:15033   */\n      0x4e487b7100000000000000000000000000000000000000000000000000000000\n        /* \"#utility.yul\":14953:14954   */\n      0x00\n        /* \"#utility.yul\":14946:15034   */\n      mstore\n        /* \"#utility.yul\":15053:15057   */\n      0x12\n        /* \"#utility.yul\":15050:15051   */\n      0x04\n        /* \"#utility.yul\":15043:15058   */\n      mstore\n        /* \"#utility.yul\":15077:15081   */\n      0x24\n        /* \"#utility.yul\":15074:15075   */\n      0x00\n        /* \"#utility.yul\":15067:15082   */\n      revert\n        /* \"#utility.yul\":15094:15270   */\n    tag_88:\n        /* \"#utility.yul\":15126:15127   */\n      0x00\n        /* \"#utility.yul\":15143:15163   */\n      tag_415\n        /* \"#utility.yul\":15161:15162   */\n      dup3\n        /* \"#utility.yul\":15143:15163   */\n      tag_205\n      jump\t// in\n    tag_415:\n        /* \"#utility.yul\":15138:15163   */\n      swap2\n      pop\n        /* \"#utility.yul\":15177:15197   */\n      tag_416\n        /* \"#utility.yul\":15195:15196   */\n      dup4\n        /* \"#utility.yul\":15177:15197   */\n      tag_205\n      jump\t// in\n    tag_416:\n        /* \"#utility.yul\":15172:15197   */\n      swap3\n      pop\n        /* \"#utility.yul\":15216:15217   */\n      dup3\n        /* \"#utility.yul\":15206:15241   */\n      tag_417\n      jumpi\n        /* \"#utility.yul\":15221:15239   */\n      tag_418\n      tag_247\n      jump\t// in\n    tag_418:\n        /* \"#utility.yul\":15206:15241   */\n    tag_417:\n        /* \"#utility.yul\":15262:15263   */\n      dup3\n        /* \"#utility.yul\":15259:15260   */\n      dup3\n        /* \"#utility.yul\":15255:15264   */\n      mod\n        /* \"#utility.yul\":15250:15264   */\n      swap1\n      pop\n        /* \"#utility.yul\":15094:15270   */\n      swap3\n      swap2\n      pop\n      pop\n      jump\t// out\n        /* \"#utility.yul\":15276:15456   */\n    tag_91:\n        /* \"#utility.yul\":15324:15401   */\n      0x4e487b7100000000000000000000000000000000000000000000000000000000\n        /* \"#utility.yul\":15321:15322   */\n      0x00\n        /* \"#utility.yul\":15314:15402   */\n      mstore\n        /* \"#utility.yul\":15421:15425   */\n      0x32\n        /* \"#utility.yul\":15418:15419   */\n      0x04\n        /* \"#utility.yul\":15411:15426   */\n      mstore\n        /* \"#utility.yul\":15445:15449   */\n      0x24\n        /* \"#utility.yul\":15442:15443   */\n      0x00\n        /* \"#utility.yul\":15435:15450   */\n      revert\n        /* \"#utility.yul\":15462:15642   */\n    tag_248:\n        /* \"#utility.yul\":15510:15587   */\n      0x4e487b7100000000000000000000000000000000000000000000000000000000\n        /* \"#utility.yul\":15507:15508   */\n      0x00\n        /* \"#utility.yul\":15500:15588   */\n      mstore\n        /* \"#utility.yul\":15607:15611   */\n      0x22\n        /* \"#utility.yul\":15604:15605   */\n      0x04\n        /* \"#utility.yul\":15597:15612   */\n      mstore\n        /* \"#utility.yul\":15631:15635   */\n      0x24\n        /* \"#utility.yul\":15628:15629   */\n      0x00\n        /* \"#utility.yul\":15621:15636   */\n      revert\n        /* \"#utility.yul\":15648:15968   */\n    tag_94:\n        /* \"#utility.yul\":15692:15698   */\n      0x00\n        /* \"#utility.yul\":15729:15730   */\n      0x02\n        /* \"#utility.yul\":15723:15727   */\n      dup3\n        /* \"#utility.yul\":15719:15731   */\n      div\n        /* \"#utility.yul\":15709:15731   */\n      swap1\n      pop\n        /* \"#utility.yul\":15776:15777   */\n      0x01\n        /* \"#utility.yul\":15770:15774   */\n      dup3\n        /* \"#utility.yul\":15766:15778   */\n      and\n        /* \"#utility.yul\":15797:15815   */\n      dup1\n        /* \"#utility.yul\":15787:15868   */\n      tag_422\n      jumpi\n        /* \"#utility.yul\":15853:15857   */\n      0x7f\n        /* \"#utility.yul\":15845:15851   */\n      dup3\n        /* \"#utility.yul\":15841:15858   */\n      and\n        /* \"#utility.yul\":15831:15858   */\n      swap2\n      pop\n        /* \"#utility.yul\":15787:15868   */\n    tag_422:\n        /* \"#utility.yul\":15915:15917   */\n      0x20\n        /* \"#utility.yul\":15907:15913   */\n      dup3\n        /* \"#utility.yul\":15904:15918   */\n      lt\n        /* \"#utility.yul\":15884:15902   */\n      dup2\n        /* \"#utility.yul\":15881:15919   */\n      sub\n        /* \"#utility.yul\":15878:15962   */\n      tag_423\n      jumpi\n        /* \"#utility.yul\":15934:15952   */\n      tag_424\n      tag_248\n      jump\t// in\n    tag_424:\n        /* \"#utility.yul\":15878:15962   */\n    tag_423:\n        /* \"#utility.yul\":15699:15968   */\n      pop\n        /* \"#utility.yul\":15648:15968   */\n      swap2\n      swap1\n      pop\n      jump\t// out\n        /* \"#utility.yul\":15974:16115   */\n    tag_249:\n        /* \"#utility.yul\":16023:16027   */\n      0x00\n        /* \"#utility.yul\":16046:16049   */\n      dup2\n        /* \"#utility.yul\":16038:16049   */\n      swap1\n      pop\n        /* \"#utility.yul\":16069:16072   */\n      dup2\n        /* \"#utility.yul\":16066:16067   */\n      0x00\n        /* \"#utility.yul\":16059:16073   */\n      mstore\n        /* \"#utility.yul\":16103:16107   */\n      0x20\n        /* \"#utility.yul\":16100:16101   */\n      0x00\n        /* \"#utility.yul\":16090:16108   */\n      keccak256\n        /* \"#utility.yul\":16082:16108   */\n      swap1\n      pop\n        /* \"#utility.yul\":15974:16115   */\n      swap2\n      swap1\n      pop\n      jump\t// out\n        /* \"#utility.yul\":16145:16927   */\n    tag_250:\n        /* \"#utility.yul\":16220:16223   */\n      0x00\n        /* \"#utility.yul\":16257:16262   */\n      dup2\n        /* \"#utility.yul\":16251:16263   */\n      sload\n        /* \"#utility.yul\":16286:16322   */\n      tag_427\n        /* \"#utility.yul\":16312:16321   */\n      dup2\n        /* \"#utility.yul\":16286:16322   */\n      tag_94\n      jump\t// in\n    tag_427:\n        /* \"#utility.yul\":16338:16399   */\n      tag_428\n        /* \"#utility.yul\":16392:16398   */\n      dup2\n        /* \"#utility.yul\":16387:16390   */\n      dup7\n        /* \"#utility.yul\":16338:16399   */\n      tag_226\n      jump\t// in\n    tag_428:\n        /* \"#utility.yul\":16331:16399   */\n      swap5\n      pop\n        /* \"#utility.yul\":16430:16431   */\n      0x01\n        /* \"#utility.yul\":16419:16428   */\n      dup3\n        /* \"#utility.yul\":16415:16432   */\n      and\n        /* \"#utility.yul\":16446:16447   */\n      0x00\n        /* \"#utility.yul\":16441:16576   */\n      dup2\n      eq\n      tag_430\n      jumpi\n        /* \"#utility.yul\":16590:16591   */\n      0x01\n        /* \"#utility.yul\":16585:16921   */\n      dup2\n      eq\n      tag_431\n      jumpi\n        /* \"#utility.yul\":16408:16921   */\n      jump(tag_429)\n        /* \"#utility.yul\":16441:16576   */\n    tag_430:\n        /* \"#utility.yul\":16525:16529   */\n      0xff\n        /* \"#utility.yul\":16521:16530   */\n      not\n        /* \"#utility.yul\":16510:16519   */\n      dup4\n        /* \"#utility.yul\":16506:16531   */\n      and\n        /* \"#utility.yul\":16501:16504   */\n      dup7\n        /* \"#utility.yul\":16494:16532   */\n      mstore\n        /* \"#utility.yul\":16561:16565   */\n      0x20\n        /* \"#utility.yul\":16556:16559   */\n      dup7\n        /* \"#utility.yul\":16552:16566   */\n      add\n        /* \"#utility.yul\":16545:16566   */\n      swap4\n      pop\n        /* \"#utility.yul\":16441:16576   */\n      jump(tag_429)\n        /* \"#utility.yul\":16585:16921   */\n    tag_431:\n        /* \"#utility.yul\":16652:16690   */\n      tag_432\n        /* \"#utility.yul\":16684:16689   */\n      dup6\n        /* \"#utility.yul\":16652:16690   */\n      tag_249\n      jump\t// in\n    tag_432:\n        /* \"#utility.yul\":16712:16713   */\n      0x00\n        /* \"#utility.yul\":16726:16880   */\n    tag_433:\n        /* \"#utility.yul\":16740:16746   */\n      dup4\n        /* \"#utility.yul\":16737:16738   */\n      dup2\n        /* \"#utility.yul\":16734:16747   */\n      lt\n        /* \"#utility.yul\":16726:16880   */\n      iszero\n      tag_435\n      jumpi\n        /* \"#utility.yul\":16814:16821   */\n      dup2\n        /* \"#utility.yul\":16808:16822   */\n      sload\n        /* \"#utility.yul\":16804:16805   */\n      dup2\n        /* \"#utility.yul\":16799:16802   */\n      dup10\n        /* \"#utility.yul\":16795:16806   */\n      add\n        /* \"#utility.yul\":16788:16823   */\n      mstore\n        /* \"#utility.yul\":16864:16865   */\n      0x01\n        /* \"#utility.yul\":16855:16862   */\n      dup3\n        /* \"#utility.yul\":16851:16866   */\n      add\n        /* \"#utility.yul\":16840:16866   */\n      swap2\n      pop\n        /* \"#utility.yul\":16762:16766   */\n      0x20\n        /* \"#utility.yul\":16759:16760   */\n      dup2\n        /* \"#utility.yul\":16755:16767   */\n      add\n        /* \"#utility.yul\":16750:16767   */\n      swap1\n      pop\n        /* \"#utility.yul\":16726:16880   */\n      jump(tag_433)\n    tag_435:\n        /* \"#utility.yul\":16909:16910   */\n      dup1\n        /* \"#utility.yul\":16904:16907   */\n      dup9\n        /* \"#utility.yul\":16900:16911   */\n      add\n        /* \"#utility.yul\":16893:16911   */\n      swap6\n      pop\n        /* \"#utility.yul\":16592:16921   */\n      pop\n      pop\n        /* \"#utility.yul\":16408:16921   */\n    tag_429:\n      pop\n        /* \"#utility.yul\":16224:16927   */\n      pop\n      pop\n        /* \"#utility.yul\":16145:16927   */\n      swap3\n      swap2\n      pop\n      pop\n      jump\t// out\n        /* \"#utility.yul\":16933:17035   */\n    tag_251:\n        /* \"#utility.yul\":16975:16983   */\n      0x00\n        /* \"#utility.yul\":17022:17027   */\n      dup2\n        /* \"#utility.yul\":17019:17020   */\n      0x00\n        /* \"#utility.yul\":17015:17028   */\n      shr\n        /* \"#utility.yul\":16994:17028   */\n      swap1\n      pop\n        /* \"#utility.yul\":16933:17035   */\n      swap2\n      swap1\n      pop\n      jump\t// out\n        /* \"#utility.yul\":17041:17140   */\n    tag_252:\n        /* \"#utility.yul\":17089:17096   */\n      0x00\n        /* \"#utility.yul\":17129:17133   */\n      0xff\n        /* \"#utility.yul\":17122:17127   */\n      dup3\n        /* \"#utility.yul\":17118:17134   */\n      and\n        /* \"#utility.yul\":17107:17134   */\n      swap1\n      pop\n        /* \"#utility.yul\":17041:17140   */\n      swap2\n      swap1\n      pop\n      jump\t// out\n        /* \"#utility.yul\":17146:17308   */\n    tag_253:\n        /* \"#utility.yul\":17213:17218   */\n      0x00\n        /* \"#utility.yul\":17238:17302   */\n      tag_439\n        /* \"#utility.yul\":17267:17301   */\n      tag_440\n        /* \"#utility.yul\":17290:17300   */\n      dup4\n        /* \"#utility.yul\":17267:17301   */\n      tag_251\n      jump\t// in\n    tag_440:\n        /* \"#utility.yul\":17238:17302   */\n      tag_252\n      jump\t// in\n    tag_439:\n        /* \"#utility.yul\":17229:17302   */\n      swap1\n      pop\n        /* \"#utility.yul\":17146:17308   */\n      swap2\n      swap1\n      pop\n      jump\t// out\n        /* \"#utility.yul\":17314:17404   */\n    tag_254:\n        /* \"#utility.yul\":17364:17371   */\n      0x00\n        /* \"#utility.yul\":17393:17398   */\n      dup2\n        /* \"#utility.yul\":17382:17398   */\n      swap1\n      pop\n        /* \"#utility.yul\":17314:17404   */\n      swap2\n      swap1\n      pop\n      jump\t// out\n        /* \"#utility.yul\":17410:17576   */\n    tag_255:\n        /* \"#utility.yul\":17479:17484   */\n      0x00\n        /* \"#utility.yul\":17504:17570   */\n      tag_443\n        /* \"#utility.yul\":17535:17569   */\n      tag_444\n        /* \"#utility.yul\":17558:17568   */\n      dup4\n        /* \"#utility.yul\":17535:17569   */\n      tag_251\n      jump\t// in\n    tag_444:\n        /* \"#utility.yul\":17504:17570   */\n      tag_254\n      jump\t// in\n    tag_443:\n        /* \"#utility.yul\":17495:17570   */\n      swap1\n      pop\n        /* \"#utility.yul\":17410:17576   */\n      swap2\n      swap1\n      pop\n      jump\t// out\n        /* \"#utility.yul\":17638:20041   */\n    tag_256:\n        /* \"#utility.yul\":17744:17747   */\n      0x00\n        /* \"#utility.yul\":17780:17786   */\n      0x0120\n        /* \"#utility.yul\":17775:17778   */\n      dup4\n        /* \"#utility.yul\":17771:17787   */\n      add\n        /* \"#utility.yul\":17813:17814   */\n      0x00\n        /* \"#utility.yul\":17894:17898   */\n      dup1\n        /* \"#utility.yul\":17887:17892   */\n      dup5\n        /* \"#utility.yul\":17883:17899   */\n      add\n        /* \"#utility.yul\":17946:17949   */\n      dup6\n        /* \"#utility.yul\":17940:17944   */\n      dup4\n        /* \"#utility.yul\":17936:17950   */\n      sub\n        /* \"#utility.yul\":17929:17933   */\n      0x00\n        /* \"#utility.yul\":17924:17927   */\n      dup8\n        /* \"#utility.yul\":17920:17934   */\n      add\n        /* \"#utility.yul\":17913:17951   */\n      mstore\n        /* \"#utility.yul\":17972:18042   */\n      tag_446\n        /* \"#utility.yul\":18037:18041   */\n      dup4\n        /* \"#utility.yul\":18023:18035   */\n      dup3\n        /* \"#utility.yul\":17972:18042   */\n      tag_250\n      jump\t// in\n    tag_446:\n        /* \"#utility.yul\":17964:18042   */\n      swap3\n      pop\n        /* \"#utility.yul\":17824:18053   */\n      pop\n        /* \"#utility.yul\":18132:18136   */\n      0x01\n        /* \"#utility.yul\":18125:18130   */\n      dup5\n        /* \"#utility.yul\":18121:18137   */\n      add\n        /* \"#utility.yul\":18184:18187   */\n      dup6\n        /* \"#utility.yul\":18178:18182   */\n      dup4\n        /* \"#utility.yul\":18174:18188   */\n      sub\n        /* \"#utility.yul\":18167:18171   */\n      0x20\n        /* \"#utility.yul\":18162:18165   */\n      dup8\n        /* \"#utility.yul\":18158:18172   */\n      add\n        /* \"#utility.yul\":18151:18189   */\n      mstore\n        /* \"#utility.yul\":18210:18280   */\n      tag_447\n        /* \"#utility.yul\":18275:18279   */\n      dup4\n        /* \"#utility.yul\":18261:18273   */\n      dup3\n        /* \"#utility.yul\":18210:18280   */\n      tag_250\n      jump\t// in\n    tag_447:\n        /* \"#utility.yul\":18202:18280   */\n      swap3\n      pop\n        /* \"#utility.yul\":18063:18291   */\n      pop\n        /* \"#utility.yul\":18370:18374   */\n      0x02\n        /* \"#utility.yul\":18363:18368   */\n      dup5\n        /* \"#utility.yul\":18359:18375   */\n      add\n        /* \"#utility.yul\":18422:18425   */\n      dup6\n        /* \"#utility.yul\":18416:18420   */\n      dup4\n        /* \"#utility.yul\":18412:18426   */\n      sub\n        /* \"#utility.yul\":18405:18409   */\n      0x40\n        /* \"#utility.yul\":18400:18403   */\n      dup8\n        /* \"#utility.yul\":18396:18410   */\n      add\n        /* \"#utility.yul\":18389:18427   */\n      mstore\n        /* \"#utility.yul\":18448:18518   */\n      tag_448\n        /* \"#utility.yul\":18513:18517   */\n      dup4\n        /* \"#utility.yul\":18499:18511   */\n      dup3\n        /* \"#utility.yul\":18448:18518   */\n      tag_250\n      jump\t// in\n    tag_448:\n        /* \"#utility.yul\":18440:18518   */\n      swap3\n      pop\n        /* \"#utility.yul\":18301:18529   */\n      pop\n        /* \"#utility.yul\":18608:18612   */\n      0x03\n        /* \"#utility.yul\":18601:18606   */\n      dup5\n        /* \"#utility.yul\":18597:18613   */\n      add\n        /* \"#utility.yul\":18660:18663   */\n      dup6\n        /* \"#utility.yul\":18654:18658   */\n      dup4\n        /* \"#utility.yul\":18650:18664   */\n      sub\n        /* \"#utility.yul\":18643:18647   */\n      0x60\n        /* \"#utility.yul\":18638:18641   */\n      dup8\n        /* \"#utility.yul\":18634:18648   */\n      add\n        /* \"#utility.yul\":18627:18665   */\n      mstore\n        /* \"#utility.yul\":18686:18756   */\n      tag_449\n        /* \"#utility.yul\":18751:18755   */\n      dup4\n        /* \"#utility.yul\":18737:18749   */\n      dup3\n        /* \"#utility.yul\":18686:18756   */\n      tag_250\n      jump\t// in\n    tag_449:\n        /* \"#utility.yul\":18678:18756   */\n      swap3\n      pop\n        /* \"#utility.yul\":18539:18767   */\n      pop\n        /* \"#utility.yul\":18846:18850   */\n      0x04\n        /* \"#utility.yul\":18839:18844   */\n      dup5\n        /* \"#utility.yul\":18835:18851   */\n      add\n        /* \"#utility.yul\":18898:18901   */\n      dup6\n        /* \"#utility.yul\":18892:18896   */\n      dup4\n        /* \"#utility.yul\":18888:18902   */\n      sub\n        /* \"#utility.yul\":18881:18885   */\n      0x80\n        /* \"#utility.yul\":18876:18879   */\n      dup8\n        /* \"#utility.yul\":18872:18886   */\n      add\n        /* \"#utility.yul\":18865:18903   */\n      mstore\n        /* \"#utility.yul\":18924:18994   */\n      tag_450\n        /* \"#utility.yul\":18989:18993   */\n      dup4\n        /* \"#utility.yul\":18975:18987   */\n      dup3\n        /* \"#utility.yul\":18924:18994   */\n      tag_250\n      jump\t// in\n    tag_450:\n        /* \"#utility.yul\":18916:18994   */\n      swap3\n      pop\n        /* \"#utility.yul\":18777:19005   */\n      pop\n        /* \"#utility.yul\":19081:19085   */\n      0x05\n        /* \"#utility.yul\":19074:19079   */\n      dup5\n        /* \"#utility.yul\":19070:19086   */\n      add\n        /* \"#utility.yul\":19133:19136   */\n      dup6\n        /* \"#utility.yul\":19127:19131   */\n      dup4\n        /* \"#utility.yul\":19123:19137   */\n      sub\n        /* \"#utility.yul\":19116:19120   */\n      0xa0\n        /* \"#utility.yul\":19111:19114   */\n      dup8\n        /* \"#utility.yul\":19107:19121   */\n      add\n        /* \"#utility.yul\":19100:19138   */\n      mstore\n        /* \"#utility.yul\":19159:19229   */\n      tag_451\n        /* \"#utility.yul\":19224:19228   */\n      dup4\n        /* \"#utility.yul\":19210:19222   */\n      dup3\n        /* \"#utility.yul\":19159:19229   */\n      tag_250\n      jump\t// in\n    tag_451:\n        /* \"#utility.yul\":19151:19229   */\n      swap3\n      pop\n        /* \"#utility.yul\":19015:19240   */\n      pop\n        /* \"#utility.yul\":19322:19326   */\n      0x06\n        /* \"#utility.yul\":19315:19320   */\n      dup5\n        /* \"#utility.yul\":19311:19327   */\n      add\n        /* \"#utility.yul\":19305:19328   */\n      sload\n        /* \"#utility.yul\":19292:19328   */\n      swap1\n      pop\n        /* \"#utility.yul\":19361:19414   */\n      tag_452\n        /* \"#utility.yul\":19404:19413   */\n      dup2\n        /* \"#utility.yul\":19361:19414   */\n      tag_253\n      jump\t// in\n    tag_452:\n        /* \"#utility.yul\":19427:19486   */\n      tag_453\n        /* \"#utility.yul\":19480:19484   */\n      0xc0\n        /* \"#utility.yul\":19475:19478   */\n      dup8\n        /* \"#utility.yul\":19471:19485   */\n      add\n        /* \"#utility.yul\":19457:19469   */\n      dup3\n        /* \"#utility.yul\":19427:19486   */\n      tag_230\n      jump\t// in\n    tag_453:\n        /* \"#utility.yul\":19250:19496   */\n      pop\n        /* \"#utility.yul\":19572:19576   */\n      0x07\n        /* \"#utility.yul\":19565:19570   */\n      dup5\n        /* \"#utility.yul\":19561:19577   */\n      add\n        /* \"#utility.yul\":19555:19578   */\n      sload\n        /* \"#utility.yul\":19542:19578   */\n      swap1\n      pop\n        /* \"#utility.yul\":19611:19666   */\n      tag_454\n        /* \"#utility.yul\":19656:19665   */\n      dup2\n        /* \"#utility.yul\":19611:19666   */\n      tag_255\n      jump\t// in\n    tag_454:\n        /* \"#utility.yul\":19679:19742   */\n      tag_455\n        /* \"#utility.yul\":19736:19740   */\n      0xe0\n        /* \"#utility.yul\":19731:19734   */\n      dup8\n        /* \"#utility.yul\":19727:19741   */\n      add\n        /* \"#utility.yul\":19713:19725   */\n      dup3\n        /* \"#utility.yul\":19679:19742   */\n      tag_231\n      jump\t// in\n    tag_455:\n        /* \"#utility.yul\":19506:19752   */\n      pop\n        /* \"#utility.yul\":19832:19836   */\n      0x08\n        /* \"#utility.yul\":19825:19830   */\n      dup5\n        /* \"#utility.yul\":19821:19837   */\n      add\n        /* \"#utility.yul\":19815:19838   */\n      sload\n        /* \"#utility.yul\":19802:19838   */\n      swap1\n      pop\n        /* \"#utility.yul\":19871:19926   */\n      tag_456\n        /* \"#utility.yul\":19916:19925   */\n      dup2\n        /* \"#utility.yul\":19871:19926   */\n      tag_255\n      jump\t// in\n    tag_456:\n        /* \"#utility.yul\":19939:20004   */\n      tag_457\n        /* \"#utility.yul\":19996:20002   */\n      0x0100\n        /* \"#utility.yul\":19991:19994   */\n      dup8\n        /* \"#utility.yul\":19987:20003   */\n      add\n        /* \"#utility.yul\":19973:19985   */\n      dup3\n        /* \"#utility.yul\":19939:20004   */\n      tag_231\n      jump\t// in\n    tag_457:\n        /* \"#utility.yul\":19762:20014   */\n      pop\n        /* \"#utility.yul\":20031:20035   */\n      dup2\n        /* \"#utility.yul\":20024:20035   */\n      swap3\n      pop\n        /* \"#utility.yul\":17749:20041   */\n      pop\n      pop\n        /* \"#utility.yul\":17638:20041   */\n      swap3\n      swap2\n      pop\n      pop\n      jump\t// out\n        /* \"#utility.yul\":20047:20496   */\n    tag_138:\n        /* \"#utility.yul\":20201:20205   */\n      0x00\n        /* \"#utility.yul\":20239:20241   */\n      0x40\n        /* \"#utility.yul\":20228:20237   */\n      dup3\n        /* \"#utility.yul\":20224:20242   */\n      add\n        /* \"#utility.yul\":20216:20242   */\n      swap1\n      pop\n        /* \"#utility.yul\":20288:20297   */\n      dup2\n        /* \"#utility.yul\":20282:20286   */\n      dup2\n        /* \"#utility.yul\":20278:20298   */\n      sub\n        /* \"#utility.yul\":20274:20275   */\n      0x00\n        /* \"#utility.yul\":20263:20272   */\n      dup4\n        /* \"#utility.yul\":20259:20276   */\n      add\n        /* \"#utility.yul\":20252:20299   */\n      mstore\n        /* \"#utility.yul\":20316:20411   */\n      tag_459\n        /* \"#utility.yul\":20406:20410   */\n      dup2\n        /* \"#utility.yul\":20397:20403   */\n      dup6\n        /* \"#utility.yul\":20316:20411   */\n      tag_256\n      jump\t// in\n    tag_459:\n        /* \"#utility.yul\":20308:20411   */\n      swap1\n      pop\n        /* \"#utility.yul\":20421:20489   */\n      tag_460\n        /* \"#utility.yul\":20485:20487   */\n      0x20\n        /* \"#utility.yul\":20474:20483   */\n      dup4\n        /* \"#utility.yul\":20470:20488   */\n      add\n        /* \"#utility.yul\":20461:20467   */\n      dup5\n        /* \"#utility.yul\":20421:20489   */\n      tag_235\n      jump\t// in\n    tag_460:\n        /* \"#utility.yul\":20047:20496   */\n      swap4\n      swap3\n      pop\n      pop\n      pop\n      jump\t// out\n        /* \"#utility.yul\":20502:20727   */\n    tag_257:\n        /* \"#utility.yul\":20642:20676   */\n      0x4f776e61626c653a206e6577206f776e657220697320746865207a65726f2061\n        /* \"#utility.yul\":20638:20639   */\n      0x00\n        /* \"#utility.yul\":20630:20636   */\n      dup3\n        /* \"#utility.yul\":20626:20640   */\n      add\n        /* \"#utility.yul\":20619:20677   */\n      mstore\n        /* \"#utility.yul\":20711:20719   */\n      0x6464726573730000000000000000000000000000000000000000000000000000\n        /* \"#utility.yul\":20706:20708   */\n      0x20\n        /* \"#utility.yul\":20698:20704   */\n      dup3\n        /* \"#utility.yul\":20694:20709   */\n      add\n        /* \"#utility.yul\":20687:20720   */\n      mstore\n        /* \"#utility.yul\":20502:20727   */\n      pop\n      jump\t// out\n        /* \"#utility.yul\":20733:21099   */\n    tag_258:\n        /* \"#utility.yul\":20875:20878   */\n      0x00\n        /* \"#utility.yul\":20896:20963   */\n      tag_463\n        /* \"#utility.yul\":20960:20962   */\n      0x26\n        /* \"#utility.yul\":20955:20958   */\n      dup4\n        /* \"#utility.yul\":20896:20963   */\n      tag_238\n      jump\t// in\n    tag_463:\n        /* \"#utility.yul\":20889:20963   */\n      swap2\n      pop\n        /* \"#utility.yul\":20972:21065   */\n      tag_464\n        /* \"#utility.yul\":21061:21064   */\n      dup3\n        /* \"#utility.yul\":20972:21065   */\n      tag_257\n      jump\t// in\n    tag_464:\n        /* \"#utility.yul\":21090:21092   */\n      0x40\n        /* \"#utility.yul\":21085:21088   */\n      dup3\n        /* \"#utility.yul\":21081:21093   */\n      add\n        /* \"#utility.yul\":21074:21093   */\n      swap1\n      pop\n        /* \"#utility.yul\":20733:21099   */\n      swap2\n      swap1\n      pop\n      jump\t// out\n        /* \"#utility.yul\":21105:21524   */\n    tag_180:\n        /* \"#utility.yul\":21271:21275   */\n      0x00\n        /* \"#utility.yul\":21309:21311   */\n      0x20\n        /* \"#utility.yul\":21298:21307   */\n      dup3\n        /* \"#utility.yul\":21294:21312   */\n      add\n        /* \"#utility.yul\":21286:21312   */\n      swap1\n      pop\n        /* \"#utility.yul\":21358:21367   */\n      dup2\n        /* \"#utility.yul\":21352:21356   */\n      dup2\n        /* \"#utility.yul\":21348:21368   */\n      sub\n        /* \"#utility.yul\":21344:21345   */\n      0x00\n        /* \"#utility.yul\":21333:21342   */\n      dup4\n        /* \"#utility.yul\":21329:21346   */\n      add\n        /* \"#utility.yul\":21322:21369   */\n      mstore\n        /* \"#utility.yul\":21386:21517   */\n      tag_466\n        /* \"#utility.yul\":21512:21516   */\n      dup2\n        /* \"#utility.yul\":21386:21517   */\n      tag_258\n      jump\t// in\n    tag_466:\n        /* \"#utility.yul\":21378:21517   */\n      swap1\n      pop\n        /* \"#utility.yul\":21105:21524   */\n      swap2\n      swap1\n      pop\n      jump\t// out\n\n    auxdata: 0xa264697066735822122048aaa1f59dcea74616d2900894ba58a71f63c47cc22e4b258d2264474f092bb964736f6c634300080e0033\n}\n",
				"bytecode": {
					"linkReferences": {},
					"object": "608060405234801561001057600080fd5b5061002d61002261003260201b60201c565b61003a60201b60201c565b6100fe565b600033905090565b60008060009054906101000a900473ffffffffffffffffffffffffffffffffffffffff169050816000806101000a81548173ffffffffffffffffffffffffffffffffffffffff021916908373ffffffffffffffffffffffffffffffffffffffff1602179055508173ffffffffffffffffffffffffffffffffffffffff168173ffffffffffffffffffffffffffffffffffffffff167f8be0079c531659141344cd1fd0a4f28419497f9722a3daafe3b4186f6b6457e060405160405180910390a35050565b611d068061010d6000396000f3fe608060405234801561001057600080fd5b50600436106100a95760003560e01c8063728b0d8711610071578063728b0d87146101505780638da5cb5b14610180578063a70434b31461019e578063b9360cf1146101ba578063f2fde38b146101eb578063fbb3b6ce14610207576100a9565b80631d3f7559146100ae578063377def85146100ca578063400ae0f9146100e657806351a1d40e14610116578063715018a614610146575b600080fd5b6100c860048036038101906100c391906111fe565b610223565b005b6100e460048036038101906100df91906111fe565b6102ce565b005b61010060048036038101906100fb919061123e565b61036a565b60405161010d91906112ac565b60405180910390f35b610130600480360381019061012b919061123e565b61039d565b60405161013d91906112d6565b60405180910390f35b61014e6103bd565b005b61016a60048036038101906101659190611437565b610445565b604051610177919061161b565b60405180910390f35b6101886108b6565b60405161019591906112ac565b60405180910390f35b6101b860048036038101906101b39190611669565b6108df565b005b6101d460048036038101906101cf919061123e565b610933565b6040516101e29291906116b8565b60405180910390f35b61020560048036038101906102009190611714565b610e1c565b005b610221600480360381019061021c9190611741565b610f13565b005b61022b610fbe565b73ffffffffffffffffffffffffffffffffffffffff166102496108b6565b73ffffffffffffffffffffffffffffffffffffffff161461029f576040517f08c379a0000000000000000000000000000000000000000000000000000000008152600401610296906117fa565b60405180910390fd5b806002600084815260200190815260200160002060006101000a81548160ff0219169083151502179055505050565b813373ffffffffffffffffffffffffffffffffffffffff166004600083815260200190815260200160002060009054906101000a900473ffffffffffffffffffffffffffffffffffffffff1673ffffffffffffffffffffffffffffffffffffffff161461033a57600080fd5b816002600085815260200190815260200160002060006101000a81548160ff021916908315150217905550505050565b60046020528060005260406000206000915054906101000a900473ffffffffffffffffffffffffffffffffffffffff1681565b60026020528060005260406000206000915054906101000a900460ff1681565b6103c5610fbe565b73ffffffffffffffffffffffffffffffffffffffff166103e36108b6565b73ffffffffffffffffffffffffffffffffffffffff1614610439576040517f08c379a0000000000000000000000000000000000000000000000000000000008152600401610430906117fa565b60405180910390fd5b6104436000610fc6565b565b61044d61108a565b600060014361045c9190611849565b90506000838240604051602001610474929190611906565b6040516020818303038152906040528051906020012060001c90506000600180549050826104a2919061195d565b90506000600182815481106104ba576104b961198e565b5b9060005260206000209060090201604051806101200160405290816000820180546104e4906119ec565b80601f0160208091040260200160405190810160405280929190818152602001828054610510906119ec565b801561055d5780601f106105325761010080835404028352916020019161055d565b820191906000526020600020905b81548152906001019060200180831161054057829003601f168201915b50505050508152602001600182018054610576906119ec565b80601f01602080910402602001604051908101604052809291908181526020018280546105a2906119ec565b80156105ef5780601f106105c4576101008083540402835291602001916105ef565b820191906000526020600020905b8154815290600101906020018083116105d257829003601f168201915b50505050508152602001600282018054610608906119ec565b80601f0160208091040260200160405190810160405280929190818152602001828054610634906119ec565b80156106815780601f1061065657610100808354040283529160200191610681565b820191906000526020600020905b81548152906001019060200180831161066457829003601f168201915b5050505050815260200160038201805461069a906119ec565b80601f01602080910402602001604051908101604052809291908181526020018280546106c6906119ec565b80156107135780601f106106e857610100808354040283529160200191610713565b820191906000526020600020905b8154815290600101906020018083116106f657829003601f168201915b5050505050815260200160048201805461072c906119ec565b80601f0160208091040260200160405190810160405280929190818152602001828054610758906119ec565b80156107a55780601f1061077a576101008083540402835291602001916107a5565b820191906000526020600020905b81548152906001019060200180831161078857829003601f168201915b505050505081526020016005820180546107be906119ec565b80601f01602080910402602001604051908101604052809291908181526020018280546107ea906119ec565b80156108375780601f1061080c57610100808354040283529160200191610837565b820191906000526020600020905b81548152906001019060200180831161081a57829003601f168201915b505050505081526020016006820160009054906101000a900460ff1660ff1660ff1681526020016007820154815260200160088201548152505090507febb434edb545766f69737b9159b386efa8edaef27eb5737e074ea04d9bdc7b54816040516108a2919061161b565b60405180910390a180945050505050919050565b60008060009054906101000a900473ffffffffffffffffffffffffffffffffffffffff16905090565b600115156002600084815260200190815260200160002060009054906101000a900460ff1615151461091057600080fd5b6003600083815260200190815260200160002060009054906101000a9050505050565b61093b61108a565b6000823373ffffffffffffffffffffffffffffffffffffffff166004600083815260200190815260200160002060009054906101000a900473ffffffffffffffffffffffffffffffffffffffff1673ffffffffffffffffffffffffffffffffffffffff16146109a957600080fd5b7f1a74486300338ccfc1d22ebc3073195695d7bb84c8326394ea4e38ab4fead21f600185815481106109de576109dd61198e565b5b90600052602060002090600902016003600087815260200190815260200160002060009054906101000a900460ff16604051610a1b929190611c0e565b60405180910390a160018481548110610a3757610a3661198e565b5b90600052602060002090600902016003600086815260200190815260200160002060009054906101000a900460ff168160405180610120016040529081600082018054610a83906119ec565b80601f0160208091040260200160405190810160405280929190818152602001828054610aaf906119ec565b8015610afc5780601f10610ad157610100808354040283529160200191610afc565b820191906000526020600020905b815481529060010190602001808311610adf57829003601f168201915b50505050508152602001600182018054610b15906119ec565b80601f0160208091040260200160405190810160405280929190818152602001828054610b41906119ec565b8015610b8e5780601f10610b6357610100808354040283529160200191610b8e565b820191906000526020600020905b815481529060010190602001808311610b7157829003601f168201915b50505050508152602001600282018054610ba7906119ec565b80601f0160208091040260200160405190810160405280929190818152602001828054610bd3906119ec565b8015610c205780601f10610bf557610100808354040283529160200191610c20565b820191906000526020600020905b815481529060010190602001808311610c0357829003601f168201915b50505050508152602001600382018054610c39906119ec565b80601f0160208091040260200160405190810160405280929190818152602001828054610c65906119ec565b8015610cb25780601f10610c8757610100808354040283529160200191610cb2565b820191906000526020600020905b815481529060010190602001808311610c9557829003601f168201915b50505050508152602001600482018054610ccb906119ec565b80601f0160208091040260200160405190810160405280929190818152602001828054610cf7906119ec565b8015610d445780601f10610d1957610100808354040283529160200191610d44565b820191906000526020600020905b815481529060010190602001808311610d2757829003601f168201915b50505050508152602001600582018054610d5d906119ec565b80601f0160208091040260200160405190810160405280929190818152602001828054610d89906119ec565b8015610dd65780601f10610dab57610100808354040283529160200191610dd6565b820191906000526020600020905b815481529060010190602001808311610db957829003601f168201915b505050505081526020016006820160009054906101000a900460ff1660ff1660ff1681526020016007820154815260200160088201548152505091509250925050915091565b610e24610fbe565b73ffffffffffffffffffffffffffffffffffffffff16610e426108b6565b73ffffffffffffffffffffffffffffffffffffffff1614610e98576040517f08c379a0000000000000000000000000000000000000000000000000000000008152600401610e8f906117fa565b60405180910390fd5b600073ffffffffffffffffffffffffffffffffffffffff168173ffffffffffffffffffffffffffffffffffffffff1603610f07576040517f08c379a0000000000000000000000000000000000000000000000000000000008152600401610efe90611cb0565b60405180910390fd5b610f1081610fc6565b50565b813373ffffffffffffffffffffffffffffffffffffffff166004600083815260200190815260200160002060009054906101000a900473ffffffffffffffffffffffffffffffffffffffff1673ffffffffffffffffffffffffffffffffffffffff1614610f7f57600080fd5b8160018481548110610f9457610f9361198e565b5b90600052602060002090600902016005019080519060200190610fb89291906110d9565b50505050565b600033905090565b60008060009054906101000a900473ffffffffffffffffffffffffffffffffffffffff169050816000806101000a81548173ffffffffffffffffffffffffffffffffffffffff021916908373ffffffffffffffffffffffffffffffffffffffff1602179055508173ffffffffffffffffffffffffffffffffffffffff168173ffffffffffffffffffffffffffffffffffffffff167f8be0079c531659141344cd1fd0a4f28419497f9722a3daafe3b4186f6b6457e060405160405180910390a35050565b604051806101200160405280606081526020016060815260200160608152602001606081526020016060815260200160608152602001600060ff16815260200160008152602001600081525090565b8280546110e5906119ec565b90600052602060002090601f016020900481019282611107576000855561114e565b82601f1061112057805160ff191683800117855561114e565b8280016001018555821561114e579182015b8281111561114d578251825591602001919060010190611132565b5b50905061115b919061115f565b5090565b5b80821115611178576000816000905550600101611160565b5090565b6000604051905090565b600080fd5b600080fd5b6000819050919050565b6111a381611190565b81146111ae57600080fd5b50565b6000813590506111c08161119a565b92915050565b60008115159050919050565b6111db816111c6565b81146111e657600080fd5b50565b6000813590506111f8816111d2565b92915050565b6000806040838503121561121557611214611186565b5b6000611223858286016111b1565b9250506020611234858286016111e9565b9150509250929050565b60006020828403121561125457611253611186565b5b6000611262848285016111b1565b91505092915050565b600073ffffffffffffffffffffffffffffffffffffffff82169050919050565b60006112968261126b565b9050919050565b6112a68161128b565b82525050565b60006020820190506112c1600083018461129d565b92915050565b6112d0816111c6565b82525050565b60006020820190506112eb60008301846112c7565b92915050565b600080fd5b600080fd5b6000601f19601f8301169050919050565b7f4e487b7100000000000000000000000000000000000000000000000000000000600052604160045260246000fd5b611344826112fb565b810181811067ffffffffffffffff821117156113635761136261130c565b5b80604052505050565b600061137661117c565b9050611382828261133b565b919050565b600067ffffffffffffffff8211156113a2576113a161130c565b5b6113ab826112fb565b9050602081019050919050565b82818337600083830152505050565b60006113da6113d584611387565b61136c565b9050828152602081018484840111156113f6576113f56112f6565b5b6114018482856113b8565b509392505050565b600082601f83011261141e5761141d6112f1565b5b813561142e8482602086016113c7565b91505092915050565b60006020828403121561144d5761144c611186565b5b600082013567ffffffffffffffff81111561146b5761146a61118b565b5b61147784828501611409565b91505092915050565b600081519050919050565b600082825260208201905092915050565b60005b838110156114ba57808201518184015260208101905061149f565b838111156114c9576000848401525b50505050565b60006114da82611480565b6114e4818561148b565b93506114f481856020860161149c565b6114fd816112fb565b840191505092915050565b600060ff82169050919050565b61151e81611508565b82525050565b61152d81611190565b82525050565b600061012083016000830151848203600086015261155182826114cf565b9150506020830151848203602086015261156b82826114cf565b9150506040830151848203604086015261158582826114cf565b9150506060830151848203606086015261159f82826114cf565b915050608083015184820360808601526115b982826114cf565b91505060a083015184820360a08601526115d382826114cf565b91505060c08301516115e860c0860182611515565b5060e08301516115fb60e0860182611524565b50610100830151611610610100860182611524565b508091505092915050565b600060208201905081810360008301526116358184611533565b905092915050565b61164681611508565b811461165157600080fd5b50565b6000813590506116638161163d565b92915050565b600080604083850312156116805761167f611186565b5b600061168e858286016111b1565b925050602061169f85828601611654565b9150509250929050565b6116b281611508565b82525050565b600060408201905081810360008301526116d28185611533565b90506116e160208301846116a9565b9392505050565b6116f18161128b565b81146116fc57600080fd5b50565b60008135905061170e816116e8565b92915050565b60006020828403121561172a57611729611186565b5b6000611738848285016116ff565b91505092915050565b6000806040838503121561175857611757611186565b5b6000611766858286016111b1565b925050602083013567ffffffffffffffff8111156117875761178661118b565b5b61179385828601611409565b9150509250929050565b600082825260208201905092915050565b7f4f776e61626c653a2063616c6c6572206973206e6f7420746865206f776e6572600082015250565b60006117e460208361179d565b91506117ef826117ae565b602082019050919050565b60006020820190508181036000830152611813816117d7565b9050919050565b7f4e487b7100000000000000000000000000000000000000000000000000000000600052601160045260246000fd5b600061185482611190565b915061185f83611190565b9250827fffffffffffffffffffffffffffffffffffffffffffffffffffffffffffffffff038211156118945761189361181a565b5b828201905092915050565b600081905092915050565b60006118b582611480565b6118bf818561189f565b93506118cf81856020860161149c565b80840191505092915050565b6000819050919050565b6000819050919050565b6119006118fb826118db565b6118e5565b82525050565b600061191282856118aa565b915061191e82846118ef565b6020820191508190509392505050565b7f4e487b7100000000000000000000000000000000000000000000000000000000600052601260045260246000fd5b600061196882611190565b915061197383611190565b9250826119835761198261192e565b5b828206905092915050565b7f4e487b7100000000000000000000000000000000000000000000000000000000600052603260045260246000fd5b7f4e487b7100000000000000000000000000000000000000000000000000000000600052602260045260246000fd5b60006002820490506001821680611a0457607f821691505b602082108103611a1757611a166119bd565b5b50919050565b60008190508160005260206000209050919050565b60008154611a3f816119ec565b611a49818661148b565b94506001821660008114611a645760018114611a7657611aa9565b60ff1983168652602086019350611aa9565b611a7f85611a1d565b60005b83811015611aa157815481890152600182019150602081019050611a82565b808801955050505b50505092915050565b60008160001c9050919050565b600060ff82169050919050565b6000611adf611ada83611ab2565b611abf565b9050919050565b6000819050919050565b6000611b03611afe83611ab2565b611ae6565b9050919050565b6000610120830160008084018583036000870152611b288382611a32565b925050600184018583036020870152611b418382611a32565b925050600284018583036040870152611b5a8382611a32565b925050600384018583036060870152611b738382611a32565b925050600484018583036080870152611b8c8382611a32565b9250506005840185830360a0870152611ba58382611a32565b92505060068401549050611bb881611acc565b611bc560c0870182611515565b5060078401549050611bd681611af0565b611be360e0870182611524565b5060088401549050611bf481611af0565b611c02610100870182611524565b50819250505092915050565b60006040820190508181036000830152611c288185611b0a565b9050611c3760208301846116a9565b9392505050565b7f4f776e61626c653a206e6577206f776e657220697320746865207a65726f206160008201527f6464726573730000000000000000000000000000000000000000000000000000602082015250565b6000611c9a60268361179d565b9150611ca582611c3e565b604082019050919050565b60006020820190508181036000830152611cc981611c8d565b905091905056fea264697066735822122048aaa1f59dcea74616d2900894ba58a71f63c47cc22e4b258d2264474f092bb964736f6c634300080e0033",
					"opcodes": "PUSH1 0x80 PUSH1 0x40 MSTORE CALLVALUE DUP1 ISZERO PUSH2 0x10 JUMPI PUSH1 0x0 DUP1 REVERT JUMPDEST POP PUSH2 0x2D PUSH2 0x22 PUSH2 0x32 PUSH1 0x20 SHL PUSH1 0x20 SHR JUMP JUMPDEST PUSH2 0x3A PUSH1 0x20 SHL PUSH1 0x20 SHR JUMP JUMPDEST PUSH2 0xFE JUMP JUMPDEST PUSH1 0x0 CALLER SWAP1 POP SWAP1 JUMP JUMPDEST PUSH1 0x0 DUP1 PUSH1 0x0 SWAP1 SLOAD SWAP1 PUSH2 0x100 EXP SWAP1 DIV PUSH20 0xFFFFFFFFFFFFFFFFFFFFFFFFFFFFFFFFFFFFFFFF AND SWAP1 POP DUP2 PUSH1 0x0 DUP1 PUSH2 0x100 EXP DUP2 SLOAD DUP2 PUSH20 0xFFFFFFFFFFFFFFFFFFFFFFFFFFFFFFFFFFFFFFFF MUL NOT AND SWAP1 DUP4 PUSH20 0xFFFFFFFFFFFFFFFFFFFFFFFFFFFFFFFFFFFFFFFF AND MUL OR SWAP1 SSTORE POP DUP2 PUSH20 0xFFFFFFFFFFFFFFFFFFFFFFFFFFFFFFFFFFFFFFFF AND DUP2 PUSH20 0xFFFFFFFFFFFFFFFFFFFFFFFFFFFFFFFFFFFFFFFF AND PUSH32 0x8BE0079C531659141344CD1FD0A4F28419497F9722A3DAAFE3B4186F6B6457E0 PUSH1 0x40 MLOAD PUSH1 0x40 MLOAD DUP1 SWAP2 SUB SWAP1 LOG3 POP POP JUMP JUMPDEST PUSH2 0x1D06 DUP1 PUSH2 0x10D PUSH1 0x0 CODECOPY PUSH1 0x0 RETURN INVALID PUSH1 0x80 PUSH1 0x40 MSTORE CALLVALUE DUP1 ISZERO PUSH2 0x10 JUMPI PUSH1 0x0 DUP1 REVERT JUMPDEST POP PUSH1 0x4 CALLDATASIZE LT PUSH2 0xA9 JUMPI PUSH1 0x0 CALLDATALOAD PUSH1 0xE0 SHR DUP1 PUSH4 0x728B0D87 GT PUSH2 0x71 JUMPI DUP1 PUSH4 0x728B0D87 EQ PUSH2 0x150 JUMPI DUP1 PUSH4 0x8DA5CB5B EQ PUSH2 0x180 JUMPI DUP1 PUSH4 0xA70434B3 EQ PUSH2 0x19E JUMPI DUP1 PUSH4 0xB9360CF1 EQ PUSH2 0x1BA JUMPI DUP1 PUSH4 0xF2FDE38B EQ PUSH2 0x1EB JUMPI DUP1 PUSH4 0xFBB3B6CE EQ PUSH2 0x207 JUMPI PUSH2 0xA9 JUMP JUMPDEST DUP1 PUSH4 0x1D3F7559 EQ PUSH2 0xAE JUMPI DUP1 PUSH4 0x377DEF85 EQ PUSH2 0xCA JUMPI DUP1 PUSH4 0x400AE0F9 EQ PUSH2 0xE6 JUMPI DUP1 PUSH4 0x51A1D40E EQ PUSH2 0x116 JUMPI DUP1 PUSH4 0x715018A6 EQ PUSH2 0x146 JUMPI JUMPDEST PUSH1 0x0 DUP1 REVERT JUMPDEST PUSH2 0xC8 PUSH1 0x4 DUP1 CALLDATASIZE SUB DUP2 ADD SWAP1 PUSH2 0xC3 SWAP2 SWAP1 PUSH2 0x11FE JUMP JUMPDEST PUSH2 0x223 JUMP JUMPDEST STOP JUMPDEST PUSH2 0xE4 PUSH1 0x4 DUP1 CALLDATASIZE SUB DUP2 ADD SWAP1 PUSH2 0xDF SWAP2 SWAP1 PUSH2 0x11FE JUMP JUMPDEST PUSH2 0x2CE JUMP JUMPDEST STOP JUMPDEST PUSH2 0x100 PUSH1 0x4 DUP1 CALLDATASIZE SUB DUP2 ADD SWAP1 PUSH2 0xFB SWAP2 SWAP1 PUSH2 0x123E JUMP JUMPDEST PUSH2 0x36A JUMP JUMPDEST PUSH1 0x40 MLOAD PUSH2 0x10D SWAP2 SWAP1 PUSH2 0x12AC JUMP JUMPDEST PUSH1 0x40 MLOAD DUP1 SWAP2 SUB SWAP1 RETURN JUMPDEST PUSH2 0x130 PUSH1 0x4 DUP1 CALLDATASIZE SUB DUP2 ADD SWAP1 PUSH2 0x12B SWAP2 SWAP1 PUSH2 0x123E JUMP JUMPDEST PUSH2 0x39D JUMP JUMPDEST PUSH1 0x40 MLOAD PUSH2 0x13D SWAP2 SWAP1 PUSH2 0x12D6 JUMP JUMPDEST PUSH1 0x40 MLOAD DUP1 SWAP2 SUB SWAP1 RETURN JUMPDEST PUSH2 0x14E PUSH2 0x3BD JUMP JUMPDEST STOP JUMPDEST PUSH2 0x16A PUSH1 0x4 DUP1 CALLDATASIZE SUB DUP2 ADD SWAP1 PUSH2 0x165 SWAP2 SWAP1 PUSH2 0x1437 JUMP JUMPDEST PUSH2 0x445 JUMP JUMPDEST PUSH1 0x40 MLOAD PUSH2 0x177 SWAP2 SWAP1 PUSH2 0x161B JUMP JUMPDEST PUSH1 0x40 MLOAD DUP1 SWAP2 SUB SWAP1 RETURN JUMPDEST PUSH2 0x188 PUSH2 0x8B6 JUMP JUMPDEST PUSH1 0x40 MLOAD PUSH2 0x195 SWAP2 SWAP1 PUSH2 0x12AC JUMP JUMPDEST PUSH1 0x40 MLOAD DUP1 SWAP2 SUB SWAP1 RETURN JUMPDEST PUSH2 0x1B8 PUSH1 0x4 DUP1 CALLDATASIZE SUB DUP2 ADD SWAP1 PUSH2 0x1B3 SWAP2 SWAP1 PUSH2 0x1669 JUMP JUMPDEST PUSH2 0x8DF JUMP JUMPDEST STOP JUMPDEST PUSH2 0x1D4 PUSH1 0x4 DUP1 CALLDATASIZE SUB DUP2 ADD SWAP1 PUSH2 0x1CF SWAP2 SWAP1 PUSH2 0x123E JUMP JUMPDEST PUSH2 0x933 JUMP JUMPDEST PUSH1 0x40 MLOAD PUSH2 0x1E2 SWAP3 SWAP2 SWAP1 PUSH2 0x16B8 JUMP JUMPDEST PUSH1 0x40 MLOAD DUP1 SWAP2 SUB SWAP1 RETURN JUMPDEST PUSH2 0x205 PUSH1 0x4 DUP1 CALLDATASIZE SUB DUP2 ADD SWAP1 PUSH2 0x200 SWAP2 SWAP1 PUSH2 0x1714 JUMP JUMPDEST PUSH2 0xE1C JUMP JUMPDEST STOP JUMPDEST PUSH2 0x221 PUSH1 0x4 DUP1 CALLDATASIZE SUB DUP2 ADD SWAP1 PUSH2 0x21C SWAP2 SWAP1 PUSH2 0x1741 JUMP JUMPDEST PUSH2 0xF13 JUMP JUMPDEST STOP JUMPDEST PUSH2 0x22B PUSH2 0xFBE JUMP JUMPDEST PUSH20 0xFFFFFFFFFFFFFFFFFFFFFFFFFFFFFFFFFFFFFFFF AND PUSH2 0x249 PUSH2 0x8B6 JUMP JUMPDEST PUSH20 0xFFFFFFFFFFFFFFFFFFFFFFFFFFFFFFFFFFFFFFFF AND EQ PUSH2 0x29F JUMPI PUSH1 0x40 MLOAD PUSH32 0x8C379A000000000000000000000000000000000000000000000000000000000 DUP2 MSTORE PUSH1 0x4 ADD PUSH2 0x296 SWAP1 PUSH2 0x17FA JUMP JUMPDEST PUSH1 0x40 MLOAD DUP1 SWAP2 SUB SWAP1 REVERT JUMPDEST DUP1 PUSH1 0x2 PUSH1 0x0 DUP5 DUP2 MSTORE PUSH1 0x20 ADD SWAP1 DUP2 MSTORE PUSH1 0x20 ADD PUSH1 0x0 KECCAK256 PUSH1 0x0 PUSH2 0x100 EXP DUP2 SLOAD DUP2 PUSH1 0xFF MUL NOT AND SWAP1 DUP4 ISZERO ISZERO MUL OR SWAP1 SSTORE POP POP POP JUMP JUMPDEST DUP2 CALLER PUSH20 0xFFFFFFFFFFFFFFFFFFFFFFFFFFFFFFFFFFFFFFFF AND PUSH1 0x4 PUSH1 0x0 DUP4 DUP2 MSTORE PUSH1 0x20 ADD SWAP1 DUP2 MSTORE PUSH1 0x20 ADD PUSH1 0x0 KECCAK256 PUSH1 0x0 SWAP1 SLOAD SWAP1 PUSH2 0x100 EXP SWAP1 DIV PUSH20 0xFFFFFFFFFFFFFFFFFFFFFFFFFFFFFFFFFFFFFFFF AND PUSH20 0xFFFFFFFFFFFFFFFFFFFFFFFFFFFFFFFFFFFFFFFF AND EQ PUSH2 0x33A JUMPI PUSH1 0x0 DUP1 REVERT JUMPDEST DUP2 PUSH1 0x2 PUSH1 0x0 DUP6 DUP2 MSTORE PUSH1 0x20 ADD SWAP1 DUP2 MSTORE PUSH1 0x20 ADD PUSH1 0x0 KECCAK256 PUSH1 0x0 PUSH2 0x100 EXP DUP2 SLOAD DUP2 PUSH1 0xFF MUL NOT AND SWAP1 DUP4 ISZERO ISZERO MUL OR SWAP1 SSTORE POP POP POP POP JUMP JUMPDEST PUSH1 0x4 PUSH1 0x20 MSTORE DUP1 PUSH1 0x0 MSTORE PUSH1 0x40 PUSH1 0x0 KECCAK256 PUSH1 0x0 SWAP2 POP SLOAD SWAP1 PUSH2 0x100 EXP SWAP1 DIV PUSH20 0xFFFFFFFFFFFFFFFFFFFFFFFFFFFFFFFFFFFFFFFF AND DUP2 JUMP JUMPDEST PUSH1 0x2 PUSH1 0x20 MSTORE DUP1 PUSH1 0x0 MSTORE PUSH1 0x40 PUSH1 0x0 KECCAK256 PUSH1 0x0 SWAP2 POP SLOAD SWAP1 PUSH2 0x100 EXP SWAP1 DIV PUSH1 0xFF AND DUP2 JUMP JUMPDEST PUSH2 0x3C5 PUSH2 0xFBE JUMP JUMPDEST PUSH20 0xFFFFFFFFFFFFFFFFFFFFFFFFFFFFFFFFFFFFFFFF AND PUSH2 0x3E3 PUSH2 0x8B6 JUMP JUMPDEST PUSH20 0xFFFFFFFFFFFFFFFFFFFFFFFFFFFFFFFFFFFFFFFF AND EQ PUSH2 0x439 JUMPI PUSH1 0x40 MLOAD PUSH32 0x8C379A000000000000000000000000000000000000000000000000000000000 DUP2 MSTORE PUSH1 0x4 ADD PUSH2 0x430 SWAP1 PUSH2 0x17FA JUMP JUMPDEST PUSH1 0x40 MLOAD DUP1 SWAP2 SUB SWAP1 REVERT JUMPDEST PUSH2 0x443 PUSH1 0x0 PUSH2 0xFC6 JUMP JUMPDEST JUMP JUMPDEST PUSH2 0x44D PUSH2 0x108A JUMP JUMPDEST PUSH1 0x0 PUSH1 0x1 NUMBER PUSH2 0x45C SWAP2 SWAP1 PUSH2 0x1849 JUMP JUMPDEST SWAP1 POP PUSH1 0x0 DUP4 DUP3 BLOCKHASH PUSH1 0x40 MLOAD PUSH1 0x20 ADD PUSH2 0x474 SWAP3 SWAP2 SWAP1 PUSH2 0x1906 JUMP JUMPDEST PUSH1 0x40 MLOAD PUSH1 0x20 DUP2 DUP4 SUB SUB DUP2 MSTORE SWAP1 PUSH1 0x40 MSTORE DUP1 MLOAD SWAP1 PUSH1 0x20 ADD KECCAK256 PUSH1 0x0 SHR SWAP1 POP PUSH1 0x0 PUSH1 0x1 DUP1 SLOAD SWAP1 POP DUP3 PUSH2 0x4A2 SWAP2 SWAP1 PUSH2 0x195D JUMP JUMPDEST SWAP1 POP PUSH1 0x0 PUSH1 0x1 DUP3 DUP2 SLOAD DUP2 LT PUSH2 0x4BA JUMPI PUSH2 0x4B9 PUSH2 0x198E JUMP JUMPDEST JUMPDEST SWAP1 PUSH1 0x0 MSTORE PUSH1 0x20 PUSH1 0x0 KECCAK256 SWAP1 PUSH1 0x9 MUL ADD PUSH1 0x40 MLOAD DUP1 PUSH2 0x120 ADD PUSH1 0x40 MSTORE SWAP1 DUP2 PUSH1 0x0 DUP3 ADD DUP1 SLOAD PUSH2 0x4E4 SWAP1 PUSH2 0x19EC JUMP JUMPDEST DUP1 PUSH1 0x1F ADD PUSH1 0x20 DUP1 SWAP2 DIV MUL PUSH1 0x20 ADD PUSH1 0x40 MLOAD SWAP1 DUP2 ADD PUSH1 0x40 MSTORE DUP1 SWAP3 SWAP2 SWAP1 DUP2 DUP2 MSTORE PUSH1 0x20 ADD DUP3 DUP1 SLOAD PUSH2 0x510 SWAP1 PUSH2 0x19EC JUMP JUMPDEST DUP1 ISZERO PUSH2 0x55D JUMPI DUP1 PUSH1 0x1F LT PUSH2 0x532 JUMPI PUSH2 0x100 DUP1 DUP4 SLOAD DIV MUL DUP4 MSTORE SWAP2 PUSH1 0x20 ADD SWAP2 PUSH2 0x55D JUMP JUMPDEST DUP3 ADD SWAP2 SWAP1 PUSH1 0x0 MSTORE PUSH1 0x20 PUSH1 0x0 KECCAK256 SWAP1 JUMPDEST DUP2 SLOAD DUP2 MSTORE SWAP1 PUSH1 0x1 ADD SWAP1 PUSH1 0x20 ADD DUP1 DUP4 GT PUSH2 0x540 JUMPI DUP3 SWAP1 SUB PUSH1 0x1F AND DUP3 ADD SWAP2 JUMPDEST POP POP POP POP POP DUP2 MSTORE PUSH1 0x20 ADD PUSH1 0x1 DUP3 ADD DUP1 SLOAD PUSH2 0x576 SWAP1 PUSH2 0x19EC JUMP JUMPDEST DUP1 PUSH1 0x1F ADD PUSH1 0x20 DUP1 SWAP2 DIV MUL PUSH1 0x20 ADD PUSH1 0x40 MLOAD SWAP1 DUP2 ADD PUSH1 0x40 MSTORE DUP1 SWAP3 SWAP2 SWAP1 DUP2 DUP2 MSTORE PUSH1 0x20 ADD DUP3 DUP1 SLOAD PUSH2 0x5A2 SWAP1 PUSH2 0x19EC JUMP JUMPDEST DUP1 ISZERO PUSH2 0x5EF JUMPI DUP1 PUSH1 0x1F LT PUSH2 0x5C4 JUMPI PUSH2 0x100 DUP1 DUP4 SLOAD DIV MUL DUP4 MSTORE SWAP2 PUSH1 0x20 ADD SWAP2 PUSH2 0x5EF JUMP JUMPDEST DUP3 ADD SWAP2 SWAP1 PUSH1 0x0 MSTORE PUSH1 0x20 PUSH1 0x0 KECCAK256 SWAP1 JUMPDEST DUP2 SLOAD DUP2 MSTORE SWAP1 PUSH1 0x1 ADD SWAP1 PUSH1 0x20 ADD DUP1 DUP4 GT PUSH2 0x5D2 JUMPI DUP3 SWAP1 SUB PUSH1 0x1F AND DUP3 ADD SWAP2 JUMPDEST POP POP POP POP POP DUP2 MSTORE PUSH1 0x20 ADD PUSH1 0x2 DUP3 ADD DUP1 SLOAD PUSH2 0x608 SWAP1 PUSH2 0x19EC JUMP JUMPDEST DUP1 PUSH1 0x1F ADD PUSH1 0x20 DUP1 SWAP2 DIV MUL PUSH1 0x20 ADD PUSH1 0x40 MLOAD SWAP1 DUP2 ADD PUSH1 0x40 MSTORE DUP1 SWAP3 SWAP2 SWAP1 DUP2 DUP2 MSTORE PUSH1 0x20 ADD DUP3 DUP1 SLOAD PUSH2 0x634 SWAP1 PUSH2 0x19EC JUMP JUMPDEST DUP1 ISZERO PUSH2 0x681 JUMPI DUP1 PUSH1 0x1F LT PUSH2 0x656 JUMPI PUSH2 0x100 DUP1 DUP4 SLOAD DIV MUL DUP4 MSTORE SWAP2 PUSH1 0x20 ADD SWAP2 PUSH2 0x681 JUMP JUMPDEST DUP3 ADD SWAP2 SWAP1 PUSH1 0x0 MSTORE PUSH1 0x20 PUSH1 0x0 KECCAK256 SWAP1 JUMPDEST DUP2 SLOAD DUP2 MSTORE SWAP1 PUSH1 0x1 ADD SWAP1 PUSH1 0x20 ADD DUP1 DUP4 GT PUSH2 0x664 JUMPI DUP3 SWAP1 SUB PUSH1 0x1F AND DUP3 ADD SWAP2 JUMPDEST POP POP POP POP POP DUP2 MSTORE PUSH1 0x20 ADD PUSH1 0x3 DUP3 ADD DUP1 SLOAD PUSH2 0x69A SWAP1 PUSH2 0x19EC JUMP JUMPDEST DUP1 PUSH1 0x1F ADD PUSH1 0x20 DUP1 SWAP2 DIV MUL PUSH1 0x20 ADD PUSH1 0x40 MLOAD SWAP1 DUP2 ADD PUSH1 0x40 MSTORE DUP1 SWAP3 SWAP2 SWAP1 DUP2 DUP2 MSTORE PUSH1 0x20 ADD DUP3 DUP1 SLOAD PUSH2 0x6C6 SWAP1 PUSH2 0x19EC JUMP JUMPDEST DUP1 ISZERO PUSH2 0x713 JUMPI DUP1 PUSH1 0x1F LT PUSH2 0x6E8 JUMPI PUSH2 0x100 DUP1 DUP4 SLOAD DIV MUL DUP4 MSTORE SWAP2 PUSH1 0x20 ADD SWAP2 PUSH2 0x713 JUMP JUMPDEST DUP3 ADD SWAP2 SWAP1 PUSH1 0x0 MSTORE PUSH1 0x20 PUSH1 0x0 KECCAK256 SWAP1 JUMPDEST DUP2 SLOAD DUP2 MSTORE SWAP1 PUSH1 0x1 ADD SWAP1 PUSH1 0x20 ADD DUP1 DUP4 GT PUSH2 0x6F6 JUMPI DUP3 SWAP1 SUB PUSH1 0x1F AND DUP3 ADD SWAP2 JUMPDEST POP POP POP POP POP DUP2 MSTORE PUSH1 0x20 ADD PUSH1 0x4 DUP3 ADD DUP1 SLOAD PUSH2 0x72C SWAP1 PUSH2 0x19EC JUMP JUMPDEST DUP1 PUSH1 0x1F ADD PUSH1 0x20 DUP1 SWAP2 DIV MUL PUSH1 0x20 ADD PUSH1 0x40 MLOAD SWAP1 DUP2 ADD PUSH1 0x40 MSTORE DUP1 SWAP3 SWAP2 SWAP1 DUP2 DUP2 MSTORE PUSH1 0x20 ADD DUP3 DUP1 SLOAD PUSH2 0x758 SWAP1 PUSH2 0x19EC JUMP JUMPDEST DUP1 ISZERO PUSH2 0x7A5 JUMPI DUP1 PUSH1 0x1F LT PUSH2 0x77A JUMPI PUSH2 0x100 DUP1 DUP4 SLOAD DIV MUL DUP4 MSTORE SWAP2 PUSH1 0x20 ADD SWAP2 PUSH2 0x7A5 JUMP JUMPDEST DUP3 ADD SWAP2 SWAP1 PUSH1 0x0 MSTORE PUSH1 0x20 PUSH1 0x0 KECCAK256 SWAP1 JUMPDEST DUP2 SLOAD DUP2 MSTORE SWAP1 PUSH1 0x1 ADD SWAP1 PUSH1 0x20 ADD DUP1 DUP4 GT PUSH2 0x788 JUMPI DUP3 SWAP1 SUB PUSH1 0x1F AND DUP3 ADD SWAP2 JUMPDEST POP POP POP POP POP DUP2 MSTORE PUSH1 0x20 ADD PUSH1 0x5 DUP3 ADD DUP1 SLOAD PUSH2 0x7BE SWAP1 PUSH2 0x19EC JUMP JUMPDEST DUP1 PUSH1 0x1F ADD PUSH1 0x20 DUP1 SWAP2 DIV MUL PUSH1 0x20 ADD PUSH1 0x40 MLOAD SWAP1 DUP2 ADD PUSH1 0x40 MSTORE DUP1 SWAP3 SWAP2 SWAP1 DUP2 DUP2 MSTORE PUSH1 0x20 ADD DUP3 DUP1 SLOAD PUSH2 0x7EA SWAP1 PUSH2 0x19EC JUMP JUMPDEST DUP1 ISZERO PUSH2 0x837 JUMPI DUP1 PUSH1 0x1F LT PUSH2 0x80C JUMPI PUSH2 0x100 DUP1 DUP4 SLOAD DIV MUL DUP4 MSTORE SWAP2 PUSH1 0x20 ADD SWAP2 PUSH2 0x837 JUMP JUMPDEST DUP3 ADD SWAP2 SWAP1 PUSH1 0x0 MSTORE PUSH1 0x20 PUSH1 0x0 KECCAK256 SWAP1 JUMPDEST DUP2 SLOAD DUP2 MSTORE SWAP1 PUSH1 0x1 ADD SWAP1 PUSH1 0x20 ADD DUP1 DUP4 GT PUSH2 0x81A JUMPI DUP3 SWAP1 SUB PUSH1 0x1F AND DUP3 ADD SWAP2 JUMPDEST POP POP POP POP POP DUP2 MSTORE PUSH1 0x20 ADD PUSH1 0x6 DUP3 ADD PUSH1 0x0 SWAP1 SLOAD SWAP1 PUSH2 0x100 EXP SWAP1 DIV PUSH1 0xFF AND PUSH1 0xFF AND PUSH1 0xFF AND DUP2 MSTORE PUSH1 0x20 ADD PUSH1 0x7 DUP3 ADD SLOAD DUP2 MSTORE PUSH1 0x20 ADD PUSH1 0x8 DUP3 ADD SLOAD DUP2 MSTORE POP POP SWAP1 POP PUSH32 0xEBB434EDB545766F69737B9159B386EFA8EDAEF27EB5737E074EA04D9BDC7B54 DUP2 PUSH1 0x40 MLOAD PUSH2 0x8A2 SWAP2 SWAP1 PUSH2 0x161B JUMP JUMPDEST PUSH1 0x40 MLOAD DUP1 SWAP2 SUB SWAP1 LOG1 DUP1 SWAP5 POP POP POP POP POP SWAP2 SWAP1 POP JUMP JUMPDEST PUSH1 0x0 DUP1 PUSH1 0x0 SWAP1 SLOAD SWAP1 PUSH2 0x100 EXP SWAP1 DIV PUSH20 0xFFFFFFFFFFFFFFFFFFFFFFFFFFFFFFFFFFFFFFFF AND SWAP1 POP SWAP1 JUMP JUMPDEST PUSH1 0x1 ISZERO ISZERO PUSH1 0x2 PUSH1 0x0 DUP5 DUP2 MSTORE PUSH1 0x20 ADD SWAP1 DUP2 MSTORE PUSH1 0x20 ADD PUSH1 0x0 KECCAK256 PUSH1 0x0 SWAP1 SLOAD SWAP1 PUSH2 0x100 EXP SWAP1 DIV PUSH1 0xFF AND ISZERO ISZERO EQ PUSH2 0x910 JUMPI PUSH1 0x0 DUP1 REVERT JUMPDEST PUSH1 0x3 PUSH1 0x0 DUP4 DUP2 MSTORE PUSH1 0x20 ADD SWAP1 DUP2 MSTORE PUSH1 0x20 ADD PUSH1 0x0 KECCAK256 PUSH1 0x0 SWAP1 SLOAD SWAP1 PUSH2 0x100 EXP SWAP1 POP POP POP POP JUMP JUMPDEST PUSH2 0x93B PUSH2 0x108A JUMP JUMPDEST PUSH1 0x0 DUP3 CALLER PUSH20 0xFFFFFFFFFFFFFFFFFFFFFFFFFFFFFFFFFFFFFFFF AND PUSH1 0x4 PUSH1 0x0 DUP4 DUP2 MSTORE PUSH1 0x20 ADD SWAP1 DUP2 MSTORE PUSH1 0x20 ADD PUSH1 0x0 KECCAK256 PUSH1 0x0 SWAP1 SLOAD SWAP1 PUSH2 0x100 EXP SWAP1 DIV PUSH20 0xFFFFFFFFFFFFFFFFFFFFFFFFFFFFFFFFFFFFFFFF AND PUSH20 0xFFFFFFFFFFFFFFFFFFFFFFFFFFFFFFFFFFFFFFFF AND EQ PUSH2 0x9A9 JUMPI PUSH1 0x0 DUP1 REVERT JUMPDEST PUSH32 0x1A74486300338CCFC1D22EBC3073195695D7BB84C8326394EA4E38AB4FEAD21F PUSH1 0x1 DUP6 DUP2 SLOAD DUP2 LT PUSH2 0x9DE JUMPI PUSH2 0x9DD PUSH2 0x198E JUMP JUMPDEST JUMPDEST SWAP1 PUSH1 0x0 MSTORE PUSH1 0x20 PUSH1 0x0 KECCAK256 SWAP1 PUSH1 0x9 MUL ADD PUSH1 0x3 PUSH1 0x0 DUP8 DUP2 MSTORE PUSH1 0x20 ADD SWAP1 DUP2 MSTORE PUSH1 0x20 ADD PUSH1 0x0 KECCAK256 PUSH1 0x0 SWAP1 SLOAD SWAP1 PUSH2 0x100 EXP SWAP1 DIV PUSH1 0xFF AND PUSH1 0x40 MLOAD PUSH2 0xA1B SWAP3 SWAP2 SWAP1 PUSH2 0x1C0E JUMP JUMPDEST PUSH1 0x40 MLOAD DUP1 SWAP2 SUB SWAP1 LOG1 PUSH1 0x1 DUP5 DUP2 SLOAD DUP2 LT PUSH2 0xA37 JUMPI PUSH2 0xA36 PUSH2 0x198E JUMP JUMPDEST JUMPDEST SWAP1 PUSH1 0x0 MSTORE PUSH1 0x20 PUSH1 0x0 KECCAK256 SWAP1 PUSH1 0x9 MUL ADD PUSH1 0x3 PUSH1 0x0 DUP7 DUP2 MSTORE PUSH1 0x20 ADD SWAP1 DUP2 MSTORE PUSH1 0x20 ADD PUSH1 0x0 KECCAK256 PUSH1 0x0 SWAP1 SLOAD SWAP1 PUSH2 0x100 EXP SWAP1 DIV PUSH1 0xFF AND DUP2 PUSH1 0x40 MLOAD DUP1 PUSH2 0x120 ADD PUSH1 0x40 MSTORE SWAP1 DUP2 PUSH1 0x0 DUP3 ADD DUP1 SLOAD PUSH2 0xA83 SWAP1 PUSH2 0x19EC JUMP JUMPDEST DUP1 PUSH1 0x1F ADD PUSH1 0x20 DUP1 SWAP2 DIV MUL PUSH1 0x20 ADD PUSH1 0x40 MLOAD SWAP1 DUP2 ADD PUSH1 0x40 MSTORE DUP1 SWAP3 SWAP2 SWAP1 DUP2 DUP2 MSTORE PUSH1 0x20 ADD DUP3 DUP1 SLOAD PUSH2 0xAAF SWAP1 PUSH2 0x19EC JUMP JUMPDEST DUP1 ISZERO PUSH2 0xAFC JUMPI DUP1 PUSH1 0x1F LT PUSH2 0xAD1 JUMPI PUSH2 0x100 DUP1 DUP4 SLOAD DIV MUL DUP4 MSTORE SWAP2 PUSH1 0x20 ADD SWAP2 PUSH2 0xAFC JUMP JUMPDEST DUP3 ADD SWAP2 SWAP1 PUSH1 0x0 MSTORE PUSH1 0x20 PUSH1 0x0 KECCAK256 SWAP1 JUMPDEST DUP2 SLOAD DUP2 MSTORE SWAP1 PUSH1 0x1 ADD SWAP1 PUSH1 0x20 ADD DUP1 DUP4 GT PUSH2 0xADF JUMPI DUP3 SWAP1 SUB PUSH1 0x1F AND DUP3 ADD SWAP2 JUMPDEST POP POP POP POP POP DUP2 MSTORE PUSH1 0x20 ADD PUSH1 0x1 DUP3 ADD DUP1 SLOAD PUSH2 0xB15 SWAP1 PUSH2 0x19EC JUMP JUMPDEST DUP1 PUSH1 0x1F ADD PUSH1 0x20 DUP1 SWAP2 DIV MUL PUSH1 0x20 ADD PUSH1 0x40 MLOAD SWAP1 DUP2 ADD PUSH1 0x40 MSTORE DUP1 SWAP3 SWAP2 SWAP1 DUP2 DUP2 MSTORE PUSH1 0x20 ADD DUP3 DUP1 SLOAD PUSH2 0xB41 SWAP1 PUSH2 0x19EC JUMP JUMPDEST DUP1 ISZERO PUSH2 0xB8E JUMPI DUP1 PUSH1 0x1F LT PUSH2 0xB63 JUMPI PUSH2 0x100 DUP1 DUP4 SLOAD DIV MUL DUP4 MSTORE SWAP2 PUSH1 0x20 ADD SWAP2 PUSH2 0xB8E JUMP JUMPDEST DUP3 ADD SWAP2 SWAP1 PUSH1 0x0 MSTORE PUSH1 0x20 PUSH1 0x0 KECCAK256 SWAP1 JUMPDEST DUP2 SLOAD DUP2 MSTORE SWAP1 PUSH1 0x1 ADD SWAP1 PUSH1 0x20 ADD DUP1 DUP4 GT PUSH2 0xB71 JUMPI DUP3 SWAP1 SUB PUSH1 0x1F AND DUP3 ADD SWAP2 JUMPDEST POP POP POP POP POP DUP2 MSTORE PUSH1 0x20 ADD PUSH1 0x2 DUP3 ADD DUP1 SLOAD PUSH2 0xBA7 SWAP1 PUSH2 0x19EC JUMP JUMPDEST DUP1 PUSH1 0x1F ADD PUSH1 0x20 DUP1 SWAP2 DIV MUL PUSH1 0x20 ADD PUSH1 0x40 MLOAD SWAP1 DUP2 ADD PUSH1 0x40 MSTORE DUP1 SWAP3 SWAP2 SWAP1 DUP2 DUP2 MSTORE PUSH1 0x20 ADD DUP3 DUP1 SLOAD PUSH2 0xBD3 SWAP1 PUSH2 0x19EC JUMP JUMPDEST DUP1 ISZERO PUSH2 0xC20 JUMPI DUP1 PUSH1 0x1F LT PUSH2 0xBF5 JUMPI PUSH2 0x100 DUP1 DUP4 SLOAD DIV MUL DUP4 MSTORE SWAP2 PUSH1 0x20 ADD SWAP2 PUSH2 0xC20 JUMP JUMPDEST DUP3 ADD SWAP2 SWAP1 PUSH1 0x0 MSTORE PUSH1 0x20 PUSH1 0x0 KECCAK256 SWAP1 JUMPDEST DUP2 SLOAD DUP2 MSTORE SWAP1 PUSH1 0x1 ADD SWAP1 PUSH1 0x20 ADD DUP1 DUP4 GT PUSH2 0xC03 JUMPI DUP3 SWAP1 SUB PUSH1 0x1F AND DUP3 ADD SWAP2 JUMPDEST POP POP POP POP POP DUP2 MSTORE PUSH1 0x20 ADD PUSH1 0x3 DUP3 ADD DUP1 SLOAD PUSH2 0xC39 SWAP1 PUSH2 0x19EC JUMP JUMPDEST DUP1 PUSH1 0x1F ADD PUSH1 0x20 DUP1 SWAP2 DIV MUL PUSH1 0x20 ADD PUSH1 0x40 MLOAD SWAP1 DUP2 ADD PUSH1 0x40 MSTORE DUP1 SWAP3 SWAP2 SWAP1 DUP2 DUP2 MSTORE PUSH1 0x20 ADD DUP3 DUP1 SLOAD PUSH2 0xC65 SWAP1 PUSH2 0x19EC JUMP JUMPDEST DUP1 ISZERO PUSH2 0xCB2 JUMPI DUP1 PUSH1 0x1F LT PUSH2 0xC87 JUMPI PUSH2 0x100 DUP1 DUP4 SLOAD DIV MUL DUP4 MSTORE SWAP2 PUSH1 0x20 ADD SWAP2 PUSH2 0xCB2 JUMP JUMPDEST DUP3 ADD SWAP2 SWAP1 PUSH1 0x0 MSTORE PUSH1 0x20 PUSH1 0x0 KECCAK256 SWAP1 JUMPDEST DUP2 SLOAD DUP2 MSTORE SWAP1 PUSH1 0x1 ADD SWAP1 PUSH1 0x20 ADD DUP1 DUP4 GT PUSH2 0xC95 JUMPI DUP3 SWAP1 SUB PUSH1 0x1F AND DUP3 ADD SWAP2 JUMPDEST POP POP POP POP POP DUP2 MSTORE PUSH1 0x20 ADD PUSH1 0x4 DUP3 ADD DUP1 SLOAD PUSH2 0xCCB SWAP1 PUSH2 0x19EC JUMP JUMPDEST DUP1 PUSH1 0x1F ADD PUSH1 0x20 DUP1 SWAP2 DIV MUL PUSH1 0x20 ADD PUSH1 0x40 MLOAD SWAP1 DUP2 ADD PUSH1 0x40 MSTORE DUP1 SWAP3 SWAP2 SWAP1 DUP2 DUP2 MSTORE PUSH1 0x20 ADD DUP3 DUP1 SLOAD PUSH2 0xCF7 SWAP1 PUSH2 0x19EC JUMP JUMPDEST DUP1 ISZERO PUSH2 0xD44 JUMPI DUP1 PUSH1 0x1F LT PUSH2 0xD19 JUMPI PUSH2 0x100 DUP1 DUP4 SLOAD DIV MUL DUP4 MSTORE SWAP2 PUSH1 0x20 ADD SWAP2 PUSH2 0xD44 JUMP JUMPDEST DUP3 ADD SWAP2 SWAP1 PUSH1 0x0 MSTORE PUSH1 0x20 PUSH1 0x0 KECCAK256 SWAP1 JUMPDEST DUP2 SLOAD DUP2 MSTORE SWAP1 PUSH1 0x1 ADD SWAP1 PUSH1 0x20 ADD DUP1 DUP4 GT PUSH2 0xD27 JUMPI DUP3 SWAP1 SUB PUSH1 0x1F AND DUP3 ADD SWAP2 JUMPDEST POP POP POP POP POP DUP2 MSTORE PUSH1 0x20 ADD PUSH1 0x5 DUP3 ADD DUP1 SLOAD PUSH2 0xD5D SWAP1 PUSH2 0x19EC JUMP JUMPDEST DUP1 PUSH1 0x1F ADD PUSH1 0x20 DUP1 SWAP2 DIV MUL PUSH1 0x20 ADD PUSH1 0x40 MLOAD SWAP1 DUP2 ADD PUSH1 0x40 MSTORE DUP1 SWAP3 SWAP2 SWAP1 DUP2 DUP2 MSTORE PUSH1 0x20 ADD DUP3 DUP1 SLOAD PUSH2 0xD89 SWAP1 PUSH2 0x19EC JUMP JUMPDEST DUP1 ISZERO PUSH2 0xDD6 JUMPI DUP1 PUSH1 0x1F LT PUSH2 0xDAB JUMPI PUSH2 0x100 DUP1 DUP4 SLOAD DIV MUL DUP4 MSTORE SWAP2 PUSH1 0x20 ADD SWAP2 PUSH2 0xDD6 JUMP JUMPDEST DUP3 ADD SWAP2 SWAP1 PUSH1 0x0 MSTORE PUSH1 0x20 PUSH1 0x0 KECCAK256 SWAP1 JUMPDEST DUP2 SLOAD DUP2 MSTORE SWAP1 PUSH1 0x1 ADD SWAP1 PUSH1 0x20 ADD DUP1 DUP4 GT PUSH2 0xDB9 JUMPI DUP3 SWAP1 SUB PUSH1 0x1F AND DUP3 ADD SWAP2 JUMPDEST POP POP POP POP POP DUP2 MSTORE PUSH1 0x20 ADD PUSH1 0x6 DUP3 ADD PUSH1 0x0 SWAP1 SLOAD SWAP1 PUSH2 0x100 EXP SWAP1 DIV PUSH1 0xFF AND PUSH1 0xFF AND PUSH1 0xFF AND DUP2 MSTORE PUSH1 0x20 ADD PUSH1 0x7 DUP3 ADD SLOAD DUP2 MSTORE PUSH1 0x20 ADD PUSH1 0x8 DUP3 ADD SLOAD DUP2 MSTORE POP POP SWAP2 POP SWAP3 POP SWAP3 POP POP SWAP2 POP SWAP2 JUMP JUMPDEST PUSH2 0xE24 PUSH2 0xFBE JUMP JUMPDEST PUSH20 0xFFFFFFFFFFFFFFFFFFFFFFFFFFFFFFFFFFFFFFFF AND PUSH2 0xE42 PUSH2 0x8B6 JUMP JUMPDEST PUSH20 0xFFFFFFFFFFFFFFFFFFFFFFFFFFFFFFFFFFFFFFFF AND EQ PUSH2 0xE98 JUMPI PUSH1 0x40 MLOAD PUSH32 0x8C379A000000000000000000000000000000000000000000000000000000000 DUP2 MSTORE PUSH1 0x4 ADD PUSH2 0xE8F SWAP1 PUSH2 0x17FA JUMP JUMPDEST PUSH1 0x40 MLOAD DUP1 SWAP2 SUB SWAP1 REVERT JUMPDEST PUSH1 0x0 PUSH20 0xFFFFFFFFFFFFFFFFFFFFFFFFFFFFFFFFFFFFFFFF AND DUP2 PUSH20 0xFFFFFFFFFFFFFFFFFFFFFFFFFFFFFFFFFFFFFFFF AND SUB PUSH2 0xF07 JUMPI PUSH1 0x40 MLOAD PUSH32 0x8C379A000000000000000000000000000000000000000000000000000000000 DUP2 MSTORE PUSH1 0x4 ADD PUSH2 0xEFE SWAP1 PUSH2 0x1CB0 JUMP JUMPDEST PUSH1 0x40 MLOAD DUP1 SWAP2 SUB SWAP1 REVERT JUMPDEST PUSH2 0xF10 DUP2 PUSH2 0xFC6 JUMP JUMPDEST POP JUMP JUMPDEST DUP2 CALLER PUSH20 0xFFFFFFFFFFFFFFFFFFFFFFFFFFFFFFFFFFFFFFFF AND PUSH1 0x4 PUSH1 0x0 DUP4 DUP2 MSTORE PUSH1 0x20 ADD SWAP1 DUP2 MSTORE PUSH1 0x20 ADD PUSH1 0x0 KECCAK256 PUSH1 0x0 SWAP1 SLOAD SWAP1 PUSH2 0x100 EXP SWAP1 DIV PUSH20 0xFFFFFFFFFFFFFFFFFFFFFFFFFFFFFFFFFFFFFFFF AND PUSH20 0xFFFFFFFFFFFFFFFFFFFFFFFFFFFFFFFFFFFFFFFF AND EQ PUSH2 0xF7F JUMPI PUSH1 0x0 DUP1 REVERT JUMPDEST DUP2 PUSH1 0x1 DUP5 DUP2 SLOAD DUP2 LT PUSH2 0xF94 JUMPI PUSH2 0xF93 PUSH2 0x198E JUMP JUMPDEST JUMPDEST SWAP1 PUSH1 0x0 MSTORE PUSH1 0x20 PUSH1 0x0 KECCAK256 SWAP1 PUSH1 0x9 MUL ADD PUSH1 0x5 ADD SWAP1 DUP1 MLOAD SWAP1 PUSH1 0x20 ADD SWAP1 PUSH2 0xFB8 SWAP3 SWAP2 SWAP1 PUSH2 0x10D9 JUMP JUMPDEST POP POP POP POP JUMP JUMPDEST PUSH1 0x0 CALLER SWAP1 POP SWAP1 JUMP JUMPDEST PUSH1 0x0 DUP1 PUSH1 0x0 SWAP1 SLOAD SWAP1 PUSH2 0x100 EXP SWAP1 DIV PUSH20 0xFFFFFFFFFFFFFFFFFFFFFFFFFFFFFFFFFFFFFFFF AND SWAP1 POP DUP2 PUSH1 0x0 DUP1 PUSH2 0x100 EXP DUP2 SLOAD DUP2 PUSH20 0xFFFFFFFFFFFFFFFFFFFFFFFFFFFFFFFFFFFFFFFF MUL NOT AND SWAP1 DUP4 PUSH20 0xFFFFFFFFFFFFFFFFFFFFFFFFFFFFFFFFFFFFFFFF AND MUL OR SWAP1 SSTORE POP DUP2 PUSH20 0xFFFFFFFFFFFFFFFFFFFFFFFFFFFFFFFFFFFFFFFF AND DUP2 PUSH20 0xFFFFFFFFFFFFFFFFFFFFFFFFFFFFFFFFFFFFFFFF AND PUSH32 0x8BE0079C531659141344CD1FD0A4F28419497F9722A3DAAFE3B4186F6B6457E0 PUSH1 0x40 MLOAD PUSH1 0x40 MLOAD DUP1 SWAP2 SUB SWAP1 LOG3 POP POP JUMP JUMPDEST PUSH1 0x40 MLOAD DUP1 PUSH2 0x120 ADD PUSH1 0x40 MSTORE DUP1 PUSH1 0x60 DUP2 MSTORE PUSH1 0x20 ADD PUSH1 0x60 DUP2 MSTORE PUSH1 0x20 ADD PUSH1 0x60 DUP2 MSTORE PUSH1 0x20 ADD PUSH1 0x60 DUP2 MSTORE PUSH1 0x20 ADD PUSH1 0x60 DUP2 MSTORE PUSH1 0x20 ADD PUSH1 0x60 DUP2 MSTORE PUSH1 0x20 ADD PUSH1 0x0 PUSH1 0xFF AND DUP2 MSTORE PUSH1 0x20 ADD PUSH1 0x0 DUP2 MSTORE PUSH1 0x20 ADD PUSH1 0x0 DUP2 MSTORE POP SWAP1 JUMP JUMPDEST DUP3 DUP1 SLOAD PUSH2 0x10E5 SWAP1 PUSH2 0x19EC JUMP JUMPDEST SWAP1 PUSH1 0x0 MSTORE PUSH1 0x20 PUSH1 0x0 KECCAK256 SWAP1 PUSH1 0x1F ADD PUSH1 0x20 SWAP1 DIV DUP2 ADD SWAP3 DUP3 PUSH2 0x1107 JUMPI PUSH1 0x0 DUP6 SSTORE PUSH2 0x114E JUMP JUMPDEST DUP3 PUSH1 0x1F LT PUSH2 0x1120 JUMPI DUP1 MLOAD PUSH1 0xFF NOT AND DUP4 DUP1 ADD OR DUP6 SSTORE PUSH2 0x114E JUMP JUMPDEST DUP3 DUP1 ADD PUSH1 0x1 ADD DUP6 SSTORE DUP3 ISZERO PUSH2 0x114E JUMPI SWAP2 DUP3 ADD JUMPDEST DUP3 DUP2 GT ISZERO PUSH2 0x114D JUMPI DUP3 MLOAD DUP3 SSTORE SWAP2 PUSH1 0x20 ADD SWAP2 SWAP1 PUSH1 0x1 ADD SWAP1 PUSH2 0x1132 JUMP JUMPDEST JUMPDEST POP SWAP1 POP PUSH2 0x115B SWAP2 SWAP1 PUSH2 0x115F JUMP JUMPDEST POP SWAP1 JUMP JUMPDEST JUMPDEST DUP1 DUP3 GT ISZERO PUSH2 0x1178 JUMPI PUSH1 0x0 DUP2 PUSH1 0x0 SWAP1 SSTORE POP PUSH1 0x1 ADD PUSH2 0x1160 JUMP JUMPDEST POP SWAP1 JUMP JUMPDEST PUSH1 0x0 PUSH1 0x40 MLOAD SWAP1 POP SWAP1 JUMP JUMPDEST PUSH1 0x0 DUP1 REVERT JUMPDEST PUSH1 0x0 DUP1 REVERT JUMPDEST PUSH1 0x0 DUP2 SWAP1 POP SWAP2 SWAP1 POP JUMP JUMPDEST PUSH2 0x11A3 DUP2 PUSH2 0x1190 JUMP JUMPDEST DUP2 EQ PUSH2 0x11AE JUMPI PUSH1 0x0 DUP1 REVERT JUMPDEST POP JUMP JUMPDEST PUSH1 0x0 DUP2 CALLDATALOAD SWAP1 POP PUSH2 0x11C0 DUP2 PUSH2 0x119A JUMP JUMPDEST SWAP3 SWAP2 POP POP JUMP JUMPDEST PUSH1 0x0 DUP2 ISZERO ISZERO SWAP1 POP SWAP2 SWAP1 POP JUMP JUMPDEST PUSH2 0x11DB DUP2 PUSH2 0x11C6 JUMP JUMPDEST DUP2 EQ PUSH2 0x11E6 JUMPI PUSH1 0x0 DUP1 REVERT JUMPDEST POP JUMP JUMPDEST PUSH1 0x0 DUP2 CALLDATALOAD SWAP1 POP PUSH2 0x11F8 DUP2 PUSH2 0x11D2 JUMP JUMPDEST SWAP3 SWAP2 POP POP JUMP JUMPDEST PUSH1 0x0 DUP1 PUSH1 0x40 DUP4 DUP6 SUB SLT ISZERO PUSH2 0x1215 JUMPI PUSH2 0x1214 PUSH2 0x1186 JUMP JUMPDEST JUMPDEST PUSH1 0x0 PUSH2 0x1223 DUP6 DUP3 DUP7 ADD PUSH2 0x11B1 JUMP JUMPDEST SWAP3 POP POP PUSH1 0x20 PUSH2 0x1234 DUP6 DUP3 DUP7 ADD PUSH2 0x11E9 JUMP JUMPDEST SWAP2 POP POP SWAP3 POP SWAP3 SWAP1 POP JUMP JUMPDEST PUSH1 0x0 PUSH1 0x20 DUP3 DUP5 SUB SLT ISZERO PUSH2 0x1254 JUMPI PUSH2 0x1253 PUSH2 0x1186 JUMP JUMPDEST JUMPDEST PUSH1 0x0 PUSH2 0x1262 DUP5 DUP3 DUP6 ADD PUSH2 0x11B1 JUMP JUMPDEST SWAP2 POP POP SWAP3 SWAP2 POP POP JUMP JUMPDEST PUSH1 0x0 PUSH20 0xFFFFFFFFFFFFFFFFFFFFFFFFFFFFFFFFFFFFFFFF DUP3 AND SWAP1 POP SWAP2 SWAP1 POP JUMP JUMPDEST PUSH1 0x0 PUSH2 0x1296 DUP3 PUSH2 0x126B JUMP JUMPDEST SWAP1 POP SWAP2 SWAP1 POP JUMP JUMPDEST PUSH2 0x12A6 DUP2 PUSH2 0x128B JUMP JUMPDEST DUP3 MSTORE POP POP JUMP JUMPDEST PUSH1 0x0 PUSH1 0x20 DUP3 ADD SWAP1 POP PUSH2 0x12C1 PUSH1 0x0 DUP4 ADD DUP5 PUSH2 0x129D JUMP JUMPDEST SWAP3 SWAP2 POP POP JUMP JUMPDEST PUSH2 0x12D0 DUP2 PUSH2 0x11C6 JUMP JUMPDEST DUP3 MSTORE POP POP JUMP JUMPDEST PUSH1 0x0 PUSH1 0x20 DUP3 ADD SWAP1 POP PUSH2 0x12EB PUSH1 0x0 DUP4 ADD DUP5 PUSH2 0x12C7 JUMP JUMPDEST SWAP3 SWAP2 POP POP JUMP JUMPDEST PUSH1 0x0 DUP1 REVERT JUMPDEST PUSH1 0x0 DUP1 REVERT JUMPDEST PUSH1 0x0 PUSH1 0x1F NOT PUSH1 0x1F DUP4 ADD AND SWAP1 POP SWAP2 SWAP1 POP JUMP JUMPDEST PUSH32 0x4E487B7100000000000000000000000000000000000000000000000000000000 PUSH1 0x0 MSTORE PUSH1 0x41 PUSH1 0x4 MSTORE PUSH1 0x24 PUSH1 0x0 REVERT JUMPDEST PUSH2 0x1344 DUP3 PUSH2 0x12FB JUMP JUMPDEST DUP2 ADD DUP2 DUP2 LT PUSH8 0xFFFFFFFFFFFFFFFF DUP3 GT OR ISZERO PUSH2 0x1363 JUMPI PUSH2 0x1362 PUSH2 0x130C JUMP JUMPDEST JUMPDEST DUP1 PUSH1 0x40 MSTORE POP POP POP JUMP JUMPDEST PUSH1 0x0 PUSH2 0x1376 PUSH2 0x117C JUMP JUMPDEST SWAP1 POP PUSH2 0x1382 DUP3 DUP3 PUSH2 0x133B JUMP JUMPDEST SWAP2 SWAP1 POP JUMP JUMPDEST PUSH1 0x0 PUSH8 0xFFFFFFFFFFFFFFFF DUP3 GT ISZERO PUSH2 0x13A2 JUMPI PUSH2 0x13A1 PUSH2 0x130C JUMP JUMPDEST JUMPDEST PUSH2 0x13AB DUP3 PUSH2 0x12FB JUMP JUMPDEST SWAP1 POP PUSH1 0x20 DUP2 ADD SWAP1 POP SWAP2 SWAP1 POP JUMP JUMPDEST DUP3 DUP2 DUP4 CALLDATACOPY PUSH1 0x0 DUP4 DUP4 ADD MSTORE POP POP POP JUMP JUMPDEST PUSH1 0x0 PUSH2 0x13DA PUSH2 0x13D5 DUP5 PUSH2 0x1387 JUMP JUMPDEST PUSH2 0x136C JUMP JUMPDEST SWAP1 POP DUP3 DUP2 MSTORE PUSH1 0x20 DUP2 ADD DUP5 DUP5 DUP5 ADD GT ISZERO PUSH2 0x13F6 JUMPI PUSH2 0x13F5 PUSH2 0x12F6 JUMP JUMPDEST JUMPDEST PUSH2 0x1401 DUP5 DUP3 DUP6 PUSH2 0x13B8 JUMP JUMPDEST POP SWAP4 SWAP3 POP POP POP JUMP JUMPDEST PUSH1 0x0 DUP3 PUSH1 0x1F DUP4 ADD SLT PUSH2 0x141E JUMPI PUSH2 0x141D PUSH2 0x12F1 JUMP JUMPDEST JUMPDEST DUP2 CALLDATALOAD PUSH2 0x142E DUP5 DUP3 PUSH1 0x20 DUP7 ADD PUSH2 0x13C7 JUMP JUMPDEST SWAP2 POP POP SWAP3 SWAP2 POP POP JUMP JUMPDEST PUSH1 0x0 PUSH1 0x20 DUP3 DUP5 SUB SLT ISZERO PUSH2 0x144D JUMPI PUSH2 0x144C PUSH2 0x1186 JUMP JUMPDEST JUMPDEST PUSH1 0x0 DUP3 ADD CALLDATALOAD PUSH8 0xFFFFFFFFFFFFFFFF DUP2 GT ISZERO PUSH2 0x146B JUMPI PUSH2 0x146A PUSH2 0x118B JUMP JUMPDEST JUMPDEST PUSH2 0x1477 DUP5 DUP3 DUP6 ADD PUSH2 0x1409 JUMP JUMPDEST SWAP2 POP POP SWAP3 SWAP2 POP POP JUMP JUMPDEST PUSH1 0x0 DUP2 MLOAD SWAP1 POP SWAP2 SWAP1 POP JUMP JUMPDEST PUSH1 0x0 DUP3 DUP3 MSTORE PUSH1 0x20 DUP3 ADD SWAP1 POP SWAP3 SWAP2 POP POP JUMP JUMPDEST PUSH1 0x0 JUMPDEST DUP4 DUP2 LT ISZERO PUSH2 0x14BA JUMPI DUP1 DUP3 ADD MLOAD DUP2 DUP5 ADD MSTORE PUSH1 0x20 DUP2 ADD SWAP1 POP PUSH2 0x149F JUMP JUMPDEST DUP4 DUP2 GT ISZERO PUSH2 0x14C9 JUMPI PUSH1 0x0 DUP5 DUP5 ADD MSTORE JUMPDEST POP POP POP POP JUMP JUMPDEST PUSH1 0x0 PUSH2 0x14DA DUP3 PUSH2 0x1480 JUMP JUMPDEST PUSH2 0x14E4 DUP2 DUP6 PUSH2 0x148B JUMP JUMPDEST SWAP4 POP PUSH2 0x14F4 DUP2 DUP6 PUSH1 0x20 DUP7 ADD PUSH2 0x149C JUMP JUMPDEST PUSH2 0x14FD DUP2 PUSH2 0x12FB JUMP JUMPDEST DUP5 ADD SWAP2 POP POP SWAP3 SWAP2 POP POP JUMP JUMPDEST PUSH1 0x0 PUSH1 0xFF DUP3 AND SWAP1 POP SWAP2 SWAP1 POP JUMP JUMPDEST PUSH2 0x151E DUP2 PUSH2 0x1508 JUMP JUMPDEST DUP3 MSTORE POP POP JUMP JUMPDEST PUSH2 0x152D DUP2 PUSH2 0x1190 JUMP JUMPDEST DUP3 MSTORE POP POP JUMP JUMPDEST PUSH1 0x0 PUSH2 0x120 DUP4 ADD PUSH1 0x0 DUP4 ADD MLOAD DUP5 DUP3 SUB PUSH1 0x0 DUP7 ADD MSTORE PUSH2 0x1551 DUP3 DUP3 PUSH2 0x14CF JUMP JUMPDEST SWAP2 POP POP PUSH1 0x20 DUP4 ADD MLOAD DUP5 DUP3 SUB PUSH1 0x20 DUP7 ADD MSTORE PUSH2 0x156B DUP3 DUP3 PUSH2 0x14CF JUMP JUMPDEST SWAP2 POP POP PUSH1 0x40 DUP4 ADD MLOAD DUP5 DUP3 SUB PUSH1 0x40 DUP7 ADD MSTORE PUSH2 0x1585 DUP3 DUP3 PUSH2 0x14CF JUMP JUMPDEST SWAP2 POP POP PUSH1 0x60 DUP4 ADD MLOAD DUP5 DUP3 SUB PUSH1 0x60 DUP7 ADD MSTORE PUSH2 0x159F DUP3 DUP3 PUSH2 0x14CF JUMP JUMPDEST SWAP2 POP POP PUSH1 0x80 DUP4 ADD MLOAD DUP5 DUP3 SUB PUSH1 0x80 DUP7 ADD MSTORE PUSH2 0x15B9 DUP3 DUP3 PUSH2 0x14CF JUMP JUMPDEST SWAP2 POP POP PUSH1 0xA0 DUP4 ADD MLOAD DUP5 DUP3 SUB PUSH1 0xA0 DUP7 ADD MSTORE PUSH2 0x15D3 DUP3 DUP3 PUSH2 0x14CF JUMP JUMPDEST SWAP2 POP POP PUSH1 0xC0 DUP4 ADD MLOAD PUSH2 0x15E8 PUSH1 0xC0 DUP7 ADD DUP3 PUSH2 0x1515 JUMP JUMPDEST POP PUSH1 0xE0 DUP4 ADD MLOAD PUSH2 0x15FB PUSH1 0xE0 DUP7 ADD DUP3 PUSH2 0x1524 JUMP JUMPDEST POP PUSH2 0x100 DUP4 ADD MLOAD PUSH2 0x1610 PUSH2 0x100 DUP7 ADD DUP3 PUSH2 0x1524 JUMP JUMPDEST POP DUP1 SWAP2 POP POP SWAP3 SWAP2 POP POP JUMP JUMPDEST PUSH1 0x0 PUSH1 0x20 DUP3 ADD SWAP1 POP DUP2 DUP2 SUB PUSH1 0x0 DUP4 ADD MSTORE PUSH2 0x1635 DUP2 DUP5 PUSH2 0x1533 JUMP JUMPDEST SWAP1 POP SWAP3 SWAP2 POP POP JUMP JUMPDEST PUSH2 0x1646 DUP2 PUSH2 0x1508 JUMP JUMPDEST DUP2 EQ PUSH2 0x1651 JUMPI PUSH1 0x0 DUP1 REVERT JUMPDEST POP JUMP JUMPDEST PUSH1 0x0 DUP2 CALLDATALOAD SWAP1 POP PUSH2 0x1663 DUP2 PUSH2 0x163D JUMP JUMPDEST SWAP3 SWAP2 POP POP JUMP JUMPDEST PUSH1 0x0 DUP1 PUSH1 0x40 DUP4 DUP6 SUB SLT ISZERO PUSH2 0x1680 JUMPI PUSH2 0x167F PUSH2 0x1186 JUMP JUMPDEST JUMPDEST PUSH1 0x0 PUSH2 0x168E DUP6 DUP3 DUP7 ADD PUSH2 0x11B1 JUMP JUMPDEST SWAP3 POP POP PUSH1 0x20 PUSH2 0x169F DUP6 DUP3 DUP7 ADD PUSH2 0x1654 JUMP JUMPDEST SWAP2 POP POP SWAP3 POP SWAP3 SWAP1 POP JUMP JUMPDEST PUSH2 0x16B2 DUP2 PUSH2 0x1508 JUMP JUMPDEST DUP3 MSTORE POP POP JUMP JUMPDEST PUSH1 0x0 PUSH1 0x40 DUP3 ADD SWAP1 POP DUP2 DUP2 SUB PUSH1 0x0 DUP4 ADD MSTORE PUSH2 0x16D2 DUP2 DUP6 PUSH2 0x1533 JUMP JUMPDEST SWAP1 POP PUSH2 0x16E1 PUSH1 0x20 DUP4 ADD DUP5 PUSH2 0x16A9 JUMP JUMPDEST SWAP4 SWAP3 POP POP POP JUMP JUMPDEST PUSH2 0x16F1 DUP2 PUSH2 0x128B JUMP JUMPDEST DUP2 EQ PUSH2 0x16FC JUMPI PUSH1 0x0 DUP1 REVERT JUMPDEST POP JUMP JUMPDEST PUSH1 0x0 DUP2 CALLDATALOAD SWAP1 POP PUSH2 0x170E DUP2 PUSH2 0x16E8 JUMP JUMPDEST SWAP3 SWAP2 POP POP JUMP JUMPDEST PUSH1 0x0 PUSH1 0x20 DUP3 DUP5 SUB SLT ISZERO PUSH2 0x172A JUMPI PUSH2 0x1729 PUSH2 0x1186 JUMP JUMPDEST JUMPDEST PUSH1 0x0 PUSH2 0x1738 DUP5 DUP3 DUP6 ADD PUSH2 0x16FF JUMP JUMPDEST SWAP2 POP POP SWAP3 SWAP2 POP POP JUMP JUMPDEST PUSH1 0x0 DUP1 PUSH1 0x40 DUP4 DUP6 SUB SLT ISZERO PUSH2 0x1758 JUMPI PUSH2 0x1757 PUSH2 0x1186 JUMP JUMPDEST JUMPDEST PUSH1 0x0 PUSH2 0x1766 DUP6 DUP3 DUP7 ADD PUSH2 0x11B1 JUMP JUMPDEST SWAP3 POP POP PUSH1 0x20 DUP4 ADD CALLDATALOAD PUSH8 0xFFFFFFFFFFFFFFFF DUP2 GT ISZERO PUSH2 0x1787 JUMPI PUSH2 0x1786 PUSH2 0x118B JUMP JUMPDEST JUMPDEST PUSH2 0x1793 DUP6 DUP3 DUP7 ADD PUSH2 0x1409 JUMP JUMPDEST SWAP2 POP POP SWAP3 POP SWAP3 SWAP1 POP JUMP JUMPDEST PUSH1 0x0 DUP3 DUP3 MSTORE PUSH1 0x20 DUP3 ADD SWAP1 POP SWAP3 SWAP2 POP POP JUMP JUMPDEST PUSH32 0x4F776E61626C653A2063616C6C6572206973206E6F7420746865206F776E6572 PUSH1 0x0 DUP3 ADD MSTORE POP JUMP JUMPDEST PUSH1 0x0 PUSH2 0x17E4 PUSH1 0x20 DUP4 PUSH2 0x179D JUMP JUMPDEST SWAP2 POP PUSH2 0x17EF DUP3 PUSH2 0x17AE JUMP JUMPDEST PUSH1 0x20 DUP3 ADD SWAP1 POP SWAP2 SWAP1 POP JUMP JUMPDEST PUSH1 0x0 PUSH1 0x20 DUP3 ADD SWAP1 POP DUP2 DUP2 SUB PUSH1 0x0 DUP4 ADD MSTORE PUSH2 0x1813 DUP2 PUSH2 0x17D7 JUMP JUMPDEST SWAP1 POP SWAP2 SWAP1 POP JUMP JUMPDEST PUSH32 0x4E487B7100000000000000000000000000000000000000000000000000000000 PUSH1 0x0 MSTORE PUSH1 0x11 PUSH1 0x4 MSTORE PUSH1 0x24 PUSH1 0x0 REVERT JUMPDEST PUSH1 0x0 PUSH2 0x1854 DUP3 PUSH2 0x1190 JUMP JUMPDEST SWAP2 POP PUSH2 0x185F DUP4 PUSH2 0x1190 JUMP JUMPDEST SWAP3 POP DUP3 PUSH32 0xFFFFFFFFFFFFFFFFFFFFFFFFFFFFFFFFFFFFFFFFFFFFFFFFFFFFFFFFFFFFFFFF SUB DUP3 GT ISZERO PUSH2 0x1894 JUMPI PUSH2 0x1893 PUSH2 0x181A JUMP JUMPDEST JUMPDEST DUP3 DUP3 ADD SWAP1 POP SWAP3 SWAP2 POP POP JUMP JUMPDEST PUSH1 0x0 DUP2 SWAP1 POP SWAP3 SWAP2 POP POP JUMP JUMPDEST PUSH1 0x0 PUSH2 0x18B5 DUP3 PUSH2 0x1480 JUMP JUMPDEST PUSH2 0x18BF DUP2 DUP6 PUSH2 0x189F JUMP JUMPDEST SWAP4 POP PUSH2 0x18CF DUP2 DUP6 PUSH1 0x20 DUP7 ADD PUSH2 0x149C JUMP JUMPDEST DUP1 DUP5 ADD SWAP2 POP POP SWAP3 SWAP2 POP POP JUMP JUMPDEST PUSH1 0x0 DUP2 SWAP1 POP SWAP2 SWAP1 POP JUMP JUMPDEST PUSH1 0x0 DUP2 SWAP1 POP SWAP2 SWAP1 POP JUMP JUMPDEST PUSH2 0x1900 PUSH2 0x18FB DUP3 PUSH2 0x18DB JUMP JUMPDEST PUSH2 0x18E5 JUMP JUMPDEST DUP3 MSTORE POP POP JUMP JUMPDEST PUSH1 0x0 PUSH2 0x1912 DUP3 DUP6 PUSH2 0x18AA JUMP JUMPDEST SWAP2 POP PUSH2 0x191E DUP3 DUP5 PUSH2 0x18EF JUMP JUMPDEST PUSH1 0x20 DUP3 ADD SWAP2 POP DUP2 SWAP1 POP SWAP4 SWAP3 POP POP POP JUMP JUMPDEST PUSH32 0x4E487B7100000000000000000000000000000000000000000000000000000000 PUSH1 0x0 MSTORE PUSH1 0x12 PUSH1 0x4 MSTORE PUSH1 0x24 PUSH1 0x0 REVERT JUMPDEST PUSH1 0x0 PUSH2 0x1968 DUP3 PUSH2 0x1190 JUMP JUMPDEST SWAP2 POP PUSH2 0x1973 DUP4 PUSH2 0x1190 JUMP JUMPDEST SWAP3 POP DUP3 PUSH2 0x1983 JUMPI PUSH2 0x1982 PUSH2 0x192E JUMP JUMPDEST JUMPDEST DUP3 DUP3 MOD SWAP1 POP SWAP3 SWAP2 POP POP JUMP JUMPDEST PUSH32 0x4E487B7100000000000000000000000000000000000000000000000000000000 PUSH1 0x0 MSTORE PUSH1 0x32 PUSH1 0x4 MSTORE PUSH1 0x24 PUSH1 0x0 REVERT JUMPDEST PUSH32 0x4E487B7100000000000000000000000000000000000000000000000000000000 PUSH1 0x0 MSTORE PUSH1 0x22 PUSH1 0x4 MSTORE PUSH1 0x24 PUSH1 0x0 REVERT JUMPDEST PUSH1 0x0 PUSH1 0x2 DUP3 DIV SWAP1 POP PUSH1 0x1 DUP3 AND DUP1 PUSH2 0x1A04 JUMPI PUSH1 0x7F DUP3 AND SWAP2 POP JUMPDEST PUSH1 0x20 DUP3 LT DUP2 SUB PUSH2 0x1A17 JUMPI PUSH2 0x1A16 PUSH2 0x19BD JUMP JUMPDEST JUMPDEST POP SWAP2 SWAP1 POP JUMP JUMPDEST PUSH1 0x0 DUP2 SWAP1 POP DUP2 PUSH1 0x0 MSTORE PUSH1 0x20 PUSH1 0x0 KECCAK256 SWAP1 POP SWAP2 SWAP1 POP JUMP JUMPDEST PUSH1 0x0 DUP2 SLOAD PUSH2 0x1A3F DUP2 PUSH2 0x19EC JUMP JUMPDEST PUSH2 0x1A49 DUP2 DUP7 PUSH2 0x148B JUMP JUMPDEST SWAP5 POP PUSH1 0x1 DUP3 AND PUSH1 0x0 DUP2 EQ PUSH2 0x1A64 JUMPI PUSH1 0x1 DUP2 EQ PUSH2 0x1A76 JUMPI PUSH2 0x1AA9 JUMP JUMPDEST PUSH1 0xFF NOT DUP4 AND DUP7 MSTORE PUSH1 0x20 DUP7 ADD SWAP4 POP PUSH2 0x1AA9 JUMP JUMPDEST PUSH2 0x1A7F DUP6 PUSH2 0x1A1D JUMP JUMPDEST PUSH1 0x0 JUMPDEST DUP4 DUP2 LT ISZERO PUSH2 0x1AA1 JUMPI DUP2 SLOAD DUP2 DUP10 ADD MSTORE PUSH1 0x1 DUP3 ADD SWAP2 POP PUSH1 0x20 DUP2 ADD SWAP1 POP PUSH2 0x1A82 JUMP JUMPDEST DUP1 DUP9 ADD SWAP6 POP POP POP JUMPDEST POP POP POP SWAP3 SWAP2 POP POP JUMP JUMPDEST PUSH1 0x0 DUP2 PUSH1 0x0 SHR SWAP1 POP SWAP2 SWAP1 POP JUMP JUMPDEST PUSH1 0x0 PUSH1 0xFF DUP3 AND SWAP1 POP SWAP2 SWAP1 POP JUMP JUMPDEST PUSH1 0x0 PUSH2 0x1ADF PUSH2 0x1ADA DUP4 PUSH2 0x1AB2 JUMP JUMPDEST PUSH2 0x1ABF JUMP JUMPDEST SWAP1 POP SWAP2 SWAP1 POP JUMP JUMPDEST PUSH1 0x0 DUP2 SWAP1 POP SWAP2 SWAP1 POP JUMP JUMPDEST PUSH1 0x0 PUSH2 0x1B03 PUSH2 0x1AFE DUP4 PUSH2 0x1AB2 JUMP JUMPDEST PUSH2 0x1AE6 JUMP JUMPDEST SWAP1 POP SWAP2 SWAP1 POP JUMP JUMPDEST PUSH1 0x0 PUSH2 0x120 DUP4 ADD PUSH1 0x0 DUP1 DUP5 ADD DUP6 DUP4 SUB PUSH1 0x0 DUP8 ADD MSTORE PUSH2 0x1B28 DUP4 DUP3 PUSH2 0x1A32 JUMP JUMPDEST SWAP3 POP POP PUSH1 0x1 DUP5 ADD DUP6 DUP4 SUB PUSH1 0x20 DUP8 ADD MSTORE PUSH2 0x1B41 DUP4 DUP3 PUSH2 0x1A32 JUMP JUMPDEST SWAP3 POP POP PUSH1 0x2 DUP5 ADD DUP6 DUP4 SUB PUSH1 0x40 DUP8 ADD MSTORE PUSH2 0x1B5A DUP4 DUP3 PUSH2 0x1A32 JUMP JUMPDEST SWAP3 POP POP PUSH1 0x3 DUP5 ADD DUP6 DUP4 SUB PUSH1 0x60 DUP8 ADD MSTORE PUSH2 0x1B73 DUP4 DUP3 PUSH2 0x1A32 JUMP JUMPDEST SWAP3 POP POP PUSH1 0x4 DUP5 ADD DUP6 DUP4 SUB PUSH1 0x80 DUP8 ADD MSTORE PUSH2 0x1B8C DUP4 DUP3 PUSH2 0x1A32 JUMP JUMPDEST SWAP3 POP POP PUSH1 0x5 DUP5 ADD DUP6 DUP4 SUB PUSH1 0xA0 DUP8 ADD MSTORE PUSH2 0x1BA5 DUP4 DUP3 PUSH2 0x1A32 JUMP JUMPDEST SWAP3 POP POP PUSH1 0x6 DUP5 ADD SLOAD SWAP1 POP PUSH2 0x1BB8 DUP2 PUSH2 0x1ACC JUMP JUMPDEST PUSH2 0x1BC5 PUSH1 0xC0 DUP8 ADD DUP3 PUSH2 0x1515 JUMP JUMPDEST POP PUSH1 0x7 DUP5 ADD SLOAD SWAP1 POP PUSH2 0x1BD6 DUP2 PUSH2 0x1AF0 JUMP JUMPDEST PUSH2 0x1BE3 PUSH1 0xE0 DUP8 ADD DUP3 PUSH2 0x1524 JUMP JUMPDEST POP PUSH1 0x8 DUP5 ADD SLOAD SWAP1 POP PUSH2 0x1BF4 DUP2 PUSH2 0x1AF0 JUMP JUMPDEST PUSH2 0x1C02 PUSH2 0x100 DUP8 ADD DUP3 PUSH2 0x1524 JUMP JUMPDEST POP DUP2 SWAP3 POP POP POP SWAP3 SWAP2 POP POP JUMP JUMPDEST PUSH1 0x0 PUSH1 0x40 DUP3 ADD SWAP1 POP DUP2 DUP2 SUB PUSH1 0x0 DUP4 ADD MSTORE PUSH2 0x1C28 DUP2 DUP6 PUSH2 0x1B0A JUMP JUMPDEST SWAP1 POP PUSH2 0x1C37 PUSH1 0x20 DUP4 ADD DUP5 PUSH2 0x16A9 JUMP JUMPDEST SWAP4 SWAP3 POP POP POP JUMP JUMPDEST PUSH32 0x4F776E61626C653A206E6577206F776E657220697320746865207A65726F2061 PUSH1 0x0 DUP3 ADD MSTORE PUSH32 0x6464726573730000000000000000000000000000000000000000000000000000 PUSH1 0x20 DUP3 ADD MSTORE POP JUMP JUMPDEST PUSH1 0x0 PUSH2 0x1C9A PUSH1 0x26 DUP4 PUSH2 0x179D JUMP JUMPDEST SWAP2 POP PUSH2 0x1CA5 DUP3 PUSH2 0x1C3E JUMP JUMPDEST PUSH1 0x40 DUP3 ADD SWAP1 POP SWAP2 SWAP1 POP JUMP JUMPDEST PUSH1 0x0 PUSH1 0x20 DUP3 ADD SWAP1 POP DUP2 DUP2 SUB PUSH1 0x0 DUP4 ADD MSTORE PUSH2 0x1CC9 DUP2 PUSH2 0x1C8D JUMP JUMPDEST SWAP1 POP SWAP2 SWAP1 POP JUMP INVALID LOG2 PUSH5 0x6970667358 0x22 SLT KECCAK256 BASEFEE 0xAA LOG1 CREATE2 SWAP14 0xCE 0xA7 CHAINID AND 0xD2 SWAP1 ADDMOD SWAP5 0xBA PC 0xA7 0x1F PUSH4 0xC47CC22E 0x4B 0x25 DUP14 0x22 PUSH5 0x474F092BB9 PUSH5 0x736F6C6343 STOP ADDMOD 0xE STOP CALLER "
				},
				"gasEstimates": {
					"creation": {
						"codeDepositCost": "1486000",
						"executionCost": "infinite",
						"totalCost": "infinite"
					},
					"external": {
						"answerQuiz(uint256,uint8)": "5088",
						"changeQuizStatus(uint256,bool)": "27171",
						"getRandomQuiz(string)": "infinite",
						"owner()": "2544",
						"quizIsActive(uint256)": "2863",
						"quizOwner(uint256)": "2884",
						"quizOwnerChangeHint(uint256,string)": "infinite",
						"quizOwnerChangeStatus(uint256,bool)": "27206",
						"quizOwnerGetQuiz(uint256)": "infinite",
						"renounceOwnership()": "30463",
						"transferOwnership(address)": "30808"
					}
				},
				"methodIdentifiers": {
					"answerQuiz(uint256,uint8)": "a70434b3",
					"changeQuizStatus(uint256,bool)": "1d3f7559",
					"getRandomQuiz(string)": "728b0d87",
					"owner()": "8da5cb5b",
					"quizIsActive(uint256)": "51a1d40e",
					"quizOwner(uint256)": "400ae0f9",
					"quizOwnerChangeHint(uint256,string)": "fbb3b6ce",
					"quizOwnerChangeStatus(uint256,bool)": "377def85",
					"quizOwnerGetQuiz(uint256)": "b9360cf1",
					"renounceOwnership()": "715018a6",
					"transferOwnership(address)": "f2fde38b"
				}
			},
			"storageLayout": {
				"storage": [
					{
						"astId": 243,
						"contract": "contracts/AnswerQuiz.sol:AnswerQuiz",
						"label": "_owner",
						"offset": 0,
						"slot": "0",
						"type": "t_address"
					},
					{
						"astId": 85,
						"contract": "contracts/AnswerQuiz.sol:AnswerQuiz",
						"label": "quizzes",
						"offset": 0,
						"slot": "1",
						"type": "t_array(t_struct(Quiz)81_storage)dyn_storage"
					},
					{
						"astId": 89,
						"contract": "contracts/AnswerQuiz.sol:AnswerQuiz",
						"label": "quizIsActive",
						"offset": 0,
						"slot": "2",
						"type": "t_mapping(t_uint256,t_bool)"
					},
					{
						"astId": 93,
						"contract": "contracts/AnswerQuiz.sol:AnswerQuiz",
						"label": "quizAnswer",
						"offset": 0,
						"slot": "3",
						"type": "t_mapping(t_uint256,t_uint8)"
					},
					{
						"astId": 97,
						"contract": "contracts/AnswerQuiz.sol:AnswerQuiz",
						"label": "quizOwner",
						"offset": 0,
						"slot": "4",
						"type": "t_mapping(t_uint256,t_address)"
					}
				],
				"types": {
					"t_address": {
						"encoding": "inplace",
						"label": "address",
						"numberOfBytes": "20"
					},
					"t_array(t_struct(Quiz)81_storage)dyn_storage": {
						"base": "t_struct(Quiz)81_storage",
						"encoding": "dynamic_array",
						"label": "struct CreateQuiz.Quiz[]",
						"numberOfBytes": "32"
					},
					"t_bool": {
						"encoding": "inplace",
						"label": "bool",
						"numberOfBytes": "1"
					},
					"t_mapping(t_uint256,t_address)": {
						"encoding": "mapping",
						"key": "t_uint256",
						"label": "mapping(uint256 => address)",
						"numberOfBytes": "32",
						"value": "t_address"
					},
					"t_mapping(t_uint256,t_bool)": {
						"encoding": "mapping",
						"key": "t_uint256",
						"label": "mapping(uint256 => bool)",
						"numberOfBytes": "32",
						"value": "t_bool"
					},
					"t_mapping(t_uint256,t_uint8)": {
						"encoding": "mapping",
						"key": "t_uint256",
						"label": "mapping(uint256 => uint8)",
						"numberOfBytes": "32",
						"value": "t_uint8"
					},
					"t_string_storage": {
						"encoding": "bytes",
						"label": "string",
						"numberOfBytes": "32"
					},
					"t_struct(Quiz)81_storage": {
						"encoding": "inplace",
						"label": "struct CreateQuiz.Quiz",
						"members": [
							{
								"astId": 64,
								"contract": "contracts/AnswerQuiz.sol:AnswerQuiz",
								"label": "question",
								"offset": 0,
								"slot": "0",
								"type": "t_string_storage"
							},
							{
								"astId": 66,
								"contract": "contracts/AnswerQuiz.sol:AnswerQuiz",
								"label": "choice1",
								"offset": 0,
								"slot": "1",
								"type": "t_string_storage"
							},
							{
								"astId": 68,
								"contract": "contracts/AnswerQuiz.sol:AnswerQuiz",
								"label": "choice2",
								"offset": 0,
								"slot": "2",
								"type": "t_string_storage"
							},
							{
								"astId": 70,
								"contract": "contracts/AnswerQuiz.sol:AnswerQuiz",
								"label": "choice3",
								"offset": 0,
								"slot": "3",
								"type": "t_string_storage"
							},
							{
								"astId": 72,
								"contract": "contracts/AnswerQuiz.sol:AnswerQuiz",
								"label": "choice4",
								"offset": 0,
								"slot": "4",
								"type": "t_string_storage"
							},
							{
								"astId": 74,
								"contract": "contracts/AnswerQuiz.sol:AnswerQuiz",
								"label": "hint",
								"offset": 0,
								"slot": "5",
								"type": "t_string_storage"
							},
							{
								"astId": 76,
								"contract": "contracts/AnswerQuiz.sol:AnswerQuiz",
								"label": "languageCode",
								"offset": 0,
								"slot": "6",
								"type": "t_uint8"
							},
							{
								"astId": 78,
								"contract": "contracts/AnswerQuiz.sol:AnswerQuiz",
								"label": "reward",
								"offset": 0,
								"slot": "7",
								"type": "t_uint256"
							},
							{
								"astId": 80,
								"contract": "contracts/AnswerQuiz.sol:AnswerQuiz",
								"label": "rewardPool",
								"offset": 0,
								"slot": "8",
								"type": "t_uint256"
							}
						],
						"numberOfBytes": "288"
					},
					"t_uint256": {
						"encoding": "inplace",
						"label": "uint256",
						"numberOfBytes": "32"
					},
					"t_uint8": {
						"encoding": "inplace",
						"label": "uint8",
						"numberOfBytes": "1"
					}
				}
			},
			"userdoc": {
				"kind": "user",
				"methods": {},
				"version": 1
			}
		}
	}
}