{
	"contracts/ViewQuiz.sol": {
		"ViewQuiz": {
			"abi": [
				{
					"anonymous": false,
					"inputs": [
						{
							"components": [
								{
									"internalType": "string",
									"name": "question",
									"type": "string"
								},
								{
									"internalType": "string",
									"name": "choice1",
									"type": "string"
								},
								{
									"internalType": "string",
									"name": "choice2",
									"type": "string"
								},
								{
									"internalType": "string",
									"name": "choice3",
									"type": "string"
								},
								{
									"internalType": "string",
									"name": "choice4",
									"type": "string"
								},
								{
									"internalType": "string",
									"name": "hint",
									"type": "string"
								},
								{
									"internalType": "uint8",
									"name": "languageCode",
									"type": "uint8"
								},
								{
									"internalType": "uint256",
									"name": "reward",
									"type": "uint256"
								},
								{
									"internalType": "uint256",
									"name": "rewardPool",
									"type": "uint256"
								}
							],
							"indexed": false,
							"internalType": "struct CreateQuiz.Quiz",
							"name": "quiz",
							"type": "tuple"
						}
					],
					"name": "GetQuiz",
					"type": "event"
				},
				{
					"anonymous": false,
					"inputs": [
						{
							"indexed": false,
							"internalType": "string",
							"name": "question",
							"type": "string"
						},
						{
							"indexed": false,
							"internalType": "uint8",
							"name": "answer",
							"type": "uint8"
						}
					],
					"name": "NewQuiz",
					"type": "event"
				},
				{
					"anonymous": false,
					"inputs": [
						{
							"indexed": true,
							"internalType": "address",
							"name": "previousOwner",
							"type": "address"
						},
						{
							"indexed": true,
							"internalType": "address",
							"name": "newOwner",
							"type": "address"
						}
					],
					"name": "OwnershipTransferred",
					"type": "event"
				},
				{
					"anonymous": false,
					"inputs": [
						{
							"components": [
								{
									"internalType": "string",
									"name": "question",
									"type": "string"
								},
								{
									"internalType": "string",
									"name": "choice1",
									"type": "string"
								},
								{
									"internalType": "string",
									"name": "choice2",
									"type": "string"
								},
								{
									"internalType": "string",
									"name": "choice3",
									"type": "string"
								},
								{
									"internalType": "string",
									"name": "choice4",
									"type": "string"
								},
								{
									"internalType": "string",
									"name": "hint",
									"type": "string"
								},
								{
									"internalType": "uint8",
									"name": "languageCode",
									"type": "uint8"
								},
								{
									"internalType": "uint256",
									"name": "reward",
									"type": "uint256"
								},
								{
									"internalType": "uint256",
									"name": "rewardPool",
									"type": "uint256"
								}
							],
							"indexed": false,
							"internalType": "struct CreateQuiz.Quiz",
							"name": "quiz",
							"type": "tuple"
						},
						{
							"indexed": false,
							"internalType": "uint8",
							"name": "answer",
							"type": "uint8"
						}
					],
					"name": "QuizOwnerGetQuiz",
					"type": "event"
				},
				{
					"inputs": [
						{
							"internalType": "uint256",
							"name": "_quizId",
							"type": "uint256"
						},
						{
							"internalType": "bool",
							"name": "_quizStatus",
							"type": "bool"
						}
					],
					"name": "changeQuizStatus",
					"outputs": [],
					"stateMutability": "nonpayable",
					"type": "function"
				},
				{
					"inputs": [
						{
							"internalType": "string",
							"name": "_seed",
							"type": "string"
						}
					],
					"name": "getRandomQuiz",
					"outputs": [
						{
							"components": [
								{
									"internalType": "string",
									"name": "question",
									"type": "string"
								},
								{
									"internalType": "string",
									"name": "choice1",
									"type": "string"
								},
								{
									"internalType": "string",
									"name": "choice2",
									"type": "string"
								},
								{
									"internalType": "string",
									"name": "choice3",
									"type": "string"
								},
								{
									"internalType": "string",
									"name": "choice4",
									"type": "string"
								},
								{
									"internalType": "string",
									"name": "hint",
									"type": "string"
								},
								{
									"internalType": "uint8",
									"name": "languageCode",
									"type": "uint8"
								},
								{
									"internalType": "uint256",
									"name": "reward",
									"type": "uint256"
								},
								{
									"internalType": "uint256",
									"name": "rewardPool",
									"type": "uint256"
								}
							],
							"internalType": "struct CreateQuiz.Quiz",
							"name": "",
							"type": "tuple"
						}
					],
					"stateMutability": "nonpayable",
					"type": "function"
				},
				{
					"inputs": [],
					"name": "owner",
					"outputs": [
						{
							"internalType": "address",
							"name": "",
							"type": "address"
						}
					],
					"stateMutability": "view",
					"type": "function"
				},
				{
					"inputs": [
						{
							"internalType": "uint256",
							"name": "",
							"type": "uint256"
						}
					],
					"name": "quizIsActive",
					"outputs": [
						{
							"internalType": "bool",
							"name": "",
							"type": "bool"
						}
					],
					"stateMutability": "view",
					"type": "function"
				},
				{
					"inputs": [
						{
							"internalType": "uint256",
							"name": "",
							"type": "uint256"
						}
					],
					"name": "quizOwner",
					"outputs": [
						{
							"internalType": "address",
							"name": "",
							"type": "address"
						}
					],
					"stateMutability": "view",
					"type": "function"
				},
				{
					"inputs": [
						{
							"internalType": "uint256",
							"name": "_quizId",
							"type": "uint256"
						},
						{
							"internalType": "string",
							"name": "_hint",
							"type": "string"
						}
					],
					"name": "quizOwnerChangeHint",
					"outputs": [],
					"stateMutability": "nonpayable",
					"type": "function"
				},
				{
					"inputs": [
						{
							"internalType": "uint256",
							"name": "_quizId",
							"type": "uint256"
						},
						{
							"internalType": "bool",
							"name": "_quizStatus",
							"type": "bool"
						}
					],
					"name": "quizOwnerChangeStatus",
					"outputs": [],
					"stateMutability": "nonpayable",
					"type": "function"
				},
				{
					"inputs": [
						{
							"internalType": "uint256",
							"name": "_quizId",
							"type": "uint256"
						}
					],
					"name": "quizOwnerGetQuiz",
					"outputs": [
						{
							"components": [
								{
									"internalType": "string",
									"name": "question",
									"type": "string"
								},
								{
									"internalType": "string",
									"name": "choice1",
									"type": "string"
								},
								{
									"internalType": "string",
									"name": "choice2",
									"type": "string"
								},
								{
									"internalType": "string",
									"name": "choice3",
									"type": "string"
								},
								{
									"internalType": "string",
									"name": "choice4",
									"type": "string"
								},
								{
									"internalType": "string",
									"name": "hint",
									"type": "string"
								},
								{
									"internalType": "uint8",
									"name": "languageCode",
									"type": "uint8"
								},
								{
									"internalType": "uint256",
									"name": "reward",
									"type": "uint256"
								},
								{
									"internalType": "uint256",
									"name": "rewardPool",
									"type": "uint256"
								}
							],
							"internalType": "struct CreateQuiz.Quiz",
							"name": "",
							"type": "tuple"
						},
						{
							"internalType": "uint8",
							"name": "",
							"type": "uint8"
						}
					],
					"stateMutability": "nonpayable",
					"type": "function"
				},
				{
					"inputs": [],
					"name": "renounceOwnership",
					"outputs": [],
					"stateMutability": "nonpayable",
					"type": "function"
				},
				{
					"inputs": [
						{
							"internalType": "address",
							"name": "newOwner",
							"type": "address"
						}
					],
					"name": "transferOwnership",
					"outputs": [],
					"stateMutability": "nonpayable",
					"type": "function"
				}
			],
			"devdoc": {
				"kind": "dev",
				"methods": {
					"owner()": {
						"details": "Returns the address of the current owner."
					},
					"renounceOwnership()": {
						"details": "Leaves the contract without owner. It will not be possible to call `onlyOwner` functions anymore. Can only be called by the current owner. NOTE: Renouncing ownership will leave the contract without an owner, thereby removing any functionality that is only available to the owner."
					},
					"transferOwnership(address)": {
						"details": "Transfers ownership of the contract to a new account (`newOwner`). Can only be called by the current owner."
					}
				},
				"version": 1
			},
			"evm": {
				"assembly": "    /* \"contracts/ViewQuiz.sol\":93:1116  contract ViewQuiz is CreateQuiz {... */\n  mstore(0x40, 0x80)\n  callvalue\n  dup1\n  iszero\n  tag_1\n  jumpi\n  0x00\n  dup1\n  revert\ntag_1:\n  pop\n    /* \"contracts/Ownable.sol\":914:946  _transferOwnership(_msgSender()) */\n  tag_4\n    /* \"contracts/Ownable.sol\":933:945  _msgSender() */\n  tag_5\n    /* \"contracts/Ownable.sol\":933:943  _msgSender */\n  shl(0x20, tag_6)\n    /* \"contracts/Ownable.sol\":933:945  _msgSender() */\n  0x20\n  shr\n  jump\t// in\ntag_5:\n    /* \"contracts/Ownable.sol\":914:932  _transferOwnership */\n  shl(0x20, tag_7)\n    /* \"contracts/Ownable.sol\":914:946  _transferOwnership(_msgSender()) */\n  0x20\n  shr\n  jump\t// in\ntag_4:\n    /* \"contracts/ViewQuiz.sol\":93:1116  contract ViewQuiz is CreateQuiz {... */\n  jump(tag_8)\n    /* \"contracts/Context.sol\":640:736  function _msgSender() internal view virtual returns (address) {... */\ntag_6:\n    /* \"contracts/Context.sol\":693:700  address */\n  0x00\n    /* \"contracts/Context.sol\":719:729  msg.sender */\n  caller\n    /* \"contracts/Context.sol\":712:729  return msg.sender */\n  swap1\n  pop\n    /* \"contracts/Context.sol\":640:736  function _msgSender() internal view virtual returns (address) {... */\n  swap1\n  jump\t// out\n    /* \"contracts/Ownable.sol\":2263:2450  function _transferOwnership(address newOwner) internal virtual {... */\ntag_7:\n    /* \"contracts/Ownable.sol\":2336:2352  address oldOwner */\n  0x00\n    /* \"contracts/Ownable.sol\":2355:2361  _owner */\n  dup1\n  0x00\n  swap1\n  sload\n  swap1\n  0x0100\n  exp\n  swap1\n  div\n  0xffffffffffffffffffffffffffffffffffffffff\n  and\n    /* \"contracts/Ownable.sol\":2336:2361  address oldOwner = _owner */\n  swap1\n  pop\n    /* \"contracts/Ownable.sol\":2380:2388  newOwner */\n  dup2\n    /* \"contracts/Ownable.sol\":2371:2377  _owner */\n  0x00\n  dup1\n    /* \"contracts/Ownable.sol\":2371:2388  _owner = newOwner */\n  0x0100\n  exp\n  dup2\n  sload\n  dup2\n  0xffffffffffffffffffffffffffffffffffffffff\n  mul\n  not\n  and\n  swap1\n  dup4\n  0xffffffffffffffffffffffffffffffffffffffff\n  and\n  mul\n  or\n  swap1\n  sstore\n  pop\n    /* \"contracts/Ownable.sol\":2434:2442  newOwner */\n  dup2\n    /* \"contracts/Ownable.sol\":2403:2443  OwnershipTransferred(oldOwner, newOwner) */\n  0xffffffffffffffffffffffffffffffffffffffff\n  and\n    /* \"contracts/Ownable.sol\":2424:2432  oldOwner */\n  dup2\n    /* \"contracts/Ownable.sol\":2403:2443  OwnershipTransferred(oldOwner, newOwner) */\n  0xffffffffffffffffffffffffffffffffffffffff\n  and\n  0x8be0079c531659141344cd1fd0a4f28419497f9722a3daafe3b4186f6b6457e0\n  mload(0x40)\n  mload(0x40)\n  dup1\n  swap2\n  sub\n  swap1\n  log3\n    /* \"contracts/Ownable.sol\":2326:2450  {... */\n  pop\n    /* \"contracts/Ownable.sol\":2263:2450  function _transferOwnership(address newOwner) internal virtual {... */\n  pop\n  jump\t// out\n    /* \"contracts/ViewQuiz.sol\":93:1116  contract ViewQuiz is CreateQuiz {... */\ntag_8:\n  dataSize(sub_0)\n  dup1\n  dataOffset(sub_0)\n  0x00\n  codecopy\n  0x00\n  return\nstop\n\nsub_0: assembly {\n        /* \"contracts/ViewQuiz.sol\":93:1116  contract ViewQuiz is CreateQuiz {... */\n      mstore(0x40, 0x80)\n      callvalue\n      dup1\n      iszero\n      tag_1\n      jumpi\n      0x00\n      dup1\n      revert\n    tag_1:\n      pop\n      jumpi(tag_2, lt(calldatasize, 0x04))\n      shr(0xe0, calldataload(0x00))\n      dup1\n      0x728b0d87\n      gt\n      tag_13\n      jumpi\n      dup1\n      0x728b0d87\n      eq\n      tag_8\n      jumpi\n      dup1\n      0x8da5cb5b\n      eq\n      tag_9\n      jumpi\n      dup1\n      0xb9360cf1\n      eq\n      tag_10\n      jumpi\n      dup1\n      0xf2fde38b\n      eq\n      tag_11\n      jumpi\n      dup1\n      0xfbb3b6ce\n      eq\n      tag_12\n      jumpi\n      jump(tag_2)\n    tag_13:\n      dup1\n      0x1d3f7559\n      eq\n      tag_3\n      jumpi\n      dup1\n      0x377def85\n      eq\n      tag_4\n      jumpi\n      dup1\n      0x400ae0f9\n      eq\n      tag_5\n      jumpi\n      dup1\n      0x51a1d40e\n      eq\n      tag_6\n      jumpi\n      dup1\n      0x715018a6\n      eq\n      tag_7\n      jumpi\n    tag_2:\n      0x00\n      dup1\n      revert\n        /* \"contracts/CreateQuiz.sol\":1962:2089  function changeQuizStatus(uint _quizId, bool _quizStatus) public onlyOwner {... */\n    tag_3:\n      tag_14\n      0x04\n      dup1\n      calldatasize\n      sub\n      dup2\n      add\n      swap1\n      tag_15\n      swap2\n      swap1\n      tag_16\n      jump\t// in\n    tag_15:\n      tag_17\n      jump\t// in\n    tag_14:\n      stop\n        /* \"contracts/CreateQuiz.sol\":1526:1671  function quizOwnerChangeStatus(uint _quizId, bool _quizStatus) public onlyQuizOwner(_quizId) {... */\n    tag_4:\n      tag_18\n      0x04\n      dup1\n      calldatasize\n      sub\n      dup2\n      add\n      swap1\n      tag_19\n      swap2\n      swap1\n      tag_16\n      jump\t// in\n    tag_19:\n      tag_20\n      jump\t// in\n    tag_18:\n      stop\n        /* \"contracts/CreateQuiz.sol\":547:589  mapping (uint => address) public quizOwner */\n    tag_5:\n      tag_21\n      0x04\n      dup1\n      calldatasize\n      sub\n      dup2\n      add\n      swap1\n      tag_22\n      swap2\n      swap1\n      tag_23\n      jump\t// in\n    tag_22:\n      tag_24\n      jump\t// in\n    tag_21:\n      mload(0x40)\n      tag_25\n      swap2\n      swap1\n      tag_26\n      jump\t// in\n    tag_25:\n      mload(0x40)\n      dup1\n      swap2\n      sub\n      swap1\n      return\n        /* \"contracts/CreateQuiz.sol\":450:492  mapping (uint => bool) public quizIsActive */\n    tag_6:\n      tag_27\n      0x04\n      dup1\n      calldatasize\n      sub\n      dup2\n      add\n      swap1\n      tag_28\n      swap2\n      swap1\n      tag_23\n      jump\t// in\n    tag_28:\n      tag_29\n      jump\t// in\n    tag_27:\n      mload(0x40)\n      tag_30\n      swap2\n      swap1\n      tag_31\n      jump\t// in\n    tag_30:\n      mload(0x40)\n      dup1\n      swap2\n      sub\n      swap1\n      return\n        /* \"contracts/Ownable.sol\":1661:1762  function renounceOwnership() public virtual onlyOwner {... */\n    tag_7:\n      tag_32\n      tag_33\n      jump\t// in\n    tag_32:\n      stop\n        /* \"contracts/ViewQuiz.sol\":256:617  function getRandomQuiz(string memory _seed) public returns (Quiz memory) {... */\n    tag_8:\n      tag_34\n      0x04\n      dup1\n      calldatasize\n      sub\n      dup2\n      add\n      swap1\n      tag_35\n      swap2\n      swap1\n      tag_36\n      jump\t// in\n    tag_35:\n      tag_37\n      jump\t// in\n    tag_34:\n      mload(0x40)\n      tag_38\n      swap2\n      swap1\n      tag_39\n      jump\t// in\n    tag_38:\n      mload(0x40)\n      dup1\n      swap2\n      sub\n      swap1\n      return\n        /* \"contracts/Ownable.sol\":1029:1114  function owner() public view virtual returns (address) {... */\n    tag_9:\n      tag_40\n      tag_41\n      jump\t// in\n    tag_40:\n      mload(0x40)\n      tag_42\n      swap2\n      swap1\n      tag_26\n      jump\t// in\n    tag_42:\n      mload(0x40)\n      dup1\n      swap2\n      sub\n      swap1\n      return\n        /* \"contracts/ViewQuiz.sol\":880:1112  function quizOwnerGetQuiz(uint _quizId) public onlyQuizOwner(_quizId) returns (Quiz memory, uint8) {... */\n    tag_10:\n      tag_43\n      0x04\n      dup1\n      calldatasize\n      sub\n      dup2\n      add\n      swap1\n      tag_44\n      swap2\n      swap1\n      tag_23\n      jump\t// in\n    tag_44:\n      tag_45\n      jump\t// in\n    tag_43:\n      mload(0x40)\n      tag_46\n      swap3\n      swap2\n      swap1\n      tag_47\n      jump\t// in\n    tag_46:\n      mload(0x40)\n      dup1\n      swap2\n      sub\n      swap1\n      return\n        /* \"contracts/Ownable.sol\":1911:2109  function transferOwnership(address newOwner) public virtual onlyOwner {... */\n    tag_11:\n      tag_48\n      0x04\n      dup1\n      calldatasize\n      sub\n      dup2\n      add\n      swap1\n      tag_49\n      swap2\n      swap1\n      tag_50\n      jump\t// in\n    tag_49:\n      tag_51\n      jump\t// in\n    tag_48:\n      stop\n        /* \"contracts/CreateQuiz.sol\":1732:1872  function quizOwnerChangeHint(uint _quizId, string memory _hint) public onlyQuizOwner(_quizId) {... */\n    tag_12:\n      tag_52\n      0x04\n      dup1\n      calldatasize\n      sub\n      dup2\n      add\n      swap1\n      tag_53\n      swap2\n      swap1\n      tag_54\n      jump\t// in\n    tag_53:\n      tag_55\n      jump\t// in\n    tag_52:\n      stop\n        /* \"contracts/CreateQuiz.sol\":1962:2089  function changeQuizStatus(uint _quizId, bool _quizStatus) public onlyOwner {... */\n    tag_17:\n        /* \"contracts/Ownable.sol\":1252:1264  _msgSender() */\n      tag_57\n        /* \"contracts/Ownable.sol\":1252:1262  _msgSender */\n      tag_58\n        /* \"contracts/Ownable.sol\":1252:1264  _msgSender() */\n      jump\t// in\n    tag_57:\n        /* \"contracts/Ownable.sol\":1241:1264  owner() == _msgSender() */\n      0xffffffffffffffffffffffffffffffffffffffff\n      and\n        /* \"contracts/Ownable.sol\":1241:1248  owner() */\n      tag_59\n        /* \"contracts/Ownable.sol\":1241:1246  owner */\n      tag_41\n        /* \"contracts/Ownable.sol\":1241:1248  owner() */\n      jump\t// in\n    tag_59:\n        /* \"contracts/Ownable.sol\":1241:1264  owner() == _msgSender() */\n      0xffffffffffffffffffffffffffffffffffffffff\n      and\n      eq\n        /* \"contracts/Ownable.sol\":1233:1301  require(owner() == _msgSender(), \"Ownable: caller is not the owner\") */\n      tag_60\n      jumpi\n      mload(0x40)\n      0x08c379a000000000000000000000000000000000000000000000000000000000\n      dup2\n      mstore\n      0x04\n      add\n      tag_61\n      swap1\n      tag_62\n      jump\t// in\n    tag_61:\n      mload(0x40)\n      dup1\n      swap2\n      sub\n      swap1\n      revert\n    tag_60:\n        /* \"contracts/CreateQuiz.sol\":2071:2082  _quizStatus */\n      dup1\n        /* \"contracts/CreateQuiz.sol\":2047:2059  quizIsActive */\n      0x02\n        /* \"contracts/CreateQuiz.sol\":2047:2068  quizIsActive[_quizId] */\n      0x00\n        /* \"contracts/CreateQuiz.sol\":2060:2067  _quizId */\n      dup5\n        /* \"contracts/CreateQuiz.sol\":2047:2068  quizIsActive[_quizId] */\n      dup2\n      mstore\n      0x20\n      add\n      swap1\n      dup2\n      mstore\n      0x20\n      add\n      0x00\n      keccak256\n      0x00\n        /* \"contracts/CreateQuiz.sol\":2047:2082  quizIsActive[_quizId] = _quizStatus */\n      0x0100\n      exp\n      dup2\n      sload\n      dup2\n      0xff\n      mul\n      not\n      and\n      swap1\n      dup4\n      iszero\n      iszero\n      mul\n      or\n      swap1\n      sstore\n      pop\n        /* \"contracts/CreateQuiz.sol\":1962:2089  function changeQuizStatus(uint _quizId, bool _quizStatus) public onlyOwner {... */\n      pop\n      pop\n      jump\t// out\n        /* \"contracts/CreateQuiz.sol\":1526:1671  function quizOwnerChangeStatus(uint _quizId, bool _quizStatus) public onlyQuizOwner(_quizId) {... */\n    tag_20:\n        /* \"contracts/CreateQuiz.sol\":1610:1617  _quizId */\n      dup2\n        /* \"contracts/CreateQuiz.sol\":674:684  msg.sender */\n      caller\n        /* \"contracts/CreateQuiz.sol\":652:684  quizOwner[_quizId] == msg.sender */\n      0xffffffffffffffffffffffffffffffffffffffff\n      and\n        /* \"contracts/CreateQuiz.sol\":652:661  quizOwner */\n      0x04\n        /* \"contracts/CreateQuiz.sol\":652:670  quizOwner[_quizId] */\n      0x00\n        /* \"contracts/CreateQuiz.sol\":662:669  _quizId */\n      dup4\n        /* \"contracts/CreateQuiz.sol\":652:670  quizOwner[_quizId] */\n      dup2\n      mstore\n      0x20\n      add\n      swap1\n      dup2\n      mstore\n      0x20\n      add\n      0x00\n      keccak256\n      0x00\n      swap1\n      sload\n      swap1\n      0x0100\n      exp\n      swap1\n      div\n      0xffffffffffffffffffffffffffffffffffffffff\n      and\n        /* \"contracts/CreateQuiz.sol\":652:684  quizOwner[_quizId] == msg.sender */\n      0xffffffffffffffffffffffffffffffffffffffff\n      and\n      eq\n        /* \"contracts/CreateQuiz.sol\":644:685  require(quizOwner[_quizId] == msg.sender) */\n      tag_65\n      jumpi\n      0x00\n      dup1\n      revert\n    tag_65:\n        /* \"contracts/CreateQuiz.sol\":1653:1664  _quizStatus */\n      dup2\n        /* \"contracts/CreateQuiz.sol\":1629:1641  quizIsActive */\n      0x02\n        /* \"contracts/CreateQuiz.sol\":1629:1650  quizIsActive[_quizId] */\n      0x00\n        /* \"contracts/CreateQuiz.sol\":1642:1649  _quizId */\n      dup6\n        /* \"contracts/CreateQuiz.sol\":1629:1650  quizIsActive[_quizId] */\n      dup2\n      mstore\n      0x20\n      add\n      swap1\n      dup2\n      mstore\n      0x20\n      add\n      0x00\n      keccak256\n      0x00\n        /* \"contracts/CreateQuiz.sol\":1629:1664  quizIsActive[_quizId] = _quizStatus */\n      0x0100\n      exp\n      dup2\n      sload\n      dup2\n      0xff\n      mul\n      not\n      and\n      swap1\n      dup4\n      iszero\n      iszero\n      mul\n      or\n      swap1\n      sstore\n      pop\n        /* \"contracts/CreateQuiz.sol\":1526:1671  function quizOwnerChangeStatus(uint _quizId, bool _quizStatus) public onlyQuizOwner(_quizId) {... */\n      pop\n      pop\n      pop\n      jump\t// out\n        /* \"contracts/CreateQuiz.sol\":547:589  mapping (uint => address) public quizOwner */\n    tag_24:\n      mstore(0x20, 0x04)\n      dup1\n      0x00\n      mstore\n      keccak256(0x00, 0x40)\n      0x00\n      swap2\n      pop\n      sload\n      swap1\n      0x0100\n      exp\n      swap1\n      div\n      0xffffffffffffffffffffffffffffffffffffffff\n      and\n      dup2\n      jump\t// out\n        /* \"contracts/CreateQuiz.sol\":450:492  mapping (uint => bool) public quizIsActive */\n    tag_29:\n      mstore(0x20, 0x02)\n      dup1\n      0x00\n      mstore\n      keccak256(0x00, 0x40)\n      0x00\n      swap2\n      pop\n      sload\n      swap1\n      0x0100\n      exp\n      swap1\n      div\n      0xff\n      and\n      dup2\n      jump\t// out\n        /* \"contracts/Ownable.sol\":1661:1762  function renounceOwnership() public virtual onlyOwner {... */\n    tag_33:\n        /* \"contracts/Ownable.sol\":1252:1264  _msgSender() */\n      tag_68\n        /* \"contracts/Ownable.sol\":1252:1262  _msgSender */\n      tag_58\n        /* \"contracts/Ownable.sol\":1252:1264  _msgSender() */\n      jump\t// in\n    tag_68:\n        /* \"contracts/Ownable.sol\":1241:1264  owner() == _msgSender() */\n      0xffffffffffffffffffffffffffffffffffffffff\n      and\n        /* \"contracts/Ownable.sol\":1241:1248  owner() */\n      tag_69\n        /* \"contracts/Ownable.sol\":1241:1246  owner */\n      tag_41\n        /* \"contracts/Ownable.sol\":1241:1248  owner() */\n      jump\t// in\n    tag_69:\n        /* \"contracts/Ownable.sol\":1241:1264  owner() == _msgSender() */\n      0xffffffffffffffffffffffffffffffffffffffff\n      and\n      eq\n        /* \"contracts/Ownable.sol\":1233:1301  require(owner() == _msgSender(), \"Ownable: caller is not the owner\") */\n      tag_70\n      jumpi\n      mload(0x40)\n      0x08c379a000000000000000000000000000000000000000000000000000000000\n      dup2\n      mstore\n      0x04\n      add\n      tag_71\n      swap1\n      tag_62\n      jump\t// in\n    tag_71:\n      mload(0x40)\n      dup1\n      swap2\n      sub\n      swap1\n      revert\n    tag_70:\n        /* \"contracts/Ownable.sol\":1725:1755  _transferOwnership(address(0)) */\n      tag_73\n        /* \"contracts/Ownable.sol\":1752:1753  0 */\n      0x00\n        /* \"contracts/Ownable.sol\":1725:1743  _transferOwnership */\n      tag_74\n        /* \"contracts/Ownable.sol\":1725:1755  _transferOwnership(address(0)) */\n      jump\t// in\n    tag_73:\n        /* \"contracts/Ownable.sol\":1661:1762  function renounceOwnership() public virtual onlyOwner {... */\n      jump\t// out\n        /* \"contracts/ViewQuiz.sol\":256:617  function getRandomQuiz(string memory _seed) public returns (Quiz memory) {... */\n    tag_37:\n        /* \"contracts/ViewQuiz.sol\":316:327  Quiz memory */\n      tag_75\n      tag_76\n      jump\t// in\n    tag_75:\n        /* \"contracts/ViewQuiz.sol\":339:361  uint storedBlockNumber */\n      0x00\n        /* \"contracts/ViewQuiz.sol\":379:380  1 */\n      0x01\n        /* \"contracts/ViewQuiz.sol\":364:376  block.number */\n      number\n        /* \"contracts/ViewQuiz.sol\":364:380  block.number + 1 */\n      tag_78\n      swap2\n      swap1\n      tag_79\n      jump\t// in\n    tag_78:\n        /* \"contracts/ViewQuiz.sol\":339:380  uint storedBlockNumber = block.number + 1 */\n      swap1\n      pop\n        /* \"contracts/ViewQuiz.sol\":390:399  uint rand */\n      0x00\n        /* \"contracts/ViewQuiz.sol\":434:439  _seed */\n      dup4\n        /* \"contracts/ViewQuiz.sol\":451:468  storedBlockNumber */\n      dup3\n        /* \"contracts/ViewQuiz.sol\":441:469  blockhash(storedBlockNumber) */\n      blockhash\n        /* \"contracts/ViewQuiz.sol\":417:470  abi.encodePacked(_seed, blockhash(storedBlockNumber)) */\n      add(0x20, mload(0x40))\n      tag_80\n      swap3\n      swap2\n      swap1\n      tag_81\n      jump\t// in\n    tag_80:\n      mload(0x40)\n      0x20\n      dup2\n      dup4\n      sub\n      sub\n      dup2\n      mstore\n      swap1\n      0x40\n      mstore\n        /* \"contracts/ViewQuiz.sol\":407:471  keccak256(abi.encodePacked(_seed, blockhash(storedBlockNumber))) */\n      dup1\n      mload\n      swap1\n      0x20\n      add\n      keccak256\n        /* \"contracts/ViewQuiz.sol\":402:472  uint(keccak256(abi.encodePacked(_seed, blockhash(storedBlockNumber)))) */\n      0x00\n      shr\n        /* \"contracts/ViewQuiz.sol\":390:472  uint rand = uint(keccak256(abi.encodePacked(_seed, blockhash(storedBlockNumber)))) */\n      swap1\n      pop\n        /* \"contracts/ViewQuiz.sol\":482:493  uint quizId */\n      0x00\n        /* \"contracts/ViewQuiz.sol\":503:510  quizzes */\n      0x01\n        /* \"contracts/ViewQuiz.sol\":503:517  quizzes.length */\n      dup1\n      sload\n      swap1\n      pop\n        /* \"contracts/ViewQuiz.sol\":496:500  rand */\n      dup3\n        /* \"contracts/ViewQuiz.sol\":496:517  rand % quizzes.length */\n      tag_82\n      swap2\n      swap1\n      tag_83\n      jump\t// in\n    tag_82:\n        /* \"contracts/ViewQuiz.sol\":482:517  uint quizId = rand % quizzes.length */\n      swap1\n      pop\n        /* \"contracts/ViewQuiz.sol\":527:543  Quiz memory quiz */\n      0x00\n        /* \"contracts/ViewQuiz.sol\":546:553  quizzes */\n      0x01\n        /* \"contracts/ViewQuiz.sol\":554:560  quizId */\n      dup3\n        /* \"contracts/ViewQuiz.sol\":546:561  quizzes[quizId] */\n      dup2\n      sload\n      dup2\n      lt\n      tag_84\n      jumpi\n      tag_85\n      tag_86\n      jump\t// in\n    tag_85:\n    tag_84:\n      swap1\n      0x00\n      mstore\n      keccak256(0x00, 0x20)\n      swap1\n      0x09\n      mul\n      add\n        /* \"contracts/ViewQuiz.sol\":527:561  Quiz memory quiz = quizzes[quizId] */\n      mload(0x40)\n      dup1\n      0x0120\n      add\n      0x40\n      mstore\n      swap1\n      dup2\n      0x00\n      dup3\n      add\n      dup1\n      sload\n      tag_88\n      swap1\n      tag_89\n      jump\t// in\n    tag_88:\n      dup1\n      0x1f\n      add\n      0x20\n      dup1\n      swap2\n      div\n      mul\n      0x20\n      add\n      mload(0x40)\n      swap1\n      dup2\n      add\n      0x40\n      mstore\n      dup1\n      swap3\n      swap2\n      swap1\n      dup2\n      dup2\n      mstore\n      0x20\n      add\n      dup3\n      dup1\n      sload\n      tag_90\n      swap1\n      tag_89\n      jump\t// in\n    tag_90:\n      dup1\n      iszero\n      tag_91\n      jumpi\n      dup1\n      0x1f\n      lt\n      tag_92\n      jumpi\n      0x0100\n      dup1\n      dup4\n      sload\n      div\n      mul\n      dup4\n      mstore\n      swap2\n      0x20\n      add\n      swap2\n      jump(tag_91)\n    tag_92:\n      dup3\n      add\n      swap2\n      swap1\n      0x00\n      mstore\n      keccak256(0x00, 0x20)\n      swap1\n    tag_93:\n      dup2\n      sload\n      dup2\n      mstore\n      swap1\n      0x01\n      add\n      swap1\n      0x20\n      add\n      dup1\n      dup4\n      gt\n      tag_93\n      jumpi\n      dup3\n      swap1\n      sub\n      0x1f\n      and\n      dup3\n      add\n      swap2\n    tag_91:\n      pop\n      pop\n      pop\n      pop\n      pop\n      dup2\n      mstore\n      0x20\n      add\n      0x01\n      dup3\n      add\n      dup1\n      sload\n      tag_94\n      swap1\n      tag_89\n      jump\t// in\n    tag_94:\n      dup1\n      0x1f\n      add\n      0x20\n      dup1\n      swap2\n      div\n      mul\n      0x20\n      add\n      mload(0x40)\n      swap1\n      dup2\n      add\n      0x40\n      mstore\n      dup1\n      swap3\n      swap2\n      swap1\n      dup2\n      dup2\n      mstore\n      0x20\n      add\n      dup3\n      dup1\n      sload\n      tag_95\n      swap1\n      tag_89\n      jump\t// in\n    tag_95:\n      dup1\n      iszero\n      tag_96\n      jumpi\n      dup1\n      0x1f\n      lt\n      tag_97\n      jumpi\n      0x0100\n      dup1\n      dup4\n      sload\n      div\n      mul\n      dup4\n      mstore\n      swap2\n      0x20\n      add\n      swap2\n      jump(tag_96)\n    tag_97:\n      dup3\n      add\n      swap2\n      swap1\n      0x00\n      mstore\n      keccak256(0x00, 0x20)\n      swap1\n    tag_98:\n      dup2\n      sload\n      dup2\n      mstore\n      swap1\n      0x01\n      add\n      swap1\n      0x20\n      add\n      dup1\n      dup4\n      gt\n      tag_98\n      jumpi\n      dup3\n      swap1\n      sub\n      0x1f\n      and\n      dup3\n      add\n      swap2\n    tag_96:\n      pop\n      pop\n      pop\n      pop\n      pop\n      dup2\n      mstore\n      0x20\n      add\n      0x02\n      dup3\n      add\n      dup1\n      sload\n      tag_99\n      swap1\n      tag_89\n      jump\t// in\n    tag_99:\n      dup1\n      0x1f\n      add\n      0x20\n      dup1\n      swap2\n      div\n      mul\n      0x20\n      add\n      mload(0x40)\n      swap1\n      dup2\n      add\n      0x40\n      mstore\n      dup1\n      swap3\n      swap2\n      swap1\n      dup2\n      dup2\n      mstore\n      0x20\n      add\n      dup3\n      dup1\n      sload\n      tag_100\n      swap1\n      tag_89\n      jump\t// in\n    tag_100:\n      dup1\n      iszero\n      tag_101\n      jumpi\n      dup1\n      0x1f\n      lt\n      tag_102\n      jumpi\n      0x0100\n      dup1\n      dup4\n      sload\n      div\n      mul\n      dup4\n      mstore\n      swap2\n      0x20\n      add\n      swap2\n      jump(tag_101)\n    tag_102:\n      dup3\n      add\n      swap2\n      swap1\n      0x00\n      mstore\n      keccak256(0x00, 0x20)\n      swap1\n    tag_103:\n      dup2\n      sload\n      dup2\n      mstore\n      swap1\n      0x01\n      add\n      swap1\n      0x20\n      add\n      dup1\n      dup4\n      gt\n      tag_103\n      jumpi\n      dup3\n      swap1\n      sub\n      0x1f\n      and\n      dup3\n      add\n      swap2\n    tag_101:\n      pop\n      pop\n      pop\n      pop\n      pop\n      dup2\n      mstore\n      0x20\n      add\n      0x03\n      dup3\n      add\n      dup1\n      sload\n      tag_104\n      swap1\n      tag_89\n      jump\t// in\n    tag_104:\n      dup1\n      0x1f\n      add\n      0x20\n      dup1\n      swap2\n      div\n      mul\n      0x20\n      add\n      mload(0x40)\n      swap1\n      dup2\n      add\n      0x40\n      mstore\n      dup1\n      swap3\n      swap2\n      swap1\n      dup2\n      dup2\n      mstore\n      0x20\n      add\n      dup3\n      dup1\n      sload\n      tag_105\n      swap1\n      tag_89\n      jump\t// in\n    tag_105:\n      dup1\n      iszero\n      tag_106\n      jumpi\n      dup1\n      0x1f\n      lt\n      tag_107\n      jumpi\n      0x0100\n      dup1\n      dup4\n      sload\n      div\n      mul\n      dup4\n      mstore\n      swap2\n      0x20\n      add\n      swap2\n      jump(tag_106)\n    tag_107:\n      dup3\n      add\n      swap2\n      swap1\n      0x00\n      mstore\n      keccak256(0x00, 0x20)\n      swap1\n    tag_108:\n      dup2\n      sload\n      dup2\n      mstore\n      swap1\n      0x01\n      add\n      swap1\n      0x20\n      add\n      dup1\n      dup4\n      gt\n      tag_108\n      jumpi\n      dup3\n      swap1\n      sub\n      0x1f\n      and\n      dup3\n      add\n      swap2\n    tag_106:\n      pop\n      pop\n      pop\n      pop\n      pop\n      dup2\n      mstore\n      0x20\n      add\n      0x04\n      dup3\n      add\n      dup1\n      sload\n      tag_109\n      swap1\n      tag_89\n      jump\t// in\n    tag_109:\n      dup1\n      0x1f\n      add\n      0x20\n      dup1\n      swap2\n      div\n      mul\n      0x20\n      add\n      mload(0x40)\n      swap1\n      dup2\n      add\n      0x40\n      mstore\n      dup1\n      swap3\n      swap2\n      swap1\n      dup2\n      dup2\n      mstore\n      0x20\n      add\n      dup3\n      dup1\n      sload\n      tag_110\n      swap1\n      tag_89\n      jump\t// in\n    tag_110:\n      dup1\n      iszero\n      tag_111\n      jumpi\n      dup1\n      0x1f\n      lt\n      tag_112\n      jumpi\n      0x0100\n      dup1\n      dup4\n      sload\n      div\n      mul\n      dup4\n      mstore\n      swap2\n      0x20\n      add\n      swap2\n      jump(tag_111)\n    tag_112:\n      dup3\n      add\n      swap2\n      swap1\n      0x00\n      mstore\n      keccak256(0x00, 0x20)\n      swap1\n    tag_113:\n      dup2\n      sload\n      dup2\n      mstore\n      swap1\n      0x01\n      add\n      swap1\n      0x20\n      add\n      dup1\n      dup4\n      gt\n      tag_113\n      jumpi\n      dup3\n      swap1\n      sub\n      0x1f\n      and\n      dup3\n      add\n      swap2\n    tag_111:\n      pop\n      pop\n      pop\n      pop\n      pop\n      dup2\n      mstore\n      0x20\n      add\n      0x05\n      dup3\n      add\n      dup1\n      sload\n      tag_114\n      swap1\n      tag_89\n      jump\t// in\n    tag_114:\n      dup1\n      0x1f\n      add\n      0x20\n      dup1\n      swap2\n      div\n      mul\n      0x20\n      add\n      mload(0x40)\n      swap1\n      dup2\n      add\n      0x40\n      mstore\n      dup1\n      swap3\n      swap2\n      swap1\n      dup2\n      dup2\n      mstore\n      0x20\n      add\n      dup3\n      dup1\n      sload\n      tag_115\n      swap1\n      tag_89\n      jump\t// in\n    tag_115:\n      dup1\n      iszero\n      tag_116\n      jumpi\n      dup1\n      0x1f\n      lt\n      tag_117\n      jumpi\n      0x0100\n      dup1\n      dup4\n      sload\n      div\n      mul\n      dup4\n      mstore\n      swap2\n      0x20\n      add\n      swap2\n      jump(tag_116)\n    tag_117:\n      dup3\n      add\n      swap2\n      swap1\n      0x00\n      mstore\n      keccak256(0x00, 0x20)\n      swap1\n    tag_118:\n      dup2\n      sload\n      dup2\n      mstore\n      swap1\n      0x01\n      add\n      swap1\n      0x20\n      add\n      dup1\n      dup4\n      gt\n      tag_118\n      jumpi\n      dup3\n      swap1\n      sub\n      0x1f\n      and\n      dup3\n      add\n      swap2\n    tag_116:\n      pop\n      pop\n      pop\n      pop\n      pop\n      dup2\n      mstore\n      0x20\n      add\n      0x06\n      dup3\n      add\n      0x00\n      swap1\n      sload\n      swap1\n      0x0100\n      exp\n      swap1\n      div\n      0xff\n      and\n      0xff\n      and\n      0xff\n      and\n      dup2\n      mstore\n      0x20\n      add\n      0x07\n      dup3\n      add\n      sload\n      dup2\n      mstore\n      0x20\n      add\n      0x08\n      dup3\n      add\n      sload\n      dup2\n      mstore\n      pop\n      pop\n      swap1\n      pop\n        /* \"contracts/ViewQuiz.sol\":576:589  GetQuiz(quiz) */\n      0xebb434edb545766f69737b9159b386efa8edaef27eb5737e074ea04d9bdc7b54\n        /* \"contracts/ViewQuiz.sol\":584:588  quiz */\n      dup2\n        /* \"contracts/ViewQuiz.sol\":576:589  GetQuiz(quiz) */\n      mload(0x40)\n      tag_119\n      swap2\n      swap1\n      tag_39\n      jump\t// in\n    tag_119:\n      mload(0x40)\n      dup1\n      swap2\n      sub\n      swap1\n      log1\n        /* \"contracts/ViewQuiz.sol\":606:610  quiz */\n      dup1\n        /* \"contracts/ViewQuiz.sol\":599:610  return quiz */\n      swap5\n      pop\n      pop\n      pop\n      pop\n      pop\n        /* \"contracts/ViewQuiz.sol\":256:617  function getRandomQuiz(string memory _seed) public returns (Quiz memory) {... */\n      swap2\n      swap1\n      pop\n      jump\t// out\n        /* \"contracts/Ownable.sol\":1029:1114  function owner() public view virtual returns (address) {... */\n    tag_41:\n        /* \"contracts/Ownable.sol\":1075:1082  address */\n      0x00\n        /* \"contracts/Ownable.sol\":1101:1107  _owner */\n      dup1\n      0x00\n      swap1\n      sload\n      swap1\n      0x0100\n      exp\n      swap1\n      div\n      0xffffffffffffffffffffffffffffffffffffffff\n      and\n        /* \"contracts/Ownable.sol\":1094:1107  return _owner */\n      swap1\n      pop\n        /* \"contracts/Ownable.sol\":1029:1114  function owner() public view virtual returns (address) {... */\n      swap1\n      jump\t// out\n        /* \"contracts/ViewQuiz.sol\":880:1112  function quizOwnerGetQuiz(uint _quizId) public onlyQuizOwner(_quizId) returns (Quiz memory, uint8) {... */\n    tag_45:\n        /* \"contracts/ViewQuiz.sol\":959:970  Quiz memory */\n      tag_121\n      tag_76\n      jump\t// in\n    tag_121:\n        /* \"contracts/ViewQuiz.sol\":972:977  uint8 */\n      0x00\n        /* \"contracts/ViewQuiz.sol\":941:948  _quizId */\n      dup3\n        /* \"contracts/CreateQuiz.sol\":674:684  msg.sender */\n      caller\n        /* \"contracts/CreateQuiz.sol\":652:684  quizOwner[_quizId] == msg.sender */\n      0xffffffffffffffffffffffffffffffffffffffff\n      and\n        /* \"contracts/CreateQuiz.sol\":652:661  quizOwner */\n      0x04\n        /* \"contracts/CreateQuiz.sol\":652:670  quizOwner[_quizId] */\n      0x00\n        /* \"contracts/CreateQuiz.sol\":662:669  _quizId */\n      dup4\n        /* \"contracts/CreateQuiz.sol\":652:670  quizOwner[_quizId] */\n      dup2\n      mstore\n      0x20\n      add\n      swap1\n      dup2\n      mstore\n      0x20\n      add\n      0x00\n      keccak256\n      0x00\n      swap1\n      sload\n      swap1\n      0x0100\n      exp\n      swap1\n      div\n      0xffffffffffffffffffffffffffffffffffffffff\n      and\n        /* \"contracts/CreateQuiz.sol\":652:684  quizOwner[_quizId] == msg.sender */\n      0xffffffffffffffffffffffffffffffffffffffff\n      and\n      eq\n        /* \"contracts/CreateQuiz.sol\":644:685  require(quizOwner[_quizId] == msg.sender) */\n      tag_123\n      jumpi\n      0x00\n      dup1\n      revert\n    tag_123:\n        /* \"contracts/ViewQuiz.sol\":994:1049  QuizOwnerGetQuiz(quizzes[_quizId], quizAnswer[_quizId]) */\n      0x1a74486300338ccfc1d22ebc3073195695d7bb84c8326394ea4e38ab4fead21f\n        /* \"contracts/ViewQuiz.sol\":1011:1018  quizzes */\n      0x01\n        /* \"contracts/ViewQuiz.sol\":1019:1026  _quizId */\n      dup6\n        /* \"contracts/ViewQuiz.sol\":1011:1027  quizzes[_quizId] */\n      dup2\n      sload\n      dup2\n      lt\n      tag_125\n      jumpi\n      tag_126\n      tag_86\n      jump\t// in\n    tag_126:\n    tag_125:\n      swap1\n      0x00\n      mstore\n      keccak256(0x00, 0x20)\n      swap1\n      0x09\n      mul\n      add\n        /* \"contracts/ViewQuiz.sol\":1029:1039  quizAnswer */\n      0x03\n        /* \"contracts/ViewQuiz.sol\":1029:1048  quizAnswer[_quizId] */\n      0x00\n        /* \"contracts/ViewQuiz.sol\":1040:1047  _quizId */\n      dup8\n        /* \"contracts/ViewQuiz.sol\":1029:1048  quizAnswer[_quizId] */\n      dup2\n      mstore\n      0x20\n      add\n      swap1\n      dup2\n      mstore\n      0x20\n      add\n      0x00\n      keccak256\n      0x00\n      swap1\n      sload\n      swap1\n      0x0100\n      exp\n      swap1\n      div\n      0xff\n      and\n        /* \"contracts/ViewQuiz.sol\":994:1049  QuizOwnerGetQuiz(quizzes[_quizId], quizAnswer[_quizId]) */\n      mload(0x40)\n      tag_128\n      swap3\n      swap2\n      swap1\n      tag_129\n      jump\t// in\n    tag_128:\n      mload(0x40)\n      dup1\n      swap2\n      sub\n      swap1\n      log1\n        /* \"contracts/ViewQuiz.sol\":1067:1074  quizzes */\n      0x01\n        /* \"contracts/ViewQuiz.sol\":1075:1082  _quizId */\n      dup5\n        /* \"contracts/ViewQuiz.sol\":1067:1083  quizzes[_quizId] */\n      dup2\n      sload\n      dup2\n      lt\n      tag_130\n      jumpi\n      tag_131\n      tag_86\n      jump\t// in\n    tag_131:\n    tag_130:\n      swap1\n      0x00\n      mstore\n      keccak256(0x00, 0x20)\n      swap1\n      0x09\n      mul\n      add\n        /* \"contracts/ViewQuiz.sol\":1085:1095  quizAnswer */\n      0x03\n        /* \"contracts/ViewQuiz.sol\":1085:1104  quizAnswer[_quizId] */\n      0x00\n        /* \"contracts/ViewQuiz.sol\":1096:1103  _quizId */\n      dup7\n        /* \"contracts/ViewQuiz.sol\":1085:1104  quizAnswer[_quizId] */\n      dup2\n      mstore\n      0x20\n      add\n      swap1\n      dup2\n      mstore\n      0x20\n      add\n      0x00\n      keccak256\n      0x00\n      swap1\n      sload\n      swap1\n      0x0100\n      exp\n      swap1\n      div\n      0xff\n      and\n        /* \"contracts/ViewQuiz.sol\":1059:1105  return (quizzes[_quizId], quizAnswer[_quizId]) */\n      dup2\n      mload(0x40)\n      dup1\n      0x0120\n      add\n      0x40\n      mstore\n      swap1\n      dup2\n      0x00\n      dup3\n      add\n      dup1\n      sload\n      tag_133\n      swap1\n      tag_89\n      jump\t// in\n    tag_133:\n      dup1\n      0x1f\n      add\n      0x20\n      dup1\n      swap2\n      div\n      mul\n      0x20\n      add\n      mload(0x40)\n      swap1\n      dup2\n      add\n      0x40\n      mstore\n      dup1\n      swap3\n      swap2\n      swap1\n      dup2\n      dup2\n      mstore\n      0x20\n      add\n      dup3\n      dup1\n      sload\n      tag_134\n      swap1\n      tag_89\n      jump\t// in\n    tag_134:\n      dup1\n      iszero\n      tag_135\n      jumpi\n      dup1\n      0x1f\n      lt\n      tag_136\n      jumpi\n      0x0100\n      dup1\n      dup4\n      sload\n      div\n      mul\n      dup4\n      mstore\n      swap2\n      0x20\n      add\n      swap2\n      jump(tag_135)\n    tag_136:\n      dup3\n      add\n      swap2\n      swap1\n      0x00\n      mstore\n      keccak256(0x00, 0x20)\n      swap1\n    tag_137:\n      dup2\n      sload\n      dup2\n      mstore\n      swap1\n      0x01\n      add\n      swap1\n      0x20\n      add\n      dup1\n      dup4\n      gt\n      tag_137\n      jumpi\n      dup3\n      swap1\n      sub\n      0x1f\n      and\n      dup3\n      add\n      swap2\n    tag_135:\n      pop\n      pop\n      pop\n      pop\n      pop\n      dup2\n      mstore\n      0x20\n      add\n      0x01\n      dup3\n      add\n      dup1\n      sload\n      tag_138\n      swap1\n      tag_89\n      jump\t// in\n    tag_138:\n      dup1\n      0x1f\n      add\n      0x20\n      dup1\n      swap2\n      div\n      mul\n      0x20\n      add\n      mload(0x40)\n      swap1\n      dup2\n      add\n      0x40\n      mstore\n      dup1\n      swap3\n      swap2\n      swap1\n      dup2\n      dup2\n      mstore\n      0x20\n      add\n      dup3\n      dup1\n      sload\n      tag_139\n      swap1\n      tag_89\n      jump\t// in\n    tag_139:\n      dup1\n      iszero\n      tag_140\n      jumpi\n      dup1\n      0x1f\n      lt\n      tag_141\n      jumpi\n      0x0100\n      dup1\n      dup4\n      sload\n      div\n      mul\n      dup4\n      mstore\n      swap2\n      0x20\n      add\n      swap2\n      jump(tag_140)\n    tag_141:\n      dup3\n      add\n      swap2\n      swap1\n      0x00\n      mstore\n      keccak256(0x00, 0x20)\n      swap1\n    tag_142:\n      dup2\n      sload\n      dup2\n      mstore\n      swap1\n      0x01\n      add\n      swap1\n      0x20\n      add\n      dup1\n      dup4\n      gt\n      tag_142\n      jumpi\n      dup3\n      swap1\n      sub\n      0x1f\n      and\n      dup3\n      add\n      swap2\n    tag_140:\n      pop\n      pop\n      pop\n      pop\n      pop\n      dup2\n      mstore\n      0x20\n      add\n      0x02\n      dup3\n      add\n      dup1\n      sload\n      tag_143\n      swap1\n      tag_89\n      jump\t// in\n    tag_143:\n      dup1\n      0x1f\n      add\n      0x20\n      dup1\n      swap2\n      div\n      mul\n      0x20\n      add\n      mload(0x40)\n      swap1\n      dup2\n      add\n      0x40\n      mstore\n      dup1\n      swap3\n      swap2\n      swap1\n      dup2\n      dup2\n      mstore\n      0x20\n      add\n      dup3\n      dup1\n      sload\n      tag_144\n      swap1\n      tag_89\n      jump\t// in\n    tag_144:\n      dup1\n      iszero\n      tag_145\n      jumpi\n      dup1\n      0x1f\n      lt\n      tag_146\n      jumpi\n      0x0100\n      dup1\n      dup4\n      sload\n      div\n      mul\n      dup4\n      mstore\n      swap2\n      0x20\n      add\n      swap2\n      jump(tag_145)\n    tag_146:\n      dup3\n      add\n      swap2\n      swap1\n      0x00\n      mstore\n      keccak256(0x00, 0x20)\n      swap1\n    tag_147:\n      dup2\n      sload\n      dup2\n      mstore\n      swap1\n      0x01\n      add\n      swap1\n      0x20\n      add\n      dup1\n      dup4\n      gt\n      tag_147\n      jumpi\n      dup3\n      swap1\n      sub\n      0x1f\n      and\n      dup3\n      add\n      swap2\n    tag_145:\n      pop\n      pop\n      pop\n      pop\n      pop\n      dup2\n      mstore\n      0x20\n      add\n      0x03\n      dup3\n      add\n      dup1\n      sload\n      tag_148\n      swap1\n      tag_89\n      jump\t// in\n    tag_148:\n      dup1\n      0x1f\n      add\n      0x20\n      dup1\n      swap2\n      div\n      mul\n      0x20\n      add\n      mload(0x40)\n      swap1\n      dup2\n      add\n      0x40\n      mstore\n      dup1\n      swap3\n      swap2\n      swap1\n      dup2\n      dup2\n      mstore\n      0x20\n      add\n      dup3\n      dup1\n      sload\n      tag_149\n      swap1\n      tag_89\n      jump\t// in\n    tag_149:\n      dup1\n      iszero\n      tag_150\n      jumpi\n      dup1\n      0x1f\n      lt\n      tag_151\n      jumpi\n      0x0100\n      dup1\n      dup4\n      sload\n      div\n      mul\n      dup4\n      mstore\n      swap2\n      0x20\n      add\n      swap2\n      jump(tag_150)\n    tag_151:\n      dup3\n      add\n      swap2\n      swap1\n      0x00\n      mstore\n      keccak256(0x00, 0x20)\n      swap1\n    tag_152:\n      dup2\n      sload\n      dup2\n      mstore\n      swap1\n      0x01\n      add\n      swap1\n      0x20\n      add\n      dup1\n      dup4\n      gt\n      tag_152\n      jumpi\n      dup3\n      swap1\n      sub\n      0x1f\n      and\n      dup3\n      add\n      swap2\n    tag_150:\n      pop\n      pop\n      pop\n      pop\n      pop\n      dup2\n      mstore\n      0x20\n      add\n      0x04\n      dup3\n      add\n      dup1\n      sload\n      tag_153\n      swap1\n      tag_89\n      jump\t// in\n    tag_153:\n      dup1\n      0x1f\n      add\n      0x20\n      dup1\n      swap2\n      div\n      mul\n      0x20\n      add\n      mload(0x40)\n      swap1\n      dup2\n      add\n      0x40\n      mstore\n      dup1\n      swap3\n      swap2\n      swap1\n      dup2\n      dup2\n      mstore\n      0x20\n      add\n      dup3\n      dup1\n      sload\n      tag_154\n      swap1\n      tag_89\n      jump\t// in\n    tag_154:\n      dup1\n      iszero\n      tag_155\n      jumpi\n      dup1\n      0x1f\n      lt\n      tag_156\n      jumpi\n      0x0100\n      dup1\n      dup4\n      sload\n      div\n      mul\n      dup4\n      mstore\n      swap2\n      0x20\n      add\n      swap2\n      jump(tag_155)\n    tag_156:\n      dup3\n      add\n      swap2\n      swap1\n      0x00\n      mstore\n      keccak256(0x00, 0x20)\n      swap1\n    tag_157:\n      dup2\n      sload\n      dup2\n      mstore\n      swap1\n      0x01\n      add\n      swap1\n      0x20\n      add\n      dup1\n      dup4\n      gt\n      tag_157\n      jumpi\n      dup3\n      swap1\n      sub\n      0x1f\n      and\n      dup3\n      add\n      swap2\n    tag_155:\n      pop\n      pop\n      pop\n      pop\n      pop\n      dup2\n      mstore\n      0x20\n      add\n      0x05\n      dup3\n      add\n      dup1\n      sload\n      tag_158\n      swap1\n      tag_89\n      jump\t// in\n    tag_158:\n      dup1\n      0x1f\n      add\n      0x20\n      dup1\n      swap2\n      div\n      mul\n      0x20\n      add\n      mload(0x40)\n      swap1\n      dup2\n      add\n      0x40\n      mstore\n      dup1\n      swap3\n      swap2\n      swap1\n      dup2\n      dup2\n      mstore\n      0x20\n      add\n      dup3\n      dup1\n      sload\n      tag_159\n      swap1\n      tag_89\n      jump\t// in\n    tag_159:\n      dup1\n      iszero\n      tag_160\n      jumpi\n      dup1\n      0x1f\n      lt\n      tag_161\n      jumpi\n      0x0100\n      dup1\n      dup4\n      sload\n      div\n      mul\n      dup4\n      mstore\n      swap2\n      0x20\n      add\n      swap2\n      jump(tag_160)\n    tag_161:\n      dup3\n      add\n      swap2\n      swap1\n      0x00\n      mstore\n      keccak256(0x00, 0x20)\n      swap1\n    tag_162:\n      dup2\n      sload\n      dup2\n      mstore\n      swap1\n      0x01\n      add\n      swap1\n      0x20\n      add\n      dup1\n      dup4\n      gt\n      tag_162\n      jumpi\n      dup3\n      swap1\n      sub\n      0x1f\n      and\n      dup3\n      add\n      swap2\n    tag_160:\n      pop\n      pop\n      pop\n      pop\n      pop\n      dup2\n      mstore\n      0x20\n      add\n      0x06\n      dup3\n      add\n      0x00\n      swap1\n      sload\n      swap1\n      0x0100\n      exp\n      swap1\n      div\n      0xff\n      and\n      0xff\n      and\n      0xff\n      and\n      dup2\n      mstore\n      0x20\n      add\n      0x07\n      dup3\n      add\n      sload\n      dup2\n      mstore\n      0x20\n      add\n      0x08\n      dup3\n      add\n      sload\n      dup2\n      mstore\n      pop\n      pop\n      swap2\n      pop\n      swap3\n      pop\n      swap3\n      pop\n        /* \"contracts/ViewQuiz.sol\":880:1112  function quizOwnerGetQuiz(uint _quizId) public onlyQuizOwner(_quizId) returns (Quiz memory, uint8) {... */\n      pop\n      swap2\n      pop\n      swap2\n      jump\t// out\n        /* \"contracts/Ownable.sol\":1911:2109  function transferOwnership(address newOwner) public virtual onlyOwner {... */\n    tag_51:\n        /* \"contracts/Ownable.sol\":1252:1264  _msgSender() */\n      tag_164\n        /* \"contracts/Ownable.sol\":1252:1262  _msgSender */\n      tag_58\n        /* \"contracts/Ownable.sol\":1252:1264  _msgSender() */\n      jump\t// in\n    tag_164:\n        /* \"contracts/Ownable.sol\":1241:1264  owner() == _msgSender() */\n      0xffffffffffffffffffffffffffffffffffffffff\n      and\n        /* \"contracts/Ownable.sol\":1241:1248  owner() */\n      tag_165\n        /* \"contracts/Ownable.sol\":1241:1246  owner */\n      tag_41\n        /* \"contracts/Ownable.sol\":1241:1248  owner() */\n      jump\t// in\n    tag_165:\n        /* \"contracts/Ownable.sol\":1241:1264  owner() == _msgSender() */\n      0xffffffffffffffffffffffffffffffffffffffff\n      and\n      eq\n        /* \"contracts/Ownable.sol\":1233:1301  require(owner() == _msgSender(), \"Ownable: caller is not the owner\") */\n      tag_166\n      jumpi\n      mload(0x40)\n      0x08c379a000000000000000000000000000000000000000000000000000000000\n      dup2\n      mstore\n      0x04\n      add\n      tag_167\n      swap1\n      tag_62\n      jump\t// in\n    tag_167:\n      mload(0x40)\n      dup1\n      swap2\n      sub\n      swap1\n      revert\n    tag_166:\n        /* \"contracts/Ownable.sol\":2019:2020  0 */\n      0x00\n        /* \"contracts/Ownable.sol\":1999:2021  newOwner != address(0) */\n      0xffffffffffffffffffffffffffffffffffffffff\n      and\n        /* \"contracts/Ownable.sol\":1999:2007  newOwner */\n      dup2\n        /* \"contracts/Ownable.sol\":1999:2021  newOwner != address(0) */\n      0xffffffffffffffffffffffffffffffffffffffff\n      and\n      sub\n        /* \"contracts/Ownable.sol\":1991:2064  require(newOwner != address(0), \"Ownable: new owner is the zero address\") */\n      tag_169\n      jumpi\n      mload(0x40)\n      0x08c379a000000000000000000000000000000000000000000000000000000000\n      dup2\n      mstore\n      0x04\n      add\n      tag_170\n      swap1\n      tag_171\n      jump\t// in\n    tag_170:\n      mload(0x40)\n      dup1\n      swap2\n      sub\n      swap1\n      revert\n    tag_169:\n        /* \"contracts/Ownable.sol\":2074:2102  _transferOwnership(newOwner) */\n      tag_172\n        /* \"contracts/Ownable.sol\":2093:2101  newOwner */\n      dup2\n        /* \"contracts/Ownable.sol\":2074:2092  _transferOwnership */\n      tag_74\n        /* \"contracts/Ownable.sol\":2074:2102  _transferOwnership(newOwner) */\n      jump\t// in\n    tag_172:\n        /* \"contracts/Ownable.sol\":1911:2109  function transferOwnership(address newOwner) public virtual onlyOwner {... */\n      pop\n      jump\t// out\n        /* \"contracts/CreateQuiz.sol\":1732:1872  function quizOwnerChangeHint(uint _quizId, string memory _hint) public onlyQuizOwner(_quizId) {... */\n    tag_55:\n        /* \"contracts/CreateQuiz.sol\":1817:1824  _quizId */\n      dup2\n        /* \"contracts/CreateQuiz.sol\":674:684  msg.sender */\n      caller\n        /* \"contracts/CreateQuiz.sol\":652:684  quizOwner[_quizId] == msg.sender */\n      0xffffffffffffffffffffffffffffffffffffffff\n      and\n        /* \"contracts/CreateQuiz.sol\":652:661  quizOwner */\n      0x04\n        /* \"contracts/CreateQuiz.sol\":652:670  quizOwner[_quizId] */\n      0x00\n        /* \"contracts/CreateQuiz.sol\":662:669  _quizId */\n      dup4\n        /* \"contracts/CreateQuiz.sol\":652:670  quizOwner[_quizId] */\n      dup2\n      mstore\n      0x20\n      add\n      swap1\n      dup2\n      mstore\n      0x20\n      add\n      0x00\n      keccak256\n      0x00\n      swap1\n      sload\n      swap1\n      0x0100\n      exp\n      swap1\n      div\n      0xffffffffffffffffffffffffffffffffffffffff\n      and\n        /* \"contracts/CreateQuiz.sol\":652:684  quizOwner[_quizId] == msg.sender */\n      0xffffffffffffffffffffffffffffffffffffffff\n      and\n      eq\n        /* \"contracts/CreateQuiz.sol\":644:685  require(quizOwner[_quizId] == msg.sender) */\n      tag_174\n      jumpi\n      0x00\n      dup1\n      revert\n    tag_174:\n        /* \"contracts/CreateQuiz.sol\":1860:1865  _hint */\n      dup2\n        /* \"contracts/CreateQuiz.sol\":1836:1843  quizzes */\n      0x01\n        /* \"contracts/CreateQuiz.sol\":1844:1851  _quizId */\n      dup5\n        /* \"contracts/CreateQuiz.sol\":1836:1852  quizzes[_quizId] */\n      dup2\n      sload\n      dup2\n      lt\n      tag_176\n      jumpi\n      tag_177\n      tag_86\n      jump\t// in\n    tag_177:\n    tag_176:\n      swap1\n      0x00\n      mstore\n      keccak256(0x00, 0x20)\n      swap1\n      0x09\n      mul\n      add\n        /* \"contracts/CreateQuiz.sol\":1836:1857  quizzes[_quizId].hint */\n      0x05\n      add\n        /* \"contracts/CreateQuiz.sol\":1836:1865  quizzes[_quizId].hint = _hint */\n      swap1\n      dup1\n      mload\n      swap1\n      0x20\n      add\n      swap1\n      tag_179\n      swap3\n      swap2\n      swap1\n      tag_180\n      jump\t// in\n    tag_179:\n      pop\n        /* \"contracts/CreateQuiz.sol\":1732:1872  function quizOwnerChangeHint(uint _quizId, string memory _hint) public onlyQuizOwner(_quizId) {... */\n      pop\n      pop\n      pop\n      jump\t// out\n        /* \"contracts/Context.sol\":640:736  function _msgSender() internal view virtual returns (address) {... */\n    tag_58:\n        /* \"contracts/Context.sol\":693:700  address */\n      0x00\n        /* \"contracts/Context.sol\":719:729  msg.sender */\n      caller\n        /* \"contracts/Context.sol\":712:729  return msg.sender */\n      swap1\n      pop\n        /* \"contracts/Context.sol\":640:736  function _msgSender() internal view virtual returns (address) {... */\n      swap1\n      jump\t// out\n        /* \"contracts/Ownable.sol\":2263:2450  function _transferOwnership(address newOwner) internal virtual {... */\n    tag_74:\n        /* \"contracts/Ownable.sol\":2336:2352  address oldOwner */\n      0x00\n        /* \"contracts/Ownable.sol\":2355:2361  _owner */\n      dup1\n      0x00\n      swap1\n      sload\n      swap1\n      0x0100\n      exp\n      swap1\n      div\n      0xffffffffffffffffffffffffffffffffffffffff\n      and\n        /* \"contracts/Ownable.sol\":2336:2361  address oldOwner = _owner */\n      swap1\n      pop\n        /* \"contracts/Ownable.sol\":2380:2388  newOwner */\n      dup2\n        /* \"contracts/Ownable.sol\":2371:2377  _owner */\n      0x00\n      dup1\n        /* \"contracts/Ownable.sol\":2371:2388  _owner = newOwner */\n      0x0100\n      exp\n      dup2\n      sload\n      dup2\n      0xffffffffffffffffffffffffffffffffffffffff\n      mul\n      not\n      and\n      swap1\n      dup4\n      0xffffffffffffffffffffffffffffffffffffffff\n      and\n      mul\n      or\n      swap1\n      sstore\n      pop\n        /* \"contracts/Ownable.sol\":2434:2442  newOwner */\n      dup2\n        /* \"contracts/Ownable.sol\":2403:2443  OwnershipTransferred(oldOwner, newOwner) */\n      0xffffffffffffffffffffffffffffffffffffffff\n      and\n        /* \"contracts/Ownable.sol\":2424:2432  oldOwner */\n      dup2\n        /* \"contracts/Ownable.sol\":2403:2443  OwnershipTransferred(oldOwner, newOwner) */\n      0xffffffffffffffffffffffffffffffffffffffff\n      and\n      0x8be0079c531659141344cd1fd0a4f28419497f9722a3daafe3b4186f6b6457e0\n      mload(0x40)\n      mload(0x40)\n      dup1\n      swap2\n      sub\n      swap1\n      log3\n        /* \"contracts/Ownable.sol\":2326:2450  {... */\n      pop\n        /* \"contracts/Ownable.sol\":2263:2450  function _transferOwnership(address newOwner) internal virtual {... */\n      pop\n      jump\t// out\n    tag_76:\n      mload(0x40)\n      dup1\n      0x0120\n      add\n      0x40\n      mstore\n      dup1\n      0x60\n      dup2\n      mstore\n      0x20\n      add\n      0x60\n      dup2\n      mstore\n      0x20\n      add\n      0x60\n      dup2\n      mstore\n      0x20\n      add\n      0x60\n      dup2\n      mstore\n      0x20\n      add\n      0x60\n      dup2\n      mstore\n      0x20\n      add\n      0x60\n      dup2\n      mstore\n      0x20\n      add\n      and(0xff, 0x00)\n      dup2\n      mstore\n      0x20\n      add\n      0x00\n      dup2\n      mstore\n      0x20\n      add\n      0x00\n      dup2\n      mstore\n      pop\n      swap1\n      jump\t// out\n    tag_180:\n      dup3\n      dup1\n      sload\n      tag_183\n      swap1\n      tag_89\n      jump\t// in\n    tag_183:\n      swap1\n      0x00\n      mstore\n      keccak256(0x00, 0x20)\n      swap1\n      0x1f\n      add\n      0x20\n      swap1\n      div\n      dup2\n      add\n      swap3\n      dup3\n      tag_185\n      jumpi\n      0x00\n      dup6\n      sstore\n      jump(tag_184)\n    tag_185:\n      dup3\n      0x1f\n      lt\n      tag_186\n      jumpi\n      dup1\n      mload\n      not(0xff)\n      and\n      dup4\n      dup1\n      add\n      or\n      dup6\n      sstore\n      jump(tag_184)\n    tag_186:\n      dup3\n      dup1\n      add\n      0x01\n      add\n      dup6\n      sstore\n      dup3\n      iszero\n      tag_184\n      jumpi\n      swap2\n      dup3\n      add\n    tag_187:\n      dup3\n      dup2\n      gt\n      iszero\n      tag_188\n      jumpi\n      dup3\n      mload\n      dup3\n      sstore\n      swap2\n      0x20\n      add\n      swap2\n      swap1\n      0x01\n      add\n      swap1\n      jump(tag_187)\n    tag_188:\n    tag_184:\n      pop\n      swap1\n      pop\n      tag_189\n      swap2\n      swap1\n      tag_190\n      jump\t// in\n    tag_189:\n      pop\n      swap1\n      jump\t// out\n    tag_190:\n    tag_191:\n      dup1\n      dup3\n      gt\n      iszero\n      tag_192\n      jumpi\n      0x00\n      dup2\n      0x00\n      swap1\n      sstore\n      pop\n      0x01\n      add\n      jump(tag_191)\n    tag_192:\n      pop\n      swap1\n      jump\t// out\n        /* \"#utility.yul\":7:82   */\n    tag_193:\n        /* \"#utility.yul\":40:46   */\n      0x00\n        /* \"#utility.yul\":73:75   */\n      0x40\n        /* \"#utility.yul\":67:76   */\n      mload\n        /* \"#utility.yul\":57:76   */\n      swap1\n      pop\n        /* \"#utility.yul\":7:82   */\n      swap1\n      jump\t// out\n        /* \"#utility.yul\":88:205   */\n    tag_194:\n        /* \"#utility.yul\":197:198   */\n      0x00\n        /* \"#utility.yul\":194:195   */\n      dup1\n        /* \"#utility.yul\":187:199   */\n      revert\n        /* \"#utility.yul\":211:328   */\n    tag_195:\n        /* \"#utility.yul\":320:321   */\n      0x00\n        /* \"#utility.yul\":317:318   */\n      dup1\n        /* \"#utility.yul\":310:322   */\n      revert\n        /* \"#utility.yul\":334:411   */\n    tag_196:\n        /* \"#utility.yul\":371:378   */\n      0x00\n        /* \"#utility.yul\":400:405   */\n      dup2\n        /* \"#utility.yul\":389:405   */\n      swap1\n      pop\n        /* \"#utility.yul\":334:411   */\n      swap2\n      swap1\n      pop\n      jump\t// out\n        /* \"#utility.yul\":417:539   */\n    tag_197:\n        /* \"#utility.yul\":490:514   */\n      tag_254\n        /* \"#utility.yul\":508:513   */\n      dup2\n        /* \"#utility.yul\":490:514   */\n      tag_196\n      jump\t// in\n    tag_254:\n        /* \"#utility.yul\":483:488   */\n      dup2\n        /* \"#utility.yul\":480:515   */\n      eq\n        /* \"#utility.yul\":470:533   */\n      tag_255\n      jumpi\n        /* \"#utility.yul\":529:530   */\n      0x00\n        /* \"#utility.yul\":526:527   */\n      dup1\n        /* \"#utility.yul\":519:531   */\n      revert\n        /* \"#utility.yul\":470:533   */\n    tag_255:\n        /* \"#utility.yul\":417:539   */\n      pop\n      jump\t// out\n        /* \"#utility.yul\":545:684   */\n    tag_198:\n        /* \"#utility.yul\":591:596   */\n      0x00\n        /* \"#utility.yul\":629:635   */\n      dup2\n        /* \"#utility.yul\":616:636   */\n      calldataload\n        /* \"#utility.yul\":607:636   */\n      swap1\n      pop\n        /* \"#utility.yul\":645:678   */\n      tag_257\n        /* \"#utility.yul\":672:677   */\n      dup2\n        /* \"#utility.yul\":645:678   */\n      tag_197\n      jump\t// in\n    tag_257:\n        /* \"#utility.yul\":545:684   */\n      swap3\n      swap2\n      pop\n      pop\n      jump\t// out\n        /* \"#utility.yul\":690:780   */\n    tag_199:\n        /* \"#utility.yul\":724:731   */\n      0x00\n        /* \"#utility.yul\":767:772   */\n      dup2\n        /* \"#utility.yul\":760:773   */\n      iszero\n        /* \"#utility.yul\":753:774   */\n      iszero\n        /* \"#utility.yul\":742:774   */\n      swap1\n      pop\n        /* \"#utility.yul\":690:780   */\n      swap2\n      swap1\n      pop\n      jump\t// out\n        /* \"#utility.yul\":786:902   */\n    tag_200:\n        /* \"#utility.yul\":856:877   */\n      tag_260\n        /* \"#utility.yul\":871:876   */\n      dup2\n        /* \"#utility.yul\":856:877   */\n      tag_199\n      jump\t// in\n    tag_260:\n        /* \"#utility.yul\":849:854   */\n      dup2\n        /* \"#utility.yul\":846:878   */\n      eq\n        /* \"#utility.yul\":836:896   */\n      tag_261\n      jumpi\n        /* \"#utility.yul\":892:893   */\n      0x00\n        /* \"#utility.yul\":889:890   */\n      dup1\n        /* \"#utility.yul\":882:894   */\n      revert\n        /* \"#utility.yul\":836:896   */\n    tag_261:\n        /* \"#utility.yul\":786:902   */\n      pop\n      jump\t// out\n        /* \"#utility.yul\":908:1041   */\n    tag_201:\n        /* \"#utility.yul\":951:956   */\n      0x00\n        /* \"#utility.yul\":989:995   */\n      dup2\n        /* \"#utility.yul\":976:996   */\n      calldataload\n        /* \"#utility.yul\":967:996   */\n      swap1\n      pop\n        /* \"#utility.yul\":1005:1035   */\n      tag_263\n        /* \"#utility.yul\":1029:1034   */\n      dup2\n        /* \"#utility.yul\":1005:1035   */\n      tag_200\n      jump\t// in\n    tag_263:\n        /* \"#utility.yul\":908:1041   */\n      swap3\n      swap2\n      pop\n      pop\n      jump\t// out\n        /* \"#utility.yul\":1047:1515   */\n    tag_16:\n        /* \"#utility.yul\":1112:1118   */\n      0x00\n        /* \"#utility.yul\":1120:1126   */\n      dup1\n        /* \"#utility.yul\":1169:1171   */\n      0x40\n        /* \"#utility.yul\":1157:1166   */\n      dup4\n        /* \"#utility.yul\":1148:1155   */\n      dup6\n        /* \"#utility.yul\":1144:1167   */\n      sub\n        /* \"#utility.yul\":1140:1172   */\n      slt\n        /* \"#utility.yul\":1137:1256   */\n      iszero\n      tag_265\n      jumpi\n        /* \"#utility.yul\":1175:1254   */\n      tag_266\n      tag_194\n      jump\t// in\n    tag_266:\n        /* \"#utility.yul\":1137:1256   */\n    tag_265:\n        /* \"#utility.yul\":1295:1296   */\n      0x00\n        /* \"#utility.yul\":1320:1373   */\n      tag_267\n        /* \"#utility.yul\":1365:1372   */\n      dup6\n        /* \"#utility.yul\":1356:1362   */\n      dup3\n        /* \"#utility.yul\":1345:1354   */\n      dup7\n        /* \"#utility.yul\":1341:1363   */\n      add\n        /* \"#utility.yul\":1320:1373   */\n      tag_198\n      jump\t// in\n    tag_267:\n        /* \"#utility.yul\":1310:1373   */\n      swap3\n      pop\n        /* \"#utility.yul\":1266:1383   */\n      pop\n        /* \"#utility.yul\":1422:1424   */\n      0x20\n        /* \"#utility.yul\":1448:1498   */\n      tag_268\n        /* \"#utility.yul\":1490:1497   */\n      dup6\n        /* \"#utility.yul\":1481:1487   */\n      dup3\n        /* \"#utility.yul\":1470:1479   */\n      dup7\n        /* \"#utility.yul\":1466:1488   */\n      add\n        /* \"#utility.yul\":1448:1498   */\n      tag_201\n      jump\t// in\n    tag_268:\n        /* \"#utility.yul\":1438:1498   */\n      swap2\n      pop\n        /* \"#utility.yul\":1393:1508   */\n      pop\n        /* \"#utility.yul\":1047:1515   */\n      swap3\n      pop\n      swap3\n      swap1\n      pop\n      jump\t// out\n        /* \"#utility.yul\":1521:1850   */\n    tag_23:\n        /* \"#utility.yul\":1580:1586   */\n      0x00\n        /* \"#utility.yul\":1629:1631   */\n      0x20\n        /* \"#utility.yul\":1617:1626   */\n      dup3\n        /* \"#utility.yul\":1608:1615   */\n      dup5\n        /* \"#utility.yul\":1604:1627   */\n      sub\n        /* \"#utility.yul\":1600:1632   */\n      slt\n        /* \"#utility.yul\":1597:1716   */\n      iszero\n      tag_270\n      jumpi\n        /* \"#utility.yul\":1635:1714   */\n      tag_271\n      tag_194\n      jump\t// in\n    tag_271:\n        /* \"#utility.yul\":1597:1716   */\n    tag_270:\n        /* \"#utility.yul\":1755:1756   */\n      0x00\n        /* \"#utility.yul\":1780:1833   */\n      tag_272\n        /* \"#utility.yul\":1825:1832   */\n      dup5\n        /* \"#utility.yul\":1816:1822   */\n      dup3\n        /* \"#utility.yul\":1805:1814   */\n      dup6\n        /* \"#utility.yul\":1801:1823   */\n      add\n        /* \"#utility.yul\":1780:1833   */\n      tag_198\n      jump\t// in\n    tag_272:\n        /* \"#utility.yul\":1770:1833   */\n      swap2\n      pop\n        /* \"#utility.yul\":1726:1843   */\n      pop\n        /* \"#utility.yul\":1521:1850   */\n      swap3\n      swap2\n      pop\n      pop\n      jump\t// out\n        /* \"#utility.yul\":1856:1982   */\n    tag_202:\n        /* \"#utility.yul\":1893:1900   */\n      0x00\n        /* \"#utility.yul\":1933:1975   */\n      0xffffffffffffffffffffffffffffffffffffffff\n        /* \"#utility.yul\":1926:1931   */\n      dup3\n        /* \"#utility.yul\":1922:1976   */\n      and\n        /* \"#utility.yul\":1911:1976   */\n      swap1\n      pop\n        /* \"#utility.yul\":1856:1982   */\n      swap2\n      swap1\n      pop\n      jump\t// out\n        /* \"#utility.yul\":1988:2084   */\n    tag_203:\n        /* \"#utility.yul\":2025:2032   */\n      0x00\n        /* \"#utility.yul\":2054:2078   */\n      tag_275\n        /* \"#utility.yul\":2072:2077   */\n      dup3\n        /* \"#utility.yul\":2054:2078   */\n      tag_202\n      jump\t// in\n    tag_275:\n        /* \"#utility.yul\":2043:2078   */\n      swap1\n      pop\n        /* \"#utility.yul\":1988:2084   */\n      swap2\n      swap1\n      pop\n      jump\t// out\n        /* \"#utility.yul\":2090:2208   */\n    tag_204:\n        /* \"#utility.yul\":2177:2201   */\n      tag_277\n        /* \"#utility.yul\":2195:2200   */\n      dup2\n        /* \"#utility.yul\":2177:2201   */\n      tag_203\n      jump\t// in\n    tag_277:\n        /* \"#utility.yul\":2172:2175   */\n      dup3\n        /* \"#utility.yul\":2165:2202   */\n      mstore\n        /* \"#utility.yul\":2090:2208   */\n      pop\n      pop\n      jump\t// out\n        /* \"#utility.yul\":2214:2436   */\n    tag_26:\n        /* \"#utility.yul\":2307:2311   */\n      0x00\n        /* \"#utility.yul\":2345:2347   */\n      0x20\n        /* \"#utility.yul\":2334:2343   */\n      dup3\n        /* \"#utility.yul\":2330:2348   */\n      add\n        /* \"#utility.yul\":2322:2348   */\n      swap1\n      pop\n        /* \"#utility.yul\":2358:2429   */\n      tag_279\n        /* \"#utility.yul\":2426:2427   */\n      0x00\n        /* \"#utility.yul\":2415:2424   */\n      dup4\n        /* \"#utility.yul\":2411:2428   */\n      add\n        /* \"#utility.yul\":2402:2408   */\n      dup5\n        /* \"#utility.yul\":2358:2429   */\n      tag_204\n      jump\t// in\n    tag_279:\n        /* \"#utility.yul\":2214:2436   */\n      swap3\n      swap2\n      pop\n      pop\n      jump\t// out\n        /* \"#utility.yul\":2442:2551   */\n    tag_205:\n        /* \"#utility.yul\":2523:2544   */\n      tag_281\n        /* \"#utility.yul\":2538:2543   */\n      dup2\n        /* \"#utility.yul\":2523:2544   */\n      tag_199\n      jump\t// in\n    tag_281:\n        /* \"#utility.yul\":2518:2521   */\n      dup3\n        /* \"#utility.yul\":2511:2545   */\n      mstore\n        /* \"#utility.yul\":2442:2551   */\n      pop\n      pop\n      jump\t// out\n        /* \"#utility.yul\":2557:2767   */\n    tag_31:\n        /* \"#utility.yul\":2644:2648   */\n      0x00\n        /* \"#utility.yul\":2682:2684   */\n      0x20\n        /* \"#utility.yul\":2671:2680   */\n      dup3\n        /* \"#utility.yul\":2667:2685   */\n      add\n        /* \"#utility.yul\":2659:2685   */\n      swap1\n      pop\n        /* \"#utility.yul\":2695:2760   */\n      tag_283\n        /* \"#utility.yul\":2757:2758   */\n      0x00\n        /* \"#utility.yul\":2746:2755   */\n      dup4\n        /* \"#utility.yul\":2742:2759   */\n      add\n        /* \"#utility.yul\":2733:2739   */\n      dup5\n        /* \"#utility.yul\":2695:2760   */\n      tag_205\n      jump\t// in\n    tag_283:\n        /* \"#utility.yul\":2557:2767   */\n      swap3\n      swap2\n      pop\n      pop\n      jump\t// out\n        /* \"#utility.yul\":2773:2890   */\n    tag_206:\n        /* \"#utility.yul\":2882:2883   */\n      0x00\n        /* \"#utility.yul\":2879:2880   */\n      dup1\n        /* \"#utility.yul\":2872:2884   */\n      revert\n        /* \"#utility.yul\":2896:3013   */\n    tag_207:\n        /* \"#utility.yul\":3005:3006   */\n      0x00\n        /* \"#utility.yul\":3002:3003   */\n      dup1\n        /* \"#utility.yul\":2995:3007   */\n      revert\n        /* \"#utility.yul\":3019:3121   */\n    tag_208:\n        /* \"#utility.yul\":3060:3066   */\n      0x00\n        /* \"#utility.yul\":3111:3113   */\n      0x1f\n        /* \"#utility.yul\":3107:3114   */\n      not\n        /* \"#utility.yul\":3102:3104   */\n      0x1f\n        /* \"#utility.yul\":3095:3100   */\n      dup4\n        /* \"#utility.yul\":3091:3105   */\n      add\n        /* \"#utility.yul\":3087:3115   */\n      and\n        /* \"#utility.yul\":3077:3115   */\n      swap1\n      pop\n        /* \"#utility.yul\":3019:3121   */\n      swap2\n      swap1\n      pop\n      jump\t// out\n        /* \"#utility.yul\":3127:3307   */\n    tag_209:\n        /* \"#utility.yul\":3175:3252   */\n      0x4e487b7100000000000000000000000000000000000000000000000000000000\n        /* \"#utility.yul\":3172:3173   */\n      0x00\n        /* \"#utility.yul\":3165:3253   */\n      mstore\n        /* \"#utility.yul\":3272:3276   */\n      0x41\n        /* \"#utility.yul\":3269:3270   */\n      0x04\n        /* \"#utility.yul\":3262:3277   */\n      mstore\n        /* \"#utility.yul\":3296:3300   */\n      0x24\n        /* \"#utility.yul\":3293:3294   */\n      0x00\n        /* \"#utility.yul\":3286:3301   */\n      revert\n        /* \"#utility.yul\":3313:3594   */\n    tag_210:\n        /* \"#utility.yul\":3396:3423   */\n      tag_289\n        /* \"#utility.yul\":3418:3422   */\n      dup3\n        /* \"#utility.yul\":3396:3423   */\n      tag_208\n      jump\t// in\n    tag_289:\n        /* \"#utility.yul\":3388:3394   */\n      dup2\n        /* \"#utility.yul\":3384:3424   */\n      add\n        /* \"#utility.yul\":3526:3532   */\n      dup2\n        /* \"#utility.yul\":3514:3524   */\n      dup2\n        /* \"#utility.yul\":3511:3533   */\n      lt\n        /* \"#utility.yul\":3490:3508   */\n      0xffffffffffffffff\n        /* \"#utility.yul\":3478:3488   */\n      dup3\n        /* \"#utility.yul\":3475:3509   */\n      gt\n        /* \"#utility.yul\":3472:3534   */\n      or\n        /* \"#utility.yul\":3469:3557   */\n      iszero\n      tag_290\n      jumpi\n        /* \"#utility.yul\":3537:3555   */\n      tag_291\n      tag_209\n      jump\t// in\n    tag_291:\n        /* \"#utility.yul\":3469:3557   */\n    tag_290:\n        /* \"#utility.yul\":3577:3587   */\n      dup1\n        /* \"#utility.yul\":3573:3575   */\n      0x40\n        /* \"#utility.yul\":3566:3588   */\n      mstore\n        /* \"#utility.yul\":3356:3594   */\n      pop\n        /* \"#utility.yul\":3313:3594   */\n      pop\n      pop\n      jump\t// out\n        /* \"#utility.yul\":3600:3729   */\n    tag_211:\n        /* \"#utility.yul\":3634:3640   */\n      0x00\n        /* \"#utility.yul\":3661:3681   */\n      tag_293\n      tag_193\n      jump\t// in\n    tag_293:\n        /* \"#utility.yul\":3651:3681   */\n      swap1\n      pop\n        /* \"#utility.yul\":3690:3723   */\n      tag_294\n        /* \"#utility.yul\":3718:3722   */\n      dup3\n        /* \"#utility.yul\":3710:3716   */\n      dup3\n        /* \"#utility.yul\":3690:3723   */\n      tag_210\n      jump\t// in\n    tag_294:\n        /* \"#utility.yul\":3600:3729   */\n      swap2\n      swap1\n      pop\n      jump\t// out\n        /* \"#utility.yul\":3735:4043   */\n    tag_212:\n        /* \"#utility.yul\":3797:3801   */\n      0x00\n        /* \"#utility.yul\":3887:3905   */\n      0xffffffffffffffff\n        /* \"#utility.yul\":3879:3885   */\n      dup3\n        /* \"#utility.yul\":3876:3906   */\n      gt\n        /* \"#utility.yul\":3873:3929   */\n      iszero\n      tag_296\n      jumpi\n        /* \"#utility.yul\":3909:3927   */\n      tag_297\n      tag_209\n      jump\t// in\n    tag_297:\n        /* \"#utility.yul\":3873:3929   */\n    tag_296:\n        /* \"#utility.yul\":3947:3976   */\n      tag_298\n        /* \"#utility.yul\":3969:3975   */\n      dup3\n        /* \"#utility.yul\":3947:3976   */\n      tag_208\n      jump\t// in\n    tag_298:\n        /* \"#utility.yul\":3939:3976   */\n      swap1\n      pop\n        /* \"#utility.yul\":4031:4035   */\n      0x20\n        /* \"#utility.yul\":4025:4029   */\n      dup2\n        /* \"#utility.yul\":4021:4036   */\n      add\n        /* \"#utility.yul\":4013:4036   */\n      swap1\n      pop\n        /* \"#utility.yul\":3735:4043   */\n      swap2\n      swap1\n      pop\n      jump\t// out\n        /* \"#utility.yul\":4049:4203   */\n    tag_213:\n        /* \"#utility.yul\":4133:4139   */\n      dup3\n        /* \"#utility.yul\":4128:4131   */\n      dup2\n        /* \"#utility.yul\":4123:4126   */\n      dup4\n        /* \"#utility.yul\":4110:4140   */\n      calldatacopy\n        /* \"#utility.yul\":4195:4196   */\n      0x00\n        /* \"#utility.yul\":4186:4192   */\n      dup4\n        /* \"#utility.yul\":4181:4184   */\n      dup4\n        /* \"#utility.yul\":4177:4193   */\n      add\n        /* \"#utility.yul\":4170:4197   */\n      mstore\n        /* \"#utility.yul\":4049:4203   */\n      pop\n      pop\n      pop\n      jump\t// out\n        /* \"#utility.yul\":4209:4621   */\n    tag_214:\n        /* \"#utility.yul\":4287:4292   */\n      0x00\n        /* \"#utility.yul\":4312:4378   */\n      tag_301\n        /* \"#utility.yul\":4328:4377   */\n      tag_302\n        /* \"#utility.yul\":4370:4376   */\n      dup5\n        /* \"#utility.yul\":4328:4377   */\n      tag_212\n      jump\t// in\n    tag_302:\n        /* \"#utility.yul\":4312:4378   */\n      tag_211\n      jump\t// in\n    tag_301:\n        /* \"#utility.yul\":4303:4378   */\n      swap1\n      pop\n        /* \"#utility.yul\":4401:4407   */\n      dup3\n        /* \"#utility.yul\":4394:4399   */\n      dup2\n        /* \"#utility.yul\":4387:4408   */\n      mstore\n        /* \"#utility.yul\":4439:4443   */\n      0x20\n        /* \"#utility.yul\":4432:4437   */\n      dup2\n        /* \"#utility.yul\":4428:4444   */\n      add\n        /* \"#utility.yul\":4477:4480   */\n      dup5\n        /* \"#utility.yul\":4468:4474   */\n      dup5\n        /* \"#utility.yul\":4463:4466   */\n      dup5\n        /* \"#utility.yul\":4459:4475   */\n      add\n        /* \"#utility.yul\":4456:4481   */\n      gt\n        /* \"#utility.yul\":4453:4565   */\n      iszero\n      tag_303\n      jumpi\n        /* \"#utility.yul\":4484:4563   */\n      tag_304\n      tag_207\n      jump\t// in\n    tag_304:\n        /* \"#utility.yul\":4453:4565   */\n    tag_303:\n        /* \"#utility.yul\":4574:4615   */\n      tag_305\n        /* \"#utility.yul\":4608:4614   */\n      dup5\n        /* \"#utility.yul\":4603:4606   */\n      dup3\n        /* \"#utility.yul\":4598:4601   */\n      dup6\n        /* \"#utility.yul\":4574:4615   */\n      tag_213\n      jump\t// in\n    tag_305:\n        /* \"#utility.yul\":4293:4621   */\n      pop\n        /* \"#utility.yul\":4209:4621   */\n      swap4\n      swap3\n      pop\n      pop\n      pop\n      jump\t// out\n        /* \"#utility.yul\":4641:4981   */\n    tag_215:\n        /* \"#utility.yul\":4697:4702   */\n      0x00\n        /* \"#utility.yul\":4746:4749   */\n      dup3\n        /* \"#utility.yul\":4739:4743   */\n      0x1f\n        /* \"#utility.yul\":4731:4737   */\n      dup4\n        /* \"#utility.yul\":4727:4744   */\n      add\n        /* \"#utility.yul\":4723:4750   */\n      slt\n        /* \"#utility.yul\":4713:4835   */\n      tag_307\n      jumpi\n        /* \"#utility.yul\":4754:4833   */\n      tag_308\n      tag_206\n      jump\t// in\n    tag_308:\n        /* \"#utility.yul\":4713:4835   */\n    tag_307:\n        /* \"#utility.yul\":4871:4877   */\n      dup2\n        /* \"#utility.yul\":4858:4878   */\n      calldataload\n        /* \"#utility.yul\":4896:4975   */\n      tag_309\n        /* \"#utility.yul\":4971:4974   */\n      dup5\n        /* \"#utility.yul\":4963:4969   */\n      dup3\n        /* \"#utility.yul\":4956:4960   */\n      0x20\n        /* \"#utility.yul\":4948:4954   */\n      dup7\n        /* \"#utility.yul\":4944:4961   */\n      add\n        /* \"#utility.yul\":4896:4975   */\n      tag_214\n      jump\t// in\n    tag_309:\n        /* \"#utility.yul\":4887:4975   */\n      swap2\n      pop\n        /* \"#utility.yul\":4703:4981   */\n      pop\n        /* \"#utility.yul\":4641:4981   */\n      swap3\n      swap2\n      pop\n      pop\n      jump\t// out\n        /* \"#utility.yul\":4987:5496   */\n    tag_36:\n        /* \"#utility.yul\":5056:5062   */\n      0x00\n        /* \"#utility.yul\":5105:5107   */\n      0x20\n        /* \"#utility.yul\":5093:5102   */\n      dup3\n        /* \"#utility.yul\":5084:5091   */\n      dup5\n        /* \"#utility.yul\":5080:5103   */\n      sub\n        /* \"#utility.yul\":5076:5108   */\n      slt\n        /* \"#utility.yul\":5073:5192   */\n      iszero\n      tag_311\n      jumpi\n        /* \"#utility.yul\":5111:5190   */\n      tag_312\n      tag_194\n      jump\t// in\n    tag_312:\n        /* \"#utility.yul\":5073:5192   */\n    tag_311:\n        /* \"#utility.yul\":5259:5260   */\n      0x00\n        /* \"#utility.yul\":5248:5257   */\n      dup3\n        /* \"#utility.yul\":5244:5261   */\n      add\n        /* \"#utility.yul\":5231:5262   */\n      calldataload\n        /* \"#utility.yul\":5289:5307   */\n      0xffffffffffffffff\n        /* \"#utility.yul\":5281:5287   */\n      dup2\n        /* \"#utility.yul\":5278:5308   */\n      gt\n        /* \"#utility.yul\":5275:5392   */\n      iszero\n      tag_313\n      jumpi\n        /* \"#utility.yul\":5311:5390   */\n      tag_314\n      tag_195\n      jump\t// in\n    tag_314:\n        /* \"#utility.yul\":5275:5392   */\n    tag_313:\n        /* \"#utility.yul\":5416:5479   */\n      tag_315\n        /* \"#utility.yul\":5471:5478   */\n      dup5\n        /* \"#utility.yul\":5462:5468   */\n      dup3\n        /* \"#utility.yul\":5451:5460   */\n      dup6\n        /* \"#utility.yul\":5447:5469   */\n      add\n        /* \"#utility.yul\":5416:5479   */\n      tag_215\n      jump\t// in\n    tag_315:\n        /* \"#utility.yul\":5406:5479   */\n      swap2\n      pop\n        /* \"#utility.yul\":5202:5489   */\n      pop\n        /* \"#utility.yul\":4987:5496   */\n      swap3\n      swap2\n      pop\n      pop\n      jump\t// out\n        /* \"#utility.yul\":5502:5601   */\n    tag_216:\n        /* \"#utility.yul\":5554:5560   */\n      0x00\n        /* \"#utility.yul\":5588:5593   */\n      dup2\n        /* \"#utility.yul\":5582:5594   */\n      mload\n        /* \"#utility.yul\":5572:5594   */\n      swap1\n      pop\n        /* \"#utility.yul\":5502:5601   */\n      swap2\n      swap1\n      pop\n      jump\t// out\n        /* \"#utility.yul\":5607:5766   */\n    tag_217:\n        /* \"#utility.yul\":5681:5692   */\n      0x00\n        /* \"#utility.yul\":5715:5721   */\n      dup3\n        /* \"#utility.yul\":5710:5713   */\n      dup3\n        /* \"#utility.yul\":5703:5722   */\n      mstore\n        /* \"#utility.yul\":5755:5759   */\n      0x20\n        /* \"#utility.yul\":5750:5753   */\n      dup3\n        /* \"#utility.yul\":5746:5760   */\n      add\n        /* \"#utility.yul\":5731:5760   */\n      swap1\n      pop\n        /* \"#utility.yul\":5607:5766   */\n      swap3\n      swap2\n      pop\n      pop\n      jump\t// out\n        /* \"#utility.yul\":5772:6079   */\n    tag_218:\n        /* \"#utility.yul\":5840:5841   */\n      0x00\n        /* \"#utility.yul\":5850:5963   */\n    tag_319:\n        /* \"#utility.yul\":5864:5870   */\n      dup4\n        /* \"#utility.yul\":5861:5862   */\n      dup2\n        /* \"#utility.yul\":5858:5871   */\n      lt\n        /* \"#utility.yul\":5850:5963   */\n      iszero\n      tag_321\n      jumpi\n        /* \"#utility.yul\":5949:5950   */\n      dup1\n        /* \"#utility.yul\":5944:5947   */\n      dup3\n        /* \"#utility.yul\":5940:5951   */\n      add\n        /* \"#utility.yul\":5934:5952   */\n      mload\n        /* \"#utility.yul\":5930:5931   */\n      dup2\n        /* \"#utility.yul\":5925:5928   */\n      dup5\n        /* \"#utility.yul\":5921:5932   */\n      add\n        /* \"#utility.yul\":5914:5953   */\n      mstore\n        /* \"#utility.yul\":5886:5888   */\n      0x20\n        /* \"#utility.yul\":5883:5884   */\n      dup2\n        /* \"#utility.yul\":5879:5889   */\n      add\n        /* \"#utility.yul\":5874:5889   */\n      swap1\n      pop\n        /* \"#utility.yul\":5850:5963   */\n      jump(tag_319)\n    tag_321:\n        /* \"#utility.yul\":5981:5987   */\n      dup4\n        /* \"#utility.yul\":5978:5979   */\n      dup2\n        /* \"#utility.yul\":5975:5988   */\n      gt\n        /* \"#utility.yul\":5972:6073   */\n      iszero\n      tag_322\n      jumpi\n        /* \"#utility.yul\":6061:6062   */\n      0x00\n        /* \"#utility.yul\":6052:6058   */\n      dup5\n        /* \"#utility.yul\":6047:6050   */\n      dup5\n        /* \"#utility.yul\":6043:6059   */\n      add\n        /* \"#utility.yul\":6036:6063   */\n      mstore\n        /* \"#utility.yul\":5972:6073   */\n    tag_322:\n        /* \"#utility.yul\":5821:6079   */\n      pop\n        /* \"#utility.yul\":5772:6079   */\n      pop\n      pop\n      pop\n      jump\t// out\n        /* \"#utility.yul\":6085:6429   */\n    tag_219:\n        /* \"#utility.yul\":6163:6166   */\n      0x00\n        /* \"#utility.yul\":6191:6230   */\n      tag_324\n        /* \"#utility.yul\":6224:6229   */\n      dup3\n        /* \"#utility.yul\":6191:6230   */\n      tag_216\n      jump\t// in\n    tag_324:\n        /* \"#utility.yul\":6246:6307   */\n      tag_325\n        /* \"#utility.yul\":6300:6306   */\n      dup2\n        /* \"#utility.yul\":6295:6298   */\n      dup6\n        /* \"#utility.yul\":6246:6307   */\n      tag_217\n      jump\t// in\n    tag_325:\n        /* \"#utility.yul\":6239:6307   */\n      swap4\n      pop\n        /* \"#utility.yul\":6316:6368   */\n      tag_326\n        /* \"#utility.yul\":6361:6367   */\n      dup2\n        /* \"#utility.yul\":6356:6359   */\n      dup6\n        /* \"#utility.yul\":6349:6353   */\n      0x20\n        /* \"#utility.yul\":6342:6347   */\n      dup7\n        /* \"#utility.yul\":6338:6354   */\n      add\n        /* \"#utility.yul\":6316:6368   */\n      tag_218\n      jump\t// in\n    tag_326:\n        /* \"#utility.yul\":6393:6422   */\n      tag_327\n        /* \"#utility.yul\":6415:6421   */\n      dup2\n        /* \"#utility.yul\":6393:6422   */\n      tag_208\n      jump\t// in\n    tag_327:\n        /* \"#utility.yul\":6388:6391   */\n      dup5\n        /* \"#utility.yul\":6384:6423   */\n      add\n        /* \"#utility.yul\":6377:6423   */\n      swap2\n      pop\n        /* \"#utility.yul\":6167:6429   */\n      pop\n        /* \"#utility.yul\":6085:6429   */\n      swap3\n      swap2\n      pop\n      pop\n      jump\t// out\n        /* \"#utility.yul\":6435:6521   */\n    tag_220:\n        /* \"#utility.yul\":6470:6477   */\n      0x00\n        /* \"#utility.yul\":6510:6514   */\n      0xff\n        /* \"#utility.yul\":6503:6508   */\n      dup3\n        /* \"#utility.yul\":6499:6515   */\n      and\n        /* \"#utility.yul\":6488:6515   */\n      swap1\n      pop\n        /* \"#utility.yul\":6435:6521   */\n      swap2\n      swap1\n      pop\n      jump\t// out\n        /* \"#utility.yul\":6527:6629   */\n    tag_221:\n        /* \"#utility.yul\":6600:6622   */\n      tag_330\n        /* \"#utility.yul\":6616:6621   */\n      dup2\n        /* \"#utility.yul\":6600:6622   */\n      tag_220\n      jump\t// in\n    tag_330:\n        /* \"#utility.yul\":6595:6598   */\n      dup3\n        /* \"#utility.yul\":6588:6623   */\n      mstore\n        /* \"#utility.yul\":6527:6629   */\n      pop\n      pop\n      jump\t// out\n        /* \"#utility.yul\":6635:6743   */\n    tag_222:\n        /* \"#utility.yul\":6712:6736   */\n      tag_332\n        /* \"#utility.yul\":6730:6735   */\n      dup2\n        /* \"#utility.yul\":6712:6736   */\n      tag_196\n      jump\t// in\n    tag_332:\n        /* \"#utility.yul\":6707:6710   */\n      dup3\n        /* \"#utility.yul\":6700:6737   */\n      mstore\n        /* \"#utility.yul\":6635:6743   */\n      pop\n      pop\n      jump\t// out\n        /* \"#utility.yul\":6805:9008   */\n    tag_223:\n        /* \"#utility.yul\":6914:6917   */\n      0x00\n        /* \"#utility.yul\":6950:6956   */\n      0x0120\n        /* \"#utility.yul\":6945:6948   */\n      dup4\n        /* \"#utility.yul\":6941:6957   */\n      add\n        /* \"#utility.yul\":7043:7047   */\n      0x00\n        /* \"#utility.yul\":7036:7041   */\n      dup4\n        /* \"#utility.yul\":7032:7048   */\n      add\n        /* \"#utility.yul\":7026:7049   */\n      mload\n        /* \"#utility.yul\":7096:7099   */\n      dup5\n        /* \"#utility.yul\":7090:7094   */\n      dup3\n        /* \"#utility.yul\":7086:7100   */\n      sub\n        /* \"#utility.yul\":7079:7083   */\n      0x00\n        /* \"#utility.yul\":7074:7077   */\n      dup7\n        /* \"#utility.yul\":7070:7084   */\n      add\n        /* \"#utility.yul\":7063:7101   */\n      mstore\n        /* \"#utility.yul\":7122:7195   */\n      tag_334\n        /* \"#utility.yul\":7190:7194   */\n      dup3\n        /* \"#utility.yul\":7176:7188   */\n      dup3\n        /* \"#utility.yul\":7122:7195   */\n      tag_219\n      jump\t// in\n    tag_334:\n        /* \"#utility.yul\":7114:7195   */\n      swap2\n      pop\n        /* \"#utility.yul\":6967:7206   */\n      pop\n        /* \"#utility.yul\":7291:7295   */\n      0x20\n        /* \"#utility.yul\":7284:7289   */\n      dup4\n        /* \"#utility.yul\":7280:7296   */\n      add\n        /* \"#utility.yul\":7274:7297   */\n      mload\n        /* \"#utility.yul\":7344:7347   */\n      dup5\n        /* \"#utility.yul\":7338:7342   */\n      dup3\n        /* \"#utility.yul\":7334:7348   */\n      sub\n        /* \"#utility.yul\":7327:7331   */\n      0x20\n        /* \"#utility.yul\":7322:7325   */\n      dup7\n        /* \"#utility.yul\":7318:7332   */\n      add\n        /* \"#utility.yul\":7311:7349   */\n      mstore\n        /* \"#utility.yul\":7370:7443   */\n      tag_335\n        /* \"#utility.yul\":7438:7442   */\n      dup3\n        /* \"#utility.yul\":7424:7436   */\n      dup3\n        /* \"#utility.yul\":7370:7443   */\n      tag_219\n      jump\t// in\n    tag_335:\n        /* \"#utility.yul\":7362:7443   */\n      swap2\n      pop\n        /* \"#utility.yul\":7216:7454   */\n      pop\n        /* \"#utility.yul\":7539:7543   */\n      0x40\n        /* \"#utility.yul\":7532:7537   */\n      dup4\n        /* \"#utility.yul\":7528:7544   */\n      add\n        /* \"#utility.yul\":7522:7545   */\n      mload\n        /* \"#utility.yul\":7592:7595   */\n      dup5\n        /* \"#utility.yul\":7586:7590   */\n      dup3\n        /* \"#utility.yul\":7582:7596   */\n      sub\n        /* \"#utility.yul\":7575:7579   */\n      0x40\n        /* \"#utility.yul\":7570:7573   */\n      dup7\n        /* \"#utility.yul\":7566:7580   */\n      add\n        /* \"#utility.yul\":7559:7597   */\n      mstore\n        /* \"#utility.yul\":7618:7691   */\n      tag_336\n        /* \"#utility.yul\":7686:7690   */\n      dup3\n        /* \"#utility.yul\":7672:7684   */\n      dup3\n        /* \"#utility.yul\":7618:7691   */\n      tag_219\n      jump\t// in\n    tag_336:\n        /* \"#utility.yul\":7610:7691   */\n      swap2\n      pop\n        /* \"#utility.yul\":7464:7702   */\n      pop\n        /* \"#utility.yul\":7787:7791   */\n      0x60\n        /* \"#utility.yul\":7780:7785   */\n      dup4\n        /* \"#utility.yul\":7776:7792   */\n      add\n        /* \"#utility.yul\":7770:7793   */\n      mload\n        /* \"#utility.yul\":7840:7843   */\n      dup5\n        /* \"#utility.yul\":7834:7838   */\n      dup3\n        /* \"#utility.yul\":7830:7844   */\n      sub\n        /* \"#utility.yul\":7823:7827   */\n      0x60\n        /* \"#utility.yul\":7818:7821   */\n      dup7\n        /* \"#utility.yul\":7814:7828   */\n      add\n        /* \"#utility.yul\":7807:7845   */\n      mstore\n        /* \"#utility.yul\":7866:7939   */\n      tag_337\n        /* \"#utility.yul\":7934:7938   */\n      dup3\n        /* \"#utility.yul\":7920:7932   */\n      dup3\n        /* \"#utility.yul\":7866:7939   */\n      tag_219\n      jump\t// in\n    tag_337:\n        /* \"#utility.yul\":7858:7939   */\n      swap2\n      pop\n        /* \"#utility.yul\":7712:7950   */\n      pop\n        /* \"#utility.yul\":8035:8039   */\n      0x80\n        /* \"#utility.yul\":8028:8033   */\n      dup4\n        /* \"#utility.yul\":8024:8040   */\n      add\n        /* \"#utility.yul\":8018:8041   */\n      mload\n        /* \"#utility.yul\":8088:8091   */\n      dup5\n        /* \"#utility.yul\":8082:8086   */\n      dup3\n        /* \"#utility.yul\":8078:8092   */\n      sub\n        /* \"#utility.yul\":8071:8075   */\n      0x80\n        /* \"#utility.yul\":8066:8069   */\n      dup7\n        /* \"#utility.yul\":8062:8076   */\n      add\n        /* \"#utility.yul\":8055:8093   */\n      mstore\n        /* \"#utility.yul\":8114:8187   */\n      tag_338\n        /* \"#utility.yul\":8182:8186   */\n      dup3\n        /* \"#utility.yul\":8168:8180   */\n      dup3\n        /* \"#utility.yul\":8114:8187   */\n      tag_219\n      jump\t// in\n    tag_338:\n        /* \"#utility.yul\":8106:8187   */\n      swap2\n      pop\n        /* \"#utility.yul\":7960:8198   */\n      pop\n        /* \"#utility.yul\":8280:8284   */\n      0xa0\n        /* \"#utility.yul\":8273:8278   */\n      dup4\n        /* \"#utility.yul\":8269:8285   */\n      add\n        /* \"#utility.yul\":8263:8286   */\n      mload\n        /* \"#utility.yul\":8333:8336   */\n      dup5\n        /* \"#utility.yul\":8327:8331   */\n      dup3\n        /* \"#utility.yul\":8323:8337   */\n      sub\n        /* \"#utility.yul\":8316:8320   */\n      0xa0\n        /* \"#utility.yul\":8311:8314   */\n      dup7\n        /* \"#utility.yul\":8307:8321   */\n      add\n        /* \"#utility.yul\":8300:8338   */\n      mstore\n        /* \"#utility.yul\":8359:8432   */\n      tag_339\n        /* \"#utility.yul\":8427:8431   */\n      dup3\n        /* \"#utility.yul\":8413:8425   */\n      dup3\n        /* \"#utility.yul\":8359:8432   */\n      tag_219\n      jump\t// in\n    tag_339:\n        /* \"#utility.yul\":8351:8432   */\n      swap2\n      pop\n        /* \"#utility.yul\":8208:8443   */\n      pop\n        /* \"#utility.yul\":8533:8537   */\n      0xc0\n        /* \"#utility.yul\":8526:8531   */\n      dup4\n        /* \"#utility.yul\":8522:8538   */\n      add\n        /* \"#utility.yul\":8516:8539   */\n      mload\n        /* \"#utility.yul\":8552:8611   */\n      tag_340\n        /* \"#utility.yul\":8605:8609   */\n      0xc0\n        /* \"#utility.yul\":8600:8603   */\n      dup7\n        /* \"#utility.yul\":8596:8610   */\n      add\n        /* \"#utility.yul\":8582:8594   */\n      dup3\n        /* \"#utility.yul\":8552:8611   */\n      tag_221\n      jump\t// in\n    tag_340:\n        /* \"#utility.yul\":8453:8621   */\n      pop\n        /* \"#utility.yul\":8705:8709   */\n      0xe0\n        /* \"#utility.yul\":8698:8703   */\n      dup4\n        /* \"#utility.yul\":8694:8710   */\n      add\n        /* \"#utility.yul\":8688:8711   */\n      mload\n        /* \"#utility.yul\":8724:8787   */\n      tag_341\n        /* \"#utility.yul\":8781:8785   */\n      0xe0\n        /* \"#utility.yul\":8776:8779   */\n      dup7\n        /* \"#utility.yul\":8772:8786   */\n      add\n        /* \"#utility.yul\":8758:8770   */\n      dup3\n        /* \"#utility.yul\":8724:8787   */\n      tag_222\n      jump\t// in\n    tag_341:\n        /* \"#utility.yul\":8631:8797   */\n      pop\n        /* \"#utility.yul\":8885:8891   */\n      0x0100\n        /* \"#utility.yul\":8878:8883   */\n      dup4\n        /* \"#utility.yul\":8874:8892   */\n      add\n        /* \"#utility.yul\":8868:8893   */\n      mload\n        /* \"#utility.yul\":8906:8971   */\n      tag_342\n        /* \"#utility.yul\":8963:8969   */\n      0x0100\n        /* \"#utility.yul\":8958:8961   */\n      dup7\n        /* \"#utility.yul\":8954:8970   */\n      add\n        /* \"#utility.yul\":8940:8952   */\n      dup3\n        /* \"#utility.yul\":8906:8971   */\n      tag_222\n      jump\t// in\n    tag_342:\n        /* \"#utility.yul\":8807:8981   */\n      pop\n        /* \"#utility.yul\":8998:9002   */\n      dup1\n        /* \"#utility.yul\":8991:9002   */\n      swap2\n      pop\n        /* \"#utility.yul\":6919:9008   */\n      pop\n        /* \"#utility.yul\":6805:9008   */\n      swap3\n      swap2\n      pop\n      pop\n      jump\t// out\n        /* \"#utility.yul\":9014:9367   */\n    tag_39:\n        /* \"#utility.yul\":9147:9151   */\n      0x00\n        /* \"#utility.yul\":9185:9187   */\n      0x20\n        /* \"#utility.yul\":9174:9183   */\n      dup3\n        /* \"#utility.yul\":9170:9188   */\n      add\n        /* \"#utility.yul\":9162:9188   */\n      swap1\n      pop\n        /* \"#utility.yul\":9234:9243   */\n      dup2\n        /* \"#utility.yul\":9228:9232   */\n      dup2\n        /* \"#utility.yul\":9224:9244   */\n      sub\n        /* \"#utility.yul\":9220:9221   */\n      0x00\n        /* \"#utility.yul\":9209:9218   */\n      dup4\n        /* \"#utility.yul\":9205:9222   */\n      add\n        /* \"#utility.yul\":9198:9245   */\n      mstore\n        /* \"#utility.yul\":9262:9360   */\n      tag_344\n        /* \"#utility.yul\":9355:9359   */\n      dup2\n        /* \"#utility.yul\":9346:9352   */\n      dup5\n        /* \"#utility.yul\":9262:9360   */\n      tag_223\n      jump\t// in\n    tag_344:\n        /* \"#utility.yul\":9254:9360   */\n      swap1\n      pop\n        /* \"#utility.yul\":9014:9367   */\n      swap3\n      swap2\n      pop\n      pop\n      jump\t// out\n        /* \"#utility.yul\":9373:9485   */\n    tag_224:\n        /* \"#utility.yul\":9456:9478   */\n      tag_346\n        /* \"#utility.yul\":9472:9477   */\n      dup2\n        /* \"#utility.yul\":9456:9478   */\n      tag_220\n      jump\t// in\n    tag_346:\n        /* \"#utility.yul\":9451:9454   */\n      dup3\n        /* \"#utility.yul\":9444:9479   */\n      mstore\n        /* \"#utility.yul\":9373:9485   */\n      pop\n      pop\n      jump\t// out\n        /* \"#utility.yul\":9491:9946   */\n    tag_47:\n        /* \"#utility.yul\":9648:9652   */\n      0x00\n        /* \"#utility.yul\":9686:9688   */\n      0x40\n        /* \"#utility.yul\":9675:9684   */\n      dup3\n        /* \"#utility.yul\":9671:9689   */\n      add\n        /* \"#utility.yul\":9663:9689   */\n      swap1\n      pop\n        /* \"#utility.yul\":9735:9744   */\n      dup2\n        /* \"#utility.yul\":9729:9733   */\n      dup2\n        /* \"#utility.yul\":9725:9745   */\n      sub\n        /* \"#utility.yul\":9721:9722   */\n      0x00\n        /* \"#utility.yul\":9710:9719   */\n      dup4\n        /* \"#utility.yul\":9706:9723   */\n      add\n        /* \"#utility.yul\":9699:9746   */\n      mstore\n        /* \"#utility.yul\":9763:9861   */\n      tag_348\n        /* \"#utility.yul\":9856:9860   */\n      dup2\n        /* \"#utility.yul\":9847:9853   */\n      dup6\n        /* \"#utility.yul\":9763:9861   */\n      tag_223\n      jump\t// in\n    tag_348:\n        /* \"#utility.yul\":9755:9861   */\n      swap1\n      pop\n        /* \"#utility.yul\":9871:9939   */\n      tag_349\n        /* \"#utility.yul\":9935:9937   */\n      0x20\n        /* \"#utility.yul\":9924:9933   */\n      dup4\n        /* \"#utility.yul\":9920:9938   */\n      add\n        /* \"#utility.yul\":9911:9917   */\n      dup5\n        /* \"#utility.yul\":9871:9939   */\n      tag_224\n      jump\t// in\n    tag_349:\n        /* \"#utility.yul\":9491:9946   */\n      swap4\n      swap3\n      pop\n      pop\n      pop\n      jump\t// out\n        /* \"#utility.yul\":9952:10074   */\n    tag_225:\n        /* \"#utility.yul\":10025:10049   */\n      tag_351\n        /* \"#utility.yul\":10043:10048   */\n      dup2\n        /* \"#utility.yul\":10025:10049   */\n      tag_203\n      jump\t// in\n    tag_351:\n        /* \"#utility.yul\":10018:10023   */\n      dup2\n        /* \"#utility.yul\":10015:10050   */\n      eq\n        /* \"#utility.yul\":10005:10068   */\n      tag_352\n      jumpi\n        /* \"#utility.yul\":10064:10065   */\n      0x00\n        /* \"#utility.yul\":10061:10062   */\n      dup1\n        /* \"#utility.yul\":10054:10066   */\n      revert\n        /* \"#utility.yul\":10005:10068   */\n    tag_352:\n        /* \"#utility.yul\":9952:10074   */\n      pop\n      jump\t// out\n        /* \"#utility.yul\":10080:10219   */\n    tag_226:\n        /* \"#utility.yul\":10126:10131   */\n      0x00\n        /* \"#utility.yul\":10164:10170   */\n      dup2\n        /* \"#utility.yul\":10151:10171   */\n      calldataload\n        /* \"#utility.yul\":10142:10171   */\n      swap1\n      pop\n        /* \"#utility.yul\":10180:10213   */\n      tag_354\n        /* \"#utility.yul\":10207:10212   */\n      dup2\n        /* \"#utility.yul\":10180:10213   */\n      tag_225\n      jump\t// in\n    tag_354:\n        /* \"#utility.yul\":10080:10219   */\n      swap3\n      swap2\n      pop\n      pop\n      jump\t// out\n        /* \"#utility.yul\":10225:10554   */\n    tag_50:\n        /* \"#utility.yul\":10284:10290   */\n      0x00\n        /* \"#utility.yul\":10333:10335   */\n      0x20\n        /* \"#utility.yul\":10321:10330   */\n      dup3\n        /* \"#utility.yul\":10312:10319   */\n      dup5\n        /* \"#utility.yul\":10308:10331   */\n      sub\n        /* \"#utility.yul\":10304:10336   */\n      slt\n        /* \"#utility.yul\":10301:10420   */\n      iszero\n      tag_356\n      jumpi\n        /* \"#utility.yul\":10339:10418   */\n      tag_357\n      tag_194\n      jump\t// in\n    tag_357:\n        /* \"#utility.yul\":10301:10420   */\n    tag_356:\n        /* \"#utility.yul\":10459:10460   */\n      0x00\n        /* \"#utility.yul\":10484:10537   */\n      tag_358\n        /* \"#utility.yul\":10529:10536   */\n      dup5\n        /* \"#utility.yul\":10520:10526   */\n      dup3\n        /* \"#utility.yul\":10509:10518   */\n      dup6\n        /* \"#utility.yul\":10505:10527   */\n      add\n        /* \"#utility.yul\":10484:10537   */\n      tag_226\n      jump\t// in\n    tag_358:\n        /* \"#utility.yul\":10474:10537   */\n      swap2\n      pop\n        /* \"#utility.yul\":10430:10547   */\n      pop\n        /* \"#utility.yul\":10225:10554   */\n      swap3\n      swap2\n      pop\n      pop\n      jump\t// out\n        /* \"#utility.yul\":10560:11214   */\n    tag_54:\n        /* \"#utility.yul\":10638:10644   */\n      0x00\n        /* \"#utility.yul\":10646:10652   */\n      dup1\n        /* \"#utility.yul\":10695:10697   */\n      0x40\n        /* \"#utility.yul\":10683:10692   */\n      dup4\n        /* \"#utility.yul\":10674:10681   */\n      dup6\n        /* \"#utility.yul\":10670:10693   */\n      sub\n        /* \"#utility.yul\":10666:10698   */\n      slt\n        /* \"#utility.yul\":10663:10782   */\n      iszero\n      tag_360\n      jumpi\n        /* \"#utility.yul\":10701:10780   */\n      tag_361\n      tag_194\n      jump\t// in\n    tag_361:\n        /* \"#utility.yul\":10663:10782   */\n    tag_360:\n        /* \"#utility.yul\":10821:10822   */\n      0x00\n        /* \"#utility.yul\":10846:10899   */\n      tag_362\n        /* \"#utility.yul\":10891:10898   */\n      dup6\n        /* \"#utility.yul\":10882:10888   */\n      dup3\n        /* \"#utility.yul\":10871:10880   */\n      dup7\n        /* \"#utility.yul\":10867:10889   */\n      add\n        /* \"#utility.yul\":10846:10899   */\n      tag_198\n      jump\t// in\n    tag_362:\n        /* \"#utility.yul\":10836:10899   */\n      swap3\n      pop\n        /* \"#utility.yul\":10792:10909   */\n      pop\n        /* \"#utility.yul\":10976:10978   */\n      0x20\n        /* \"#utility.yul\":10965:10974   */\n      dup4\n        /* \"#utility.yul\":10961:10979   */\n      add\n        /* \"#utility.yul\":10948:10980   */\n      calldataload\n        /* \"#utility.yul\":11007:11025   */\n      0xffffffffffffffff\n        /* \"#utility.yul\":10999:11005   */\n      dup2\n        /* \"#utility.yul\":10996:11026   */\n      gt\n        /* \"#utility.yul\":10993:11110   */\n      iszero\n      tag_363\n      jumpi\n        /* \"#utility.yul\":11029:11108   */\n      tag_364\n      tag_195\n      jump\t// in\n    tag_364:\n        /* \"#utility.yul\":10993:11110   */\n    tag_363:\n        /* \"#utility.yul\":11134:11197   */\n      tag_365\n        /* \"#utility.yul\":11189:11196   */\n      dup6\n        /* \"#utility.yul\":11180:11186   */\n      dup3\n        /* \"#utility.yul\":11169:11178   */\n      dup7\n        /* \"#utility.yul\":11165:11187   */\n      add\n        /* \"#utility.yul\":11134:11197   */\n      tag_215\n      jump\t// in\n    tag_365:\n        /* \"#utility.yul\":11124:11197   */\n      swap2\n      pop\n        /* \"#utility.yul\":10919:11207   */\n      pop\n        /* \"#utility.yul\":10560:11214   */\n      swap3\n      pop\n      swap3\n      swap1\n      pop\n      jump\t// out\n        /* \"#utility.yul\":11220:11389   */\n    tag_227:\n        /* \"#utility.yul\":11304:11315   */\n      0x00\n        /* \"#utility.yul\":11338:11344   */\n      dup3\n        /* \"#utility.yul\":11333:11336   */\n      dup3\n        /* \"#utility.yul\":11326:11345   */\n      mstore\n        /* \"#utility.yul\":11378:11382   */\n      0x20\n        /* \"#utility.yul\":11373:11376   */\n      dup3\n        /* \"#utility.yul\":11369:11383   */\n      add\n        /* \"#utility.yul\":11354:11383   */\n      swap1\n      pop\n        /* \"#utility.yul\":11220:11389   */\n      swap3\n      swap2\n      pop\n      pop\n      jump\t// out\n        /* \"#utility.yul\":11395:11577   */\n    tag_228:\n        /* \"#utility.yul\":11535:11569   */\n      0x4f776e61626c653a2063616c6c6572206973206e6f7420746865206f776e6572\n        /* \"#utility.yul\":11531:11532   */\n      0x00\n        /* \"#utility.yul\":11523:11529   */\n      dup3\n        /* \"#utility.yul\":11519:11533   */\n      add\n        /* \"#utility.yul\":11512:11570   */\n      mstore\n        /* \"#utility.yul\":11395:11577   */\n      pop\n      jump\t// out\n        /* \"#utility.yul\":11583:11949   */\n    tag_229:\n        /* \"#utility.yul\":11725:11728   */\n      0x00\n        /* \"#utility.yul\":11746:11813   */\n      tag_369\n        /* \"#utility.yul\":11810:11812   */\n      0x20\n        /* \"#utility.yul\":11805:11808   */\n      dup4\n        /* \"#utility.yul\":11746:11813   */\n      tag_227\n      jump\t// in\n    tag_369:\n        /* \"#utility.yul\":11739:11813   */\n      swap2\n      pop\n        /* \"#utility.yul\":11822:11915   */\n      tag_370\n        /* \"#utility.yul\":11911:11914   */\n      dup3\n        /* \"#utility.yul\":11822:11915   */\n      tag_228\n      jump\t// in\n    tag_370:\n        /* \"#utility.yul\":11940:11942   */\n      0x20\n        /* \"#utility.yul\":11935:11938   */\n      dup3\n        /* \"#utility.yul\":11931:11943   */\n      add\n        /* \"#utility.yul\":11924:11943   */\n      swap1\n      pop\n        /* \"#utility.yul\":11583:11949   */\n      swap2\n      swap1\n      pop\n      jump\t// out\n        /* \"#utility.yul\":11955:12374   */\n    tag_62:\n        /* \"#utility.yul\":12121:12125   */\n      0x00\n        /* \"#utility.yul\":12159:12161   */\n      0x20\n        /* \"#utility.yul\":12148:12157   */\n      dup3\n        /* \"#utility.yul\":12144:12162   */\n      add\n        /* \"#utility.yul\":12136:12162   */\n      swap1\n      pop\n        /* \"#utility.yul\":12208:12217   */\n      dup2\n        /* \"#utility.yul\":12202:12206   */\n      dup2\n        /* \"#utility.yul\":12198:12218   */\n      sub\n        /* \"#utility.yul\":12194:12195   */\n      0x00\n        /* \"#utility.yul\":12183:12192   */\n      dup4\n        /* \"#utility.yul\":12179:12196   */\n      add\n        /* \"#utility.yul\":12172:12219   */\n      mstore\n        /* \"#utility.yul\":12236:12367   */\n      tag_372\n        /* \"#utility.yul\":12362:12366   */\n      dup2\n        /* \"#utility.yul\":12236:12367   */\n      tag_229\n      jump\t// in\n    tag_372:\n        /* \"#utility.yul\":12228:12367   */\n      swap1\n      pop\n        /* \"#utility.yul\":11955:12374   */\n      swap2\n      swap1\n      pop\n      jump\t// out\n        /* \"#utility.yul\":12380:12560   */\n    tag_230:\n        /* \"#utility.yul\":12428:12505   */\n      0x4e487b7100000000000000000000000000000000000000000000000000000000\n        /* \"#utility.yul\":12425:12426   */\n      0x00\n        /* \"#utility.yul\":12418:12506   */\n      mstore\n        /* \"#utility.yul\":12525:12529   */\n      0x11\n        /* \"#utility.yul\":12522:12523   */\n      0x04\n        /* \"#utility.yul\":12515:12530   */\n      mstore\n        /* \"#utility.yul\":12549:12553   */\n      0x24\n        /* \"#utility.yul\":12546:12547   */\n      0x00\n        /* \"#utility.yul\":12539:12554   */\n      revert\n        /* \"#utility.yul\":12566:12871   */\n    tag_79:\n        /* \"#utility.yul\":12606:12609   */\n      0x00\n        /* \"#utility.yul\":12625:12645   */\n      tag_375\n        /* \"#utility.yul\":12643:12644   */\n      dup3\n        /* \"#utility.yul\":12625:12645   */\n      tag_196\n      jump\t// in\n    tag_375:\n        /* \"#utility.yul\":12620:12645   */\n      swap2\n      pop\n        /* \"#utility.yul\":12659:12679   */\n      tag_376\n        /* \"#utility.yul\":12677:12678   */\n      dup4\n        /* \"#utility.yul\":12659:12679   */\n      tag_196\n      jump\t// in\n    tag_376:\n        /* \"#utility.yul\":12654:12679   */\n      swap3\n      pop\n        /* \"#utility.yul\":12813:12814   */\n      dup3\n        /* \"#utility.yul\":12745:12811   */\n      0xffffffffffffffffffffffffffffffffffffffffffffffffffffffffffffffff\n        /* \"#utility.yul\":12741:12815   */\n      sub\n        /* \"#utility.yul\":12738:12739   */\n      dup3\n        /* \"#utility.yul\":12735:12816   */\n      gt\n        /* \"#utility.yul\":12732:12839   */\n      iszero\n      tag_377\n      jumpi\n        /* \"#utility.yul\":12819:12837   */\n      tag_378\n      tag_230\n      jump\t// in\n    tag_378:\n        /* \"#utility.yul\":12732:12839   */\n    tag_377:\n        /* \"#utility.yul\":12863:12864   */\n      dup3\n        /* \"#utility.yul\":12860:12861   */\n      dup3\n        /* \"#utility.yul\":12856:12865   */\n      add\n        /* \"#utility.yul\":12849:12865   */\n      swap1\n      pop\n        /* \"#utility.yul\":12566:12871   */\n      swap3\n      swap2\n      pop\n      pop\n      jump\t// out\n        /* \"#utility.yul\":12877:13025   */\n    tag_231:\n        /* \"#utility.yul\":12979:12990   */\n      0x00\n        /* \"#utility.yul\":13016:13019   */\n      dup2\n        /* \"#utility.yul\":13001:13019   */\n      swap1\n      pop\n        /* \"#utility.yul\":12877:13025   */\n      swap3\n      swap2\n      pop\n      pop\n      jump\t// out\n        /* \"#utility.yul\":13031:13408   */\n    tag_232:\n        /* \"#utility.yul\":13137:13140   */\n      0x00\n        /* \"#utility.yul\":13165:13204   */\n      tag_381\n        /* \"#utility.yul\":13198:13203   */\n      dup3\n        /* \"#utility.yul\":13165:13204   */\n      tag_216\n      jump\t// in\n    tag_381:\n        /* \"#utility.yul\":13220:13309   */\n      tag_382\n        /* \"#utility.yul\":13302:13308   */\n      dup2\n        /* \"#utility.yul\":13297:13300   */\n      dup6\n        /* \"#utility.yul\":13220:13309   */\n      tag_231\n      jump\t// in\n    tag_382:\n        /* \"#utility.yul\":13213:13309   */\n      swap4\n      pop\n        /* \"#utility.yul\":13318:13370   */\n      tag_383\n        /* \"#utility.yul\":13363:13369   */\n      dup2\n        /* \"#utility.yul\":13358:13361   */\n      dup6\n        /* \"#utility.yul\":13351:13355   */\n      0x20\n        /* \"#utility.yul\":13344:13349   */\n      dup7\n        /* \"#utility.yul\":13340:13356   */\n      add\n        /* \"#utility.yul\":13318:13370   */\n      tag_218\n      jump\t// in\n    tag_383:\n        /* \"#utility.yul\":13395:13401   */\n      dup1\n        /* \"#utility.yul\":13390:13393   */\n      dup5\n        /* \"#utility.yul\":13386:13402   */\n      add\n        /* \"#utility.yul\":13379:13402   */\n      swap2\n      pop\n        /* \"#utility.yul\":13141:13408   */\n      pop\n        /* \"#utility.yul\":13031:13408   */\n      swap3\n      swap2\n      pop\n      pop\n      jump\t// out\n        /* \"#utility.yul\":13414:13491   */\n    tag_233:\n        /* \"#utility.yul\":13451:13458   */\n      0x00\n        /* \"#utility.yul\":13480:13485   */\n      dup2\n        /* \"#utility.yul\":13469:13485   */\n      swap1\n      pop\n        /* \"#utility.yul\":13414:13491   */\n      swap2\n      swap1\n      pop\n      jump\t// out\n        /* \"#utility.yul\":13497:13576   */\n    tag_234:\n        /* \"#utility.yul\":13536:13543   */\n      0x00\n        /* \"#utility.yul\":13565:13570   */\n      dup2\n        /* \"#utility.yul\":13554:13570   */\n      swap1\n      pop\n        /* \"#utility.yul\":13497:13576   */\n      swap2\n      swap1\n      pop\n      jump\t// out\n        /* \"#utility.yul\":13582:13739   */\n    tag_235:\n        /* \"#utility.yul\":13687:13732   */\n      tag_387\n        /* \"#utility.yul\":13707:13731   */\n      tag_388\n        /* \"#utility.yul\":13725:13730   */\n      dup3\n        /* \"#utility.yul\":13707:13731   */\n      tag_233\n      jump\t// in\n    tag_388:\n        /* \"#utility.yul\":13687:13732   */\n      tag_234\n      jump\t// in\n    tag_387:\n        /* \"#utility.yul\":13682:13685   */\n      dup3\n        /* \"#utility.yul\":13675:13733   */\n      mstore\n        /* \"#utility.yul\":13582:13739   */\n      pop\n      pop\n      jump\t// out\n        /* \"#utility.yul\":13745:14161   */\n    tag_81:\n        /* \"#utility.yul\":13905:13908   */\n      0x00\n        /* \"#utility.yul\":13927:14022   */\n      tag_390\n        /* \"#utility.yul\":14018:14021   */\n      dup3\n        /* \"#utility.yul\":14009:14015   */\n      dup6\n        /* \"#utility.yul\":13927:14022   */\n      tag_232\n      jump\t// in\n    tag_390:\n        /* \"#utility.yul\":13920:14022   */\n      swap2\n      pop\n        /* \"#utility.yul\":14032:14107   */\n      tag_391\n        /* \"#utility.yul\":14103:14106   */\n      dup3\n        /* \"#utility.yul\":14094:14100   */\n      dup5\n        /* \"#utility.yul\":14032:14107   */\n      tag_235\n      jump\t// in\n    tag_391:\n        /* \"#utility.yul\":14132:14134   */\n      0x20\n        /* \"#utility.yul\":14127:14130   */\n      dup3\n        /* \"#utility.yul\":14123:14135   */\n      add\n        /* \"#utility.yul\":14116:14135   */\n      swap2\n      pop\n        /* \"#utility.yul\":14152:14155   */\n      dup2\n        /* \"#utility.yul\":14145:14155   */\n      swap1\n      pop\n        /* \"#utility.yul\":13745:14161   */\n      swap4\n      swap3\n      pop\n      pop\n      pop\n      jump\t// out\n        /* \"#utility.yul\":14167:14347   */\n    tag_236:\n        /* \"#utility.yul\":14215:14292   */\n      0x4e487b7100000000000000000000000000000000000000000000000000000000\n        /* \"#utility.yul\":14212:14213   */\n      0x00\n        /* \"#utility.yul\":14205:14293   */\n      mstore\n        /* \"#utility.yul\":14312:14316   */\n      0x12\n        /* \"#utility.yul\":14309:14310   */\n      0x04\n        /* \"#utility.yul\":14302:14317   */\n      mstore\n        /* \"#utility.yul\":14336:14340   */\n      0x24\n        /* \"#utility.yul\":14333:14334   */\n      0x00\n        /* \"#utility.yul\":14326:14341   */\n      revert\n        /* \"#utility.yul\":14353:14529   */\n    tag_83:\n        /* \"#utility.yul\":14385:14386   */\n      0x00\n        /* \"#utility.yul\":14402:14422   */\n      tag_394\n        /* \"#utility.yul\":14420:14421   */\n      dup3\n        /* \"#utility.yul\":14402:14422   */\n      tag_196\n      jump\t// in\n    tag_394:\n        /* \"#utility.yul\":14397:14422   */\n      swap2\n      pop\n        /* \"#utility.yul\":14436:14456   */\n      tag_395\n        /* \"#utility.yul\":14454:14455   */\n      dup4\n        /* \"#utility.yul\":14436:14456   */\n      tag_196\n      jump\t// in\n    tag_395:\n        /* \"#utility.yul\":14431:14456   */\n      swap3\n      pop\n        /* \"#utility.yul\":14475:14476   */\n      dup3\n        /* \"#utility.yul\":14465:14500   */\n      tag_396\n      jumpi\n        /* \"#utility.yul\":14480:14498   */\n      tag_397\n      tag_236\n      jump\t// in\n    tag_397:\n        /* \"#utility.yul\":14465:14500   */\n    tag_396:\n        /* \"#utility.yul\":14521:14522   */\n      dup3\n        /* \"#utility.yul\":14518:14519   */\n      dup3\n        /* \"#utility.yul\":14514:14523   */\n      mod\n        /* \"#utility.yul\":14509:14523   */\n      swap1\n      pop\n        /* \"#utility.yul\":14353:14529   */\n      swap3\n      swap2\n      pop\n      pop\n      jump\t// out\n        /* \"#utility.yul\":14535:14715   */\n    tag_86:\n        /* \"#utility.yul\":14583:14660   */\n      0x4e487b7100000000000000000000000000000000000000000000000000000000\n        /* \"#utility.yul\":14580:14581   */\n      0x00\n        /* \"#utility.yul\":14573:14661   */\n      mstore\n        /* \"#utility.yul\":14680:14684   */\n      0x32\n        /* \"#utility.yul\":14677:14678   */\n      0x04\n        /* \"#utility.yul\":14670:14685   */\n      mstore\n        /* \"#utility.yul\":14704:14708   */\n      0x24\n        /* \"#utility.yul\":14701:14702   */\n      0x00\n        /* \"#utility.yul\":14694:14709   */\n      revert\n        /* \"#utility.yul\":14721:14901   */\n    tag_237:\n        /* \"#utility.yul\":14769:14846   */\n      0x4e487b7100000000000000000000000000000000000000000000000000000000\n        /* \"#utility.yul\":14766:14767   */\n      0x00\n        /* \"#utility.yul\":14759:14847   */\n      mstore\n        /* \"#utility.yul\":14866:14870   */\n      0x22\n        /* \"#utility.yul\":14863:14864   */\n      0x04\n        /* \"#utility.yul\":14856:14871   */\n      mstore\n        /* \"#utility.yul\":14890:14894   */\n      0x24\n        /* \"#utility.yul\":14887:14888   */\n      0x00\n        /* \"#utility.yul\":14880:14895   */\n      revert\n        /* \"#utility.yul\":14907:15227   */\n    tag_89:\n        /* \"#utility.yul\":14951:14957   */\n      0x00\n        /* \"#utility.yul\":14988:14989   */\n      0x02\n        /* \"#utility.yul\":14982:14986   */\n      dup3\n        /* \"#utility.yul\":14978:14990   */\n      div\n        /* \"#utility.yul\":14968:14990   */\n      swap1\n      pop\n        /* \"#utility.yul\":15035:15036   */\n      0x01\n        /* \"#utility.yul\":15029:15033   */\n      dup3\n        /* \"#utility.yul\":15025:15037   */\n      and\n        /* \"#utility.yul\":15056:15074   */\n      dup1\n        /* \"#utility.yul\":15046:15127   */\n      tag_401\n      jumpi\n        /* \"#utility.yul\":15112:15116   */\n      0x7f\n        /* \"#utility.yul\":15104:15110   */\n      dup3\n        /* \"#utility.yul\":15100:15117   */\n      and\n        /* \"#utility.yul\":15090:15117   */\n      swap2\n      pop\n        /* \"#utility.yul\":15046:15127   */\n    tag_401:\n        /* \"#utility.yul\":15174:15176   */\n      0x20\n        /* \"#utility.yul\":15166:15172   */\n      dup3\n        /* \"#utility.yul\":15163:15177   */\n      lt\n        /* \"#utility.yul\":15143:15161   */\n      dup2\n        /* \"#utility.yul\":15140:15178   */\n      sub\n        /* \"#utility.yul\":15137:15221   */\n      tag_402\n      jumpi\n        /* \"#utility.yul\":15193:15211   */\n      tag_403\n      tag_237\n      jump\t// in\n    tag_403:\n        /* \"#utility.yul\":15137:15221   */\n    tag_402:\n        /* \"#utility.yul\":14958:15227   */\n      pop\n        /* \"#utility.yul\":14907:15227   */\n      swap2\n      swap1\n      pop\n      jump\t// out\n        /* \"#utility.yul\":15233:15374   */\n    tag_238:\n        /* \"#utility.yul\":15282:15286   */\n      0x00\n        /* \"#utility.yul\":15305:15308   */\n      dup2\n        /* \"#utility.yul\":15297:15308   */\n      swap1\n      pop\n        /* \"#utility.yul\":15328:15331   */\n      dup2\n        /* \"#utility.yul\":15325:15326   */\n      0x00\n        /* \"#utility.yul\":15318:15332   */\n      mstore\n        /* \"#utility.yul\":15362:15366   */\n      0x20\n        /* \"#utility.yul\":15359:15360   */\n      0x00\n        /* \"#utility.yul\":15349:15367   */\n      keccak256\n        /* \"#utility.yul\":15341:15367   */\n      swap1\n      pop\n        /* \"#utility.yul\":15233:15374   */\n      swap2\n      swap1\n      pop\n      jump\t// out\n        /* \"#utility.yul\":15404:16186   */\n    tag_239:\n        /* \"#utility.yul\":15479:15482   */\n      0x00\n        /* \"#utility.yul\":15516:15521   */\n      dup2\n        /* \"#utility.yul\":15510:15522   */\n      sload\n        /* \"#utility.yul\":15545:15581   */\n      tag_406\n        /* \"#utility.yul\":15571:15580   */\n      dup2\n        /* \"#utility.yul\":15545:15581   */\n      tag_89\n      jump\t// in\n    tag_406:\n        /* \"#utility.yul\":15597:15658   */\n      tag_407\n        /* \"#utility.yul\":15651:15657   */\n      dup2\n        /* \"#utility.yul\":15646:15649   */\n      dup7\n        /* \"#utility.yul\":15597:15658   */\n      tag_217\n      jump\t// in\n    tag_407:\n        /* \"#utility.yul\":15590:15658   */\n      swap5\n      pop\n        /* \"#utility.yul\":15689:15690   */\n      0x01\n        /* \"#utility.yul\":15678:15687   */\n      dup3\n        /* \"#utility.yul\":15674:15691   */\n      and\n        /* \"#utility.yul\":15705:15706   */\n      0x00\n        /* \"#utility.yul\":15700:15835   */\n      dup2\n      eq\n      tag_409\n      jumpi\n        /* \"#utility.yul\":15849:15850   */\n      0x01\n        /* \"#utility.yul\":15844:16180   */\n      dup2\n      eq\n      tag_410\n      jumpi\n        /* \"#utility.yul\":15667:16180   */\n      jump(tag_408)\n        /* \"#utility.yul\":15700:15835   */\n    tag_409:\n        /* \"#utility.yul\":15784:15788   */\n      0xff\n        /* \"#utility.yul\":15780:15789   */\n      not\n        /* \"#utility.yul\":15769:15778   */\n      dup4\n        /* \"#utility.yul\":15765:15790   */\n      and\n        /* \"#utility.yul\":15760:15763   */\n      dup7\n        /* \"#utility.yul\":15753:15791   */\n      mstore\n        /* \"#utility.yul\":15820:15824   */\n      0x20\n        /* \"#utility.yul\":15815:15818   */\n      dup7\n        /* \"#utility.yul\":15811:15825   */\n      add\n        /* \"#utility.yul\":15804:15825   */\n      swap4\n      pop\n        /* \"#utility.yul\":15700:15835   */\n      jump(tag_408)\n        /* \"#utility.yul\":15844:16180   */\n    tag_410:\n        /* \"#utility.yul\":15911:15949   */\n      tag_411\n        /* \"#utility.yul\":15943:15948   */\n      dup6\n        /* \"#utility.yul\":15911:15949   */\n      tag_238\n      jump\t// in\n    tag_411:\n        /* \"#utility.yul\":15971:15972   */\n      0x00\n        /* \"#utility.yul\":15985:16139   */\n    tag_412:\n        /* \"#utility.yul\":15999:16005   */\n      dup4\n        /* \"#utility.yul\":15996:15997   */\n      dup2\n        /* \"#utility.yul\":15993:16006   */\n      lt\n        /* \"#utility.yul\":15985:16139   */\n      iszero\n      tag_414\n      jumpi\n        /* \"#utility.yul\":16073:16080   */\n      dup2\n        /* \"#utility.yul\":16067:16081   */\n      sload\n        /* \"#utility.yul\":16063:16064   */\n      dup2\n        /* \"#utility.yul\":16058:16061   */\n      dup10\n        /* \"#utility.yul\":16054:16065   */\n      add\n        /* \"#utility.yul\":16047:16082   */\n      mstore\n        /* \"#utility.yul\":16123:16124   */\n      0x01\n        /* \"#utility.yul\":16114:16121   */\n      dup3\n        /* \"#utility.yul\":16110:16125   */\n      add\n        /* \"#utility.yul\":16099:16125   */\n      swap2\n      pop\n        /* \"#utility.yul\":16021:16025   */\n      0x20\n        /* \"#utility.yul\":16018:16019   */\n      dup2\n        /* \"#utility.yul\":16014:16026   */\n      add\n        /* \"#utility.yul\":16009:16026   */\n      swap1\n      pop\n        /* \"#utility.yul\":15985:16139   */\n      jump(tag_412)\n    tag_414:\n        /* \"#utility.yul\":16168:16169   */\n      dup1\n        /* \"#utility.yul\":16163:16166   */\n      dup9\n        /* \"#utility.yul\":16159:16170   */\n      add\n        /* \"#utility.yul\":16152:16170   */\n      swap6\n      pop\n        /* \"#utility.yul\":15851:16180   */\n      pop\n      pop\n        /* \"#utility.yul\":15667:16180   */\n    tag_408:\n      pop\n        /* \"#utility.yul\":15483:16186   */\n      pop\n      pop\n        /* \"#utility.yul\":15404:16186   */\n      swap3\n      swap2\n      pop\n      pop\n      jump\t// out\n        /* \"#utility.yul\":16192:16294   */\n    tag_240:\n        /* \"#utility.yul\":16234:16242   */\n      0x00\n        /* \"#utility.yul\":16281:16286   */\n      dup2\n        /* \"#utility.yul\":16278:16279   */\n      0x00\n        /* \"#utility.yul\":16274:16287   */\n      shr\n        /* \"#utility.yul\":16253:16287   */\n      swap1\n      pop\n        /* \"#utility.yul\":16192:16294   */\n      swap2\n      swap1\n      pop\n      jump\t// out\n        /* \"#utility.yul\":16300:16399   */\n    tag_241:\n        /* \"#utility.yul\":16348:16355   */\n      0x00\n        /* \"#utility.yul\":16388:16392   */\n      0xff\n        /* \"#utility.yul\":16381:16386   */\n      dup3\n        /* \"#utility.yul\":16377:16393   */\n      and\n        /* \"#utility.yul\":16366:16393   */\n      swap1\n      pop\n        /* \"#utility.yul\":16300:16399   */\n      swap2\n      swap1\n      pop\n      jump\t// out\n        /* \"#utility.yul\":16405:16567   */\n    tag_242:\n        /* \"#utility.yul\":16472:16477   */\n      0x00\n        /* \"#utility.yul\":16497:16561   */\n      tag_418\n        /* \"#utility.yul\":16526:16560   */\n      tag_419\n        /* \"#utility.yul\":16549:16559   */\n      dup4\n        /* \"#utility.yul\":16526:16560   */\n      tag_240\n      jump\t// in\n    tag_419:\n        /* \"#utility.yul\":16497:16561   */\n      tag_241\n      jump\t// in\n    tag_418:\n        /* \"#utility.yul\":16488:16561   */\n      swap1\n      pop\n        /* \"#utility.yul\":16405:16567   */\n      swap2\n      swap1\n      pop\n      jump\t// out\n        /* \"#utility.yul\":16573:16663   */\n    tag_243:\n        /* \"#utility.yul\":16623:16630   */\n      0x00\n        /* \"#utility.yul\":16652:16657   */\n      dup2\n        /* \"#utility.yul\":16641:16657   */\n      swap1\n      pop\n        /* \"#utility.yul\":16573:16663   */\n      swap2\n      swap1\n      pop\n      jump\t// out\n        /* \"#utility.yul\":16669:16835   */\n    tag_244:\n        /* \"#utility.yul\":16738:16743   */\n      0x00\n        /* \"#utility.yul\":16763:16829   */\n      tag_422\n        /* \"#utility.yul\":16794:16828   */\n      tag_423\n        /* \"#utility.yul\":16817:16827   */\n      dup4\n        /* \"#utility.yul\":16794:16828   */\n      tag_240\n      jump\t// in\n    tag_423:\n        /* \"#utility.yul\":16763:16829   */\n      tag_243\n      jump\t// in\n    tag_422:\n        /* \"#utility.yul\":16754:16829   */\n      swap1\n      pop\n        /* \"#utility.yul\":16669:16835   */\n      swap2\n      swap1\n      pop\n      jump\t// out\n        /* \"#utility.yul\":16897:19300   */\n    tag_245:\n        /* \"#utility.yul\":17003:17006   */\n      0x00\n        /* \"#utility.yul\":17039:17045   */\n      0x0120\n        /* \"#utility.yul\":17034:17037   */\n      dup4\n        /* \"#utility.yul\":17030:17046   */\n      add\n        /* \"#utility.yul\":17072:17073   */\n      0x00\n        /* \"#utility.yul\":17153:17157   */\n      dup1\n        /* \"#utility.yul\":17146:17151   */\n      dup5\n        /* \"#utility.yul\":17142:17158   */\n      add\n        /* \"#utility.yul\":17205:17208   */\n      dup6\n        /* \"#utility.yul\":17199:17203   */\n      dup4\n        /* \"#utility.yul\":17195:17209   */\n      sub\n        /* \"#utility.yul\":17188:17192   */\n      0x00\n        /* \"#utility.yul\":17183:17186   */\n      dup8\n        /* \"#utility.yul\":17179:17193   */\n      add\n        /* \"#utility.yul\":17172:17210   */\n      mstore\n        /* \"#utility.yul\":17231:17301   */\n      tag_425\n        /* \"#utility.yul\":17296:17300   */\n      dup4\n        /* \"#utility.yul\":17282:17294   */\n      dup3\n        /* \"#utility.yul\":17231:17301   */\n      tag_239\n      jump\t// in\n    tag_425:\n        /* \"#utility.yul\":17223:17301   */\n      swap3\n      pop\n        /* \"#utility.yul\":17083:17312   */\n      pop\n        /* \"#utility.yul\":17391:17395   */\n      0x01\n        /* \"#utility.yul\":17384:17389   */\n      dup5\n        /* \"#utility.yul\":17380:17396   */\n      add\n        /* \"#utility.yul\":17443:17446   */\n      dup6\n        /* \"#utility.yul\":17437:17441   */\n      dup4\n        /* \"#utility.yul\":17433:17447   */\n      sub\n        /* \"#utility.yul\":17426:17430   */\n      0x20\n        /* \"#utility.yul\":17421:17424   */\n      dup8\n        /* \"#utility.yul\":17417:17431   */\n      add\n        /* \"#utility.yul\":17410:17448   */\n      mstore\n        /* \"#utility.yul\":17469:17539   */\n      tag_426\n        /* \"#utility.yul\":17534:17538   */\n      dup4\n        /* \"#utility.yul\":17520:17532   */\n      dup3\n        /* \"#utility.yul\":17469:17539   */\n      tag_239\n      jump\t// in\n    tag_426:\n        /* \"#utility.yul\":17461:17539   */\n      swap3\n      pop\n        /* \"#utility.yul\":17322:17550   */\n      pop\n        /* \"#utility.yul\":17629:17633   */\n      0x02\n        /* \"#utility.yul\":17622:17627   */\n      dup5\n        /* \"#utility.yul\":17618:17634   */\n      add\n        /* \"#utility.yul\":17681:17684   */\n      dup6\n        /* \"#utility.yul\":17675:17679   */\n      dup4\n        /* \"#utility.yul\":17671:17685   */\n      sub\n        /* \"#utility.yul\":17664:17668   */\n      0x40\n        /* \"#utility.yul\":17659:17662   */\n      dup8\n        /* \"#utility.yul\":17655:17669   */\n      add\n        /* \"#utility.yul\":17648:17686   */\n      mstore\n        /* \"#utility.yul\":17707:17777   */\n      tag_427\n        /* \"#utility.yul\":17772:17776   */\n      dup4\n        /* \"#utility.yul\":17758:17770   */\n      dup3\n        /* \"#utility.yul\":17707:17777   */\n      tag_239\n      jump\t// in\n    tag_427:\n        /* \"#utility.yul\":17699:17777   */\n      swap3\n      pop\n        /* \"#utility.yul\":17560:17788   */\n      pop\n        /* \"#utility.yul\":17867:17871   */\n      0x03\n        /* \"#utility.yul\":17860:17865   */\n      dup5\n        /* \"#utility.yul\":17856:17872   */\n      add\n        /* \"#utility.yul\":17919:17922   */\n      dup6\n        /* \"#utility.yul\":17913:17917   */\n      dup4\n        /* \"#utility.yul\":17909:17923   */\n      sub\n        /* \"#utility.yul\":17902:17906   */\n      0x60\n        /* \"#utility.yul\":17897:17900   */\n      dup8\n        /* \"#utility.yul\":17893:17907   */\n      add\n        /* \"#utility.yul\":17886:17924   */\n      mstore\n        /* \"#utility.yul\":17945:18015   */\n      tag_428\n        /* \"#utility.yul\":18010:18014   */\n      dup4\n        /* \"#utility.yul\":17996:18008   */\n      dup3\n        /* \"#utility.yul\":17945:18015   */\n      tag_239\n      jump\t// in\n    tag_428:\n        /* \"#utility.yul\":17937:18015   */\n      swap3\n      pop\n        /* \"#utility.yul\":17798:18026   */\n      pop\n        /* \"#utility.yul\":18105:18109   */\n      0x04\n        /* \"#utility.yul\":18098:18103   */\n      dup5\n        /* \"#utility.yul\":18094:18110   */\n      add\n        /* \"#utility.yul\":18157:18160   */\n      dup6\n        /* \"#utility.yul\":18151:18155   */\n      dup4\n        /* \"#utility.yul\":18147:18161   */\n      sub\n        /* \"#utility.yul\":18140:18144   */\n      0x80\n        /* \"#utility.yul\":18135:18138   */\n      dup8\n        /* \"#utility.yul\":18131:18145   */\n      add\n        /* \"#utility.yul\":18124:18162   */\n      mstore\n        /* \"#utility.yul\":18183:18253   */\n      tag_429\n        /* \"#utility.yul\":18248:18252   */\n      dup4\n        /* \"#utility.yul\":18234:18246   */\n      dup3\n        /* \"#utility.yul\":18183:18253   */\n      tag_239\n      jump\t// in\n    tag_429:\n        /* \"#utility.yul\":18175:18253   */\n      swap3\n      pop\n        /* \"#utility.yul\":18036:18264   */\n      pop\n        /* \"#utility.yul\":18340:18344   */\n      0x05\n        /* \"#utility.yul\":18333:18338   */\n      dup5\n        /* \"#utility.yul\":18329:18345   */\n      add\n        /* \"#utility.yul\":18392:18395   */\n      dup6\n        /* \"#utility.yul\":18386:18390   */\n      dup4\n        /* \"#utility.yul\":18382:18396   */\n      sub\n        /* \"#utility.yul\":18375:18379   */\n      0xa0\n        /* \"#utility.yul\":18370:18373   */\n      dup8\n        /* \"#utility.yul\":18366:18380   */\n      add\n        /* \"#utility.yul\":18359:18397   */\n      mstore\n        /* \"#utility.yul\":18418:18488   */\n      tag_430\n        /* \"#utility.yul\":18483:18487   */\n      dup4\n        /* \"#utility.yul\":18469:18481   */\n      dup3\n        /* \"#utility.yul\":18418:18488   */\n      tag_239\n      jump\t// in\n    tag_430:\n        /* \"#utility.yul\":18410:18488   */\n      swap3\n      pop\n        /* \"#utility.yul\":18274:18499   */\n      pop\n        /* \"#utility.yul\":18581:18585   */\n      0x06\n        /* \"#utility.yul\":18574:18579   */\n      dup5\n        /* \"#utility.yul\":18570:18586   */\n      add\n        /* \"#utility.yul\":18564:18587   */\n      sload\n        /* \"#utility.yul\":18551:18587   */\n      swap1\n      pop\n        /* \"#utility.yul\":18620:18673   */\n      tag_431\n        /* \"#utility.yul\":18663:18672   */\n      dup2\n        /* \"#utility.yul\":18620:18673   */\n      tag_242\n      jump\t// in\n    tag_431:\n        /* \"#utility.yul\":18686:18745   */\n      tag_432\n        /* \"#utility.yul\":18739:18743   */\n      0xc0\n        /* \"#utility.yul\":18734:18737   */\n      dup8\n        /* \"#utility.yul\":18730:18744   */\n      add\n        /* \"#utility.yul\":18716:18728   */\n      dup3\n        /* \"#utility.yul\":18686:18745   */\n      tag_221\n      jump\t// in\n    tag_432:\n        /* \"#utility.yul\":18509:18755   */\n      pop\n        /* \"#utility.yul\":18831:18835   */\n      0x07\n        /* \"#utility.yul\":18824:18829   */\n      dup5\n        /* \"#utility.yul\":18820:18836   */\n      add\n        /* \"#utility.yul\":18814:18837   */\n      sload\n        /* \"#utility.yul\":18801:18837   */\n      swap1\n      pop\n        /* \"#utility.yul\":18870:18925   */\n      tag_433\n        /* \"#utility.yul\":18915:18924   */\n      dup2\n        /* \"#utility.yul\":18870:18925   */\n      tag_244\n      jump\t// in\n    tag_433:\n        /* \"#utility.yul\":18938:19001   */\n      tag_434\n        /* \"#utility.yul\":18995:18999   */\n      0xe0\n        /* \"#utility.yul\":18990:18993   */\n      dup8\n        /* \"#utility.yul\":18986:19000   */\n      add\n        /* \"#utility.yul\":18972:18984   */\n      dup3\n        /* \"#utility.yul\":18938:19001   */\n      tag_222\n      jump\t// in\n    tag_434:\n        /* \"#utility.yul\":18765:19011   */\n      pop\n        /* \"#utility.yul\":19091:19095   */\n      0x08\n        /* \"#utility.yul\":19084:19089   */\n      dup5\n        /* \"#utility.yul\":19080:19096   */\n      add\n        /* \"#utility.yul\":19074:19097   */\n      sload\n        /* \"#utility.yul\":19061:19097   */\n      swap1\n      pop\n        /* \"#utility.yul\":19130:19185   */\n      tag_435\n        /* \"#utility.yul\":19175:19184   */\n      dup2\n        /* \"#utility.yul\":19130:19185   */\n      tag_244\n      jump\t// in\n    tag_435:\n        /* \"#utility.yul\":19198:19263   */\n      tag_436\n        /* \"#utility.yul\":19255:19261   */\n      0x0100\n        /* \"#utility.yul\":19250:19253   */\n      dup8\n        /* \"#utility.yul\":19246:19262   */\n      add\n        /* \"#utility.yul\":19232:19244   */\n      dup3\n        /* \"#utility.yul\":19198:19263   */\n      tag_222\n      jump\t// in\n    tag_436:\n        /* \"#utility.yul\":19021:19273   */\n      pop\n        /* \"#utility.yul\":19290:19294   */\n      dup2\n        /* \"#utility.yul\":19283:19294   */\n      swap3\n      pop\n        /* \"#utility.yul\":17008:19300   */\n      pop\n      pop\n        /* \"#utility.yul\":16897:19300   */\n      swap3\n      swap2\n      pop\n      pop\n      jump\t// out\n        /* \"#utility.yul\":19306:19755   */\n    tag_129:\n        /* \"#utility.yul\":19460:19464   */\n      0x00\n        /* \"#utility.yul\":19498:19500   */\n      0x40\n        /* \"#utility.yul\":19487:19496   */\n      dup3\n        /* \"#utility.yul\":19483:19501   */\n      add\n        /* \"#utility.yul\":19475:19501   */\n      swap1\n      pop\n        /* \"#utility.yul\":19547:19556   */\n      dup2\n        /* \"#utility.yul\":19541:19545   */\n      dup2\n        /* \"#utility.yul\":19537:19557   */\n      sub\n        /* \"#utility.yul\":19533:19534   */\n      0x00\n        /* \"#utility.yul\":19522:19531   */\n      dup4\n        /* \"#utility.yul\":19518:19535   */\n      add\n        /* \"#utility.yul\":19511:19558   */\n      mstore\n        /* \"#utility.yul\":19575:19670   */\n      tag_438\n        /* \"#utility.yul\":19665:19669   */\n      dup2\n        /* \"#utility.yul\":19656:19662   */\n      dup6\n        /* \"#utility.yul\":19575:19670   */\n      tag_245\n      jump\t// in\n    tag_438:\n        /* \"#utility.yul\":19567:19670   */\n      swap1\n      pop\n        /* \"#utility.yul\":19680:19748   */\n      tag_439\n        /* \"#utility.yul\":19744:19746   */\n      0x20\n        /* \"#utility.yul\":19733:19742   */\n      dup4\n        /* \"#utility.yul\":19729:19747   */\n      add\n        /* \"#utility.yul\":19720:19726   */\n      dup5\n        /* \"#utility.yul\":19680:19748   */\n      tag_224\n      jump\t// in\n    tag_439:\n        /* \"#utility.yul\":19306:19755   */\n      swap4\n      swap3\n      pop\n      pop\n      pop\n      jump\t// out\n        /* \"#utility.yul\":19761:19986   */\n    tag_246:\n        /* \"#utility.yul\":19901:19935   */\n      0x4f776e61626c653a206e6577206f776e657220697320746865207a65726f2061\n        /* \"#utility.yul\":19897:19898   */\n      0x00\n        /* \"#utility.yul\":19889:19895   */\n      dup3\n        /* \"#utility.yul\":19885:19899   */\n      add\n        /* \"#utility.yul\":19878:19936   */\n      mstore\n        /* \"#utility.yul\":19970:19978   */\n      0x6464726573730000000000000000000000000000000000000000000000000000\n        /* \"#utility.yul\":19965:19967   */\n      0x20\n        /* \"#utility.yul\":19957:19963   */\n      dup3\n        /* \"#utility.yul\":19953:19968   */\n      add\n        /* \"#utility.yul\":19946:19979   */\n      mstore\n        /* \"#utility.yul\":19761:19986   */\n      pop\n      jump\t// out\n        /* \"#utility.yul\":19992:20358   */\n    tag_247:\n        /* \"#utility.yul\":20134:20137   */\n      0x00\n        /* \"#utility.yul\":20155:20222   */\n      tag_442\n        /* \"#utility.yul\":20219:20221   */\n      0x26\n        /* \"#utility.yul\":20214:20217   */\n      dup4\n        /* \"#utility.yul\":20155:20222   */\n      tag_227\n      jump\t// in\n    tag_442:\n        /* \"#utility.yul\":20148:20222   */\n      swap2\n      pop\n        /* \"#utility.yul\":20231:20324   */\n      tag_443\n        /* \"#utility.yul\":20320:20323   */\n      dup3\n        /* \"#utility.yul\":20231:20324   */\n      tag_246\n      jump\t// in\n    tag_443:\n        /* \"#utility.yul\":20349:20351   */\n      0x40\n        /* \"#utility.yul\":20344:20347   */\n      dup3\n        /* \"#utility.yul\":20340:20352   */\n      add\n        /* \"#utility.yul\":20333:20352   */\n      swap1\n      pop\n        /* \"#utility.yul\":19992:20358   */\n      swap2\n      swap1\n      pop\n      jump\t// out\n        /* \"#utility.yul\":20364:20783   */\n    tag_171:\n        /* \"#utility.yul\":20530:20534   */\n      0x00\n        /* \"#utility.yul\":20568:20570   */\n      0x20\n        /* \"#utility.yul\":20557:20566   */\n      dup3\n        /* \"#utility.yul\":20553:20571   */\n      add\n        /* \"#utility.yul\":20545:20571   */\n      swap1\n      pop\n        /* \"#utility.yul\":20617:20626   */\n      dup2\n        /* \"#utility.yul\":20611:20615   */\n      dup2\n        /* \"#utility.yul\":20607:20627   */\n      sub\n        /* \"#utility.yul\":20603:20604   */\n      0x00\n        /* \"#utility.yul\":20592:20601   */\n      dup4\n        /* \"#utility.yul\":20588:20605   */\n      add\n        /* \"#utility.yul\":20581:20628   */\n      mstore\n        /* \"#utility.yul\":20645:20776   */\n      tag_445\n        /* \"#utility.yul\":20771:20775   */\n      dup2\n        /* \"#utility.yul\":20645:20776   */\n      tag_247\n      jump\t// in\n    tag_445:\n        /* \"#utility.yul\":20637:20776   */\n      swap1\n      pop\n        /* \"#utility.yul\":20364:20783   */\n      swap2\n      swap1\n      pop\n      jump\t// out\n\n    auxdata: 0xa264697066735822122042d57dfac8dd1554723135253e35780b47c9ccba16d160ee3cd1771ad473629f64736f6c634300080e0033\n}\n",
				"bytecode": {
					"linkReferences": {},
					"object": "608060405234801561001057600080fd5b5061002d61002261003260201b60201c565b61003a60201b60201c565b6100fe565b600033905090565b60008060009054906101000a900473ffffffffffffffffffffffffffffffffffffffff169050816000806101000a81548173ffffffffffffffffffffffffffffffffffffffff021916908373ffffffffffffffffffffffffffffffffffffffff1602179055508173ffffffffffffffffffffffffffffffffffffffff168173ffffffffffffffffffffffffffffffffffffffff167f8be0079c531659141344cd1fd0a4f28419497f9722a3daafe3b4186f6b6457e060405160405180910390a35050565b611c1f8061010d6000396000f3fe608060405234801561001057600080fd5b506004361061009e5760003560e01c8063728b0d8711610066578063728b0d87146101455780638da5cb5b14610175578063b9360cf114610193578063f2fde38b146101c4578063fbb3b6ce146101e05761009e565b80631d3f7559146100a3578063377def85146100bf578063400ae0f9146100db57806351a1d40e1461010b578063715018a61461013b575b600080fd5b6100bd60048036038101906100b89190611183565b6101fc565b005b6100d960048036038101906100d49190611183565b6102a7565b005b6100f560048036038101906100f091906111c3565b610343565b6040516101029190611231565b60405180910390f35b610125600480360381019061012091906111c3565b610376565b604051610132919061125b565b60405180910390f35b610143610396565b005b61015f600480360381019061015a91906113bc565b61041e565b60405161016c91906115a0565b60405180910390f35b61017d61088f565b60405161018a9190611231565b60405180910390f35b6101ad60048036038101906101a891906111c3565b6108b8565b6040516101bb9291906115d1565b60405180910390f35b6101de60048036038101906101d9919061162d565b610da1565b005b6101fa60048036038101906101f5919061165a565b610e98565b005b610204610f43565b73ffffffffffffffffffffffffffffffffffffffff1661022261088f565b73ffffffffffffffffffffffffffffffffffffffff1614610278576040517f08c379a000000000000000000000000000000000000000000000000000000000815260040161026f90611713565b60405180910390fd5b806002600084815260200190815260200160002060006101000a81548160ff0219169083151502179055505050565b813373ffffffffffffffffffffffffffffffffffffffff166004600083815260200190815260200160002060009054906101000a900473ffffffffffffffffffffffffffffffffffffffff1673ffffffffffffffffffffffffffffffffffffffff161461031357600080fd5b816002600085815260200190815260200160002060006101000a81548160ff021916908315150217905550505050565b60046020528060005260406000206000915054906101000a900473ffffffffffffffffffffffffffffffffffffffff1681565b60026020528060005260406000206000915054906101000a900460ff1681565b61039e610f43565b73ffffffffffffffffffffffffffffffffffffffff166103bc61088f565b73ffffffffffffffffffffffffffffffffffffffff1614610412576040517f08c379a000000000000000000000000000000000000000000000000000000000815260040161040990611713565b60405180910390fd5b61041c6000610f4b565b565b61042661100f565b60006001436104359190611762565b9050600083824060405160200161044d92919061181f565b6040516020818303038152906040528051906020012060001c905060006001805490508261047b9190611876565b9050600060018281548110610493576104926118a7565b5b9060005260206000209060090201604051806101200160405290816000820180546104bd90611905565b80601f01602080910402602001604051908101604052809291908181526020018280546104e990611905565b80156105365780601f1061050b57610100808354040283529160200191610536565b820191906000526020600020905b81548152906001019060200180831161051957829003601f168201915b5050505050815260200160018201805461054f90611905565b80601f016020809104026020016040519081016040528092919081815260200182805461057b90611905565b80156105c85780601f1061059d576101008083540402835291602001916105c8565b820191906000526020600020905b8154815290600101906020018083116105ab57829003601f168201915b505050505081526020016002820180546105e190611905565b80601f016020809104026020016040519081016040528092919081815260200182805461060d90611905565b801561065a5780601f1061062f5761010080835404028352916020019161065a565b820191906000526020600020905b81548152906001019060200180831161063d57829003601f168201915b5050505050815260200160038201805461067390611905565b80601f016020809104026020016040519081016040528092919081815260200182805461069f90611905565b80156106ec5780601f106106c1576101008083540402835291602001916106ec565b820191906000526020600020905b8154815290600101906020018083116106cf57829003601f168201915b5050505050815260200160048201805461070590611905565b80601f016020809104026020016040519081016040528092919081815260200182805461073190611905565b801561077e5780601f106107535761010080835404028352916020019161077e565b820191906000526020600020905b81548152906001019060200180831161076157829003601f168201915b5050505050815260200160058201805461079790611905565b80601f01602080910402602001604051908101604052809291908181526020018280546107c390611905565b80156108105780601f106107e557610100808354040283529160200191610810565b820191906000526020600020905b8154815290600101906020018083116107f357829003601f168201915b505050505081526020016006820160009054906101000a900460ff1660ff1660ff1681526020016007820154815260200160088201548152505090507febb434edb545766f69737b9159b386efa8edaef27eb5737e074ea04d9bdc7b548160405161087b91906115a0565b60405180910390a180945050505050919050565b60008060009054906101000a900473ffffffffffffffffffffffffffffffffffffffff16905090565b6108c061100f565b6000823373ffffffffffffffffffffffffffffffffffffffff166004600083815260200190815260200160002060009054906101000a900473ffffffffffffffffffffffffffffffffffffffff1673ffffffffffffffffffffffffffffffffffffffff161461092e57600080fd5b7f1a74486300338ccfc1d22ebc3073195695d7bb84c8326394ea4e38ab4fead21f60018581548110610963576109626118a7565b5b90600052602060002090600902016003600087815260200190815260200160002060009054906101000a900460ff166040516109a0929190611b27565b60405180910390a1600184815481106109bc576109bb6118a7565b5b90600052602060002090600902016003600086815260200190815260200160002060009054906101000a900460ff168160405180610120016040529081600082018054610a0890611905565b80601f0160208091040260200160405190810160405280929190818152602001828054610a3490611905565b8015610a815780601f10610a5657610100808354040283529160200191610a81565b820191906000526020600020905b815481529060010190602001808311610a6457829003601f168201915b50505050508152602001600182018054610a9a90611905565b80601f0160208091040260200160405190810160405280929190818152602001828054610ac690611905565b8015610b135780601f10610ae857610100808354040283529160200191610b13565b820191906000526020600020905b815481529060010190602001808311610af657829003601f168201915b50505050508152602001600282018054610b2c90611905565b80601f0160208091040260200160405190810160405280929190818152602001828054610b5890611905565b8015610ba55780601f10610b7a57610100808354040283529160200191610ba5565b820191906000526020600020905b815481529060010190602001808311610b8857829003601f168201915b50505050508152602001600382018054610bbe90611905565b80601f0160208091040260200160405190810160405280929190818152602001828054610bea90611905565b8015610c375780601f10610c0c57610100808354040283529160200191610c37565b820191906000526020600020905b815481529060010190602001808311610c1a57829003601f168201915b50505050508152602001600482018054610c5090611905565b80601f0160208091040260200160405190810160405280929190818152602001828054610c7c90611905565b8015610cc95780601f10610c9e57610100808354040283529160200191610cc9565b820191906000526020600020905b815481529060010190602001808311610cac57829003601f168201915b50505050508152602001600582018054610ce290611905565b80601f0160208091040260200160405190810160405280929190818152602001828054610d0e90611905565b8015610d5b5780601f10610d3057610100808354040283529160200191610d5b565b820191906000526020600020905b815481529060010190602001808311610d3e57829003601f168201915b505050505081526020016006820160009054906101000a900460ff1660ff1660ff1681526020016007820154815260200160088201548152505091509250925050915091565b610da9610f43565b73ffffffffffffffffffffffffffffffffffffffff16610dc761088f565b73ffffffffffffffffffffffffffffffffffffffff1614610e1d576040517f08c379a0000000000000000000000000000000000000000000000000000000008152600401610e1490611713565b60405180910390fd5b600073ffffffffffffffffffffffffffffffffffffffff168173ffffffffffffffffffffffffffffffffffffffff1603610e8c576040517f08c379a0000000000000000000000000000000000000000000000000000000008152600401610e8390611bc9565b60405180910390fd5b610e9581610f4b565b50565b813373ffffffffffffffffffffffffffffffffffffffff166004600083815260200190815260200160002060009054906101000a900473ffffffffffffffffffffffffffffffffffffffff1673ffffffffffffffffffffffffffffffffffffffff1614610f0457600080fd5b8160018481548110610f1957610f186118a7565b5b90600052602060002090600902016005019080519060200190610f3d92919061105e565b50505050565b600033905090565b60008060009054906101000a900473ffffffffffffffffffffffffffffffffffffffff169050816000806101000a81548173ffffffffffffffffffffffffffffffffffffffff021916908373ffffffffffffffffffffffffffffffffffffffff1602179055508173ffffffffffffffffffffffffffffffffffffffff168173ffffffffffffffffffffffffffffffffffffffff167f8be0079c531659141344cd1fd0a4f28419497f9722a3daafe3b4186f6b6457e060405160405180910390a35050565b604051806101200160405280606081526020016060815260200160608152602001606081526020016060815260200160608152602001600060ff16815260200160008152602001600081525090565b82805461106a90611905565b90600052602060002090601f01602090048101928261108c57600085556110d3565b82601f106110a557805160ff19168380011785556110d3565b828001600101855582156110d3579182015b828111156110d25782518255916020019190600101906110b7565b5b5090506110e091906110e4565b5090565b5b808211156110fd5760008160009055506001016110e5565b5090565b6000604051905090565b600080fd5b600080fd5b6000819050919050565b61112881611115565b811461113357600080fd5b50565b6000813590506111458161111f565b92915050565b60008115159050919050565b6111608161114b565b811461116b57600080fd5b50565b60008135905061117d81611157565b92915050565b6000806040838503121561119a5761119961110b565b5b60006111a885828601611136565b92505060206111b98582860161116e565b9150509250929050565b6000602082840312156111d9576111d861110b565b5b60006111e784828501611136565b91505092915050565b600073ffffffffffffffffffffffffffffffffffffffff82169050919050565b600061121b826111f0565b9050919050565b61122b81611210565b82525050565b60006020820190506112466000830184611222565b92915050565b6112558161114b565b82525050565b6000602082019050611270600083018461124c565b92915050565b600080fd5b600080fd5b6000601f19601f8301169050919050565b7f4e487b7100000000000000000000000000000000000000000000000000000000600052604160045260246000fd5b6112c982611280565b810181811067ffffffffffffffff821117156112e8576112e7611291565b5b80604052505050565b60006112fb611101565b905061130782826112c0565b919050565b600067ffffffffffffffff82111561132757611326611291565b5b61133082611280565b9050602081019050919050565b82818337600083830152505050565b600061135f61135a8461130c565b6112f1565b90508281526020810184848401111561137b5761137a61127b565b5b61138684828561133d565b509392505050565b600082601f8301126113a3576113a2611276565b5b81356113b384826020860161134c565b91505092915050565b6000602082840312156113d2576113d161110b565b5b600082013567ffffffffffffffff8111156113f0576113ef611110565b5b6113fc8482850161138e565b91505092915050565b600081519050919050565b600082825260208201905092915050565b60005b8381101561143f578082015181840152602081019050611424565b8381111561144e576000848401525b50505050565b600061145f82611405565b6114698185611410565b9350611479818560208601611421565b61148281611280565b840191505092915050565b600060ff82169050919050565b6114a38161148d565b82525050565b6114b281611115565b82525050565b60006101208301600083015184820360008601526114d68282611454565b915050602083015184820360208601526114f08282611454565b9150506040830151848203604086015261150a8282611454565b915050606083015184820360608601526115248282611454565b9150506080830151848203608086015261153e8282611454565b91505060a083015184820360a08601526115588282611454565b91505060c083015161156d60c086018261149a565b5060e083015161158060e08601826114a9565b506101008301516115956101008601826114a9565b508091505092915050565b600060208201905081810360008301526115ba81846114b8565b905092915050565b6115cb8161148d565b82525050565b600060408201905081810360008301526115eb81856114b8565b90506115fa60208301846115c2565b9392505050565b61160a81611210565b811461161557600080fd5b50565b60008135905061162781611601565b92915050565b6000602082840312156116435761164261110b565b5b600061165184828501611618565b91505092915050565b600080604083850312156116715761167061110b565b5b600061167f85828601611136565b925050602083013567ffffffffffffffff8111156116a05761169f611110565b5b6116ac8582860161138e565b9150509250929050565b600082825260208201905092915050565b7f4f776e61626c653a2063616c6c6572206973206e6f7420746865206f776e6572600082015250565b60006116fd6020836116b6565b9150611708826116c7565b602082019050919050565b6000602082019050818103600083015261172c816116f0565b9050919050565b7f4e487b7100000000000000000000000000000000000000000000000000000000600052601160045260246000fd5b600061176d82611115565b915061177883611115565b9250827fffffffffffffffffffffffffffffffffffffffffffffffffffffffffffffffff038211156117ad576117ac611733565b5b828201905092915050565b600081905092915050565b60006117ce82611405565b6117d881856117b8565b93506117e8818560208601611421565b80840191505092915050565b6000819050919050565b6000819050919050565b611819611814826117f4565b6117fe565b82525050565b600061182b82856117c3565b91506118378284611808565b6020820191508190509392505050565b7f4e487b7100000000000000000000000000000000000000000000000000000000600052601260045260246000fd5b600061188182611115565b915061188c83611115565b92508261189c5761189b611847565b5b828206905092915050565b7f4e487b7100000000000000000000000000000000000000000000000000000000600052603260045260246000fd5b7f4e487b7100000000000000000000000000000000000000000000000000000000600052602260045260246000fd5b6000600282049050600182168061191d57607f821691505b6020821081036119305761192f6118d6565b5b50919050565b60008190508160005260206000209050919050565b6000815461195881611905565b6119628186611410565b9450600182166000811461197d576001811461198f576119c2565b60ff19831686526020860193506119c2565b61199885611936565b60005b838110156119ba5781548189015260018201915060208101905061199b565b808801955050505b50505092915050565b60008160001c9050919050565b600060ff82169050919050565b60006119f86119f3836119cb565b6119d8565b9050919050565b6000819050919050565b6000611a1c611a17836119cb565b6119ff565b9050919050565b6000610120830160008084018583036000870152611a41838261194b565b925050600184018583036020870152611a5a838261194b565b925050600284018583036040870152611a73838261194b565b925050600384018583036060870152611a8c838261194b565b925050600484018583036080870152611aa5838261194b565b9250506005840185830360a0870152611abe838261194b565b92505060068401549050611ad1816119e5565b611ade60c087018261149a565b5060078401549050611aef81611a09565b611afc60e08701826114a9565b5060088401549050611b0d81611a09565b611b1b6101008701826114a9565b50819250505092915050565b60006040820190508181036000830152611b418185611a23565b9050611b5060208301846115c2565b9392505050565b7f4f776e61626c653a206e6577206f776e657220697320746865207a65726f206160008201527f6464726573730000000000000000000000000000000000000000000000000000602082015250565b6000611bb36026836116b6565b9150611bbe82611b57565b604082019050919050565b60006020820190508181036000830152611be281611ba6565b905091905056fea264697066735822122042d57dfac8dd1554723135253e35780b47c9ccba16d160ee3cd1771ad473629f64736f6c634300080e0033",
					"opcodes": "PUSH1 0x80 PUSH1 0x40 MSTORE CALLVALUE DUP1 ISZERO PUSH2 0x10 JUMPI PUSH1 0x0 DUP1 REVERT JUMPDEST POP PUSH2 0x2D PUSH2 0x22 PUSH2 0x32 PUSH1 0x20 SHL PUSH1 0x20 SHR JUMP JUMPDEST PUSH2 0x3A PUSH1 0x20 SHL PUSH1 0x20 SHR JUMP JUMPDEST PUSH2 0xFE JUMP JUMPDEST PUSH1 0x0 CALLER SWAP1 POP SWAP1 JUMP JUMPDEST PUSH1 0x0 DUP1 PUSH1 0x0 SWAP1 SLOAD SWAP1 PUSH2 0x100 EXP SWAP1 DIV PUSH20 0xFFFFFFFFFFFFFFFFFFFFFFFFFFFFFFFFFFFFFFFF AND SWAP1 POP DUP2 PUSH1 0x0 DUP1 PUSH2 0x100 EXP DUP2 SLOAD DUP2 PUSH20 0xFFFFFFFFFFFFFFFFFFFFFFFFFFFFFFFFFFFFFFFF MUL NOT AND SWAP1 DUP4 PUSH20 0xFFFFFFFFFFFFFFFFFFFFFFFFFFFFFFFFFFFFFFFF AND MUL OR SWAP1 SSTORE POP DUP2 PUSH20 0xFFFFFFFFFFFFFFFFFFFFFFFFFFFFFFFFFFFFFFFF AND DUP2 PUSH20 0xFFFFFFFFFFFFFFFFFFFFFFFFFFFFFFFFFFFFFFFF AND PUSH32 0x8BE0079C531659141344CD1FD0A4F28419497F9722A3DAAFE3B4186F6B6457E0 PUSH1 0x40 MLOAD PUSH1 0x40 MLOAD DUP1 SWAP2 SUB SWAP1 LOG3 POP POP JUMP JUMPDEST PUSH2 0x1C1F DUP1 PUSH2 0x10D PUSH1 0x0 CODECOPY PUSH1 0x0 RETURN INVALID PUSH1 0x80 PUSH1 0x40 MSTORE CALLVALUE DUP1 ISZERO PUSH2 0x10 JUMPI PUSH1 0x0 DUP1 REVERT JUMPDEST POP PUSH1 0x4 CALLDATASIZE LT PUSH2 0x9E JUMPI PUSH1 0x0 CALLDATALOAD PUSH1 0xE0 SHR DUP1 PUSH4 0x728B0D87 GT PUSH2 0x66 JUMPI DUP1 PUSH4 0x728B0D87 EQ PUSH2 0x145 JUMPI DUP1 PUSH4 0x8DA5CB5B EQ PUSH2 0x175 JUMPI DUP1 PUSH4 0xB9360CF1 EQ PUSH2 0x193 JUMPI DUP1 PUSH4 0xF2FDE38B EQ PUSH2 0x1C4 JUMPI DUP1 PUSH4 0xFBB3B6CE EQ PUSH2 0x1E0 JUMPI PUSH2 0x9E JUMP JUMPDEST DUP1 PUSH4 0x1D3F7559 EQ PUSH2 0xA3 JUMPI DUP1 PUSH4 0x377DEF85 EQ PUSH2 0xBF JUMPI DUP1 PUSH4 0x400AE0F9 EQ PUSH2 0xDB JUMPI DUP1 PUSH4 0x51A1D40E EQ PUSH2 0x10B JUMPI DUP1 PUSH4 0x715018A6 EQ PUSH2 0x13B JUMPI JUMPDEST PUSH1 0x0 DUP1 REVERT JUMPDEST PUSH2 0xBD PUSH1 0x4 DUP1 CALLDATASIZE SUB DUP2 ADD SWAP1 PUSH2 0xB8 SWAP2 SWAP1 PUSH2 0x1183 JUMP JUMPDEST PUSH2 0x1FC JUMP JUMPDEST STOP JUMPDEST PUSH2 0xD9 PUSH1 0x4 DUP1 CALLDATASIZE SUB DUP2 ADD SWAP1 PUSH2 0xD4 SWAP2 SWAP1 PUSH2 0x1183 JUMP JUMPDEST PUSH2 0x2A7 JUMP JUMPDEST STOP JUMPDEST PUSH2 0xF5 PUSH1 0x4 DUP1 CALLDATASIZE SUB DUP2 ADD SWAP1 PUSH2 0xF0 SWAP2 SWAP1 PUSH2 0x11C3 JUMP JUMPDEST PUSH2 0x343 JUMP JUMPDEST PUSH1 0x40 MLOAD PUSH2 0x102 SWAP2 SWAP1 PUSH2 0x1231 JUMP JUMPDEST PUSH1 0x40 MLOAD DUP1 SWAP2 SUB SWAP1 RETURN JUMPDEST PUSH2 0x125 PUSH1 0x4 DUP1 CALLDATASIZE SUB DUP2 ADD SWAP1 PUSH2 0x120 SWAP2 SWAP1 PUSH2 0x11C3 JUMP JUMPDEST PUSH2 0x376 JUMP JUMPDEST PUSH1 0x40 MLOAD PUSH2 0x132 SWAP2 SWAP1 PUSH2 0x125B JUMP JUMPDEST PUSH1 0x40 MLOAD DUP1 SWAP2 SUB SWAP1 RETURN JUMPDEST PUSH2 0x143 PUSH2 0x396 JUMP JUMPDEST STOP JUMPDEST PUSH2 0x15F PUSH1 0x4 DUP1 CALLDATASIZE SUB DUP2 ADD SWAP1 PUSH2 0x15A SWAP2 SWAP1 PUSH2 0x13BC JUMP JUMPDEST PUSH2 0x41E JUMP JUMPDEST PUSH1 0x40 MLOAD PUSH2 0x16C SWAP2 SWAP1 PUSH2 0x15A0 JUMP JUMPDEST PUSH1 0x40 MLOAD DUP1 SWAP2 SUB SWAP1 RETURN JUMPDEST PUSH2 0x17D PUSH2 0x88F JUMP JUMPDEST PUSH1 0x40 MLOAD PUSH2 0x18A SWAP2 SWAP1 PUSH2 0x1231 JUMP JUMPDEST PUSH1 0x40 MLOAD DUP1 SWAP2 SUB SWAP1 RETURN JUMPDEST PUSH2 0x1AD PUSH1 0x4 DUP1 CALLDATASIZE SUB DUP2 ADD SWAP1 PUSH2 0x1A8 SWAP2 SWAP1 PUSH2 0x11C3 JUMP JUMPDEST PUSH2 0x8B8 JUMP JUMPDEST PUSH1 0x40 MLOAD PUSH2 0x1BB SWAP3 SWAP2 SWAP1 PUSH2 0x15D1 JUMP JUMPDEST PUSH1 0x40 MLOAD DUP1 SWAP2 SUB SWAP1 RETURN JUMPDEST PUSH2 0x1DE PUSH1 0x4 DUP1 CALLDATASIZE SUB DUP2 ADD SWAP1 PUSH2 0x1D9 SWAP2 SWAP1 PUSH2 0x162D JUMP JUMPDEST PUSH2 0xDA1 JUMP JUMPDEST STOP JUMPDEST PUSH2 0x1FA PUSH1 0x4 DUP1 CALLDATASIZE SUB DUP2 ADD SWAP1 PUSH2 0x1F5 SWAP2 SWAP1 PUSH2 0x165A JUMP JUMPDEST PUSH2 0xE98 JUMP JUMPDEST STOP JUMPDEST PUSH2 0x204 PUSH2 0xF43 JUMP JUMPDEST PUSH20 0xFFFFFFFFFFFFFFFFFFFFFFFFFFFFFFFFFFFFFFFF AND PUSH2 0x222 PUSH2 0x88F JUMP JUMPDEST PUSH20 0xFFFFFFFFFFFFFFFFFFFFFFFFFFFFFFFFFFFFFFFF AND EQ PUSH2 0x278 JUMPI PUSH1 0x40 MLOAD PUSH32 0x8C379A000000000000000000000000000000000000000000000000000000000 DUP2 MSTORE PUSH1 0x4 ADD PUSH2 0x26F SWAP1 PUSH2 0x1713 JUMP JUMPDEST PUSH1 0x40 MLOAD DUP1 SWAP2 SUB SWAP1 REVERT JUMPDEST DUP1 PUSH1 0x2 PUSH1 0x0 DUP5 DUP2 MSTORE PUSH1 0x20 ADD SWAP1 DUP2 MSTORE PUSH1 0x20 ADD PUSH1 0x0 KECCAK256 PUSH1 0x0 PUSH2 0x100 EXP DUP2 SLOAD DUP2 PUSH1 0xFF MUL NOT AND SWAP1 DUP4 ISZERO ISZERO MUL OR SWAP1 SSTORE POP POP POP JUMP JUMPDEST DUP2 CALLER PUSH20 0xFFFFFFFFFFFFFFFFFFFFFFFFFFFFFFFFFFFFFFFF AND PUSH1 0x4 PUSH1 0x0 DUP4 DUP2 MSTORE PUSH1 0x20 ADD SWAP1 DUP2 MSTORE PUSH1 0x20 ADD PUSH1 0x0 KECCAK256 PUSH1 0x0 SWAP1 SLOAD SWAP1 PUSH2 0x100 EXP SWAP1 DIV PUSH20 0xFFFFFFFFFFFFFFFFFFFFFFFFFFFFFFFFFFFFFFFF AND PUSH20 0xFFFFFFFFFFFFFFFFFFFFFFFFFFFFFFFFFFFFFFFF AND EQ PUSH2 0x313 JUMPI PUSH1 0x0 DUP1 REVERT JUMPDEST DUP2 PUSH1 0x2 PUSH1 0x0 DUP6 DUP2 MSTORE PUSH1 0x20 ADD SWAP1 DUP2 MSTORE PUSH1 0x20 ADD PUSH1 0x0 KECCAK256 PUSH1 0x0 PUSH2 0x100 EXP DUP2 SLOAD DUP2 PUSH1 0xFF MUL NOT AND SWAP1 DUP4 ISZERO ISZERO MUL OR SWAP1 SSTORE POP POP POP POP JUMP JUMPDEST PUSH1 0x4 PUSH1 0x20 MSTORE DUP1 PUSH1 0x0 MSTORE PUSH1 0x40 PUSH1 0x0 KECCAK256 PUSH1 0x0 SWAP2 POP SLOAD SWAP1 PUSH2 0x100 EXP SWAP1 DIV PUSH20 0xFFFFFFFFFFFFFFFFFFFFFFFFFFFFFFFFFFFFFFFF AND DUP2 JUMP JUMPDEST PUSH1 0x2 PUSH1 0x20 MSTORE DUP1 PUSH1 0x0 MSTORE PUSH1 0x40 PUSH1 0x0 KECCAK256 PUSH1 0x0 SWAP2 POP SLOAD SWAP1 PUSH2 0x100 EXP SWAP1 DIV PUSH1 0xFF AND DUP2 JUMP JUMPDEST PUSH2 0x39E PUSH2 0xF43 JUMP JUMPDEST PUSH20 0xFFFFFFFFFFFFFFFFFFFFFFFFFFFFFFFFFFFFFFFF AND PUSH2 0x3BC PUSH2 0x88F JUMP JUMPDEST PUSH20 0xFFFFFFFFFFFFFFFFFFFFFFFFFFFFFFFFFFFFFFFF AND EQ PUSH2 0x412 JUMPI PUSH1 0x40 MLOAD PUSH32 0x8C379A000000000000000000000000000000000000000000000000000000000 DUP2 MSTORE PUSH1 0x4 ADD PUSH2 0x409 SWAP1 PUSH2 0x1713 JUMP JUMPDEST PUSH1 0x40 MLOAD DUP1 SWAP2 SUB SWAP1 REVERT JUMPDEST PUSH2 0x41C PUSH1 0x0 PUSH2 0xF4B JUMP JUMPDEST JUMP JUMPDEST PUSH2 0x426 PUSH2 0x100F JUMP JUMPDEST PUSH1 0x0 PUSH1 0x1 NUMBER PUSH2 0x435 SWAP2 SWAP1 PUSH2 0x1762 JUMP JUMPDEST SWAP1 POP PUSH1 0x0 DUP4 DUP3 BLOCKHASH PUSH1 0x40 MLOAD PUSH1 0x20 ADD PUSH2 0x44D SWAP3 SWAP2 SWAP1 PUSH2 0x181F JUMP JUMPDEST PUSH1 0x40 MLOAD PUSH1 0x20 DUP2 DUP4 SUB SUB DUP2 MSTORE SWAP1 PUSH1 0x40 MSTORE DUP1 MLOAD SWAP1 PUSH1 0x20 ADD KECCAK256 PUSH1 0x0 SHR SWAP1 POP PUSH1 0x0 PUSH1 0x1 DUP1 SLOAD SWAP1 POP DUP3 PUSH2 0x47B SWAP2 SWAP1 PUSH2 0x1876 JUMP JUMPDEST SWAP1 POP PUSH1 0x0 PUSH1 0x1 DUP3 DUP2 SLOAD DUP2 LT PUSH2 0x493 JUMPI PUSH2 0x492 PUSH2 0x18A7 JUMP JUMPDEST JUMPDEST SWAP1 PUSH1 0x0 MSTORE PUSH1 0x20 PUSH1 0x0 KECCAK256 SWAP1 PUSH1 0x9 MUL ADD PUSH1 0x40 MLOAD DUP1 PUSH2 0x120 ADD PUSH1 0x40 MSTORE SWAP1 DUP2 PUSH1 0x0 DUP3 ADD DUP1 SLOAD PUSH2 0x4BD SWAP1 PUSH2 0x1905 JUMP JUMPDEST DUP1 PUSH1 0x1F ADD PUSH1 0x20 DUP1 SWAP2 DIV MUL PUSH1 0x20 ADD PUSH1 0x40 MLOAD SWAP1 DUP2 ADD PUSH1 0x40 MSTORE DUP1 SWAP3 SWAP2 SWAP1 DUP2 DUP2 MSTORE PUSH1 0x20 ADD DUP3 DUP1 SLOAD PUSH2 0x4E9 SWAP1 PUSH2 0x1905 JUMP JUMPDEST DUP1 ISZERO PUSH2 0x536 JUMPI DUP1 PUSH1 0x1F LT PUSH2 0x50B JUMPI PUSH2 0x100 DUP1 DUP4 SLOAD DIV MUL DUP4 MSTORE SWAP2 PUSH1 0x20 ADD SWAP2 PUSH2 0x536 JUMP JUMPDEST DUP3 ADD SWAP2 SWAP1 PUSH1 0x0 MSTORE PUSH1 0x20 PUSH1 0x0 KECCAK256 SWAP1 JUMPDEST DUP2 SLOAD DUP2 MSTORE SWAP1 PUSH1 0x1 ADD SWAP1 PUSH1 0x20 ADD DUP1 DUP4 GT PUSH2 0x519 JUMPI DUP3 SWAP1 SUB PUSH1 0x1F AND DUP3 ADD SWAP2 JUMPDEST POP POP POP POP POP DUP2 MSTORE PUSH1 0x20 ADD PUSH1 0x1 DUP3 ADD DUP1 SLOAD PUSH2 0x54F SWAP1 PUSH2 0x1905 JUMP JUMPDEST DUP1 PUSH1 0x1F ADD PUSH1 0x20 DUP1 SWAP2 DIV MUL PUSH1 0x20 ADD PUSH1 0x40 MLOAD SWAP1 DUP2 ADD PUSH1 0x40 MSTORE DUP1 SWAP3 SWAP2 SWAP1 DUP2 DUP2 MSTORE PUSH1 0x20 ADD DUP3 DUP1 SLOAD PUSH2 0x57B SWAP1 PUSH2 0x1905 JUMP JUMPDEST DUP1 ISZERO PUSH2 0x5C8 JUMPI DUP1 PUSH1 0x1F LT PUSH2 0x59D JUMPI PUSH2 0x100 DUP1 DUP4 SLOAD DIV MUL DUP4 MSTORE SWAP2 PUSH1 0x20 ADD SWAP2 PUSH2 0x5C8 JUMP JUMPDEST DUP3 ADD SWAP2 SWAP1 PUSH1 0x0 MSTORE PUSH1 0x20 PUSH1 0x0 KECCAK256 SWAP1 JUMPDEST DUP2 SLOAD DUP2 MSTORE SWAP1 PUSH1 0x1 ADD SWAP1 PUSH1 0x20 ADD DUP1 DUP4 GT PUSH2 0x5AB JUMPI DUP3 SWAP1 SUB PUSH1 0x1F AND DUP3 ADD SWAP2 JUMPDEST POP POP POP POP POP DUP2 MSTORE PUSH1 0x20 ADD PUSH1 0x2 DUP3 ADD DUP1 SLOAD PUSH2 0x5E1 SWAP1 PUSH2 0x1905 JUMP JUMPDEST DUP1 PUSH1 0x1F ADD PUSH1 0x20 DUP1 SWAP2 DIV MUL PUSH1 0x20 ADD PUSH1 0x40 MLOAD SWAP1 DUP2 ADD PUSH1 0x40 MSTORE DUP1 SWAP3 SWAP2 SWAP1 DUP2 DUP2 MSTORE PUSH1 0x20 ADD DUP3 DUP1 SLOAD PUSH2 0x60D SWAP1 PUSH2 0x1905 JUMP JUMPDEST DUP1 ISZERO PUSH2 0x65A JUMPI DUP1 PUSH1 0x1F LT PUSH2 0x62F JUMPI PUSH2 0x100 DUP1 DUP4 SLOAD DIV MUL DUP4 MSTORE SWAP2 PUSH1 0x20 ADD SWAP2 PUSH2 0x65A JUMP JUMPDEST DUP3 ADD SWAP2 SWAP1 PUSH1 0x0 MSTORE PUSH1 0x20 PUSH1 0x0 KECCAK256 SWAP1 JUMPDEST DUP2 SLOAD DUP2 MSTORE SWAP1 PUSH1 0x1 ADD SWAP1 PUSH1 0x20 ADD DUP1 DUP4 GT PUSH2 0x63D JUMPI DUP3 SWAP1 SUB PUSH1 0x1F AND DUP3 ADD SWAP2 JUMPDEST POP POP POP POP POP DUP2 MSTORE PUSH1 0x20 ADD PUSH1 0x3 DUP3 ADD DUP1 SLOAD PUSH2 0x673 SWAP1 PUSH2 0x1905 JUMP JUMPDEST DUP1 PUSH1 0x1F ADD PUSH1 0x20 DUP1 SWAP2 DIV MUL PUSH1 0x20 ADD PUSH1 0x40 MLOAD SWAP1 DUP2 ADD PUSH1 0x40 MSTORE DUP1 SWAP3 SWAP2 SWAP1 DUP2 DUP2 MSTORE PUSH1 0x20 ADD DUP3 DUP1 SLOAD PUSH2 0x69F SWAP1 PUSH2 0x1905 JUMP JUMPDEST DUP1 ISZERO PUSH2 0x6EC JUMPI DUP1 PUSH1 0x1F LT PUSH2 0x6C1 JUMPI PUSH2 0x100 DUP1 DUP4 SLOAD DIV MUL DUP4 MSTORE SWAP2 PUSH1 0x20 ADD SWAP2 PUSH2 0x6EC JUMP JUMPDEST DUP3 ADD SWAP2 SWAP1 PUSH1 0x0 MSTORE PUSH1 0x20 PUSH1 0x0 KECCAK256 SWAP1 JUMPDEST DUP2 SLOAD DUP2 MSTORE SWAP1 PUSH1 0x1 ADD SWAP1 PUSH1 0x20 ADD DUP1 DUP4 GT PUSH2 0x6CF JUMPI DUP3 SWAP1 SUB PUSH1 0x1F AND DUP3 ADD SWAP2 JUMPDEST POP POP POP POP POP DUP2 MSTORE PUSH1 0x20 ADD PUSH1 0x4 DUP3 ADD DUP1 SLOAD PUSH2 0x705 SWAP1 PUSH2 0x1905 JUMP JUMPDEST DUP1 PUSH1 0x1F ADD PUSH1 0x20 DUP1 SWAP2 DIV MUL PUSH1 0x20 ADD PUSH1 0x40 MLOAD SWAP1 DUP2 ADD PUSH1 0x40 MSTORE DUP1 SWAP3 SWAP2 SWAP1 DUP2 DUP2 MSTORE PUSH1 0x20 ADD DUP3 DUP1 SLOAD PUSH2 0x731 SWAP1 PUSH2 0x1905 JUMP JUMPDEST DUP1 ISZERO PUSH2 0x77E JUMPI DUP1 PUSH1 0x1F LT PUSH2 0x753 JUMPI PUSH2 0x100 DUP1 DUP4 SLOAD DIV MUL DUP4 MSTORE SWAP2 PUSH1 0x20 ADD SWAP2 PUSH2 0x77E JUMP JUMPDEST DUP3 ADD SWAP2 SWAP1 PUSH1 0x0 MSTORE PUSH1 0x20 PUSH1 0x0 KECCAK256 SWAP1 JUMPDEST DUP2 SLOAD DUP2 MSTORE SWAP1 PUSH1 0x1 ADD SWAP1 PUSH1 0x20 ADD DUP1 DUP4 GT PUSH2 0x761 JUMPI DUP3 SWAP1 SUB PUSH1 0x1F AND DUP3 ADD SWAP2 JUMPDEST POP POP POP POP POP DUP2 MSTORE PUSH1 0x20 ADD PUSH1 0x5 DUP3 ADD DUP1 SLOAD PUSH2 0x797 SWAP1 PUSH2 0x1905 JUMP JUMPDEST DUP1 PUSH1 0x1F ADD PUSH1 0x20 DUP1 SWAP2 DIV MUL PUSH1 0x20 ADD PUSH1 0x40 MLOAD SWAP1 DUP2 ADD PUSH1 0x40 MSTORE DUP1 SWAP3 SWAP2 SWAP1 DUP2 DUP2 MSTORE PUSH1 0x20 ADD DUP3 DUP1 SLOAD PUSH2 0x7C3 SWAP1 PUSH2 0x1905 JUMP JUMPDEST DUP1 ISZERO PUSH2 0x810 JUMPI DUP1 PUSH1 0x1F LT PUSH2 0x7E5 JUMPI PUSH2 0x100 DUP1 DUP4 SLOAD DIV MUL DUP4 MSTORE SWAP2 PUSH1 0x20 ADD SWAP2 PUSH2 0x810 JUMP JUMPDEST DUP3 ADD SWAP2 SWAP1 PUSH1 0x0 MSTORE PUSH1 0x20 PUSH1 0x0 KECCAK256 SWAP1 JUMPDEST DUP2 SLOAD DUP2 MSTORE SWAP1 PUSH1 0x1 ADD SWAP1 PUSH1 0x20 ADD DUP1 DUP4 GT PUSH2 0x7F3 JUMPI DUP3 SWAP1 SUB PUSH1 0x1F AND DUP3 ADD SWAP2 JUMPDEST POP POP POP POP POP DUP2 MSTORE PUSH1 0x20 ADD PUSH1 0x6 DUP3 ADD PUSH1 0x0 SWAP1 SLOAD SWAP1 PUSH2 0x100 EXP SWAP1 DIV PUSH1 0xFF AND PUSH1 0xFF AND PUSH1 0xFF AND DUP2 MSTORE PUSH1 0x20 ADD PUSH1 0x7 DUP3 ADD SLOAD DUP2 MSTORE PUSH1 0x20 ADD PUSH1 0x8 DUP3 ADD SLOAD DUP2 MSTORE POP POP SWAP1 POP PUSH32 0xEBB434EDB545766F69737B9159B386EFA8EDAEF27EB5737E074EA04D9BDC7B54 DUP2 PUSH1 0x40 MLOAD PUSH2 0x87B SWAP2 SWAP1 PUSH2 0x15A0 JUMP JUMPDEST PUSH1 0x40 MLOAD DUP1 SWAP2 SUB SWAP1 LOG1 DUP1 SWAP5 POP POP POP POP POP SWAP2 SWAP1 POP JUMP JUMPDEST PUSH1 0x0 DUP1 PUSH1 0x0 SWAP1 SLOAD SWAP1 PUSH2 0x100 EXP SWAP1 DIV PUSH20 0xFFFFFFFFFFFFFFFFFFFFFFFFFFFFFFFFFFFFFFFF AND SWAP1 POP SWAP1 JUMP JUMPDEST PUSH2 0x8C0 PUSH2 0x100F JUMP JUMPDEST PUSH1 0x0 DUP3 CALLER PUSH20 0xFFFFFFFFFFFFFFFFFFFFFFFFFFFFFFFFFFFFFFFF AND PUSH1 0x4 PUSH1 0x0 DUP4 DUP2 MSTORE PUSH1 0x20 ADD SWAP1 DUP2 MSTORE PUSH1 0x20 ADD PUSH1 0x0 KECCAK256 PUSH1 0x0 SWAP1 SLOAD SWAP1 PUSH2 0x100 EXP SWAP1 DIV PUSH20 0xFFFFFFFFFFFFFFFFFFFFFFFFFFFFFFFFFFFFFFFF AND PUSH20 0xFFFFFFFFFFFFFFFFFFFFFFFFFFFFFFFFFFFFFFFF AND EQ PUSH2 0x92E JUMPI PUSH1 0x0 DUP1 REVERT JUMPDEST PUSH32 0x1A74486300338CCFC1D22EBC3073195695D7BB84C8326394EA4E38AB4FEAD21F PUSH1 0x1 DUP6 DUP2 SLOAD DUP2 LT PUSH2 0x963 JUMPI PUSH2 0x962 PUSH2 0x18A7 JUMP JUMPDEST JUMPDEST SWAP1 PUSH1 0x0 MSTORE PUSH1 0x20 PUSH1 0x0 KECCAK256 SWAP1 PUSH1 0x9 MUL ADD PUSH1 0x3 PUSH1 0x0 DUP8 DUP2 MSTORE PUSH1 0x20 ADD SWAP1 DUP2 MSTORE PUSH1 0x20 ADD PUSH1 0x0 KECCAK256 PUSH1 0x0 SWAP1 SLOAD SWAP1 PUSH2 0x100 EXP SWAP1 DIV PUSH1 0xFF AND PUSH1 0x40 MLOAD PUSH2 0x9A0 SWAP3 SWAP2 SWAP1 PUSH2 0x1B27 JUMP JUMPDEST PUSH1 0x40 MLOAD DUP1 SWAP2 SUB SWAP1 LOG1 PUSH1 0x1 DUP5 DUP2 SLOAD DUP2 LT PUSH2 0x9BC JUMPI PUSH2 0x9BB PUSH2 0x18A7 JUMP JUMPDEST JUMPDEST SWAP1 PUSH1 0x0 MSTORE PUSH1 0x20 PUSH1 0x0 KECCAK256 SWAP1 PUSH1 0x9 MUL ADD PUSH1 0x3 PUSH1 0x0 DUP7 DUP2 MSTORE PUSH1 0x20 ADD SWAP1 DUP2 MSTORE PUSH1 0x20 ADD PUSH1 0x0 KECCAK256 PUSH1 0x0 SWAP1 SLOAD SWAP1 PUSH2 0x100 EXP SWAP1 DIV PUSH1 0xFF AND DUP2 PUSH1 0x40 MLOAD DUP1 PUSH2 0x120 ADD PUSH1 0x40 MSTORE SWAP1 DUP2 PUSH1 0x0 DUP3 ADD DUP1 SLOAD PUSH2 0xA08 SWAP1 PUSH2 0x1905 JUMP JUMPDEST DUP1 PUSH1 0x1F ADD PUSH1 0x20 DUP1 SWAP2 DIV MUL PUSH1 0x20 ADD PUSH1 0x40 MLOAD SWAP1 DUP2 ADD PUSH1 0x40 MSTORE DUP1 SWAP3 SWAP2 SWAP1 DUP2 DUP2 MSTORE PUSH1 0x20 ADD DUP3 DUP1 SLOAD PUSH2 0xA34 SWAP1 PUSH2 0x1905 JUMP JUMPDEST DUP1 ISZERO PUSH2 0xA81 JUMPI DUP1 PUSH1 0x1F LT PUSH2 0xA56 JUMPI PUSH2 0x100 DUP1 DUP4 SLOAD DIV MUL DUP4 MSTORE SWAP2 PUSH1 0x20 ADD SWAP2 PUSH2 0xA81 JUMP JUMPDEST DUP3 ADD SWAP2 SWAP1 PUSH1 0x0 MSTORE PUSH1 0x20 PUSH1 0x0 KECCAK256 SWAP1 JUMPDEST DUP2 SLOAD DUP2 MSTORE SWAP1 PUSH1 0x1 ADD SWAP1 PUSH1 0x20 ADD DUP1 DUP4 GT PUSH2 0xA64 JUMPI DUP3 SWAP1 SUB PUSH1 0x1F AND DUP3 ADD SWAP2 JUMPDEST POP POP POP POP POP DUP2 MSTORE PUSH1 0x20 ADD PUSH1 0x1 DUP3 ADD DUP1 SLOAD PUSH2 0xA9A SWAP1 PUSH2 0x1905 JUMP JUMPDEST DUP1 PUSH1 0x1F ADD PUSH1 0x20 DUP1 SWAP2 DIV MUL PUSH1 0x20 ADD PUSH1 0x40 MLOAD SWAP1 DUP2 ADD PUSH1 0x40 MSTORE DUP1 SWAP3 SWAP2 SWAP1 DUP2 DUP2 MSTORE PUSH1 0x20 ADD DUP3 DUP1 SLOAD PUSH2 0xAC6 SWAP1 PUSH2 0x1905 JUMP JUMPDEST DUP1 ISZERO PUSH2 0xB13 JUMPI DUP1 PUSH1 0x1F LT PUSH2 0xAE8 JUMPI PUSH2 0x100 DUP1 DUP4 SLOAD DIV MUL DUP4 MSTORE SWAP2 PUSH1 0x20 ADD SWAP2 PUSH2 0xB13 JUMP JUMPDEST DUP3 ADD SWAP2 SWAP1 PUSH1 0x0 MSTORE PUSH1 0x20 PUSH1 0x0 KECCAK256 SWAP1 JUMPDEST DUP2 SLOAD DUP2 MSTORE SWAP1 PUSH1 0x1 ADD SWAP1 PUSH1 0x20 ADD DUP1 DUP4 GT PUSH2 0xAF6 JUMPI DUP3 SWAP1 SUB PUSH1 0x1F AND DUP3 ADD SWAP2 JUMPDEST POP POP POP POP POP DUP2 MSTORE PUSH1 0x20 ADD PUSH1 0x2 DUP3 ADD DUP1 SLOAD PUSH2 0xB2C SWAP1 PUSH2 0x1905 JUMP JUMPDEST DUP1 PUSH1 0x1F ADD PUSH1 0x20 DUP1 SWAP2 DIV MUL PUSH1 0x20 ADD PUSH1 0x40 MLOAD SWAP1 DUP2 ADD PUSH1 0x40 MSTORE DUP1 SWAP3 SWAP2 SWAP1 DUP2 DUP2 MSTORE PUSH1 0x20 ADD DUP3 DUP1 SLOAD PUSH2 0xB58 SWAP1 PUSH2 0x1905 JUMP JUMPDEST DUP1 ISZERO PUSH2 0xBA5 JUMPI DUP1 PUSH1 0x1F LT PUSH2 0xB7A JUMPI PUSH2 0x100 DUP1 DUP4 SLOAD DIV MUL DUP4 MSTORE SWAP2 PUSH1 0x20 ADD SWAP2 PUSH2 0xBA5 JUMP JUMPDEST DUP3 ADD SWAP2 SWAP1 PUSH1 0x0 MSTORE PUSH1 0x20 PUSH1 0x0 KECCAK256 SWAP1 JUMPDEST DUP2 SLOAD DUP2 MSTORE SWAP1 PUSH1 0x1 ADD SWAP1 PUSH1 0x20 ADD DUP1 DUP4 GT PUSH2 0xB88 JUMPI DUP3 SWAP1 SUB PUSH1 0x1F AND DUP3 ADD SWAP2 JUMPDEST POP POP POP POP POP DUP2 MSTORE PUSH1 0x20 ADD PUSH1 0x3 DUP3 ADD DUP1 SLOAD PUSH2 0xBBE SWAP1 PUSH2 0x1905 JUMP JUMPDEST DUP1 PUSH1 0x1F ADD PUSH1 0x20 DUP1 SWAP2 DIV MUL PUSH1 0x20 ADD PUSH1 0x40 MLOAD SWAP1 DUP2 ADD PUSH1 0x40 MSTORE DUP1 SWAP3 SWAP2 SWAP1 DUP2 DUP2 MSTORE PUSH1 0x20 ADD DUP3 DUP1 SLOAD PUSH2 0xBEA SWAP1 PUSH2 0x1905 JUMP JUMPDEST DUP1 ISZERO PUSH2 0xC37 JUMPI DUP1 PUSH1 0x1F LT PUSH2 0xC0C JUMPI PUSH2 0x100 DUP1 DUP4 SLOAD DIV MUL DUP4 MSTORE SWAP2 PUSH1 0x20 ADD SWAP2 PUSH2 0xC37 JUMP JUMPDEST DUP3 ADD SWAP2 SWAP1 PUSH1 0x0 MSTORE PUSH1 0x20 PUSH1 0x0 KECCAK256 SWAP1 JUMPDEST DUP2 SLOAD DUP2 MSTORE SWAP1 PUSH1 0x1 ADD SWAP1 PUSH1 0x20 ADD DUP1 DUP4 GT PUSH2 0xC1A JUMPI DUP3 SWAP1 SUB PUSH1 0x1F AND DUP3 ADD SWAP2 JUMPDEST POP POP POP POP POP DUP2 MSTORE PUSH1 0x20 ADD PUSH1 0x4 DUP3 ADD DUP1 SLOAD PUSH2 0xC50 SWAP1 PUSH2 0x1905 JUMP JUMPDEST DUP1 PUSH1 0x1F ADD PUSH1 0x20 DUP1 SWAP2 DIV MUL PUSH1 0x20 ADD PUSH1 0x40 MLOAD SWAP1 DUP2 ADD PUSH1 0x40 MSTORE DUP1 SWAP3 SWAP2 SWAP1 DUP2 DUP2 MSTORE PUSH1 0x20 ADD DUP3 DUP1 SLOAD PUSH2 0xC7C SWAP1 PUSH2 0x1905 JUMP JUMPDEST DUP1 ISZERO PUSH2 0xCC9 JUMPI DUP1 PUSH1 0x1F LT PUSH2 0xC9E JUMPI PUSH2 0x100 DUP1 DUP4 SLOAD DIV MUL DUP4 MSTORE SWAP2 PUSH1 0x20 ADD SWAP2 PUSH2 0xCC9 JUMP JUMPDEST DUP3 ADD SWAP2 SWAP1 PUSH1 0x0 MSTORE PUSH1 0x20 PUSH1 0x0 KECCAK256 SWAP1 JUMPDEST DUP2 SLOAD DUP2 MSTORE SWAP1 PUSH1 0x1 ADD SWAP1 PUSH1 0x20 ADD DUP1 DUP4 GT PUSH2 0xCAC JUMPI DUP3 SWAP1 SUB PUSH1 0x1F AND DUP3 ADD SWAP2 JUMPDEST POP POP POP POP POP DUP2 MSTORE PUSH1 0x20 ADD PUSH1 0x5 DUP3 ADD DUP1 SLOAD PUSH2 0xCE2 SWAP1 PUSH2 0x1905 JUMP JUMPDEST DUP1 PUSH1 0x1F ADD PUSH1 0x20 DUP1 SWAP2 DIV MUL PUSH1 0x20 ADD PUSH1 0x40 MLOAD SWAP1 DUP2 ADD PUSH1 0x40 MSTORE DUP1 SWAP3 SWAP2 SWAP1 DUP2 DUP2 MSTORE PUSH1 0x20 ADD DUP3 DUP1 SLOAD PUSH2 0xD0E SWAP1 PUSH2 0x1905 JUMP JUMPDEST DUP1 ISZERO PUSH2 0xD5B JUMPI DUP1 PUSH1 0x1F LT PUSH2 0xD30 JUMPI PUSH2 0x100 DUP1 DUP4 SLOAD DIV MUL DUP4 MSTORE SWAP2 PUSH1 0x20 ADD SWAP2 PUSH2 0xD5B JUMP JUMPDEST DUP3 ADD SWAP2 SWAP1 PUSH1 0x0 MSTORE PUSH1 0x20 PUSH1 0x0 KECCAK256 SWAP1 JUMPDEST DUP2 SLOAD DUP2 MSTORE SWAP1 PUSH1 0x1 ADD SWAP1 PUSH1 0x20 ADD DUP1 DUP4 GT PUSH2 0xD3E JUMPI DUP3 SWAP1 SUB PUSH1 0x1F AND DUP3 ADD SWAP2 JUMPDEST POP POP POP POP POP DUP2 MSTORE PUSH1 0x20 ADD PUSH1 0x6 DUP3 ADD PUSH1 0x0 SWAP1 SLOAD SWAP1 PUSH2 0x100 EXP SWAP1 DIV PUSH1 0xFF AND PUSH1 0xFF AND PUSH1 0xFF AND DUP2 MSTORE PUSH1 0x20 ADD PUSH1 0x7 DUP3 ADD SLOAD DUP2 MSTORE PUSH1 0x20 ADD PUSH1 0x8 DUP3 ADD SLOAD DUP2 MSTORE POP POP SWAP2 POP SWAP3 POP SWAP3 POP POP SWAP2 POP SWAP2 JUMP JUMPDEST PUSH2 0xDA9 PUSH2 0xF43 JUMP JUMPDEST PUSH20 0xFFFFFFFFFFFFFFFFFFFFFFFFFFFFFFFFFFFFFFFF AND PUSH2 0xDC7 PUSH2 0x88F JUMP JUMPDEST PUSH20 0xFFFFFFFFFFFFFFFFFFFFFFFFFFFFFFFFFFFFFFFF AND EQ PUSH2 0xE1D JUMPI PUSH1 0x40 MLOAD PUSH32 0x8C379A000000000000000000000000000000000000000000000000000000000 DUP2 MSTORE PUSH1 0x4 ADD PUSH2 0xE14 SWAP1 PUSH2 0x1713 JUMP JUMPDEST PUSH1 0x40 MLOAD DUP1 SWAP2 SUB SWAP1 REVERT JUMPDEST PUSH1 0x0 PUSH20 0xFFFFFFFFFFFFFFFFFFFFFFFFFFFFFFFFFFFFFFFF AND DUP2 PUSH20 0xFFFFFFFFFFFFFFFFFFFFFFFFFFFFFFFFFFFFFFFF AND SUB PUSH2 0xE8C JUMPI PUSH1 0x40 MLOAD PUSH32 0x8C379A000000000000000000000000000000000000000000000000000000000 DUP2 MSTORE PUSH1 0x4 ADD PUSH2 0xE83 SWAP1 PUSH2 0x1BC9 JUMP JUMPDEST PUSH1 0x40 MLOAD DUP1 SWAP2 SUB SWAP1 REVERT JUMPDEST PUSH2 0xE95 DUP2 PUSH2 0xF4B JUMP JUMPDEST POP JUMP JUMPDEST DUP2 CALLER PUSH20 0xFFFFFFFFFFFFFFFFFFFFFFFFFFFFFFFFFFFFFFFF AND PUSH1 0x4 PUSH1 0x0 DUP4 DUP2 MSTORE PUSH1 0x20 ADD SWAP1 DUP2 MSTORE PUSH1 0x20 ADD PUSH1 0x0 KECCAK256 PUSH1 0x0 SWAP1 SLOAD SWAP1 PUSH2 0x100 EXP SWAP1 DIV PUSH20 0xFFFFFFFFFFFFFFFFFFFFFFFFFFFFFFFFFFFFFFFF AND PUSH20 0xFFFFFFFFFFFFFFFFFFFFFFFFFFFFFFFFFFFFFFFF AND EQ PUSH2 0xF04 JUMPI PUSH1 0x0 DUP1 REVERT JUMPDEST DUP2 PUSH1 0x1 DUP5 DUP2 SLOAD DUP2 LT PUSH2 0xF19 JUMPI PUSH2 0xF18 PUSH2 0x18A7 JUMP JUMPDEST JUMPDEST SWAP1 PUSH1 0x0 MSTORE PUSH1 0x20 PUSH1 0x0 KECCAK256 SWAP1 PUSH1 0x9 MUL ADD PUSH1 0x5 ADD SWAP1 DUP1 MLOAD SWAP1 PUSH1 0x20 ADD SWAP1 PUSH2 0xF3D SWAP3 SWAP2 SWAP1 PUSH2 0x105E JUMP JUMPDEST POP POP POP POP JUMP JUMPDEST PUSH1 0x0 CALLER SWAP1 POP SWAP1 JUMP JUMPDEST PUSH1 0x0 DUP1 PUSH1 0x0 SWAP1 SLOAD SWAP1 PUSH2 0x100 EXP SWAP1 DIV PUSH20 0xFFFFFFFFFFFFFFFFFFFFFFFFFFFFFFFFFFFFFFFF AND SWAP1 POP DUP2 PUSH1 0x0 DUP1 PUSH2 0x100 EXP DUP2 SLOAD DUP2 PUSH20 0xFFFFFFFFFFFFFFFFFFFFFFFFFFFFFFFFFFFFFFFF MUL NOT AND SWAP1 DUP4 PUSH20 0xFFFFFFFFFFFFFFFFFFFFFFFFFFFFFFFFFFFFFFFF AND MUL OR SWAP1 SSTORE POP DUP2 PUSH20 0xFFFFFFFFFFFFFFFFFFFFFFFFFFFFFFFFFFFFFFFF AND DUP2 PUSH20 0xFFFFFFFFFFFFFFFFFFFFFFFFFFFFFFFFFFFFFFFF AND PUSH32 0x8BE0079C531659141344CD1FD0A4F28419497F9722A3DAAFE3B4186F6B6457E0 PUSH1 0x40 MLOAD PUSH1 0x40 MLOAD DUP1 SWAP2 SUB SWAP1 LOG3 POP POP JUMP JUMPDEST PUSH1 0x40 MLOAD DUP1 PUSH2 0x120 ADD PUSH1 0x40 MSTORE DUP1 PUSH1 0x60 DUP2 MSTORE PUSH1 0x20 ADD PUSH1 0x60 DUP2 MSTORE PUSH1 0x20 ADD PUSH1 0x60 DUP2 MSTORE PUSH1 0x20 ADD PUSH1 0x60 DUP2 MSTORE PUSH1 0x20 ADD PUSH1 0x60 DUP2 MSTORE PUSH1 0x20 ADD PUSH1 0x60 DUP2 MSTORE PUSH1 0x20 ADD PUSH1 0x0 PUSH1 0xFF AND DUP2 MSTORE PUSH1 0x20 ADD PUSH1 0x0 DUP2 MSTORE PUSH1 0x20 ADD PUSH1 0x0 DUP2 MSTORE POP SWAP1 JUMP JUMPDEST DUP3 DUP1 SLOAD PUSH2 0x106A SWAP1 PUSH2 0x1905 JUMP JUMPDEST SWAP1 PUSH1 0x0 MSTORE PUSH1 0x20 PUSH1 0x0 KECCAK256 SWAP1 PUSH1 0x1F ADD PUSH1 0x20 SWAP1 DIV DUP2 ADD SWAP3 DUP3 PUSH2 0x108C JUMPI PUSH1 0x0 DUP6 SSTORE PUSH2 0x10D3 JUMP JUMPDEST DUP3 PUSH1 0x1F LT PUSH2 0x10A5 JUMPI DUP1 MLOAD PUSH1 0xFF NOT AND DUP4 DUP1 ADD OR DUP6 SSTORE PUSH2 0x10D3 JUMP JUMPDEST DUP3 DUP1 ADD PUSH1 0x1 ADD DUP6 SSTORE DUP3 ISZERO PUSH2 0x10D3 JUMPI SWAP2 DUP3 ADD JUMPDEST DUP3 DUP2 GT ISZERO PUSH2 0x10D2 JUMPI DUP3 MLOAD DUP3 SSTORE SWAP2 PUSH1 0x20 ADD SWAP2 SWAP1 PUSH1 0x1 ADD SWAP1 PUSH2 0x10B7 JUMP JUMPDEST JUMPDEST POP SWAP1 POP PUSH2 0x10E0 SWAP2 SWAP1 PUSH2 0x10E4 JUMP JUMPDEST POP SWAP1 JUMP JUMPDEST JUMPDEST DUP1 DUP3 GT ISZERO PUSH2 0x10FD JUMPI PUSH1 0x0 DUP2 PUSH1 0x0 SWAP1 SSTORE POP PUSH1 0x1 ADD PUSH2 0x10E5 JUMP JUMPDEST POP SWAP1 JUMP JUMPDEST PUSH1 0x0 PUSH1 0x40 MLOAD SWAP1 POP SWAP1 JUMP JUMPDEST PUSH1 0x0 DUP1 REVERT JUMPDEST PUSH1 0x0 DUP1 REVERT JUMPDEST PUSH1 0x0 DUP2 SWAP1 POP SWAP2 SWAP1 POP JUMP JUMPDEST PUSH2 0x1128 DUP2 PUSH2 0x1115 JUMP JUMPDEST DUP2 EQ PUSH2 0x1133 JUMPI PUSH1 0x0 DUP1 REVERT JUMPDEST POP JUMP JUMPDEST PUSH1 0x0 DUP2 CALLDATALOAD SWAP1 POP PUSH2 0x1145 DUP2 PUSH2 0x111F JUMP JUMPDEST SWAP3 SWAP2 POP POP JUMP JUMPDEST PUSH1 0x0 DUP2 ISZERO ISZERO SWAP1 POP SWAP2 SWAP1 POP JUMP JUMPDEST PUSH2 0x1160 DUP2 PUSH2 0x114B JUMP JUMPDEST DUP2 EQ PUSH2 0x116B JUMPI PUSH1 0x0 DUP1 REVERT JUMPDEST POP JUMP JUMPDEST PUSH1 0x0 DUP2 CALLDATALOAD SWAP1 POP PUSH2 0x117D DUP2 PUSH2 0x1157 JUMP JUMPDEST SWAP3 SWAP2 POP POP JUMP JUMPDEST PUSH1 0x0 DUP1 PUSH1 0x40 DUP4 DUP6 SUB SLT ISZERO PUSH2 0x119A JUMPI PUSH2 0x1199 PUSH2 0x110B JUMP JUMPDEST JUMPDEST PUSH1 0x0 PUSH2 0x11A8 DUP6 DUP3 DUP7 ADD PUSH2 0x1136 JUMP JUMPDEST SWAP3 POP POP PUSH1 0x20 PUSH2 0x11B9 DUP6 DUP3 DUP7 ADD PUSH2 0x116E JUMP JUMPDEST SWAP2 POP POP SWAP3 POP SWAP3 SWAP1 POP JUMP JUMPDEST PUSH1 0x0 PUSH1 0x20 DUP3 DUP5 SUB SLT ISZERO PUSH2 0x11D9 JUMPI PUSH2 0x11D8 PUSH2 0x110B JUMP JUMPDEST JUMPDEST PUSH1 0x0 PUSH2 0x11E7 DUP5 DUP3 DUP6 ADD PUSH2 0x1136 JUMP JUMPDEST SWAP2 POP POP SWAP3 SWAP2 POP POP JUMP JUMPDEST PUSH1 0x0 PUSH20 0xFFFFFFFFFFFFFFFFFFFFFFFFFFFFFFFFFFFFFFFF DUP3 AND SWAP1 POP SWAP2 SWAP1 POP JUMP JUMPDEST PUSH1 0x0 PUSH2 0x121B DUP3 PUSH2 0x11F0 JUMP JUMPDEST SWAP1 POP SWAP2 SWAP1 POP JUMP JUMPDEST PUSH2 0x122B DUP2 PUSH2 0x1210 JUMP JUMPDEST DUP3 MSTORE POP POP JUMP JUMPDEST PUSH1 0x0 PUSH1 0x20 DUP3 ADD SWAP1 POP PUSH2 0x1246 PUSH1 0x0 DUP4 ADD DUP5 PUSH2 0x1222 JUMP JUMPDEST SWAP3 SWAP2 POP POP JUMP JUMPDEST PUSH2 0x1255 DUP2 PUSH2 0x114B JUMP JUMPDEST DUP3 MSTORE POP POP JUMP JUMPDEST PUSH1 0x0 PUSH1 0x20 DUP3 ADD SWAP1 POP PUSH2 0x1270 PUSH1 0x0 DUP4 ADD DUP5 PUSH2 0x124C JUMP JUMPDEST SWAP3 SWAP2 POP POP JUMP JUMPDEST PUSH1 0x0 DUP1 REVERT JUMPDEST PUSH1 0x0 DUP1 REVERT JUMPDEST PUSH1 0x0 PUSH1 0x1F NOT PUSH1 0x1F DUP4 ADD AND SWAP1 POP SWAP2 SWAP1 POP JUMP JUMPDEST PUSH32 0x4E487B7100000000000000000000000000000000000000000000000000000000 PUSH1 0x0 MSTORE PUSH1 0x41 PUSH1 0x4 MSTORE PUSH1 0x24 PUSH1 0x0 REVERT JUMPDEST PUSH2 0x12C9 DUP3 PUSH2 0x1280 JUMP JUMPDEST DUP2 ADD DUP2 DUP2 LT PUSH8 0xFFFFFFFFFFFFFFFF DUP3 GT OR ISZERO PUSH2 0x12E8 JUMPI PUSH2 0x12E7 PUSH2 0x1291 JUMP JUMPDEST JUMPDEST DUP1 PUSH1 0x40 MSTORE POP POP POP JUMP JUMPDEST PUSH1 0x0 PUSH2 0x12FB PUSH2 0x1101 JUMP JUMPDEST SWAP1 POP PUSH2 0x1307 DUP3 DUP3 PUSH2 0x12C0 JUMP JUMPDEST SWAP2 SWAP1 POP JUMP JUMPDEST PUSH1 0x0 PUSH8 0xFFFFFFFFFFFFFFFF DUP3 GT ISZERO PUSH2 0x1327 JUMPI PUSH2 0x1326 PUSH2 0x1291 JUMP JUMPDEST JUMPDEST PUSH2 0x1330 DUP3 PUSH2 0x1280 JUMP JUMPDEST SWAP1 POP PUSH1 0x20 DUP2 ADD SWAP1 POP SWAP2 SWAP1 POP JUMP JUMPDEST DUP3 DUP2 DUP4 CALLDATACOPY PUSH1 0x0 DUP4 DUP4 ADD MSTORE POP POP POP JUMP JUMPDEST PUSH1 0x0 PUSH2 0x135F PUSH2 0x135A DUP5 PUSH2 0x130C JUMP JUMPDEST PUSH2 0x12F1 JUMP JUMPDEST SWAP1 POP DUP3 DUP2 MSTORE PUSH1 0x20 DUP2 ADD DUP5 DUP5 DUP5 ADD GT ISZERO PUSH2 0x137B JUMPI PUSH2 0x137A PUSH2 0x127B JUMP JUMPDEST JUMPDEST PUSH2 0x1386 DUP5 DUP3 DUP6 PUSH2 0x133D JUMP JUMPDEST POP SWAP4 SWAP3 POP POP POP JUMP JUMPDEST PUSH1 0x0 DUP3 PUSH1 0x1F DUP4 ADD SLT PUSH2 0x13A3 JUMPI PUSH2 0x13A2 PUSH2 0x1276 JUMP JUMPDEST JUMPDEST DUP2 CALLDATALOAD PUSH2 0x13B3 DUP5 DUP3 PUSH1 0x20 DUP7 ADD PUSH2 0x134C JUMP JUMPDEST SWAP2 POP POP SWAP3 SWAP2 POP POP JUMP JUMPDEST PUSH1 0x0 PUSH1 0x20 DUP3 DUP5 SUB SLT ISZERO PUSH2 0x13D2 JUMPI PUSH2 0x13D1 PUSH2 0x110B JUMP JUMPDEST JUMPDEST PUSH1 0x0 DUP3 ADD CALLDATALOAD PUSH8 0xFFFFFFFFFFFFFFFF DUP2 GT ISZERO PUSH2 0x13F0 JUMPI PUSH2 0x13EF PUSH2 0x1110 JUMP JUMPDEST JUMPDEST PUSH2 0x13FC DUP5 DUP3 DUP6 ADD PUSH2 0x138E JUMP JUMPDEST SWAP2 POP POP SWAP3 SWAP2 POP POP JUMP JUMPDEST PUSH1 0x0 DUP2 MLOAD SWAP1 POP SWAP2 SWAP1 POP JUMP JUMPDEST PUSH1 0x0 DUP3 DUP3 MSTORE PUSH1 0x20 DUP3 ADD SWAP1 POP SWAP3 SWAP2 POP POP JUMP JUMPDEST PUSH1 0x0 JUMPDEST DUP4 DUP2 LT ISZERO PUSH2 0x143F JUMPI DUP1 DUP3 ADD MLOAD DUP2 DUP5 ADD MSTORE PUSH1 0x20 DUP2 ADD SWAP1 POP PUSH2 0x1424 JUMP JUMPDEST DUP4 DUP2 GT ISZERO PUSH2 0x144E JUMPI PUSH1 0x0 DUP5 DUP5 ADD MSTORE JUMPDEST POP POP POP POP JUMP JUMPDEST PUSH1 0x0 PUSH2 0x145F DUP3 PUSH2 0x1405 JUMP JUMPDEST PUSH2 0x1469 DUP2 DUP6 PUSH2 0x1410 JUMP JUMPDEST SWAP4 POP PUSH2 0x1479 DUP2 DUP6 PUSH1 0x20 DUP7 ADD PUSH2 0x1421 JUMP JUMPDEST PUSH2 0x1482 DUP2 PUSH2 0x1280 JUMP JUMPDEST DUP5 ADD SWAP2 POP POP SWAP3 SWAP2 POP POP JUMP JUMPDEST PUSH1 0x0 PUSH1 0xFF DUP3 AND SWAP1 POP SWAP2 SWAP1 POP JUMP JUMPDEST PUSH2 0x14A3 DUP2 PUSH2 0x148D JUMP JUMPDEST DUP3 MSTORE POP POP JUMP JUMPDEST PUSH2 0x14B2 DUP2 PUSH2 0x1115 JUMP JUMPDEST DUP3 MSTORE POP POP JUMP JUMPDEST PUSH1 0x0 PUSH2 0x120 DUP4 ADD PUSH1 0x0 DUP4 ADD MLOAD DUP5 DUP3 SUB PUSH1 0x0 DUP7 ADD MSTORE PUSH2 0x14D6 DUP3 DUP3 PUSH2 0x1454 JUMP JUMPDEST SWAP2 POP POP PUSH1 0x20 DUP4 ADD MLOAD DUP5 DUP3 SUB PUSH1 0x20 DUP7 ADD MSTORE PUSH2 0x14F0 DUP3 DUP3 PUSH2 0x1454 JUMP JUMPDEST SWAP2 POP POP PUSH1 0x40 DUP4 ADD MLOAD DUP5 DUP3 SUB PUSH1 0x40 DUP7 ADD MSTORE PUSH2 0x150A DUP3 DUP3 PUSH2 0x1454 JUMP JUMPDEST SWAP2 POP POP PUSH1 0x60 DUP4 ADD MLOAD DUP5 DUP3 SUB PUSH1 0x60 DUP7 ADD MSTORE PUSH2 0x1524 DUP3 DUP3 PUSH2 0x1454 JUMP JUMPDEST SWAP2 POP POP PUSH1 0x80 DUP4 ADD MLOAD DUP5 DUP3 SUB PUSH1 0x80 DUP7 ADD MSTORE PUSH2 0x153E DUP3 DUP3 PUSH2 0x1454 JUMP JUMPDEST SWAP2 POP POP PUSH1 0xA0 DUP4 ADD MLOAD DUP5 DUP3 SUB PUSH1 0xA0 DUP7 ADD MSTORE PUSH2 0x1558 DUP3 DUP3 PUSH2 0x1454 JUMP JUMPDEST SWAP2 POP POP PUSH1 0xC0 DUP4 ADD MLOAD PUSH2 0x156D PUSH1 0xC0 DUP7 ADD DUP3 PUSH2 0x149A JUMP JUMPDEST POP PUSH1 0xE0 DUP4 ADD MLOAD PUSH2 0x1580 PUSH1 0xE0 DUP7 ADD DUP3 PUSH2 0x14A9 JUMP JUMPDEST POP PUSH2 0x100 DUP4 ADD MLOAD PUSH2 0x1595 PUSH2 0x100 DUP7 ADD DUP3 PUSH2 0x14A9 JUMP JUMPDEST POP DUP1 SWAP2 POP POP SWAP3 SWAP2 POP POP JUMP JUMPDEST PUSH1 0x0 PUSH1 0x20 DUP3 ADD SWAP1 POP DUP2 DUP2 SUB PUSH1 0x0 DUP4 ADD MSTORE PUSH2 0x15BA DUP2 DUP5 PUSH2 0x14B8 JUMP JUMPDEST SWAP1 POP SWAP3 SWAP2 POP POP JUMP JUMPDEST PUSH2 0x15CB DUP2 PUSH2 0x148D JUMP JUMPDEST DUP3 MSTORE POP POP JUMP JUMPDEST PUSH1 0x0 PUSH1 0x40 DUP3 ADD SWAP1 POP DUP2 DUP2 SUB PUSH1 0x0 DUP4 ADD MSTORE PUSH2 0x15EB DUP2 DUP6 PUSH2 0x14B8 JUMP JUMPDEST SWAP1 POP PUSH2 0x15FA PUSH1 0x20 DUP4 ADD DUP5 PUSH2 0x15C2 JUMP JUMPDEST SWAP4 SWAP3 POP POP POP JUMP JUMPDEST PUSH2 0x160A DUP2 PUSH2 0x1210 JUMP JUMPDEST DUP2 EQ PUSH2 0x1615 JUMPI PUSH1 0x0 DUP1 REVERT JUMPDEST POP JUMP JUMPDEST PUSH1 0x0 DUP2 CALLDATALOAD SWAP1 POP PUSH2 0x1627 DUP2 PUSH2 0x1601 JUMP JUMPDEST SWAP3 SWAP2 POP POP JUMP JUMPDEST PUSH1 0x0 PUSH1 0x20 DUP3 DUP5 SUB SLT ISZERO PUSH2 0x1643 JUMPI PUSH2 0x1642 PUSH2 0x110B JUMP JUMPDEST JUMPDEST PUSH1 0x0 PUSH2 0x1651 DUP5 DUP3 DUP6 ADD PUSH2 0x1618 JUMP JUMPDEST SWAP2 POP POP SWAP3 SWAP2 POP POP JUMP JUMPDEST PUSH1 0x0 DUP1 PUSH1 0x40 DUP4 DUP6 SUB SLT ISZERO PUSH2 0x1671 JUMPI PUSH2 0x1670 PUSH2 0x110B JUMP JUMPDEST JUMPDEST PUSH1 0x0 PUSH2 0x167F DUP6 DUP3 DUP7 ADD PUSH2 0x1136 JUMP JUMPDEST SWAP3 POP POP PUSH1 0x20 DUP4 ADD CALLDATALOAD PUSH8 0xFFFFFFFFFFFFFFFF DUP2 GT ISZERO PUSH2 0x16A0 JUMPI PUSH2 0x169F PUSH2 0x1110 JUMP JUMPDEST JUMPDEST PUSH2 0x16AC DUP6 DUP3 DUP7 ADD PUSH2 0x138E JUMP JUMPDEST SWAP2 POP POP SWAP3 POP SWAP3 SWAP1 POP JUMP JUMPDEST PUSH1 0x0 DUP3 DUP3 MSTORE PUSH1 0x20 DUP3 ADD SWAP1 POP SWAP3 SWAP2 POP POP JUMP JUMPDEST PUSH32 0x4F776E61626C653A2063616C6C6572206973206E6F7420746865206F776E6572 PUSH1 0x0 DUP3 ADD MSTORE POP JUMP JUMPDEST PUSH1 0x0 PUSH2 0x16FD PUSH1 0x20 DUP4 PUSH2 0x16B6 JUMP JUMPDEST SWAP2 POP PUSH2 0x1708 DUP3 PUSH2 0x16C7 JUMP JUMPDEST PUSH1 0x20 DUP3 ADD SWAP1 POP SWAP2 SWAP1 POP JUMP JUMPDEST PUSH1 0x0 PUSH1 0x20 DUP3 ADD SWAP1 POP DUP2 DUP2 SUB PUSH1 0x0 DUP4 ADD MSTORE PUSH2 0x172C DUP2 PUSH2 0x16F0 JUMP JUMPDEST SWAP1 POP SWAP2 SWAP1 POP JUMP JUMPDEST PUSH32 0x4E487B7100000000000000000000000000000000000000000000000000000000 PUSH1 0x0 MSTORE PUSH1 0x11 PUSH1 0x4 MSTORE PUSH1 0x24 PUSH1 0x0 REVERT JUMPDEST PUSH1 0x0 PUSH2 0x176D DUP3 PUSH2 0x1115 JUMP JUMPDEST SWAP2 POP PUSH2 0x1778 DUP4 PUSH2 0x1115 JUMP JUMPDEST SWAP3 POP DUP3 PUSH32 0xFFFFFFFFFFFFFFFFFFFFFFFFFFFFFFFFFFFFFFFFFFFFFFFFFFFFFFFFFFFFFFFF SUB DUP3 GT ISZERO PUSH2 0x17AD JUMPI PUSH2 0x17AC PUSH2 0x1733 JUMP JUMPDEST JUMPDEST DUP3 DUP3 ADD SWAP1 POP SWAP3 SWAP2 POP POP JUMP JUMPDEST PUSH1 0x0 DUP2 SWAP1 POP SWAP3 SWAP2 POP POP JUMP JUMPDEST PUSH1 0x0 PUSH2 0x17CE DUP3 PUSH2 0x1405 JUMP JUMPDEST PUSH2 0x17D8 DUP2 DUP6 PUSH2 0x17B8 JUMP JUMPDEST SWAP4 POP PUSH2 0x17E8 DUP2 DUP6 PUSH1 0x20 DUP7 ADD PUSH2 0x1421 JUMP JUMPDEST DUP1 DUP5 ADD SWAP2 POP POP SWAP3 SWAP2 POP POP JUMP JUMPDEST PUSH1 0x0 DUP2 SWAP1 POP SWAP2 SWAP1 POP JUMP JUMPDEST PUSH1 0x0 DUP2 SWAP1 POP SWAP2 SWAP1 POP JUMP JUMPDEST PUSH2 0x1819 PUSH2 0x1814 DUP3 PUSH2 0x17F4 JUMP JUMPDEST PUSH2 0x17FE JUMP JUMPDEST DUP3 MSTORE POP POP JUMP JUMPDEST PUSH1 0x0 PUSH2 0x182B DUP3 DUP6 PUSH2 0x17C3 JUMP JUMPDEST SWAP2 POP PUSH2 0x1837 DUP3 DUP5 PUSH2 0x1808 JUMP JUMPDEST PUSH1 0x20 DUP3 ADD SWAP2 POP DUP2 SWAP1 POP SWAP4 SWAP3 POP POP POP JUMP JUMPDEST PUSH32 0x4E487B7100000000000000000000000000000000000000000000000000000000 PUSH1 0x0 MSTORE PUSH1 0x12 PUSH1 0x4 MSTORE PUSH1 0x24 PUSH1 0x0 REVERT JUMPDEST PUSH1 0x0 PUSH2 0x1881 DUP3 PUSH2 0x1115 JUMP JUMPDEST SWAP2 POP PUSH2 0x188C DUP4 PUSH2 0x1115 JUMP JUMPDEST SWAP3 POP DUP3 PUSH2 0x189C JUMPI PUSH2 0x189B PUSH2 0x1847 JUMP JUMPDEST JUMPDEST DUP3 DUP3 MOD SWAP1 POP SWAP3 SWAP2 POP POP JUMP JUMPDEST PUSH32 0x4E487B7100000000000000000000000000000000000000000000000000000000 PUSH1 0x0 MSTORE PUSH1 0x32 PUSH1 0x4 MSTORE PUSH1 0x24 PUSH1 0x0 REVERT JUMPDEST PUSH32 0x4E487B7100000000000000000000000000000000000000000000000000000000 PUSH1 0x0 MSTORE PUSH1 0x22 PUSH1 0x4 MSTORE PUSH1 0x24 PUSH1 0x0 REVERT JUMPDEST PUSH1 0x0 PUSH1 0x2 DUP3 DIV SWAP1 POP PUSH1 0x1 DUP3 AND DUP1 PUSH2 0x191D JUMPI PUSH1 0x7F DUP3 AND SWAP2 POP JUMPDEST PUSH1 0x20 DUP3 LT DUP2 SUB PUSH2 0x1930 JUMPI PUSH2 0x192F PUSH2 0x18D6 JUMP JUMPDEST JUMPDEST POP SWAP2 SWAP1 POP JUMP JUMPDEST PUSH1 0x0 DUP2 SWAP1 POP DUP2 PUSH1 0x0 MSTORE PUSH1 0x20 PUSH1 0x0 KECCAK256 SWAP1 POP SWAP2 SWAP1 POP JUMP JUMPDEST PUSH1 0x0 DUP2 SLOAD PUSH2 0x1958 DUP2 PUSH2 0x1905 JUMP JUMPDEST PUSH2 0x1962 DUP2 DUP7 PUSH2 0x1410 JUMP JUMPDEST SWAP5 POP PUSH1 0x1 DUP3 AND PUSH1 0x0 DUP2 EQ PUSH2 0x197D JUMPI PUSH1 0x1 DUP2 EQ PUSH2 0x198F JUMPI PUSH2 0x19C2 JUMP JUMPDEST PUSH1 0xFF NOT DUP4 AND DUP7 MSTORE PUSH1 0x20 DUP7 ADD SWAP4 POP PUSH2 0x19C2 JUMP JUMPDEST PUSH2 0x1998 DUP6 PUSH2 0x1936 JUMP JUMPDEST PUSH1 0x0 JUMPDEST DUP4 DUP2 LT ISZERO PUSH2 0x19BA JUMPI DUP2 SLOAD DUP2 DUP10 ADD MSTORE PUSH1 0x1 DUP3 ADD SWAP2 POP PUSH1 0x20 DUP2 ADD SWAP1 POP PUSH2 0x199B JUMP JUMPDEST DUP1 DUP9 ADD SWAP6 POP POP POP JUMPDEST POP POP POP SWAP3 SWAP2 POP POP JUMP JUMPDEST PUSH1 0x0 DUP2 PUSH1 0x0 SHR SWAP1 POP SWAP2 SWAP1 POP JUMP JUMPDEST PUSH1 0x0 PUSH1 0xFF DUP3 AND SWAP1 POP SWAP2 SWAP1 POP JUMP JUMPDEST PUSH1 0x0 PUSH2 0x19F8 PUSH2 0x19F3 DUP4 PUSH2 0x19CB JUMP JUMPDEST PUSH2 0x19D8 JUMP JUMPDEST SWAP1 POP SWAP2 SWAP1 POP JUMP JUMPDEST PUSH1 0x0 DUP2 SWAP1 POP SWAP2 SWAP1 POP JUMP JUMPDEST PUSH1 0x0 PUSH2 0x1A1C PUSH2 0x1A17 DUP4 PUSH2 0x19CB JUMP JUMPDEST PUSH2 0x19FF JUMP JUMPDEST SWAP1 POP SWAP2 SWAP1 POP JUMP JUMPDEST PUSH1 0x0 PUSH2 0x120 DUP4 ADD PUSH1 0x0 DUP1 DUP5 ADD DUP6 DUP4 SUB PUSH1 0x0 DUP8 ADD MSTORE PUSH2 0x1A41 DUP4 DUP3 PUSH2 0x194B JUMP JUMPDEST SWAP3 POP POP PUSH1 0x1 DUP5 ADD DUP6 DUP4 SUB PUSH1 0x20 DUP8 ADD MSTORE PUSH2 0x1A5A DUP4 DUP3 PUSH2 0x194B JUMP JUMPDEST SWAP3 POP POP PUSH1 0x2 DUP5 ADD DUP6 DUP4 SUB PUSH1 0x40 DUP8 ADD MSTORE PUSH2 0x1A73 DUP4 DUP3 PUSH2 0x194B JUMP JUMPDEST SWAP3 POP POP PUSH1 0x3 DUP5 ADD DUP6 DUP4 SUB PUSH1 0x60 DUP8 ADD MSTORE PUSH2 0x1A8C DUP4 DUP3 PUSH2 0x194B JUMP JUMPDEST SWAP3 POP POP PUSH1 0x4 DUP5 ADD DUP6 DUP4 SUB PUSH1 0x80 DUP8 ADD MSTORE PUSH2 0x1AA5 DUP4 DUP3 PUSH2 0x194B JUMP JUMPDEST SWAP3 POP POP PUSH1 0x5 DUP5 ADD DUP6 DUP4 SUB PUSH1 0xA0 DUP8 ADD MSTORE PUSH2 0x1ABE DUP4 DUP3 PUSH2 0x194B JUMP JUMPDEST SWAP3 POP POP PUSH1 0x6 DUP5 ADD SLOAD SWAP1 POP PUSH2 0x1AD1 DUP2 PUSH2 0x19E5 JUMP JUMPDEST PUSH2 0x1ADE PUSH1 0xC0 DUP8 ADD DUP3 PUSH2 0x149A JUMP JUMPDEST POP PUSH1 0x7 DUP5 ADD SLOAD SWAP1 POP PUSH2 0x1AEF DUP2 PUSH2 0x1A09 JUMP JUMPDEST PUSH2 0x1AFC PUSH1 0xE0 DUP8 ADD DUP3 PUSH2 0x14A9 JUMP JUMPDEST POP PUSH1 0x8 DUP5 ADD SLOAD SWAP1 POP PUSH2 0x1B0D DUP2 PUSH2 0x1A09 JUMP JUMPDEST PUSH2 0x1B1B PUSH2 0x100 DUP8 ADD DUP3 PUSH2 0x14A9 JUMP JUMPDEST POP DUP2 SWAP3 POP POP POP SWAP3 SWAP2 POP POP JUMP JUMPDEST PUSH1 0x0 PUSH1 0x40 DUP3 ADD SWAP1 POP DUP2 DUP2 SUB PUSH1 0x0 DUP4 ADD MSTORE PUSH2 0x1B41 DUP2 DUP6 PUSH2 0x1A23 JUMP JUMPDEST SWAP1 POP PUSH2 0x1B50 PUSH1 0x20 DUP4 ADD DUP5 PUSH2 0x15C2 JUMP JUMPDEST SWAP4 SWAP3 POP POP POP JUMP JUMPDEST PUSH32 0x4F776E61626C653A206E6577206F776E657220697320746865207A65726F2061 PUSH1 0x0 DUP3 ADD MSTORE PUSH32 0x6464726573730000000000000000000000000000000000000000000000000000 PUSH1 0x20 DUP3 ADD MSTORE POP JUMP JUMPDEST PUSH1 0x0 PUSH2 0x1BB3 PUSH1 0x26 DUP4 PUSH2 0x16B6 JUMP JUMPDEST SWAP2 POP PUSH2 0x1BBE DUP3 PUSH2 0x1B57 JUMP JUMPDEST PUSH1 0x40 DUP3 ADD SWAP1 POP SWAP2 SWAP1 POP JUMP JUMPDEST PUSH1 0x0 PUSH1 0x20 DUP3 ADD SWAP1 POP DUP2 DUP2 SUB PUSH1 0x0 DUP4 ADD MSTORE PUSH2 0x1BE2 DUP2 PUSH2 0x1BA6 JUMP JUMPDEST SWAP1 POP SWAP2 SWAP1 POP JUMP INVALID LOG2 PUSH5 0x6970667358 0x22 SLT KECCAK256 TIMESTAMP 0xD5 PUSH30 0xFAC8DD1554723135253E35780B47C9CCBA16D160EE3CD1771AD473629F64 PUSH20 0x6F6C634300080E00330000000000000000000000 "
				},
				"gasEstimates": {
					"creation": {
						"codeDepositCost": "1439800",
						"executionCost": "infinite",
						"totalCost": "infinite"
					},
					"external": {
						"changeQuizStatus(uint256,bool)": "27171",
						"getRandomQuiz(string)": "infinite",
						"owner()": "2544",
						"quizIsActive(uint256)": "2863",
						"quizOwner(uint256)": "2884",
						"quizOwnerChangeHint(uint256,string)": "infinite",
						"quizOwnerChangeStatus(uint256,bool)": "27206",
						"quizOwnerGetQuiz(uint256)": "infinite",
						"renounceOwnership()": "30463",
						"transferOwnership(address)": "30786"
					}
				},
				"methodIdentifiers": {
					"changeQuizStatus(uint256,bool)": "1d3f7559",
					"getRandomQuiz(string)": "728b0d87",
					"owner()": "8da5cb5b",
					"quizIsActive(uint256)": "51a1d40e",
					"quizOwner(uint256)": "400ae0f9",
					"quizOwnerChangeHint(uint256,string)": "fbb3b6ce",
					"quizOwnerChangeStatus(uint256,bool)": "377def85",
					"quizOwnerGetQuiz(uint256)": "b9360cf1",
					"renounceOwnership()": "715018a6",
					"transferOwnership(address)": "f2fde38b"
				}
			},
			"storageLayout": {
				"storage": [
					{
						"astId": 243,
						"contract": "contracts/ViewQuiz.sol:ViewQuiz",
						"label": "_owner",
						"offset": 0,
						"slot": "0",
						"type": "t_address"
					},
					{
						"astId": 85,
						"contract": "contracts/ViewQuiz.sol:ViewQuiz",
						"label": "quizzes",
						"offset": 0,
						"slot": "1",
						"type": "t_array(t_struct(Quiz)81_storage)dyn_storage"
					},
					{
						"astId": 89,
						"contract": "contracts/ViewQuiz.sol:ViewQuiz",
						"label": "quizIsActive",
						"offset": 0,
						"slot": "2",
						"type": "t_mapping(t_uint256,t_bool)"
					},
					{
						"astId": 93,
						"contract": "contracts/ViewQuiz.sol:ViewQuiz",
						"label": "quizAnswer",
						"offset": 0,
						"slot": "3",
						"type": "t_mapping(t_uint256,t_uint8)"
					},
					{
						"astId": 97,
						"contract": "contracts/ViewQuiz.sol:ViewQuiz",
						"label": "quizOwner",
						"offset": 0,
						"slot": "4",
						"type": "t_mapping(t_uint256,t_address)"
					}
				],
				"types": {
					"t_address": {
						"encoding": "inplace",
						"label": "address",
						"numberOfBytes": "20"
					},
					"t_array(t_struct(Quiz)81_storage)dyn_storage": {
						"base": "t_struct(Quiz)81_storage",
						"encoding": "dynamic_array",
						"label": "struct CreateQuiz.Quiz[]",
						"numberOfBytes": "32"
					},
					"t_bool": {
						"encoding": "inplace",
						"label": "bool",
						"numberOfBytes": "1"
					},
					"t_mapping(t_uint256,t_address)": {
						"encoding": "mapping",
						"key": "t_uint256",
						"label": "mapping(uint256 => address)",
						"numberOfBytes": "32",
						"value": "t_address"
					},
					"t_mapping(t_uint256,t_bool)": {
						"encoding": "mapping",
						"key": "t_uint256",
						"label": "mapping(uint256 => bool)",
						"numberOfBytes": "32",
						"value": "t_bool"
					},
					"t_mapping(t_uint256,t_uint8)": {
						"encoding": "mapping",
						"key": "t_uint256",
						"label": "mapping(uint256 => uint8)",
						"numberOfBytes": "32",
						"value": "t_uint8"
					},
					"t_string_storage": {
						"encoding": "bytes",
						"label": "string",
						"numberOfBytes": "32"
					},
					"t_struct(Quiz)81_storage": {
						"encoding": "inplace",
						"label": "struct CreateQuiz.Quiz",
						"members": [
							{
								"astId": 64,
								"contract": "contracts/ViewQuiz.sol:ViewQuiz",
								"label": "question",
								"offset": 0,
								"slot": "0",
								"type": "t_string_storage"
							},
							{
								"astId": 66,
								"contract": "contracts/ViewQuiz.sol:ViewQuiz",
								"label": "choice1",
								"offset": 0,
								"slot": "1",
								"type": "t_string_storage"
							},
							{
								"astId": 68,
								"contract": "contracts/ViewQuiz.sol:ViewQuiz",
								"label": "choice2",
								"offset": 0,
								"slot": "2",
								"type": "t_string_storage"
							},
							{
								"astId": 70,
								"contract": "contracts/ViewQuiz.sol:ViewQuiz",
								"label": "choice3",
								"offset": 0,
								"slot": "3",
								"type": "t_string_storage"
							},
							{
								"astId": 72,
								"contract": "contracts/ViewQuiz.sol:ViewQuiz",
								"label": "choice4",
								"offset": 0,
								"slot": "4",
								"type": "t_string_storage"
							},
							{
								"astId": 74,
								"contract": "contracts/ViewQuiz.sol:ViewQuiz",
								"label": "hint",
								"offset": 0,
								"slot": "5",
								"type": "t_string_storage"
							},
							{
								"astId": 76,
								"contract": "contracts/ViewQuiz.sol:ViewQuiz",
								"label": "languageCode",
								"offset": 0,
								"slot": "6",
								"type": "t_uint8"
							},
							{
								"astId": 78,
								"contract": "contracts/ViewQuiz.sol:ViewQuiz",
								"label": "reward",
								"offset": 0,
								"slot": "7",
								"type": "t_uint256"
							},
							{
								"astId": 80,
								"contract": "contracts/ViewQuiz.sol:ViewQuiz",
								"label": "rewardPool",
								"offset": 0,
								"slot": "8",
								"type": "t_uint256"
							}
						],
						"numberOfBytes": "288"
					},
					"t_uint256": {
						"encoding": "inplace",
						"label": "uint256",
						"numberOfBytes": "32"
					},
					"t_uint8": {
						"encoding": "inplace",
						"label": "uint8",
						"numberOfBytes": "1"
					}
				}
			},
			"userdoc": {
				"kind": "user",
				"methods": {},
				"version": 1
			}
		}
	}
}