{
	"contracts/ViewQuiz.sol": {
		"ViewQuiz": {
			"abi": [
				{
					"anonymous": false,
					"inputs": [
						{
							"indexed": false,
							"internalType": "string",
							"name": "question",
							"type": "string"
						},
						{
							"indexed": false,
							"internalType": "uint8",
							"name": "answer",
							"type": "uint8"
						}
					],
					"name": "NewQuiz",
					"type": "event"
				},
				{
					"anonymous": false,
					"inputs": [
						{
							"indexed": true,
							"internalType": "address",
							"name": "previousOwner",
							"type": "address"
						},
						{
							"indexed": true,
							"internalType": "address",
							"name": "newOwner",
							"type": "address"
						}
					],
					"name": "OwnershipTransferred",
					"type": "event"
				},
				{
					"inputs": [
						{
							"internalType": "string",
							"name": "_question",
							"type": "string"
						},
						{
							"internalType": "string",
							"name": "_choice1",
							"type": "string"
						},
						{
							"internalType": "string",
							"name": "_choice2",
							"type": "string"
						},
						{
							"internalType": "string",
							"name": "_choice3",
							"type": "string"
						},
						{
							"internalType": "string",
							"name": "_choice4",
							"type": "string"
						},
						{
							"internalType": "string",
							"name": "_hint",
							"type": "string"
						},
						{
							"internalType": "uint8",
							"name": "_answer",
							"type": "uint8"
						},
						{
							"internalType": "uint8",
							"name": "_languageCode",
							"type": "uint8"
						}
					],
					"name": "_createQuiz",
					"outputs": [],
					"stateMutability": "nonpayable",
					"type": "function"
				},
				{
					"inputs": [
						{
							"internalType": "uint256",
							"name": "_quizId",
							"type": "uint256"
						},
						{
							"internalType": "bool",
							"name": "_quizStatus",
							"type": "bool"
						}
					],
					"name": "changeQuizStatus",
					"outputs": [],
					"stateMutability": "nonpayable",
					"type": "function"
				},
				{
					"inputs": [
						{
							"internalType": "uint256",
							"name": "_quizId",
							"type": "uint256"
						}
					],
					"name": "getQuizForOwner",
					"outputs": [
						{
							"components": [
								{
									"internalType": "string",
									"name": "question",
									"type": "string"
								},
								{
									"internalType": "string",
									"name": "choice1",
									"type": "string"
								},
								{
									"internalType": "string",
									"name": "choice2",
									"type": "string"
								},
								{
									"internalType": "string",
									"name": "choice3",
									"type": "string"
								},
								{
									"internalType": "string",
									"name": "choice4",
									"type": "string"
								},
								{
									"internalType": "string",
									"name": "hint",
									"type": "string"
								},
								{
									"internalType": "uint8",
									"name": "answer",
									"type": "uint8"
								},
								{
									"internalType": "uint8",
									"name": "languageCode",
									"type": "uint8"
								}
							],
							"internalType": "struct CreateQuiz.Quiz",
							"name": "",
							"type": "tuple"
						}
					],
					"stateMutability": "view",
					"type": "function"
				},
				{
					"inputs": [
						{
							"internalType": "uint256",
							"name": "_quizId",
							"type": "uint256"
						}
					],
					"name": "getQuizQuestion",
					"outputs": [
						{
							"components": [
								{
									"internalType": "string",
									"name": "question",
									"type": "string"
								},
								{
									"internalType": "string",
									"name": "choice1",
									"type": "string"
								},
								{
									"internalType": "string",
									"name": "choice2",
									"type": "string"
								},
								{
									"internalType": "string",
									"name": "choice3",
									"type": "string"
								},
								{
									"internalType": "string",
									"name": "choice4",
									"type": "string"
								},
								{
									"internalType": "string",
									"name": "hint",
									"type": "string"
								}
							],
							"internalType": "struct ViewQuiz.QuizQuestion",
							"name": "",
							"type": "tuple"
						}
					],
					"stateMutability": "view",
					"type": "function"
				},
				{
					"inputs": [],
					"name": "getRandomQuizQuestion",
					"outputs": [
						{
							"components": [
								{
									"internalType": "string",
									"name": "question",
									"type": "string"
								},
								{
									"internalType": "string",
									"name": "choice1",
									"type": "string"
								},
								{
									"internalType": "string",
									"name": "choice2",
									"type": "string"
								},
								{
									"internalType": "string",
									"name": "choice3",
									"type": "string"
								},
								{
									"internalType": "string",
									"name": "choice4",
									"type": "string"
								},
								{
									"internalType": "string",
									"name": "hint",
									"type": "string"
								}
							],
							"internalType": "struct ViewQuiz.QuizQuestion",
							"name": "",
							"type": "tuple"
						}
					],
					"stateMutability": "view",
					"type": "function"
				},
				{
					"inputs": [],
					"name": "owner",
					"outputs": [
						{
							"internalType": "address",
							"name": "",
							"type": "address"
						}
					],
					"stateMutability": "view",
					"type": "function"
				},
				{
					"inputs": [
						{
							"internalType": "uint256",
							"name": "",
							"type": "uint256"
						}
					],
					"name": "quizIsActive",
					"outputs": [
						{
							"internalType": "bool",
							"name": "",
							"type": "bool"
						}
					],
					"stateMutability": "view",
					"type": "function"
				},
				{
					"inputs": [
						{
							"internalType": "uint256",
							"name": "",
							"type": "uint256"
						}
					],
					"name": "quizOwner",
					"outputs": [
						{
							"internalType": "address",
							"name": "",
							"type": "address"
						}
					],
					"stateMutability": "view",
					"type": "function"
				},
				{
					"inputs": [
						{
							"internalType": "uint256",
							"name": "_quizId",
							"type": "uint256"
						},
						{
							"internalType": "bool",
							"name": "_quizStatus",
							"type": "bool"
						}
					],
					"name": "quizOwnerChangeStatus",
					"outputs": [],
					"stateMutability": "nonpayable",
					"type": "function"
				},
				{
					"inputs": [],
					"name": "renounceOwnership",
					"outputs": [],
					"stateMutability": "nonpayable",
					"type": "function"
				},
				{
					"inputs": [
						{
							"internalType": "address",
							"name": "newOwner",
							"type": "address"
						}
					],
					"name": "transferOwnership",
					"outputs": [],
					"stateMutability": "nonpayable",
					"type": "function"
				}
			],
			"devdoc": {
				"kind": "dev",
				"methods": {
					"owner()": {
						"details": "Returns the address of the current owner."
					},
					"renounceOwnership()": {
						"details": "Leaves the contract without owner. It will not be possible to call `onlyOwner` functions anymore. Can only be called by the current owner. NOTE: Renouncing ownership will leave the contract without an owner, thereby removing any functionality that is only available to the owner."
					},
					"transferOwnership(address)": {
						"details": "Transfers ownership of the contract to a new account (`newOwner`). Can only be called by the current owner."
					}
				},
				"version": 1
			},
			"evm": {
				"assembly": "    /* \"contracts/ViewQuiz.sol\":93:977  contract ViewQuiz is CreateQuiz {... */\n  mstore(0x40, 0x80)\n  callvalue\n  dup1\n  iszero\n  tag_1\n  jumpi\n  0x00\n  dup1\n  revert\ntag_1:\n  pop\n    /* \"contracts/Ownable.sol\":914:946  _transferOwnership(_msgSender()) */\n  tag_4\n    /* \"contracts/Ownable.sol\":933:945  _msgSender() */\n  tag_5\n    /* \"contracts/Ownable.sol\":933:943  _msgSender */\n  shl(0x20, tag_6)\n    /* \"contracts/Ownable.sol\":933:945  _msgSender() */\n  0x20\n  shr\n  jump\t// in\ntag_5:\n    /* \"contracts/Ownable.sol\":914:932  _transferOwnership */\n  shl(0x20, tag_7)\n    /* \"contracts/Ownable.sol\":914:946  _transferOwnership(_msgSender()) */\n  0x20\n  shr\n  jump\t// in\ntag_4:\n    /* \"contracts/ViewQuiz.sol\":93:977  contract ViewQuiz is CreateQuiz {... */\n  jump(tag_8)\n    /* \"contracts/Context.sol\":640:736  function _msgSender() internal view virtual returns (address) {... */\ntag_6:\n    /* \"contracts/Context.sol\":693:700  address */\n  0x00\n    /* \"contracts/Context.sol\":719:729  msg.sender */\n  caller\n    /* \"contracts/Context.sol\":712:729  return msg.sender */\n  swap1\n  pop\n    /* \"contracts/Context.sol\":640:736  function _msgSender() internal view virtual returns (address) {... */\n  swap1\n  jump\t// out\n    /* \"contracts/Ownable.sol\":2263:2450  function _transferOwnership(address newOwner) internal virtual {... */\ntag_7:\n    /* \"contracts/Ownable.sol\":2336:2352  address oldOwner */\n  0x00\n    /* \"contracts/Ownable.sol\":2355:2361  _owner */\n  dup1\n  0x00\n  swap1\n  sload\n  swap1\n  0x0100\n  exp\n  swap1\n  div\n  0xffffffffffffffffffffffffffffffffffffffff\n  and\n    /* \"contracts/Ownable.sol\":2336:2361  address oldOwner = _owner */\n  swap1\n  pop\n    /* \"contracts/Ownable.sol\":2380:2388  newOwner */\n  dup2\n    /* \"contracts/Ownable.sol\":2371:2377  _owner */\n  0x00\n  dup1\n    /* \"contracts/Ownable.sol\":2371:2388  _owner = newOwner */\n  0x0100\n  exp\n  dup2\n  sload\n  dup2\n  0xffffffffffffffffffffffffffffffffffffffff\n  mul\n  not\n  and\n  swap1\n  dup4\n  0xffffffffffffffffffffffffffffffffffffffff\n  and\n  mul\n  or\n  swap1\n  sstore\n  pop\n    /* \"contracts/Ownable.sol\":2434:2442  newOwner */\n  dup2\n    /* \"contracts/Ownable.sol\":2403:2443  OwnershipTransferred(oldOwner, newOwner) */\n  0xffffffffffffffffffffffffffffffffffffffff\n  and\n    /* \"contracts/Ownable.sol\":2424:2432  oldOwner */\n  dup2\n    /* \"contracts/Ownable.sol\":2403:2443  OwnershipTransferred(oldOwner, newOwner) */\n  0xffffffffffffffffffffffffffffffffffffffff\n  and\n  0x8be0079c531659141344cd1fd0a4f28419497f9722a3daafe3b4186f6b6457e0\n  mload(0x40)\n  mload(0x40)\n  dup1\n  swap2\n  sub\n  swap1\n  log3\n    /* \"contracts/Ownable.sol\":2326:2450  {... */\n  pop\n    /* \"contracts/Ownable.sol\":2263:2450  function _transferOwnership(address newOwner) internal virtual {... */\n  pop\n  jump\t// out\n    /* \"contracts/ViewQuiz.sol\":93:977  contract ViewQuiz is CreateQuiz {... */\ntag_8:\n  dataSize(sub_0)\n  dup1\n  dataOffset(sub_0)\n  0x00\n  codecopy\n  0x00\n  return\nstop\n\nsub_0: assembly {\n        /* \"contracts/ViewQuiz.sol\":93:977  contract ViewQuiz is CreateQuiz {... */\n      mstore(0x40, 0x80)\n      callvalue\n      dup1\n      iszero\n      tag_1\n      jumpi\n      0x00\n      dup1\n      revert\n    tag_1:\n      pop\n      jumpi(tag_2, lt(calldatasize, 0x04))\n      shr(0xe0, calldataload(0x00))\n      dup1\n      0x715018a6\n      gt\n      tag_14\n      jumpi\n      dup1\n      0x715018a6\n      eq\n      tag_8\n      jumpi\n      dup1\n      0x8da5cb5b\n      eq\n      tag_9\n      jumpi\n      dup1\n      0xaecab072\n      eq\n      tag_10\n      jumpi\n      dup1\n      0xcddbeb92\n      eq\n      tag_11\n      jumpi\n      dup1\n      0xe013d704\n      eq\n      tag_12\n      jumpi\n      dup1\n      0xf2fde38b\n      eq\n      tag_13\n      jumpi\n      jump(tag_2)\n    tag_14:\n      dup1\n      0x1d3f7559\n      eq\n      tag_3\n      jumpi\n      dup1\n      0x377def85\n      eq\n      tag_4\n      jumpi\n      dup1\n      0x400ae0f9\n      eq\n      tag_5\n      jumpi\n      dup1\n      0x4769cf83\n      eq\n      tag_6\n      jumpi\n      dup1\n      0x51a1d40e\n      eq\n      tag_7\n      jumpi\n    tag_2:\n      0x00\n      dup1\n      revert\n        /* \"contracts/CreateQuiz.sol\":1478:1605  function changeQuizStatus(uint _quizId, bool _quizStatus) public onlyOwner {... */\n    tag_3:\n      tag_15\n      0x04\n      dup1\n      calldatasize\n      sub\n      dup2\n      add\n      swap1\n      tag_16\n      swap2\n      swap1\n      tag_17\n      jump\t// in\n    tag_16:\n      tag_18\n      jump\t// in\n    tag_15:\n      stop\n        /* \"contracts/CreateQuiz.sol\":1243:1388  function quizOwnerChangeStatus(uint _quizId, bool _quizStatus) public onlyQuizOwner(_quizId) {... */\n    tag_4:\n      tag_19\n      0x04\n      dup1\n      calldatasize\n      sub\n      dup2\n      add\n      swap1\n      tag_20\n      swap2\n      swap1\n      tag_17\n      jump\t// in\n    tag_20:\n      tag_21\n      jump\t// in\n    tag_19:\n      stop\n        /* \"contracts/CreateQuiz.sol\":474:516  mapping (uint => address) public quizOwner */\n    tag_5:\n      tag_22\n      0x04\n      dup1\n      calldatasize\n      sub\n      dup2\n      add\n      swap1\n      tag_23\n      swap2\n      swap1\n      tag_24\n      jump\t// in\n    tag_23:\n      tag_25\n      jump\t// in\n    tag_22:\n      mload(0x40)\n      tag_26\n      swap2\n      swap1\n      tag_27\n      jump\t// in\n    tag_26:\n      mload(0x40)\n      dup1\n      swap2\n      sub\n      swap1\n      return\n        /* \"contracts/ViewQuiz.sol\":765:974  function getRandomQuizQuestion() public view returns (QuizQuestion memory) {... */\n    tag_6:\n      tag_28\n      tag_29\n      jump\t// in\n    tag_28:\n      mload(0x40)\n      tag_30\n      swap2\n      swap1\n      tag_31\n      jump\t// in\n    tag_30:\n      mload(0x40)\n      dup1\n      swap2\n      sub\n      swap1\n      return\n        /* \"contracts/CreateQuiz.sol\":426:468  mapping (uint => bool) public quizIsActive */\n    tag_7:\n      tag_32\n      0x04\n      dup1\n      calldatasize\n      sub\n      dup2\n      add\n      swap1\n      tag_33\n      swap2\n      swap1\n      tag_24\n      jump\t// in\n    tag_33:\n      tag_34\n      jump\t// in\n    tag_32:\n      mload(0x40)\n      tag_35\n      swap2\n      swap1\n      tag_36\n      jump\t// in\n    tag_35:\n      mload(0x40)\n      dup1\n      swap2\n      sub\n      swap1\n      return\n        /* \"contracts/Ownable.sol\":1661:1762  function renounceOwnership() public virtual onlyOwner {... */\n    tag_8:\n      tag_37\n      tag_38\n      jump\t// in\n    tag_37:\n      stop\n        /* \"contracts/Ownable.sol\":1029:1114  function owner() public view virtual returns (address) {... */\n    tag_9:\n      tag_39\n      tag_40\n      jump\t// in\n    tag_39:\n      mload(0x40)\n      tag_41\n      swap2\n      swap1\n      tag_27\n      jump\t// in\n    tag_41:\n      mload(0x40)\n      dup1\n      swap2\n      sub\n      swap1\n      return\n        /* \"contracts/ViewQuiz.sol\":645:758  function getQuizForOwner(uint _quizId) public view returns (Quiz memory) {... */\n    tag_10:\n      tag_42\n      0x04\n      dup1\n      calldatasize\n      sub\n      dup2\n      add\n      swap1\n      tag_43\n      swap2\n      swap1\n      tag_24\n      jump\t// in\n    tag_43:\n      tag_44\n      jump\t// in\n    tag_42:\n      mload(0x40)\n      tag_45\n      swap2\n      swap1\n      tag_46\n      jump\t// in\n    tag_45:\n      mload(0x40)\n      dup1\n      swap2\n      sub\n      swap1\n      return\n        /* \"contracts/ViewQuiz.sol\":358:602  function getQuizQuestion(uint _quizId) public view returns (QuizQuestion memory) {... */\n    tag_11:\n      tag_47\n      0x04\n      dup1\n      calldatasize\n      sub\n      dup2\n      add\n      swap1\n      tag_48\n      swap2\n      swap1\n      tag_24\n      jump\t// in\n    tag_48:\n      tag_49\n      jump\t// in\n    tag_47:\n      mload(0x40)\n      tag_50\n      swap2\n      swap1\n      tag_31\n      jump\t// in\n    tag_50:\n      mload(0x40)\n      dup1\n      swap2\n      sub\n      swap1\n      return\n        /* \"contracts/CreateQuiz.sol\":708:1180  function _createQuiz(string memory _question, string memory _choice1, string memory _choice2, string memory _choice3, string memory _choice4, string memory _hint, uint8 _answer, uint8 _languageCode) public {... */\n    tag_12:\n      tag_51\n      0x04\n      dup1\n      calldatasize\n      sub\n      dup2\n      add\n      swap1\n      tag_52\n      swap2\n      swap1\n      tag_53\n      jump\t// in\n    tag_52:\n      tag_54\n      jump\t// in\n    tag_51:\n      stop\n        /* \"contracts/Ownable.sol\":1911:2109  function transferOwnership(address newOwner) public virtual onlyOwner {... */\n    tag_13:\n      tag_55\n      0x04\n      dup1\n      calldatasize\n      sub\n      dup2\n      add\n      swap1\n      tag_56\n      swap2\n      swap1\n      tag_57\n      jump\t// in\n    tag_56:\n      tag_58\n      jump\t// in\n    tag_55:\n      stop\n        /* \"contracts/CreateQuiz.sol\":1478:1605  function changeQuizStatus(uint _quizId, bool _quizStatus) public onlyOwner {... */\n    tag_18:\n        /* \"contracts/Ownable.sol\":1252:1264  _msgSender() */\n      tag_60\n        /* \"contracts/Ownable.sol\":1252:1262  _msgSender */\n      tag_61\n        /* \"contracts/Ownable.sol\":1252:1264  _msgSender() */\n      jump\t// in\n    tag_60:\n        /* \"contracts/Ownable.sol\":1241:1264  owner() == _msgSender() */\n      0xffffffffffffffffffffffffffffffffffffffff\n      and\n        /* \"contracts/Ownable.sol\":1241:1248  owner() */\n      tag_62\n        /* \"contracts/Ownable.sol\":1241:1246  owner */\n      tag_40\n        /* \"contracts/Ownable.sol\":1241:1248  owner() */\n      jump\t// in\n    tag_62:\n        /* \"contracts/Ownable.sol\":1241:1264  owner() == _msgSender() */\n      0xffffffffffffffffffffffffffffffffffffffff\n      and\n      eq\n        /* \"contracts/Ownable.sol\":1233:1301  require(owner() == _msgSender(), \"Ownable: caller is not the owner\") */\n      tag_63\n      jumpi\n      mload(0x40)\n      0x08c379a000000000000000000000000000000000000000000000000000000000\n      dup2\n      mstore\n      0x04\n      add\n      tag_64\n      swap1\n      tag_65\n      jump\t// in\n    tag_64:\n      mload(0x40)\n      dup1\n      swap2\n      sub\n      swap1\n      revert\n    tag_63:\n        /* \"contracts/CreateQuiz.sol\":1587:1598  _quizStatus */\n      dup1\n        /* \"contracts/CreateQuiz.sol\":1563:1575  quizIsActive */\n      0x02\n        /* \"contracts/CreateQuiz.sol\":1563:1584  quizIsActive[_quizId] */\n      0x00\n        /* \"contracts/CreateQuiz.sol\":1576:1583  _quizId */\n      dup5\n        /* \"contracts/CreateQuiz.sol\":1563:1584  quizIsActive[_quizId] */\n      dup2\n      mstore\n      0x20\n      add\n      swap1\n      dup2\n      mstore\n      0x20\n      add\n      0x00\n      keccak256\n      0x00\n        /* \"contracts/CreateQuiz.sol\":1563:1598  quizIsActive[_quizId] = _quizStatus */\n      0x0100\n      exp\n      dup2\n      sload\n      dup2\n      0xff\n      mul\n      not\n      and\n      swap1\n      dup4\n      iszero\n      iszero\n      mul\n      or\n      swap1\n      sstore\n      pop\n        /* \"contracts/CreateQuiz.sol\":1478:1605  function changeQuizStatus(uint _quizId, bool _quizStatus) public onlyOwner {... */\n      pop\n      pop\n      jump\t// out\n        /* \"contracts/CreateQuiz.sol\":1243:1388  function quizOwnerChangeStatus(uint _quizId, bool _quizStatus) public onlyQuizOwner(_quizId) {... */\n    tag_21:\n        /* \"contracts/CreateQuiz.sol\":1327:1334  _quizId */\n      dup2\n        /* \"contracts/CreateQuiz.sol\":601:611  msg.sender */\n      caller\n        /* \"contracts/CreateQuiz.sol\":579:611  quizOwner[_quizId] == msg.sender */\n      0xffffffffffffffffffffffffffffffffffffffff\n      and\n        /* \"contracts/CreateQuiz.sol\":579:588  quizOwner */\n      0x03\n        /* \"contracts/CreateQuiz.sol\":579:597  quizOwner[_quizId] */\n      0x00\n        /* \"contracts/CreateQuiz.sol\":589:596  _quizId */\n      dup4\n        /* \"contracts/CreateQuiz.sol\":579:597  quizOwner[_quizId] */\n      dup2\n      mstore\n      0x20\n      add\n      swap1\n      dup2\n      mstore\n      0x20\n      add\n      0x00\n      keccak256\n      0x00\n      swap1\n      sload\n      swap1\n      0x0100\n      exp\n      swap1\n      div\n      0xffffffffffffffffffffffffffffffffffffffff\n      and\n        /* \"contracts/CreateQuiz.sol\":579:611  quizOwner[_quizId] == msg.sender */\n      0xffffffffffffffffffffffffffffffffffffffff\n      and\n      eq\n        /* \"contracts/CreateQuiz.sol\":571:612  require(quizOwner[_quizId] == msg.sender) */\n      tag_68\n      jumpi\n      0x00\n      dup1\n      revert\n    tag_68:\n        /* \"contracts/CreateQuiz.sol\":1370:1381  _quizStatus */\n      dup2\n        /* \"contracts/CreateQuiz.sol\":1346:1358  quizIsActive */\n      0x02\n        /* \"contracts/CreateQuiz.sol\":1346:1367  quizIsActive[_quizId] */\n      0x00\n        /* \"contracts/CreateQuiz.sol\":1359:1366  _quizId */\n      dup6\n        /* \"contracts/CreateQuiz.sol\":1346:1367  quizIsActive[_quizId] */\n      dup2\n      mstore\n      0x20\n      add\n      swap1\n      dup2\n      mstore\n      0x20\n      add\n      0x00\n      keccak256\n      0x00\n        /* \"contracts/CreateQuiz.sol\":1346:1381  quizIsActive[_quizId] = _quizStatus */\n      0x0100\n      exp\n      dup2\n      sload\n      dup2\n      0xff\n      mul\n      not\n      and\n      swap1\n      dup4\n      iszero\n      iszero\n      mul\n      or\n      swap1\n      sstore\n      pop\n        /* \"contracts/CreateQuiz.sol\":1243:1388  function quizOwnerChangeStatus(uint _quizId, bool _quizStatus) public onlyQuizOwner(_quizId) {... */\n      pop\n      pop\n      pop\n      jump\t// out\n        /* \"contracts/CreateQuiz.sol\":474:516  mapping (uint => address) public quizOwner */\n    tag_25:\n      mstore(0x20, 0x03)\n      dup1\n      0x00\n      mstore\n      keccak256(0x00, 0x40)\n      0x00\n      swap2\n      pop\n      sload\n      swap1\n      0x0100\n      exp\n      swap1\n      div\n      0xffffffffffffffffffffffffffffffffffffffff\n      and\n      dup2\n      jump\t// out\n        /* \"contracts/ViewQuiz.sol\":765:974  function getRandomQuizQuestion() public view returns (QuizQuestion memory) {... */\n    tag_29:\n        /* \"contracts/ViewQuiz.sol\":819:838  QuizQuestion memory */\n      tag_70\n      tag_71\n      jump\t// in\n    tag_70:\n        /* \"contracts/ViewQuiz.sol\":850:859  uint rand */\n      0x00\n        /* \"contracts/ViewQuiz.sol\":867:881  keccak256(\"1\") */\n      0xc89efdaa54c0f20c7adf612882df0950f5a951637e0307cdcb4c672f298b8bc6\n        /* \"contracts/ViewQuiz.sol\":862:882  uint(keccak256(\"1\")) */\n      0x00\n      shr\n        /* \"contracts/ViewQuiz.sol\":850:882  uint rand = uint(keccak256(\"1\")) */\n      swap1\n      pop\n        /* \"contracts/ViewQuiz.sol\":892:903  uint quizId */\n      0x00\n        /* \"contracts/ViewQuiz.sol\":913:920  quizzes */\n      0x01\n        /* \"contracts/ViewQuiz.sol\":913:927  quizzes.length */\n      dup1\n      sload\n      swap1\n      pop\n        /* \"contracts/ViewQuiz.sol\":906:910  rand */\n      dup3\n        /* \"contracts/ViewQuiz.sol\":906:927  rand % quizzes.length */\n      tag_73\n      swap2\n      swap1\n      tag_74\n      jump\t// in\n    tag_73:\n        /* \"contracts/ViewQuiz.sol\":892:927  uint quizId = rand % quizzes.length */\n      swap1\n      pop\n        /* \"contracts/ViewQuiz.sol\":944:967  getQuizQuestion(quizId) */\n      tag_75\n        /* \"contracts/ViewQuiz.sol\":960:966  quizId */\n      dup2\n        /* \"contracts/ViewQuiz.sol\":944:959  getQuizQuestion */\n      tag_49\n        /* \"contracts/ViewQuiz.sol\":944:967  getQuizQuestion(quizId) */\n      jump\t// in\n    tag_75:\n        /* \"contracts/ViewQuiz.sol\":937:967  return getQuizQuestion(quizId) */\n      swap3\n      pop\n      pop\n      pop\n        /* \"contracts/ViewQuiz.sol\":765:974  function getRandomQuizQuestion() public view returns (QuizQuestion memory) {... */\n      swap1\n      jump\t// out\n        /* \"contracts/CreateQuiz.sol\":426:468  mapping (uint => bool) public quizIsActive */\n    tag_34:\n      mstore(0x20, 0x02)\n      dup1\n      0x00\n      mstore\n      keccak256(0x00, 0x40)\n      0x00\n      swap2\n      pop\n      sload\n      swap1\n      0x0100\n      exp\n      swap1\n      div\n      0xff\n      and\n      dup2\n      jump\t// out\n        /* \"contracts/Ownable.sol\":1661:1762  function renounceOwnership() public virtual onlyOwner {... */\n    tag_38:\n        /* \"contracts/Ownable.sol\":1252:1264  _msgSender() */\n      tag_77\n        /* \"contracts/Ownable.sol\":1252:1262  _msgSender */\n      tag_61\n        /* \"contracts/Ownable.sol\":1252:1264  _msgSender() */\n      jump\t// in\n    tag_77:\n        /* \"contracts/Ownable.sol\":1241:1264  owner() == _msgSender() */\n      0xffffffffffffffffffffffffffffffffffffffff\n      and\n        /* \"contracts/Ownable.sol\":1241:1248  owner() */\n      tag_78\n        /* \"contracts/Ownable.sol\":1241:1246  owner */\n      tag_40\n        /* \"contracts/Ownable.sol\":1241:1248  owner() */\n      jump\t// in\n    tag_78:\n        /* \"contracts/Ownable.sol\":1241:1264  owner() == _msgSender() */\n      0xffffffffffffffffffffffffffffffffffffffff\n      and\n      eq\n        /* \"contracts/Ownable.sol\":1233:1301  require(owner() == _msgSender(), \"Ownable: caller is not the owner\") */\n      tag_79\n      jumpi\n      mload(0x40)\n      0x08c379a000000000000000000000000000000000000000000000000000000000\n      dup2\n      mstore\n      0x04\n      add\n      tag_80\n      swap1\n      tag_65\n      jump\t// in\n    tag_80:\n      mload(0x40)\n      dup1\n      swap2\n      sub\n      swap1\n      revert\n    tag_79:\n        /* \"contracts/Ownable.sol\":1725:1755  _transferOwnership(address(0)) */\n      tag_82\n        /* \"contracts/Ownable.sol\":1752:1753  0 */\n      0x00\n        /* \"contracts/Ownable.sol\":1725:1743  _transferOwnership */\n      tag_83\n        /* \"contracts/Ownable.sol\":1725:1755  _transferOwnership(address(0)) */\n      jump\t// in\n    tag_82:\n        /* \"contracts/Ownable.sol\":1661:1762  function renounceOwnership() public virtual onlyOwner {... */\n      jump\t// out\n        /* \"contracts/Ownable.sol\":1029:1114  function owner() public view virtual returns (address) {... */\n    tag_40:\n        /* \"contracts/Ownable.sol\":1075:1082  address */\n      0x00\n        /* \"contracts/Ownable.sol\":1101:1107  _owner */\n      dup1\n      0x00\n      swap1\n      sload\n      swap1\n      0x0100\n      exp\n      swap1\n      div\n      0xffffffffffffffffffffffffffffffffffffffff\n      and\n        /* \"contracts/Ownable.sol\":1094:1107  return _owner */\n      swap1\n      pop\n        /* \"contracts/Ownable.sol\":1029:1114  function owner() public view virtual returns (address) {... */\n      swap1\n      jump\t// out\n        /* \"contracts/ViewQuiz.sol\":645:758  function getQuizForOwner(uint _quizId) public view returns (Quiz memory) {... */\n    tag_44:\n        /* \"contracts/ViewQuiz.sol\":705:716  Quiz memory */\n      tag_85\n      tag_86\n      jump\t// in\n    tag_85:\n        /* \"contracts/ViewQuiz.sol\":735:742  quizzes */\n      0x01\n        /* \"contracts/ViewQuiz.sol\":743:750  _quizId */\n      dup3\n        /* \"contracts/ViewQuiz.sol\":735:751  quizzes[_quizId] */\n      dup2\n      sload\n      dup2\n      lt\n      tag_88\n      jumpi\n      tag_89\n      tag_90\n      jump\t// in\n    tag_89:\n    tag_88:\n      swap1\n      0x00\n      mstore\n      keccak256(0x00, 0x20)\n      swap1\n      0x07\n      mul\n      add\n        /* \"contracts/ViewQuiz.sol\":728:751  return quizzes[_quizId] */\n      mload(0x40)\n      dup1\n      0x0100\n      add\n      0x40\n      mstore\n      swap1\n      dup2\n      0x00\n      dup3\n      add\n      dup1\n      sload\n      tag_92\n      swap1\n      tag_93\n      jump\t// in\n    tag_92:\n      dup1\n      0x1f\n      add\n      0x20\n      dup1\n      swap2\n      div\n      mul\n      0x20\n      add\n      mload(0x40)\n      swap1\n      dup2\n      add\n      0x40\n      mstore\n      dup1\n      swap3\n      swap2\n      swap1\n      dup2\n      dup2\n      mstore\n      0x20\n      add\n      dup3\n      dup1\n      sload\n      tag_94\n      swap1\n      tag_93\n      jump\t// in\n    tag_94:\n      dup1\n      iszero\n      tag_95\n      jumpi\n      dup1\n      0x1f\n      lt\n      tag_96\n      jumpi\n      0x0100\n      dup1\n      dup4\n      sload\n      div\n      mul\n      dup4\n      mstore\n      swap2\n      0x20\n      add\n      swap2\n      jump(tag_95)\n    tag_96:\n      dup3\n      add\n      swap2\n      swap1\n      0x00\n      mstore\n      keccak256(0x00, 0x20)\n      swap1\n    tag_97:\n      dup2\n      sload\n      dup2\n      mstore\n      swap1\n      0x01\n      add\n      swap1\n      0x20\n      add\n      dup1\n      dup4\n      gt\n      tag_97\n      jumpi\n      dup3\n      swap1\n      sub\n      0x1f\n      and\n      dup3\n      add\n      swap2\n    tag_95:\n      pop\n      pop\n      pop\n      pop\n      pop\n      dup2\n      mstore\n      0x20\n      add\n      0x01\n      dup3\n      add\n      dup1\n      sload\n      tag_98\n      swap1\n      tag_93\n      jump\t// in\n    tag_98:\n      dup1\n      0x1f\n      add\n      0x20\n      dup1\n      swap2\n      div\n      mul\n      0x20\n      add\n      mload(0x40)\n      swap1\n      dup2\n      add\n      0x40\n      mstore\n      dup1\n      swap3\n      swap2\n      swap1\n      dup2\n      dup2\n      mstore\n      0x20\n      add\n      dup3\n      dup1\n      sload\n      tag_99\n      swap1\n      tag_93\n      jump\t// in\n    tag_99:\n      dup1\n      iszero\n      tag_100\n      jumpi\n      dup1\n      0x1f\n      lt\n      tag_101\n      jumpi\n      0x0100\n      dup1\n      dup4\n      sload\n      div\n      mul\n      dup4\n      mstore\n      swap2\n      0x20\n      add\n      swap2\n      jump(tag_100)\n    tag_101:\n      dup3\n      add\n      swap2\n      swap1\n      0x00\n      mstore\n      keccak256(0x00, 0x20)\n      swap1\n    tag_102:\n      dup2\n      sload\n      dup2\n      mstore\n      swap1\n      0x01\n      add\n      swap1\n      0x20\n      add\n      dup1\n      dup4\n      gt\n      tag_102\n      jumpi\n      dup3\n      swap1\n      sub\n      0x1f\n      and\n      dup3\n      add\n      swap2\n    tag_100:\n      pop\n      pop\n      pop\n      pop\n      pop\n      dup2\n      mstore\n      0x20\n      add\n      0x02\n      dup3\n      add\n      dup1\n      sload\n      tag_103\n      swap1\n      tag_93\n      jump\t// in\n    tag_103:\n      dup1\n      0x1f\n      add\n      0x20\n      dup1\n      swap2\n      div\n      mul\n      0x20\n      add\n      mload(0x40)\n      swap1\n      dup2\n      add\n      0x40\n      mstore\n      dup1\n      swap3\n      swap2\n      swap1\n      dup2\n      dup2\n      mstore\n      0x20\n      add\n      dup3\n      dup1\n      sload\n      tag_104\n      swap1\n      tag_93\n      jump\t// in\n    tag_104:\n      dup1\n      iszero\n      tag_105\n      jumpi\n      dup1\n      0x1f\n      lt\n      tag_106\n      jumpi\n      0x0100\n      dup1\n      dup4\n      sload\n      div\n      mul\n      dup4\n      mstore\n      swap2\n      0x20\n      add\n      swap2\n      jump(tag_105)\n    tag_106:\n      dup3\n      add\n      swap2\n      swap1\n      0x00\n      mstore\n      keccak256(0x00, 0x20)\n      swap1\n    tag_107:\n      dup2\n      sload\n      dup2\n      mstore\n      swap1\n      0x01\n      add\n      swap1\n      0x20\n      add\n      dup1\n      dup4\n      gt\n      tag_107\n      jumpi\n      dup3\n      swap1\n      sub\n      0x1f\n      and\n      dup3\n      add\n      swap2\n    tag_105:\n      pop\n      pop\n      pop\n      pop\n      pop\n      dup2\n      mstore\n      0x20\n      add\n      0x03\n      dup3\n      add\n      dup1\n      sload\n      tag_108\n      swap1\n      tag_93\n      jump\t// in\n    tag_108:\n      dup1\n      0x1f\n      add\n      0x20\n      dup1\n      swap2\n      div\n      mul\n      0x20\n      add\n      mload(0x40)\n      swap1\n      dup2\n      add\n      0x40\n      mstore\n      dup1\n      swap3\n      swap2\n      swap1\n      dup2\n      dup2\n      mstore\n      0x20\n      add\n      dup3\n      dup1\n      sload\n      tag_109\n      swap1\n      tag_93\n      jump\t// in\n    tag_109:\n      dup1\n      iszero\n      tag_110\n      jumpi\n      dup1\n      0x1f\n      lt\n      tag_111\n      jumpi\n      0x0100\n      dup1\n      dup4\n      sload\n      div\n      mul\n      dup4\n      mstore\n      swap2\n      0x20\n      add\n      swap2\n      jump(tag_110)\n    tag_111:\n      dup3\n      add\n      swap2\n      swap1\n      0x00\n      mstore\n      keccak256(0x00, 0x20)\n      swap1\n    tag_112:\n      dup2\n      sload\n      dup2\n      mstore\n      swap1\n      0x01\n      add\n      swap1\n      0x20\n      add\n      dup1\n      dup4\n      gt\n      tag_112\n      jumpi\n      dup3\n      swap1\n      sub\n      0x1f\n      and\n      dup3\n      add\n      swap2\n    tag_110:\n      pop\n      pop\n      pop\n      pop\n      pop\n      dup2\n      mstore\n      0x20\n      add\n      0x04\n      dup3\n      add\n      dup1\n      sload\n      tag_113\n      swap1\n      tag_93\n      jump\t// in\n    tag_113:\n      dup1\n      0x1f\n      add\n      0x20\n      dup1\n      swap2\n      div\n      mul\n      0x20\n      add\n      mload(0x40)\n      swap1\n      dup2\n      add\n      0x40\n      mstore\n      dup1\n      swap3\n      swap2\n      swap1\n      dup2\n      dup2\n      mstore\n      0x20\n      add\n      dup3\n      dup1\n      sload\n      tag_114\n      swap1\n      tag_93\n      jump\t// in\n    tag_114:\n      dup1\n      iszero\n      tag_115\n      jumpi\n      dup1\n      0x1f\n      lt\n      tag_116\n      jumpi\n      0x0100\n      dup1\n      dup4\n      sload\n      div\n      mul\n      dup4\n      mstore\n      swap2\n      0x20\n      add\n      swap2\n      jump(tag_115)\n    tag_116:\n      dup3\n      add\n      swap2\n      swap1\n      0x00\n      mstore\n      keccak256(0x00, 0x20)\n      swap1\n    tag_117:\n      dup2\n      sload\n      dup2\n      mstore\n      swap1\n      0x01\n      add\n      swap1\n      0x20\n      add\n      dup1\n      dup4\n      gt\n      tag_117\n      jumpi\n      dup3\n      swap1\n      sub\n      0x1f\n      and\n      dup3\n      add\n      swap2\n    tag_115:\n      pop\n      pop\n      pop\n      pop\n      pop\n      dup2\n      mstore\n      0x20\n      add\n      0x05\n      dup3\n      add\n      dup1\n      sload\n      tag_118\n      swap1\n      tag_93\n      jump\t// in\n    tag_118:\n      dup1\n      0x1f\n      add\n      0x20\n      dup1\n      swap2\n      div\n      mul\n      0x20\n      add\n      mload(0x40)\n      swap1\n      dup2\n      add\n      0x40\n      mstore\n      dup1\n      swap3\n      swap2\n      swap1\n      dup2\n      dup2\n      mstore\n      0x20\n      add\n      dup3\n      dup1\n      sload\n      tag_119\n      swap1\n      tag_93\n      jump\t// in\n    tag_119:\n      dup1\n      iszero\n      tag_120\n      jumpi\n      dup1\n      0x1f\n      lt\n      tag_121\n      jumpi\n      0x0100\n      dup1\n      dup4\n      sload\n      div\n      mul\n      dup4\n      mstore\n      swap2\n      0x20\n      add\n      swap2\n      jump(tag_120)\n    tag_121:\n      dup3\n      add\n      swap2\n      swap1\n      0x00\n      mstore\n      keccak256(0x00, 0x20)\n      swap1\n    tag_122:\n      dup2\n      sload\n      dup2\n      mstore\n      swap1\n      0x01\n      add\n      swap1\n      0x20\n      add\n      dup1\n      dup4\n      gt\n      tag_122\n      jumpi\n      dup3\n      swap1\n      sub\n      0x1f\n      and\n      dup3\n      add\n      swap2\n    tag_120:\n      pop\n      pop\n      pop\n      pop\n      pop\n      dup2\n      mstore\n      0x20\n      add\n      0x06\n      dup3\n      add\n      0x00\n      swap1\n      sload\n      swap1\n      0x0100\n      exp\n      swap1\n      div\n      0xff\n      and\n      0xff\n      and\n      0xff\n      and\n      dup2\n      mstore\n      0x20\n      add\n      0x06\n      dup3\n      add\n      0x01\n      swap1\n      sload\n      swap1\n      0x0100\n      exp\n      swap1\n      div\n      0xff\n      and\n      0xff\n      and\n      0xff\n      and\n      dup2\n      mstore\n      pop\n      pop\n      swap1\n      pop\n        /* \"contracts/ViewQuiz.sol\":645:758  function getQuizForOwner(uint _quizId) public view returns (Quiz memory) {... */\n      swap2\n      swap1\n      pop\n      jump\t// out\n        /* \"contracts/ViewQuiz.sol\":358:602  function getQuizQuestion(uint _quizId) public view returns (QuizQuestion memory) {... */\n    tag_49:\n        /* \"contracts/ViewQuiz.sol\":418:437  QuizQuestion memory */\n      tag_123\n      tag_71\n      jump\t// in\n    tag_123:\n        /* \"contracts/ViewQuiz.sol\":449:465  Quiz memory quiz */\n      0x00\n        /* \"contracts/ViewQuiz.sol\":468:475  quizzes */\n      0x01\n        /* \"contracts/ViewQuiz.sol\":476:483  _quizId */\n      dup4\n        /* \"contracts/ViewQuiz.sol\":468:484  quizzes[_quizId] */\n      dup2\n      sload\n      dup2\n      lt\n      tag_125\n      jumpi\n      tag_126\n      tag_90\n      jump\t// in\n    tag_126:\n    tag_125:\n      swap1\n      0x00\n      mstore\n      keccak256(0x00, 0x20)\n      swap1\n      0x07\n      mul\n      add\n        /* \"contracts/ViewQuiz.sol\":449:484  Quiz memory quiz = quizzes[_quizId] */\n      mload(0x40)\n      dup1\n      0x0100\n      add\n      0x40\n      mstore\n      swap1\n      dup2\n      0x00\n      dup3\n      add\n      dup1\n      sload\n      tag_128\n      swap1\n      tag_93\n      jump\t// in\n    tag_128:\n      dup1\n      0x1f\n      add\n      0x20\n      dup1\n      swap2\n      div\n      mul\n      0x20\n      add\n      mload(0x40)\n      swap1\n      dup2\n      add\n      0x40\n      mstore\n      dup1\n      swap3\n      swap2\n      swap1\n      dup2\n      dup2\n      mstore\n      0x20\n      add\n      dup3\n      dup1\n      sload\n      tag_129\n      swap1\n      tag_93\n      jump\t// in\n    tag_129:\n      dup1\n      iszero\n      tag_130\n      jumpi\n      dup1\n      0x1f\n      lt\n      tag_131\n      jumpi\n      0x0100\n      dup1\n      dup4\n      sload\n      div\n      mul\n      dup4\n      mstore\n      swap2\n      0x20\n      add\n      swap2\n      jump(tag_130)\n    tag_131:\n      dup3\n      add\n      swap2\n      swap1\n      0x00\n      mstore\n      keccak256(0x00, 0x20)\n      swap1\n    tag_132:\n      dup2\n      sload\n      dup2\n      mstore\n      swap1\n      0x01\n      add\n      swap1\n      0x20\n      add\n      dup1\n      dup4\n      gt\n      tag_132\n      jumpi\n      dup3\n      swap1\n      sub\n      0x1f\n      and\n      dup3\n      add\n      swap2\n    tag_130:\n      pop\n      pop\n      pop\n      pop\n      pop\n      dup2\n      mstore\n      0x20\n      add\n      0x01\n      dup3\n      add\n      dup1\n      sload\n      tag_133\n      swap1\n      tag_93\n      jump\t// in\n    tag_133:\n      dup1\n      0x1f\n      add\n      0x20\n      dup1\n      swap2\n      div\n      mul\n      0x20\n      add\n      mload(0x40)\n      swap1\n      dup2\n      add\n      0x40\n      mstore\n      dup1\n      swap3\n      swap2\n      swap1\n      dup2\n      dup2\n      mstore\n      0x20\n      add\n      dup3\n      dup1\n      sload\n      tag_134\n      swap1\n      tag_93\n      jump\t// in\n    tag_134:\n      dup1\n      iszero\n      tag_135\n      jumpi\n      dup1\n      0x1f\n      lt\n      tag_136\n      jumpi\n      0x0100\n      dup1\n      dup4\n      sload\n      div\n      mul\n      dup4\n      mstore\n      swap2\n      0x20\n      add\n      swap2\n      jump(tag_135)\n    tag_136:\n      dup3\n      add\n      swap2\n      swap1\n      0x00\n      mstore\n      keccak256(0x00, 0x20)\n      swap1\n    tag_137:\n      dup2\n      sload\n      dup2\n      mstore\n      swap1\n      0x01\n      add\n      swap1\n      0x20\n      add\n      dup1\n      dup4\n      gt\n      tag_137\n      jumpi\n      dup3\n      swap1\n      sub\n      0x1f\n      and\n      dup3\n      add\n      swap2\n    tag_135:\n      pop\n      pop\n      pop\n      pop\n      pop\n      dup2\n      mstore\n      0x20\n      add\n      0x02\n      dup3\n      add\n      dup1\n      sload\n      tag_138\n      swap1\n      tag_93\n      jump\t// in\n    tag_138:\n      dup1\n      0x1f\n      add\n      0x20\n      dup1\n      swap2\n      div\n      mul\n      0x20\n      add\n      mload(0x40)\n      swap1\n      dup2\n      add\n      0x40\n      mstore\n      dup1\n      swap3\n      swap2\n      swap1\n      dup2\n      dup2\n      mstore\n      0x20\n      add\n      dup3\n      dup1\n      sload\n      tag_139\n      swap1\n      tag_93\n      jump\t// in\n    tag_139:\n      dup1\n      iszero\n      tag_140\n      jumpi\n      dup1\n      0x1f\n      lt\n      tag_141\n      jumpi\n      0x0100\n      dup1\n      dup4\n      sload\n      div\n      mul\n      dup4\n      mstore\n      swap2\n      0x20\n      add\n      swap2\n      jump(tag_140)\n    tag_141:\n      dup3\n      add\n      swap2\n      swap1\n      0x00\n      mstore\n      keccak256(0x00, 0x20)\n      swap1\n    tag_142:\n      dup2\n      sload\n      dup2\n      mstore\n      swap1\n      0x01\n      add\n      swap1\n      0x20\n      add\n      dup1\n      dup4\n      gt\n      tag_142\n      jumpi\n      dup3\n      swap1\n      sub\n      0x1f\n      and\n      dup3\n      add\n      swap2\n    tag_140:\n      pop\n      pop\n      pop\n      pop\n      pop\n      dup2\n      mstore\n      0x20\n      add\n      0x03\n      dup3\n      add\n      dup1\n      sload\n      tag_143\n      swap1\n      tag_93\n      jump\t// in\n    tag_143:\n      dup1\n      0x1f\n      add\n      0x20\n      dup1\n      swap2\n      div\n      mul\n      0x20\n      add\n      mload(0x40)\n      swap1\n      dup2\n      add\n      0x40\n      mstore\n      dup1\n      swap3\n      swap2\n      swap1\n      dup2\n      dup2\n      mstore\n      0x20\n      add\n      dup3\n      dup1\n      sload\n      tag_144\n      swap1\n      tag_93\n      jump\t// in\n    tag_144:\n      dup1\n      iszero\n      tag_145\n      jumpi\n      dup1\n      0x1f\n      lt\n      tag_146\n      jumpi\n      0x0100\n      dup1\n      dup4\n      sload\n      div\n      mul\n      dup4\n      mstore\n      swap2\n      0x20\n      add\n      swap2\n      jump(tag_145)\n    tag_146:\n      dup3\n      add\n      swap2\n      swap1\n      0x00\n      mstore\n      keccak256(0x00, 0x20)\n      swap1\n    tag_147:\n      dup2\n      sload\n      dup2\n      mstore\n      swap1\n      0x01\n      add\n      swap1\n      0x20\n      add\n      dup1\n      dup4\n      gt\n      tag_147\n      jumpi\n      dup3\n      swap1\n      sub\n      0x1f\n      and\n      dup3\n      add\n      swap2\n    tag_145:\n      pop\n      pop\n      pop\n      pop\n      pop\n      dup2\n      mstore\n      0x20\n      add\n      0x04\n      dup3\n      add\n      dup1\n      sload\n      tag_148\n      swap1\n      tag_93\n      jump\t// in\n    tag_148:\n      dup1\n      0x1f\n      add\n      0x20\n      dup1\n      swap2\n      div\n      mul\n      0x20\n      add\n      mload(0x40)\n      swap1\n      dup2\n      add\n      0x40\n      mstore\n      dup1\n      swap3\n      swap2\n      swap1\n      dup2\n      dup2\n      mstore\n      0x20\n      add\n      dup3\n      dup1\n      sload\n      tag_149\n      swap1\n      tag_93\n      jump\t// in\n    tag_149:\n      dup1\n      iszero\n      tag_150\n      jumpi\n      dup1\n      0x1f\n      lt\n      tag_151\n      jumpi\n      0x0100\n      dup1\n      dup4\n      sload\n      div\n      mul\n      dup4\n      mstore\n      swap2\n      0x20\n      add\n      swap2\n      jump(tag_150)\n    tag_151:\n      dup3\n      add\n      swap2\n      swap1\n      0x00\n      mstore\n      keccak256(0x00, 0x20)\n      swap1\n    tag_152:\n      dup2\n      sload\n      dup2\n      mstore\n      swap1\n      0x01\n      add\n      swap1\n      0x20\n      add\n      dup1\n      dup4\n      gt\n      tag_152\n      jumpi\n      dup3\n      swap1\n      sub\n      0x1f\n      and\n      dup3\n      add\n      swap2\n    tag_150:\n      pop\n      pop\n      pop\n      pop\n      pop\n      dup2\n      mstore\n      0x20\n      add\n      0x05\n      dup3\n      add\n      dup1\n      sload\n      tag_153\n      swap1\n      tag_93\n      jump\t// in\n    tag_153:\n      dup1\n      0x1f\n      add\n      0x20\n      dup1\n      swap2\n      div\n      mul\n      0x20\n      add\n      mload(0x40)\n      swap1\n      dup2\n      add\n      0x40\n      mstore\n      dup1\n      swap3\n      swap2\n      swap1\n      dup2\n      dup2\n      mstore\n      0x20\n      add\n      dup3\n      dup1\n      sload\n      tag_154\n      swap1\n      tag_93\n      jump\t// in\n    tag_154:\n      dup1\n      iszero\n      tag_155\n      jumpi\n      dup1\n      0x1f\n      lt\n      tag_156\n      jumpi\n      0x0100\n      dup1\n      dup4\n      sload\n      div\n      mul\n      dup4\n      mstore\n      swap2\n      0x20\n      add\n      swap2\n      jump(tag_155)\n    tag_156:\n      dup3\n      add\n      swap2\n      swap1\n      0x00\n      mstore\n      keccak256(0x00, 0x20)\n      swap1\n    tag_157:\n      dup2\n      sload\n      dup2\n      mstore\n      swap1\n      0x01\n      add\n      swap1\n      0x20\n      add\n      dup1\n      dup4\n      gt\n      tag_157\n      jumpi\n      dup3\n      swap1\n      sub\n      0x1f\n      and\n      dup3\n      add\n      swap2\n    tag_155:\n      pop\n      pop\n      pop\n      pop\n      pop\n      dup2\n      mstore\n      0x20\n      add\n      0x06\n      dup3\n      add\n      0x00\n      swap1\n      sload\n      swap1\n      0x0100\n      exp\n      swap1\n      div\n      0xff\n      and\n      0xff\n      and\n      0xff\n      and\n      dup2\n      mstore\n      0x20\n      add\n      0x06\n      dup3\n      add\n      0x01\n      swap1\n      sload\n      swap1\n      0x0100\n      exp\n      swap1\n      div\n      0xff\n      and\n      0xff\n      and\n      0xff\n      and\n      dup2\n      mstore\n      pop\n      pop\n      swap1\n      pop\n        /* \"contracts/ViewQuiz.sol\":501:595  QuizQuestion(quiz.question, quiz.choice1, quiz.choice2, quiz.choice3, quiz.choice4, quiz.hint) */\n      mload(0x40)\n      dup1\n      0xc0\n      add\n      0x40\n      mstore\n      dup1\n        /* \"contracts/ViewQuiz.sol\":514:518  quiz */\n      dup3\n        /* \"contracts/ViewQuiz.sol\":514:527  quiz.question */\n      0x00\n      add\n      mload\n        /* \"contracts/ViewQuiz.sol\":501:595  QuizQuestion(quiz.question, quiz.choice1, quiz.choice2, quiz.choice3, quiz.choice4, quiz.hint) */\n      dup2\n      mstore\n      0x20\n      add\n        /* \"contracts/ViewQuiz.sol\":529:533  quiz */\n      dup3\n        /* \"contracts/ViewQuiz.sol\":529:541  quiz.choice1 */\n      0x20\n      add\n      mload\n        /* \"contracts/ViewQuiz.sol\":501:595  QuizQuestion(quiz.question, quiz.choice1, quiz.choice2, quiz.choice3, quiz.choice4, quiz.hint) */\n      dup2\n      mstore\n      0x20\n      add\n        /* \"contracts/ViewQuiz.sol\":543:547  quiz */\n      dup3\n        /* \"contracts/ViewQuiz.sol\":543:555  quiz.choice2 */\n      0x40\n      add\n      mload\n        /* \"contracts/ViewQuiz.sol\":501:595  QuizQuestion(quiz.question, quiz.choice1, quiz.choice2, quiz.choice3, quiz.choice4, quiz.hint) */\n      dup2\n      mstore\n      0x20\n      add\n        /* \"contracts/ViewQuiz.sol\":557:561  quiz */\n      dup3\n        /* \"contracts/ViewQuiz.sol\":557:569  quiz.choice3 */\n      0x60\n      add\n      mload\n        /* \"contracts/ViewQuiz.sol\":501:595  QuizQuestion(quiz.question, quiz.choice1, quiz.choice2, quiz.choice3, quiz.choice4, quiz.hint) */\n      dup2\n      mstore\n      0x20\n      add\n        /* \"contracts/ViewQuiz.sol\":571:575  quiz */\n      dup3\n        /* \"contracts/ViewQuiz.sol\":571:583  quiz.choice4 */\n      0x80\n      add\n      mload\n        /* \"contracts/ViewQuiz.sol\":501:595  QuizQuestion(quiz.question, quiz.choice1, quiz.choice2, quiz.choice3, quiz.choice4, quiz.hint) */\n      dup2\n      mstore\n      0x20\n      add\n        /* \"contracts/ViewQuiz.sol\":585:589  quiz */\n      dup3\n        /* \"contracts/ViewQuiz.sol\":585:594  quiz.hint */\n      0xa0\n      add\n      mload\n        /* \"contracts/ViewQuiz.sol\":501:595  QuizQuestion(quiz.question, quiz.choice1, quiz.choice2, quiz.choice3, quiz.choice4, quiz.hint) */\n      dup2\n      mstore\n      pop\n        /* \"contracts/ViewQuiz.sol\":494:595  return QuizQuestion(quiz.question, quiz.choice1, quiz.choice2, quiz.choice3, quiz.choice4, quiz.hint) */\n      swap2\n      pop\n      pop\n        /* \"contracts/ViewQuiz.sol\":358:602  function getQuizQuestion(uint _quizId) public view returns (QuizQuestion memory) {... */\n      swap2\n      swap1\n      pop\n      jump\t// out\n        /* \"contracts/CreateQuiz.sol\":708:1180  function _createQuiz(string memory _question, string memory _choice1, string memory _choice2, string memory _choice3, string memory _choice4, string memory _hint, uint8 _answer, uint8 _languageCode) public {... */\n    tag_54:\n        /* \"contracts/CreateQuiz.sol\":924:931  quizzes */\n      0x01\n        /* \"contracts/CreateQuiz.sol\":937:1023  Quiz(_question, _choice1, _choice2, _choice3, _choice4, _hint, _answer, _languageCode) */\n      mload(0x40)\n      dup1\n      0x0100\n      add\n      0x40\n      mstore\n      dup1\n        /* \"contracts/CreateQuiz.sol\":942:951  _question */\n      dup11\n        /* \"contracts/CreateQuiz.sol\":937:1023  Quiz(_question, _choice1, _choice2, _choice3, _choice4, _hint, _answer, _languageCode) */\n      dup2\n      mstore\n      0x20\n      add\n        /* \"contracts/CreateQuiz.sol\":953:961  _choice1 */\n      dup10\n        /* \"contracts/CreateQuiz.sol\":937:1023  Quiz(_question, _choice1, _choice2, _choice3, _choice4, _hint, _answer, _languageCode) */\n      dup2\n      mstore\n      0x20\n      add\n        /* \"contracts/CreateQuiz.sol\":963:971  _choice2 */\n      dup9\n        /* \"contracts/CreateQuiz.sol\":937:1023  Quiz(_question, _choice1, _choice2, _choice3, _choice4, _hint, _answer, _languageCode) */\n      dup2\n      mstore\n      0x20\n      add\n        /* \"contracts/CreateQuiz.sol\":973:981  _choice3 */\n      dup8\n        /* \"contracts/CreateQuiz.sol\":937:1023  Quiz(_question, _choice1, _choice2, _choice3, _choice4, _hint, _answer, _languageCode) */\n      dup2\n      mstore\n      0x20\n      add\n        /* \"contracts/CreateQuiz.sol\":983:991  _choice4 */\n      dup7\n        /* \"contracts/CreateQuiz.sol\":937:1023  Quiz(_question, _choice1, _choice2, _choice3, _choice4, _hint, _answer, _languageCode) */\n      dup2\n      mstore\n      0x20\n      add\n        /* \"contracts/CreateQuiz.sol\":993:998  _hint */\n      dup6\n        /* \"contracts/CreateQuiz.sol\":937:1023  Quiz(_question, _choice1, _choice2, _choice3, _choice4, _hint, _answer, _languageCode) */\n      dup2\n      mstore\n      0x20\n      add\n        /* \"contracts/CreateQuiz.sol\":1000:1007  _answer */\n      dup5\n        /* \"contracts/CreateQuiz.sol\":937:1023  Quiz(_question, _choice1, _choice2, _choice3, _choice4, _hint, _answer, _languageCode) */\n      0xff\n      and\n      dup2\n      mstore\n      0x20\n      add\n        /* \"contracts/CreateQuiz.sol\":1009:1022  _languageCode */\n      dup4\n        /* \"contracts/CreateQuiz.sol\":937:1023  Quiz(_question, _choice1, _choice2, _choice3, _choice4, _hint, _answer, _languageCode) */\n      0xff\n      and\n      dup2\n      mstore\n      pop\n        /* \"contracts/CreateQuiz.sol\":924:1024  quizzes.push(Quiz(_question, _choice1, _choice2, _choice3, _choice4, _hint, _answer, _languageCode)) */\n      swap1\n      dup1\n      0x01\n      dup2\n      sload\n      add\n      dup1\n      dup3\n      sstore\n      dup1\n      swap2\n      pop\n      pop\n      0x01\n      swap1\n      sub\n      swap1\n      0x00\n      mstore\n      keccak256(0x00, 0x20)\n      swap1\n      0x07\n      mul\n      add\n      0x00\n      swap1\n      swap2\n      swap1\n      swap2\n      swap1\n      swap2\n      pop\n      0x00\n      dup3\n      add\n      mload\n      dup2\n      0x00\n      add\n      swap1\n      dup1\n      mload\n      swap1\n      0x20\n      add\n      swap1\n      tag_160\n      swap3\n      swap2\n      swap1\n      tag_161\n      jump\t// in\n    tag_160:\n      pop\n      0x20\n      dup3\n      add\n      mload\n      dup2\n      0x01\n      add\n      swap1\n      dup1\n      mload\n      swap1\n      0x20\n      add\n      swap1\n      tag_162\n      swap3\n      swap2\n      swap1\n      tag_161\n      jump\t// in\n    tag_162:\n      pop\n      0x40\n      dup3\n      add\n      mload\n      dup2\n      0x02\n      add\n      swap1\n      dup1\n      mload\n      swap1\n      0x20\n      add\n      swap1\n      tag_163\n      swap3\n      swap2\n      swap1\n      tag_161\n      jump\t// in\n    tag_163:\n      pop\n      0x60\n      dup3\n      add\n      mload\n      dup2\n      0x03\n      add\n      swap1\n      dup1\n      mload\n      swap1\n      0x20\n      add\n      swap1\n      tag_164\n      swap3\n      swap2\n      swap1\n      tag_161\n      jump\t// in\n    tag_164:\n      pop\n      0x80\n      dup3\n      add\n      mload\n      dup2\n      0x04\n      add\n      swap1\n      dup1\n      mload\n      swap1\n      0x20\n      add\n      swap1\n      tag_165\n      swap3\n      swap2\n      swap1\n      tag_161\n      jump\t// in\n    tag_165:\n      pop\n      0xa0\n      dup3\n      add\n      mload\n      dup2\n      0x05\n      add\n      swap1\n      dup1\n      mload\n      swap1\n      0x20\n      add\n      swap1\n      tag_166\n      swap3\n      swap2\n      swap1\n      tag_161\n      jump\t// in\n    tag_166:\n      pop\n      0xc0\n      dup3\n      add\n      mload\n      dup2\n      0x06\n      add\n      exp(0x0100, 0x00)\n      dup2\n      sload\n      dup2\n      0xff\n      mul\n      not\n      and\n      swap1\n      dup4\n      0xff\n      and\n      mul\n      or\n      swap1\n      sstore\n      pop\n      0xe0\n      dup3\n      add\n      mload\n      dup2\n      0x06\n      add\n      exp(0x0100, 0x01)\n      dup2\n      sload\n      dup2\n      0xff\n      mul\n      not\n      and\n      swap1\n      dup4\n      0xff\n      and\n      mul\n      or\n      swap1\n      sstore\n      pop\n      pop\n      pop\n        /* \"contracts/CreateQuiz.sol\":1034:1041  uint id */\n      0x00\n        /* \"contracts/CreateQuiz.sol\":1061:1062  1 */\n      0x01\n        /* \"contracts/CreateQuiz.sol\":1044:1051  quizzes */\n      dup1\n        /* \"contracts/CreateQuiz.sol\":1044:1058  quizzes.length */\n      dup1\n      sload\n      swap1\n      pop\n        /* \"contracts/CreateQuiz.sol\":1044:1062  quizzes.length - 1 */\n      tag_167\n      swap2\n      swap1\n      tag_168\n      jump\t// in\n    tag_167:\n        /* \"contracts/CreateQuiz.sol\":1034:1062  uint id = quizzes.length - 1 */\n      swap1\n      pop\n        /* \"contracts/CreateQuiz.sol\":1088:1098  msg.sender */\n      caller\n        /* \"contracts/CreateQuiz.sol\":1072:1081  quizOwner */\n      0x03\n        /* \"contracts/CreateQuiz.sol\":1072:1085  quizOwner[id] */\n      0x00\n        /* \"contracts/CreateQuiz.sol\":1082:1084  id */\n      dup4\n        /* \"contracts/CreateQuiz.sol\":1072:1085  quizOwner[id] */\n      dup2\n      mstore\n      0x20\n      add\n      swap1\n      dup2\n      mstore\n      0x20\n      add\n      0x00\n      keccak256\n      0x00\n        /* \"contracts/CreateQuiz.sol\":1072:1098  quizOwner[id] = msg.sender */\n      0x0100\n      exp\n      dup2\n      sload\n      dup2\n      0xffffffffffffffffffffffffffffffffffffffff\n      mul\n      not\n      and\n      swap1\n      dup4\n      0xffffffffffffffffffffffffffffffffffffffff\n      and\n      mul\n      or\n      swap1\n      sstore\n      pop\n        /* \"contracts/CreateQuiz.sol\":1127:1131  true */\n      0x01\n        /* \"contracts/CreateQuiz.sol\":1108:1120  quizIsActive */\n      0x02\n        /* \"contracts/CreateQuiz.sol\":1108:1124  quizIsActive[id] */\n      0x00\n        /* \"contracts/CreateQuiz.sol\":1121:1123  id */\n      dup4\n        /* \"contracts/CreateQuiz.sol\":1108:1124  quizIsActive[id] */\n      dup2\n      mstore\n      0x20\n      add\n      swap1\n      dup2\n      mstore\n      0x20\n      add\n      0x00\n      keccak256\n      0x00\n        /* \"contracts/CreateQuiz.sol\":1108:1131  quizIsActive[id] = true */\n      0x0100\n      exp\n      dup2\n      sload\n      dup2\n      0xff\n      mul\n      not\n      and\n      swap1\n      dup4\n      iszero\n      iszero\n      mul\n      or\n      swap1\n      sstore\n      pop\n        /* \"contracts/CreateQuiz.sol\":1146:1173  NewQuiz(_question, _answer) */\n      0x545dca5d847b655a9f03cdf5619f53f0b2546051fd0d015b18c09ae2a8b1a765\n        /* \"contracts/CreateQuiz.sol\":1154:1163  _question */\n      dup10\n        /* \"contracts/CreateQuiz.sol\":1165:1172  _answer */\n      dup5\n        /* \"contracts/CreateQuiz.sol\":1146:1173  NewQuiz(_question, _answer) */\n      mload(0x40)\n      tag_169\n      swap3\n      swap2\n      swap1\n      tag_170\n      jump\t// in\n    tag_169:\n      mload(0x40)\n      dup1\n      swap2\n      sub\n      swap1\n      log1\n        /* \"contracts/CreateQuiz.sol\":914:1180  {... */\n      pop\n        /* \"contracts/CreateQuiz.sol\":708:1180  function _createQuiz(string memory _question, string memory _choice1, string memory _choice2, string memory _choice3, string memory _choice4, string memory _hint, uint8 _answer, uint8 _languageCode) public {... */\n      pop\n      pop\n      pop\n      pop\n      pop\n      pop\n      pop\n      pop\n      jump\t// out\n        /* \"contracts/Ownable.sol\":1911:2109  function transferOwnership(address newOwner) public virtual onlyOwner {... */\n    tag_58:\n        /* \"contracts/Ownable.sol\":1252:1264  _msgSender() */\n      tag_172\n        /* \"contracts/Ownable.sol\":1252:1262  _msgSender */\n      tag_61\n        /* \"contracts/Ownable.sol\":1252:1264  _msgSender() */\n      jump\t// in\n    tag_172:\n        /* \"contracts/Ownable.sol\":1241:1264  owner() == _msgSender() */\n      0xffffffffffffffffffffffffffffffffffffffff\n      and\n        /* \"contracts/Ownable.sol\":1241:1248  owner() */\n      tag_173\n        /* \"contracts/Ownable.sol\":1241:1246  owner */\n      tag_40\n        /* \"contracts/Ownable.sol\":1241:1248  owner() */\n      jump\t// in\n    tag_173:\n        /* \"contracts/Ownable.sol\":1241:1264  owner() == _msgSender() */\n      0xffffffffffffffffffffffffffffffffffffffff\n      and\n      eq\n        /* \"contracts/Ownable.sol\":1233:1301  require(owner() == _msgSender(), \"Ownable: caller is not the owner\") */\n      tag_174\n      jumpi\n      mload(0x40)\n      0x08c379a000000000000000000000000000000000000000000000000000000000\n      dup2\n      mstore\n      0x04\n      add\n      tag_175\n      swap1\n      tag_65\n      jump\t// in\n    tag_175:\n      mload(0x40)\n      dup1\n      swap2\n      sub\n      swap1\n      revert\n    tag_174:\n        /* \"contracts/Ownable.sol\":2019:2020  0 */\n      0x00\n        /* \"contracts/Ownable.sol\":1999:2021  newOwner != address(0) */\n      0xffffffffffffffffffffffffffffffffffffffff\n      and\n        /* \"contracts/Ownable.sol\":1999:2007  newOwner */\n      dup2\n        /* \"contracts/Ownable.sol\":1999:2021  newOwner != address(0) */\n      0xffffffffffffffffffffffffffffffffffffffff\n      and\n      sub\n        /* \"contracts/Ownable.sol\":1991:2064  require(newOwner != address(0), \"Ownable: new owner is the zero address\") */\n      tag_177\n      jumpi\n      mload(0x40)\n      0x08c379a000000000000000000000000000000000000000000000000000000000\n      dup2\n      mstore\n      0x04\n      add\n      tag_178\n      swap1\n      tag_179\n      jump\t// in\n    tag_178:\n      mload(0x40)\n      dup1\n      swap2\n      sub\n      swap1\n      revert\n    tag_177:\n        /* \"contracts/Ownable.sol\":2074:2102  _transferOwnership(newOwner) */\n      tag_180\n        /* \"contracts/Ownable.sol\":2093:2101  newOwner */\n      dup2\n        /* \"contracts/Ownable.sol\":2074:2092  _transferOwnership */\n      tag_83\n        /* \"contracts/Ownable.sol\":2074:2102  _transferOwnership(newOwner) */\n      jump\t// in\n    tag_180:\n        /* \"contracts/Ownable.sol\":1911:2109  function transferOwnership(address newOwner) public virtual onlyOwner {... */\n      pop\n      jump\t// out\n        /* \"contracts/Context.sol\":640:736  function _msgSender() internal view virtual returns (address) {... */\n    tag_61:\n        /* \"contracts/Context.sol\":693:700  address */\n      0x00\n        /* \"contracts/Context.sol\":719:729  msg.sender */\n      caller\n        /* \"contracts/Context.sol\":712:729  return msg.sender */\n      swap1\n      pop\n        /* \"contracts/Context.sol\":640:736  function _msgSender() internal view virtual returns (address) {... */\n      swap1\n      jump\t// out\n        /* \"contracts/Ownable.sol\":2263:2450  function _transferOwnership(address newOwner) internal virtual {... */\n    tag_83:\n        /* \"contracts/Ownable.sol\":2336:2352  address oldOwner */\n      0x00\n        /* \"contracts/Ownable.sol\":2355:2361  _owner */\n      dup1\n      0x00\n      swap1\n      sload\n      swap1\n      0x0100\n      exp\n      swap1\n      div\n      0xffffffffffffffffffffffffffffffffffffffff\n      and\n        /* \"contracts/Ownable.sol\":2336:2361  address oldOwner = _owner */\n      swap1\n      pop\n        /* \"contracts/Ownable.sol\":2380:2388  newOwner */\n      dup2\n        /* \"contracts/Ownable.sol\":2371:2377  _owner */\n      0x00\n      dup1\n        /* \"contracts/Ownable.sol\":2371:2388  _owner = newOwner */\n      0x0100\n      exp\n      dup2\n      sload\n      dup2\n      0xffffffffffffffffffffffffffffffffffffffff\n      mul\n      not\n      and\n      swap1\n      dup4\n      0xffffffffffffffffffffffffffffffffffffffff\n      and\n      mul\n      or\n      swap1\n      sstore\n      pop\n        /* \"contracts/Ownable.sol\":2434:2442  newOwner */\n      dup2\n        /* \"contracts/Ownable.sol\":2403:2443  OwnershipTransferred(oldOwner, newOwner) */\n      0xffffffffffffffffffffffffffffffffffffffff\n      and\n        /* \"contracts/Ownable.sol\":2424:2432  oldOwner */\n      dup2\n        /* \"contracts/Ownable.sol\":2403:2443  OwnershipTransferred(oldOwner, newOwner) */\n      0xffffffffffffffffffffffffffffffffffffffff\n      and\n      0x8be0079c531659141344cd1fd0a4f28419497f9722a3daafe3b4186f6b6457e0\n      mload(0x40)\n      mload(0x40)\n      dup1\n      swap2\n      sub\n      swap1\n      log3\n        /* \"contracts/Ownable.sol\":2326:2450  {... */\n      pop\n        /* \"contracts/Ownable.sol\":2263:2450  function _transferOwnership(address newOwner) internal virtual {... */\n      pop\n      jump\t// out\n    tag_71:\n      mload(0x40)\n      dup1\n      0xc0\n      add\n      0x40\n      mstore\n      dup1\n      0x60\n      dup2\n      mstore\n      0x20\n      add\n      0x60\n      dup2\n      mstore\n      0x20\n      add\n      0x60\n      dup2\n      mstore\n      0x20\n      add\n      0x60\n      dup2\n      mstore\n      0x20\n      add\n      0x60\n      dup2\n      mstore\n      0x20\n      add\n      0x60\n      dup2\n      mstore\n      pop\n      swap1\n      jump\t// out\n    tag_86:\n      mload(0x40)\n      dup1\n      0x0100\n      add\n      0x40\n      mstore\n      dup1\n      0x60\n      dup2\n      mstore\n      0x20\n      add\n      0x60\n      dup2\n      mstore\n      0x20\n      add\n      0x60\n      dup2\n      mstore\n      0x20\n      add\n      0x60\n      dup2\n      mstore\n      0x20\n      add\n      0x60\n      dup2\n      mstore\n      0x20\n      add\n      0x60\n      dup2\n      mstore\n      0x20\n      add\n      and(0xff, 0x00)\n      dup2\n      mstore\n      0x20\n      add\n      and(0xff, 0x00)\n      dup2\n      mstore\n      pop\n      swap1\n      jump\t// out\n    tag_161:\n      dup3\n      dup1\n      sload\n      tag_183\n      swap1\n      tag_93\n      jump\t// in\n    tag_183:\n      swap1\n      0x00\n      mstore\n      keccak256(0x00, 0x20)\n      swap1\n      0x1f\n      add\n      0x20\n      swap1\n      div\n      dup2\n      add\n      swap3\n      dup3\n      tag_185\n      jumpi\n      0x00\n      dup6\n      sstore\n      jump(tag_184)\n    tag_185:\n      dup3\n      0x1f\n      lt\n      tag_186\n      jumpi\n      dup1\n      mload\n      not(0xff)\n      and\n      dup4\n      dup1\n      add\n      or\n      dup6\n      sstore\n      jump(tag_184)\n    tag_186:\n      dup3\n      dup1\n      add\n      0x01\n      add\n      dup6\n      sstore\n      dup3\n      iszero\n      tag_184\n      jumpi\n      swap2\n      dup3\n      add\n    tag_187:\n      dup3\n      dup2\n      gt\n      iszero\n      tag_188\n      jumpi\n      dup3\n      mload\n      dup3\n      sstore\n      swap2\n      0x20\n      add\n      swap2\n      swap1\n      0x01\n      add\n      swap1\n      jump(tag_187)\n    tag_188:\n    tag_184:\n      pop\n      swap1\n      pop\n      tag_189\n      swap2\n      swap1\n      tag_190\n      jump\t// in\n    tag_189:\n      pop\n      swap1\n      jump\t// out\n    tag_190:\n    tag_191:\n      dup1\n      dup3\n      gt\n      iszero\n      tag_192\n      jumpi\n      0x00\n      dup2\n      0x00\n      swap1\n      sstore\n      pop\n      0x01\n      add\n      jump(tag_191)\n    tag_192:\n      pop\n      swap1\n      jump\t// out\n        /* \"#utility.yul\":7:82   */\n    tag_193:\n        /* \"#utility.yul\":40:46   */\n      0x00\n        /* \"#utility.yul\":73:75   */\n      0x40\n        /* \"#utility.yul\":67:76   */\n      mload\n        /* \"#utility.yul\":57:76   */\n      swap1\n      pop\n        /* \"#utility.yul\":7:82   */\n      swap1\n      jump\t// out\n        /* \"#utility.yul\":88:205   */\n    tag_194:\n        /* \"#utility.yul\":197:198   */\n      0x00\n        /* \"#utility.yul\":194:195   */\n      dup1\n        /* \"#utility.yul\":187:199   */\n      revert\n        /* \"#utility.yul\":211:328   */\n    tag_195:\n        /* \"#utility.yul\":320:321   */\n      0x00\n        /* \"#utility.yul\":317:318   */\n      dup1\n        /* \"#utility.yul\":310:322   */\n      revert\n        /* \"#utility.yul\":334:411   */\n    tag_196:\n        /* \"#utility.yul\":371:378   */\n      0x00\n        /* \"#utility.yul\":400:405   */\n      dup2\n        /* \"#utility.yul\":389:405   */\n      swap1\n      pop\n        /* \"#utility.yul\":334:411   */\n      swap2\n      swap1\n      pop\n      jump\t// out\n        /* \"#utility.yul\":417:539   */\n    tag_197:\n        /* \"#utility.yul\":490:514   */\n      tag_244\n        /* \"#utility.yul\":508:513   */\n      dup2\n        /* \"#utility.yul\":490:514   */\n      tag_196\n      jump\t// in\n    tag_244:\n        /* \"#utility.yul\":483:488   */\n      dup2\n        /* \"#utility.yul\":480:515   */\n      eq\n        /* \"#utility.yul\":470:533   */\n      tag_245\n      jumpi\n        /* \"#utility.yul\":529:530   */\n      0x00\n        /* \"#utility.yul\":526:527   */\n      dup1\n        /* \"#utility.yul\":519:531   */\n      revert\n        /* \"#utility.yul\":470:533   */\n    tag_245:\n        /* \"#utility.yul\":417:539   */\n      pop\n      jump\t// out\n        /* \"#utility.yul\":545:684   */\n    tag_198:\n        /* \"#utility.yul\":591:596   */\n      0x00\n        /* \"#utility.yul\":629:635   */\n      dup2\n        /* \"#utility.yul\":616:636   */\n      calldataload\n        /* \"#utility.yul\":607:636   */\n      swap1\n      pop\n        /* \"#utility.yul\":645:678   */\n      tag_247\n        /* \"#utility.yul\":672:677   */\n      dup2\n        /* \"#utility.yul\":645:678   */\n      tag_197\n      jump\t// in\n    tag_247:\n        /* \"#utility.yul\":545:684   */\n      swap3\n      swap2\n      pop\n      pop\n      jump\t// out\n        /* \"#utility.yul\":690:780   */\n    tag_199:\n        /* \"#utility.yul\":724:731   */\n      0x00\n        /* \"#utility.yul\":767:772   */\n      dup2\n        /* \"#utility.yul\":760:773   */\n      iszero\n        /* \"#utility.yul\":753:774   */\n      iszero\n        /* \"#utility.yul\":742:774   */\n      swap1\n      pop\n        /* \"#utility.yul\":690:780   */\n      swap2\n      swap1\n      pop\n      jump\t// out\n        /* \"#utility.yul\":786:902   */\n    tag_200:\n        /* \"#utility.yul\":856:877   */\n      tag_250\n        /* \"#utility.yul\":871:876   */\n      dup2\n        /* \"#utility.yul\":856:877   */\n      tag_199\n      jump\t// in\n    tag_250:\n        /* \"#utility.yul\":849:854   */\n      dup2\n        /* \"#utility.yul\":846:878   */\n      eq\n        /* \"#utility.yul\":836:896   */\n      tag_251\n      jumpi\n        /* \"#utility.yul\":892:893   */\n      0x00\n        /* \"#utility.yul\":889:890   */\n      dup1\n        /* \"#utility.yul\":882:894   */\n      revert\n        /* \"#utility.yul\":836:896   */\n    tag_251:\n        /* \"#utility.yul\":786:902   */\n      pop\n      jump\t// out\n        /* \"#utility.yul\":908:1041   */\n    tag_201:\n        /* \"#utility.yul\":951:956   */\n      0x00\n        /* \"#utility.yul\":989:995   */\n      dup2\n        /* \"#utility.yul\":976:996   */\n      calldataload\n        /* \"#utility.yul\":967:996   */\n      swap1\n      pop\n        /* \"#utility.yul\":1005:1035   */\n      tag_253\n        /* \"#utility.yul\":1029:1034   */\n      dup2\n        /* \"#utility.yul\":1005:1035   */\n      tag_200\n      jump\t// in\n    tag_253:\n        /* \"#utility.yul\":908:1041   */\n      swap3\n      swap2\n      pop\n      pop\n      jump\t// out\n        /* \"#utility.yul\":1047:1515   */\n    tag_17:\n        /* \"#utility.yul\":1112:1118   */\n      0x00\n        /* \"#utility.yul\":1120:1126   */\n      dup1\n        /* \"#utility.yul\":1169:1171   */\n      0x40\n        /* \"#utility.yul\":1157:1166   */\n      dup4\n        /* \"#utility.yul\":1148:1155   */\n      dup6\n        /* \"#utility.yul\":1144:1167   */\n      sub\n        /* \"#utility.yul\":1140:1172   */\n      slt\n        /* \"#utility.yul\":1137:1256   */\n      iszero\n      tag_255\n      jumpi\n        /* \"#utility.yul\":1175:1254   */\n      tag_256\n      tag_194\n      jump\t// in\n    tag_256:\n        /* \"#utility.yul\":1137:1256   */\n    tag_255:\n        /* \"#utility.yul\":1295:1296   */\n      0x00\n        /* \"#utility.yul\":1320:1373   */\n      tag_257\n        /* \"#utility.yul\":1365:1372   */\n      dup6\n        /* \"#utility.yul\":1356:1362   */\n      dup3\n        /* \"#utility.yul\":1345:1354   */\n      dup7\n        /* \"#utility.yul\":1341:1363   */\n      add\n        /* \"#utility.yul\":1320:1373   */\n      tag_198\n      jump\t// in\n    tag_257:\n        /* \"#utility.yul\":1310:1373   */\n      swap3\n      pop\n        /* \"#utility.yul\":1266:1383   */\n      pop\n        /* \"#utility.yul\":1422:1424   */\n      0x20\n        /* \"#utility.yul\":1448:1498   */\n      tag_258\n        /* \"#utility.yul\":1490:1497   */\n      dup6\n        /* \"#utility.yul\":1481:1487   */\n      dup3\n        /* \"#utility.yul\":1470:1479   */\n      dup7\n        /* \"#utility.yul\":1466:1488   */\n      add\n        /* \"#utility.yul\":1448:1498   */\n      tag_201\n      jump\t// in\n    tag_258:\n        /* \"#utility.yul\":1438:1498   */\n      swap2\n      pop\n        /* \"#utility.yul\":1393:1508   */\n      pop\n        /* \"#utility.yul\":1047:1515   */\n      swap3\n      pop\n      swap3\n      swap1\n      pop\n      jump\t// out\n        /* \"#utility.yul\":1521:1850   */\n    tag_24:\n        /* \"#utility.yul\":1580:1586   */\n      0x00\n        /* \"#utility.yul\":1629:1631   */\n      0x20\n        /* \"#utility.yul\":1617:1626   */\n      dup3\n        /* \"#utility.yul\":1608:1615   */\n      dup5\n        /* \"#utility.yul\":1604:1627   */\n      sub\n        /* \"#utility.yul\":1600:1632   */\n      slt\n        /* \"#utility.yul\":1597:1716   */\n      iszero\n      tag_260\n      jumpi\n        /* \"#utility.yul\":1635:1714   */\n      tag_261\n      tag_194\n      jump\t// in\n    tag_261:\n        /* \"#utility.yul\":1597:1716   */\n    tag_260:\n        /* \"#utility.yul\":1755:1756   */\n      0x00\n        /* \"#utility.yul\":1780:1833   */\n      tag_262\n        /* \"#utility.yul\":1825:1832   */\n      dup5\n        /* \"#utility.yul\":1816:1822   */\n      dup3\n        /* \"#utility.yul\":1805:1814   */\n      dup6\n        /* \"#utility.yul\":1801:1823   */\n      add\n        /* \"#utility.yul\":1780:1833   */\n      tag_198\n      jump\t// in\n    tag_262:\n        /* \"#utility.yul\":1770:1833   */\n      swap2\n      pop\n        /* \"#utility.yul\":1726:1843   */\n      pop\n        /* \"#utility.yul\":1521:1850   */\n      swap3\n      swap2\n      pop\n      pop\n      jump\t// out\n        /* \"#utility.yul\":1856:1982   */\n    tag_202:\n        /* \"#utility.yul\":1893:1900   */\n      0x00\n        /* \"#utility.yul\":1933:1975   */\n      0xffffffffffffffffffffffffffffffffffffffff\n        /* \"#utility.yul\":1926:1931   */\n      dup3\n        /* \"#utility.yul\":1922:1976   */\n      and\n        /* \"#utility.yul\":1911:1976   */\n      swap1\n      pop\n        /* \"#utility.yul\":1856:1982   */\n      swap2\n      swap1\n      pop\n      jump\t// out\n        /* \"#utility.yul\":1988:2084   */\n    tag_203:\n        /* \"#utility.yul\":2025:2032   */\n      0x00\n        /* \"#utility.yul\":2054:2078   */\n      tag_265\n        /* \"#utility.yul\":2072:2077   */\n      dup3\n        /* \"#utility.yul\":2054:2078   */\n      tag_202\n      jump\t// in\n    tag_265:\n        /* \"#utility.yul\":2043:2078   */\n      swap1\n      pop\n        /* \"#utility.yul\":1988:2084   */\n      swap2\n      swap1\n      pop\n      jump\t// out\n        /* \"#utility.yul\":2090:2208   */\n    tag_204:\n        /* \"#utility.yul\":2177:2201   */\n      tag_267\n        /* \"#utility.yul\":2195:2200   */\n      dup2\n        /* \"#utility.yul\":2177:2201   */\n      tag_203\n      jump\t// in\n    tag_267:\n        /* \"#utility.yul\":2172:2175   */\n      dup3\n        /* \"#utility.yul\":2165:2202   */\n      mstore\n        /* \"#utility.yul\":2090:2208   */\n      pop\n      pop\n      jump\t// out\n        /* \"#utility.yul\":2214:2436   */\n    tag_27:\n        /* \"#utility.yul\":2307:2311   */\n      0x00\n        /* \"#utility.yul\":2345:2347   */\n      0x20\n        /* \"#utility.yul\":2334:2343   */\n      dup3\n        /* \"#utility.yul\":2330:2348   */\n      add\n        /* \"#utility.yul\":2322:2348   */\n      swap1\n      pop\n        /* \"#utility.yul\":2358:2429   */\n      tag_269\n        /* \"#utility.yul\":2426:2427   */\n      0x00\n        /* \"#utility.yul\":2415:2424   */\n      dup4\n        /* \"#utility.yul\":2411:2428   */\n      add\n        /* \"#utility.yul\":2402:2408   */\n      dup5\n        /* \"#utility.yul\":2358:2429   */\n      tag_204\n      jump\t// in\n    tag_269:\n        /* \"#utility.yul\":2214:2436   */\n      swap3\n      swap2\n      pop\n      pop\n      jump\t// out\n        /* \"#utility.yul\":2442:2541   */\n    tag_205:\n        /* \"#utility.yul\":2494:2500   */\n      0x00\n        /* \"#utility.yul\":2528:2533   */\n      dup2\n        /* \"#utility.yul\":2522:2534   */\n      mload\n        /* \"#utility.yul\":2512:2534   */\n      swap1\n      pop\n        /* \"#utility.yul\":2442:2541   */\n      swap2\n      swap1\n      pop\n      jump\t// out\n        /* \"#utility.yul\":2547:2706   */\n    tag_206:\n        /* \"#utility.yul\":2621:2632   */\n      0x00\n        /* \"#utility.yul\":2655:2661   */\n      dup3\n        /* \"#utility.yul\":2650:2653   */\n      dup3\n        /* \"#utility.yul\":2643:2662   */\n      mstore\n        /* \"#utility.yul\":2695:2699   */\n      0x20\n        /* \"#utility.yul\":2690:2693   */\n      dup3\n        /* \"#utility.yul\":2686:2700   */\n      add\n        /* \"#utility.yul\":2671:2700   */\n      swap1\n      pop\n        /* \"#utility.yul\":2547:2706   */\n      swap3\n      swap2\n      pop\n      pop\n      jump\t// out\n        /* \"#utility.yul\":2712:3019   */\n    tag_207:\n        /* \"#utility.yul\":2780:2781   */\n      0x00\n        /* \"#utility.yul\":2790:2903   */\n    tag_273:\n        /* \"#utility.yul\":2804:2810   */\n      dup4\n        /* \"#utility.yul\":2801:2802   */\n      dup2\n        /* \"#utility.yul\":2798:2811   */\n      lt\n        /* \"#utility.yul\":2790:2903   */\n      iszero\n      tag_275\n      jumpi\n        /* \"#utility.yul\":2889:2890   */\n      dup1\n        /* \"#utility.yul\":2884:2887   */\n      dup3\n        /* \"#utility.yul\":2880:2891   */\n      add\n        /* \"#utility.yul\":2874:2892   */\n      mload\n        /* \"#utility.yul\":2870:2871   */\n      dup2\n        /* \"#utility.yul\":2865:2868   */\n      dup5\n        /* \"#utility.yul\":2861:2872   */\n      add\n        /* \"#utility.yul\":2854:2893   */\n      mstore\n        /* \"#utility.yul\":2826:2828   */\n      0x20\n        /* \"#utility.yul\":2823:2824   */\n      dup2\n        /* \"#utility.yul\":2819:2829   */\n      add\n        /* \"#utility.yul\":2814:2829   */\n      swap1\n      pop\n        /* \"#utility.yul\":2790:2903   */\n      jump(tag_273)\n    tag_275:\n        /* \"#utility.yul\":2921:2927   */\n      dup4\n        /* \"#utility.yul\":2918:2919   */\n      dup2\n        /* \"#utility.yul\":2915:2928   */\n      gt\n        /* \"#utility.yul\":2912:3013   */\n      iszero\n      tag_276\n      jumpi\n        /* \"#utility.yul\":3001:3002   */\n      0x00\n        /* \"#utility.yul\":2992:2998   */\n      dup5\n        /* \"#utility.yul\":2987:2990   */\n      dup5\n        /* \"#utility.yul\":2983:2999   */\n      add\n        /* \"#utility.yul\":2976:3003   */\n      mstore\n        /* \"#utility.yul\":2912:3013   */\n    tag_276:\n        /* \"#utility.yul\":2761:3019   */\n      pop\n        /* \"#utility.yul\":2712:3019   */\n      pop\n      pop\n      pop\n      jump\t// out\n        /* \"#utility.yul\":3025:3127   */\n    tag_208:\n        /* \"#utility.yul\":3066:3072   */\n      0x00\n        /* \"#utility.yul\":3117:3119   */\n      0x1f\n        /* \"#utility.yul\":3113:3120   */\n      not\n        /* \"#utility.yul\":3108:3110   */\n      0x1f\n        /* \"#utility.yul\":3101:3106   */\n      dup4\n        /* \"#utility.yul\":3097:3111   */\n      add\n        /* \"#utility.yul\":3093:3121   */\n      and\n        /* \"#utility.yul\":3083:3121   */\n      swap1\n      pop\n        /* \"#utility.yul\":3025:3127   */\n      swap2\n      swap1\n      pop\n      jump\t// out\n        /* \"#utility.yul\":3133:3477   */\n    tag_209:\n        /* \"#utility.yul\":3211:3214   */\n      0x00\n        /* \"#utility.yul\":3239:3278   */\n      tag_279\n        /* \"#utility.yul\":3272:3277   */\n      dup3\n        /* \"#utility.yul\":3239:3278   */\n      tag_205\n      jump\t// in\n    tag_279:\n        /* \"#utility.yul\":3294:3355   */\n      tag_280\n        /* \"#utility.yul\":3348:3354   */\n      dup2\n        /* \"#utility.yul\":3343:3346   */\n      dup6\n        /* \"#utility.yul\":3294:3355   */\n      tag_206\n      jump\t// in\n    tag_280:\n        /* \"#utility.yul\":3287:3355   */\n      swap4\n      pop\n        /* \"#utility.yul\":3364:3416   */\n      tag_281\n        /* \"#utility.yul\":3409:3415   */\n      dup2\n        /* \"#utility.yul\":3404:3407   */\n      dup6\n        /* \"#utility.yul\":3397:3401   */\n      0x20\n        /* \"#utility.yul\":3390:3395   */\n      dup7\n        /* \"#utility.yul\":3386:3402   */\n      add\n        /* \"#utility.yul\":3364:3416   */\n      tag_207\n      jump\t// in\n    tag_281:\n        /* \"#utility.yul\":3441:3470   */\n      tag_282\n        /* \"#utility.yul\":3463:3469   */\n      dup2\n        /* \"#utility.yul\":3441:3470   */\n      tag_208\n      jump\t// in\n    tag_282:\n        /* \"#utility.yul\":3436:3439   */\n      dup5\n        /* \"#utility.yul\":3432:3471   */\n      add\n        /* \"#utility.yul\":3425:3471   */\n      swap2\n      pop\n        /* \"#utility.yul\":3215:3477   */\n      pop\n        /* \"#utility.yul\":3133:3477   */\n      swap3\n      swap2\n      pop\n      pop\n      jump\t// out\n        /* \"#utility.yul\":3551:5232   */\n    tag_210:\n        /* \"#utility.yul\":3678:3681   */\n      0x00\n        /* \"#utility.yul\":3714:3718   */\n      0xc0\n        /* \"#utility.yul\":3709:3712   */\n      dup4\n        /* \"#utility.yul\":3705:3719   */\n      add\n        /* \"#utility.yul\":3805:3809   */\n      0x00\n        /* \"#utility.yul\":3798:3803   */\n      dup4\n        /* \"#utility.yul\":3794:3810   */\n      add\n        /* \"#utility.yul\":3788:3811   */\n      mload\n        /* \"#utility.yul\":3858:3861   */\n      dup5\n        /* \"#utility.yul\":3852:3856   */\n      dup3\n        /* \"#utility.yul\":3848:3862   */\n      sub\n        /* \"#utility.yul\":3841:3845   */\n      0x00\n        /* \"#utility.yul\":3836:3839   */\n      dup7\n        /* \"#utility.yul\":3832:3846   */\n      add\n        /* \"#utility.yul\":3825:3863   */\n      mstore\n        /* \"#utility.yul\":3884:3957   */\n      tag_284\n        /* \"#utility.yul\":3952:3956   */\n      dup3\n        /* \"#utility.yul\":3938:3950   */\n      dup3\n        /* \"#utility.yul\":3884:3957   */\n      tag_209\n      jump\t// in\n    tag_284:\n        /* \"#utility.yul\":3876:3957   */\n      swap2\n      pop\n        /* \"#utility.yul\":3729:3968   */\n      pop\n        /* \"#utility.yul\":4053:4057   */\n      0x20\n        /* \"#utility.yul\":4046:4051   */\n      dup4\n        /* \"#utility.yul\":4042:4058   */\n      add\n        /* \"#utility.yul\":4036:4059   */\n      mload\n        /* \"#utility.yul\":4106:4109   */\n      dup5\n        /* \"#utility.yul\":4100:4104   */\n      dup3\n        /* \"#utility.yul\":4096:4110   */\n      sub\n        /* \"#utility.yul\":4089:4093   */\n      0x20\n        /* \"#utility.yul\":4084:4087   */\n      dup7\n        /* \"#utility.yul\":4080:4094   */\n      add\n        /* \"#utility.yul\":4073:4111   */\n      mstore\n        /* \"#utility.yul\":4132:4205   */\n      tag_285\n        /* \"#utility.yul\":4200:4204   */\n      dup3\n        /* \"#utility.yul\":4186:4198   */\n      dup3\n        /* \"#utility.yul\":4132:4205   */\n      tag_209\n      jump\t// in\n    tag_285:\n        /* \"#utility.yul\":4124:4205   */\n      swap2\n      pop\n        /* \"#utility.yul\":3978:4216   */\n      pop\n        /* \"#utility.yul\":4301:4305   */\n      0x40\n        /* \"#utility.yul\":4294:4299   */\n      dup4\n        /* \"#utility.yul\":4290:4306   */\n      add\n        /* \"#utility.yul\":4284:4307   */\n      mload\n        /* \"#utility.yul\":4354:4357   */\n      dup5\n        /* \"#utility.yul\":4348:4352   */\n      dup3\n        /* \"#utility.yul\":4344:4358   */\n      sub\n        /* \"#utility.yul\":4337:4341   */\n      0x40\n        /* \"#utility.yul\":4332:4335   */\n      dup7\n        /* \"#utility.yul\":4328:4342   */\n      add\n        /* \"#utility.yul\":4321:4359   */\n      mstore\n        /* \"#utility.yul\":4380:4453   */\n      tag_286\n        /* \"#utility.yul\":4448:4452   */\n      dup3\n        /* \"#utility.yul\":4434:4446   */\n      dup3\n        /* \"#utility.yul\":4380:4453   */\n      tag_209\n      jump\t// in\n    tag_286:\n        /* \"#utility.yul\":4372:4453   */\n      swap2\n      pop\n        /* \"#utility.yul\":4226:4464   */\n      pop\n        /* \"#utility.yul\":4549:4553   */\n      0x60\n        /* \"#utility.yul\":4542:4547   */\n      dup4\n        /* \"#utility.yul\":4538:4554   */\n      add\n        /* \"#utility.yul\":4532:4555   */\n      mload\n        /* \"#utility.yul\":4602:4605   */\n      dup5\n        /* \"#utility.yul\":4596:4600   */\n      dup3\n        /* \"#utility.yul\":4592:4606   */\n      sub\n        /* \"#utility.yul\":4585:4589   */\n      0x60\n        /* \"#utility.yul\":4580:4583   */\n      dup7\n        /* \"#utility.yul\":4576:4590   */\n      add\n        /* \"#utility.yul\":4569:4607   */\n      mstore\n        /* \"#utility.yul\":4628:4701   */\n      tag_287\n        /* \"#utility.yul\":4696:4700   */\n      dup3\n        /* \"#utility.yul\":4682:4694   */\n      dup3\n        /* \"#utility.yul\":4628:4701   */\n      tag_209\n      jump\t// in\n    tag_287:\n        /* \"#utility.yul\":4620:4701   */\n      swap2\n      pop\n        /* \"#utility.yul\":4474:4712   */\n      pop\n        /* \"#utility.yul\":4797:4801   */\n      0x80\n        /* \"#utility.yul\":4790:4795   */\n      dup4\n        /* \"#utility.yul\":4786:4802   */\n      add\n        /* \"#utility.yul\":4780:4803   */\n      mload\n        /* \"#utility.yul\":4850:4853   */\n      dup5\n        /* \"#utility.yul\":4844:4848   */\n      dup3\n        /* \"#utility.yul\":4840:4854   */\n      sub\n        /* \"#utility.yul\":4833:4837   */\n      0x80\n        /* \"#utility.yul\":4828:4831   */\n      dup7\n        /* \"#utility.yul\":4824:4838   */\n      add\n        /* \"#utility.yul\":4817:4855   */\n      mstore\n        /* \"#utility.yul\":4876:4949   */\n      tag_288\n        /* \"#utility.yul\":4944:4948   */\n      dup3\n        /* \"#utility.yul\":4930:4942   */\n      dup3\n        /* \"#utility.yul\":4876:4949   */\n      tag_209\n      jump\t// in\n    tag_288:\n        /* \"#utility.yul\":4868:4949   */\n      swap2\n      pop\n        /* \"#utility.yul\":4722:4960   */\n      pop\n        /* \"#utility.yul\":5042:5046   */\n      0xa0\n        /* \"#utility.yul\":5035:5040   */\n      dup4\n        /* \"#utility.yul\":5031:5047   */\n      add\n        /* \"#utility.yul\":5025:5048   */\n      mload\n        /* \"#utility.yul\":5095:5098   */\n      dup5\n        /* \"#utility.yul\":5089:5093   */\n      dup3\n        /* \"#utility.yul\":5085:5099   */\n      sub\n        /* \"#utility.yul\":5078:5082   */\n      0xa0\n        /* \"#utility.yul\":5073:5076   */\n      dup7\n        /* \"#utility.yul\":5069:5083   */\n      add\n        /* \"#utility.yul\":5062:5100   */\n      mstore\n        /* \"#utility.yul\":5121:5194   */\n      tag_289\n        /* \"#utility.yul\":5189:5193   */\n      dup3\n        /* \"#utility.yul\":5175:5187   */\n      dup3\n        /* \"#utility.yul\":5121:5194   */\n      tag_209\n      jump\t// in\n    tag_289:\n        /* \"#utility.yul\":5113:5194   */\n      swap2\n      pop\n        /* \"#utility.yul\":4970:5205   */\n      pop\n        /* \"#utility.yul\":5222:5226   */\n      dup1\n        /* \"#utility.yul\":5215:5226   */\n      swap2\n      pop\n        /* \"#utility.yul\":3683:5232   */\n      pop\n        /* \"#utility.yul\":3551:5232   */\n      swap3\n      swap2\n      pop\n      pop\n      jump\t// out\n        /* \"#utility.yul\":5238:5627   */\n    tag_31:\n        /* \"#utility.yul\":5389:5393   */\n      0x00\n        /* \"#utility.yul\":5427:5429   */\n      0x20\n        /* \"#utility.yul\":5416:5425   */\n      dup3\n        /* \"#utility.yul\":5412:5430   */\n      add\n        /* \"#utility.yul\":5404:5430   */\n      swap1\n      pop\n        /* \"#utility.yul\":5476:5485   */\n      dup2\n        /* \"#utility.yul\":5470:5474   */\n      dup2\n        /* \"#utility.yul\":5466:5486   */\n      sub\n        /* \"#utility.yul\":5462:5463   */\n      0x00\n        /* \"#utility.yul\":5451:5460   */\n      dup4\n        /* \"#utility.yul\":5447:5464   */\n      add\n        /* \"#utility.yul\":5440:5487   */\n      mstore\n        /* \"#utility.yul\":5504:5620   */\n      tag_291\n        /* \"#utility.yul\":5615:5619   */\n      dup2\n        /* \"#utility.yul\":5606:5612   */\n      dup5\n        /* \"#utility.yul\":5504:5620   */\n      tag_210\n      jump\t// in\n    tag_291:\n        /* \"#utility.yul\":5496:5620   */\n      swap1\n      pop\n        /* \"#utility.yul\":5238:5627   */\n      swap3\n      swap2\n      pop\n      pop\n      jump\t// out\n        /* \"#utility.yul\":5633:5742   */\n    tag_211:\n        /* \"#utility.yul\":5714:5735   */\n      tag_293\n        /* \"#utility.yul\":5729:5734   */\n      dup2\n        /* \"#utility.yul\":5714:5735   */\n      tag_199\n      jump\t// in\n    tag_293:\n        /* \"#utility.yul\":5709:5712   */\n      dup3\n        /* \"#utility.yul\":5702:5736   */\n      mstore\n        /* \"#utility.yul\":5633:5742   */\n      pop\n      pop\n      jump\t// out\n        /* \"#utility.yul\":5748:5958   */\n    tag_36:\n        /* \"#utility.yul\":5835:5839   */\n      0x00\n        /* \"#utility.yul\":5873:5875   */\n      0x20\n        /* \"#utility.yul\":5862:5871   */\n      dup3\n        /* \"#utility.yul\":5858:5876   */\n      add\n        /* \"#utility.yul\":5850:5876   */\n      swap1\n      pop\n        /* \"#utility.yul\":5886:5951   */\n      tag_295\n        /* \"#utility.yul\":5948:5949   */\n      0x00\n        /* \"#utility.yul\":5937:5946   */\n      dup4\n        /* \"#utility.yul\":5933:5950   */\n      add\n        /* \"#utility.yul\":5924:5930   */\n      dup5\n        /* \"#utility.yul\":5886:5951   */\n      tag_211\n      jump\t// in\n    tag_295:\n        /* \"#utility.yul\":5748:5958   */\n      swap3\n      swap2\n      pop\n      pop\n      jump\t// out\n        /* \"#utility.yul\":5964:6050   */\n    tag_212:\n        /* \"#utility.yul\":5999:6006   */\n      0x00\n        /* \"#utility.yul\":6039:6043   */\n      0xff\n        /* \"#utility.yul\":6032:6037   */\n      dup3\n        /* \"#utility.yul\":6028:6044   */\n      and\n        /* \"#utility.yul\":6017:6044   */\n      swap1\n      pop\n        /* \"#utility.yul\":5964:6050   */\n      swap2\n      swap1\n      pop\n      jump\t// out\n        /* \"#utility.yul\":6056:6158   */\n    tag_213:\n        /* \"#utility.yul\":6129:6151   */\n      tag_298\n        /* \"#utility.yul\":6145:6150   */\n      dup2\n        /* \"#utility.yul\":6129:6151   */\n      tag_212\n      jump\t// in\n    tag_298:\n        /* \"#utility.yul\":6124:6127   */\n      dup3\n        /* \"#utility.yul\":6117:6152   */\n      mstore\n        /* \"#utility.yul\":6056:6158   */\n      pop\n      pop\n      jump\t// out\n        /* \"#utility.yul\":6220:8235   */\n    tag_214:\n        /* \"#utility.yul\":6329:6332   */\n      0x00\n        /* \"#utility.yul\":6365:6371   */\n      0x0100\n        /* \"#utility.yul\":6360:6363   */\n      dup4\n        /* \"#utility.yul\":6356:6372   */\n      add\n        /* \"#utility.yul\":6458:6462   */\n      0x00\n        /* \"#utility.yul\":6451:6456   */\n      dup4\n        /* \"#utility.yul\":6447:6463   */\n      add\n        /* \"#utility.yul\":6441:6464   */\n      mload\n        /* \"#utility.yul\":6511:6514   */\n      dup5\n        /* \"#utility.yul\":6505:6509   */\n      dup3\n        /* \"#utility.yul\":6501:6515   */\n      sub\n        /* \"#utility.yul\":6494:6498   */\n      0x00\n        /* \"#utility.yul\":6489:6492   */\n      dup7\n        /* \"#utility.yul\":6485:6499   */\n      add\n        /* \"#utility.yul\":6478:6516   */\n      mstore\n        /* \"#utility.yul\":6537:6610   */\n      tag_300\n        /* \"#utility.yul\":6605:6609   */\n      dup3\n        /* \"#utility.yul\":6591:6603   */\n      dup3\n        /* \"#utility.yul\":6537:6610   */\n      tag_209\n      jump\t// in\n    tag_300:\n        /* \"#utility.yul\":6529:6610   */\n      swap2\n      pop\n        /* \"#utility.yul\":6382:6621   */\n      pop\n        /* \"#utility.yul\":6706:6710   */\n      0x20\n        /* \"#utility.yul\":6699:6704   */\n      dup4\n        /* \"#utility.yul\":6695:6711   */\n      add\n        /* \"#utility.yul\":6689:6712   */\n      mload\n        /* \"#utility.yul\":6759:6762   */\n      dup5\n        /* \"#utility.yul\":6753:6757   */\n      dup3\n        /* \"#utility.yul\":6749:6763   */\n      sub\n        /* \"#utility.yul\":6742:6746   */\n      0x20\n        /* \"#utility.yul\":6737:6740   */\n      dup7\n        /* \"#utility.yul\":6733:6747   */\n      add\n        /* \"#utility.yul\":6726:6764   */\n      mstore\n        /* \"#utility.yul\":6785:6858   */\n      tag_301\n        /* \"#utility.yul\":6853:6857   */\n      dup3\n        /* \"#utility.yul\":6839:6851   */\n      dup3\n        /* \"#utility.yul\":6785:6858   */\n      tag_209\n      jump\t// in\n    tag_301:\n        /* \"#utility.yul\":6777:6858   */\n      swap2\n      pop\n        /* \"#utility.yul\":6631:6869   */\n      pop\n        /* \"#utility.yul\":6954:6958   */\n      0x40\n        /* \"#utility.yul\":6947:6952   */\n      dup4\n        /* \"#utility.yul\":6943:6959   */\n      add\n        /* \"#utility.yul\":6937:6960   */\n      mload\n        /* \"#utility.yul\":7007:7010   */\n      dup5\n        /* \"#utility.yul\":7001:7005   */\n      dup3\n        /* \"#utility.yul\":6997:7011   */\n      sub\n        /* \"#utility.yul\":6990:6994   */\n      0x40\n        /* \"#utility.yul\":6985:6988   */\n      dup7\n        /* \"#utility.yul\":6981:6995   */\n      add\n        /* \"#utility.yul\":6974:7012   */\n      mstore\n        /* \"#utility.yul\":7033:7106   */\n      tag_302\n        /* \"#utility.yul\":7101:7105   */\n      dup3\n        /* \"#utility.yul\":7087:7099   */\n      dup3\n        /* \"#utility.yul\":7033:7106   */\n      tag_209\n      jump\t// in\n    tag_302:\n        /* \"#utility.yul\":7025:7106   */\n      swap2\n      pop\n        /* \"#utility.yul\":6879:7117   */\n      pop\n        /* \"#utility.yul\":7202:7206   */\n      0x60\n        /* \"#utility.yul\":7195:7200   */\n      dup4\n        /* \"#utility.yul\":7191:7207   */\n      add\n        /* \"#utility.yul\":7185:7208   */\n      mload\n        /* \"#utility.yul\":7255:7258   */\n      dup5\n        /* \"#utility.yul\":7249:7253   */\n      dup3\n        /* \"#utility.yul\":7245:7259   */\n      sub\n        /* \"#utility.yul\":7238:7242   */\n      0x60\n        /* \"#utility.yul\":7233:7236   */\n      dup7\n        /* \"#utility.yul\":7229:7243   */\n      add\n        /* \"#utility.yul\":7222:7260   */\n      mstore\n        /* \"#utility.yul\":7281:7354   */\n      tag_303\n        /* \"#utility.yul\":7349:7353   */\n      dup3\n        /* \"#utility.yul\":7335:7347   */\n      dup3\n        /* \"#utility.yul\":7281:7354   */\n      tag_209\n      jump\t// in\n    tag_303:\n        /* \"#utility.yul\":7273:7354   */\n      swap2\n      pop\n        /* \"#utility.yul\":7127:7365   */\n      pop\n        /* \"#utility.yul\":7450:7454   */\n      0x80\n        /* \"#utility.yul\":7443:7448   */\n      dup4\n        /* \"#utility.yul\":7439:7455   */\n      add\n        /* \"#utility.yul\":7433:7456   */\n      mload\n        /* \"#utility.yul\":7503:7506   */\n      dup5\n        /* \"#utility.yul\":7497:7501   */\n      dup3\n        /* \"#utility.yul\":7493:7507   */\n      sub\n        /* \"#utility.yul\":7486:7490   */\n      0x80\n        /* \"#utility.yul\":7481:7484   */\n      dup7\n        /* \"#utility.yul\":7477:7491   */\n      add\n        /* \"#utility.yul\":7470:7508   */\n      mstore\n        /* \"#utility.yul\":7529:7602   */\n      tag_304\n        /* \"#utility.yul\":7597:7601   */\n      dup3\n        /* \"#utility.yul\":7583:7595   */\n      dup3\n        /* \"#utility.yul\":7529:7602   */\n      tag_209\n      jump\t// in\n    tag_304:\n        /* \"#utility.yul\":7521:7602   */\n      swap2\n      pop\n        /* \"#utility.yul\":7375:7613   */\n      pop\n        /* \"#utility.yul\":7695:7699   */\n      0xa0\n        /* \"#utility.yul\":7688:7693   */\n      dup4\n        /* \"#utility.yul\":7684:7700   */\n      add\n        /* \"#utility.yul\":7678:7701   */\n      mload\n        /* \"#utility.yul\":7748:7751   */\n      dup5\n        /* \"#utility.yul\":7742:7746   */\n      dup3\n        /* \"#utility.yul\":7738:7752   */\n      sub\n        /* \"#utility.yul\":7731:7735   */\n      0xa0\n        /* \"#utility.yul\":7726:7729   */\n      dup7\n        /* \"#utility.yul\":7722:7736   */\n      add\n        /* \"#utility.yul\":7715:7753   */\n      mstore\n        /* \"#utility.yul\":7774:7847   */\n      tag_305\n        /* \"#utility.yul\":7842:7846   */\n      dup3\n        /* \"#utility.yul\":7828:7840   */\n      dup3\n        /* \"#utility.yul\":7774:7847   */\n      tag_209\n      jump\t// in\n    tag_305:\n        /* \"#utility.yul\":7766:7847   */\n      swap2\n      pop\n        /* \"#utility.yul\":7623:7858   */\n      pop\n        /* \"#utility.yul\":7942:7946   */\n      0xc0\n        /* \"#utility.yul\":7935:7940   */\n      dup4\n        /* \"#utility.yul\":7931:7947   */\n      add\n        /* \"#utility.yul\":7925:7948   */\n      mload\n        /* \"#utility.yul\":7961:8020   */\n      tag_306\n        /* \"#utility.yul\":8014:8018   */\n      0xc0\n        /* \"#utility.yul\":8009:8012   */\n      dup7\n        /* \"#utility.yul\":8005:8019   */\n      add\n        /* \"#utility.yul\":7991:8003   */\n      dup3\n        /* \"#utility.yul\":7961:8020   */\n      tag_213\n      jump\t// in\n    tag_306:\n        /* \"#utility.yul\":7868:8030   */\n      pop\n        /* \"#utility.yul\":8120:8124   */\n      0xe0\n        /* \"#utility.yul\":8113:8118   */\n      dup4\n        /* \"#utility.yul\":8109:8125   */\n      add\n        /* \"#utility.yul\":8103:8126   */\n      mload\n        /* \"#utility.yul\":8139:8198   */\n      tag_307\n        /* \"#utility.yul\":8192:8196   */\n      0xe0\n        /* \"#utility.yul\":8187:8190   */\n      dup7\n        /* \"#utility.yul\":8183:8197   */\n      add\n        /* \"#utility.yul\":8169:8181   */\n      dup3\n        /* \"#utility.yul\":8139:8198   */\n      tag_213\n      jump\t// in\n    tag_307:\n        /* \"#utility.yul\":8040:8208   */\n      pop\n        /* \"#utility.yul\":8225:8229   */\n      dup1\n        /* \"#utility.yul\":8218:8229   */\n      swap2\n      pop\n        /* \"#utility.yul\":6334:8235   */\n      pop\n        /* \"#utility.yul\":6220:8235   */\n      swap3\n      swap2\n      pop\n      pop\n      jump\t// out\n        /* \"#utility.yul\":8241:8594   */\n    tag_46:\n        /* \"#utility.yul\":8374:8378   */\n      0x00\n        /* \"#utility.yul\":8412:8414   */\n      0x20\n        /* \"#utility.yul\":8401:8410   */\n      dup3\n        /* \"#utility.yul\":8397:8415   */\n      add\n        /* \"#utility.yul\":8389:8415   */\n      swap1\n      pop\n        /* \"#utility.yul\":8461:8470   */\n      dup2\n        /* \"#utility.yul\":8455:8459   */\n      dup2\n        /* \"#utility.yul\":8451:8471   */\n      sub\n        /* \"#utility.yul\":8447:8448   */\n      0x00\n        /* \"#utility.yul\":8436:8445   */\n      dup4\n        /* \"#utility.yul\":8432:8449   */\n      add\n        /* \"#utility.yul\":8425:8472   */\n      mstore\n        /* \"#utility.yul\":8489:8587   */\n      tag_309\n        /* \"#utility.yul\":8582:8586   */\n      dup2\n        /* \"#utility.yul\":8573:8579   */\n      dup5\n        /* \"#utility.yul\":8489:8587   */\n      tag_214\n      jump\t// in\n    tag_309:\n        /* \"#utility.yul\":8481:8587   */\n      swap1\n      pop\n        /* \"#utility.yul\":8241:8594   */\n      swap3\n      swap2\n      pop\n      pop\n      jump\t// out\n        /* \"#utility.yul\":8600:8717   */\n    tag_215:\n        /* \"#utility.yul\":8709:8710   */\n      0x00\n        /* \"#utility.yul\":8706:8707   */\n      dup1\n        /* \"#utility.yul\":8699:8711   */\n      revert\n        /* \"#utility.yul\":8723:8840   */\n    tag_216:\n        /* \"#utility.yul\":8832:8833   */\n      0x00\n        /* \"#utility.yul\":8829:8830   */\n      dup1\n        /* \"#utility.yul\":8822:8834   */\n      revert\n        /* \"#utility.yul\":8846:9026   */\n    tag_217:\n        /* \"#utility.yul\":8894:8971   */\n      0x4e487b7100000000000000000000000000000000000000000000000000000000\n        /* \"#utility.yul\":8891:8892   */\n      0x00\n        /* \"#utility.yul\":8884:8972   */\n      mstore\n        /* \"#utility.yul\":8991:8995   */\n      0x41\n        /* \"#utility.yul\":8988:8989   */\n      0x04\n        /* \"#utility.yul\":8981:8996   */\n      mstore\n        /* \"#utility.yul\":9015:9019   */\n      0x24\n        /* \"#utility.yul\":9012:9013   */\n      0x00\n        /* \"#utility.yul\":9005:9020   */\n      revert\n        /* \"#utility.yul\":9032:9313   */\n    tag_218:\n        /* \"#utility.yul\":9115:9142   */\n      tag_314\n        /* \"#utility.yul\":9137:9141   */\n      dup3\n        /* \"#utility.yul\":9115:9142   */\n      tag_208\n      jump\t// in\n    tag_314:\n        /* \"#utility.yul\":9107:9113   */\n      dup2\n        /* \"#utility.yul\":9103:9143   */\n      add\n        /* \"#utility.yul\":9245:9251   */\n      dup2\n        /* \"#utility.yul\":9233:9243   */\n      dup2\n        /* \"#utility.yul\":9230:9252   */\n      lt\n        /* \"#utility.yul\":9209:9227   */\n      0xffffffffffffffff\n        /* \"#utility.yul\":9197:9207   */\n      dup3\n        /* \"#utility.yul\":9194:9228   */\n      gt\n        /* \"#utility.yul\":9191:9253   */\n      or\n        /* \"#utility.yul\":9188:9276   */\n      iszero\n      tag_315\n      jumpi\n        /* \"#utility.yul\":9256:9274   */\n      tag_316\n      tag_217\n      jump\t// in\n    tag_316:\n        /* \"#utility.yul\":9188:9276   */\n    tag_315:\n        /* \"#utility.yul\":9296:9306   */\n      dup1\n        /* \"#utility.yul\":9292:9294   */\n      0x40\n        /* \"#utility.yul\":9285:9307   */\n      mstore\n        /* \"#utility.yul\":9075:9313   */\n      pop\n        /* \"#utility.yul\":9032:9313   */\n      pop\n      pop\n      jump\t// out\n        /* \"#utility.yul\":9319:9448   */\n    tag_219:\n        /* \"#utility.yul\":9353:9359   */\n      0x00\n        /* \"#utility.yul\":9380:9400   */\n      tag_318\n      tag_193\n      jump\t// in\n    tag_318:\n        /* \"#utility.yul\":9370:9400   */\n      swap1\n      pop\n        /* \"#utility.yul\":9409:9442   */\n      tag_319\n        /* \"#utility.yul\":9437:9441   */\n      dup3\n        /* \"#utility.yul\":9429:9435   */\n      dup3\n        /* \"#utility.yul\":9409:9442   */\n      tag_218\n      jump\t// in\n    tag_319:\n        /* \"#utility.yul\":9319:9448   */\n      swap2\n      swap1\n      pop\n      jump\t// out\n        /* \"#utility.yul\":9454:9762   */\n    tag_220:\n        /* \"#utility.yul\":9516:9520   */\n      0x00\n        /* \"#utility.yul\":9606:9624   */\n      0xffffffffffffffff\n        /* \"#utility.yul\":9598:9604   */\n      dup3\n        /* \"#utility.yul\":9595:9625   */\n      gt\n        /* \"#utility.yul\":9592:9648   */\n      iszero\n      tag_321\n      jumpi\n        /* \"#utility.yul\":9628:9646   */\n      tag_322\n      tag_217\n      jump\t// in\n    tag_322:\n        /* \"#utility.yul\":9592:9648   */\n    tag_321:\n        /* \"#utility.yul\":9666:9695   */\n      tag_323\n        /* \"#utility.yul\":9688:9694   */\n      dup3\n        /* \"#utility.yul\":9666:9695   */\n      tag_208\n      jump\t// in\n    tag_323:\n        /* \"#utility.yul\":9658:9695   */\n      swap1\n      pop\n        /* \"#utility.yul\":9750:9754   */\n      0x20\n        /* \"#utility.yul\":9744:9748   */\n      dup2\n        /* \"#utility.yul\":9740:9755   */\n      add\n        /* \"#utility.yul\":9732:9755   */\n      swap1\n      pop\n        /* \"#utility.yul\":9454:9762   */\n      swap2\n      swap1\n      pop\n      jump\t// out\n        /* \"#utility.yul\":9768:9922   */\n    tag_221:\n        /* \"#utility.yul\":9852:9858   */\n      dup3\n        /* \"#utility.yul\":9847:9850   */\n      dup2\n        /* \"#utility.yul\":9842:9845   */\n      dup4\n        /* \"#utility.yul\":9829:9859   */\n      calldatacopy\n        /* \"#utility.yul\":9914:9915   */\n      0x00\n        /* \"#utility.yul\":9905:9911   */\n      dup4\n        /* \"#utility.yul\":9900:9903   */\n      dup4\n        /* \"#utility.yul\":9896:9912   */\n      add\n        /* \"#utility.yul\":9889:9916   */\n      mstore\n        /* \"#utility.yul\":9768:9922   */\n      pop\n      pop\n      pop\n      jump\t// out\n        /* \"#utility.yul\":9928:10340   */\n    tag_222:\n        /* \"#utility.yul\":10006:10011   */\n      0x00\n        /* \"#utility.yul\":10031:10097   */\n      tag_326\n        /* \"#utility.yul\":10047:10096   */\n      tag_327\n        /* \"#utility.yul\":10089:10095   */\n      dup5\n        /* \"#utility.yul\":10047:10096   */\n      tag_220\n      jump\t// in\n    tag_327:\n        /* \"#utility.yul\":10031:10097   */\n      tag_219\n      jump\t// in\n    tag_326:\n        /* \"#utility.yul\":10022:10097   */\n      swap1\n      pop\n        /* \"#utility.yul\":10120:10126   */\n      dup3\n        /* \"#utility.yul\":10113:10118   */\n      dup2\n        /* \"#utility.yul\":10106:10127   */\n      mstore\n        /* \"#utility.yul\":10158:10162   */\n      0x20\n        /* \"#utility.yul\":10151:10156   */\n      dup2\n        /* \"#utility.yul\":10147:10163   */\n      add\n        /* \"#utility.yul\":10196:10199   */\n      dup5\n        /* \"#utility.yul\":10187:10193   */\n      dup5\n        /* \"#utility.yul\":10182:10185   */\n      dup5\n        /* \"#utility.yul\":10178:10194   */\n      add\n        /* \"#utility.yul\":10175:10200   */\n      gt\n        /* \"#utility.yul\":10172:10284   */\n      iszero\n      tag_328\n      jumpi\n        /* \"#utility.yul\":10203:10282   */\n      tag_329\n      tag_216\n      jump\t// in\n    tag_329:\n        /* \"#utility.yul\":10172:10284   */\n    tag_328:\n        /* \"#utility.yul\":10293:10334   */\n      tag_330\n        /* \"#utility.yul\":10327:10333   */\n      dup5\n        /* \"#utility.yul\":10322:10325   */\n      dup3\n        /* \"#utility.yul\":10317:10320   */\n      dup6\n        /* \"#utility.yul\":10293:10334   */\n      tag_221\n      jump\t// in\n    tag_330:\n        /* \"#utility.yul\":10012:10340   */\n      pop\n        /* \"#utility.yul\":9928:10340   */\n      swap4\n      swap3\n      pop\n      pop\n      pop\n      jump\t// out\n        /* \"#utility.yul\":10360:10700   */\n    tag_223:\n        /* \"#utility.yul\":10416:10421   */\n      0x00\n        /* \"#utility.yul\":10465:10468   */\n      dup3\n        /* \"#utility.yul\":10458:10462   */\n      0x1f\n        /* \"#utility.yul\":10450:10456   */\n      dup4\n        /* \"#utility.yul\":10446:10463   */\n      add\n        /* \"#utility.yul\":10442:10469   */\n      slt\n        /* \"#utility.yul\":10432:10554   */\n      tag_332\n      jumpi\n        /* \"#utility.yul\":10473:10552   */\n      tag_333\n      tag_215\n      jump\t// in\n    tag_333:\n        /* \"#utility.yul\":10432:10554   */\n    tag_332:\n        /* \"#utility.yul\":10590:10596   */\n      dup2\n        /* \"#utility.yul\":10577:10597   */\n      calldataload\n        /* \"#utility.yul\":10615:10694   */\n      tag_334\n        /* \"#utility.yul\":10690:10693   */\n      dup5\n        /* \"#utility.yul\":10682:10688   */\n      dup3\n        /* \"#utility.yul\":10675:10679   */\n      0x20\n        /* \"#utility.yul\":10667:10673   */\n      dup7\n        /* \"#utility.yul\":10663:10680   */\n      add\n        /* \"#utility.yul\":10615:10694   */\n      tag_222\n      jump\t// in\n    tag_334:\n        /* \"#utility.yul\":10606:10694   */\n      swap2\n      pop\n        /* \"#utility.yul\":10422:10700   */\n      pop\n        /* \"#utility.yul\":10360:10700   */\n      swap3\n      swap2\n      pop\n      pop\n      jump\t// out\n        /* \"#utility.yul\":10706:10824   */\n    tag_224:\n        /* \"#utility.yul\":10777:10799   */\n      tag_336\n        /* \"#utility.yul\":10793:10798   */\n      dup2\n        /* \"#utility.yul\":10777:10799   */\n      tag_212\n      jump\t// in\n    tag_336:\n        /* \"#utility.yul\":10770:10775   */\n      dup2\n        /* \"#utility.yul\":10767:10800   */\n      eq\n        /* \"#utility.yul\":10757:10818   */\n      tag_337\n      jumpi\n        /* \"#utility.yul\":10814:10815   */\n      0x00\n        /* \"#utility.yul\":10811:10812   */\n      dup1\n        /* \"#utility.yul\":10804:10816   */\n      revert\n        /* \"#utility.yul\":10757:10818   */\n    tag_337:\n        /* \"#utility.yul\":10706:10824   */\n      pop\n      jump\t// out\n        /* \"#utility.yul\":10830:10965   */\n    tag_225:\n        /* \"#utility.yul\":10874:10879   */\n      0x00\n        /* \"#utility.yul\":10912:10918   */\n      dup2\n        /* \"#utility.yul\":10899:10919   */\n      calldataload\n        /* \"#utility.yul\":10890:10919   */\n      swap1\n      pop\n        /* \"#utility.yul\":10928:10959   */\n      tag_339\n        /* \"#utility.yul\":10953:10958   */\n      dup2\n        /* \"#utility.yul\":10928:10959   */\n      tag_224\n      jump\t// in\n    tag_339:\n        /* \"#utility.yul\":10830:10965   */\n      swap3\n      swap2\n      pop\n      pop\n      jump\t// out\n        /* \"#utility.yul\":10971:13392   */\n    tag_53:\n        /* \"#utility.yul\":11149:11155   */\n      0x00\n        /* \"#utility.yul\":11157:11163   */\n      dup1\n        /* \"#utility.yul\":11165:11171   */\n      0x00\n        /* \"#utility.yul\":11173:11179   */\n      dup1\n        /* \"#utility.yul\":11181:11187   */\n      0x00\n        /* \"#utility.yul\":11189:11195   */\n      dup1\n        /* \"#utility.yul\":11197:11203   */\n      0x00\n        /* \"#utility.yul\":11205:11211   */\n      dup1\n        /* \"#utility.yul\":11254:11257   */\n      0x0100\n        /* \"#utility.yul\":11242:11251   */\n      dup10\n        /* \"#utility.yul\":11233:11240   */\n      dup12\n        /* \"#utility.yul\":11229:11252   */\n      sub\n        /* \"#utility.yul\":11225:11258   */\n      slt\n        /* \"#utility.yul\":11222:11342   */\n      iszero\n      tag_341\n      jumpi\n        /* \"#utility.yul\":11261:11340   */\n      tag_342\n      tag_194\n      jump\t// in\n    tag_342:\n        /* \"#utility.yul\":11222:11342   */\n    tag_341:\n        /* \"#utility.yul\":11409:11410   */\n      0x00\n        /* \"#utility.yul\":11398:11407   */\n      dup10\n        /* \"#utility.yul\":11394:11411   */\n      add\n        /* \"#utility.yul\":11381:11412   */\n      calldataload\n        /* \"#utility.yul\":11439:11457   */\n      0xffffffffffffffff\n        /* \"#utility.yul\":11431:11437   */\n      dup2\n        /* \"#utility.yul\":11428:11458   */\n      gt\n        /* \"#utility.yul\":11425:11542   */\n      iszero\n      tag_343\n      jumpi\n        /* \"#utility.yul\":11461:11540   */\n      tag_344\n      tag_195\n      jump\t// in\n    tag_344:\n        /* \"#utility.yul\":11425:11542   */\n    tag_343:\n        /* \"#utility.yul\":11566:11629   */\n      tag_345\n        /* \"#utility.yul\":11621:11628   */\n      dup12\n        /* \"#utility.yul\":11612:11618   */\n      dup3\n        /* \"#utility.yul\":11601:11610   */\n      dup13\n        /* \"#utility.yul\":11597:11619   */\n      add\n        /* \"#utility.yul\":11566:11629   */\n      tag_223\n      jump\t// in\n    tag_345:\n        /* \"#utility.yul\":11556:11629   */\n      swap9\n      pop\n        /* \"#utility.yul\":11352:11639   */\n      pop\n        /* \"#utility.yul\":11706:11708   */\n      0x20\n        /* \"#utility.yul\":11695:11704   */\n      dup10\n        /* \"#utility.yul\":11691:11709   */\n      add\n        /* \"#utility.yul\":11678:11710   */\n      calldataload\n        /* \"#utility.yul\":11737:11755   */\n      0xffffffffffffffff\n        /* \"#utility.yul\":11729:11735   */\n      dup2\n        /* \"#utility.yul\":11726:11756   */\n      gt\n        /* \"#utility.yul\":11723:11840   */\n      iszero\n      tag_346\n      jumpi\n        /* \"#utility.yul\":11759:11838   */\n      tag_347\n      tag_195\n      jump\t// in\n    tag_347:\n        /* \"#utility.yul\":11723:11840   */\n    tag_346:\n        /* \"#utility.yul\":11864:11927   */\n      tag_348\n        /* \"#utility.yul\":11919:11926   */\n      dup12\n        /* \"#utility.yul\":11910:11916   */\n      dup3\n        /* \"#utility.yul\":11899:11908   */\n      dup13\n        /* \"#utility.yul\":11895:11917   */\n      add\n        /* \"#utility.yul\":11864:11927   */\n      tag_223\n      jump\t// in\n    tag_348:\n        /* \"#utility.yul\":11854:11927   */\n      swap8\n      pop\n        /* \"#utility.yul\":11649:11937   */\n      pop\n        /* \"#utility.yul\":12004:12006   */\n      0x40\n        /* \"#utility.yul\":11993:12002   */\n      dup10\n        /* \"#utility.yul\":11989:12007   */\n      add\n        /* \"#utility.yul\":11976:12008   */\n      calldataload\n        /* \"#utility.yul\":12035:12053   */\n      0xffffffffffffffff\n        /* \"#utility.yul\":12027:12033   */\n      dup2\n        /* \"#utility.yul\":12024:12054   */\n      gt\n        /* \"#utility.yul\":12021:12138   */\n      iszero\n      tag_349\n      jumpi\n        /* \"#utility.yul\":12057:12136   */\n      tag_350\n      tag_195\n      jump\t// in\n    tag_350:\n        /* \"#utility.yul\":12021:12138   */\n    tag_349:\n        /* \"#utility.yul\":12162:12225   */\n      tag_351\n        /* \"#utility.yul\":12217:12224   */\n      dup12\n        /* \"#utility.yul\":12208:12214   */\n      dup3\n        /* \"#utility.yul\":12197:12206   */\n      dup13\n        /* \"#utility.yul\":12193:12215   */\n      add\n        /* \"#utility.yul\":12162:12225   */\n      tag_223\n      jump\t// in\n    tag_351:\n        /* \"#utility.yul\":12152:12225   */\n      swap7\n      pop\n        /* \"#utility.yul\":11947:12235   */\n      pop\n        /* \"#utility.yul\":12302:12304   */\n      0x60\n        /* \"#utility.yul\":12291:12300   */\n      dup10\n        /* \"#utility.yul\":12287:12305   */\n      add\n        /* \"#utility.yul\":12274:12306   */\n      calldataload\n        /* \"#utility.yul\":12333:12351   */\n      0xffffffffffffffff\n        /* \"#utility.yul\":12325:12331   */\n      dup2\n        /* \"#utility.yul\":12322:12352   */\n      gt\n        /* \"#utility.yul\":12319:12436   */\n      iszero\n      tag_352\n      jumpi\n        /* \"#utility.yul\":12355:12434   */\n      tag_353\n      tag_195\n      jump\t// in\n    tag_353:\n        /* \"#utility.yul\":12319:12436   */\n    tag_352:\n        /* \"#utility.yul\":12460:12523   */\n      tag_354\n        /* \"#utility.yul\":12515:12522   */\n      dup12\n        /* \"#utility.yul\":12506:12512   */\n      dup3\n        /* \"#utility.yul\":12495:12504   */\n      dup13\n        /* \"#utility.yul\":12491:12513   */\n      add\n        /* \"#utility.yul\":12460:12523   */\n      tag_223\n      jump\t// in\n    tag_354:\n        /* \"#utility.yul\":12450:12523   */\n      swap6\n      pop\n        /* \"#utility.yul\":12245:12533   */\n      pop\n        /* \"#utility.yul\":12600:12603   */\n      0x80\n        /* \"#utility.yul\":12589:12598   */\n      dup10\n        /* \"#utility.yul\":12585:12604   */\n      add\n        /* \"#utility.yul\":12572:12605   */\n      calldataload\n        /* \"#utility.yul\":12632:12650   */\n      0xffffffffffffffff\n        /* \"#utility.yul\":12624:12630   */\n      dup2\n        /* \"#utility.yul\":12621:12651   */\n      gt\n        /* \"#utility.yul\":12618:12735   */\n      iszero\n      tag_355\n      jumpi\n        /* \"#utility.yul\":12654:12733   */\n      tag_356\n      tag_195\n      jump\t// in\n    tag_356:\n        /* \"#utility.yul\":12618:12735   */\n    tag_355:\n        /* \"#utility.yul\":12759:12822   */\n      tag_357\n        /* \"#utility.yul\":12814:12821   */\n      dup12\n        /* \"#utility.yul\":12805:12811   */\n      dup3\n        /* \"#utility.yul\":12794:12803   */\n      dup13\n        /* \"#utility.yul\":12790:12812   */\n      add\n        /* \"#utility.yul\":12759:12822   */\n      tag_223\n      jump\t// in\n    tag_357:\n        /* \"#utility.yul\":12749:12822   */\n      swap5\n      pop\n        /* \"#utility.yul\":12543:12832   */\n      pop\n        /* \"#utility.yul\":12899:12902   */\n      0xa0\n        /* \"#utility.yul\":12888:12897   */\n      dup10\n        /* \"#utility.yul\":12884:12903   */\n      add\n        /* \"#utility.yul\":12871:12904   */\n      calldataload\n        /* \"#utility.yul\":12931:12949   */\n      0xffffffffffffffff\n        /* \"#utility.yul\":12923:12929   */\n      dup2\n        /* \"#utility.yul\":12920:12950   */\n      gt\n        /* \"#utility.yul\":12917:13034   */\n      iszero\n      tag_358\n      jumpi\n        /* \"#utility.yul\":12953:13032   */\n      tag_359\n      tag_195\n      jump\t// in\n    tag_359:\n        /* \"#utility.yul\":12917:13034   */\n    tag_358:\n        /* \"#utility.yul\":13058:13121   */\n      tag_360\n        /* \"#utility.yul\":13113:13120   */\n      dup12\n        /* \"#utility.yul\":13104:13110   */\n      dup3\n        /* \"#utility.yul\":13093:13102   */\n      dup13\n        /* \"#utility.yul\":13089:13111   */\n      add\n        /* \"#utility.yul\":13058:13121   */\n      tag_223\n      jump\t// in\n    tag_360:\n        /* \"#utility.yul\":13048:13121   */\n      swap4\n      pop\n        /* \"#utility.yul\":12842:13131   */\n      pop\n        /* \"#utility.yul\":13170:13173   */\n      0xc0\n        /* \"#utility.yul\":13197:13248   */\n      tag_361\n        /* \"#utility.yul\":13240:13247   */\n      dup12\n        /* \"#utility.yul\":13231:13237   */\n      dup3\n        /* \"#utility.yul\":13220:13229   */\n      dup13\n        /* \"#utility.yul\":13216:13238   */\n      add\n        /* \"#utility.yul\":13197:13248   */\n      tag_225\n      jump\t// in\n    tag_361:\n        /* \"#utility.yul\":13187:13248   */\n      swap3\n      pop\n        /* \"#utility.yul\":13141:13258   */\n      pop\n        /* \"#utility.yul\":13297:13300   */\n      0xe0\n        /* \"#utility.yul\":13324:13375   */\n      tag_362\n        /* \"#utility.yul\":13367:13374   */\n      dup12\n        /* \"#utility.yul\":13358:13364   */\n      dup3\n        /* \"#utility.yul\":13347:13356   */\n      dup13\n        /* \"#utility.yul\":13343:13365   */\n      add\n        /* \"#utility.yul\":13324:13375   */\n      tag_225\n      jump\t// in\n    tag_362:\n        /* \"#utility.yul\":13314:13375   */\n      swap2\n      pop\n        /* \"#utility.yul\":13268:13385   */\n      pop\n        /* \"#utility.yul\":10971:13392   */\n      swap3\n      swap6\n      swap9\n      pop\n      swap3\n      swap6\n      swap9\n      swap1\n      swap4\n      swap7\n      pop\n      jump\t// out\n        /* \"#utility.yul\":13398:13520   */\n    tag_226:\n        /* \"#utility.yul\":13471:13495   */\n      tag_364\n        /* \"#utility.yul\":13489:13494   */\n      dup2\n        /* \"#utility.yul\":13471:13495   */\n      tag_203\n      jump\t// in\n    tag_364:\n        /* \"#utility.yul\":13464:13469   */\n      dup2\n        /* \"#utility.yul\":13461:13496   */\n      eq\n        /* \"#utility.yul\":13451:13514   */\n      tag_365\n      jumpi\n        /* \"#utility.yul\":13510:13511   */\n      0x00\n        /* \"#utility.yul\":13507:13508   */\n      dup1\n        /* \"#utility.yul\":13500:13512   */\n      revert\n        /* \"#utility.yul\":13451:13514   */\n    tag_365:\n        /* \"#utility.yul\":13398:13520   */\n      pop\n      jump\t// out\n        /* \"#utility.yul\":13526:13665   */\n    tag_227:\n        /* \"#utility.yul\":13572:13577   */\n      0x00\n        /* \"#utility.yul\":13610:13616   */\n      dup2\n        /* \"#utility.yul\":13597:13617   */\n      calldataload\n        /* \"#utility.yul\":13588:13617   */\n      swap1\n      pop\n        /* \"#utility.yul\":13626:13659   */\n      tag_367\n        /* \"#utility.yul\":13653:13658   */\n      dup2\n        /* \"#utility.yul\":13626:13659   */\n      tag_226\n      jump\t// in\n    tag_367:\n        /* \"#utility.yul\":13526:13665   */\n      swap3\n      swap2\n      pop\n      pop\n      jump\t// out\n        /* \"#utility.yul\":13671:14000   */\n    tag_57:\n        /* \"#utility.yul\":13730:13736   */\n      0x00\n        /* \"#utility.yul\":13779:13781   */\n      0x20\n        /* \"#utility.yul\":13767:13776   */\n      dup3\n        /* \"#utility.yul\":13758:13765   */\n      dup5\n        /* \"#utility.yul\":13754:13777   */\n      sub\n        /* \"#utility.yul\":13750:13782   */\n      slt\n        /* \"#utility.yul\":13747:13866   */\n      iszero\n      tag_369\n      jumpi\n        /* \"#utility.yul\":13785:13864   */\n      tag_370\n      tag_194\n      jump\t// in\n    tag_370:\n        /* \"#utility.yul\":13747:13866   */\n    tag_369:\n        /* \"#utility.yul\":13905:13906   */\n      0x00\n        /* \"#utility.yul\":13930:13983   */\n      tag_371\n        /* \"#utility.yul\":13975:13982   */\n      dup5\n        /* \"#utility.yul\":13966:13972   */\n      dup3\n        /* \"#utility.yul\":13955:13964   */\n      dup6\n        /* \"#utility.yul\":13951:13973   */\n      add\n        /* \"#utility.yul\":13930:13983   */\n      tag_227\n      jump\t// in\n    tag_371:\n        /* \"#utility.yul\":13920:13983   */\n      swap2\n      pop\n        /* \"#utility.yul\":13876:13993   */\n      pop\n        /* \"#utility.yul\":13671:14000   */\n      swap3\n      swap2\n      pop\n      pop\n      jump\t// out\n        /* \"#utility.yul\":14006:14175   */\n    tag_228:\n        /* \"#utility.yul\":14090:14101   */\n      0x00\n        /* \"#utility.yul\":14124:14130   */\n      dup3\n        /* \"#utility.yul\":14119:14122   */\n      dup3\n        /* \"#utility.yul\":14112:14131   */\n      mstore\n        /* \"#utility.yul\":14164:14168   */\n      0x20\n        /* \"#utility.yul\":14159:14162   */\n      dup3\n        /* \"#utility.yul\":14155:14169   */\n      add\n        /* \"#utility.yul\":14140:14169   */\n      swap1\n      pop\n        /* \"#utility.yul\":14006:14175   */\n      swap3\n      swap2\n      pop\n      pop\n      jump\t// out\n        /* \"#utility.yul\":14181:14363   */\n    tag_229:\n        /* \"#utility.yul\":14321:14355   */\n      0x4f776e61626c653a2063616c6c6572206973206e6f7420746865206f776e6572\n        /* \"#utility.yul\":14317:14318   */\n      0x00\n        /* \"#utility.yul\":14309:14315   */\n      dup3\n        /* \"#utility.yul\":14305:14319   */\n      add\n        /* \"#utility.yul\":14298:14356   */\n      mstore\n        /* \"#utility.yul\":14181:14363   */\n      pop\n      jump\t// out\n        /* \"#utility.yul\":14369:14735   */\n    tag_230:\n        /* \"#utility.yul\":14511:14514   */\n      0x00\n        /* \"#utility.yul\":14532:14599   */\n      tag_375\n        /* \"#utility.yul\":14596:14598   */\n      0x20\n        /* \"#utility.yul\":14591:14594   */\n      dup4\n        /* \"#utility.yul\":14532:14599   */\n      tag_228\n      jump\t// in\n    tag_375:\n        /* \"#utility.yul\":14525:14599   */\n      swap2\n      pop\n        /* \"#utility.yul\":14608:14701   */\n      tag_376\n        /* \"#utility.yul\":14697:14700   */\n      dup3\n        /* \"#utility.yul\":14608:14701   */\n      tag_229\n      jump\t// in\n    tag_376:\n        /* \"#utility.yul\":14726:14728   */\n      0x20\n        /* \"#utility.yul\":14721:14724   */\n      dup3\n        /* \"#utility.yul\":14717:14729   */\n      add\n        /* \"#utility.yul\":14710:14729   */\n      swap1\n      pop\n        /* \"#utility.yul\":14369:14735   */\n      swap2\n      swap1\n      pop\n      jump\t// out\n        /* \"#utility.yul\":14741:15160   */\n    tag_65:\n        /* \"#utility.yul\":14907:14911   */\n      0x00\n        /* \"#utility.yul\":14945:14947   */\n      0x20\n        /* \"#utility.yul\":14934:14943   */\n      dup3\n        /* \"#utility.yul\":14930:14948   */\n      add\n        /* \"#utility.yul\":14922:14948   */\n      swap1\n      pop\n        /* \"#utility.yul\":14994:15003   */\n      dup2\n        /* \"#utility.yul\":14988:14992   */\n      dup2\n        /* \"#utility.yul\":14984:15004   */\n      sub\n        /* \"#utility.yul\":14980:14981   */\n      0x00\n        /* \"#utility.yul\":14969:14978   */\n      dup4\n        /* \"#utility.yul\":14965:14982   */\n      add\n        /* \"#utility.yul\":14958:15005   */\n      mstore\n        /* \"#utility.yul\":15022:15153   */\n      tag_378\n        /* \"#utility.yul\":15148:15152   */\n      dup2\n        /* \"#utility.yul\":15022:15153   */\n      tag_230\n      jump\t// in\n    tag_378:\n        /* \"#utility.yul\":15014:15153   */\n      swap1\n      pop\n        /* \"#utility.yul\":14741:15160   */\n      swap2\n      swap1\n      pop\n      jump\t// out\n        /* \"#utility.yul\":15166:15346   */\n    tag_231:\n        /* \"#utility.yul\":15214:15291   */\n      0x4e487b7100000000000000000000000000000000000000000000000000000000\n        /* \"#utility.yul\":15211:15212   */\n      0x00\n        /* \"#utility.yul\":15204:15292   */\n      mstore\n        /* \"#utility.yul\":15311:15315   */\n      0x12\n        /* \"#utility.yul\":15308:15309   */\n      0x04\n        /* \"#utility.yul\":15301:15316   */\n      mstore\n        /* \"#utility.yul\":15335:15339   */\n      0x24\n        /* \"#utility.yul\":15332:15333   */\n      0x00\n        /* \"#utility.yul\":15325:15340   */\n      revert\n        /* \"#utility.yul\":15352:15528   */\n    tag_74:\n        /* \"#utility.yul\":15384:15385   */\n      0x00\n        /* \"#utility.yul\":15401:15421   */\n      tag_381\n        /* \"#utility.yul\":15419:15420   */\n      dup3\n        /* \"#utility.yul\":15401:15421   */\n      tag_196\n      jump\t// in\n    tag_381:\n        /* \"#utility.yul\":15396:15421   */\n      swap2\n      pop\n        /* \"#utility.yul\":15435:15455   */\n      tag_382\n        /* \"#utility.yul\":15453:15454   */\n      dup4\n        /* \"#utility.yul\":15435:15455   */\n      tag_196\n      jump\t// in\n    tag_382:\n        /* \"#utility.yul\":15430:15455   */\n      swap3\n      pop\n        /* \"#utility.yul\":15474:15475   */\n      dup3\n        /* \"#utility.yul\":15464:15499   */\n      tag_383\n      jumpi\n        /* \"#utility.yul\":15479:15497   */\n      tag_384\n      tag_231\n      jump\t// in\n    tag_384:\n        /* \"#utility.yul\":15464:15499   */\n    tag_383:\n        /* \"#utility.yul\":15520:15521   */\n      dup3\n        /* \"#utility.yul\":15517:15518   */\n      dup3\n        /* \"#utility.yul\":15513:15522   */\n      mod\n        /* \"#utility.yul\":15508:15522   */\n      swap1\n      pop\n        /* \"#utility.yul\":15352:15528   */\n      swap3\n      swap2\n      pop\n      pop\n      jump\t// out\n        /* \"#utility.yul\":15534:15714   */\n    tag_90:\n        /* \"#utility.yul\":15582:15659   */\n      0x4e487b7100000000000000000000000000000000000000000000000000000000\n        /* \"#utility.yul\":15579:15580   */\n      0x00\n        /* \"#utility.yul\":15572:15660   */\n      mstore\n        /* \"#utility.yul\":15679:15683   */\n      0x32\n        /* \"#utility.yul\":15676:15677   */\n      0x04\n        /* \"#utility.yul\":15669:15684   */\n      mstore\n        /* \"#utility.yul\":15703:15707   */\n      0x24\n        /* \"#utility.yul\":15700:15701   */\n      0x00\n        /* \"#utility.yul\":15693:15708   */\n      revert\n        /* \"#utility.yul\":15720:15900   */\n    tag_232:\n        /* \"#utility.yul\":15768:15845   */\n      0x4e487b7100000000000000000000000000000000000000000000000000000000\n        /* \"#utility.yul\":15765:15766   */\n      0x00\n        /* \"#utility.yul\":15758:15846   */\n      mstore\n        /* \"#utility.yul\":15865:15869   */\n      0x22\n        /* \"#utility.yul\":15862:15863   */\n      0x04\n        /* \"#utility.yul\":15855:15870   */\n      mstore\n        /* \"#utility.yul\":15889:15893   */\n      0x24\n        /* \"#utility.yul\":15886:15887   */\n      0x00\n        /* \"#utility.yul\":15879:15894   */\n      revert\n        /* \"#utility.yul\":15906:16226   */\n    tag_93:\n        /* \"#utility.yul\":15950:15956   */\n      0x00\n        /* \"#utility.yul\":15987:15988   */\n      0x02\n        /* \"#utility.yul\":15981:15985   */\n      dup3\n        /* \"#utility.yul\":15977:15989   */\n      div\n        /* \"#utility.yul\":15967:15989   */\n      swap1\n      pop\n        /* \"#utility.yul\":16034:16035   */\n      0x01\n        /* \"#utility.yul\":16028:16032   */\n      dup3\n        /* \"#utility.yul\":16024:16036   */\n      and\n        /* \"#utility.yul\":16055:16073   */\n      dup1\n        /* \"#utility.yul\":16045:16126   */\n      tag_388\n      jumpi\n        /* \"#utility.yul\":16111:16115   */\n      0x7f\n        /* \"#utility.yul\":16103:16109   */\n      dup3\n        /* \"#utility.yul\":16099:16116   */\n      and\n        /* \"#utility.yul\":16089:16116   */\n      swap2\n      pop\n        /* \"#utility.yul\":16045:16126   */\n    tag_388:\n        /* \"#utility.yul\":16173:16175   */\n      0x20\n        /* \"#utility.yul\":16165:16171   */\n      dup3\n        /* \"#utility.yul\":16162:16176   */\n      lt\n        /* \"#utility.yul\":16142:16160   */\n      dup2\n        /* \"#utility.yul\":16139:16177   */\n      sub\n        /* \"#utility.yul\":16136:16220   */\n      tag_389\n      jumpi\n        /* \"#utility.yul\":16192:16210   */\n      tag_390\n      tag_232\n      jump\t// in\n    tag_390:\n        /* \"#utility.yul\":16136:16220   */\n    tag_389:\n        /* \"#utility.yul\":15957:16226   */\n      pop\n        /* \"#utility.yul\":15906:16226   */\n      swap2\n      swap1\n      pop\n      jump\t// out\n        /* \"#utility.yul\":16232:16412   */\n    tag_233:\n        /* \"#utility.yul\":16280:16357   */\n      0x4e487b7100000000000000000000000000000000000000000000000000000000\n        /* \"#utility.yul\":16277:16278   */\n      0x00\n        /* \"#utility.yul\":16270:16358   */\n      mstore\n        /* \"#utility.yul\":16377:16381   */\n      0x11\n        /* \"#utility.yul\":16374:16375   */\n      0x04\n        /* \"#utility.yul\":16367:16382   */\n      mstore\n        /* \"#utility.yul\":16401:16405   */\n      0x24\n        /* \"#utility.yul\":16398:16399   */\n      0x00\n        /* \"#utility.yul\":16391:16406   */\n      revert\n        /* \"#utility.yul\":16418:16609   */\n    tag_168:\n        /* \"#utility.yul\":16458:16462   */\n      0x00\n        /* \"#utility.yul\":16478:16498   */\n      tag_393\n        /* \"#utility.yul\":16496:16497   */\n      dup3\n        /* \"#utility.yul\":16478:16498   */\n      tag_196\n      jump\t// in\n    tag_393:\n        /* \"#utility.yul\":16473:16498   */\n      swap2\n      pop\n        /* \"#utility.yul\":16512:16532   */\n      tag_394\n        /* \"#utility.yul\":16530:16531   */\n      dup4\n        /* \"#utility.yul\":16512:16532   */\n      tag_196\n      jump\t// in\n    tag_394:\n        /* \"#utility.yul\":16507:16532   */\n      swap3\n      pop\n        /* \"#utility.yul\":16551:16552   */\n      dup3\n        /* \"#utility.yul\":16548:16549   */\n      dup3\n        /* \"#utility.yul\":16545:16553   */\n      lt\n        /* \"#utility.yul\":16542:16576   */\n      iszero\n      tag_395\n      jumpi\n        /* \"#utility.yul\":16556:16574   */\n      tag_396\n      tag_233\n      jump\t// in\n    tag_396:\n        /* \"#utility.yul\":16542:16576   */\n    tag_395:\n        /* \"#utility.yul\":16601:16602   */\n      dup3\n        /* \"#utility.yul\":16598:16599   */\n      dup3\n        /* \"#utility.yul\":16594:16603   */\n      sub\n        /* \"#utility.yul\":16586:16603   */\n      swap1\n      pop\n        /* \"#utility.yul\":16418:16609   */\n      swap3\n      swap2\n      pop\n      pop\n      jump\t// out\n        /* \"#utility.yul\":16615:16979   */\n    tag_234:\n        /* \"#utility.yul\":16703:16706   */\n      0x00\n        /* \"#utility.yul\":16731:16770   */\n      tag_398\n        /* \"#utility.yul\":16764:16769   */\n      dup3\n        /* \"#utility.yul\":16731:16770   */\n      tag_205\n      jump\t// in\n    tag_398:\n        /* \"#utility.yul\":16786:16857   */\n      tag_399\n        /* \"#utility.yul\":16850:16856   */\n      dup2\n        /* \"#utility.yul\":16845:16848   */\n      dup6\n        /* \"#utility.yul\":16786:16857   */\n      tag_228\n      jump\t// in\n    tag_399:\n        /* \"#utility.yul\":16779:16857   */\n      swap4\n      pop\n        /* \"#utility.yul\":16866:16918   */\n      tag_400\n        /* \"#utility.yul\":16911:16917   */\n      dup2\n        /* \"#utility.yul\":16906:16909   */\n      dup6\n        /* \"#utility.yul\":16899:16903   */\n      0x20\n        /* \"#utility.yul\":16892:16897   */\n      dup7\n        /* \"#utility.yul\":16888:16904   */\n      add\n        /* \"#utility.yul\":16866:16918   */\n      tag_207\n      jump\t// in\n    tag_400:\n        /* \"#utility.yul\":16943:16972   */\n      tag_401\n        /* \"#utility.yul\":16965:16971   */\n      dup2\n        /* \"#utility.yul\":16943:16972   */\n      tag_208\n      jump\t// in\n    tag_401:\n        /* \"#utility.yul\":16938:16941   */\n      dup5\n        /* \"#utility.yul\":16934:16973   */\n      add\n        /* \"#utility.yul\":16927:16973   */\n      swap2\n      pop\n        /* \"#utility.yul\":16707:16979   */\n      pop\n        /* \"#utility.yul\":16615:16979   */\n      swap3\n      swap2\n      pop\n      pop\n      jump\t// out\n        /* \"#utility.yul\":16985:17097   */\n    tag_235:\n        /* \"#utility.yul\":17068:17090   */\n      tag_403\n        /* \"#utility.yul\":17084:17089   */\n      dup2\n        /* \"#utility.yul\":17068:17090   */\n      tag_212\n      jump\t// in\n    tag_403:\n        /* \"#utility.yul\":17063:17066   */\n      dup3\n        /* \"#utility.yul\":17056:17091   */\n      mstore\n        /* \"#utility.yul\":16985:17097   */\n      pop\n      pop\n      jump\t// out\n        /* \"#utility.yul\":17103:17518   */\n    tag_170:\n        /* \"#utility.yul\":17240:17244   */\n      0x00\n        /* \"#utility.yul\":17278:17280   */\n      0x40\n        /* \"#utility.yul\":17267:17276   */\n      dup3\n        /* \"#utility.yul\":17263:17281   */\n      add\n        /* \"#utility.yul\":17255:17281   */\n      swap1\n      pop\n        /* \"#utility.yul\":17327:17336   */\n      dup2\n        /* \"#utility.yul\":17321:17325   */\n      dup2\n        /* \"#utility.yul\":17317:17337   */\n      sub\n        /* \"#utility.yul\":17313:17314   */\n      0x00\n        /* \"#utility.yul\":17302:17311   */\n      dup4\n        /* \"#utility.yul\":17298:17315   */\n      add\n        /* \"#utility.yul\":17291:17338   */\n      mstore\n        /* \"#utility.yul\":17355:17433   */\n      tag_405\n        /* \"#utility.yul\":17428:17432   */\n      dup2\n        /* \"#utility.yul\":17419:17425   */\n      dup6\n        /* \"#utility.yul\":17355:17433   */\n      tag_234\n      jump\t// in\n    tag_405:\n        /* \"#utility.yul\":17347:17433   */\n      swap1\n      pop\n        /* \"#utility.yul\":17443:17511   */\n      tag_406\n        /* \"#utility.yul\":17507:17509   */\n      0x20\n        /* \"#utility.yul\":17496:17505   */\n      dup4\n        /* \"#utility.yul\":17492:17510   */\n      add\n        /* \"#utility.yul\":17483:17489   */\n      dup5\n        /* \"#utility.yul\":17443:17511   */\n      tag_235\n      jump\t// in\n    tag_406:\n        /* \"#utility.yul\":17103:17518   */\n      swap4\n      swap3\n      pop\n      pop\n      pop\n      jump\t// out\n        /* \"#utility.yul\":17524:17749   */\n    tag_236:\n        /* \"#utility.yul\":17664:17698   */\n      0x4f776e61626c653a206e6577206f776e657220697320746865207a65726f2061\n        /* \"#utility.yul\":17660:17661   */\n      0x00\n        /* \"#utility.yul\":17652:17658   */\n      dup3\n        /* \"#utility.yul\":17648:17662   */\n      add\n        /* \"#utility.yul\":17641:17699   */\n      mstore\n        /* \"#utility.yul\":17733:17741   */\n      0x6464726573730000000000000000000000000000000000000000000000000000\n        /* \"#utility.yul\":17728:17730   */\n      0x20\n        /* \"#utility.yul\":17720:17726   */\n      dup3\n        /* \"#utility.yul\":17716:17731   */\n      add\n        /* \"#utility.yul\":17709:17742   */\n      mstore\n        /* \"#utility.yul\":17524:17749   */\n      pop\n      jump\t// out\n        /* \"#utility.yul\":17755:18121   */\n    tag_237:\n        /* \"#utility.yul\":17897:17900   */\n      0x00\n        /* \"#utility.yul\":17918:17985   */\n      tag_409\n        /* \"#utility.yul\":17982:17984   */\n      0x26\n        /* \"#utility.yul\":17977:17980   */\n      dup4\n        /* \"#utility.yul\":17918:17985   */\n      tag_228\n      jump\t// in\n    tag_409:\n        /* \"#utility.yul\":17911:17985   */\n      swap2\n      pop\n        /* \"#utility.yul\":17994:18087   */\n      tag_410\n        /* \"#utility.yul\":18083:18086   */\n      dup3\n        /* \"#utility.yul\":17994:18087   */\n      tag_236\n      jump\t// in\n    tag_410:\n        /* \"#utility.yul\":18112:18114   */\n      0x40\n        /* \"#utility.yul\":18107:18110   */\n      dup3\n        /* \"#utility.yul\":18103:18115   */\n      add\n        /* \"#utility.yul\":18096:18115   */\n      swap1\n      pop\n        /* \"#utility.yul\":17755:18121   */\n      swap2\n      swap1\n      pop\n      jump\t// out\n        /* \"#utility.yul\":18127:18546   */\n    tag_179:\n        /* \"#utility.yul\":18293:18297   */\n      0x00\n        /* \"#utility.yul\":18331:18333   */\n      0x20\n        /* \"#utility.yul\":18320:18329   */\n      dup3\n        /* \"#utility.yul\":18316:18334   */\n      add\n        /* \"#utility.yul\":18308:18334   */\n      swap1\n      pop\n        /* \"#utility.yul\":18380:18389   */\n      dup2\n        /* \"#utility.yul\":18374:18378   */\n      dup2\n        /* \"#utility.yul\":18370:18390   */\n      sub\n        /* \"#utility.yul\":18366:18367   */\n      0x00\n        /* \"#utility.yul\":18355:18364   */\n      dup4\n        /* \"#utility.yul\":18351:18368   */\n      add\n        /* \"#utility.yul\":18344:18391   */\n      mstore\n        /* \"#utility.yul\":18408:18539   */\n      tag_412\n        /* \"#utility.yul\":18534:18538   */\n      dup2\n        /* \"#utility.yul\":18408:18539   */\n      tag_237\n      jump\t// in\n    tag_412:\n        /* \"#utility.yul\":18400:18539   */\n      swap1\n      pop\n        /* \"#utility.yul\":18127:18546   */\n      swap2\n      swap1\n      pop\n      jump\t// out\n\n    auxdata: 0xa2646970667358221220af2aea04791e50b188f5efd23af97c42200f00345b5f9f6c5c70755c5d19986164736f6c634300080e0033\n}\n",
				"bytecode": {
					"linkReferences": {},
					"object": "608060405234801561001057600080fd5b5061002d61002261003260201b60201c565b61003a60201b60201c565b6100fe565b600033905090565b60008060009054906101000a900473ffffffffffffffffffffffffffffffffffffffff169050816000806101000a81548173ffffffffffffffffffffffffffffffffffffffff021916908373ffffffffffffffffffffffffffffffffffffffff1602179055508173ffffffffffffffffffffffffffffffffffffffff168173ffffffffffffffffffffffffffffffffffffffff167f8be0079c531659141344cd1fd0a4f28419497f9722a3daafe3b4186f6b6457e060405160405180910390a35050565b611c038061010d6000396000f3fe608060405234801561001057600080fd5b50600436106100a95760003560e01c8063715018a611610071578063715018a6146101645780638da5cb5b1461016e578063aecab0721461018c578063cddbeb92146101bc578063e013d704146101ec578063f2fde38b14610208576100a9565b80631d3f7559146100ae578063377def85146100ca578063400ae0f9146100e65780634769cf831461011657806351a1d40e14610134575b600080fd5b6100c860048036038101906100c39190611271565b610224565b005b6100e460048036038101906100df9190611271565b6102cf565b005b61010060048036038101906100fb91906112b1565b61036b565b60405161010d919061131f565b60405180910390f35b61011e61039e565b60405161012b919061147f565b60405180910390f35b61014e600480360381019061014991906112b1565b6103f3565b60405161015b91906114b0565b60405180910390f35b61016c610413565b005b61017661049b565b604051610183919061131f565b60405180910390f35b6101a660048036038101906101a191906112b1565b6104c4565b6040516101b391906115ba565b60405180910390f35b6101d660048036038101906101d191906112b1565b6108a7565b6040516101e3919061147f565b60405180910390f35b6102066004803603810190610201919061173d565b610cd4565b005b610222600480360381019061021d91906118c7565b610f08565b005b61022c610fff565b73ffffffffffffffffffffffffffffffffffffffff1661024a61049b565b73ffffffffffffffffffffffffffffffffffffffff16146102a0576040517f08c379a000000000000000000000000000000000000000000000000000000000815260040161029790611951565b60405180910390fd5b806002600084815260200190815260200160002060006101000a81548160ff0219169083151502179055505050565b813373ffffffffffffffffffffffffffffffffffffffff166003600083815260200190815260200160002060009054906101000a900473ffffffffffffffffffffffffffffffffffffffff1673ffffffffffffffffffffffffffffffffffffffff161461033b57600080fd5b816002600085815260200190815260200160002060006101000a81548160ff021916908315150217905550505050565b60036020528060005260406000206000915054906101000a900473ffffffffffffffffffffffffffffffffffffffff1681565b6103a66110cb565b60007fc89efdaa54c0f20c7adf612882df0950f5a951637e0307cdcb4c672f298b8bc660001c90506000600180549050826103e191906119a0565b90506103ec816108a7565b9250505090565b60026020528060005260406000206000915054906101000a900460ff1681565b61041b610fff565b73ffffffffffffffffffffffffffffffffffffffff1661043961049b565b73ffffffffffffffffffffffffffffffffffffffff161461048f576040517f08c379a000000000000000000000000000000000000000000000000000000000815260040161048690611951565b60405180910390fd5b6104996000611007565b565b60008060009054906101000a900473ffffffffffffffffffffffffffffffffffffffff16905090565b6104cc611101565b600182815481106104e0576104df6119d1565b5b90600052602060002090600702016040518061010001604052908160008201805461050a90611a2f565b80601f016020809104026020016040519081016040528092919081815260200182805461053690611a2f565b80156105835780601f1061055857610100808354040283529160200191610583565b820191906000526020600020905b81548152906001019060200180831161056657829003601f168201915b5050505050815260200160018201805461059c90611a2f565b80601f01602080910402602001604051908101604052809291908181526020018280546105c890611a2f565b80156106155780601f106105ea57610100808354040283529160200191610615565b820191906000526020600020905b8154815290600101906020018083116105f857829003601f168201915b5050505050815260200160028201805461062e90611a2f565b80601f016020809104026020016040519081016040528092919081815260200182805461065a90611a2f565b80156106a75780601f1061067c576101008083540402835291602001916106a7565b820191906000526020600020905b81548152906001019060200180831161068a57829003601f168201915b505050505081526020016003820180546106c090611a2f565b80601f01602080910402602001604051908101604052809291908181526020018280546106ec90611a2f565b80156107395780601f1061070e57610100808354040283529160200191610739565b820191906000526020600020905b81548152906001019060200180831161071c57829003601f168201915b5050505050815260200160048201805461075290611a2f565b80601f016020809104026020016040519081016040528092919081815260200182805461077e90611a2f565b80156107cb5780601f106107a0576101008083540402835291602001916107cb565b820191906000526020600020905b8154815290600101906020018083116107ae57829003601f168201915b505050505081526020016005820180546107e490611a2f565b80601f016020809104026020016040519081016040528092919081815260200182805461081090611a2f565b801561085d5780601f106108325761010080835404028352916020019161085d565b820191906000526020600020905b81548152906001019060200180831161084057829003601f168201915b505050505081526020016006820160009054906101000a900460ff1660ff1660ff1681526020016006820160019054906101000a900460ff1660ff1660ff16815250509050919050565b6108af6110cb565b6000600183815481106108c5576108c46119d1565b5b9060005260206000209060070201604051806101000160405290816000820180546108ef90611a2f565b80601f016020809104026020016040519081016040528092919081815260200182805461091b90611a2f565b80156109685780601f1061093d57610100808354040283529160200191610968565b820191906000526020600020905b81548152906001019060200180831161094b57829003601f168201915b5050505050815260200160018201805461098190611a2f565b80601f01602080910402602001604051908101604052809291908181526020018280546109ad90611a2f565b80156109fa5780601f106109cf576101008083540402835291602001916109fa565b820191906000526020600020905b8154815290600101906020018083116109dd57829003601f168201915b50505050508152602001600282018054610a1390611a2f565b80601f0160208091040260200160405190810160405280929190818152602001828054610a3f90611a2f565b8015610a8c5780601f10610a6157610100808354040283529160200191610a8c565b820191906000526020600020905b815481529060010190602001808311610a6f57829003601f168201915b50505050508152602001600382018054610aa590611a2f565b80601f0160208091040260200160405190810160405280929190818152602001828054610ad190611a2f565b8015610b1e5780601f10610af357610100808354040283529160200191610b1e565b820191906000526020600020905b815481529060010190602001808311610b0157829003601f168201915b50505050508152602001600482018054610b3790611a2f565b80601f0160208091040260200160405190810160405280929190818152602001828054610b6390611a2f565b8015610bb05780601f10610b8557610100808354040283529160200191610bb0565b820191906000526020600020905b815481529060010190602001808311610b9357829003601f168201915b50505050508152602001600582018054610bc990611a2f565b80601f0160208091040260200160405190810160405280929190818152602001828054610bf590611a2f565b8015610c425780601f10610c1757610100808354040283529160200191610c42565b820191906000526020600020905b815481529060010190602001808311610c2557829003601f168201915b505050505081526020016006820160009054906101000a900460ff1660ff1660ff1681526020016006820160019054906101000a900460ff1660ff1660ff168152505090506040518060c0016040528082600001518152602001826020015181526020018260400151815260200182606001518152602001826080015181526020018260a00151815250915050919050565b60016040518061010001604052808a81526020018981526020018881526020018781526020018681526020018581526020018460ff1681526020018360ff1681525090806001815401808255809150506001900390600052602060002090600702016000909190919091506000820151816000019080519060200190610d5b92919061114c565b506020820151816001019080519060200190610d7892919061114c565b506040820151816002019080519060200190610d9592919061114c565b506060820151816003019080519060200190610db292919061114c565b506080820151816004019080519060200190610dcf92919061114c565b5060a0820151816005019080519060200190610dec92919061114c565b5060c08201518160060160006101000a81548160ff021916908360ff16021790555060e08201518160060160016101000a81548160ff021916908360ff1602179055505050600060018080549050610e449190611a8f565b9050336003600083815260200190815260200160002060006101000a81548173ffffffffffffffffffffffffffffffffffffffff021916908373ffffffffffffffffffffffffffffffffffffffff16021790555060016002600083815260200190815260200160002060006101000a81548160ff0219169083151502179055507f545dca5d847b655a9f03cdf5619f53f0b2546051fd0d015b18c09ae2a8b1a7658984604051610ef5929190611b0b565b60405180910390a1505050505050505050565b610f10610fff565b73ffffffffffffffffffffffffffffffffffffffff16610f2e61049b565b73ffffffffffffffffffffffffffffffffffffffff1614610f84576040517f08c379a0000000000000000000000000000000000000000000000000000000008152600401610f7b90611951565b60405180910390fd5b600073ffffffffffffffffffffffffffffffffffffffff168173ffffffffffffffffffffffffffffffffffffffff1603610ff3576040517f08c379a0000000000000000000000000000000000000000000000000000000008152600401610fea90611bad565b60405180910390fd5b610ffc81611007565b50565b600033905090565b60008060009054906101000a900473ffffffffffffffffffffffffffffffffffffffff169050816000806101000a81548173ffffffffffffffffffffffffffffffffffffffff021916908373ffffffffffffffffffffffffffffffffffffffff1602179055508173ffffffffffffffffffffffffffffffffffffffff168173ffffffffffffffffffffffffffffffffffffffff167f8be0079c531659141344cd1fd0a4f28419497f9722a3daafe3b4186f6b6457e060405160405180910390a35050565b6040518060c001604052806060815260200160608152602001606081526020016060815260200160608152602001606081525090565b604051806101000160405280606081526020016060815260200160608152602001606081526020016060815260200160608152602001600060ff168152602001600060ff1681525090565b82805461115890611a2f565b90600052602060002090601f01602090048101928261117a57600085556111c1565b82601f1061119357805160ff19168380011785556111c1565b828001600101855582156111c1579182015b828111156111c05782518255916020019190600101906111a5565b5b5090506111ce91906111d2565b5090565b5b808211156111eb5760008160009055506001016111d3565b5090565b6000604051905090565b600080fd5b600080fd5b6000819050919050565b61121681611203565b811461122157600080fd5b50565b6000813590506112338161120d565b92915050565b60008115159050919050565b61124e81611239565b811461125957600080fd5b50565b60008135905061126b81611245565b92915050565b60008060408385031215611288576112876111f9565b5b600061129685828601611224565b92505060206112a78582860161125c565b9150509250929050565b6000602082840312156112c7576112c66111f9565b5b60006112d584828501611224565b91505092915050565b600073ffffffffffffffffffffffffffffffffffffffff82169050919050565b6000611309826112de565b9050919050565b611319816112fe565b82525050565b60006020820190506113346000830184611310565b92915050565b600081519050919050565b600082825260208201905092915050565b60005b83811015611374578082015181840152602081019050611359565b83811115611383576000848401525b50505050565b6000601f19601f8301169050919050565b60006113a58261133a565b6113af8185611345565b93506113bf818560208601611356565b6113c881611389565b840191505092915050565b600060c08301600083015184820360008601526113f0828261139a565b9150506020830151848203602086015261140a828261139a565b91505060408301518482036040860152611424828261139a565b9150506060830151848203606086015261143e828261139a565b91505060808301518482036080860152611458828261139a565b91505060a083015184820360a0860152611472828261139a565b9150508091505092915050565b6000602082019050818103600083015261149981846113d3565b905092915050565b6114aa81611239565b82525050565b60006020820190506114c560008301846114a1565b92915050565b600060ff82169050919050565b6114e1816114cb565b82525050565b6000610100830160008301518482036000860152611505828261139a565b9150506020830151848203602086015261151f828261139a565b91505060408301518482036040860152611539828261139a565b91505060608301518482036060860152611553828261139a565b9150506080830151848203608086015261156d828261139a565b91505060a083015184820360a0860152611587828261139a565b91505060c083015161159c60c08601826114d8565b5060e08301516115af60e08601826114d8565b508091505092915050565b600060208201905081810360008301526115d481846114e7565b905092915050565b600080fd5b600080fd5b7f4e487b7100000000000000000000000000000000000000000000000000000000600052604160045260246000fd5b61161e82611389565b810181811067ffffffffffffffff8211171561163d5761163c6115e6565b5b80604052505050565b60006116506111ef565b905061165c8282611615565b919050565b600067ffffffffffffffff82111561167c5761167b6115e6565b5b61168582611389565b9050602081019050919050565b82818337600083830152505050565b60006116b46116af84611661565b611646565b9050828152602081018484840111156116d0576116cf6115e1565b5b6116db848285611692565b509392505050565b600082601f8301126116f8576116f76115dc565b5b81356117088482602086016116a1565b91505092915050565b61171a816114cb565b811461172557600080fd5b50565b60008135905061173781611711565b92915050565b600080600080600080600080610100898b03121561175e5761175d6111f9565b5b600089013567ffffffffffffffff81111561177c5761177b6111fe565b5b6117888b828c016116e3565b985050602089013567ffffffffffffffff8111156117a9576117a86111fe565b5b6117b58b828c016116e3565b975050604089013567ffffffffffffffff8111156117d6576117d56111fe565b5b6117e28b828c016116e3565b965050606089013567ffffffffffffffff811115611803576118026111fe565b5b61180f8b828c016116e3565b955050608089013567ffffffffffffffff8111156118305761182f6111fe565b5b61183c8b828c016116e3565b94505060a089013567ffffffffffffffff81111561185d5761185c6111fe565b5b6118698b828c016116e3565b93505060c061187a8b828c01611728565b92505060e061188b8b828c01611728565b9150509295985092959890939650565b6118a4816112fe565b81146118af57600080fd5b50565b6000813590506118c18161189b565b92915050565b6000602082840312156118dd576118dc6111f9565b5b60006118eb848285016118b2565b91505092915050565b600082825260208201905092915050565b7f4f776e61626c653a2063616c6c6572206973206e6f7420746865206f776e6572600082015250565b600061193b6020836118f4565b915061194682611905565b602082019050919050565b6000602082019050818103600083015261196a8161192e565b9050919050565b7f4e487b7100000000000000000000000000000000000000000000000000000000600052601260045260246000fd5b60006119ab82611203565b91506119b683611203565b9250826119c6576119c5611971565b5b828206905092915050565b7f4e487b7100000000000000000000000000000000000000000000000000000000600052603260045260246000fd5b7f4e487b7100000000000000000000000000000000000000000000000000000000600052602260045260246000fd5b60006002820490506001821680611a4757607f821691505b602082108103611a5a57611a59611a00565b5b50919050565b7f4e487b7100000000000000000000000000000000000000000000000000000000600052601160045260246000fd5b6000611a9a82611203565b9150611aa583611203565b925082821015611ab857611ab7611a60565b5b828203905092915050565b6000611ace8261133a565b611ad881856118f4565b9350611ae8818560208601611356565b611af181611389565b840191505092915050565b611b05816114cb565b82525050565b60006040820190508181036000830152611b258185611ac3565b9050611b346020830184611afc565b9392505050565b7f4f776e61626c653a206e6577206f776e657220697320746865207a65726f206160008201527f6464726573730000000000000000000000000000000000000000000000000000602082015250565b6000611b976026836118f4565b9150611ba282611b3b565b604082019050919050565b60006020820190508181036000830152611bc681611b8a565b905091905056fea2646970667358221220af2aea04791e50b188f5efd23af97c42200f00345b5f9f6c5c70755c5d19986164736f6c634300080e0033",
					"opcodes": "PUSH1 0x80 PUSH1 0x40 MSTORE CALLVALUE DUP1 ISZERO PUSH2 0x10 JUMPI PUSH1 0x0 DUP1 REVERT JUMPDEST POP PUSH2 0x2D PUSH2 0x22 PUSH2 0x32 PUSH1 0x20 SHL PUSH1 0x20 SHR JUMP JUMPDEST PUSH2 0x3A PUSH1 0x20 SHL PUSH1 0x20 SHR JUMP JUMPDEST PUSH2 0xFE JUMP JUMPDEST PUSH1 0x0 CALLER SWAP1 POP SWAP1 JUMP JUMPDEST PUSH1 0x0 DUP1 PUSH1 0x0 SWAP1 SLOAD SWAP1 PUSH2 0x100 EXP SWAP1 DIV PUSH20 0xFFFFFFFFFFFFFFFFFFFFFFFFFFFFFFFFFFFFFFFF AND SWAP1 POP DUP2 PUSH1 0x0 DUP1 PUSH2 0x100 EXP DUP2 SLOAD DUP2 PUSH20 0xFFFFFFFFFFFFFFFFFFFFFFFFFFFFFFFFFFFFFFFF MUL NOT AND SWAP1 DUP4 PUSH20 0xFFFFFFFFFFFFFFFFFFFFFFFFFFFFFFFFFFFFFFFF AND MUL OR SWAP1 SSTORE POP DUP2 PUSH20 0xFFFFFFFFFFFFFFFFFFFFFFFFFFFFFFFFFFFFFFFF AND DUP2 PUSH20 0xFFFFFFFFFFFFFFFFFFFFFFFFFFFFFFFFFFFFFFFF AND PUSH32 0x8BE0079C531659141344CD1FD0A4F28419497F9722A3DAAFE3B4186F6B6457E0 PUSH1 0x40 MLOAD PUSH1 0x40 MLOAD DUP1 SWAP2 SUB SWAP1 LOG3 POP POP JUMP JUMPDEST PUSH2 0x1C03 DUP1 PUSH2 0x10D PUSH1 0x0 CODECOPY PUSH1 0x0 RETURN INVALID PUSH1 0x80 PUSH1 0x40 MSTORE CALLVALUE DUP1 ISZERO PUSH2 0x10 JUMPI PUSH1 0x0 DUP1 REVERT JUMPDEST POP PUSH1 0x4 CALLDATASIZE LT PUSH2 0xA9 JUMPI PUSH1 0x0 CALLDATALOAD PUSH1 0xE0 SHR DUP1 PUSH4 0x715018A6 GT PUSH2 0x71 JUMPI DUP1 PUSH4 0x715018A6 EQ PUSH2 0x164 JUMPI DUP1 PUSH4 0x8DA5CB5B EQ PUSH2 0x16E JUMPI DUP1 PUSH4 0xAECAB072 EQ PUSH2 0x18C JUMPI DUP1 PUSH4 0xCDDBEB92 EQ PUSH2 0x1BC JUMPI DUP1 PUSH4 0xE013D704 EQ PUSH2 0x1EC JUMPI DUP1 PUSH4 0xF2FDE38B EQ PUSH2 0x208 JUMPI PUSH2 0xA9 JUMP JUMPDEST DUP1 PUSH4 0x1D3F7559 EQ PUSH2 0xAE JUMPI DUP1 PUSH4 0x377DEF85 EQ PUSH2 0xCA JUMPI DUP1 PUSH4 0x400AE0F9 EQ PUSH2 0xE6 JUMPI DUP1 PUSH4 0x4769CF83 EQ PUSH2 0x116 JUMPI DUP1 PUSH4 0x51A1D40E EQ PUSH2 0x134 JUMPI JUMPDEST PUSH1 0x0 DUP1 REVERT JUMPDEST PUSH2 0xC8 PUSH1 0x4 DUP1 CALLDATASIZE SUB DUP2 ADD SWAP1 PUSH2 0xC3 SWAP2 SWAP1 PUSH2 0x1271 JUMP JUMPDEST PUSH2 0x224 JUMP JUMPDEST STOP JUMPDEST PUSH2 0xE4 PUSH1 0x4 DUP1 CALLDATASIZE SUB DUP2 ADD SWAP1 PUSH2 0xDF SWAP2 SWAP1 PUSH2 0x1271 JUMP JUMPDEST PUSH2 0x2CF JUMP JUMPDEST STOP JUMPDEST PUSH2 0x100 PUSH1 0x4 DUP1 CALLDATASIZE SUB DUP2 ADD SWAP1 PUSH2 0xFB SWAP2 SWAP1 PUSH2 0x12B1 JUMP JUMPDEST PUSH2 0x36B JUMP JUMPDEST PUSH1 0x40 MLOAD PUSH2 0x10D SWAP2 SWAP1 PUSH2 0x131F JUMP JUMPDEST PUSH1 0x40 MLOAD DUP1 SWAP2 SUB SWAP1 RETURN JUMPDEST PUSH2 0x11E PUSH2 0x39E JUMP JUMPDEST PUSH1 0x40 MLOAD PUSH2 0x12B SWAP2 SWAP1 PUSH2 0x147F JUMP JUMPDEST PUSH1 0x40 MLOAD DUP1 SWAP2 SUB SWAP1 RETURN JUMPDEST PUSH2 0x14E PUSH1 0x4 DUP1 CALLDATASIZE SUB DUP2 ADD SWAP1 PUSH2 0x149 SWAP2 SWAP1 PUSH2 0x12B1 JUMP JUMPDEST PUSH2 0x3F3 JUMP JUMPDEST PUSH1 0x40 MLOAD PUSH2 0x15B SWAP2 SWAP1 PUSH2 0x14B0 JUMP JUMPDEST PUSH1 0x40 MLOAD DUP1 SWAP2 SUB SWAP1 RETURN JUMPDEST PUSH2 0x16C PUSH2 0x413 JUMP JUMPDEST STOP JUMPDEST PUSH2 0x176 PUSH2 0x49B JUMP JUMPDEST PUSH1 0x40 MLOAD PUSH2 0x183 SWAP2 SWAP1 PUSH2 0x131F JUMP JUMPDEST PUSH1 0x40 MLOAD DUP1 SWAP2 SUB SWAP1 RETURN JUMPDEST PUSH2 0x1A6 PUSH1 0x4 DUP1 CALLDATASIZE SUB DUP2 ADD SWAP1 PUSH2 0x1A1 SWAP2 SWAP1 PUSH2 0x12B1 JUMP JUMPDEST PUSH2 0x4C4 JUMP JUMPDEST PUSH1 0x40 MLOAD PUSH2 0x1B3 SWAP2 SWAP1 PUSH2 0x15BA JUMP JUMPDEST PUSH1 0x40 MLOAD DUP1 SWAP2 SUB SWAP1 RETURN JUMPDEST PUSH2 0x1D6 PUSH1 0x4 DUP1 CALLDATASIZE SUB DUP2 ADD SWAP1 PUSH2 0x1D1 SWAP2 SWAP1 PUSH2 0x12B1 JUMP JUMPDEST PUSH2 0x8A7 JUMP JUMPDEST PUSH1 0x40 MLOAD PUSH2 0x1E3 SWAP2 SWAP1 PUSH2 0x147F JUMP JUMPDEST PUSH1 0x40 MLOAD DUP1 SWAP2 SUB SWAP1 RETURN JUMPDEST PUSH2 0x206 PUSH1 0x4 DUP1 CALLDATASIZE SUB DUP2 ADD SWAP1 PUSH2 0x201 SWAP2 SWAP1 PUSH2 0x173D JUMP JUMPDEST PUSH2 0xCD4 JUMP JUMPDEST STOP JUMPDEST PUSH2 0x222 PUSH1 0x4 DUP1 CALLDATASIZE SUB DUP2 ADD SWAP1 PUSH2 0x21D SWAP2 SWAP1 PUSH2 0x18C7 JUMP JUMPDEST PUSH2 0xF08 JUMP JUMPDEST STOP JUMPDEST PUSH2 0x22C PUSH2 0xFFF JUMP JUMPDEST PUSH20 0xFFFFFFFFFFFFFFFFFFFFFFFFFFFFFFFFFFFFFFFF AND PUSH2 0x24A PUSH2 0x49B JUMP JUMPDEST PUSH20 0xFFFFFFFFFFFFFFFFFFFFFFFFFFFFFFFFFFFFFFFF AND EQ PUSH2 0x2A0 JUMPI PUSH1 0x40 MLOAD PUSH32 0x8C379A000000000000000000000000000000000000000000000000000000000 DUP2 MSTORE PUSH1 0x4 ADD PUSH2 0x297 SWAP1 PUSH2 0x1951 JUMP JUMPDEST PUSH1 0x40 MLOAD DUP1 SWAP2 SUB SWAP1 REVERT JUMPDEST DUP1 PUSH1 0x2 PUSH1 0x0 DUP5 DUP2 MSTORE PUSH1 0x20 ADD SWAP1 DUP2 MSTORE PUSH1 0x20 ADD PUSH1 0x0 KECCAK256 PUSH1 0x0 PUSH2 0x100 EXP DUP2 SLOAD DUP2 PUSH1 0xFF MUL NOT AND SWAP1 DUP4 ISZERO ISZERO MUL OR SWAP1 SSTORE POP POP POP JUMP JUMPDEST DUP2 CALLER PUSH20 0xFFFFFFFFFFFFFFFFFFFFFFFFFFFFFFFFFFFFFFFF AND PUSH1 0x3 PUSH1 0x0 DUP4 DUP2 MSTORE PUSH1 0x20 ADD SWAP1 DUP2 MSTORE PUSH1 0x20 ADD PUSH1 0x0 KECCAK256 PUSH1 0x0 SWAP1 SLOAD SWAP1 PUSH2 0x100 EXP SWAP1 DIV PUSH20 0xFFFFFFFFFFFFFFFFFFFFFFFFFFFFFFFFFFFFFFFF AND PUSH20 0xFFFFFFFFFFFFFFFFFFFFFFFFFFFFFFFFFFFFFFFF AND EQ PUSH2 0x33B JUMPI PUSH1 0x0 DUP1 REVERT JUMPDEST DUP2 PUSH1 0x2 PUSH1 0x0 DUP6 DUP2 MSTORE PUSH1 0x20 ADD SWAP1 DUP2 MSTORE PUSH1 0x20 ADD PUSH1 0x0 KECCAK256 PUSH1 0x0 PUSH2 0x100 EXP DUP2 SLOAD DUP2 PUSH1 0xFF MUL NOT AND SWAP1 DUP4 ISZERO ISZERO MUL OR SWAP1 SSTORE POP POP POP POP JUMP JUMPDEST PUSH1 0x3 PUSH1 0x20 MSTORE DUP1 PUSH1 0x0 MSTORE PUSH1 0x40 PUSH1 0x0 KECCAK256 PUSH1 0x0 SWAP2 POP SLOAD SWAP1 PUSH2 0x100 EXP SWAP1 DIV PUSH20 0xFFFFFFFFFFFFFFFFFFFFFFFFFFFFFFFFFFFFFFFF AND DUP2 JUMP JUMPDEST PUSH2 0x3A6 PUSH2 0x10CB JUMP JUMPDEST PUSH1 0x0 PUSH32 0xC89EFDAA54C0F20C7ADF612882DF0950F5A951637E0307CDCB4C672F298B8BC6 PUSH1 0x0 SHR SWAP1 POP PUSH1 0x0 PUSH1 0x1 DUP1 SLOAD SWAP1 POP DUP3 PUSH2 0x3E1 SWAP2 SWAP1 PUSH2 0x19A0 JUMP JUMPDEST SWAP1 POP PUSH2 0x3EC DUP2 PUSH2 0x8A7 JUMP JUMPDEST SWAP3 POP POP POP SWAP1 JUMP JUMPDEST PUSH1 0x2 PUSH1 0x20 MSTORE DUP1 PUSH1 0x0 MSTORE PUSH1 0x40 PUSH1 0x0 KECCAK256 PUSH1 0x0 SWAP2 POP SLOAD SWAP1 PUSH2 0x100 EXP SWAP1 DIV PUSH1 0xFF AND DUP2 JUMP JUMPDEST PUSH2 0x41B PUSH2 0xFFF JUMP JUMPDEST PUSH20 0xFFFFFFFFFFFFFFFFFFFFFFFFFFFFFFFFFFFFFFFF AND PUSH2 0x439 PUSH2 0x49B JUMP JUMPDEST PUSH20 0xFFFFFFFFFFFFFFFFFFFFFFFFFFFFFFFFFFFFFFFF AND EQ PUSH2 0x48F JUMPI PUSH1 0x40 MLOAD PUSH32 0x8C379A000000000000000000000000000000000000000000000000000000000 DUP2 MSTORE PUSH1 0x4 ADD PUSH2 0x486 SWAP1 PUSH2 0x1951 JUMP JUMPDEST PUSH1 0x40 MLOAD DUP1 SWAP2 SUB SWAP1 REVERT JUMPDEST PUSH2 0x499 PUSH1 0x0 PUSH2 0x1007 JUMP JUMPDEST JUMP JUMPDEST PUSH1 0x0 DUP1 PUSH1 0x0 SWAP1 SLOAD SWAP1 PUSH2 0x100 EXP SWAP1 DIV PUSH20 0xFFFFFFFFFFFFFFFFFFFFFFFFFFFFFFFFFFFFFFFF AND SWAP1 POP SWAP1 JUMP JUMPDEST PUSH2 0x4CC PUSH2 0x1101 JUMP JUMPDEST PUSH1 0x1 DUP3 DUP2 SLOAD DUP2 LT PUSH2 0x4E0 JUMPI PUSH2 0x4DF PUSH2 0x19D1 JUMP JUMPDEST JUMPDEST SWAP1 PUSH1 0x0 MSTORE PUSH1 0x20 PUSH1 0x0 KECCAK256 SWAP1 PUSH1 0x7 MUL ADD PUSH1 0x40 MLOAD DUP1 PUSH2 0x100 ADD PUSH1 0x40 MSTORE SWAP1 DUP2 PUSH1 0x0 DUP3 ADD DUP1 SLOAD PUSH2 0x50A SWAP1 PUSH2 0x1A2F JUMP JUMPDEST DUP1 PUSH1 0x1F ADD PUSH1 0x20 DUP1 SWAP2 DIV MUL PUSH1 0x20 ADD PUSH1 0x40 MLOAD SWAP1 DUP2 ADD PUSH1 0x40 MSTORE DUP1 SWAP3 SWAP2 SWAP1 DUP2 DUP2 MSTORE PUSH1 0x20 ADD DUP3 DUP1 SLOAD PUSH2 0x536 SWAP1 PUSH2 0x1A2F JUMP JUMPDEST DUP1 ISZERO PUSH2 0x583 JUMPI DUP1 PUSH1 0x1F LT PUSH2 0x558 JUMPI PUSH2 0x100 DUP1 DUP4 SLOAD DIV MUL DUP4 MSTORE SWAP2 PUSH1 0x20 ADD SWAP2 PUSH2 0x583 JUMP JUMPDEST DUP3 ADD SWAP2 SWAP1 PUSH1 0x0 MSTORE PUSH1 0x20 PUSH1 0x0 KECCAK256 SWAP1 JUMPDEST DUP2 SLOAD DUP2 MSTORE SWAP1 PUSH1 0x1 ADD SWAP1 PUSH1 0x20 ADD DUP1 DUP4 GT PUSH2 0x566 JUMPI DUP3 SWAP1 SUB PUSH1 0x1F AND DUP3 ADD SWAP2 JUMPDEST POP POP POP POP POP DUP2 MSTORE PUSH1 0x20 ADD PUSH1 0x1 DUP3 ADD DUP1 SLOAD PUSH2 0x59C SWAP1 PUSH2 0x1A2F JUMP JUMPDEST DUP1 PUSH1 0x1F ADD PUSH1 0x20 DUP1 SWAP2 DIV MUL PUSH1 0x20 ADD PUSH1 0x40 MLOAD SWAP1 DUP2 ADD PUSH1 0x40 MSTORE DUP1 SWAP3 SWAP2 SWAP1 DUP2 DUP2 MSTORE PUSH1 0x20 ADD DUP3 DUP1 SLOAD PUSH2 0x5C8 SWAP1 PUSH2 0x1A2F JUMP JUMPDEST DUP1 ISZERO PUSH2 0x615 JUMPI DUP1 PUSH1 0x1F LT PUSH2 0x5EA JUMPI PUSH2 0x100 DUP1 DUP4 SLOAD DIV MUL DUP4 MSTORE SWAP2 PUSH1 0x20 ADD SWAP2 PUSH2 0x615 JUMP JUMPDEST DUP3 ADD SWAP2 SWAP1 PUSH1 0x0 MSTORE PUSH1 0x20 PUSH1 0x0 KECCAK256 SWAP1 JUMPDEST DUP2 SLOAD DUP2 MSTORE SWAP1 PUSH1 0x1 ADD SWAP1 PUSH1 0x20 ADD DUP1 DUP4 GT PUSH2 0x5F8 JUMPI DUP3 SWAP1 SUB PUSH1 0x1F AND DUP3 ADD SWAP2 JUMPDEST POP POP POP POP POP DUP2 MSTORE PUSH1 0x20 ADD PUSH1 0x2 DUP3 ADD DUP1 SLOAD PUSH2 0x62E SWAP1 PUSH2 0x1A2F JUMP JUMPDEST DUP1 PUSH1 0x1F ADD PUSH1 0x20 DUP1 SWAP2 DIV MUL PUSH1 0x20 ADD PUSH1 0x40 MLOAD SWAP1 DUP2 ADD PUSH1 0x40 MSTORE DUP1 SWAP3 SWAP2 SWAP1 DUP2 DUP2 MSTORE PUSH1 0x20 ADD DUP3 DUP1 SLOAD PUSH2 0x65A SWAP1 PUSH2 0x1A2F JUMP JUMPDEST DUP1 ISZERO PUSH2 0x6A7 JUMPI DUP1 PUSH1 0x1F LT PUSH2 0x67C JUMPI PUSH2 0x100 DUP1 DUP4 SLOAD DIV MUL DUP4 MSTORE SWAP2 PUSH1 0x20 ADD SWAP2 PUSH2 0x6A7 JUMP JUMPDEST DUP3 ADD SWAP2 SWAP1 PUSH1 0x0 MSTORE PUSH1 0x20 PUSH1 0x0 KECCAK256 SWAP1 JUMPDEST DUP2 SLOAD DUP2 MSTORE SWAP1 PUSH1 0x1 ADD SWAP1 PUSH1 0x20 ADD DUP1 DUP4 GT PUSH2 0x68A JUMPI DUP3 SWAP1 SUB PUSH1 0x1F AND DUP3 ADD SWAP2 JUMPDEST POP POP POP POP POP DUP2 MSTORE PUSH1 0x20 ADD PUSH1 0x3 DUP3 ADD DUP1 SLOAD PUSH2 0x6C0 SWAP1 PUSH2 0x1A2F JUMP JUMPDEST DUP1 PUSH1 0x1F ADD PUSH1 0x20 DUP1 SWAP2 DIV MUL PUSH1 0x20 ADD PUSH1 0x40 MLOAD SWAP1 DUP2 ADD PUSH1 0x40 MSTORE DUP1 SWAP3 SWAP2 SWAP1 DUP2 DUP2 MSTORE PUSH1 0x20 ADD DUP3 DUP1 SLOAD PUSH2 0x6EC SWAP1 PUSH2 0x1A2F JUMP JUMPDEST DUP1 ISZERO PUSH2 0x739 JUMPI DUP1 PUSH1 0x1F LT PUSH2 0x70E JUMPI PUSH2 0x100 DUP1 DUP4 SLOAD DIV MUL DUP4 MSTORE SWAP2 PUSH1 0x20 ADD SWAP2 PUSH2 0x739 JUMP JUMPDEST DUP3 ADD SWAP2 SWAP1 PUSH1 0x0 MSTORE PUSH1 0x20 PUSH1 0x0 KECCAK256 SWAP1 JUMPDEST DUP2 SLOAD DUP2 MSTORE SWAP1 PUSH1 0x1 ADD SWAP1 PUSH1 0x20 ADD DUP1 DUP4 GT PUSH2 0x71C JUMPI DUP3 SWAP1 SUB PUSH1 0x1F AND DUP3 ADD SWAP2 JUMPDEST POP POP POP POP POP DUP2 MSTORE PUSH1 0x20 ADD PUSH1 0x4 DUP3 ADD DUP1 SLOAD PUSH2 0x752 SWAP1 PUSH2 0x1A2F JUMP JUMPDEST DUP1 PUSH1 0x1F ADD PUSH1 0x20 DUP1 SWAP2 DIV MUL PUSH1 0x20 ADD PUSH1 0x40 MLOAD SWAP1 DUP2 ADD PUSH1 0x40 MSTORE DUP1 SWAP3 SWAP2 SWAP1 DUP2 DUP2 MSTORE PUSH1 0x20 ADD DUP3 DUP1 SLOAD PUSH2 0x77E SWAP1 PUSH2 0x1A2F JUMP JUMPDEST DUP1 ISZERO PUSH2 0x7CB JUMPI DUP1 PUSH1 0x1F LT PUSH2 0x7A0 JUMPI PUSH2 0x100 DUP1 DUP4 SLOAD DIV MUL DUP4 MSTORE SWAP2 PUSH1 0x20 ADD SWAP2 PUSH2 0x7CB JUMP JUMPDEST DUP3 ADD SWAP2 SWAP1 PUSH1 0x0 MSTORE PUSH1 0x20 PUSH1 0x0 KECCAK256 SWAP1 JUMPDEST DUP2 SLOAD DUP2 MSTORE SWAP1 PUSH1 0x1 ADD SWAP1 PUSH1 0x20 ADD DUP1 DUP4 GT PUSH2 0x7AE JUMPI DUP3 SWAP1 SUB PUSH1 0x1F AND DUP3 ADD SWAP2 JUMPDEST POP POP POP POP POP DUP2 MSTORE PUSH1 0x20 ADD PUSH1 0x5 DUP3 ADD DUP1 SLOAD PUSH2 0x7E4 SWAP1 PUSH2 0x1A2F JUMP JUMPDEST DUP1 PUSH1 0x1F ADD PUSH1 0x20 DUP1 SWAP2 DIV MUL PUSH1 0x20 ADD PUSH1 0x40 MLOAD SWAP1 DUP2 ADD PUSH1 0x40 MSTORE DUP1 SWAP3 SWAP2 SWAP1 DUP2 DUP2 MSTORE PUSH1 0x20 ADD DUP3 DUP1 SLOAD PUSH2 0x810 SWAP1 PUSH2 0x1A2F JUMP JUMPDEST DUP1 ISZERO PUSH2 0x85D JUMPI DUP1 PUSH1 0x1F LT PUSH2 0x832 JUMPI PUSH2 0x100 DUP1 DUP4 SLOAD DIV MUL DUP4 MSTORE SWAP2 PUSH1 0x20 ADD SWAP2 PUSH2 0x85D JUMP JUMPDEST DUP3 ADD SWAP2 SWAP1 PUSH1 0x0 MSTORE PUSH1 0x20 PUSH1 0x0 KECCAK256 SWAP1 JUMPDEST DUP2 SLOAD DUP2 MSTORE SWAP1 PUSH1 0x1 ADD SWAP1 PUSH1 0x20 ADD DUP1 DUP4 GT PUSH2 0x840 JUMPI DUP3 SWAP1 SUB PUSH1 0x1F AND DUP3 ADD SWAP2 JUMPDEST POP POP POP POP POP DUP2 MSTORE PUSH1 0x20 ADD PUSH1 0x6 DUP3 ADD PUSH1 0x0 SWAP1 SLOAD SWAP1 PUSH2 0x100 EXP SWAP1 DIV PUSH1 0xFF AND PUSH1 0xFF AND PUSH1 0xFF AND DUP2 MSTORE PUSH1 0x20 ADD PUSH1 0x6 DUP3 ADD PUSH1 0x1 SWAP1 SLOAD SWAP1 PUSH2 0x100 EXP SWAP1 DIV PUSH1 0xFF AND PUSH1 0xFF AND PUSH1 0xFF AND DUP2 MSTORE POP POP SWAP1 POP SWAP2 SWAP1 POP JUMP JUMPDEST PUSH2 0x8AF PUSH2 0x10CB JUMP JUMPDEST PUSH1 0x0 PUSH1 0x1 DUP4 DUP2 SLOAD DUP2 LT PUSH2 0x8C5 JUMPI PUSH2 0x8C4 PUSH2 0x19D1 JUMP JUMPDEST JUMPDEST SWAP1 PUSH1 0x0 MSTORE PUSH1 0x20 PUSH1 0x0 KECCAK256 SWAP1 PUSH1 0x7 MUL ADD PUSH1 0x40 MLOAD DUP1 PUSH2 0x100 ADD PUSH1 0x40 MSTORE SWAP1 DUP2 PUSH1 0x0 DUP3 ADD DUP1 SLOAD PUSH2 0x8EF SWAP1 PUSH2 0x1A2F JUMP JUMPDEST DUP1 PUSH1 0x1F ADD PUSH1 0x20 DUP1 SWAP2 DIV MUL PUSH1 0x20 ADD PUSH1 0x40 MLOAD SWAP1 DUP2 ADD PUSH1 0x40 MSTORE DUP1 SWAP3 SWAP2 SWAP1 DUP2 DUP2 MSTORE PUSH1 0x20 ADD DUP3 DUP1 SLOAD PUSH2 0x91B SWAP1 PUSH2 0x1A2F JUMP JUMPDEST DUP1 ISZERO PUSH2 0x968 JUMPI DUP1 PUSH1 0x1F LT PUSH2 0x93D JUMPI PUSH2 0x100 DUP1 DUP4 SLOAD DIV MUL DUP4 MSTORE SWAP2 PUSH1 0x20 ADD SWAP2 PUSH2 0x968 JUMP JUMPDEST DUP3 ADD SWAP2 SWAP1 PUSH1 0x0 MSTORE PUSH1 0x20 PUSH1 0x0 KECCAK256 SWAP1 JUMPDEST DUP2 SLOAD DUP2 MSTORE SWAP1 PUSH1 0x1 ADD SWAP1 PUSH1 0x20 ADD DUP1 DUP4 GT PUSH2 0x94B JUMPI DUP3 SWAP1 SUB PUSH1 0x1F AND DUP3 ADD SWAP2 JUMPDEST POP POP POP POP POP DUP2 MSTORE PUSH1 0x20 ADD PUSH1 0x1 DUP3 ADD DUP1 SLOAD PUSH2 0x981 SWAP1 PUSH2 0x1A2F JUMP JUMPDEST DUP1 PUSH1 0x1F ADD PUSH1 0x20 DUP1 SWAP2 DIV MUL PUSH1 0x20 ADD PUSH1 0x40 MLOAD SWAP1 DUP2 ADD PUSH1 0x40 MSTORE DUP1 SWAP3 SWAP2 SWAP1 DUP2 DUP2 MSTORE PUSH1 0x20 ADD DUP3 DUP1 SLOAD PUSH2 0x9AD SWAP1 PUSH2 0x1A2F JUMP JUMPDEST DUP1 ISZERO PUSH2 0x9FA JUMPI DUP1 PUSH1 0x1F LT PUSH2 0x9CF JUMPI PUSH2 0x100 DUP1 DUP4 SLOAD DIV MUL DUP4 MSTORE SWAP2 PUSH1 0x20 ADD SWAP2 PUSH2 0x9FA JUMP JUMPDEST DUP3 ADD SWAP2 SWAP1 PUSH1 0x0 MSTORE PUSH1 0x20 PUSH1 0x0 KECCAK256 SWAP1 JUMPDEST DUP2 SLOAD DUP2 MSTORE SWAP1 PUSH1 0x1 ADD SWAP1 PUSH1 0x20 ADD DUP1 DUP4 GT PUSH2 0x9DD JUMPI DUP3 SWAP1 SUB PUSH1 0x1F AND DUP3 ADD SWAP2 JUMPDEST POP POP POP POP POP DUP2 MSTORE PUSH1 0x20 ADD PUSH1 0x2 DUP3 ADD DUP1 SLOAD PUSH2 0xA13 SWAP1 PUSH2 0x1A2F JUMP JUMPDEST DUP1 PUSH1 0x1F ADD PUSH1 0x20 DUP1 SWAP2 DIV MUL PUSH1 0x20 ADD PUSH1 0x40 MLOAD SWAP1 DUP2 ADD PUSH1 0x40 MSTORE DUP1 SWAP3 SWAP2 SWAP1 DUP2 DUP2 MSTORE PUSH1 0x20 ADD DUP3 DUP1 SLOAD PUSH2 0xA3F SWAP1 PUSH2 0x1A2F JUMP JUMPDEST DUP1 ISZERO PUSH2 0xA8C JUMPI DUP1 PUSH1 0x1F LT PUSH2 0xA61 JUMPI PUSH2 0x100 DUP1 DUP4 SLOAD DIV MUL DUP4 MSTORE SWAP2 PUSH1 0x20 ADD SWAP2 PUSH2 0xA8C JUMP JUMPDEST DUP3 ADD SWAP2 SWAP1 PUSH1 0x0 MSTORE PUSH1 0x20 PUSH1 0x0 KECCAK256 SWAP1 JUMPDEST DUP2 SLOAD DUP2 MSTORE SWAP1 PUSH1 0x1 ADD SWAP1 PUSH1 0x20 ADD DUP1 DUP4 GT PUSH2 0xA6F JUMPI DUP3 SWAP1 SUB PUSH1 0x1F AND DUP3 ADD SWAP2 JUMPDEST POP POP POP POP POP DUP2 MSTORE PUSH1 0x20 ADD PUSH1 0x3 DUP3 ADD DUP1 SLOAD PUSH2 0xAA5 SWAP1 PUSH2 0x1A2F JUMP JUMPDEST DUP1 PUSH1 0x1F ADD PUSH1 0x20 DUP1 SWAP2 DIV MUL PUSH1 0x20 ADD PUSH1 0x40 MLOAD SWAP1 DUP2 ADD PUSH1 0x40 MSTORE DUP1 SWAP3 SWAP2 SWAP1 DUP2 DUP2 MSTORE PUSH1 0x20 ADD DUP3 DUP1 SLOAD PUSH2 0xAD1 SWAP1 PUSH2 0x1A2F JUMP JUMPDEST DUP1 ISZERO PUSH2 0xB1E JUMPI DUP1 PUSH1 0x1F LT PUSH2 0xAF3 JUMPI PUSH2 0x100 DUP1 DUP4 SLOAD DIV MUL DUP4 MSTORE SWAP2 PUSH1 0x20 ADD SWAP2 PUSH2 0xB1E JUMP JUMPDEST DUP3 ADD SWAP2 SWAP1 PUSH1 0x0 MSTORE PUSH1 0x20 PUSH1 0x0 KECCAK256 SWAP1 JUMPDEST DUP2 SLOAD DUP2 MSTORE SWAP1 PUSH1 0x1 ADD SWAP1 PUSH1 0x20 ADD DUP1 DUP4 GT PUSH2 0xB01 JUMPI DUP3 SWAP1 SUB PUSH1 0x1F AND DUP3 ADD SWAP2 JUMPDEST POP POP POP POP POP DUP2 MSTORE PUSH1 0x20 ADD PUSH1 0x4 DUP3 ADD DUP1 SLOAD PUSH2 0xB37 SWAP1 PUSH2 0x1A2F JUMP JUMPDEST DUP1 PUSH1 0x1F ADD PUSH1 0x20 DUP1 SWAP2 DIV MUL PUSH1 0x20 ADD PUSH1 0x40 MLOAD SWAP1 DUP2 ADD PUSH1 0x40 MSTORE DUP1 SWAP3 SWAP2 SWAP1 DUP2 DUP2 MSTORE PUSH1 0x20 ADD DUP3 DUP1 SLOAD PUSH2 0xB63 SWAP1 PUSH2 0x1A2F JUMP JUMPDEST DUP1 ISZERO PUSH2 0xBB0 JUMPI DUP1 PUSH1 0x1F LT PUSH2 0xB85 JUMPI PUSH2 0x100 DUP1 DUP4 SLOAD DIV MUL DUP4 MSTORE SWAP2 PUSH1 0x20 ADD SWAP2 PUSH2 0xBB0 JUMP JUMPDEST DUP3 ADD SWAP2 SWAP1 PUSH1 0x0 MSTORE PUSH1 0x20 PUSH1 0x0 KECCAK256 SWAP1 JUMPDEST DUP2 SLOAD DUP2 MSTORE SWAP1 PUSH1 0x1 ADD SWAP1 PUSH1 0x20 ADD DUP1 DUP4 GT PUSH2 0xB93 JUMPI DUP3 SWAP1 SUB PUSH1 0x1F AND DUP3 ADD SWAP2 JUMPDEST POP POP POP POP POP DUP2 MSTORE PUSH1 0x20 ADD PUSH1 0x5 DUP3 ADD DUP1 SLOAD PUSH2 0xBC9 SWAP1 PUSH2 0x1A2F JUMP JUMPDEST DUP1 PUSH1 0x1F ADD PUSH1 0x20 DUP1 SWAP2 DIV MUL PUSH1 0x20 ADD PUSH1 0x40 MLOAD SWAP1 DUP2 ADD PUSH1 0x40 MSTORE DUP1 SWAP3 SWAP2 SWAP1 DUP2 DUP2 MSTORE PUSH1 0x20 ADD DUP3 DUP1 SLOAD PUSH2 0xBF5 SWAP1 PUSH2 0x1A2F JUMP JUMPDEST DUP1 ISZERO PUSH2 0xC42 JUMPI DUP1 PUSH1 0x1F LT PUSH2 0xC17 JUMPI PUSH2 0x100 DUP1 DUP4 SLOAD DIV MUL DUP4 MSTORE SWAP2 PUSH1 0x20 ADD SWAP2 PUSH2 0xC42 JUMP JUMPDEST DUP3 ADD SWAP2 SWAP1 PUSH1 0x0 MSTORE PUSH1 0x20 PUSH1 0x0 KECCAK256 SWAP1 JUMPDEST DUP2 SLOAD DUP2 MSTORE SWAP1 PUSH1 0x1 ADD SWAP1 PUSH1 0x20 ADD DUP1 DUP4 GT PUSH2 0xC25 JUMPI DUP3 SWAP1 SUB PUSH1 0x1F AND DUP3 ADD SWAP2 JUMPDEST POP POP POP POP POP DUP2 MSTORE PUSH1 0x20 ADD PUSH1 0x6 DUP3 ADD PUSH1 0x0 SWAP1 SLOAD SWAP1 PUSH2 0x100 EXP SWAP1 DIV PUSH1 0xFF AND PUSH1 0xFF AND PUSH1 0xFF AND DUP2 MSTORE PUSH1 0x20 ADD PUSH1 0x6 DUP3 ADD PUSH1 0x1 SWAP1 SLOAD SWAP1 PUSH2 0x100 EXP SWAP1 DIV PUSH1 0xFF AND PUSH1 0xFF AND PUSH1 0xFF AND DUP2 MSTORE POP POP SWAP1 POP PUSH1 0x40 MLOAD DUP1 PUSH1 0xC0 ADD PUSH1 0x40 MSTORE DUP1 DUP3 PUSH1 0x0 ADD MLOAD DUP2 MSTORE PUSH1 0x20 ADD DUP3 PUSH1 0x20 ADD MLOAD DUP2 MSTORE PUSH1 0x20 ADD DUP3 PUSH1 0x40 ADD MLOAD DUP2 MSTORE PUSH1 0x20 ADD DUP3 PUSH1 0x60 ADD MLOAD DUP2 MSTORE PUSH1 0x20 ADD DUP3 PUSH1 0x80 ADD MLOAD DUP2 MSTORE PUSH1 0x20 ADD DUP3 PUSH1 0xA0 ADD MLOAD DUP2 MSTORE POP SWAP2 POP POP SWAP2 SWAP1 POP JUMP JUMPDEST PUSH1 0x1 PUSH1 0x40 MLOAD DUP1 PUSH2 0x100 ADD PUSH1 0x40 MSTORE DUP1 DUP11 DUP2 MSTORE PUSH1 0x20 ADD DUP10 DUP2 MSTORE PUSH1 0x20 ADD DUP9 DUP2 MSTORE PUSH1 0x20 ADD DUP8 DUP2 MSTORE PUSH1 0x20 ADD DUP7 DUP2 MSTORE PUSH1 0x20 ADD DUP6 DUP2 MSTORE PUSH1 0x20 ADD DUP5 PUSH1 0xFF AND DUP2 MSTORE PUSH1 0x20 ADD DUP4 PUSH1 0xFF AND DUP2 MSTORE POP SWAP1 DUP1 PUSH1 0x1 DUP2 SLOAD ADD DUP1 DUP3 SSTORE DUP1 SWAP2 POP POP PUSH1 0x1 SWAP1 SUB SWAP1 PUSH1 0x0 MSTORE PUSH1 0x20 PUSH1 0x0 KECCAK256 SWAP1 PUSH1 0x7 MUL ADD PUSH1 0x0 SWAP1 SWAP2 SWAP1 SWAP2 SWAP1 SWAP2 POP PUSH1 0x0 DUP3 ADD MLOAD DUP2 PUSH1 0x0 ADD SWAP1 DUP1 MLOAD SWAP1 PUSH1 0x20 ADD SWAP1 PUSH2 0xD5B SWAP3 SWAP2 SWAP1 PUSH2 0x114C JUMP JUMPDEST POP PUSH1 0x20 DUP3 ADD MLOAD DUP2 PUSH1 0x1 ADD SWAP1 DUP1 MLOAD SWAP1 PUSH1 0x20 ADD SWAP1 PUSH2 0xD78 SWAP3 SWAP2 SWAP1 PUSH2 0x114C JUMP JUMPDEST POP PUSH1 0x40 DUP3 ADD MLOAD DUP2 PUSH1 0x2 ADD SWAP1 DUP1 MLOAD SWAP1 PUSH1 0x20 ADD SWAP1 PUSH2 0xD95 SWAP3 SWAP2 SWAP1 PUSH2 0x114C JUMP JUMPDEST POP PUSH1 0x60 DUP3 ADD MLOAD DUP2 PUSH1 0x3 ADD SWAP1 DUP1 MLOAD SWAP1 PUSH1 0x20 ADD SWAP1 PUSH2 0xDB2 SWAP3 SWAP2 SWAP1 PUSH2 0x114C JUMP JUMPDEST POP PUSH1 0x80 DUP3 ADD MLOAD DUP2 PUSH1 0x4 ADD SWAP1 DUP1 MLOAD SWAP1 PUSH1 0x20 ADD SWAP1 PUSH2 0xDCF SWAP3 SWAP2 SWAP1 PUSH2 0x114C JUMP JUMPDEST POP PUSH1 0xA0 DUP3 ADD MLOAD DUP2 PUSH1 0x5 ADD SWAP1 DUP1 MLOAD SWAP1 PUSH1 0x20 ADD SWAP1 PUSH2 0xDEC SWAP3 SWAP2 SWAP1 PUSH2 0x114C JUMP JUMPDEST POP PUSH1 0xC0 DUP3 ADD MLOAD DUP2 PUSH1 0x6 ADD PUSH1 0x0 PUSH2 0x100 EXP DUP2 SLOAD DUP2 PUSH1 0xFF MUL NOT AND SWAP1 DUP4 PUSH1 0xFF AND MUL OR SWAP1 SSTORE POP PUSH1 0xE0 DUP3 ADD MLOAD DUP2 PUSH1 0x6 ADD PUSH1 0x1 PUSH2 0x100 EXP DUP2 SLOAD DUP2 PUSH1 0xFF MUL NOT AND SWAP1 DUP4 PUSH1 0xFF AND MUL OR SWAP1 SSTORE POP POP POP PUSH1 0x0 PUSH1 0x1 DUP1 DUP1 SLOAD SWAP1 POP PUSH2 0xE44 SWAP2 SWAP1 PUSH2 0x1A8F JUMP JUMPDEST SWAP1 POP CALLER PUSH1 0x3 PUSH1 0x0 DUP4 DUP2 MSTORE PUSH1 0x20 ADD SWAP1 DUP2 MSTORE PUSH1 0x20 ADD PUSH1 0x0 KECCAK256 PUSH1 0x0 PUSH2 0x100 EXP DUP2 SLOAD DUP2 PUSH20 0xFFFFFFFFFFFFFFFFFFFFFFFFFFFFFFFFFFFFFFFF MUL NOT AND SWAP1 DUP4 PUSH20 0xFFFFFFFFFFFFFFFFFFFFFFFFFFFFFFFFFFFFFFFF AND MUL OR SWAP1 SSTORE POP PUSH1 0x1 PUSH1 0x2 PUSH1 0x0 DUP4 DUP2 MSTORE PUSH1 0x20 ADD SWAP1 DUP2 MSTORE PUSH1 0x20 ADD PUSH1 0x0 KECCAK256 PUSH1 0x0 PUSH2 0x100 EXP DUP2 SLOAD DUP2 PUSH1 0xFF MUL NOT AND SWAP1 DUP4 ISZERO ISZERO MUL OR SWAP1 SSTORE POP PUSH32 0x545DCA5D847B655A9F03CDF5619F53F0B2546051FD0D015B18C09AE2A8B1A765 DUP10 DUP5 PUSH1 0x40 MLOAD PUSH2 0xEF5 SWAP3 SWAP2 SWAP1 PUSH2 0x1B0B JUMP JUMPDEST PUSH1 0x40 MLOAD DUP1 SWAP2 SUB SWAP1 LOG1 POP POP POP POP POP POP POP POP POP JUMP JUMPDEST PUSH2 0xF10 PUSH2 0xFFF JUMP JUMPDEST PUSH20 0xFFFFFFFFFFFFFFFFFFFFFFFFFFFFFFFFFFFFFFFF AND PUSH2 0xF2E PUSH2 0x49B JUMP JUMPDEST PUSH20 0xFFFFFFFFFFFFFFFFFFFFFFFFFFFFFFFFFFFFFFFF AND EQ PUSH2 0xF84 JUMPI PUSH1 0x40 MLOAD PUSH32 0x8C379A000000000000000000000000000000000000000000000000000000000 DUP2 MSTORE PUSH1 0x4 ADD PUSH2 0xF7B SWAP1 PUSH2 0x1951 JUMP JUMPDEST PUSH1 0x40 MLOAD DUP1 SWAP2 SUB SWAP1 REVERT JUMPDEST PUSH1 0x0 PUSH20 0xFFFFFFFFFFFFFFFFFFFFFFFFFFFFFFFFFFFFFFFF AND DUP2 PUSH20 0xFFFFFFFFFFFFFFFFFFFFFFFFFFFFFFFFFFFFFFFF AND SUB PUSH2 0xFF3 JUMPI PUSH1 0x40 MLOAD PUSH32 0x8C379A000000000000000000000000000000000000000000000000000000000 DUP2 MSTORE PUSH1 0x4 ADD PUSH2 0xFEA SWAP1 PUSH2 0x1BAD JUMP JUMPDEST PUSH1 0x40 MLOAD DUP1 SWAP2 SUB SWAP1 REVERT JUMPDEST PUSH2 0xFFC DUP2 PUSH2 0x1007 JUMP JUMPDEST POP JUMP JUMPDEST PUSH1 0x0 CALLER SWAP1 POP SWAP1 JUMP JUMPDEST PUSH1 0x0 DUP1 PUSH1 0x0 SWAP1 SLOAD SWAP1 PUSH2 0x100 EXP SWAP1 DIV PUSH20 0xFFFFFFFFFFFFFFFFFFFFFFFFFFFFFFFFFFFFFFFF AND SWAP1 POP DUP2 PUSH1 0x0 DUP1 PUSH2 0x100 EXP DUP2 SLOAD DUP2 PUSH20 0xFFFFFFFFFFFFFFFFFFFFFFFFFFFFFFFFFFFFFFFF MUL NOT AND SWAP1 DUP4 PUSH20 0xFFFFFFFFFFFFFFFFFFFFFFFFFFFFFFFFFFFFFFFF AND MUL OR SWAP1 SSTORE POP DUP2 PUSH20 0xFFFFFFFFFFFFFFFFFFFFFFFFFFFFFFFFFFFFFFFF AND DUP2 PUSH20 0xFFFFFFFFFFFFFFFFFFFFFFFFFFFFFFFFFFFFFFFF AND PUSH32 0x8BE0079C531659141344CD1FD0A4F28419497F9722A3DAAFE3B4186F6B6457E0 PUSH1 0x40 MLOAD PUSH1 0x40 MLOAD DUP1 SWAP2 SUB SWAP1 LOG3 POP POP JUMP JUMPDEST PUSH1 0x40 MLOAD DUP1 PUSH1 0xC0 ADD PUSH1 0x40 MSTORE DUP1 PUSH1 0x60 DUP2 MSTORE PUSH1 0x20 ADD PUSH1 0x60 DUP2 MSTORE PUSH1 0x20 ADD PUSH1 0x60 DUP2 MSTORE PUSH1 0x20 ADD PUSH1 0x60 DUP2 MSTORE PUSH1 0x20 ADD PUSH1 0x60 DUP2 MSTORE PUSH1 0x20 ADD PUSH1 0x60 DUP2 MSTORE POP SWAP1 JUMP JUMPDEST PUSH1 0x40 MLOAD DUP1 PUSH2 0x100 ADD PUSH1 0x40 MSTORE DUP1 PUSH1 0x60 DUP2 MSTORE PUSH1 0x20 ADD PUSH1 0x60 DUP2 MSTORE PUSH1 0x20 ADD PUSH1 0x60 DUP2 MSTORE PUSH1 0x20 ADD PUSH1 0x60 DUP2 MSTORE PUSH1 0x20 ADD PUSH1 0x60 DUP2 MSTORE PUSH1 0x20 ADD PUSH1 0x60 DUP2 MSTORE PUSH1 0x20 ADD PUSH1 0x0 PUSH1 0xFF AND DUP2 MSTORE PUSH1 0x20 ADD PUSH1 0x0 PUSH1 0xFF AND DUP2 MSTORE POP SWAP1 JUMP JUMPDEST DUP3 DUP1 SLOAD PUSH2 0x1158 SWAP1 PUSH2 0x1A2F JUMP JUMPDEST SWAP1 PUSH1 0x0 MSTORE PUSH1 0x20 PUSH1 0x0 KECCAK256 SWAP1 PUSH1 0x1F ADD PUSH1 0x20 SWAP1 DIV DUP2 ADD SWAP3 DUP3 PUSH2 0x117A JUMPI PUSH1 0x0 DUP6 SSTORE PUSH2 0x11C1 JUMP JUMPDEST DUP3 PUSH1 0x1F LT PUSH2 0x1193 JUMPI DUP1 MLOAD PUSH1 0xFF NOT AND DUP4 DUP1 ADD OR DUP6 SSTORE PUSH2 0x11C1 JUMP JUMPDEST DUP3 DUP1 ADD PUSH1 0x1 ADD DUP6 SSTORE DUP3 ISZERO PUSH2 0x11C1 JUMPI SWAP2 DUP3 ADD JUMPDEST DUP3 DUP2 GT ISZERO PUSH2 0x11C0 JUMPI DUP3 MLOAD DUP3 SSTORE SWAP2 PUSH1 0x20 ADD SWAP2 SWAP1 PUSH1 0x1 ADD SWAP1 PUSH2 0x11A5 JUMP JUMPDEST JUMPDEST POP SWAP1 POP PUSH2 0x11CE SWAP2 SWAP1 PUSH2 0x11D2 JUMP JUMPDEST POP SWAP1 JUMP JUMPDEST JUMPDEST DUP1 DUP3 GT ISZERO PUSH2 0x11EB JUMPI PUSH1 0x0 DUP2 PUSH1 0x0 SWAP1 SSTORE POP PUSH1 0x1 ADD PUSH2 0x11D3 JUMP JUMPDEST POP SWAP1 JUMP JUMPDEST PUSH1 0x0 PUSH1 0x40 MLOAD SWAP1 POP SWAP1 JUMP JUMPDEST PUSH1 0x0 DUP1 REVERT JUMPDEST PUSH1 0x0 DUP1 REVERT JUMPDEST PUSH1 0x0 DUP2 SWAP1 POP SWAP2 SWAP1 POP JUMP JUMPDEST PUSH2 0x1216 DUP2 PUSH2 0x1203 JUMP JUMPDEST DUP2 EQ PUSH2 0x1221 JUMPI PUSH1 0x0 DUP1 REVERT JUMPDEST POP JUMP JUMPDEST PUSH1 0x0 DUP2 CALLDATALOAD SWAP1 POP PUSH2 0x1233 DUP2 PUSH2 0x120D JUMP JUMPDEST SWAP3 SWAP2 POP POP JUMP JUMPDEST PUSH1 0x0 DUP2 ISZERO ISZERO SWAP1 POP SWAP2 SWAP1 POP JUMP JUMPDEST PUSH2 0x124E DUP2 PUSH2 0x1239 JUMP JUMPDEST DUP2 EQ PUSH2 0x1259 JUMPI PUSH1 0x0 DUP1 REVERT JUMPDEST POP JUMP JUMPDEST PUSH1 0x0 DUP2 CALLDATALOAD SWAP1 POP PUSH2 0x126B DUP2 PUSH2 0x1245 JUMP JUMPDEST SWAP3 SWAP2 POP POP JUMP JUMPDEST PUSH1 0x0 DUP1 PUSH1 0x40 DUP4 DUP6 SUB SLT ISZERO PUSH2 0x1288 JUMPI PUSH2 0x1287 PUSH2 0x11F9 JUMP JUMPDEST JUMPDEST PUSH1 0x0 PUSH2 0x1296 DUP6 DUP3 DUP7 ADD PUSH2 0x1224 JUMP JUMPDEST SWAP3 POP POP PUSH1 0x20 PUSH2 0x12A7 DUP6 DUP3 DUP7 ADD PUSH2 0x125C JUMP JUMPDEST SWAP2 POP POP SWAP3 POP SWAP3 SWAP1 POP JUMP JUMPDEST PUSH1 0x0 PUSH1 0x20 DUP3 DUP5 SUB SLT ISZERO PUSH2 0x12C7 JUMPI PUSH2 0x12C6 PUSH2 0x11F9 JUMP JUMPDEST JUMPDEST PUSH1 0x0 PUSH2 0x12D5 DUP5 DUP3 DUP6 ADD PUSH2 0x1224 JUMP JUMPDEST SWAP2 POP POP SWAP3 SWAP2 POP POP JUMP JUMPDEST PUSH1 0x0 PUSH20 0xFFFFFFFFFFFFFFFFFFFFFFFFFFFFFFFFFFFFFFFF DUP3 AND SWAP1 POP SWAP2 SWAP1 POP JUMP JUMPDEST PUSH1 0x0 PUSH2 0x1309 DUP3 PUSH2 0x12DE JUMP JUMPDEST SWAP1 POP SWAP2 SWAP1 POP JUMP JUMPDEST PUSH2 0x1319 DUP2 PUSH2 0x12FE JUMP JUMPDEST DUP3 MSTORE POP POP JUMP JUMPDEST PUSH1 0x0 PUSH1 0x20 DUP3 ADD SWAP1 POP PUSH2 0x1334 PUSH1 0x0 DUP4 ADD DUP5 PUSH2 0x1310 JUMP JUMPDEST SWAP3 SWAP2 POP POP JUMP JUMPDEST PUSH1 0x0 DUP2 MLOAD SWAP1 POP SWAP2 SWAP1 POP JUMP JUMPDEST PUSH1 0x0 DUP3 DUP3 MSTORE PUSH1 0x20 DUP3 ADD SWAP1 POP SWAP3 SWAP2 POP POP JUMP JUMPDEST PUSH1 0x0 JUMPDEST DUP4 DUP2 LT ISZERO PUSH2 0x1374 JUMPI DUP1 DUP3 ADD MLOAD DUP2 DUP5 ADD MSTORE PUSH1 0x20 DUP2 ADD SWAP1 POP PUSH2 0x1359 JUMP JUMPDEST DUP4 DUP2 GT ISZERO PUSH2 0x1383 JUMPI PUSH1 0x0 DUP5 DUP5 ADD MSTORE JUMPDEST POP POP POP POP JUMP JUMPDEST PUSH1 0x0 PUSH1 0x1F NOT PUSH1 0x1F DUP4 ADD AND SWAP1 POP SWAP2 SWAP1 POP JUMP JUMPDEST PUSH1 0x0 PUSH2 0x13A5 DUP3 PUSH2 0x133A JUMP JUMPDEST PUSH2 0x13AF DUP2 DUP6 PUSH2 0x1345 JUMP JUMPDEST SWAP4 POP PUSH2 0x13BF DUP2 DUP6 PUSH1 0x20 DUP7 ADD PUSH2 0x1356 JUMP JUMPDEST PUSH2 0x13C8 DUP2 PUSH2 0x1389 JUMP JUMPDEST DUP5 ADD SWAP2 POP POP SWAP3 SWAP2 POP POP JUMP JUMPDEST PUSH1 0x0 PUSH1 0xC0 DUP4 ADD PUSH1 0x0 DUP4 ADD MLOAD DUP5 DUP3 SUB PUSH1 0x0 DUP7 ADD MSTORE PUSH2 0x13F0 DUP3 DUP3 PUSH2 0x139A JUMP JUMPDEST SWAP2 POP POP PUSH1 0x20 DUP4 ADD MLOAD DUP5 DUP3 SUB PUSH1 0x20 DUP7 ADD MSTORE PUSH2 0x140A DUP3 DUP3 PUSH2 0x139A JUMP JUMPDEST SWAP2 POP POP PUSH1 0x40 DUP4 ADD MLOAD DUP5 DUP3 SUB PUSH1 0x40 DUP7 ADD MSTORE PUSH2 0x1424 DUP3 DUP3 PUSH2 0x139A JUMP JUMPDEST SWAP2 POP POP PUSH1 0x60 DUP4 ADD MLOAD DUP5 DUP3 SUB PUSH1 0x60 DUP7 ADD MSTORE PUSH2 0x143E DUP3 DUP3 PUSH2 0x139A JUMP JUMPDEST SWAP2 POP POP PUSH1 0x80 DUP4 ADD MLOAD DUP5 DUP3 SUB PUSH1 0x80 DUP7 ADD MSTORE PUSH2 0x1458 DUP3 DUP3 PUSH2 0x139A JUMP JUMPDEST SWAP2 POP POP PUSH1 0xA0 DUP4 ADD MLOAD DUP5 DUP3 SUB PUSH1 0xA0 DUP7 ADD MSTORE PUSH2 0x1472 DUP3 DUP3 PUSH2 0x139A JUMP JUMPDEST SWAP2 POP POP DUP1 SWAP2 POP POP SWAP3 SWAP2 POP POP JUMP JUMPDEST PUSH1 0x0 PUSH1 0x20 DUP3 ADD SWAP1 POP DUP2 DUP2 SUB PUSH1 0x0 DUP4 ADD MSTORE PUSH2 0x1499 DUP2 DUP5 PUSH2 0x13D3 JUMP JUMPDEST SWAP1 POP SWAP3 SWAP2 POP POP JUMP JUMPDEST PUSH2 0x14AA DUP2 PUSH2 0x1239 JUMP JUMPDEST DUP3 MSTORE POP POP JUMP JUMPDEST PUSH1 0x0 PUSH1 0x20 DUP3 ADD SWAP1 POP PUSH2 0x14C5 PUSH1 0x0 DUP4 ADD DUP5 PUSH2 0x14A1 JUMP JUMPDEST SWAP3 SWAP2 POP POP JUMP JUMPDEST PUSH1 0x0 PUSH1 0xFF DUP3 AND SWAP1 POP SWAP2 SWAP1 POP JUMP JUMPDEST PUSH2 0x14E1 DUP2 PUSH2 0x14CB JUMP JUMPDEST DUP3 MSTORE POP POP JUMP JUMPDEST PUSH1 0x0 PUSH2 0x100 DUP4 ADD PUSH1 0x0 DUP4 ADD MLOAD DUP5 DUP3 SUB PUSH1 0x0 DUP7 ADD MSTORE PUSH2 0x1505 DUP3 DUP3 PUSH2 0x139A JUMP JUMPDEST SWAP2 POP POP PUSH1 0x20 DUP4 ADD MLOAD DUP5 DUP3 SUB PUSH1 0x20 DUP7 ADD MSTORE PUSH2 0x151F DUP3 DUP3 PUSH2 0x139A JUMP JUMPDEST SWAP2 POP POP PUSH1 0x40 DUP4 ADD MLOAD DUP5 DUP3 SUB PUSH1 0x40 DUP7 ADD MSTORE PUSH2 0x1539 DUP3 DUP3 PUSH2 0x139A JUMP JUMPDEST SWAP2 POP POP PUSH1 0x60 DUP4 ADD MLOAD DUP5 DUP3 SUB PUSH1 0x60 DUP7 ADD MSTORE PUSH2 0x1553 DUP3 DUP3 PUSH2 0x139A JUMP JUMPDEST SWAP2 POP POP PUSH1 0x80 DUP4 ADD MLOAD DUP5 DUP3 SUB PUSH1 0x80 DUP7 ADD MSTORE PUSH2 0x156D DUP3 DUP3 PUSH2 0x139A JUMP JUMPDEST SWAP2 POP POP PUSH1 0xA0 DUP4 ADD MLOAD DUP5 DUP3 SUB PUSH1 0xA0 DUP7 ADD MSTORE PUSH2 0x1587 DUP3 DUP3 PUSH2 0x139A JUMP JUMPDEST SWAP2 POP POP PUSH1 0xC0 DUP4 ADD MLOAD PUSH2 0x159C PUSH1 0xC0 DUP7 ADD DUP3 PUSH2 0x14D8 JUMP JUMPDEST POP PUSH1 0xE0 DUP4 ADD MLOAD PUSH2 0x15AF PUSH1 0xE0 DUP7 ADD DUP3 PUSH2 0x14D8 JUMP JUMPDEST POP DUP1 SWAP2 POP POP SWAP3 SWAP2 POP POP JUMP JUMPDEST PUSH1 0x0 PUSH1 0x20 DUP3 ADD SWAP1 POP DUP2 DUP2 SUB PUSH1 0x0 DUP4 ADD MSTORE PUSH2 0x15D4 DUP2 DUP5 PUSH2 0x14E7 JUMP JUMPDEST SWAP1 POP SWAP3 SWAP2 POP POP JUMP JUMPDEST PUSH1 0x0 DUP1 REVERT JUMPDEST PUSH1 0x0 DUP1 REVERT JUMPDEST PUSH32 0x4E487B7100000000000000000000000000000000000000000000000000000000 PUSH1 0x0 MSTORE PUSH1 0x41 PUSH1 0x4 MSTORE PUSH1 0x24 PUSH1 0x0 REVERT JUMPDEST PUSH2 0x161E DUP3 PUSH2 0x1389 JUMP JUMPDEST DUP2 ADD DUP2 DUP2 LT PUSH8 0xFFFFFFFFFFFFFFFF DUP3 GT OR ISZERO PUSH2 0x163D JUMPI PUSH2 0x163C PUSH2 0x15E6 JUMP JUMPDEST JUMPDEST DUP1 PUSH1 0x40 MSTORE POP POP POP JUMP JUMPDEST PUSH1 0x0 PUSH2 0x1650 PUSH2 0x11EF JUMP JUMPDEST SWAP1 POP PUSH2 0x165C DUP3 DUP3 PUSH2 0x1615 JUMP JUMPDEST SWAP2 SWAP1 POP JUMP JUMPDEST PUSH1 0x0 PUSH8 0xFFFFFFFFFFFFFFFF DUP3 GT ISZERO PUSH2 0x167C JUMPI PUSH2 0x167B PUSH2 0x15E6 JUMP JUMPDEST JUMPDEST PUSH2 0x1685 DUP3 PUSH2 0x1389 JUMP JUMPDEST SWAP1 POP PUSH1 0x20 DUP2 ADD SWAP1 POP SWAP2 SWAP1 POP JUMP JUMPDEST DUP3 DUP2 DUP4 CALLDATACOPY PUSH1 0x0 DUP4 DUP4 ADD MSTORE POP POP POP JUMP JUMPDEST PUSH1 0x0 PUSH2 0x16B4 PUSH2 0x16AF DUP5 PUSH2 0x1661 JUMP JUMPDEST PUSH2 0x1646 JUMP JUMPDEST SWAP1 POP DUP3 DUP2 MSTORE PUSH1 0x20 DUP2 ADD DUP5 DUP5 DUP5 ADD GT ISZERO PUSH2 0x16D0 JUMPI PUSH2 0x16CF PUSH2 0x15E1 JUMP JUMPDEST JUMPDEST PUSH2 0x16DB DUP5 DUP3 DUP6 PUSH2 0x1692 JUMP JUMPDEST POP SWAP4 SWAP3 POP POP POP JUMP JUMPDEST PUSH1 0x0 DUP3 PUSH1 0x1F DUP4 ADD SLT PUSH2 0x16F8 JUMPI PUSH2 0x16F7 PUSH2 0x15DC JUMP JUMPDEST JUMPDEST DUP2 CALLDATALOAD PUSH2 0x1708 DUP5 DUP3 PUSH1 0x20 DUP7 ADD PUSH2 0x16A1 JUMP JUMPDEST SWAP2 POP POP SWAP3 SWAP2 POP POP JUMP JUMPDEST PUSH2 0x171A DUP2 PUSH2 0x14CB JUMP JUMPDEST DUP2 EQ PUSH2 0x1725 JUMPI PUSH1 0x0 DUP1 REVERT JUMPDEST POP JUMP JUMPDEST PUSH1 0x0 DUP2 CALLDATALOAD SWAP1 POP PUSH2 0x1737 DUP2 PUSH2 0x1711 JUMP JUMPDEST SWAP3 SWAP2 POP POP JUMP JUMPDEST PUSH1 0x0 DUP1 PUSH1 0x0 DUP1 PUSH1 0x0 DUP1 PUSH1 0x0 DUP1 PUSH2 0x100 DUP10 DUP12 SUB SLT ISZERO PUSH2 0x175E JUMPI PUSH2 0x175D PUSH2 0x11F9 JUMP JUMPDEST JUMPDEST PUSH1 0x0 DUP10 ADD CALLDATALOAD PUSH8 0xFFFFFFFFFFFFFFFF DUP2 GT ISZERO PUSH2 0x177C JUMPI PUSH2 0x177B PUSH2 0x11FE JUMP JUMPDEST JUMPDEST PUSH2 0x1788 DUP12 DUP3 DUP13 ADD PUSH2 0x16E3 JUMP JUMPDEST SWAP9 POP POP PUSH1 0x20 DUP10 ADD CALLDATALOAD PUSH8 0xFFFFFFFFFFFFFFFF DUP2 GT ISZERO PUSH2 0x17A9 JUMPI PUSH2 0x17A8 PUSH2 0x11FE JUMP JUMPDEST JUMPDEST PUSH2 0x17B5 DUP12 DUP3 DUP13 ADD PUSH2 0x16E3 JUMP JUMPDEST SWAP8 POP POP PUSH1 0x40 DUP10 ADD CALLDATALOAD PUSH8 0xFFFFFFFFFFFFFFFF DUP2 GT ISZERO PUSH2 0x17D6 JUMPI PUSH2 0x17D5 PUSH2 0x11FE JUMP JUMPDEST JUMPDEST PUSH2 0x17E2 DUP12 DUP3 DUP13 ADD PUSH2 0x16E3 JUMP JUMPDEST SWAP7 POP POP PUSH1 0x60 DUP10 ADD CALLDATALOAD PUSH8 0xFFFFFFFFFFFFFFFF DUP2 GT ISZERO PUSH2 0x1803 JUMPI PUSH2 0x1802 PUSH2 0x11FE JUMP JUMPDEST JUMPDEST PUSH2 0x180F DUP12 DUP3 DUP13 ADD PUSH2 0x16E3 JUMP JUMPDEST SWAP6 POP POP PUSH1 0x80 DUP10 ADD CALLDATALOAD PUSH8 0xFFFFFFFFFFFFFFFF DUP2 GT ISZERO PUSH2 0x1830 JUMPI PUSH2 0x182F PUSH2 0x11FE JUMP JUMPDEST JUMPDEST PUSH2 0x183C DUP12 DUP3 DUP13 ADD PUSH2 0x16E3 JUMP JUMPDEST SWAP5 POP POP PUSH1 0xA0 DUP10 ADD CALLDATALOAD PUSH8 0xFFFFFFFFFFFFFFFF DUP2 GT ISZERO PUSH2 0x185D JUMPI PUSH2 0x185C PUSH2 0x11FE JUMP JUMPDEST JUMPDEST PUSH2 0x1869 DUP12 DUP3 DUP13 ADD PUSH2 0x16E3 JUMP JUMPDEST SWAP4 POP POP PUSH1 0xC0 PUSH2 0x187A DUP12 DUP3 DUP13 ADD PUSH2 0x1728 JUMP JUMPDEST SWAP3 POP POP PUSH1 0xE0 PUSH2 0x188B DUP12 DUP3 DUP13 ADD PUSH2 0x1728 JUMP JUMPDEST SWAP2 POP POP SWAP3 SWAP6 SWAP9 POP SWAP3 SWAP6 SWAP9 SWAP1 SWAP4 SWAP7 POP JUMP JUMPDEST PUSH2 0x18A4 DUP2 PUSH2 0x12FE JUMP JUMPDEST DUP2 EQ PUSH2 0x18AF JUMPI PUSH1 0x0 DUP1 REVERT JUMPDEST POP JUMP JUMPDEST PUSH1 0x0 DUP2 CALLDATALOAD SWAP1 POP PUSH2 0x18C1 DUP2 PUSH2 0x189B JUMP JUMPDEST SWAP3 SWAP2 POP POP JUMP JUMPDEST PUSH1 0x0 PUSH1 0x20 DUP3 DUP5 SUB SLT ISZERO PUSH2 0x18DD JUMPI PUSH2 0x18DC PUSH2 0x11F9 JUMP JUMPDEST JUMPDEST PUSH1 0x0 PUSH2 0x18EB DUP5 DUP3 DUP6 ADD PUSH2 0x18B2 JUMP JUMPDEST SWAP2 POP POP SWAP3 SWAP2 POP POP JUMP JUMPDEST PUSH1 0x0 DUP3 DUP3 MSTORE PUSH1 0x20 DUP3 ADD SWAP1 POP SWAP3 SWAP2 POP POP JUMP JUMPDEST PUSH32 0x4F776E61626C653A2063616C6C6572206973206E6F7420746865206F776E6572 PUSH1 0x0 DUP3 ADD MSTORE POP JUMP JUMPDEST PUSH1 0x0 PUSH2 0x193B PUSH1 0x20 DUP4 PUSH2 0x18F4 JUMP JUMPDEST SWAP2 POP PUSH2 0x1946 DUP3 PUSH2 0x1905 JUMP JUMPDEST PUSH1 0x20 DUP3 ADD SWAP1 POP SWAP2 SWAP1 POP JUMP JUMPDEST PUSH1 0x0 PUSH1 0x20 DUP3 ADD SWAP1 POP DUP2 DUP2 SUB PUSH1 0x0 DUP4 ADD MSTORE PUSH2 0x196A DUP2 PUSH2 0x192E JUMP JUMPDEST SWAP1 POP SWAP2 SWAP1 POP JUMP JUMPDEST PUSH32 0x4E487B7100000000000000000000000000000000000000000000000000000000 PUSH1 0x0 MSTORE PUSH1 0x12 PUSH1 0x4 MSTORE PUSH1 0x24 PUSH1 0x0 REVERT JUMPDEST PUSH1 0x0 PUSH2 0x19AB DUP3 PUSH2 0x1203 JUMP JUMPDEST SWAP2 POP PUSH2 0x19B6 DUP4 PUSH2 0x1203 JUMP JUMPDEST SWAP3 POP DUP3 PUSH2 0x19C6 JUMPI PUSH2 0x19C5 PUSH2 0x1971 JUMP JUMPDEST JUMPDEST DUP3 DUP3 MOD SWAP1 POP SWAP3 SWAP2 POP POP JUMP JUMPDEST PUSH32 0x4E487B7100000000000000000000000000000000000000000000000000000000 PUSH1 0x0 MSTORE PUSH1 0x32 PUSH1 0x4 MSTORE PUSH1 0x24 PUSH1 0x0 REVERT JUMPDEST PUSH32 0x4E487B7100000000000000000000000000000000000000000000000000000000 PUSH1 0x0 MSTORE PUSH1 0x22 PUSH1 0x4 MSTORE PUSH1 0x24 PUSH1 0x0 REVERT JUMPDEST PUSH1 0x0 PUSH1 0x2 DUP3 DIV SWAP1 POP PUSH1 0x1 DUP3 AND DUP1 PUSH2 0x1A47 JUMPI PUSH1 0x7F DUP3 AND SWAP2 POP JUMPDEST PUSH1 0x20 DUP3 LT DUP2 SUB PUSH2 0x1A5A JUMPI PUSH2 0x1A59 PUSH2 0x1A00 JUMP JUMPDEST JUMPDEST POP SWAP2 SWAP1 POP JUMP JUMPDEST PUSH32 0x4E487B7100000000000000000000000000000000000000000000000000000000 PUSH1 0x0 MSTORE PUSH1 0x11 PUSH1 0x4 MSTORE PUSH1 0x24 PUSH1 0x0 REVERT JUMPDEST PUSH1 0x0 PUSH2 0x1A9A DUP3 PUSH2 0x1203 JUMP JUMPDEST SWAP2 POP PUSH2 0x1AA5 DUP4 PUSH2 0x1203 JUMP JUMPDEST SWAP3 POP DUP3 DUP3 LT ISZERO PUSH2 0x1AB8 JUMPI PUSH2 0x1AB7 PUSH2 0x1A60 JUMP JUMPDEST JUMPDEST DUP3 DUP3 SUB SWAP1 POP SWAP3 SWAP2 POP POP JUMP JUMPDEST PUSH1 0x0 PUSH2 0x1ACE DUP3 PUSH2 0x133A JUMP JUMPDEST PUSH2 0x1AD8 DUP2 DUP6 PUSH2 0x18F4 JUMP JUMPDEST SWAP4 POP PUSH2 0x1AE8 DUP2 DUP6 PUSH1 0x20 DUP7 ADD PUSH2 0x1356 JUMP JUMPDEST PUSH2 0x1AF1 DUP2 PUSH2 0x1389 JUMP JUMPDEST DUP5 ADD SWAP2 POP POP SWAP3 SWAP2 POP POP JUMP JUMPDEST PUSH2 0x1B05 DUP2 PUSH2 0x14CB JUMP JUMPDEST DUP3 MSTORE POP POP JUMP JUMPDEST PUSH1 0x0 PUSH1 0x40 DUP3 ADD SWAP1 POP DUP2 DUP2 SUB PUSH1 0x0 DUP4 ADD MSTORE PUSH2 0x1B25 DUP2 DUP6 PUSH2 0x1AC3 JUMP JUMPDEST SWAP1 POP PUSH2 0x1B34 PUSH1 0x20 DUP4 ADD DUP5 PUSH2 0x1AFC JUMP JUMPDEST SWAP4 SWAP3 POP POP POP JUMP JUMPDEST PUSH32 0x4F776E61626C653A206E6577206F776E657220697320746865207A65726F2061 PUSH1 0x0 DUP3 ADD MSTORE PUSH32 0x6464726573730000000000000000000000000000000000000000000000000000 PUSH1 0x20 DUP3 ADD MSTORE POP JUMP JUMPDEST PUSH1 0x0 PUSH2 0x1B97 PUSH1 0x26 DUP4 PUSH2 0x18F4 JUMP JUMPDEST SWAP2 POP PUSH2 0x1BA2 DUP3 PUSH2 0x1B3B JUMP JUMPDEST PUSH1 0x40 DUP3 ADD SWAP1 POP SWAP2 SWAP1 POP JUMP JUMPDEST PUSH1 0x0 PUSH1 0x20 DUP3 ADD SWAP1 POP DUP2 DUP2 SUB PUSH1 0x0 DUP4 ADD MSTORE PUSH2 0x1BC6 DUP2 PUSH2 0x1B8A JUMP JUMPDEST SWAP1 POP SWAP2 SWAP1 POP JUMP INVALID LOG2 PUSH5 0x6970667358 0x22 SLT KECCAK256 0xAF 0x2A 0xEA DIV PUSH26 0x1E50B188F5EFD23AF97C42200F00345B5F9F6C5C70755C5D1998 PUSH2 0x6473 PUSH16 0x6C634300080E00330000000000000000 "
				},
				"gasEstimates": {
					"creation": {
						"codeDepositCost": "1434200",
						"executionCost": "infinite",
						"totalCost": "infinite"
					},
					"external": {
						"_createQuiz(string,string,string,string,string,string,uint8,uint8)": "infinite",
						"changeQuizStatus(uint256,bool)": "27171",
						"getQuizForOwner(uint256)": "infinite",
						"getQuizQuestion(uint256)": "infinite",
						"getRandomQuizQuestion()": "infinite",
						"owner()": "2544",
						"quizIsActive(uint256)": "2885",
						"quizOwner(uint256)": "2884",
						"quizOwnerChangeStatus(uint256,bool)": "27206",
						"renounceOwnership()": "30374",
						"transferOwnership(address)": "30830"
					}
				},
				"methodIdentifiers": {
					"_createQuiz(string,string,string,string,string,string,uint8,uint8)": "e013d704",
					"changeQuizStatus(uint256,bool)": "1d3f7559",
					"getQuizForOwner(uint256)": "aecab072",
					"getQuizQuestion(uint256)": "cddbeb92",
					"getRandomQuizQuestion()": "4769cf83",
					"owner()": "8da5cb5b",
					"quizIsActive(uint256)": "51a1d40e",
					"quizOwner(uint256)": "400ae0f9",
					"quizOwnerChangeStatus(uint256,bool)": "377def85",
					"renounceOwnership()": "715018a6",
					"transferOwnership(address)": "f2fde38b"
				}
			},
			"storageLayout": {
				"storage": [
					{
						"astId": 178,
						"contract": "contracts/ViewQuiz.sol:ViewQuiz",
						"label": "_owner",
						"offset": 0,
						"slot": "0",
						"type": "t_address"
					},
					{
						"astId": 53,
						"contract": "contracts/ViewQuiz.sol:ViewQuiz",
						"label": "quizzes",
						"offset": 0,
						"slot": "1",
						"type": "t_array(t_struct(Quiz)49_storage)dyn_storage"
					},
					{
						"astId": 57,
						"contract": "contracts/ViewQuiz.sol:ViewQuiz",
						"label": "quizIsActive",
						"offset": 0,
						"slot": "2",
						"type": "t_mapping(t_uint256,t_bool)"
					},
					{
						"astId": 61,
						"contract": "contracts/ViewQuiz.sol:ViewQuiz",
						"label": "quizOwner",
						"offset": 0,
						"slot": "3",
						"type": "t_mapping(t_uint256,t_address)"
					}
				],
				"types": {
					"t_address": {
						"encoding": "inplace",
						"label": "address",
						"numberOfBytes": "20"
					},
					"t_array(t_struct(Quiz)49_storage)dyn_storage": {
						"base": "t_struct(Quiz)49_storage",
						"encoding": "dynamic_array",
						"label": "struct CreateQuiz.Quiz[]",
						"numberOfBytes": "32"
					},
					"t_bool": {
						"encoding": "inplace",
						"label": "bool",
						"numberOfBytes": "1"
					},
					"t_mapping(t_uint256,t_address)": {
						"encoding": "mapping",
						"key": "t_uint256",
						"label": "mapping(uint256 => address)",
						"numberOfBytes": "32",
						"value": "t_address"
					},
					"t_mapping(t_uint256,t_bool)": {
						"encoding": "mapping",
						"key": "t_uint256",
						"label": "mapping(uint256 => bool)",
						"numberOfBytes": "32",
						"value": "t_bool"
					},
					"t_string_storage": {
						"encoding": "bytes",
						"label": "string",
						"numberOfBytes": "32"
					},
					"t_struct(Quiz)49_storage": {
						"encoding": "inplace",
						"label": "struct CreateQuiz.Quiz",
						"members": [
							{
								"astId": 34,
								"contract": "contracts/ViewQuiz.sol:ViewQuiz",
								"label": "question",
								"offset": 0,
								"slot": "0",
								"type": "t_string_storage"
							},
							{
								"astId": 36,
								"contract": "contracts/ViewQuiz.sol:ViewQuiz",
								"label": "choice1",
								"offset": 0,
								"slot": "1",
								"type": "t_string_storage"
							},
							{
								"astId": 38,
								"contract": "contracts/ViewQuiz.sol:ViewQuiz",
								"label": "choice2",
								"offset": 0,
								"slot": "2",
								"type": "t_string_storage"
							},
							{
								"astId": 40,
								"contract": "contracts/ViewQuiz.sol:ViewQuiz",
								"label": "choice3",
								"offset": 0,
								"slot": "3",
								"type": "t_string_storage"
							},
							{
								"astId": 42,
								"contract": "contracts/ViewQuiz.sol:ViewQuiz",
								"label": "choice4",
								"offset": 0,
								"slot": "4",
								"type": "t_string_storage"
							},
							{
								"astId": 44,
								"contract": "contracts/ViewQuiz.sol:ViewQuiz",
								"label": "hint",
								"offset": 0,
								"slot": "5",
								"type": "t_string_storage"
							},
							{
								"astId": 46,
								"contract": "contracts/ViewQuiz.sol:ViewQuiz",
								"label": "answer",
								"offset": 0,
								"slot": "6",
								"type": "t_uint8"
							},
							{
								"astId": 48,
								"contract": "contracts/ViewQuiz.sol:ViewQuiz",
								"label": "languageCode",
								"offset": 1,
								"slot": "6",
								"type": "t_uint8"
							}
						],
						"numberOfBytes": "224"
					},
					"t_uint256": {
						"encoding": "inplace",
						"label": "uint256",
						"numberOfBytes": "32"
					},
					"t_uint8": {
						"encoding": "inplace",
						"label": "uint8",
						"numberOfBytes": "1"
					}
				}
			},
			"userdoc": {
				"kind": "user",
				"methods": {},
				"version": 1
			}
		}
	}
}