{
	"contracts/CreateQuiz.sol": {
		"CreateQuiz": {
			"abi": [
				{
					"anonymous": false,
					"inputs": [
						{
							"indexed": false,
							"internalType": "string",
							"name": "question",
							"type": "string"
						},
						{
							"indexed": false,
							"internalType": "uint8",
							"name": "answer",
							"type": "uint8"
						}
					],
					"name": "NewQuiz",
					"type": "event"
				},
				{
					"anonymous": false,
					"inputs": [
						{
							"indexed": true,
							"internalType": "address",
							"name": "previousOwner",
							"type": "address"
						},
						{
							"indexed": true,
							"internalType": "address",
							"name": "newOwner",
							"type": "address"
						}
					],
					"name": "OwnershipTransferred",
					"type": "event"
				},
				{
					"inputs": [
						{
							"internalType": "string",
							"name": "_question",
							"type": "string"
						},
						{
							"internalType": "string",
							"name": "_choice1",
							"type": "string"
						},
						{
							"internalType": "string",
							"name": "_choice2",
							"type": "string"
						},
						{
							"internalType": "string",
							"name": "_choice3",
							"type": "string"
						},
						{
							"internalType": "string",
							"name": "_choice4",
							"type": "string"
						},
						{
							"internalType": "uint8",
							"name": "_answer",
							"type": "uint8"
						},
						{
							"internalType": "uint8",
							"name": "_languageCode",
							"type": "uint8"
						}
					],
					"name": "createQuiz",
					"outputs": [],
					"stateMutability": "nonpayable",
					"type": "function"
				},
				{
					"inputs": [],
					"name": "owner",
					"outputs": [
						{
							"internalType": "address",
							"name": "",
							"type": "address"
						}
					],
					"stateMutability": "view",
					"type": "function"
				},
				{
					"inputs": [
						{
							"internalType": "uint256",
							"name": "",
							"type": "uint256"
						}
					],
					"name": "quizzes",
					"outputs": [
						{
							"internalType": "string",
							"name": "question",
							"type": "string"
						},
						{
							"internalType": "string",
							"name": "choice1",
							"type": "string"
						},
						{
							"internalType": "string",
							"name": "choice2",
							"type": "string"
						},
						{
							"internalType": "string",
							"name": "choice3",
							"type": "string"
						},
						{
							"internalType": "string",
							"name": "choice4",
							"type": "string"
						},
						{
							"internalType": "uint8",
							"name": "answer",
							"type": "uint8"
						},
						{
							"internalType": "uint8",
							"name": "languageCode",
							"type": "uint8"
						}
					],
					"stateMutability": "view",
					"type": "function"
				},
				{
					"inputs": [],
					"name": "renounceOwnership",
					"outputs": [],
					"stateMutability": "nonpayable",
					"type": "function"
				},
				{
					"inputs": [
						{
							"internalType": "address",
							"name": "newOwner",
							"type": "address"
						}
					],
					"name": "transferOwnership",
					"outputs": [],
					"stateMutability": "nonpayable",
					"type": "function"
				}
			],
			"devdoc": {
				"kind": "dev",
				"methods": {
					"owner()": {
						"details": "Returns the address of the current owner."
					},
					"renounceOwnership()": {
						"details": "Leaves the contract without owner. It will not be possible to call `onlyOwner` functions anymore. Can only be called by the current owner. NOTE: Renouncing ownership will leave the contract without an owner, thereby removing any functionality that is only available to the owner."
					},
					"transferOwnership(address)": {
						"details": "Transfers ownership of the contract to a new account (`newOwner`). Can only be called by the current owner."
					}
				},
				"version": 1
			},
			"evm": {
				"assembly": "    /* \"contracts/CreateQuiz.sol\":90:742  contract CreateQuiz is Ownable {... */\n  mstore(0x40, 0x80)\n  callvalue\n  dup1\n  iszero\n  tag_1\n  jumpi\n  0x00\n  dup1\n  revert\ntag_1:\n  pop\n    /* \"contracts/Ownable.sol\":914:946  _transferOwnership(_msgSender()) */\n  tag_4\n    /* \"contracts/Ownable.sol\":933:945  _msgSender() */\n  tag_5\n    /* \"contracts/Ownable.sol\":933:943  _msgSender */\n  shl(0x20, tag_6)\n    /* \"contracts/Ownable.sol\":933:945  _msgSender() */\n  0x20\n  shr\n  jump\t// in\ntag_5:\n    /* \"contracts/Ownable.sol\":914:932  _transferOwnership */\n  shl(0x20, tag_7)\n    /* \"contracts/Ownable.sol\":914:946  _transferOwnership(_msgSender()) */\n  0x20\n  shr\n  jump\t// in\ntag_4:\n    /* \"contracts/CreateQuiz.sol\":90:742  contract CreateQuiz is Ownable {... */\n  jump(tag_8)\n    /* \"contracts/Context.sol\":640:736  function _msgSender() internal view virtual returns (address) {... */\ntag_6:\n    /* \"contracts/Context.sol\":693:700  address */\n  0x00\n    /* \"contracts/Context.sol\":719:729  msg.sender */\n  caller\n    /* \"contracts/Context.sol\":712:729  return msg.sender */\n  swap1\n  pop\n    /* \"contracts/Context.sol\":640:736  function _msgSender() internal view virtual returns (address) {... */\n  swap1\n  jump\t// out\n    /* \"contracts/Ownable.sol\":2263:2450  function _transferOwnership(address newOwner) internal virtual {... */\ntag_7:\n    /* \"contracts/Ownable.sol\":2336:2352  address oldOwner */\n  0x00\n    /* \"contracts/Ownable.sol\":2355:2361  _owner */\n  dup1\n  0x00\n  swap1\n  sload\n  swap1\n  0x0100\n  exp\n  swap1\n  div\n  0xffffffffffffffffffffffffffffffffffffffff\n  and\n    /* \"contracts/Ownable.sol\":2336:2361  address oldOwner = _owner */\n  swap1\n  pop\n    /* \"contracts/Ownable.sol\":2380:2388  newOwner */\n  dup2\n    /* \"contracts/Ownable.sol\":2371:2377  _owner */\n  0x00\n  dup1\n    /* \"contracts/Ownable.sol\":2371:2388  _owner = newOwner */\n  0x0100\n  exp\n  dup2\n  sload\n  dup2\n  0xffffffffffffffffffffffffffffffffffffffff\n  mul\n  not\n  and\n  swap1\n  dup4\n  0xffffffffffffffffffffffffffffffffffffffff\n  and\n  mul\n  or\n  swap1\n  sstore\n  pop\n    /* \"contracts/Ownable.sol\":2434:2442  newOwner */\n  dup2\n    /* \"contracts/Ownable.sol\":2403:2443  OwnershipTransferred(oldOwner, newOwner) */\n  0xffffffffffffffffffffffffffffffffffffffff\n  and\n    /* \"contracts/Ownable.sol\":2424:2432  oldOwner */\n  dup2\n    /* \"contracts/Ownable.sol\":2403:2443  OwnershipTransferred(oldOwner, newOwner) */\n  0xffffffffffffffffffffffffffffffffffffffff\n  and\n  0x8be0079c531659141344cd1fd0a4f28419497f9722a3daafe3b4186f6b6457e0\n  mload(0x40)\n  mload(0x40)\n  dup1\n  swap2\n  sub\n  swap1\n  log3\n    /* \"contracts/Ownable.sol\":2326:2450  {... */\n  pop\n    /* \"contracts/Ownable.sol\":2263:2450  function _transferOwnership(address newOwner) internal virtual {... */\n  pop\n  jump\t// out\n    /* \"contracts/CreateQuiz.sol\":90:742  contract CreateQuiz is Ownable {... */\ntag_8:\n  dataSize(sub_0)\n  dup1\n  dataOffset(sub_0)\n  0x00\n  codecopy\n  0x00\n  return\nstop\n\nsub_0: assembly {\n        /* \"contracts/CreateQuiz.sol\":90:742  contract CreateQuiz is Ownable {... */\n      mstore(0x40, 0x80)\n      callvalue\n      dup1\n      iszero\n      tag_1\n      jumpi\n      0x00\n      dup1\n      revert\n    tag_1:\n      pop\n      jumpi(tag_2, lt(calldatasize, 0x04))\n      shr(0xe0, calldataload(0x00))\n      dup1\n      0x4361790f\n      eq\n      tag_3\n      jumpi\n      dup1\n      0x715018a6\n      eq\n      tag_4\n      jumpi\n      dup1\n      0x88409afa\n      eq\n      tag_5\n      jumpi\n      dup1\n      0x8da5cb5b\n      eq\n      tag_6\n      jumpi\n      dup1\n      0xf2fde38b\n      eq\n      tag_7\n      jumpi\n    tag_2:\n      0x00\n      dup1\n      revert\n        /* \"contracts/CreateQuiz.sol\":403:739  function createQuiz(string memory _question, string memory _choice1, string memory _choice2, string memory _choice3, string memory _choice4, uint8 _answer, uint8 _languageCode) public {... */\n    tag_3:\n      tag_8\n      0x04\n      dup1\n      calldatasize\n      sub\n      dup2\n      add\n      swap1\n      tag_9\n      swap2\n      swap1\n      tag_10\n      jump\t// in\n    tag_9:\n      tag_11\n      jump\t// in\n    tag_8:\n      stop\n        /* \"contracts/Ownable.sol\":1661:1762  function renounceOwnership() public virtual onlyOwner {... */\n    tag_4:\n      tag_12\n      tag_13\n      jump\t// in\n    tag_12:\n      stop\n        /* \"contracts/CreateQuiz.sol\":375:396  Quiz[] public quizzes */\n    tag_5:\n      tag_14\n      0x04\n      dup1\n      calldatasize\n      sub\n      dup2\n      add\n      swap1\n      tag_15\n      swap2\n      swap1\n      tag_16\n      jump\t// in\n    tag_15:\n      tag_17\n      jump\t// in\n    tag_14:\n      mload(0x40)\n      tag_18\n      swap8\n      swap7\n      swap6\n      swap5\n      swap4\n      swap3\n      swap2\n      swap1\n      tag_19\n      jump\t// in\n    tag_18:\n      mload(0x40)\n      dup1\n      swap2\n      sub\n      swap1\n      return\n        /* \"contracts/Ownable.sol\":1029:1114  function owner() public view virtual returns (address) {... */\n    tag_6:\n      tag_20\n      tag_21\n      jump\t// in\n    tag_20:\n      mload(0x40)\n      tag_22\n      swap2\n      swap1\n      tag_23\n      jump\t// in\n    tag_22:\n      mload(0x40)\n      dup1\n      swap2\n      sub\n      swap1\n      return\n        /* \"contracts/Ownable.sol\":1911:2109  function transferOwnership(address newOwner) public virtual onlyOwner {... */\n    tag_7:\n      tag_24\n      0x04\n      dup1\n      calldatasize\n      sub\n      dup2\n      add\n      swap1\n      tag_25\n      swap2\n      swap1\n      tag_26\n      jump\t// in\n    tag_25:\n      tag_27\n      jump\t// in\n    tag_24:\n      stop\n        /* \"contracts/CreateQuiz.sol\":403:739  function createQuiz(string memory _question, string memory _choice1, string memory _choice2, string memory _choice3, string memory _choice4, uint8 _answer, uint8 _languageCode) public {... */\n    tag_11:\n        /* \"contracts/CreateQuiz.sol\":597:604  quizzes */\n      0x01\n        /* \"contracts/CreateQuiz.sol\":610:689  Quiz(_question, _choice1, _choice2, _choice3, _choice4, _answer, _languageCode) */\n      mload(0x40)\n      dup1\n      0xe0\n      add\n      0x40\n      mstore\n      dup1\n        /* \"contracts/CreateQuiz.sol\":615:624  _question */\n      dup10\n        /* \"contracts/CreateQuiz.sol\":610:689  Quiz(_question, _choice1, _choice2, _choice3, _choice4, _answer, _languageCode) */\n      dup2\n      mstore\n      0x20\n      add\n        /* \"contracts/CreateQuiz.sol\":626:634  _choice1 */\n      dup9\n        /* \"contracts/CreateQuiz.sol\":610:689  Quiz(_question, _choice1, _choice2, _choice3, _choice4, _answer, _languageCode) */\n      dup2\n      mstore\n      0x20\n      add\n        /* \"contracts/CreateQuiz.sol\":636:644  _choice2 */\n      dup8\n        /* \"contracts/CreateQuiz.sol\":610:689  Quiz(_question, _choice1, _choice2, _choice3, _choice4, _answer, _languageCode) */\n      dup2\n      mstore\n      0x20\n      add\n        /* \"contracts/CreateQuiz.sol\":646:654  _choice3 */\n      dup7\n        /* \"contracts/CreateQuiz.sol\":610:689  Quiz(_question, _choice1, _choice2, _choice3, _choice4, _answer, _languageCode) */\n      dup2\n      mstore\n      0x20\n      add\n        /* \"contracts/CreateQuiz.sol\":656:664  _choice4 */\n      dup6\n        /* \"contracts/CreateQuiz.sol\":610:689  Quiz(_question, _choice1, _choice2, _choice3, _choice4, _answer, _languageCode) */\n      dup2\n      mstore\n      0x20\n      add\n        /* \"contracts/CreateQuiz.sol\":666:673  _answer */\n      dup5\n        /* \"contracts/CreateQuiz.sol\":610:689  Quiz(_question, _choice1, _choice2, _choice3, _choice4, _answer, _languageCode) */\n      0xff\n      and\n      dup2\n      mstore\n      0x20\n      add\n        /* \"contracts/CreateQuiz.sol\":675:688  _languageCode */\n      dup4\n        /* \"contracts/CreateQuiz.sol\":610:689  Quiz(_question, _choice1, _choice2, _choice3, _choice4, _answer, _languageCode) */\n      0xff\n      and\n      dup2\n      mstore\n      pop\n        /* \"contracts/CreateQuiz.sol\":597:690  quizzes.push(Quiz(_question, _choice1, _choice2, _choice3, _choice4, _answer, _languageCode)) */\n      swap1\n      dup1\n      0x01\n      dup2\n      sload\n      add\n      dup1\n      dup3\n      sstore\n      dup1\n      swap2\n      pop\n      pop\n      0x01\n      swap1\n      sub\n      swap1\n      0x00\n      mstore\n      keccak256(0x00, 0x20)\n      swap1\n      0x06\n      mul\n      add\n      0x00\n      swap1\n      swap2\n      swap1\n      swap2\n      swap1\n      swap2\n      pop\n      0x00\n      dup3\n      add\n      mload\n      dup2\n      0x00\n      add\n      swap1\n      dup1\n      mload\n      swap1\n      0x20\n      add\n      swap1\n      tag_30\n      swap3\n      swap2\n      swap1\n      tag_31\n      jump\t// in\n    tag_30:\n      pop\n      0x20\n      dup3\n      add\n      mload\n      dup2\n      0x01\n      add\n      swap1\n      dup1\n      mload\n      swap1\n      0x20\n      add\n      swap1\n      tag_32\n      swap3\n      swap2\n      swap1\n      tag_31\n      jump\t// in\n    tag_32:\n      pop\n      0x40\n      dup3\n      add\n      mload\n      dup2\n      0x02\n      add\n      swap1\n      dup1\n      mload\n      swap1\n      0x20\n      add\n      swap1\n      tag_33\n      swap3\n      swap2\n      swap1\n      tag_31\n      jump\t// in\n    tag_33:\n      pop\n      0x60\n      dup3\n      add\n      mload\n      dup2\n      0x03\n      add\n      swap1\n      dup1\n      mload\n      swap1\n      0x20\n      add\n      swap1\n      tag_34\n      swap3\n      swap2\n      swap1\n      tag_31\n      jump\t// in\n    tag_34:\n      pop\n      0x80\n      dup3\n      add\n      mload\n      dup2\n      0x04\n      add\n      swap1\n      dup1\n      mload\n      swap1\n      0x20\n      add\n      swap1\n      tag_35\n      swap3\n      swap2\n      swap1\n      tag_31\n      jump\t// in\n    tag_35:\n      pop\n      0xa0\n      dup3\n      add\n      mload\n      dup2\n      0x05\n      add\n      exp(0x0100, 0x00)\n      dup2\n      sload\n      dup2\n      0xff\n      mul\n      not\n      and\n      swap1\n      dup4\n      0xff\n      and\n      mul\n      or\n      swap1\n      sstore\n      pop\n      0xc0\n      dup3\n      add\n      mload\n      dup2\n      0x05\n      add\n      exp(0x0100, 0x01)\n      dup2\n      sload\n      dup2\n      0xff\n      mul\n      not\n      and\n      swap1\n      dup4\n      0xff\n      and\n      mul\n      or\n      swap1\n      sstore\n      pop\n      pop\n      pop\n        /* \"contracts/CreateQuiz.sol\":705:732  NewQuiz(_question, _answer) */\n      0x545dca5d847b655a9f03cdf5619f53f0b2546051fd0d015b18c09ae2a8b1a765\n        /* \"contracts/CreateQuiz.sol\":713:722  _question */\n      dup8\n        /* \"contracts/CreateQuiz.sol\":724:731  _answer */\n      dup4\n        /* \"contracts/CreateQuiz.sol\":705:732  NewQuiz(_question, _answer) */\n      mload(0x40)\n      tag_36\n      swap3\n      swap2\n      swap1\n      tag_37\n      jump\t// in\n    tag_36:\n      mload(0x40)\n      dup1\n      swap2\n      sub\n      swap1\n      log1\n        /* \"contracts/CreateQuiz.sol\":403:739  function createQuiz(string memory _question, string memory _choice1, string memory _choice2, string memory _choice3, string memory _choice4, uint8 _answer, uint8 _languageCode) public {... */\n      pop\n      pop\n      pop\n      pop\n      pop\n      pop\n      pop\n      jump\t// out\n        /* \"contracts/Ownable.sol\":1661:1762  function renounceOwnership() public virtual onlyOwner {... */\n    tag_13:\n        /* \"contracts/Ownable.sol\":1252:1264  _msgSender() */\n      tag_39\n        /* \"contracts/Ownable.sol\":1252:1262  _msgSender */\n      tag_40\n        /* \"contracts/Ownable.sol\":1252:1264  _msgSender() */\n      jump\t// in\n    tag_39:\n        /* \"contracts/Ownable.sol\":1241:1264  owner() == _msgSender() */\n      0xffffffffffffffffffffffffffffffffffffffff\n      and\n        /* \"contracts/Ownable.sol\":1241:1248  owner() */\n      tag_41\n        /* \"contracts/Ownable.sol\":1241:1246  owner */\n      tag_21\n        /* \"contracts/Ownable.sol\":1241:1248  owner() */\n      jump\t// in\n    tag_41:\n        /* \"contracts/Ownable.sol\":1241:1264  owner() == _msgSender() */\n      0xffffffffffffffffffffffffffffffffffffffff\n      and\n      eq\n        /* \"contracts/Ownable.sol\":1233:1301  require(owner() == _msgSender(), \"Ownable: caller is not the owner\") */\n      tag_42\n      jumpi\n      mload(0x40)\n      0x08c379a000000000000000000000000000000000000000000000000000000000\n      dup2\n      mstore\n      0x04\n      add\n      tag_43\n      swap1\n      tag_44\n      jump\t// in\n    tag_43:\n      mload(0x40)\n      dup1\n      swap2\n      sub\n      swap1\n      revert\n    tag_42:\n        /* \"contracts/Ownable.sol\":1725:1755  _transferOwnership(address(0)) */\n      tag_46\n        /* \"contracts/Ownable.sol\":1752:1753  0 */\n      0x00\n        /* \"contracts/Ownable.sol\":1725:1743  _transferOwnership */\n      tag_47\n        /* \"contracts/Ownable.sol\":1725:1755  _transferOwnership(address(0)) */\n      jump\t// in\n    tag_46:\n        /* \"contracts/Ownable.sol\":1661:1762  function renounceOwnership() public virtual onlyOwner {... */\n      jump\t// out\n        /* \"contracts/CreateQuiz.sol\":375:396  Quiz[] public quizzes */\n    tag_17:\n      0x01\n      dup2\n      dup2\n      sload\n      dup2\n      lt\n      tag_48\n      jumpi\n      0x00\n      dup1\n      revert\n    tag_48:\n      swap1\n      0x00\n      mstore\n      keccak256(0x00, 0x20)\n      swap1\n      0x06\n      mul\n      add\n      0x00\n      swap2\n      pop\n      swap1\n      pop\n      dup1\n      0x00\n      add\n      dup1\n      sload\n      tag_50\n      swap1\n      tag_51\n      jump\t// in\n    tag_50:\n      dup1\n      0x1f\n      add\n      0x20\n      dup1\n      swap2\n      div\n      mul\n      0x20\n      add\n      mload(0x40)\n      swap1\n      dup2\n      add\n      0x40\n      mstore\n      dup1\n      swap3\n      swap2\n      swap1\n      dup2\n      dup2\n      mstore\n      0x20\n      add\n      dup3\n      dup1\n      sload\n      tag_52\n      swap1\n      tag_51\n      jump\t// in\n    tag_52:\n      dup1\n      iszero\n      tag_53\n      jumpi\n      dup1\n      0x1f\n      lt\n      tag_54\n      jumpi\n      0x0100\n      dup1\n      dup4\n      sload\n      div\n      mul\n      dup4\n      mstore\n      swap2\n      0x20\n      add\n      swap2\n      jump(tag_53)\n    tag_54:\n      dup3\n      add\n      swap2\n      swap1\n      0x00\n      mstore\n      keccak256(0x00, 0x20)\n      swap1\n    tag_55:\n      dup2\n      sload\n      dup2\n      mstore\n      swap1\n      0x01\n      add\n      swap1\n      0x20\n      add\n      dup1\n      dup4\n      gt\n      tag_55\n      jumpi\n      dup3\n      swap1\n      sub\n      0x1f\n      and\n      dup3\n      add\n      swap2\n    tag_53:\n      pop\n      pop\n      pop\n      pop\n      pop\n      swap1\n      dup1\n      0x01\n      add\n      dup1\n      sload\n      tag_56\n      swap1\n      tag_51\n      jump\t// in\n    tag_56:\n      dup1\n      0x1f\n      add\n      0x20\n      dup1\n      swap2\n      div\n      mul\n      0x20\n      add\n      mload(0x40)\n      swap1\n      dup2\n      add\n      0x40\n      mstore\n      dup1\n      swap3\n      swap2\n      swap1\n      dup2\n      dup2\n      mstore\n      0x20\n      add\n      dup3\n      dup1\n      sload\n      tag_57\n      swap1\n      tag_51\n      jump\t// in\n    tag_57:\n      dup1\n      iszero\n      tag_58\n      jumpi\n      dup1\n      0x1f\n      lt\n      tag_59\n      jumpi\n      0x0100\n      dup1\n      dup4\n      sload\n      div\n      mul\n      dup4\n      mstore\n      swap2\n      0x20\n      add\n      swap2\n      jump(tag_58)\n    tag_59:\n      dup3\n      add\n      swap2\n      swap1\n      0x00\n      mstore\n      keccak256(0x00, 0x20)\n      swap1\n    tag_60:\n      dup2\n      sload\n      dup2\n      mstore\n      swap1\n      0x01\n      add\n      swap1\n      0x20\n      add\n      dup1\n      dup4\n      gt\n      tag_60\n      jumpi\n      dup3\n      swap1\n      sub\n      0x1f\n      and\n      dup3\n      add\n      swap2\n    tag_58:\n      pop\n      pop\n      pop\n      pop\n      pop\n      swap1\n      dup1\n      0x02\n      add\n      dup1\n      sload\n      tag_61\n      swap1\n      tag_51\n      jump\t// in\n    tag_61:\n      dup1\n      0x1f\n      add\n      0x20\n      dup1\n      swap2\n      div\n      mul\n      0x20\n      add\n      mload(0x40)\n      swap1\n      dup2\n      add\n      0x40\n      mstore\n      dup1\n      swap3\n      swap2\n      swap1\n      dup2\n      dup2\n      mstore\n      0x20\n      add\n      dup3\n      dup1\n      sload\n      tag_62\n      swap1\n      tag_51\n      jump\t// in\n    tag_62:\n      dup1\n      iszero\n      tag_63\n      jumpi\n      dup1\n      0x1f\n      lt\n      tag_64\n      jumpi\n      0x0100\n      dup1\n      dup4\n      sload\n      div\n      mul\n      dup4\n      mstore\n      swap2\n      0x20\n      add\n      swap2\n      jump(tag_63)\n    tag_64:\n      dup3\n      add\n      swap2\n      swap1\n      0x00\n      mstore\n      keccak256(0x00, 0x20)\n      swap1\n    tag_65:\n      dup2\n      sload\n      dup2\n      mstore\n      swap1\n      0x01\n      add\n      swap1\n      0x20\n      add\n      dup1\n      dup4\n      gt\n      tag_65\n      jumpi\n      dup3\n      swap1\n      sub\n      0x1f\n      and\n      dup3\n      add\n      swap2\n    tag_63:\n      pop\n      pop\n      pop\n      pop\n      pop\n      swap1\n      dup1\n      0x03\n      add\n      dup1\n      sload\n      tag_66\n      swap1\n      tag_51\n      jump\t// in\n    tag_66:\n      dup1\n      0x1f\n      add\n      0x20\n      dup1\n      swap2\n      div\n      mul\n      0x20\n      add\n      mload(0x40)\n      swap1\n      dup2\n      add\n      0x40\n      mstore\n      dup1\n      swap3\n      swap2\n      swap1\n      dup2\n      dup2\n      mstore\n      0x20\n      add\n      dup3\n      dup1\n      sload\n      tag_67\n      swap1\n      tag_51\n      jump\t// in\n    tag_67:\n      dup1\n      iszero\n      tag_68\n      jumpi\n      dup1\n      0x1f\n      lt\n      tag_69\n      jumpi\n      0x0100\n      dup1\n      dup4\n      sload\n      div\n      mul\n      dup4\n      mstore\n      swap2\n      0x20\n      add\n      swap2\n      jump(tag_68)\n    tag_69:\n      dup3\n      add\n      swap2\n      swap1\n      0x00\n      mstore\n      keccak256(0x00, 0x20)\n      swap1\n    tag_70:\n      dup2\n      sload\n      dup2\n      mstore\n      swap1\n      0x01\n      add\n      swap1\n      0x20\n      add\n      dup1\n      dup4\n      gt\n      tag_70\n      jumpi\n      dup3\n      swap1\n      sub\n      0x1f\n      and\n      dup3\n      add\n      swap2\n    tag_68:\n      pop\n      pop\n      pop\n      pop\n      pop\n      swap1\n      dup1\n      0x04\n      add\n      dup1\n      sload\n      tag_71\n      swap1\n      tag_51\n      jump\t// in\n    tag_71:\n      dup1\n      0x1f\n      add\n      0x20\n      dup1\n      swap2\n      div\n      mul\n      0x20\n      add\n      mload(0x40)\n      swap1\n      dup2\n      add\n      0x40\n      mstore\n      dup1\n      swap3\n      swap2\n      swap1\n      dup2\n      dup2\n      mstore\n      0x20\n      add\n      dup3\n      dup1\n      sload\n      tag_72\n      swap1\n      tag_51\n      jump\t// in\n    tag_72:\n      dup1\n      iszero\n      tag_73\n      jumpi\n      dup1\n      0x1f\n      lt\n      tag_74\n      jumpi\n      0x0100\n      dup1\n      dup4\n      sload\n      div\n      mul\n      dup4\n      mstore\n      swap2\n      0x20\n      add\n      swap2\n      jump(tag_73)\n    tag_74:\n      dup3\n      add\n      swap2\n      swap1\n      0x00\n      mstore\n      keccak256(0x00, 0x20)\n      swap1\n    tag_75:\n      dup2\n      sload\n      dup2\n      mstore\n      swap1\n      0x01\n      add\n      swap1\n      0x20\n      add\n      dup1\n      dup4\n      gt\n      tag_75\n      jumpi\n      dup3\n      swap1\n      sub\n      0x1f\n      and\n      dup3\n      add\n      swap2\n    tag_73:\n      pop\n      pop\n      pop\n      pop\n      pop\n      swap1\n      dup1\n      0x05\n      add\n      0x00\n      swap1\n      sload\n      swap1\n      0x0100\n      exp\n      swap1\n      div\n      0xff\n      and\n      swap1\n      dup1\n      0x05\n      add\n      0x01\n      swap1\n      sload\n      swap1\n      0x0100\n      exp\n      swap1\n      div\n      0xff\n      and\n      swap1\n      pop\n      dup8\n      jump\t// out\n        /* \"contracts/Ownable.sol\":1029:1114  function owner() public view virtual returns (address) {... */\n    tag_21:\n        /* \"contracts/Ownable.sol\":1075:1082  address */\n      0x00\n        /* \"contracts/Ownable.sol\":1101:1107  _owner */\n      dup1\n      0x00\n      swap1\n      sload\n      swap1\n      0x0100\n      exp\n      swap1\n      div\n      0xffffffffffffffffffffffffffffffffffffffff\n      and\n        /* \"contracts/Ownable.sol\":1094:1107  return _owner */\n      swap1\n      pop\n        /* \"contracts/Ownable.sol\":1029:1114  function owner() public view virtual returns (address) {... */\n      swap1\n      jump\t// out\n        /* \"contracts/Ownable.sol\":1911:2109  function transferOwnership(address newOwner) public virtual onlyOwner {... */\n    tag_27:\n        /* \"contracts/Ownable.sol\":1252:1264  _msgSender() */\n      tag_78\n        /* \"contracts/Ownable.sol\":1252:1262  _msgSender */\n      tag_40\n        /* \"contracts/Ownable.sol\":1252:1264  _msgSender() */\n      jump\t// in\n    tag_78:\n        /* \"contracts/Ownable.sol\":1241:1264  owner() == _msgSender() */\n      0xffffffffffffffffffffffffffffffffffffffff\n      and\n        /* \"contracts/Ownable.sol\":1241:1248  owner() */\n      tag_79\n        /* \"contracts/Ownable.sol\":1241:1246  owner */\n      tag_21\n        /* \"contracts/Ownable.sol\":1241:1248  owner() */\n      jump\t// in\n    tag_79:\n        /* \"contracts/Ownable.sol\":1241:1264  owner() == _msgSender() */\n      0xffffffffffffffffffffffffffffffffffffffff\n      and\n      eq\n        /* \"contracts/Ownable.sol\":1233:1301  require(owner() == _msgSender(), \"Ownable: caller is not the owner\") */\n      tag_80\n      jumpi\n      mload(0x40)\n      0x08c379a000000000000000000000000000000000000000000000000000000000\n      dup2\n      mstore\n      0x04\n      add\n      tag_81\n      swap1\n      tag_44\n      jump\t// in\n    tag_81:\n      mload(0x40)\n      dup1\n      swap2\n      sub\n      swap1\n      revert\n    tag_80:\n        /* \"contracts/Ownable.sol\":2019:2020  0 */\n      0x00\n        /* \"contracts/Ownable.sol\":1999:2021  newOwner != address(0) */\n      0xffffffffffffffffffffffffffffffffffffffff\n      and\n        /* \"contracts/Ownable.sol\":1999:2007  newOwner */\n      dup2\n        /* \"contracts/Ownable.sol\":1999:2021  newOwner != address(0) */\n      0xffffffffffffffffffffffffffffffffffffffff\n      and\n      sub\n        /* \"contracts/Ownable.sol\":1991:2064  require(newOwner != address(0), \"Ownable: new owner is the zero address\") */\n      tag_83\n      jumpi\n      mload(0x40)\n      0x08c379a000000000000000000000000000000000000000000000000000000000\n      dup2\n      mstore\n      0x04\n      add\n      tag_84\n      swap1\n      tag_85\n      jump\t// in\n    tag_84:\n      mload(0x40)\n      dup1\n      swap2\n      sub\n      swap1\n      revert\n    tag_83:\n        /* \"contracts/Ownable.sol\":2074:2102  _transferOwnership(newOwner) */\n      tag_86\n        /* \"contracts/Ownable.sol\":2093:2101  newOwner */\n      dup2\n        /* \"contracts/Ownable.sol\":2074:2092  _transferOwnership */\n      tag_47\n        /* \"contracts/Ownable.sol\":2074:2102  _transferOwnership(newOwner) */\n      jump\t// in\n    tag_86:\n        /* \"contracts/Ownable.sol\":1911:2109  function transferOwnership(address newOwner) public virtual onlyOwner {... */\n      pop\n      jump\t// out\n        /* \"contracts/Context.sol\":640:736  function _msgSender() internal view virtual returns (address) {... */\n    tag_40:\n        /* \"contracts/Context.sol\":693:700  address */\n      0x00\n        /* \"contracts/Context.sol\":719:729  msg.sender */\n      caller\n        /* \"contracts/Context.sol\":712:729  return msg.sender */\n      swap1\n      pop\n        /* \"contracts/Context.sol\":640:736  function _msgSender() internal view virtual returns (address) {... */\n      swap1\n      jump\t// out\n        /* \"contracts/Ownable.sol\":2263:2450  function _transferOwnership(address newOwner) internal virtual {... */\n    tag_47:\n        /* \"contracts/Ownable.sol\":2336:2352  address oldOwner */\n      0x00\n        /* \"contracts/Ownable.sol\":2355:2361  _owner */\n      dup1\n      0x00\n      swap1\n      sload\n      swap1\n      0x0100\n      exp\n      swap1\n      div\n      0xffffffffffffffffffffffffffffffffffffffff\n      and\n        /* \"contracts/Ownable.sol\":2336:2361  address oldOwner = _owner */\n      swap1\n      pop\n        /* \"contracts/Ownable.sol\":2380:2388  newOwner */\n      dup2\n        /* \"contracts/Ownable.sol\":2371:2377  _owner */\n      0x00\n      dup1\n        /* \"contracts/Ownable.sol\":2371:2388  _owner = newOwner */\n      0x0100\n      exp\n      dup2\n      sload\n      dup2\n      0xffffffffffffffffffffffffffffffffffffffff\n      mul\n      not\n      and\n      swap1\n      dup4\n      0xffffffffffffffffffffffffffffffffffffffff\n      and\n      mul\n      or\n      swap1\n      sstore\n      pop\n        /* \"contracts/Ownable.sol\":2434:2442  newOwner */\n      dup2\n        /* \"contracts/Ownable.sol\":2403:2443  OwnershipTransferred(oldOwner, newOwner) */\n      0xffffffffffffffffffffffffffffffffffffffff\n      and\n        /* \"contracts/Ownable.sol\":2424:2432  oldOwner */\n      dup2\n        /* \"contracts/Ownable.sol\":2403:2443  OwnershipTransferred(oldOwner, newOwner) */\n      0xffffffffffffffffffffffffffffffffffffffff\n      and\n      0x8be0079c531659141344cd1fd0a4f28419497f9722a3daafe3b4186f6b6457e0\n      mload(0x40)\n      mload(0x40)\n      dup1\n      swap2\n      sub\n      swap1\n      log3\n        /* \"contracts/Ownable.sol\":2326:2450  {... */\n      pop\n        /* \"contracts/Ownable.sol\":2263:2450  function _transferOwnership(address newOwner) internal virtual {... */\n      pop\n      jump\t// out\n    tag_31:\n      dup3\n      dup1\n      sload\n      tag_89\n      swap1\n      tag_51\n      jump\t// in\n    tag_89:\n      swap1\n      0x00\n      mstore\n      keccak256(0x00, 0x20)\n      swap1\n      0x1f\n      add\n      0x20\n      swap1\n      div\n      dup2\n      add\n      swap3\n      dup3\n      tag_91\n      jumpi\n      0x00\n      dup6\n      sstore\n      jump(tag_90)\n    tag_91:\n      dup3\n      0x1f\n      lt\n      tag_92\n      jumpi\n      dup1\n      mload\n      not(0xff)\n      and\n      dup4\n      dup1\n      add\n      or\n      dup6\n      sstore\n      jump(tag_90)\n    tag_92:\n      dup3\n      dup1\n      add\n      0x01\n      add\n      dup6\n      sstore\n      dup3\n      iszero\n      tag_90\n      jumpi\n      swap2\n      dup3\n      add\n    tag_93:\n      dup3\n      dup2\n      gt\n      iszero\n      tag_94\n      jumpi\n      dup3\n      mload\n      dup3\n      sstore\n      swap2\n      0x20\n      add\n      swap2\n      swap1\n      0x01\n      add\n      swap1\n      jump(tag_93)\n    tag_94:\n    tag_90:\n      pop\n      swap1\n      pop\n      tag_95\n      swap2\n      swap1\n      tag_96\n      jump\t// in\n    tag_95:\n      pop\n      swap1\n      jump\t// out\n    tag_96:\n    tag_97:\n      dup1\n      dup3\n      gt\n      iszero\n      tag_98\n      jumpi\n      0x00\n      dup2\n      0x00\n      swap1\n      sstore\n      pop\n      0x01\n      add\n      jump(tag_97)\n    tag_98:\n      pop\n      swap1\n      jump\t// out\n        /* \"#utility.yul\":7:82   */\n    tag_99:\n        /* \"#utility.yul\":40:46   */\n      0x00\n        /* \"#utility.yul\":73:75   */\n      0x40\n        /* \"#utility.yul\":67:76   */\n      mload\n        /* \"#utility.yul\":57:76   */\n      swap1\n      pop\n        /* \"#utility.yul\":7:82   */\n      swap1\n      jump\t// out\n        /* \"#utility.yul\":88:205   */\n    tag_100:\n        /* \"#utility.yul\":197:198   */\n      0x00\n        /* \"#utility.yul\":194:195   */\n      dup1\n        /* \"#utility.yul\":187:199   */\n      revert\n        /* \"#utility.yul\":211:328   */\n    tag_101:\n        /* \"#utility.yul\":320:321   */\n      0x00\n        /* \"#utility.yul\":317:318   */\n      dup1\n        /* \"#utility.yul\":310:322   */\n      revert\n        /* \"#utility.yul\":334:451   */\n    tag_102:\n        /* \"#utility.yul\":443:444   */\n      0x00\n        /* \"#utility.yul\":440:441   */\n      dup1\n        /* \"#utility.yul\":433:445   */\n      revert\n        /* \"#utility.yul\":457:574   */\n    tag_103:\n        /* \"#utility.yul\":566:567   */\n      0x00\n        /* \"#utility.yul\":563:564   */\n      dup1\n        /* \"#utility.yul\":556:568   */\n      revert\n        /* \"#utility.yul\":580:682   */\n    tag_104:\n        /* \"#utility.yul\":621:627   */\n      0x00\n        /* \"#utility.yul\":672:674   */\n      0x1f\n        /* \"#utility.yul\":668:675   */\n      not\n        /* \"#utility.yul\":663:665   */\n      0x1f\n        /* \"#utility.yul\":656:661   */\n      dup4\n        /* \"#utility.yul\":652:666   */\n      add\n        /* \"#utility.yul\":648:676   */\n      and\n        /* \"#utility.yul\":638:676   */\n      swap1\n      pop\n        /* \"#utility.yul\":580:682   */\n      swap2\n      swap1\n      pop\n      jump\t// out\n        /* \"#utility.yul\":688:868   */\n    tag_105:\n        /* \"#utility.yul\":736:813   */\n      0x4e487b7100000000000000000000000000000000000000000000000000000000\n        /* \"#utility.yul\":733:734   */\n      0x00\n        /* \"#utility.yul\":726:814   */\n      mstore\n        /* \"#utility.yul\":833:837   */\n      0x41\n        /* \"#utility.yul\":830:831   */\n      0x04\n        /* \"#utility.yul\":823:838   */\n      mstore\n        /* \"#utility.yul\":857:861   */\n      0x24\n        /* \"#utility.yul\":854:855   */\n      0x00\n        /* \"#utility.yul\":847:862   */\n      revert\n        /* \"#utility.yul\":874:1155   */\n    tag_106:\n        /* \"#utility.yul\":957:984   */\n      tag_142\n        /* \"#utility.yul\":979:983   */\n      dup3\n        /* \"#utility.yul\":957:984   */\n      tag_104\n      jump\t// in\n    tag_142:\n        /* \"#utility.yul\":949:955   */\n      dup2\n        /* \"#utility.yul\":945:985   */\n      add\n        /* \"#utility.yul\":1087:1093   */\n      dup2\n        /* \"#utility.yul\":1075:1085   */\n      dup2\n        /* \"#utility.yul\":1072:1094   */\n      lt\n        /* \"#utility.yul\":1051:1069   */\n      0xffffffffffffffff\n        /* \"#utility.yul\":1039:1049   */\n      dup3\n        /* \"#utility.yul\":1036:1070   */\n      gt\n        /* \"#utility.yul\":1033:1095   */\n      or\n        /* \"#utility.yul\":1030:1118   */\n      iszero\n      tag_143\n      jumpi\n        /* \"#utility.yul\":1098:1116   */\n      tag_144\n      tag_105\n      jump\t// in\n    tag_144:\n        /* \"#utility.yul\":1030:1118   */\n    tag_143:\n        /* \"#utility.yul\":1138:1148   */\n      dup1\n        /* \"#utility.yul\":1134:1136   */\n      0x40\n        /* \"#utility.yul\":1127:1149   */\n      mstore\n        /* \"#utility.yul\":917:1155   */\n      pop\n        /* \"#utility.yul\":874:1155   */\n      pop\n      pop\n      jump\t// out\n        /* \"#utility.yul\":1161:1290   */\n    tag_107:\n        /* \"#utility.yul\":1195:1201   */\n      0x00\n        /* \"#utility.yul\":1222:1242   */\n      tag_146\n      tag_99\n      jump\t// in\n    tag_146:\n        /* \"#utility.yul\":1212:1242   */\n      swap1\n      pop\n        /* \"#utility.yul\":1251:1284   */\n      tag_147\n        /* \"#utility.yul\":1279:1283   */\n      dup3\n        /* \"#utility.yul\":1271:1277   */\n      dup3\n        /* \"#utility.yul\":1251:1284   */\n      tag_106\n      jump\t// in\n    tag_147:\n        /* \"#utility.yul\":1161:1290   */\n      swap2\n      swap1\n      pop\n      jump\t// out\n        /* \"#utility.yul\":1296:1604   */\n    tag_108:\n        /* \"#utility.yul\":1358:1362   */\n      0x00\n        /* \"#utility.yul\":1448:1466   */\n      0xffffffffffffffff\n        /* \"#utility.yul\":1440:1446   */\n      dup3\n        /* \"#utility.yul\":1437:1467   */\n      gt\n        /* \"#utility.yul\":1434:1490   */\n      iszero\n      tag_149\n      jumpi\n        /* \"#utility.yul\":1470:1488   */\n      tag_150\n      tag_105\n      jump\t// in\n    tag_150:\n        /* \"#utility.yul\":1434:1490   */\n    tag_149:\n        /* \"#utility.yul\":1508:1537   */\n      tag_151\n        /* \"#utility.yul\":1530:1536   */\n      dup3\n        /* \"#utility.yul\":1508:1537   */\n      tag_104\n      jump\t// in\n    tag_151:\n        /* \"#utility.yul\":1500:1537   */\n      swap1\n      pop\n        /* \"#utility.yul\":1592:1596   */\n      0x20\n        /* \"#utility.yul\":1586:1590   */\n      dup2\n        /* \"#utility.yul\":1582:1597   */\n      add\n        /* \"#utility.yul\":1574:1597   */\n      swap1\n      pop\n        /* \"#utility.yul\":1296:1604   */\n      swap2\n      swap1\n      pop\n      jump\t// out\n        /* \"#utility.yul\":1610:1764   */\n    tag_109:\n        /* \"#utility.yul\":1694:1700   */\n      dup3\n        /* \"#utility.yul\":1689:1692   */\n      dup2\n        /* \"#utility.yul\":1684:1687   */\n      dup4\n        /* \"#utility.yul\":1671:1701   */\n      calldatacopy\n        /* \"#utility.yul\":1756:1757   */\n      0x00\n        /* \"#utility.yul\":1747:1753   */\n      dup4\n        /* \"#utility.yul\":1742:1745   */\n      dup4\n        /* \"#utility.yul\":1738:1754   */\n      add\n        /* \"#utility.yul\":1731:1758   */\n      mstore\n        /* \"#utility.yul\":1610:1764   */\n      pop\n      pop\n      pop\n      jump\t// out\n        /* \"#utility.yul\":1770:2182   */\n    tag_110:\n        /* \"#utility.yul\":1848:1853   */\n      0x00\n        /* \"#utility.yul\":1873:1939   */\n      tag_154\n        /* \"#utility.yul\":1889:1938   */\n      tag_155\n        /* \"#utility.yul\":1931:1937   */\n      dup5\n        /* \"#utility.yul\":1889:1938   */\n      tag_108\n      jump\t// in\n    tag_155:\n        /* \"#utility.yul\":1873:1939   */\n      tag_107\n      jump\t// in\n    tag_154:\n        /* \"#utility.yul\":1864:1939   */\n      swap1\n      pop\n        /* \"#utility.yul\":1962:1968   */\n      dup3\n        /* \"#utility.yul\":1955:1960   */\n      dup2\n        /* \"#utility.yul\":1948:1969   */\n      mstore\n        /* \"#utility.yul\":2000:2004   */\n      0x20\n        /* \"#utility.yul\":1993:1998   */\n      dup2\n        /* \"#utility.yul\":1989:2005   */\n      add\n        /* \"#utility.yul\":2038:2041   */\n      dup5\n        /* \"#utility.yul\":2029:2035   */\n      dup5\n        /* \"#utility.yul\":2024:2027   */\n      dup5\n        /* \"#utility.yul\":2020:2036   */\n      add\n        /* \"#utility.yul\":2017:2042   */\n      gt\n        /* \"#utility.yul\":2014:2126   */\n      iszero\n      tag_156\n      jumpi\n        /* \"#utility.yul\":2045:2124   */\n      tag_157\n      tag_103\n      jump\t// in\n    tag_157:\n        /* \"#utility.yul\":2014:2126   */\n    tag_156:\n        /* \"#utility.yul\":2135:2176   */\n      tag_158\n        /* \"#utility.yul\":2169:2175   */\n      dup5\n        /* \"#utility.yul\":2164:2167   */\n      dup3\n        /* \"#utility.yul\":2159:2162   */\n      dup6\n        /* \"#utility.yul\":2135:2176   */\n      tag_109\n      jump\t// in\n    tag_158:\n        /* \"#utility.yul\":1854:2182   */\n      pop\n        /* \"#utility.yul\":1770:2182   */\n      swap4\n      swap3\n      pop\n      pop\n      pop\n      jump\t// out\n        /* \"#utility.yul\":2202:2542   */\n    tag_111:\n        /* \"#utility.yul\":2258:2263   */\n      0x00\n        /* \"#utility.yul\":2307:2310   */\n      dup3\n        /* \"#utility.yul\":2300:2304   */\n      0x1f\n        /* \"#utility.yul\":2292:2298   */\n      dup4\n        /* \"#utility.yul\":2288:2305   */\n      add\n        /* \"#utility.yul\":2284:2311   */\n      slt\n        /* \"#utility.yul\":2274:2396   */\n      tag_160\n      jumpi\n        /* \"#utility.yul\":2315:2394   */\n      tag_161\n      tag_102\n      jump\t// in\n    tag_161:\n        /* \"#utility.yul\":2274:2396   */\n    tag_160:\n        /* \"#utility.yul\":2432:2438   */\n      dup2\n        /* \"#utility.yul\":2419:2439   */\n      calldataload\n        /* \"#utility.yul\":2457:2536   */\n      tag_162\n        /* \"#utility.yul\":2532:2535   */\n      dup5\n        /* \"#utility.yul\":2524:2530   */\n      dup3\n        /* \"#utility.yul\":2517:2521   */\n      0x20\n        /* \"#utility.yul\":2509:2515   */\n      dup7\n        /* \"#utility.yul\":2505:2522   */\n      add\n        /* \"#utility.yul\":2457:2536   */\n      tag_110\n      jump\t// in\n    tag_162:\n        /* \"#utility.yul\":2448:2536   */\n      swap2\n      pop\n        /* \"#utility.yul\":2264:2542   */\n      pop\n        /* \"#utility.yul\":2202:2542   */\n      swap3\n      swap2\n      pop\n      pop\n      jump\t// out\n        /* \"#utility.yul\":2548:2634   */\n    tag_112:\n        /* \"#utility.yul\":2583:2590   */\n      0x00\n        /* \"#utility.yul\":2623:2627   */\n      0xff\n        /* \"#utility.yul\":2616:2621   */\n      dup3\n        /* \"#utility.yul\":2612:2628   */\n      and\n        /* \"#utility.yul\":2601:2628   */\n      swap1\n      pop\n        /* \"#utility.yul\":2548:2634   */\n      swap2\n      swap1\n      pop\n      jump\t// out\n        /* \"#utility.yul\":2640:2758   */\n    tag_113:\n        /* \"#utility.yul\":2711:2733   */\n      tag_165\n        /* \"#utility.yul\":2727:2732   */\n      dup2\n        /* \"#utility.yul\":2711:2733   */\n      tag_112\n      jump\t// in\n    tag_165:\n        /* \"#utility.yul\":2704:2709   */\n      dup2\n        /* \"#utility.yul\":2701:2734   */\n      eq\n        /* \"#utility.yul\":2691:2752   */\n      tag_166\n      jumpi\n        /* \"#utility.yul\":2748:2749   */\n      0x00\n        /* \"#utility.yul\":2745:2746   */\n      dup1\n        /* \"#utility.yul\":2738:2750   */\n      revert\n        /* \"#utility.yul\":2691:2752   */\n    tag_166:\n        /* \"#utility.yul\":2640:2758   */\n      pop\n      jump\t// out\n        /* \"#utility.yul\":2764:2899   */\n    tag_114:\n        /* \"#utility.yul\":2808:2813   */\n      0x00\n        /* \"#utility.yul\":2846:2852   */\n      dup2\n        /* \"#utility.yul\":2833:2853   */\n      calldataload\n        /* \"#utility.yul\":2824:2853   */\n      swap1\n      pop\n        /* \"#utility.yul\":2862:2893   */\n      tag_168\n        /* \"#utility.yul\":2887:2892   */\n      dup2\n        /* \"#utility.yul\":2862:2893   */\n      tag_113\n      jump\t// in\n    tag_168:\n        /* \"#utility.yul\":2764:2899   */\n      swap3\n      swap2\n      pop\n      pop\n      jump\t// out\n        /* \"#utility.yul\":2905:5000   */\n    tag_10:\n        /* \"#utility.yul\":3064:3070   */\n      0x00\n        /* \"#utility.yul\":3072:3078   */\n      dup1\n        /* \"#utility.yul\":3080:3086   */\n      0x00\n        /* \"#utility.yul\":3088:3094   */\n      dup1\n        /* \"#utility.yul\":3096:3102   */\n      0x00\n        /* \"#utility.yul\":3104:3110   */\n      dup1\n        /* \"#utility.yul\":3112:3118   */\n      0x00\n        /* \"#utility.yul\":3161:3164   */\n      0xe0\n        /* \"#utility.yul\":3149:3158   */\n      dup9\n        /* \"#utility.yul\":3140:3147   */\n      dup11\n        /* \"#utility.yul\":3136:3159   */\n      sub\n        /* \"#utility.yul\":3132:3165   */\n      slt\n        /* \"#utility.yul\":3129:3249   */\n      iszero\n      tag_170\n      jumpi\n        /* \"#utility.yul\":3168:3247   */\n      tag_171\n      tag_100\n      jump\t// in\n    tag_171:\n        /* \"#utility.yul\":3129:3249   */\n    tag_170:\n        /* \"#utility.yul\":3316:3317   */\n      0x00\n        /* \"#utility.yul\":3305:3314   */\n      dup9\n        /* \"#utility.yul\":3301:3318   */\n      add\n        /* \"#utility.yul\":3288:3319   */\n      calldataload\n        /* \"#utility.yul\":3346:3364   */\n      0xffffffffffffffff\n        /* \"#utility.yul\":3338:3344   */\n      dup2\n        /* \"#utility.yul\":3335:3365   */\n      gt\n        /* \"#utility.yul\":3332:3449   */\n      iszero\n      tag_172\n      jumpi\n        /* \"#utility.yul\":3368:3447   */\n      tag_173\n      tag_101\n      jump\t// in\n    tag_173:\n        /* \"#utility.yul\":3332:3449   */\n    tag_172:\n        /* \"#utility.yul\":3473:3536   */\n      tag_174\n        /* \"#utility.yul\":3528:3535   */\n      dup11\n        /* \"#utility.yul\":3519:3525   */\n      dup3\n        /* \"#utility.yul\":3508:3517   */\n      dup12\n        /* \"#utility.yul\":3504:3526   */\n      add\n        /* \"#utility.yul\":3473:3536   */\n      tag_111\n      jump\t// in\n    tag_174:\n        /* \"#utility.yul\":3463:3536   */\n      swap8\n      pop\n        /* \"#utility.yul\":3259:3546   */\n      pop\n        /* \"#utility.yul\":3613:3615   */\n      0x20\n        /* \"#utility.yul\":3602:3611   */\n      dup9\n        /* \"#utility.yul\":3598:3616   */\n      add\n        /* \"#utility.yul\":3585:3617   */\n      calldataload\n        /* \"#utility.yul\":3644:3662   */\n      0xffffffffffffffff\n        /* \"#utility.yul\":3636:3642   */\n      dup2\n        /* \"#utility.yul\":3633:3663   */\n      gt\n        /* \"#utility.yul\":3630:3747   */\n      iszero\n      tag_175\n      jumpi\n        /* \"#utility.yul\":3666:3745   */\n      tag_176\n      tag_101\n      jump\t// in\n    tag_176:\n        /* \"#utility.yul\":3630:3747   */\n    tag_175:\n        /* \"#utility.yul\":3771:3834   */\n      tag_177\n        /* \"#utility.yul\":3826:3833   */\n      dup11\n        /* \"#utility.yul\":3817:3823   */\n      dup3\n        /* \"#utility.yul\":3806:3815   */\n      dup12\n        /* \"#utility.yul\":3802:3824   */\n      add\n        /* \"#utility.yul\":3771:3834   */\n      tag_111\n      jump\t// in\n    tag_177:\n        /* \"#utility.yul\":3761:3834   */\n      swap7\n      pop\n        /* \"#utility.yul\":3556:3844   */\n      pop\n        /* \"#utility.yul\":3911:3913   */\n      0x40\n        /* \"#utility.yul\":3900:3909   */\n      dup9\n        /* \"#utility.yul\":3896:3914   */\n      add\n        /* \"#utility.yul\":3883:3915   */\n      calldataload\n        /* \"#utility.yul\":3942:3960   */\n      0xffffffffffffffff\n        /* \"#utility.yul\":3934:3940   */\n      dup2\n        /* \"#utility.yul\":3931:3961   */\n      gt\n        /* \"#utility.yul\":3928:4045   */\n      iszero\n      tag_178\n      jumpi\n        /* \"#utility.yul\":3964:4043   */\n      tag_179\n      tag_101\n      jump\t// in\n    tag_179:\n        /* \"#utility.yul\":3928:4045   */\n    tag_178:\n        /* \"#utility.yul\":4069:4132   */\n      tag_180\n        /* \"#utility.yul\":4124:4131   */\n      dup11\n        /* \"#utility.yul\":4115:4121   */\n      dup3\n        /* \"#utility.yul\":4104:4113   */\n      dup12\n        /* \"#utility.yul\":4100:4122   */\n      add\n        /* \"#utility.yul\":4069:4132   */\n      tag_111\n      jump\t// in\n    tag_180:\n        /* \"#utility.yul\":4059:4132   */\n      swap6\n      pop\n        /* \"#utility.yul\":3854:4142   */\n      pop\n        /* \"#utility.yul\":4209:4211   */\n      0x60\n        /* \"#utility.yul\":4198:4207   */\n      dup9\n        /* \"#utility.yul\":4194:4212   */\n      add\n        /* \"#utility.yul\":4181:4213   */\n      calldataload\n        /* \"#utility.yul\":4240:4258   */\n      0xffffffffffffffff\n        /* \"#utility.yul\":4232:4238   */\n      dup2\n        /* \"#utility.yul\":4229:4259   */\n      gt\n        /* \"#utility.yul\":4226:4343   */\n      iszero\n      tag_181\n      jumpi\n        /* \"#utility.yul\":4262:4341   */\n      tag_182\n      tag_101\n      jump\t// in\n    tag_182:\n        /* \"#utility.yul\":4226:4343   */\n    tag_181:\n        /* \"#utility.yul\":4367:4430   */\n      tag_183\n        /* \"#utility.yul\":4422:4429   */\n      dup11\n        /* \"#utility.yul\":4413:4419   */\n      dup3\n        /* \"#utility.yul\":4402:4411   */\n      dup12\n        /* \"#utility.yul\":4398:4420   */\n      add\n        /* \"#utility.yul\":4367:4430   */\n      tag_111\n      jump\t// in\n    tag_183:\n        /* \"#utility.yul\":4357:4430   */\n      swap5\n      pop\n        /* \"#utility.yul\":4152:4440   */\n      pop\n        /* \"#utility.yul\":4507:4510   */\n      0x80\n        /* \"#utility.yul\":4496:4505   */\n      dup9\n        /* \"#utility.yul\":4492:4511   */\n      add\n        /* \"#utility.yul\":4479:4512   */\n      calldataload\n        /* \"#utility.yul\":4539:4557   */\n      0xffffffffffffffff\n        /* \"#utility.yul\":4531:4537   */\n      dup2\n        /* \"#utility.yul\":4528:4558   */\n      gt\n        /* \"#utility.yul\":4525:4642   */\n      iszero\n      tag_184\n      jumpi\n        /* \"#utility.yul\":4561:4640   */\n      tag_185\n      tag_101\n      jump\t// in\n    tag_185:\n        /* \"#utility.yul\":4525:4642   */\n    tag_184:\n        /* \"#utility.yul\":4666:4729   */\n      tag_186\n        /* \"#utility.yul\":4721:4728   */\n      dup11\n        /* \"#utility.yul\":4712:4718   */\n      dup3\n        /* \"#utility.yul\":4701:4710   */\n      dup12\n        /* \"#utility.yul\":4697:4719   */\n      add\n        /* \"#utility.yul\":4666:4729   */\n      tag_111\n      jump\t// in\n    tag_186:\n        /* \"#utility.yul\":4656:4729   */\n      swap4\n      pop\n        /* \"#utility.yul\":4450:4739   */\n      pop\n        /* \"#utility.yul\":4778:4781   */\n      0xa0\n        /* \"#utility.yul\":4805:4856   */\n      tag_187\n        /* \"#utility.yul\":4848:4855   */\n      dup11\n        /* \"#utility.yul\":4839:4845   */\n      dup3\n        /* \"#utility.yul\":4828:4837   */\n      dup12\n        /* \"#utility.yul\":4824:4846   */\n      add\n        /* \"#utility.yul\":4805:4856   */\n      tag_114\n      jump\t// in\n    tag_187:\n        /* \"#utility.yul\":4795:4856   */\n      swap3\n      pop\n        /* \"#utility.yul\":4749:4866   */\n      pop\n        /* \"#utility.yul\":4905:4908   */\n      0xc0\n        /* \"#utility.yul\":4932:4983   */\n      tag_188\n        /* \"#utility.yul\":4975:4982   */\n      dup11\n        /* \"#utility.yul\":4966:4972   */\n      dup3\n        /* \"#utility.yul\":4955:4964   */\n      dup12\n        /* \"#utility.yul\":4951:4973   */\n      add\n        /* \"#utility.yul\":4932:4983   */\n      tag_114\n      jump\t// in\n    tag_188:\n        /* \"#utility.yul\":4922:4983   */\n      swap2\n      pop\n        /* \"#utility.yul\":4876:4993   */\n      pop\n        /* \"#utility.yul\":2905:5000   */\n      swap3\n      swap6\n      swap9\n      swap2\n      swap5\n      swap8\n      pop\n      swap3\n      swap6\n      pop\n      jump\t// out\n        /* \"#utility.yul\":5006:5083   */\n    tag_115:\n        /* \"#utility.yul\":5043:5050   */\n      0x00\n        /* \"#utility.yul\":5072:5077   */\n      dup2\n        /* \"#utility.yul\":5061:5077   */\n      swap1\n      pop\n        /* \"#utility.yul\":5006:5083   */\n      swap2\n      swap1\n      pop\n      jump\t// out\n        /* \"#utility.yul\":5089:5211   */\n    tag_116:\n        /* \"#utility.yul\":5162:5186   */\n      tag_191\n        /* \"#utility.yul\":5180:5185   */\n      dup2\n        /* \"#utility.yul\":5162:5186   */\n      tag_115\n      jump\t// in\n    tag_191:\n        /* \"#utility.yul\":5155:5160   */\n      dup2\n        /* \"#utility.yul\":5152:5187   */\n      eq\n        /* \"#utility.yul\":5142:5205   */\n      tag_192\n      jumpi\n        /* \"#utility.yul\":5201:5202   */\n      0x00\n        /* \"#utility.yul\":5198:5199   */\n      dup1\n        /* \"#utility.yul\":5191:5203   */\n      revert\n        /* \"#utility.yul\":5142:5205   */\n    tag_192:\n        /* \"#utility.yul\":5089:5211   */\n      pop\n      jump\t// out\n        /* \"#utility.yul\":5217:5356   */\n    tag_117:\n        /* \"#utility.yul\":5263:5268   */\n      0x00\n        /* \"#utility.yul\":5301:5307   */\n      dup2\n        /* \"#utility.yul\":5288:5308   */\n      calldataload\n        /* \"#utility.yul\":5279:5308   */\n      swap1\n      pop\n        /* \"#utility.yul\":5317:5350   */\n      tag_194\n        /* \"#utility.yul\":5344:5349   */\n      dup2\n        /* \"#utility.yul\":5317:5350   */\n      tag_116\n      jump\t// in\n    tag_194:\n        /* \"#utility.yul\":5217:5356   */\n      swap3\n      swap2\n      pop\n      pop\n      jump\t// out\n        /* \"#utility.yul\":5362:5691   */\n    tag_16:\n        /* \"#utility.yul\":5421:5427   */\n      0x00\n        /* \"#utility.yul\":5470:5472   */\n      0x20\n        /* \"#utility.yul\":5458:5467   */\n      dup3\n        /* \"#utility.yul\":5449:5456   */\n      dup5\n        /* \"#utility.yul\":5445:5468   */\n      sub\n        /* \"#utility.yul\":5441:5473   */\n      slt\n        /* \"#utility.yul\":5438:5557   */\n      iszero\n      tag_196\n      jumpi\n        /* \"#utility.yul\":5476:5555   */\n      tag_197\n      tag_100\n      jump\t// in\n    tag_197:\n        /* \"#utility.yul\":5438:5557   */\n    tag_196:\n        /* \"#utility.yul\":5596:5597   */\n      0x00\n        /* \"#utility.yul\":5621:5674   */\n      tag_198\n        /* \"#utility.yul\":5666:5673   */\n      dup5\n        /* \"#utility.yul\":5657:5663   */\n      dup3\n        /* \"#utility.yul\":5646:5655   */\n      dup6\n        /* \"#utility.yul\":5642:5664   */\n      add\n        /* \"#utility.yul\":5621:5674   */\n      tag_117\n      jump\t// in\n    tag_198:\n        /* \"#utility.yul\":5611:5674   */\n      swap2\n      pop\n        /* \"#utility.yul\":5567:5684   */\n      pop\n        /* \"#utility.yul\":5362:5691   */\n      swap3\n      swap2\n      pop\n      pop\n      jump\t// out\n        /* \"#utility.yul\":5697:5796   */\n    tag_118:\n        /* \"#utility.yul\":5749:5755   */\n      0x00\n        /* \"#utility.yul\":5783:5788   */\n      dup2\n        /* \"#utility.yul\":5777:5789   */\n      mload\n        /* \"#utility.yul\":5767:5789   */\n      swap1\n      pop\n        /* \"#utility.yul\":5697:5796   */\n      swap2\n      swap1\n      pop\n      jump\t// out\n        /* \"#utility.yul\":5802:5971   */\n    tag_119:\n        /* \"#utility.yul\":5886:5897   */\n      0x00\n        /* \"#utility.yul\":5920:5926   */\n      dup3\n        /* \"#utility.yul\":5915:5918   */\n      dup3\n        /* \"#utility.yul\":5908:5927   */\n      mstore\n        /* \"#utility.yul\":5960:5964   */\n      0x20\n        /* \"#utility.yul\":5955:5958   */\n      dup3\n        /* \"#utility.yul\":5951:5965   */\n      add\n        /* \"#utility.yul\":5936:5965   */\n      swap1\n      pop\n        /* \"#utility.yul\":5802:5971   */\n      swap3\n      swap2\n      pop\n      pop\n      jump\t// out\n        /* \"#utility.yul\":5977:6284   */\n    tag_120:\n        /* \"#utility.yul\":6045:6046   */\n      0x00\n        /* \"#utility.yul\":6055:6168   */\n    tag_202:\n        /* \"#utility.yul\":6069:6075   */\n      dup4\n        /* \"#utility.yul\":6066:6067   */\n      dup2\n        /* \"#utility.yul\":6063:6076   */\n      lt\n        /* \"#utility.yul\":6055:6168   */\n      iszero\n      tag_204\n      jumpi\n        /* \"#utility.yul\":6154:6155   */\n      dup1\n        /* \"#utility.yul\":6149:6152   */\n      dup3\n        /* \"#utility.yul\":6145:6156   */\n      add\n        /* \"#utility.yul\":6139:6157   */\n      mload\n        /* \"#utility.yul\":6135:6136   */\n      dup2\n        /* \"#utility.yul\":6130:6133   */\n      dup5\n        /* \"#utility.yul\":6126:6137   */\n      add\n        /* \"#utility.yul\":6119:6158   */\n      mstore\n        /* \"#utility.yul\":6091:6093   */\n      0x20\n        /* \"#utility.yul\":6088:6089   */\n      dup2\n        /* \"#utility.yul\":6084:6094   */\n      add\n        /* \"#utility.yul\":6079:6094   */\n      swap1\n      pop\n        /* \"#utility.yul\":6055:6168   */\n      jump(tag_202)\n    tag_204:\n        /* \"#utility.yul\":6186:6192   */\n      dup4\n        /* \"#utility.yul\":6183:6184   */\n      dup2\n        /* \"#utility.yul\":6180:6193   */\n      gt\n        /* \"#utility.yul\":6177:6278   */\n      iszero\n      tag_205\n      jumpi\n        /* \"#utility.yul\":6266:6267   */\n      0x00\n        /* \"#utility.yul\":6257:6263   */\n      dup5\n        /* \"#utility.yul\":6252:6255   */\n      dup5\n        /* \"#utility.yul\":6248:6264   */\n      add\n        /* \"#utility.yul\":6241:6268   */\n      mstore\n        /* \"#utility.yul\":6177:6278   */\n    tag_205:\n        /* \"#utility.yul\":6026:6284   */\n      pop\n        /* \"#utility.yul\":5977:6284   */\n      pop\n      pop\n      pop\n      jump\t// out\n        /* \"#utility.yul\":6290:6654   */\n    tag_121:\n        /* \"#utility.yul\":6378:6381   */\n      0x00\n        /* \"#utility.yul\":6406:6445   */\n      tag_207\n        /* \"#utility.yul\":6439:6444   */\n      dup3\n        /* \"#utility.yul\":6406:6445   */\n      tag_118\n      jump\t// in\n    tag_207:\n        /* \"#utility.yul\":6461:6532   */\n      tag_208\n        /* \"#utility.yul\":6525:6531   */\n      dup2\n        /* \"#utility.yul\":6520:6523   */\n      dup6\n        /* \"#utility.yul\":6461:6532   */\n      tag_119\n      jump\t// in\n    tag_208:\n        /* \"#utility.yul\":6454:6532   */\n      swap4\n      pop\n        /* \"#utility.yul\":6541:6593   */\n      tag_209\n        /* \"#utility.yul\":6586:6592   */\n      dup2\n        /* \"#utility.yul\":6581:6584   */\n      dup6\n        /* \"#utility.yul\":6574:6578   */\n      0x20\n        /* \"#utility.yul\":6567:6572   */\n      dup7\n        /* \"#utility.yul\":6563:6579   */\n      add\n        /* \"#utility.yul\":6541:6593   */\n      tag_120\n      jump\t// in\n    tag_209:\n        /* \"#utility.yul\":6618:6647   */\n      tag_210\n        /* \"#utility.yul\":6640:6646   */\n      dup2\n        /* \"#utility.yul\":6618:6647   */\n      tag_104\n      jump\t// in\n    tag_210:\n        /* \"#utility.yul\":6613:6616   */\n      dup5\n        /* \"#utility.yul\":6609:6648   */\n      add\n        /* \"#utility.yul\":6602:6648   */\n      swap2\n      pop\n        /* \"#utility.yul\":6382:6654   */\n      pop\n        /* \"#utility.yul\":6290:6654   */\n      swap3\n      swap2\n      pop\n      pop\n      jump\t// out\n        /* \"#utility.yul\":6660:6772   */\n    tag_122:\n        /* \"#utility.yul\":6743:6765   */\n      tag_212\n        /* \"#utility.yul\":6759:6764   */\n      dup2\n        /* \"#utility.yul\":6743:6765   */\n      tag_112\n      jump\t// in\n    tag_212:\n        /* \"#utility.yul\":6738:6741   */\n      dup3\n        /* \"#utility.yul\":6731:6766   */\n      mstore\n        /* \"#utility.yul\":6660:6772   */\n      pop\n      pop\n      jump\t// out\n        /* \"#utility.yul\":6778:8103   */\n    tag_19:\n        /* \"#utility.yul\":7131:7135   */\n      0x00\n        /* \"#utility.yul\":7169:7172   */\n      0xe0\n        /* \"#utility.yul\":7158:7167   */\n      dup3\n        /* \"#utility.yul\":7154:7173   */\n      add\n        /* \"#utility.yul\":7146:7173   */\n      swap1\n      pop\n        /* \"#utility.yul\":7219:7228   */\n      dup2\n        /* \"#utility.yul\":7213:7217   */\n      dup2\n        /* \"#utility.yul\":7209:7229   */\n      sub\n        /* \"#utility.yul\":7205:7206   */\n      0x00\n        /* \"#utility.yul\":7194:7203   */\n      dup4\n        /* \"#utility.yul\":7190:7207   */\n      add\n        /* \"#utility.yul\":7183:7230   */\n      mstore\n        /* \"#utility.yul\":7247:7325   */\n      tag_214\n        /* \"#utility.yul\":7320:7324   */\n      dup2\n        /* \"#utility.yul\":7311:7317   */\n      dup11\n        /* \"#utility.yul\":7247:7325   */\n      tag_121\n      jump\t// in\n    tag_214:\n        /* \"#utility.yul\":7239:7325   */\n      swap1\n      pop\n        /* \"#utility.yul\":7372:7381   */\n      dup2\n        /* \"#utility.yul\":7366:7370   */\n      dup2\n        /* \"#utility.yul\":7362:7382   */\n      sub\n        /* \"#utility.yul\":7357:7359   */\n      0x20\n        /* \"#utility.yul\":7346:7355   */\n      dup4\n        /* \"#utility.yul\":7342:7360   */\n      add\n        /* \"#utility.yul\":7335:7383   */\n      mstore\n        /* \"#utility.yul\":7400:7478   */\n      tag_215\n        /* \"#utility.yul\":7473:7477   */\n      dup2\n        /* \"#utility.yul\":7464:7470   */\n      dup10\n        /* \"#utility.yul\":7400:7478   */\n      tag_121\n      jump\t// in\n    tag_215:\n        /* \"#utility.yul\":7392:7478   */\n      swap1\n      pop\n        /* \"#utility.yul\":7525:7534   */\n      dup2\n        /* \"#utility.yul\":7519:7523   */\n      dup2\n        /* \"#utility.yul\":7515:7535   */\n      sub\n        /* \"#utility.yul\":7510:7512   */\n      0x40\n        /* \"#utility.yul\":7499:7508   */\n      dup4\n        /* \"#utility.yul\":7495:7513   */\n      add\n        /* \"#utility.yul\":7488:7536   */\n      mstore\n        /* \"#utility.yul\":7553:7631   */\n      tag_216\n        /* \"#utility.yul\":7626:7630   */\n      dup2\n        /* \"#utility.yul\":7617:7623   */\n      dup9\n        /* \"#utility.yul\":7553:7631   */\n      tag_121\n      jump\t// in\n    tag_216:\n        /* \"#utility.yul\":7545:7631   */\n      swap1\n      pop\n        /* \"#utility.yul\":7678:7687   */\n      dup2\n        /* \"#utility.yul\":7672:7676   */\n      dup2\n        /* \"#utility.yul\":7668:7688   */\n      sub\n        /* \"#utility.yul\":7663:7665   */\n      0x60\n        /* \"#utility.yul\":7652:7661   */\n      dup4\n        /* \"#utility.yul\":7648:7666   */\n      add\n        /* \"#utility.yul\":7641:7689   */\n      mstore\n        /* \"#utility.yul\":7706:7784   */\n      tag_217\n        /* \"#utility.yul\":7779:7783   */\n      dup2\n        /* \"#utility.yul\":7770:7776   */\n      dup8\n        /* \"#utility.yul\":7706:7784   */\n      tag_121\n      jump\t// in\n    tag_217:\n        /* \"#utility.yul\":7698:7784   */\n      swap1\n      pop\n        /* \"#utility.yul\":7832:7841   */\n      dup2\n        /* \"#utility.yul\":7826:7830   */\n      dup2\n        /* \"#utility.yul\":7822:7842   */\n      sub\n        /* \"#utility.yul\":7816:7819   */\n      0x80\n        /* \"#utility.yul\":7805:7814   */\n      dup4\n        /* \"#utility.yul\":7801:7820   */\n      add\n        /* \"#utility.yul\":7794:7843   */\n      mstore\n        /* \"#utility.yul\":7860:7938   */\n      tag_218\n        /* \"#utility.yul\":7933:7937   */\n      dup2\n        /* \"#utility.yul\":7924:7930   */\n      dup7\n        /* \"#utility.yul\":7860:7938   */\n      tag_121\n      jump\t// in\n    tag_218:\n        /* \"#utility.yul\":7852:7938   */\n      swap1\n      pop\n        /* \"#utility.yul\":7948:8017   */\n      tag_219\n        /* \"#utility.yul\":8012:8015   */\n      0xa0\n        /* \"#utility.yul\":8001:8010   */\n      dup4\n        /* \"#utility.yul\":7997:8016   */\n      add\n        /* \"#utility.yul\":7988:7994   */\n      dup6\n        /* \"#utility.yul\":7948:8017   */\n      tag_122\n      jump\t// in\n    tag_219:\n        /* \"#utility.yul\":8027:8096   */\n      tag_220\n        /* \"#utility.yul\":8091:8094   */\n      0xc0\n        /* \"#utility.yul\":8080:8089   */\n      dup4\n        /* \"#utility.yul\":8076:8095   */\n      add\n        /* \"#utility.yul\":8067:8073   */\n      dup5\n        /* \"#utility.yul\":8027:8096   */\n      tag_122\n      jump\t// in\n    tag_220:\n        /* \"#utility.yul\":6778:8103   */\n      swap9\n      swap8\n      pop\n      pop\n      pop\n      pop\n      pop\n      pop\n      pop\n      pop\n      jump\t// out\n        /* \"#utility.yul\":8109:8235   */\n    tag_123:\n        /* \"#utility.yul\":8146:8153   */\n      0x00\n        /* \"#utility.yul\":8186:8228   */\n      0xffffffffffffffffffffffffffffffffffffffff\n        /* \"#utility.yul\":8179:8184   */\n      dup3\n        /* \"#utility.yul\":8175:8229   */\n      and\n        /* \"#utility.yul\":8164:8229   */\n      swap1\n      pop\n        /* \"#utility.yul\":8109:8235   */\n      swap2\n      swap1\n      pop\n      jump\t// out\n        /* \"#utility.yul\":8241:8337   */\n    tag_124:\n        /* \"#utility.yul\":8278:8285   */\n      0x00\n        /* \"#utility.yul\":8307:8331   */\n      tag_223\n        /* \"#utility.yul\":8325:8330   */\n      dup3\n        /* \"#utility.yul\":8307:8331   */\n      tag_123\n      jump\t// in\n    tag_223:\n        /* \"#utility.yul\":8296:8331   */\n      swap1\n      pop\n        /* \"#utility.yul\":8241:8337   */\n      swap2\n      swap1\n      pop\n      jump\t// out\n        /* \"#utility.yul\":8343:8461   */\n    tag_125:\n        /* \"#utility.yul\":8430:8454   */\n      tag_225\n        /* \"#utility.yul\":8448:8453   */\n      dup2\n        /* \"#utility.yul\":8430:8454   */\n      tag_124\n      jump\t// in\n    tag_225:\n        /* \"#utility.yul\":8425:8428   */\n      dup3\n        /* \"#utility.yul\":8418:8455   */\n      mstore\n        /* \"#utility.yul\":8343:8461   */\n      pop\n      pop\n      jump\t// out\n        /* \"#utility.yul\":8467:8689   */\n    tag_23:\n        /* \"#utility.yul\":8560:8564   */\n      0x00\n        /* \"#utility.yul\":8598:8600   */\n      0x20\n        /* \"#utility.yul\":8587:8596   */\n      dup3\n        /* \"#utility.yul\":8583:8601   */\n      add\n        /* \"#utility.yul\":8575:8601   */\n      swap1\n      pop\n        /* \"#utility.yul\":8611:8682   */\n      tag_227\n        /* \"#utility.yul\":8679:8680   */\n      0x00\n        /* \"#utility.yul\":8668:8677   */\n      dup4\n        /* \"#utility.yul\":8664:8681   */\n      add\n        /* \"#utility.yul\":8655:8661   */\n      dup5\n        /* \"#utility.yul\":8611:8682   */\n      tag_125\n      jump\t// in\n    tag_227:\n        /* \"#utility.yul\":8467:8689   */\n      swap3\n      swap2\n      pop\n      pop\n      jump\t// out\n        /* \"#utility.yul\":8695:8817   */\n    tag_126:\n        /* \"#utility.yul\":8768:8792   */\n      tag_229\n        /* \"#utility.yul\":8786:8791   */\n      dup2\n        /* \"#utility.yul\":8768:8792   */\n      tag_124\n      jump\t// in\n    tag_229:\n        /* \"#utility.yul\":8761:8766   */\n      dup2\n        /* \"#utility.yul\":8758:8793   */\n      eq\n        /* \"#utility.yul\":8748:8811   */\n      tag_230\n      jumpi\n        /* \"#utility.yul\":8807:8808   */\n      0x00\n        /* \"#utility.yul\":8804:8805   */\n      dup1\n        /* \"#utility.yul\":8797:8809   */\n      revert\n        /* \"#utility.yul\":8748:8811   */\n    tag_230:\n        /* \"#utility.yul\":8695:8817   */\n      pop\n      jump\t// out\n        /* \"#utility.yul\":8823:8962   */\n    tag_127:\n        /* \"#utility.yul\":8869:8874   */\n      0x00\n        /* \"#utility.yul\":8907:8913   */\n      dup2\n        /* \"#utility.yul\":8894:8914   */\n      calldataload\n        /* \"#utility.yul\":8885:8914   */\n      swap1\n      pop\n        /* \"#utility.yul\":8923:8956   */\n      tag_232\n        /* \"#utility.yul\":8950:8955   */\n      dup2\n        /* \"#utility.yul\":8923:8956   */\n      tag_126\n      jump\t// in\n    tag_232:\n        /* \"#utility.yul\":8823:8962   */\n      swap3\n      swap2\n      pop\n      pop\n      jump\t// out\n        /* \"#utility.yul\":8968:9297   */\n    tag_26:\n        /* \"#utility.yul\":9027:9033   */\n      0x00\n        /* \"#utility.yul\":9076:9078   */\n      0x20\n        /* \"#utility.yul\":9064:9073   */\n      dup3\n        /* \"#utility.yul\":9055:9062   */\n      dup5\n        /* \"#utility.yul\":9051:9074   */\n      sub\n        /* \"#utility.yul\":9047:9079   */\n      slt\n        /* \"#utility.yul\":9044:9163   */\n      iszero\n      tag_234\n      jumpi\n        /* \"#utility.yul\":9082:9161   */\n      tag_235\n      tag_100\n      jump\t// in\n    tag_235:\n        /* \"#utility.yul\":9044:9163   */\n    tag_234:\n        /* \"#utility.yul\":9202:9203   */\n      0x00\n        /* \"#utility.yul\":9227:9280   */\n      tag_236\n        /* \"#utility.yul\":9272:9279   */\n      dup5\n        /* \"#utility.yul\":9263:9269   */\n      dup3\n        /* \"#utility.yul\":9252:9261   */\n      dup6\n        /* \"#utility.yul\":9248:9270   */\n      add\n        /* \"#utility.yul\":9227:9280   */\n      tag_127\n      jump\t// in\n    tag_236:\n        /* \"#utility.yul\":9217:9280   */\n      swap2\n      pop\n        /* \"#utility.yul\":9173:9290   */\n      pop\n        /* \"#utility.yul\":8968:9297   */\n      swap3\n      swap2\n      pop\n      pop\n      jump\t// out\n        /* \"#utility.yul\":9303:9718   */\n    tag_37:\n        /* \"#utility.yul\":9440:9444   */\n      0x00\n        /* \"#utility.yul\":9478:9480   */\n      0x40\n        /* \"#utility.yul\":9467:9476   */\n      dup3\n        /* \"#utility.yul\":9463:9481   */\n      add\n        /* \"#utility.yul\":9455:9481   */\n      swap1\n      pop\n        /* \"#utility.yul\":9527:9536   */\n      dup2\n        /* \"#utility.yul\":9521:9525   */\n      dup2\n        /* \"#utility.yul\":9517:9537   */\n      sub\n        /* \"#utility.yul\":9513:9514   */\n      0x00\n        /* \"#utility.yul\":9502:9511   */\n      dup4\n        /* \"#utility.yul\":9498:9515   */\n      add\n        /* \"#utility.yul\":9491:9538   */\n      mstore\n        /* \"#utility.yul\":9555:9633   */\n      tag_238\n        /* \"#utility.yul\":9628:9632   */\n      dup2\n        /* \"#utility.yul\":9619:9625   */\n      dup6\n        /* \"#utility.yul\":9555:9633   */\n      tag_121\n      jump\t// in\n    tag_238:\n        /* \"#utility.yul\":9547:9633   */\n      swap1\n      pop\n        /* \"#utility.yul\":9643:9711   */\n      tag_239\n        /* \"#utility.yul\":9707:9709   */\n      0x20\n        /* \"#utility.yul\":9696:9705   */\n      dup4\n        /* \"#utility.yul\":9692:9710   */\n      add\n        /* \"#utility.yul\":9683:9689   */\n      dup5\n        /* \"#utility.yul\":9643:9711   */\n      tag_122\n      jump\t// in\n    tag_239:\n        /* \"#utility.yul\":9303:9718   */\n      swap4\n      swap3\n      pop\n      pop\n      pop\n      jump\t// out\n        /* \"#utility.yul\":9724:9906   */\n    tag_128:\n        /* \"#utility.yul\":9864:9898   */\n      0x4f776e61626c653a2063616c6c6572206973206e6f7420746865206f776e6572\n        /* \"#utility.yul\":9860:9861   */\n      0x00\n        /* \"#utility.yul\":9852:9858   */\n      dup3\n        /* \"#utility.yul\":9848:9862   */\n      add\n        /* \"#utility.yul\":9841:9899   */\n      mstore\n        /* \"#utility.yul\":9724:9906   */\n      pop\n      jump\t// out\n        /* \"#utility.yul\":9912:10278   */\n    tag_129:\n        /* \"#utility.yul\":10054:10057   */\n      0x00\n        /* \"#utility.yul\":10075:10142   */\n      tag_242\n        /* \"#utility.yul\":10139:10141   */\n      0x20\n        /* \"#utility.yul\":10134:10137   */\n      dup4\n        /* \"#utility.yul\":10075:10142   */\n      tag_119\n      jump\t// in\n    tag_242:\n        /* \"#utility.yul\":10068:10142   */\n      swap2\n      pop\n        /* \"#utility.yul\":10151:10244   */\n      tag_243\n        /* \"#utility.yul\":10240:10243   */\n      dup3\n        /* \"#utility.yul\":10151:10244   */\n      tag_128\n      jump\t// in\n    tag_243:\n        /* \"#utility.yul\":10269:10271   */\n      0x20\n        /* \"#utility.yul\":10264:10267   */\n      dup3\n        /* \"#utility.yul\":10260:10272   */\n      add\n        /* \"#utility.yul\":10253:10272   */\n      swap1\n      pop\n        /* \"#utility.yul\":9912:10278   */\n      swap2\n      swap1\n      pop\n      jump\t// out\n        /* \"#utility.yul\":10284:10703   */\n    tag_44:\n        /* \"#utility.yul\":10450:10454   */\n      0x00\n        /* \"#utility.yul\":10488:10490   */\n      0x20\n        /* \"#utility.yul\":10477:10486   */\n      dup3\n        /* \"#utility.yul\":10473:10491   */\n      add\n        /* \"#utility.yul\":10465:10491   */\n      swap1\n      pop\n        /* \"#utility.yul\":10537:10546   */\n      dup2\n        /* \"#utility.yul\":10531:10535   */\n      dup2\n        /* \"#utility.yul\":10527:10547   */\n      sub\n        /* \"#utility.yul\":10523:10524   */\n      0x00\n        /* \"#utility.yul\":10512:10521   */\n      dup4\n        /* \"#utility.yul\":10508:10525   */\n      add\n        /* \"#utility.yul\":10501:10548   */\n      mstore\n        /* \"#utility.yul\":10565:10696   */\n      tag_245\n        /* \"#utility.yul\":10691:10695   */\n      dup2\n        /* \"#utility.yul\":10565:10696   */\n      tag_129\n      jump\t// in\n    tag_245:\n        /* \"#utility.yul\":10557:10696   */\n      swap1\n      pop\n        /* \"#utility.yul\":10284:10703   */\n      swap2\n      swap1\n      pop\n      jump\t// out\n        /* \"#utility.yul\":10709:10889   */\n    tag_130:\n        /* \"#utility.yul\":10757:10834   */\n      0x4e487b7100000000000000000000000000000000000000000000000000000000\n        /* \"#utility.yul\":10754:10755   */\n      0x00\n        /* \"#utility.yul\":10747:10835   */\n      mstore\n        /* \"#utility.yul\":10854:10858   */\n      0x22\n        /* \"#utility.yul\":10851:10852   */\n      0x04\n        /* \"#utility.yul\":10844:10859   */\n      mstore\n        /* \"#utility.yul\":10878:10882   */\n      0x24\n        /* \"#utility.yul\":10875:10876   */\n      0x00\n        /* \"#utility.yul\":10868:10883   */\n      revert\n        /* \"#utility.yul\":10895:11215   */\n    tag_51:\n        /* \"#utility.yul\":10939:10945   */\n      0x00\n        /* \"#utility.yul\":10976:10977   */\n      0x02\n        /* \"#utility.yul\":10970:10974   */\n      dup3\n        /* \"#utility.yul\":10966:10978   */\n      div\n        /* \"#utility.yul\":10956:10978   */\n      swap1\n      pop\n        /* \"#utility.yul\":11023:11024   */\n      0x01\n        /* \"#utility.yul\":11017:11021   */\n      dup3\n        /* \"#utility.yul\":11013:11025   */\n      and\n        /* \"#utility.yul\":11044:11062   */\n      dup1\n        /* \"#utility.yul\":11034:11115   */\n      tag_248\n      jumpi\n        /* \"#utility.yul\":11100:11104   */\n      0x7f\n        /* \"#utility.yul\":11092:11098   */\n      dup3\n        /* \"#utility.yul\":11088:11105   */\n      and\n        /* \"#utility.yul\":11078:11105   */\n      swap2\n      pop\n        /* \"#utility.yul\":11034:11115   */\n    tag_248:\n        /* \"#utility.yul\":11162:11164   */\n      0x20\n        /* \"#utility.yul\":11154:11160   */\n      dup3\n        /* \"#utility.yul\":11151:11165   */\n      lt\n        /* \"#utility.yul\":11131:11149   */\n      dup2\n        /* \"#utility.yul\":11128:11166   */\n      sub\n        /* \"#utility.yul\":11125:11209   */\n      tag_249\n      jumpi\n        /* \"#utility.yul\":11181:11199   */\n      tag_250\n      tag_130\n      jump\t// in\n    tag_250:\n        /* \"#utility.yul\":11125:11209   */\n    tag_249:\n        /* \"#utility.yul\":10946:11215   */\n      pop\n        /* \"#utility.yul\":10895:11215   */\n      swap2\n      swap1\n      pop\n      jump\t// out\n        /* \"#utility.yul\":11221:11446   */\n    tag_131:\n        /* \"#utility.yul\":11361:11395   */\n      0x4f776e61626c653a206e6577206f776e657220697320746865207a65726f2061\n        /* \"#utility.yul\":11357:11358   */\n      0x00\n        /* \"#utility.yul\":11349:11355   */\n      dup3\n        /* \"#utility.yul\":11345:11359   */\n      add\n        /* \"#utility.yul\":11338:11396   */\n      mstore\n        /* \"#utility.yul\":11430:11438   */\n      0x6464726573730000000000000000000000000000000000000000000000000000\n        /* \"#utility.yul\":11425:11427   */\n      0x20\n        /* \"#utility.yul\":11417:11423   */\n      dup3\n        /* \"#utility.yul\":11413:11428   */\n      add\n        /* \"#utility.yul\":11406:11439   */\n      mstore\n        /* \"#utility.yul\":11221:11446   */\n      pop\n      jump\t// out\n        /* \"#utility.yul\":11452:11818   */\n    tag_132:\n        /* \"#utility.yul\":11594:11597   */\n      0x00\n        /* \"#utility.yul\":11615:11682   */\n      tag_253\n        /* \"#utility.yul\":11679:11681   */\n      0x26\n        /* \"#utility.yul\":11674:11677   */\n      dup4\n        /* \"#utility.yul\":11615:11682   */\n      tag_119\n      jump\t// in\n    tag_253:\n        /* \"#utility.yul\":11608:11682   */\n      swap2\n      pop\n        /* \"#utility.yul\":11691:11784   */\n      tag_254\n        /* \"#utility.yul\":11780:11783   */\n      dup3\n        /* \"#utility.yul\":11691:11784   */\n      tag_131\n      jump\t// in\n    tag_254:\n        /* \"#utility.yul\":11809:11811   */\n      0x40\n        /* \"#utility.yul\":11804:11807   */\n      dup3\n        /* \"#utility.yul\":11800:11812   */\n      add\n        /* \"#utility.yul\":11793:11812   */\n      swap1\n      pop\n        /* \"#utility.yul\":11452:11818   */\n      swap2\n      swap1\n      pop\n      jump\t// out\n        /* \"#utility.yul\":11824:12243   */\n    tag_85:\n        /* \"#utility.yul\":11990:11994   */\n      0x00\n        /* \"#utility.yul\":12028:12030   */\n      0x20\n        /* \"#utility.yul\":12017:12026   */\n      dup3\n        /* \"#utility.yul\":12013:12031   */\n      add\n        /* \"#utility.yul\":12005:12031   */\n      swap1\n      pop\n        /* \"#utility.yul\":12077:12086   */\n      dup2\n        /* \"#utility.yul\":12071:12075   */\n      dup2\n        /* \"#utility.yul\":12067:12087   */\n      sub\n        /* \"#utility.yul\":12063:12064   */\n      0x00\n        /* \"#utility.yul\":12052:12061   */\n      dup4\n        /* \"#utility.yul\":12048:12065   */\n      add\n        /* \"#utility.yul\":12041:12088   */\n      mstore\n        /* \"#utility.yul\":12105:12236   */\n      tag_256\n        /* \"#utility.yul\":12231:12235   */\n      dup2\n        /* \"#utility.yul\":12105:12236   */\n      tag_132\n      jump\t// in\n    tag_256:\n        /* \"#utility.yul\":12097:12236   */\n      swap1\n      pop\n        /* \"#utility.yul\":11824:12243   */\n      swap2\n      swap1\n      pop\n      jump\t// out\n\n    auxdata: 0xa26469706673582212208e1f095bca1311443a62252b4ef986daf70d2a1c4c29b89d9c366e9e1ce236ff64736f6c634300080e0033\n}\n",
				"bytecode": {
					"linkReferences": {},
					"object": "608060405234801561001057600080fd5b5061002d61002261003260201b60201c565b61003a60201b60201c565b6100fe565b600033905090565b60008060009054906101000a900473ffffffffffffffffffffffffffffffffffffffff169050816000806101000a81548173ffffffffffffffffffffffffffffffffffffffff021916908373ffffffffffffffffffffffffffffffffffffffff1602179055508173ffffffffffffffffffffffffffffffffffffffff168173ffffffffffffffffffffffffffffffffffffffff167f8be0079c531659141344cd1fd0a4f28419497f9722a3daafe3b4186f6b6457e060405160405180910390a35050565b610f5e8061010d6000396000f3fe608060405234801561001057600080fd5b50600436106100575760003560e01c80634361790f1461005c578063715018a61461007857806388409afa146100825780638da5cb5b146100b8578063f2fde38b146100d6575b600080fd5b61007660048036038101906100719190610a2b565b6100f2565b005b61008061026d565b005b61009c60048036038101906100979190610b8f565b6102f5565b6040516100af9796959493929190610c53565b60405180910390f35b6100c0610609565b6040516100cd9190610d26565b60405180910390f35b6100f060048036038101906100eb9190610d6d565b610632565b005b60016040518060e001604052808981526020018881526020018781526020018681526020018581526020018460ff1681526020018360ff16815250908060018154018082558091505060019003906000526020600020906006020160009091909190915060008201518160000190805190602001906101729291906107f5565b50602082015181600101908051906020019061018f9291906107f5565b5060408201518160020190805190602001906101ac9291906107f5565b5060608201518160030190805190602001906101c99291906107f5565b5060808201518160040190805190602001906101e69291906107f5565b5060a08201518160050160006101000a81548160ff021916908360ff16021790555060c08201518160050160016101000a81548160ff021916908360ff16021790555050507f545dca5d847b655a9f03cdf5619f53f0b2546051fd0d015b18c09ae2a8b1a765878360405161025c929190610d9a565b60405180910390a150505050505050565b610275610729565b73ffffffffffffffffffffffffffffffffffffffff16610293610609565b73ffffffffffffffffffffffffffffffffffffffff16146102e9576040517f08c379a00000000000000000000000000000000000000000000000000000000081526004016102e090610e16565b60405180910390fd5b6102f36000610731565b565b6001818154811061030557600080fd5b906000526020600020906006020160009150905080600001805461032890610e65565b80601f016020809104026020016040519081016040528092919081815260200182805461035490610e65565b80156103a15780601f10610376576101008083540402835291602001916103a1565b820191906000526020600020905b81548152906001019060200180831161038457829003601f168201915b5050505050908060010180546103b690610e65565b80601f01602080910402602001604051908101604052809291908181526020018280546103e290610e65565b801561042f5780601f106104045761010080835404028352916020019161042f565b820191906000526020600020905b81548152906001019060200180831161041257829003601f168201915b50505050509080600201805461044490610e65565b80601f016020809104026020016040519081016040528092919081815260200182805461047090610e65565b80156104bd5780601f10610492576101008083540402835291602001916104bd565b820191906000526020600020905b8154815290600101906020018083116104a057829003601f168201915b5050505050908060030180546104d290610e65565b80601f01602080910402602001604051908101604052809291908181526020018280546104fe90610e65565b801561054b5780601f106105205761010080835404028352916020019161054b565b820191906000526020600020905b81548152906001019060200180831161052e57829003601f168201915b50505050509080600401805461056090610e65565b80601f016020809104026020016040519081016040528092919081815260200182805461058c90610e65565b80156105d95780601f106105ae576101008083540402835291602001916105d9565b820191906000526020600020905b8154815290600101906020018083116105bc57829003601f168201915b5050505050908060050160009054906101000a900460ff16908060050160019054906101000a900460ff16905087565b60008060009054906101000a900473ffffffffffffffffffffffffffffffffffffffff16905090565b61063a610729565b73ffffffffffffffffffffffffffffffffffffffff16610658610609565b73ffffffffffffffffffffffffffffffffffffffff16146106ae576040517f08c379a00000000000000000000000000000000000000000000000000000000081526004016106a590610e16565b60405180910390fd5b600073ffffffffffffffffffffffffffffffffffffffff168173ffffffffffffffffffffffffffffffffffffffff160361071d576040517f08c379a000000000000000000000000000000000000000000000000000000000815260040161071490610f08565b60405180910390fd5b61072681610731565b50565b600033905090565b60008060009054906101000a900473ffffffffffffffffffffffffffffffffffffffff169050816000806101000a81548173ffffffffffffffffffffffffffffffffffffffff021916908373ffffffffffffffffffffffffffffffffffffffff1602179055508173ffffffffffffffffffffffffffffffffffffffff168173ffffffffffffffffffffffffffffffffffffffff167f8be0079c531659141344cd1fd0a4f28419497f9722a3daafe3b4186f6b6457e060405160405180910390a35050565b82805461080190610e65565b90600052602060002090601f016020900481019282610823576000855561086a565b82601f1061083c57805160ff191683800117855561086a565b8280016001018555821561086a579182015b8281111561086957825182559160200191906001019061084e565b5b509050610877919061087b565b5090565b5b8082111561089457600081600090555060010161087c565b5090565b6000604051905090565b600080fd5b600080fd5b600080fd5b600080fd5b6000601f19601f8301169050919050565b7f4e487b7100000000000000000000000000000000000000000000000000000000600052604160045260246000fd5b6108ff826108b6565b810181811067ffffffffffffffff8211171561091e5761091d6108c7565b5b80604052505050565b6000610931610898565b905061093d82826108f6565b919050565b600067ffffffffffffffff82111561095d5761095c6108c7565b5b610966826108b6565b9050602081019050919050565b82818337600083830152505050565b600061099561099084610942565b610927565b9050828152602081018484840111156109b1576109b06108b1565b5b6109bc848285610973565b509392505050565b600082601f8301126109d9576109d86108ac565b5b81356109e9848260208601610982565b91505092915050565b600060ff82169050919050565b610a08816109f2565b8114610a1357600080fd5b50565b600081359050610a25816109ff565b92915050565b600080600080600080600060e0888a031215610a4a57610a496108a2565b5b600088013567ffffffffffffffff811115610a6857610a676108a7565b5b610a748a828b016109c4565b975050602088013567ffffffffffffffff811115610a9557610a946108a7565b5b610aa18a828b016109c4565b965050604088013567ffffffffffffffff811115610ac257610ac16108a7565b5b610ace8a828b016109c4565b955050606088013567ffffffffffffffff811115610aef57610aee6108a7565b5b610afb8a828b016109c4565b945050608088013567ffffffffffffffff811115610b1c57610b1b6108a7565b5b610b288a828b016109c4565b93505060a0610b398a828b01610a16565b92505060c0610b4a8a828b01610a16565b91505092959891949750929550565b6000819050919050565b610b6c81610b59565b8114610b7757600080fd5b50565b600081359050610b8981610b63565b92915050565b600060208284031215610ba557610ba46108a2565b5b6000610bb384828501610b7a565b91505092915050565b600081519050919050565b600082825260208201905092915050565b60005b83811015610bf6578082015181840152602081019050610bdb565b83811115610c05576000848401525b50505050565b6000610c1682610bbc565b610c208185610bc7565b9350610c30818560208601610bd8565b610c39816108b6565b840191505092915050565b610c4d816109f2565b82525050565b600060e0820190508181036000830152610c6d818a610c0b565b90508181036020830152610c818189610c0b565b90508181036040830152610c958188610c0b565b90508181036060830152610ca98187610c0b565b90508181036080830152610cbd8186610c0b565b9050610ccc60a0830185610c44565b610cd960c0830184610c44565b98975050505050505050565b600073ffffffffffffffffffffffffffffffffffffffff82169050919050565b6000610d1082610ce5565b9050919050565b610d2081610d05565b82525050565b6000602082019050610d3b6000830184610d17565b92915050565b610d4a81610d05565b8114610d5557600080fd5b50565b600081359050610d6781610d41565b92915050565b600060208284031215610d8357610d826108a2565b5b6000610d9184828501610d58565b91505092915050565b60006040820190508181036000830152610db48185610c0b565b9050610dc36020830184610c44565b9392505050565b7f4f776e61626c653a2063616c6c6572206973206e6f7420746865206f776e6572600082015250565b6000610e00602083610bc7565b9150610e0b82610dca565b602082019050919050565b60006020820190508181036000830152610e2f81610df3565b9050919050565b7f4e487b7100000000000000000000000000000000000000000000000000000000600052602260045260246000fd5b60006002820490506001821680610e7d57607f821691505b602082108103610e9057610e8f610e36565b5b50919050565b7f4f776e61626c653a206e6577206f776e657220697320746865207a65726f206160008201527f6464726573730000000000000000000000000000000000000000000000000000602082015250565b6000610ef2602683610bc7565b9150610efd82610e96565b604082019050919050565b60006020820190508181036000830152610f2181610ee5565b905091905056fea26469706673582212208e1f095bca1311443a62252b4ef986daf70d2a1c4c29b89d9c366e9e1ce236ff64736f6c634300080e0033",
					"opcodes": "PUSH1 0x80 PUSH1 0x40 MSTORE CALLVALUE DUP1 ISZERO PUSH2 0x10 JUMPI PUSH1 0x0 DUP1 REVERT JUMPDEST POP PUSH2 0x2D PUSH2 0x22 PUSH2 0x32 PUSH1 0x20 SHL PUSH1 0x20 SHR JUMP JUMPDEST PUSH2 0x3A PUSH1 0x20 SHL PUSH1 0x20 SHR JUMP JUMPDEST PUSH2 0xFE JUMP JUMPDEST PUSH1 0x0 CALLER SWAP1 POP SWAP1 JUMP JUMPDEST PUSH1 0x0 DUP1 PUSH1 0x0 SWAP1 SLOAD SWAP1 PUSH2 0x100 EXP SWAP1 DIV PUSH20 0xFFFFFFFFFFFFFFFFFFFFFFFFFFFFFFFFFFFFFFFF AND SWAP1 POP DUP2 PUSH1 0x0 DUP1 PUSH2 0x100 EXP DUP2 SLOAD DUP2 PUSH20 0xFFFFFFFFFFFFFFFFFFFFFFFFFFFFFFFFFFFFFFFF MUL NOT AND SWAP1 DUP4 PUSH20 0xFFFFFFFFFFFFFFFFFFFFFFFFFFFFFFFFFFFFFFFF AND MUL OR SWAP1 SSTORE POP DUP2 PUSH20 0xFFFFFFFFFFFFFFFFFFFFFFFFFFFFFFFFFFFFFFFF AND DUP2 PUSH20 0xFFFFFFFFFFFFFFFFFFFFFFFFFFFFFFFFFFFFFFFF AND PUSH32 0x8BE0079C531659141344CD1FD0A4F28419497F9722A3DAAFE3B4186F6B6457E0 PUSH1 0x40 MLOAD PUSH1 0x40 MLOAD DUP1 SWAP2 SUB SWAP1 LOG3 POP POP JUMP JUMPDEST PUSH2 0xF5E DUP1 PUSH2 0x10D PUSH1 0x0 CODECOPY PUSH1 0x0 RETURN INVALID PUSH1 0x80 PUSH1 0x40 MSTORE CALLVALUE DUP1 ISZERO PUSH2 0x10 JUMPI PUSH1 0x0 DUP1 REVERT JUMPDEST POP PUSH1 0x4 CALLDATASIZE LT PUSH2 0x57 JUMPI PUSH1 0x0 CALLDATALOAD PUSH1 0xE0 SHR DUP1 PUSH4 0x4361790F EQ PUSH2 0x5C JUMPI DUP1 PUSH4 0x715018A6 EQ PUSH2 0x78 JUMPI DUP1 PUSH4 0x88409AFA EQ PUSH2 0x82 JUMPI DUP1 PUSH4 0x8DA5CB5B EQ PUSH2 0xB8 JUMPI DUP1 PUSH4 0xF2FDE38B EQ PUSH2 0xD6 JUMPI JUMPDEST PUSH1 0x0 DUP1 REVERT JUMPDEST PUSH2 0x76 PUSH1 0x4 DUP1 CALLDATASIZE SUB DUP2 ADD SWAP1 PUSH2 0x71 SWAP2 SWAP1 PUSH2 0xA2B JUMP JUMPDEST PUSH2 0xF2 JUMP JUMPDEST STOP JUMPDEST PUSH2 0x80 PUSH2 0x26D JUMP JUMPDEST STOP JUMPDEST PUSH2 0x9C PUSH1 0x4 DUP1 CALLDATASIZE SUB DUP2 ADD SWAP1 PUSH2 0x97 SWAP2 SWAP1 PUSH2 0xB8F JUMP JUMPDEST PUSH2 0x2F5 JUMP JUMPDEST PUSH1 0x40 MLOAD PUSH2 0xAF SWAP8 SWAP7 SWAP6 SWAP5 SWAP4 SWAP3 SWAP2 SWAP1 PUSH2 0xC53 JUMP JUMPDEST PUSH1 0x40 MLOAD DUP1 SWAP2 SUB SWAP1 RETURN JUMPDEST PUSH2 0xC0 PUSH2 0x609 JUMP JUMPDEST PUSH1 0x40 MLOAD PUSH2 0xCD SWAP2 SWAP1 PUSH2 0xD26 JUMP JUMPDEST PUSH1 0x40 MLOAD DUP1 SWAP2 SUB SWAP1 RETURN JUMPDEST PUSH2 0xF0 PUSH1 0x4 DUP1 CALLDATASIZE SUB DUP2 ADD SWAP1 PUSH2 0xEB SWAP2 SWAP1 PUSH2 0xD6D JUMP JUMPDEST PUSH2 0x632 JUMP JUMPDEST STOP JUMPDEST PUSH1 0x1 PUSH1 0x40 MLOAD DUP1 PUSH1 0xE0 ADD PUSH1 0x40 MSTORE DUP1 DUP10 DUP2 MSTORE PUSH1 0x20 ADD DUP9 DUP2 MSTORE PUSH1 0x20 ADD DUP8 DUP2 MSTORE PUSH1 0x20 ADD DUP7 DUP2 MSTORE PUSH1 0x20 ADD DUP6 DUP2 MSTORE PUSH1 0x20 ADD DUP5 PUSH1 0xFF AND DUP2 MSTORE PUSH1 0x20 ADD DUP4 PUSH1 0xFF AND DUP2 MSTORE POP SWAP1 DUP1 PUSH1 0x1 DUP2 SLOAD ADD DUP1 DUP3 SSTORE DUP1 SWAP2 POP POP PUSH1 0x1 SWAP1 SUB SWAP1 PUSH1 0x0 MSTORE PUSH1 0x20 PUSH1 0x0 KECCAK256 SWAP1 PUSH1 0x6 MUL ADD PUSH1 0x0 SWAP1 SWAP2 SWAP1 SWAP2 SWAP1 SWAP2 POP PUSH1 0x0 DUP3 ADD MLOAD DUP2 PUSH1 0x0 ADD SWAP1 DUP1 MLOAD SWAP1 PUSH1 0x20 ADD SWAP1 PUSH2 0x172 SWAP3 SWAP2 SWAP1 PUSH2 0x7F5 JUMP JUMPDEST POP PUSH1 0x20 DUP3 ADD MLOAD DUP2 PUSH1 0x1 ADD SWAP1 DUP1 MLOAD SWAP1 PUSH1 0x20 ADD SWAP1 PUSH2 0x18F SWAP3 SWAP2 SWAP1 PUSH2 0x7F5 JUMP JUMPDEST POP PUSH1 0x40 DUP3 ADD MLOAD DUP2 PUSH1 0x2 ADD SWAP1 DUP1 MLOAD SWAP1 PUSH1 0x20 ADD SWAP1 PUSH2 0x1AC SWAP3 SWAP2 SWAP1 PUSH2 0x7F5 JUMP JUMPDEST POP PUSH1 0x60 DUP3 ADD MLOAD DUP2 PUSH1 0x3 ADD SWAP1 DUP1 MLOAD SWAP1 PUSH1 0x20 ADD SWAP1 PUSH2 0x1C9 SWAP3 SWAP2 SWAP1 PUSH2 0x7F5 JUMP JUMPDEST POP PUSH1 0x80 DUP3 ADD MLOAD DUP2 PUSH1 0x4 ADD SWAP1 DUP1 MLOAD SWAP1 PUSH1 0x20 ADD SWAP1 PUSH2 0x1E6 SWAP3 SWAP2 SWAP1 PUSH2 0x7F5 JUMP JUMPDEST POP PUSH1 0xA0 DUP3 ADD MLOAD DUP2 PUSH1 0x5 ADD PUSH1 0x0 PUSH2 0x100 EXP DUP2 SLOAD DUP2 PUSH1 0xFF MUL NOT AND SWAP1 DUP4 PUSH1 0xFF AND MUL OR SWAP1 SSTORE POP PUSH1 0xC0 DUP3 ADD MLOAD DUP2 PUSH1 0x5 ADD PUSH1 0x1 PUSH2 0x100 EXP DUP2 SLOAD DUP2 PUSH1 0xFF MUL NOT AND SWAP1 DUP4 PUSH1 0xFF AND MUL OR SWAP1 SSTORE POP POP POP PUSH32 0x545DCA5D847B655A9F03CDF5619F53F0B2546051FD0D015B18C09AE2A8B1A765 DUP8 DUP4 PUSH1 0x40 MLOAD PUSH2 0x25C SWAP3 SWAP2 SWAP1 PUSH2 0xD9A JUMP JUMPDEST PUSH1 0x40 MLOAD DUP1 SWAP2 SUB SWAP1 LOG1 POP POP POP POP POP POP POP JUMP JUMPDEST PUSH2 0x275 PUSH2 0x729 JUMP JUMPDEST PUSH20 0xFFFFFFFFFFFFFFFFFFFFFFFFFFFFFFFFFFFFFFFF AND PUSH2 0x293 PUSH2 0x609 JUMP JUMPDEST PUSH20 0xFFFFFFFFFFFFFFFFFFFFFFFFFFFFFFFFFFFFFFFF AND EQ PUSH2 0x2E9 JUMPI PUSH1 0x40 MLOAD PUSH32 0x8C379A000000000000000000000000000000000000000000000000000000000 DUP2 MSTORE PUSH1 0x4 ADD PUSH2 0x2E0 SWAP1 PUSH2 0xE16 JUMP JUMPDEST PUSH1 0x40 MLOAD DUP1 SWAP2 SUB SWAP1 REVERT JUMPDEST PUSH2 0x2F3 PUSH1 0x0 PUSH2 0x731 JUMP JUMPDEST JUMP JUMPDEST PUSH1 0x1 DUP2 DUP2 SLOAD DUP2 LT PUSH2 0x305 JUMPI PUSH1 0x0 DUP1 REVERT JUMPDEST SWAP1 PUSH1 0x0 MSTORE PUSH1 0x20 PUSH1 0x0 KECCAK256 SWAP1 PUSH1 0x6 MUL ADD PUSH1 0x0 SWAP2 POP SWAP1 POP DUP1 PUSH1 0x0 ADD DUP1 SLOAD PUSH2 0x328 SWAP1 PUSH2 0xE65 JUMP JUMPDEST DUP1 PUSH1 0x1F ADD PUSH1 0x20 DUP1 SWAP2 DIV MUL PUSH1 0x20 ADD PUSH1 0x40 MLOAD SWAP1 DUP2 ADD PUSH1 0x40 MSTORE DUP1 SWAP3 SWAP2 SWAP1 DUP2 DUP2 MSTORE PUSH1 0x20 ADD DUP3 DUP1 SLOAD PUSH2 0x354 SWAP1 PUSH2 0xE65 JUMP JUMPDEST DUP1 ISZERO PUSH2 0x3A1 JUMPI DUP1 PUSH1 0x1F LT PUSH2 0x376 JUMPI PUSH2 0x100 DUP1 DUP4 SLOAD DIV MUL DUP4 MSTORE SWAP2 PUSH1 0x20 ADD SWAP2 PUSH2 0x3A1 JUMP JUMPDEST DUP3 ADD SWAP2 SWAP1 PUSH1 0x0 MSTORE PUSH1 0x20 PUSH1 0x0 KECCAK256 SWAP1 JUMPDEST DUP2 SLOAD DUP2 MSTORE SWAP1 PUSH1 0x1 ADD SWAP1 PUSH1 0x20 ADD DUP1 DUP4 GT PUSH2 0x384 JUMPI DUP3 SWAP1 SUB PUSH1 0x1F AND DUP3 ADD SWAP2 JUMPDEST POP POP POP POP POP SWAP1 DUP1 PUSH1 0x1 ADD DUP1 SLOAD PUSH2 0x3B6 SWAP1 PUSH2 0xE65 JUMP JUMPDEST DUP1 PUSH1 0x1F ADD PUSH1 0x20 DUP1 SWAP2 DIV MUL PUSH1 0x20 ADD PUSH1 0x40 MLOAD SWAP1 DUP2 ADD PUSH1 0x40 MSTORE DUP1 SWAP3 SWAP2 SWAP1 DUP2 DUP2 MSTORE PUSH1 0x20 ADD DUP3 DUP1 SLOAD PUSH2 0x3E2 SWAP1 PUSH2 0xE65 JUMP JUMPDEST DUP1 ISZERO PUSH2 0x42F JUMPI DUP1 PUSH1 0x1F LT PUSH2 0x404 JUMPI PUSH2 0x100 DUP1 DUP4 SLOAD DIV MUL DUP4 MSTORE SWAP2 PUSH1 0x20 ADD SWAP2 PUSH2 0x42F JUMP JUMPDEST DUP3 ADD SWAP2 SWAP1 PUSH1 0x0 MSTORE PUSH1 0x20 PUSH1 0x0 KECCAK256 SWAP1 JUMPDEST DUP2 SLOAD DUP2 MSTORE SWAP1 PUSH1 0x1 ADD SWAP1 PUSH1 0x20 ADD DUP1 DUP4 GT PUSH2 0x412 JUMPI DUP3 SWAP1 SUB PUSH1 0x1F AND DUP3 ADD SWAP2 JUMPDEST POP POP POP POP POP SWAP1 DUP1 PUSH1 0x2 ADD DUP1 SLOAD PUSH2 0x444 SWAP1 PUSH2 0xE65 JUMP JUMPDEST DUP1 PUSH1 0x1F ADD PUSH1 0x20 DUP1 SWAP2 DIV MUL PUSH1 0x20 ADD PUSH1 0x40 MLOAD SWAP1 DUP2 ADD PUSH1 0x40 MSTORE DUP1 SWAP3 SWAP2 SWAP1 DUP2 DUP2 MSTORE PUSH1 0x20 ADD DUP3 DUP1 SLOAD PUSH2 0x470 SWAP1 PUSH2 0xE65 JUMP JUMPDEST DUP1 ISZERO PUSH2 0x4BD JUMPI DUP1 PUSH1 0x1F LT PUSH2 0x492 JUMPI PUSH2 0x100 DUP1 DUP4 SLOAD DIV MUL DUP4 MSTORE SWAP2 PUSH1 0x20 ADD SWAP2 PUSH2 0x4BD JUMP JUMPDEST DUP3 ADD SWAP2 SWAP1 PUSH1 0x0 MSTORE PUSH1 0x20 PUSH1 0x0 KECCAK256 SWAP1 JUMPDEST DUP2 SLOAD DUP2 MSTORE SWAP1 PUSH1 0x1 ADD SWAP1 PUSH1 0x20 ADD DUP1 DUP4 GT PUSH2 0x4A0 JUMPI DUP3 SWAP1 SUB PUSH1 0x1F AND DUP3 ADD SWAP2 JUMPDEST POP POP POP POP POP SWAP1 DUP1 PUSH1 0x3 ADD DUP1 SLOAD PUSH2 0x4D2 SWAP1 PUSH2 0xE65 JUMP JUMPDEST DUP1 PUSH1 0x1F ADD PUSH1 0x20 DUP1 SWAP2 DIV MUL PUSH1 0x20 ADD PUSH1 0x40 MLOAD SWAP1 DUP2 ADD PUSH1 0x40 MSTORE DUP1 SWAP3 SWAP2 SWAP1 DUP2 DUP2 MSTORE PUSH1 0x20 ADD DUP3 DUP1 SLOAD PUSH2 0x4FE SWAP1 PUSH2 0xE65 JUMP JUMPDEST DUP1 ISZERO PUSH2 0x54B JUMPI DUP1 PUSH1 0x1F LT PUSH2 0x520 JUMPI PUSH2 0x100 DUP1 DUP4 SLOAD DIV MUL DUP4 MSTORE SWAP2 PUSH1 0x20 ADD SWAP2 PUSH2 0x54B JUMP JUMPDEST DUP3 ADD SWAP2 SWAP1 PUSH1 0x0 MSTORE PUSH1 0x20 PUSH1 0x0 KECCAK256 SWAP1 JUMPDEST DUP2 SLOAD DUP2 MSTORE SWAP1 PUSH1 0x1 ADD SWAP1 PUSH1 0x20 ADD DUP1 DUP4 GT PUSH2 0x52E JUMPI DUP3 SWAP1 SUB PUSH1 0x1F AND DUP3 ADD SWAP2 JUMPDEST POP POP POP POP POP SWAP1 DUP1 PUSH1 0x4 ADD DUP1 SLOAD PUSH2 0x560 SWAP1 PUSH2 0xE65 JUMP JUMPDEST DUP1 PUSH1 0x1F ADD PUSH1 0x20 DUP1 SWAP2 DIV MUL PUSH1 0x20 ADD PUSH1 0x40 MLOAD SWAP1 DUP2 ADD PUSH1 0x40 MSTORE DUP1 SWAP3 SWAP2 SWAP1 DUP2 DUP2 MSTORE PUSH1 0x20 ADD DUP3 DUP1 SLOAD PUSH2 0x58C SWAP1 PUSH2 0xE65 JUMP JUMPDEST DUP1 ISZERO PUSH2 0x5D9 JUMPI DUP1 PUSH1 0x1F LT PUSH2 0x5AE JUMPI PUSH2 0x100 DUP1 DUP4 SLOAD DIV MUL DUP4 MSTORE SWAP2 PUSH1 0x20 ADD SWAP2 PUSH2 0x5D9 JUMP JUMPDEST DUP3 ADD SWAP2 SWAP1 PUSH1 0x0 MSTORE PUSH1 0x20 PUSH1 0x0 KECCAK256 SWAP1 JUMPDEST DUP2 SLOAD DUP2 MSTORE SWAP1 PUSH1 0x1 ADD SWAP1 PUSH1 0x20 ADD DUP1 DUP4 GT PUSH2 0x5BC JUMPI DUP3 SWAP1 SUB PUSH1 0x1F AND DUP3 ADD SWAP2 JUMPDEST POP POP POP POP POP SWAP1 DUP1 PUSH1 0x5 ADD PUSH1 0x0 SWAP1 SLOAD SWAP1 PUSH2 0x100 EXP SWAP1 DIV PUSH1 0xFF AND SWAP1 DUP1 PUSH1 0x5 ADD PUSH1 0x1 SWAP1 SLOAD SWAP1 PUSH2 0x100 EXP SWAP1 DIV PUSH1 0xFF AND SWAP1 POP DUP8 JUMP JUMPDEST PUSH1 0x0 DUP1 PUSH1 0x0 SWAP1 SLOAD SWAP1 PUSH2 0x100 EXP SWAP1 DIV PUSH20 0xFFFFFFFFFFFFFFFFFFFFFFFFFFFFFFFFFFFFFFFF AND SWAP1 POP SWAP1 JUMP JUMPDEST PUSH2 0x63A PUSH2 0x729 JUMP JUMPDEST PUSH20 0xFFFFFFFFFFFFFFFFFFFFFFFFFFFFFFFFFFFFFFFF AND PUSH2 0x658 PUSH2 0x609 JUMP JUMPDEST PUSH20 0xFFFFFFFFFFFFFFFFFFFFFFFFFFFFFFFFFFFFFFFF AND EQ PUSH2 0x6AE JUMPI PUSH1 0x40 MLOAD PUSH32 0x8C379A000000000000000000000000000000000000000000000000000000000 DUP2 MSTORE PUSH1 0x4 ADD PUSH2 0x6A5 SWAP1 PUSH2 0xE16 JUMP JUMPDEST PUSH1 0x40 MLOAD DUP1 SWAP2 SUB SWAP1 REVERT JUMPDEST PUSH1 0x0 PUSH20 0xFFFFFFFFFFFFFFFFFFFFFFFFFFFFFFFFFFFFFFFF AND DUP2 PUSH20 0xFFFFFFFFFFFFFFFFFFFFFFFFFFFFFFFFFFFFFFFF AND SUB PUSH2 0x71D JUMPI PUSH1 0x40 MLOAD PUSH32 0x8C379A000000000000000000000000000000000000000000000000000000000 DUP2 MSTORE PUSH1 0x4 ADD PUSH2 0x714 SWAP1 PUSH2 0xF08 JUMP JUMPDEST PUSH1 0x40 MLOAD DUP1 SWAP2 SUB SWAP1 REVERT JUMPDEST PUSH2 0x726 DUP2 PUSH2 0x731 JUMP JUMPDEST POP JUMP JUMPDEST PUSH1 0x0 CALLER SWAP1 POP SWAP1 JUMP JUMPDEST PUSH1 0x0 DUP1 PUSH1 0x0 SWAP1 SLOAD SWAP1 PUSH2 0x100 EXP SWAP1 DIV PUSH20 0xFFFFFFFFFFFFFFFFFFFFFFFFFFFFFFFFFFFFFFFF AND SWAP1 POP DUP2 PUSH1 0x0 DUP1 PUSH2 0x100 EXP DUP2 SLOAD DUP2 PUSH20 0xFFFFFFFFFFFFFFFFFFFFFFFFFFFFFFFFFFFFFFFF MUL NOT AND SWAP1 DUP4 PUSH20 0xFFFFFFFFFFFFFFFFFFFFFFFFFFFFFFFFFFFFFFFF AND MUL OR SWAP1 SSTORE POP DUP2 PUSH20 0xFFFFFFFFFFFFFFFFFFFFFFFFFFFFFFFFFFFFFFFF AND DUP2 PUSH20 0xFFFFFFFFFFFFFFFFFFFFFFFFFFFFFFFFFFFFFFFF AND PUSH32 0x8BE0079C531659141344CD1FD0A4F28419497F9722A3DAAFE3B4186F6B6457E0 PUSH1 0x40 MLOAD PUSH1 0x40 MLOAD DUP1 SWAP2 SUB SWAP1 LOG3 POP POP JUMP JUMPDEST DUP3 DUP1 SLOAD PUSH2 0x801 SWAP1 PUSH2 0xE65 JUMP JUMPDEST SWAP1 PUSH1 0x0 MSTORE PUSH1 0x20 PUSH1 0x0 KECCAK256 SWAP1 PUSH1 0x1F ADD PUSH1 0x20 SWAP1 DIV DUP2 ADD SWAP3 DUP3 PUSH2 0x823 JUMPI PUSH1 0x0 DUP6 SSTORE PUSH2 0x86A JUMP JUMPDEST DUP3 PUSH1 0x1F LT PUSH2 0x83C JUMPI DUP1 MLOAD PUSH1 0xFF NOT AND DUP4 DUP1 ADD OR DUP6 SSTORE PUSH2 0x86A JUMP JUMPDEST DUP3 DUP1 ADD PUSH1 0x1 ADD DUP6 SSTORE DUP3 ISZERO PUSH2 0x86A JUMPI SWAP2 DUP3 ADD JUMPDEST DUP3 DUP2 GT ISZERO PUSH2 0x869 JUMPI DUP3 MLOAD DUP3 SSTORE SWAP2 PUSH1 0x20 ADD SWAP2 SWAP1 PUSH1 0x1 ADD SWAP1 PUSH2 0x84E JUMP JUMPDEST JUMPDEST POP SWAP1 POP PUSH2 0x877 SWAP2 SWAP1 PUSH2 0x87B JUMP JUMPDEST POP SWAP1 JUMP JUMPDEST JUMPDEST DUP1 DUP3 GT ISZERO PUSH2 0x894 JUMPI PUSH1 0x0 DUP2 PUSH1 0x0 SWAP1 SSTORE POP PUSH1 0x1 ADD PUSH2 0x87C JUMP JUMPDEST POP SWAP1 JUMP JUMPDEST PUSH1 0x0 PUSH1 0x40 MLOAD SWAP1 POP SWAP1 JUMP JUMPDEST PUSH1 0x0 DUP1 REVERT JUMPDEST PUSH1 0x0 DUP1 REVERT JUMPDEST PUSH1 0x0 DUP1 REVERT JUMPDEST PUSH1 0x0 DUP1 REVERT JUMPDEST PUSH1 0x0 PUSH1 0x1F NOT PUSH1 0x1F DUP4 ADD AND SWAP1 POP SWAP2 SWAP1 POP JUMP JUMPDEST PUSH32 0x4E487B7100000000000000000000000000000000000000000000000000000000 PUSH1 0x0 MSTORE PUSH1 0x41 PUSH1 0x4 MSTORE PUSH1 0x24 PUSH1 0x0 REVERT JUMPDEST PUSH2 0x8FF DUP3 PUSH2 0x8B6 JUMP JUMPDEST DUP2 ADD DUP2 DUP2 LT PUSH8 0xFFFFFFFFFFFFFFFF DUP3 GT OR ISZERO PUSH2 0x91E JUMPI PUSH2 0x91D PUSH2 0x8C7 JUMP JUMPDEST JUMPDEST DUP1 PUSH1 0x40 MSTORE POP POP POP JUMP JUMPDEST PUSH1 0x0 PUSH2 0x931 PUSH2 0x898 JUMP JUMPDEST SWAP1 POP PUSH2 0x93D DUP3 DUP3 PUSH2 0x8F6 JUMP JUMPDEST SWAP2 SWAP1 POP JUMP JUMPDEST PUSH1 0x0 PUSH8 0xFFFFFFFFFFFFFFFF DUP3 GT ISZERO PUSH2 0x95D JUMPI PUSH2 0x95C PUSH2 0x8C7 JUMP JUMPDEST JUMPDEST PUSH2 0x966 DUP3 PUSH2 0x8B6 JUMP JUMPDEST SWAP1 POP PUSH1 0x20 DUP2 ADD SWAP1 POP SWAP2 SWAP1 POP JUMP JUMPDEST DUP3 DUP2 DUP4 CALLDATACOPY PUSH1 0x0 DUP4 DUP4 ADD MSTORE POP POP POP JUMP JUMPDEST PUSH1 0x0 PUSH2 0x995 PUSH2 0x990 DUP5 PUSH2 0x942 JUMP JUMPDEST PUSH2 0x927 JUMP JUMPDEST SWAP1 POP DUP3 DUP2 MSTORE PUSH1 0x20 DUP2 ADD DUP5 DUP5 DUP5 ADD GT ISZERO PUSH2 0x9B1 JUMPI PUSH2 0x9B0 PUSH2 0x8B1 JUMP JUMPDEST JUMPDEST PUSH2 0x9BC DUP5 DUP3 DUP6 PUSH2 0x973 JUMP JUMPDEST POP SWAP4 SWAP3 POP POP POP JUMP JUMPDEST PUSH1 0x0 DUP3 PUSH1 0x1F DUP4 ADD SLT PUSH2 0x9D9 JUMPI PUSH2 0x9D8 PUSH2 0x8AC JUMP JUMPDEST JUMPDEST DUP2 CALLDATALOAD PUSH2 0x9E9 DUP5 DUP3 PUSH1 0x20 DUP7 ADD PUSH2 0x982 JUMP JUMPDEST SWAP2 POP POP SWAP3 SWAP2 POP POP JUMP JUMPDEST PUSH1 0x0 PUSH1 0xFF DUP3 AND SWAP1 POP SWAP2 SWAP1 POP JUMP JUMPDEST PUSH2 0xA08 DUP2 PUSH2 0x9F2 JUMP JUMPDEST DUP2 EQ PUSH2 0xA13 JUMPI PUSH1 0x0 DUP1 REVERT JUMPDEST POP JUMP JUMPDEST PUSH1 0x0 DUP2 CALLDATALOAD SWAP1 POP PUSH2 0xA25 DUP2 PUSH2 0x9FF JUMP JUMPDEST SWAP3 SWAP2 POP POP JUMP JUMPDEST PUSH1 0x0 DUP1 PUSH1 0x0 DUP1 PUSH1 0x0 DUP1 PUSH1 0x0 PUSH1 0xE0 DUP9 DUP11 SUB SLT ISZERO PUSH2 0xA4A JUMPI PUSH2 0xA49 PUSH2 0x8A2 JUMP JUMPDEST JUMPDEST PUSH1 0x0 DUP9 ADD CALLDATALOAD PUSH8 0xFFFFFFFFFFFFFFFF DUP2 GT ISZERO PUSH2 0xA68 JUMPI PUSH2 0xA67 PUSH2 0x8A7 JUMP JUMPDEST JUMPDEST PUSH2 0xA74 DUP11 DUP3 DUP12 ADD PUSH2 0x9C4 JUMP JUMPDEST SWAP8 POP POP PUSH1 0x20 DUP9 ADD CALLDATALOAD PUSH8 0xFFFFFFFFFFFFFFFF DUP2 GT ISZERO PUSH2 0xA95 JUMPI PUSH2 0xA94 PUSH2 0x8A7 JUMP JUMPDEST JUMPDEST PUSH2 0xAA1 DUP11 DUP3 DUP12 ADD PUSH2 0x9C4 JUMP JUMPDEST SWAP7 POP POP PUSH1 0x40 DUP9 ADD CALLDATALOAD PUSH8 0xFFFFFFFFFFFFFFFF DUP2 GT ISZERO PUSH2 0xAC2 JUMPI PUSH2 0xAC1 PUSH2 0x8A7 JUMP JUMPDEST JUMPDEST PUSH2 0xACE DUP11 DUP3 DUP12 ADD PUSH2 0x9C4 JUMP JUMPDEST SWAP6 POP POP PUSH1 0x60 DUP9 ADD CALLDATALOAD PUSH8 0xFFFFFFFFFFFFFFFF DUP2 GT ISZERO PUSH2 0xAEF JUMPI PUSH2 0xAEE PUSH2 0x8A7 JUMP JUMPDEST JUMPDEST PUSH2 0xAFB DUP11 DUP3 DUP12 ADD PUSH2 0x9C4 JUMP JUMPDEST SWAP5 POP POP PUSH1 0x80 DUP9 ADD CALLDATALOAD PUSH8 0xFFFFFFFFFFFFFFFF DUP2 GT ISZERO PUSH2 0xB1C JUMPI PUSH2 0xB1B PUSH2 0x8A7 JUMP JUMPDEST JUMPDEST PUSH2 0xB28 DUP11 DUP3 DUP12 ADD PUSH2 0x9C4 JUMP JUMPDEST SWAP4 POP POP PUSH1 0xA0 PUSH2 0xB39 DUP11 DUP3 DUP12 ADD PUSH2 0xA16 JUMP JUMPDEST SWAP3 POP POP PUSH1 0xC0 PUSH2 0xB4A DUP11 DUP3 DUP12 ADD PUSH2 0xA16 JUMP JUMPDEST SWAP2 POP POP SWAP3 SWAP6 SWAP9 SWAP2 SWAP5 SWAP8 POP SWAP3 SWAP6 POP JUMP JUMPDEST PUSH1 0x0 DUP2 SWAP1 POP SWAP2 SWAP1 POP JUMP JUMPDEST PUSH2 0xB6C DUP2 PUSH2 0xB59 JUMP JUMPDEST DUP2 EQ PUSH2 0xB77 JUMPI PUSH1 0x0 DUP1 REVERT JUMPDEST POP JUMP JUMPDEST PUSH1 0x0 DUP2 CALLDATALOAD SWAP1 POP PUSH2 0xB89 DUP2 PUSH2 0xB63 JUMP JUMPDEST SWAP3 SWAP2 POP POP JUMP JUMPDEST PUSH1 0x0 PUSH1 0x20 DUP3 DUP5 SUB SLT ISZERO PUSH2 0xBA5 JUMPI PUSH2 0xBA4 PUSH2 0x8A2 JUMP JUMPDEST JUMPDEST PUSH1 0x0 PUSH2 0xBB3 DUP5 DUP3 DUP6 ADD PUSH2 0xB7A JUMP JUMPDEST SWAP2 POP POP SWAP3 SWAP2 POP POP JUMP JUMPDEST PUSH1 0x0 DUP2 MLOAD SWAP1 POP SWAP2 SWAP1 POP JUMP JUMPDEST PUSH1 0x0 DUP3 DUP3 MSTORE PUSH1 0x20 DUP3 ADD SWAP1 POP SWAP3 SWAP2 POP POP JUMP JUMPDEST PUSH1 0x0 JUMPDEST DUP4 DUP2 LT ISZERO PUSH2 0xBF6 JUMPI DUP1 DUP3 ADD MLOAD DUP2 DUP5 ADD MSTORE PUSH1 0x20 DUP2 ADD SWAP1 POP PUSH2 0xBDB JUMP JUMPDEST DUP4 DUP2 GT ISZERO PUSH2 0xC05 JUMPI PUSH1 0x0 DUP5 DUP5 ADD MSTORE JUMPDEST POP POP POP POP JUMP JUMPDEST PUSH1 0x0 PUSH2 0xC16 DUP3 PUSH2 0xBBC JUMP JUMPDEST PUSH2 0xC20 DUP2 DUP6 PUSH2 0xBC7 JUMP JUMPDEST SWAP4 POP PUSH2 0xC30 DUP2 DUP6 PUSH1 0x20 DUP7 ADD PUSH2 0xBD8 JUMP JUMPDEST PUSH2 0xC39 DUP2 PUSH2 0x8B6 JUMP JUMPDEST DUP5 ADD SWAP2 POP POP SWAP3 SWAP2 POP POP JUMP JUMPDEST PUSH2 0xC4D DUP2 PUSH2 0x9F2 JUMP JUMPDEST DUP3 MSTORE POP POP JUMP JUMPDEST PUSH1 0x0 PUSH1 0xE0 DUP3 ADD SWAP1 POP DUP2 DUP2 SUB PUSH1 0x0 DUP4 ADD MSTORE PUSH2 0xC6D DUP2 DUP11 PUSH2 0xC0B JUMP JUMPDEST SWAP1 POP DUP2 DUP2 SUB PUSH1 0x20 DUP4 ADD MSTORE PUSH2 0xC81 DUP2 DUP10 PUSH2 0xC0B JUMP JUMPDEST SWAP1 POP DUP2 DUP2 SUB PUSH1 0x40 DUP4 ADD MSTORE PUSH2 0xC95 DUP2 DUP9 PUSH2 0xC0B JUMP JUMPDEST SWAP1 POP DUP2 DUP2 SUB PUSH1 0x60 DUP4 ADD MSTORE PUSH2 0xCA9 DUP2 DUP8 PUSH2 0xC0B JUMP JUMPDEST SWAP1 POP DUP2 DUP2 SUB PUSH1 0x80 DUP4 ADD MSTORE PUSH2 0xCBD DUP2 DUP7 PUSH2 0xC0B JUMP JUMPDEST SWAP1 POP PUSH2 0xCCC PUSH1 0xA0 DUP4 ADD DUP6 PUSH2 0xC44 JUMP JUMPDEST PUSH2 0xCD9 PUSH1 0xC0 DUP4 ADD DUP5 PUSH2 0xC44 JUMP JUMPDEST SWAP9 SWAP8 POP POP POP POP POP POP POP POP JUMP JUMPDEST PUSH1 0x0 PUSH20 0xFFFFFFFFFFFFFFFFFFFFFFFFFFFFFFFFFFFFFFFF DUP3 AND SWAP1 POP SWAP2 SWAP1 POP JUMP JUMPDEST PUSH1 0x0 PUSH2 0xD10 DUP3 PUSH2 0xCE5 JUMP JUMPDEST SWAP1 POP SWAP2 SWAP1 POP JUMP JUMPDEST PUSH2 0xD20 DUP2 PUSH2 0xD05 JUMP JUMPDEST DUP3 MSTORE POP POP JUMP JUMPDEST PUSH1 0x0 PUSH1 0x20 DUP3 ADD SWAP1 POP PUSH2 0xD3B PUSH1 0x0 DUP4 ADD DUP5 PUSH2 0xD17 JUMP JUMPDEST SWAP3 SWAP2 POP POP JUMP JUMPDEST PUSH2 0xD4A DUP2 PUSH2 0xD05 JUMP JUMPDEST DUP2 EQ PUSH2 0xD55 JUMPI PUSH1 0x0 DUP1 REVERT JUMPDEST POP JUMP JUMPDEST PUSH1 0x0 DUP2 CALLDATALOAD SWAP1 POP PUSH2 0xD67 DUP2 PUSH2 0xD41 JUMP JUMPDEST SWAP3 SWAP2 POP POP JUMP JUMPDEST PUSH1 0x0 PUSH1 0x20 DUP3 DUP5 SUB SLT ISZERO PUSH2 0xD83 JUMPI PUSH2 0xD82 PUSH2 0x8A2 JUMP JUMPDEST JUMPDEST PUSH1 0x0 PUSH2 0xD91 DUP5 DUP3 DUP6 ADD PUSH2 0xD58 JUMP JUMPDEST SWAP2 POP POP SWAP3 SWAP2 POP POP JUMP JUMPDEST PUSH1 0x0 PUSH1 0x40 DUP3 ADD SWAP1 POP DUP2 DUP2 SUB PUSH1 0x0 DUP4 ADD MSTORE PUSH2 0xDB4 DUP2 DUP6 PUSH2 0xC0B JUMP JUMPDEST SWAP1 POP PUSH2 0xDC3 PUSH1 0x20 DUP4 ADD DUP5 PUSH2 0xC44 JUMP JUMPDEST SWAP4 SWAP3 POP POP POP JUMP JUMPDEST PUSH32 0x4F776E61626C653A2063616C6C6572206973206E6F7420746865206F776E6572 PUSH1 0x0 DUP3 ADD MSTORE POP JUMP JUMPDEST PUSH1 0x0 PUSH2 0xE00 PUSH1 0x20 DUP4 PUSH2 0xBC7 JUMP JUMPDEST SWAP2 POP PUSH2 0xE0B DUP3 PUSH2 0xDCA JUMP JUMPDEST PUSH1 0x20 DUP3 ADD SWAP1 POP SWAP2 SWAP1 POP JUMP JUMPDEST PUSH1 0x0 PUSH1 0x20 DUP3 ADD SWAP1 POP DUP2 DUP2 SUB PUSH1 0x0 DUP4 ADD MSTORE PUSH2 0xE2F DUP2 PUSH2 0xDF3 JUMP JUMPDEST SWAP1 POP SWAP2 SWAP1 POP JUMP JUMPDEST PUSH32 0x4E487B7100000000000000000000000000000000000000000000000000000000 PUSH1 0x0 MSTORE PUSH1 0x22 PUSH1 0x4 MSTORE PUSH1 0x24 PUSH1 0x0 REVERT JUMPDEST PUSH1 0x0 PUSH1 0x2 DUP3 DIV SWAP1 POP PUSH1 0x1 DUP3 AND DUP1 PUSH2 0xE7D JUMPI PUSH1 0x7F DUP3 AND SWAP2 POP JUMPDEST PUSH1 0x20 DUP3 LT DUP2 SUB PUSH2 0xE90 JUMPI PUSH2 0xE8F PUSH2 0xE36 JUMP JUMPDEST JUMPDEST POP SWAP2 SWAP1 POP JUMP JUMPDEST PUSH32 0x4F776E61626C653A206E6577206F776E657220697320746865207A65726F2061 PUSH1 0x0 DUP3 ADD MSTORE PUSH32 0x6464726573730000000000000000000000000000000000000000000000000000 PUSH1 0x20 DUP3 ADD MSTORE POP JUMP JUMPDEST PUSH1 0x0 PUSH2 0xEF2 PUSH1 0x26 DUP4 PUSH2 0xBC7 JUMP JUMPDEST SWAP2 POP PUSH2 0xEFD DUP3 PUSH2 0xE96 JUMP JUMPDEST PUSH1 0x40 DUP3 ADD SWAP1 POP SWAP2 SWAP1 POP JUMP JUMPDEST PUSH1 0x0 PUSH1 0x20 DUP3 ADD SWAP1 POP DUP2 DUP2 SUB PUSH1 0x0 DUP4 ADD MSTORE PUSH2 0xF21 DUP2 PUSH2 0xEE5 JUMP JUMPDEST SWAP1 POP SWAP2 SWAP1 POP JUMP INVALID LOG2 PUSH5 0x6970667358 0x22 SLT KECCAK256 DUP15 0x1F MULMOD JUMPDEST 0xCA SGT GT DIFFICULTY GASPRICE PUSH3 0x252B4E 0xF9 DUP7 0xDA 0xF7 0xD 0x2A SHR 0x4C 0x29 0xB8 SWAP14 SWAP13 CALLDATASIZE PUSH15 0x9E1CE236FF64736F6C634300080E00 CALLER "
				},
				"gasEstimates": {
					"creation": {
						"codeDepositCost": "786800",
						"executionCost": "infinite",
						"totalCost": "infinite"
					},
					"external": {
						"createQuiz(string,string,string,string,string,uint8,uint8)": "infinite",
						"owner()": "2566",
						"quizzes(uint256)": "infinite",
						"renounceOwnership()": "30374",
						"transferOwnership(address)": "30786"
					}
				},
				"methodIdentifiers": {
					"createQuiz(string,string,string,string,string,uint8,uint8)": "4361790f",
					"owner()": "8da5cb5b",
					"quizzes(uint256)": "88409afa",
					"renounceOwnership()": "715018a6",
					"transferOwnership(address)": "f2fde38b"
				}
			},
			"storageLayout": {
				"storage": [
					{
						"astId": 97,
						"contract": "contracts/CreateQuiz.sol:CreateQuiz",
						"label": "_owner",
						"offset": 0,
						"slot": "0",
						"type": "t_address"
					},
					{
						"astId": 51,
						"contract": "contracts/CreateQuiz.sol:CreateQuiz",
						"label": "quizzes",
						"offset": 0,
						"slot": "1",
						"type": "t_array(t_struct(Quiz)47_storage)dyn_storage"
					}
				],
				"types": {
					"t_address": {
						"encoding": "inplace",
						"label": "address",
						"numberOfBytes": "20"
					},
					"t_array(t_struct(Quiz)47_storage)dyn_storage": {
						"base": "t_struct(Quiz)47_storage",
						"encoding": "dynamic_array",
						"label": "struct CreateQuiz.Quiz[]",
						"numberOfBytes": "32"
					},
					"t_string_storage": {
						"encoding": "bytes",
						"label": "string",
						"numberOfBytes": "32"
					},
					"t_struct(Quiz)47_storage": {
						"encoding": "inplace",
						"label": "struct CreateQuiz.Quiz",
						"members": [
							{
								"astId": 34,
								"contract": "contracts/CreateQuiz.sol:CreateQuiz",
								"label": "question",
								"offset": 0,
								"slot": "0",
								"type": "t_string_storage"
							},
							{
								"astId": 36,
								"contract": "contracts/CreateQuiz.sol:CreateQuiz",
								"label": "choice1",
								"offset": 0,
								"slot": "1",
								"type": "t_string_storage"
							},
							{
								"astId": 38,
								"contract": "contracts/CreateQuiz.sol:CreateQuiz",
								"label": "choice2",
								"offset": 0,
								"slot": "2",
								"type": "t_string_storage"
							},
							{
								"astId": 40,
								"contract": "contracts/CreateQuiz.sol:CreateQuiz",
								"label": "choice3",
								"offset": 0,
								"slot": "3",
								"type": "t_string_storage"
							},
							{
								"astId": 42,
								"contract": "contracts/CreateQuiz.sol:CreateQuiz",
								"label": "choice4",
								"offset": 0,
								"slot": "4",
								"type": "t_string_storage"
							},
							{
								"astId": 44,
								"contract": "contracts/CreateQuiz.sol:CreateQuiz",
								"label": "answer",
								"offset": 0,
								"slot": "5",
								"type": "t_uint8"
							},
							{
								"astId": 46,
								"contract": "contracts/CreateQuiz.sol:CreateQuiz",
								"label": "languageCode",
								"offset": 1,
								"slot": "5",
								"type": "t_uint8"
							}
						],
						"numberOfBytes": "192"
					},
					"t_uint8": {
						"encoding": "inplace",
						"label": "uint8",
						"numberOfBytes": "1"
					}
				}
			},
			"userdoc": {
				"kind": "user",
				"methods": {},
				"version": 1
			}
		}
	}
}