{
	"contracts/AnswerQuiz.sol": {
		"AnswerQuiz": {
			"abi": [
				{
					"anonymous": false,
					"inputs": [
						{
							"components": [
								{
									"internalType": "string",
									"name": "question",
									"type": "string"
								},
								{
									"internalType": "string",
									"name": "choice1",
									"type": "string"
								},
								{
									"internalType": "string",
									"name": "choice2",
									"type": "string"
								},
								{
									"internalType": "string",
									"name": "choice3",
									"type": "string"
								},
								{
									"internalType": "string",
									"name": "choice4",
									"type": "string"
								},
								{
									"internalType": "string",
									"name": "hint",
									"type": "string"
								},
								{
									"internalType": "uint8",
									"name": "languageCode",
									"type": "uint8"
								}
							],
							"indexed": false,
							"internalType": "struct CreateQuiz.Quiz",
							"name": "quiz",
							"type": "tuple"
						}
					],
					"name": "GetQuiz",
					"type": "event"
				},
				{
					"anonymous": false,
					"inputs": [
						{
							"indexed": false,
							"internalType": "string",
							"name": "question",
							"type": "string"
						},
						{
							"indexed": false,
							"internalType": "uint8",
							"name": "answer",
							"type": "uint8"
						}
					],
					"name": "NewQuiz",
					"type": "event"
				},
				{
					"anonymous": false,
					"inputs": [
						{
							"indexed": true,
							"internalType": "address",
							"name": "previousOwner",
							"type": "address"
						},
						{
							"indexed": true,
							"internalType": "address",
							"name": "newOwner",
							"type": "address"
						}
					],
					"name": "OwnershipTransferred",
					"type": "event"
				},
				{
					"anonymous": false,
					"inputs": [
						{
							"components": [
								{
									"internalType": "string",
									"name": "question",
									"type": "string"
								},
								{
									"internalType": "string",
									"name": "choice1",
									"type": "string"
								},
								{
									"internalType": "string",
									"name": "choice2",
									"type": "string"
								},
								{
									"internalType": "string",
									"name": "choice3",
									"type": "string"
								},
								{
									"internalType": "string",
									"name": "choice4",
									"type": "string"
								},
								{
									"internalType": "string",
									"name": "hint",
									"type": "string"
								},
								{
									"internalType": "uint8",
									"name": "languageCode",
									"type": "uint8"
								}
							],
							"indexed": false,
							"internalType": "struct CreateQuiz.Quiz",
							"name": "quiz",
							"type": "tuple"
						},
						{
							"indexed": false,
							"internalType": "uint8",
							"name": "answer",
							"type": "uint8"
						}
					],
					"name": "QuizOwnerGetQuiz",
					"type": "event"
				},
				{
					"inputs": [
						{
							"internalType": "uint256",
							"name": "_quizId",
							"type": "uint256"
						},
						{
							"internalType": "uint8",
							"name": "_answer",
							"type": "uint8"
						}
					],
					"name": "answerQuiz",
					"outputs": [],
					"stateMutability": "view",
					"type": "function"
				},
				{
					"inputs": [
						{
							"internalType": "uint256",
							"name": "_quizId",
							"type": "uint256"
						},
						{
							"internalType": "bool",
							"name": "_quizStatus",
							"type": "bool"
						}
					],
					"name": "changeQuizStatus",
					"outputs": [],
					"stateMutability": "nonpayable",
					"type": "function"
				},
				{
					"inputs": [
						{
							"internalType": "string",
							"name": "_seed",
							"type": "string"
						}
					],
					"name": "getRandomQuiz",
					"outputs": [
						{
							"components": [
								{
									"internalType": "string",
									"name": "question",
									"type": "string"
								},
								{
									"internalType": "string",
									"name": "choice1",
									"type": "string"
								},
								{
									"internalType": "string",
									"name": "choice2",
									"type": "string"
								},
								{
									"internalType": "string",
									"name": "choice3",
									"type": "string"
								},
								{
									"internalType": "string",
									"name": "choice4",
									"type": "string"
								},
								{
									"internalType": "string",
									"name": "hint",
									"type": "string"
								},
								{
									"internalType": "uint8",
									"name": "languageCode",
									"type": "uint8"
								}
							],
							"internalType": "struct CreateQuiz.Quiz",
							"name": "",
							"type": "tuple"
						}
					],
					"stateMutability": "nonpayable",
					"type": "function"
				},
				{
					"inputs": [],
					"name": "owner",
					"outputs": [
						{
							"internalType": "address",
							"name": "",
							"type": "address"
						}
					],
					"stateMutability": "view",
					"type": "function"
				},
				{
					"inputs": [
						{
							"internalType": "uint256",
							"name": "",
							"type": "uint256"
						}
					],
					"name": "quizIsActive",
					"outputs": [
						{
							"internalType": "bool",
							"name": "",
							"type": "bool"
						}
					],
					"stateMutability": "view",
					"type": "function"
				},
				{
					"inputs": [
						{
							"internalType": "uint256",
							"name": "",
							"type": "uint256"
						}
					],
					"name": "quizOwner",
					"outputs": [
						{
							"internalType": "address",
							"name": "",
							"type": "address"
						}
					],
					"stateMutability": "view",
					"type": "function"
				},
				{
					"inputs": [
						{
							"internalType": "uint256",
							"name": "_quizId",
							"type": "uint256"
						},
						{
							"internalType": "string",
							"name": "_hint",
							"type": "string"
						}
					],
					"name": "quizOwnerChangeHint",
					"outputs": [],
					"stateMutability": "nonpayable",
					"type": "function"
				},
				{
					"inputs": [
						{
							"internalType": "uint256",
							"name": "_quizId",
							"type": "uint256"
						},
						{
							"internalType": "bool",
							"name": "_quizStatus",
							"type": "bool"
						}
					],
					"name": "quizOwnerChangeStatus",
					"outputs": [],
					"stateMutability": "nonpayable",
					"type": "function"
				},
				{
					"inputs": [
						{
							"internalType": "uint256",
							"name": "_quizId",
							"type": "uint256"
						}
					],
					"name": "quizOwnerGetQuiz",
					"outputs": [
						{
							"components": [
								{
									"internalType": "string",
									"name": "question",
									"type": "string"
								},
								{
									"internalType": "string",
									"name": "choice1",
									"type": "string"
								},
								{
									"internalType": "string",
									"name": "choice2",
									"type": "string"
								},
								{
									"internalType": "string",
									"name": "choice3",
									"type": "string"
								},
								{
									"internalType": "string",
									"name": "choice4",
									"type": "string"
								},
								{
									"internalType": "string",
									"name": "hint",
									"type": "string"
								},
								{
									"internalType": "uint8",
									"name": "languageCode",
									"type": "uint8"
								}
							],
							"internalType": "struct CreateQuiz.Quiz",
							"name": "",
							"type": "tuple"
						},
						{
							"internalType": "uint8",
							"name": "",
							"type": "uint8"
						}
					],
					"stateMutability": "nonpayable",
					"type": "function"
				},
				{
					"inputs": [],
					"name": "renounceOwnership",
					"outputs": [],
					"stateMutability": "nonpayable",
					"type": "function"
				},
				{
					"inputs": [
						{
							"internalType": "address",
							"name": "newOwner",
							"type": "address"
						}
					],
					"name": "transferOwnership",
					"outputs": [],
					"stateMutability": "nonpayable",
					"type": "function"
				}
			],
			"devdoc": {
				"kind": "dev",
				"methods": {
					"owner()": {
						"details": "Returns the address of the current owner."
					},
					"renounceOwnership()": {
						"details": "Leaves the contract without owner. It will not be possible to call `onlyOwner` functions anymore. Can only be called by the current owner. NOTE: Renouncing ownership will leave the contract without an owner, thereby removing any functionality that is only available to the owner."
					},
					"transferOwnership(address)": {
						"details": "Transfers ownership of the contract to a new account (`newOwner`). Can only be called by the current owner."
					}
				},
				"version": 1
			},
			"evm": {
				"assembly": "    /* \"contracts/AnswerQuiz.sol\":91:341  contract AnswerQuiz is ViewQuiz {... */\n  mstore(0x40, 0x80)\n  callvalue\n  dup1\n  iszero\n  tag_1\n  jumpi\n  0x00\n  dup1\n  revert\ntag_1:\n  pop\n    /* \"contracts/Ownable.sol\":914:946  _transferOwnership(_msgSender()) */\n  tag_4\n    /* \"contracts/Ownable.sol\":933:945  _msgSender() */\n  tag_5\n    /* \"contracts/Ownable.sol\":933:943  _msgSender */\n  shl(0x20, tag_6)\n    /* \"contracts/Ownable.sol\":933:945  _msgSender() */\n  0x20\n  shr\n  jump\t// in\ntag_5:\n    /* \"contracts/Ownable.sol\":914:932  _transferOwnership */\n  shl(0x20, tag_7)\n    /* \"contracts/Ownable.sol\":914:946  _transferOwnership(_msgSender()) */\n  0x20\n  shr\n  jump\t// in\ntag_4:\n    /* \"contracts/AnswerQuiz.sol\":91:341  contract AnswerQuiz is ViewQuiz {... */\n  jump(tag_8)\n    /* \"contracts/Context.sol\":640:736  function _msgSender() internal view virtual returns (address) {... */\ntag_6:\n    /* \"contracts/Context.sol\":693:700  address */\n  0x00\n    /* \"contracts/Context.sol\":719:729  msg.sender */\n  caller\n    /* \"contracts/Context.sol\":712:729  return msg.sender */\n  swap1\n  pop\n    /* \"contracts/Context.sol\":640:736  function _msgSender() internal view virtual returns (address) {... */\n  swap1\n  jump\t// out\n    /* \"contracts/Ownable.sol\":2263:2450  function _transferOwnership(address newOwner) internal virtual {... */\ntag_7:\n    /* \"contracts/Ownable.sol\":2336:2352  address oldOwner */\n  0x00\n    /* \"contracts/Ownable.sol\":2355:2361  _owner */\n  dup1\n  0x00\n  swap1\n  sload\n  swap1\n  0x0100\n  exp\n  swap1\n  div\n  0xffffffffffffffffffffffffffffffffffffffff\n  and\n    /* \"contracts/Ownable.sol\":2336:2361  address oldOwner = _owner */\n  swap1\n  pop\n    /* \"contracts/Ownable.sol\":2380:2388  newOwner */\n  dup2\n    /* \"contracts/Ownable.sol\":2371:2377  _owner */\n  0x00\n  dup1\n    /* \"contracts/Ownable.sol\":2371:2388  _owner = newOwner */\n  0x0100\n  exp\n  dup2\n  sload\n  dup2\n  0xffffffffffffffffffffffffffffffffffffffff\n  mul\n  not\n  and\n  swap1\n  dup4\n  0xffffffffffffffffffffffffffffffffffffffff\n  and\n  mul\n  or\n  swap1\n  sstore\n  pop\n    /* \"contracts/Ownable.sol\":2434:2442  newOwner */\n  dup2\n    /* \"contracts/Ownable.sol\":2403:2443  OwnershipTransferred(oldOwner, newOwner) */\n  0xffffffffffffffffffffffffffffffffffffffff\n  and\n    /* \"contracts/Ownable.sol\":2424:2432  oldOwner */\n  dup2\n    /* \"contracts/Ownable.sol\":2403:2443  OwnershipTransferred(oldOwner, newOwner) */\n  0xffffffffffffffffffffffffffffffffffffffff\n  and\n  0x8be0079c531659141344cd1fd0a4f28419497f9722a3daafe3b4186f6b6457e0\n  mload(0x40)\n  mload(0x40)\n  dup1\n  swap2\n  sub\n  swap1\n  log3\n    /* \"contracts/Ownable.sol\":2326:2450  {... */\n  pop\n    /* \"contracts/Ownable.sol\":2263:2450  function _transferOwnership(address newOwner) internal virtual {... */\n  pop\n  jump\t// out\n    /* \"contracts/AnswerQuiz.sol\":91:341  contract AnswerQuiz is ViewQuiz {... */\ntag_8:\n  dataSize(sub_0)\n  dup1\n  dataOffset(sub_0)\n  0x00\n  codecopy\n  0x00\n  return\nstop\n\nsub_0: assembly {\n        /* \"contracts/AnswerQuiz.sol\":91:341  contract AnswerQuiz is ViewQuiz {... */\n      mstore(0x40, 0x80)\n      callvalue\n      dup1\n      iszero\n      tag_1\n      jumpi\n      0x00\n      dup1\n      revert\n    tag_1:\n      pop\n      jumpi(tag_2, lt(calldatasize, 0x04))\n      shr(0xe0, calldataload(0x00))\n      dup1\n      0x728b0d87\n      gt\n      tag_14\n      jumpi\n      dup1\n      0x728b0d87\n      eq\n      tag_8\n      jumpi\n      dup1\n      0x8da5cb5b\n      eq\n      tag_9\n      jumpi\n      dup1\n      0xa70434b3\n      eq\n      tag_10\n      jumpi\n      dup1\n      0xb9360cf1\n      eq\n      tag_11\n      jumpi\n      dup1\n      0xf2fde38b\n      eq\n      tag_12\n      jumpi\n      dup1\n      0xfbb3b6ce\n      eq\n      tag_13\n      jumpi\n      jump(tag_2)\n    tag_14:\n      dup1\n      0x1d3f7559\n      eq\n      tag_3\n      jumpi\n      dup1\n      0x377def85\n      eq\n      tag_4\n      jumpi\n      dup1\n      0x400ae0f9\n      eq\n      tag_5\n      jumpi\n      dup1\n      0x51a1d40e\n      eq\n      tag_6\n      jumpi\n      dup1\n      0x715018a6\n      eq\n      tag_7\n      jumpi\n    tag_2:\n      0x00\n      dup1\n      revert\n        /* \"contracts/CreateQuiz.sol\":1862:1989  function changeQuizStatus(uint _quizId, bool _quizStatus) public onlyOwner {... */\n    tag_3:\n      tag_15\n      0x04\n      dup1\n      calldatasize\n      sub\n      dup2\n      add\n      swap1\n      tag_16\n      swap2\n      swap1\n      tag_17\n      jump\t// in\n    tag_16:\n      tag_18\n      jump\t// in\n    tag_15:\n      stop\n        /* \"contracts/CreateQuiz.sol\":1426:1571  function quizOwnerChangeStatus(uint _quizId, bool _quizStatus) public onlyQuizOwner(_quizId) {... */\n    tag_4:\n      tag_19\n      0x04\n      dup1\n      calldatasize\n      sub\n      dup2\n      add\n      swap1\n      tag_20\n      swap2\n      swap1\n      tag_17\n      jump\t// in\n    tag_20:\n      tag_21\n      jump\t// in\n    tag_19:\n      stop\n        /* \"contracts/CreateQuiz.sol\":501:543  mapping (uint => address) public quizOwner */\n    tag_5:\n      tag_22\n      0x04\n      dup1\n      calldatasize\n      sub\n      dup2\n      add\n      swap1\n      tag_23\n      swap2\n      swap1\n      tag_24\n      jump\t// in\n    tag_23:\n      tag_25\n      jump\t// in\n    tag_22:\n      mload(0x40)\n      tag_26\n      swap2\n      swap1\n      tag_27\n      jump\t// in\n    tag_26:\n      mload(0x40)\n      dup1\n      swap2\n      sub\n      swap1\n      return\n        /* \"contracts/CreateQuiz.sol\":404:446  mapping (uint => bool) public quizIsActive */\n    tag_6:\n      tag_28\n      0x04\n      dup1\n      calldatasize\n      sub\n      dup2\n      add\n      swap1\n      tag_29\n      swap2\n      swap1\n      tag_24\n      jump\t// in\n    tag_29:\n      tag_30\n      jump\t// in\n    tag_28:\n      mload(0x40)\n      tag_31\n      swap2\n      swap1\n      tag_32\n      jump\t// in\n    tag_31:\n      mload(0x40)\n      dup1\n      swap2\n      sub\n      swap1\n      return\n        /* \"contracts/Ownable.sol\":1661:1762  function renounceOwnership() public virtual onlyOwner {... */\n    tag_7:\n      tag_33\n      tag_34\n      jump\t// in\n    tag_33:\n      stop\n        /* \"contracts/ViewQuiz.sol\":256:617  function getRandomQuiz(string memory _seed) public returns (Quiz memory) {... */\n    tag_8:\n      tag_35\n      0x04\n      dup1\n      calldatasize\n      sub\n      dup2\n      add\n      swap1\n      tag_36\n      swap2\n      swap1\n      tag_37\n      jump\t// in\n    tag_36:\n      tag_38\n      jump\t// in\n    tag_35:\n      mload(0x40)\n      tag_39\n      swap2\n      swap1\n      tag_40\n      jump\t// in\n    tag_39:\n      mload(0x40)\n      dup1\n      swap2\n      sub\n      swap1\n      return\n        /* \"contracts/Ownable.sol\":1029:1114  function owner() public view virtual returns (address) {... */\n    tag_9:\n      tag_41\n      tag_42\n      jump\t// in\n    tag_41:\n      mload(0x40)\n      tag_43\n      swap2\n      swap1\n      tag_27\n      jump\t// in\n    tag_43:\n      mload(0x40)\n      dup1\n      swap2\n      sub\n      swap1\n      return\n        /* \"contracts/AnswerQuiz.sol\":134:339  function answerQuiz(uint _quizId, uint8 _answer) public view {... */\n    tag_10:\n      tag_44\n      0x04\n      dup1\n      calldatasize\n      sub\n      dup2\n      add\n      swap1\n      tag_45\n      swap2\n      swap1\n      tag_46\n      jump\t// in\n    tag_45:\n      tag_47\n      jump\t// in\n    tag_44:\n      stop\n        /* \"contracts/ViewQuiz.sol\":880:1112  function quizOwnerGetQuiz(uint _quizId) public onlyQuizOwner(_quizId) returns (Quiz memory, uint8) {... */\n    tag_11:\n      tag_48\n      0x04\n      dup1\n      calldatasize\n      sub\n      dup2\n      add\n      swap1\n      tag_49\n      swap2\n      swap1\n      tag_24\n      jump\t// in\n    tag_49:\n      tag_50\n      jump\t// in\n    tag_48:\n      mload(0x40)\n      tag_51\n      swap3\n      swap2\n      swap1\n      tag_52\n      jump\t// in\n    tag_51:\n      mload(0x40)\n      dup1\n      swap2\n      sub\n      swap1\n      return\n        /* \"contracts/Ownable.sol\":1911:2109  function transferOwnership(address newOwner) public virtual onlyOwner {... */\n    tag_12:\n      tag_53\n      0x04\n      dup1\n      calldatasize\n      sub\n      dup2\n      add\n      swap1\n      tag_54\n      swap2\n      swap1\n      tag_55\n      jump\t// in\n    tag_54:\n      tag_56\n      jump\t// in\n    tag_53:\n      stop\n        /* \"contracts/CreateQuiz.sol\":1632:1772  function quizOwnerChangeHint(uint _quizId, string memory _hint) public onlyQuizOwner(_quizId) {... */\n    tag_13:\n      tag_57\n      0x04\n      dup1\n      calldatasize\n      sub\n      dup2\n      add\n      swap1\n      tag_58\n      swap2\n      swap1\n      tag_59\n      jump\t// in\n    tag_58:\n      tag_60\n      jump\t// in\n    tag_57:\n      stop\n        /* \"contracts/CreateQuiz.sol\":1862:1989  function changeQuizStatus(uint _quizId, bool _quizStatus) public onlyOwner {... */\n    tag_18:\n        /* \"contracts/Ownable.sol\":1252:1264  _msgSender() */\n      tag_62\n        /* \"contracts/Ownable.sol\":1252:1262  _msgSender */\n      tag_63\n        /* \"contracts/Ownable.sol\":1252:1264  _msgSender() */\n      jump\t// in\n    tag_62:\n        /* \"contracts/Ownable.sol\":1241:1264  owner() == _msgSender() */\n      0xffffffffffffffffffffffffffffffffffffffff\n      and\n        /* \"contracts/Ownable.sol\":1241:1248  owner() */\n      tag_64\n        /* \"contracts/Ownable.sol\":1241:1246  owner */\n      tag_42\n        /* \"contracts/Ownable.sol\":1241:1248  owner() */\n      jump\t// in\n    tag_64:\n        /* \"contracts/Ownable.sol\":1241:1264  owner() == _msgSender() */\n      0xffffffffffffffffffffffffffffffffffffffff\n      and\n      eq\n        /* \"contracts/Ownable.sol\":1233:1301  require(owner() == _msgSender(), \"Ownable: caller is not the owner\") */\n      tag_65\n      jumpi\n      mload(0x40)\n      0x08c379a000000000000000000000000000000000000000000000000000000000\n      dup2\n      mstore\n      0x04\n      add\n      tag_66\n      swap1\n      tag_67\n      jump\t// in\n    tag_66:\n      mload(0x40)\n      dup1\n      swap2\n      sub\n      swap1\n      revert\n    tag_65:\n        /* \"contracts/CreateQuiz.sol\":1971:1982  _quizStatus */\n      dup1\n        /* \"contracts/CreateQuiz.sol\":1947:1959  quizIsActive */\n      0x02\n        /* \"contracts/CreateQuiz.sol\":1947:1968  quizIsActive[_quizId] */\n      0x00\n        /* \"contracts/CreateQuiz.sol\":1960:1967  _quizId */\n      dup5\n        /* \"contracts/CreateQuiz.sol\":1947:1968  quizIsActive[_quizId] */\n      dup2\n      mstore\n      0x20\n      add\n      swap1\n      dup2\n      mstore\n      0x20\n      add\n      0x00\n      keccak256\n      0x00\n        /* \"contracts/CreateQuiz.sol\":1947:1982  quizIsActive[_quizId] = _quizStatus */\n      0x0100\n      exp\n      dup2\n      sload\n      dup2\n      0xff\n      mul\n      not\n      and\n      swap1\n      dup4\n      iszero\n      iszero\n      mul\n      or\n      swap1\n      sstore\n      pop\n        /* \"contracts/CreateQuiz.sol\":1862:1989  function changeQuizStatus(uint _quizId, bool _quizStatus) public onlyOwner {... */\n      pop\n      pop\n      jump\t// out\n        /* \"contracts/CreateQuiz.sol\":1426:1571  function quizOwnerChangeStatus(uint _quizId, bool _quizStatus) public onlyQuizOwner(_quizId) {... */\n    tag_21:\n        /* \"contracts/CreateQuiz.sol\":1510:1517  _quizId */\n      dup2\n        /* \"contracts/CreateQuiz.sol\":628:638  msg.sender */\n      caller\n        /* \"contracts/CreateQuiz.sol\":606:638  quizOwner[_quizId] == msg.sender */\n      0xffffffffffffffffffffffffffffffffffffffff\n      and\n        /* \"contracts/CreateQuiz.sol\":606:615  quizOwner */\n      0x04\n        /* \"contracts/CreateQuiz.sol\":606:624  quizOwner[_quizId] */\n      0x00\n        /* \"contracts/CreateQuiz.sol\":616:623  _quizId */\n      dup4\n        /* \"contracts/CreateQuiz.sol\":606:624  quizOwner[_quizId] */\n      dup2\n      mstore\n      0x20\n      add\n      swap1\n      dup2\n      mstore\n      0x20\n      add\n      0x00\n      keccak256\n      0x00\n      swap1\n      sload\n      swap1\n      0x0100\n      exp\n      swap1\n      div\n      0xffffffffffffffffffffffffffffffffffffffff\n      and\n        /* \"contracts/CreateQuiz.sol\":606:638  quizOwner[_quizId] == msg.sender */\n      0xffffffffffffffffffffffffffffffffffffffff\n      and\n      eq\n        /* \"contracts/CreateQuiz.sol\":598:639  require(quizOwner[_quizId] == msg.sender) */\n      tag_70\n      jumpi\n      0x00\n      dup1\n      revert\n    tag_70:\n        /* \"contracts/CreateQuiz.sol\":1553:1564  _quizStatus */\n      dup2\n        /* \"contracts/CreateQuiz.sol\":1529:1541  quizIsActive */\n      0x02\n        /* \"contracts/CreateQuiz.sol\":1529:1550  quizIsActive[_quizId] */\n      0x00\n        /* \"contracts/CreateQuiz.sol\":1542:1549  _quizId */\n      dup6\n        /* \"contracts/CreateQuiz.sol\":1529:1550  quizIsActive[_quizId] */\n      dup2\n      mstore\n      0x20\n      add\n      swap1\n      dup2\n      mstore\n      0x20\n      add\n      0x00\n      keccak256\n      0x00\n        /* \"contracts/CreateQuiz.sol\":1529:1564  quizIsActive[_quizId] = _quizStatus */\n      0x0100\n      exp\n      dup2\n      sload\n      dup2\n      0xff\n      mul\n      not\n      and\n      swap1\n      dup4\n      iszero\n      iszero\n      mul\n      or\n      swap1\n      sstore\n      pop\n        /* \"contracts/CreateQuiz.sol\":1426:1571  function quizOwnerChangeStatus(uint _quizId, bool _quizStatus) public onlyQuizOwner(_quizId) {... */\n      pop\n      pop\n      pop\n      jump\t// out\n        /* \"contracts/CreateQuiz.sol\":501:543  mapping (uint => address) public quizOwner */\n    tag_25:\n      mstore(0x20, 0x04)\n      dup1\n      0x00\n      mstore\n      keccak256(0x00, 0x40)\n      0x00\n      swap2\n      pop\n      sload\n      swap1\n      0x0100\n      exp\n      swap1\n      div\n      0xffffffffffffffffffffffffffffffffffffffff\n      and\n      dup2\n      jump\t// out\n        /* \"contracts/CreateQuiz.sol\":404:446  mapping (uint => bool) public quizIsActive */\n    tag_30:\n      mstore(0x20, 0x02)\n      dup1\n      0x00\n      mstore\n      keccak256(0x00, 0x40)\n      0x00\n      swap2\n      pop\n      sload\n      swap1\n      0x0100\n      exp\n      swap1\n      div\n      0xff\n      and\n      dup2\n      jump\t// out\n        /* \"contracts/Ownable.sol\":1661:1762  function renounceOwnership() public virtual onlyOwner {... */\n    tag_34:\n        /* \"contracts/Ownable.sol\":1252:1264  _msgSender() */\n      tag_73\n        /* \"contracts/Ownable.sol\":1252:1262  _msgSender */\n      tag_63\n        /* \"contracts/Ownable.sol\":1252:1264  _msgSender() */\n      jump\t// in\n    tag_73:\n        /* \"contracts/Ownable.sol\":1241:1264  owner() == _msgSender() */\n      0xffffffffffffffffffffffffffffffffffffffff\n      and\n        /* \"contracts/Ownable.sol\":1241:1248  owner() */\n      tag_74\n        /* \"contracts/Ownable.sol\":1241:1246  owner */\n      tag_42\n        /* \"contracts/Ownable.sol\":1241:1248  owner() */\n      jump\t// in\n    tag_74:\n        /* \"contracts/Ownable.sol\":1241:1264  owner() == _msgSender() */\n      0xffffffffffffffffffffffffffffffffffffffff\n      and\n      eq\n        /* \"contracts/Ownable.sol\":1233:1301  require(owner() == _msgSender(), \"Ownable: caller is not the owner\") */\n      tag_75\n      jumpi\n      mload(0x40)\n      0x08c379a000000000000000000000000000000000000000000000000000000000\n      dup2\n      mstore\n      0x04\n      add\n      tag_76\n      swap1\n      tag_67\n      jump\t// in\n    tag_76:\n      mload(0x40)\n      dup1\n      swap2\n      sub\n      swap1\n      revert\n    tag_75:\n        /* \"contracts/Ownable.sol\":1725:1755  _transferOwnership(address(0)) */\n      tag_78\n        /* \"contracts/Ownable.sol\":1752:1753  0 */\n      0x00\n        /* \"contracts/Ownable.sol\":1725:1743  _transferOwnership */\n      tag_79\n        /* \"contracts/Ownable.sol\":1725:1755  _transferOwnership(address(0)) */\n      jump\t// in\n    tag_78:\n        /* \"contracts/Ownable.sol\":1661:1762  function renounceOwnership() public virtual onlyOwner {... */\n      jump\t// out\n        /* \"contracts/ViewQuiz.sol\":256:617  function getRandomQuiz(string memory _seed) public returns (Quiz memory) {... */\n    tag_38:\n        /* \"contracts/ViewQuiz.sol\":316:327  Quiz memory */\n      tag_80\n      tag_81\n      jump\t// in\n    tag_80:\n        /* \"contracts/ViewQuiz.sol\":339:361  uint storedBlockNumber */\n      0x00\n        /* \"contracts/ViewQuiz.sol\":379:380  1 */\n      0x01\n        /* \"contracts/ViewQuiz.sol\":364:376  block.number */\n      number\n        /* \"contracts/ViewQuiz.sol\":364:380  block.number + 1 */\n      tag_83\n      swap2\n      swap1\n      tag_84\n      jump\t// in\n    tag_83:\n        /* \"contracts/ViewQuiz.sol\":339:380  uint storedBlockNumber = block.number + 1 */\n      swap1\n      pop\n        /* \"contracts/ViewQuiz.sol\":390:399  uint rand */\n      0x00\n        /* \"contracts/ViewQuiz.sol\":434:439  _seed */\n      dup4\n        /* \"contracts/ViewQuiz.sol\":451:468  storedBlockNumber */\n      dup3\n        /* \"contracts/ViewQuiz.sol\":441:469  blockhash(storedBlockNumber) */\n      blockhash\n        /* \"contracts/ViewQuiz.sol\":417:470  abi.encodePacked(_seed, blockhash(storedBlockNumber)) */\n      add(0x20, mload(0x40))\n      tag_85\n      swap3\n      swap2\n      swap1\n      tag_86\n      jump\t// in\n    tag_85:\n      mload(0x40)\n      0x20\n      dup2\n      dup4\n      sub\n      sub\n      dup2\n      mstore\n      swap1\n      0x40\n      mstore\n        /* \"contracts/ViewQuiz.sol\":407:471  keccak256(abi.encodePacked(_seed, blockhash(storedBlockNumber))) */\n      dup1\n      mload\n      swap1\n      0x20\n      add\n      keccak256\n        /* \"contracts/ViewQuiz.sol\":402:472  uint(keccak256(abi.encodePacked(_seed, blockhash(storedBlockNumber)))) */\n      0x00\n      shr\n        /* \"contracts/ViewQuiz.sol\":390:472  uint rand = uint(keccak256(abi.encodePacked(_seed, blockhash(storedBlockNumber)))) */\n      swap1\n      pop\n        /* \"contracts/ViewQuiz.sol\":482:493  uint quizId */\n      0x00\n        /* \"contracts/ViewQuiz.sol\":503:510  quizzes */\n      0x01\n        /* \"contracts/ViewQuiz.sol\":503:517  quizzes.length */\n      dup1\n      sload\n      swap1\n      pop\n        /* \"contracts/ViewQuiz.sol\":496:500  rand */\n      dup3\n        /* \"contracts/ViewQuiz.sol\":496:517  rand % quizzes.length */\n      tag_87\n      swap2\n      swap1\n      tag_88\n      jump\t// in\n    tag_87:\n        /* \"contracts/ViewQuiz.sol\":482:517  uint quizId = rand % quizzes.length */\n      swap1\n      pop\n        /* \"contracts/ViewQuiz.sol\":527:543  Quiz memory quiz */\n      0x00\n        /* \"contracts/ViewQuiz.sol\":546:553  quizzes */\n      0x01\n        /* \"contracts/ViewQuiz.sol\":554:560  quizId */\n      dup3\n        /* \"contracts/ViewQuiz.sol\":546:561  quizzes[quizId] */\n      dup2\n      sload\n      dup2\n      lt\n      tag_89\n      jumpi\n      tag_90\n      tag_91\n      jump\t// in\n    tag_90:\n    tag_89:\n      swap1\n      0x00\n      mstore\n      keccak256(0x00, 0x20)\n      swap1\n      0x07\n      mul\n      add\n        /* \"contracts/ViewQuiz.sol\":527:561  Quiz memory quiz = quizzes[quizId] */\n      mload(0x40)\n      dup1\n      0xe0\n      add\n      0x40\n      mstore\n      swap1\n      dup2\n      0x00\n      dup3\n      add\n      dup1\n      sload\n      tag_93\n      swap1\n      tag_94\n      jump\t// in\n    tag_93:\n      dup1\n      0x1f\n      add\n      0x20\n      dup1\n      swap2\n      div\n      mul\n      0x20\n      add\n      mload(0x40)\n      swap1\n      dup2\n      add\n      0x40\n      mstore\n      dup1\n      swap3\n      swap2\n      swap1\n      dup2\n      dup2\n      mstore\n      0x20\n      add\n      dup3\n      dup1\n      sload\n      tag_95\n      swap1\n      tag_94\n      jump\t// in\n    tag_95:\n      dup1\n      iszero\n      tag_96\n      jumpi\n      dup1\n      0x1f\n      lt\n      tag_97\n      jumpi\n      0x0100\n      dup1\n      dup4\n      sload\n      div\n      mul\n      dup4\n      mstore\n      swap2\n      0x20\n      add\n      swap2\n      jump(tag_96)\n    tag_97:\n      dup3\n      add\n      swap2\n      swap1\n      0x00\n      mstore\n      keccak256(0x00, 0x20)\n      swap1\n    tag_98:\n      dup2\n      sload\n      dup2\n      mstore\n      swap1\n      0x01\n      add\n      swap1\n      0x20\n      add\n      dup1\n      dup4\n      gt\n      tag_98\n      jumpi\n      dup3\n      swap1\n      sub\n      0x1f\n      and\n      dup3\n      add\n      swap2\n    tag_96:\n      pop\n      pop\n      pop\n      pop\n      pop\n      dup2\n      mstore\n      0x20\n      add\n      0x01\n      dup3\n      add\n      dup1\n      sload\n      tag_99\n      swap1\n      tag_94\n      jump\t// in\n    tag_99:\n      dup1\n      0x1f\n      add\n      0x20\n      dup1\n      swap2\n      div\n      mul\n      0x20\n      add\n      mload(0x40)\n      swap1\n      dup2\n      add\n      0x40\n      mstore\n      dup1\n      swap3\n      swap2\n      swap1\n      dup2\n      dup2\n      mstore\n      0x20\n      add\n      dup3\n      dup1\n      sload\n      tag_100\n      swap1\n      tag_94\n      jump\t// in\n    tag_100:\n      dup1\n      iszero\n      tag_101\n      jumpi\n      dup1\n      0x1f\n      lt\n      tag_102\n      jumpi\n      0x0100\n      dup1\n      dup4\n      sload\n      div\n      mul\n      dup4\n      mstore\n      swap2\n      0x20\n      add\n      swap2\n      jump(tag_101)\n    tag_102:\n      dup3\n      add\n      swap2\n      swap1\n      0x00\n      mstore\n      keccak256(0x00, 0x20)\n      swap1\n    tag_103:\n      dup2\n      sload\n      dup2\n      mstore\n      swap1\n      0x01\n      add\n      swap1\n      0x20\n      add\n      dup1\n      dup4\n      gt\n      tag_103\n      jumpi\n      dup3\n      swap1\n      sub\n      0x1f\n      and\n      dup3\n      add\n      swap2\n    tag_101:\n      pop\n      pop\n      pop\n      pop\n      pop\n      dup2\n      mstore\n      0x20\n      add\n      0x02\n      dup3\n      add\n      dup1\n      sload\n      tag_104\n      swap1\n      tag_94\n      jump\t// in\n    tag_104:\n      dup1\n      0x1f\n      add\n      0x20\n      dup1\n      swap2\n      div\n      mul\n      0x20\n      add\n      mload(0x40)\n      swap1\n      dup2\n      add\n      0x40\n      mstore\n      dup1\n      swap3\n      swap2\n      swap1\n      dup2\n      dup2\n      mstore\n      0x20\n      add\n      dup3\n      dup1\n      sload\n      tag_105\n      swap1\n      tag_94\n      jump\t// in\n    tag_105:\n      dup1\n      iszero\n      tag_106\n      jumpi\n      dup1\n      0x1f\n      lt\n      tag_107\n      jumpi\n      0x0100\n      dup1\n      dup4\n      sload\n      div\n      mul\n      dup4\n      mstore\n      swap2\n      0x20\n      add\n      swap2\n      jump(tag_106)\n    tag_107:\n      dup3\n      add\n      swap2\n      swap1\n      0x00\n      mstore\n      keccak256(0x00, 0x20)\n      swap1\n    tag_108:\n      dup2\n      sload\n      dup2\n      mstore\n      swap1\n      0x01\n      add\n      swap1\n      0x20\n      add\n      dup1\n      dup4\n      gt\n      tag_108\n      jumpi\n      dup3\n      swap1\n      sub\n      0x1f\n      and\n      dup3\n      add\n      swap2\n    tag_106:\n      pop\n      pop\n      pop\n      pop\n      pop\n      dup2\n      mstore\n      0x20\n      add\n      0x03\n      dup3\n      add\n      dup1\n      sload\n      tag_109\n      swap1\n      tag_94\n      jump\t// in\n    tag_109:\n      dup1\n      0x1f\n      add\n      0x20\n      dup1\n      swap2\n      div\n      mul\n      0x20\n      add\n      mload(0x40)\n      swap1\n      dup2\n      add\n      0x40\n      mstore\n      dup1\n      swap3\n      swap2\n      swap1\n      dup2\n      dup2\n      mstore\n      0x20\n      add\n      dup3\n      dup1\n      sload\n      tag_110\n      swap1\n      tag_94\n      jump\t// in\n    tag_110:\n      dup1\n      iszero\n      tag_111\n      jumpi\n      dup1\n      0x1f\n      lt\n      tag_112\n      jumpi\n      0x0100\n      dup1\n      dup4\n      sload\n      div\n      mul\n      dup4\n      mstore\n      swap2\n      0x20\n      add\n      swap2\n      jump(tag_111)\n    tag_112:\n      dup3\n      add\n      swap2\n      swap1\n      0x00\n      mstore\n      keccak256(0x00, 0x20)\n      swap1\n    tag_113:\n      dup2\n      sload\n      dup2\n      mstore\n      swap1\n      0x01\n      add\n      swap1\n      0x20\n      add\n      dup1\n      dup4\n      gt\n      tag_113\n      jumpi\n      dup3\n      swap1\n      sub\n      0x1f\n      and\n      dup3\n      add\n      swap2\n    tag_111:\n      pop\n      pop\n      pop\n      pop\n      pop\n      dup2\n      mstore\n      0x20\n      add\n      0x04\n      dup3\n      add\n      dup1\n      sload\n      tag_114\n      swap1\n      tag_94\n      jump\t// in\n    tag_114:\n      dup1\n      0x1f\n      add\n      0x20\n      dup1\n      swap2\n      div\n      mul\n      0x20\n      add\n      mload(0x40)\n      swap1\n      dup2\n      add\n      0x40\n      mstore\n      dup1\n      swap3\n      swap2\n      swap1\n      dup2\n      dup2\n      mstore\n      0x20\n      add\n      dup3\n      dup1\n      sload\n      tag_115\n      swap1\n      tag_94\n      jump\t// in\n    tag_115:\n      dup1\n      iszero\n      tag_116\n      jumpi\n      dup1\n      0x1f\n      lt\n      tag_117\n      jumpi\n      0x0100\n      dup1\n      dup4\n      sload\n      div\n      mul\n      dup4\n      mstore\n      swap2\n      0x20\n      add\n      swap2\n      jump(tag_116)\n    tag_117:\n      dup3\n      add\n      swap2\n      swap1\n      0x00\n      mstore\n      keccak256(0x00, 0x20)\n      swap1\n    tag_118:\n      dup2\n      sload\n      dup2\n      mstore\n      swap1\n      0x01\n      add\n      swap1\n      0x20\n      add\n      dup1\n      dup4\n      gt\n      tag_118\n      jumpi\n      dup3\n      swap1\n      sub\n      0x1f\n      and\n      dup3\n      add\n      swap2\n    tag_116:\n      pop\n      pop\n      pop\n      pop\n      pop\n      dup2\n      mstore\n      0x20\n      add\n      0x05\n      dup3\n      add\n      dup1\n      sload\n      tag_119\n      swap1\n      tag_94\n      jump\t// in\n    tag_119:\n      dup1\n      0x1f\n      add\n      0x20\n      dup1\n      swap2\n      div\n      mul\n      0x20\n      add\n      mload(0x40)\n      swap1\n      dup2\n      add\n      0x40\n      mstore\n      dup1\n      swap3\n      swap2\n      swap1\n      dup2\n      dup2\n      mstore\n      0x20\n      add\n      dup3\n      dup1\n      sload\n      tag_120\n      swap1\n      tag_94\n      jump\t// in\n    tag_120:\n      dup1\n      iszero\n      tag_121\n      jumpi\n      dup1\n      0x1f\n      lt\n      tag_122\n      jumpi\n      0x0100\n      dup1\n      dup4\n      sload\n      div\n      mul\n      dup4\n      mstore\n      swap2\n      0x20\n      add\n      swap2\n      jump(tag_121)\n    tag_122:\n      dup3\n      add\n      swap2\n      swap1\n      0x00\n      mstore\n      keccak256(0x00, 0x20)\n      swap1\n    tag_123:\n      dup2\n      sload\n      dup2\n      mstore\n      swap1\n      0x01\n      add\n      swap1\n      0x20\n      add\n      dup1\n      dup4\n      gt\n      tag_123\n      jumpi\n      dup3\n      swap1\n      sub\n      0x1f\n      and\n      dup3\n      add\n      swap2\n    tag_121:\n      pop\n      pop\n      pop\n      pop\n      pop\n      dup2\n      mstore\n      0x20\n      add\n      0x06\n      dup3\n      add\n      0x00\n      swap1\n      sload\n      swap1\n      0x0100\n      exp\n      swap1\n      div\n      0xff\n      and\n      0xff\n      and\n      0xff\n      and\n      dup2\n      mstore\n      pop\n      pop\n      swap1\n      pop\n        /* \"contracts/ViewQuiz.sol\":576:589  GetQuiz(quiz) */\n      0x9e761ccdbc51177b48b7089874745300bb2c5f97582f257ca78eca6f245e4d57\n        /* \"contracts/ViewQuiz.sol\":584:588  quiz */\n      dup2\n        /* \"contracts/ViewQuiz.sol\":576:589  GetQuiz(quiz) */\n      mload(0x40)\n      tag_124\n      swap2\n      swap1\n      tag_40\n      jump\t// in\n    tag_124:\n      mload(0x40)\n      dup1\n      swap2\n      sub\n      swap1\n      log1\n        /* \"contracts/ViewQuiz.sol\":606:610  quiz */\n      dup1\n        /* \"contracts/ViewQuiz.sol\":599:610  return quiz */\n      swap5\n      pop\n      pop\n      pop\n      pop\n      pop\n        /* \"contracts/ViewQuiz.sol\":256:617  function getRandomQuiz(string memory _seed) public returns (Quiz memory) {... */\n      swap2\n      swap1\n      pop\n      jump\t// out\n        /* \"contracts/Ownable.sol\":1029:1114  function owner() public view virtual returns (address) {... */\n    tag_42:\n        /* \"contracts/Ownable.sol\":1075:1082  address */\n      0x00\n        /* \"contracts/Ownable.sol\":1101:1107  _owner */\n      dup1\n      0x00\n      swap1\n      sload\n      swap1\n      0x0100\n      exp\n      swap1\n      div\n      0xffffffffffffffffffffffffffffffffffffffff\n      and\n        /* \"contracts/Ownable.sol\":1094:1107  return _owner */\n      swap1\n      pop\n        /* \"contracts/Ownable.sol\":1029:1114  function owner() public view virtual returns (address) {... */\n      swap1\n      jump\t// out\n        /* \"contracts/AnswerQuiz.sol\":134:339  function answerQuiz(uint _quizId, uint8 _answer) public view {... */\n    tag_47:\n        /* \"contracts/AnswerQuiz.sol\":220:230  quizAnswer */\n      0x03\n        /* \"contracts/AnswerQuiz.sol\":220:239  quizAnswer[_quizId] */\n      0x00\n        /* \"contracts/AnswerQuiz.sol\":231:238  _quizId */\n      dup4\n        /* \"contracts/AnswerQuiz.sol\":220:239  quizAnswer[_quizId] */\n      dup2\n      mstore\n      0x20\n      add\n      swap1\n      dup2\n      mstore\n      0x20\n      add\n      0x00\n      keccak256\n      0x00\n      swap1\n      sload\n      swap1\n      0x0100\n      exp\n      swap1\n      pop\n      pop\n        /* \"contracts/AnswerQuiz.sol\":134:339  function answerQuiz(uint _quizId, uint8 _answer) public view {... */\n      pop\n      pop\n      jump\t// out\n        /* \"contracts/ViewQuiz.sol\":880:1112  function quizOwnerGetQuiz(uint _quizId) public onlyQuizOwner(_quizId) returns (Quiz memory, uint8) {... */\n    tag_50:\n        /* \"contracts/ViewQuiz.sol\":959:970  Quiz memory */\n      tag_129\n      tag_81\n      jump\t// in\n    tag_129:\n        /* \"contracts/ViewQuiz.sol\":972:977  uint8 */\n      0x00\n        /* \"contracts/ViewQuiz.sol\":941:948  _quizId */\n      dup3\n        /* \"contracts/CreateQuiz.sol\":628:638  msg.sender */\n      caller\n        /* \"contracts/CreateQuiz.sol\":606:638  quizOwner[_quizId] == msg.sender */\n      0xffffffffffffffffffffffffffffffffffffffff\n      and\n        /* \"contracts/CreateQuiz.sol\":606:615  quizOwner */\n      0x04\n        /* \"contracts/CreateQuiz.sol\":606:624  quizOwner[_quizId] */\n      0x00\n        /* \"contracts/CreateQuiz.sol\":616:623  _quizId */\n      dup4\n        /* \"contracts/CreateQuiz.sol\":606:624  quizOwner[_quizId] */\n      dup2\n      mstore\n      0x20\n      add\n      swap1\n      dup2\n      mstore\n      0x20\n      add\n      0x00\n      keccak256\n      0x00\n      swap1\n      sload\n      swap1\n      0x0100\n      exp\n      swap1\n      div\n      0xffffffffffffffffffffffffffffffffffffffff\n      and\n        /* \"contracts/CreateQuiz.sol\":606:638  quizOwner[_quizId] == msg.sender */\n      0xffffffffffffffffffffffffffffffffffffffff\n      and\n      eq\n        /* \"contracts/CreateQuiz.sol\":598:639  require(quizOwner[_quizId] == msg.sender) */\n      tag_131\n      jumpi\n      0x00\n      dup1\n      revert\n    tag_131:\n        /* \"contracts/ViewQuiz.sol\":994:1049  QuizOwnerGetQuiz(quizzes[_quizId], quizAnswer[_quizId]) */\n      0xfa122ac12f9fab92c2a3bcf05c23b0449c2426fc1425be35ee098a206f91621e\n        /* \"contracts/ViewQuiz.sol\":1011:1018  quizzes */\n      0x01\n        /* \"contracts/ViewQuiz.sol\":1019:1026  _quizId */\n      dup6\n        /* \"contracts/ViewQuiz.sol\":1011:1027  quizzes[_quizId] */\n      dup2\n      sload\n      dup2\n      lt\n      tag_133\n      jumpi\n      tag_134\n      tag_91\n      jump\t// in\n    tag_134:\n    tag_133:\n      swap1\n      0x00\n      mstore\n      keccak256(0x00, 0x20)\n      swap1\n      0x07\n      mul\n      add\n        /* \"contracts/ViewQuiz.sol\":1029:1039  quizAnswer */\n      0x03\n        /* \"contracts/ViewQuiz.sol\":1029:1048  quizAnswer[_quizId] */\n      0x00\n        /* \"contracts/ViewQuiz.sol\":1040:1047  _quizId */\n      dup8\n        /* \"contracts/ViewQuiz.sol\":1029:1048  quizAnswer[_quizId] */\n      dup2\n      mstore\n      0x20\n      add\n      swap1\n      dup2\n      mstore\n      0x20\n      add\n      0x00\n      keccak256\n      0x00\n      swap1\n      sload\n      swap1\n      0x0100\n      exp\n      swap1\n      div\n      0xff\n      and\n        /* \"contracts/ViewQuiz.sol\":994:1049  QuizOwnerGetQuiz(quizzes[_quizId], quizAnswer[_quizId]) */\n      mload(0x40)\n      tag_136\n      swap3\n      swap2\n      swap1\n      tag_137\n      jump\t// in\n    tag_136:\n      mload(0x40)\n      dup1\n      swap2\n      sub\n      swap1\n      log1\n        /* \"contracts/ViewQuiz.sol\":1067:1074  quizzes */\n      0x01\n        /* \"contracts/ViewQuiz.sol\":1075:1082  _quizId */\n      dup5\n        /* \"contracts/ViewQuiz.sol\":1067:1083  quizzes[_quizId] */\n      dup2\n      sload\n      dup2\n      lt\n      tag_138\n      jumpi\n      tag_139\n      tag_91\n      jump\t// in\n    tag_139:\n    tag_138:\n      swap1\n      0x00\n      mstore\n      keccak256(0x00, 0x20)\n      swap1\n      0x07\n      mul\n      add\n        /* \"contracts/ViewQuiz.sol\":1085:1095  quizAnswer */\n      0x03\n        /* \"contracts/ViewQuiz.sol\":1085:1104  quizAnswer[_quizId] */\n      0x00\n        /* \"contracts/ViewQuiz.sol\":1096:1103  _quizId */\n      dup7\n        /* \"contracts/ViewQuiz.sol\":1085:1104  quizAnswer[_quizId] */\n      dup2\n      mstore\n      0x20\n      add\n      swap1\n      dup2\n      mstore\n      0x20\n      add\n      0x00\n      keccak256\n      0x00\n      swap1\n      sload\n      swap1\n      0x0100\n      exp\n      swap1\n      div\n      0xff\n      and\n        /* \"contracts/ViewQuiz.sol\":1059:1105  return (quizzes[_quizId], quizAnswer[_quizId]) */\n      dup2\n      mload(0x40)\n      dup1\n      0xe0\n      add\n      0x40\n      mstore\n      swap1\n      dup2\n      0x00\n      dup3\n      add\n      dup1\n      sload\n      tag_141\n      swap1\n      tag_94\n      jump\t// in\n    tag_141:\n      dup1\n      0x1f\n      add\n      0x20\n      dup1\n      swap2\n      div\n      mul\n      0x20\n      add\n      mload(0x40)\n      swap1\n      dup2\n      add\n      0x40\n      mstore\n      dup1\n      swap3\n      swap2\n      swap1\n      dup2\n      dup2\n      mstore\n      0x20\n      add\n      dup3\n      dup1\n      sload\n      tag_142\n      swap1\n      tag_94\n      jump\t// in\n    tag_142:\n      dup1\n      iszero\n      tag_143\n      jumpi\n      dup1\n      0x1f\n      lt\n      tag_144\n      jumpi\n      0x0100\n      dup1\n      dup4\n      sload\n      div\n      mul\n      dup4\n      mstore\n      swap2\n      0x20\n      add\n      swap2\n      jump(tag_143)\n    tag_144:\n      dup3\n      add\n      swap2\n      swap1\n      0x00\n      mstore\n      keccak256(0x00, 0x20)\n      swap1\n    tag_145:\n      dup2\n      sload\n      dup2\n      mstore\n      swap1\n      0x01\n      add\n      swap1\n      0x20\n      add\n      dup1\n      dup4\n      gt\n      tag_145\n      jumpi\n      dup3\n      swap1\n      sub\n      0x1f\n      and\n      dup3\n      add\n      swap2\n    tag_143:\n      pop\n      pop\n      pop\n      pop\n      pop\n      dup2\n      mstore\n      0x20\n      add\n      0x01\n      dup3\n      add\n      dup1\n      sload\n      tag_146\n      swap1\n      tag_94\n      jump\t// in\n    tag_146:\n      dup1\n      0x1f\n      add\n      0x20\n      dup1\n      swap2\n      div\n      mul\n      0x20\n      add\n      mload(0x40)\n      swap1\n      dup2\n      add\n      0x40\n      mstore\n      dup1\n      swap3\n      swap2\n      swap1\n      dup2\n      dup2\n      mstore\n      0x20\n      add\n      dup3\n      dup1\n      sload\n      tag_147\n      swap1\n      tag_94\n      jump\t// in\n    tag_147:\n      dup1\n      iszero\n      tag_148\n      jumpi\n      dup1\n      0x1f\n      lt\n      tag_149\n      jumpi\n      0x0100\n      dup1\n      dup4\n      sload\n      div\n      mul\n      dup4\n      mstore\n      swap2\n      0x20\n      add\n      swap2\n      jump(tag_148)\n    tag_149:\n      dup3\n      add\n      swap2\n      swap1\n      0x00\n      mstore\n      keccak256(0x00, 0x20)\n      swap1\n    tag_150:\n      dup2\n      sload\n      dup2\n      mstore\n      swap1\n      0x01\n      add\n      swap1\n      0x20\n      add\n      dup1\n      dup4\n      gt\n      tag_150\n      jumpi\n      dup3\n      swap1\n      sub\n      0x1f\n      and\n      dup3\n      add\n      swap2\n    tag_148:\n      pop\n      pop\n      pop\n      pop\n      pop\n      dup2\n      mstore\n      0x20\n      add\n      0x02\n      dup3\n      add\n      dup1\n      sload\n      tag_151\n      swap1\n      tag_94\n      jump\t// in\n    tag_151:\n      dup1\n      0x1f\n      add\n      0x20\n      dup1\n      swap2\n      div\n      mul\n      0x20\n      add\n      mload(0x40)\n      swap1\n      dup2\n      add\n      0x40\n      mstore\n      dup1\n      swap3\n      swap2\n      swap1\n      dup2\n      dup2\n      mstore\n      0x20\n      add\n      dup3\n      dup1\n      sload\n      tag_152\n      swap1\n      tag_94\n      jump\t// in\n    tag_152:\n      dup1\n      iszero\n      tag_153\n      jumpi\n      dup1\n      0x1f\n      lt\n      tag_154\n      jumpi\n      0x0100\n      dup1\n      dup4\n      sload\n      div\n      mul\n      dup4\n      mstore\n      swap2\n      0x20\n      add\n      swap2\n      jump(tag_153)\n    tag_154:\n      dup3\n      add\n      swap2\n      swap1\n      0x00\n      mstore\n      keccak256(0x00, 0x20)\n      swap1\n    tag_155:\n      dup2\n      sload\n      dup2\n      mstore\n      swap1\n      0x01\n      add\n      swap1\n      0x20\n      add\n      dup1\n      dup4\n      gt\n      tag_155\n      jumpi\n      dup3\n      swap1\n      sub\n      0x1f\n      and\n      dup3\n      add\n      swap2\n    tag_153:\n      pop\n      pop\n      pop\n      pop\n      pop\n      dup2\n      mstore\n      0x20\n      add\n      0x03\n      dup3\n      add\n      dup1\n      sload\n      tag_156\n      swap1\n      tag_94\n      jump\t// in\n    tag_156:\n      dup1\n      0x1f\n      add\n      0x20\n      dup1\n      swap2\n      div\n      mul\n      0x20\n      add\n      mload(0x40)\n      swap1\n      dup2\n      add\n      0x40\n      mstore\n      dup1\n      swap3\n      swap2\n      swap1\n      dup2\n      dup2\n      mstore\n      0x20\n      add\n      dup3\n      dup1\n      sload\n      tag_157\n      swap1\n      tag_94\n      jump\t// in\n    tag_157:\n      dup1\n      iszero\n      tag_158\n      jumpi\n      dup1\n      0x1f\n      lt\n      tag_159\n      jumpi\n      0x0100\n      dup1\n      dup4\n      sload\n      div\n      mul\n      dup4\n      mstore\n      swap2\n      0x20\n      add\n      swap2\n      jump(tag_158)\n    tag_159:\n      dup3\n      add\n      swap2\n      swap1\n      0x00\n      mstore\n      keccak256(0x00, 0x20)\n      swap1\n    tag_160:\n      dup2\n      sload\n      dup2\n      mstore\n      swap1\n      0x01\n      add\n      swap1\n      0x20\n      add\n      dup1\n      dup4\n      gt\n      tag_160\n      jumpi\n      dup3\n      swap1\n      sub\n      0x1f\n      and\n      dup3\n      add\n      swap2\n    tag_158:\n      pop\n      pop\n      pop\n      pop\n      pop\n      dup2\n      mstore\n      0x20\n      add\n      0x04\n      dup3\n      add\n      dup1\n      sload\n      tag_161\n      swap1\n      tag_94\n      jump\t// in\n    tag_161:\n      dup1\n      0x1f\n      add\n      0x20\n      dup1\n      swap2\n      div\n      mul\n      0x20\n      add\n      mload(0x40)\n      swap1\n      dup2\n      add\n      0x40\n      mstore\n      dup1\n      swap3\n      swap2\n      swap1\n      dup2\n      dup2\n      mstore\n      0x20\n      add\n      dup3\n      dup1\n      sload\n      tag_162\n      swap1\n      tag_94\n      jump\t// in\n    tag_162:\n      dup1\n      iszero\n      tag_163\n      jumpi\n      dup1\n      0x1f\n      lt\n      tag_164\n      jumpi\n      0x0100\n      dup1\n      dup4\n      sload\n      div\n      mul\n      dup4\n      mstore\n      swap2\n      0x20\n      add\n      swap2\n      jump(tag_163)\n    tag_164:\n      dup3\n      add\n      swap2\n      swap1\n      0x00\n      mstore\n      keccak256(0x00, 0x20)\n      swap1\n    tag_165:\n      dup2\n      sload\n      dup2\n      mstore\n      swap1\n      0x01\n      add\n      swap1\n      0x20\n      add\n      dup1\n      dup4\n      gt\n      tag_165\n      jumpi\n      dup3\n      swap1\n      sub\n      0x1f\n      and\n      dup3\n      add\n      swap2\n    tag_163:\n      pop\n      pop\n      pop\n      pop\n      pop\n      dup2\n      mstore\n      0x20\n      add\n      0x05\n      dup3\n      add\n      dup1\n      sload\n      tag_166\n      swap1\n      tag_94\n      jump\t// in\n    tag_166:\n      dup1\n      0x1f\n      add\n      0x20\n      dup1\n      swap2\n      div\n      mul\n      0x20\n      add\n      mload(0x40)\n      swap1\n      dup2\n      add\n      0x40\n      mstore\n      dup1\n      swap3\n      swap2\n      swap1\n      dup2\n      dup2\n      mstore\n      0x20\n      add\n      dup3\n      dup1\n      sload\n      tag_167\n      swap1\n      tag_94\n      jump\t// in\n    tag_167:\n      dup1\n      iszero\n      tag_168\n      jumpi\n      dup1\n      0x1f\n      lt\n      tag_169\n      jumpi\n      0x0100\n      dup1\n      dup4\n      sload\n      div\n      mul\n      dup4\n      mstore\n      swap2\n      0x20\n      add\n      swap2\n      jump(tag_168)\n    tag_169:\n      dup3\n      add\n      swap2\n      swap1\n      0x00\n      mstore\n      keccak256(0x00, 0x20)\n      swap1\n    tag_170:\n      dup2\n      sload\n      dup2\n      mstore\n      swap1\n      0x01\n      add\n      swap1\n      0x20\n      add\n      dup1\n      dup4\n      gt\n      tag_170\n      jumpi\n      dup3\n      swap1\n      sub\n      0x1f\n      and\n      dup3\n      add\n      swap2\n    tag_168:\n      pop\n      pop\n      pop\n      pop\n      pop\n      dup2\n      mstore\n      0x20\n      add\n      0x06\n      dup3\n      add\n      0x00\n      swap1\n      sload\n      swap1\n      0x0100\n      exp\n      swap1\n      div\n      0xff\n      and\n      0xff\n      and\n      0xff\n      and\n      dup2\n      mstore\n      pop\n      pop\n      swap2\n      pop\n      swap3\n      pop\n      swap3\n      pop\n        /* \"contracts/ViewQuiz.sol\":880:1112  function quizOwnerGetQuiz(uint _quizId) public onlyQuizOwner(_quizId) returns (Quiz memory, uint8) {... */\n      pop\n      swap2\n      pop\n      swap2\n      jump\t// out\n        /* \"contracts/Ownable.sol\":1911:2109  function transferOwnership(address newOwner) public virtual onlyOwner {... */\n    tag_56:\n        /* \"contracts/Ownable.sol\":1252:1264  _msgSender() */\n      tag_172\n        /* \"contracts/Ownable.sol\":1252:1262  _msgSender */\n      tag_63\n        /* \"contracts/Ownable.sol\":1252:1264  _msgSender() */\n      jump\t// in\n    tag_172:\n        /* \"contracts/Ownable.sol\":1241:1264  owner() == _msgSender() */\n      0xffffffffffffffffffffffffffffffffffffffff\n      and\n        /* \"contracts/Ownable.sol\":1241:1248  owner() */\n      tag_173\n        /* \"contracts/Ownable.sol\":1241:1246  owner */\n      tag_42\n        /* \"contracts/Ownable.sol\":1241:1248  owner() */\n      jump\t// in\n    tag_173:\n        /* \"contracts/Ownable.sol\":1241:1264  owner() == _msgSender() */\n      0xffffffffffffffffffffffffffffffffffffffff\n      and\n      eq\n        /* \"contracts/Ownable.sol\":1233:1301  require(owner() == _msgSender(), \"Ownable: caller is not the owner\") */\n      tag_174\n      jumpi\n      mload(0x40)\n      0x08c379a000000000000000000000000000000000000000000000000000000000\n      dup2\n      mstore\n      0x04\n      add\n      tag_175\n      swap1\n      tag_67\n      jump\t// in\n    tag_175:\n      mload(0x40)\n      dup1\n      swap2\n      sub\n      swap1\n      revert\n    tag_174:\n        /* \"contracts/Ownable.sol\":2019:2020  0 */\n      0x00\n        /* \"contracts/Ownable.sol\":1999:2021  newOwner != address(0) */\n      0xffffffffffffffffffffffffffffffffffffffff\n      and\n        /* \"contracts/Ownable.sol\":1999:2007  newOwner */\n      dup2\n        /* \"contracts/Ownable.sol\":1999:2021  newOwner != address(0) */\n      0xffffffffffffffffffffffffffffffffffffffff\n      and\n      sub\n        /* \"contracts/Ownable.sol\":1991:2064  require(newOwner != address(0), \"Ownable: new owner is the zero address\") */\n      tag_177\n      jumpi\n      mload(0x40)\n      0x08c379a000000000000000000000000000000000000000000000000000000000\n      dup2\n      mstore\n      0x04\n      add\n      tag_178\n      swap1\n      tag_179\n      jump\t// in\n    tag_178:\n      mload(0x40)\n      dup1\n      swap2\n      sub\n      swap1\n      revert\n    tag_177:\n        /* \"contracts/Ownable.sol\":2074:2102  _transferOwnership(newOwner) */\n      tag_180\n        /* \"contracts/Ownable.sol\":2093:2101  newOwner */\n      dup2\n        /* \"contracts/Ownable.sol\":2074:2092  _transferOwnership */\n      tag_79\n        /* \"contracts/Ownable.sol\":2074:2102  _transferOwnership(newOwner) */\n      jump\t// in\n    tag_180:\n        /* \"contracts/Ownable.sol\":1911:2109  function transferOwnership(address newOwner) public virtual onlyOwner {... */\n      pop\n      jump\t// out\n        /* \"contracts/CreateQuiz.sol\":1632:1772  function quizOwnerChangeHint(uint _quizId, string memory _hint) public onlyQuizOwner(_quizId) {... */\n    tag_60:\n        /* \"contracts/CreateQuiz.sol\":1717:1724  _quizId */\n      dup2\n        /* \"contracts/CreateQuiz.sol\":628:638  msg.sender */\n      caller\n        /* \"contracts/CreateQuiz.sol\":606:638  quizOwner[_quizId] == msg.sender */\n      0xffffffffffffffffffffffffffffffffffffffff\n      and\n        /* \"contracts/CreateQuiz.sol\":606:615  quizOwner */\n      0x04\n        /* \"contracts/CreateQuiz.sol\":606:624  quizOwner[_quizId] */\n      0x00\n        /* \"contracts/CreateQuiz.sol\":616:623  _quizId */\n      dup4\n        /* \"contracts/CreateQuiz.sol\":606:624  quizOwner[_quizId] */\n      dup2\n      mstore\n      0x20\n      add\n      swap1\n      dup2\n      mstore\n      0x20\n      add\n      0x00\n      keccak256\n      0x00\n      swap1\n      sload\n      swap1\n      0x0100\n      exp\n      swap1\n      div\n      0xffffffffffffffffffffffffffffffffffffffff\n      and\n        /* \"contracts/CreateQuiz.sol\":606:638  quizOwner[_quizId] == msg.sender */\n      0xffffffffffffffffffffffffffffffffffffffff\n      and\n      eq\n        /* \"contracts/CreateQuiz.sol\":598:639  require(quizOwner[_quizId] == msg.sender) */\n      tag_182\n      jumpi\n      0x00\n      dup1\n      revert\n    tag_182:\n        /* \"contracts/CreateQuiz.sol\":1760:1765  _hint */\n      dup2\n        /* \"contracts/CreateQuiz.sol\":1736:1743  quizzes */\n      0x01\n        /* \"contracts/CreateQuiz.sol\":1744:1751  _quizId */\n      dup5\n        /* \"contracts/CreateQuiz.sol\":1736:1752  quizzes[_quizId] */\n      dup2\n      sload\n      dup2\n      lt\n      tag_184\n      jumpi\n      tag_185\n      tag_91\n      jump\t// in\n    tag_185:\n    tag_184:\n      swap1\n      0x00\n      mstore\n      keccak256(0x00, 0x20)\n      swap1\n      0x07\n      mul\n      add\n        /* \"contracts/CreateQuiz.sol\":1736:1757  quizzes[_quizId].hint */\n      0x05\n      add\n        /* \"contracts/CreateQuiz.sol\":1736:1765  quizzes[_quizId].hint = _hint */\n      swap1\n      dup1\n      mload\n      swap1\n      0x20\n      add\n      swap1\n      tag_187\n      swap3\n      swap2\n      swap1\n      tag_188\n      jump\t// in\n    tag_187:\n      pop\n        /* \"contracts/CreateQuiz.sol\":1632:1772  function quizOwnerChangeHint(uint _quizId, string memory _hint) public onlyQuizOwner(_quizId) {... */\n      pop\n      pop\n      pop\n      jump\t// out\n        /* \"contracts/Context.sol\":640:736  function _msgSender() internal view virtual returns (address) {... */\n    tag_63:\n        /* \"contracts/Context.sol\":693:700  address */\n      0x00\n        /* \"contracts/Context.sol\":719:729  msg.sender */\n      caller\n        /* \"contracts/Context.sol\":712:729  return msg.sender */\n      swap1\n      pop\n        /* \"contracts/Context.sol\":640:736  function _msgSender() internal view virtual returns (address) {... */\n      swap1\n      jump\t// out\n        /* \"contracts/Ownable.sol\":2263:2450  function _transferOwnership(address newOwner) internal virtual {... */\n    tag_79:\n        /* \"contracts/Ownable.sol\":2336:2352  address oldOwner */\n      0x00\n        /* \"contracts/Ownable.sol\":2355:2361  _owner */\n      dup1\n      0x00\n      swap1\n      sload\n      swap1\n      0x0100\n      exp\n      swap1\n      div\n      0xffffffffffffffffffffffffffffffffffffffff\n      and\n        /* \"contracts/Ownable.sol\":2336:2361  address oldOwner = _owner */\n      swap1\n      pop\n        /* \"contracts/Ownable.sol\":2380:2388  newOwner */\n      dup2\n        /* \"contracts/Ownable.sol\":2371:2377  _owner */\n      0x00\n      dup1\n        /* \"contracts/Ownable.sol\":2371:2388  _owner = newOwner */\n      0x0100\n      exp\n      dup2\n      sload\n      dup2\n      0xffffffffffffffffffffffffffffffffffffffff\n      mul\n      not\n      and\n      swap1\n      dup4\n      0xffffffffffffffffffffffffffffffffffffffff\n      and\n      mul\n      or\n      swap1\n      sstore\n      pop\n        /* \"contracts/Ownable.sol\":2434:2442  newOwner */\n      dup2\n        /* \"contracts/Ownable.sol\":2403:2443  OwnershipTransferred(oldOwner, newOwner) */\n      0xffffffffffffffffffffffffffffffffffffffff\n      and\n        /* \"contracts/Ownable.sol\":2424:2432  oldOwner */\n      dup2\n        /* \"contracts/Ownable.sol\":2403:2443  OwnershipTransferred(oldOwner, newOwner) */\n      0xffffffffffffffffffffffffffffffffffffffff\n      and\n      0x8be0079c531659141344cd1fd0a4f28419497f9722a3daafe3b4186f6b6457e0\n      mload(0x40)\n      mload(0x40)\n      dup1\n      swap2\n      sub\n      swap1\n      log3\n        /* \"contracts/Ownable.sol\":2326:2450  {... */\n      pop\n        /* \"contracts/Ownable.sol\":2263:2450  function _transferOwnership(address newOwner) internal virtual {... */\n      pop\n      jump\t// out\n    tag_81:\n      mload(0x40)\n      dup1\n      0xe0\n      add\n      0x40\n      mstore\n      dup1\n      0x60\n      dup2\n      mstore\n      0x20\n      add\n      0x60\n      dup2\n      mstore\n      0x20\n      add\n      0x60\n      dup2\n      mstore\n      0x20\n      add\n      0x60\n      dup2\n      mstore\n      0x20\n      add\n      0x60\n      dup2\n      mstore\n      0x20\n      add\n      0x60\n      dup2\n      mstore\n      0x20\n      add\n      and(0xff, 0x00)\n      dup2\n      mstore\n      pop\n      swap1\n      jump\t// out\n    tag_188:\n      dup3\n      dup1\n      sload\n      tag_191\n      swap1\n      tag_94\n      jump\t// in\n    tag_191:\n      swap1\n      0x00\n      mstore\n      keccak256(0x00, 0x20)\n      swap1\n      0x1f\n      add\n      0x20\n      swap1\n      div\n      dup2\n      add\n      swap3\n      dup3\n      tag_193\n      jumpi\n      0x00\n      dup6\n      sstore\n      jump(tag_192)\n    tag_193:\n      dup3\n      0x1f\n      lt\n      tag_194\n      jumpi\n      dup1\n      mload\n      not(0xff)\n      and\n      dup4\n      dup1\n      add\n      or\n      dup6\n      sstore\n      jump(tag_192)\n    tag_194:\n      dup3\n      dup1\n      add\n      0x01\n      add\n      dup6\n      sstore\n      dup3\n      iszero\n      tag_192\n      jumpi\n      swap2\n      dup3\n      add\n    tag_195:\n      dup3\n      dup2\n      gt\n      iszero\n      tag_196\n      jumpi\n      dup3\n      mload\n      dup3\n      sstore\n      swap2\n      0x20\n      add\n      swap2\n      swap1\n      0x01\n      add\n      swap1\n      jump(tag_195)\n    tag_196:\n    tag_192:\n      pop\n      swap1\n      pop\n      tag_197\n      swap2\n      swap1\n      tag_198\n      jump\t// in\n    tag_197:\n      pop\n      swap1\n      jump\t// out\n    tag_198:\n    tag_199:\n      dup1\n      dup3\n      gt\n      iszero\n      tag_200\n      jumpi\n      0x00\n      dup2\n      0x00\n      swap1\n      sstore\n      pop\n      0x01\n      add\n      jump(tag_199)\n    tag_200:\n      pop\n      swap1\n      jump\t// out\n        /* \"#utility.yul\":7:82   */\n    tag_201:\n        /* \"#utility.yul\":40:46   */\n      0x00\n        /* \"#utility.yul\":73:75   */\n      0x40\n        /* \"#utility.yul\":67:76   */\n      mload\n        /* \"#utility.yul\":57:76   */\n      swap1\n      pop\n        /* \"#utility.yul\":7:82   */\n      swap1\n      jump\t// out\n        /* \"#utility.yul\":88:205   */\n    tag_202:\n        /* \"#utility.yul\":197:198   */\n      0x00\n        /* \"#utility.yul\":194:195   */\n      dup1\n        /* \"#utility.yul\":187:199   */\n      revert\n        /* \"#utility.yul\":211:328   */\n    tag_203:\n        /* \"#utility.yul\":320:321   */\n      0x00\n        /* \"#utility.yul\":317:318   */\n      dup1\n        /* \"#utility.yul\":310:322   */\n      revert\n        /* \"#utility.yul\":334:411   */\n    tag_204:\n        /* \"#utility.yul\":371:378   */\n      0x00\n        /* \"#utility.yul\":400:405   */\n      dup2\n        /* \"#utility.yul\":389:405   */\n      swap1\n      pop\n        /* \"#utility.yul\":334:411   */\n      swap2\n      swap1\n      pop\n      jump\t// out\n        /* \"#utility.yul\":417:539   */\n    tag_205:\n        /* \"#utility.yul\":490:514   */\n      tag_261\n        /* \"#utility.yul\":508:513   */\n      dup2\n        /* \"#utility.yul\":490:514   */\n      tag_204\n      jump\t// in\n    tag_261:\n        /* \"#utility.yul\":483:488   */\n      dup2\n        /* \"#utility.yul\":480:515   */\n      eq\n        /* \"#utility.yul\":470:533   */\n      tag_262\n      jumpi\n        /* \"#utility.yul\":529:530   */\n      0x00\n        /* \"#utility.yul\":526:527   */\n      dup1\n        /* \"#utility.yul\":519:531   */\n      revert\n        /* \"#utility.yul\":470:533   */\n    tag_262:\n        /* \"#utility.yul\":417:539   */\n      pop\n      jump\t// out\n        /* \"#utility.yul\":545:684   */\n    tag_206:\n        /* \"#utility.yul\":591:596   */\n      0x00\n        /* \"#utility.yul\":629:635   */\n      dup2\n        /* \"#utility.yul\":616:636   */\n      calldataload\n        /* \"#utility.yul\":607:636   */\n      swap1\n      pop\n        /* \"#utility.yul\":645:678   */\n      tag_264\n        /* \"#utility.yul\":672:677   */\n      dup2\n        /* \"#utility.yul\":645:678   */\n      tag_205\n      jump\t// in\n    tag_264:\n        /* \"#utility.yul\":545:684   */\n      swap3\n      swap2\n      pop\n      pop\n      jump\t// out\n        /* \"#utility.yul\":690:780   */\n    tag_207:\n        /* \"#utility.yul\":724:731   */\n      0x00\n        /* \"#utility.yul\":767:772   */\n      dup2\n        /* \"#utility.yul\":760:773   */\n      iszero\n        /* \"#utility.yul\":753:774   */\n      iszero\n        /* \"#utility.yul\":742:774   */\n      swap1\n      pop\n        /* \"#utility.yul\":690:780   */\n      swap2\n      swap1\n      pop\n      jump\t// out\n        /* \"#utility.yul\":786:902   */\n    tag_208:\n        /* \"#utility.yul\":856:877   */\n      tag_267\n        /* \"#utility.yul\":871:876   */\n      dup2\n        /* \"#utility.yul\":856:877   */\n      tag_207\n      jump\t// in\n    tag_267:\n        /* \"#utility.yul\":849:854   */\n      dup2\n        /* \"#utility.yul\":846:878   */\n      eq\n        /* \"#utility.yul\":836:896   */\n      tag_268\n      jumpi\n        /* \"#utility.yul\":892:893   */\n      0x00\n        /* \"#utility.yul\":889:890   */\n      dup1\n        /* \"#utility.yul\":882:894   */\n      revert\n        /* \"#utility.yul\":836:896   */\n    tag_268:\n        /* \"#utility.yul\":786:902   */\n      pop\n      jump\t// out\n        /* \"#utility.yul\":908:1041   */\n    tag_209:\n        /* \"#utility.yul\":951:956   */\n      0x00\n        /* \"#utility.yul\":989:995   */\n      dup2\n        /* \"#utility.yul\":976:996   */\n      calldataload\n        /* \"#utility.yul\":967:996   */\n      swap1\n      pop\n        /* \"#utility.yul\":1005:1035   */\n      tag_270\n        /* \"#utility.yul\":1029:1034   */\n      dup2\n        /* \"#utility.yul\":1005:1035   */\n      tag_208\n      jump\t// in\n    tag_270:\n        /* \"#utility.yul\":908:1041   */\n      swap3\n      swap2\n      pop\n      pop\n      jump\t// out\n        /* \"#utility.yul\":1047:1515   */\n    tag_17:\n        /* \"#utility.yul\":1112:1118   */\n      0x00\n        /* \"#utility.yul\":1120:1126   */\n      dup1\n        /* \"#utility.yul\":1169:1171   */\n      0x40\n        /* \"#utility.yul\":1157:1166   */\n      dup4\n        /* \"#utility.yul\":1148:1155   */\n      dup6\n        /* \"#utility.yul\":1144:1167   */\n      sub\n        /* \"#utility.yul\":1140:1172   */\n      slt\n        /* \"#utility.yul\":1137:1256   */\n      iszero\n      tag_272\n      jumpi\n        /* \"#utility.yul\":1175:1254   */\n      tag_273\n      tag_202\n      jump\t// in\n    tag_273:\n        /* \"#utility.yul\":1137:1256   */\n    tag_272:\n        /* \"#utility.yul\":1295:1296   */\n      0x00\n        /* \"#utility.yul\":1320:1373   */\n      tag_274\n        /* \"#utility.yul\":1365:1372   */\n      dup6\n        /* \"#utility.yul\":1356:1362   */\n      dup3\n        /* \"#utility.yul\":1345:1354   */\n      dup7\n        /* \"#utility.yul\":1341:1363   */\n      add\n        /* \"#utility.yul\":1320:1373   */\n      tag_206\n      jump\t// in\n    tag_274:\n        /* \"#utility.yul\":1310:1373   */\n      swap3\n      pop\n        /* \"#utility.yul\":1266:1383   */\n      pop\n        /* \"#utility.yul\":1422:1424   */\n      0x20\n        /* \"#utility.yul\":1448:1498   */\n      tag_275\n        /* \"#utility.yul\":1490:1497   */\n      dup6\n        /* \"#utility.yul\":1481:1487   */\n      dup3\n        /* \"#utility.yul\":1470:1479   */\n      dup7\n        /* \"#utility.yul\":1466:1488   */\n      add\n        /* \"#utility.yul\":1448:1498   */\n      tag_209\n      jump\t// in\n    tag_275:\n        /* \"#utility.yul\":1438:1498   */\n      swap2\n      pop\n        /* \"#utility.yul\":1393:1508   */\n      pop\n        /* \"#utility.yul\":1047:1515   */\n      swap3\n      pop\n      swap3\n      swap1\n      pop\n      jump\t// out\n        /* \"#utility.yul\":1521:1850   */\n    tag_24:\n        /* \"#utility.yul\":1580:1586   */\n      0x00\n        /* \"#utility.yul\":1629:1631   */\n      0x20\n        /* \"#utility.yul\":1617:1626   */\n      dup3\n        /* \"#utility.yul\":1608:1615   */\n      dup5\n        /* \"#utility.yul\":1604:1627   */\n      sub\n        /* \"#utility.yul\":1600:1632   */\n      slt\n        /* \"#utility.yul\":1597:1716   */\n      iszero\n      tag_277\n      jumpi\n        /* \"#utility.yul\":1635:1714   */\n      tag_278\n      tag_202\n      jump\t// in\n    tag_278:\n        /* \"#utility.yul\":1597:1716   */\n    tag_277:\n        /* \"#utility.yul\":1755:1756   */\n      0x00\n        /* \"#utility.yul\":1780:1833   */\n      tag_279\n        /* \"#utility.yul\":1825:1832   */\n      dup5\n        /* \"#utility.yul\":1816:1822   */\n      dup3\n        /* \"#utility.yul\":1805:1814   */\n      dup6\n        /* \"#utility.yul\":1801:1823   */\n      add\n        /* \"#utility.yul\":1780:1833   */\n      tag_206\n      jump\t// in\n    tag_279:\n        /* \"#utility.yul\":1770:1833   */\n      swap2\n      pop\n        /* \"#utility.yul\":1726:1843   */\n      pop\n        /* \"#utility.yul\":1521:1850   */\n      swap3\n      swap2\n      pop\n      pop\n      jump\t// out\n        /* \"#utility.yul\":1856:1982   */\n    tag_210:\n        /* \"#utility.yul\":1893:1900   */\n      0x00\n        /* \"#utility.yul\":1933:1975   */\n      0xffffffffffffffffffffffffffffffffffffffff\n        /* \"#utility.yul\":1926:1931   */\n      dup3\n        /* \"#utility.yul\":1922:1976   */\n      and\n        /* \"#utility.yul\":1911:1976   */\n      swap1\n      pop\n        /* \"#utility.yul\":1856:1982   */\n      swap2\n      swap1\n      pop\n      jump\t// out\n        /* \"#utility.yul\":1988:2084   */\n    tag_211:\n        /* \"#utility.yul\":2025:2032   */\n      0x00\n        /* \"#utility.yul\":2054:2078   */\n      tag_282\n        /* \"#utility.yul\":2072:2077   */\n      dup3\n        /* \"#utility.yul\":2054:2078   */\n      tag_210\n      jump\t// in\n    tag_282:\n        /* \"#utility.yul\":2043:2078   */\n      swap1\n      pop\n        /* \"#utility.yul\":1988:2084   */\n      swap2\n      swap1\n      pop\n      jump\t// out\n        /* \"#utility.yul\":2090:2208   */\n    tag_212:\n        /* \"#utility.yul\":2177:2201   */\n      tag_284\n        /* \"#utility.yul\":2195:2200   */\n      dup2\n        /* \"#utility.yul\":2177:2201   */\n      tag_211\n      jump\t// in\n    tag_284:\n        /* \"#utility.yul\":2172:2175   */\n      dup3\n        /* \"#utility.yul\":2165:2202   */\n      mstore\n        /* \"#utility.yul\":2090:2208   */\n      pop\n      pop\n      jump\t// out\n        /* \"#utility.yul\":2214:2436   */\n    tag_27:\n        /* \"#utility.yul\":2307:2311   */\n      0x00\n        /* \"#utility.yul\":2345:2347   */\n      0x20\n        /* \"#utility.yul\":2334:2343   */\n      dup3\n        /* \"#utility.yul\":2330:2348   */\n      add\n        /* \"#utility.yul\":2322:2348   */\n      swap1\n      pop\n        /* \"#utility.yul\":2358:2429   */\n      tag_286\n        /* \"#utility.yul\":2426:2427   */\n      0x00\n        /* \"#utility.yul\":2415:2424   */\n      dup4\n        /* \"#utility.yul\":2411:2428   */\n      add\n        /* \"#utility.yul\":2402:2408   */\n      dup5\n        /* \"#utility.yul\":2358:2429   */\n      tag_212\n      jump\t// in\n    tag_286:\n        /* \"#utility.yul\":2214:2436   */\n      swap3\n      swap2\n      pop\n      pop\n      jump\t// out\n        /* \"#utility.yul\":2442:2551   */\n    tag_213:\n        /* \"#utility.yul\":2523:2544   */\n      tag_288\n        /* \"#utility.yul\":2538:2543   */\n      dup2\n        /* \"#utility.yul\":2523:2544   */\n      tag_207\n      jump\t// in\n    tag_288:\n        /* \"#utility.yul\":2518:2521   */\n      dup3\n        /* \"#utility.yul\":2511:2545   */\n      mstore\n        /* \"#utility.yul\":2442:2551   */\n      pop\n      pop\n      jump\t// out\n        /* \"#utility.yul\":2557:2767   */\n    tag_32:\n        /* \"#utility.yul\":2644:2648   */\n      0x00\n        /* \"#utility.yul\":2682:2684   */\n      0x20\n        /* \"#utility.yul\":2671:2680   */\n      dup3\n        /* \"#utility.yul\":2667:2685   */\n      add\n        /* \"#utility.yul\":2659:2685   */\n      swap1\n      pop\n        /* \"#utility.yul\":2695:2760   */\n      tag_290\n        /* \"#utility.yul\":2757:2758   */\n      0x00\n        /* \"#utility.yul\":2746:2755   */\n      dup4\n        /* \"#utility.yul\":2742:2759   */\n      add\n        /* \"#utility.yul\":2733:2739   */\n      dup5\n        /* \"#utility.yul\":2695:2760   */\n      tag_213\n      jump\t// in\n    tag_290:\n        /* \"#utility.yul\":2557:2767   */\n      swap3\n      swap2\n      pop\n      pop\n      jump\t// out\n        /* \"#utility.yul\":2773:2890   */\n    tag_214:\n        /* \"#utility.yul\":2882:2883   */\n      0x00\n        /* \"#utility.yul\":2879:2880   */\n      dup1\n        /* \"#utility.yul\":2872:2884   */\n      revert\n        /* \"#utility.yul\":2896:3013   */\n    tag_215:\n        /* \"#utility.yul\":3005:3006   */\n      0x00\n        /* \"#utility.yul\":3002:3003   */\n      dup1\n        /* \"#utility.yul\":2995:3007   */\n      revert\n        /* \"#utility.yul\":3019:3121   */\n    tag_216:\n        /* \"#utility.yul\":3060:3066   */\n      0x00\n        /* \"#utility.yul\":3111:3113   */\n      0x1f\n        /* \"#utility.yul\":3107:3114   */\n      not\n        /* \"#utility.yul\":3102:3104   */\n      0x1f\n        /* \"#utility.yul\":3095:3100   */\n      dup4\n        /* \"#utility.yul\":3091:3105   */\n      add\n        /* \"#utility.yul\":3087:3115   */\n      and\n        /* \"#utility.yul\":3077:3115   */\n      swap1\n      pop\n        /* \"#utility.yul\":3019:3121   */\n      swap2\n      swap1\n      pop\n      jump\t// out\n        /* \"#utility.yul\":3127:3307   */\n    tag_217:\n        /* \"#utility.yul\":3175:3252   */\n      0x4e487b7100000000000000000000000000000000000000000000000000000000\n        /* \"#utility.yul\":3172:3173   */\n      0x00\n        /* \"#utility.yul\":3165:3253   */\n      mstore\n        /* \"#utility.yul\":3272:3276   */\n      0x41\n        /* \"#utility.yul\":3269:3270   */\n      0x04\n        /* \"#utility.yul\":3262:3277   */\n      mstore\n        /* \"#utility.yul\":3296:3300   */\n      0x24\n        /* \"#utility.yul\":3293:3294   */\n      0x00\n        /* \"#utility.yul\":3286:3301   */\n      revert\n        /* \"#utility.yul\":3313:3594   */\n    tag_218:\n        /* \"#utility.yul\":3396:3423   */\n      tag_296\n        /* \"#utility.yul\":3418:3422   */\n      dup3\n        /* \"#utility.yul\":3396:3423   */\n      tag_216\n      jump\t// in\n    tag_296:\n        /* \"#utility.yul\":3388:3394   */\n      dup2\n        /* \"#utility.yul\":3384:3424   */\n      add\n        /* \"#utility.yul\":3526:3532   */\n      dup2\n        /* \"#utility.yul\":3514:3524   */\n      dup2\n        /* \"#utility.yul\":3511:3533   */\n      lt\n        /* \"#utility.yul\":3490:3508   */\n      0xffffffffffffffff\n        /* \"#utility.yul\":3478:3488   */\n      dup3\n        /* \"#utility.yul\":3475:3509   */\n      gt\n        /* \"#utility.yul\":3472:3534   */\n      or\n        /* \"#utility.yul\":3469:3557   */\n      iszero\n      tag_297\n      jumpi\n        /* \"#utility.yul\":3537:3555   */\n      tag_298\n      tag_217\n      jump\t// in\n    tag_298:\n        /* \"#utility.yul\":3469:3557   */\n    tag_297:\n        /* \"#utility.yul\":3577:3587   */\n      dup1\n        /* \"#utility.yul\":3573:3575   */\n      0x40\n        /* \"#utility.yul\":3566:3588   */\n      mstore\n        /* \"#utility.yul\":3356:3594   */\n      pop\n        /* \"#utility.yul\":3313:3594   */\n      pop\n      pop\n      jump\t// out\n        /* \"#utility.yul\":3600:3729   */\n    tag_219:\n        /* \"#utility.yul\":3634:3640   */\n      0x00\n        /* \"#utility.yul\":3661:3681   */\n      tag_300\n      tag_201\n      jump\t// in\n    tag_300:\n        /* \"#utility.yul\":3651:3681   */\n      swap1\n      pop\n        /* \"#utility.yul\":3690:3723   */\n      tag_301\n        /* \"#utility.yul\":3718:3722   */\n      dup3\n        /* \"#utility.yul\":3710:3716   */\n      dup3\n        /* \"#utility.yul\":3690:3723   */\n      tag_218\n      jump\t// in\n    tag_301:\n        /* \"#utility.yul\":3600:3729   */\n      swap2\n      swap1\n      pop\n      jump\t// out\n        /* \"#utility.yul\":3735:4043   */\n    tag_220:\n        /* \"#utility.yul\":3797:3801   */\n      0x00\n        /* \"#utility.yul\":3887:3905   */\n      0xffffffffffffffff\n        /* \"#utility.yul\":3879:3885   */\n      dup3\n        /* \"#utility.yul\":3876:3906   */\n      gt\n        /* \"#utility.yul\":3873:3929   */\n      iszero\n      tag_303\n      jumpi\n        /* \"#utility.yul\":3909:3927   */\n      tag_304\n      tag_217\n      jump\t// in\n    tag_304:\n        /* \"#utility.yul\":3873:3929   */\n    tag_303:\n        /* \"#utility.yul\":3947:3976   */\n      tag_305\n        /* \"#utility.yul\":3969:3975   */\n      dup3\n        /* \"#utility.yul\":3947:3976   */\n      tag_216\n      jump\t// in\n    tag_305:\n        /* \"#utility.yul\":3939:3976   */\n      swap1\n      pop\n        /* \"#utility.yul\":4031:4035   */\n      0x20\n        /* \"#utility.yul\":4025:4029   */\n      dup2\n        /* \"#utility.yul\":4021:4036   */\n      add\n        /* \"#utility.yul\":4013:4036   */\n      swap1\n      pop\n        /* \"#utility.yul\":3735:4043   */\n      swap2\n      swap1\n      pop\n      jump\t// out\n        /* \"#utility.yul\":4049:4203   */\n    tag_221:\n        /* \"#utility.yul\":4133:4139   */\n      dup3\n        /* \"#utility.yul\":4128:4131   */\n      dup2\n        /* \"#utility.yul\":4123:4126   */\n      dup4\n        /* \"#utility.yul\":4110:4140   */\n      calldatacopy\n        /* \"#utility.yul\":4195:4196   */\n      0x00\n        /* \"#utility.yul\":4186:4192   */\n      dup4\n        /* \"#utility.yul\":4181:4184   */\n      dup4\n        /* \"#utility.yul\":4177:4193   */\n      add\n        /* \"#utility.yul\":4170:4197   */\n      mstore\n        /* \"#utility.yul\":4049:4203   */\n      pop\n      pop\n      pop\n      jump\t// out\n        /* \"#utility.yul\":4209:4621   */\n    tag_222:\n        /* \"#utility.yul\":4287:4292   */\n      0x00\n        /* \"#utility.yul\":4312:4378   */\n      tag_308\n        /* \"#utility.yul\":4328:4377   */\n      tag_309\n        /* \"#utility.yul\":4370:4376   */\n      dup5\n        /* \"#utility.yul\":4328:4377   */\n      tag_220\n      jump\t// in\n    tag_309:\n        /* \"#utility.yul\":4312:4378   */\n      tag_219\n      jump\t// in\n    tag_308:\n        /* \"#utility.yul\":4303:4378   */\n      swap1\n      pop\n        /* \"#utility.yul\":4401:4407   */\n      dup3\n        /* \"#utility.yul\":4394:4399   */\n      dup2\n        /* \"#utility.yul\":4387:4408   */\n      mstore\n        /* \"#utility.yul\":4439:4443   */\n      0x20\n        /* \"#utility.yul\":4432:4437   */\n      dup2\n        /* \"#utility.yul\":4428:4444   */\n      add\n        /* \"#utility.yul\":4477:4480   */\n      dup5\n        /* \"#utility.yul\":4468:4474   */\n      dup5\n        /* \"#utility.yul\":4463:4466   */\n      dup5\n        /* \"#utility.yul\":4459:4475   */\n      add\n        /* \"#utility.yul\":4456:4481   */\n      gt\n        /* \"#utility.yul\":4453:4565   */\n      iszero\n      tag_310\n      jumpi\n        /* \"#utility.yul\":4484:4563   */\n      tag_311\n      tag_215\n      jump\t// in\n    tag_311:\n        /* \"#utility.yul\":4453:4565   */\n    tag_310:\n        /* \"#utility.yul\":4574:4615   */\n      tag_312\n        /* \"#utility.yul\":4608:4614   */\n      dup5\n        /* \"#utility.yul\":4603:4606   */\n      dup3\n        /* \"#utility.yul\":4598:4601   */\n      dup6\n        /* \"#utility.yul\":4574:4615   */\n      tag_221\n      jump\t// in\n    tag_312:\n        /* \"#utility.yul\":4293:4621   */\n      pop\n        /* \"#utility.yul\":4209:4621   */\n      swap4\n      swap3\n      pop\n      pop\n      pop\n      jump\t// out\n        /* \"#utility.yul\":4641:4981   */\n    tag_223:\n        /* \"#utility.yul\":4697:4702   */\n      0x00\n        /* \"#utility.yul\":4746:4749   */\n      dup3\n        /* \"#utility.yul\":4739:4743   */\n      0x1f\n        /* \"#utility.yul\":4731:4737   */\n      dup4\n        /* \"#utility.yul\":4727:4744   */\n      add\n        /* \"#utility.yul\":4723:4750   */\n      slt\n        /* \"#utility.yul\":4713:4835   */\n      tag_314\n      jumpi\n        /* \"#utility.yul\":4754:4833   */\n      tag_315\n      tag_214\n      jump\t// in\n    tag_315:\n        /* \"#utility.yul\":4713:4835   */\n    tag_314:\n        /* \"#utility.yul\":4871:4877   */\n      dup2\n        /* \"#utility.yul\":4858:4878   */\n      calldataload\n        /* \"#utility.yul\":4896:4975   */\n      tag_316\n        /* \"#utility.yul\":4971:4974   */\n      dup5\n        /* \"#utility.yul\":4963:4969   */\n      dup3\n        /* \"#utility.yul\":4956:4960   */\n      0x20\n        /* \"#utility.yul\":4948:4954   */\n      dup7\n        /* \"#utility.yul\":4944:4961   */\n      add\n        /* \"#utility.yul\":4896:4975   */\n      tag_222\n      jump\t// in\n    tag_316:\n        /* \"#utility.yul\":4887:4975   */\n      swap2\n      pop\n        /* \"#utility.yul\":4703:4981   */\n      pop\n        /* \"#utility.yul\":4641:4981   */\n      swap3\n      swap2\n      pop\n      pop\n      jump\t// out\n        /* \"#utility.yul\":4987:5496   */\n    tag_37:\n        /* \"#utility.yul\":5056:5062   */\n      0x00\n        /* \"#utility.yul\":5105:5107   */\n      0x20\n        /* \"#utility.yul\":5093:5102   */\n      dup3\n        /* \"#utility.yul\":5084:5091   */\n      dup5\n        /* \"#utility.yul\":5080:5103   */\n      sub\n        /* \"#utility.yul\":5076:5108   */\n      slt\n        /* \"#utility.yul\":5073:5192   */\n      iszero\n      tag_318\n      jumpi\n        /* \"#utility.yul\":5111:5190   */\n      tag_319\n      tag_202\n      jump\t// in\n    tag_319:\n        /* \"#utility.yul\":5073:5192   */\n    tag_318:\n        /* \"#utility.yul\":5259:5260   */\n      0x00\n        /* \"#utility.yul\":5248:5257   */\n      dup3\n        /* \"#utility.yul\":5244:5261   */\n      add\n        /* \"#utility.yul\":5231:5262   */\n      calldataload\n        /* \"#utility.yul\":5289:5307   */\n      0xffffffffffffffff\n        /* \"#utility.yul\":5281:5287   */\n      dup2\n        /* \"#utility.yul\":5278:5308   */\n      gt\n        /* \"#utility.yul\":5275:5392   */\n      iszero\n      tag_320\n      jumpi\n        /* \"#utility.yul\":5311:5390   */\n      tag_321\n      tag_203\n      jump\t// in\n    tag_321:\n        /* \"#utility.yul\":5275:5392   */\n    tag_320:\n        /* \"#utility.yul\":5416:5479   */\n      tag_322\n        /* \"#utility.yul\":5471:5478   */\n      dup5\n        /* \"#utility.yul\":5462:5468   */\n      dup3\n        /* \"#utility.yul\":5451:5460   */\n      dup6\n        /* \"#utility.yul\":5447:5469   */\n      add\n        /* \"#utility.yul\":5416:5479   */\n      tag_223\n      jump\t// in\n    tag_322:\n        /* \"#utility.yul\":5406:5479   */\n      swap2\n      pop\n        /* \"#utility.yul\":5202:5489   */\n      pop\n        /* \"#utility.yul\":4987:5496   */\n      swap3\n      swap2\n      pop\n      pop\n      jump\t// out\n        /* \"#utility.yul\":5502:5601   */\n    tag_224:\n        /* \"#utility.yul\":5554:5560   */\n      0x00\n        /* \"#utility.yul\":5588:5593   */\n      dup2\n        /* \"#utility.yul\":5582:5594   */\n      mload\n        /* \"#utility.yul\":5572:5594   */\n      swap1\n      pop\n        /* \"#utility.yul\":5502:5601   */\n      swap2\n      swap1\n      pop\n      jump\t// out\n        /* \"#utility.yul\":5607:5766   */\n    tag_225:\n        /* \"#utility.yul\":5681:5692   */\n      0x00\n        /* \"#utility.yul\":5715:5721   */\n      dup3\n        /* \"#utility.yul\":5710:5713   */\n      dup3\n        /* \"#utility.yul\":5703:5722   */\n      mstore\n        /* \"#utility.yul\":5755:5759   */\n      0x20\n        /* \"#utility.yul\":5750:5753   */\n      dup3\n        /* \"#utility.yul\":5746:5760   */\n      add\n        /* \"#utility.yul\":5731:5760   */\n      swap1\n      pop\n        /* \"#utility.yul\":5607:5766   */\n      swap3\n      swap2\n      pop\n      pop\n      jump\t// out\n        /* \"#utility.yul\":5772:6079   */\n    tag_226:\n        /* \"#utility.yul\":5840:5841   */\n      0x00\n        /* \"#utility.yul\":5850:5963   */\n    tag_326:\n        /* \"#utility.yul\":5864:5870   */\n      dup4\n        /* \"#utility.yul\":5861:5862   */\n      dup2\n        /* \"#utility.yul\":5858:5871   */\n      lt\n        /* \"#utility.yul\":5850:5963   */\n      iszero\n      tag_328\n      jumpi\n        /* \"#utility.yul\":5949:5950   */\n      dup1\n        /* \"#utility.yul\":5944:5947   */\n      dup3\n        /* \"#utility.yul\":5940:5951   */\n      add\n        /* \"#utility.yul\":5934:5952   */\n      mload\n        /* \"#utility.yul\":5930:5931   */\n      dup2\n        /* \"#utility.yul\":5925:5928   */\n      dup5\n        /* \"#utility.yul\":5921:5932   */\n      add\n        /* \"#utility.yul\":5914:5953   */\n      mstore\n        /* \"#utility.yul\":5886:5888   */\n      0x20\n        /* \"#utility.yul\":5883:5884   */\n      dup2\n        /* \"#utility.yul\":5879:5889   */\n      add\n        /* \"#utility.yul\":5874:5889   */\n      swap1\n      pop\n        /* \"#utility.yul\":5850:5963   */\n      jump(tag_326)\n    tag_328:\n        /* \"#utility.yul\":5981:5987   */\n      dup4\n        /* \"#utility.yul\":5978:5979   */\n      dup2\n        /* \"#utility.yul\":5975:5988   */\n      gt\n        /* \"#utility.yul\":5972:6073   */\n      iszero\n      tag_329\n      jumpi\n        /* \"#utility.yul\":6061:6062   */\n      0x00\n        /* \"#utility.yul\":6052:6058   */\n      dup5\n        /* \"#utility.yul\":6047:6050   */\n      dup5\n        /* \"#utility.yul\":6043:6059   */\n      add\n        /* \"#utility.yul\":6036:6063   */\n      mstore\n        /* \"#utility.yul\":5972:6073   */\n    tag_329:\n        /* \"#utility.yul\":5821:6079   */\n      pop\n        /* \"#utility.yul\":5772:6079   */\n      pop\n      pop\n      pop\n      jump\t// out\n        /* \"#utility.yul\":6085:6429   */\n    tag_227:\n        /* \"#utility.yul\":6163:6166   */\n      0x00\n        /* \"#utility.yul\":6191:6230   */\n      tag_331\n        /* \"#utility.yul\":6224:6229   */\n      dup3\n        /* \"#utility.yul\":6191:6230   */\n      tag_224\n      jump\t// in\n    tag_331:\n        /* \"#utility.yul\":6246:6307   */\n      tag_332\n        /* \"#utility.yul\":6300:6306   */\n      dup2\n        /* \"#utility.yul\":6295:6298   */\n      dup6\n        /* \"#utility.yul\":6246:6307   */\n      tag_225\n      jump\t// in\n    tag_332:\n        /* \"#utility.yul\":6239:6307   */\n      swap4\n      pop\n        /* \"#utility.yul\":6316:6368   */\n      tag_333\n        /* \"#utility.yul\":6361:6367   */\n      dup2\n        /* \"#utility.yul\":6356:6359   */\n      dup6\n        /* \"#utility.yul\":6349:6353   */\n      0x20\n        /* \"#utility.yul\":6342:6347   */\n      dup7\n        /* \"#utility.yul\":6338:6354   */\n      add\n        /* \"#utility.yul\":6316:6368   */\n      tag_226\n      jump\t// in\n    tag_333:\n        /* \"#utility.yul\":6393:6422   */\n      tag_334\n        /* \"#utility.yul\":6415:6421   */\n      dup2\n        /* \"#utility.yul\":6393:6422   */\n      tag_216\n      jump\t// in\n    tag_334:\n        /* \"#utility.yul\":6388:6391   */\n      dup5\n        /* \"#utility.yul\":6384:6423   */\n      add\n        /* \"#utility.yul\":6377:6423   */\n      swap2\n      pop\n        /* \"#utility.yul\":6167:6429   */\n      pop\n        /* \"#utility.yul\":6085:6429   */\n      swap3\n      swap2\n      pop\n      pop\n      jump\t// out\n        /* \"#utility.yul\":6435:6521   */\n    tag_228:\n        /* \"#utility.yul\":6470:6477   */\n      0x00\n        /* \"#utility.yul\":6510:6514   */\n      0xff\n        /* \"#utility.yul\":6503:6508   */\n      dup3\n        /* \"#utility.yul\":6499:6515   */\n      and\n        /* \"#utility.yul\":6488:6515   */\n      swap1\n      pop\n        /* \"#utility.yul\":6435:6521   */\n      swap2\n      swap1\n      pop\n      jump\t// out\n        /* \"#utility.yul\":6527:6629   */\n    tag_229:\n        /* \"#utility.yul\":6600:6622   */\n      tag_337\n        /* \"#utility.yul\":6616:6621   */\n      dup2\n        /* \"#utility.yul\":6600:6622   */\n      tag_228\n      jump\t// in\n    tag_337:\n        /* \"#utility.yul\":6595:6598   */\n      dup3\n        /* \"#utility.yul\":6588:6623   */\n      mstore\n        /* \"#utility.yul\":6527:6629   */\n      pop\n      pop\n      jump\t// out\n        /* \"#utility.yul\":6691:8532   */\n    tag_230:\n        /* \"#utility.yul\":6800:6803   */\n      0x00\n        /* \"#utility.yul\":6836:6840   */\n      0xe0\n        /* \"#utility.yul\":6831:6834   */\n      dup4\n        /* \"#utility.yul\":6827:6841   */\n      add\n        /* \"#utility.yul\":6927:6931   */\n      0x00\n        /* \"#utility.yul\":6920:6925   */\n      dup4\n        /* \"#utility.yul\":6916:6932   */\n      add\n        /* \"#utility.yul\":6910:6933   */\n      mload\n        /* \"#utility.yul\":6980:6983   */\n      dup5\n        /* \"#utility.yul\":6974:6978   */\n      dup3\n        /* \"#utility.yul\":6970:6984   */\n      sub\n        /* \"#utility.yul\":6963:6967   */\n      0x00\n        /* \"#utility.yul\":6958:6961   */\n      dup7\n        /* \"#utility.yul\":6954:6968   */\n      add\n        /* \"#utility.yul\":6947:6985   */\n      mstore\n        /* \"#utility.yul\":7006:7079   */\n      tag_339\n        /* \"#utility.yul\":7074:7078   */\n      dup3\n        /* \"#utility.yul\":7060:7072   */\n      dup3\n        /* \"#utility.yul\":7006:7079   */\n      tag_227\n      jump\t// in\n    tag_339:\n        /* \"#utility.yul\":6998:7079   */\n      swap2\n      pop\n        /* \"#utility.yul\":6851:7090   */\n      pop\n        /* \"#utility.yul\":7175:7179   */\n      0x20\n        /* \"#utility.yul\":7168:7173   */\n      dup4\n        /* \"#utility.yul\":7164:7180   */\n      add\n        /* \"#utility.yul\":7158:7181   */\n      mload\n        /* \"#utility.yul\":7228:7231   */\n      dup5\n        /* \"#utility.yul\":7222:7226   */\n      dup3\n        /* \"#utility.yul\":7218:7232   */\n      sub\n        /* \"#utility.yul\":7211:7215   */\n      0x20\n        /* \"#utility.yul\":7206:7209   */\n      dup7\n        /* \"#utility.yul\":7202:7216   */\n      add\n        /* \"#utility.yul\":7195:7233   */\n      mstore\n        /* \"#utility.yul\":7254:7327   */\n      tag_340\n        /* \"#utility.yul\":7322:7326   */\n      dup3\n        /* \"#utility.yul\":7308:7320   */\n      dup3\n        /* \"#utility.yul\":7254:7327   */\n      tag_227\n      jump\t// in\n    tag_340:\n        /* \"#utility.yul\":7246:7327   */\n      swap2\n      pop\n        /* \"#utility.yul\":7100:7338   */\n      pop\n        /* \"#utility.yul\":7423:7427   */\n      0x40\n        /* \"#utility.yul\":7416:7421   */\n      dup4\n        /* \"#utility.yul\":7412:7428   */\n      add\n        /* \"#utility.yul\":7406:7429   */\n      mload\n        /* \"#utility.yul\":7476:7479   */\n      dup5\n        /* \"#utility.yul\":7470:7474   */\n      dup3\n        /* \"#utility.yul\":7466:7480   */\n      sub\n        /* \"#utility.yul\":7459:7463   */\n      0x40\n        /* \"#utility.yul\":7454:7457   */\n      dup7\n        /* \"#utility.yul\":7450:7464   */\n      add\n        /* \"#utility.yul\":7443:7481   */\n      mstore\n        /* \"#utility.yul\":7502:7575   */\n      tag_341\n        /* \"#utility.yul\":7570:7574   */\n      dup3\n        /* \"#utility.yul\":7556:7568   */\n      dup3\n        /* \"#utility.yul\":7502:7575   */\n      tag_227\n      jump\t// in\n    tag_341:\n        /* \"#utility.yul\":7494:7575   */\n      swap2\n      pop\n        /* \"#utility.yul\":7348:7586   */\n      pop\n        /* \"#utility.yul\":7671:7675   */\n      0x60\n        /* \"#utility.yul\":7664:7669   */\n      dup4\n        /* \"#utility.yul\":7660:7676   */\n      add\n        /* \"#utility.yul\":7654:7677   */\n      mload\n        /* \"#utility.yul\":7724:7727   */\n      dup5\n        /* \"#utility.yul\":7718:7722   */\n      dup3\n        /* \"#utility.yul\":7714:7728   */\n      sub\n        /* \"#utility.yul\":7707:7711   */\n      0x60\n        /* \"#utility.yul\":7702:7705   */\n      dup7\n        /* \"#utility.yul\":7698:7712   */\n      add\n        /* \"#utility.yul\":7691:7729   */\n      mstore\n        /* \"#utility.yul\":7750:7823   */\n      tag_342\n        /* \"#utility.yul\":7818:7822   */\n      dup3\n        /* \"#utility.yul\":7804:7816   */\n      dup3\n        /* \"#utility.yul\":7750:7823   */\n      tag_227\n      jump\t// in\n    tag_342:\n        /* \"#utility.yul\":7742:7823   */\n      swap2\n      pop\n        /* \"#utility.yul\":7596:7834   */\n      pop\n        /* \"#utility.yul\":7919:7923   */\n      0x80\n        /* \"#utility.yul\":7912:7917   */\n      dup4\n        /* \"#utility.yul\":7908:7924   */\n      add\n        /* \"#utility.yul\":7902:7925   */\n      mload\n        /* \"#utility.yul\":7972:7975   */\n      dup5\n        /* \"#utility.yul\":7966:7970   */\n      dup3\n        /* \"#utility.yul\":7962:7976   */\n      sub\n        /* \"#utility.yul\":7955:7959   */\n      0x80\n        /* \"#utility.yul\":7950:7953   */\n      dup7\n        /* \"#utility.yul\":7946:7960   */\n      add\n        /* \"#utility.yul\":7939:7977   */\n      mstore\n        /* \"#utility.yul\":7998:8071   */\n      tag_343\n        /* \"#utility.yul\":8066:8070   */\n      dup3\n        /* \"#utility.yul\":8052:8064   */\n      dup3\n        /* \"#utility.yul\":7998:8071   */\n      tag_227\n      jump\t// in\n    tag_343:\n        /* \"#utility.yul\":7990:8071   */\n      swap2\n      pop\n        /* \"#utility.yul\":7844:8082   */\n      pop\n        /* \"#utility.yul\":8164:8168   */\n      0xa0\n        /* \"#utility.yul\":8157:8162   */\n      dup4\n        /* \"#utility.yul\":8153:8169   */\n      add\n        /* \"#utility.yul\":8147:8170   */\n      mload\n        /* \"#utility.yul\":8217:8220   */\n      dup5\n        /* \"#utility.yul\":8211:8215   */\n      dup3\n        /* \"#utility.yul\":8207:8221   */\n      sub\n        /* \"#utility.yul\":8200:8204   */\n      0xa0\n        /* \"#utility.yul\":8195:8198   */\n      dup7\n        /* \"#utility.yul\":8191:8205   */\n      add\n        /* \"#utility.yul\":8184:8222   */\n      mstore\n        /* \"#utility.yul\":8243:8316   */\n      tag_344\n        /* \"#utility.yul\":8311:8315   */\n      dup3\n        /* \"#utility.yul\":8297:8309   */\n      dup3\n        /* \"#utility.yul\":8243:8316   */\n      tag_227\n      jump\t// in\n    tag_344:\n        /* \"#utility.yul\":8235:8316   */\n      swap2\n      pop\n        /* \"#utility.yul\":8092:8327   */\n      pop\n        /* \"#utility.yul\":8417:8421   */\n      0xc0\n        /* \"#utility.yul\":8410:8415   */\n      dup4\n        /* \"#utility.yul\":8406:8422   */\n      add\n        /* \"#utility.yul\":8400:8423   */\n      mload\n        /* \"#utility.yul\":8436:8495   */\n      tag_345\n        /* \"#utility.yul\":8489:8493   */\n      0xc0\n        /* \"#utility.yul\":8484:8487   */\n      dup7\n        /* \"#utility.yul\":8480:8494   */\n      add\n        /* \"#utility.yul\":8466:8478   */\n      dup3\n        /* \"#utility.yul\":8436:8495   */\n      tag_229\n      jump\t// in\n    tag_345:\n        /* \"#utility.yul\":8337:8505   */\n      pop\n        /* \"#utility.yul\":8522:8526   */\n      dup1\n        /* \"#utility.yul\":8515:8526   */\n      swap2\n      pop\n        /* \"#utility.yul\":6805:8532   */\n      pop\n        /* \"#utility.yul\":6691:8532   */\n      swap3\n      swap2\n      pop\n      pop\n      jump\t// out\n        /* \"#utility.yul\":8538:8891   */\n    tag_40:\n        /* \"#utility.yul\":8671:8675   */\n      0x00\n        /* \"#utility.yul\":8709:8711   */\n      0x20\n        /* \"#utility.yul\":8698:8707   */\n      dup3\n        /* \"#utility.yul\":8694:8712   */\n      add\n        /* \"#utility.yul\":8686:8712   */\n      swap1\n      pop\n        /* \"#utility.yul\":8758:8767   */\n      dup2\n        /* \"#utility.yul\":8752:8756   */\n      dup2\n        /* \"#utility.yul\":8748:8768   */\n      sub\n        /* \"#utility.yul\":8744:8745   */\n      0x00\n        /* \"#utility.yul\":8733:8742   */\n      dup4\n        /* \"#utility.yul\":8729:8746   */\n      add\n        /* \"#utility.yul\":8722:8769   */\n      mstore\n        /* \"#utility.yul\":8786:8884   */\n      tag_347\n        /* \"#utility.yul\":8879:8883   */\n      dup2\n        /* \"#utility.yul\":8870:8876   */\n      dup5\n        /* \"#utility.yul\":8786:8884   */\n      tag_230\n      jump\t// in\n    tag_347:\n        /* \"#utility.yul\":8778:8884   */\n      swap1\n      pop\n        /* \"#utility.yul\":8538:8891   */\n      swap3\n      swap2\n      pop\n      pop\n      jump\t// out\n        /* \"#utility.yul\":8897:9015   */\n    tag_231:\n        /* \"#utility.yul\":8968:8990   */\n      tag_349\n        /* \"#utility.yul\":8984:8989   */\n      dup2\n        /* \"#utility.yul\":8968:8990   */\n      tag_228\n      jump\t// in\n    tag_349:\n        /* \"#utility.yul\":8961:8966   */\n      dup2\n        /* \"#utility.yul\":8958:8991   */\n      eq\n        /* \"#utility.yul\":8948:9009   */\n      tag_350\n      jumpi\n        /* \"#utility.yul\":9005:9006   */\n      0x00\n        /* \"#utility.yul\":9002:9003   */\n      dup1\n        /* \"#utility.yul\":8995:9007   */\n      revert\n        /* \"#utility.yul\":8948:9009   */\n    tag_350:\n        /* \"#utility.yul\":8897:9015   */\n      pop\n      jump\t// out\n        /* \"#utility.yul\":9021:9156   */\n    tag_232:\n        /* \"#utility.yul\":9065:9070   */\n      0x00\n        /* \"#utility.yul\":9103:9109   */\n      dup2\n        /* \"#utility.yul\":9090:9110   */\n      calldataload\n        /* \"#utility.yul\":9081:9110   */\n      swap1\n      pop\n        /* \"#utility.yul\":9119:9150   */\n      tag_352\n        /* \"#utility.yul\":9144:9149   */\n      dup2\n        /* \"#utility.yul\":9119:9150   */\n      tag_231\n      jump\t// in\n    tag_352:\n        /* \"#utility.yul\":9021:9156   */\n      swap3\n      swap2\n      pop\n      pop\n      jump\t// out\n        /* \"#utility.yul\":9162:9632   */\n    tag_46:\n        /* \"#utility.yul\":9228:9234   */\n      0x00\n        /* \"#utility.yul\":9236:9242   */\n      dup1\n        /* \"#utility.yul\":9285:9287   */\n      0x40\n        /* \"#utility.yul\":9273:9282   */\n      dup4\n        /* \"#utility.yul\":9264:9271   */\n      dup6\n        /* \"#utility.yul\":9260:9283   */\n      sub\n        /* \"#utility.yul\":9256:9288   */\n      slt\n        /* \"#utility.yul\":9253:9372   */\n      iszero\n      tag_354\n      jumpi\n        /* \"#utility.yul\":9291:9370   */\n      tag_355\n      tag_202\n      jump\t// in\n    tag_355:\n        /* \"#utility.yul\":9253:9372   */\n    tag_354:\n        /* \"#utility.yul\":9411:9412   */\n      0x00\n        /* \"#utility.yul\":9436:9489   */\n      tag_356\n        /* \"#utility.yul\":9481:9488   */\n      dup6\n        /* \"#utility.yul\":9472:9478   */\n      dup3\n        /* \"#utility.yul\":9461:9470   */\n      dup7\n        /* \"#utility.yul\":9457:9479   */\n      add\n        /* \"#utility.yul\":9436:9489   */\n      tag_206\n      jump\t// in\n    tag_356:\n        /* \"#utility.yul\":9426:9489   */\n      swap3\n      pop\n        /* \"#utility.yul\":9382:9499   */\n      pop\n        /* \"#utility.yul\":9538:9540   */\n      0x20\n        /* \"#utility.yul\":9564:9615   */\n      tag_357\n        /* \"#utility.yul\":9607:9614   */\n      dup6\n        /* \"#utility.yul\":9598:9604   */\n      dup3\n        /* \"#utility.yul\":9587:9596   */\n      dup7\n        /* \"#utility.yul\":9583:9605   */\n      add\n        /* \"#utility.yul\":9564:9615   */\n      tag_232\n      jump\t// in\n    tag_357:\n        /* \"#utility.yul\":9554:9615   */\n      swap2\n      pop\n        /* \"#utility.yul\":9509:9625   */\n      pop\n        /* \"#utility.yul\":9162:9632   */\n      swap3\n      pop\n      swap3\n      swap1\n      pop\n      jump\t// out\n        /* \"#utility.yul\":9638:9750   */\n    tag_233:\n        /* \"#utility.yul\":9721:9743   */\n      tag_359\n        /* \"#utility.yul\":9737:9742   */\n      dup2\n        /* \"#utility.yul\":9721:9743   */\n      tag_228\n      jump\t// in\n    tag_359:\n        /* \"#utility.yul\":9716:9719   */\n      dup3\n        /* \"#utility.yul\":9709:9744   */\n      mstore\n        /* \"#utility.yul\":9638:9750   */\n      pop\n      pop\n      jump\t// out\n        /* \"#utility.yul\":9756:10211   */\n    tag_52:\n        /* \"#utility.yul\":9913:9917   */\n      0x00\n        /* \"#utility.yul\":9951:9953   */\n      0x40\n        /* \"#utility.yul\":9940:9949   */\n      dup3\n        /* \"#utility.yul\":9936:9954   */\n      add\n        /* \"#utility.yul\":9928:9954   */\n      swap1\n      pop\n        /* \"#utility.yul\":10000:10009   */\n      dup2\n        /* \"#utility.yul\":9994:9998   */\n      dup2\n        /* \"#utility.yul\":9990:10010   */\n      sub\n        /* \"#utility.yul\":9986:9987   */\n      0x00\n        /* \"#utility.yul\":9975:9984   */\n      dup4\n        /* \"#utility.yul\":9971:9988   */\n      add\n        /* \"#utility.yul\":9964:10011   */\n      mstore\n        /* \"#utility.yul\":10028:10126   */\n      tag_361\n        /* \"#utility.yul\":10121:10125   */\n      dup2\n        /* \"#utility.yul\":10112:10118   */\n      dup6\n        /* \"#utility.yul\":10028:10126   */\n      tag_230\n      jump\t// in\n    tag_361:\n        /* \"#utility.yul\":10020:10126   */\n      swap1\n      pop\n        /* \"#utility.yul\":10136:10204   */\n      tag_362\n        /* \"#utility.yul\":10200:10202   */\n      0x20\n        /* \"#utility.yul\":10189:10198   */\n      dup4\n        /* \"#utility.yul\":10185:10203   */\n      add\n        /* \"#utility.yul\":10176:10182   */\n      dup5\n        /* \"#utility.yul\":10136:10204   */\n      tag_233\n      jump\t// in\n    tag_362:\n        /* \"#utility.yul\":9756:10211   */\n      swap4\n      swap3\n      pop\n      pop\n      pop\n      jump\t// out\n        /* \"#utility.yul\":10217:10339   */\n    tag_234:\n        /* \"#utility.yul\":10290:10314   */\n      tag_364\n        /* \"#utility.yul\":10308:10313   */\n      dup2\n        /* \"#utility.yul\":10290:10314   */\n      tag_211\n      jump\t// in\n    tag_364:\n        /* \"#utility.yul\":10283:10288   */\n      dup2\n        /* \"#utility.yul\":10280:10315   */\n      eq\n        /* \"#utility.yul\":10270:10333   */\n      tag_365\n      jumpi\n        /* \"#utility.yul\":10329:10330   */\n      0x00\n        /* \"#utility.yul\":10326:10327   */\n      dup1\n        /* \"#utility.yul\":10319:10331   */\n      revert\n        /* \"#utility.yul\":10270:10333   */\n    tag_365:\n        /* \"#utility.yul\":10217:10339   */\n      pop\n      jump\t// out\n        /* \"#utility.yul\":10345:10484   */\n    tag_235:\n        /* \"#utility.yul\":10391:10396   */\n      0x00\n        /* \"#utility.yul\":10429:10435   */\n      dup2\n        /* \"#utility.yul\":10416:10436   */\n      calldataload\n        /* \"#utility.yul\":10407:10436   */\n      swap1\n      pop\n        /* \"#utility.yul\":10445:10478   */\n      tag_367\n        /* \"#utility.yul\":10472:10477   */\n      dup2\n        /* \"#utility.yul\":10445:10478   */\n      tag_234\n      jump\t// in\n    tag_367:\n        /* \"#utility.yul\":10345:10484   */\n      swap3\n      swap2\n      pop\n      pop\n      jump\t// out\n        /* \"#utility.yul\":10490:10819   */\n    tag_55:\n        /* \"#utility.yul\":10549:10555   */\n      0x00\n        /* \"#utility.yul\":10598:10600   */\n      0x20\n        /* \"#utility.yul\":10586:10595   */\n      dup3\n        /* \"#utility.yul\":10577:10584   */\n      dup5\n        /* \"#utility.yul\":10573:10596   */\n      sub\n        /* \"#utility.yul\":10569:10601   */\n      slt\n        /* \"#utility.yul\":10566:10685   */\n      iszero\n      tag_369\n      jumpi\n        /* \"#utility.yul\":10604:10683   */\n      tag_370\n      tag_202\n      jump\t// in\n    tag_370:\n        /* \"#utility.yul\":10566:10685   */\n    tag_369:\n        /* \"#utility.yul\":10724:10725   */\n      0x00\n        /* \"#utility.yul\":10749:10802   */\n      tag_371\n        /* \"#utility.yul\":10794:10801   */\n      dup5\n        /* \"#utility.yul\":10785:10791   */\n      dup3\n        /* \"#utility.yul\":10774:10783   */\n      dup6\n        /* \"#utility.yul\":10770:10792   */\n      add\n        /* \"#utility.yul\":10749:10802   */\n      tag_235\n      jump\t// in\n    tag_371:\n        /* \"#utility.yul\":10739:10802   */\n      swap2\n      pop\n        /* \"#utility.yul\":10695:10812   */\n      pop\n        /* \"#utility.yul\":10490:10819   */\n      swap3\n      swap2\n      pop\n      pop\n      jump\t// out\n        /* \"#utility.yul\":10825:11479   */\n    tag_59:\n        /* \"#utility.yul\":10903:10909   */\n      0x00\n        /* \"#utility.yul\":10911:10917   */\n      dup1\n        /* \"#utility.yul\":10960:10962   */\n      0x40\n        /* \"#utility.yul\":10948:10957   */\n      dup4\n        /* \"#utility.yul\":10939:10946   */\n      dup6\n        /* \"#utility.yul\":10935:10958   */\n      sub\n        /* \"#utility.yul\":10931:10963   */\n      slt\n        /* \"#utility.yul\":10928:11047   */\n      iszero\n      tag_373\n      jumpi\n        /* \"#utility.yul\":10966:11045   */\n      tag_374\n      tag_202\n      jump\t// in\n    tag_374:\n        /* \"#utility.yul\":10928:11047   */\n    tag_373:\n        /* \"#utility.yul\":11086:11087   */\n      0x00\n        /* \"#utility.yul\":11111:11164   */\n      tag_375\n        /* \"#utility.yul\":11156:11163   */\n      dup6\n        /* \"#utility.yul\":11147:11153   */\n      dup3\n        /* \"#utility.yul\":11136:11145   */\n      dup7\n        /* \"#utility.yul\":11132:11154   */\n      add\n        /* \"#utility.yul\":11111:11164   */\n      tag_206\n      jump\t// in\n    tag_375:\n        /* \"#utility.yul\":11101:11164   */\n      swap3\n      pop\n        /* \"#utility.yul\":11057:11174   */\n      pop\n        /* \"#utility.yul\":11241:11243   */\n      0x20\n        /* \"#utility.yul\":11230:11239   */\n      dup4\n        /* \"#utility.yul\":11226:11244   */\n      add\n        /* \"#utility.yul\":11213:11245   */\n      calldataload\n        /* \"#utility.yul\":11272:11290   */\n      0xffffffffffffffff\n        /* \"#utility.yul\":11264:11270   */\n      dup2\n        /* \"#utility.yul\":11261:11291   */\n      gt\n        /* \"#utility.yul\":11258:11375   */\n      iszero\n      tag_376\n      jumpi\n        /* \"#utility.yul\":11294:11373   */\n      tag_377\n      tag_203\n      jump\t// in\n    tag_377:\n        /* \"#utility.yul\":11258:11375   */\n    tag_376:\n        /* \"#utility.yul\":11399:11462   */\n      tag_378\n        /* \"#utility.yul\":11454:11461   */\n      dup6\n        /* \"#utility.yul\":11445:11451   */\n      dup3\n        /* \"#utility.yul\":11434:11443   */\n      dup7\n        /* \"#utility.yul\":11430:11452   */\n      add\n        /* \"#utility.yul\":11399:11462   */\n      tag_223\n      jump\t// in\n    tag_378:\n        /* \"#utility.yul\":11389:11462   */\n      swap2\n      pop\n        /* \"#utility.yul\":11184:11472   */\n      pop\n        /* \"#utility.yul\":10825:11479   */\n      swap3\n      pop\n      swap3\n      swap1\n      pop\n      jump\t// out\n        /* \"#utility.yul\":11485:11654   */\n    tag_236:\n        /* \"#utility.yul\":11569:11580   */\n      0x00\n        /* \"#utility.yul\":11603:11609   */\n      dup3\n        /* \"#utility.yul\":11598:11601   */\n      dup3\n        /* \"#utility.yul\":11591:11610   */\n      mstore\n        /* \"#utility.yul\":11643:11647   */\n      0x20\n        /* \"#utility.yul\":11638:11641   */\n      dup3\n        /* \"#utility.yul\":11634:11648   */\n      add\n        /* \"#utility.yul\":11619:11648   */\n      swap1\n      pop\n        /* \"#utility.yul\":11485:11654   */\n      swap3\n      swap2\n      pop\n      pop\n      jump\t// out\n        /* \"#utility.yul\":11660:11842   */\n    tag_237:\n        /* \"#utility.yul\":11800:11834   */\n      0x4f776e61626c653a2063616c6c6572206973206e6f7420746865206f776e6572\n        /* \"#utility.yul\":11796:11797   */\n      0x00\n        /* \"#utility.yul\":11788:11794   */\n      dup3\n        /* \"#utility.yul\":11784:11798   */\n      add\n        /* \"#utility.yul\":11777:11835   */\n      mstore\n        /* \"#utility.yul\":11660:11842   */\n      pop\n      jump\t// out\n        /* \"#utility.yul\":11848:12214   */\n    tag_238:\n        /* \"#utility.yul\":11990:11993   */\n      0x00\n        /* \"#utility.yul\":12011:12078   */\n      tag_382\n        /* \"#utility.yul\":12075:12077   */\n      0x20\n        /* \"#utility.yul\":12070:12073   */\n      dup4\n        /* \"#utility.yul\":12011:12078   */\n      tag_236\n      jump\t// in\n    tag_382:\n        /* \"#utility.yul\":12004:12078   */\n      swap2\n      pop\n        /* \"#utility.yul\":12087:12180   */\n      tag_383\n        /* \"#utility.yul\":12176:12179   */\n      dup3\n        /* \"#utility.yul\":12087:12180   */\n      tag_237\n      jump\t// in\n    tag_383:\n        /* \"#utility.yul\":12205:12207   */\n      0x20\n        /* \"#utility.yul\":12200:12203   */\n      dup3\n        /* \"#utility.yul\":12196:12208   */\n      add\n        /* \"#utility.yul\":12189:12208   */\n      swap1\n      pop\n        /* \"#utility.yul\":11848:12214   */\n      swap2\n      swap1\n      pop\n      jump\t// out\n        /* \"#utility.yul\":12220:12639   */\n    tag_67:\n        /* \"#utility.yul\":12386:12390   */\n      0x00\n        /* \"#utility.yul\":12424:12426   */\n      0x20\n        /* \"#utility.yul\":12413:12422   */\n      dup3\n        /* \"#utility.yul\":12409:12427   */\n      add\n        /* \"#utility.yul\":12401:12427   */\n      swap1\n      pop\n        /* \"#utility.yul\":12473:12482   */\n      dup2\n        /* \"#utility.yul\":12467:12471   */\n      dup2\n        /* \"#utility.yul\":12463:12483   */\n      sub\n        /* \"#utility.yul\":12459:12460   */\n      0x00\n        /* \"#utility.yul\":12448:12457   */\n      dup4\n        /* \"#utility.yul\":12444:12461   */\n      add\n        /* \"#utility.yul\":12437:12484   */\n      mstore\n        /* \"#utility.yul\":12501:12632   */\n      tag_385\n        /* \"#utility.yul\":12627:12631   */\n      dup2\n        /* \"#utility.yul\":12501:12632   */\n      tag_238\n      jump\t// in\n    tag_385:\n        /* \"#utility.yul\":12493:12632   */\n      swap1\n      pop\n        /* \"#utility.yul\":12220:12639   */\n      swap2\n      swap1\n      pop\n      jump\t// out\n        /* \"#utility.yul\":12645:12825   */\n    tag_239:\n        /* \"#utility.yul\":12693:12770   */\n      0x4e487b7100000000000000000000000000000000000000000000000000000000\n        /* \"#utility.yul\":12690:12691   */\n      0x00\n        /* \"#utility.yul\":12683:12771   */\n      mstore\n        /* \"#utility.yul\":12790:12794   */\n      0x11\n        /* \"#utility.yul\":12787:12788   */\n      0x04\n        /* \"#utility.yul\":12780:12795   */\n      mstore\n        /* \"#utility.yul\":12814:12818   */\n      0x24\n        /* \"#utility.yul\":12811:12812   */\n      0x00\n        /* \"#utility.yul\":12804:12819   */\n      revert\n        /* \"#utility.yul\":12831:13136   */\n    tag_84:\n        /* \"#utility.yul\":12871:12874   */\n      0x00\n        /* \"#utility.yul\":12890:12910   */\n      tag_388\n        /* \"#utility.yul\":12908:12909   */\n      dup3\n        /* \"#utility.yul\":12890:12910   */\n      tag_204\n      jump\t// in\n    tag_388:\n        /* \"#utility.yul\":12885:12910   */\n      swap2\n      pop\n        /* \"#utility.yul\":12924:12944   */\n      tag_389\n        /* \"#utility.yul\":12942:12943   */\n      dup4\n        /* \"#utility.yul\":12924:12944   */\n      tag_204\n      jump\t// in\n    tag_389:\n        /* \"#utility.yul\":12919:12944   */\n      swap3\n      pop\n        /* \"#utility.yul\":13078:13079   */\n      dup3\n        /* \"#utility.yul\":13010:13076   */\n      0xffffffffffffffffffffffffffffffffffffffffffffffffffffffffffffffff\n        /* \"#utility.yul\":13006:13080   */\n      sub\n        /* \"#utility.yul\":13003:13004   */\n      dup3\n        /* \"#utility.yul\":13000:13081   */\n      gt\n        /* \"#utility.yul\":12997:13104   */\n      iszero\n      tag_390\n      jumpi\n        /* \"#utility.yul\":13084:13102   */\n      tag_391\n      tag_239\n      jump\t// in\n    tag_391:\n        /* \"#utility.yul\":12997:13104   */\n    tag_390:\n        /* \"#utility.yul\":13128:13129   */\n      dup3\n        /* \"#utility.yul\":13125:13126   */\n      dup3\n        /* \"#utility.yul\":13121:13130   */\n      add\n        /* \"#utility.yul\":13114:13130   */\n      swap1\n      pop\n        /* \"#utility.yul\":12831:13136   */\n      swap3\n      swap2\n      pop\n      pop\n      jump\t// out\n        /* \"#utility.yul\":13142:13290   */\n    tag_240:\n        /* \"#utility.yul\":13244:13255   */\n      0x00\n        /* \"#utility.yul\":13281:13284   */\n      dup2\n        /* \"#utility.yul\":13266:13284   */\n      swap1\n      pop\n        /* \"#utility.yul\":13142:13290   */\n      swap3\n      swap2\n      pop\n      pop\n      jump\t// out\n        /* \"#utility.yul\":13296:13673   */\n    tag_241:\n        /* \"#utility.yul\":13402:13405   */\n      0x00\n        /* \"#utility.yul\":13430:13469   */\n      tag_394\n        /* \"#utility.yul\":13463:13468   */\n      dup3\n        /* \"#utility.yul\":13430:13469   */\n      tag_224\n      jump\t// in\n    tag_394:\n        /* \"#utility.yul\":13485:13574   */\n      tag_395\n        /* \"#utility.yul\":13567:13573   */\n      dup2\n        /* \"#utility.yul\":13562:13565   */\n      dup6\n        /* \"#utility.yul\":13485:13574   */\n      tag_240\n      jump\t// in\n    tag_395:\n        /* \"#utility.yul\":13478:13574   */\n      swap4\n      pop\n        /* \"#utility.yul\":13583:13635   */\n      tag_396\n        /* \"#utility.yul\":13628:13634   */\n      dup2\n        /* \"#utility.yul\":13623:13626   */\n      dup6\n        /* \"#utility.yul\":13616:13620   */\n      0x20\n        /* \"#utility.yul\":13609:13614   */\n      dup7\n        /* \"#utility.yul\":13605:13621   */\n      add\n        /* \"#utility.yul\":13583:13635   */\n      tag_226\n      jump\t// in\n    tag_396:\n        /* \"#utility.yul\":13660:13666   */\n      dup1\n        /* \"#utility.yul\":13655:13658   */\n      dup5\n        /* \"#utility.yul\":13651:13667   */\n      add\n        /* \"#utility.yul\":13644:13667   */\n      swap2\n      pop\n        /* \"#utility.yul\":13406:13673   */\n      pop\n        /* \"#utility.yul\":13296:13673   */\n      swap3\n      swap2\n      pop\n      pop\n      jump\t// out\n        /* \"#utility.yul\":13679:13756   */\n    tag_242:\n        /* \"#utility.yul\":13716:13723   */\n      0x00\n        /* \"#utility.yul\":13745:13750   */\n      dup2\n        /* \"#utility.yul\":13734:13750   */\n      swap1\n      pop\n        /* \"#utility.yul\":13679:13756   */\n      swap2\n      swap1\n      pop\n      jump\t// out\n        /* \"#utility.yul\":13762:13841   */\n    tag_243:\n        /* \"#utility.yul\":13801:13808   */\n      0x00\n        /* \"#utility.yul\":13830:13835   */\n      dup2\n        /* \"#utility.yul\":13819:13835   */\n      swap1\n      pop\n        /* \"#utility.yul\":13762:13841   */\n      swap2\n      swap1\n      pop\n      jump\t// out\n        /* \"#utility.yul\":13847:14004   */\n    tag_244:\n        /* \"#utility.yul\":13952:13997   */\n      tag_400\n        /* \"#utility.yul\":13972:13996   */\n      tag_401\n        /* \"#utility.yul\":13990:13995   */\n      dup3\n        /* \"#utility.yul\":13972:13996   */\n      tag_242\n      jump\t// in\n    tag_401:\n        /* \"#utility.yul\":13952:13997   */\n      tag_243\n      jump\t// in\n    tag_400:\n        /* \"#utility.yul\":13947:13950   */\n      dup3\n        /* \"#utility.yul\":13940:13998   */\n      mstore\n        /* \"#utility.yul\":13847:14004   */\n      pop\n      pop\n      jump\t// out\n        /* \"#utility.yul\":14010:14426   */\n    tag_86:\n        /* \"#utility.yul\":14170:14173   */\n      0x00\n        /* \"#utility.yul\":14192:14287   */\n      tag_403\n        /* \"#utility.yul\":14283:14286   */\n      dup3\n        /* \"#utility.yul\":14274:14280   */\n      dup6\n        /* \"#utility.yul\":14192:14287   */\n      tag_241\n      jump\t// in\n    tag_403:\n        /* \"#utility.yul\":14185:14287   */\n      swap2\n      pop\n        /* \"#utility.yul\":14297:14372   */\n      tag_404\n        /* \"#utility.yul\":14368:14371   */\n      dup3\n        /* \"#utility.yul\":14359:14365   */\n      dup5\n        /* \"#utility.yul\":14297:14372   */\n      tag_244\n      jump\t// in\n    tag_404:\n        /* \"#utility.yul\":14397:14399   */\n      0x20\n        /* \"#utility.yul\":14392:14395   */\n      dup3\n        /* \"#utility.yul\":14388:14400   */\n      add\n        /* \"#utility.yul\":14381:14400   */\n      swap2\n      pop\n        /* \"#utility.yul\":14417:14420   */\n      dup2\n        /* \"#utility.yul\":14410:14420   */\n      swap1\n      pop\n        /* \"#utility.yul\":14010:14426   */\n      swap4\n      swap3\n      pop\n      pop\n      pop\n      jump\t// out\n        /* \"#utility.yul\":14432:14612   */\n    tag_245:\n        /* \"#utility.yul\":14480:14557   */\n      0x4e487b7100000000000000000000000000000000000000000000000000000000\n        /* \"#utility.yul\":14477:14478   */\n      0x00\n        /* \"#utility.yul\":14470:14558   */\n      mstore\n        /* \"#utility.yul\":14577:14581   */\n      0x12\n        /* \"#utility.yul\":14574:14575   */\n      0x04\n        /* \"#utility.yul\":14567:14582   */\n      mstore\n        /* \"#utility.yul\":14601:14605   */\n      0x24\n        /* \"#utility.yul\":14598:14599   */\n      0x00\n        /* \"#utility.yul\":14591:14606   */\n      revert\n        /* \"#utility.yul\":14618:14794   */\n    tag_88:\n        /* \"#utility.yul\":14650:14651   */\n      0x00\n        /* \"#utility.yul\":14667:14687   */\n      tag_407\n        /* \"#utility.yul\":14685:14686   */\n      dup3\n        /* \"#utility.yul\":14667:14687   */\n      tag_204\n      jump\t// in\n    tag_407:\n        /* \"#utility.yul\":14662:14687   */\n      swap2\n      pop\n        /* \"#utility.yul\":14701:14721   */\n      tag_408\n        /* \"#utility.yul\":14719:14720   */\n      dup4\n        /* \"#utility.yul\":14701:14721   */\n      tag_204\n      jump\t// in\n    tag_408:\n        /* \"#utility.yul\":14696:14721   */\n      swap3\n      pop\n        /* \"#utility.yul\":14740:14741   */\n      dup3\n        /* \"#utility.yul\":14730:14765   */\n      tag_409\n      jumpi\n        /* \"#utility.yul\":14745:14763   */\n      tag_410\n      tag_245\n      jump\t// in\n    tag_410:\n        /* \"#utility.yul\":14730:14765   */\n    tag_409:\n        /* \"#utility.yul\":14786:14787   */\n      dup3\n        /* \"#utility.yul\":14783:14784   */\n      dup3\n        /* \"#utility.yul\":14779:14788   */\n      mod\n        /* \"#utility.yul\":14774:14788   */\n      swap1\n      pop\n        /* \"#utility.yul\":14618:14794   */\n      swap3\n      swap2\n      pop\n      pop\n      jump\t// out\n        /* \"#utility.yul\":14800:14980   */\n    tag_91:\n        /* \"#utility.yul\":14848:14925   */\n      0x4e487b7100000000000000000000000000000000000000000000000000000000\n        /* \"#utility.yul\":14845:14846   */\n      0x00\n        /* \"#utility.yul\":14838:14926   */\n      mstore\n        /* \"#utility.yul\":14945:14949   */\n      0x32\n        /* \"#utility.yul\":14942:14943   */\n      0x04\n        /* \"#utility.yul\":14935:14950   */\n      mstore\n        /* \"#utility.yul\":14969:14973   */\n      0x24\n        /* \"#utility.yul\":14966:14967   */\n      0x00\n        /* \"#utility.yul\":14959:14974   */\n      revert\n        /* \"#utility.yul\":14986:15166   */\n    tag_246:\n        /* \"#utility.yul\":15034:15111   */\n      0x4e487b7100000000000000000000000000000000000000000000000000000000\n        /* \"#utility.yul\":15031:15032   */\n      0x00\n        /* \"#utility.yul\":15024:15112   */\n      mstore\n        /* \"#utility.yul\":15131:15135   */\n      0x22\n        /* \"#utility.yul\":15128:15129   */\n      0x04\n        /* \"#utility.yul\":15121:15136   */\n      mstore\n        /* \"#utility.yul\":15155:15159   */\n      0x24\n        /* \"#utility.yul\":15152:15153   */\n      0x00\n        /* \"#utility.yul\":15145:15160   */\n      revert\n        /* \"#utility.yul\":15172:15492   */\n    tag_94:\n        /* \"#utility.yul\":15216:15222   */\n      0x00\n        /* \"#utility.yul\":15253:15254   */\n      0x02\n        /* \"#utility.yul\":15247:15251   */\n      dup3\n        /* \"#utility.yul\":15243:15255   */\n      div\n        /* \"#utility.yul\":15233:15255   */\n      swap1\n      pop\n        /* \"#utility.yul\":15300:15301   */\n      0x01\n        /* \"#utility.yul\":15294:15298   */\n      dup3\n        /* \"#utility.yul\":15290:15302   */\n      and\n        /* \"#utility.yul\":15321:15339   */\n      dup1\n        /* \"#utility.yul\":15311:15392   */\n      tag_414\n      jumpi\n        /* \"#utility.yul\":15377:15381   */\n      0x7f\n        /* \"#utility.yul\":15369:15375   */\n      dup3\n        /* \"#utility.yul\":15365:15382   */\n      and\n        /* \"#utility.yul\":15355:15382   */\n      swap2\n      pop\n        /* \"#utility.yul\":15311:15392   */\n    tag_414:\n        /* \"#utility.yul\":15439:15441   */\n      0x20\n        /* \"#utility.yul\":15431:15437   */\n      dup3\n        /* \"#utility.yul\":15428:15442   */\n      lt\n        /* \"#utility.yul\":15408:15426   */\n      dup2\n        /* \"#utility.yul\":15405:15443   */\n      sub\n        /* \"#utility.yul\":15402:15486   */\n      tag_415\n      jumpi\n        /* \"#utility.yul\":15458:15476   */\n      tag_416\n      tag_246\n      jump\t// in\n    tag_416:\n        /* \"#utility.yul\":15402:15486   */\n    tag_415:\n        /* \"#utility.yul\":15223:15492   */\n      pop\n        /* \"#utility.yul\":15172:15492   */\n      swap2\n      swap1\n      pop\n      jump\t// out\n        /* \"#utility.yul\":15498:15639   */\n    tag_247:\n        /* \"#utility.yul\":15547:15551   */\n      0x00\n        /* \"#utility.yul\":15570:15573   */\n      dup2\n        /* \"#utility.yul\":15562:15573   */\n      swap1\n      pop\n        /* \"#utility.yul\":15593:15596   */\n      dup2\n        /* \"#utility.yul\":15590:15591   */\n      0x00\n        /* \"#utility.yul\":15583:15597   */\n      mstore\n        /* \"#utility.yul\":15627:15631   */\n      0x20\n        /* \"#utility.yul\":15624:15625   */\n      0x00\n        /* \"#utility.yul\":15614:15632   */\n      keccak256\n        /* \"#utility.yul\":15606:15632   */\n      swap1\n      pop\n        /* \"#utility.yul\":15498:15639   */\n      swap2\n      swap1\n      pop\n      jump\t// out\n        /* \"#utility.yul\":15669:16451   */\n    tag_248:\n        /* \"#utility.yul\":15744:15747   */\n      0x00\n        /* \"#utility.yul\":15781:15786   */\n      dup2\n        /* \"#utility.yul\":15775:15787   */\n      sload\n        /* \"#utility.yul\":15810:15846   */\n      tag_419\n        /* \"#utility.yul\":15836:15845   */\n      dup2\n        /* \"#utility.yul\":15810:15846   */\n      tag_94\n      jump\t// in\n    tag_419:\n        /* \"#utility.yul\":15862:15923   */\n      tag_420\n        /* \"#utility.yul\":15916:15922   */\n      dup2\n        /* \"#utility.yul\":15911:15914   */\n      dup7\n        /* \"#utility.yul\":15862:15923   */\n      tag_225\n      jump\t// in\n    tag_420:\n        /* \"#utility.yul\":15855:15923   */\n      swap5\n      pop\n        /* \"#utility.yul\":15954:15955   */\n      0x01\n        /* \"#utility.yul\":15943:15952   */\n      dup3\n        /* \"#utility.yul\":15939:15956   */\n      and\n        /* \"#utility.yul\":15970:15971   */\n      0x00\n        /* \"#utility.yul\":15965:16100   */\n      dup2\n      eq\n      tag_422\n      jumpi\n        /* \"#utility.yul\":16114:16115   */\n      0x01\n        /* \"#utility.yul\":16109:16445   */\n      dup2\n      eq\n      tag_423\n      jumpi\n        /* \"#utility.yul\":15932:16445   */\n      jump(tag_421)\n        /* \"#utility.yul\":15965:16100   */\n    tag_422:\n        /* \"#utility.yul\":16049:16053   */\n      0xff\n        /* \"#utility.yul\":16045:16054   */\n      not\n        /* \"#utility.yul\":16034:16043   */\n      dup4\n        /* \"#utility.yul\":16030:16055   */\n      and\n        /* \"#utility.yul\":16025:16028   */\n      dup7\n        /* \"#utility.yul\":16018:16056   */\n      mstore\n        /* \"#utility.yul\":16085:16089   */\n      0x20\n        /* \"#utility.yul\":16080:16083   */\n      dup7\n        /* \"#utility.yul\":16076:16090   */\n      add\n        /* \"#utility.yul\":16069:16090   */\n      swap4\n      pop\n        /* \"#utility.yul\":15965:16100   */\n      jump(tag_421)\n        /* \"#utility.yul\":16109:16445   */\n    tag_423:\n        /* \"#utility.yul\":16176:16214   */\n      tag_424\n        /* \"#utility.yul\":16208:16213   */\n      dup6\n        /* \"#utility.yul\":16176:16214   */\n      tag_247\n      jump\t// in\n    tag_424:\n        /* \"#utility.yul\":16236:16237   */\n      0x00\n        /* \"#utility.yul\":16250:16404   */\n    tag_425:\n        /* \"#utility.yul\":16264:16270   */\n      dup4\n        /* \"#utility.yul\":16261:16262   */\n      dup2\n        /* \"#utility.yul\":16258:16271   */\n      lt\n        /* \"#utility.yul\":16250:16404   */\n      iszero\n      tag_427\n      jumpi\n        /* \"#utility.yul\":16338:16345   */\n      dup2\n        /* \"#utility.yul\":16332:16346   */\n      sload\n        /* \"#utility.yul\":16328:16329   */\n      dup2\n        /* \"#utility.yul\":16323:16326   */\n      dup10\n        /* \"#utility.yul\":16319:16330   */\n      add\n        /* \"#utility.yul\":16312:16347   */\n      mstore\n        /* \"#utility.yul\":16388:16389   */\n      0x01\n        /* \"#utility.yul\":16379:16386   */\n      dup3\n        /* \"#utility.yul\":16375:16390   */\n      add\n        /* \"#utility.yul\":16364:16390   */\n      swap2\n      pop\n        /* \"#utility.yul\":16286:16290   */\n      0x20\n        /* \"#utility.yul\":16283:16284   */\n      dup2\n        /* \"#utility.yul\":16279:16291   */\n      add\n        /* \"#utility.yul\":16274:16291   */\n      swap1\n      pop\n        /* \"#utility.yul\":16250:16404   */\n      jump(tag_425)\n    tag_427:\n        /* \"#utility.yul\":16433:16434   */\n      dup1\n        /* \"#utility.yul\":16428:16431   */\n      dup9\n        /* \"#utility.yul\":16424:16435   */\n      add\n        /* \"#utility.yul\":16417:16435   */\n      swap6\n      pop\n        /* \"#utility.yul\":16116:16445   */\n      pop\n      pop\n        /* \"#utility.yul\":15932:16445   */\n    tag_421:\n      pop\n        /* \"#utility.yul\":15748:16451   */\n      pop\n      pop\n        /* \"#utility.yul\":15669:16451   */\n      swap3\n      swap2\n      pop\n      pop\n      jump\t// out\n        /* \"#utility.yul\":16457:16559   */\n    tag_249:\n        /* \"#utility.yul\":16499:16507   */\n      0x00\n        /* \"#utility.yul\":16546:16551   */\n      dup2\n        /* \"#utility.yul\":16543:16544   */\n      0x00\n        /* \"#utility.yul\":16539:16552   */\n      shr\n        /* \"#utility.yul\":16518:16552   */\n      swap1\n      pop\n        /* \"#utility.yul\":16457:16559   */\n      swap2\n      swap1\n      pop\n      jump\t// out\n        /* \"#utility.yul\":16565:16664   */\n    tag_250:\n        /* \"#utility.yul\":16613:16620   */\n      0x00\n        /* \"#utility.yul\":16653:16657   */\n      0xff\n        /* \"#utility.yul\":16646:16651   */\n      dup3\n        /* \"#utility.yul\":16642:16658   */\n      and\n        /* \"#utility.yul\":16631:16658   */\n      swap1\n      pop\n        /* \"#utility.yul\":16565:16664   */\n      swap2\n      swap1\n      pop\n      jump\t// out\n        /* \"#utility.yul\":16670:16832   */\n    tag_251:\n        /* \"#utility.yul\":16737:16742   */\n      0x00\n        /* \"#utility.yul\":16762:16826   */\n      tag_431\n        /* \"#utility.yul\":16791:16825   */\n      tag_432\n        /* \"#utility.yul\":16814:16824   */\n      dup4\n        /* \"#utility.yul\":16791:16825   */\n      tag_249\n      jump\t// in\n    tag_432:\n        /* \"#utility.yul\":16762:16826   */\n      tag_250\n      jump\t// in\n    tag_431:\n        /* \"#utility.yul\":16753:16826   */\n      swap1\n      pop\n        /* \"#utility.yul\":16670:16832   */\n      swap2\n      swap1\n      pop\n      jump\t// out\n        /* \"#utility.yul\":16894:18777   */\n    tag_252:\n        /* \"#utility.yul\":17000:17003   */\n      0x00\n        /* \"#utility.yul\":17036:17040   */\n      0xe0\n        /* \"#utility.yul\":17031:17034   */\n      dup4\n        /* \"#utility.yul\":17027:17041   */\n      add\n        /* \"#utility.yul\":17067:17068   */\n      0x00\n        /* \"#utility.yul\":17148:17152   */\n      dup1\n        /* \"#utility.yul\":17141:17146   */\n      dup5\n        /* \"#utility.yul\":17137:17153   */\n      add\n        /* \"#utility.yul\":17200:17203   */\n      dup6\n        /* \"#utility.yul\":17194:17198   */\n      dup4\n        /* \"#utility.yul\":17190:17204   */\n      sub\n        /* \"#utility.yul\":17183:17187   */\n      0x00\n        /* \"#utility.yul\":17178:17181   */\n      dup8\n        /* \"#utility.yul\":17174:17188   */\n      add\n        /* \"#utility.yul\":17167:17205   */\n      mstore\n        /* \"#utility.yul\":17226:17296   */\n      tag_434\n        /* \"#utility.yul\":17291:17295   */\n      dup4\n        /* \"#utility.yul\":17277:17289   */\n      dup3\n        /* \"#utility.yul\":17226:17296   */\n      tag_248\n      jump\t// in\n    tag_434:\n        /* \"#utility.yul\":17218:17296   */\n      swap3\n      pop\n        /* \"#utility.yul\":17078:17307   */\n      pop\n        /* \"#utility.yul\":17386:17390   */\n      0x01\n        /* \"#utility.yul\":17379:17384   */\n      dup5\n        /* \"#utility.yul\":17375:17391   */\n      add\n        /* \"#utility.yul\":17438:17441   */\n      dup6\n        /* \"#utility.yul\":17432:17436   */\n      dup4\n        /* \"#utility.yul\":17428:17442   */\n      sub\n        /* \"#utility.yul\":17421:17425   */\n      0x20\n        /* \"#utility.yul\":17416:17419   */\n      dup8\n        /* \"#utility.yul\":17412:17426   */\n      add\n        /* \"#utility.yul\":17405:17443   */\n      mstore\n        /* \"#utility.yul\":17464:17534   */\n      tag_435\n        /* \"#utility.yul\":17529:17533   */\n      dup4\n        /* \"#utility.yul\":17515:17527   */\n      dup3\n        /* \"#utility.yul\":17464:17534   */\n      tag_248\n      jump\t// in\n    tag_435:\n        /* \"#utility.yul\":17456:17534   */\n      swap3\n      pop\n        /* \"#utility.yul\":17317:17545   */\n      pop\n        /* \"#utility.yul\":17624:17628   */\n      0x02\n        /* \"#utility.yul\":17617:17622   */\n      dup5\n        /* \"#utility.yul\":17613:17629   */\n      add\n        /* \"#utility.yul\":17676:17679   */\n      dup6\n        /* \"#utility.yul\":17670:17674   */\n      dup4\n        /* \"#utility.yul\":17666:17680   */\n      sub\n        /* \"#utility.yul\":17659:17663   */\n      0x40\n        /* \"#utility.yul\":17654:17657   */\n      dup8\n        /* \"#utility.yul\":17650:17664   */\n      add\n        /* \"#utility.yul\":17643:17681   */\n      mstore\n        /* \"#utility.yul\":17702:17772   */\n      tag_436\n        /* \"#utility.yul\":17767:17771   */\n      dup4\n        /* \"#utility.yul\":17753:17765   */\n      dup3\n        /* \"#utility.yul\":17702:17772   */\n      tag_248\n      jump\t// in\n    tag_436:\n        /* \"#utility.yul\":17694:17772   */\n      swap3\n      pop\n        /* \"#utility.yul\":17555:17783   */\n      pop\n        /* \"#utility.yul\":17862:17866   */\n      0x03\n        /* \"#utility.yul\":17855:17860   */\n      dup5\n        /* \"#utility.yul\":17851:17867   */\n      add\n        /* \"#utility.yul\":17914:17917   */\n      dup6\n        /* \"#utility.yul\":17908:17912   */\n      dup4\n        /* \"#utility.yul\":17904:17918   */\n      sub\n        /* \"#utility.yul\":17897:17901   */\n      0x60\n        /* \"#utility.yul\":17892:17895   */\n      dup8\n        /* \"#utility.yul\":17888:17902   */\n      add\n        /* \"#utility.yul\":17881:17919   */\n      mstore\n        /* \"#utility.yul\":17940:18010   */\n      tag_437\n        /* \"#utility.yul\":18005:18009   */\n      dup4\n        /* \"#utility.yul\":17991:18003   */\n      dup3\n        /* \"#utility.yul\":17940:18010   */\n      tag_248\n      jump\t// in\n    tag_437:\n        /* \"#utility.yul\":17932:18010   */\n      swap3\n      pop\n        /* \"#utility.yul\":17793:18021   */\n      pop\n        /* \"#utility.yul\":18100:18104   */\n      0x04\n        /* \"#utility.yul\":18093:18098   */\n      dup5\n        /* \"#utility.yul\":18089:18105   */\n      add\n        /* \"#utility.yul\":18152:18155   */\n      dup6\n        /* \"#utility.yul\":18146:18150   */\n      dup4\n        /* \"#utility.yul\":18142:18156   */\n      sub\n        /* \"#utility.yul\":18135:18139   */\n      0x80\n        /* \"#utility.yul\":18130:18133   */\n      dup8\n        /* \"#utility.yul\":18126:18140   */\n      add\n        /* \"#utility.yul\":18119:18157   */\n      mstore\n        /* \"#utility.yul\":18178:18248   */\n      tag_438\n        /* \"#utility.yul\":18243:18247   */\n      dup4\n        /* \"#utility.yul\":18229:18241   */\n      dup3\n        /* \"#utility.yul\":18178:18248   */\n      tag_248\n      jump\t// in\n    tag_438:\n        /* \"#utility.yul\":18170:18248   */\n      swap3\n      pop\n        /* \"#utility.yul\":18031:18259   */\n      pop\n        /* \"#utility.yul\":18335:18339   */\n      0x05\n        /* \"#utility.yul\":18328:18333   */\n      dup5\n        /* \"#utility.yul\":18324:18340   */\n      add\n        /* \"#utility.yul\":18387:18390   */\n      dup6\n        /* \"#utility.yul\":18381:18385   */\n      dup4\n        /* \"#utility.yul\":18377:18391   */\n      sub\n        /* \"#utility.yul\":18370:18374   */\n      0xa0\n        /* \"#utility.yul\":18365:18368   */\n      dup8\n        /* \"#utility.yul\":18361:18375   */\n      add\n        /* \"#utility.yul\":18354:18392   */\n      mstore\n        /* \"#utility.yul\":18413:18483   */\n      tag_439\n        /* \"#utility.yul\":18478:18482   */\n      dup4\n        /* \"#utility.yul\":18464:18476   */\n      dup3\n        /* \"#utility.yul\":18413:18483   */\n      tag_248\n      jump\t// in\n    tag_439:\n        /* \"#utility.yul\":18405:18483   */\n      swap3\n      pop\n        /* \"#utility.yul\":18269:18494   */\n      pop\n        /* \"#utility.yul\":18576:18580   */\n      0x06\n        /* \"#utility.yul\":18569:18574   */\n      dup5\n        /* \"#utility.yul\":18565:18581   */\n      add\n        /* \"#utility.yul\":18559:18582   */\n      sload\n        /* \"#utility.yul\":18546:18582   */\n      swap1\n      pop\n        /* \"#utility.yul\":18615:18668   */\n      tag_440\n        /* \"#utility.yul\":18658:18667   */\n      dup2\n        /* \"#utility.yul\":18615:18668   */\n      tag_251\n      jump\t// in\n    tag_440:\n        /* \"#utility.yul\":18681:18740   */\n      tag_441\n        /* \"#utility.yul\":18734:18738   */\n      0xc0\n        /* \"#utility.yul\":18729:18732   */\n      dup8\n        /* \"#utility.yul\":18725:18739   */\n      add\n        /* \"#utility.yul\":18711:18723   */\n      dup3\n        /* \"#utility.yul\":18681:18740   */\n      tag_229\n      jump\t// in\n    tag_441:\n        /* \"#utility.yul\":18504:18750   */\n      pop\n        /* \"#utility.yul\":18767:18771   */\n      dup2\n        /* \"#utility.yul\":18760:18771   */\n      swap3\n      pop\n        /* \"#utility.yul\":17005:18777   */\n      pop\n      pop\n        /* \"#utility.yul\":16894:18777   */\n      swap3\n      swap2\n      pop\n      pop\n      jump\t// out\n        /* \"#utility.yul\":18783:19232   */\n    tag_137:\n        /* \"#utility.yul\":18937:18941   */\n      0x00\n        /* \"#utility.yul\":18975:18977   */\n      0x40\n        /* \"#utility.yul\":18964:18973   */\n      dup3\n        /* \"#utility.yul\":18960:18978   */\n      add\n        /* \"#utility.yul\":18952:18978   */\n      swap1\n      pop\n        /* \"#utility.yul\":19024:19033   */\n      dup2\n        /* \"#utility.yul\":19018:19022   */\n      dup2\n        /* \"#utility.yul\":19014:19034   */\n      sub\n        /* \"#utility.yul\":19010:19011   */\n      0x00\n        /* \"#utility.yul\":18999:19008   */\n      dup4\n        /* \"#utility.yul\":18995:19012   */\n      add\n        /* \"#utility.yul\":18988:19035   */\n      mstore\n        /* \"#utility.yul\":19052:19147   */\n      tag_443\n        /* \"#utility.yul\":19142:19146   */\n      dup2\n        /* \"#utility.yul\":19133:19139   */\n      dup6\n        /* \"#utility.yul\":19052:19147   */\n      tag_252\n      jump\t// in\n    tag_443:\n        /* \"#utility.yul\":19044:19147   */\n      swap1\n      pop\n        /* \"#utility.yul\":19157:19225   */\n      tag_444\n        /* \"#utility.yul\":19221:19223   */\n      0x20\n        /* \"#utility.yul\":19210:19219   */\n      dup4\n        /* \"#utility.yul\":19206:19224   */\n      add\n        /* \"#utility.yul\":19197:19203   */\n      dup5\n        /* \"#utility.yul\":19157:19225   */\n      tag_233\n      jump\t// in\n    tag_444:\n        /* \"#utility.yul\":18783:19232   */\n      swap4\n      swap3\n      pop\n      pop\n      pop\n      jump\t// out\n        /* \"#utility.yul\":19238:19463   */\n    tag_253:\n        /* \"#utility.yul\":19378:19412   */\n      0x4f776e61626c653a206e6577206f776e657220697320746865207a65726f2061\n        /* \"#utility.yul\":19374:19375   */\n      0x00\n        /* \"#utility.yul\":19366:19372   */\n      dup3\n        /* \"#utility.yul\":19362:19376   */\n      add\n        /* \"#utility.yul\":19355:19413   */\n      mstore\n        /* \"#utility.yul\":19447:19455   */\n      0x6464726573730000000000000000000000000000000000000000000000000000\n        /* \"#utility.yul\":19442:19444   */\n      0x20\n        /* \"#utility.yul\":19434:19440   */\n      dup3\n        /* \"#utility.yul\":19430:19445   */\n      add\n        /* \"#utility.yul\":19423:19456   */\n      mstore\n        /* \"#utility.yul\":19238:19463   */\n      pop\n      jump\t// out\n        /* \"#utility.yul\":19469:19835   */\n    tag_254:\n        /* \"#utility.yul\":19611:19614   */\n      0x00\n        /* \"#utility.yul\":19632:19699   */\n      tag_447\n        /* \"#utility.yul\":19696:19698   */\n      0x26\n        /* \"#utility.yul\":19691:19694   */\n      dup4\n        /* \"#utility.yul\":19632:19699   */\n      tag_236\n      jump\t// in\n    tag_447:\n        /* \"#utility.yul\":19625:19699   */\n      swap2\n      pop\n        /* \"#utility.yul\":19708:19801   */\n      tag_448\n        /* \"#utility.yul\":19797:19800   */\n      dup3\n        /* \"#utility.yul\":19708:19801   */\n      tag_253\n      jump\t// in\n    tag_448:\n        /* \"#utility.yul\":19826:19828   */\n      0x40\n        /* \"#utility.yul\":19821:19824   */\n      dup3\n        /* \"#utility.yul\":19817:19829   */\n      add\n        /* \"#utility.yul\":19810:19829   */\n      swap1\n      pop\n        /* \"#utility.yul\":19469:19835   */\n      swap2\n      swap1\n      pop\n      jump\t// out\n        /* \"#utility.yul\":19841:20260   */\n    tag_179:\n        /* \"#utility.yul\":20007:20011   */\n      0x00\n        /* \"#utility.yul\":20045:20047   */\n      0x20\n        /* \"#utility.yul\":20034:20043   */\n      dup3\n        /* \"#utility.yul\":20030:20048   */\n      add\n        /* \"#utility.yul\":20022:20048   */\n      swap1\n      pop\n        /* \"#utility.yul\":20094:20103   */\n      dup2\n        /* \"#utility.yul\":20088:20092   */\n      dup2\n        /* \"#utility.yul\":20084:20104   */\n      sub\n        /* \"#utility.yul\":20080:20081   */\n      0x00\n        /* \"#utility.yul\":20069:20078   */\n      dup4\n        /* \"#utility.yul\":20065:20082   */\n      add\n        /* \"#utility.yul\":20058:20105   */\n      mstore\n        /* \"#utility.yul\":20122:20253   */\n      tag_450\n        /* \"#utility.yul\":20248:20252   */\n      dup2\n        /* \"#utility.yul\":20122:20253   */\n      tag_254\n      jump\t// in\n    tag_450:\n        /* \"#utility.yul\":20114:20253   */\n      swap1\n      pop\n        /* \"#utility.yul\":19841:20260   */\n      swap2\n      swap1\n      pop\n      jump\t// out\n\n    auxdata: 0xa2646970667358221220b528573dc0ec739f3068e62602480f316d06e77c3db2b556f2a1c81b6370db2064736f6c634300080e0033\n}\n",
				"bytecode": {
					"linkReferences": {},
					"object": "608060405234801561001057600080fd5b5061002d61002261003260201b60201c565b61003a60201b60201c565b6100fe565b600033905090565b60008060009054906101000a900473ffffffffffffffffffffffffffffffffffffffff169050816000806101000a81548173ffffffffffffffffffffffffffffffffffffffff021916908373ffffffffffffffffffffffffffffffffffffffff1602179055508173ffffffffffffffffffffffffffffffffffffffff168173ffffffffffffffffffffffffffffffffffffffff167f8be0079c531659141344cd1fd0a4f28419497f9722a3daafe3b4186f6b6457e060405160405180910390a35050565b611c028061010d6000396000f3fe608060405234801561001057600080fd5b50600436106100a95760003560e01c8063728b0d8711610071578063728b0d87146101505780638da5cb5b14610180578063a70434b31461019e578063b9360cf1146101ba578063f2fde38b146101eb578063fbb3b6ce14610207576100a9565b80631d3f7559146100ae578063377def85146100ca578063400ae0f9146100e657806351a1d40e14610116578063715018a614610146575b600080fd5b6100c860048036038101906100c39190611194565b610223565b005b6100e460048036038101906100df9190611194565b6102ce565b005b61010060048036038101906100fb91906111d4565b61036a565b60405161010d9190611242565b60405180910390f35b610130600480360381019061012b91906111d4565b61039d565b60405161013d919061126c565b60405180910390f35b61014e6103bd565b005b61016a600480360381019061016591906113cd565b610445565b6040516101779190611579565b60405180910390f35b6101886108a1565b6040516101959190611242565b60405180910390f35b6101b860048036038101906101b391906115c7565b6108ca565b005b6101d460048036038101906101cf91906111d4565b6108ed565b6040516101e2929190611616565b60405180910390f35b61020560048036038101906102009190611672565b610dc1565b005b610221600480360381019061021c919061169f565b610eb8565b005b61022b610f63565b73ffffffffffffffffffffffffffffffffffffffff166102496108a1565b73ffffffffffffffffffffffffffffffffffffffff161461029f576040517f08c379a000000000000000000000000000000000000000000000000000000000815260040161029690611758565b60405180910390fd5b806002600084815260200190815260200160002060006101000a81548160ff0219169083151502179055505050565b813373ffffffffffffffffffffffffffffffffffffffff166004600083815260200190815260200160002060009054906101000a900473ffffffffffffffffffffffffffffffffffffffff1673ffffffffffffffffffffffffffffffffffffffff161461033a57600080fd5b816002600085815260200190815260200160002060006101000a81548160ff021916908315150217905550505050565b60046020528060005260406000206000915054906101000a900473ffffffffffffffffffffffffffffffffffffffff1681565b60026020528060005260406000206000915054906101000a900460ff1681565b6103c5610f63565b73ffffffffffffffffffffffffffffffffffffffff166103e36108a1565b73ffffffffffffffffffffffffffffffffffffffff1614610439576040517f08c379a000000000000000000000000000000000000000000000000000000000815260040161043090611758565b60405180910390fd5b6104436000610f6b565b565b61044d61102f565b600060014361045c91906117a7565b90506000838240604051602001610474929190611864565b6040516020818303038152906040528051906020012060001c90506000600180549050826104a291906118bb565b90506000600182815481106104ba576104b96118ec565b5b90600052602060002090600702016040518060e00160405290816000820180546104e39061194a565b80601f016020809104026020016040519081016040528092919081815260200182805461050f9061194a565b801561055c5780601f106105315761010080835404028352916020019161055c565b820191906000526020600020905b81548152906001019060200180831161053f57829003601f168201915b505050505081526020016001820180546105759061194a565b80601f01602080910402602001604051908101604052809291908181526020018280546105a19061194a565b80156105ee5780601f106105c3576101008083540402835291602001916105ee565b820191906000526020600020905b8154815290600101906020018083116105d157829003601f168201915b505050505081526020016002820180546106079061194a565b80601f01602080910402602001604051908101604052809291908181526020018280546106339061194a565b80156106805780601f1061065557610100808354040283529160200191610680565b820191906000526020600020905b81548152906001019060200180831161066357829003601f168201915b505050505081526020016003820180546106999061194a565b80601f01602080910402602001604051908101604052809291908181526020018280546106c59061194a565b80156107125780601f106106e757610100808354040283529160200191610712565b820191906000526020600020905b8154815290600101906020018083116106f557829003601f168201915b5050505050815260200160048201805461072b9061194a565b80601f01602080910402602001604051908101604052809291908181526020018280546107579061194a565b80156107a45780601f10610779576101008083540402835291602001916107a4565b820191906000526020600020905b81548152906001019060200180831161078757829003601f168201915b505050505081526020016005820180546107bd9061194a565b80601f01602080910402602001604051908101604052809291908181526020018280546107e99061194a565b80156108365780601f1061080b57610100808354040283529160200191610836565b820191906000526020600020905b81548152906001019060200180831161081957829003601f168201915b505050505081526020016006820160009054906101000a900460ff1660ff1660ff168152505090507f9e761ccdbc51177b48b7089874745300bb2c5f97582f257ca78eca6f245e4d578160405161088d9190611579565b60405180910390a180945050505050919050565b60008060009054906101000a900473ffffffffffffffffffffffffffffffffffffffff16905090565b6003600083815260200190815260200160002060009054906101000a9050505050565b6108f561102f565b6000823373ffffffffffffffffffffffffffffffffffffffff166004600083815260200190815260200160002060009054906101000a900473ffffffffffffffffffffffffffffffffffffffff1673ffffffffffffffffffffffffffffffffffffffff161461096357600080fd5b7ffa122ac12f9fab92c2a3bcf05c23b0449c2426fc1425be35ee098a206f91621e60018581548110610998576109976118ec565b5b90600052602060002090600702016003600087815260200190815260200160002060009054906101000a900460ff166040516109d5929190611b0a565b60405180910390a1600184815481106109f1576109f06118ec565b5b90600052602060002090600702016003600086815260200190815260200160002060009054906101000a900460ff16816040518060e0016040529081600082018054610a3c9061194a565b80601f0160208091040260200160405190810160405280929190818152602001828054610a689061194a565b8015610ab55780601f10610a8a57610100808354040283529160200191610ab5565b820191906000526020600020905b815481529060010190602001808311610a9857829003601f168201915b50505050508152602001600182018054610ace9061194a565b80601f0160208091040260200160405190810160405280929190818152602001828054610afa9061194a565b8015610b475780601f10610b1c57610100808354040283529160200191610b47565b820191906000526020600020905b815481529060010190602001808311610b2a57829003601f168201915b50505050508152602001600282018054610b609061194a565b80601f0160208091040260200160405190810160405280929190818152602001828054610b8c9061194a565b8015610bd95780601f10610bae57610100808354040283529160200191610bd9565b820191906000526020600020905b815481529060010190602001808311610bbc57829003601f168201915b50505050508152602001600382018054610bf29061194a565b80601f0160208091040260200160405190810160405280929190818152602001828054610c1e9061194a565b8015610c6b5780601f10610c4057610100808354040283529160200191610c6b565b820191906000526020600020905b815481529060010190602001808311610c4e57829003601f168201915b50505050508152602001600482018054610c849061194a565b80601f0160208091040260200160405190810160405280929190818152602001828054610cb09061194a565b8015610cfd5780601f10610cd257610100808354040283529160200191610cfd565b820191906000526020600020905b815481529060010190602001808311610ce057829003601f168201915b50505050508152602001600582018054610d169061194a565b80601f0160208091040260200160405190810160405280929190818152602001828054610d429061194a565b8015610d8f5780601f10610d6457610100808354040283529160200191610d8f565b820191906000526020600020905b815481529060010190602001808311610d7257829003601f168201915b505050505081526020016006820160009054906101000a900460ff1660ff1660ff168152505091509250925050915091565b610dc9610f63565b73ffffffffffffffffffffffffffffffffffffffff16610de76108a1565b73ffffffffffffffffffffffffffffffffffffffff1614610e3d576040517f08c379a0000000000000000000000000000000000000000000000000000000008152600401610e3490611758565b60405180910390fd5b600073ffffffffffffffffffffffffffffffffffffffff168173ffffffffffffffffffffffffffffffffffffffff1603610eac576040517f08c379a0000000000000000000000000000000000000000000000000000000008152600401610ea390611bac565b60405180910390fd5b610eb581610f6b565b50565b813373ffffffffffffffffffffffffffffffffffffffff166004600083815260200190815260200160002060009054906101000a900473ffffffffffffffffffffffffffffffffffffffff1673ffffffffffffffffffffffffffffffffffffffff1614610f2457600080fd5b8160018481548110610f3957610f386118ec565b5b90600052602060002090600702016005019080519060200190610f5d92919061106f565b50505050565b600033905090565b60008060009054906101000a900473ffffffffffffffffffffffffffffffffffffffff169050816000806101000a81548173ffffffffffffffffffffffffffffffffffffffff021916908373ffffffffffffffffffffffffffffffffffffffff1602179055508173ffffffffffffffffffffffffffffffffffffffff168173ffffffffffffffffffffffffffffffffffffffff167f8be0079c531659141344cd1fd0a4f28419497f9722a3daafe3b4186f6b6457e060405160405180910390a35050565b6040518060e00160405280606081526020016060815260200160608152602001606081526020016060815260200160608152602001600060ff1681525090565b82805461107b9061194a565b90600052602060002090601f01602090048101928261109d57600085556110e4565b82601f106110b657805160ff19168380011785556110e4565b828001600101855582156110e4579182015b828111156110e35782518255916020019190600101906110c8565b5b5090506110f191906110f5565b5090565b5b8082111561110e5760008160009055506001016110f6565b5090565b6000604051905090565b600080fd5b600080fd5b6000819050919050565b61113981611126565b811461114457600080fd5b50565b60008135905061115681611130565b92915050565b60008115159050919050565b6111718161115c565b811461117c57600080fd5b50565b60008135905061118e81611168565b92915050565b600080604083850312156111ab576111aa61111c565b5b60006111b985828601611147565b92505060206111ca8582860161117f565b9150509250929050565b6000602082840312156111ea576111e961111c565b5b60006111f884828501611147565b91505092915050565b600073ffffffffffffffffffffffffffffffffffffffff82169050919050565b600061122c82611201565b9050919050565b61123c81611221565b82525050565b60006020820190506112576000830184611233565b92915050565b6112668161115c565b82525050565b6000602082019050611281600083018461125d565b92915050565b600080fd5b600080fd5b6000601f19601f8301169050919050565b7f4e487b7100000000000000000000000000000000000000000000000000000000600052604160045260246000fd5b6112da82611291565b810181811067ffffffffffffffff821117156112f9576112f86112a2565b5b80604052505050565b600061130c611112565b905061131882826112d1565b919050565b600067ffffffffffffffff821115611338576113376112a2565b5b61134182611291565b9050602081019050919050565b82818337600083830152505050565b600061137061136b8461131d565b611302565b90508281526020810184848401111561138c5761138b61128c565b5b61139784828561134e565b509392505050565b600082601f8301126113b4576113b3611287565b5b81356113c484826020860161135d565b91505092915050565b6000602082840312156113e3576113e261111c565b5b600082013567ffffffffffffffff81111561140157611400611121565b5b61140d8482850161139f565b91505092915050565b600081519050919050565b600082825260208201905092915050565b60005b83811015611450578082015181840152602081019050611435565b8381111561145f576000848401525b50505050565b600061147082611416565b61147a8185611421565b935061148a818560208601611432565b61149381611291565b840191505092915050565b600060ff82169050919050565b6114b48161149e565b82525050565b600060e08301600083015184820360008601526114d78282611465565b915050602083015184820360208601526114f18282611465565b9150506040830151848203604086015261150b8282611465565b915050606083015184820360608601526115258282611465565b9150506080830151848203608086015261153f8282611465565b91505060a083015184820360a08601526115598282611465565b91505060c083015161156e60c08601826114ab565b508091505092915050565b6000602082019050818103600083015261159381846114ba565b905092915050565b6115a48161149e565b81146115af57600080fd5b50565b6000813590506115c18161159b565b92915050565b600080604083850312156115de576115dd61111c565b5b60006115ec85828601611147565b92505060206115fd858286016115b2565b9150509250929050565b6116108161149e565b82525050565b6000604082019050818103600083015261163081856114ba565b905061163f6020830184611607565b9392505050565b61164f81611221565b811461165a57600080fd5b50565b60008135905061166c81611646565b92915050565b6000602082840312156116885761168761111c565b5b60006116968482850161165d565b91505092915050565b600080604083850312156116b6576116b561111c565b5b60006116c485828601611147565b925050602083013567ffffffffffffffff8111156116e5576116e4611121565b5b6116f18582860161139f565b9150509250929050565b600082825260208201905092915050565b7f4f776e61626c653a2063616c6c6572206973206e6f7420746865206f776e6572600082015250565b60006117426020836116fb565b915061174d8261170c565b602082019050919050565b6000602082019050818103600083015261177181611735565b9050919050565b7f4e487b7100000000000000000000000000000000000000000000000000000000600052601160045260246000fd5b60006117b282611126565b91506117bd83611126565b9250827fffffffffffffffffffffffffffffffffffffffffffffffffffffffffffffffff038211156117f2576117f1611778565b5b828201905092915050565b600081905092915050565b600061181382611416565b61181d81856117fd565b935061182d818560208601611432565b80840191505092915050565b6000819050919050565b6000819050919050565b61185e61185982611839565b611843565b82525050565b60006118708285611808565b915061187c828461184d565b6020820191508190509392505050565b7f4e487b7100000000000000000000000000000000000000000000000000000000600052601260045260246000fd5b60006118c682611126565b91506118d183611126565b9250826118e1576118e061188c565b5b828206905092915050565b7f4e487b7100000000000000000000000000000000000000000000000000000000600052603260045260246000fd5b7f4e487b7100000000000000000000000000000000000000000000000000000000600052602260045260246000fd5b6000600282049050600182168061196257607f821691505b6020821081036119755761197461191b565b5b50919050565b60008190508160005260206000209050919050565b6000815461199d8161194a565b6119a78186611421565b945060018216600081146119c257600181146119d457611a07565b60ff1983168652602086019350611a07565b6119dd8561197b565b60005b838110156119ff578154818901526001820191506020810190506119e0565b808801955050505b50505092915050565b60008160001c9050919050565b600060ff82169050919050565b6000611a3d611a3883611a10565b611a1d565b9050919050565b600060e0830160008084018583036000870152611a618382611990565b925050600184018583036020870152611a7a8382611990565b925050600284018583036040870152611a938382611990565b925050600384018583036060870152611aac8382611990565b925050600484018583036080870152611ac58382611990565b9250506005840185830360a0870152611ade8382611990565b92505060068401549050611af181611a2a565b611afe60c08701826114ab565b50819250505092915050565b60006040820190508181036000830152611b248185611a44565b9050611b336020830184611607565b9392505050565b7f4f776e61626c653a206e6577206f776e657220697320746865207a65726f206160008201527f6464726573730000000000000000000000000000000000000000000000000000602082015250565b6000611b966026836116fb565b9150611ba182611b3a565b604082019050919050565b60006020820190508181036000830152611bc581611b89565b905091905056fea2646970667358221220b528573dc0ec739f3068e62602480f316d06e77c3db2b556f2a1c81b6370db2064736f6c634300080e0033",
					"opcodes": "PUSH1 0x80 PUSH1 0x40 MSTORE CALLVALUE DUP1 ISZERO PUSH2 0x10 JUMPI PUSH1 0x0 DUP1 REVERT JUMPDEST POP PUSH2 0x2D PUSH2 0x22 PUSH2 0x32 PUSH1 0x20 SHL PUSH1 0x20 SHR JUMP JUMPDEST PUSH2 0x3A PUSH1 0x20 SHL PUSH1 0x20 SHR JUMP JUMPDEST PUSH2 0xFE JUMP JUMPDEST PUSH1 0x0 CALLER SWAP1 POP SWAP1 JUMP JUMPDEST PUSH1 0x0 DUP1 PUSH1 0x0 SWAP1 SLOAD SWAP1 PUSH2 0x100 EXP SWAP1 DIV PUSH20 0xFFFFFFFFFFFFFFFFFFFFFFFFFFFFFFFFFFFFFFFF AND SWAP1 POP DUP2 PUSH1 0x0 DUP1 PUSH2 0x100 EXP DUP2 SLOAD DUP2 PUSH20 0xFFFFFFFFFFFFFFFFFFFFFFFFFFFFFFFFFFFFFFFF MUL NOT AND SWAP1 DUP4 PUSH20 0xFFFFFFFFFFFFFFFFFFFFFFFFFFFFFFFFFFFFFFFF AND MUL OR SWAP1 SSTORE POP DUP2 PUSH20 0xFFFFFFFFFFFFFFFFFFFFFFFFFFFFFFFFFFFFFFFF AND DUP2 PUSH20 0xFFFFFFFFFFFFFFFFFFFFFFFFFFFFFFFFFFFFFFFF AND PUSH32 0x8BE0079C531659141344CD1FD0A4F28419497F9722A3DAAFE3B4186F6B6457E0 PUSH1 0x40 MLOAD PUSH1 0x40 MLOAD DUP1 SWAP2 SUB SWAP1 LOG3 POP POP JUMP JUMPDEST PUSH2 0x1C02 DUP1 PUSH2 0x10D PUSH1 0x0 CODECOPY PUSH1 0x0 RETURN INVALID PUSH1 0x80 PUSH1 0x40 MSTORE CALLVALUE DUP1 ISZERO PUSH2 0x10 JUMPI PUSH1 0x0 DUP1 REVERT JUMPDEST POP PUSH1 0x4 CALLDATASIZE LT PUSH2 0xA9 JUMPI PUSH1 0x0 CALLDATALOAD PUSH1 0xE0 SHR DUP1 PUSH4 0x728B0D87 GT PUSH2 0x71 JUMPI DUP1 PUSH4 0x728B0D87 EQ PUSH2 0x150 JUMPI DUP1 PUSH4 0x8DA5CB5B EQ PUSH2 0x180 JUMPI DUP1 PUSH4 0xA70434B3 EQ PUSH2 0x19E JUMPI DUP1 PUSH4 0xB9360CF1 EQ PUSH2 0x1BA JUMPI DUP1 PUSH4 0xF2FDE38B EQ PUSH2 0x1EB JUMPI DUP1 PUSH4 0xFBB3B6CE EQ PUSH2 0x207 JUMPI PUSH2 0xA9 JUMP JUMPDEST DUP1 PUSH4 0x1D3F7559 EQ PUSH2 0xAE JUMPI DUP1 PUSH4 0x377DEF85 EQ PUSH2 0xCA JUMPI DUP1 PUSH4 0x400AE0F9 EQ PUSH2 0xE6 JUMPI DUP1 PUSH4 0x51A1D40E EQ PUSH2 0x116 JUMPI DUP1 PUSH4 0x715018A6 EQ PUSH2 0x146 JUMPI JUMPDEST PUSH1 0x0 DUP1 REVERT JUMPDEST PUSH2 0xC8 PUSH1 0x4 DUP1 CALLDATASIZE SUB DUP2 ADD SWAP1 PUSH2 0xC3 SWAP2 SWAP1 PUSH2 0x1194 JUMP JUMPDEST PUSH2 0x223 JUMP JUMPDEST STOP JUMPDEST PUSH2 0xE4 PUSH1 0x4 DUP1 CALLDATASIZE SUB DUP2 ADD SWAP1 PUSH2 0xDF SWAP2 SWAP1 PUSH2 0x1194 JUMP JUMPDEST PUSH2 0x2CE JUMP JUMPDEST STOP JUMPDEST PUSH2 0x100 PUSH1 0x4 DUP1 CALLDATASIZE SUB DUP2 ADD SWAP1 PUSH2 0xFB SWAP2 SWAP1 PUSH2 0x11D4 JUMP JUMPDEST PUSH2 0x36A JUMP JUMPDEST PUSH1 0x40 MLOAD PUSH2 0x10D SWAP2 SWAP1 PUSH2 0x1242 JUMP JUMPDEST PUSH1 0x40 MLOAD DUP1 SWAP2 SUB SWAP1 RETURN JUMPDEST PUSH2 0x130 PUSH1 0x4 DUP1 CALLDATASIZE SUB DUP2 ADD SWAP1 PUSH2 0x12B SWAP2 SWAP1 PUSH2 0x11D4 JUMP JUMPDEST PUSH2 0x39D JUMP JUMPDEST PUSH1 0x40 MLOAD PUSH2 0x13D SWAP2 SWAP1 PUSH2 0x126C JUMP JUMPDEST PUSH1 0x40 MLOAD DUP1 SWAP2 SUB SWAP1 RETURN JUMPDEST PUSH2 0x14E PUSH2 0x3BD JUMP JUMPDEST STOP JUMPDEST PUSH2 0x16A PUSH1 0x4 DUP1 CALLDATASIZE SUB DUP2 ADD SWAP1 PUSH2 0x165 SWAP2 SWAP1 PUSH2 0x13CD JUMP JUMPDEST PUSH2 0x445 JUMP JUMPDEST PUSH1 0x40 MLOAD PUSH2 0x177 SWAP2 SWAP1 PUSH2 0x1579 JUMP JUMPDEST PUSH1 0x40 MLOAD DUP1 SWAP2 SUB SWAP1 RETURN JUMPDEST PUSH2 0x188 PUSH2 0x8A1 JUMP JUMPDEST PUSH1 0x40 MLOAD PUSH2 0x195 SWAP2 SWAP1 PUSH2 0x1242 JUMP JUMPDEST PUSH1 0x40 MLOAD DUP1 SWAP2 SUB SWAP1 RETURN JUMPDEST PUSH2 0x1B8 PUSH1 0x4 DUP1 CALLDATASIZE SUB DUP2 ADD SWAP1 PUSH2 0x1B3 SWAP2 SWAP1 PUSH2 0x15C7 JUMP JUMPDEST PUSH2 0x8CA JUMP JUMPDEST STOP JUMPDEST PUSH2 0x1D4 PUSH1 0x4 DUP1 CALLDATASIZE SUB DUP2 ADD SWAP1 PUSH2 0x1CF SWAP2 SWAP1 PUSH2 0x11D4 JUMP JUMPDEST PUSH2 0x8ED JUMP JUMPDEST PUSH1 0x40 MLOAD PUSH2 0x1E2 SWAP3 SWAP2 SWAP1 PUSH2 0x1616 JUMP JUMPDEST PUSH1 0x40 MLOAD DUP1 SWAP2 SUB SWAP1 RETURN JUMPDEST PUSH2 0x205 PUSH1 0x4 DUP1 CALLDATASIZE SUB DUP2 ADD SWAP1 PUSH2 0x200 SWAP2 SWAP1 PUSH2 0x1672 JUMP JUMPDEST PUSH2 0xDC1 JUMP JUMPDEST STOP JUMPDEST PUSH2 0x221 PUSH1 0x4 DUP1 CALLDATASIZE SUB DUP2 ADD SWAP1 PUSH2 0x21C SWAP2 SWAP1 PUSH2 0x169F JUMP JUMPDEST PUSH2 0xEB8 JUMP JUMPDEST STOP JUMPDEST PUSH2 0x22B PUSH2 0xF63 JUMP JUMPDEST PUSH20 0xFFFFFFFFFFFFFFFFFFFFFFFFFFFFFFFFFFFFFFFF AND PUSH2 0x249 PUSH2 0x8A1 JUMP JUMPDEST PUSH20 0xFFFFFFFFFFFFFFFFFFFFFFFFFFFFFFFFFFFFFFFF AND EQ PUSH2 0x29F JUMPI PUSH1 0x40 MLOAD PUSH32 0x8C379A000000000000000000000000000000000000000000000000000000000 DUP2 MSTORE PUSH1 0x4 ADD PUSH2 0x296 SWAP1 PUSH2 0x1758 JUMP JUMPDEST PUSH1 0x40 MLOAD DUP1 SWAP2 SUB SWAP1 REVERT JUMPDEST DUP1 PUSH1 0x2 PUSH1 0x0 DUP5 DUP2 MSTORE PUSH1 0x20 ADD SWAP1 DUP2 MSTORE PUSH1 0x20 ADD PUSH1 0x0 KECCAK256 PUSH1 0x0 PUSH2 0x100 EXP DUP2 SLOAD DUP2 PUSH1 0xFF MUL NOT AND SWAP1 DUP4 ISZERO ISZERO MUL OR SWAP1 SSTORE POP POP POP JUMP JUMPDEST DUP2 CALLER PUSH20 0xFFFFFFFFFFFFFFFFFFFFFFFFFFFFFFFFFFFFFFFF AND PUSH1 0x4 PUSH1 0x0 DUP4 DUP2 MSTORE PUSH1 0x20 ADD SWAP1 DUP2 MSTORE PUSH1 0x20 ADD PUSH1 0x0 KECCAK256 PUSH1 0x0 SWAP1 SLOAD SWAP1 PUSH2 0x100 EXP SWAP1 DIV PUSH20 0xFFFFFFFFFFFFFFFFFFFFFFFFFFFFFFFFFFFFFFFF AND PUSH20 0xFFFFFFFFFFFFFFFFFFFFFFFFFFFFFFFFFFFFFFFF AND EQ PUSH2 0x33A JUMPI PUSH1 0x0 DUP1 REVERT JUMPDEST DUP2 PUSH1 0x2 PUSH1 0x0 DUP6 DUP2 MSTORE PUSH1 0x20 ADD SWAP1 DUP2 MSTORE PUSH1 0x20 ADD PUSH1 0x0 KECCAK256 PUSH1 0x0 PUSH2 0x100 EXP DUP2 SLOAD DUP2 PUSH1 0xFF MUL NOT AND SWAP1 DUP4 ISZERO ISZERO MUL OR SWAP1 SSTORE POP POP POP POP JUMP JUMPDEST PUSH1 0x4 PUSH1 0x20 MSTORE DUP1 PUSH1 0x0 MSTORE PUSH1 0x40 PUSH1 0x0 KECCAK256 PUSH1 0x0 SWAP2 POP SLOAD SWAP1 PUSH2 0x100 EXP SWAP1 DIV PUSH20 0xFFFFFFFFFFFFFFFFFFFFFFFFFFFFFFFFFFFFFFFF AND DUP2 JUMP JUMPDEST PUSH1 0x2 PUSH1 0x20 MSTORE DUP1 PUSH1 0x0 MSTORE PUSH1 0x40 PUSH1 0x0 KECCAK256 PUSH1 0x0 SWAP2 POP SLOAD SWAP1 PUSH2 0x100 EXP SWAP1 DIV PUSH1 0xFF AND DUP2 JUMP JUMPDEST PUSH2 0x3C5 PUSH2 0xF63 JUMP JUMPDEST PUSH20 0xFFFFFFFFFFFFFFFFFFFFFFFFFFFFFFFFFFFFFFFF AND PUSH2 0x3E3 PUSH2 0x8A1 JUMP JUMPDEST PUSH20 0xFFFFFFFFFFFFFFFFFFFFFFFFFFFFFFFFFFFFFFFF AND EQ PUSH2 0x439 JUMPI PUSH1 0x40 MLOAD PUSH32 0x8C379A000000000000000000000000000000000000000000000000000000000 DUP2 MSTORE PUSH1 0x4 ADD PUSH2 0x430 SWAP1 PUSH2 0x1758 JUMP JUMPDEST PUSH1 0x40 MLOAD DUP1 SWAP2 SUB SWAP1 REVERT JUMPDEST PUSH2 0x443 PUSH1 0x0 PUSH2 0xF6B JUMP JUMPDEST JUMP JUMPDEST PUSH2 0x44D PUSH2 0x102F JUMP JUMPDEST PUSH1 0x0 PUSH1 0x1 NUMBER PUSH2 0x45C SWAP2 SWAP1 PUSH2 0x17A7 JUMP JUMPDEST SWAP1 POP PUSH1 0x0 DUP4 DUP3 BLOCKHASH PUSH1 0x40 MLOAD PUSH1 0x20 ADD PUSH2 0x474 SWAP3 SWAP2 SWAP1 PUSH2 0x1864 JUMP JUMPDEST PUSH1 0x40 MLOAD PUSH1 0x20 DUP2 DUP4 SUB SUB DUP2 MSTORE SWAP1 PUSH1 0x40 MSTORE DUP1 MLOAD SWAP1 PUSH1 0x20 ADD KECCAK256 PUSH1 0x0 SHR SWAP1 POP PUSH1 0x0 PUSH1 0x1 DUP1 SLOAD SWAP1 POP DUP3 PUSH2 0x4A2 SWAP2 SWAP1 PUSH2 0x18BB JUMP JUMPDEST SWAP1 POP PUSH1 0x0 PUSH1 0x1 DUP3 DUP2 SLOAD DUP2 LT PUSH2 0x4BA JUMPI PUSH2 0x4B9 PUSH2 0x18EC JUMP JUMPDEST JUMPDEST SWAP1 PUSH1 0x0 MSTORE PUSH1 0x20 PUSH1 0x0 KECCAK256 SWAP1 PUSH1 0x7 MUL ADD PUSH1 0x40 MLOAD DUP1 PUSH1 0xE0 ADD PUSH1 0x40 MSTORE SWAP1 DUP2 PUSH1 0x0 DUP3 ADD DUP1 SLOAD PUSH2 0x4E3 SWAP1 PUSH2 0x194A JUMP JUMPDEST DUP1 PUSH1 0x1F ADD PUSH1 0x20 DUP1 SWAP2 DIV MUL PUSH1 0x20 ADD PUSH1 0x40 MLOAD SWAP1 DUP2 ADD PUSH1 0x40 MSTORE DUP1 SWAP3 SWAP2 SWAP1 DUP2 DUP2 MSTORE PUSH1 0x20 ADD DUP3 DUP1 SLOAD PUSH2 0x50F SWAP1 PUSH2 0x194A JUMP JUMPDEST DUP1 ISZERO PUSH2 0x55C JUMPI DUP1 PUSH1 0x1F LT PUSH2 0x531 JUMPI PUSH2 0x100 DUP1 DUP4 SLOAD DIV MUL DUP4 MSTORE SWAP2 PUSH1 0x20 ADD SWAP2 PUSH2 0x55C JUMP JUMPDEST DUP3 ADD SWAP2 SWAP1 PUSH1 0x0 MSTORE PUSH1 0x20 PUSH1 0x0 KECCAK256 SWAP1 JUMPDEST DUP2 SLOAD DUP2 MSTORE SWAP1 PUSH1 0x1 ADD SWAP1 PUSH1 0x20 ADD DUP1 DUP4 GT PUSH2 0x53F JUMPI DUP3 SWAP1 SUB PUSH1 0x1F AND DUP3 ADD SWAP2 JUMPDEST POP POP POP POP POP DUP2 MSTORE PUSH1 0x20 ADD PUSH1 0x1 DUP3 ADD DUP1 SLOAD PUSH2 0x575 SWAP1 PUSH2 0x194A JUMP JUMPDEST DUP1 PUSH1 0x1F ADD PUSH1 0x20 DUP1 SWAP2 DIV MUL PUSH1 0x20 ADD PUSH1 0x40 MLOAD SWAP1 DUP2 ADD PUSH1 0x40 MSTORE DUP1 SWAP3 SWAP2 SWAP1 DUP2 DUP2 MSTORE PUSH1 0x20 ADD DUP3 DUP1 SLOAD PUSH2 0x5A1 SWAP1 PUSH2 0x194A JUMP JUMPDEST DUP1 ISZERO PUSH2 0x5EE JUMPI DUP1 PUSH1 0x1F LT PUSH2 0x5C3 JUMPI PUSH2 0x100 DUP1 DUP4 SLOAD DIV MUL DUP4 MSTORE SWAP2 PUSH1 0x20 ADD SWAP2 PUSH2 0x5EE JUMP JUMPDEST DUP3 ADD SWAP2 SWAP1 PUSH1 0x0 MSTORE PUSH1 0x20 PUSH1 0x0 KECCAK256 SWAP1 JUMPDEST DUP2 SLOAD DUP2 MSTORE SWAP1 PUSH1 0x1 ADD SWAP1 PUSH1 0x20 ADD DUP1 DUP4 GT PUSH2 0x5D1 JUMPI DUP3 SWAP1 SUB PUSH1 0x1F AND DUP3 ADD SWAP2 JUMPDEST POP POP POP POP POP DUP2 MSTORE PUSH1 0x20 ADD PUSH1 0x2 DUP3 ADD DUP1 SLOAD PUSH2 0x607 SWAP1 PUSH2 0x194A JUMP JUMPDEST DUP1 PUSH1 0x1F ADD PUSH1 0x20 DUP1 SWAP2 DIV MUL PUSH1 0x20 ADD PUSH1 0x40 MLOAD SWAP1 DUP2 ADD PUSH1 0x40 MSTORE DUP1 SWAP3 SWAP2 SWAP1 DUP2 DUP2 MSTORE PUSH1 0x20 ADD DUP3 DUP1 SLOAD PUSH2 0x633 SWAP1 PUSH2 0x194A JUMP JUMPDEST DUP1 ISZERO PUSH2 0x680 JUMPI DUP1 PUSH1 0x1F LT PUSH2 0x655 JUMPI PUSH2 0x100 DUP1 DUP4 SLOAD DIV MUL DUP4 MSTORE SWAP2 PUSH1 0x20 ADD SWAP2 PUSH2 0x680 JUMP JUMPDEST DUP3 ADD SWAP2 SWAP1 PUSH1 0x0 MSTORE PUSH1 0x20 PUSH1 0x0 KECCAK256 SWAP1 JUMPDEST DUP2 SLOAD DUP2 MSTORE SWAP1 PUSH1 0x1 ADD SWAP1 PUSH1 0x20 ADD DUP1 DUP4 GT PUSH2 0x663 JUMPI DUP3 SWAP1 SUB PUSH1 0x1F AND DUP3 ADD SWAP2 JUMPDEST POP POP POP POP POP DUP2 MSTORE PUSH1 0x20 ADD PUSH1 0x3 DUP3 ADD DUP1 SLOAD PUSH2 0x699 SWAP1 PUSH2 0x194A JUMP JUMPDEST DUP1 PUSH1 0x1F ADD PUSH1 0x20 DUP1 SWAP2 DIV MUL PUSH1 0x20 ADD PUSH1 0x40 MLOAD SWAP1 DUP2 ADD PUSH1 0x40 MSTORE DUP1 SWAP3 SWAP2 SWAP1 DUP2 DUP2 MSTORE PUSH1 0x20 ADD DUP3 DUP1 SLOAD PUSH2 0x6C5 SWAP1 PUSH2 0x194A JUMP JUMPDEST DUP1 ISZERO PUSH2 0x712 JUMPI DUP1 PUSH1 0x1F LT PUSH2 0x6E7 JUMPI PUSH2 0x100 DUP1 DUP4 SLOAD DIV MUL DUP4 MSTORE SWAP2 PUSH1 0x20 ADD SWAP2 PUSH2 0x712 JUMP JUMPDEST DUP3 ADD SWAP2 SWAP1 PUSH1 0x0 MSTORE PUSH1 0x20 PUSH1 0x0 KECCAK256 SWAP1 JUMPDEST DUP2 SLOAD DUP2 MSTORE SWAP1 PUSH1 0x1 ADD SWAP1 PUSH1 0x20 ADD DUP1 DUP4 GT PUSH2 0x6F5 JUMPI DUP3 SWAP1 SUB PUSH1 0x1F AND DUP3 ADD SWAP2 JUMPDEST POP POP POP POP POP DUP2 MSTORE PUSH1 0x20 ADD PUSH1 0x4 DUP3 ADD DUP1 SLOAD PUSH2 0x72B SWAP1 PUSH2 0x194A JUMP JUMPDEST DUP1 PUSH1 0x1F ADD PUSH1 0x20 DUP1 SWAP2 DIV MUL PUSH1 0x20 ADD PUSH1 0x40 MLOAD SWAP1 DUP2 ADD PUSH1 0x40 MSTORE DUP1 SWAP3 SWAP2 SWAP1 DUP2 DUP2 MSTORE PUSH1 0x20 ADD DUP3 DUP1 SLOAD PUSH2 0x757 SWAP1 PUSH2 0x194A JUMP JUMPDEST DUP1 ISZERO PUSH2 0x7A4 JUMPI DUP1 PUSH1 0x1F LT PUSH2 0x779 JUMPI PUSH2 0x100 DUP1 DUP4 SLOAD DIV MUL DUP4 MSTORE SWAP2 PUSH1 0x20 ADD SWAP2 PUSH2 0x7A4 JUMP JUMPDEST DUP3 ADD SWAP2 SWAP1 PUSH1 0x0 MSTORE PUSH1 0x20 PUSH1 0x0 KECCAK256 SWAP1 JUMPDEST DUP2 SLOAD DUP2 MSTORE SWAP1 PUSH1 0x1 ADD SWAP1 PUSH1 0x20 ADD DUP1 DUP4 GT PUSH2 0x787 JUMPI DUP3 SWAP1 SUB PUSH1 0x1F AND DUP3 ADD SWAP2 JUMPDEST POP POP POP POP POP DUP2 MSTORE PUSH1 0x20 ADD PUSH1 0x5 DUP3 ADD DUP1 SLOAD PUSH2 0x7BD SWAP1 PUSH2 0x194A JUMP JUMPDEST DUP1 PUSH1 0x1F ADD PUSH1 0x20 DUP1 SWAP2 DIV MUL PUSH1 0x20 ADD PUSH1 0x40 MLOAD SWAP1 DUP2 ADD PUSH1 0x40 MSTORE DUP1 SWAP3 SWAP2 SWAP1 DUP2 DUP2 MSTORE PUSH1 0x20 ADD DUP3 DUP1 SLOAD PUSH2 0x7E9 SWAP1 PUSH2 0x194A JUMP JUMPDEST DUP1 ISZERO PUSH2 0x836 JUMPI DUP1 PUSH1 0x1F LT PUSH2 0x80B JUMPI PUSH2 0x100 DUP1 DUP4 SLOAD DIV MUL DUP4 MSTORE SWAP2 PUSH1 0x20 ADD SWAP2 PUSH2 0x836 JUMP JUMPDEST DUP3 ADD SWAP2 SWAP1 PUSH1 0x0 MSTORE PUSH1 0x20 PUSH1 0x0 KECCAK256 SWAP1 JUMPDEST DUP2 SLOAD DUP2 MSTORE SWAP1 PUSH1 0x1 ADD SWAP1 PUSH1 0x20 ADD DUP1 DUP4 GT PUSH2 0x819 JUMPI DUP3 SWAP1 SUB PUSH1 0x1F AND DUP3 ADD SWAP2 JUMPDEST POP POP POP POP POP DUP2 MSTORE PUSH1 0x20 ADD PUSH1 0x6 DUP3 ADD PUSH1 0x0 SWAP1 SLOAD SWAP1 PUSH2 0x100 EXP SWAP1 DIV PUSH1 0xFF AND PUSH1 0xFF AND PUSH1 0xFF AND DUP2 MSTORE POP POP SWAP1 POP PUSH32 0x9E761CCDBC51177B48B7089874745300BB2C5F97582F257CA78ECA6F245E4D57 DUP2 PUSH1 0x40 MLOAD PUSH2 0x88D SWAP2 SWAP1 PUSH2 0x1579 JUMP JUMPDEST PUSH1 0x40 MLOAD DUP1 SWAP2 SUB SWAP1 LOG1 DUP1 SWAP5 POP POP POP POP POP SWAP2 SWAP1 POP JUMP JUMPDEST PUSH1 0x0 DUP1 PUSH1 0x0 SWAP1 SLOAD SWAP1 PUSH2 0x100 EXP SWAP1 DIV PUSH20 0xFFFFFFFFFFFFFFFFFFFFFFFFFFFFFFFFFFFFFFFF AND SWAP1 POP SWAP1 JUMP JUMPDEST PUSH1 0x3 PUSH1 0x0 DUP4 DUP2 MSTORE PUSH1 0x20 ADD SWAP1 DUP2 MSTORE PUSH1 0x20 ADD PUSH1 0x0 KECCAK256 PUSH1 0x0 SWAP1 SLOAD SWAP1 PUSH2 0x100 EXP SWAP1 POP POP POP POP JUMP JUMPDEST PUSH2 0x8F5 PUSH2 0x102F JUMP JUMPDEST PUSH1 0x0 DUP3 CALLER PUSH20 0xFFFFFFFFFFFFFFFFFFFFFFFFFFFFFFFFFFFFFFFF AND PUSH1 0x4 PUSH1 0x0 DUP4 DUP2 MSTORE PUSH1 0x20 ADD SWAP1 DUP2 MSTORE PUSH1 0x20 ADD PUSH1 0x0 KECCAK256 PUSH1 0x0 SWAP1 SLOAD SWAP1 PUSH2 0x100 EXP SWAP1 DIV PUSH20 0xFFFFFFFFFFFFFFFFFFFFFFFFFFFFFFFFFFFFFFFF AND PUSH20 0xFFFFFFFFFFFFFFFFFFFFFFFFFFFFFFFFFFFFFFFF AND EQ PUSH2 0x963 JUMPI PUSH1 0x0 DUP1 REVERT JUMPDEST PUSH32 0xFA122AC12F9FAB92C2A3BCF05C23B0449C2426FC1425BE35EE098A206F91621E PUSH1 0x1 DUP6 DUP2 SLOAD DUP2 LT PUSH2 0x998 JUMPI PUSH2 0x997 PUSH2 0x18EC JUMP JUMPDEST JUMPDEST SWAP1 PUSH1 0x0 MSTORE PUSH1 0x20 PUSH1 0x0 KECCAK256 SWAP1 PUSH1 0x7 MUL ADD PUSH1 0x3 PUSH1 0x0 DUP8 DUP2 MSTORE PUSH1 0x20 ADD SWAP1 DUP2 MSTORE PUSH1 0x20 ADD PUSH1 0x0 KECCAK256 PUSH1 0x0 SWAP1 SLOAD SWAP1 PUSH2 0x100 EXP SWAP1 DIV PUSH1 0xFF AND PUSH1 0x40 MLOAD PUSH2 0x9D5 SWAP3 SWAP2 SWAP1 PUSH2 0x1B0A JUMP JUMPDEST PUSH1 0x40 MLOAD DUP1 SWAP2 SUB SWAP1 LOG1 PUSH1 0x1 DUP5 DUP2 SLOAD DUP2 LT PUSH2 0x9F1 JUMPI PUSH2 0x9F0 PUSH2 0x18EC JUMP JUMPDEST JUMPDEST SWAP1 PUSH1 0x0 MSTORE PUSH1 0x20 PUSH1 0x0 KECCAK256 SWAP1 PUSH1 0x7 MUL ADD PUSH1 0x3 PUSH1 0x0 DUP7 DUP2 MSTORE PUSH1 0x20 ADD SWAP1 DUP2 MSTORE PUSH1 0x20 ADD PUSH1 0x0 KECCAK256 PUSH1 0x0 SWAP1 SLOAD SWAP1 PUSH2 0x100 EXP SWAP1 DIV PUSH1 0xFF AND DUP2 PUSH1 0x40 MLOAD DUP1 PUSH1 0xE0 ADD PUSH1 0x40 MSTORE SWAP1 DUP2 PUSH1 0x0 DUP3 ADD DUP1 SLOAD PUSH2 0xA3C SWAP1 PUSH2 0x194A JUMP JUMPDEST DUP1 PUSH1 0x1F ADD PUSH1 0x20 DUP1 SWAP2 DIV MUL PUSH1 0x20 ADD PUSH1 0x40 MLOAD SWAP1 DUP2 ADD PUSH1 0x40 MSTORE DUP1 SWAP3 SWAP2 SWAP1 DUP2 DUP2 MSTORE PUSH1 0x20 ADD DUP3 DUP1 SLOAD PUSH2 0xA68 SWAP1 PUSH2 0x194A JUMP JUMPDEST DUP1 ISZERO PUSH2 0xAB5 JUMPI DUP1 PUSH1 0x1F LT PUSH2 0xA8A JUMPI PUSH2 0x100 DUP1 DUP4 SLOAD DIV MUL DUP4 MSTORE SWAP2 PUSH1 0x20 ADD SWAP2 PUSH2 0xAB5 JUMP JUMPDEST DUP3 ADD SWAP2 SWAP1 PUSH1 0x0 MSTORE PUSH1 0x20 PUSH1 0x0 KECCAK256 SWAP1 JUMPDEST DUP2 SLOAD DUP2 MSTORE SWAP1 PUSH1 0x1 ADD SWAP1 PUSH1 0x20 ADD DUP1 DUP4 GT PUSH2 0xA98 JUMPI DUP3 SWAP1 SUB PUSH1 0x1F AND DUP3 ADD SWAP2 JUMPDEST POP POP POP POP POP DUP2 MSTORE PUSH1 0x20 ADD PUSH1 0x1 DUP3 ADD DUP1 SLOAD PUSH2 0xACE SWAP1 PUSH2 0x194A JUMP JUMPDEST DUP1 PUSH1 0x1F ADD PUSH1 0x20 DUP1 SWAP2 DIV MUL PUSH1 0x20 ADD PUSH1 0x40 MLOAD SWAP1 DUP2 ADD PUSH1 0x40 MSTORE DUP1 SWAP3 SWAP2 SWAP1 DUP2 DUP2 MSTORE PUSH1 0x20 ADD DUP3 DUP1 SLOAD PUSH2 0xAFA SWAP1 PUSH2 0x194A JUMP JUMPDEST DUP1 ISZERO PUSH2 0xB47 JUMPI DUP1 PUSH1 0x1F LT PUSH2 0xB1C JUMPI PUSH2 0x100 DUP1 DUP4 SLOAD DIV MUL DUP4 MSTORE SWAP2 PUSH1 0x20 ADD SWAP2 PUSH2 0xB47 JUMP JUMPDEST DUP3 ADD SWAP2 SWAP1 PUSH1 0x0 MSTORE PUSH1 0x20 PUSH1 0x0 KECCAK256 SWAP1 JUMPDEST DUP2 SLOAD DUP2 MSTORE SWAP1 PUSH1 0x1 ADD SWAP1 PUSH1 0x20 ADD DUP1 DUP4 GT PUSH2 0xB2A JUMPI DUP3 SWAP1 SUB PUSH1 0x1F AND DUP3 ADD SWAP2 JUMPDEST POP POP POP POP POP DUP2 MSTORE PUSH1 0x20 ADD PUSH1 0x2 DUP3 ADD DUP1 SLOAD PUSH2 0xB60 SWAP1 PUSH2 0x194A JUMP JUMPDEST DUP1 PUSH1 0x1F ADD PUSH1 0x20 DUP1 SWAP2 DIV MUL PUSH1 0x20 ADD PUSH1 0x40 MLOAD SWAP1 DUP2 ADD PUSH1 0x40 MSTORE DUP1 SWAP3 SWAP2 SWAP1 DUP2 DUP2 MSTORE PUSH1 0x20 ADD DUP3 DUP1 SLOAD PUSH2 0xB8C SWAP1 PUSH2 0x194A JUMP JUMPDEST DUP1 ISZERO PUSH2 0xBD9 JUMPI DUP1 PUSH1 0x1F LT PUSH2 0xBAE JUMPI PUSH2 0x100 DUP1 DUP4 SLOAD DIV MUL DUP4 MSTORE SWAP2 PUSH1 0x20 ADD SWAP2 PUSH2 0xBD9 JUMP JUMPDEST DUP3 ADD SWAP2 SWAP1 PUSH1 0x0 MSTORE PUSH1 0x20 PUSH1 0x0 KECCAK256 SWAP1 JUMPDEST DUP2 SLOAD DUP2 MSTORE SWAP1 PUSH1 0x1 ADD SWAP1 PUSH1 0x20 ADD DUP1 DUP4 GT PUSH2 0xBBC JUMPI DUP3 SWAP1 SUB PUSH1 0x1F AND DUP3 ADD SWAP2 JUMPDEST POP POP POP POP POP DUP2 MSTORE PUSH1 0x20 ADD PUSH1 0x3 DUP3 ADD DUP1 SLOAD PUSH2 0xBF2 SWAP1 PUSH2 0x194A JUMP JUMPDEST DUP1 PUSH1 0x1F ADD PUSH1 0x20 DUP1 SWAP2 DIV MUL PUSH1 0x20 ADD PUSH1 0x40 MLOAD SWAP1 DUP2 ADD PUSH1 0x40 MSTORE DUP1 SWAP3 SWAP2 SWAP1 DUP2 DUP2 MSTORE PUSH1 0x20 ADD DUP3 DUP1 SLOAD PUSH2 0xC1E SWAP1 PUSH2 0x194A JUMP JUMPDEST DUP1 ISZERO PUSH2 0xC6B JUMPI DUP1 PUSH1 0x1F LT PUSH2 0xC40 JUMPI PUSH2 0x100 DUP1 DUP4 SLOAD DIV MUL DUP4 MSTORE SWAP2 PUSH1 0x20 ADD SWAP2 PUSH2 0xC6B JUMP JUMPDEST DUP3 ADD SWAP2 SWAP1 PUSH1 0x0 MSTORE PUSH1 0x20 PUSH1 0x0 KECCAK256 SWAP1 JUMPDEST DUP2 SLOAD DUP2 MSTORE SWAP1 PUSH1 0x1 ADD SWAP1 PUSH1 0x20 ADD DUP1 DUP4 GT PUSH2 0xC4E JUMPI DUP3 SWAP1 SUB PUSH1 0x1F AND DUP3 ADD SWAP2 JUMPDEST POP POP POP POP POP DUP2 MSTORE PUSH1 0x20 ADD PUSH1 0x4 DUP3 ADD DUP1 SLOAD PUSH2 0xC84 SWAP1 PUSH2 0x194A JUMP JUMPDEST DUP1 PUSH1 0x1F ADD PUSH1 0x20 DUP1 SWAP2 DIV MUL PUSH1 0x20 ADD PUSH1 0x40 MLOAD SWAP1 DUP2 ADD PUSH1 0x40 MSTORE DUP1 SWAP3 SWAP2 SWAP1 DUP2 DUP2 MSTORE PUSH1 0x20 ADD DUP3 DUP1 SLOAD PUSH2 0xCB0 SWAP1 PUSH2 0x194A JUMP JUMPDEST DUP1 ISZERO PUSH2 0xCFD JUMPI DUP1 PUSH1 0x1F LT PUSH2 0xCD2 JUMPI PUSH2 0x100 DUP1 DUP4 SLOAD DIV MUL DUP4 MSTORE SWAP2 PUSH1 0x20 ADD SWAP2 PUSH2 0xCFD JUMP JUMPDEST DUP3 ADD SWAP2 SWAP1 PUSH1 0x0 MSTORE PUSH1 0x20 PUSH1 0x0 KECCAK256 SWAP1 JUMPDEST DUP2 SLOAD DUP2 MSTORE SWAP1 PUSH1 0x1 ADD SWAP1 PUSH1 0x20 ADD DUP1 DUP4 GT PUSH2 0xCE0 JUMPI DUP3 SWAP1 SUB PUSH1 0x1F AND DUP3 ADD SWAP2 JUMPDEST POP POP POP POP POP DUP2 MSTORE PUSH1 0x20 ADD PUSH1 0x5 DUP3 ADD DUP1 SLOAD PUSH2 0xD16 SWAP1 PUSH2 0x194A JUMP JUMPDEST DUP1 PUSH1 0x1F ADD PUSH1 0x20 DUP1 SWAP2 DIV MUL PUSH1 0x20 ADD PUSH1 0x40 MLOAD SWAP1 DUP2 ADD PUSH1 0x40 MSTORE DUP1 SWAP3 SWAP2 SWAP1 DUP2 DUP2 MSTORE PUSH1 0x20 ADD DUP3 DUP1 SLOAD PUSH2 0xD42 SWAP1 PUSH2 0x194A JUMP JUMPDEST DUP1 ISZERO PUSH2 0xD8F JUMPI DUP1 PUSH1 0x1F LT PUSH2 0xD64 JUMPI PUSH2 0x100 DUP1 DUP4 SLOAD DIV MUL DUP4 MSTORE SWAP2 PUSH1 0x20 ADD SWAP2 PUSH2 0xD8F JUMP JUMPDEST DUP3 ADD SWAP2 SWAP1 PUSH1 0x0 MSTORE PUSH1 0x20 PUSH1 0x0 KECCAK256 SWAP1 JUMPDEST DUP2 SLOAD DUP2 MSTORE SWAP1 PUSH1 0x1 ADD SWAP1 PUSH1 0x20 ADD DUP1 DUP4 GT PUSH2 0xD72 JUMPI DUP3 SWAP1 SUB PUSH1 0x1F AND DUP3 ADD SWAP2 JUMPDEST POP POP POP POP POP DUP2 MSTORE PUSH1 0x20 ADD PUSH1 0x6 DUP3 ADD PUSH1 0x0 SWAP1 SLOAD SWAP1 PUSH2 0x100 EXP SWAP1 DIV PUSH1 0xFF AND PUSH1 0xFF AND PUSH1 0xFF AND DUP2 MSTORE POP POP SWAP2 POP SWAP3 POP SWAP3 POP POP SWAP2 POP SWAP2 JUMP JUMPDEST PUSH2 0xDC9 PUSH2 0xF63 JUMP JUMPDEST PUSH20 0xFFFFFFFFFFFFFFFFFFFFFFFFFFFFFFFFFFFFFFFF AND PUSH2 0xDE7 PUSH2 0x8A1 JUMP JUMPDEST PUSH20 0xFFFFFFFFFFFFFFFFFFFFFFFFFFFFFFFFFFFFFFFF AND EQ PUSH2 0xE3D JUMPI PUSH1 0x40 MLOAD PUSH32 0x8C379A000000000000000000000000000000000000000000000000000000000 DUP2 MSTORE PUSH1 0x4 ADD PUSH2 0xE34 SWAP1 PUSH2 0x1758 JUMP JUMPDEST PUSH1 0x40 MLOAD DUP1 SWAP2 SUB SWAP1 REVERT JUMPDEST PUSH1 0x0 PUSH20 0xFFFFFFFFFFFFFFFFFFFFFFFFFFFFFFFFFFFFFFFF AND DUP2 PUSH20 0xFFFFFFFFFFFFFFFFFFFFFFFFFFFFFFFFFFFFFFFF AND SUB PUSH2 0xEAC JUMPI PUSH1 0x40 MLOAD PUSH32 0x8C379A000000000000000000000000000000000000000000000000000000000 DUP2 MSTORE PUSH1 0x4 ADD PUSH2 0xEA3 SWAP1 PUSH2 0x1BAC JUMP JUMPDEST PUSH1 0x40 MLOAD DUP1 SWAP2 SUB SWAP1 REVERT JUMPDEST PUSH2 0xEB5 DUP2 PUSH2 0xF6B JUMP JUMPDEST POP JUMP JUMPDEST DUP2 CALLER PUSH20 0xFFFFFFFFFFFFFFFFFFFFFFFFFFFFFFFFFFFFFFFF AND PUSH1 0x4 PUSH1 0x0 DUP4 DUP2 MSTORE PUSH1 0x20 ADD SWAP1 DUP2 MSTORE PUSH1 0x20 ADD PUSH1 0x0 KECCAK256 PUSH1 0x0 SWAP1 SLOAD SWAP1 PUSH2 0x100 EXP SWAP1 DIV PUSH20 0xFFFFFFFFFFFFFFFFFFFFFFFFFFFFFFFFFFFFFFFF AND PUSH20 0xFFFFFFFFFFFFFFFFFFFFFFFFFFFFFFFFFFFFFFFF AND EQ PUSH2 0xF24 JUMPI PUSH1 0x0 DUP1 REVERT JUMPDEST DUP2 PUSH1 0x1 DUP5 DUP2 SLOAD DUP2 LT PUSH2 0xF39 JUMPI PUSH2 0xF38 PUSH2 0x18EC JUMP JUMPDEST JUMPDEST SWAP1 PUSH1 0x0 MSTORE PUSH1 0x20 PUSH1 0x0 KECCAK256 SWAP1 PUSH1 0x7 MUL ADD PUSH1 0x5 ADD SWAP1 DUP1 MLOAD SWAP1 PUSH1 0x20 ADD SWAP1 PUSH2 0xF5D SWAP3 SWAP2 SWAP1 PUSH2 0x106F JUMP JUMPDEST POP POP POP POP JUMP JUMPDEST PUSH1 0x0 CALLER SWAP1 POP SWAP1 JUMP JUMPDEST PUSH1 0x0 DUP1 PUSH1 0x0 SWAP1 SLOAD SWAP1 PUSH2 0x100 EXP SWAP1 DIV PUSH20 0xFFFFFFFFFFFFFFFFFFFFFFFFFFFFFFFFFFFFFFFF AND SWAP1 POP DUP2 PUSH1 0x0 DUP1 PUSH2 0x100 EXP DUP2 SLOAD DUP2 PUSH20 0xFFFFFFFFFFFFFFFFFFFFFFFFFFFFFFFFFFFFFFFF MUL NOT AND SWAP1 DUP4 PUSH20 0xFFFFFFFFFFFFFFFFFFFFFFFFFFFFFFFFFFFFFFFF AND MUL OR SWAP1 SSTORE POP DUP2 PUSH20 0xFFFFFFFFFFFFFFFFFFFFFFFFFFFFFFFFFFFFFFFF AND DUP2 PUSH20 0xFFFFFFFFFFFFFFFFFFFFFFFFFFFFFFFFFFFFFFFF AND PUSH32 0x8BE0079C531659141344CD1FD0A4F28419497F9722A3DAAFE3B4186F6B6457E0 PUSH1 0x40 MLOAD PUSH1 0x40 MLOAD DUP1 SWAP2 SUB SWAP1 LOG3 POP POP JUMP JUMPDEST PUSH1 0x40 MLOAD DUP1 PUSH1 0xE0 ADD PUSH1 0x40 MSTORE DUP1 PUSH1 0x60 DUP2 MSTORE PUSH1 0x20 ADD PUSH1 0x60 DUP2 MSTORE PUSH1 0x20 ADD PUSH1 0x60 DUP2 MSTORE PUSH1 0x20 ADD PUSH1 0x60 DUP2 MSTORE PUSH1 0x20 ADD PUSH1 0x60 DUP2 MSTORE PUSH1 0x20 ADD PUSH1 0x60 DUP2 MSTORE PUSH1 0x20 ADD PUSH1 0x0 PUSH1 0xFF AND DUP2 MSTORE POP SWAP1 JUMP JUMPDEST DUP3 DUP1 SLOAD PUSH2 0x107B SWAP1 PUSH2 0x194A JUMP JUMPDEST SWAP1 PUSH1 0x0 MSTORE PUSH1 0x20 PUSH1 0x0 KECCAK256 SWAP1 PUSH1 0x1F ADD PUSH1 0x20 SWAP1 DIV DUP2 ADD SWAP3 DUP3 PUSH2 0x109D JUMPI PUSH1 0x0 DUP6 SSTORE PUSH2 0x10E4 JUMP JUMPDEST DUP3 PUSH1 0x1F LT PUSH2 0x10B6 JUMPI DUP1 MLOAD PUSH1 0xFF NOT AND DUP4 DUP1 ADD OR DUP6 SSTORE PUSH2 0x10E4 JUMP JUMPDEST DUP3 DUP1 ADD PUSH1 0x1 ADD DUP6 SSTORE DUP3 ISZERO PUSH2 0x10E4 JUMPI SWAP2 DUP3 ADD JUMPDEST DUP3 DUP2 GT ISZERO PUSH2 0x10E3 JUMPI DUP3 MLOAD DUP3 SSTORE SWAP2 PUSH1 0x20 ADD SWAP2 SWAP1 PUSH1 0x1 ADD SWAP1 PUSH2 0x10C8 JUMP JUMPDEST JUMPDEST POP SWAP1 POP PUSH2 0x10F1 SWAP2 SWAP1 PUSH2 0x10F5 JUMP JUMPDEST POP SWAP1 JUMP JUMPDEST JUMPDEST DUP1 DUP3 GT ISZERO PUSH2 0x110E JUMPI PUSH1 0x0 DUP2 PUSH1 0x0 SWAP1 SSTORE POP PUSH1 0x1 ADD PUSH2 0x10F6 JUMP JUMPDEST POP SWAP1 JUMP JUMPDEST PUSH1 0x0 PUSH1 0x40 MLOAD SWAP1 POP SWAP1 JUMP JUMPDEST PUSH1 0x0 DUP1 REVERT JUMPDEST PUSH1 0x0 DUP1 REVERT JUMPDEST PUSH1 0x0 DUP2 SWAP1 POP SWAP2 SWAP1 POP JUMP JUMPDEST PUSH2 0x1139 DUP2 PUSH2 0x1126 JUMP JUMPDEST DUP2 EQ PUSH2 0x1144 JUMPI PUSH1 0x0 DUP1 REVERT JUMPDEST POP JUMP JUMPDEST PUSH1 0x0 DUP2 CALLDATALOAD SWAP1 POP PUSH2 0x1156 DUP2 PUSH2 0x1130 JUMP JUMPDEST SWAP3 SWAP2 POP POP JUMP JUMPDEST PUSH1 0x0 DUP2 ISZERO ISZERO SWAP1 POP SWAP2 SWAP1 POP JUMP JUMPDEST PUSH2 0x1171 DUP2 PUSH2 0x115C JUMP JUMPDEST DUP2 EQ PUSH2 0x117C JUMPI PUSH1 0x0 DUP1 REVERT JUMPDEST POP JUMP JUMPDEST PUSH1 0x0 DUP2 CALLDATALOAD SWAP1 POP PUSH2 0x118E DUP2 PUSH2 0x1168 JUMP JUMPDEST SWAP3 SWAP2 POP POP JUMP JUMPDEST PUSH1 0x0 DUP1 PUSH1 0x40 DUP4 DUP6 SUB SLT ISZERO PUSH2 0x11AB JUMPI PUSH2 0x11AA PUSH2 0x111C JUMP JUMPDEST JUMPDEST PUSH1 0x0 PUSH2 0x11B9 DUP6 DUP3 DUP7 ADD PUSH2 0x1147 JUMP JUMPDEST SWAP3 POP POP PUSH1 0x20 PUSH2 0x11CA DUP6 DUP3 DUP7 ADD PUSH2 0x117F JUMP JUMPDEST SWAP2 POP POP SWAP3 POP SWAP3 SWAP1 POP JUMP JUMPDEST PUSH1 0x0 PUSH1 0x20 DUP3 DUP5 SUB SLT ISZERO PUSH2 0x11EA JUMPI PUSH2 0x11E9 PUSH2 0x111C JUMP JUMPDEST JUMPDEST PUSH1 0x0 PUSH2 0x11F8 DUP5 DUP3 DUP6 ADD PUSH2 0x1147 JUMP JUMPDEST SWAP2 POP POP SWAP3 SWAP2 POP POP JUMP JUMPDEST PUSH1 0x0 PUSH20 0xFFFFFFFFFFFFFFFFFFFFFFFFFFFFFFFFFFFFFFFF DUP3 AND SWAP1 POP SWAP2 SWAP1 POP JUMP JUMPDEST PUSH1 0x0 PUSH2 0x122C DUP3 PUSH2 0x1201 JUMP JUMPDEST SWAP1 POP SWAP2 SWAP1 POP JUMP JUMPDEST PUSH2 0x123C DUP2 PUSH2 0x1221 JUMP JUMPDEST DUP3 MSTORE POP POP JUMP JUMPDEST PUSH1 0x0 PUSH1 0x20 DUP3 ADD SWAP1 POP PUSH2 0x1257 PUSH1 0x0 DUP4 ADD DUP5 PUSH2 0x1233 JUMP JUMPDEST SWAP3 SWAP2 POP POP JUMP JUMPDEST PUSH2 0x1266 DUP2 PUSH2 0x115C JUMP JUMPDEST DUP3 MSTORE POP POP JUMP JUMPDEST PUSH1 0x0 PUSH1 0x20 DUP3 ADD SWAP1 POP PUSH2 0x1281 PUSH1 0x0 DUP4 ADD DUP5 PUSH2 0x125D JUMP JUMPDEST SWAP3 SWAP2 POP POP JUMP JUMPDEST PUSH1 0x0 DUP1 REVERT JUMPDEST PUSH1 0x0 DUP1 REVERT JUMPDEST PUSH1 0x0 PUSH1 0x1F NOT PUSH1 0x1F DUP4 ADD AND SWAP1 POP SWAP2 SWAP1 POP JUMP JUMPDEST PUSH32 0x4E487B7100000000000000000000000000000000000000000000000000000000 PUSH1 0x0 MSTORE PUSH1 0x41 PUSH1 0x4 MSTORE PUSH1 0x24 PUSH1 0x0 REVERT JUMPDEST PUSH2 0x12DA DUP3 PUSH2 0x1291 JUMP JUMPDEST DUP2 ADD DUP2 DUP2 LT PUSH8 0xFFFFFFFFFFFFFFFF DUP3 GT OR ISZERO PUSH2 0x12F9 JUMPI PUSH2 0x12F8 PUSH2 0x12A2 JUMP JUMPDEST JUMPDEST DUP1 PUSH1 0x40 MSTORE POP POP POP JUMP JUMPDEST PUSH1 0x0 PUSH2 0x130C PUSH2 0x1112 JUMP JUMPDEST SWAP1 POP PUSH2 0x1318 DUP3 DUP3 PUSH2 0x12D1 JUMP JUMPDEST SWAP2 SWAP1 POP JUMP JUMPDEST PUSH1 0x0 PUSH8 0xFFFFFFFFFFFFFFFF DUP3 GT ISZERO PUSH2 0x1338 JUMPI PUSH2 0x1337 PUSH2 0x12A2 JUMP JUMPDEST JUMPDEST PUSH2 0x1341 DUP3 PUSH2 0x1291 JUMP JUMPDEST SWAP1 POP PUSH1 0x20 DUP2 ADD SWAP1 POP SWAP2 SWAP1 POP JUMP JUMPDEST DUP3 DUP2 DUP4 CALLDATACOPY PUSH1 0x0 DUP4 DUP4 ADD MSTORE POP POP POP JUMP JUMPDEST PUSH1 0x0 PUSH2 0x1370 PUSH2 0x136B DUP5 PUSH2 0x131D JUMP JUMPDEST PUSH2 0x1302 JUMP JUMPDEST SWAP1 POP DUP3 DUP2 MSTORE PUSH1 0x20 DUP2 ADD DUP5 DUP5 DUP5 ADD GT ISZERO PUSH2 0x138C JUMPI PUSH2 0x138B PUSH2 0x128C JUMP JUMPDEST JUMPDEST PUSH2 0x1397 DUP5 DUP3 DUP6 PUSH2 0x134E JUMP JUMPDEST POP SWAP4 SWAP3 POP POP POP JUMP JUMPDEST PUSH1 0x0 DUP3 PUSH1 0x1F DUP4 ADD SLT PUSH2 0x13B4 JUMPI PUSH2 0x13B3 PUSH2 0x1287 JUMP JUMPDEST JUMPDEST DUP2 CALLDATALOAD PUSH2 0x13C4 DUP5 DUP3 PUSH1 0x20 DUP7 ADD PUSH2 0x135D JUMP JUMPDEST SWAP2 POP POP SWAP3 SWAP2 POP POP JUMP JUMPDEST PUSH1 0x0 PUSH1 0x20 DUP3 DUP5 SUB SLT ISZERO PUSH2 0x13E3 JUMPI PUSH2 0x13E2 PUSH2 0x111C JUMP JUMPDEST JUMPDEST PUSH1 0x0 DUP3 ADD CALLDATALOAD PUSH8 0xFFFFFFFFFFFFFFFF DUP2 GT ISZERO PUSH2 0x1401 JUMPI PUSH2 0x1400 PUSH2 0x1121 JUMP JUMPDEST JUMPDEST PUSH2 0x140D DUP5 DUP3 DUP6 ADD PUSH2 0x139F JUMP JUMPDEST SWAP2 POP POP SWAP3 SWAP2 POP POP JUMP JUMPDEST PUSH1 0x0 DUP2 MLOAD SWAP1 POP SWAP2 SWAP1 POP JUMP JUMPDEST PUSH1 0x0 DUP3 DUP3 MSTORE PUSH1 0x20 DUP3 ADD SWAP1 POP SWAP3 SWAP2 POP POP JUMP JUMPDEST PUSH1 0x0 JUMPDEST DUP4 DUP2 LT ISZERO PUSH2 0x1450 JUMPI DUP1 DUP3 ADD MLOAD DUP2 DUP5 ADD MSTORE PUSH1 0x20 DUP2 ADD SWAP1 POP PUSH2 0x1435 JUMP JUMPDEST DUP4 DUP2 GT ISZERO PUSH2 0x145F JUMPI PUSH1 0x0 DUP5 DUP5 ADD MSTORE JUMPDEST POP POP POP POP JUMP JUMPDEST PUSH1 0x0 PUSH2 0x1470 DUP3 PUSH2 0x1416 JUMP JUMPDEST PUSH2 0x147A DUP2 DUP6 PUSH2 0x1421 JUMP JUMPDEST SWAP4 POP PUSH2 0x148A DUP2 DUP6 PUSH1 0x20 DUP7 ADD PUSH2 0x1432 JUMP JUMPDEST PUSH2 0x1493 DUP2 PUSH2 0x1291 JUMP JUMPDEST DUP5 ADD SWAP2 POP POP SWAP3 SWAP2 POP POP JUMP JUMPDEST PUSH1 0x0 PUSH1 0xFF DUP3 AND SWAP1 POP SWAP2 SWAP1 POP JUMP JUMPDEST PUSH2 0x14B4 DUP2 PUSH2 0x149E JUMP JUMPDEST DUP3 MSTORE POP POP JUMP JUMPDEST PUSH1 0x0 PUSH1 0xE0 DUP4 ADD PUSH1 0x0 DUP4 ADD MLOAD DUP5 DUP3 SUB PUSH1 0x0 DUP7 ADD MSTORE PUSH2 0x14D7 DUP3 DUP3 PUSH2 0x1465 JUMP JUMPDEST SWAP2 POP POP PUSH1 0x20 DUP4 ADD MLOAD DUP5 DUP3 SUB PUSH1 0x20 DUP7 ADD MSTORE PUSH2 0x14F1 DUP3 DUP3 PUSH2 0x1465 JUMP JUMPDEST SWAP2 POP POP PUSH1 0x40 DUP4 ADD MLOAD DUP5 DUP3 SUB PUSH1 0x40 DUP7 ADD MSTORE PUSH2 0x150B DUP3 DUP3 PUSH2 0x1465 JUMP JUMPDEST SWAP2 POP POP PUSH1 0x60 DUP4 ADD MLOAD DUP5 DUP3 SUB PUSH1 0x60 DUP7 ADD MSTORE PUSH2 0x1525 DUP3 DUP3 PUSH2 0x1465 JUMP JUMPDEST SWAP2 POP POP PUSH1 0x80 DUP4 ADD MLOAD DUP5 DUP3 SUB PUSH1 0x80 DUP7 ADD MSTORE PUSH2 0x153F DUP3 DUP3 PUSH2 0x1465 JUMP JUMPDEST SWAP2 POP POP PUSH1 0xA0 DUP4 ADD MLOAD DUP5 DUP3 SUB PUSH1 0xA0 DUP7 ADD MSTORE PUSH2 0x1559 DUP3 DUP3 PUSH2 0x1465 JUMP JUMPDEST SWAP2 POP POP PUSH1 0xC0 DUP4 ADD MLOAD PUSH2 0x156E PUSH1 0xC0 DUP7 ADD DUP3 PUSH2 0x14AB JUMP JUMPDEST POP DUP1 SWAP2 POP POP SWAP3 SWAP2 POP POP JUMP JUMPDEST PUSH1 0x0 PUSH1 0x20 DUP3 ADD SWAP1 POP DUP2 DUP2 SUB PUSH1 0x0 DUP4 ADD MSTORE PUSH2 0x1593 DUP2 DUP5 PUSH2 0x14BA JUMP JUMPDEST SWAP1 POP SWAP3 SWAP2 POP POP JUMP JUMPDEST PUSH2 0x15A4 DUP2 PUSH2 0x149E JUMP JUMPDEST DUP2 EQ PUSH2 0x15AF JUMPI PUSH1 0x0 DUP1 REVERT JUMPDEST POP JUMP JUMPDEST PUSH1 0x0 DUP2 CALLDATALOAD SWAP1 POP PUSH2 0x15C1 DUP2 PUSH2 0x159B JUMP JUMPDEST SWAP3 SWAP2 POP POP JUMP JUMPDEST PUSH1 0x0 DUP1 PUSH1 0x40 DUP4 DUP6 SUB SLT ISZERO PUSH2 0x15DE JUMPI PUSH2 0x15DD PUSH2 0x111C JUMP JUMPDEST JUMPDEST PUSH1 0x0 PUSH2 0x15EC DUP6 DUP3 DUP7 ADD PUSH2 0x1147 JUMP JUMPDEST SWAP3 POP POP PUSH1 0x20 PUSH2 0x15FD DUP6 DUP3 DUP7 ADD PUSH2 0x15B2 JUMP JUMPDEST SWAP2 POP POP SWAP3 POP SWAP3 SWAP1 POP JUMP JUMPDEST PUSH2 0x1610 DUP2 PUSH2 0x149E JUMP JUMPDEST DUP3 MSTORE POP POP JUMP JUMPDEST PUSH1 0x0 PUSH1 0x40 DUP3 ADD SWAP1 POP DUP2 DUP2 SUB PUSH1 0x0 DUP4 ADD MSTORE PUSH2 0x1630 DUP2 DUP6 PUSH2 0x14BA JUMP JUMPDEST SWAP1 POP PUSH2 0x163F PUSH1 0x20 DUP4 ADD DUP5 PUSH2 0x1607 JUMP JUMPDEST SWAP4 SWAP3 POP POP POP JUMP JUMPDEST PUSH2 0x164F DUP2 PUSH2 0x1221 JUMP JUMPDEST DUP2 EQ PUSH2 0x165A JUMPI PUSH1 0x0 DUP1 REVERT JUMPDEST POP JUMP JUMPDEST PUSH1 0x0 DUP2 CALLDATALOAD SWAP1 POP PUSH2 0x166C DUP2 PUSH2 0x1646 JUMP JUMPDEST SWAP3 SWAP2 POP POP JUMP JUMPDEST PUSH1 0x0 PUSH1 0x20 DUP3 DUP5 SUB SLT ISZERO PUSH2 0x1688 JUMPI PUSH2 0x1687 PUSH2 0x111C JUMP JUMPDEST JUMPDEST PUSH1 0x0 PUSH2 0x1696 DUP5 DUP3 DUP6 ADD PUSH2 0x165D JUMP JUMPDEST SWAP2 POP POP SWAP3 SWAP2 POP POP JUMP JUMPDEST PUSH1 0x0 DUP1 PUSH1 0x40 DUP4 DUP6 SUB SLT ISZERO PUSH2 0x16B6 JUMPI PUSH2 0x16B5 PUSH2 0x111C JUMP JUMPDEST JUMPDEST PUSH1 0x0 PUSH2 0x16C4 DUP6 DUP3 DUP7 ADD PUSH2 0x1147 JUMP JUMPDEST SWAP3 POP POP PUSH1 0x20 DUP4 ADD CALLDATALOAD PUSH8 0xFFFFFFFFFFFFFFFF DUP2 GT ISZERO PUSH2 0x16E5 JUMPI PUSH2 0x16E4 PUSH2 0x1121 JUMP JUMPDEST JUMPDEST PUSH2 0x16F1 DUP6 DUP3 DUP7 ADD PUSH2 0x139F JUMP JUMPDEST SWAP2 POP POP SWAP3 POP SWAP3 SWAP1 POP JUMP JUMPDEST PUSH1 0x0 DUP3 DUP3 MSTORE PUSH1 0x20 DUP3 ADD SWAP1 POP SWAP3 SWAP2 POP POP JUMP JUMPDEST PUSH32 0x4F776E61626C653A2063616C6C6572206973206E6F7420746865206F776E6572 PUSH1 0x0 DUP3 ADD MSTORE POP JUMP JUMPDEST PUSH1 0x0 PUSH2 0x1742 PUSH1 0x20 DUP4 PUSH2 0x16FB JUMP JUMPDEST SWAP2 POP PUSH2 0x174D DUP3 PUSH2 0x170C JUMP JUMPDEST PUSH1 0x20 DUP3 ADD SWAP1 POP SWAP2 SWAP1 POP JUMP JUMPDEST PUSH1 0x0 PUSH1 0x20 DUP3 ADD SWAP1 POP DUP2 DUP2 SUB PUSH1 0x0 DUP4 ADD MSTORE PUSH2 0x1771 DUP2 PUSH2 0x1735 JUMP JUMPDEST SWAP1 POP SWAP2 SWAP1 POP JUMP JUMPDEST PUSH32 0x4E487B7100000000000000000000000000000000000000000000000000000000 PUSH1 0x0 MSTORE PUSH1 0x11 PUSH1 0x4 MSTORE PUSH1 0x24 PUSH1 0x0 REVERT JUMPDEST PUSH1 0x0 PUSH2 0x17B2 DUP3 PUSH2 0x1126 JUMP JUMPDEST SWAP2 POP PUSH2 0x17BD DUP4 PUSH2 0x1126 JUMP JUMPDEST SWAP3 POP DUP3 PUSH32 0xFFFFFFFFFFFFFFFFFFFFFFFFFFFFFFFFFFFFFFFFFFFFFFFFFFFFFFFFFFFFFFFF SUB DUP3 GT ISZERO PUSH2 0x17F2 JUMPI PUSH2 0x17F1 PUSH2 0x1778 JUMP JUMPDEST JUMPDEST DUP3 DUP3 ADD SWAP1 POP SWAP3 SWAP2 POP POP JUMP JUMPDEST PUSH1 0x0 DUP2 SWAP1 POP SWAP3 SWAP2 POP POP JUMP JUMPDEST PUSH1 0x0 PUSH2 0x1813 DUP3 PUSH2 0x1416 JUMP JUMPDEST PUSH2 0x181D DUP2 DUP6 PUSH2 0x17FD JUMP JUMPDEST SWAP4 POP PUSH2 0x182D DUP2 DUP6 PUSH1 0x20 DUP7 ADD PUSH2 0x1432 JUMP JUMPDEST DUP1 DUP5 ADD SWAP2 POP POP SWAP3 SWAP2 POP POP JUMP JUMPDEST PUSH1 0x0 DUP2 SWAP1 POP SWAP2 SWAP1 POP JUMP JUMPDEST PUSH1 0x0 DUP2 SWAP1 POP SWAP2 SWAP1 POP JUMP JUMPDEST PUSH2 0x185E PUSH2 0x1859 DUP3 PUSH2 0x1839 JUMP JUMPDEST PUSH2 0x1843 JUMP JUMPDEST DUP3 MSTORE POP POP JUMP JUMPDEST PUSH1 0x0 PUSH2 0x1870 DUP3 DUP6 PUSH2 0x1808 JUMP JUMPDEST SWAP2 POP PUSH2 0x187C DUP3 DUP5 PUSH2 0x184D JUMP JUMPDEST PUSH1 0x20 DUP3 ADD SWAP2 POP DUP2 SWAP1 POP SWAP4 SWAP3 POP POP POP JUMP JUMPDEST PUSH32 0x4E487B7100000000000000000000000000000000000000000000000000000000 PUSH1 0x0 MSTORE PUSH1 0x12 PUSH1 0x4 MSTORE PUSH1 0x24 PUSH1 0x0 REVERT JUMPDEST PUSH1 0x0 PUSH2 0x18C6 DUP3 PUSH2 0x1126 JUMP JUMPDEST SWAP2 POP PUSH2 0x18D1 DUP4 PUSH2 0x1126 JUMP JUMPDEST SWAP3 POP DUP3 PUSH2 0x18E1 JUMPI PUSH2 0x18E0 PUSH2 0x188C JUMP JUMPDEST JUMPDEST DUP3 DUP3 MOD SWAP1 POP SWAP3 SWAP2 POP POP JUMP JUMPDEST PUSH32 0x4E487B7100000000000000000000000000000000000000000000000000000000 PUSH1 0x0 MSTORE PUSH1 0x32 PUSH1 0x4 MSTORE PUSH1 0x24 PUSH1 0x0 REVERT JUMPDEST PUSH32 0x4E487B7100000000000000000000000000000000000000000000000000000000 PUSH1 0x0 MSTORE PUSH1 0x22 PUSH1 0x4 MSTORE PUSH1 0x24 PUSH1 0x0 REVERT JUMPDEST PUSH1 0x0 PUSH1 0x2 DUP3 DIV SWAP1 POP PUSH1 0x1 DUP3 AND DUP1 PUSH2 0x1962 JUMPI PUSH1 0x7F DUP3 AND SWAP2 POP JUMPDEST PUSH1 0x20 DUP3 LT DUP2 SUB PUSH2 0x1975 JUMPI PUSH2 0x1974 PUSH2 0x191B JUMP JUMPDEST JUMPDEST POP SWAP2 SWAP1 POP JUMP JUMPDEST PUSH1 0x0 DUP2 SWAP1 POP DUP2 PUSH1 0x0 MSTORE PUSH1 0x20 PUSH1 0x0 KECCAK256 SWAP1 POP SWAP2 SWAP1 POP JUMP JUMPDEST PUSH1 0x0 DUP2 SLOAD PUSH2 0x199D DUP2 PUSH2 0x194A JUMP JUMPDEST PUSH2 0x19A7 DUP2 DUP7 PUSH2 0x1421 JUMP JUMPDEST SWAP5 POP PUSH1 0x1 DUP3 AND PUSH1 0x0 DUP2 EQ PUSH2 0x19C2 JUMPI PUSH1 0x1 DUP2 EQ PUSH2 0x19D4 JUMPI PUSH2 0x1A07 JUMP JUMPDEST PUSH1 0xFF NOT DUP4 AND DUP7 MSTORE PUSH1 0x20 DUP7 ADD SWAP4 POP PUSH2 0x1A07 JUMP JUMPDEST PUSH2 0x19DD DUP6 PUSH2 0x197B JUMP JUMPDEST PUSH1 0x0 JUMPDEST DUP4 DUP2 LT ISZERO PUSH2 0x19FF JUMPI DUP2 SLOAD DUP2 DUP10 ADD MSTORE PUSH1 0x1 DUP3 ADD SWAP2 POP PUSH1 0x20 DUP2 ADD SWAP1 POP PUSH2 0x19E0 JUMP JUMPDEST DUP1 DUP9 ADD SWAP6 POP POP POP JUMPDEST POP POP POP SWAP3 SWAP2 POP POP JUMP JUMPDEST PUSH1 0x0 DUP2 PUSH1 0x0 SHR SWAP1 POP SWAP2 SWAP1 POP JUMP JUMPDEST PUSH1 0x0 PUSH1 0xFF DUP3 AND SWAP1 POP SWAP2 SWAP1 POP JUMP JUMPDEST PUSH1 0x0 PUSH2 0x1A3D PUSH2 0x1A38 DUP4 PUSH2 0x1A10 JUMP JUMPDEST PUSH2 0x1A1D JUMP JUMPDEST SWAP1 POP SWAP2 SWAP1 POP JUMP JUMPDEST PUSH1 0x0 PUSH1 0xE0 DUP4 ADD PUSH1 0x0 DUP1 DUP5 ADD DUP6 DUP4 SUB PUSH1 0x0 DUP8 ADD MSTORE PUSH2 0x1A61 DUP4 DUP3 PUSH2 0x1990 JUMP JUMPDEST SWAP3 POP POP PUSH1 0x1 DUP5 ADD DUP6 DUP4 SUB PUSH1 0x20 DUP8 ADD MSTORE PUSH2 0x1A7A DUP4 DUP3 PUSH2 0x1990 JUMP JUMPDEST SWAP3 POP POP PUSH1 0x2 DUP5 ADD DUP6 DUP4 SUB PUSH1 0x40 DUP8 ADD MSTORE PUSH2 0x1A93 DUP4 DUP3 PUSH2 0x1990 JUMP JUMPDEST SWAP3 POP POP PUSH1 0x3 DUP5 ADD DUP6 DUP4 SUB PUSH1 0x60 DUP8 ADD MSTORE PUSH2 0x1AAC DUP4 DUP3 PUSH2 0x1990 JUMP JUMPDEST SWAP3 POP POP PUSH1 0x4 DUP5 ADD DUP6 DUP4 SUB PUSH1 0x80 DUP8 ADD MSTORE PUSH2 0x1AC5 DUP4 DUP3 PUSH2 0x1990 JUMP JUMPDEST SWAP3 POP POP PUSH1 0x5 DUP5 ADD DUP6 DUP4 SUB PUSH1 0xA0 DUP8 ADD MSTORE PUSH2 0x1ADE DUP4 DUP3 PUSH2 0x1990 JUMP JUMPDEST SWAP3 POP POP PUSH1 0x6 DUP5 ADD SLOAD SWAP1 POP PUSH2 0x1AF1 DUP2 PUSH2 0x1A2A JUMP JUMPDEST PUSH2 0x1AFE PUSH1 0xC0 DUP8 ADD DUP3 PUSH2 0x14AB JUMP JUMPDEST POP DUP2 SWAP3 POP POP POP SWAP3 SWAP2 POP POP JUMP JUMPDEST PUSH1 0x0 PUSH1 0x40 DUP3 ADD SWAP1 POP DUP2 DUP2 SUB PUSH1 0x0 DUP4 ADD MSTORE PUSH2 0x1B24 DUP2 DUP6 PUSH2 0x1A44 JUMP JUMPDEST SWAP1 POP PUSH2 0x1B33 PUSH1 0x20 DUP4 ADD DUP5 PUSH2 0x1607 JUMP JUMPDEST SWAP4 SWAP3 POP POP POP JUMP JUMPDEST PUSH32 0x4F776E61626C653A206E6577206F776E657220697320746865207A65726F2061 PUSH1 0x0 DUP3 ADD MSTORE PUSH32 0x6464726573730000000000000000000000000000000000000000000000000000 PUSH1 0x20 DUP3 ADD MSTORE POP JUMP JUMPDEST PUSH1 0x0 PUSH2 0x1B96 PUSH1 0x26 DUP4 PUSH2 0x16FB JUMP JUMPDEST SWAP2 POP PUSH2 0x1BA1 DUP3 PUSH2 0x1B3A JUMP JUMPDEST PUSH1 0x40 DUP3 ADD SWAP1 POP SWAP2 SWAP1 POP JUMP JUMPDEST PUSH1 0x0 PUSH1 0x20 DUP3 ADD SWAP1 POP DUP2 DUP2 SUB PUSH1 0x0 DUP4 ADD MSTORE PUSH2 0x1BC5 DUP2 PUSH2 0x1B89 JUMP JUMPDEST SWAP1 POP SWAP2 SWAP1 POP JUMP INVALID LOG2 PUSH5 0x6970667358 0x22 SLT KECCAK256 0xB5 0x28 JUMPI RETURNDATASIZE 0xC0 0xEC PUSH20 0x9F3068E62602480F316D06E77C3DB2B556F2A1C8 SHL PUSH4 0x70DB2064 PUSH20 0x6F6C634300080E00330000000000000000000000 "
				},
				"gasEstimates": {
					"creation": {
						"codeDepositCost": "1434000",
						"executionCost": "infinite",
						"totalCost": "infinite"
					},
					"external": {
						"answerQuiz(uint256,uint8)": "2839",
						"changeQuizStatus(uint256,bool)": "27171",
						"getRandomQuiz(string)": "infinite",
						"owner()": "2544",
						"quizIsActive(uint256)": "2863",
						"quizOwner(uint256)": "2884",
						"quizOwnerChangeHint(uint256,string)": "infinite",
						"quizOwnerChangeStatus(uint256,bool)": "27206",
						"quizOwnerGetQuiz(uint256)": "infinite",
						"renounceOwnership()": "30463",
						"transferOwnership(address)": "30808"
					}
				},
				"methodIdentifiers": {
					"answerQuiz(uint256,uint8)": "a70434b3",
					"changeQuizStatus(uint256,bool)": "1d3f7559",
					"getRandomQuiz(string)": "728b0d87",
					"owner()": "8da5cb5b",
					"quizIsActive(uint256)": "51a1d40e",
					"quizOwner(uint256)": "400ae0f9",
					"quizOwnerChangeHint(uint256,string)": "fbb3b6ce",
					"quizOwnerChangeStatus(uint256,bool)": "377def85",
					"quizOwnerGetQuiz(uint256)": "b9360cf1",
					"renounceOwnership()": "715018a6",
					"transferOwnership(address)": "f2fde38b"
				}
			},
			"storageLayout": {
				"storage": [
					{
						"astId": 225,
						"contract": "contracts/AnswerQuiz.sol:AnswerQuiz",
						"label": "_owner",
						"offset": 0,
						"slot": "0",
						"type": "t_address"
					},
					{
						"astId": 73,
						"contract": "contracts/AnswerQuiz.sol:AnswerQuiz",
						"label": "quizzes",
						"offset": 0,
						"slot": "1",
						"type": "t_array(t_struct(Quiz)69_storage)dyn_storage"
					},
					{
						"astId": 77,
						"contract": "contracts/AnswerQuiz.sol:AnswerQuiz",
						"label": "quizIsActive",
						"offset": 0,
						"slot": "2",
						"type": "t_mapping(t_uint256,t_bool)"
					},
					{
						"astId": 81,
						"contract": "contracts/AnswerQuiz.sol:AnswerQuiz",
						"label": "quizAnswer",
						"offset": 0,
						"slot": "3",
						"type": "t_mapping(t_uint256,t_uint8)"
					},
					{
						"astId": 85,
						"contract": "contracts/AnswerQuiz.sol:AnswerQuiz",
						"label": "quizOwner",
						"offset": 0,
						"slot": "4",
						"type": "t_mapping(t_uint256,t_address)"
					}
				],
				"types": {
					"t_address": {
						"encoding": "inplace",
						"label": "address",
						"numberOfBytes": "20"
					},
					"t_array(t_struct(Quiz)69_storage)dyn_storage": {
						"base": "t_struct(Quiz)69_storage",
						"encoding": "dynamic_array",
						"label": "struct CreateQuiz.Quiz[]",
						"numberOfBytes": "32"
					},
					"t_bool": {
						"encoding": "inplace",
						"label": "bool",
						"numberOfBytes": "1"
					},
					"t_mapping(t_uint256,t_address)": {
						"encoding": "mapping",
						"key": "t_uint256",
						"label": "mapping(uint256 => address)",
						"numberOfBytes": "32",
						"value": "t_address"
					},
					"t_mapping(t_uint256,t_bool)": {
						"encoding": "mapping",
						"key": "t_uint256",
						"label": "mapping(uint256 => bool)",
						"numberOfBytes": "32",
						"value": "t_bool"
					},
					"t_mapping(t_uint256,t_uint8)": {
						"encoding": "mapping",
						"key": "t_uint256",
						"label": "mapping(uint256 => uint8)",
						"numberOfBytes": "32",
						"value": "t_uint8"
					},
					"t_string_storage": {
						"encoding": "bytes",
						"label": "string",
						"numberOfBytes": "32"
					},
					"t_struct(Quiz)69_storage": {
						"encoding": "inplace",
						"label": "struct CreateQuiz.Quiz",
						"members": [
							{
								"astId": 56,
								"contract": "contracts/AnswerQuiz.sol:AnswerQuiz",
								"label": "question",
								"offset": 0,
								"slot": "0",
								"type": "t_string_storage"
							},
							{
								"astId": 58,
								"contract": "contracts/AnswerQuiz.sol:AnswerQuiz",
								"label": "choice1",
								"offset": 0,
								"slot": "1",
								"type": "t_string_storage"
							},
							{
								"astId": 60,
								"contract": "contracts/AnswerQuiz.sol:AnswerQuiz",
								"label": "choice2",
								"offset": 0,
								"slot": "2",
								"type": "t_string_storage"
							},
							{
								"astId": 62,
								"contract": "contracts/AnswerQuiz.sol:AnswerQuiz",
								"label": "choice3",
								"offset": 0,
								"slot": "3",
								"type": "t_string_storage"
							},
							{
								"astId": 64,
								"contract": "contracts/AnswerQuiz.sol:AnswerQuiz",
								"label": "choice4",
								"offset": 0,
								"slot": "4",
								"type": "t_string_storage"
							},
							{
								"astId": 66,
								"contract": "contracts/AnswerQuiz.sol:AnswerQuiz",
								"label": "hint",
								"offset": 0,
								"slot": "5",
								"type": "t_string_storage"
							},
							{
								"astId": 68,
								"contract": "contracts/AnswerQuiz.sol:AnswerQuiz",
								"label": "languageCode",
								"offset": 0,
								"slot": "6",
								"type": "t_uint8"
							}
						],
						"numberOfBytes": "224"
					},
					"t_uint256": {
						"encoding": "inplace",
						"label": "uint256",
						"numberOfBytes": "32"
					},
					"t_uint8": {
						"encoding": "inplace",
						"label": "uint8",
						"numberOfBytes": "1"
					}
				}
			},
			"userdoc": {
				"kind": "user",
				"methods": {},
				"version": 1
			}
		}
	}
}