{
	"contracts/ViewQuiz.sol": {
		"ViewQuiz": {
			"abi": [
				{
					"anonymous": false,
					"inputs": [
						{
							"components": [
								{
									"internalType": "string",
									"name": "question",
									"type": "string"
								},
								{
									"internalType": "string",
									"name": "choice1",
									"type": "string"
								},
								{
									"internalType": "string",
									"name": "choice2",
									"type": "string"
								},
								{
									"internalType": "string",
									"name": "choice3",
									"type": "string"
								},
								{
									"internalType": "string",
									"name": "choice4",
									"type": "string"
								},
								{
									"internalType": "string",
									"name": "hint",
									"type": "string"
								},
								{
									"internalType": "uint8",
									"name": "languageCode",
									"type": "uint8"
								}
							],
							"indexed": false,
							"internalType": "struct CreateQuiz.Quiz",
							"name": "quiz",
							"type": "tuple"
						}
					],
					"name": "GetQuiz",
					"type": "event"
				},
				{
					"anonymous": false,
					"inputs": [
						{
							"indexed": false,
							"internalType": "string",
							"name": "question",
							"type": "string"
						},
						{
							"indexed": false,
							"internalType": "uint8",
							"name": "answer",
							"type": "uint8"
						}
					],
					"name": "NewQuiz",
					"type": "event"
				},
				{
					"anonymous": false,
					"inputs": [
						{
							"indexed": true,
							"internalType": "address",
							"name": "previousOwner",
							"type": "address"
						},
						{
							"indexed": true,
							"internalType": "address",
							"name": "newOwner",
							"type": "address"
						}
					],
					"name": "OwnershipTransferred",
					"type": "event"
				},
				{
					"anonymous": false,
					"inputs": [
						{
							"components": [
								{
									"internalType": "string",
									"name": "question",
									"type": "string"
								},
								{
									"internalType": "string",
									"name": "choice1",
									"type": "string"
								},
								{
									"internalType": "string",
									"name": "choice2",
									"type": "string"
								},
								{
									"internalType": "string",
									"name": "choice3",
									"type": "string"
								},
								{
									"internalType": "string",
									"name": "choice4",
									"type": "string"
								},
								{
									"internalType": "string",
									"name": "hint",
									"type": "string"
								},
								{
									"internalType": "uint8",
									"name": "languageCode",
									"type": "uint8"
								}
							],
							"indexed": false,
							"internalType": "struct CreateQuiz.Quiz",
							"name": "quiz",
							"type": "tuple"
						},
						{
							"indexed": false,
							"internalType": "uint8",
							"name": "answer",
							"type": "uint8"
						}
					],
					"name": "QuizOwnerGetQuiz",
					"type": "event"
				},
				{
					"inputs": [
						{
							"internalType": "uint256",
							"name": "_quizId",
							"type": "uint256"
						},
						{
							"internalType": "bool",
							"name": "_quizStatus",
							"type": "bool"
						}
					],
					"name": "changeQuizStatus",
					"outputs": [],
					"stateMutability": "nonpayable",
					"type": "function"
				},
				{
					"inputs": [
						{
							"internalType": "string",
							"name": "_seed",
							"type": "string"
						}
					],
					"name": "getRandomQuiz",
					"outputs": [
						{
							"components": [
								{
									"internalType": "string",
									"name": "question",
									"type": "string"
								},
								{
									"internalType": "string",
									"name": "choice1",
									"type": "string"
								},
								{
									"internalType": "string",
									"name": "choice2",
									"type": "string"
								},
								{
									"internalType": "string",
									"name": "choice3",
									"type": "string"
								},
								{
									"internalType": "string",
									"name": "choice4",
									"type": "string"
								},
								{
									"internalType": "string",
									"name": "hint",
									"type": "string"
								},
								{
									"internalType": "uint8",
									"name": "languageCode",
									"type": "uint8"
								}
							],
							"internalType": "struct CreateQuiz.Quiz",
							"name": "",
							"type": "tuple"
						}
					],
					"stateMutability": "nonpayable",
					"type": "function"
				},
				{
					"inputs": [],
					"name": "owner",
					"outputs": [
						{
							"internalType": "address",
							"name": "",
							"type": "address"
						}
					],
					"stateMutability": "view",
					"type": "function"
				},
				{
					"inputs": [
						{
							"internalType": "uint256",
							"name": "",
							"type": "uint256"
						}
					],
					"name": "quizIsActive",
					"outputs": [
						{
							"internalType": "bool",
							"name": "",
							"type": "bool"
						}
					],
					"stateMutability": "view",
					"type": "function"
				},
				{
					"inputs": [
						{
							"internalType": "uint256",
							"name": "",
							"type": "uint256"
						}
					],
					"name": "quizOwner",
					"outputs": [
						{
							"internalType": "address",
							"name": "",
							"type": "address"
						}
					],
					"stateMutability": "view",
					"type": "function"
				},
				{
					"inputs": [
						{
							"internalType": "uint256",
							"name": "_quizId",
							"type": "uint256"
						},
						{
							"internalType": "string",
							"name": "_hint",
							"type": "string"
						}
					],
					"name": "quizOwnerChangeHint",
					"outputs": [],
					"stateMutability": "nonpayable",
					"type": "function"
				},
				{
					"inputs": [
						{
							"internalType": "uint256",
							"name": "_quizId",
							"type": "uint256"
						},
						{
							"internalType": "bool",
							"name": "_quizStatus",
							"type": "bool"
						}
					],
					"name": "quizOwnerChangeStatus",
					"outputs": [],
					"stateMutability": "nonpayable",
					"type": "function"
				},
				{
					"inputs": [
						{
							"internalType": "uint256",
							"name": "_quizId",
							"type": "uint256"
						}
					],
					"name": "quizOwnerGetQuiz",
					"outputs": [
						{
							"components": [
								{
									"internalType": "string",
									"name": "question",
									"type": "string"
								},
								{
									"internalType": "string",
									"name": "choice1",
									"type": "string"
								},
								{
									"internalType": "string",
									"name": "choice2",
									"type": "string"
								},
								{
									"internalType": "string",
									"name": "choice3",
									"type": "string"
								},
								{
									"internalType": "string",
									"name": "choice4",
									"type": "string"
								},
								{
									"internalType": "string",
									"name": "hint",
									"type": "string"
								},
								{
									"internalType": "uint8",
									"name": "languageCode",
									"type": "uint8"
								}
							],
							"internalType": "struct CreateQuiz.Quiz",
							"name": "",
							"type": "tuple"
						},
						{
							"internalType": "uint8",
							"name": "",
							"type": "uint8"
						}
					],
					"stateMutability": "nonpayable",
					"type": "function"
				},
				{
					"inputs": [],
					"name": "renounceOwnership",
					"outputs": [],
					"stateMutability": "nonpayable",
					"type": "function"
				},
				{
					"inputs": [
						{
							"internalType": "address",
							"name": "newOwner",
							"type": "address"
						}
					],
					"name": "transferOwnership",
					"outputs": [],
					"stateMutability": "nonpayable",
					"type": "function"
				}
			],
			"devdoc": {
				"kind": "dev",
				"methods": {
					"owner()": {
						"details": "Returns the address of the current owner."
					},
					"renounceOwnership()": {
						"details": "Leaves the contract without owner. It will not be possible to call `onlyOwner` functions anymore. Can only be called by the current owner. NOTE: Renouncing ownership will leave the contract without an owner, thereby removing any functionality that is only available to the owner."
					},
					"transferOwnership(address)": {
						"details": "Transfers ownership of the contract to a new account (`newOwner`). Can only be called by the current owner."
					}
				},
				"version": 1
			},
			"evm": {
				"assembly": "    /* \"contracts/ViewQuiz.sol\":93:1116  contract ViewQuiz is CreateQuiz {... */\n  mstore(0x40, 0x80)\n  callvalue\n  dup1\n  iszero\n  tag_1\n  jumpi\n  0x00\n  dup1\n  revert\ntag_1:\n  pop\n    /* \"contracts/Ownable.sol\":914:946  _transferOwnership(_msgSender()) */\n  tag_4\n    /* \"contracts/Ownable.sol\":933:945  _msgSender() */\n  tag_5\n    /* \"contracts/Ownable.sol\":933:943  _msgSender */\n  shl(0x20, tag_6)\n    /* \"contracts/Ownable.sol\":933:945  _msgSender() */\n  0x20\n  shr\n  jump\t// in\ntag_5:\n    /* \"contracts/Ownable.sol\":914:932  _transferOwnership */\n  shl(0x20, tag_7)\n    /* \"contracts/Ownable.sol\":914:946  _transferOwnership(_msgSender()) */\n  0x20\n  shr\n  jump\t// in\ntag_4:\n    /* \"contracts/ViewQuiz.sol\":93:1116  contract ViewQuiz is CreateQuiz {... */\n  jump(tag_8)\n    /* \"contracts/Context.sol\":640:736  function _msgSender() internal view virtual returns (address) {... */\ntag_6:\n    /* \"contracts/Context.sol\":693:700  address */\n  0x00\n    /* \"contracts/Context.sol\":719:729  msg.sender */\n  caller\n    /* \"contracts/Context.sol\":712:729  return msg.sender */\n  swap1\n  pop\n    /* \"contracts/Context.sol\":640:736  function _msgSender() internal view virtual returns (address) {... */\n  swap1\n  jump\t// out\n    /* \"contracts/Ownable.sol\":2263:2450  function _transferOwnership(address newOwner) internal virtual {... */\ntag_7:\n    /* \"contracts/Ownable.sol\":2336:2352  address oldOwner */\n  0x00\n    /* \"contracts/Ownable.sol\":2355:2361  _owner */\n  dup1\n  0x00\n  swap1\n  sload\n  swap1\n  0x0100\n  exp\n  swap1\n  div\n  0xffffffffffffffffffffffffffffffffffffffff\n  and\n    /* \"contracts/Ownable.sol\":2336:2361  address oldOwner = _owner */\n  swap1\n  pop\n    /* \"contracts/Ownable.sol\":2380:2388  newOwner */\n  dup2\n    /* \"contracts/Ownable.sol\":2371:2377  _owner */\n  0x00\n  dup1\n    /* \"contracts/Ownable.sol\":2371:2388  _owner = newOwner */\n  0x0100\n  exp\n  dup2\n  sload\n  dup2\n  0xffffffffffffffffffffffffffffffffffffffff\n  mul\n  not\n  and\n  swap1\n  dup4\n  0xffffffffffffffffffffffffffffffffffffffff\n  and\n  mul\n  or\n  swap1\n  sstore\n  pop\n    /* \"contracts/Ownable.sol\":2434:2442  newOwner */\n  dup2\n    /* \"contracts/Ownable.sol\":2403:2443  OwnershipTransferred(oldOwner, newOwner) */\n  0xffffffffffffffffffffffffffffffffffffffff\n  and\n    /* \"contracts/Ownable.sol\":2424:2432  oldOwner */\n  dup2\n    /* \"contracts/Ownable.sol\":2403:2443  OwnershipTransferred(oldOwner, newOwner) */\n  0xffffffffffffffffffffffffffffffffffffffff\n  and\n  0x8be0079c531659141344cd1fd0a4f28419497f9722a3daafe3b4186f6b6457e0\n  mload(0x40)\n  mload(0x40)\n  dup1\n  swap2\n  sub\n  swap1\n  log3\n    /* \"contracts/Ownable.sol\":2326:2450  {... */\n  pop\n    /* \"contracts/Ownable.sol\":2263:2450  function _transferOwnership(address newOwner) internal virtual {... */\n  pop\n  jump\t// out\n    /* \"contracts/ViewQuiz.sol\":93:1116  contract ViewQuiz is CreateQuiz {... */\ntag_8:\n  dataSize(sub_0)\n  dup1\n  dataOffset(sub_0)\n  0x00\n  codecopy\n  0x00\n  return\nstop\n\nsub_0: assembly {\n        /* \"contracts/ViewQuiz.sol\":93:1116  contract ViewQuiz is CreateQuiz {... */\n      mstore(0x40, 0x80)\n      callvalue\n      dup1\n      iszero\n      tag_1\n      jumpi\n      0x00\n      dup1\n      revert\n    tag_1:\n      pop\n      jumpi(tag_2, lt(calldatasize, 0x04))\n      shr(0xe0, calldataload(0x00))\n      dup1\n      0x728b0d87\n      gt\n      tag_13\n      jumpi\n      dup1\n      0x728b0d87\n      eq\n      tag_8\n      jumpi\n      dup1\n      0x8da5cb5b\n      eq\n      tag_9\n      jumpi\n      dup1\n      0xb9360cf1\n      eq\n      tag_10\n      jumpi\n      dup1\n      0xf2fde38b\n      eq\n      tag_11\n      jumpi\n      dup1\n      0xfbb3b6ce\n      eq\n      tag_12\n      jumpi\n      jump(tag_2)\n    tag_13:\n      dup1\n      0x1d3f7559\n      eq\n      tag_3\n      jumpi\n      dup1\n      0x377def85\n      eq\n      tag_4\n      jumpi\n      dup1\n      0x400ae0f9\n      eq\n      tag_5\n      jumpi\n      dup1\n      0x51a1d40e\n      eq\n      tag_6\n      jumpi\n      dup1\n      0x715018a6\n      eq\n      tag_7\n      jumpi\n    tag_2:\n      0x00\n      dup1\n      revert\n        /* \"contracts/CreateQuiz.sol\":1862:1989  function changeQuizStatus(uint _quizId, bool _quizStatus) public onlyOwner {... */\n    tag_3:\n      tag_14\n      0x04\n      dup1\n      calldatasize\n      sub\n      dup2\n      add\n      swap1\n      tag_15\n      swap2\n      swap1\n      tag_16\n      jump\t// in\n    tag_15:\n      tag_17\n      jump\t// in\n    tag_14:\n      stop\n        /* \"contracts/CreateQuiz.sol\":1426:1571  function quizOwnerChangeStatus(uint _quizId, bool _quizStatus) public onlyQuizOwner(_quizId) {... */\n    tag_4:\n      tag_18\n      0x04\n      dup1\n      calldatasize\n      sub\n      dup2\n      add\n      swap1\n      tag_19\n      swap2\n      swap1\n      tag_16\n      jump\t// in\n    tag_19:\n      tag_20\n      jump\t// in\n    tag_18:\n      stop\n        /* \"contracts/CreateQuiz.sol\":501:543  mapping (uint => address) public quizOwner */\n    tag_5:\n      tag_21\n      0x04\n      dup1\n      calldatasize\n      sub\n      dup2\n      add\n      swap1\n      tag_22\n      swap2\n      swap1\n      tag_23\n      jump\t// in\n    tag_22:\n      tag_24\n      jump\t// in\n    tag_21:\n      mload(0x40)\n      tag_25\n      swap2\n      swap1\n      tag_26\n      jump\t// in\n    tag_25:\n      mload(0x40)\n      dup1\n      swap2\n      sub\n      swap1\n      return\n        /* \"contracts/CreateQuiz.sol\":404:446  mapping (uint => bool) public quizIsActive */\n    tag_6:\n      tag_27\n      0x04\n      dup1\n      calldatasize\n      sub\n      dup2\n      add\n      swap1\n      tag_28\n      swap2\n      swap1\n      tag_23\n      jump\t// in\n    tag_28:\n      tag_29\n      jump\t// in\n    tag_27:\n      mload(0x40)\n      tag_30\n      swap2\n      swap1\n      tag_31\n      jump\t// in\n    tag_30:\n      mload(0x40)\n      dup1\n      swap2\n      sub\n      swap1\n      return\n        /* \"contracts/Ownable.sol\":1661:1762  function renounceOwnership() public virtual onlyOwner {... */\n    tag_7:\n      tag_32\n      tag_33\n      jump\t// in\n    tag_32:\n      stop\n        /* \"contracts/ViewQuiz.sol\":256:617  function getRandomQuiz(string memory _seed) public returns (Quiz memory) {... */\n    tag_8:\n      tag_34\n      0x04\n      dup1\n      calldatasize\n      sub\n      dup2\n      add\n      swap1\n      tag_35\n      swap2\n      swap1\n      tag_36\n      jump\t// in\n    tag_35:\n      tag_37\n      jump\t// in\n    tag_34:\n      mload(0x40)\n      tag_38\n      swap2\n      swap1\n      tag_39\n      jump\t// in\n    tag_38:\n      mload(0x40)\n      dup1\n      swap2\n      sub\n      swap1\n      return\n        /* \"contracts/Ownable.sol\":1029:1114  function owner() public view virtual returns (address) {... */\n    tag_9:\n      tag_40\n      tag_41\n      jump\t// in\n    tag_40:\n      mload(0x40)\n      tag_42\n      swap2\n      swap1\n      tag_26\n      jump\t// in\n    tag_42:\n      mload(0x40)\n      dup1\n      swap2\n      sub\n      swap1\n      return\n        /* \"contracts/ViewQuiz.sol\":880:1112  function quizOwnerGetQuiz(uint _quizId) public onlyQuizOwner(_quizId) returns (Quiz memory, uint8) {... */\n    tag_10:\n      tag_43\n      0x04\n      dup1\n      calldatasize\n      sub\n      dup2\n      add\n      swap1\n      tag_44\n      swap2\n      swap1\n      tag_23\n      jump\t// in\n    tag_44:\n      tag_45\n      jump\t// in\n    tag_43:\n      mload(0x40)\n      tag_46\n      swap3\n      swap2\n      swap1\n      tag_47\n      jump\t// in\n    tag_46:\n      mload(0x40)\n      dup1\n      swap2\n      sub\n      swap1\n      return\n        /* \"contracts/Ownable.sol\":1911:2109  function transferOwnership(address newOwner) public virtual onlyOwner {... */\n    tag_11:\n      tag_48\n      0x04\n      dup1\n      calldatasize\n      sub\n      dup2\n      add\n      swap1\n      tag_49\n      swap2\n      swap1\n      tag_50\n      jump\t// in\n    tag_49:\n      tag_51\n      jump\t// in\n    tag_48:\n      stop\n        /* \"contracts/CreateQuiz.sol\":1632:1772  function quizOwnerChangeHint(uint _quizId, string memory _hint) public onlyQuizOwner(_quizId) {... */\n    tag_12:\n      tag_52\n      0x04\n      dup1\n      calldatasize\n      sub\n      dup2\n      add\n      swap1\n      tag_53\n      swap2\n      swap1\n      tag_54\n      jump\t// in\n    tag_53:\n      tag_55\n      jump\t// in\n    tag_52:\n      stop\n        /* \"contracts/CreateQuiz.sol\":1862:1989  function changeQuizStatus(uint _quizId, bool _quizStatus) public onlyOwner {... */\n    tag_17:\n        /* \"contracts/Ownable.sol\":1252:1264  _msgSender() */\n      tag_57\n        /* \"contracts/Ownable.sol\":1252:1262  _msgSender */\n      tag_58\n        /* \"contracts/Ownable.sol\":1252:1264  _msgSender() */\n      jump\t// in\n    tag_57:\n        /* \"contracts/Ownable.sol\":1241:1264  owner() == _msgSender() */\n      0xffffffffffffffffffffffffffffffffffffffff\n      and\n        /* \"contracts/Ownable.sol\":1241:1248  owner() */\n      tag_59\n        /* \"contracts/Ownable.sol\":1241:1246  owner */\n      tag_41\n        /* \"contracts/Ownable.sol\":1241:1248  owner() */\n      jump\t// in\n    tag_59:\n        /* \"contracts/Ownable.sol\":1241:1264  owner() == _msgSender() */\n      0xffffffffffffffffffffffffffffffffffffffff\n      and\n      eq\n        /* \"contracts/Ownable.sol\":1233:1301  require(owner() == _msgSender(), \"Ownable: caller is not the owner\") */\n      tag_60\n      jumpi\n      mload(0x40)\n      0x08c379a000000000000000000000000000000000000000000000000000000000\n      dup2\n      mstore\n      0x04\n      add\n      tag_61\n      swap1\n      tag_62\n      jump\t// in\n    tag_61:\n      mload(0x40)\n      dup1\n      swap2\n      sub\n      swap1\n      revert\n    tag_60:\n        /* \"contracts/CreateQuiz.sol\":1971:1982  _quizStatus */\n      dup1\n        /* \"contracts/CreateQuiz.sol\":1947:1959  quizIsActive */\n      0x02\n        /* \"contracts/CreateQuiz.sol\":1947:1968  quizIsActive[_quizId] */\n      0x00\n        /* \"contracts/CreateQuiz.sol\":1960:1967  _quizId */\n      dup5\n        /* \"contracts/CreateQuiz.sol\":1947:1968  quizIsActive[_quizId] */\n      dup2\n      mstore\n      0x20\n      add\n      swap1\n      dup2\n      mstore\n      0x20\n      add\n      0x00\n      keccak256\n      0x00\n        /* \"contracts/CreateQuiz.sol\":1947:1982  quizIsActive[_quizId] = _quizStatus */\n      0x0100\n      exp\n      dup2\n      sload\n      dup2\n      0xff\n      mul\n      not\n      and\n      swap1\n      dup4\n      iszero\n      iszero\n      mul\n      or\n      swap1\n      sstore\n      pop\n        /* \"contracts/CreateQuiz.sol\":1862:1989  function changeQuizStatus(uint _quizId, bool _quizStatus) public onlyOwner {... */\n      pop\n      pop\n      jump\t// out\n        /* \"contracts/CreateQuiz.sol\":1426:1571  function quizOwnerChangeStatus(uint _quizId, bool _quizStatus) public onlyQuizOwner(_quizId) {... */\n    tag_20:\n        /* \"contracts/CreateQuiz.sol\":1510:1517  _quizId */\n      dup2\n        /* \"contracts/CreateQuiz.sol\":628:638  msg.sender */\n      caller\n        /* \"contracts/CreateQuiz.sol\":606:638  quizOwner[_quizId] == msg.sender */\n      0xffffffffffffffffffffffffffffffffffffffff\n      and\n        /* \"contracts/CreateQuiz.sol\":606:615  quizOwner */\n      0x04\n        /* \"contracts/CreateQuiz.sol\":606:624  quizOwner[_quizId] */\n      0x00\n        /* \"contracts/CreateQuiz.sol\":616:623  _quizId */\n      dup4\n        /* \"contracts/CreateQuiz.sol\":606:624  quizOwner[_quizId] */\n      dup2\n      mstore\n      0x20\n      add\n      swap1\n      dup2\n      mstore\n      0x20\n      add\n      0x00\n      keccak256\n      0x00\n      swap1\n      sload\n      swap1\n      0x0100\n      exp\n      swap1\n      div\n      0xffffffffffffffffffffffffffffffffffffffff\n      and\n        /* \"contracts/CreateQuiz.sol\":606:638  quizOwner[_quizId] == msg.sender */\n      0xffffffffffffffffffffffffffffffffffffffff\n      and\n      eq\n        /* \"contracts/CreateQuiz.sol\":598:639  require(quizOwner[_quizId] == msg.sender) */\n      tag_65\n      jumpi\n      0x00\n      dup1\n      revert\n    tag_65:\n        /* \"contracts/CreateQuiz.sol\":1553:1564  _quizStatus */\n      dup2\n        /* \"contracts/CreateQuiz.sol\":1529:1541  quizIsActive */\n      0x02\n        /* \"contracts/CreateQuiz.sol\":1529:1550  quizIsActive[_quizId] */\n      0x00\n        /* \"contracts/CreateQuiz.sol\":1542:1549  _quizId */\n      dup6\n        /* \"contracts/CreateQuiz.sol\":1529:1550  quizIsActive[_quizId] */\n      dup2\n      mstore\n      0x20\n      add\n      swap1\n      dup2\n      mstore\n      0x20\n      add\n      0x00\n      keccak256\n      0x00\n        /* \"contracts/CreateQuiz.sol\":1529:1564  quizIsActive[_quizId] = _quizStatus */\n      0x0100\n      exp\n      dup2\n      sload\n      dup2\n      0xff\n      mul\n      not\n      and\n      swap1\n      dup4\n      iszero\n      iszero\n      mul\n      or\n      swap1\n      sstore\n      pop\n        /* \"contracts/CreateQuiz.sol\":1426:1571  function quizOwnerChangeStatus(uint _quizId, bool _quizStatus) public onlyQuizOwner(_quizId) {... */\n      pop\n      pop\n      pop\n      jump\t// out\n        /* \"contracts/CreateQuiz.sol\":501:543  mapping (uint => address) public quizOwner */\n    tag_24:\n      mstore(0x20, 0x04)\n      dup1\n      0x00\n      mstore\n      keccak256(0x00, 0x40)\n      0x00\n      swap2\n      pop\n      sload\n      swap1\n      0x0100\n      exp\n      swap1\n      div\n      0xffffffffffffffffffffffffffffffffffffffff\n      and\n      dup2\n      jump\t// out\n        /* \"contracts/CreateQuiz.sol\":404:446  mapping (uint => bool) public quizIsActive */\n    tag_29:\n      mstore(0x20, 0x02)\n      dup1\n      0x00\n      mstore\n      keccak256(0x00, 0x40)\n      0x00\n      swap2\n      pop\n      sload\n      swap1\n      0x0100\n      exp\n      swap1\n      div\n      0xff\n      and\n      dup2\n      jump\t// out\n        /* \"contracts/Ownable.sol\":1661:1762  function renounceOwnership() public virtual onlyOwner {... */\n    tag_33:\n        /* \"contracts/Ownable.sol\":1252:1264  _msgSender() */\n      tag_68\n        /* \"contracts/Ownable.sol\":1252:1262  _msgSender */\n      tag_58\n        /* \"contracts/Ownable.sol\":1252:1264  _msgSender() */\n      jump\t// in\n    tag_68:\n        /* \"contracts/Ownable.sol\":1241:1264  owner() == _msgSender() */\n      0xffffffffffffffffffffffffffffffffffffffff\n      and\n        /* \"contracts/Ownable.sol\":1241:1248  owner() */\n      tag_69\n        /* \"contracts/Ownable.sol\":1241:1246  owner */\n      tag_41\n        /* \"contracts/Ownable.sol\":1241:1248  owner() */\n      jump\t// in\n    tag_69:\n        /* \"contracts/Ownable.sol\":1241:1264  owner() == _msgSender() */\n      0xffffffffffffffffffffffffffffffffffffffff\n      and\n      eq\n        /* \"contracts/Ownable.sol\":1233:1301  require(owner() == _msgSender(), \"Ownable: caller is not the owner\") */\n      tag_70\n      jumpi\n      mload(0x40)\n      0x08c379a000000000000000000000000000000000000000000000000000000000\n      dup2\n      mstore\n      0x04\n      add\n      tag_71\n      swap1\n      tag_62\n      jump\t// in\n    tag_71:\n      mload(0x40)\n      dup1\n      swap2\n      sub\n      swap1\n      revert\n    tag_70:\n        /* \"contracts/Ownable.sol\":1725:1755  _transferOwnership(address(0)) */\n      tag_73\n        /* \"contracts/Ownable.sol\":1752:1753  0 */\n      0x00\n        /* \"contracts/Ownable.sol\":1725:1743  _transferOwnership */\n      tag_74\n        /* \"contracts/Ownable.sol\":1725:1755  _transferOwnership(address(0)) */\n      jump\t// in\n    tag_73:\n        /* \"contracts/Ownable.sol\":1661:1762  function renounceOwnership() public virtual onlyOwner {... */\n      jump\t// out\n        /* \"contracts/ViewQuiz.sol\":256:617  function getRandomQuiz(string memory _seed) public returns (Quiz memory) {... */\n    tag_37:\n        /* \"contracts/ViewQuiz.sol\":316:327  Quiz memory */\n      tag_75\n      tag_76\n      jump\t// in\n    tag_75:\n        /* \"contracts/ViewQuiz.sol\":339:361  uint storedBlockNumber */\n      0x00\n        /* \"contracts/ViewQuiz.sol\":379:380  1 */\n      0x01\n        /* \"contracts/ViewQuiz.sol\":364:376  block.number */\n      number\n        /* \"contracts/ViewQuiz.sol\":364:380  block.number + 1 */\n      tag_78\n      swap2\n      swap1\n      tag_79\n      jump\t// in\n    tag_78:\n        /* \"contracts/ViewQuiz.sol\":339:380  uint storedBlockNumber = block.number + 1 */\n      swap1\n      pop\n        /* \"contracts/ViewQuiz.sol\":390:399  uint rand */\n      0x00\n        /* \"contracts/ViewQuiz.sol\":434:439  _seed */\n      dup4\n        /* \"contracts/ViewQuiz.sol\":451:468  storedBlockNumber */\n      dup3\n        /* \"contracts/ViewQuiz.sol\":441:469  blockhash(storedBlockNumber) */\n      blockhash\n        /* \"contracts/ViewQuiz.sol\":417:470  abi.encodePacked(_seed, blockhash(storedBlockNumber)) */\n      add(0x20, mload(0x40))\n      tag_80\n      swap3\n      swap2\n      swap1\n      tag_81\n      jump\t// in\n    tag_80:\n      mload(0x40)\n      0x20\n      dup2\n      dup4\n      sub\n      sub\n      dup2\n      mstore\n      swap1\n      0x40\n      mstore\n        /* \"contracts/ViewQuiz.sol\":407:471  keccak256(abi.encodePacked(_seed, blockhash(storedBlockNumber))) */\n      dup1\n      mload\n      swap1\n      0x20\n      add\n      keccak256\n        /* \"contracts/ViewQuiz.sol\":402:472  uint(keccak256(abi.encodePacked(_seed, blockhash(storedBlockNumber)))) */\n      0x00\n      shr\n        /* \"contracts/ViewQuiz.sol\":390:472  uint rand = uint(keccak256(abi.encodePacked(_seed, blockhash(storedBlockNumber)))) */\n      swap1\n      pop\n        /* \"contracts/ViewQuiz.sol\":482:493  uint quizId */\n      0x00\n        /* \"contracts/ViewQuiz.sol\":503:510  quizzes */\n      0x01\n        /* \"contracts/ViewQuiz.sol\":503:517  quizzes.length */\n      dup1\n      sload\n      swap1\n      pop\n        /* \"contracts/ViewQuiz.sol\":496:500  rand */\n      dup3\n        /* \"contracts/ViewQuiz.sol\":496:517  rand % quizzes.length */\n      tag_82\n      swap2\n      swap1\n      tag_83\n      jump\t// in\n    tag_82:\n        /* \"contracts/ViewQuiz.sol\":482:517  uint quizId = rand % quizzes.length */\n      swap1\n      pop\n        /* \"contracts/ViewQuiz.sol\":527:543  Quiz memory quiz */\n      0x00\n        /* \"contracts/ViewQuiz.sol\":546:553  quizzes */\n      0x01\n        /* \"contracts/ViewQuiz.sol\":554:560  quizId */\n      dup3\n        /* \"contracts/ViewQuiz.sol\":546:561  quizzes[quizId] */\n      dup2\n      sload\n      dup2\n      lt\n      tag_84\n      jumpi\n      tag_85\n      tag_86\n      jump\t// in\n    tag_85:\n    tag_84:\n      swap1\n      0x00\n      mstore\n      keccak256(0x00, 0x20)\n      swap1\n      0x07\n      mul\n      add\n        /* \"contracts/ViewQuiz.sol\":527:561  Quiz memory quiz = quizzes[quizId] */\n      mload(0x40)\n      dup1\n      0xe0\n      add\n      0x40\n      mstore\n      swap1\n      dup2\n      0x00\n      dup3\n      add\n      dup1\n      sload\n      tag_88\n      swap1\n      tag_89\n      jump\t// in\n    tag_88:\n      dup1\n      0x1f\n      add\n      0x20\n      dup1\n      swap2\n      div\n      mul\n      0x20\n      add\n      mload(0x40)\n      swap1\n      dup2\n      add\n      0x40\n      mstore\n      dup1\n      swap3\n      swap2\n      swap1\n      dup2\n      dup2\n      mstore\n      0x20\n      add\n      dup3\n      dup1\n      sload\n      tag_90\n      swap1\n      tag_89\n      jump\t// in\n    tag_90:\n      dup1\n      iszero\n      tag_91\n      jumpi\n      dup1\n      0x1f\n      lt\n      tag_92\n      jumpi\n      0x0100\n      dup1\n      dup4\n      sload\n      div\n      mul\n      dup4\n      mstore\n      swap2\n      0x20\n      add\n      swap2\n      jump(tag_91)\n    tag_92:\n      dup3\n      add\n      swap2\n      swap1\n      0x00\n      mstore\n      keccak256(0x00, 0x20)\n      swap1\n    tag_93:\n      dup2\n      sload\n      dup2\n      mstore\n      swap1\n      0x01\n      add\n      swap1\n      0x20\n      add\n      dup1\n      dup4\n      gt\n      tag_93\n      jumpi\n      dup3\n      swap1\n      sub\n      0x1f\n      and\n      dup3\n      add\n      swap2\n    tag_91:\n      pop\n      pop\n      pop\n      pop\n      pop\n      dup2\n      mstore\n      0x20\n      add\n      0x01\n      dup3\n      add\n      dup1\n      sload\n      tag_94\n      swap1\n      tag_89\n      jump\t// in\n    tag_94:\n      dup1\n      0x1f\n      add\n      0x20\n      dup1\n      swap2\n      div\n      mul\n      0x20\n      add\n      mload(0x40)\n      swap1\n      dup2\n      add\n      0x40\n      mstore\n      dup1\n      swap3\n      swap2\n      swap1\n      dup2\n      dup2\n      mstore\n      0x20\n      add\n      dup3\n      dup1\n      sload\n      tag_95\n      swap1\n      tag_89\n      jump\t// in\n    tag_95:\n      dup1\n      iszero\n      tag_96\n      jumpi\n      dup1\n      0x1f\n      lt\n      tag_97\n      jumpi\n      0x0100\n      dup1\n      dup4\n      sload\n      div\n      mul\n      dup4\n      mstore\n      swap2\n      0x20\n      add\n      swap2\n      jump(tag_96)\n    tag_97:\n      dup3\n      add\n      swap2\n      swap1\n      0x00\n      mstore\n      keccak256(0x00, 0x20)\n      swap1\n    tag_98:\n      dup2\n      sload\n      dup2\n      mstore\n      swap1\n      0x01\n      add\n      swap1\n      0x20\n      add\n      dup1\n      dup4\n      gt\n      tag_98\n      jumpi\n      dup3\n      swap1\n      sub\n      0x1f\n      and\n      dup3\n      add\n      swap2\n    tag_96:\n      pop\n      pop\n      pop\n      pop\n      pop\n      dup2\n      mstore\n      0x20\n      add\n      0x02\n      dup3\n      add\n      dup1\n      sload\n      tag_99\n      swap1\n      tag_89\n      jump\t// in\n    tag_99:\n      dup1\n      0x1f\n      add\n      0x20\n      dup1\n      swap2\n      div\n      mul\n      0x20\n      add\n      mload(0x40)\n      swap1\n      dup2\n      add\n      0x40\n      mstore\n      dup1\n      swap3\n      swap2\n      swap1\n      dup2\n      dup2\n      mstore\n      0x20\n      add\n      dup3\n      dup1\n      sload\n      tag_100\n      swap1\n      tag_89\n      jump\t// in\n    tag_100:\n      dup1\n      iszero\n      tag_101\n      jumpi\n      dup1\n      0x1f\n      lt\n      tag_102\n      jumpi\n      0x0100\n      dup1\n      dup4\n      sload\n      div\n      mul\n      dup4\n      mstore\n      swap2\n      0x20\n      add\n      swap2\n      jump(tag_101)\n    tag_102:\n      dup3\n      add\n      swap2\n      swap1\n      0x00\n      mstore\n      keccak256(0x00, 0x20)\n      swap1\n    tag_103:\n      dup2\n      sload\n      dup2\n      mstore\n      swap1\n      0x01\n      add\n      swap1\n      0x20\n      add\n      dup1\n      dup4\n      gt\n      tag_103\n      jumpi\n      dup3\n      swap1\n      sub\n      0x1f\n      and\n      dup3\n      add\n      swap2\n    tag_101:\n      pop\n      pop\n      pop\n      pop\n      pop\n      dup2\n      mstore\n      0x20\n      add\n      0x03\n      dup3\n      add\n      dup1\n      sload\n      tag_104\n      swap1\n      tag_89\n      jump\t// in\n    tag_104:\n      dup1\n      0x1f\n      add\n      0x20\n      dup1\n      swap2\n      div\n      mul\n      0x20\n      add\n      mload(0x40)\n      swap1\n      dup2\n      add\n      0x40\n      mstore\n      dup1\n      swap3\n      swap2\n      swap1\n      dup2\n      dup2\n      mstore\n      0x20\n      add\n      dup3\n      dup1\n      sload\n      tag_105\n      swap1\n      tag_89\n      jump\t// in\n    tag_105:\n      dup1\n      iszero\n      tag_106\n      jumpi\n      dup1\n      0x1f\n      lt\n      tag_107\n      jumpi\n      0x0100\n      dup1\n      dup4\n      sload\n      div\n      mul\n      dup4\n      mstore\n      swap2\n      0x20\n      add\n      swap2\n      jump(tag_106)\n    tag_107:\n      dup3\n      add\n      swap2\n      swap1\n      0x00\n      mstore\n      keccak256(0x00, 0x20)\n      swap1\n    tag_108:\n      dup2\n      sload\n      dup2\n      mstore\n      swap1\n      0x01\n      add\n      swap1\n      0x20\n      add\n      dup1\n      dup4\n      gt\n      tag_108\n      jumpi\n      dup3\n      swap1\n      sub\n      0x1f\n      and\n      dup3\n      add\n      swap2\n    tag_106:\n      pop\n      pop\n      pop\n      pop\n      pop\n      dup2\n      mstore\n      0x20\n      add\n      0x04\n      dup3\n      add\n      dup1\n      sload\n      tag_109\n      swap1\n      tag_89\n      jump\t// in\n    tag_109:\n      dup1\n      0x1f\n      add\n      0x20\n      dup1\n      swap2\n      div\n      mul\n      0x20\n      add\n      mload(0x40)\n      swap1\n      dup2\n      add\n      0x40\n      mstore\n      dup1\n      swap3\n      swap2\n      swap1\n      dup2\n      dup2\n      mstore\n      0x20\n      add\n      dup3\n      dup1\n      sload\n      tag_110\n      swap1\n      tag_89\n      jump\t// in\n    tag_110:\n      dup1\n      iszero\n      tag_111\n      jumpi\n      dup1\n      0x1f\n      lt\n      tag_112\n      jumpi\n      0x0100\n      dup1\n      dup4\n      sload\n      div\n      mul\n      dup4\n      mstore\n      swap2\n      0x20\n      add\n      swap2\n      jump(tag_111)\n    tag_112:\n      dup3\n      add\n      swap2\n      swap1\n      0x00\n      mstore\n      keccak256(0x00, 0x20)\n      swap1\n    tag_113:\n      dup2\n      sload\n      dup2\n      mstore\n      swap1\n      0x01\n      add\n      swap1\n      0x20\n      add\n      dup1\n      dup4\n      gt\n      tag_113\n      jumpi\n      dup3\n      swap1\n      sub\n      0x1f\n      and\n      dup3\n      add\n      swap2\n    tag_111:\n      pop\n      pop\n      pop\n      pop\n      pop\n      dup2\n      mstore\n      0x20\n      add\n      0x05\n      dup3\n      add\n      dup1\n      sload\n      tag_114\n      swap1\n      tag_89\n      jump\t// in\n    tag_114:\n      dup1\n      0x1f\n      add\n      0x20\n      dup1\n      swap2\n      div\n      mul\n      0x20\n      add\n      mload(0x40)\n      swap1\n      dup2\n      add\n      0x40\n      mstore\n      dup1\n      swap3\n      swap2\n      swap1\n      dup2\n      dup2\n      mstore\n      0x20\n      add\n      dup3\n      dup1\n      sload\n      tag_115\n      swap1\n      tag_89\n      jump\t// in\n    tag_115:\n      dup1\n      iszero\n      tag_116\n      jumpi\n      dup1\n      0x1f\n      lt\n      tag_117\n      jumpi\n      0x0100\n      dup1\n      dup4\n      sload\n      div\n      mul\n      dup4\n      mstore\n      swap2\n      0x20\n      add\n      swap2\n      jump(tag_116)\n    tag_117:\n      dup3\n      add\n      swap2\n      swap1\n      0x00\n      mstore\n      keccak256(0x00, 0x20)\n      swap1\n    tag_118:\n      dup2\n      sload\n      dup2\n      mstore\n      swap1\n      0x01\n      add\n      swap1\n      0x20\n      add\n      dup1\n      dup4\n      gt\n      tag_118\n      jumpi\n      dup3\n      swap1\n      sub\n      0x1f\n      and\n      dup3\n      add\n      swap2\n    tag_116:\n      pop\n      pop\n      pop\n      pop\n      pop\n      dup2\n      mstore\n      0x20\n      add\n      0x06\n      dup3\n      add\n      0x00\n      swap1\n      sload\n      swap1\n      0x0100\n      exp\n      swap1\n      div\n      0xff\n      and\n      0xff\n      and\n      0xff\n      and\n      dup2\n      mstore\n      pop\n      pop\n      swap1\n      pop\n        /* \"contracts/ViewQuiz.sol\":576:589  GetQuiz(quiz) */\n      0x9e761ccdbc51177b48b7089874745300bb2c5f97582f257ca78eca6f245e4d57\n        /* \"contracts/ViewQuiz.sol\":584:588  quiz */\n      dup2\n        /* \"contracts/ViewQuiz.sol\":576:589  GetQuiz(quiz) */\n      mload(0x40)\n      tag_119\n      swap2\n      swap1\n      tag_39\n      jump\t// in\n    tag_119:\n      mload(0x40)\n      dup1\n      swap2\n      sub\n      swap1\n      log1\n        /* \"contracts/ViewQuiz.sol\":606:610  quiz */\n      dup1\n        /* \"contracts/ViewQuiz.sol\":599:610  return quiz */\n      swap5\n      pop\n      pop\n      pop\n      pop\n      pop\n        /* \"contracts/ViewQuiz.sol\":256:617  function getRandomQuiz(string memory _seed) public returns (Quiz memory) {... */\n      swap2\n      swap1\n      pop\n      jump\t// out\n        /* \"contracts/Ownable.sol\":1029:1114  function owner() public view virtual returns (address) {... */\n    tag_41:\n        /* \"contracts/Ownable.sol\":1075:1082  address */\n      0x00\n        /* \"contracts/Ownable.sol\":1101:1107  _owner */\n      dup1\n      0x00\n      swap1\n      sload\n      swap1\n      0x0100\n      exp\n      swap1\n      div\n      0xffffffffffffffffffffffffffffffffffffffff\n      and\n        /* \"contracts/Ownable.sol\":1094:1107  return _owner */\n      swap1\n      pop\n        /* \"contracts/Ownable.sol\":1029:1114  function owner() public view virtual returns (address) {... */\n      swap1\n      jump\t// out\n        /* \"contracts/ViewQuiz.sol\":880:1112  function quizOwnerGetQuiz(uint _quizId) public onlyQuizOwner(_quizId) returns (Quiz memory, uint8) {... */\n    tag_45:\n        /* \"contracts/ViewQuiz.sol\":959:970  Quiz memory */\n      tag_121\n      tag_76\n      jump\t// in\n    tag_121:\n        /* \"contracts/ViewQuiz.sol\":972:977  uint8 */\n      0x00\n        /* \"contracts/ViewQuiz.sol\":941:948  _quizId */\n      dup3\n        /* \"contracts/CreateQuiz.sol\":628:638  msg.sender */\n      caller\n        /* \"contracts/CreateQuiz.sol\":606:638  quizOwner[_quizId] == msg.sender */\n      0xffffffffffffffffffffffffffffffffffffffff\n      and\n        /* \"contracts/CreateQuiz.sol\":606:615  quizOwner */\n      0x04\n        /* \"contracts/CreateQuiz.sol\":606:624  quizOwner[_quizId] */\n      0x00\n        /* \"contracts/CreateQuiz.sol\":616:623  _quizId */\n      dup4\n        /* \"contracts/CreateQuiz.sol\":606:624  quizOwner[_quizId] */\n      dup2\n      mstore\n      0x20\n      add\n      swap1\n      dup2\n      mstore\n      0x20\n      add\n      0x00\n      keccak256\n      0x00\n      swap1\n      sload\n      swap1\n      0x0100\n      exp\n      swap1\n      div\n      0xffffffffffffffffffffffffffffffffffffffff\n      and\n        /* \"contracts/CreateQuiz.sol\":606:638  quizOwner[_quizId] == msg.sender */\n      0xffffffffffffffffffffffffffffffffffffffff\n      and\n      eq\n        /* \"contracts/CreateQuiz.sol\":598:639  require(quizOwner[_quizId] == msg.sender) */\n      tag_123\n      jumpi\n      0x00\n      dup1\n      revert\n    tag_123:\n        /* \"contracts/ViewQuiz.sol\":994:1049  QuizOwnerGetQuiz(quizzes[_quizId], quizAnswer[_quizId]) */\n      0xfa122ac12f9fab92c2a3bcf05c23b0449c2426fc1425be35ee098a206f91621e\n        /* \"contracts/ViewQuiz.sol\":1011:1018  quizzes */\n      0x01\n        /* \"contracts/ViewQuiz.sol\":1019:1026  _quizId */\n      dup6\n        /* \"contracts/ViewQuiz.sol\":1011:1027  quizzes[_quizId] */\n      dup2\n      sload\n      dup2\n      lt\n      tag_125\n      jumpi\n      tag_126\n      tag_86\n      jump\t// in\n    tag_126:\n    tag_125:\n      swap1\n      0x00\n      mstore\n      keccak256(0x00, 0x20)\n      swap1\n      0x07\n      mul\n      add\n        /* \"contracts/ViewQuiz.sol\":1029:1039  quizAnswer */\n      0x03\n        /* \"contracts/ViewQuiz.sol\":1029:1048  quizAnswer[_quizId] */\n      0x00\n        /* \"contracts/ViewQuiz.sol\":1040:1047  _quizId */\n      dup8\n        /* \"contracts/ViewQuiz.sol\":1029:1048  quizAnswer[_quizId] */\n      dup2\n      mstore\n      0x20\n      add\n      swap1\n      dup2\n      mstore\n      0x20\n      add\n      0x00\n      keccak256\n      0x00\n      swap1\n      sload\n      swap1\n      0x0100\n      exp\n      swap1\n      div\n      0xff\n      and\n        /* \"contracts/ViewQuiz.sol\":994:1049  QuizOwnerGetQuiz(quizzes[_quizId], quizAnswer[_quizId]) */\n      mload(0x40)\n      tag_128\n      swap3\n      swap2\n      swap1\n      tag_129\n      jump\t// in\n    tag_128:\n      mload(0x40)\n      dup1\n      swap2\n      sub\n      swap1\n      log1\n        /* \"contracts/ViewQuiz.sol\":1067:1074  quizzes */\n      0x01\n        /* \"contracts/ViewQuiz.sol\":1075:1082  _quizId */\n      dup5\n        /* \"contracts/ViewQuiz.sol\":1067:1083  quizzes[_quizId] */\n      dup2\n      sload\n      dup2\n      lt\n      tag_130\n      jumpi\n      tag_131\n      tag_86\n      jump\t// in\n    tag_131:\n    tag_130:\n      swap1\n      0x00\n      mstore\n      keccak256(0x00, 0x20)\n      swap1\n      0x07\n      mul\n      add\n        /* \"contracts/ViewQuiz.sol\":1085:1095  quizAnswer */\n      0x03\n        /* \"contracts/ViewQuiz.sol\":1085:1104  quizAnswer[_quizId] */\n      0x00\n        /* \"contracts/ViewQuiz.sol\":1096:1103  _quizId */\n      dup7\n        /* \"contracts/ViewQuiz.sol\":1085:1104  quizAnswer[_quizId] */\n      dup2\n      mstore\n      0x20\n      add\n      swap1\n      dup2\n      mstore\n      0x20\n      add\n      0x00\n      keccak256\n      0x00\n      swap1\n      sload\n      swap1\n      0x0100\n      exp\n      swap1\n      div\n      0xff\n      and\n        /* \"contracts/ViewQuiz.sol\":1059:1105  return (quizzes[_quizId], quizAnswer[_quizId]) */\n      dup2\n      mload(0x40)\n      dup1\n      0xe0\n      add\n      0x40\n      mstore\n      swap1\n      dup2\n      0x00\n      dup3\n      add\n      dup1\n      sload\n      tag_133\n      swap1\n      tag_89\n      jump\t// in\n    tag_133:\n      dup1\n      0x1f\n      add\n      0x20\n      dup1\n      swap2\n      div\n      mul\n      0x20\n      add\n      mload(0x40)\n      swap1\n      dup2\n      add\n      0x40\n      mstore\n      dup1\n      swap3\n      swap2\n      swap1\n      dup2\n      dup2\n      mstore\n      0x20\n      add\n      dup3\n      dup1\n      sload\n      tag_134\n      swap1\n      tag_89\n      jump\t// in\n    tag_134:\n      dup1\n      iszero\n      tag_135\n      jumpi\n      dup1\n      0x1f\n      lt\n      tag_136\n      jumpi\n      0x0100\n      dup1\n      dup4\n      sload\n      div\n      mul\n      dup4\n      mstore\n      swap2\n      0x20\n      add\n      swap2\n      jump(tag_135)\n    tag_136:\n      dup3\n      add\n      swap2\n      swap1\n      0x00\n      mstore\n      keccak256(0x00, 0x20)\n      swap1\n    tag_137:\n      dup2\n      sload\n      dup2\n      mstore\n      swap1\n      0x01\n      add\n      swap1\n      0x20\n      add\n      dup1\n      dup4\n      gt\n      tag_137\n      jumpi\n      dup3\n      swap1\n      sub\n      0x1f\n      and\n      dup3\n      add\n      swap2\n    tag_135:\n      pop\n      pop\n      pop\n      pop\n      pop\n      dup2\n      mstore\n      0x20\n      add\n      0x01\n      dup3\n      add\n      dup1\n      sload\n      tag_138\n      swap1\n      tag_89\n      jump\t// in\n    tag_138:\n      dup1\n      0x1f\n      add\n      0x20\n      dup1\n      swap2\n      div\n      mul\n      0x20\n      add\n      mload(0x40)\n      swap1\n      dup2\n      add\n      0x40\n      mstore\n      dup1\n      swap3\n      swap2\n      swap1\n      dup2\n      dup2\n      mstore\n      0x20\n      add\n      dup3\n      dup1\n      sload\n      tag_139\n      swap1\n      tag_89\n      jump\t// in\n    tag_139:\n      dup1\n      iszero\n      tag_140\n      jumpi\n      dup1\n      0x1f\n      lt\n      tag_141\n      jumpi\n      0x0100\n      dup1\n      dup4\n      sload\n      div\n      mul\n      dup4\n      mstore\n      swap2\n      0x20\n      add\n      swap2\n      jump(tag_140)\n    tag_141:\n      dup3\n      add\n      swap2\n      swap1\n      0x00\n      mstore\n      keccak256(0x00, 0x20)\n      swap1\n    tag_142:\n      dup2\n      sload\n      dup2\n      mstore\n      swap1\n      0x01\n      add\n      swap1\n      0x20\n      add\n      dup1\n      dup4\n      gt\n      tag_142\n      jumpi\n      dup3\n      swap1\n      sub\n      0x1f\n      and\n      dup3\n      add\n      swap2\n    tag_140:\n      pop\n      pop\n      pop\n      pop\n      pop\n      dup2\n      mstore\n      0x20\n      add\n      0x02\n      dup3\n      add\n      dup1\n      sload\n      tag_143\n      swap1\n      tag_89\n      jump\t// in\n    tag_143:\n      dup1\n      0x1f\n      add\n      0x20\n      dup1\n      swap2\n      div\n      mul\n      0x20\n      add\n      mload(0x40)\n      swap1\n      dup2\n      add\n      0x40\n      mstore\n      dup1\n      swap3\n      swap2\n      swap1\n      dup2\n      dup2\n      mstore\n      0x20\n      add\n      dup3\n      dup1\n      sload\n      tag_144\n      swap1\n      tag_89\n      jump\t// in\n    tag_144:\n      dup1\n      iszero\n      tag_145\n      jumpi\n      dup1\n      0x1f\n      lt\n      tag_146\n      jumpi\n      0x0100\n      dup1\n      dup4\n      sload\n      div\n      mul\n      dup4\n      mstore\n      swap2\n      0x20\n      add\n      swap2\n      jump(tag_145)\n    tag_146:\n      dup3\n      add\n      swap2\n      swap1\n      0x00\n      mstore\n      keccak256(0x00, 0x20)\n      swap1\n    tag_147:\n      dup2\n      sload\n      dup2\n      mstore\n      swap1\n      0x01\n      add\n      swap1\n      0x20\n      add\n      dup1\n      dup4\n      gt\n      tag_147\n      jumpi\n      dup3\n      swap1\n      sub\n      0x1f\n      and\n      dup3\n      add\n      swap2\n    tag_145:\n      pop\n      pop\n      pop\n      pop\n      pop\n      dup2\n      mstore\n      0x20\n      add\n      0x03\n      dup3\n      add\n      dup1\n      sload\n      tag_148\n      swap1\n      tag_89\n      jump\t// in\n    tag_148:\n      dup1\n      0x1f\n      add\n      0x20\n      dup1\n      swap2\n      div\n      mul\n      0x20\n      add\n      mload(0x40)\n      swap1\n      dup2\n      add\n      0x40\n      mstore\n      dup1\n      swap3\n      swap2\n      swap1\n      dup2\n      dup2\n      mstore\n      0x20\n      add\n      dup3\n      dup1\n      sload\n      tag_149\n      swap1\n      tag_89\n      jump\t// in\n    tag_149:\n      dup1\n      iszero\n      tag_150\n      jumpi\n      dup1\n      0x1f\n      lt\n      tag_151\n      jumpi\n      0x0100\n      dup1\n      dup4\n      sload\n      div\n      mul\n      dup4\n      mstore\n      swap2\n      0x20\n      add\n      swap2\n      jump(tag_150)\n    tag_151:\n      dup3\n      add\n      swap2\n      swap1\n      0x00\n      mstore\n      keccak256(0x00, 0x20)\n      swap1\n    tag_152:\n      dup2\n      sload\n      dup2\n      mstore\n      swap1\n      0x01\n      add\n      swap1\n      0x20\n      add\n      dup1\n      dup4\n      gt\n      tag_152\n      jumpi\n      dup3\n      swap1\n      sub\n      0x1f\n      and\n      dup3\n      add\n      swap2\n    tag_150:\n      pop\n      pop\n      pop\n      pop\n      pop\n      dup2\n      mstore\n      0x20\n      add\n      0x04\n      dup3\n      add\n      dup1\n      sload\n      tag_153\n      swap1\n      tag_89\n      jump\t// in\n    tag_153:\n      dup1\n      0x1f\n      add\n      0x20\n      dup1\n      swap2\n      div\n      mul\n      0x20\n      add\n      mload(0x40)\n      swap1\n      dup2\n      add\n      0x40\n      mstore\n      dup1\n      swap3\n      swap2\n      swap1\n      dup2\n      dup2\n      mstore\n      0x20\n      add\n      dup3\n      dup1\n      sload\n      tag_154\n      swap1\n      tag_89\n      jump\t// in\n    tag_154:\n      dup1\n      iszero\n      tag_155\n      jumpi\n      dup1\n      0x1f\n      lt\n      tag_156\n      jumpi\n      0x0100\n      dup1\n      dup4\n      sload\n      div\n      mul\n      dup4\n      mstore\n      swap2\n      0x20\n      add\n      swap2\n      jump(tag_155)\n    tag_156:\n      dup3\n      add\n      swap2\n      swap1\n      0x00\n      mstore\n      keccak256(0x00, 0x20)\n      swap1\n    tag_157:\n      dup2\n      sload\n      dup2\n      mstore\n      swap1\n      0x01\n      add\n      swap1\n      0x20\n      add\n      dup1\n      dup4\n      gt\n      tag_157\n      jumpi\n      dup3\n      swap1\n      sub\n      0x1f\n      and\n      dup3\n      add\n      swap2\n    tag_155:\n      pop\n      pop\n      pop\n      pop\n      pop\n      dup2\n      mstore\n      0x20\n      add\n      0x05\n      dup3\n      add\n      dup1\n      sload\n      tag_158\n      swap1\n      tag_89\n      jump\t// in\n    tag_158:\n      dup1\n      0x1f\n      add\n      0x20\n      dup1\n      swap2\n      div\n      mul\n      0x20\n      add\n      mload(0x40)\n      swap1\n      dup2\n      add\n      0x40\n      mstore\n      dup1\n      swap3\n      swap2\n      swap1\n      dup2\n      dup2\n      mstore\n      0x20\n      add\n      dup3\n      dup1\n      sload\n      tag_159\n      swap1\n      tag_89\n      jump\t// in\n    tag_159:\n      dup1\n      iszero\n      tag_160\n      jumpi\n      dup1\n      0x1f\n      lt\n      tag_161\n      jumpi\n      0x0100\n      dup1\n      dup4\n      sload\n      div\n      mul\n      dup4\n      mstore\n      swap2\n      0x20\n      add\n      swap2\n      jump(tag_160)\n    tag_161:\n      dup3\n      add\n      swap2\n      swap1\n      0x00\n      mstore\n      keccak256(0x00, 0x20)\n      swap1\n    tag_162:\n      dup2\n      sload\n      dup2\n      mstore\n      swap1\n      0x01\n      add\n      swap1\n      0x20\n      add\n      dup1\n      dup4\n      gt\n      tag_162\n      jumpi\n      dup3\n      swap1\n      sub\n      0x1f\n      and\n      dup3\n      add\n      swap2\n    tag_160:\n      pop\n      pop\n      pop\n      pop\n      pop\n      dup2\n      mstore\n      0x20\n      add\n      0x06\n      dup3\n      add\n      0x00\n      swap1\n      sload\n      swap1\n      0x0100\n      exp\n      swap1\n      div\n      0xff\n      and\n      0xff\n      and\n      0xff\n      and\n      dup2\n      mstore\n      pop\n      pop\n      swap2\n      pop\n      swap3\n      pop\n      swap3\n      pop\n        /* \"contracts/ViewQuiz.sol\":880:1112  function quizOwnerGetQuiz(uint _quizId) public onlyQuizOwner(_quizId) returns (Quiz memory, uint8) {... */\n      pop\n      swap2\n      pop\n      swap2\n      jump\t// out\n        /* \"contracts/Ownable.sol\":1911:2109  function transferOwnership(address newOwner) public virtual onlyOwner {... */\n    tag_51:\n        /* \"contracts/Ownable.sol\":1252:1264  _msgSender() */\n      tag_164\n        /* \"contracts/Ownable.sol\":1252:1262  _msgSender */\n      tag_58\n        /* \"contracts/Ownable.sol\":1252:1264  _msgSender() */\n      jump\t// in\n    tag_164:\n        /* \"contracts/Ownable.sol\":1241:1264  owner() == _msgSender() */\n      0xffffffffffffffffffffffffffffffffffffffff\n      and\n        /* \"contracts/Ownable.sol\":1241:1248  owner() */\n      tag_165\n        /* \"contracts/Ownable.sol\":1241:1246  owner */\n      tag_41\n        /* \"contracts/Ownable.sol\":1241:1248  owner() */\n      jump\t// in\n    tag_165:\n        /* \"contracts/Ownable.sol\":1241:1264  owner() == _msgSender() */\n      0xffffffffffffffffffffffffffffffffffffffff\n      and\n      eq\n        /* \"contracts/Ownable.sol\":1233:1301  require(owner() == _msgSender(), \"Ownable: caller is not the owner\") */\n      tag_166\n      jumpi\n      mload(0x40)\n      0x08c379a000000000000000000000000000000000000000000000000000000000\n      dup2\n      mstore\n      0x04\n      add\n      tag_167\n      swap1\n      tag_62\n      jump\t// in\n    tag_167:\n      mload(0x40)\n      dup1\n      swap2\n      sub\n      swap1\n      revert\n    tag_166:\n        /* \"contracts/Ownable.sol\":2019:2020  0 */\n      0x00\n        /* \"contracts/Ownable.sol\":1999:2021  newOwner != address(0) */\n      0xffffffffffffffffffffffffffffffffffffffff\n      and\n        /* \"contracts/Ownable.sol\":1999:2007  newOwner */\n      dup2\n        /* \"contracts/Ownable.sol\":1999:2021  newOwner != address(0) */\n      0xffffffffffffffffffffffffffffffffffffffff\n      and\n      sub\n        /* \"contracts/Ownable.sol\":1991:2064  require(newOwner != address(0), \"Ownable: new owner is the zero address\") */\n      tag_169\n      jumpi\n      mload(0x40)\n      0x08c379a000000000000000000000000000000000000000000000000000000000\n      dup2\n      mstore\n      0x04\n      add\n      tag_170\n      swap1\n      tag_171\n      jump\t// in\n    tag_170:\n      mload(0x40)\n      dup1\n      swap2\n      sub\n      swap1\n      revert\n    tag_169:\n        /* \"contracts/Ownable.sol\":2074:2102  _transferOwnership(newOwner) */\n      tag_172\n        /* \"contracts/Ownable.sol\":2093:2101  newOwner */\n      dup2\n        /* \"contracts/Ownable.sol\":2074:2092  _transferOwnership */\n      tag_74\n        /* \"contracts/Ownable.sol\":2074:2102  _transferOwnership(newOwner) */\n      jump\t// in\n    tag_172:\n        /* \"contracts/Ownable.sol\":1911:2109  function transferOwnership(address newOwner) public virtual onlyOwner {... */\n      pop\n      jump\t// out\n        /* \"contracts/CreateQuiz.sol\":1632:1772  function quizOwnerChangeHint(uint _quizId, string memory _hint) public onlyQuizOwner(_quizId) {... */\n    tag_55:\n        /* \"contracts/CreateQuiz.sol\":1717:1724  _quizId */\n      dup2\n        /* \"contracts/CreateQuiz.sol\":628:638  msg.sender */\n      caller\n        /* \"contracts/CreateQuiz.sol\":606:638  quizOwner[_quizId] == msg.sender */\n      0xffffffffffffffffffffffffffffffffffffffff\n      and\n        /* \"contracts/CreateQuiz.sol\":606:615  quizOwner */\n      0x04\n        /* \"contracts/CreateQuiz.sol\":606:624  quizOwner[_quizId] */\n      0x00\n        /* \"contracts/CreateQuiz.sol\":616:623  _quizId */\n      dup4\n        /* \"contracts/CreateQuiz.sol\":606:624  quizOwner[_quizId] */\n      dup2\n      mstore\n      0x20\n      add\n      swap1\n      dup2\n      mstore\n      0x20\n      add\n      0x00\n      keccak256\n      0x00\n      swap1\n      sload\n      swap1\n      0x0100\n      exp\n      swap1\n      div\n      0xffffffffffffffffffffffffffffffffffffffff\n      and\n        /* \"contracts/CreateQuiz.sol\":606:638  quizOwner[_quizId] == msg.sender */\n      0xffffffffffffffffffffffffffffffffffffffff\n      and\n      eq\n        /* \"contracts/CreateQuiz.sol\":598:639  require(quizOwner[_quizId] == msg.sender) */\n      tag_174\n      jumpi\n      0x00\n      dup1\n      revert\n    tag_174:\n        /* \"contracts/CreateQuiz.sol\":1760:1765  _hint */\n      dup2\n        /* \"contracts/CreateQuiz.sol\":1736:1743  quizzes */\n      0x01\n        /* \"contracts/CreateQuiz.sol\":1744:1751  _quizId */\n      dup5\n        /* \"contracts/CreateQuiz.sol\":1736:1752  quizzes[_quizId] */\n      dup2\n      sload\n      dup2\n      lt\n      tag_176\n      jumpi\n      tag_177\n      tag_86\n      jump\t// in\n    tag_177:\n    tag_176:\n      swap1\n      0x00\n      mstore\n      keccak256(0x00, 0x20)\n      swap1\n      0x07\n      mul\n      add\n        /* \"contracts/CreateQuiz.sol\":1736:1757  quizzes[_quizId].hint */\n      0x05\n      add\n        /* \"contracts/CreateQuiz.sol\":1736:1765  quizzes[_quizId].hint = _hint */\n      swap1\n      dup1\n      mload\n      swap1\n      0x20\n      add\n      swap1\n      tag_179\n      swap3\n      swap2\n      swap1\n      tag_180\n      jump\t// in\n    tag_179:\n      pop\n        /* \"contracts/CreateQuiz.sol\":1632:1772  function quizOwnerChangeHint(uint _quizId, string memory _hint) public onlyQuizOwner(_quizId) {... */\n      pop\n      pop\n      pop\n      jump\t// out\n        /* \"contracts/Context.sol\":640:736  function _msgSender() internal view virtual returns (address) {... */\n    tag_58:\n        /* \"contracts/Context.sol\":693:700  address */\n      0x00\n        /* \"contracts/Context.sol\":719:729  msg.sender */\n      caller\n        /* \"contracts/Context.sol\":712:729  return msg.sender */\n      swap1\n      pop\n        /* \"contracts/Context.sol\":640:736  function _msgSender() internal view virtual returns (address) {... */\n      swap1\n      jump\t// out\n        /* \"contracts/Ownable.sol\":2263:2450  function _transferOwnership(address newOwner) internal virtual {... */\n    tag_74:\n        /* \"contracts/Ownable.sol\":2336:2352  address oldOwner */\n      0x00\n        /* \"contracts/Ownable.sol\":2355:2361  _owner */\n      dup1\n      0x00\n      swap1\n      sload\n      swap1\n      0x0100\n      exp\n      swap1\n      div\n      0xffffffffffffffffffffffffffffffffffffffff\n      and\n        /* \"contracts/Ownable.sol\":2336:2361  address oldOwner = _owner */\n      swap1\n      pop\n        /* \"contracts/Ownable.sol\":2380:2388  newOwner */\n      dup2\n        /* \"contracts/Ownable.sol\":2371:2377  _owner */\n      0x00\n      dup1\n        /* \"contracts/Ownable.sol\":2371:2388  _owner = newOwner */\n      0x0100\n      exp\n      dup2\n      sload\n      dup2\n      0xffffffffffffffffffffffffffffffffffffffff\n      mul\n      not\n      and\n      swap1\n      dup4\n      0xffffffffffffffffffffffffffffffffffffffff\n      and\n      mul\n      or\n      swap1\n      sstore\n      pop\n        /* \"contracts/Ownable.sol\":2434:2442  newOwner */\n      dup2\n        /* \"contracts/Ownable.sol\":2403:2443  OwnershipTransferred(oldOwner, newOwner) */\n      0xffffffffffffffffffffffffffffffffffffffff\n      and\n        /* \"contracts/Ownable.sol\":2424:2432  oldOwner */\n      dup2\n        /* \"contracts/Ownable.sol\":2403:2443  OwnershipTransferred(oldOwner, newOwner) */\n      0xffffffffffffffffffffffffffffffffffffffff\n      and\n      0x8be0079c531659141344cd1fd0a4f28419497f9722a3daafe3b4186f6b6457e0\n      mload(0x40)\n      mload(0x40)\n      dup1\n      swap2\n      sub\n      swap1\n      log3\n        /* \"contracts/Ownable.sol\":2326:2450  {... */\n      pop\n        /* \"contracts/Ownable.sol\":2263:2450  function _transferOwnership(address newOwner) internal virtual {... */\n      pop\n      jump\t// out\n    tag_76:\n      mload(0x40)\n      dup1\n      0xe0\n      add\n      0x40\n      mstore\n      dup1\n      0x60\n      dup2\n      mstore\n      0x20\n      add\n      0x60\n      dup2\n      mstore\n      0x20\n      add\n      0x60\n      dup2\n      mstore\n      0x20\n      add\n      0x60\n      dup2\n      mstore\n      0x20\n      add\n      0x60\n      dup2\n      mstore\n      0x20\n      add\n      0x60\n      dup2\n      mstore\n      0x20\n      add\n      and(0xff, 0x00)\n      dup2\n      mstore\n      pop\n      swap1\n      jump\t// out\n    tag_180:\n      dup3\n      dup1\n      sload\n      tag_183\n      swap1\n      tag_89\n      jump\t// in\n    tag_183:\n      swap1\n      0x00\n      mstore\n      keccak256(0x00, 0x20)\n      swap1\n      0x1f\n      add\n      0x20\n      swap1\n      div\n      dup2\n      add\n      swap3\n      dup3\n      tag_185\n      jumpi\n      0x00\n      dup6\n      sstore\n      jump(tag_184)\n    tag_185:\n      dup3\n      0x1f\n      lt\n      tag_186\n      jumpi\n      dup1\n      mload\n      not(0xff)\n      and\n      dup4\n      dup1\n      add\n      or\n      dup6\n      sstore\n      jump(tag_184)\n    tag_186:\n      dup3\n      dup1\n      add\n      0x01\n      add\n      dup6\n      sstore\n      dup3\n      iszero\n      tag_184\n      jumpi\n      swap2\n      dup3\n      add\n    tag_187:\n      dup3\n      dup2\n      gt\n      iszero\n      tag_188\n      jumpi\n      dup3\n      mload\n      dup3\n      sstore\n      swap2\n      0x20\n      add\n      swap2\n      swap1\n      0x01\n      add\n      swap1\n      jump(tag_187)\n    tag_188:\n    tag_184:\n      pop\n      swap1\n      pop\n      tag_189\n      swap2\n      swap1\n      tag_190\n      jump\t// in\n    tag_189:\n      pop\n      swap1\n      jump\t// out\n    tag_190:\n    tag_191:\n      dup1\n      dup3\n      gt\n      iszero\n      tag_192\n      jumpi\n      0x00\n      dup2\n      0x00\n      swap1\n      sstore\n      pop\n      0x01\n      add\n      jump(tag_191)\n    tag_192:\n      pop\n      swap1\n      jump\t// out\n        /* \"#utility.yul\":7:82   */\n    tag_193:\n        /* \"#utility.yul\":40:46   */\n      0x00\n        /* \"#utility.yul\":73:75   */\n      0x40\n        /* \"#utility.yul\":67:76   */\n      mload\n        /* \"#utility.yul\":57:76   */\n      swap1\n      pop\n        /* \"#utility.yul\":7:82   */\n      swap1\n      jump\t// out\n        /* \"#utility.yul\":88:205   */\n    tag_194:\n        /* \"#utility.yul\":197:198   */\n      0x00\n        /* \"#utility.yul\":194:195   */\n      dup1\n        /* \"#utility.yul\":187:199   */\n      revert\n        /* \"#utility.yul\":211:328   */\n    tag_195:\n        /* \"#utility.yul\":320:321   */\n      0x00\n        /* \"#utility.yul\":317:318   */\n      dup1\n        /* \"#utility.yul\":310:322   */\n      revert\n        /* \"#utility.yul\":334:411   */\n    tag_196:\n        /* \"#utility.yul\":371:378   */\n      0x00\n        /* \"#utility.yul\":400:405   */\n      dup2\n        /* \"#utility.yul\":389:405   */\n      swap1\n      pop\n        /* \"#utility.yul\":334:411   */\n      swap2\n      swap1\n      pop\n      jump\t// out\n        /* \"#utility.yul\":417:539   */\n    tag_197:\n        /* \"#utility.yul\":490:514   */\n      tag_251\n        /* \"#utility.yul\":508:513   */\n      dup2\n        /* \"#utility.yul\":490:514   */\n      tag_196\n      jump\t// in\n    tag_251:\n        /* \"#utility.yul\":483:488   */\n      dup2\n        /* \"#utility.yul\":480:515   */\n      eq\n        /* \"#utility.yul\":470:533   */\n      tag_252\n      jumpi\n        /* \"#utility.yul\":529:530   */\n      0x00\n        /* \"#utility.yul\":526:527   */\n      dup1\n        /* \"#utility.yul\":519:531   */\n      revert\n        /* \"#utility.yul\":470:533   */\n    tag_252:\n        /* \"#utility.yul\":417:539   */\n      pop\n      jump\t// out\n        /* \"#utility.yul\":545:684   */\n    tag_198:\n        /* \"#utility.yul\":591:596   */\n      0x00\n        /* \"#utility.yul\":629:635   */\n      dup2\n        /* \"#utility.yul\":616:636   */\n      calldataload\n        /* \"#utility.yul\":607:636   */\n      swap1\n      pop\n        /* \"#utility.yul\":645:678   */\n      tag_254\n        /* \"#utility.yul\":672:677   */\n      dup2\n        /* \"#utility.yul\":645:678   */\n      tag_197\n      jump\t// in\n    tag_254:\n        /* \"#utility.yul\":545:684   */\n      swap3\n      swap2\n      pop\n      pop\n      jump\t// out\n        /* \"#utility.yul\":690:780   */\n    tag_199:\n        /* \"#utility.yul\":724:731   */\n      0x00\n        /* \"#utility.yul\":767:772   */\n      dup2\n        /* \"#utility.yul\":760:773   */\n      iszero\n        /* \"#utility.yul\":753:774   */\n      iszero\n        /* \"#utility.yul\":742:774   */\n      swap1\n      pop\n        /* \"#utility.yul\":690:780   */\n      swap2\n      swap1\n      pop\n      jump\t// out\n        /* \"#utility.yul\":786:902   */\n    tag_200:\n        /* \"#utility.yul\":856:877   */\n      tag_257\n        /* \"#utility.yul\":871:876   */\n      dup2\n        /* \"#utility.yul\":856:877   */\n      tag_199\n      jump\t// in\n    tag_257:\n        /* \"#utility.yul\":849:854   */\n      dup2\n        /* \"#utility.yul\":846:878   */\n      eq\n        /* \"#utility.yul\":836:896   */\n      tag_258\n      jumpi\n        /* \"#utility.yul\":892:893   */\n      0x00\n        /* \"#utility.yul\":889:890   */\n      dup1\n        /* \"#utility.yul\":882:894   */\n      revert\n        /* \"#utility.yul\":836:896   */\n    tag_258:\n        /* \"#utility.yul\":786:902   */\n      pop\n      jump\t// out\n        /* \"#utility.yul\":908:1041   */\n    tag_201:\n        /* \"#utility.yul\":951:956   */\n      0x00\n        /* \"#utility.yul\":989:995   */\n      dup2\n        /* \"#utility.yul\":976:996   */\n      calldataload\n        /* \"#utility.yul\":967:996   */\n      swap1\n      pop\n        /* \"#utility.yul\":1005:1035   */\n      tag_260\n        /* \"#utility.yul\":1029:1034   */\n      dup2\n        /* \"#utility.yul\":1005:1035   */\n      tag_200\n      jump\t// in\n    tag_260:\n        /* \"#utility.yul\":908:1041   */\n      swap3\n      swap2\n      pop\n      pop\n      jump\t// out\n        /* \"#utility.yul\":1047:1515   */\n    tag_16:\n        /* \"#utility.yul\":1112:1118   */\n      0x00\n        /* \"#utility.yul\":1120:1126   */\n      dup1\n        /* \"#utility.yul\":1169:1171   */\n      0x40\n        /* \"#utility.yul\":1157:1166   */\n      dup4\n        /* \"#utility.yul\":1148:1155   */\n      dup6\n        /* \"#utility.yul\":1144:1167   */\n      sub\n        /* \"#utility.yul\":1140:1172   */\n      slt\n        /* \"#utility.yul\":1137:1256   */\n      iszero\n      tag_262\n      jumpi\n        /* \"#utility.yul\":1175:1254   */\n      tag_263\n      tag_194\n      jump\t// in\n    tag_263:\n        /* \"#utility.yul\":1137:1256   */\n    tag_262:\n        /* \"#utility.yul\":1295:1296   */\n      0x00\n        /* \"#utility.yul\":1320:1373   */\n      tag_264\n        /* \"#utility.yul\":1365:1372   */\n      dup6\n        /* \"#utility.yul\":1356:1362   */\n      dup3\n        /* \"#utility.yul\":1345:1354   */\n      dup7\n        /* \"#utility.yul\":1341:1363   */\n      add\n        /* \"#utility.yul\":1320:1373   */\n      tag_198\n      jump\t// in\n    tag_264:\n        /* \"#utility.yul\":1310:1373   */\n      swap3\n      pop\n        /* \"#utility.yul\":1266:1383   */\n      pop\n        /* \"#utility.yul\":1422:1424   */\n      0x20\n        /* \"#utility.yul\":1448:1498   */\n      tag_265\n        /* \"#utility.yul\":1490:1497   */\n      dup6\n        /* \"#utility.yul\":1481:1487   */\n      dup3\n        /* \"#utility.yul\":1470:1479   */\n      dup7\n        /* \"#utility.yul\":1466:1488   */\n      add\n        /* \"#utility.yul\":1448:1498   */\n      tag_201\n      jump\t// in\n    tag_265:\n        /* \"#utility.yul\":1438:1498   */\n      swap2\n      pop\n        /* \"#utility.yul\":1393:1508   */\n      pop\n        /* \"#utility.yul\":1047:1515   */\n      swap3\n      pop\n      swap3\n      swap1\n      pop\n      jump\t// out\n        /* \"#utility.yul\":1521:1850   */\n    tag_23:\n        /* \"#utility.yul\":1580:1586   */\n      0x00\n        /* \"#utility.yul\":1629:1631   */\n      0x20\n        /* \"#utility.yul\":1617:1626   */\n      dup3\n        /* \"#utility.yul\":1608:1615   */\n      dup5\n        /* \"#utility.yul\":1604:1627   */\n      sub\n        /* \"#utility.yul\":1600:1632   */\n      slt\n        /* \"#utility.yul\":1597:1716   */\n      iszero\n      tag_267\n      jumpi\n        /* \"#utility.yul\":1635:1714   */\n      tag_268\n      tag_194\n      jump\t// in\n    tag_268:\n        /* \"#utility.yul\":1597:1716   */\n    tag_267:\n        /* \"#utility.yul\":1755:1756   */\n      0x00\n        /* \"#utility.yul\":1780:1833   */\n      tag_269\n        /* \"#utility.yul\":1825:1832   */\n      dup5\n        /* \"#utility.yul\":1816:1822   */\n      dup3\n        /* \"#utility.yul\":1805:1814   */\n      dup6\n        /* \"#utility.yul\":1801:1823   */\n      add\n        /* \"#utility.yul\":1780:1833   */\n      tag_198\n      jump\t// in\n    tag_269:\n        /* \"#utility.yul\":1770:1833   */\n      swap2\n      pop\n        /* \"#utility.yul\":1726:1843   */\n      pop\n        /* \"#utility.yul\":1521:1850   */\n      swap3\n      swap2\n      pop\n      pop\n      jump\t// out\n        /* \"#utility.yul\":1856:1982   */\n    tag_202:\n        /* \"#utility.yul\":1893:1900   */\n      0x00\n        /* \"#utility.yul\":1933:1975   */\n      0xffffffffffffffffffffffffffffffffffffffff\n        /* \"#utility.yul\":1926:1931   */\n      dup3\n        /* \"#utility.yul\":1922:1976   */\n      and\n        /* \"#utility.yul\":1911:1976   */\n      swap1\n      pop\n        /* \"#utility.yul\":1856:1982   */\n      swap2\n      swap1\n      pop\n      jump\t// out\n        /* \"#utility.yul\":1988:2084   */\n    tag_203:\n        /* \"#utility.yul\":2025:2032   */\n      0x00\n        /* \"#utility.yul\":2054:2078   */\n      tag_272\n        /* \"#utility.yul\":2072:2077   */\n      dup3\n        /* \"#utility.yul\":2054:2078   */\n      tag_202\n      jump\t// in\n    tag_272:\n        /* \"#utility.yul\":2043:2078   */\n      swap1\n      pop\n        /* \"#utility.yul\":1988:2084   */\n      swap2\n      swap1\n      pop\n      jump\t// out\n        /* \"#utility.yul\":2090:2208   */\n    tag_204:\n        /* \"#utility.yul\":2177:2201   */\n      tag_274\n        /* \"#utility.yul\":2195:2200   */\n      dup2\n        /* \"#utility.yul\":2177:2201   */\n      tag_203\n      jump\t// in\n    tag_274:\n        /* \"#utility.yul\":2172:2175   */\n      dup3\n        /* \"#utility.yul\":2165:2202   */\n      mstore\n        /* \"#utility.yul\":2090:2208   */\n      pop\n      pop\n      jump\t// out\n        /* \"#utility.yul\":2214:2436   */\n    tag_26:\n        /* \"#utility.yul\":2307:2311   */\n      0x00\n        /* \"#utility.yul\":2345:2347   */\n      0x20\n        /* \"#utility.yul\":2334:2343   */\n      dup3\n        /* \"#utility.yul\":2330:2348   */\n      add\n        /* \"#utility.yul\":2322:2348   */\n      swap1\n      pop\n        /* \"#utility.yul\":2358:2429   */\n      tag_276\n        /* \"#utility.yul\":2426:2427   */\n      0x00\n        /* \"#utility.yul\":2415:2424   */\n      dup4\n        /* \"#utility.yul\":2411:2428   */\n      add\n        /* \"#utility.yul\":2402:2408   */\n      dup5\n        /* \"#utility.yul\":2358:2429   */\n      tag_204\n      jump\t// in\n    tag_276:\n        /* \"#utility.yul\":2214:2436   */\n      swap3\n      swap2\n      pop\n      pop\n      jump\t// out\n        /* \"#utility.yul\":2442:2551   */\n    tag_205:\n        /* \"#utility.yul\":2523:2544   */\n      tag_278\n        /* \"#utility.yul\":2538:2543   */\n      dup2\n        /* \"#utility.yul\":2523:2544   */\n      tag_199\n      jump\t// in\n    tag_278:\n        /* \"#utility.yul\":2518:2521   */\n      dup3\n        /* \"#utility.yul\":2511:2545   */\n      mstore\n        /* \"#utility.yul\":2442:2551   */\n      pop\n      pop\n      jump\t// out\n        /* \"#utility.yul\":2557:2767   */\n    tag_31:\n        /* \"#utility.yul\":2644:2648   */\n      0x00\n        /* \"#utility.yul\":2682:2684   */\n      0x20\n        /* \"#utility.yul\":2671:2680   */\n      dup3\n        /* \"#utility.yul\":2667:2685   */\n      add\n        /* \"#utility.yul\":2659:2685   */\n      swap1\n      pop\n        /* \"#utility.yul\":2695:2760   */\n      tag_280\n        /* \"#utility.yul\":2757:2758   */\n      0x00\n        /* \"#utility.yul\":2746:2755   */\n      dup4\n        /* \"#utility.yul\":2742:2759   */\n      add\n        /* \"#utility.yul\":2733:2739   */\n      dup5\n        /* \"#utility.yul\":2695:2760   */\n      tag_205\n      jump\t// in\n    tag_280:\n        /* \"#utility.yul\":2557:2767   */\n      swap3\n      swap2\n      pop\n      pop\n      jump\t// out\n        /* \"#utility.yul\":2773:2890   */\n    tag_206:\n        /* \"#utility.yul\":2882:2883   */\n      0x00\n        /* \"#utility.yul\":2879:2880   */\n      dup1\n        /* \"#utility.yul\":2872:2884   */\n      revert\n        /* \"#utility.yul\":2896:3013   */\n    tag_207:\n        /* \"#utility.yul\":3005:3006   */\n      0x00\n        /* \"#utility.yul\":3002:3003   */\n      dup1\n        /* \"#utility.yul\":2995:3007   */\n      revert\n        /* \"#utility.yul\":3019:3121   */\n    tag_208:\n        /* \"#utility.yul\":3060:3066   */\n      0x00\n        /* \"#utility.yul\":3111:3113   */\n      0x1f\n        /* \"#utility.yul\":3107:3114   */\n      not\n        /* \"#utility.yul\":3102:3104   */\n      0x1f\n        /* \"#utility.yul\":3095:3100   */\n      dup4\n        /* \"#utility.yul\":3091:3105   */\n      add\n        /* \"#utility.yul\":3087:3115   */\n      and\n        /* \"#utility.yul\":3077:3115   */\n      swap1\n      pop\n        /* \"#utility.yul\":3019:3121   */\n      swap2\n      swap1\n      pop\n      jump\t// out\n        /* \"#utility.yul\":3127:3307   */\n    tag_209:\n        /* \"#utility.yul\":3175:3252   */\n      0x4e487b7100000000000000000000000000000000000000000000000000000000\n        /* \"#utility.yul\":3172:3173   */\n      0x00\n        /* \"#utility.yul\":3165:3253   */\n      mstore\n        /* \"#utility.yul\":3272:3276   */\n      0x41\n        /* \"#utility.yul\":3269:3270   */\n      0x04\n        /* \"#utility.yul\":3262:3277   */\n      mstore\n        /* \"#utility.yul\":3296:3300   */\n      0x24\n        /* \"#utility.yul\":3293:3294   */\n      0x00\n        /* \"#utility.yul\":3286:3301   */\n      revert\n        /* \"#utility.yul\":3313:3594   */\n    tag_210:\n        /* \"#utility.yul\":3396:3423   */\n      tag_286\n        /* \"#utility.yul\":3418:3422   */\n      dup3\n        /* \"#utility.yul\":3396:3423   */\n      tag_208\n      jump\t// in\n    tag_286:\n        /* \"#utility.yul\":3388:3394   */\n      dup2\n        /* \"#utility.yul\":3384:3424   */\n      add\n        /* \"#utility.yul\":3526:3532   */\n      dup2\n        /* \"#utility.yul\":3514:3524   */\n      dup2\n        /* \"#utility.yul\":3511:3533   */\n      lt\n        /* \"#utility.yul\":3490:3508   */\n      0xffffffffffffffff\n        /* \"#utility.yul\":3478:3488   */\n      dup3\n        /* \"#utility.yul\":3475:3509   */\n      gt\n        /* \"#utility.yul\":3472:3534   */\n      or\n        /* \"#utility.yul\":3469:3557   */\n      iszero\n      tag_287\n      jumpi\n        /* \"#utility.yul\":3537:3555   */\n      tag_288\n      tag_209\n      jump\t// in\n    tag_288:\n        /* \"#utility.yul\":3469:3557   */\n    tag_287:\n        /* \"#utility.yul\":3577:3587   */\n      dup1\n        /* \"#utility.yul\":3573:3575   */\n      0x40\n        /* \"#utility.yul\":3566:3588   */\n      mstore\n        /* \"#utility.yul\":3356:3594   */\n      pop\n        /* \"#utility.yul\":3313:3594   */\n      pop\n      pop\n      jump\t// out\n        /* \"#utility.yul\":3600:3729   */\n    tag_211:\n        /* \"#utility.yul\":3634:3640   */\n      0x00\n        /* \"#utility.yul\":3661:3681   */\n      tag_290\n      tag_193\n      jump\t// in\n    tag_290:\n        /* \"#utility.yul\":3651:3681   */\n      swap1\n      pop\n        /* \"#utility.yul\":3690:3723   */\n      tag_291\n        /* \"#utility.yul\":3718:3722   */\n      dup3\n        /* \"#utility.yul\":3710:3716   */\n      dup3\n        /* \"#utility.yul\":3690:3723   */\n      tag_210\n      jump\t// in\n    tag_291:\n        /* \"#utility.yul\":3600:3729   */\n      swap2\n      swap1\n      pop\n      jump\t// out\n        /* \"#utility.yul\":3735:4043   */\n    tag_212:\n        /* \"#utility.yul\":3797:3801   */\n      0x00\n        /* \"#utility.yul\":3887:3905   */\n      0xffffffffffffffff\n        /* \"#utility.yul\":3879:3885   */\n      dup3\n        /* \"#utility.yul\":3876:3906   */\n      gt\n        /* \"#utility.yul\":3873:3929   */\n      iszero\n      tag_293\n      jumpi\n        /* \"#utility.yul\":3909:3927   */\n      tag_294\n      tag_209\n      jump\t// in\n    tag_294:\n        /* \"#utility.yul\":3873:3929   */\n    tag_293:\n        /* \"#utility.yul\":3947:3976   */\n      tag_295\n        /* \"#utility.yul\":3969:3975   */\n      dup3\n        /* \"#utility.yul\":3947:3976   */\n      tag_208\n      jump\t// in\n    tag_295:\n        /* \"#utility.yul\":3939:3976   */\n      swap1\n      pop\n        /* \"#utility.yul\":4031:4035   */\n      0x20\n        /* \"#utility.yul\":4025:4029   */\n      dup2\n        /* \"#utility.yul\":4021:4036   */\n      add\n        /* \"#utility.yul\":4013:4036   */\n      swap1\n      pop\n        /* \"#utility.yul\":3735:4043   */\n      swap2\n      swap1\n      pop\n      jump\t// out\n        /* \"#utility.yul\":4049:4203   */\n    tag_213:\n        /* \"#utility.yul\":4133:4139   */\n      dup3\n        /* \"#utility.yul\":4128:4131   */\n      dup2\n        /* \"#utility.yul\":4123:4126   */\n      dup4\n        /* \"#utility.yul\":4110:4140   */\n      calldatacopy\n        /* \"#utility.yul\":4195:4196   */\n      0x00\n        /* \"#utility.yul\":4186:4192   */\n      dup4\n        /* \"#utility.yul\":4181:4184   */\n      dup4\n        /* \"#utility.yul\":4177:4193   */\n      add\n        /* \"#utility.yul\":4170:4197   */\n      mstore\n        /* \"#utility.yul\":4049:4203   */\n      pop\n      pop\n      pop\n      jump\t// out\n        /* \"#utility.yul\":4209:4621   */\n    tag_214:\n        /* \"#utility.yul\":4287:4292   */\n      0x00\n        /* \"#utility.yul\":4312:4378   */\n      tag_298\n        /* \"#utility.yul\":4328:4377   */\n      tag_299\n        /* \"#utility.yul\":4370:4376   */\n      dup5\n        /* \"#utility.yul\":4328:4377   */\n      tag_212\n      jump\t// in\n    tag_299:\n        /* \"#utility.yul\":4312:4378   */\n      tag_211\n      jump\t// in\n    tag_298:\n        /* \"#utility.yul\":4303:4378   */\n      swap1\n      pop\n        /* \"#utility.yul\":4401:4407   */\n      dup3\n        /* \"#utility.yul\":4394:4399   */\n      dup2\n        /* \"#utility.yul\":4387:4408   */\n      mstore\n        /* \"#utility.yul\":4439:4443   */\n      0x20\n        /* \"#utility.yul\":4432:4437   */\n      dup2\n        /* \"#utility.yul\":4428:4444   */\n      add\n        /* \"#utility.yul\":4477:4480   */\n      dup5\n        /* \"#utility.yul\":4468:4474   */\n      dup5\n        /* \"#utility.yul\":4463:4466   */\n      dup5\n        /* \"#utility.yul\":4459:4475   */\n      add\n        /* \"#utility.yul\":4456:4481   */\n      gt\n        /* \"#utility.yul\":4453:4565   */\n      iszero\n      tag_300\n      jumpi\n        /* \"#utility.yul\":4484:4563   */\n      tag_301\n      tag_207\n      jump\t// in\n    tag_301:\n        /* \"#utility.yul\":4453:4565   */\n    tag_300:\n        /* \"#utility.yul\":4574:4615   */\n      tag_302\n        /* \"#utility.yul\":4608:4614   */\n      dup5\n        /* \"#utility.yul\":4603:4606   */\n      dup3\n        /* \"#utility.yul\":4598:4601   */\n      dup6\n        /* \"#utility.yul\":4574:4615   */\n      tag_213\n      jump\t// in\n    tag_302:\n        /* \"#utility.yul\":4293:4621   */\n      pop\n        /* \"#utility.yul\":4209:4621   */\n      swap4\n      swap3\n      pop\n      pop\n      pop\n      jump\t// out\n        /* \"#utility.yul\":4641:4981   */\n    tag_215:\n        /* \"#utility.yul\":4697:4702   */\n      0x00\n        /* \"#utility.yul\":4746:4749   */\n      dup3\n        /* \"#utility.yul\":4739:4743   */\n      0x1f\n        /* \"#utility.yul\":4731:4737   */\n      dup4\n        /* \"#utility.yul\":4727:4744   */\n      add\n        /* \"#utility.yul\":4723:4750   */\n      slt\n        /* \"#utility.yul\":4713:4835   */\n      tag_304\n      jumpi\n        /* \"#utility.yul\":4754:4833   */\n      tag_305\n      tag_206\n      jump\t// in\n    tag_305:\n        /* \"#utility.yul\":4713:4835   */\n    tag_304:\n        /* \"#utility.yul\":4871:4877   */\n      dup2\n        /* \"#utility.yul\":4858:4878   */\n      calldataload\n        /* \"#utility.yul\":4896:4975   */\n      tag_306\n        /* \"#utility.yul\":4971:4974   */\n      dup5\n        /* \"#utility.yul\":4963:4969   */\n      dup3\n        /* \"#utility.yul\":4956:4960   */\n      0x20\n        /* \"#utility.yul\":4948:4954   */\n      dup7\n        /* \"#utility.yul\":4944:4961   */\n      add\n        /* \"#utility.yul\":4896:4975   */\n      tag_214\n      jump\t// in\n    tag_306:\n        /* \"#utility.yul\":4887:4975   */\n      swap2\n      pop\n        /* \"#utility.yul\":4703:4981   */\n      pop\n        /* \"#utility.yul\":4641:4981   */\n      swap3\n      swap2\n      pop\n      pop\n      jump\t// out\n        /* \"#utility.yul\":4987:5496   */\n    tag_36:\n        /* \"#utility.yul\":5056:5062   */\n      0x00\n        /* \"#utility.yul\":5105:5107   */\n      0x20\n        /* \"#utility.yul\":5093:5102   */\n      dup3\n        /* \"#utility.yul\":5084:5091   */\n      dup5\n        /* \"#utility.yul\":5080:5103   */\n      sub\n        /* \"#utility.yul\":5076:5108   */\n      slt\n        /* \"#utility.yul\":5073:5192   */\n      iszero\n      tag_308\n      jumpi\n        /* \"#utility.yul\":5111:5190   */\n      tag_309\n      tag_194\n      jump\t// in\n    tag_309:\n        /* \"#utility.yul\":5073:5192   */\n    tag_308:\n        /* \"#utility.yul\":5259:5260   */\n      0x00\n        /* \"#utility.yul\":5248:5257   */\n      dup3\n        /* \"#utility.yul\":5244:5261   */\n      add\n        /* \"#utility.yul\":5231:5262   */\n      calldataload\n        /* \"#utility.yul\":5289:5307   */\n      0xffffffffffffffff\n        /* \"#utility.yul\":5281:5287   */\n      dup2\n        /* \"#utility.yul\":5278:5308   */\n      gt\n        /* \"#utility.yul\":5275:5392   */\n      iszero\n      tag_310\n      jumpi\n        /* \"#utility.yul\":5311:5390   */\n      tag_311\n      tag_195\n      jump\t// in\n    tag_311:\n        /* \"#utility.yul\":5275:5392   */\n    tag_310:\n        /* \"#utility.yul\":5416:5479   */\n      tag_312\n        /* \"#utility.yul\":5471:5478   */\n      dup5\n        /* \"#utility.yul\":5462:5468   */\n      dup3\n        /* \"#utility.yul\":5451:5460   */\n      dup6\n        /* \"#utility.yul\":5447:5469   */\n      add\n        /* \"#utility.yul\":5416:5479   */\n      tag_215\n      jump\t// in\n    tag_312:\n        /* \"#utility.yul\":5406:5479   */\n      swap2\n      pop\n        /* \"#utility.yul\":5202:5489   */\n      pop\n        /* \"#utility.yul\":4987:5496   */\n      swap3\n      swap2\n      pop\n      pop\n      jump\t// out\n        /* \"#utility.yul\":5502:5601   */\n    tag_216:\n        /* \"#utility.yul\":5554:5560   */\n      0x00\n        /* \"#utility.yul\":5588:5593   */\n      dup2\n        /* \"#utility.yul\":5582:5594   */\n      mload\n        /* \"#utility.yul\":5572:5594   */\n      swap1\n      pop\n        /* \"#utility.yul\":5502:5601   */\n      swap2\n      swap1\n      pop\n      jump\t// out\n        /* \"#utility.yul\":5607:5766   */\n    tag_217:\n        /* \"#utility.yul\":5681:5692   */\n      0x00\n        /* \"#utility.yul\":5715:5721   */\n      dup3\n        /* \"#utility.yul\":5710:5713   */\n      dup3\n        /* \"#utility.yul\":5703:5722   */\n      mstore\n        /* \"#utility.yul\":5755:5759   */\n      0x20\n        /* \"#utility.yul\":5750:5753   */\n      dup3\n        /* \"#utility.yul\":5746:5760   */\n      add\n        /* \"#utility.yul\":5731:5760   */\n      swap1\n      pop\n        /* \"#utility.yul\":5607:5766   */\n      swap3\n      swap2\n      pop\n      pop\n      jump\t// out\n        /* \"#utility.yul\":5772:6079   */\n    tag_218:\n        /* \"#utility.yul\":5840:5841   */\n      0x00\n        /* \"#utility.yul\":5850:5963   */\n    tag_316:\n        /* \"#utility.yul\":5864:5870   */\n      dup4\n        /* \"#utility.yul\":5861:5862   */\n      dup2\n        /* \"#utility.yul\":5858:5871   */\n      lt\n        /* \"#utility.yul\":5850:5963   */\n      iszero\n      tag_318\n      jumpi\n        /* \"#utility.yul\":5949:5950   */\n      dup1\n        /* \"#utility.yul\":5944:5947   */\n      dup3\n        /* \"#utility.yul\":5940:5951   */\n      add\n        /* \"#utility.yul\":5934:5952   */\n      mload\n        /* \"#utility.yul\":5930:5931   */\n      dup2\n        /* \"#utility.yul\":5925:5928   */\n      dup5\n        /* \"#utility.yul\":5921:5932   */\n      add\n        /* \"#utility.yul\":5914:5953   */\n      mstore\n        /* \"#utility.yul\":5886:5888   */\n      0x20\n        /* \"#utility.yul\":5883:5884   */\n      dup2\n        /* \"#utility.yul\":5879:5889   */\n      add\n        /* \"#utility.yul\":5874:5889   */\n      swap1\n      pop\n        /* \"#utility.yul\":5850:5963   */\n      jump(tag_316)\n    tag_318:\n        /* \"#utility.yul\":5981:5987   */\n      dup4\n        /* \"#utility.yul\":5978:5979   */\n      dup2\n        /* \"#utility.yul\":5975:5988   */\n      gt\n        /* \"#utility.yul\":5972:6073   */\n      iszero\n      tag_319\n      jumpi\n        /* \"#utility.yul\":6061:6062   */\n      0x00\n        /* \"#utility.yul\":6052:6058   */\n      dup5\n        /* \"#utility.yul\":6047:6050   */\n      dup5\n        /* \"#utility.yul\":6043:6059   */\n      add\n        /* \"#utility.yul\":6036:6063   */\n      mstore\n        /* \"#utility.yul\":5972:6073   */\n    tag_319:\n        /* \"#utility.yul\":5821:6079   */\n      pop\n        /* \"#utility.yul\":5772:6079   */\n      pop\n      pop\n      pop\n      jump\t// out\n        /* \"#utility.yul\":6085:6429   */\n    tag_219:\n        /* \"#utility.yul\":6163:6166   */\n      0x00\n        /* \"#utility.yul\":6191:6230   */\n      tag_321\n        /* \"#utility.yul\":6224:6229   */\n      dup3\n        /* \"#utility.yul\":6191:6230   */\n      tag_216\n      jump\t// in\n    tag_321:\n        /* \"#utility.yul\":6246:6307   */\n      tag_322\n        /* \"#utility.yul\":6300:6306   */\n      dup2\n        /* \"#utility.yul\":6295:6298   */\n      dup6\n        /* \"#utility.yul\":6246:6307   */\n      tag_217\n      jump\t// in\n    tag_322:\n        /* \"#utility.yul\":6239:6307   */\n      swap4\n      pop\n        /* \"#utility.yul\":6316:6368   */\n      tag_323\n        /* \"#utility.yul\":6361:6367   */\n      dup2\n        /* \"#utility.yul\":6356:6359   */\n      dup6\n        /* \"#utility.yul\":6349:6353   */\n      0x20\n        /* \"#utility.yul\":6342:6347   */\n      dup7\n        /* \"#utility.yul\":6338:6354   */\n      add\n        /* \"#utility.yul\":6316:6368   */\n      tag_218\n      jump\t// in\n    tag_323:\n        /* \"#utility.yul\":6393:6422   */\n      tag_324\n        /* \"#utility.yul\":6415:6421   */\n      dup2\n        /* \"#utility.yul\":6393:6422   */\n      tag_208\n      jump\t// in\n    tag_324:\n        /* \"#utility.yul\":6388:6391   */\n      dup5\n        /* \"#utility.yul\":6384:6423   */\n      add\n        /* \"#utility.yul\":6377:6423   */\n      swap2\n      pop\n        /* \"#utility.yul\":6167:6429   */\n      pop\n        /* \"#utility.yul\":6085:6429   */\n      swap3\n      swap2\n      pop\n      pop\n      jump\t// out\n        /* \"#utility.yul\":6435:6521   */\n    tag_220:\n        /* \"#utility.yul\":6470:6477   */\n      0x00\n        /* \"#utility.yul\":6510:6514   */\n      0xff\n        /* \"#utility.yul\":6503:6508   */\n      dup3\n        /* \"#utility.yul\":6499:6515   */\n      and\n        /* \"#utility.yul\":6488:6515   */\n      swap1\n      pop\n        /* \"#utility.yul\":6435:6521   */\n      swap2\n      swap1\n      pop\n      jump\t// out\n        /* \"#utility.yul\":6527:6629   */\n    tag_221:\n        /* \"#utility.yul\":6600:6622   */\n      tag_327\n        /* \"#utility.yul\":6616:6621   */\n      dup2\n        /* \"#utility.yul\":6600:6622   */\n      tag_220\n      jump\t// in\n    tag_327:\n        /* \"#utility.yul\":6595:6598   */\n      dup3\n        /* \"#utility.yul\":6588:6623   */\n      mstore\n        /* \"#utility.yul\":6527:6629   */\n      pop\n      pop\n      jump\t// out\n        /* \"#utility.yul\":6691:8532   */\n    tag_222:\n        /* \"#utility.yul\":6800:6803   */\n      0x00\n        /* \"#utility.yul\":6836:6840   */\n      0xe0\n        /* \"#utility.yul\":6831:6834   */\n      dup4\n        /* \"#utility.yul\":6827:6841   */\n      add\n        /* \"#utility.yul\":6927:6931   */\n      0x00\n        /* \"#utility.yul\":6920:6925   */\n      dup4\n        /* \"#utility.yul\":6916:6932   */\n      add\n        /* \"#utility.yul\":6910:6933   */\n      mload\n        /* \"#utility.yul\":6980:6983   */\n      dup5\n        /* \"#utility.yul\":6974:6978   */\n      dup3\n        /* \"#utility.yul\":6970:6984   */\n      sub\n        /* \"#utility.yul\":6963:6967   */\n      0x00\n        /* \"#utility.yul\":6958:6961   */\n      dup7\n        /* \"#utility.yul\":6954:6968   */\n      add\n        /* \"#utility.yul\":6947:6985   */\n      mstore\n        /* \"#utility.yul\":7006:7079   */\n      tag_329\n        /* \"#utility.yul\":7074:7078   */\n      dup3\n        /* \"#utility.yul\":7060:7072   */\n      dup3\n        /* \"#utility.yul\":7006:7079   */\n      tag_219\n      jump\t// in\n    tag_329:\n        /* \"#utility.yul\":6998:7079   */\n      swap2\n      pop\n        /* \"#utility.yul\":6851:7090   */\n      pop\n        /* \"#utility.yul\":7175:7179   */\n      0x20\n        /* \"#utility.yul\":7168:7173   */\n      dup4\n        /* \"#utility.yul\":7164:7180   */\n      add\n        /* \"#utility.yul\":7158:7181   */\n      mload\n        /* \"#utility.yul\":7228:7231   */\n      dup5\n        /* \"#utility.yul\":7222:7226   */\n      dup3\n        /* \"#utility.yul\":7218:7232   */\n      sub\n        /* \"#utility.yul\":7211:7215   */\n      0x20\n        /* \"#utility.yul\":7206:7209   */\n      dup7\n        /* \"#utility.yul\":7202:7216   */\n      add\n        /* \"#utility.yul\":7195:7233   */\n      mstore\n        /* \"#utility.yul\":7254:7327   */\n      tag_330\n        /* \"#utility.yul\":7322:7326   */\n      dup3\n        /* \"#utility.yul\":7308:7320   */\n      dup3\n        /* \"#utility.yul\":7254:7327   */\n      tag_219\n      jump\t// in\n    tag_330:\n        /* \"#utility.yul\":7246:7327   */\n      swap2\n      pop\n        /* \"#utility.yul\":7100:7338   */\n      pop\n        /* \"#utility.yul\":7423:7427   */\n      0x40\n        /* \"#utility.yul\":7416:7421   */\n      dup4\n        /* \"#utility.yul\":7412:7428   */\n      add\n        /* \"#utility.yul\":7406:7429   */\n      mload\n        /* \"#utility.yul\":7476:7479   */\n      dup5\n        /* \"#utility.yul\":7470:7474   */\n      dup3\n        /* \"#utility.yul\":7466:7480   */\n      sub\n        /* \"#utility.yul\":7459:7463   */\n      0x40\n        /* \"#utility.yul\":7454:7457   */\n      dup7\n        /* \"#utility.yul\":7450:7464   */\n      add\n        /* \"#utility.yul\":7443:7481   */\n      mstore\n        /* \"#utility.yul\":7502:7575   */\n      tag_331\n        /* \"#utility.yul\":7570:7574   */\n      dup3\n        /* \"#utility.yul\":7556:7568   */\n      dup3\n        /* \"#utility.yul\":7502:7575   */\n      tag_219\n      jump\t// in\n    tag_331:\n        /* \"#utility.yul\":7494:7575   */\n      swap2\n      pop\n        /* \"#utility.yul\":7348:7586   */\n      pop\n        /* \"#utility.yul\":7671:7675   */\n      0x60\n        /* \"#utility.yul\":7664:7669   */\n      dup4\n        /* \"#utility.yul\":7660:7676   */\n      add\n        /* \"#utility.yul\":7654:7677   */\n      mload\n        /* \"#utility.yul\":7724:7727   */\n      dup5\n        /* \"#utility.yul\":7718:7722   */\n      dup3\n        /* \"#utility.yul\":7714:7728   */\n      sub\n        /* \"#utility.yul\":7707:7711   */\n      0x60\n        /* \"#utility.yul\":7702:7705   */\n      dup7\n        /* \"#utility.yul\":7698:7712   */\n      add\n        /* \"#utility.yul\":7691:7729   */\n      mstore\n        /* \"#utility.yul\":7750:7823   */\n      tag_332\n        /* \"#utility.yul\":7818:7822   */\n      dup3\n        /* \"#utility.yul\":7804:7816   */\n      dup3\n        /* \"#utility.yul\":7750:7823   */\n      tag_219\n      jump\t// in\n    tag_332:\n        /* \"#utility.yul\":7742:7823   */\n      swap2\n      pop\n        /* \"#utility.yul\":7596:7834   */\n      pop\n        /* \"#utility.yul\":7919:7923   */\n      0x80\n        /* \"#utility.yul\":7912:7917   */\n      dup4\n        /* \"#utility.yul\":7908:7924   */\n      add\n        /* \"#utility.yul\":7902:7925   */\n      mload\n        /* \"#utility.yul\":7972:7975   */\n      dup5\n        /* \"#utility.yul\":7966:7970   */\n      dup3\n        /* \"#utility.yul\":7962:7976   */\n      sub\n        /* \"#utility.yul\":7955:7959   */\n      0x80\n        /* \"#utility.yul\":7950:7953   */\n      dup7\n        /* \"#utility.yul\":7946:7960   */\n      add\n        /* \"#utility.yul\":7939:7977   */\n      mstore\n        /* \"#utility.yul\":7998:8071   */\n      tag_333\n        /* \"#utility.yul\":8066:8070   */\n      dup3\n        /* \"#utility.yul\":8052:8064   */\n      dup3\n        /* \"#utility.yul\":7998:8071   */\n      tag_219\n      jump\t// in\n    tag_333:\n        /* \"#utility.yul\":7990:8071   */\n      swap2\n      pop\n        /* \"#utility.yul\":7844:8082   */\n      pop\n        /* \"#utility.yul\":8164:8168   */\n      0xa0\n        /* \"#utility.yul\":8157:8162   */\n      dup4\n        /* \"#utility.yul\":8153:8169   */\n      add\n        /* \"#utility.yul\":8147:8170   */\n      mload\n        /* \"#utility.yul\":8217:8220   */\n      dup5\n        /* \"#utility.yul\":8211:8215   */\n      dup3\n        /* \"#utility.yul\":8207:8221   */\n      sub\n        /* \"#utility.yul\":8200:8204   */\n      0xa0\n        /* \"#utility.yul\":8195:8198   */\n      dup7\n        /* \"#utility.yul\":8191:8205   */\n      add\n        /* \"#utility.yul\":8184:8222   */\n      mstore\n        /* \"#utility.yul\":8243:8316   */\n      tag_334\n        /* \"#utility.yul\":8311:8315   */\n      dup3\n        /* \"#utility.yul\":8297:8309   */\n      dup3\n        /* \"#utility.yul\":8243:8316   */\n      tag_219\n      jump\t// in\n    tag_334:\n        /* \"#utility.yul\":8235:8316   */\n      swap2\n      pop\n        /* \"#utility.yul\":8092:8327   */\n      pop\n        /* \"#utility.yul\":8417:8421   */\n      0xc0\n        /* \"#utility.yul\":8410:8415   */\n      dup4\n        /* \"#utility.yul\":8406:8422   */\n      add\n        /* \"#utility.yul\":8400:8423   */\n      mload\n        /* \"#utility.yul\":8436:8495   */\n      tag_335\n        /* \"#utility.yul\":8489:8493   */\n      0xc0\n        /* \"#utility.yul\":8484:8487   */\n      dup7\n        /* \"#utility.yul\":8480:8494   */\n      add\n        /* \"#utility.yul\":8466:8478   */\n      dup3\n        /* \"#utility.yul\":8436:8495   */\n      tag_221\n      jump\t// in\n    tag_335:\n        /* \"#utility.yul\":8337:8505   */\n      pop\n        /* \"#utility.yul\":8522:8526   */\n      dup1\n        /* \"#utility.yul\":8515:8526   */\n      swap2\n      pop\n        /* \"#utility.yul\":6805:8532   */\n      pop\n        /* \"#utility.yul\":6691:8532   */\n      swap3\n      swap2\n      pop\n      pop\n      jump\t// out\n        /* \"#utility.yul\":8538:8891   */\n    tag_39:\n        /* \"#utility.yul\":8671:8675   */\n      0x00\n        /* \"#utility.yul\":8709:8711   */\n      0x20\n        /* \"#utility.yul\":8698:8707   */\n      dup3\n        /* \"#utility.yul\":8694:8712   */\n      add\n        /* \"#utility.yul\":8686:8712   */\n      swap1\n      pop\n        /* \"#utility.yul\":8758:8767   */\n      dup2\n        /* \"#utility.yul\":8752:8756   */\n      dup2\n        /* \"#utility.yul\":8748:8768   */\n      sub\n        /* \"#utility.yul\":8744:8745   */\n      0x00\n        /* \"#utility.yul\":8733:8742   */\n      dup4\n        /* \"#utility.yul\":8729:8746   */\n      add\n        /* \"#utility.yul\":8722:8769   */\n      mstore\n        /* \"#utility.yul\":8786:8884   */\n      tag_337\n        /* \"#utility.yul\":8879:8883   */\n      dup2\n        /* \"#utility.yul\":8870:8876   */\n      dup5\n        /* \"#utility.yul\":8786:8884   */\n      tag_222\n      jump\t// in\n    tag_337:\n        /* \"#utility.yul\":8778:8884   */\n      swap1\n      pop\n        /* \"#utility.yul\":8538:8891   */\n      swap3\n      swap2\n      pop\n      pop\n      jump\t// out\n        /* \"#utility.yul\":8897:9009   */\n    tag_223:\n        /* \"#utility.yul\":8980:9002   */\n      tag_339\n        /* \"#utility.yul\":8996:9001   */\n      dup2\n        /* \"#utility.yul\":8980:9002   */\n      tag_220\n      jump\t// in\n    tag_339:\n        /* \"#utility.yul\":8975:8978   */\n      dup3\n        /* \"#utility.yul\":8968:9003   */\n      mstore\n        /* \"#utility.yul\":8897:9009   */\n      pop\n      pop\n      jump\t// out\n        /* \"#utility.yul\":9015:9470   */\n    tag_47:\n        /* \"#utility.yul\":9172:9176   */\n      0x00\n        /* \"#utility.yul\":9210:9212   */\n      0x40\n        /* \"#utility.yul\":9199:9208   */\n      dup3\n        /* \"#utility.yul\":9195:9213   */\n      add\n        /* \"#utility.yul\":9187:9213   */\n      swap1\n      pop\n        /* \"#utility.yul\":9259:9268   */\n      dup2\n        /* \"#utility.yul\":9253:9257   */\n      dup2\n        /* \"#utility.yul\":9249:9269   */\n      sub\n        /* \"#utility.yul\":9245:9246   */\n      0x00\n        /* \"#utility.yul\":9234:9243   */\n      dup4\n        /* \"#utility.yul\":9230:9247   */\n      add\n        /* \"#utility.yul\":9223:9270   */\n      mstore\n        /* \"#utility.yul\":9287:9385   */\n      tag_341\n        /* \"#utility.yul\":9380:9384   */\n      dup2\n        /* \"#utility.yul\":9371:9377   */\n      dup6\n        /* \"#utility.yul\":9287:9385   */\n      tag_222\n      jump\t// in\n    tag_341:\n        /* \"#utility.yul\":9279:9385   */\n      swap1\n      pop\n        /* \"#utility.yul\":9395:9463   */\n      tag_342\n        /* \"#utility.yul\":9459:9461   */\n      0x20\n        /* \"#utility.yul\":9448:9457   */\n      dup4\n        /* \"#utility.yul\":9444:9462   */\n      add\n        /* \"#utility.yul\":9435:9441   */\n      dup5\n        /* \"#utility.yul\":9395:9463   */\n      tag_223\n      jump\t// in\n    tag_342:\n        /* \"#utility.yul\":9015:9470   */\n      swap4\n      swap3\n      pop\n      pop\n      pop\n      jump\t// out\n        /* \"#utility.yul\":9476:9598   */\n    tag_224:\n        /* \"#utility.yul\":9549:9573   */\n      tag_344\n        /* \"#utility.yul\":9567:9572   */\n      dup2\n        /* \"#utility.yul\":9549:9573   */\n      tag_203\n      jump\t// in\n    tag_344:\n        /* \"#utility.yul\":9542:9547   */\n      dup2\n        /* \"#utility.yul\":9539:9574   */\n      eq\n        /* \"#utility.yul\":9529:9592   */\n      tag_345\n      jumpi\n        /* \"#utility.yul\":9588:9589   */\n      0x00\n        /* \"#utility.yul\":9585:9586   */\n      dup1\n        /* \"#utility.yul\":9578:9590   */\n      revert\n        /* \"#utility.yul\":9529:9592   */\n    tag_345:\n        /* \"#utility.yul\":9476:9598   */\n      pop\n      jump\t// out\n        /* \"#utility.yul\":9604:9743   */\n    tag_225:\n        /* \"#utility.yul\":9650:9655   */\n      0x00\n        /* \"#utility.yul\":9688:9694   */\n      dup2\n        /* \"#utility.yul\":9675:9695   */\n      calldataload\n        /* \"#utility.yul\":9666:9695   */\n      swap1\n      pop\n        /* \"#utility.yul\":9704:9737   */\n      tag_347\n        /* \"#utility.yul\":9731:9736   */\n      dup2\n        /* \"#utility.yul\":9704:9737   */\n      tag_224\n      jump\t// in\n    tag_347:\n        /* \"#utility.yul\":9604:9743   */\n      swap3\n      swap2\n      pop\n      pop\n      jump\t// out\n        /* \"#utility.yul\":9749:10078   */\n    tag_50:\n        /* \"#utility.yul\":9808:9814   */\n      0x00\n        /* \"#utility.yul\":9857:9859   */\n      0x20\n        /* \"#utility.yul\":9845:9854   */\n      dup3\n        /* \"#utility.yul\":9836:9843   */\n      dup5\n        /* \"#utility.yul\":9832:9855   */\n      sub\n        /* \"#utility.yul\":9828:9860   */\n      slt\n        /* \"#utility.yul\":9825:9944   */\n      iszero\n      tag_349\n      jumpi\n        /* \"#utility.yul\":9863:9942   */\n      tag_350\n      tag_194\n      jump\t// in\n    tag_350:\n        /* \"#utility.yul\":9825:9944   */\n    tag_349:\n        /* \"#utility.yul\":9983:9984   */\n      0x00\n        /* \"#utility.yul\":10008:10061   */\n      tag_351\n        /* \"#utility.yul\":10053:10060   */\n      dup5\n        /* \"#utility.yul\":10044:10050   */\n      dup3\n        /* \"#utility.yul\":10033:10042   */\n      dup6\n        /* \"#utility.yul\":10029:10051   */\n      add\n        /* \"#utility.yul\":10008:10061   */\n      tag_225\n      jump\t// in\n    tag_351:\n        /* \"#utility.yul\":9998:10061   */\n      swap2\n      pop\n        /* \"#utility.yul\":9954:10071   */\n      pop\n        /* \"#utility.yul\":9749:10078   */\n      swap3\n      swap2\n      pop\n      pop\n      jump\t// out\n        /* \"#utility.yul\":10084:10738   */\n    tag_54:\n        /* \"#utility.yul\":10162:10168   */\n      0x00\n        /* \"#utility.yul\":10170:10176   */\n      dup1\n        /* \"#utility.yul\":10219:10221   */\n      0x40\n        /* \"#utility.yul\":10207:10216   */\n      dup4\n        /* \"#utility.yul\":10198:10205   */\n      dup6\n        /* \"#utility.yul\":10194:10217   */\n      sub\n        /* \"#utility.yul\":10190:10222   */\n      slt\n        /* \"#utility.yul\":10187:10306   */\n      iszero\n      tag_353\n      jumpi\n        /* \"#utility.yul\":10225:10304   */\n      tag_354\n      tag_194\n      jump\t// in\n    tag_354:\n        /* \"#utility.yul\":10187:10306   */\n    tag_353:\n        /* \"#utility.yul\":10345:10346   */\n      0x00\n        /* \"#utility.yul\":10370:10423   */\n      tag_355\n        /* \"#utility.yul\":10415:10422   */\n      dup6\n        /* \"#utility.yul\":10406:10412   */\n      dup3\n        /* \"#utility.yul\":10395:10404   */\n      dup7\n        /* \"#utility.yul\":10391:10413   */\n      add\n        /* \"#utility.yul\":10370:10423   */\n      tag_198\n      jump\t// in\n    tag_355:\n        /* \"#utility.yul\":10360:10423   */\n      swap3\n      pop\n        /* \"#utility.yul\":10316:10433   */\n      pop\n        /* \"#utility.yul\":10500:10502   */\n      0x20\n        /* \"#utility.yul\":10489:10498   */\n      dup4\n        /* \"#utility.yul\":10485:10503   */\n      add\n        /* \"#utility.yul\":10472:10504   */\n      calldataload\n        /* \"#utility.yul\":10531:10549   */\n      0xffffffffffffffff\n        /* \"#utility.yul\":10523:10529   */\n      dup2\n        /* \"#utility.yul\":10520:10550   */\n      gt\n        /* \"#utility.yul\":10517:10634   */\n      iszero\n      tag_356\n      jumpi\n        /* \"#utility.yul\":10553:10632   */\n      tag_357\n      tag_195\n      jump\t// in\n    tag_357:\n        /* \"#utility.yul\":10517:10634   */\n    tag_356:\n        /* \"#utility.yul\":10658:10721   */\n      tag_358\n        /* \"#utility.yul\":10713:10720   */\n      dup6\n        /* \"#utility.yul\":10704:10710   */\n      dup3\n        /* \"#utility.yul\":10693:10702   */\n      dup7\n        /* \"#utility.yul\":10689:10711   */\n      add\n        /* \"#utility.yul\":10658:10721   */\n      tag_215\n      jump\t// in\n    tag_358:\n        /* \"#utility.yul\":10648:10721   */\n      swap2\n      pop\n        /* \"#utility.yul\":10443:10731   */\n      pop\n        /* \"#utility.yul\":10084:10738   */\n      swap3\n      pop\n      swap3\n      swap1\n      pop\n      jump\t// out\n        /* \"#utility.yul\":10744:10913   */\n    tag_226:\n        /* \"#utility.yul\":10828:10839   */\n      0x00\n        /* \"#utility.yul\":10862:10868   */\n      dup3\n        /* \"#utility.yul\":10857:10860   */\n      dup3\n        /* \"#utility.yul\":10850:10869   */\n      mstore\n        /* \"#utility.yul\":10902:10906   */\n      0x20\n        /* \"#utility.yul\":10897:10900   */\n      dup3\n        /* \"#utility.yul\":10893:10907   */\n      add\n        /* \"#utility.yul\":10878:10907   */\n      swap1\n      pop\n        /* \"#utility.yul\":10744:10913   */\n      swap3\n      swap2\n      pop\n      pop\n      jump\t// out\n        /* \"#utility.yul\":10919:11101   */\n    tag_227:\n        /* \"#utility.yul\":11059:11093   */\n      0x4f776e61626c653a2063616c6c6572206973206e6f7420746865206f776e6572\n        /* \"#utility.yul\":11055:11056   */\n      0x00\n        /* \"#utility.yul\":11047:11053   */\n      dup3\n        /* \"#utility.yul\":11043:11057   */\n      add\n        /* \"#utility.yul\":11036:11094   */\n      mstore\n        /* \"#utility.yul\":10919:11101   */\n      pop\n      jump\t// out\n        /* \"#utility.yul\":11107:11473   */\n    tag_228:\n        /* \"#utility.yul\":11249:11252   */\n      0x00\n        /* \"#utility.yul\":11270:11337   */\n      tag_362\n        /* \"#utility.yul\":11334:11336   */\n      0x20\n        /* \"#utility.yul\":11329:11332   */\n      dup4\n        /* \"#utility.yul\":11270:11337   */\n      tag_226\n      jump\t// in\n    tag_362:\n        /* \"#utility.yul\":11263:11337   */\n      swap2\n      pop\n        /* \"#utility.yul\":11346:11439   */\n      tag_363\n        /* \"#utility.yul\":11435:11438   */\n      dup3\n        /* \"#utility.yul\":11346:11439   */\n      tag_227\n      jump\t// in\n    tag_363:\n        /* \"#utility.yul\":11464:11466   */\n      0x20\n        /* \"#utility.yul\":11459:11462   */\n      dup3\n        /* \"#utility.yul\":11455:11467   */\n      add\n        /* \"#utility.yul\":11448:11467   */\n      swap1\n      pop\n        /* \"#utility.yul\":11107:11473   */\n      swap2\n      swap1\n      pop\n      jump\t// out\n        /* \"#utility.yul\":11479:11898   */\n    tag_62:\n        /* \"#utility.yul\":11645:11649   */\n      0x00\n        /* \"#utility.yul\":11683:11685   */\n      0x20\n        /* \"#utility.yul\":11672:11681   */\n      dup3\n        /* \"#utility.yul\":11668:11686   */\n      add\n        /* \"#utility.yul\":11660:11686   */\n      swap1\n      pop\n        /* \"#utility.yul\":11732:11741   */\n      dup2\n        /* \"#utility.yul\":11726:11730   */\n      dup2\n        /* \"#utility.yul\":11722:11742   */\n      sub\n        /* \"#utility.yul\":11718:11719   */\n      0x00\n        /* \"#utility.yul\":11707:11716   */\n      dup4\n        /* \"#utility.yul\":11703:11720   */\n      add\n        /* \"#utility.yul\":11696:11743   */\n      mstore\n        /* \"#utility.yul\":11760:11891   */\n      tag_365\n        /* \"#utility.yul\":11886:11890   */\n      dup2\n        /* \"#utility.yul\":11760:11891   */\n      tag_228\n      jump\t// in\n    tag_365:\n        /* \"#utility.yul\":11752:11891   */\n      swap1\n      pop\n        /* \"#utility.yul\":11479:11898   */\n      swap2\n      swap1\n      pop\n      jump\t// out\n        /* \"#utility.yul\":11904:12084   */\n    tag_229:\n        /* \"#utility.yul\":11952:12029   */\n      0x4e487b7100000000000000000000000000000000000000000000000000000000\n        /* \"#utility.yul\":11949:11950   */\n      0x00\n        /* \"#utility.yul\":11942:12030   */\n      mstore\n        /* \"#utility.yul\":12049:12053   */\n      0x11\n        /* \"#utility.yul\":12046:12047   */\n      0x04\n        /* \"#utility.yul\":12039:12054   */\n      mstore\n        /* \"#utility.yul\":12073:12077   */\n      0x24\n        /* \"#utility.yul\":12070:12071   */\n      0x00\n        /* \"#utility.yul\":12063:12078   */\n      revert\n        /* \"#utility.yul\":12090:12395   */\n    tag_79:\n        /* \"#utility.yul\":12130:12133   */\n      0x00\n        /* \"#utility.yul\":12149:12169   */\n      tag_368\n        /* \"#utility.yul\":12167:12168   */\n      dup3\n        /* \"#utility.yul\":12149:12169   */\n      tag_196\n      jump\t// in\n    tag_368:\n        /* \"#utility.yul\":12144:12169   */\n      swap2\n      pop\n        /* \"#utility.yul\":12183:12203   */\n      tag_369\n        /* \"#utility.yul\":12201:12202   */\n      dup4\n        /* \"#utility.yul\":12183:12203   */\n      tag_196\n      jump\t// in\n    tag_369:\n        /* \"#utility.yul\":12178:12203   */\n      swap3\n      pop\n        /* \"#utility.yul\":12337:12338   */\n      dup3\n        /* \"#utility.yul\":12269:12335   */\n      0xffffffffffffffffffffffffffffffffffffffffffffffffffffffffffffffff\n        /* \"#utility.yul\":12265:12339   */\n      sub\n        /* \"#utility.yul\":12262:12263   */\n      dup3\n        /* \"#utility.yul\":12259:12340   */\n      gt\n        /* \"#utility.yul\":12256:12363   */\n      iszero\n      tag_370\n      jumpi\n        /* \"#utility.yul\":12343:12361   */\n      tag_371\n      tag_229\n      jump\t// in\n    tag_371:\n        /* \"#utility.yul\":12256:12363   */\n    tag_370:\n        /* \"#utility.yul\":12387:12388   */\n      dup3\n        /* \"#utility.yul\":12384:12385   */\n      dup3\n        /* \"#utility.yul\":12380:12389   */\n      add\n        /* \"#utility.yul\":12373:12389   */\n      swap1\n      pop\n        /* \"#utility.yul\":12090:12395   */\n      swap3\n      swap2\n      pop\n      pop\n      jump\t// out\n        /* \"#utility.yul\":12401:12549   */\n    tag_230:\n        /* \"#utility.yul\":12503:12514   */\n      0x00\n        /* \"#utility.yul\":12540:12543   */\n      dup2\n        /* \"#utility.yul\":12525:12543   */\n      swap1\n      pop\n        /* \"#utility.yul\":12401:12549   */\n      swap3\n      swap2\n      pop\n      pop\n      jump\t// out\n        /* \"#utility.yul\":12555:12932   */\n    tag_231:\n        /* \"#utility.yul\":12661:12664   */\n      0x00\n        /* \"#utility.yul\":12689:12728   */\n      tag_374\n        /* \"#utility.yul\":12722:12727   */\n      dup3\n        /* \"#utility.yul\":12689:12728   */\n      tag_216\n      jump\t// in\n    tag_374:\n        /* \"#utility.yul\":12744:12833   */\n      tag_375\n        /* \"#utility.yul\":12826:12832   */\n      dup2\n        /* \"#utility.yul\":12821:12824   */\n      dup6\n        /* \"#utility.yul\":12744:12833   */\n      tag_230\n      jump\t// in\n    tag_375:\n        /* \"#utility.yul\":12737:12833   */\n      swap4\n      pop\n        /* \"#utility.yul\":12842:12894   */\n      tag_376\n        /* \"#utility.yul\":12887:12893   */\n      dup2\n        /* \"#utility.yul\":12882:12885   */\n      dup6\n        /* \"#utility.yul\":12875:12879   */\n      0x20\n        /* \"#utility.yul\":12868:12873   */\n      dup7\n        /* \"#utility.yul\":12864:12880   */\n      add\n        /* \"#utility.yul\":12842:12894   */\n      tag_218\n      jump\t// in\n    tag_376:\n        /* \"#utility.yul\":12919:12925   */\n      dup1\n        /* \"#utility.yul\":12914:12917   */\n      dup5\n        /* \"#utility.yul\":12910:12926   */\n      add\n        /* \"#utility.yul\":12903:12926   */\n      swap2\n      pop\n        /* \"#utility.yul\":12665:12932   */\n      pop\n        /* \"#utility.yul\":12555:12932   */\n      swap3\n      swap2\n      pop\n      pop\n      jump\t// out\n        /* \"#utility.yul\":12938:13015   */\n    tag_232:\n        /* \"#utility.yul\":12975:12982   */\n      0x00\n        /* \"#utility.yul\":13004:13009   */\n      dup2\n        /* \"#utility.yul\":12993:13009   */\n      swap1\n      pop\n        /* \"#utility.yul\":12938:13015   */\n      swap2\n      swap1\n      pop\n      jump\t// out\n        /* \"#utility.yul\":13021:13100   */\n    tag_233:\n        /* \"#utility.yul\":13060:13067   */\n      0x00\n        /* \"#utility.yul\":13089:13094   */\n      dup2\n        /* \"#utility.yul\":13078:13094   */\n      swap1\n      pop\n        /* \"#utility.yul\":13021:13100   */\n      swap2\n      swap1\n      pop\n      jump\t// out\n        /* \"#utility.yul\":13106:13263   */\n    tag_234:\n        /* \"#utility.yul\":13211:13256   */\n      tag_380\n        /* \"#utility.yul\":13231:13255   */\n      tag_381\n        /* \"#utility.yul\":13249:13254   */\n      dup3\n        /* \"#utility.yul\":13231:13255   */\n      tag_232\n      jump\t// in\n    tag_381:\n        /* \"#utility.yul\":13211:13256   */\n      tag_233\n      jump\t// in\n    tag_380:\n        /* \"#utility.yul\":13206:13209   */\n      dup3\n        /* \"#utility.yul\":13199:13257   */\n      mstore\n        /* \"#utility.yul\":13106:13263   */\n      pop\n      pop\n      jump\t// out\n        /* \"#utility.yul\":13269:13685   */\n    tag_81:\n        /* \"#utility.yul\":13429:13432   */\n      0x00\n        /* \"#utility.yul\":13451:13546   */\n      tag_383\n        /* \"#utility.yul\":13542:13545   */\n      dup3\n        /* \"#utility.yul\":13533:13539   */\n      dup6\n        /* \"#utility.yul\":13451:13546   */\n      tag_231\n      jump\t// in\n    tag_383:\n        /* \"#utility.yul\":13444:13546   */\n      swap2\n      pop\n        /* \"#utility.yul\":13556:13631   */\n      tag_384\n        /* \"#utility.yul\":13627:13630   */\n      dup3\n        /* \"#utility.yul\":13618:13624   */\n      dup5\n        /* \"#utility.yul\":13556:13631   */\n      tag_234\n      jump\t// in\n    tag_384:\n        /* \"#utility.yul\":13656:13658   */\n      0x20\n        /* \"#utility.yul\":13651:13654   */\n      dup3\n        /* \"#utility.yul\":13647:13659   */\n      add\n        /* \"#utility.yul\":13640:13659   */\n      swap2\n      pop\n        /* \"#utility.yul\":13676:13679   */\n      dup2\n        /* \"#utility.yul\":13669:13679   */\n      swap1\n      pop\n        /* \"#utility.yul\":13269:13685   */\n      swap4\n      swap3\n      pop\n      pop\n      pop\n      jump\t// out\n        /* \"#utility.yul\":13691:13871   */\n    tag_235:\n        /* \"#utility.yul\":13739:13816   */\n      0x4e487b7100000000000000000000000000000000000000000000000000000000\n        /* \"#utility.yul\":13736:13737   */\n      0x00\n        /* \"#utility.yul\":13729:13817   */\n      mstore\n        /* \"#utility.yul\":13836:13840   */\n      0x12\n        /* \"#utility.yul\":13833:13834   */\n      0x04\n        /* \"#utility.yul\":13826:13841   */\n      mstore\n        /* \"#utility.yul\":13860:13864   */\n      0x24\n        /* \"#utility.yul\":13857:13858   */\n      0x00\n        /* \"#utility.yul\":13850:13865   */\n      revert\n        /* \"#utility.yul\":13877:14053   */\n    tag_83:\n        /* \"#utility.yul\":13909:13910   */\n      0x00\n        /* \"#utility.yul\":13926:13946   */\n      tag_387\n        /* \"#utility.yul\":13944:13945   */\n      dup3\n        /* \"#utility.yul\":13926:13946   */\n      tag_196\n      jump\t// in\n    tag_387:\n        /* \"#utility.yul\":13921:13946   */\n      swap2\n      pop\n        /* \"#utility.yul\":13960:13980   */\n      tag_388\n        /* \"#utility.yul\":13978:13979   */\n      dup4\n        /* \"#utility.yul\":13960:13980   */\n      tag_196\n      jump\t// in\n    tag_388:\n        /* \"#utility.yul\":13955:13980   */\n      swap3\n      pop\n        /* \"#utility.yul\":13999:14000   */\n      dup3\n        /* \"#utility.yul\":13989:14024   */\n      tag_389\n      jumpi\n        /* \"#utility.yul\":14004:14022   */\n      tag_390\n      tag_235\n      jump\t// in\n    tag_390:\n        /* \"#utility.yul\":13989:14024   */\n    tag_389:\n        /* \"#utility.yul\":14045:14046   */\n      dup3\n        /* \"#utility.yul\":14042:14043   */\n      dup3\n        /* \"#utility.yul\":14038:14047   */\n      mod\n        /* \"#utility.yul\":14033:14047   */\n      swap1\n      pop\n        /* \"#utility.yul\":13877:14053   */\n      swap3\n      swap2\n      pop\n      pop\n      jump\t// out\n        /* \"#utility.yul\":14059:14239   */\n    tag_86:\n        /* \"#utility.yul\":14107:14184   */\n      0x4e487b7100000000000000000000000000000000000000000000000000000000\n        /* \"#utility.yul\":14104:14105   */\n      0x00\n        /* \"#utility.yul\":14097:14185   */\n      mstore\n        /* \"#utility.yul\":14204:14208   */\n      0x32\n        /* \"#utility.yul\":14201:14202   */\n      0x04\n        /* \"#utility.yul\":14194:14209   */\n      mstore\n        /* \"#utility.yul\":14228:14232   */\n      0x24\n        /* \"#utility.yul\":14225:14226   */\n      0x00\n        /* \"#utility.yul\":14218:14233   */\n      revert\n        /* \"#utility.yul\":14245:14425   */\n    tag_236:\n        /* \"#utility.yul\":14293:14370   */\n      0x4e487b7100000000000000000000000000000000000000000000000000000000\n        /* \"#utility.yul\":14290:14291   */\n      0x00\n        /* \"#utility.yul\":14283:14371   */\n      mstore\n        /* \"#utility.yul\":14390:14394   */\n      0x22\n        /* \"#utility.yul\":14387:14388   */\n      0x04\n        /* \"#utility.yul\":14380:14395   */\n      mstore\n        /* \"#utility.yul\":14414:14418   */\n      0x24\n        /* \"#utility.yul\":14411:14412   */\n      0x00\n        /* \"#utility.yul\":14404:14419   */\n      revert\n        /* \"#utility.yul\":14431:14751   */\n    tag_89:\n        /* \"#utility.yul\":14475:14481   */\n      0x00\n        /* \"#utility.yul\":14512:14513   */\n      0x02\n        /* \"#utility.yul\":14506:14510   */\n      dup3\n        /* \"#utility.yul\":14502:14514   */\n      div\n        /* \"#utility.yul\":14492:14514   */\n      swap1\n      pop\n        /* \"#utility.yul\":14559:14560   */\n      0x01\n        /* \"#utility.yul\":14553:14557   */\n      dup3\n        /* \"#utility.yul\":14549:14561   */\n      and\n        /* \"#utility.yul\":14580:14598   */\n      dup1\n        /* \"#utility.yul\":14570:14651   */\n      tag_394\n      jumpi\n        /* \"#utility.yul\":14636:14640   */\n      0x7f\n        /* \"#utility.yul\":14628:14634   */\n      dup3\n        /* \"#utility.yul\":14624:14641   */\n      and\n        /* \"#utility.yul\":14614:14641   */\n      swap2\n      pop\n        /* \"#utility.yul\":14570:14651   */\n    tag_394:\n        /* \"#utility.yul\":14698:14700   */\n      0x20\n        /* \"#utility.yul\":14690:14696   */\n      dup3\n        /* \"#utility.yul\":14687:14701   */\n      lt\n        /* \"#utility.yul\":14667:14685   */\n      dup2\n        /* \"#utility.yul\":14664:14702   */\n      sub\n        /* \"#utility.yul\":14661:14745   */\n      tag_395\n      jumpi\n        /* \"#utility.yul\":14717:14735   */\n      tag_396\n      tag_236\n      jump\t// in\n    tag_396:\n        /* \"#utility.yul\":14661:14745   */\n    tag_395:\n        /* \"#utility.yul\":14482:14751   */\n      pop\n        /* \"#utility.yul\":14431:14751   */\n      swap2\n      swap1\n      pop\n      jump\t// out\n        /* \"#utility.yul\":14757:14898   */\n    tag_237:\n        /* \"#utility.yul\":14806:14810   */\n      0x00\n        /* \"#utility.yul\":14829:14832   */\n      dup2\n        /* \"#utility.yul\":14821:14832   */\n      swap1\n      pop\n        /* \"#utility.yul\":14852:14855   */\n      dup2\n        /* \"#utility.yul\":14849:14850   */\n      0x00\n        /* \"#utility.yul\":14842:14856   */\n      mstore\n        /* \"#utility.yul\":14886:14890   */\n      0x20\n        /* \"#utility.yul\":14883:14884   */\n      0x00\n        /* \"#utility.yul\":14873:14891   */\n      keccak256\n        /* \"#utility.yul\":14865:14891   */\n      swap1\n      pop\n        /* \"#utility.yul\":14757:14898   */\n      swap2\n      swap1\n      pop\n      jump\t// out\n        /* \"#utility.yul\":14928:15710   */\n    tag_238:\n        /* \"#utility.yul\":15003:15006   */\n      0x00\n        /* \"#utility.yul\":15040:15045   */\n      dup2\n        /* \"#utility.yul\":15034:15046   */\n      sload\n        /* \"#utility.yul\":15069:15105   */\n      tag_399\n        /* \"#utility.yul\":15095:15104   */\n      dup2\n        /* \"#utility.yul\":15069:15105   */\n      tag_89\n      jump\t// in\n    tag_399:\n        /* \"#utility.yul\":15121:15182   */\n      tag_400\n        /* \"#utility.yul\":15175:15181   */\n      dup2\n        /* \"#utility.yul\":15170:15173   */\n      dup7\n        /* \"#utility.yul\":15121:15182   */\n      tag_217\n      jump\t// in\n    tag_400:\n        /* \"#utility.yul\":15114:15182   */\n      swap5\n      pop\n        /* \"#utility.yul\":15213:15214   */\n      0x01\n        /* \"#utility.yul\":15202:15211   */\n      dup3\n        /* \"#utility.yul\":15198:15215   */\n      and\n        /* \"#utility.yul\":15229:15230   */\n      0x00\n        /* \"#utility.yul\":15224:15359   */\n      dup2\n      eq\n      tag_402\n      jumpi\n        /* \"#utility.yul\":15373:15374   */\n      0x01\n        /* \"#utility.yul\":15368:15704   */\n      dup2\n      eq\n      tag_403\n      jumpi\n        /* \"#utility.yul\":15191:15704   */\n      jump(tag_401)\n        /* \"#utility.yul\":15224:15359   */\n    tag_402:\n        /* \"#utility.yul\":15308:15312   */\n      0xff\n        /* \"#utility.yul\":15304:15313   */\n      not\n        /* \"#utility.yul\":15293:15302   */\n      dup4\n        /* \"#utility.yul\":15289:15314   */\n      and\n        /* \"#utility.yul\":15284:15287   */\n      dup7\n        /* \"#utility.yul\":15277:15315   */\n      mstore\n        /* \"#utility.yul\":15344:15348   */\n      0x20\n        /* \"#utility.yul\":15339:15342   */\n      dup7\n        /* \"#utility.yul\":15335:15349   */\n      add\n        /* \"#utility.yul\":15328:15349   */\n      swap4\n      pop\n        /* \"#utility.yul\":15224:15359   */\n      jump(tag_401)\n        /* \"#utility.yul\":15368:15704   */\n    tag_403:\n        /* \"#utility.yul\":15435:15473   */\n      tag_404\n        /* \"#utility.yul\":15467:15472   */\n      dup6\n        /* \"#utility.yul\":15435:15473   */\n      tag_237\n      jump\t// in\n    tag_404:\n        /* \"#utility.yul\":15495:15496   */\n      0x00\n        /* \"#utility.yul\":15509:15663   */\n    tag_405:\n        /* \"#utility.yul\":15523:15529   */\n      dup4\n        /* \"#utility.yul\":15520:15521   */\n      dup2\n        /* \"#utility.yul\":15517:15530   */\n      lt\n        /* \"#utility.yul\":15509:15663   */\n      iszero\n      tag_407\n      jumpi\n        /* \"#utility.yul\":15597:15604   */\n      dup2\n        /* \"#utility.yul\":15591:15605   */\n      sload\n        /* \"#utility.yul\":15587:15588   */\n      dup2\n        /* \"#utility.yul\":15582:15585   */\n      dup10\n        /* \"#utility.yul\":15578:15589   */\n      add\n        /* \"#utility.yul\":15571:15606   */\n      mstore\n        /* \"#utility.yul\":15647:15648   */\n      0x01\n        /* \"#utility.yul\":15638:15645   */\n      dup3\n        /* \"#utility.yul\":15634:15649   */\n      add\n        /* \"#utility.yul\":15623:15649   */\n      swap2\n      pop\n        /* \"#utility.yul\":15545:15549   */\n      0x20\n        /* \"#utility.yul\":15542:15543   */\n      dup2\n        /* \"#utility.yul\":15538:15550   */\n      add\n        /* \"#utility.yul\":15533:15550   */\n      swap1\n      pop\n        /* \"#utility.yul\":15509:15663   */\n      jump(tag_405)\n    tag_407:\n        /* \"#utility.yul\":15692:15693   */\n      dup1\n        /* \"#utility.yul\":15687:15690   */\n      dup9\n        /* \"#utility.yul\":15683:15694   */\n      add\n        /* \"#utility.yul\":15676:15694   */\n      swap6\n      pop\n        /* \"#utility.yul\":15375:15704   */\n      pop\n      pop\n        /* \"#utility.yul\":15191:15704   */\n    tag_401:\n      pop\n        /* \"#utility.yul\":15007:15710   */\n      pop\n      pop\n        /* \"#utility.yul\":14928:15710   */\n      swap3\n      swap2\n      pop\n      pop\n      jump\t// out\n        /* \"#utility.yul\":15716:15818   */\n    tag_239:\n        /* \"#utility.yul\":15758:15766   */\n      0x00\n        /* \"#utility.yul\":15805:15810   */\n      dup2\n        /* \"#utility.yul\":15802:15803   */\n      0x00\n        /* \"#utility.yul\":15798:15811   */\n      shr\n        /* \"#utility.yul\":15777:15811   */\n      swap1\n      pop\n        /* \"#utility.yul\":15716:15818   */\n      swap2\n      swap1\n      pop\n      jump\t// out\n        /* \"#utility.yul\":15824:15923   */\n    tag_240:\n        /* \"#utility.yul\":15872:15879   */\n      0x00\n        /* \"#utility.yul\":15912:15916   */\n      0xff\n        /* \"#utility.yul\":15905:15910   */\n      dup3\n        /* \"#utility.yul\":15901:15917   */\n      and\n        /* \"#utility.yul\":15890:15917   */\n      swap1\n      pop\n        /* \"#utility.yul\":15824:15923   */\n      swap2\n      swap1\n      pop\n      jump\t// out\n        /* \"#utility.yul\":15929:16091   */\n    tag_241:\n        /* \"#utility.yul\":15996:16001   */\n      0x00\n        /* \"#utility.yul\":16021:16085   */\n      tag_411\n        /* \"#utility.yul\":16050:16084   */\n      tag_412\n        /* \"#utility.yul\":16073:16083   */\n      dup4\n        /* \"#utility.yul\":16050:16084   */\n      tag_239\n      jump\t// in\n    tag_412:\n        /* \"#utility.yul\":16021:16085   */\n      tag_240\n      jump\t// in\n    tag_411:\n        /* \"#utility.yul\":16012:16085   */\n      swap1\n      pop\n        /* \"#utility.yul\":15929:16091   */\n      swap2\n      swap1\n      pop\n      jump\t// out\n        /* \"#utility.yul\":16153:18036   */\n    tag_242:\n        /* \"#utility.yul\":16259:16262   */\n      0x00\n        /* \"#utility.yul\":16295:16299   */\n      0xe0\n        /* \"#utility.yul\":16290:16293   */\n      dup4\n        /* \"#utility.yul\":16286:16300   */\n      add\n        /* \"#utility.yul\":16326:16327   */\n      0x00\n        /* \"#utility.yul\":16407:16411   */\n      dup1\n        /* \"#utility.yul\":16400:16405   */\n      dup5\n        /* \"#utility.yul\":16396:16412   */\n      add\n        /* \"#utility.yul\":16459:16462   */\n      dup6\n        /* \"#utility.yul\":16453:16457   */\n      dup4\n        /* \"#utility.yul\":16449:16463   */\n      sub\n        /* \"#utility.yul\":16442:16446   */\n      0x00\n        /* \"#utility.yul\":16437:16440   */\n      dup8\n        /* \"#utility.yul\":16433:16447   */\n      add\n        /* \"#utility.yul\":16426:16464   */\n      mstore\n        /* \"#utility.yul\":16485:16555   */\n      tag_414\n        /* \"#utility.yul\":16550:16554   */\n      dup4\n        /* \"#utility.yul\":16536:16548   */\n      dup3\n        /* \"#utility.yul\":16485:16555   */\n      tag_238\n      jump\t// in\n    tag_414:\n        /* \"#utility.yul\":16477:16555   */\n      swap3\n      pop\n        /* \"#utility.yul\":16337:16566   */\n      pop\n        /* \"#utility.yul\":16645:16649   */\n      0x01\n        /* \"#utility.yul\":16638:16643   */\n      dup5\n        /* \"#utility.yul\":16634:16650   */\n      add\n        /* \"#utility.yul\":16697:16700   */\n      dup6\n        /* \"#utility.yul\":16691:16695   */\n      dup4\n        /* \"#utility.yul\":16687:16701   */\n      sub\n        /* \"#utility.yul\":16680:16684   */\n      0x20\n        /* \"#utility.yul\":16675:16678   */\n      dup8\n        /* \"#utility.yul\":16671:16685   */\n      add\n        /* \"#utility.yul\":16664:16702   */\n      mstore\n        /* \"#utility.yul\":16723:16793   */\n      tag_415\n        /* \"#utility.yul\":16788:16792   */\n      dup4\n        /* \"#utility.yul\":16774:16786   */\n      dup3\n        /* \"#utility.yul\":16723:16793   */\n      tag_238\n      jump\t// in\n    tag_415:\n        /* \"#utility.yul\":16715:16793   */\n      swap3\n      pop\n        /* \"#utility.yul\":16576:16804   */\n      pop\n        /* \"#utility.yul\":16883:16887   */\n      0x02\n        /* \"#utility.yul\":16876:16881   */\n      dup5\n        /* \"#utility.yul\":16872:16888   */\n      add\n        /* \"#utility.yul\":16935:16938   */\n      dup6\n        /* \"#utility.yul\":16929:16933   */\n      dup4\n        /* \"#utility.yul\":16925:16939   */\n      sub\n        /* \"#utility.yul\":16918:16922   */\n      0x40\n        /* \"#utility.yul\":16913:16916   */\n      dup8\n        /* \"#utility.yul\":16909:16923   */\n      add\n        /* \"#utility.yul\":16902:16940   */\n      mstore\n        /* \"#utility.yul\":16961:17031   */\n      tag_416\n        /* \"#utility.yul\":17026:17030   */\n      dup4\n        /* \"#utility.yul\":17012:17024   */\n      dup3\n        /* \"#utility.yul\":16961:17031   */\n      tag_238\n      jump\t// in\n    tag_416:\n        /* \"#utility.yul\":16953:17031   */\n      swap3\n      pop\n        /* \"#utility.yul\":16814:17042   */\n      pop\n        /* \"#utility.yul\":17121:17125   */\n      0x03\n        /* \"#utility.yul\":17114:17119   */\n      dup5\n        /* \"#utility.yul\":17110:17126   */\n      add\n        /* \"#utility.yul\":17173:17176   */\n      dup6\n        /* \"#utility.yul\":17167:17171   */\n      dup4\n        /* \"#utility.yul\":17163:17177   */\n      sub\n        /* \"#utility.yul\":17156:17160   */\n      0x60\n        /* \"#utility.yul\":17151:17154   */\n      dup8\n        /* \"#utility.yul\":17147:17161   */\n      add\n        /* \"#utility.yul\":17140:17178   */\n      mstore\n        /* \"#utility.yul\":17199:17269   */\n      tag_417\n        /* \"#utility.yul\":17264:17268   */\n      dup4\n        /* \"#utility.yul\":17250:17262   */\n      dup3\n        /* \"#utility.yul\":17199:17269   */\n      tag_238\n      jump\t// in\n    tag_417:\n        /* \"#utility.yul\":17191:17269   */\n      swap3\n      pop\n        /* \"#utility.yul\":17052:17280   */\n      pop\n        /* \"#utility.yul\":17359:17363   */\n      0x04\n        /* \"#utility.yul\":17352:17357   */\n      dup5\n        /* \"#utility.yul\":17348:17364   */\n      add\n        /* \"#utility.yul\":17411:17414   */\n      dup6\n        /* \"#utility.yul\":17405:17409   */\n      dup4\n        /* \"#utility.yul\":17401:17415   */\n      sub\n        /* \"#utility.yul\":17394:17398   */\n      0x80\n        /* \"#utility.yul\":17389:17392   */\n      dup8\n        /* \"#utility.yul\":17385:17399   */\n      add\n        /* \"#utility.yul\":17378:17416   */\n      mstore\n        /* \"#utility.yul\":17437:17507   */\n      tag_418\n        /* \"#utility.yul\":17502:17506   */\n      dup4\n        /* \"#utility.yul\":17488:17500   */\n      dup3\n        /* \"#utility.yul\":17437:17507   */\n      tag_238\n      jump\t// in\n    tag_418:\n        /* \"#utility.yul\":17429:17507   */\n      swap3\n      pop\n        /* \"#utility.yul\":17290:17518   */\n      pop\n        /* \"#utility.yul\":17594:17598   */\n      0x05\n        /* \"#utility.yul\":17587:17592   */\n      dup5\n        /* \"#utility.yul\":17583:17599   */\n      add\n        /* \"#utility.yul\":17646:17649   */\n      dup6\n        /* \"#utility.yul\":17640:17644   */\n      dup4\n        /* \"#utility.yul\":17636:17650   */\n      sub\n        /* \"#utility.yul\":17629:17633   */\n      0xa0\n        /* \"#utility.yul\":17624:17627   */\n      dup8\n        /* \"#utility.yul\":17620:17634   */\n      add\n        /* \"#utility.yul\":17613:17651   */\n      mstore\n        /* \"#utility.yul\":17672:17742   */\n      tag_419\n        /* \"#utility.yul\":17737:17741   */\n      dup4\n        /* \"#utility.yul\":17723:17735   */\n      dup3\n        /* \"#utility.yul\":17672:17742   */\n      tag_238\n      jump\t// in\n    tag_419:\n        /* \"#utility.yul\":17664:17742   */\n      swap3\n      pop\n        /* \"#utility.yul\":17528:17753   */\n      pop\n        /* \"#utility.yul\":17835:17839   */\n      0x06\n        /* \"#utility.yul\":17828:17833   */\n      dup5\n        /* \"#utility.yul\":17824:17840   */\n      add\n        /* \"#utility.yul\":17818:17841   */\n      sload\n        /* \"#utility.yul\":17805:17841   */\n      swap1\n      pop\n        /* \"#utility.yul\":17874:17927   */\n      tag_420\n        /* \"#utility.yul\":17917:17926   */\n      dup2\n        /* \"#utility.yul\":17874:17927   */\n      tag_241\n      jump\t// in\n    tag_420:\n        /* \"#utility.yul\":17940:17999   */\n      tag_421\n        /* \"#utility.yul\":17993:17997   */\n      0xc0\n        /* \"#utility.yul\":17988:17991   */\n      dup8\n        /* \"#utility.yul\":17984:17998   */\n      add\n        /* \"#utility.yul\":17970:17982   */\n      dup3\n        /* \"#utility.yul\":17940:17999   */\n      tag_221\n      jump\t// in\n    tag_421:\n        /* \"#utility.yul\":17763:18009   */\n      pop\n        /* \"#utility.yul\":18026:18030   */\n      dup2\n        /* \"#utility.yul\":18019:18030   */\n      swap3\n      pop\n        /* \"#utility.yul\":16264:18036   */\n      pop\n      pop\n        /* \"#utility.yul\":16153:18036   */\n      swap3\n      swap2\n      pop\n      pop\n      jump\t// out\n        /* \"#utility.yul\":18042:18491   */\n    tag_129:\n        /* \"#utility.yul\":18196:18200   */\n      0x00\n        /* \"#utility.yul\":18234:18236   */\n      0x40\n        /* \"#utility.yul\":18223:18232   */\n      dup3\n        /* \"#utility.yul\":18219:18237   */\n      add\n        /* \"#utility.yul\":18211:18237   */\n      swap1\n      pop\n        /* \"#utility.yul\":18283:18292   */\n      dup2\n        /* \"#utility.yul\":18277:18281   */\n      dup2\n        /* \"#utility.yul\":18273:18293   */\n      sub\n        /* \"#utility.yul\":18269:18270   */\n      0x00\n        /* \"#utility.yul\":18258:18267   */\n      dup4\n        /* \"#utility.yul\":18254:18271   */\n      add\n        /* \"#utility.yul\":18247:18294   */\n      mstore\n        /* \"#utility.yul\":18311:18406   */\n      tag_423\n        /* \"#utility.yul\":18401:18405   */\n      dup2\n        /* \"#utility.yul\":18392:18398   */\n      dup6\n        /* \"#utility.yul\":18311:18406   */\n      tag_242\n      jump\t// in\n    tag_423:\n        /* \"#utility.yul\":18303:18406   */\n      swap1\n      pop\n        /* \"#utility.yul\":18416:18484   */\n      tag_424\n        /* \"#utility.yul\":18480:18482   */\n      0x20\n        /* \"#utility.yul\":18469:18478   */\n      dup4\n        /* \"#utility.yul\":18465:18483   */\n      add\n        /* \"#utility.yul\":18456:18462   */\n      dup5\n        /* \"#utility.yul\":18416:18484   */\n      tag_223\n      jump\t// in\n    tag_424:\n        /* \"#utility.yul\":18042:18491   */\n      swap4\n      swap3\n      pop\n      pop\n      pop\n      jump\t// out\n        /* \"#utility.yul\":18497:18722   */\n    tag_243:\n        /* \"#utility.yul\":18637:18671   */\n      0x4f776e61626c653a206e6577206f776e657220697320746865207a65726f2061\n        /* \"#utility.yul\":18633:18634   */\n      0x00\n        /* \"#utility.yul\":18625:18631   */\n      dup3\n        /* \"#utility.yul\":18621:18635   */\n      add\n        /* \"#utility.yul\":18614:18672   */\n      mstore\n        /* \"#utility.yul\":18706:18714   */\n      0x6464726573730000000000000000000000000000000000000000000000000000\n        /* \"#utility.yul\":18701:18703   */\n      0x20\n        /* \"#utility.yul\":18693:18699   */\n      dup3\n        /* \"#utility.yul\":18689:18704   */\n      add\n        /* \"#utility.yul\":18682:18715   */\n      mstore\n        /* \"#utility.yul\":18497:18722   */\n      pop\n      jump\t// out\n        /* \"#utility.yul\":18728:19094   */\n    tag_244:\n        /* \"#utility.yul\":18870:18873   */\n      0x00\n        /* \"#utility.yul\":18891:18958   */\n      tag_427\n        /* \"#utility.yul\":18955:18957   */\n      0x26\n        /* \"#utility.yul\":18950:18953   */\n      dup4\n        /* \"#utility.yul\":18891:18958   */\n      tag_226\n      jump\t// in\n    tag_427:\n        /* \"#utility.yul\":18884:18958   */\n      swap2\n      pop\n        /* \"#utility.yul\":18967:19060   */\n      tag_428\n        /* \"#utility.yul\":19056:19059   */\n      dup3\n        /* \"#utility.yul\":18967:19060   */\n      tag_243\n      jump\t// in\n    tag_428:\n        /* \"#utility.yul\":19085:19087   */\n      0x40\n        /* \"#utility.yul\":19080:19083   */\n      dup3\n        /* \"#utility.yul\":19076:19088   */\n      add\n        /* \"#utility.yul\":19069:19088   */\n      swap1\n      pop\n        /* \"#utility.yul\":18728:19094   */\n      swap2\n      swap1\n      pop\n      jump\t// out\n        /* \"#utility.yul\":19100:19519   */\n    tag_171:\n        /* \"#utility.yul\":19266:19270   */\n      0x00\n        /* \"#utility.yul\":19304:19306   */\n      0x20\n        /* \"#utility.yul\":19293:19302   */\n      dup3\n        /* \"#utility.yul\":19289:19307   */\n      add\n        /* \"#utility.yul\":19281:19307   */\n      swap1\n      pop\n        /* \"#utility.yul\":19353:19362   */\n      dup2\n        /* \"#utility.yul\":19347:19351   */\n      dup2\n        /* \"#utility.yul\":19343:19363   */\n      sub\n        /* \"#utility.yul\":19339:19340   */\n      0x00\n        /* \"#utility.yul\":19328:19337   */\n      dup4\n        /* \"#utility.yul\":19324:19341   */\n      add\n        /* \"#utility.yul\":19317:19364   */\n      mstore\n        /* \"#utility.yul\":19381:19512   */\n      tag_430\n        /* \"#utility.yul\":19507:19511   */\n      dup2\n        /* \"#utility.yul\":19381:19512   */\n      tag_244\n      jump\t// in\n    tag_430:\n        /* \"#utility.yul\":19373:19512   */\n      swap1\n      pop\n        /* \"#utility.yul\":19100:19519   */\n      swap2\n      swap1\n      pop\n      jump\t// out\n\n    auxdata: 0xa26469706673582212205be45083dfab29a9435e1e88177de75b4f4575a351c8fd459305b89be97c8cf364736f6c634300080e0033\n}\n",
				"bytecode": {
					"linkReferences": {},
					"object": "608060405234801561001057600080fd5b5061002d61002261003260201b60201c565b61003a60201b60201c565b6100fe565b600033905090565b60008060009054906101000a900473ffffffffffffffffffffffffffffffffffffffff169050816000806101000a81548173ffffffffffffffffffffffffffffffffffffffff021916908373ffffffffffffffffffffffffffffffffffffffff1602179055508173ffffffffffffffffffffffffffffffffffffffff168173ffffffffffffffffffffffffffffffffffffffff167f8be0079c531659141344cd1fd0a4f28419497f9722a3daafe3b4186f6b6457e060405160405180910390a35050565b611b4c8061010d6000396000f3fe608060405234801561001057600080fd5b506004361061009e5760003560e01c8063728b0d8711610066578063728b0d87146101455780638da5cb5b14610175578063b9360cf114610193578063f2fde38b146101c4578063fbb3b6ce146101e05761009e565b80631d3f7559146100a3578063377def85146100bf578063400ae0f9146100db57806351a1d40e1461010b578063715018a61461013b575b600080fd5b6100bd60048036038101906100b8919061114a565b6101fc565b005b6100d960048036038101906100d4919061114a565b6102a7565b005b6100f560048036038101906100f0919061118a565b610343565b60405161010291906111f8565b60405180910390f35b6101256004803603810190610120919061118a565b610376565b6040516101329190611222565b60405180910390f35b610143610396565b005b61015f600480360381019061015a9190611383565b61041e565b60405161016c919061152f565b60405180910390f35b61017d61087a565b60405161018a91906111f8565b60405180910390f35b6101ad60048036038101906101a8919061118a565b6108a3565b6040516101bb929190611560565b60405180910390f35b6101de60048036038101906101d991906115bc565b610d77565b005b6101fa60048036038101906101f591906115e9565b610e6e565b005b610204610f19565b73ffffffffffffffffffffffffffffffffffffffff1661022261087a565b73ffffffffffffffffffffffffffffffffffffffff1614610278576040517f08c379a000000000000000000000000000000000000000000000000000000000815260040161026f906116a2565b60405180910390fd5b806002600084815260200190815260200160002060006101000a81548160ff0219169083151502179055505050565b813373ffffffffffffffffffffffffffffffffffffffff166004600083815260200190815260200160002060009054906101000a900473ffffffffffffffffffffffffffffffffffffffff1673ffffffffffffffffffffffffffffffffffffffff161461031357600080fd5b816002600085815260200190815260200160002060006101000a81548160ff021916908315150217905550505050565b60046020528060005260406000206000915054906101000a900473ffffffffffffffffffffffffffffffffffffffff1681565b60026020528060005260406000206000915054906101000a900460ff1681565b61039e610f19565b73ffffffffffffffffffffffffffffffffffffffff166103bc61087a565b73ffffffffffffffffffffffffffffffffffffffff1614610412576040517f08c379a0000000000000000000000000000000000000000000000000000000008152600401610409906116a2565b60405180910390fd5b61041c6000610f21565b565b610426610fe5565b600060014361043591906116f1565b9050600083824060405160200161044d9291906117ae565b6040516020818303038152906040528051906020012060001c905060006001805490508261047b9190611805565b905060006001828154811061049357610492611836565b5b90600052602060002090600702016040518060e00160405290816000820180546104bc90611894565b80601f01602080910402602001604051908101604052809291908181526020018280546104e890611894565b80156105355780601f1061050a57610100808354040283529160200191610535565b820191906000526020600020905b81548152906001019060200180831161051857829003601f168201915b5050505050815260200160018201805461054e90611894565b80601f016020809104026020016040519081016040528092919081815260200182805461057a90611894565b80156105c75780601f1061059c576101008083540402835291602001916105c7565b820191906000526020600020905b8154815290600101906020018083116105aa57829003601f168201915b505050505081526020016002820180546105e090611894565b80601f016020809104026020016040519081016040528092919081815260200182805461060c90611894565b80156106595780601f1061062e57610100808354040283529160200191610659565b820191906000526020600020905b81548152906001019060200180831161063c57829003601f168201915b5050505050815260200160038201805461067290611894565b80601f016020809104026020016040519081016040528092919081815260200182805461069e90611894565b80156106eb5780601f106106c0576101008083540402835291602001916106eb565b820191906000526020600020905b8154815290600101906020018083116106ce57829003601f168201915b5050505050815260200160048201805461070490611894565b80601f016020809104026020016040519081016040528092919081815260200182805461073090611894565b801561077d5780601f106107525761010080835404028352916020019161077d565b820191906000526020600020905b81548152906001019060200180831161076057829003601f168201915b5050505050815260200160058201805461079690611894565b80601f01602080910402602001604051908101604052809291908181526020018280546107c290611894565b801561080f5780601f106107e45761010080835404028352916020019161080f565b820191906000526020600020905b8154815290600101906020018083116107f257829003601f168201915b505050505081526020016006820160009054906101000a900460ff1660ff1660ff168152505090507f9e761ccdbc51177b48b7089874745300bb2c5f97582f257ca78eca6f245e4d5781604051610866919061152f565b60405180910390a180945050505050919050565b60008060009054906101000a900473ffffffffffffffffffffffffffffffffffffffff16905090565b6108ab610fe5565b6000823373ffffffffffffffffffffffffffffffffffffffff166004600083815260200190815260200160002060009054906101000a900473ffffffffffffffffffffffffffffffffffffffff1673ffffffffffffffffffffffffffffffffffffffff161461091957600080fd5b7ffa122ac12f9fab92c2a3bcf05c23b0449c2426fc1425be35ee098a206f91621e6001858154811061094e5761094d611836565b5b90600052602060002090600702016003600087815260200190815260200160002060009054906101000a900460ff1660405161098b929190611a54565b60405180910390a1600184815481106109a7576109a6611836565b5b90600052602060002090600702016003600086815260200190815260200160002060009054906101000a900460ff16816040518060e00160405290816000820180546109f290611894565b80601f0160208091040260200160405190810160405280929190818152602001828054610a1e90611894565b8015610a6b5780601f10610a4057610100808354040283529160200191610a6b565b820191906000526020600020905b815481529060010190602001808311610a4e57829003601f168201915b50505050508152602001600182018054610a8490611894565b80601f0160208091040260200160405190810160405280929190818152602001828054610ab090611894565b8015610afd5780601f10610ad257610100808354040283529160200191610afd565b820191906000526020600020905b815481529060010190602001808311610ae057829003601f168201915b50505050508152602001600282018054610b1690611894565b80601f0160208091040260200160405190810160405280929190818152602001828054610b4290611894565b8015610b8f5780601f10610b6457610100808354040283529160200191610b8f565b820191906000526020600020905b815481529060010190602001808311610b7257829003601f168201915b50505050508152602001600382018054610ba890611894565b80601f0160208091040260200160405190810160405280929190818152602001828054610bd490611894565b8015610c215780601f10610bf657610100808354040283529160200191610c21565b820191906000526020600020905b815481529060010190602001808311610c0457829003601f168201915b50505050508152602001600482018054610c3a90611894565b80601f0160208091040260200160405190810160405280929190818152602001828054610c6690611894565b8015610cb35780601f10610c8857610100808354040283529160200191610cb3565b820191906000526020600020905b815481529060010190602001808311610c9657829003601f168201915b50505050508152602001600582018054610ccc90611894565b80601f0160208091040260200160405190810160405280929190818152602001828054610cf890611894565b8015610d455780601f10610d1a57610100808354040283529160200191610d45565b820191906000526020600020905b815481529060010190602001808311610d2857829003601f168201915b505050505081526020016006820160009054906101000a900460ff1660ff1660ff168152505091509250925050915091565b610d7f610f19565b73ffffffffffffffffffffffffffffffffffffffff16610d9d61087a565b73ffffffffffffffffffffffffffffffffffffffff1614610df3576040517f08c379a0000000000000000000000000000000000000000000000000000000008152600401610dea906116a2565b60405180910390fd5b600073ffffffffffffffffffffffffffffffffffffffff168173ffffffffffffffffffffffffffffffffffffffff1603610e62576040517f08c379a0000000000000000000000000000000000000000000000000000000008152600401610e5990611af6565b60405180910390fd5b610e6b81610f21565b50565b813373ffffffffffffffffffffffffffffffffffffffff166004600083815260200190815260200160002060009054906101000a900473ffffffffffffffffffffffffffffffffffffffff1673ffffffffffffffffffffffffffffffffffffffff1614610eda57600080fd5b8160018481548110610eef57610eee611836565b5b90600052602060002090600702016005019080519060200190610f13929190611025565b50505050565b600033905090565b60008060009054906101000a900473ffffffffffffffffffffffffffffffffffffffff169050816000806101000a81548173ffffffffffffffffffffffffffffffffffffffff021916908373ffffffffffffffffffffffffffffffffffffffff1602179055508173ffffffffffffffffffffffffffffffffffffffff168173ffffffffffffffffffffffffffffffffffffffff167f8be0079c531659141344cd1fd0a4f28419497f9722a3daafe3b4186f6b6457e060405160405180910390a35050565b6040518060e00160405280606081526020016060815260200160608152602001606081526020016060815260200160608152602001600060ff1681525090565b82805461103190611894565b90600052602060002090601f016020900481019282611053576000855561109a565b82601f1061106c57805160ff191683800117855561109a565b8280016001018555821561109a579182015b8281111561109957825182559160200191906001019061107e565b5b5090506110a791906110ab565b5090565b5b808211156110c45760008160009055506001016110ac565b5090565b6000604051905090565b600080fd5b600080fd5b6000819050919050565b6110ef816110dc565b81146110fa57600080fd5b50565b60008135905061110c816110e6565b92915050565b60008115159050919050565b61112781611112565b811461113257600080fd5b50565b6000813590506111448161111e565b92915050565b60008060408385031215611161576111606110d2565b5b600061116f858286016110fd565b925050602061118085828601611135565b9150509250929050565b6000602082840312156111a05761119f6110d2565b5b60006111ae848285016110fd565b91505092915050565b600073ffffffffffffffffffffffffffffffffffffffff82169050919050565b60006111e2826111b7565b9050919050565b6111f2816111d7565b82525050565b600060208201905061120d60008301846111e9565b92915050565b61121c81611112565b82525050565b60006020820190506112376000830184611213565b92915050565b600080fd5b600080fd5b6000601f19601f8301169050919050565b7f4e487b7100000000000000000000000000000000000000000000000000000000600052604160045260246000fd5b61129082611247565b810181811067ffffffffffffffff821117156112af576112ae611258565b5b80604052505050565b60006112c26110c8565b90506112ce8282611287565b919050565b600067ffffffffffffffff8211156112ee576112ed611258565b5b6112f782611247565b9050602081019050919050565b82818337600083830152505050565b6000611326611321846112d3565b6112b8565b90508281526020810184848401111561134257611341611242565b5b61134d848285611304565b509392505050565b600082601f83011261136a5761136961123d565b5b813561137a848260208601611313565b91505092915050565b600060208284031215611399576113986110d2565b5b600082013567ffffffffffffffff8111156113b7576113b66110d7565b5b6113c384828501611355565b91505092915050565b600081519050919050565b600082825260208201905092915050565b60005b838110156114065780820151818401526020810190506113eb565b83811115611415576000848401525b50505050565b6000611426826113cc565b61143081856113d7565b93506114408185602086016113e8565b61144981611247565b840191505092915050565b600060ff82169050919050565b61146a81611454565b82525050565b600060e083016000830151848203600086015261148d828261141b565b915050602083015184820360208601526114a7828261141b565b915050604083015184820360408601526114c1828261141b565b915050606083015184820360608601526114db828261141b565b915050608083015184820360808601526114f5828261141b565b91505060a083015184820360a086015261150f828261141b565b91505060c083015161152460c0860182611461565b508091505092915050565b600060208201905081810360008301526115498184611470565b905092915050565b61155a81611454565b82525050565b6000604082019050818103600083015261157a8185611470565b90506115896020830184611551565b9392505050565b611599816111d7565b81146115a457600080fd5b50565b6000813590506115b681611590565b92915050565b6000602082840312156115d2576115d16110d2565b5b60006115e0848285016115a7565b91505092915050565b60008060408385031215611600576115ff6110d2565b5b600061160e858286016110fd565b925050602083013567ffffffffffffffff81111561162f5761162e6110d7565b5b61163b85828601611355565b9150509250929050565b600082825260208201905092915050565b7f4f776e61626c653a2063616c6c6572206973206e6f7420746865206f776e6572600082015250565b600061168c602083611645565b915061169782611656565b602082019050919050565b600060208201905081810360008301526116bb8161167f565b9050919050565b7f4e487b7100000000000000000000000000000000000000000000000000000000600052601160045260246000fd5b60006116fc826110dc565b9150611707836110dc565b9250827fffffffffffffffffffffffffffffffffffffffffffffffffffffffffffffffff0382111561173c5761173b6116c2565b5b828201905092915050565b600081905092915050565b600061175d826113cc565b6117678185611747565b93506117778185602086016113e8565b80840191505092915050565b6000819050919050565b6000819050919050565b6117a86117a382611783565b61178d565b82525050565b60006117ba8285611752565b91506117c68284611797565b6020820191508190509392505050565b7f4e487b7100000000000000000000000000000000000000000000000000000000600052601260045260246000fd5b6000611810826110dc565b915061181b836110dc565b92508261182b5761182a6117d6565b5b828206905092915050565b7f4e487b7100000000000000000000000000000000000000000000000000000000600052603260045260246000fd5b7f4e487b7100000000000000000000000000000000000000000000000000000000600052602260045260246000fd5b600060028204905060018216806118ac57607f821691505b6020821081036118bf576118be611865565b5b50919050565b60008190508160005260206000209050919050565b600081546118e781611894565b6118f181866113d7565b9450600182166000811461190c576001811461191e57611951565b60ff1983168652602086019350611951565b611927856118c5565b60005b838110156119495781548189015260018201915060208101905061192a565b808801955050505b50505092915050565b60008160001c9050919050565b600060ff82169050919050565b60006119876119828361195a565b611967565b9050919050565b600060e08301600080840185830360008701526119ab83826118da565b9250506001840185830360208701526119c483826118da565b9250506002840185830360408701526119dd83826118da565b9250506003840185830360608701526119f683826118da565b925050600484018583036080870152611a0f83826118da565b9250506005840185830360a0870152611a2883826118da565b92505060068401549050611a3b81611974565b611a4860c0870182611461565b50819250505092915050565b60006040820190508181036000830152611a6e818561198e565b9050611a7d6020830184611551565b9392505050565b7f4f776e61626c653a206e6577206f776e657220697320746865207a65726f206160008201527f6464726573730000000000000000000000000000000000000000000000000000602082015250565b6000611ae0602683611645565b9150611aeb82611a84565b604082019050919050565b60006020820190508181036000830152611b0f81611ad3565b905091905056fea26469706673582212205be45083dfab29a9435e1e88177de75b4f4575a351c8fd459305b89be97c8cf364736f6c634300080e0033",
					"opcodes": "PUSH1 0x80 PUSH1 0x40 MSTORE CALLVALUE DUP1 ISZERO PUSH2 0x10 JUMPI PUSH1 0x0 DUP1 REVERT JUMPDEST POP PUSH2 0x2D PUSH2 0x22 PUSH2 0x32 PUSH1 0x20 SHL PUSH1 0x20 SHR JUMP JUMPDEST PUSH2 0x3A PUSH1 0x20 SHL PUSH1 0x20 SHR JUMP JUMPDEST PUSH2 0xFE JUMP JUMPDEST PUSH1 0x0 CALLER SWAP1 POP SWAP1 JUMP JUMPDEST PUSH1 0x0 DUP1 PUSH1 0x0 SWAP1 SLOAD SWAP1 PUSH2 0x100 EXP SWAP1 DIV PUSH20 0xFFFFFFFFFFFFFFFFFFFFFFFFFFFFFFFFFFFFFFFF AND SWAP1 POP DUP2 PUSH1 0x0 DUP1 PUSH2 0x100 EXP DUP2 SLOAD DUP2 PUSH20 0xFFFFFFFFFFFFFFFFFFFFFFFFFFFFFFFFFFFFFFFF MUL NOT AND SWAP1 DUP4 PUSH20 0xFFFFFFFFFFFFFFFFFFFFFFFFFFFFFFFFFFFFFFFF AND MUL OR SWAP1 SSTORE POP DUP2 PUSH20 0xFFFFFFFFFFFFFFFFFFFFFFFFFFFFFFFFFFFFFFFF AND DUP2 PUSH20 0xFFFFFFFFFFFFFFFFFFFFFFFFFFFFFFFFFFFFFFFF AND PUSH32 0x8BE0079C531659141344CD1FD0A4F28419497F9722A3DAAFE3B4186F6B6457E0 PUSH1 0x40 MLOAD PUSH1 0x40 MLOAD DUP1 SWAP2 SUB SWAP1 LOG3 POP POP JUMP JUMPDEST PUSH2 0x1B4C DUP1 PUSH2 0x10D PUSH1 0x0 CODECOPY PUSH1 0x0 RETURN INVALID PUSH1 0x80 PUSH1 0x40 MSTORE CALLVALUE DUP1 ISZERO PUSH2 0x10 JUMPI PUSH1 0x0 DUP1 REVERT JUMPDEST POP PUSH1 0x4 CALLDATASIZE LT PUSH2 0x9E JUMPI PUSH1 0x0 CALLDATALOAD PUSH1 0xE0 SHR DUP1 PUSH4 0x728B0D87 GT PUSH2 0x66 JUMPI DUP1 PUSH4 0x728B0D87 EQ PUSH2 0x145 JUMPI DUP1 PUSH4 0x8DA5CB5B EQ PUSH2 0x175 JUMPI DUP1 PUSH4 0xB9360CF1 EQ PUSH2 0x193 JUMPI DUP1 PUSH4 0xF2FDE38B EQ PUSH2 0x1C4 JUMPI DUP1 PUSH4 0xFBB3B6CE EQ PUSH2 0x1E0 JUMPI PUSH2 0x9E JUMP JUMPDEST DUP1 PUSH4 0x1D3F7559 EQ PUSH2 0xA3 JUMPI DUP1 PUSH4 0x377DEF85 EQ PUSH2 0xBF JUMPI DUP1 PUSH4 0x400AE0F9 EQ PUSH2 0xDB JUMPI DUP1 PUSH4 0x51A1D40E EQ PUSH2 0x10B JUMPI DUP1 PUSH4 0x715018A6 EQ PUSH2 0x13B JUMPI JUMPDEST PUSH1 0x0 DUP1 REVERT JUMPDEST PUSH2 0xBD PUSH1 0x4 DUP1 CALLDATASIZE SUB DUP2 ADD SWAP1 PUSH2 0xB8 SWAP2 SWAP1 PUSH2 0x114A JUMP JUMPDEST PUSH2 0x1FC JUMP JUMPDEST STOP JUMPDEST PUSH2 0xD9 PUSH1 0x4 DUP1 CALLDATASIZE SUB DUP2 ADD SWAP1 PUSH2 0xD4 SWAP2 SWAP1 PUSH2 0x114A JUMP JUMPDEST PUSH2 0x2A7 JUMP JUMPDEST STOP JUMPDEST PUSH2 0xF5 PUSH1 0x4 DUP1 CALLDATASIZE SUB DUP2 ADD SWAP1 PUSH2 0xF0 SWAP2 SWAP1 PUSH2 0x118A JUMP JUMPDEST PUSH2 0x343 JUMP JUMPDEST PUSH1 0x40 MLOAD PUSH2 0x102 SWAP2 SWAP1 PUSH2 0x11F8 JUMP JUMPDEST PUSH1 0x40 MLOAD DUP1 SWAP2 SUB SWAP1 RETURN JUMPDEST PUSH2 0x125 PUSH1 0x4 DUP1 CALLDATASIZE SUB DUP2 ADD SWAP1 PUSH2 0x120 SWAP2 SWAP1 PUSH2 0x118A JUMP JUMPDEST PUSH2 0x376 JUMP JUMPDEST PUSH1 0x40 MLOAD PUSH2 0x132 SWAP2 SWAP1 PUSH2 0x1222 JUMP JUMPDEST PUSH1 0x40 MLOAD DUP1 SWAP2 SUB SWAP1 RETURN JUMPDEST PUSH2 0x143 PUSH2 0x396 JUMP JUMPDEST STOP JUMPDEST PUSH2 0x15F PUSH1 0x4 DUP1 CALLDATASIZE SUB DUP2 ADD SWAP1 PUSH2 0x15A SWAP2 SWAP1 PUSH2 0x1383 JUMP JUMPDEST PUSH2 0x41E JUMP JUMPDEST PUSH1 0x40 MLOAD PUSH2 0x16C SWAP2 SWAP1 PUSH2 0x152F JUMP JUMPDEST PUSH1 0x40 MLOAD DUP1 SWAP2 SUB SWAP1 RETURN JUMPDEST PUSH2 0x17D PUSH2 0x87A JUMP JUMPDEST PUSH1 0x40 MLOAD PUSH2 0x18A SWAP2 SWAP1 PUSH2 0x11F8 JUMP JUMPDEST PUSH1 0x40 MLOAD DUP1 SWAP2 SUB SWAP1 RETURN JUMPDEST PUSH2 0x1AD PUSH1 0x4 DUP1 CALLDATASIZE SUB DUP2 ADD SWAP1 PUSH2 0x1A8 SWAP2 SWAP1 PUSH2 0x118A JUMP JUMPDEST PUSH2 0x8A3 JUMP JUMPDEST PUSH1 0x40 MLOAD PUSH2 0x1BB SWAP3 SWAP2 SWAP1 PUSH2 0x1560 JUMP JUMPDEST PUSH1 0x40 MLOAD DUP1 SWAP2 SUB SWAP1 RETURN JUMPDEST PUSH2 0x1DE PUSH1 0x4 DUP1 CALLDATASIZE SUB DUP2 ADD SWAP1 PUSH2 0x1D9 SWAP2 SWAP1 PUSH2 0x15BC JUMP JUMPDEST PUSH2 0xD77 JUMP JUMPDEST STOP JUMPDEST PUSH2 0x1FA PUSH1 0x4 DUP1 CALLDATASIZE SUB DUP2 ADD SWAP1 PUSH2 0x1F5 SWAP2 SWAP1 PUSH2 0x15E9 JUMP JUMPDEST PUSH2 0xE6E JUMP JUMPDEST STOP JUMPDEST PUSH2 0x204 PUSH2 0xF19 JUMP JUMPDEST PUSH20 0xFFFFFFFFFFFFFFFFFFFFFFFFFFFFFFFFFFFFFFFF AND PUSH2 0x222 PUSH2 0x87A JUMP JUMPDEST PUSH20 0xFFFFFFFFFFFFFFFFFFFFFFFFFFFFFFFFFFFFFFFF AND EQ PUSH2 0x278 JUMPI PUSH1 0x40 MLOAD PUSH32 0x8C379A000000000000000000000000000000000000000000000000000000000 DUP2 MSTORE PUSH1 0x4 ADD PUSH2 0x26F SWAP1 PUSH2 0x16A2 JUMP JUMPDEST PUSH1 0x40 MLOAD DUP1 SWAP2 SUB SWAP1 REVERT JUMPDEST DUP1 PUSH1 0x2 PUSH1 0x0 DUP5 DUP2 MSTORE PUSH1 0x20 ADD SWAP1 DUP2 MSTORE PUSH1 0x20 ADD PUSH1 0x0 KECCAK256 PUSH1 0x0 PUSH2 0x100 EXP DUP2 SLOAD DUP2 PUSH1 0xFF MUL NOT AND SWAP1 DUP4 ISZERO ISZERO MUL OR SWAP1 SSTORE POP POP POP JUMP JUMPDEST DUP2 CALLER PUSH20 0xFFFFFFFFFFFFFFFFFFFFFFFFFFFFFFFFFFFFFFFF AND PUSH1 0x4 PUSH1 0x0 DUP4 DUP2 MSTORE PUSH1 0x20 ADD SWAP1 DUP2 MSTORE PUSH1 0x20 ADD PUSH1 0x0 KECCAK256 PUSH1 0x0 SWAP1 SLOAD SWAP1 PUSH2 0x100 EXP SWAP1 DIV PUSH20 0xFFFFFFFFFFFFFFFFFFFFFFFFFFFFFFFFFFFFFFFF AND PUSH20 0xFFFFFFFFFFFFFFFFFFFFFFFFFFFFFFFFFFFFFFFF AND EQ PUSH2 0x313 JUMPI PUSH1 0x0 DUP1 REVERT JUMPDEST DUP2 PUSH1 0x2 PUSH1 0x0 DUP6 DUP2 MSTORE PUSH1 0x20 ADD SWAP1 DUP2 MSTORE PUSH1 0x20 ADD PUSH1 0x0 KECCAK256 PUSH1 0x0 PUSH2 0x100 EXP DUP2 SLOAD DUP2 PUSH1 0xFF MUL NOT AND SWAP1 DUP4 ISZERO ISZERO MUL OR SWAP1 SSTORE POP POP POP POP JUMP JUMPDEST PUSH1 0x4 PUSH1 0x20 MSTORE DUP1 PUSH1 0x0 MSTORE PUSH1 0x40 PUSH1 0x0 KECCAK256 PUSH1 0x0 SWAP2 POP SLOAD SWAP1 PUSH2 0x100 EXP SWAP1 DIV PUSH20 0xFFFFFFFFFFFFFFFFFFFFFFFFFFFFFFFFFFFFFFFF AND DUP2 JUMP JUMPDEST PUSH1 0x2 PUSH1 0x20 MSTORE DUP1 PUSH1 0x0 MSTORE PUSH1 0x40 PUSH1 0x0 KECCAK256 PUSH1 0x0 SWAP2 POP SLOAD SWAP1 PUSH2 0x100 EXP SWAP1 DIV PUSH1 0xFF AND DUP2 JUMP JUMPDEST PUSH2 0x39E PUSH2 0xF19 JUMP JUMPDEST PUSH20 0xFFFFFFFFFFFFFFFFFFFFFFFFFFFFFFFFFFFFFFFF AND PUSH2 0x3BC PUSH2 0x87A JUMP JUMPDEST PUSH20 0xFFFFFFFFFFFFFFFFFFFFFFFFFFFFFFFFFFFFFFFF AND EQ PUSH2 0x412 JUMPI PUSH1 0x40 MLOAD PUSH32 0x8C379A000000000000000000000000000000000000000000000000000000000 DUP2 MSTORE PUSH1 0x4 ADD PUSH2 0x409 SWAP1 PUSH2 0x16A2 JUMP JUMPDEST PUSH1 0x40 MLOAD DUP1 SWAP2 SUB SWAP1 REVERT JUMPDEST PUSH2 0x41C PUSH1 0x0 PUSH2 0xF21 JUMP JUMPDEST JUMP JUMPDEST PUSH2 0x426 PUSH2 0xFE5 JUMP JUMPDEST PUSH1 0x0 PUSH1 0x1 NUMBER PUSH2 0x435 SWAP2 SWAP1 PUSH2 0x16F1 JUMP JUMPDEST SWAP1 POP PUSH1 0x0 DUP4 DUP3 BLOCKHASH PUSH1 0x40 MLOAD PUSH1 0x20 ADD PUSH2 0x44D SWAP3 SWAP2 SWAP1 PUSH2 0x17AE JUMP JUMPDEST PUSH1 0x40 MLOAD PUSH1 0x20 DUP2 DUP4 SUB SUB DUP2 MSTORE SWAP1 PUSH1 0x40 MSTORE DUP1 MLOAD SWAP1 PUSH1 0x20 ADD KECCAK256 PUSH1 0x0 SHR SWAP1 POP PUSH1 0x0 PUSH1 0x1 DUP1 SLOAD SWAP1 POP DUP3 PUSH2 0x47B SWAP2 SWAP1 PUSH2 0x1805 JUMP JUMPDEST SWAP1 POP PUSH1 0x0 PUSH1 0x1 DUP3 DUP2 SLOAD DUP2 LT PUSH2 0x493 JUMPI PUSH2 0x492 PUSH2 0x1836 JUMP JUMPDEST JUMPDEST SWAP1 PUSH1 0x0 MSTORE PUSH1 0x20 PUSH1 0x0 KECCAK256 SWAP1 PUSH1 0x7 MUL ADD PUSH1 0x40 MLOAD DUP1 PUSH1 0xE0 ADD PUSH1 0x40 MSTORE SWAP1 DUP2 PUSH1 0x0 DUP3 ADD DUP1 SLOAD PUSH2 0x4BC SWAP1 PUSH2 0x1894 JUMP JUMPDEST DUP1 PUSH1 0x1F ADD PUSH1 0x20 DUP1 SWAP2 DIV MUL PUSH1 0x20 ADD PUSH1 0x40 MLOAD SWAP1 DUP2 ADD PUSH1 0x40 MSTORE DUP1 SWAP3 SWAP2 SWAP1 DUP2 DUP2 MSTORE PUSH1 0x20 ADD DUP3 DUP1 SLOAD PUSH2 0x4E8 SWAP1 PUSH2 0x1894 JUMP JUMPDEST DUP1 ISZERO PUSH2 0x535 JUMPI DUP1 PUSH1 0x1F LT PUSH2 0x50A JUMPI PUSH2 0x100 DUP1 DUP4 SLOAD DIV MUL DUP4 MSTORE SWAP2 PUSH1 0x20 ADD SWAP2 PUSH2 0x535 JUMP JUMPDEST DUP3 ADD SWAP2 SWAP1 PUSH1 0x0 MSTORE PUSH1 0x20 PUSH1 0x0 KECCAK256 SWAP1 JUMPDEST DUP2 SLOAD DUP2 MSTORE SWAP1 PUSH1 0x1 ADD SWAP1 PUSH1 0x20 ADD DUP1 DUP4 GT PUSH2 0x518 JUMPI DUP3 SWAP1 SUB PUSH1 0x1F AND DUP3 ADD SWAP2 JUMPDEST POP POP POP POP POP DUP2 MSTORE PUSH1 0x20 ADD PUSH1 0x1 DUP3 ADD DUP1 SLOAD PUSH2 0x54E SWAP1 PUSH2 0x1894 JUMP JUMPDEST DUP1 PUSH1 0x1F ADD PUSH1 0x20 DUP1 SWAP2 DIV MUL PUSH1 0x20 ADD PUSH1 0x40 MLOAD SWAP1 DUP2 ADD PUSH1 0x40 MSTORE DUP1 SWAP3 SWAP2 SWAP1 DUP2 DUP2 MSTORE PUSH1 0x20 ADD DUP3 DUP1 SLOAD PUSH2 0x57A SWAP1 PUSH2 0x1894 JUMP JUMPDEST DUP1 ISZERO PUSH2 0x5C7 JUMPI DUP1 PUSH1 0x1F LT PUSH2 0x59C JUMPI PUSH2 0x100 DUP1 DUP4 SLOAD DIV MUL DUP4 MSTORE SWAP2 PUSH1 0x20 ADD SWAP2 PUSH2 0x5C7 JUMP JUMPDEST DUP3 ADD SWAP2 SWAP1 PUSH1 0x0 MSTORE PUSH1 0x20 PUSH1 0x0 KECCAK256 SWAP1 JUMPDEST DUP2 SLOAD DUP2 MSTORE SWAP1 PUSH1 0x1 ADD SWAP1 PUSH1 0x20 ADD DUP1 DUP4 GT PUSH2 0x5AA JUMPI DUP3 SWAP1 SUB PUSH1 0x1F AND DUP3 ADD SWAP2 JUMPDEST POP POP POP POP POP DUP2 MSTORE PUSH1 0x20 ADD PUSH1 0x2 DUP3 ADD DUP1 SLOAD PUSH2 0x5E0 SWAP1 PUSH2 0x1894 JUMP JUMPDEST DUP1 PUSH1 0x1F ADD PUSH1 0x20 DUP1 SWAP2 DIV MUL PUSH1 0x20 ADD PUSH1 0x40 MLOAD SWAP1 DUP2 ADD PUSH1 0x40 MSTORE DUP1 SWAP3 SWAP2 SWAP1 DUP2 DUP2 MSTORE PUSH1 0x20 ADD DUP3 DUP1 SLOAD PUSH2 0x60C SWAP1 PUSH2 0x1894 JUMP JUMPDEST DUP1 ISZERO PUSH2 0x659 JUMPI DUP1 PUSH1 0x1F LT PUSH2 0x62E JUMPI PUSH2 0x100 DUP1 DUP4 SLOAD DIV MUL DUP4 MSTORE SWAP2 PUSH1 0x20 ADD SWAP2 PUSH2 0x659 JUMP JUMPDEST DUP3 ADD SWAP2 SWAP1 PUSH1 0x0 MSTORE PUSH1 0x20 PUSH1 0x0 KECCAK256 SWAP1 JUMPDEST DUP2 SLOAD DUP2 MSTORE SWAP1 PUSH1 0x1 ADD SWAP1 PUSH1 0x20 ADD DUP1 DUP4 GT PUSH2 0x63C JUMPI DUP3 SWAP1 SUB PUSH1 0x1F AND DUP3 ADD SWAP2 JUMPDEST POP POP POP POP POP DUP2 MSTORE PUSH1 0x20 ADD PUSH1 0x3 DUP3 ADD DUP1 SLOAD PUSH2 0x672 SWAP1 PUSH2 0x1894 JUMP JUMPDEST DUP1 PUSH1 0x1F ADD PUSH1 0x20 DUP1 SWAP2 DIV MUL PUSH1 0x20 ADD PUSH1 0x40 MLOAD SWAP1 DUP2 ADD PUSH1 0x40 MSTORE DUP1 SWAP3 SWAP2 SWAP1 DUP2 DUP2 MSTORE PUSH1 0x20 ADD DUP3 DUP1 SLOAD PUSH2 0x69E SWAP1 PUSH2 0x1894 JUMP JUMPDEST DUP1 ISZERO PUSH2 0x6EB JUMPI DUP1 PUSH1 0x1F LT PUSH2 0x6C0 JUMPI PUSH2 0x100 DUP1 DUP4 SLOAD DIV MUL DUP4 MSTORE SWAP2 PUSH1 0x20 ADD SWAP2 PUSH2 0x6EB JUMP JUMPDEST DUP3 ADD SWAP2 SWAP1 PUSH1 0x0 MSTORE PUSH1 0x20 PUSH1 0x0 KECCAK256 SWAP1 JUMPDEST DUP2 SLOAD DUP2 MSTORE SWAP1 PUSH1 0x1 ADD SWAP1 PUSH1 0x20 ADD DUP1 DUP4 GT PUSH2 0x6CE JUMPI DUP3 SWAP1 SUB PUSH1 0x1F AND DUP3 ADD SWAP2 JUMPDEST POP POP POP POP POP DUP2 MSTORE PUSH1 0x20 ADD PUSH1 0x4 DUP3 ADD DUP1 SLOAD PUSH2 0x704 SWAP1 PUSH2 0x1894 JUMP JUMPDEST DUP1 PUSH1 0x1F ADD PUSH1 0x20 DUP1 SWAP2 DIV MUL PUSH1 0x20 ADD PUSH1 0x40 MLOAD SWAP1 DUP2 ADD PUSH1 0x40 MSTORE DUP1 SWAP3 SWAP2 SWAP1 DUP2 DUP2 MSTORE PUSH1 0x20 ADD DUP3 DUP1 SLOAD PUSH2 0x730 SWAP1 PUSH2 0x1894 JUMP JUMPDEST DUP1 ISZERO PUSH2 0x77D JUMPI DUP1 PUSH1 0x1F LT PUSH2 0x752 JUMPI PUSH2 0x100 DUP1 DUP4 SLOAD DIV MUL DUP4 MSTORE SWAP2 PUSH1 0x20 ADD SWAP2 PUSH2 0x77D JUMP JUMPDEST DUP3 ADD SWAP2 SWAP1 PUSH1 0x0 MSTORE PUSH1 0x20 PUSH1 0x0 KECCAK256 SWAP1 JUMPDEST DUP2 SLOAD DUP2 MSTORE SWAP1 PUSH1 0x1 ADD SWAP1 PUSH1 0x20 ADD DUP1 DUP4 GT PUSH2 0x760 JUMPI DUP3 SWAP1 SUB PUSH1 0x1F AND DUP3 ADD SWAP2 JUMPDEST POP POP POP POP POP DUP2 MSTORE PUSH1 0x20 ADD PUSH1 0x5 DUP3 ADD DUP1 SLOAD PUSH2 0x796 SWAP1 PUSH2 0x1894 JUMP JUMPDEST DUP1 PUSH1 0x1F ADD PUSH1 0x20 DUP1 SWAP2 DIV MUL PUSH1 0x20 ADD PUSH1 0x40 MLOAD SWAP1 DUP2 ADD PUSH1 0x40 MSTORE DUP1 SWAP3 SWAP2 SWAP1 DUP2 DUP2 MSTORE PUSH1 0x20 ADD DUP3 DUP1 SLOAD PUSH2 0x7C2 SWAP1 PUSH2 0x1894 JUMP JUMPDEST DUP1 ISZERO PUSH2 0x80F JUMPI DUP1 PUSH1 0x1F LT PUSH2 0x7E4 JUMPI PUSH2 0x100 DUP1 DUP4 SLOAD DIV MUL DUP4 MSTORE SWAP2 PUSH1 0x20 ADD SWAP2 PUSH2 0x80F JUMP JUMPDEST DUP3 ADD SWAP2 SWAP1 PUSH1 0x0 MSTORE PUSH1 0x20 PUSH1 0x0 KECCAK256 SWAP1 JUMPDEST DUP2 SLOAD DUP2 MSTORE SWAP1 PUSH1 0x1 ADD SWAP1 PUSH1 0x20 ADD DUP1 DUP4 GT PUSH2 0x7F2 JUMPI DUP3 SWAP1 SUB PUSH1 0x1F AND DUP3 ADD SWAP2 JUMPDEST POP POP POP POP POP DUP2 MSTORE PUSH1 0x20 ADD PUSH1 0x6 DUP3 ADD PUSH1 0x0 SWAP1 SLOAD SWAP1 PUSH2 0x100 EXP SWAP1 DIV PUSH1 0xFF AND PUSH1 0xFF AND PUSH1 0xFF AND DUP2 MSTORE POP POP SWAP1 POP PUSH32 0x9E761CCDBC51177B48B7089874745300BB2C5F97582F257CA78ECA6F245E4D57 DUP2 PUSH1 0x40 MLOAD PUSH2 0x866 SWAP2 SWAP1 PUSH2 0x152F JUMP JUMPDEST PUSH1 0x40 MLOAD DUP1 SWAP2 SUB SWAP1 LOG1 DUP1 SWAP5 POP POP POP POP POP SWAP2 SWAP1 POP JUMP JUMPDEST PUSH1 0x0 DUP1 PUSH1 0x0 SWAP1 SLOAD SWAP1 PUSH2 0x100 EXP SWAP1 DIV PUSH20 0xFFFFFFFFFFFFFFFFFFFFFFFFFFFFFFFFFFFFFFFF AND SWAP1 POP SWAP1 JUMP JUMPDEST PUSH2 0x8AB PUSH2 0xFE5 JUMP JUMPDEST PUSH1 0x0 DUP3 CALLER PUSH20 0xFFFFFFFFFFFFFFFFFFFFFFFFFFFFFFFFFFFFFFFF AND PUSH1 0x4 PUSH1 0x0 DUP4 DUP2 MSTORE PUSH1 0x20 ADD SWAP1 DUP2 MSTORE PUSH1 0x20 ADD PUSH1 0x0 KECCAK256 PUSH1 0x0 SWAP1 SLOAD SWAP1 PUSH2 0x100 EXP SWAP1 DIV PUSH20 0xFFFFFFFFFFFFFFFFFFFFFFFFFFFFFFFFFFFFFFFF AND PUSH20 0xFFFFFFFFFFFFFFFFFFFFFFFFFFFFFFFFFFFFFFFF AND EQ PUSH2 0x919 JUMPI PUSH1 0x0 DUP1 REVERT JUMPDEST PUSH32 0xFA122AC12F9FAB92C2A3BCF05C23B0449C2426FC1425BE35EE098A206F91621E PUSH1 0x1 DUP6 DUP2 SLOAD DUP2 LT PUSH2 0x94E JUMPI PUSH2 0x94D PUSH2 0x1836 JUMP JUMPDEST JUMPDEST SWAP1 PUSH1 0x0 MSTORE PUSH1 0x20 PUSH1 0x0 KECCAK256 SWAP1 PUSH1 0x7 MUL ADD PUSH1 0x3 PUSH1 0x0 DUP8 DUP2 MSTORE PUSH1 0x20 ADD SWAP1 DUP2 MSTORE PUSH1 0x20 ADD PUSH1 0x0 KECCAK256 PUSH1 0x0 SWAP1 SLOAD SWAP1 PUSH2 0x100 EXP SWAP1 DIV PUSH1 0xFF AND PUSH1 0x40 MLOAD PUSH2 0x98B SWAP3 SWAP2 SWAP1 PUSH2 0x1A54 JUMP JUMPDEST PUSH1 0x40 MLOAD DUP1 SWAP2 SUB SWAP1 LOG1 PUSH1 0x1 DUP5 DUP2 SLOAD DUP2 LT PUSH2 0x9A7 JUMPI PUSH2 0x9A6 PUSH2 0x1836 JUMP JUMPDEST JUMPDEST SWAP1 PUSH1 0x0 MSTORE PUSH1 0x20 PUSH1 0x0 KECCAK256 SWAP1 PUSH1 0x7 MUL ADD PUSH1 0x3 PUSH1 0x0 DUP7 DUP2 MSTORE PUSH1 0x20 ADD SWAP1 DUP2 MSTORE PUSH1 0x20 ADD PUSH1 0x0 KECCAK256 PUSH1 0x0 SWAP1 SLOAD SWAP1 PUSH2 0x100 EXP SWAP1 DIV PUSH1 0xFF AND DUP2 PUSH1 0x40 MLOAD DUP1 PUSH1 0xE0 ADD PUSH1 0x40 MSTORE SWAP1 DUP2 PUSH1 0x0 DUP3 ADD DUP1 SLOAD PUSH2 0x9F2 SWAP1 PUSH2 0x1894 JUMP JUMPDEST DUP1 PUSH1 0x1F ADD PUSH1 0x20 DUP1 SWAP2 DIV MUL PUSH1 0x20 ADD PUSH1 0x40 MLOAD SWAP1 DUP2 ADD PUSH1 0x40 MSTORE DUP1 SWAP3 SWAP2 SWAP1 DUP2 DUP2 MSTORE PUSH1 0x20 ADD DUP3 DUP1 SLOAD PUSH2 0xA1E SWAP1 PUSH2 0x1894 JUMP JUMPDEST DUP1 ISZERO PUSH2 0xA6B JUMPI DUP1 PUSH1 0x1F LT PUSH2 0xA40 JUMPI PUSH2 0x100 DUP1 DUP4 SLOAD DIV MUL DUP4 MSTORE SWAP2 PUSH1 0x20 ADD SWAP2 PUSH2 0xA6B JUMP JUMPDEST DUP3 ADD SWAP2 SWAP1 PUSH1 0x0 MSTORE PUSH1 0x20 PUSH1 0x0 KECCAK256 SWAP1 JUMPDEST DUP2 SLOAD DUP2 MSTORE SWAP1 PUSH1 0x1 ADD SWAP1 PUSH1 0x20 ADD DUP1 DUP4 GT PUSH2 0xA4E JUMPI DUP3 SWAP1 SUB PUSH1 0x1F AND DUP3 ADD SWAP2 JUMPDEST POP POP POP POP POP DUP2 MSTORE PUSH1 0x20 ADD PUSH1 0x1 DUP3 ADD DUP1 SLOAD PUSH2 0xA84 SWAP1 PUSH2 0x1894 JUMP JUMPDEST DUP1 PUSH1 0x1F ADD PUSH1 0x20 DUP1 SWAP2 DIV MUL PUSH1 0x20 ADD PUSH1 0x40 MLOAD SWAP1 DUP2 ADD PUSH1 0x40 MSTORE DUP1 SWAP3 SWAP2 SWAP1 DUP2 DUP2 MSTORE PUSH1 0x20 ADD DUP3 DUP1 SLOAD PUSH2 0xAB0 SWAP1 PUSH2 0x1894 JUMP JUMPDEST DUP1 ISZERO PUSH2 0xAFD JUMPI DUP1 PUSH1 0x1F LT PUSH2 0xAD2 JUMPI PUSH2 0x100 DUP1 DUP4 SLOAD DIV MUL DUP4 MSTORE SWAP2 PUSH1 0x20 ADD SWAP2 PUSH2 0xAFD JUMP JUMPDEST DUP3 ADD SWAP2 SWAP1 PUSH1 0x0 MSTORE PUSH1 0x20 PUSH1 0x0 KECCAK256 SWAP1 JUMPDEST DUP2 SLOAD DUP2 MSTORE SWAP1 PUSH1 0x1 ADD SWAP1 PUSH1 0x20 ADD DUP1 DUP4 GT PUSH2 0xAE0 JUMPI DUP3 SWAP1 SUB PUSH1 0x1F AND DUP3 ADD SWAP2 JUMPDEST POP POP POP POP POP DUP2 MSTORE PUSH1 0x20 ADD PUSH1 0x2 DUP3 ADD DUP1 SLOAD PUSH2 0xB16 SWAP1 PUSH2 0x1894 JUMP JUMPDEST DUP1 PUSH1 0x1F ADD PUSH1 0x20 DUP1 SWAP2 DIV MUL PUSH1 0x20 ADD PUSH1 0x40 MLOAD SWAP1 DUP2 ADD PUSH1 0x40 MSTORE DUP1 SWAP3 SWAP2 SWAP1 DUP2 DUP2 MSTORE PUSH1 0x20 ADD DUP3 DUP1 SLOAD PUSH2 0xB42 SWAP1 PUSH2 0x1894 JUMP JUMPDEST DUP1 ISZERO PUSH2 0xB8F JUMPI DUP1 PUSH1 0x1F LT PUSH2 0xB64 JUMPI PUSH2 0x100 DUP1 DUP4 SLOAD DIV MUL DUP4 MSTORE SWAP2 PUSH1 0x20 ADD SWAP2 PUSH2 0xB8F JUMP JUMPDEST DUP3 ADD SWAP2 SWAP1 PUSH1 0x0 MSTORE PUSH1 0x20 PUSH1 0x0 KECCAK256 SWAP1 JUMPDEST DUP2 SLOAD DUP2 MSTORE SWAP1 PUSH1 0x1 ADD SWAP1 PUSH1 0x20 ADD DUP1 DUP4 GT PUSH2 0xB72 JUMPI DUP3 SWAP1 SUB PUSH1 0x1F AND DUP3 ADD SWAP2 JUMPDEST POP POP POP POP POP DUP2 MSTORE PUSH1 0x20 ADD PUSH1 0x3 DUP3 ADD DUP1 SLOAD PUSH2 0xBA8 SWAP1 PUSH2 0x1894 JUMP JUMPDEST DUP1 PUSH1 0x1F ADD PUSH1 0x20 DUP1 SWAP2 DIV MUL PUSH1 0x20 ADD PUSH1 0x40 MLOAD SWAP1 DUP2 ADD PUSH1 0x40 MSTORE DUP1 SWAP3 SWAP2 SWAP1 DUP2 DUP2 MSTORE PUSH1 0x20 ADD DUP3 DUP1 SLOAD PUSH2 0xBD4 SWAP1 PUSH2 0x1894 JUMP JUMPDEST DUP1 ISZERO PUSH2 0xC21 JUMPI DUP1 PUSH1 0x1F LT PUSH2 0xBF6 JUMPI PUSH2 0x100 DUP1 DUP4 SLOAD DIV MUL DUP4 MSTORE SWAP2 PUSH1 0x20 ADD SWAP2 PUSH2 0xC21 JUMP JUMPDEST DUP3 ADD SWAP2 SWAP1 PUSH1 0x0 MSTORE PUSH1 0x20 PUSH1 0x0 KECCAK256 SWAP1 JUMPDEST DUP2 SLOAD DUP2 MSTORE SWAP1 PUSH1 0x1 ADD SWAP1 PUSH1 0x20 ADD DUP1 DUP4 GT PUSH2 0xC04 JUMPI DUP3 SWAP1 SUB PUSH1 0x1F AND DUP3 ADD SWAP2 JUMPDEST POP POP POP POP POP DUP2 MSTORE PUSH1 0x20 ADD PUSH1 0x4 DUP3 ADD DUP1 SLOAD PUSH2 0xC3A SWAP1 PUSH2 0x1894 JUMP JUMPDEST DUP1 PUSH1 0x1F ADD PUSH1 0x20 DUP1 SWAP2 DIV MUL PUSH1 0x20 ADD PUSH1 0x40 MLOAD SWAP1 DUP2 ADD PUSH1 0x40 MSTORE DUP1 SWAP3 SWAP2 SWAP1 DUP2 DUP2 MSTORE PUSH1 0x20 ADD DUP3 DUP1 SLOAD PUSH2 0xC66 SWAP1 PUSH2 0x1894 JUMP JUMPDEST DUP1 ISZERO PUSH2 0xCB3 JUMPI DUP1 PUSH1 0x1F LT PUSH2 0xC88 JUMPI PUSH2 0x100 DUP1 DUP4 SLOAD DIV MUL DUP4 MSTORE SWAP2 PUSH1 0x20 ADD SWAP2 PUSH2 0xCB3 JUMP JUMPDEST DUP3 ADD SWAP2 SWAP1 PUSH1 0x0 MSTORE PUSH1 0x20 PUSH1 0x0 KECCAK256 SWAP1 JUMPDEST DUP2 SLOAD DUP2 MSTORE SWAP1 PUSH1 0x1 ADD SWAP1 PUSH1 0x20 ADD DUP1 DUP4 GT PUSH2 0xC96 JUMPI DUP3 SWAP1 SUB PUSH1 0x1F AND DUP3 ADD SWAP2 JUMPDEST POP POP POP POP POP DUP2 MSTORE PUSH1 0x20 ADD PUSH1 0x5 DUP3 ADD DUP1 SLOAD PUSH2 0xCCC SWAP1 PUSH2 0x1894 JUMP JUMPDEST DUP1 PUSH1 0x1F ADD PUSH1 0x20 DUP1 SWAP2 DIV MUL PUSH1 0x20 ADD PUSH1 0x40 MLOAD SWAP1 DUP2 ADD PUSH1 0x40 MSTORE DUP1 SWAP3 SWAP2 SWAP1 DUP2 DUP2 MSTORE PUSH1 0x20 ADD DUP3 DUP1 SLOAD PUSH2 0xCF8 SWAP1 PUSH2 0x1894 JUMP JUMPDEST DUP1 ISZERO PUSH2 0xD45 JUMPI DUP1 PUSH1 0x1F LT PUSH2 0xD1A JUMPI PUSH2 0x100 DUP1 DUP4 SLOAD DIV MUL DUP4 MSTORE SWAP2 PUSH1 0x20 ADD SWAP2 PUSH2 0xD45 JUMP JUMPDEST DUP3 ADD SWAP2 SWAP1 PUSH1 0x0 MSTORE PUSH1 0x20 PUSH1 0x0 KECCAK256 SWAP1 JUMPDEST DUP2 SLOAD DUP2 MSTORE SWAP1 PUSH1 0x1 ADD SWAP1 PUSH1 0x20 ADD DUP1 DUP4 GT PUSH2 0xD28 JUMPI DUP3 SWAP1 SUB PUSH1 0x1F AND DUP3 ADD SWAP2 JUMPDEST POP POP POP POP POP DUP2 MSTORE PUSH1 0x20 ADD PUSH1 0x6 DUP3 ADD PUSH1 0x0 SWAP1 SLOAD SWAP1 PUSH2 0x100 EXP SWAP1 DIV PUSH1 0xFF AND PUSH1 0xFF AND PUSH1 0xFF AND DUP2 MSTORE POP POP SWAP2 POP SWAP3 POP SWAP3 POP POP SWAP2 POP SWAP2 JUMP JUMPDEST PUSH2 0xD7F PUSH2 0xF19 JUMP JUMPDEST PUSH20 0xFFFFFFFFFFFFFFFFFFFFFFFFFFFFFFFFFFFFFFFF AND PUSH2 0xD9D PUSH2 0x87A JUMP JUMPDEST PUSH20 0xFFFFFFFFFFFFFFFFFFFFFFFFFFFFFFFFFFFFFFFF AND EQ PUSH2 0xDF3 JUMPI PUSH1 0x40 MLOAD PUSH32 0x8C379A000000000000000000000000000000000000000000000000000000000 DUP2 MSTORE PUSH1 0x4 ADD PUSH2 0xDEA SWAP1 PUSH2 0x16A2 JUMP JUMPDEST PUSH1 0x40 MLOAD DUP1 SWAP2 SUB SWAP1 REVERT JUMPDEST PUSH1 0x0 PUSH20 0xFFFFFFFFFFFFFFFFFFFFFFFFFFFFFFFFFFFFFFFF AND DUP2 PUSH20 0xFFFFFFFFFFFFFFFFFFFFFFFFFFFFFFFFFFFFFFFF AND SUB PUSH2 0xE62 JUMPI PUSH1 0x40 MLOAD PUSH32 0x8C379A000000000000000000000000000000000000000000000000000000000 DUP2 MSTORE PUSH1 0x4 ADD PUSH2 0xE59 SWAP1 PUSH2 0x1AF6 JUMP JUMPDEST PUSH1 0x40 MLOAD DUP1 SWAP2 SUB SWAP1 REVERT JUMPDEST PUSH2 0xE6B DUP2 PUSH2 0xF21 JUMP JUMPDEST POP JUMP JUMPDEST DUP2 CALLER PUSH20 0xFFFFFFFFFFFFFFFFFFFFFFFFFFFFFFFFFFFFFFFF AND PUSH1 0x4 PUSH1 0x0 DUP4 DUP2 MSTORE PUSH1 0x20 ADD SWAP1 DUP2 MSTORE PUSH1 0x20 ADD PUSH1 0x0 KECCAK256 PUSH1 0x0 SWAP1 SLOAD SWAP1 PUSH2 0x100 EXP SWAP1 DIV PUSH20 0xFFFFFFFFFFFFFFFFFFFFFFFFFFFFFFFFFFFFFFFF AND PUSH20 0xFFFFFFFFFFFFFFFFFFFFFFFFFFFFFFFFFFFFFFFF AND EQ PUSH2 0xEDA JUMPI PUSH1 0x0 DUP1 REVERT JUMPDEST DUP2 PUSH1 0x1 DUP5 DUP2 SLOAD DUP2 LT PUSH2 0xEEF JUMPI PUSH2 0xEEE PUSH2 0x1836 JUMP JUMPDEST JUMPDEST SWAP1 PUSH1 0x0 MSTORE PUSH1 0x20 PUSH1 0x0 KECCAK256 SWAP1 PUSH1 0x7 MUL ADD PUSH1 0x5 ADD SWAP1 DUP1 MLOAD SWAP1 PUSH1 0x20 ADD SWAP1 PUSH2 0xF13 SWAP3 SWAP2 SWAP1 PUSH2 0x1025 JUMP JUMPDEST POP POP POP POP JUMP JUMPDEST PUSH1 0x0 CALLER SWAP1 POP SWAP1 JUMP JUMPDEST PUSH1 0x0 DUP1 PUSH1 0x0 SWAP1 SLOAD SWAP1 PUSH2 0x100 EXP SWAP1 DIV PUSH20 0xFFFFFFFFFFFFFFFFFFFFFFFFFFFFFFFFFFFFFFFF AND SWAP1 POP DUP2 PUSH1 0x0 DUP1 PUSH2 0x100 EXP DUP2 SLOAD DUP2 PUSH20 0xFFFFFFFFFFFFFFFFFFFFFFFFFFFFFFFFFFFFFFFF MUL NOT AND SWAP1 DUP4 PUSH20 0xFFFFFFFFFFFFFFFFFFFFFFFFFFFFFFFFFFFFFFFF AND MUL OR SWAP1 SSTORE POP DUP2 PUSH20 0xFFFFFFFFFFFFFFFFFFFFFFFFFFFFFFFFFFFFFFFF AND DUP2 PUSH20 0xFFFFFFFFFFFFFFFFFFFFFFFFFFFFFFFFFFFFFFFF AND PUSH32 0x8BE0079C531659141344CD1FD0A4F28419497F9722A3DAAFE3B4186F6B6457E0 PUSH1 0x40 MLOAD PUSH1 0x40 MLOAD DUP1 SWAP2 SUB SWAP1 LOG3 POP POP JUMP JUMPDEST PUSH1 0x40 MLOAD DUP1 PUSH1 0xE0 ADD PUSH1 0x40 MSTORE DUP1 PUSH1 0x60 DUP2 MSTORE PUSH1 0x20 ADD PUSH1 0x60 DUP2 MSTORE PUSH1 0x20 ADD PUSH1 0x60 DUP2 MSTORE PUSH1 0x20 ADD PUSH1 0x60 DUP2 MSTORE PUSH1 0x20 ADD PUSH1 0x60 DUP2 MSTORE PUSH1 0x20 ADD PUSH1 0x60 DUP2 MSTORE PUSH1 0x20 ADD PUSH1 0x0 PUSH1 0xFF AND DUP2 MSTORE POP SWAP1 JUMP JUMPDEST DUP3 DUP1 SLOAD PUSH2 0x1031 SWAP1 PUSH2 0x1894 JUMP JUMPDEST SWAP1 PUSH1 0x0 MSTORE PUSH1 0x20 PUSH1 0x0 KECCAK256 SWAP1 PUSH1 0x1F ADD PUSH1 0x20 SWAP1 DIV DUP2 ADD SWAP3 DUP3 PUSH2 0x1053 JUMPI PUSH1 0x0 DUP6 SSTORE PUSH2 0x109A JUMP JUMPDEST DUP3 PUSH1 0x1F LT PUSH2 0x106C JUMPI DUP1 MLOAD PUSH1 0xFF NOT AND DUP4 DUP1 ADD OR DUP6 SSTORE PUSH2 0x109A JUMP JUMPDEST DUP3 DUP1 ADD PUSH1 0x1 ADD DUP6 SSTORE DUP3 ISZERO PUSH2 0x109A JUMPI SWAP2 DUP3 ADD JUMPDEST DUP3 DUP2 GT ISZERO PUSH2 0x1099 JUMPI DUP3 MLOAD DUP3 SSTORE SWAP2 PUSH1 0x20 ADD SWAP2 SWAP1 PUSH1 0x1 ADD SWAP1 PUSH2 0x107E JUMP JUMPDEST JUMPDEST POP SWAP1 POP PUSH2 0x10A7 SWAP2 SWAP1 PUSH2 0x10AB JUMP JUMPDEST POP SWAP1 JUMP JUMPDEST JUMPDEST DUP1 DUP3 GT ISZERO PUSH2 0x10C4 JUMPI PUSH1 0x0 DUP2 PUSH1 0x0 SWAP1 SSTORE POP PUSH1 0x1 ADD PUSH2 0x10AC JUMP JUMPDEST POP SWAP1 JUMP JUMPDEST PUSH1 0x0 PUSH1 0x40 MLOAD SWAP1 POP SWAP1 JUMP JUMPDEST PUSH1 0x0 DUP1 REVERT JUMPDEST PUSH1 0x0 DUP1 REVERT JUMPDEST PUSH1 0x0 DUP2 SWAP1 POP SWAP2 SWAP1 POP JUMP JUMPDEST PUSH2 0x10EF DUP2 PUSH2 0x10DC JUMP JUMPDEST DUP2 EQ PUSH2 0x10FA JUMPI PUSH1 0x0 DUP1 REVERT JUMPDEST POP JUMP JUMPDEST PUSH1 0x0 DUP2 CALLDATALOAD SWAP1 POP PUSH2 0x110C DUP2 PUSH2 0x10E6 JUMP JUMPDEST SWAP3 SWAP2 POP POP JUMP JUMPDEST PUSH1 0x0 DUP2 ISZERO ISZERO SWAP1 POP SWAP2 SWAP1 POP JUMP JUMPDEST PUSH2 0x1127 DUP2 PUSH2 0x1112 JUMP JUMPDEST DUP2 EQ PUSH2 0x1132 JUMPI PUSH1 0x0 DUP1 REVERT JUMPDEST POP JUMP JUMPDEST PUSH1 0x0 DUP2 CALLDATALOAD SWAP1 POP PUSH2 0x1144 DUP2 PUSH2 0x111E JUMP JUMPDEST SWAP3 SWAP2 POP POP JUMP JUMPDEST PUSH1 0x0 DUP1 PUSH1 0x40 DUP4 DUP6 SUB SLT ISZERO PUSH2 0x1161 JUMPI PUSH2 0x1160 PUSH2 0x10D2 JUMP JUMPDEST JUMPDEST PUSH1 0x0 PUSH2 0x116F DUP6 DUP3 DUP7 ADD PUSH2 0x10FD JUMP JUMPDEST SWAP3 POP POP PUSH1 0x20 PUSH2 0x1180 DUP6 DUP3 DUP7 ADD PUSH2 0x1135 JUMP JUMPDEST SWAP2 POP POP SWAP3 POP SWAP3 SWAP1 POP JUMP JUMPDEST PUSH1 0x0 PUSH1 0x20 DUP3 DUP5 SUB SLT ISZERO PUSH2 0x11A0 JUMPI PUSH2 0x119F PUSH2 0x10D2 JUMP JUMPDEST JUMPDEST PUSH1 0x0 PUSH2 0x11AE DUP5 DUP3 DUP6 ADD PUSH2 0x10FD JUMP JUMPDEST SWAP2 POP POP SWAP3 SWAP2 POP POP JUMP JUMPDEST PUSH1 0x0 PUSH20 0xFFFFFFFFFFFFFFFFFFFFFFFFFFFFFFFFFFFFFFFF DUP3 AND SWAP1 POP SWAP2 SWAP1 POP JUMP JUMPDEST PUSH1 0x0 PUSH2 0x11E2 DUP3 PUSH2 0x11B7 JUMP JUMPDEST SWAP1 POP SWAP2 SWAP1 POP JUMP JUMPDEST PUSH2 0x11F2 DUP2 PUSH2 0x11D7 JUMP JUMPDEST DUP3 MSTORE POP POP JUMP JUMPDEST PUSH1 0x0 PUSH1 0x20 DUP3 ADD SWAP1 POP PUSH2 0x120D PUSH1 0x0 DUP4 ADD DUP5 PUSH2 0x11E9 JUMP JUMPDEST SWAP3 SWAP2 POP POP JUMP JUMPDEST PUSH2 0x121C DUP2 PUSH2 0x1112 JUMP JUMPDEST DUP3 MSTORE POP POP JUMP JUMPDEST PUSH1 0x0 PUSH1 0x20 DUP3 ADD SWAP1 POP PUSH2 0x1237 PUSH1 0x0 DUP4 ADD DUP5 PUSH2 0x1213 JUMP JUMPDEST SWAP3 SWAP2 POP POP JUMP JUMPDEST PUSH1 0x0 DUP1 REVERT JUMPDEST PUSH1 0x0 DUP1 REVERT JUMPDEST PUSH1 0x0 PUSH1 0x1F NOT PUSH1 0x1F DUP4 ADD AND SWAP1 POP SWAP2 SWAP1 POP JUMP JUMPDEST PUSH32 0x4E487B7100000000000000000000000000000000000000000000000000000000 PUSH1 0x0 MSTORE PUSH1 0x41 PUSH1 0x4 MSTORE PUSH1 0x24 PUSH1 0x0 REVERT JUMPDEST PUSH2 0x1290 DUP3 PUSH2 0x1247 JUMP JUMPDEST DUP2 ADD DUP2 DUP2 LT PUSH8 0xFFFFFFFFFFFFFFFF DUP3 GT OR ISZERO PUSH2 0x12AF JUMPI PUSH2 0x12AE PUSH2 0x1258 JUMP JUMPDEST JUMPDEST DUP1 PUSH1 0x40 MSTORE POP POP POP JUMP JUMPDEST PUSH1 0x0 PUSH2 0x12C2 PUSH2 0x10C8 JUMP JUMPDEST SWAP1 POP PUSH2 0x12CE DUP3 DUP3 PUSH2 0x1287 JUMP JUMPDEST SWAP2 SWAP1 POP JUMP JUMPDEST PUSH1 0x0 PUSH8 0xFFFFFFFFFFFFFFFF DUP3 GT ISZERO PUSH2 0x12EE JUMPI PUSH2 0x12ED PUSH2 0x1258 JUMP JUMPDEST JUMPDEST PUSH2 0x12F7 DUP3 PUSH2 0x1247 JUMP JUMPDEST SWAP1 POP PUSH1 0x20 DUP2 ADD SWAP1 POP SWAP2 SWAP1 POP JUMP JUMPDEST DUP3 DUP2 DUP4 CALLDATACOPY PUSH1 0x0 DUP4 DUP4 ADD MSTORE POP POP POP JUMP JUMPDEST PUSH1 0x0 PUSH2 0x1326 PUSH2 0x1321 DUP5 PUSH2 0x12D3 JUMP JUMPDEST PUSH2 0x12B8 JUMP JUMPDEST SWAP1 POP DUP3 DUP2 MSTORE PUSH1 0x20 DUP2 ADD DUP5 DUP5 DUP5 ADD GT ISZERO PUSH2 0x1342 JUMPI PUSH2 0x1341 PUSH2 0x1242 JUMP JUMPDEST JUMPDEST PUSH2 0x134D DUP5 DUP3 DUP6 PUSH2 0x1304 JUMP JUMPDEST POP SWAP4 SWAP3 POP POP POP JUMP JUMPDEST PUSH1 0x0 DUP3 PUSH1 0x1F DUP4 ADD SLT PUSH2 0x136A JUMPI PUSH2 0x1369 PUSH2 0x123D JUMP JUMPDEST JUMPDEST DUP2 CALLDATALOAD PUSH2 0x137A DUP5 DUP3 PUSH1 0x20 DUP7 ADD PUSH2 0x1313 JUMP JUMPDEST SWAP2 POP POP SWAP3 SWAP2 POP POP JUMP JUMPDEST PUSH1 0x0 PUSH1 0x20 DUP3 DUP5 SUB SLT ISZERO PUSH2 0x1399 JUMPI PUSH2 0x1398 PUSH2 0x10D2 JUMP JUMPDEST JUMPDEST PUSH1 0x0 DUP3 ADD CALLDATALOAD PUSH8 0xFFFFFFFFFFFFFFFF DUP2 GT ISZERO PUSH2 0x13B7 JUMPI PUSH2 0x13B6 PUSH2 0x10D7 JUMP JUMPDEST JUMPDEST PUSH2 0x13C3 DUP5 DUP3 DUP6 ADD PUSH2 0x1355 JUMP JUMPDEST SWAP2 POP POP SWAP3 SWAP2 POP POP JUMP JUMPDEST PUSH1 0x0 DUP2 MLOAD SWAP1 POP SWAP2 SWAP1 POP JUMP JUMPDEST PUSH1 0x0 DUP3 DUP3 MSTORE PUSH1 0x20 DUP3 ADD SWAP1 POP SWAP3 SWAP2 POP POP JUMP JUMPDEST PUSH1 0x0 JUMPDEST DUP4 DUP2 LT ISZERO PUSH2 0x1406 JUMPI DUP1 DUP3 ADD MLOAD DUP2 DUP5 ADD MSTORE PUSH1 0x20 DUP2 ADD SWAP1 POP PUSH2 0x13EB JUMP JUMPDEST DUP4 DUP2 GT ISZERO PUSH2 0x1415 JUMPI PUSH1 0x0 DUP5 DUP5 ADD MSTORE JUMPDEST POP POP POP POP JUMP JUMPDEST PUSH1 0x0 PUSH2 0x1426 DUP3 PUSH2 0x13CC JUMP JUMPDEST PUSH2 0x1430 DUP2 DUP6 PUSH2 0x13D7 JUMP JUMPDEST SWAP4 POP PUSH2 0x1440 DUP2 DUP6 PUSH1 0x20 DUP7 ADD PUSH2 0x13E8 JUMP JUMPDEST PUSH2 0x1449 DUP2 PUSH2 0x1247 JUMP JUMPDEST DUP5 ADD SWAP2 POP POP SWAP3 SWAP2 POP POP JUMP JUMPDEST PUSH1 0x0 PUSH1 0xFF DUP3 AND SWAP1 POP SWAP2 SWAP1 POP JUMP JUMPDEST PUSH2 0x146A DUP2 PUSH2 0x1454 JUMP JUMPDEST DUP3 MSTORE POP POP JUMP JUMPDEST PUSH1 0x0 PUSH1 0xE0 DUP4 ADD PUSH1 0x0 DUP4 ADD MLOAD DUP5 DUP3 SUB PUSH1 0x0 DUP7 ADD MSTORE PUSH2 0x148D DUP3 DUP3 PUSH2 0x141B JUMP JUMPDEST SWAP2 POP POP PUSH1 0x20 DUP4 ADD MLOAD DUP5 DUP3 SUB PUSH1 0x20 DUP7 ADD MSTORE PUSH2 0x14A7 DUP3 DUP3 PUSH2 0x141B JUMP JUMPDEST SWAP2 POP POP PUSH1 0x40 DUP4 ADD MLOAD DUP5 DUP3 SUB PUSH1 0x40 DUP7 ADD MSTORE PUSH2 0x14C1 DUP3 DUP3 PUSH2 0x141B JUMP JUMPDEST SWAP2 POP POP PUSH1 0x60 DUP4 ADD MLOAD DUP5 DUP3 SUB PUSH1 0x60 DUP7 ADD MSTORE PUSH2 0x14DB DUP3 DUP3 PUSH2 0x141B JUMP JUMPDEST SWAP2 POP POP PUSH1 0x80 DUP4 ADD MLOAD DUP5 DUP3 SUB PUSH1 0x80 DUP7 ADD MSTORE PUSH2 0x14F5 DUP3 DUP3 PUSH2 0x141B JUMP JUMPDEST SWAP2 POP POP PUSH1 0xA0 DUP4 ADD MLOAD DUP5 DUP3 SUB PUSH1 0xA0 DUP7 ADD MSTORE PUSH2 0x150F DUP3 DUP3 PUSH2 0x141B JUMP JUMPDEST SWAP2 POP POP PUSH1 0xC0 DUP4 ADD MLOAD PUSH2 0x1524 PUSH1 0xC0 DUP7 ADD DUP3 PUSH2 0x1461 JUMP JUMPDEST POP DUP1 SWAP2 POP POP SWAP3 SWAP2 POP POP JUMP JUMPDEST PUSH1 0x0 PUSH1 0x20 DUP3 ADD SWAP1 POP DUP2 DUP2 SUB PUSH1 0x0 DUP4 ADD MSTORE PUSH2 0x1549 DUP2 DUP5 PUSH2 0x1470 JUMP JUMPDEST SWAP1 POP SWAP3 SWAP2 POP POP JUMP JUMPDEST PUSH2 0x155A DUP2 PUSH2 0x1454 JUMP JUMPDEST DUP3 MSTORE POP POP JUMP JUMPDEST PUSH1 0x0 PUSH1 0x40 DUP3 ADD SWAP1 POP DUP2 DUP2 SUB PUSH1 0x0 DUP4 ADD MSTORE PUSH2 0x157A DUP2 DUP6 PUSH2 0x1470 JUMP JUMPDEST SWAP1 POP PUSH2 0x1589 PUSH1 0x20 DUP4 ADD DUP5 PUSH2 0x1551 JUMP JUMPDEST SWAP4 SWAP3 POP POP POP JUMP JUMPDEST PUSH2 0x1599 DUP2 PUSH2 0x11D7 JUMP JUMPDEST DUP2 EQ PUSH2 0x15A4 JUMPI PUSH1 0x0 DUP1 REVERT JUMPDEST POP JUMP JUMPDEST PUSH1 0x0 DUP2 CALLDATALOAD SWAP1 POP PUSH2 0x15B6 DUP2 PUSH2 0x1590 JUMP JUMPDEST SWAP3 SWAP2 POP POP JUMP JUMPDEST PUSH1 0x0 PUSH1 0x20 DUP3 DUP5 SUB SLT ISZERO PUSH2 0x15D2 JUMPI PUSH2 0x15D1 PUSH2 0x10D2 JUMP JUMPDEST JUMPDEST PUSH1 0x0 PUSH2 0x15E0 DUP5 DUP3 DUP6 ADD PUSH2 0x15A7 JUMP JUMPDEST SWAP2 POP POP SWAP3 SWAP2 POP POP JUMP JUMPDEST PUSH1 0x0 DUP1 PUSH1 0x40 DUP4 DUP6 SUB SLT ISZERO PUSH2 0x1600 JUMPI PUSH2 0x15FF PUSH2 0x10D2 JUMP JUMPDEST JUMPDEST PUSH1 0x0 PUSH2 0x160E DUP6 DUP3 DUP7 ADD PUSH2 0x10FD JUMP JUMPDEST SWAP3 POP POP PUSH1 0x20 DUP4 ADD CALLDATALOAD PUSH8 0xFFFFFFFFFFFFFFFF DUP2 GT ISZERO PUSH2 0x162F JUMPI PUSH2 0x162E PUSH2 0x10D7 JUMP JUMPDEST JUMPDEST PUSH2 0x163B DUP6 DUP3 DUP7 ADD PUSH2 0x1355 JUMP JUMPDEST SWAP2 POP POP SWAP3 POP SWAP3 SWAP1 POP JUMP JUMPDEST PUSH1 0x0 DUP3 DUP3 MSTORE PUSH1 0x20 DUP3 ADD SWAP1 POP SWAP3 SWAP2 POP POP JUMP JUMPDEST PUSH32 0x4F776E61626C653A2063616C6C6572206973206E6F7420746865206F776E6572 PUSH1 0x0 DUP3 ADD MSTORE POP JUMP JUMPDEST PUSH1 0x0 PUSH2 0x168C PUSH1 0x20 DUP4 PUSH2 0x1645 JUMP JUMPDEST SWAP2 POP PUSH2 0x1697 DUP3 PUSH2 0x1656 JUMP JUMPDEST PUSH1 0x20 DUP3 ADD SWAP1 POP SWAP2 SWAP1 POP JUMP JUMPDEST PUSH1 0x0 PUSH1 0x20 DUP3 ADD SWAP1 POP DUP2 DUP2 SUB PUSH1 0x0 DUP4 ADD MSTORE PUSH2 0x16BB DUP2 PUSH2 0x167F JUMP JUMPDEST SWAP1 POP SWAP2 SWAP1 POP JUMP JUMPDEST PUSH32 0x4E487B7100000000000000000000000000000000000000000000000000000000 PUSH1 0x0 MSTORE PUSH1 0x11 PUSH1 0x4 MSTORE PUSH1 0x24 PUSH1 0x0 REVERT JUMPDEST PUSH1 0x0 PUSH2 0x16FC DUP3 PUSH2 0x10DC JUMP JUMPDEST SWAP2 POP PUSH2 0x1707 DUP4 PUSH2 0x10DC JUMP JUMPDEST SWAP3 POP DUP3 PUSH32 0xFFFFFFFFFFFFFFFFFFFFFFFFFFFFFFFFFFFFFFFFFFFFFFFFFFFFFFFFFFFFFFFF SUB DUP3 GT ISZERO PUSH2 0x173C JUMPI PUSH2 0x173B PUSH2 0x16C2 JUMP JUMPDEST JUMPDEST DUP3 DUP3 ADD SWAP1 POP SWAP3 SWAP2 POP POP JUMP JUMPDEST PUSH1 0x0 DUP2 SWAP1 POP SWAP3 SWAP2 POP POP JUMP JUMPDEST PUSH1 0x0 PUSH2 0x175D DUP3 PUSH2 0x13CC JUMP JUMPDEST PUSH2 0x1767 DUP2 DUP6 PUSH2 0x1747 JUMP JUMPDEST SWAP4 POP PUSH2 0x1777 DUP2 DUP6 PUSH1 0x20 DUP7 ADD PUSH2 0x13E8 JUMP JUMPDEST DUP1 DUP5 ADD SWAP2 POP POP SWAP3 SWAP2 POP POP JUMP JUMPDEST PUSH1 0x0 DUP2 SWAP1 POP SWAP2 SWAP1 POP JUMP JUMPDEST PUSH1 0x0 DUP2 SWAP1 POP SWAP2 SWAP1 POP JUMP JUMPDEST PUSH2 0x17A8 PUSH2 0x17A3 DUP3 PUSH2 0x1783 JUMP JUMPDEST PUSH2 0x178D JUMP JUMPDEST DUP3 MSTORE POP POP JUMP JUMPDEST PUSH1 0x0 PUSH2 0x17BA DUP3 DUP6 PUSH2 0x1752 JUMP JUMPDEST SWAP2 POP PUSH2 0x17C6 DUP3 DUP5 PUSH2 0x1797 JUMP JUMPDEST PUSH1 0x20 DUP3 ADD SWAP2 POP DUP2 SWAP1 POP SWAP4 SWAP3 POP POP POP JUMP JUMPDEST PUSH32 0x4E487B7100000000000000000000000000000000000000000000000000000000 PUSH1 0x0 MSTORE PUSH1 0x12 PUSH1 0x4 MSTORE PUSH1 0x24 PUSH1 0x0 REVERT JUMPDEST PUSH1 0x0 PUSH2 0x1810 DUP3 PUSH2 0x10DC JUMP JUMPDEST SWAP2 POP PUSH2 0x181B DUP4 PUSH2 0x10DC JUMP JUMPDEST SWAP3 POP DUP3 PUSH2 0x182B JUMPI PUSH2 0x182A PUSH2 0x17D6 JUMP JUMPDEST JUMPDEST DUP3 DUP3 MOD SWAP1 POP SWAP3 SWAP2 POP POP JUMP JUMPDEST PUSH32 0x4E487B7100000000000000000000000000000000000000000000000000000000 PUSH1 0x0 MSTORE PUSH1 0x32 PUSH1 0x4 MSTORE PUSH1 0x24 PUSH1 0x0 REVERT JUMPDEST PUSH32 0x4E487B7100000000000000000000000000000000000000000000000000000000 PUSH1 0x0 MSTORE PUSH1 0x22 PUSH1 0x4 MSTORE PUSH1 0x24 PUSH1 0x0 REVERT JUMPDEST PUSH1 0x0 PUSH1 0x2 DUP3 DIV SWAP1 POP PUSH1 0x1 DUP3 AND DUP1 PUSH2 0x18AC JUMPI PUSH1 0x7F DUP3 AND SWAP2 POP JUMPDEST PUSH1 0x20 DUP3 LT DUP2 SUB PUSH2 0x18BF JUMPI PUSH2 0x18BE PUSH2 0x1865 JUMP JUMPDEST JUMPDEST POP SWAP2 SWAP1 POP JUMP JUMPDEST PUSH1 0x0 DUP2 SWAP1 POP DUP2 PUSH1 0x0 MSTORE PUSH1 0x20 PUSH1 0x0 KECCAK256 SWAP1 POP SWAP2 SWAP1 POP JUMP JUMPDEST PUSH1 0x0 DUP2 SLOAD PUSH2 0x18E7 DUP2 PUSH2 0x1894 JUMP JUMPDEST PUSH2 0x18F1 DUP2 DUP7 PUSH2 0x13D7 JUMP JUMPDEST SWAP5 POP PUSH1 0x1 DUP3 AND PUSH1 0x0 DUP2 EQ PUSH2 0x190C JUMPI PUSH1 0x1 DUP2 EQ PUSH2 0x191E JUMPI PUSH2 0x1951 JUMP JUMPDEST PUSH1 0xFF NOT DUP4 AND DUP7 MSTORE PUSH1 0x20 DUP7 ADD SWAP4 POP PUSH2 0x1951 JUMP JUMPDEST PUSH2 0x1927 DUP6 PUSH2 0x18C5 JUMP JUMPDEST PUSH1 0x0 JUMPDEST DUP4 DUP2 LT ISZERO PUSH2 0x1949 JUMPI DUP2 SLOAD DUP2 DUP10 ADD MSTORE PUSH1 0x1 DUP3 ADD SWAP2 POP PUSH1 0x20 DUP2 ADD SWAP1 POP PUSH2 0x192A JUMP JUMPDEST DUP1 DUP9 ADD SWAP6 POP POP POP JUMPDEST POP POP POP SWAP3 SWAP2 POP POP JUMP JUMPDEST PUSH1 0x0 DUP2 PUSH1 0x0 SHR SWAP1 POP SWAP2 SWAP1 POP JUMP JUMPDEST PUSH1 0x0 PUSH1 0xFF DUP3 AND SWAP1 POP SWAP2 SWAP1 POP JUMP JUMPDEST PUSH1 0x0 PUSH2 0x1987 PUSH2 0x1982 DUP4 PUSH2 0x195A JUMP JUMPDEST PUSH2 0x1967 JUMP JUMPDEST SWAP1 POP SWAP2 SWAP1 POP JUMP JUMPDEST PUSH1 0x0 PUSH1 0xE0 DUP4 ADD PUSH1 0x0 DUP1 DUP5 ADD DUP6 DUP4 SUB PUSH1 0x0 DUP8 ADD MSTORE PUSH2 0x19AB DUP4 DUP3 PUSH2 0x18DA JUMP JUMPDEST SWAP3 POP POP PUSH1 0x1 DUP5 ADD DUP6 DUP4 SUB PUSH1 0x20 DUP8 ADD MSTORE PUSH2 0x19C4 DUP4 DUP3 PUSH2 0x18DA JUMP JUMPDEST SWAP3 POP POP PUSH1 0x2 DUP5 ADD DUP6 DUP4 SUB PUSH1 0x40 DUP8 ADD MSTORE PUSH2 0x19DD DUP4 DUP3 PUSH2 0x18DA JUMP JUMPDEST SWAP3 POP POP PUSH1 0x3 DUP5 ADD DUP6 DUP4 SUB PUSH1 0x60 DUP8 ADD MSTORE PUSH2 0x19F6 DUP4 DUP3 PUSH2 0x18DA JUMP JUMPDEST SWAP3 POP POP PUSH1 0x4 DUP5 ADD DUP6 DUP4 SUB PUSH1 0x80 DUP8 ADD MSTORE PUSH2 0x1A0F DUP4 DUP3 PUSH2 0x18DA JUMP JUMPDEST SWAP3 POP POP PUSH1 0x5 DUP5 ADD DUP6 DUP4 SUB PUSH1 0xA0 DUP8 ADD MSTORE PUSH2 0x1A28 DUP4 DUP3 PUSH2 0x18DA JUMP JUMPDEST SWAP3 POP POP PUSH1 0x6 DUP5 ADD SLOAD SWAP1 POP PUSH2 0x1A3B DUP2 PUSH2 0x1974 JUMP JUMPDEST PUSH2 0x1A48 PUSH1 0xC0 DUP8 ADD DUP3 PUSH2 0x1461 JUMP JUMPDEST POP DUP2 SWAP3 POP POP POP SWAP3 SWAP2 POP POP JUMP JUMPDEST PUSH1 0x0 PUSH1 0x40 DUP3 ADD SWAP1 POP DUP2 DUP2 SUB PUSH1 0x0 DUP4 ADD MSTORE PUSH2 0x1A6E DUP2 DUP6 PUSH2 0x198E JUMP JUMPDEST SWAP1 POP PUSH2 0x1A7D PUSH1 0x20 DUP4 ADD DUP5 PUSH2 0x1551 JUMP JUMPDEST SWAP4 SWAP3 POP POP POP JUMP JUMPDEST PUSH32 0x4F776E61626C653A206E6577206F776E657220697320746865207A65726F2061 PUSH1 0x0 DUP3 ADD MSTORE PUSH32 0x6464726573730000000000000000000000000000000000000000000000000000 PUSH1 0x20 DUP3 ADD MSTORE POP JUMP JUMPDEST PUSH1 0x0 PUSH2 0x1AE0 PUSH1 0x26 DUP4 PUSH2 0x1645 JUMP JUMPDEST SWAP2 POP PUSH2 0x1AEB DUP3 PUSH2 0x1A84 JUMP JUMPDEST PUSH1 0x40 DUP3 ADD SWAP1 POP SWAP2 SWAP1 POP JUMP JUMPDEST PUSH1 0x0 PUSH1 0x20 DUP3 ADD SWAP1 POP DUP2 DUP2 SUB PUSH1 0x0 DUP4 ADD MSTORE PUSH2 0x1B0F DUP2 PUSH2 0x1AD3 JUMP JUMPDEST SWAP1 POP SWAP2 SWAP1 POP JUMP INVALID LOG2 PUSH5 0x6970667358 0x22 SLT KECCAK256 JUMPDEST 0xE4 POP DUP4 0xDF 0xAB 0x29 0xA9 NUMBER 0x5E 0x1E DUP9 OR PUSH30 0xE75B4F4575A351C8FD459305B89BE97C8CF364736F6C634300080E003300 "
				},
				"gasEstimates": {
					"creation": {
						"codeDepositCost": "1397600",
						"executionCost": "infinite",
						"totalCost": "infinite"
					},
					"external": {
						"changeQuizStatus(uint256,bool)": "27171",
						"getRandomQuiz(string)": "infinite",
						"owner()": "2544",
						"quizIsActive(uint256)": "2863",
						"quizOwner(uint256)": "2884",
						"quizOwnerChangeHint(uint256,string)": "infinite",
						"quizOwnerChangeStatus(uint256,bool)": "27206",
						"quizOwnerGetQuiz(uint256)": "infinite",
						"renounceOwnership()": "30463",
						"transferOwnership(address)": "30786"
					}
				},
				"methodIdentifiers": {
					"changeQuizStatus(uint256,bool)": "1d3f7559",
					"getRandomQuiz(string)": "728b0d87",
					"owner()": "8da5cb5b",
					"quizIsActive(uint256)": "51a1d40e",
					"quizOwner(uint256)": "400ae0f9",
					"quizOwnerChangeHint(uint256,string)": "fbb3b6ce",
					"quizOwnerChangeStatus(uint256,bool)": "377def85",
					"quizOwnerGetQuiz(uint256)": "b9360cf1",
					"renounceOwnership()": "715018a6",
					"transferOwnership(address)": "f2fde38b"
				}
			},
			"storageLayout": {
				"storage": [
					{
						"astId": 225,
						"contract": "contracts/ViewQuiz.sol:ViewQuiz",
						"label": "_owner",
						"offset": 0,
						"slot": "0",
						"type": "t_address"
					},
					{
						"astId": 73,
						"contract": "contracts/ViewQuiz.sol:ViewQuiz",
						"label": "quizzes",
						"offset": 0,
						"slot": "1",
						"type": "t_array(t_struct(Quiz)69_storage)dyn_storage"
					},
					{
						"astId": 77,
						"contract": "contracts/ViewQuiz.sol:ViewQuiz",
						"label": "quizIsActive",
						"offset": 0,
						"slot": "2",
						"type": "t_mapping(t_uint256,t_bool)"
					},
					{
						"astId": 81,
						"contract": "contracts/ViewQuiz.sol:ViewQuiz",
						"label": "quizAnswer",
						"offset": 0,
						"slot": "3",
						"type": "t_mapping(t_uint256,t_uint8)"
					},
					{
						"astId": 85,
						"contract": "contracts/ViewQuiz.sol:ViewQuiz",
						"label": "quizOwner",
						"offset": 0,
						"slot": "4",
						"type": "t_mapping(t_uint256,t_address)"
					}
				],
				"types": {
					"t_address": {
						"encoding": "inplace",
						"label": "address",
						"numberOfBytes": "20"
					},
					"t_array(t_struct(Quiz)69_storage)dyn_storage": {
						"base": "t_struct(Quiz)69_storage",
						"encoding": "dynamic_array",
						"label": "struct CreateQuiz.Quiz[]",
						"numberOfBytes": "32"
					},
					"t_bool": {
						"encoding": "inplace",
						"label": "bool",
						"numberOfBytes": "1"
					},
					"t_mapping(t_uint256,t_address)": {
						"encoding": "mapping",
						"key": "t_uint256",
						"label": "mapping(uint256 => address)",
						"numberOfBytes": "32",
						"value": "t_address"
					},
					"t_mapping(t_uint256,t_bool)": {
						"encoding": "mapping",
						"key": "t_uint256",
						"label": "mapping(uint256 => bool)",
						"numberOfBytes": "32",
						"value": "t_bool"
					},
					"t_mapping(t_uint256,t_uint8)": {
						"encoding": "mapping",
						"key": "t_uint256",
						"label": "mapping(uint256 => uint8)",
						"numberOfBytes": "32",
						"value": "t_uint8"
					},
					"t_string_storage": {
						"encoding": "bytes",
						"label": "string",
						"numberOfBytes": "32"
					},
					"t_struct(Quiz)69_storage": {
						"encoding": "inplace",
						"label": "struct CreateQuiz.Quiz",
						"members": [
							{
								"astId": 56,
								"contract": "contracts/ViewQuiz.sol:ViewQuiz",
								"label": "question",
								"offset": 0,
								"slot": "0",
								"type": "t_string_storage"
							},
							{
								"astId": 58,
								"contract": "contracts/ViewQuiz.sol:ViewQuiz",
								"label": "choice1",
								"offset": 0,
								"slot": "1",
								"type": "t_string_storage"
							},
							{
								"astId": 60,
								"contract": "contracts/ViewQuiz.sol:ViewQuiz",
								"label": "choice2",
								"offset": 0,
								"slot": "2",
								"type": "t_string_storage"
							},
							{
								"astId": 62,
								"contract": "contracts/ViewQuiz.sol:ViewQuiz",
								"label": "choice3",
								"offset": 0,
								"slot": "3",
								"type": "t_string_storage"
							},
							{
								"astId": 64,
								"contract": "contracts/ViewQuiz.sol:ViewQuiz",
								"label": "choice4",
								"offset": 0,
								"slot": "4",
								"type": "t_string_storage"
							},
							{
								"astId": 66,
								"contract": "contracts/ViewQuiz.sol:ViewQuiz",
								"label": "hint",
								"offset": 0,
								"slot": "5",
								"type": "t_string_storage"
							},
							{
								"astId": 68,
								"contract": "contracts/ViewQuiz.sol:ViewQuiz",
								"label": "languageCode",
								"offset": 0,
								"slot": "6",
								"type": "t_uint8"
							}
						],
						"numberOfBytes": "224"
					},
					"t_uint256": {
						"encoding": "inplace",
						"label": "uint256",
						"numberOfBytes": "32"
					},
					"t_uint8": {
						"encoding": "inplace",
						"label": "uint8",
						"numberOfBytes": "1"
					}
				}
			},
			"userdoc": {
				"kind": "user",
				"methods": {},
				"version": 1
			}
		}
	}
}