{
	"contracts/CreateQuiz.sol": {
		"CreateQuiz": {
			"abi": [
				{
					"anonymous": false,
					"inputs": [
						{
							"indexed": false,
							"internalType": "string",
							"name": "question",
							"type": "string"
						},
						{
							"indexed": false,
							"internalType": "uint8",
							"name": "answer",
							"type": "uint8"
						}
					],
					"name": "NewQuiz",
					"type": "event"
				},
				{
					"anonymous": false,
					"inputs": [
						{
							"indexed": true,
							"internalType": "address",
							"name": "previousOwner",
							"type": "address"
						},
						{
							"indexed": true,
							"internalType": "address",
							"name": "newOwner",
							"type": "address"
						}
					],
					"name": "OwnershipTransferred",
					"type": "event"
				},
				{
					"inputs": [
						{
							"internalType": "uint256",
							"name": "_quizId",
							"type": "uint256"
						},
						{
							"internalType": "bool",
							"name": "_quizStatus",
							"type": "bool"
						}
					],
					"name": "changeQuizStatus",
					"outputs": [],
					"stateMutability": "nonpayable",
					"type": "function"
				},
				{
					"inputs": [],
					"name": "owner",
					"outputs": [
						{
							"internalType": "address",
							"name": "",
							"type": "address"
						}
					],
					"stateMutability": "view",
					"type": "function"
				},
				{
					"inputs": [
						{
							"internalType": "uint256",
							"name": "",
							"type": "uint256"
						}
					],
					"name": "quizIsActive",
					"outputs": [
						{
							"internalType": "bool",
							"name": "",
							"type": "bool"
						}
					],
					"stateMutability": "view",
					"type": "function"
				},
				{
					"inputs": [
						{
							"internalType": "uint256",
							"name": "",
							"type": "uint256"
						}
					],
					"name": "quizOwner",
					"outputs": [
						{
							"internalType": "address",
							"name": "",
							"type": "address"
						}
					],
					"stateMutability": "view",
					"type": "function"
				},
				{
					"inputs": [
						{
							"internalType": "uint256",
							"name": "_quizId",
							"type": "uint256"
						},
						{
							"internalType": "string",
							"name": "_hint",
							"type": "string"
						}
					],
					"name": "quizOwnerChangeHint",
					"outputs": [],
					"stateMutability": "nonpayable",
					"type": "function"
				},
				{
					"inputs": [
						{
							"internalType": "uint256",
							"name": "_quizId",
							"type": "uint256"
						},
						{
							"internalType": "bool",
							"name": "_quizStatus",
							"type": "bool"
						}
					],
					"name": "quizOwnerChangeStatus",
					"outputs": [],
					"stateMutability": "nonpayable",
					"type": "function"
				},
				{
					"inputs": [],
					"name": "renounceOwnership",
					"outputs": [],
					"stateMutability": "nonpayable",
					"type": "function"
				},
				{
					"inputs": [
						{
							"internalType": "address",
							"name": "newOwner",
							"type": "address"
						}
					],
					"name": "transferOwnership",
					"outputs": [],
					"stateMutability": "nonpayable",
					"type": "function"
				}
			],
			"devdoc": {
				"kind": "dev",
				"methods": {
					"owner()": {
						"details": "Returns the address of the current owner."
					},
					"renounceOwnership()": {
						"details": "Leaves the contract without owner. It will not be possible to call `onlyOwner` functions anymore. Can only be called by the current owner. NOTE: Renouncing ownership will leave the contract without an owner, thereby removing any functionality that is only available to the owner."
					},
					"transferOwnership(address)": {
						"details": "Transfers ownership of the contract to a new account (`newOwner`). Can only be called by the current owner."
					}
				},
				"version": 1
			},
			"evm": {
				"assembly": "    /* \"contracts/CreateQuiz.sol\":90:2092  contract CreateQuiz is Ownable {... */\n  mstore(0x40, 0x80)\n  callvalue\n  dup1\n  iszero\n  tag_1\n  jumpi\n  0x00\n  dup1\n  revert\ntag_1:\n  pop\n    /* \"contracts/Ownable.sol\":914:946  _transferOwnership(_msgSender()) */\n  tag_4\n    /* \"contracts/Ownable.sol\":933:945  _msgSender() */\n  tag_5\n    /* \"contracts/Ownable.sol\":933:943  _msgSender */\n  shl(0x20, tag_6)\n    /* \"contracts/Ownable.sol\":933:945  _msgSender() */\n  0x20\n  shr\n  jump\t// in\ntag_5:\n    /* \"contracts/Ownable.sol\":914:932  _transferOwnership */\n  shl(0x20, tag_7)\n    /* \"contracts/Ownable.sol\":914:946  _transferOwnership(_msgSender()) */\n  0x20\n  shr\n  jump\t// in\ntag_4:\n    /* \"contracts/CreateQuiz.sol\":90:2092  contract CreateQuiz is Ownable {... */\n  jump(tag_8)\n    /* \"contracts/Context.sol\":640:736  function _msgSender() internal view virtual returns (address) {... */\ntag_6:\n    /* \"contracts/Context.sol\":693:700  address */\n  0x00\n    /* \"contracts/Context.sol\":719:729  msg.sender */\n  caller\n    /* \"contracts/Context.sol\":712:729  return msg.sender */\n  swap1\n  pop\n    /* \"contracts/Context.sol\":640:736  function _msgSender() internal view virtual returns (address) {... */\n  swap1\n  jump\t// out\n    /* \"contracts/Ownable.sol\":2263:2450  function _transferOwnership(address newOwner) internal virtual {... */\ntag_7:\n    /* \"contracts/Ownable.sol\":2336:2352  address oldOwner */\n  0x00\n    /* \"contracts/Ownable.sol\":2355:2361  _owner */\n  dup1\n  0x00\n  swap1\n  sload\n  swap1\n  0x0100\n  exp\n  swap1\n  div\n  0xffffffffffffffffffffffffffffffffffffffff\n  and\n    /* \"contracts/Ownable.sol\":2336:2361  address oldOwner = _owner */\n  swap1\n  pop\n    /* \"contracts/Ownable.sol\":2380:2388  newOwner */\n  dup2\n    /* \"contracts/Ownable.sol\":2371:2377  _owner */\n  0x00\n  dup1\n    /* \"contracts/Ownable.sol\":2371:2388  _owner = newOwner */\n  0x0100\n  exp\n  dup2\n  sload\n  dup2\n  0xffffffffffffffffffffffffffffffffffffffff\n  mul\n  not\n  and\n  swap1\n  dup4\n  0xffffffffffffffffffffffffffffffffffffffff\n  and\n  mul\n  or\n  swap1\n  sstore\n  pop\n    /* \"contracts/Ownable.sol\":2434:2442  newOwner */\n  dup2\n    /* \"contracts/Ownable.sol\":2403:2443  OwnershipTransferred(oldOwner, newOwner) */\n  0xffffffffffffffffffffffffffffffffffffffff\n  and\n    /* \"contracts/Ownable.sol\":2424:2432  oldOwner */\n  dup2\n    /* \"contracts/Ownable.sol\":2403:2443  OwnershipTransferred(oldOwner, newOwner) */\n  0xffffffffffffffffffffffffffffffffffffffff\n  and\n  0x8be0079c531659141344cd1fd0a4f28419497f9722a3daafe3b4186f6b6457e0\n  mload(0x40)\n  mload(0x40)\n  dup1\n  swap2\n  sub\n  swap1\n  log3\n    /* \"contracts/Ownable.sol\":2326:2450  {... */\n  pop\n    /* \"contracts/Ownable.sol\":2263:2450  function _transferOwnership(address newOwner) internal virtual {... */\n  pop\n  jump\t// out\n    /* \"contracts/CreateQuiz.sol\":90:2092  contract CreateQuiz is Ownable {... */\ntag_8:\n  dataSize(sub_0)\n  dup1\n  dataOffset(sub_0)\n  0x00\n  codecopy\n  0x00\n  return\nstop\n\nsub_0: assembly {\n        /* \"contracts/CreateQuiz.sol\":90:2092  contract CreateQuiz is Ownable {... */\n      mstore(0x40, 0x80)\n      callvalue\n      dup1\n      iszero\n      tag_1\n      jumpi\n      0x00\n      dup1\n      revert\n    tag_1:\n      pop\n      jumpi(tag_2, lt(calldatasize, 0x04))\n      shr(0xe0, calldataload(0x00))\n      dup1\n      0x715018a6\n      gt\n      tag_11\n      jumpi\n      dup1\n      0x715018a6\n      eq\n      tag_7\n      jumpi\n      dup1\n      0x8da5cb5b\n      eq\n      tag_8\n      jumpi\n      dup1\n      0xf2fde38b\n      eq\n      tag_9\n      jumpi\n      dup1\n      0xfbb3b6ce\n      eq\n      tag_10\n      jumpi\n      jump(tag_2)\n    tag_11:\n      dup1\n      0x1d3f7559\n      eq\n      tag_3\n      jumpi\n      dup1\n      0x377def85\n      eq\n      tag_4\n      jumpi\n      dup1\n      0x400ae0f9\n      eq\n      tag_5\n      jumpi\n      dup1\n      0x51a1d40e\n      eq\n      tag_6\n      jumpi\n    tag_2:\n      0x00\n      dup1\n      revert\n        /* \"contracts/CreateQuiz.sol\":1962:2089  function changeQuizStatus(uint _quizId, bool _quizStatus) public onlyOwner {... */\n    tag_3:\n      tag_12\n      0x04\n      dup1\n      calldatasize\n      sub\n      dup2\n      add\n      swap1\n      tag_13\n      swap2\n      swap1\n      tag_14\n      jump\t// in\n    tag_13:\n      tag_15\n      jump\t// in\n    tag_12:\n      stop\n        /* \"contracts/CreateQuiz.sol\":1526:1671  function quizOwnerChangeStatus(uint _quizId, bool _quizStatus) public onlyQuizOwner(_quizId) {... */\n    tag_4:\n      tag_16\n      0x04\n      dup1\n      calldatasize\n      sub\n      dup2\n      add\n      swap1\n      tag_17\n      swap2\n      swap1\n      tag_14\n      jump\t// in\n    tag_17:\n      tag_18\n      jump\t// in\n    tag_16:\n      stop\n        /* \"contracts/CreateQuiz.sol\":547:589  mapping (uint => address) public quizOwner */\n    tag_5:\n      tag_19\n      0x04\n      dup1\n      calldatasize\n      sub\n      dup2\n      add\n      swap1\n      tag_20\n      swap2\n      swap1\n      tag_21\n      jump\t// in\n    tag_20:\n      tag_22\n      jump\t// in\n    tag_19:\n      mload(0x40)\n      tag_23\n      swap2\n      swap1\n      tag_24\n      jump\t// in\n    tag_23:\n      mload(0x40)\n      dup1\n      swap2\n      sub\n      swap1\n      return\n        /* \"contracts/CreateQuiz.sol\":450:492  mapping (uint => bool) public quizIsActive */\n    tag_6:\n      tag_25\n      0x04\n      dup1\n      calldatasize\n      sub\n      dup2\n      add\n      swap1\n      tag_26\n      swap2\n      swap1\n      tag_21\n      jump\t// in\n    tag_26:\n      tag_27\n      jump\t// in\n    tag_25:\n      mload(0x40)\n      tag_28\n      swap2\n      swap1\n      tag_29\n      jump\t// in\n    tag_28:\n      mload(0x40)\n      dup1\n      swap2\n      sub\n      swap1\n      return\n        /* \"contracts/Ownable.sol\":1661:1762  function renounceOwnership() public virtual onlyOwner {... */\n    tag_7:\n      tag_30\n      tag_31\n      jump\t// in\n    tag_30:\n      stop\n        /* \"contracts/Ownable.sol\":1029:1114  function owner() public view virtual returns (address) {... */\n    tag_8:\n      tag_32\n      tag_33\n      jump\t// in\n    tag_32:\n      mload(0x40)\n      tag_34\n      swap2\n      swap1\n      tag_24\n      jump\t// in\n    tag_34:\n      mload(0x40)\n      dup1\n      swap2\n      sub\n      swap1\n      return\n        /* \"contracts/Ownable.sol\":1911:2109  function transferOwnership(address newOwner) public virtual onlyOwner {... */\n    tag_9:\n      tag_35\n      0x04\n      dup1\n      calldatasize\n      sub\n      dup2\n      add\n      swap1\n      tag_36\n      swap2\n      swap1\n      tag_37\n      jump\t// in\n    tag_36:\n      tag_38\n      jump\t// in\n    tag_35:\n      stop\n        /* \"contracts/CreateQuiz.sol\":1732:1872  function quizOwnerChangeHint(uint _quizId, string memory _hint) public onlyQuizOwner(_quizId) {... */\n    tag_10:\n      tag_39\n      0x04\n      dup1\n      calldatasize\n      sub\n      dup2\n      add\n      swap1\n      tag_40\n      swap2\n      swap1\n      tag_41\n      jump\t// in\n    tag_40:\n      tag_42\n      jump\t// in\n    tag_39:\n      stop\n        /* \"contracts/CreateQuiz.sol\":1962:2089  function changeQuizStatus(uint _quizId, bool _quizStatus) public onlyOwner {... */\n    tag_15:\n        /* \"contracts/Ownable.sol\":1252:1264  _msgSender() */\n      tag_44\n        /* \"contracts/Ownable.sol\":1252:1262  _msgSender */\n      tag_45\n        /* \"contracts/Ownable.sol\":1252:1264  _msgSender() */\n      jump\t// in\n    tag_44:\n        /* \"contracts/Ownable.sol\":1241:1264  owner() == _msgSender() */\n      0xffffffffffffffffffffffffffffffffffffffff\n      and\n        /* \"contracts/Ownable.sol\":1241:1248  owner() */\n      tag_46\n        /* \"contracts/Ownable.sol\":1241:1246  owner */\n      tag_33\n        /* \"contracts/Ownable.sol\":1241:1248  owner() */\n      jump\t// in\n    tag_46:\n        /* \"contracts/Ownable.sol\":1241:1264  owner() == _msgSender() */\n      0xffffffffffffffffffffffffffffffffffffffff\n      and\n      eq\n        /* \"contracts/Ownable.sol\":1233:1301  require(owner() == _msgSender(), \"Ownable: caller is not the owner\") */\n      tag_47\n      jumpi\n      mload(0x40)\n      0x08c379a000000000000000000000000000000000000000000000000000000000\n      dup2\n      mstore\n      0x04\n      add\n      tag_48\n      swap1\n      tag_49\n      jump\t// in\n    tag_48:\n      mload(0x40)\n      dup1\n      swap2\n      sub\n      swap1\n      revert\n    tag_47:\n        /* \"contracts/CreateQuiz.sol\":2071:2082  _quizStatus */\n      dup1\n        /* \"contracts/CreateQuiz.sol\":2047:2059  quizIsActive */\n      0x02\n        /* \"contracts/CreateQuiz.sol\":2047:2068  quizIsActive[_quizId] */\n      0x00\n        /* \"contracts/CreateQuiz.sol\":2060:2067  _quizId */\n      dup5\n        /* \"contracts/CreateQuiz.sol\":2047:2068  quizIsActive[_quizId] */\n      dup2\n      mstore\n      0x20\n      add\n      swap1\n      dup2\n      mstore\n      0x20\n      add\n      0x00\n      keccak256\n      0x00\n        /* \"contracts/CreateQuiz.sol\":2047:2082  quizIsActive[_quizId] = _quizStatus */\n      0x0100\n      exp\n      dup2\n      sload\n      dup2\n      0xff\n      mul\n      not\n      and\n      swap1\n      dup4\n      iszero\n      iszero\n      mul\n      or\n      swap1\n      sstore\n      pop\n        /* \"contracts/CreateQuiz.sol\":1962:2089  function changeQuizStatus(uint _quizId, bool _quizStatus) public onlyOwner {... */\n      pop\n      pop\n      jump\t// out\n        /* \"contracts/CreateQuiz.sol\":1526:1671  function quizOwnerChangeStatus(uint _quizId, bool _quizStatus) public onlyQuizOwner(_quizId) {... */\n    tag_18:\n        /* \"contracts/CreateQuiz.sol\":1610:1617  _quizId */\n      dup2\n        /* \"contracts/CreateQuiz.sol\":674:684  msg.sender */\n      caller\n        /* \"contracts/CreateQuiz.sol\":652:684  quizOwner[_quizId] == msg.sender */\n      0xffffffffffffffffffffffffffffffffffffffff\n      and\n        /* \"contracts/CreateQuiz.sol\":652:661  quizOwner */\n      0x04\n        /* \"contracts/CreateQuiz.sol\":652:670  quizOwner[_quizId] */\n      0x00\n        /* \"contracts/CreateQuiz.sol\":662:669  _quizId */\n      dup4\n        /* \"contracts/CreateQuiz.sol\":652:670  quizOwner[_quizId] */\n      dup2\n      mstore\n      0x20\n      add\n      swap1\n      dup2\n      mstore\n      0x20\n      add\n      0x00\n      keccak256\n      0x00\n      swap1\n      sload\n      swap1\n      0x0100\n      exp\n      swap1\n      div\n      0xffffffffffffffffffffffffffffffffffffffff\n      and\n        /* \"contracts/CreateQuiz.sol\":652:684  quizOwner[_quizId] == msg.sender */\n      0xffffffffffffffffffffffffffffffffffffffff\n      and\n      eq\n        /* \"contracts/CreateQuiz.sol\":644:685  require(quizOwner[_quizId] == msg.sender) */\n      tag_52\n      jumpi\n      0x00\n      dup1\n      revert\n    tag_52:\n        /* \"contracts/CreateQuiz.sol\":1653:1664  _quizStatus */\n      dup2\n        /* \"contracts/CreateQuiz.sol\":1629:1641  quizIsActive */\n      0x02\n        /* \"contracts/CreateQuiz.sol\":1629:1650  quizIsActive[_quizId] */\n      0x00\n        /* \"contracts/CreateQuiz.sol\":1642:1649  _quizId */\n      dup6\n        /* \"contracts/CreateQuiz.sol\":1629:1650  quizIsActive[_quizId] */\n      dup2\n      mstore\n      0x20\n      add\n      swap1\n      dup2\n      mstore\n      0x20\n      add\n      0x00\n      keccak256\n      0x00\n        /* \"contracts/CreateQuiz.sol\":1629:1664  quizIsActive[_quizId] = _quizStatus */\n      0x0100\n      exp\n      dup2\n      sload\n      dup2\n      0xff\n      mul\n      not\n      and\n      swap1\n      dup4\n      iszero\n      iszero\n      mul\n      or\n      swap1\n      sstore\n      pop\n        /* \"contracts/CreateQuiz.sol\":1526:1671  function quizOwnerChangeStatus(uint _quizId, bool _quizStatus) public onlyQuizOwner(_quizId) {... */\n      pop\n      pop\n      pop\n      jump\t// out\n        /* \"contracts/CreateQuiz.sol\":547:589  mapping (uint => address) public quizOwner */\n    tag_22:\n      mstore(0x20, 0x04)\n      dup1\n      0x00\n      mstore\n      keccak256(0x00, 0x40)\n      0x00\n      swap2\n      pop\n      sload\n      swap1\n      0x0100\n      exp\n      swap1\n      div\n      0xffffffffffffffffffffffffffffffffffffffff\n      and\n      dup2\n      jump\t// out\n        /* \"contracts/CreateQuiz.sol\":450:492  mapping (uint => bool) public quizIsActive */\n    tag_27:\n      mstore(0x20, 0x02)\n      dup1\n      0x00\n      mstore\n      keccak256(0x00, 0x40)\n      0x00\n      swap2\n      pop\n      sload\n      swap1\n      0x0100\n      exp\n      swap1\n      div\n      0xff\n      and\n      dup2\n      jump\t// out\n        /* \"contracts/Ownable.sol\":1661:1762  function renounceOwnership() public virtual onlyOwner {... */\n    tag_31:\n        /* \"contracts/Ownable.sol\":1252:1264  _msgSender() */\n      tag_55\n        /* \"contracts/Ownable.sol\":1252:1262  _msgSender */\n      tag_45\n        /* \"contracts/Ownable.sol\":1252:1264  _msgSender() */\n      jump\t// in\n    tag_55:\n        /* \"contracts/Ownable.sol\":1241:1264  owner() == _msgSender() */\n      0xffffffffffffffffffffffffffffffffffffffff\n      and\n        /* \"contracts/Ownable.sol\":1241:1248  owner() */\n      tag_56\n        /* \"contracts/Ownable.sol\":1241:1246  owner */\n      tag_33\n        /* \"contracts/Ownable.sol\":1241:1248  owner() */\n      jump\t// in\n    tag_56:\n        /* \"contracts/Ownable.sol\":1241:1264  owner() == _msgSender() */\n      0xffffffffffffffffffffffffffffffffffffffff\n      and\n      eq\n        /* \"contracts/Ownable.sol\":1233:1301  require(owner() == _msgSender(), \"Ownable: caller is not the owner\") */\n      tag_57\n      jumpi\n      mload(0x40)\n      0x08c379a000000000000000000000000000000000000000000000000000000000\n      dup2\n      mstore\n      0x04\n      add\n      tag_58\n      swap1\n      tag_49\n      jump\t// in\n    tag_58:\n      mload(0x40)\n      dup1\n      swap2\n      sub\n      swap1\n      revert\n    tag_57:\n        /* \"contracts/Ownable.sol\":1725:1755  _transferOwnership(address(0)) */\n      tag_60\n        /* \"contracts/Ownable.sol\":1752:1753  0 */\n      0x00\n        /* \"contracts/Ownable.sol\":1725:1743  _transferOwnership */\n      tag_61\n        /* \"contracts/Ownable.sol\":1725:1755  _transferOwnership(address(0)) */\n      jump\t// in\n    tag_60:\n        /* \"contracts/Ownable.sol\":1661:1762  function renounceOwnership() public virtual onlyOwner {... */\n      jump\t// out\n        /* \"contracts/Ownable.sol\":1029:1114  function owner() public view virtual returns (address) {... */\n    tag_33:\n        /* \"contracts/Ownable.sol\":1075:1082  address */\n      0x00\n        /* \"contracts/Ownable.sol\":1101:1107  _owner */\n      dup1\n      0x00\n      swap1\n      sload\n      swap1\n      0x0100\n      exp\n      swap1\n      div\n      0xffffffffffffffffffffffffffffffffffffffff\n      and\n        /* \"contracts/Ownable.sol\":1094:1107  return _owner */\n      swap1\n      pop\n        /* \"contracts/Ownable.sol\":1029:1114  function owner() public view virtual returns (address) {... */\n      swap1\n      jump\t// out\n        /* \"contracts/Ownable.sol\":1911:2109  function transferOwnership(address newOwner) public virtual onlyOwner {... */\n    tag_38:\n        /* \"contracts/Ownable.sol\":1252:1264  _msgSender() */\n      tag_64\n        /* \"contracts/Ownable.sol\":1252:1262  _msgSender */\n      tag_45\n        /* \"contracts/Ownable.sol\":1252:1264  _msgSender() */\n      jump\t// in\n    tag_64:\n        /* \"contracts/Ownable.sol\":1241:1264  owner() == _msgSender() */\n      0xffffffffffffffffffffffffffffffffffffffff\n      and\n        /* \"contracts/Ownable.sol\":1241:1248  owner() */\n      tag_65\n        /* \"contracts/Ownable.sol\":1241:1246  owner */\n      tag_33\n        /* \"contracts/Ownable.sol\":1241:1248  owner() */\n      jump\t// in\n    tag_65:\n        /* \"contracts/Ownable.sol\":1241:1264  owner() == _msgSender() */\n      0xffffffffffffffffffffffffffffffffffffffff\n      and\n      eq\n        /* \"contracts/Ownable.sol\":1233:1301  require(owner() == _msgSender(), \"Ownable: caller is not the owner\") */\n      tag_66\n      jumpi\n      mload(0x40)\n      0x08c379a000000000000000000000000000000000000000000000000000000000\n      dup2\n      mstore\n      0x04\n      add\n      tag_67\n      swap1\n      tag_49\n      jump\t// in\n    tag_67:\n      mload(0x40)\n      dup1\n      swap2\n      sub\n      swap1\n      revert\n    tag_66:\n        /* \"contracts/Ownable.sol\":2019:2020  0 */\n      0x00\n        /* \"contracts/Ownable.sol\":1999:2021  newOwner != address(0) */\n      0xffffffffffffffffffffffffffffffffffffffff\n      and\n        /* \"contracts/Ownable.sol\":1999:2007  newOwner */\n      dup2\n        /* \"contracts/Ownable.sol\":1999:2021  newOwner != address(0) */\n      0xffffffffffffffffffffffffffffffffffffffff\n      and\n      sub\n        /* \"contracts/Ownable.sol\":1991:2064  require(newOwner != address(0), \"Ownable: new owner is the zero address\") */\n      tag_69\n      jumpi\n      mload(0x40)\n      0x08c379a000000000000000000000000000000000000000000000000000000000\n      dup2\n      mstore\n      0x04\n      add\n      tag_70\n      swap1\n      tag_71\n      jump\t// in\n    tag_70:\n      mload(0x40)\n      dup1\n      swap2\n      sub\n      swap1\n      revert\n    tag_69:\n        /* \"contracts/Ownable.sol\":2074:2102  _transferOwnership(newOwner) */\n      tag_72\n        /* \"contracts/Ownable.sol\":2093:2101  newOwner */\n      dup2\n        /* \"contracts/Ownable.sol\":2074:2092  _transferOwnership */\n      tag_61\n        /* \"contracts/Ownable.sol\":2074:2102  _transferOwnership(newOwner) */\n      jump\t// in\n    tag_72:\n        /* \"contracts/Ownable.sol\":1911:2109  function transferOwnership(address newOwner) public virtual onlyOwner {... */\n      pop\n      jump\t// out\n        /* \"contracts/CreateQuiz.sol\":1732:1872  function quizOwnerChangeHint(uint _quizId, string memory _hint) public onlyQuizOwner(_quizId) {... */\n    tag_42:\n        /* \"contracts/CreateQuiz.sol\":1817:1824  _quizId */\n      dup2\n        /* \"contracts/CreateQuiz.sol\":674:684  msg.sender */\n      caller\n        /* \"contracts/CreateQuiz.sol\":652:684  quizOwner[_quizId] == msg.sender */\n      0xffffffffffffffffffffffffffffffffffffffff\n      and\n        /* \"contracts/CreateQuiz.sol\":652:661  quizOwner */\n      0x04\n        /* \"contracts/CreateQuiz.sol\":652:670  quizOwner[_quizId] */\n      0x00\n        /* \"contracts/CreateQuiz.sol\":662:669  _quizId */\n      dup4\n        /* \"contracts/CreateQuiz.sol\":652:670  quizOwner[_quizId] */\n      dup2\n      mstore\n      0x20\n      add\n      swap1\n      dup2\n      mstore\n      0x20\n      add\n      0x00\n      keccak256\n      0x00\n      swap1\n      sload\n      swap1\n      0x0100\n      exp\n      swap1\n      div\n      0xffffffffffffffffffffffffffffffffffffffff\n      and\n        /* \"contracts/CreateQuiz.sol\":652:684  quizOwner[_quizId] == msg.sender */\n      0xffffffffffffffffffffffffffffffffffffffff\n      and\n      eq\n        /* \"contracts/CreateQuiz.sol\":644:685  require(quizOwner[_quizId] == msg.sender) */\n      tag_74\n      jumpi\n      0x00\n      dup1\n      revert\n    tag_74:\n        /* \"contracts/CreateQuiz.sol\":1860:1865  _hint */\n      dup2\n        /* \"contracts/CreateQuiz.sol\":1836:1843  quizzes */\n      0x01\n        /* \"contracts/CreateQuiz.sol\":1844:1851  _quizId */\n      dup5\n        /* \"contracts/CreateQuiz.sol\":1836:1852  quizzes[_quizId] */\n      dup2\n      sload\n      dup2\n      lt\n      tag_76\n      jumpi\n      tag_77\n      tag_78\n      jump\t// in\n    tag_77:\n    tag_76:\n      swap1\n      0x00\n      mstore\n      keccak256(0x00, 0x20)\n      swap1\n      0x09\n      mul\n      add\n        /* \"contracts/CreateQuiz.sol\":1836:1857  quizzes[_quizId].hint */\n      0x05\n      add\n        /* \"contracts/CreateQuiz.sol\":1836:1865  quizzes[_quizId].hint = _hint */\n      swap1\n      dup1\n      mload\n      swap1\n      0x20\n      add\n      swap1\n      tag_80\n      swap3\n      swap2\n      swap1\n      tag_81\n      jump\t// in\n    tag_80:\n      pop\n        /* \"contracts/CreateQuiz.sol\":1732:1872  function quizOwnerChangeHint(uint _quizId, string memory _hint) public onlyQuizOwner(_quizId) {... */\n      pop\n      pop\n      pop\n      jump\t// out\n        /* \"contracts/Context.sol\":640:736  function _msgSender() internal view virtual returns (address) {... */\n    tag_45:\n        /* \"contracts/Context.sol\":693:700  address */\n      0x00\n        /* \"contracts/Context.sol\":719:729  msg.sender */\n      caller\n        /* \"contracts/Context.sol\":712:729  return msg.sender */\n      swap1\n      pop\n        /* \"contracts/Context.sol\":640:736  function _msgSender() internal view virtual returns (address) {... */\n      swap1\n      jump\t// out\n        /* \"contracts/Ownable.sol\":2263:2450  function _transferOwnership(address newOwner) internal virtual {... */\n    tag_61:\n        /* \"contracts/Ownable.sol\":2336:2352  address oldOwner */\n      0x00\n        /* \"contracts/Ownable.sol\":2355:2361  _owner */\n      dup1\n      0x00\n      swap1\n      sload\n      swap1\n      0x0100\n      exp\n      swap1\n      div\n      0xffffffffffffffffffffffffffffffffffffffff\n      and\n        /* \"contracts/Ownable.sol\":2336:2361  address oldOwner = _owner */\n      swap1\n      pop\n        /* \"contracts/Ownable.sol\":2380:2388  newOwner */\n      dup2\n        /* \"contracts/Ownable.sol\":2371:2377  _owner */\n      0x00\n      dup1\n        /* \"contracts/Ownable.sol\":2371:2388  _owner = newOwner */\n      0x0100\n      exp\n      dup2\n      sload\n      dup2\n      0xffffffffffffffffffffffffffffffffffffffff\n      mul\n      not\n      and\n      swap1\n      dup4\n      0xffffffffffffffffffffffffffffffffffffffff\n      and\n      mul\n      or\n      swap1\n      sstore\n      pop\n        /* \"contracts/Ownable.sol\":2434:2442  newOwner */\n      dup2\n        /* \"contracts/Ownable.sol\":2403:2443  OwnershipTransferred(oldOwner, newOwner) */\n      0xffffffffffffffffffffffffffffffffffffffff\n      and\n        /* \"contracts/Ownable.sol\":2424:2432  oldOwner */\n      dup2\n        /* \"contracts/Ownable.sol\":2403:2443  OwnershipTransferred(oldOwner, newOwner) */\n      0xffffffffffffffffffffffffffffffffffffffff\n      and\n      0x8be0079c531659141344cd1fd0a4f28419497f9722a3daafe3b4186f6b6457e0\n      mload(0x40)\n      mload(0x40)\n      dup1\n      swap2\n      sub\n      swap1\n      log3\n        /* \"contracts/Ownable.sol\":2326:2450  {... */\n      pop\n        /* \"contracts/Ownable.sol\":2263:2450  function _transferOwnership(address newOwner) internal virtual {... */\n      pop\n      jump\t// out\n    tag_81:\n      dup3\n      dup1\n      sload\n      tag_84\n      swap1\n      tag_85\n      jump\t// in\n    tag_84:\n      swap1\n      0x00\n      mstore\n      keccak256(0x00, 0x20)\n      swap1\n      0x1f\n      add\n      0x20\n      swap1\n      div\n      dup2\n      add\n      swap3\n      dup3\n      tag_87\n      jumpi\n      0x00\n      dup6\n      sstore\n      jump(tag_86)\n    tag_87:\n      dup3\n      0x1f\n      lt\n      tag_88\n      jumpi\n      dup1\n      mload\n      not(0xff)\n      and\n      dup4\n      dup1\n      add\n      or\n      dup6\n      sstore\n      jump(tag_86)\n    tag_88:\n      dup3\n      dup1\n      add\n      0x01\n      add\n      dup6\n      sstore\n      dup3\n      iszero\n      tag_86\n      jumpi\n      swap2\n      dup3\n      add\n    tag_89:\n      dup3\n      dup2\n      gt\n      iszero\n      tag_90\n      jumpi\n      dup3\n      mload\n      dup3\n      sstore\n      swap2\n      0x20\n      add\n      swap2\n      swap1\n      0x01\n      add\n      swap1\n      jump(tag_89)\n    tag_90:\n    tag_86:\n      pop\n      swap1\n      pop\n      tag_91\n      swap2\n      swap1\n      tag_92\n      jump\t// in\n    tag_91:\n      pop\n      swap1\n      jump\t// out\n    tag_92:\n    tag_93:\n      dup1\n      dup3\n      gt\n      iszero\n      tag_94\n      jumpi\n      0x00\n      dup2\n      0x00\n      swap1\n      sstore\n      pop\n      0x01\n      add\n      jump(tag_93)\n    tag_94:\n      pop\n      swap1\n      jump\t// out\n        /* \"#utility.yul\":7:82   */\n    tag_95:\n        /* \"#utility.yul\":40:46   */\n      0x00\n        /* \"#utility.yul\":73:75   */\n      0x40\n        /* \"#utility.yul\":67:76   */\n      mload\n        /* \"#utility.yul\":57:76   */\n      swap1\n      pop\n        /* \"#utility.yul\":7:82   */\n      swap1\n      jump\t// out\n        /* \"#utility.yul\":88:205   */\n    tag_96:\n        /* \"#utility.yul\":197:198   */\n      0x00\n        /* \"#utility.yul\":194:195   */\n      dup1\n        /* \"#utility.yul\":187:199   */\n      revert\n        /* \"#utility.yul\":211:328   */\n    tag_97:\n        /* \"#utility.yul\":320:321   */\n      0x00\n        /* \"#utility.yul\":317:318   */\n      dup1\n        /* \"#utility.yul\":310:322   */\n      revert\n        /* \"#utility.yul\":334:411   */\n    tag_98:\n        /* \"#utility.yul\":371:378   */\n      0x00\n        /* \"#utility.yul\":400:405   */\n      dup2\n        /* \"#utility.yul\":389:405   */\n      swap1\n      pop\n        /* \"#utility.yul\":334:411   */\n      swap2\n      swap1\n      pop\n      jump\t// out\n        /* \"#utility.yul\":417:539   */\n    tag_99:\n        /* \"#utility.yul\":490:514   */\n      tag_132\n        /* \"#utility.yul\":508:513   */\n      dup2\n        /* \"#utility.yul\":490:514   */\n      tag_98\n      jump\t// in\n    tag_132:\n        /* \"#utility.yul\":483:488   */\n      dup2\n        /* \"#utility.yul\":480:515   */\n      eq\n        /* \"#utility.yul\":470:533   */\n      tag_133\n      jumpi\n        /* \"#utility.yul\":529:530   */\n      0x00\n        /* \"#utility.yul\":526:527   */\n      dup1\n        /* \"#utility.yul\":519:531   */\n      revert\n        /* \"#utility.yul\":470:533   */\n    tag_133:\n        /* \"#utility.yul\":417:539   */\n      pop\n      jump\t// out\n        /* \"#utility.yul\":545:684   */\n    tag_100:\n        /* \"#utility.yul\":591:596   */\n      0x00\n        /* \"#utility.yul\":629:635   */\n      dup2\n        /* \"#utility.yul\":616:636   */\n      calldataload\n        /* \"#utility.yul\":607:636   */\n      swap1\n      pop\n        /* \"#utility.yul\":645:678   */\n      tag_135\n        /* \"#utility.yul\":672:677   */\n      dup2\n        /* \"#utility.yul\":645:678   */\n      tag_99\n      jump\t// in\n    tag_135:\n        /* \"#utility.yul\":545:684   */\n      swap3\n      swap2\n      pop\n      pop\n      jump\t// out\n        /* \"#utility.yul\":690:780   */\n    tag_101:\n        /* \"#utility.yul\":724:731   */\n      0x00\n        /* \"#utility.yul\":767:772   */\n      dup2\n        /* \"#utility.yul\":760:773   */\n      iszero\n        /* \"#utility.yul\":753:774   */\n      iszero\n        /* \"#utility.yul\":742:774   */\n      swap1\n      pop\n        /* \"#utility.yul\":690:780   */\n      swap2\n      swap1\n      pop\n      jump\t// out\n        /* \"#utility.yul\":786:902   */\n    tag_102:\n        /* \"#utility.yul\":856:877   */\n      tag_138\n        /* \"#utility.yul\":871:876   */\n      dup2\n        /* \"#utility.yul\":856:877   */\n      tag_101\n      jump\t// in\n    tag_138:\n        /* \"#utility.yul\":849:854   */\n      dup2\n        /* \"#utility.yul\":846:878   */\n      eq\n        /* \"#utility.yul\":836:896   */\n      tag_139\n      jumpi\n        /* \"#utility.yul\":892:893   */\n      0x00\n        /* \"#utility.yul\":889:890   */\n      dup1\n        /* \"#utility.yul\":882:894   */\n      revert\n        /* \"#utility.yul\":836:896   */\n    tag_139:\n        /* \"#utility.yul\":786:902   */\n      pop\n      jump\t// out\n        /* \"#utility.yul\":908:1041   */\n    tag_103:\n        /* \"#utility.yul\":951:956   */\n      0x00\n        /* \"#utility.yul\":989:995   */\n      dup2\n        /* \"#utility.yul\":976:996   */\n      calldataload\n        /* \"#utility.yul\":967:996   */\n      swap1\n      pop\n        /* \"#utility.yul\":1005:1035   */\n      tag_141\n        /* \"#utility.yul\":1029:1034   */\n      dup2\n        /* \"#utility.yul\":1005:1035   */\n      tag_102\n      jump\t// in\n    tag_141:\n        /* \"#utility.yul\":908:1041   */\n      swap3\n      swap2\n      pop\n      pop\n      jump\t// out\n        /* \"#utility.yul\":1047:1515   */\n    tag_14:\n        /* \"#utility.yul\":1112:1118   */\n      0x00\n        /* \"#utility.yul\":1120:1126   */\n      dup1\n        /* \"#utility.yul\":1169:1171   */\n      0x40\n        /* \"#utility.yul\":1157:1166   */\n      dup4\n        /* \"#utility.yul\":1148:1155   */\n      dup6\n        /* \"#utility.yul\":1144:1167   */\n      sub\n        /* \"#utility.yul\":1140:1172   */\n      slt\n        /* \"#utility.yul\":1137:1256   */\n      iszero\n      tag_143\n      jumpi\n        /* \"#utility.yul\":1175:1254   */\n      tag_144\n      tag_96\n      jump\t// in\n    tag_144:\n        /* \"#utility.yul\":1137:1256   */\n    tag_143:\n        /* \"#utility.yul\":1295:1296   */\n      0x00\n        /* \"#utility.yul\":1320:1373   */\n      tag_145\n        /* \"#utility.yul\":1365:1372   */\n      dup6\n        /* \"#utility.yul\":1356:1362   */\n      dup3\n        /* \"#utility.yul\":1345:1354   */\n      dup7\n        /* \"#utility.yul\":1341:1363   */\n      add\n        /* \"#utility.yul\":1320:1373   */\n      tag_100\n      jump\t// in\n    tag_145:\n        /* \"#utility.yul\":1310:1373   */\n      swap3\n      pop\n        /* \"#utility.yul\":1266:1383   */\n      pop\n        /* \"#utility.yul\":1422:1424   */\n      0x20\n        /* \"#utility.yul\":1448:1498   */\n      tag_146\n        /* \"#utility.yul\":1490:1497   */\n      dup6\n        /* \"#utility.yul\":1481:1487   */\n      dup3\n        /* \"#utility.yul\":1470:1479   */\n      dup7\n        /* \"#utility.yul\":1466:1488   */\n      add\n        /* \"#utility.yul\":1448:1498   */\n      tag_103\n      jump\t// in\n    tag_146:\n        /* \"#utility.yul\":1438:1498   */\n      swap2\n      pop\n        /* \"#utility.yul\":1393:1508   */\n      pop\n        /* \"#utility.yul\":1047:1515   */\n      swap3\n      pop\n      swap3\n      swap1\n      pop\n      jump\t// out\n        /* \"#utility.yul\":1521:1850   */\n    tag_21:\n        /* \"#utility.yul\":1580:1586   */\n      0x00\n        /* \"#utility.yul\":1629:1631   */\n      0x20\n        /* \"#utility.yul\":1617:1626   */\n      dup3\n        /* \"#utility.yul\":1608:1615   */\n      dup5\n        /* \"#utility.yul\":1604:1627   */\n      sub\n        /* \"#utility.yul\":1600:1632   */\n      slt\n        /* \"#utility.yul\":1597:1716   */\n      iszero\n      tag_148\n      jumpi\n        /* \"#utility.yul\":1635:1714   */\n      tag_149\n      tag_96\n      jump\t// in\n    tag_149:\n        /* \"#utility.yul\":1597:1716   */\n    tag_148:\n        /* \"#utility.yul\":1755:1756   */\n      0x00\n        /* \"#utility.yul\":1780:1833   */\n      tag_150\n        /* \"#utility.yul\":1825:1832   */\n      dup5\n        /* \"#utility.yul\":1816:1822   */\n      dup3\n        /* \"#utility.yul\":1805:1814   */\n      dup6\n        /* \"#utility.yul\":1801:1823   */\n      add\n        /* \"#utility.yul\":1780:1833   */\n      tag_100\n      jump\t// in\n    tag_150:\n        /* \"#utility.yul\":1770:1833   */\n      swap2\n      pop\n        /* \"#utility.yul\":1726:1843   */\n      pop\n        /* \"#utility.yul\":1521:1850   */\n      swap3\n      swap2\n      pop\n      pop\n      jump\t// out\n        /* \"#utility.yul\":1856:1982   */\n    tag_104:\n        /* \"#utility.yul\":1893:1900   */\n      0x00\n        /* \"#utility.yul\":1933:1975   */\n      0xffffffffffffffffffffffffffffffffffffffff\n        /* \"#utility.yul\":1926:1931   */\n      dup3\n        /* \"#utility.yul\":1922:1976   */\n      and\n        /* \"#utility.yul\":1911:1976   */\n      swap1\n      pop\n        /* \"#utility.yul\":1856:1982   */\n      swap2\n      swap1\n      pop\n      jump\t// out\n        /* \"#utility.yul\":1988:2084   */\n    tag_105:\n        /* \"#utility.yul\":2025:2032   */\n      0x00\n        /* \"#utility.yul\":2054:2078   */\n      tag_153\n        /* \"#utility.yul\":2072:2077   */\n      dup3\n        /* \"#utility.yul\":2054:2078   */\n      tag_104\n      jump\t// in\n    tag_153:\n        /* \"#utility.yul\":2043:2078   */\n      swap1\n      pop\n        /* \"#utility.yul\":1988:2084   */\n      swap2\n      swap1\n      pop\n      jump\t// out\n        /* \"#utility.yul\":2090:2208   */\n    tag_106:\n        /* \"#utility.yul\":2177:2201   */\n      tag_155\n        /* \"#utility.yul\":2195:2200   */\n      dup2\n        /* \"#utility.yul\":2177:2201   */\n      tag_105\n      jump\t// in\n    tag_155:\n        /* \"#utility.yul\":2172:2175   */\n      dup3\n        /* \"#utility.yul\":2165:2202   */\n      mstore\n        /* \"#utility.yul\":2090:2208   */\n      pop\n      pop\n      jump\t// out\n        /* \"#utility.yul\":2214:2436   */\n    tag_24:\n        /* \"#utility.yul\":2307:2311   */\n      0x00\n        /* \"#utility.yul\":2345:2347   */\n      0x20\n        /* \"#utility.yul\":2334:2343   */\n      dup3\n        /* \"#utility.yul\":2330:2348   */\n      add\n        /* \"#utility.yul\":2322:2348   */\n      swap1\n      pop\n        /* \"#utility.yul\":2358:2429   */\n      tag_157\n        /* \"#utility.yul\":2426:2427   */\n      0x00\n        /* \"#utility.yul\":2415:2424   */\n      dup4\n        /* \"#utility.yul\":2411:2428   */\n      add\n        /* \"#utility.yul\":2402:2408   */\n      dup5\n        /* \"#utility.yul\":2358:2429   */\n      tag_106\n      jump\t// in\n    tag_157:\n        /* \"#utility.yul\":2214:2436   */\n      swap3\n      swap2\n      pop\n      pop\n      jump\t// out\n        /* \"#utility.yul\":2442:2551   */\n    tag_107:\n        /* \"#utility.yul\":2523:2544   */\n      tag_159\n        /* \"#utility.yul\":2538:2543   */\n      dup2\n        /* \"#utility.yul\":2523:2544   */\n      tag_101\n      jump\t// in\n    tag_159:\n        /* \"#utility.yul\":2518:2521   */\n      dup3\n        /* \"#utility.yul\":2511:2545   */\n      mstore\n        /* \"#utility.yul\":2442:2551   */\n      pop\n      pop\n      jump\t// out\n        /* \"#utility.yul\":2557:2767   */\n    tag_29:\n        /* \"#utility.yul\":2644:2648   */\n      0x00\n        /* \"#utility.yul\":2682:2684   */\n      0x20\n        /* \"#utility.yul\":2671:2680   */\n      dup3\n        /* \"#utility.yul\":2667:2685   */\n      add\n        /* \"#utility.yul\":2659:2685   */\n      swap1\n      pop\n        /* \"#utility.yul\":2695:2760   */\n      tag_161\n        /* \"#utility.yul\":2757:2758   */\n      0x00\n        /* \"#utility.yul\":2746:2755   */\n      dup4\n        /* \"#utility.yul\":2742:2759   */\n      add\n        /* \"#utility.yul\":2733:2739   */\n      dup5\n        /* \"#utility.yul\":2695:2760   */\n      tag_107\n      jump\t// in\n    tag_161:\n        /* \"#utility.yul\":2557:2767   */\n      swap3\n      swap2\n      pop\n      pop\n      jump\t// out\n        /* \"#utility.yul\":2773:2895   */\n    tag_108:\n        /* \"#utility.yul\":2846:2870   */\n      tag_163\n        /* \"#utility.yul\":2864:2869   */\n      dup2\n        /* \"#utility.yul\":2846:2870   */\n      tag_105\n      jump\t// in\n    tag_163:\n        /* \"#utility.yul\":2839:2844   */\n      dup2\n        /* \"#utility.yul\":2836:2871   */\n      eq\n        /* \"#utility.yul\":2826:2889   */\n      tag_164\n      jumpi\n        /* \"#utility.yul\":2885:2886   */\n      0x00\n        /* \"#utility.yul\":2882:2883   */\n      dup1\n        /* \"#utility.yul\":2875:2887   */\n      revert\n        /* \"#utility.yul\":2826:2889   */\n    tag_164:\n        /* \"#utility.yul\":2773:2895   */\n      pop\n      jump\t// out\n        /* \"#utility.yul\":2901:3040   */\n    tag_109:\n        /* \"#utility.yul\":2947:2952   */\n      0x00\n        /* \"#utility.yul\":2985:2991   */\n      dup2\n        /* \"#utility.yul\":2972:2992   */\n      calldataload\n        /* \"#utility.yul\":2963:2992   */\n      swap1\n      pop\n        /* \"#utility.yul\":3001:3034   */\n      tag_166\n        /* \"#utility.yul\":3028:3033   */\n      dup2\n        /* \"#utility.yul\":3001:3034   */\n      tag_108\n      jump\t// in\n    tag_166:\n        /* \"#utility.yul\":2901:3040   */\n      swap3\n      swap2\n      pop\n      pop\n      jump\t// out\n        /* \"#utility.yul\":3046:3375   */\n    tag_37:\n        /* \"#utility.yul\":3105:3111   */\n      0x00\n        /* \"#utility.yul\":3154:3156   */\n      0x20\n        /* \"#utility.yul\":3142:3151   */\n      dup3\n        /* \"#utility.yul\":3133:3140   */\n      dup5\n        /* \"#utility.yul\":3129:3152   */\n      sub\n        /* \"#utility.yul\":3125:3157   */\n      slt\n        /* \"#utility.yul\":3122:3241   */\n      iszero\n      tag_168\n      jumpi\n        /* \"#utility.yul\":3160:3239   */\n      tag_169\n      tag_96\n      jump\t// in\n    tag_169:\n        /* \"#utility.yul\":3122:3241   */\n    tag_168:\n        /* \"#utility.yul\":3280:3281   */\n      0x00\n        /* \"#utility.yul\":3305:3358   */\n      tag_170\n        /* \"#utility.yul\":3350:3357   */\n      dup5\n        /* \"#utility.yul\":3341:3347   */\n      dup3\n        /* \"#utility.yul\":3330:3339   */\n      dup6\n        /* \"#utility.yul\":3326:3348   */\n      add\n        /* \"#utility.yul\":3305:3358   */\n      tag_109\n      jump\t// in\n    tag_170:\n        /* \"#utility.yul\":3295:3358   */\n      swap2\n      pop\n        /* \"#utility.yul\":3251:3368   */\n      pop\n        /* \"#utility.yul\":3046:3375   */\n      swap3\n      swap2\n      pop\n      pop\n      jump\t// out\n        /* \"#utility.yul\":3381:3498   */\n    tag_110:\n        /* \"#utility.yul\":3490:3491   */\n      0x00\n        /* \"#utility.yul\":3487:3488   */\n      dup1\n        /* \"#utility.yul\":3480:3492   */\n      revert\n        /* \"#utility.yul\":3504:3621   */\n    tag_111:\n        /* \"#utility.yul\":3613:3614   */\n      0x00\n        /* \"#utility.yul\":3610:3611   */\n      dup1\n        /* \"#utility.yul\":3603:3615   */\n      revert\n        /* \"#utility.yul\":3627:3729   */\n    tag_112:\n        /* \"#utility.yul\":3668:3674   */\n      0x00\n        /* \"#utility.yul\":3719:3721   */\n      0x1f\n        /* \"#utility.yul\":3715:3722   */\n      not\n        /* \"#utility.yul\":3710:3712   */\n      0x1f\n        /* \"#utility.yul\":3703:3708   */\n      dup4\n        /* \"#utility.yul\":3699:3713   */\n      add\n        /* \"#utility.yul\":3695:3723   */\n      and\n        /* \"#utility.yul\":3685:3723   */\n      swap1\n      pop\n        /* \"#utility.yul\":3627:3729   */\n      swap2\n      swap1\n      pop\n      jump\t// out\n        /* \"#utility.yul\":3735:3915   */\n    tag_113:\n        /* \"#utility.yul\":3783:3860   */\n      0x4e487b7100000000000000000000000000000000000000000000000000000000\n        /* \"#utility.yul\":3780:3781   */\n      0x00\n        /* \"#utility.yul\":3773:3861   */\n      mstore\n        /* \"#utility.yul\":3880:3884   */\n      0x41\n        /* \"#utility.yul\":3877:3878   */\n      0x04\n        /* \"#utility.yul\":3870:3885   */\n      mstore\n        /* \"#utility.yul\":3904:3908   */\n      0x24\n        /* \"#utility.yul\":3901:3902   */\n      0x00\n        /* \"#utility.yul\":3894:3909   */\n      revert\n        /* \"#utility.yul\":3921:4202   */\n    tag_114:\n        /* \"#utility.yul\":4004:4031   */\n      tag_176\n        /* \"#utility.yul\":4026:4030   */\n      dup3\n        /* \"#utility.yul\":4004:4031   */\n      tag_112\n      jump\t// in\n    tag_176:\n        /* \"#utility.yul\":3996:4002   */\n      dup2\n        /* \"#utility.yul\":3992:4032   */\n      add\n        /* \"#utility.yul\":4134:4140   */\n      dup2\n        /* \"#utility.yul\":4122:4132   */\n      dup2\n        /* \"#utility.yul\":4119:4141   */\n      lt\n        /* \"#utility.yul\":4098:4116   */\n      0xffffffffffffffff\n        /* \"#utility.yul\":4086:4096   */\n      dup3\n        /* \"#utility.yul\":4083:4117   */\n      gt\n        /* \"#utility.yul\":4080:4142   */\n      or\n        /* \"#utility.yul\":4077:4165   */\n      iszero\n      tag_177\n      jumpi\n        /* \"#utility.yul\":4145:4163   */\n      tag_178\n      tag_113\n      jump\t// in\n    tag_178:\n        /* \"#utility.yul\":4077:4165   */\n    tag_177:\n        /* \"#utility.yul\":4185:4195   */\n      dup1\n        /* \"#utility.yul\":4181:4183   */\n      0x40\n        /* \"#utility.yul\":4174:4196   */\n      mstore\n        /* \"#utility.yul\":3964:4202   */\n      pop\n        /* \"#utility.yul\":3921:4202   */\n      pop\n      pop\n      jump\t// out\n        /* \"#utility.yul\":4208:4337   */\n    tag_115:\n        /* \"#utility.yul\":4242:4248   */\n      0x00\n        /* \"#utility.yul\":4269:4289   */\n      tag_180\n      tag_95\n      jump\t// in\n    tag_180:\n        /* \"#utility.yul\":4259:4289   */\n      swap1\n      pop\n        /* \"#utility.yul\":4298:4331   */\n      tag_181\n        /* \"#utility.yul\":4326:4330   */\n      dup3\n        /* \"#utility.yul\":4318:4324   */\n      dup3\n        /* \"#utility.yul\":4298:4331   */\n      tag_114\n      jump\t// in\n    tag_181:\n        /* \"#utility.yul\":4208:4337   */\n      swap2\n      swap1\n      pop\n      jump\t// out\n        /* \"#utility.yul\":4343:4651   */\n    tag_116:\n        /* \"#utility.yul\":4405:4409   */\n      0x00\n        /* \"#utility.yul\":4495:4513   */\n      0xffffffffffffffff\n        /* \"#utility.yul\":4487:4493   */\n      dup3\n        /* \"#utility.yul\":4484:4514   */\n      gt\n        /* \"#utility.yul\":4481:4537   */\n      iszero\n      tag_183\n      jumpi\n        /* \"#utility.yul\":4517:4535   */\n      tag_184\n      tag_113\n      jump\t// in\n    tag_184:\n        /* \"#utility.yul\":4481:4537   */\n    tag_183:\n        /* \"#utility.yul\":4555:4584   */\n      tag_185\n        /* \"#utility.yul\":4577:4583   */\n      dup3\n        /* \"#utility.yul\":4555:4584   */\n      tag_112\n      jump\t// in\n    tag_185:\n        /* \"#utility.yul\":4547:4584   */\n      swap1\n      pop\n        /* \"#utility.yul\":4639:4643   */\n      0x20\n        /* \"#utility.yul\":4633:4637   */\n      dup2\n        /* \"#utility.yul\":4629:4644   */\n      add\n        /* \"#utility.yul\":4621:4644   */\n      swap1\n      pop\n        /* \"#utility.yul\":4343:4651   */\n      swap2\n      swap1\n      pop\n      jump\t// out\n        /* \"#utility.yul\":4657:4811   */\n    tag_117:\n        /* \"#utility.yul\":4741:4747   */\n      dup3\n        /* \"#utility.yul\":4736:4739   */\n      dup2\n        /* \"#utility.yul\":4731:4734   */\n      dup4\n        /* \"#utility.yul\":4718:4748   */\n      calldatacopy\n        /* \"#utility.yul\":4803:4804   */\n      0x00\n        /* \"#utility.yul\":4794:4800   */\n      dup4\n        /* \"#utility.yul\":4789:4792   */\n      dup4\n        /* \"#utility.yul\":4785:4801   */\n      add\n        /* \"#utility.yul\":4778:4805   */\n      mstore\n        /* \"#utility.yul\":4657:4811   */\n      pop\n      pop\n      pop\n      jump\t// out\n        /* \"#utility.yul\":4817:5229   */\n    tag_118:\n        /* \"#utility.yul\":4895:4900   */\n      0x00\n        /* \"#utility.yul\":4920:4986   */\n      tag_188\n        /* \"#utility.yul\":4936:4985   */\n      tag_189\n        /* \"#utility.yul\":4978:4984   */\n      dup5\n        /* \"#utility.yul\":4936:4985   */\n      tag_116\n      jump\t// in\n    tag_189:\n        /* \"#utility.yul\":4920:4986   */\n      tag_115\n      jump\t// in\n    tag_188:\n        /* \"#utility.yul\":4911:4986   */\n      swap1\n      pop\n        /* \"#utility.yul\":5009:5015   */\n      dup3\n        /* \"#utility.yul\":5002:5007   */\n      dup2\n        /* \"#utility.yul\":4995:5016   */\n      mstore\n        /* \"#utility.yul\":5047:5051   */\n      0x20\n        /* \"#utility.yul\":5040:5045   */\n      dup2\n        /* \"#utility.yul\":5036:5052   */\n      add\n        /* \"#utility.yul\":5085:5088   */\n      dup5\n        /* \"#utility.yul\":5076:5082   */\n      dup5\n        /* \"#utility.yul\":5071:5074   */\n      dup5\n        /* \"#utility.yul\":5067:5083   */\n      add\n        /* \"#utility.yul\":5064:5089   */\n      gt\n        /* \"#utility.yul\":5061:5173   */\n      iszero\n      tag_190\n      jumpi\n        /* \"#utility.yul\":5092:5171   */\n      tag_191\n      tag_111\n      jump\t// in\n    tag_191:\n        /* \"#utility.yul\":5061:5173   */\n    tag_190:\n        /* \"#utility.yul\":5182:5223   */\n      tag_192\n        /* \"#utility.yul\":5216:5222   */\n      dup5\n        /* \"#utility.yul\":5211:5214   */\n      dup3\n        /* \"#utility.yul\":5206:5209   */\n      dup6\n        /* \"#utility.yul\":5182:5223   */\n      tag_117\n      jump\t// in\n    tag_192:\n        /* \"#utility.yul\":4901:5229   */\n      pop\n        /* \"#utility.yul\":4817:5229   */\n      swap4\n      swap3\n      pop\n      pop\n      pop\n      jump\t// out\n        /* \"#utility.yul\":5249:5589   */\n    tag_119:\n        /* \"#utility.yul\":5305:5310   */\n      0x00\n        /* \"#utility.yul\":5354:5357   */\n      dup3\n        /* \"#utility.yul\":5347:5351   */\n      0x1f\n        /* \"#utility.yul\":5339:5345   */\n      dup4\n        /* \"#utility.yul\":5335:5352   */\n      add\n        /* \"#utility.yul\":5331:5358   */\n      slt\n        /* \"#utility.yul\":5321:5443   */\n      tag_194\n      jumpi\n        /* \"#utility.yul\":5362:5441   */\n      tag_195\n      tag_110\n      jump\t// in\n    tag_195:\n        /* \"#utility.yul\":5321:5443   */\n    tag_194:\n        /* \"#utility.yul\":5479:5485   */\n      dup2\n        /* \"#utility.yul\":5466:5486   */\n      calldataload\n        /* \"#utility.yul\":5504:5583   */\n      tag_196\n        /* \"#utility.yul\":5579:5582   */\n      dup5\n        /* \"#utility.yul\":5571:5577   */\n      dup3\n        /* \"#utility.yul\":5564:5568   */\n      0x20\n        /* \"#utility.yul\":5556:5562   */\n      dup7\n        /* \"#utility.yul\":5552:5569   */\n      add\n        /* \"#utility.yul\":5504:5583   */\n      tag_118\n      jump\t// in\n    tag_196:\n        /* \"#utility.yul\":5495:5583   */\n      swap2\n      pop\n        /* \"#utility.yul\":5311:5589   */\n      pop\n        /* \"#utility.yul\":5249:5589   */\n      swap3\n      swap2\n      pop\n      pop\n      jump\t// out\n        /* \"#utility.yul\":5595:6249   */\n    tag_41:\n        /* \"#utility.yul\":5673:5679   */\n      0x00\n        /* \"#utility.yul\":5681:5687   */\n      dup1\n        /* \"#utility.yul\":5730:5732   */\n      0x40\n        /* \"#utility.yul\":5718:5727   */\n      dup4\n        /* \"#utility.yul\":5709:5716   */\n      dup6\n        /* \"#utility.yul\":5705:5728   */\n      sub\n        /* \"#utility.yul\":5701:5733   */\n      slt\n        /* \"#utility.yul\":5698:5817   */\n      iszero\n      tag_198\n      jumpi\n        /* \"#utility.yul\":5736:5815   */\n      tag_199\n      tag_96\n      jump\t// in\n    tag_199:\n        /* \"#utility.yul\":5698:5817   */\n    tag_198:\n        /* \"#utility.yul\":5856:5857   */\n      0x00\n        /* \"#utility.yul\":5881:5934   */\n      tag_200\n        /* \"#utility.yul\":5926:5933   */\n      dup6\n        /* \"#utility.yul\":5917:5923   */\n      dup3\n        /* \"#utility.yul\":5906:5915   */\n      dup7\n        /* \"#utility.yul\":5902:5924   */\n      add\n        /* \"#utility.yul\":5881:5934   */\n      tag_100\n      jump\t// in\n    tag_200:\n        /* \"#utility.yul\":5871:5934   */\n      swap3\n      pop\n        /* \"#utility.yul\":5827:5944   */\n      pop\n        /* \"#utility.yul\":6011:6013   */\n      0x20\n        /* \"#utility.yul\":6000:6009   */\n      dup4\n        /* \"#utility.yul\":5996:6014   */\n      add\n        /* \"#utility.yul\":5983:6015   */\n      calldataload\n        /* \"#utility.yul\":6042:6060   */\n      0xffffffffffffffff\n        /* \"#utility.yul\":6034:6040   */\n      dup2\n        /* \"#utility.yul\":6031:6061   */\n      gt\n        /* \"#utility.yul\":6028:6145   */\n      iszero\n      tag_201\n      jumpi\n        /* \"#utility.yul\":6064:6143   */\n      tag_202\n      tag_97\n      jump\t// in\n    tag_202:\n        /* \"#utility.yul\":6028:6145   */\n    tag_201:\n        /* \"#utility.yul\":6169:6232   */\n      tag_203\n        /* \"#utility.yul\":6224:6231   */\n      dup6\n        /* \"#utility.yul\":6215:6221   */\n      dup3\n        /* \"#utility.yul\":6204:6213   */\n      dup7\n        /* \"#utility.yul\":6200:6222   */\n      add\n        /* \"#utility.yul\":6169:6232   */\n      tag_119\n      jump\t// in\n    tag_203:\n        /* \"#utility.yul\":6159:6232   */\n      swap2\n      pop\n        /* \"#utility.yul\":5954:6242   */\n      pop\n        /* \"#utility.yul\":5595:6249   */\n      swap3\n      pop\n      swap3\n      swap1\n      pop\n      jump\t// out\n        /* \"#utility.yul\":6255:6424   */\n    tag_120:\n        /* \"#utility.yul\":6339:6350   */\n      0x00\n        /* \"#utility.yul\":6373:6379   */\n      dup3\n        /* \"#utility.yul\":6368:6371   */\n      dup3\n        /* \"#utility.yul\":6361:6380   */\n      mstore\n        /* \"#utility.yul\":6413:6417   */\n      0x20\n        /* \"#utility.yul\":6408:6411   */\n      dup3\n        /* \"#utility.yul\":6404:6418   */\n      add\n        /* \"#utility.yul\":6389:6418   */\n      swap1\n      pop\n        /* \"#utility.yul\":6255:6424   */\n      swap3\n      swap2\n      pop\n      pop\n      jump\t// out\n        /* \"#utility.yul\":6430:6612   */\n    tag_121:\n        /* \"#utility.yul\":6570:6604   */\n      0x4f776e61626c653a2063616c6c6572206973206e6f7420746865206f776e6572\n        /* \"#utility.yul\":6566:6567   */\n      0x00\n        /* \"#utility.yul\":6558:6564   */\n      dup3\n        /* \"#utility.yul\":6554:6568   */\n      add\n        /* \"#utility.yul\":6547:6605   */\n      mstore\n        /* \"#utility.yul\":6430:6612   */\n      pop\n      jump\t// out\n        /* \"#utility.yul\":6618:6984   */\n    tag_122:\n        /* \"#utility.yul\":6760:6763   */\n      0x00\n        /* \"#utility.yul\":6781:6848   */\n      tag_207\n        /* \"#utility.yul\":6845:6847   */\n      0x20\n        /* \"#utility.yul\":6840:6843   */\n      dup4\n        /* \"#utility.yul\":6781:6848   */\n      tag_120\n      jump\t// in\n    tag_207:\n        /* \"#utility.yul\":6774:6848   */\n      swap2\n      pop\n        /* \"#utility.yul\":6857:6950   */\n      tag_208\n        /* \"#utility.yul\":6946:6949   */\n      dup3\n        /* \"#utility.yul\":6857:6950   */\n      tag_121\n      jump\t// in\n    tag_208:\n        /* \"#utility.yul\":6975:6977   */\n      0x20\n        /* \"#utility.yul\":6970:6973   */\n      dup3\n        /* \"#utility.yul\":6966:6978   */\n      add\n        /* \"#utility.yul\":6959:6978   */\n      swap1\n      pop\n        /* \"#utility.yul\":6618:6984   */\n      swap2\n      swap1\n      pop\n      jump\t// out\n        /* \"#utility.yul\":6990:7409   */\n    tag_49:\n        /* \"#utility.yul\":7156:7160   */\n      0x00\n        /* \"#utility.yul\":7194:7196   */\n      0x20\n        /* \"#utility.yul\":7183:7192   */\n      dup3\n        /* \"#utility.yul\":7179:7197   */\n      add\n        /* \"#utility.yul\":7171:7197   */\n      swap1\n      pop\n        /* \"#utility.yul\":7243:7252   */\n      dup2\n        /* \"#utility.yul\":7237:7241   */\n      dup2\n        /* \"#utility.yul\":7233:7253   */\n      sub\n        /* \"#utility.yul\":7229:7230   */\n      0x00\n        /* \"#utility.yul\":7218:7227   */\n      dup4\n        /* \"#utility.yul\":7214:7231   */\n      add\n        /* \"#utility.yul\":7207:7254   */\n      mstore\n        /* \"#utility.yul\":7271:7402   */\n      tag_210\n        /* \"#utility.yul\":7397:7401   */\n      dup2\n        /* \"#utility.yul\":7271:7402   */\n      tag_122\n      jump\t// in\n    tag_210:\n        /* \"#utility.yul\":7263:7402   */\n      swap1\n      pop\n        /* \"#utility.yul\":6990:7409   */\n      swap2\n      swap1\n      pop\n      jump\t// out\n        /* \"#utility.yul\":7415:7640   */\n    tag_123:\n        /* \"#utility.yul\":7555:7589   */\n      0x4f776e61626c653a206e6577206f776e657220697320746865207a65726f2061\n        /* \"#utility.yul\":7551:7552   */\n      0x00\n        /* \"#utility.yul\":7543:7549   */\n      dup3\n        /* \"#utility.yul\":7539:7553   */\n      add\n        /* \"#utility.yul\":7532:7590   */\n      mstore\n        /* \"#utility.yul\":7624:7632   */\n      0x6464726573730000000000000000000000000000000000000000000000000000\n        /* \"#utility.yul\":7619:7621   */\n      0x20\n        /* \"#utility.yul\":7611:7617   */\n      dup3\n        /* \"#utility.yul\":7607:7622   */\n      add\n        /* \"#utility.yul\":7600:7633   */\n      mstore\n        /* \"#utility.yul\":7415:7640   */\n      pop\n      jump\t// out\n        /* \"#utility.yul\":7646:8012   */\n    tag_124:\n        /* \"#utility.yul\":7788:7791   */\n      0x00\n        /* \"#utility.yul\":7809:7876   */\n      tag_213\n        /* \"#utility.yul\":7873:7875   */\n      0x26\n        /* \"#utility.yul\":7868:7871   */\n      dup4\n        /* \"#utility.yul\":7809:7876   */\n      tag_120\n      jump\t// in\n    tag_213:\n        /* \"#utility.yul\":7802:7876   */\n      swap2\n      pop\n        /* \"#utility.yul\":7885:7978   */\n      tag_214\n        /* \"#utility.yul\":7974:7977   */\n      dup3\n        /* \"#utility.yul\":7885:7978   */\n      tag_123\n      jump\t// in\n    tag_214:\n        /* \"#utility.yul\":8003:8005   */\n      0x40\n        /* \"#utility.yul\":7998:8001   */\n      dup3\n        /* \"#utility.yul\":7994:8006   */\n      add\n        /* \"#utility.yul\":7987:8006   */\n      swap1\n      pop\n        /* \"#utility.yul\":7646:8012   */\n      swap2\n      swap1\n      pop\n      jump\t// out\n        /* \"#utility.yul\":8018:8437   */\n    tag_71:\n        /* \"#utility.yul\":8184:8188   */\n      0x00\n        /* \"#utility.yul\":8222:8224   */\n      0x20\n        /* \"#utility.yul\":8211:8220   */\n      dup3\n        /* \"#utility.yul\":8207:8225   */\n      add\n        /* \"#utility.yul\":8199:8225   */\n      swap1\n      pop\n        /* \"#utility.yul\":8271:8280   */\n      dup2\n        /* \"#utility.yul\":8265:8269   */\n      dup2\n        /* \"#utility.yul\":8261:8281   */\n      sub\n        /* \"#utility.yul\":8257:8258   */\n      0x00\n        /* \"#utility.yul\":8246:8255   */\n      dup4\n        /* \"#utility.yul\":8242:8259   */\n      add\n        /* \"#utility.yul\":8235:8282   */\n      mstore\n        /* \"#utility.yul\":8299:8430   */\n      tag_216\n        /* \"#utility.yul\":8425:8429   */\n      dup2\n        /* \"#utility.yul\":8299:8430   */\n      tag_124\n      jump\t// in\n    tag_216:\n        /* \"#utility.yul\":8291:8430   */\n      swap1\n      pop\n        /* \"#utility.yul\":8018:8437   */\n      swap2\n      swap1\n      pop\n      jump\t// out\n        /* \"#utility.yul\":8443:8623   */\n    tag_78:\n        /* \"#utility.yul\":8491:8568   */\n      0x4e487b7100000000000000000000000000000000000000000000000000000000\n        /* \"#utility.yul\":8488:8489   */\n      0x00\n        /* \"#utility.yul\":8481:8569   */\n      mstore\n        /* \"#utility.yul\":8588:8592   */\n      0x32\n        /* \"#utility.yul\":8585:8586   */\n      0x04\n        /* \"#utility.yul\":8578:8593   */\n      mstore\n        /* \"#utility.yul\":8612:8616   */\n      0x24\n        /* \"#utility.yul\":8609:8610   */\n      0x00\n        /* \"#utility.yul\":8602:8617   */\n      revert\n        /* \"#utility.yul\":8629:8809   */\n    tag_125:\n        /* \"#utility.yul\":8677:8754   */\n      0x4e487b7100000000000000000000000000000000000000000000000000000000\n        /* \"#utility.yul\":8674:8675   */\n      0x00\n        /* \"#utility.yul\":8667:8755   */\n      mstore\n        /* \"#utility.yul\":8774:8778   */\n      0x22\n        /* \"#utility.yul\":8771:8772   */\n      0x04\n        /* \"#utility.yul\":8764:8779   */\n      mstore\n        /* \"#utility.yul\":8798:8802   */\n      0x24\n        /* \"#utility.yul\":8795:8796   */\n      0x00\n        /* \"#utility.yul\":8788:8803   */\n      revert\n        /* \"#utility.yul\":8815:9135   */\n    tag_85:\n        /* \"#utility.yul\":8859:8865   */\n      0x00\n        /* \"#utility.yul\":8896:8897   */\n      0x02\n        /* \"#utility.yul\":8890:8894   */\n      dup3\n        /* \"#utility.yul\":8886:8898   */\n      div\n        /* \"#utility.yul\":8876:8898   */\n      swap1\n      pop\n        /* \"#utility.yul\":8943:8944   */\n      0x01\n        /* \"#utility.yul\":8937:8941   */\n      dup3\n        /* \"#utility.yul\":8933:8945   */\n      and\n        /* \"#utility.yul\":8964:8982   */\n      dup1\n        /* \"#utility.yul\":8954:9035   */\n      tag_220\n      jumpi\n        /* \"#utility.yul\":9020:9024   */\n      0x7f\n        /* \"#utility.yul\":9012:9018   */\n      dup3\n        /* \"#utility.yul\":9008:9025   */\n      and\n        /* \"#utility.yul\":8998:9025   */\n      swap2\n      pop\n        /* \"#utility.yul\":8954:9035   */\n    tag_220:\n        /* \"#utility.yul\":9082:9084   */\n      0x20\n        /* \"#utility.yul\":9074:9080   */\n      dup3\n        /* \"#utility.yul\":9071:9085   */\n      lt\n        /* \"#utility.yul\":9051:9069   */\n      dup2\n        /* \"#utility.yul\":9048:9086   */\n      sub\n        /* \"#utility.yul\":9045:9129   */\n      tag_221\n      jumpi\n        /* \"#utility.yul\":9101:9119   */\n      tag_222\n      tag_125\n      jump\t// in\n    tag_222:\n        /* \"#utility.yul\":9045:9129   */\n    tag_221:\n        /* \"#utility.yul\":8866:9135   */\n      pop\n        /* \"#utility.yul\":8815:9135   */\n      swap2\n      swap1\n      pop\n      jump\t// out\n\n    auxdata: 0xa26469706673582212206597fd465eb1feb5431946d75577e5e8e0f6734cac0ce2197a1b03efc1fe7c5d64736f6c634300080e0033\n}\n",
				"bytecode": {
					"linkReferences": {},
					"object": "608060405234801561001057600080fd5b5061002d61002261003260201b60201c565b61003a60201b60201c565b6100fe565b600033905090565b60008060009054906101000a900473ffffffffffffffffffffffffffffffffffffffff169050816000806101000a81548173ffffffffffffffffffffffffffffffffffffffff021916908373ffffffffffffffffffffffffffffffffffffffff1602179055508173ffffffffffffffffffffffffffffffffffffffff168173ffffffffffffffffffffffffffffffffffffffff167f8be0079c531659141344cd1fd0a4f28419497f9722a3daafe3b4186f6b6457e060405160405180910390a35050565b610c258061010d6000396000f3fe608060405234801561001057600080fd5b50600436106100885760003560e01c8063715018a61161005b578063715018a6146101255780638da5cb5b1461012f578063f2fde38b1461014d578063fbb3b6ce1461016957610088565b80631d3f75591461008d578063377def85146100a9578063400ae0f9146100c557806351a1d40e146100f5575b600080fd5b6100a760048036038101906100a29190610763565b610185565b005b6100c360048036038101906100be9190610763565b610230565b005b6100df60048036038101906100da91906107a3565b6102cc565b6040516100ec9190610811565b60405180910390f35b61010f600480360381019061010a91906107a3565b6102ff565b60405161011c919061083b565b60405180910390f35b61012d61031f565b005b6101376103a7565b6040516101449190610811565b60405180910390f35b61016760048036038101906101629190610882565b6103d0565b005b610183600480360381019061017e91906109f5565b6104c7565b005b61018d610572565b73ffffffffffffffffffffffffffffffffffffffff166101ab6103a7565b73ffffffffffffffffffffffffffffffffffffffff1614610201576040517f08c379a00000000000000000000000000000000000000000000000000000000081526004016101f890610aae565b60405180910390fd5b806002600084815260200190815260200160002060006101000a81548160ff0219169083151502179055505050565b813373ffffffffffffffffffffffffffffffffffffffff166004600083815260200190815260200160002060009054906101000a900473ffffffffffffffffffffffffffffffffffffffff1673ffffffffffffffffffffffffffffffffffffffff161461029c57600080fd5b816002600085815260200190815260200160002060006101000a81548160ff021916908315150217905550505050565b60046020528060005260406000206000915054906101000a900473ffffffffffffffffffffffffffffffffffffffff1681565b60026020528060005260406000206000915054906101000a900460ff1681565b610327610572565b73ffffffffffffffffffffffffffffffffffffffff166103456103a7565b73ffffffffffffffffffffffffffffffffffffffff161461039b576040517f08c379a000000000000000000000000000000000000000000000000000000000815260040161039290610aae565b60405180910390fd5b6103a5600061057a565b565b60008060009054906101000a900473ffffffffffffffffffffffffffffffffffffffff16905090565b6103d8610572565b73ffffffffffffffffffffffffffffffffffffffff166103f66103a7565b73ffffffffffffffffffffffffffffffffffffffff161461044c576040517f08c379a000000000000000000000000000000000000000000000000000000000815260040161044390610aae565b60405180910390fd5b600073ffffffffffffffffffffffffffffffffffffffff168173ffffffffffffffffffffffffffffffffffffffff16036104bb576040517f08c379a00000000000000000000000000000000000000000000000000000000081526004016104b290610b40565b60405180910390fd5b6104c48161057a565b50565b813373ffffffffffffffffffffffffffffffffffffffff166004600083815260200190815260200160002060009054906101000a900473ffffffffffffffffffffffffffffffffffffffff1673ffffffffffffffffffffffffffffffffffffffff161461053357600080fd5b816001848154811061054857610547610b60565b5b9060005260206000209060090201600501908051906020019061056c92919061063e565b50505050565b600033905090565b60008060009054906101000a900473ffffffffffffffffffffffffffffffffffffffff169050816000806101000a81548173ffffffffffffffffffffffffffffffffffffffff021916908373ffffffffffffffffffffffffffffffffffffffff1602179055508173ffffffffffffffffffffffffffffffffffffffff168173ffffffffffffffffffffffffffffffffffffffff167f8be0079c531659141344cd1fd0a4f28419497f9722a3daafe3b4186f6b6457e060405160405180910390a35050565b82805461064a90610bbe565b90600052602060002090601f01602090048101928261066c57600085556106b3565b82601f1061068557805160ff19168380011785556106b3565b828001600101855582156106b3579182015b828111156106b2578251825591602001919060010190610697565b5b5090506106c091906106c4565b5090565b5b808211156106dd5760008160009055506001016106c5565b5090565b6000604051905090565b600080fd5b600080fd5b6000819050919050565b610708816106f5565b811461071357600080fd5b50565b600081359050610725816106ff565b92915050565b60008115159050919050565b6107408161072b565b811461074b57600080fd5b50565b60008135905061075d81610737565b92915050565b6000806040838503121561077a576107796106eb565b5b600061078885828601610716565b92505060206107998582860161074e565b9150509250929050565b6000602082840312156107b9576107b86106eb565b5b60006107c784828501610716565b91505092915050565b600073ffffffffffffffffffffffffffffffffffffffff82169050919050565b60006107fb826107d0565b9050919050565b61080b816107f0565b82525050565b60006020820190506108266000830184610802565b92915050565b6108358161072b565b82525050565b6000602082019050610850600083018461082c565b92915050565b61085f816107f0565b811461086a57600080fd5b50565b60008135905061087c81610856565b92915050565b600060208284031215610898576108976106eb565b5b60006108a68482850161086d565b91505092915050565b600080fd5b600080fd5b6000601f19601f8301169050919050565b7f4e487b7100000000000000000000000000000000000000000000000000000000600052604160045260246000fd5b610902826108b9565b810181811067ffffffffffffffff82111715610921576109206108ca565b5b80604052505050565b60006109346106e1565b905061094082826108f9565b919050565b600067ffffffffffffffff8211156109605761095f6108ca565b5b610969826108b9565b9050602081019050919050565b82818337600083830152505050565b600061099861099384610945565b61092a565b9050828152602081018484840111156109b4576109b36108b4565b5b6109bf848285610976565b509392505050565b600082601f8301126109dc576109db6108af565b5b81356109ec848260208601610985565b91505092915050565b60008060408385031215610a0c57610a0b6106eb565b5b6000610a1a85828601610716565b925050602083013567ffffffffffffffff811115610a3b57610a3a6106f0565b5b610a47858286016109c7565b9150509250929050565b600082825260208201905092915050565b7f4f776e61626c653a2063616c6c6572206973206e6f7420746865206f776e6572600082015250565b6000610a98602083610a51565b9150610aa382610a62565b602082019050919050565b60006020820190508181036000830152610ac781610a8b565b9050919050565b7f4f776e61626c653a206e6577206f776e657220697320746865207a65726f206160008201527f6464726573730000000000000000000000000000000000000000000000000000602082015250565b6000610b2a602683610a51565b9150610b3582610ace565b604082019050919050565b60006020820190508181036000830152610b5981610b1d565b9050919050565b7f4e487b7100000000000000000000000000000000000000000000000000000000600052603260045260246000fd5b7f4e487b7100000000000000000000000000000000000000000000000000000000600052602260045260246000fd5b60006002820490506001821680610bd657607f821691505b602082108103610be957610be8610b8f565b5b5091905056fea26469706673582212206597fd465eb1feb5431946d75577e5e8e0f6734cac0ce2197a1b03efc1fe7c5d64736f6c634300080e0033",
					"opcodes": "PUSH1 0x80 PUSH1 0x40 MSTORE CALLVALUE DUP1 ISZERO PUSH2 0x10 JUMPI PUSH1 0x0 DUP1 REVERT JUMPDEST POP PUSH2 0x2D PUSH2 0x22 PUSH2 0x32 PUSH1 0x20 SHL PUSH1 0x20 SHR JUMP JUMPDEST PUSH2 0x3A PUSH1 0x20 SHL PUSH1 0x20 SHR JUMP JUMPDEST PUSH2 0xFE JUMP JUMPDEST PUSH1 0x0 CALLER SWAP1 POP SWAP1 JUMP JUMPDEST PUSH1 0x0 DUP1 PUSH1 0x0 SWAP1 SLOAD SWAP1 PUSH2 0x100 EXP SWAP1 DIV PUSH20 0xFFFFFFFFFFFFFFFFFFFFFFFFFFFFFFFFFFFFFFFF AND SWAP1 POP DUP2 PUSH1 0x0 DUP1 PUSH2 0x100 EXP DUP2 SLOAD DUP2 PUSH20 0xFFFFFFFFFFFFFFFFFFFFFFFFFFFFFFFFFFFFFFFF MUL NOT AND SWAP1 DUP4 PUSH20 0xFFFFFFFFFFFFFFFFFFFFFFFFFFFFFFFFFFFFFFFF AND MUL OR SWAP1 SSTORE POP DUP2 PUSH20 0xFFFFFFFFFFFFFFFFFFFFFFFFFFFFFFFFFFFFFFFF AND DUP2 PUSH20 0xFFFFFFFFFFFFFFFFFFFFFFFFFFFFFFFFFFFFFFFF AND PUSH32 0x8BE0079C531659141344CD1FD0A4F28419497F9722A3DAAFE3B4186F6B6457E0 PUSH1 0x40 MLOAD PUSH1 0x40 MLOAD DUP1 SWAP2 SUB SWAP1 LOG3 POP POP JUMP JUMPDEST PUSH2 0xC25 DUP1 PUSH2 0x10D PUSH1 0x0 CODECOPY PUSH1 0x0 RETURN INVALID PUSH1 0x80 PUSH1 0x40 MSTORE CALLVALUE DUP1 ISZERO PUSH2 0x10 JUMPI PUSH1 0x0 DUP1 REVERT JUMPDEST POP PUSH1 0x4 CALLDATASIZE LT PUSH2 0x88 JUMPI PUSH1 0x0 CALLDATALOAD PUSH1 0xE0 SHR DUP1 PUSH4 0x715018A6 GT PUSH2 0x5B JUMPI DUP1 PUSH4 0x715018A6 EQ PUSH2 0x125 JUMPI DUP1 PUSH4 0x8DA5CB5B EQ PUSH2 0x12F JUMPI DUP1 PUSH4 0xF2FDE38B EQ PUSH2 0x14D JUMPI DUP1 PUSH4 0xFBB3B6CE EQ PUSH2 0x169 JUMPI PUSH2 0x88 JUMP JUMPDEST DUP1 PUSH4 0x1D3F7559 EQ PUSH2 0x8D JUMPI DUP1 PUSH4 0x377DEF85 EQ PUSH2 0xA9 JUMPI DUP1 PUSH4 0x400AE0F9 EQ PUSH2 0xC5 JUMPI DUP1 PUSH4 0x51A1D40E EQ PUSH2 0xF5 JUMPI JUMPDEST PUSH1 0x0 DUP1 REVERT JUMPDEST PUSH2 0xA7 PUSH1 0x4 DUP1 CALLDATASIZE SUB DUP2 ADD SWAP1 PUSH2 0xA2 SWAP2 SWAP1 PUSH2 0x763 JUMP JUMPDEST PUSH2 0x185 JUMP JUMPDEST STOP JUMPDEST PUSH2 0xC3 PUSH1 0x4 DUP1 CALLDATASIZE SUB DUP2 ADD SWAP1 PUSH2 0xBE SWAP2 SWAP1 PUSH2 0x763 JUMP JUMPDEST PUSH2 0x230 JUMP JUMPDEST STOP JUMPDEST PUSH2 0xDF PUSH1 0x4 DUP1 CALLDATASIZE SUB DUP2 ADD SWAP1 PUSH2 0xDA SWAP2 SWAP1 PUSH2 0x7A3 JUMP JUMPDEST PUSH2 0x2CC JUMP JUMPDEST PUSH1 0x40 MLOAD PUSH2 0xEC SWAP2 SWAP1 PUSH2 0x811 JUMP JUMPDEST PUSH1 0x40 MLOAD DUP1 SWAP2 SUB SWAP1 RETURN JUMPDEST PUSH2 0x10F PUSH1 0x4 DUP1 CALLDATASIZE SUB DUP2 ADD SWAP1 PUSH2 0x10A SWAP2 SWAP1 PUSH2 0x7A3 JUMP JUMPDEST PUSH2 0x2FF JUMP JUMPDEST PUSH1 0x40 MLOAD PUSH2 0x11C SWAP2 SWAP1 PUSH2 0x83B JUMP JUMPDEST PUSH1 0x40 MLOAD DUP1 SWAP2 SUB SWAP1 RETURN JUMPDEST PUSH2 0x12D PUSH2 0x31F JUMP JUMPDEST STOP JUMPDEST PUSH2 0x137 PUSH2 0x3A7 JUMP JUMPDEST PUSH1 0x40 MLOAD PUSH2 0x144 SWAP2 SWAP1 PUSH2 0x811 JUMP JUMPDEST PUSH1 0x40 MLOAD DUP1 SWAP2 SUB SWAP1 RETURN JUMPDEST PUSH2 0x167 PUSH1 0x4 DUP1 CALLDATASIZE SUB DUP2 ADD SWAP1 PUSH2 0x162 SWAP2 SWAP1 PUSH2 0x882 JUMP JUMPDEST PUSH2 0x3D0 JUMP JUMPDEST STOP JUMPDEST PUSH2 0x183 PUSH1 0x4 DUP1 CALLDATASIZE SUB DUP2 ADD SWAP1 PUSH2 0x17E SWAP2 SWAP1 PUSH2 0x9F5 JUMP JUMPDEST PUSH2 0x4C7 JUMP JUMPDEST STOP JUMPDEST PUSH2 0x18D PUSH2 0x572 JUMP JUMPDEST PUSH20 0xFFFFFFFFFFFFFFFFFFFFFFFFFFFFFFFFFFFFFFFF AND PUSH2 0x1AB PUSH2 0x3A7 JUMP JUMPDEST PUSH20 0xFFFFFFFFFFFFFFFFFFFFFFFFFFFFFFFFFFFFFFFF AND EQ PUSH2 0x201 JUMPI PUSH1 0x40 MLOAD PUSH32 0x8C379A000000000000000000000000000000000000000000000000000000000 DUP2 MSTORE PUSH1 0x4 ADD PUSH2 0x1F8 SWAP1 PUSH2 0xAAE JUMP JUMPDEST PUSH1 0x40 MLOAD DUP1 SWAP2 SUB SWAP1 REVERT JUMPDEST DUP1 PUSH1 0x2 PUSH1 0x0 DUP5 DUP2 MSTORE PUSH1 0x20 ADD SWAP1 DUP2 MSTORE PUSH1 0x20 ADD PUSH1 0x0 KECCAK256 PUSH1 0x0 PUSH2 0x100 EXP DUP2 SLOAD DUP2 PUSH1 0xFF MUL NOT AND SWAP1 DUP4 ISZERO ISZERO MUL OR SWAP1 SSTORE POP POP POP JUMP JUMPDEST DUP2 CALLER PUSH20 0xFFFFFFFFFFFFFFFFFFFFFFFFFFFFFFFFFFFFFFFF AND PUSH1 0x4 PUSH1 0x0 DUP4 DUP2 MSTORE PUSH1 0x20 ADD SWAP1 DUP2 MSTORE PUSH1 0x20 ADD PUSH1 0x0 KECCAK256 PUSH1 0x0 SWAP1 SLOAD SWAP1 PUSH2 0x100 EXP SWAP1 DIV PUSH20 0xFFFFFFFFFFFFFFFFFFFFFFFFFFFFFFFFFFFFFFFF AND PUSH20 0xFFFFFFFFFFFFFFFFFFFFFFFFFFFFFFFFFFFFFFFF AND EQ PUSH2 0x29C JUMPI PUSH1 0x0 DUP1 REVERT JUMPDEST DUP2 PUSH1 0x2 PUSH1 0x0 DUP6 DUP2 MSTORE PUSH1 0x20 ADD SWAP1 DUP2 MSTORE PUSH1 0x20 ADD PUSH1 0x0 KECCAK256 PUSH1 0x0 PUSH2 0x100 EXP DUP2 SLOAD DUP2 PUSH1 0xFF MUL NOT AND SWAP1 DUP4 ISZERO ISZERO MUL OR SWAP1 SSTORE POP POP POP POP JUMP JUMPDEST PUSH1 0x4 PUSH1 0x20 MSTORE DUP1 PUSH1 0x0 MSTORE PUSH1 0x40 PUSH1 0x0 KECCAK256 PUSH1 0x0 SWAP2 POP SLOAD SWAP1 PUSH2 0x100 EXP SWAP1 DIV PUSH20 0xFFFFFFFFFFFFFFFFFFFFFFFFFFFFFFFFFFFFFFFF AND DUP2 JUMP JUMPDEST PUSH1 0x2 PUSH1 0x20 MSTORE DUP1 PUSH1 0x0 MSTORE PUSH1 0x40 PUSH1 0x0 KECCAK256 PUSH1 0x0 SWAP2 POP SLOAD SWAP1 PUSH2 0x100 EXP SWAP1 DIV PUSH1 0xFF AND DUP2 JUMP JUMPDEST PUSH2 0x327 PUSH2 0x572 JUMP JUMPDEST PUSH20 0xFFFFFFFFFFFFFFFFFFFFFFFFFFFFFFFFFFFFFFFF AND PUSH2 0x345 PUSH2 0x3A7 JUMP JUMPDEST PUSH20 0xFFFFFFFFFFFFFFFFFFFFFFFFFFFFFFFFFFFFFFFF AND EQ PUSH2 0x39B JUMPI PUSH1 0x40 MLOAD PUSH32 0x8C379A000000000000000000000000000000000000000000000000000000000 DUP2 MSTORE PUSH1 0x4 ADD PUSH2 0x392 SWAP1 PUSH2 0xAAE JUMP JUMPDEST PUSH1 0x40 MLOAD DUP1 SWAP2 SUB SWAP1 REVERT JUMPDEST PUSH2 0x3A5 PUSH1 0x0 PUSH2 0x57A JUMP JUMPDEST JUMP JUMPDEST PUSH1 0x0 DUP1 PUSH1 0x0 SWAP1 SLOAD SWAP1 PUSH2 0x100 EXP SWAP1 DIV PUSH20 0xFFFFFFFFFFFFFFFFFFFFFFFFFFFFFFFFFFFFFFFF AND SWAP1 POP SWAP1 JUMP JUMPDEST PUSH2 0x3D8 PUSH2 0x572 JUMP JUMPDEST PUSH20 0xFFFFFFFFFFFFFFFFFFFFFFFFFFFFFFFFFFFFFFFF AND PUSH2 0x3F6 PUSH2 0x3A7 JUMP JUMPDEST PUSH20 0xFFFFFFFFFFFFFFFFFFFFFFFFFFFFFFFFFFFFFFFF AND EQ PUSH2 0x44C JUMPI PUSH1 0x40 MLOAD PUSH32 0x8C379A000000000000000000000000000000000000000000000000000000000 DUP2 MSTORE PUSH1 0x4 ADD PUSH2 0x443 SWAP1 PUSH2 0xAAE JUMP JUMPDEST PUSH1 0x40 MLOAD DUP1 SWAP2 SUB SWAP1 REVERT JUMPDEST PUSH1 0x0 PUSH20 0xFFFFFFFFFFFFFFFFFFFFFFFFFFFFFFFFFFFFFFFF AND DUP2 PUSH20 0xFFFFFFFFFFFFFFFFFFFFFFFFFFFFFFFFFFFFFFFF AND SUB PUSH2 0x4BB JUMPI PUSH1 0x40 MLOAD PUSH32 0x8C379A000000000000000000000000000000000000000000000000000000000 DUP2 MSTORE PUSH1 0x4 ADD PUSH2 0x4B2 SWAP1 PUSH2 0xB40 JUMP JUMPDEST PUSH1 0x40 MLOAD DUP1 SWAP2 SUB SWAP1 REVERT JUMPDEST PUSH2 0x4C4 DUP2 PUSH2 0x57A JUMP JUMPDEST POP JUMP JUMPDEST DUP2 CALLER PUSH20 0xFFFFFFFFFFFFFFFFFFFFFFFFFFFFFFFFFFFFFFFF AND PUSH1 0x4 PUSH1 0x0 DUP4 DUP2 MSTORE PUSH1 0x20 ADD SWAP1 DUP2 MSTORE PUSH1 0x20 ADD PUSH1 0x0 KECCAK256 PUSH1 0x0 SWAP1 SLOAD SWAP1 PUSH2 0x100 EXP SWAP1 DIV PUSH20 0xFFFFFFFFFFFFFFFFFFFFFFFFFFFFFFFFFFFFFFFF AND PUSH20 0xFFFFFFFFFFFFFFFFFFFFFFFFFFFFFFFFFFFFFFFF AND EQ PUSH2 0x533 JUMPI PUSH1 0x0 DUP1 REVERT JUMPDEST DUP2 PUSH1 0x1 DUP5 DUP2 SLOAD DUP2 LT PUSH2 0x548 JUMPI PUSH2 0x547 PUSH2 0xB60 JUMP JUMPDEST JUMPDEST SWAP1 PUSH1 0x0 MSTORE PUSH1 0x20 PUSH1 0x0 KECCAK256 SWAP1 PUSH1 0x9 MUL ADD PUSH1 0x5 ADD SWAP1 DUP1 MLOAD SWAP1 PUSH1 0x20 ADD SWAP1 PUSH2 0x56C SWAP3 SWAP2 SWAP1 PUSH2 0x63E JUMP JUMPDEST POP POP POP POP JUMP JUMPDEST PUSH1 0x0 CALLER SWAP1 POP SWAP1 JUMP JUMPDEST PUSH1 0x0 DUP1 PUSH1 0x0 SWAP1 SLOAD SWAP1 PUSH2 0x100 EXP SWAP1 DIV PUSH20 0xFFFFFFFFFFFFFFFFFFFFFFFFFFFFFFFFFFFFFFFF AND SWAP1 POP DUP2 PUSH1 0x0 DUP1 PUSH2 0x100 EXP DUP2 SLOAD DUP2 PUSH20 0xFFFFFFFFFFFFFFFFFFFFFFFFFFFFFFFFFFFFFFFF MUL NOT AND SWAP1 DUP4 PUSH20 0xFFFFFFFFFFFFFFFFFFFFFFFFFFFFFFFFFFFFFFFF AND MUL OR SWAP1 SSTORE POP DUP2 PUSH20 0xFFFFFFFFFFFFFFFFFFFFFFFFFFFFFFFFFFFFFFFF AND DUP2 PUSH20 0xFFFFFFFFFFFFFFFFFFFFFFFFFFFFFFFFFFFFFFFF AND PUSH32 0x8BE0079C531659141344CD1FD0A4F28419497F9722A3DAAFE3B4186F6B6457E0 PUSH1 0x40 MLOAD PUSH1 0x40 MLOAD DUP1 SWAP2 SUB SWAP1 LOG3 POP POP JUMP JUMPDEST DUP3 DUP1 SLOAD PUSH2 0x64A SWAP1 PUSH2 0xBBE JUMP JUMPDEST SWAP1 PUSH1 0x0 MSTORE PUSH1 0x20 PUSH1 0x0 KECCAK256 SWAP1 PUSH1 0x1F ADD PUSH1 0x20 SWAP1 DIV DUP2 ADD SWAP3 DUP3 PUSH2 0x66C JUMPI PUSH1 0x0 DUP6 SSTORE PUSH2 0x6B3 JUMP JUMPDEST DUP3 PUSH1 0x1F LT PUSH2 0x685 JUMPI DUP1 MLOAD PUSH1 0xFF NOT AND DUP4 DUP1 ADD OR DUP6 SSTORE PUSH2 0x6B3 JUMP JUMPDEST DUP3 DUP1 ADD PUSH1 0x1 ADD DUP6 SSTORE DUP3 ISZERO PUSH2 0x6B3 JUMPI SWAP2 DUP3 ADD JUMPDEST DUP3 DUP2 GT ISZERO PUSH2 0x6B2 JUMPI DUP3 MLOAD DUP3 SSTORE SWAP2 PUSH1 0x20 ADD SWAP2 SWAP1 PUSH1 0x1 ADD SWAP1 PUSH2 0x697 JUMP JUMPDEST JUMPDEST POP SWAP1 POP PUSH2 0x6C0 SWAP2 SWAP1 PUSH2 0x6C4 JUMP JUMPDEST POP SWAP1 JUMP JUMPDEST JUMPDEST DUP1 DUP3 GT ISZERO PUSH2 0x6DD JUMPI PUSH1 0x0 DUP2 PUSH1 0x0 SWAP1 SSTORE POP PUSH1 0x1 ADD PUSH2 0x6C5 JUMP JUMPDEST POP SWAP1 JUMP JUMPDEST PUSH1 0x0 PUSH1 0x40 MLOAD SWAP1 POP SWAP1 JUMP JUMPDEST PUSH1 0x0 DUP1 REVERT JUMPDEST PUSH1 0x0 DUP1 REVERT JUMPDEST PUSH1 0x0 DUP2 SWAP1 POP SWAP2 SWAP1 POP JUMP JUMPDEST PUSH2 0x708 DUP2 PUSH2 0x6F5 JUMP JUMPDEST DUP2 EQ PUSH2 0x713 JUMPI PUSH1 0x0 DUP1 REVERT JUMPDEST POP JUMP JUMPDEST PUSH1 0x0 DUP2 CALLDATALOAD SWAP1 POP PUSH2 0x725 DUP2 PUSH2 0x6FF JUMP JUMPDEST SWAP3 SWAP2 POP POP JUMP JUMPDEST PUSH1 0x0 DUP2 ISZERO ISZERO SWAP1 POP SWAP2 SWAP1 POP JUMP JUMPDEST PUSH2 0x740 DUP2 PUSH2 0x72B JUMP JUMPDEST DUP2 EQ PUSH2 0x74B JUMPI PUSH1 0x0 DUP1 REVERT JUMPDEST POP JUMP JUMPDEST PUSH1 0x0 DUP2 CALLDATALOAD SWAP1 POP PUSH2 0x75D DUP2 PUSH2 0x737 JUMP JUMPDEST SWAP3 SWAP2 POP POP JUMP JUMPDEST PUSH1 0x0 DUP1 PUSH1 0x40 DUP4 DUP6 SUB SLT ISZERO PUSH2 0x77A JUMPI PUSH2 0x779 PUSH2 0x6EB JUMP JUMPDEST JUMPDEST PUSH1 0x0 PUSH2 0x788 DUP6 DUP3 DUP7 ADD PUSH2 0x716 JUMP JUMPDEST SWAP3 POP POP PUSH1 0x20 PUSH2 0x799 DUP6 DUP3 DUP7 ADD PUSH2 0x74E JUMP JUMPDEST SWAP2 POP POP SWAP3 POP SWAP3 SWAP1 POP JUMP JUMPDEST PUSH1 0x0 PUSH1 0x20 DUP3 DUP5 SUB SLT ISZERO PUSH2 0x7B9 JUMPI PUSH2 0x7B8 PUSH2 0x6EB JUMP JUMPDEST JUMPDEST PUSH1 0x0 PUSH2 0x7C7 DUP5 DUP3 DUP6 ADD PUSH2 0x716 JUMP JUMPDEST SWAP2 POP POP SWAP3 SWAP2 POP POP JUMP JUMPDEST PUSH1 0x0 PUSH20 0xFFFFFFFFFFFFFFFFFFFFFFFFFFFFFFFFFFFFFFFF DUP3 AND SWAP1 POP SWAP2 SWAP1 POP JUMP JUMPDEST PUSH1 0x0 PUSH2 0x7FB DUP3 PUSH2 0x7D0 JUMP JUMPDEST SWAP1 POP SWAP2 SWAP1 POP JUMP JUMPDEST PUSH2 0x80B DUP2 PUSH2 0x7F0 JUMP JUMPDEST DUP3 MSTORE POP POP JUMP JUMPDEST PUSH1 0x0 PUSH1 0x20 DUP3 ADD SWAP1 POP PUSH2 0x826 PUSH1 0x0 DUP4 ADD DUP5 PUSH2 0x802 JUMP JUMPDEST SWAP3 SWAP2 POP POP JUMP JUMPDEST PUSH2 0x835 DUP2 PUSH2 0x72B JUMP JUMPDEST DUP3 MSTORE POP POP JUMP JUMPDEST PUSH1 0x0 PUSH1 0x20 DUP3 ADD SWAP1 POP PUSH2 0x850 PUSH1 0x0 DUP4 ADD DUP5 PUSH2 0x82C JUMP JUMPDEST SWAP3 SWAP2 POP POP JUMP JUMPDEST PUSH2 0x85F DUP2 PUSH2 0x7F0 JUMP JUMPDEST DUP2 EQ PUSH2 0x86A JUMPI PUSH1 0x0 DUP1 REVERT JUMPDEST POP JUMP JUMPDEST PUSH1 0x0 DUP2 CALLDATALOAD SWAP1 POP PUSH2 0x87C DUP2 PUSH2 0x856 JUMP JUMPDEST SWAP3 SWAP2 POP POP JUMP JUMPDEST PUSH1 0x0 PUSH1 0x20 DUP3 DUP5 SUB SLT ISZERO PUSH2 0x898 JUMPI PUSH2 0x897 PUSH2 0x6EB JUMP JUMPDEST JUMPDEST PUSH1 0x0 PUSH2 0x8A6 DUP5 DUP3 DUP6 ADD PUSH2 0x86D JUMP JUMPDEST SWAP2 POP POP SWAP3 SWAP2 POP POP JUMP JUMPDEST PUSH1 0x0 DUP1 REVERT JUMPDEST PUSH1 0x0 DUP1 REVERT JUMPDEST PUSH1 0x0 PUSH1 0x1F NOT PUSH1 0x1F DUP4 ADD AND SWAP1 POP SWAP2 SWAP1 POP JUMP JUMPDEST PUSH32 0x4E487B7100000000000000000000000000000000000000000000000000000000 PUSH1 0x0 MSTORE PUSH1 0x41 PUSH1 0x4 MSTORE PUSH1 0x24 PUSH1 0x0 REVERT JUMPDEST PUSH2 0x902 DUP3 PUSH2 0x8B9 JUMP JUMPDEST DUP2 ADD DUP2 DUP2 LT PUSH8 0xFFFFFFFFFFFFFFFF DUP3 GT OR ISZERO PUSH2 0x921 JUMPI PUSH2 0x920 PUSH2 0x8CA JUMP JUMPDEST JUMPDEST DUP1 PUSH1 0x40 MSTORE POP POP POP JUMP JUMPDEST PUSH1 0x0 PUSH2 0x934 PUSH2 0x6E1 JUMP JUMPDEST SWAP1 POP PUSH2 0x940 DUP3 DUP3 PUSH2 0x8F9 JUMP JUMPDEST SWAP2 SWAP1 POP JUMP JUMPDEST PUSH1 0x0 PUSH8 0xFFFFFFFFFFFFFFFF DUP3 GT ISZERO PUSH2 0x960 JUMPI PUSH2 0x95F PUSH2 0x8CA JUMP JUMPDEST JUMPDEST PUSH2 0x969 DUP3 PUSH2 0x8B9 JUMP JUMPDEST SWAP1 POP PUSH1 0x20 DUP2 ADD SWAP1 POP SWAP2 SWAP1 POP JUMP JUMPDEST DUP3 DUP2 DUP4 CALLDATACOPY PUSH1 0x0 DUP4 DUP4 ADD MSTORE POP POP POP JUMP JUMPDEST PUSH1 0x0 PUSH2 0x998 PUSH2 0x993 DUP5 PUSH2 0x945 JUMP JUMPDEST PUSH2 0x92A JUMP JUMPDEST SWAP1 POP DUP3 DUP2 MSTORE PUSH1 0x20 DUP2 ADD DUP5 DUP5 DUP5 ADD GT ISZERO PUSH2 0x9B4 JUMPI PUSH2 0x9B3 PUSH2 0x8B4 JUMP JUMPDEST JUMPDEST PUSH2 0x9BF DUP5 DUP3 DUP6 PUSH2 0x976 JUMP JUMPDEST POP SWAP4 SWAP3 POP POP POP JUMP JUMPDEST PUSH1 0x0 DUP3 PUSH1 0x1F DUP4 ADD SLT PUSH2 0x9DC JUMPI PUSH2 0x9DB PUSH2 0x8AF JUMP JUMPDEST JUMPDEST DUP2 CALLDATALOAD PUSH2 0x9EC DUP5 DUP3 PUSH1 0x20 DUP7 ADD PUSH2 0x985 JUMP JUMPDEST SWAP2 POP POP SWAP3 SWAP2 POP POP JUMP JUMPDEST PUSH1 0x0 DUP1 PUSH1 0x40 DUP4 DUP6 SUB SLT ISZERO PUSH2 0xA0C JUMPI PUSH2 0xA0B PUSH2 0x6EB JUMP JUMPDEST JUMPDEST PUSH1 0x0 PUSH2 0xA1A DUP6 DUP3 DUP7 ADD PUSH2 0x716 JUMP JUMPDEST SWAP3 POP POP PUSH1 0x20 DUP4 ADD CALLDATALOAD PUSH8 0xFFFFFFFFFFFFFFFF DUP2 GT ISZERO PUSH2 0xA3B JUMPI PUSH2 0xA3A PUSH2 0x6F0 JUMP JUMPDEST JUMPDEST PUSH2 0xA47 DUP6 DUP3 DUP7 ADD PUSH2 0x9C7 JUMP JUMPDEST SWAP2 POP POP SWAP3 POP SWAP3 SWAP1 POP JUMP JUMPDEST PUSH1 0x0 DUP3 DUP3 MSTORE PUSH1 0x20 DUP3 ADD SWAP1 POP SWAP3 SWAP2 POP POP JUMP JUMPDEST PUSH32 0x4F776E61626C653A2063616C6C6572206973206E6F7420746865206F776E6572 PUSH1 0x0 DUP3 ADD MSTORE POP JUMP JUMPDEST PUSH1 0x0 PUSH2 0xA98 PUSH1 0x20 DUP4 PUSH2 0xA51 JUMP JUMPDEST SWAP2 POP PUSH2 0xAA3 DUP3 PUSH2 0xA62 JUMP JUMPDEST PUSH1 0x20 DUP3 ADD SWAP1 POP SWAP2 SWAP1 POP JUMP JUMPDEST PUSH1 0x0 PUSH1 0x20 DUP3 ADD SWAP1 POP DUP2 DUP2 SUB PUSH1 0x0 DUP4 ADD MSTORE PUSH2 0xAC7 DUP2 PUSH2 0xA8B JUMP JUMPDEST SWAP1 POP SWAP2 SWAP1 POP JUMP JUMPDEST PUSH32 0x4F776E61626C653A206E6577206F776E657220697320746865207A65726F2061 PUSH1 0x0 DUP3 ADD MSTORE PUSH32 0x6464726573730000000000000000000000000000000000000000000000000000 PUSH1 0x20 DUP3 ADD MSTORE POP JUMP JUMPDEST PUSH1 0x0 PUSH2 0xB2A PUSH1 0x26 DUP4 PUSH2 0xA51 JUMP JUMPDEST SWAP2 POP PUSH2 0xB35 DUP3 PUSH2 0xACE JUMP JUMPDEST PUSH1 0x40 DUP3 ADD SWAP1 POP SWAP2 SWAP1 POP JUMP JUMPDEST PUSH1 0x0 PUSH1 0x20 DUP3 ADD SWAP1 POP DUP2 DUP2 SUB PUSH1 0x0 DUP4 ADD MSTORE PUSH2 0xB59 DUP2 PUSH2 0xB1D JUMP JUMPDEST SWAP1 POP SWAP2 SWAP1 POP JUMP JUMPDEST PUSH32 0x4E487B7100000000000000000000000000000000000000000000000000000000 PUSH1 0x0 MSTORE PUSH1 0x32 PUSH1 0x4 MSTORE PUSH1 0x24 PUSH1 0x0 REVERT JUMPDEST PUSH32 0x4E487B7100000000000000000000000000000000000000000000000000000000 PUSH1 0x0 MSTORE PUSH1 0x22 PUSH1 0x4 MSTORE PUSH1 0x24 PUSH1 0x0 REVERT JUMPDEST PUSH1 0x0 PUSH1 0x2 DUP3 DIV SWAP1 POP PUSH1 0x1 DUP3 AND DUP1 PUSH2 0xBD6 JUMPI PUSH1 0x7F DUP3 AND SWAP2 POP JUMPDEST PUSH1 0x20 DUP3 LT DUP2 SUB PUSH2 0xBE9 JUMPI PUSH2 0xBE8 PUSH2 0xB8F JUMP JUMPDEST JUMPDEST POP SWAP2 SWAP1 POP JUMP INVALID LOG2 PUSH5 0x6970667358 0x22 SLT KECCAK256 PUSH6 0x97FD465EB1FE 0xB5 NUMBER NOT CHAINID 0xD7 SSTORE PUSH24 0xE5E8E0F6734CAC0CE2197A1B03EFC1FE7C5D64736F6C6343 STOP ADDMOD 0xE STOP CALLER "
				},
				"gasEstimates": {
					"creation": {
						"codeDepositCost": "621800",
						"executionCost": "infinite",
						"totalCost": "infinite"
					},
					"external": {
						"changeQuizStatus(uint256,bool)": "27171",
						"owner()": "2544",
						"quizIsActive(uint256)": "2863",
						"quizOwner(uint256)": "2884",
						"quizOwnerChangeHint(uint256,string)": "infinite",
						"quizOwnerChangeStatus(uint256,bool)": "27206",
						"renounceOwnership()": "30374",
						"transferOwnership(address)": "30764"
					},
					"internal": {
						"_createQuiz(string memory,string memory,string memory,string memory,string memory,string memory,uint8,uint8,uint256,uint256)": "infinite"
					}
				},
				"methodIdentifiers": {
					"changeQuizStatus(uint256,bool)": "1d3f7559",
					"owner()": "8da5cb5b",
					"quizIsActive(uint256)": "51a1d40e",
					"quizOwner(uint256)": "400ae0f9",
					"quizOwnerChangeHint(uint256,string)": "fbb3b6ce",
					"quizOwnerChangeStatus(uint256,bool)": "377def85",
					"renounceOwnership()": "715018a6",
					"transferOwnership(address)": "f2fde38b"
				}
			},
			"storageLayout": {
				"storage": [
					{
						"astId": 213,
						"contract": "contracts/CreateQuiz.sol:CreateQuiz",
						"label": "_owner",
						"offset": 0,
						"slot": "0",
						"type": "t_address"
					},
					{
						"astId": 55,
						"contract": "contracts/CreateQuiz.sol:CreateQuiz",
						"label": "quizzes",
						"offset": 0,
						"slot": "1",
						"type": "t_array(t_struct(Quiz)51_storage)dyn_storage"
					},
					{
						"astId": 59,
						"contract": "contracts/CreateQuiz.sol:CreateQuiz",
						"label": "quizIsActive",
						"offset": 0,
						"slot": "2",
						"type": "t_mapping(t_uint256,t_bool)"
					},
					{
						"astId": 63,
						"contract": "contracts/CreateQuiz.sol:CreateQuiz",
						"label": "quizAnswer",
						"offset": 0,
						"slot": "3",
						"type": "t_mapping(t_uint256,t_uint8)"
					},
					{
						"astId": 67,
						"contract": "contracts/CreateQuiz.sol:CreateQuiz",
						"label": "quizOwner",
						"offset": 0,
						"slot": "4",
						"type": "t_mapping(t_uint256,t_address)"
					}
				],
				"types": {
					"t_address": {
						"encoding": "inplace",
						"label": "address",
						"numberOfBytes": "20"
					},
					"t_array(t_struct(Quiz)51_storage)dyn_storage": {
						"base": "t_struct(Quiz)51_storage",
						"encoding": "dynamic_array",
						"label": "struct CreateQuiz.Quiz[]",
						"numberOfBytes": "32"
					},
					"t_bool": {
						"encoding": "inplace",
						"label": "bool",
						"numberOfBytes": "1"
					},
					"t_mapping(t_uint256,t_address)": {
						"encoding": "mapping",
						"key": "t_uint256",
						"label": "mapping(uint256 => address)",
						"numberOfBytes": "32",
						"value": "t_address"
					},
					"t_mapping(t_uint256,t_bool)": {
						"encoding": "mapping",
						"key": "t_uint256",
						"label": "mapping(uint256 => bool)",
						"numberOfBytes": "32",
						"value": "t_bool"
					},
					"t_mapping(t_uint256,t_uint8)": {
						"encoding": "mapping",
						"key": "t_uint256",
						"label": "mapping(uint256 => uint8)",
						"numberOfBytes": "32",
						"value": "t_uint8"
					},
					"t_string_storage": {
						"encoding": "bytes",
						"label": "string",
						"numberOfBytes": "32"
					},
					"t_struct(Quiz)51_storage": {
						"encoding": "inplace",
						"label": "struct CreateQuiz.Quiz",
						"members": [
							{
								"astId": 34,
								"contract": "contracts/CreateQuiz.sol:CreateQuiz",
								"label": "question",
								"offset": 0,
								"slot": "0",
								"type": "t_string_storage"
							},
							{
								"astId": 36,
								"contract": "contracts/CreateQuiz.sol:CreateQuiz",
								"label": "choice1",
								"offset": 0,
								"slot": "1",
								"type": "t_string_storage"
							},
							{
								"astId": 38,
								"contract": "contracts/CreateQuiz.sol:CreateQuiz",
								"label": "choice2",
								"offset": 0,
								"slot": "2",
								"type": "t_string_storage"
							},
							{
								"astId": 40,
								"contract": "contracts/CreateQuiz.sol:CreateQuiz",
								"label": "choice3",
								"offset": 0,
								"slot": "3",
								"type": "t_string_storage"
							},
							{
								"astId": 42,
								"contract": "contracts/CreateQuiz.sol:CreateQuiz",
								"label": "choice4",
								"offset": 0,
								"slot": "4",
								"type": "t_string_storage"
							},
							{
								"astId": 44,
								"contract": "contracts/CreateQuiz.sol:CreateQuiz",
								"label": "hint",
								"offset": 0,
								"slot": "5",
								"type": "t_string_storage"
							},
							{
								"astId": 46,
								"contract": "contracts/CreateQuiz.sol:CreateQuiz",
								"label": "languageCode",
								"offset": 0,
								"slot": "6",
								"type": "t_uint8"
							},
							{
								"astId": 48,
								"contract": "contracts/CreateQuiz.sol:CreateQuiz",
								"label": "reward",
								"offset": 0,
								"slot": "7",
								"type": "t_uint256"
							},
							{
								"astId": 50,
								"contract": "contracts/CreateQuiz.sol:CreateQuiz",
								"label": "rewardPool",
								"offset": 0,
								"slot": "8",
								"type": "t_uint256"
							}
						],
						"numberOfBytes": "288"
					},
					"t_uint256": {
						"encoding": "inplace",
						"label": "uint256",
						"numberOfBytes": "32"
					},
					"t_uint8": {
						"encoding": "inplace",
						"label": "uint8",
						"numberOfBytes": "1"
					}
				}
			},
			"userdoc": {
				"kind": "user",
				"methods": {},
				"version": 1
			}
		}
	}
}