{
	"contracts/CreateQuiz.sol": {
		"CreateQuiz": {
			"abi": [
				{
					"anonymous": false,
					"inputs": [
						{
							"indexed": false,
							"internalType": "string",
							"name": "question",
							"type": "string"
						},
						{
							"indexed": false,
							"internalType": "uint8",
							"name": "answer",
							"type": "uint8"
						}
					],
					"name": "NewQuiz",
					"type": "event"
				},
				{
					"anonymous": false,
					"inputs": [
						{
							"indexed": true,
							"internalType": "address",
							"name": "previousOwner",
							"type": "address"
						},
						{
							"indexed": true,
							"internalType": "address",
							"name": "newOwner",
							"type": "address"
						}
					],
					"name": "OwnershipTransferred",
					"type": "event"
				},
				{
					"inputs": [
						{
							"internalType": "uint256",
							"name": "_quizId",
							"type": "uint256"
						},
						{
							"internalType": "bool",
							"name": "_quizStatus",
							"type": "bool"
						}
					],
					"name": "changeQuizStatus",
					"outputs": [],
					"stateMutability": "nonpayable",
					"type": "function"
				},
				{
					"inputs": [
						{
							"internalType": "string",
							"name": "_question",
							"type": "string"
						},
						{
							"internalType": "string",
							"name": "_choice1",
							"type": "string"
						},
						{
							"internalType": "string",
							"name": "_choice2",
							"type": "string"
						},
						{
							"internalType": "string",
							"name": "_choice3",
							"type": "string"
						},
						{
							"internalType": "string",
							"name": "_choice4",
							"type": "string"
						},
						{
							"internalType": "uint8",
							"name": "_answer",
							"type": "uint8"
						},
						{
							"internalType": "uint8",
							"name": "_languageCode",
							"type": "uint8"
						}
					],
					"name": "createQuiz",
					"outputs": [],
					"stateMutability": "nonpayable",
					"type": "function"
				},
				{
					"inputs": [],
					"name": "owner",
					"outputs": [
						{
							"internalType": "address",
							"name": "",
							"type": "address"
						}
					],
					"stateMutability": "view",
					"type": "function"
				},
				{
					"inputs": [
						{
							"internalType": "uint256",
							"name": "",
							"type": "uint256"
						}
					],
					"name": "quizzIsActive",
					"outputs": [
						{
							"internalType": "bool",
							"name": "",
							"type": "bool"
						}
					],
					"stateMutability": "view",
					"type": "function"
				},
				{
					"inputs": [
						{
							"internalType": "uint256",
							"name": "",
							"type": "uint256"
						}
					],
					"name": "quizzes",
					"outputs": [
						{
							"internalType": "string",
							"name": "question",
							"type": "string"
						},
						{
							"internalType": "string",
							"name": "choice1",
							"type": "string"
						},
						{
							"internalType": "string",
							"name": "choice2",
							"type": "string"
						},
						{
							"internalType": "string",
							"name": "choice3",
							"type": "string"
						},
						{
							"internalType": "string",
							"name": "choice4",
							"type": "string"
						},
						{
							"internalType": "uint8",
							"name": "answer",
							"type": "uint8"
						},
						{
							"internalType": "uint8",
							"name": "languageCode",
							"type": "uint8"
						}
					],
					"stateMutability": "view",
					"type": "function"
				},
				{
					"inputs": [],
					"name": "renounceOwnership",
					"outputs": [],
					"stateMutability": "nonpayable",
					"type": "function"
				},
				{
					"inputs": [
						{
							"internalType": "address",
							"name": "newOwner",
							"type": "address"
						}
					],
					"name": "transferOwnership",
					"outputs": [],
					"stateMutability": "nonpayable",
					"type": "function"
				}
			],
			"devdoc": {
				"kind": "dev",
				"methods": {
					"owner()": {
						"details": "Returns the address of the current owner."
					},
					"renounceOwnership()": {
						"details": "Leaves the contract without owner. It will not be possible to call `onlyOwner` functions anymore. Can only be called by the current owner. NOTE: Renouncing ownership will leave the contract without an owner, thereby removing any functionality that is only available to the owner."
					},
					"transferOwnership(address)": {
						"details": "Transfers ownership of the contract to a new account (`newOwner`). Can only be called by the current owner."
					}
				},
				"version": 1
			},
			"evm": {
				"assembly": "    /* \"contracts/CreateQuiz.sol\":90:1144  contract CreateQuiz is Ownable {... */\n  mstore(0x40, 0x80)\n  callvalue\n  dup1\n  iszero\n  tag_1\n  jumpi\n  0x00\n  dup1\n  revert\ntag_1:\n  pop\n    /* \"contracts/Ownable.sol\":914:946  _transferOwnership(_msgSender()) */\n  tag_4\n    /* \"contracts/Ownable.sol\":933:945  _msgSender() */\n  tag_5\n    /* \"contracts/Ownable.sol\":933:943  _msgSender */\n  shl(0x20, tag_6)\n    /* \"contracts/Ownable.sol\":933:945  _msgSender() */\n  0x20\n  shr\n  jump\t// in\ntag_5:\n    /* \"contracts/Ownable.sol\":914:932  _transferOwnership */\n  shl(0x20, tag_7)\n    /* \"contracts/Ownable.sol\":914:946  _transferOwnership(_msgSender()) */\n  0x20\n  shr\n  jump\t// in\ntag_4:\n    /* \"contracts/CreateQuiz.sol\":90:1144  contract CreateQuiz is Ownable {... */\n  jump(tag_8)\n    /* \"contracts/Context.sol\":640:736  function _msgSender() internal view virtual returns (address) {... */\ntag_6:\n    /* \"contracts/Context.sol\":693:700  address */\n  0x00\n    /* \"contracts/Context.sol\":719:729  msg.sender */\n  caller\n    /* \"contracts/Context.sol\":712:729  return msg.sender */\n  swap1\n  pop\n    /* \"contracts/Context.sol\":640:736  function _msgSender() internal view virtual returns (address) {... */\n  swap1\n  jump\t// out\n    /* \"contracts/Ownable.sol\":2263:2450  function _transferOwnership(address newOwner) internal virtual {... */\ntag_7:\n    /* \"contracts/Ownable.sol\":2336:2352  address oldOwner */\n  0x00\n    /* \"contracts/Ownable.sol\":2355:2361  _owner */\n  dup1\n  0x00\n  swap1\n  sload\n  swap1\n  0x0100\n  exp\n  swap1\n  div\n  0xffffffffffffffffffffffffffffffffffffffff\n  and\n    /* \"contracts/Ownable.sol\":2336:2361  address oldOwner = _owner */\n  swap1\n  pop\n    /* \"contracts/Ownable.sol\":2380:2388  newOwner */\n  dup2\n    /* \"contracts/Ownable.sol\":2371:2377  _owner */\n  0x00\n  dup1\n    /* \"contracts/Ownable.sol\":2371:2388  _owner = newOwner */\n  0x0100\n  exp\n  dup2\n  sload\n  dup2\n  0xffffffffffffffffffffffffffffffffffffffff\n  mul\n  not\n  and\n  swap1\n  dup4\n  0xffffffffffffffffffffffffffffffffffffffff\n  and\n  mul\n  or\n  swap1\n  sstore\n  pop\n    /* \"contracts/Ownable.sol\":2434:2442  newOwner */\n  dup2\n    /* \"contracts/Ownable.sol\":2403:2443  OwnershipTransferred(oldOwner, newOwner) */\n  0xffffffffffffffffffffffffffffffffffffffff\n  and\n    /* \"contracts/Ownable.sol\":2424:2432  oldOwner */\n  dup2\n    /* \"contracts/Ownable.sol\":2403:2443  OwnershipTransferred(oldOwner, newOwner) */\n  0xffffffffffffffffffffffffffffffffffffffff\n  and\n  0x8be0079c531659141344cd1fd0a4f28419497f9722a3daafe3b4186f6b6457e0\n  mload(0x40)\n  mload(0x40)\n  dup1\n  swap2\n  sub\n  swap1\n  log3\n    /* \"contracts/Ownable.sol\":2326:2450  {... */\n  pop\n    /* \"contracts/Ownable.sol\":2263:2450  function _transferOwnership(address newOwner) internal virtual {... */\n  pop\n  jump\t// out\n    /* \"contracts/CreateQuiz.sol\":90:1144  contract CreateQuiz is Ownable {... */\ntag_8:\n  dataSize(sub_0)\n  dup1\n  dataOffset(sub_0)\n  0x00\n  codecopy\n  0x00\n  return\nstop\n\nsub_0: assembly {\n        /* \"contracts/CreateQuiz.sol\":90:1144  contract CreateQuiz is Ownable {... */\n      mstore(0x40, 0x80)\n      callvalue\n      dup1\n      iszero\n      tag_1\n      jumpi\n      0x00\n      dup1\n      revert\n    tag_1:\n      pop\n      jumpi(tag_2, lt(calldatasize, 0x04))\n      shr(0xe0, calldataload(0x00))\n      dup1\n      0x88409afa\n      gt\n      tag_10\n      jumpi\n      dup1\n      0x88409afa\n      eq\n      tag_6\n      jumpi\n      dup1\n      0x8da5cb5b\n      eq\n      tag_7\n      jumpi\n      dup1\n      0x905bd667\n      eq\n      tag_8\n      jumpi\n      dup1\n      0xf2fde38b\n      eq\n      tag_9\n      jumpi\n      jump(tag_2)\n    tag_10:\n      dup1\n      0x1d3f7559\n      eq\n      tag_3\n      jumpi\n      dup1\n      0x4361790f\n      eq\n      tag_4\n      jumpi\n      dup1\n      0x715018a6\n      eq\n      tag_5\n      jumpi\n    tag_2:\n      0x00\n      dup1\n      revert\n        /* \"contracts/CreateQuiz.sol\":1013:1141  function changeQuizStatus(uint _quizId ,bool _quizStatus) public onlyOwner {... */\n    tag_3:\n      tag_11\n      0x04\n      dup1\n      calldatasize\n      sub\n      dup2\n      add\n      swap1\n      tag_12\n      swap2\n      swap1\n      tag_13\n      jump\t// in\n    tag_12:\n      tag_14\n      jump\t// in\n    tag_11:\n      stop\n        /* \"contracts/CreateQuiz.sol\":515:923  function createQuiz(string memory _question, string memory _choice1, string memory _choice2, string memory _choice3, string memory _choice4, uint8 _answer, uint8 _languageCode) public {... */\n    tag_4:\n      tag_15\n      0x04\n      dup1\n      calldatasize\n      sub\n      dup2\n      add\n      swap1\n      tag_16\n      swap2\n      swap1\n      tag_17\n      jump\t// in\n    tag_16:\n      tag_18\n      jump\t// in\n    tag_15:\n      stop\n        /* \"contracts/Ownable.sol\":1661:1762  function renounceOwnership() public virtual onlyOwner {... */\n    tag_5:\n      tag_19\n      tag_20\n      jump\t// in\n    tag_19:\n      stop\n        /* \"contracts/CreateQuiz.sol\":375:396  Quiz[] public quizzes */\n    tag_6:\n      tag_21\n      0x04\n      dup1\n      calldatasize\n      sub\n      dup2\n      add\n      swap1\n      tag_22\n      swap2\n      swap1\n      tag_23\n      jump\t// in\n    tag_22:\n      tag_24\n      jump\t// in\n    tag_21:\n      mload(0x40)\n      tag_25\n      swap8\n      swap7\n      swap6\n      swap5\n      swap4\n      swap3\n      swap2\n      swap1\n      tag_26\n      jump\t// in\n    tag_25:\n      mload(0x40)\n      dup1\n      swap2\n      sub\n      swap1\n      return\n        /* \"contracts/Ownable.sol\":1029:1114  function owner() public view virtual returns (address) {... */\n    tag_7:\n      tag_27\n      tag_28\n      jump\t// in\n    tag_27:\n      mload(0x40)\n      tag_29\n      swap2\n      swap1\n      tag_30\n      jump\t// in\n    tag_29:\n      mload(0x40)\n      dup1\n      swap2\n      sub\n      swap1\n      return\n        /* \"contracts/CreateQuiz.sol\":403:446  mapping (uint => bool) public quizzIsActive */\n    tag_8:\n      tag_31\n      0x04\n      dup1\n      calldatasize\n      sub\n      dup2\n      add\n      swap1\n      tag_32\n      swap2\n      swap1\n      tag_23\n      jump\t// in\n    tag_32:\n      tag_33\n      jump\t// in\n    tag_31:\n      mload(0x40)\n      tag_34\n      swap2\n      swap1\n      tag_35\n      jump\t// in\n    tag_34:\n      mload(0x40)\n      dup1\n      swap2\n      sub\n      swap1\n      return\n        /* \"contracts/Ownable.sol\":1911:2109  function transferOwnership(address newOwner) public virtual onlyOwner {... */\n    tag_9:\n      tag_36\n      0x04\n      dup1\n      calldatasize\n      sub\n      dup2\n      add\n      swap1\n      tag_37\n      swap2\n      swap1\n      tag_38\n      jump\t// in\n    tag_37:\n      tag_39\n      jump\t// in\n    tag_36:\n      stop\n        /* \"contracts/CreateQuiz.sol\":1013:1141  function changeQuizStatus(uint _quizId ,bool _quizStatus) public onlyOwner {... */\n    tag_14:\n        /* \"contracts/Ownable.sol\":1252:1264  _msgSender() */\n      tag_41\n        /* \"contracts/Ownable.sol\":1252:1262  _msgSender */\n      tag_42\n        /* \"contracts/Ownable.sol\":1252:1264  _msgSender() */\n      jump\t// in\n    tag_41:\n        /* \"contracts/Ownable.sol\":1241:1264  owner() == _msgSender() */\n      0xffffffffffffffffffffffffffffffffffffffff\n      and\n        /* \"contracts/Ownable.sol\":1241:1248  owner() */\n      tag_43\n        /* \"contracts/Ownable.sol\":1241:1246  owner */\n      tag_28\n        /* \"contracts/Ownable.sol\":1241:1248  owner() */\n      jump\t// in\n    tag_43:\n        /* \"contracts/Ownable.sol\":1241:1264  owner() == _msgSender() */\n      0xffffffffffffffffffffffffffffffffffffffff\n      and\n      eq\n        /* \"contracts/Ownable.sol\":1233:1301  require(owner() == _msgSender(), \"Ownable: caller is not the owner\") */\n      tag_44\n      jumpi\n      mload(0x40)\n      0x08c379a000000000000000000000000000000000000000000000000000000000\n      dup2\n      mstore\n      0x04\n      add\n      tag_45\n      swap1\n      tag_46\n      jump\t// in\n    tag_45:\n      mload(0x40)\n      dup1\n      swap2\n      sub\n      swap1\n      revert\n    tag_44:\n        /* \"contracts/CreateQuiz.sol\":1123:1134  _quizStatus */\n      dup1\n        /* \"contracts/CreateQuiz.sol\":1098:1111  quizzIsActive */\n      0x02\n        /* \"contracts/CreateQuiz.sol\":1098:1120  quizzIsActive[_quizId] */\n      0x00\n        /* \"contracts/CreateQuiz.sol\":1112:1119  _quizId */\n      dup5\n        /* \"contracts/CreateQuiz.sol\":1098:1120  quizzIsActive[_quizId] */\n      dup2\n      mstore\n      0x20\n      add\n      swap1\n      dup2\n      mstore\n      0x20\n      add\n      0x00\n      keccak256\n      0x00\n        /* \"contracts/CreateQuiz.sol\":1098:1134  quizzIsActive[_quizId] = _quizStatus */\n      0x0100\n      exp\n      dup2\n      sload\n      dup2\n      0xff\n      mul\n      not\n      and\n      swap1\n      dup4\n      iszero\n      iszero\n      mul\n      or\n      swap1\n      sstore\n      pop\n        /* \"contracts/CreateQuiz.sol\":1013:1141  function changeQuizStatus(uint _quizId ,bool _quizStatus) public onlyOwner {... */\n      pop\n      pop\n      jump\t// out\n        /* \"contracts/CreateQuiz.sol\":515:923  function createQuiz(string memory _question, string memory _choice1, string memory _choice2, string memory _choice3, string memory _choice4, uint8 _answer, uint8 _languageCode) public {... */\n    tag_18:\n        /* \"contracts/CreateQuiz.sol\":709:716  quizzes */\n      0x01\n        /* \"contracts/CreateQuiz.sol\":722:801  Quiz(_question, _choice1, _choice2, _choice3, _choice4, _answer, _languageCode) */\n      mload(0x40)\n      dup1\n      0xe0\n      add\n      0x40\n      mstore\n      dup1\n        /* \"contracts/CreateQuiz.sol\":727:736  _question */\n      dup10\n        /* \"contracts/CreateQuiz.sol\":722:801  Quiz(_question, _choice1, _choice2, _choice3, _choice4, _answer, _languageCode) */\n      dup2\n      mstore\n      0x20\n      add\n        /* \"contracts/CreateQuiz.sol\":738:746  _choice1 */\n      dup9\n        /* \"contracts/CreateQuiz.sol\":722:801  Quiz(_question, _choice1, _choice2, _choice3, _choice4, _answer, _languageCode) */\n      dup2\n      mstore\n      0x20\n      add\n        /* \"contracts/CreateQuiz.sol\":748:756  _choice2 */\n      dup8\n        /* \"contracts/CreateQuiz.sol\":722:801  Quiz(_question, _choice1, _choice2, _choice3, _choice4, _answer, _languageCode) */\n      dup2\n      mstore\n      0x20\n      add\n        /* \"contracts/CreateQuiz.sol\":758:766  _choice3 */\n      dup7\n        /* \"contracts/CreateQuiz.sol\":722:801  Quiz(_question, _choice1, _choice2, _choice3, _choice4, _answer, _languageCode) */\n      dup2\n      mstore\n      0x20\n      add\n        /* \"contracts/CreateQuiz.sol\":768:776  _choice4 */\n      dup6\n        /* \"contracts/CreateQuiz.sol\":722:801  Quiz(_question, _choice1, _choice2, _choice3, _choice4, _answer, _languageCode) */\n      dup2\n      mstore\n      0x20\n      add\n        /* \"contracts/CreateQuiz.sol\":778:785  _answer */\n      dup5\n        /* \"contracts/CreateQuiz.sol\":722:801  Quiz(_question, _choice1, _choice2, _choice3, _choice4, _answer, _languageCode) */\n      0xff\n      and\n      dup2\n      mstore\n      0x20\n      add\n        /* \"contracts/CreateQuiz.sol\":787:800  _languageCode */\n      dup4\n        /* \"contracts/CreateQuiz.sol\":722:801  Quiz(_question, _choice1, _choice2, _choice3, _choice4, _answer, _languageCode) */\n      0xff\n      and\n      dup2\n      mstore\n      pop\n        /* \"contracts/CreateQuiz.sol\":709:802  quizzes.push(Quiz(_question, _choice1, _choice2, _choice3, _choice4, _answer, _languageCode)) */\n      swap1\n      dup1\n      0x01\n      dup2\n      sload\n      add\n      dup1\n      dup3\n      sstore\n      dup1\n      swap2\n      pop\n      pop\n      0x01\n      swap1\n      sub\n      swap1\n      0x00\n      mstore\n      keccak256(0x00, 0x20)\n      swap1\n      0x06\n      mul\n      add\n      0x00\n      swap1\n      swap2\n      swap1\n      swap2\n      swap1\n      swap2\n      pop\n      0x00\n      dup3\n      add\n      mload\n      dup2\n      0x00\n      add\n      swap1\n      dup1\n      mload\n      swap1\n      0x20\n      add\n      swap1\n      tag_50\n      swap3\n      swap2\n      swap1\n      tag_51\n      jump\t// in\n    tag_50:\n      pop\n      0x20\n      dup3\n      add\n      mload\n      dup2\n      0x01\n      add\n      swap1\n      dup1\n      mload\n      swap1\n      0x20\n      add\n      swap1\n      tag_52\n      swap3\n      swap2\n      swap1\n      tag_51\n      jump\t// in\n    tag_52:\n      pop\n      0x40\n      dup3\n      add\n      mload\n      dup2\n      0x02\n      add\n      swap1\n      dup1\n      mload\n      swap1\n      0x20\n      add\n      swap1\n      tag_53\n      swap3\n      swap2\n      swap1\n      tag_51\n      jump\t// in\n    tag_53:\n      pop\n      0x60\n      dup3\n      add\n      mload\n      dup2\n      0x03\n      add\n      swap1\n      dup1\n      mload\n      swap1\n      0x20\n      add\n      swap1\n      tag_54\n      swap3\n      swap2\n      swap1\n      tag_51\n      jump\t// in\n    tag_54:\n      pop\n      0x80\n      dup3\n      add\n      mload\n      dup2\n      0x04\n      add\n      swap1\n      dup1\n      mload\n      swap1\n      0x20\n      add\n      swap1\n      tag_55\n      swap3\n      swap2\n      swap1\n      tag_51\n      jump\t// in\n    tag_55:\n      pop\n      0xa0\n      dup3\n      add\n      mload\n      dup2\n      0x05\n      add\n      exp(0x0100, 0x00)\n      dup2\n      sload\n      dup2\n      0xff\n      mul\n      not\n      and\n      swap1\n      dup4\n      0xff\n      and\n      mul\n      or\n      swap1\n      sstore\n      pop\n      0xc0\n      dup3\n      add\n      mload\n      dup2\n      0x05\n      add\n      exp(0x0100, 0x01)\n      dup2\n      sload\n      dup2\n      0xff\n      mul\n      not\n      and\n      swap1\n      dup4\n      0xff\n      and\n      mul\n      or\n      swap1\n      sstore\n      pop\n      pop\n      pop\n        /* \"contracts/CreateQuiz.sol\":812:819  uint id */\n      0x00\n        /* \"contracts/CreateQuiz.sol\":839:840  1 */\n      0x01\n        /* \"contracts/CreateQuiz.sol\":822:829  quizzes */\n      dup1\n        /* \"contracts/CreateQuiz.sol\":822:836  quizzes.length */\n      dup1\n      sload\n      swap1\n      pop\n        /* \"contracts/CreateQuiz.sol\":822:840  quizzes.length - 1 */\n      tag_56\n      swap2\n      swap1\n      tag_57\n      jump\t// in\n    tag_56:\n        /* \"contracts/CreateQuiz.sol\":812:840  uint id = quizzes.length - 1 */\n      swap1\n      pop\n        /* \"contracts/CreateQuiz.sol\":870:874  true */\n      0x01\n        /* \"contracts/CreateQuiz.sol\":850:863  quizzIsActive */\n      0x02\n        /* \"contracts/CreateQuiz.sol\":850:867  quizzIsActive[id] */\n      0x00\n        /* \"contracts/CreateQuiz.sol\":864:866  id */\n      dup4\n        /* \"contracts/CreateQuiz.sol\":850:867  quizzIsActive[id] */\n      dup2\n      mstore\n      0x20\n      add\n      swap1\n      dup2\n      mstore\n      0x20\n      add\n      0x00\n      keccak256\n      0x00\n        /* \"contracts/CreateQuiz.sol\":850:874  quizzIsActive[id] = true */\n      0x0100\n      exp\n      dup2\n      sload\n      dup2\n      0xff\n      mul\n      not\n      and\n      swap1\n      dup4\n      iszero\n      iszero\n      mul\n      or\n      swap1\n      sstore\n      pop\n        /* \"contracts/CreateQuiz.sol\":889:916  NewQuiz(_question, _answer) */\n      0x545dca5d847b655a9f03cdf5619f53f0b2546051fd0d015b18c09ae2a8b1a765\n        /* \"contracts/CreateQuiz.sol\":897:906  _question */\n      dup9\n        /* \"contracts/CreateQuiz.sol\":908:915  _answer */\n      dup5\n        /* \"contracts/CreateQuiz.sol\":889:916  NewQuiz(_question, _answer) */\n      mload(0x40)\n      tag_58\n      swap3\n      swap2\n      swap1\n      tag_59\n      jump\t// in\n    tag_58:\n      mload(0x40)\n      dup1\n      swap2\n      sub\n      swap1\n      log1\n        /* \"contracts/CreateQuiz.sol\":699:923  {... */\n      pop\n        /* \"contracts/CreateQuiz.sol\":515:923  function createQuiz(string memory _question, string memory _choice1, string memory _choice2, string memory _choice3, string memory _choice4, uint8 _answer, uint8 _languageCode) public {... */\n      pop\n      pop\n      pop\n      pop\n      pop\n      pop\n      pop\n      jump\t// out\n        /* \"contracts/Ownable.sol\":1661:1762  function renounceOwnership() public virtual onlyOwner {... */\n    tag_20:\n        /* \"contracts/Ownable.sol\":1252:1264  _msgSender() */\n      tag_61\n        /* \"contracts/Ownable.sol\":1252:1262  _msgSender */\n      tag_42\n        /* \"contracts/Ownable.sol\":1252:1264  _msgSender() */\n      jump\t// in\n    tag_61:\n        /* \"contracts/Ownable.sol\":1241:1264  owner() == _msgSender() */\n      0xffffffffffffffffffffffffffffffffffffffff\n      and\n        /* \"contracts/Ownable.sol\":1241:1248  owner() */\n      tag_62\n        /* \"contracts/Ownable.sol\":1241:1246  owner */\n      tag_28\n        /* \"contracts/Ownable.sol\":1241:1248  owner() */\n      jump\t// in\n    tag_62:\n        /* \"contracts/Ownable.sol\":1241:1264  owner() == _msgSender() */\n      0xffffffffffffffffffffffffffffffffffffffff\n      and\n      eq\n        /* \"contracts/Ownable.sol\":1233:1301  require(owner() == _msgSender(), \"Ownable: caller is not the owner\") */\n      tag_63\n      jumpi\n      mload(0x40)\n      0x08c379a000000000000000000000000000000000000000000000000000000000\n      dup2\n      mstore\n      0x04\n      add\n      tag_64\n      swap1\n      tag_46\n      jump\t// in\n    tag_64:\n      mload(0x40)\n      dup1\n      swap2\n      sub\n      swap1\n      revert\n    tag_63:\n        /* \"contracts/Ownable.sol\":1725:1755  _transferOwnership(address(0)) */\n      tag_66\n        /* \"contracts/Ownable.sol\":1752:1753  0 */\n      0x00\n        /* \"contracts/Ownable.sol\":1725:1743  _transferOwnership */\n      tag_67\n        /* \"contracts/Ownable.sol\":1725:1755  _transferOwnership(address(0)) */\n      jump\t// in\n    tag_66:\n        /* \"contracts/Ownable.sol\":1661:1762  function renounceOwnership() public virtual onlyOwner {... */\n      jump\t// out\n        /* \"contracts/CreateQuiz.sol\":375:396  Quiz[] public quizzes */\n    tag_24:\n      0x01\n      dup2\n      dup2\n      sload\n      dup2\n      lt\n      tag_68\n      jumpi\n      0x00\n      dup1\n      revert\n    tag_68:\n      swap1\n      0x00\n      mstore\n      keccak256(0x00, 0x20)\n      swap1\n      0x06\n      mul\n      add\n      0x00\n      swap2\n      pop\n      swap1\n      pop\n      dup1\n      0x00\n      add\n      dup1\n      sload\n      tag_70\n      swap1\n      tag_71\n      jump\t// in\n    tag_70:\n      dup1\n      0x1f\n      add\n      0x20\n      dup1\n      swap2\n      div\n      mul\n      0x20\n      add\n      mload(0x40)\n      swap1\n      dup2\n      add\n      0x40\n      mstore\n      dup1\n      swap3\n      swap2\n      swap1\n      dup2\n      dup2\n      mstore\n      0x20\n      add\n      dup3\n      dup1\n      sload\n      tag_72\n      swap1\n      tag_71\n      jump\t// in\n    tag_72:\n      dup1\n      iszero\n      tag_73\n      jumpi\n      dup1\n      0x1f\n      lt\n      tag_74\n      jumpi\n      0x0100\n      dup1\n      dup4\n      sload\n      div\n      mul\n      dup4\n      mstore\n      swap2\n      0x20\n      add\n      swap2\n      jump(tag_73)\n    tag_74:\n      dup3\n      add\n      swap2\n      swap1\n      0x00\n      mstore\n      keccak256(0x00, 0x20)\n      swap1\n    tag_75:\n      dup2\n      sload\n      dup2\n      mstore\n      swap1\n      0x01\n      add\n      swap1\n      0x20\n      add\n      dup1\n      dup4\n      gt\n      tag_75\n      jumpi\n      dup3\n      swap1\n      sub\n      0x1f\n      and\n      dup3\n      add\n      swap2\n    tag_73:\n      pop\n      pop\n      pop\n      pop\n      pop\n      swap1\n      dup1\n      0x01\n      add\n      dup1\n      sload\n      tag_76\n      swap1\n      tag_71\n      jump\t// in\n    tag_76:\n      dup1\n      0x1f\n      add\n      0x20\n      dup1\n      swap2\n      div\n      mul\n      0x20\n      add\n      mload(0x40)\n      swap1\n      dup2\n      add\n      0x40\n      mstore\n      dup1\n      swap3\n      swap2\n      swap1\n      dup2\n      dup2\n      mstore\n      0x20\n      add\n      dup3\n      dup1\n      sload\n      tag_77\n      swap1\n      tag_71\n      jump\t// in\n    tag_77:\n      dup1\n      iszero\n      tag_78\n      jumpi\n      dup1\n      0x1f\n      lt\n      tag_79\n      jumpi\n      0x0100\n      dup1\n      dup4\n      sload\n      div\n      mul\n      dup4\n      mstore\n      swap2\n      0x20\n      add\n      swap2\n      jump(tag_78)\n    tag_79:\n      dup3\n      add\n      swap2\n      swap1\n      0x00\n      mstore\n      keccak256(0x00, 0x20)\n      swap1\n    tag_80:\n      dup2\n      sload\n      dup2\n      mstore\n      swap1\n      0x01\n      add\n      swap1\n      0x20\n      add\n      dup1\n      dup4\n      gt\n      tag_80\n      jumpi\n      dup3\n      swap1\n      sub\n      0x1f\n      and\n      dup3\n      add\n      swap2\n    tag_78:\n      pop\n      pop\n      pop\n      pop\n      pop\n      swap1\n      dup1\n      0x02\n      add\n      dup1\n      sload\n      tag_81\n      swap1\n      tag_71\n      jump\t// in\n    tag_81:\n      dup1\n      0x1f\n      add\n      0x20\n      dup1\n      swap2\n      div\n      mul\n      0x20\n      add\n      mload(0x40)\n      swap1\n      dup2\n      add\n      0x40\n      mstore\n      dup1\n      swap3\n      swap2\n      swap1\n      dup2\n      dup2\n      mstore\n      0x20\n      add\n      dup3\n      dup1\n      sload\n      tag_82\n      swap1\n      tag_71\n      jump\t// in\n    tag_82:\n      dup1\n      iszero\n      tag_83\n      jumpi\n      dup1\n      0x1f\n      lt\n      tag_84\n      jumpi\n      0x0100\n      dup1\n      dup4\n      sload\n      div\n      mul\n      dup4\n      mstore\n      swap2\n      0x20\n      add\n      swap2\n      jump(tag_83)\n    tag_84:\n      dup3\n      add\n      swap2\n      swap1\n      0x00\n      mstore\n      keccak256(0x00, 0x20)\n      swap1\n    tag_85:\n      dup2\n      sload\n      dup2\n      mstore\n      swap1\n      0x01\n      add\n      swap1\n      0x20\n      add\n      dup1\n      dup4\n      gt\n      tag_85\n      jumpi\n      dup3\n      swap1\n      sub\n      0x1f\n      and\n      dup3\n      add\n      swap2\n    tag_83:\n      pop\n      pop\n      pop\n      pop\n      pop\n      swap1\n      dup1\n      0x03\n      add\n      dup1\n      sload\n      tag_86\n      swap1\n      tag_71\n      jump\t// in\n    tag_86:\n      dup1\n      0x1f\n      add\n      0x20\n      dup1\n      swap2\n      div\n      mul\n      0x20\n      add\n      mload(0x40)\n      swap1\n      dup2\n      add\n      0x40\n      mstore\n      dup1\n      swap3\n      swap2\n      swap1\n      dup2\n      dup2\n      mstore\n      0x20\n      add\n      dup3\n      dup1\n      sload\n      tag_87\n      swap1\n      tag_71\n      jump\t// in\n    tag_87:\n      dup1\n      iszero\n      tag_88\n      jumpi\n      dup1\n      0x1f\n      lt\n      tag_89\n      jumpi\n      0x0100\n      dup1\n      dup4\n      sload\n      div\n      mul\n      dup4\n      mstore\n      swap2\n      0x20\n      add\n      swap2\n      jump(tag_88)\n    tag_89:\n      dup3\n      add\n      swap2\n      swap1\n      0x00\n      mstore\n      keccak256(0x00, 0x20)\n      swap1\n    tag_90:\n      dup2\n      sload\n      dup2\n      mstore\n      swap1\n      0x01\n      add\n      swap1\n      0x20\n      add\n      dup1\n      dup4\n      gt\n      tag_90\n      jumpi\n      dup3\n      swap1\n      sub\n      0x1f\n      and\n      dup3\n      add\n      swap2\n    tag_88:\n      pop\n      pop\n      pop\n      pop\n      pop\n      swap1\n      dup1\n      0x04\n      add\n      dup1\n      sload\n      tag_91\n      swap1\n      tag_71\n      jump\t// in\n    tag_91:\n      dup1\n      0x1f\n      add\n      0x20\n      dup1\n      swap2\n      div\n      mul\n      0x20\n      add\n      mload(0x40)\n      swap1\n      dup2\n      add\n      0x40\n      mstore\n      dup1\n      swap3\n      swap2\n      swap1\n      dup2\n      dup2\n      mstore\n      0x20\n      add\n      dup3\n      dup1\n      sload\n      tag_92\n      swap1\n      tag_71\n      jump\t// in\n    tag_92:\n      dup1\n      iszero\n      tag_93\n      jumpi\n      dup1\n      0x1f\n      lt\n      tag_94\n      jumpi\n      0x0100\n      dup1\n      dup4\n      sload\n      div\n      mul\n      dup4\n      mstore\n      swap2\n      0x20\n      add\n      swap2\n      jump(tag_93)\n    tag_94:\n      dup3\n      add\n      swap2\n      swap1\n      0x00\n      mstore\n      keccak256(0x00, 0x20)\n      swap1\n    tag_95:\n      dup2\n      sload\n      dup2\n      mstore\n      swap1\n      0x01\n      add\n      swap1\n      0x20\n      add\n      dup1\n      dup4\n      gt\n      tag_95\n      jumpi\n      dup3\n      swap1\n      sub\n      0x1f\n      and\n      dup3\n      add\n      swap2\n    tag_93:\n      pop\n      pop\n      pop\n      pop\n      pop\n      swap1\n      dup1\n      0x05\n      add\n      0x00\n      swap1\n      sload\n      swap1\n      0x0100\n      exp\n      swap1\n      div\n      0xff\n      and\n      swap1\n      dup1\n      0x05\n      add\n      0x01\n      swap1\n      sload\n      swap1\n      0x0100\n      exp\n      swap1\n      div\n      0xff\n      and\n      swap1\n      pop\n      dup8\n      jump\t// out\n        /* \"contracts/Ownable.sol\":1029:1114  function owner() public view virtual returns (address) {... */\n    tag_28:\n        /* \"contracts/Ownable.sol\":1075:1082  address */\n      0x00\n        /* \"contracts/Ownable.sol\":1101:1107  _owner */\n      dup1\n      0x00\n      swap1\n      sload\n      swap1\n      0x0100\n      exp\n      swap1\n      div\n      0xffffffffffffffffffffffffffffffffffffffff\n      and\n        /* \"contracts/Ownable.sol\":1094:1107  return _owner */\n      swap1\n      pop\n        /* \"contracts/Ownable.sol\":1029:1114  function owner() public view virtual returns (address) {... */\n      swap1\n      jump\t// out\n        /* \"contracts/CreateQuiz.sol\":403:446  mapping (uint => bool) public quizzIsActive */\n    tag_33:\n      mstore(0x20, 0x02)\n      dup1\n      0x00\n      mstore\n      keccak256(0x00, 0x40)\n      0x00\n      swap2\n      pop\n      sload\n      swap1\n      0x0100\n      exp\n      swap1\n      div\n      0xff\n      and\n      dup2\n      jump\t// out\n        /* \"contracts/Ownable.sol\":1911:2109  function transferOwnership(address newOwner) public virtual onlyOwner {... */\n    tag_39:\n        /* \"contracts/Ownable.sol\":1252:1264  _msgSender() */\n      tag_98\n        /* \"contracts/Ownable.sol\":1252:1262  _msgSender */\n      tag_42\n        /* \"contracts/Ownable.sol\":1252:1264  _msgSender() */\n      jump\t// in\n    tag_98:\n        /* \"contracts/Ownable.sol\":1241:1264  owner() == _msgSender() */\n      0xffffffffffffffffffffffffffffffffffffffff\n      and\n        /* \"contracts/Ownable.sol\":1241:1248  owner() */\n      tag_99\n        /* \"contracts/Ownable.sol\":1241:1246  owner */\n      tag_28\n        /* \"contracts/Ownable.sol\":1241:1248  owner() */\n      jump\t// in\n    tag_99:\n        /* \"contracts/Ownable.sol\":1241:1264  owner() == _msgSender() */\n      0xffffffffffffffffffffffffffffffffffffffff\n      and\n      eq\n        /* \"contracts/Ownable.sol\":1233:1301  require(owner() == _msgSender(), \"Ownable: caller is not the owner\") */\n      tag_100\n      jumpi\n      mload(0x40)\n      0x08c379a000000000000000000000000000000000000000000000000000000000\n      dup2\n      mstore\n      0x04\n      add\n      tag_101\n      swap1\n      tag_46\n      jump\t// in\n    tag_101:\n      mload(0x40)\n      dup1\n      swap2\n      sub\n      swap1\n      revert\n    tag_100:\n        /* \"contracts/Ownable.sol\":2019:2020  0 */\n      0x00\n        /* \"contracts/Ownable.sol\":1999:2021  newOwner != address(0) */\n      0xffffffffffffffffffffffffffffffffffffffff\n      and\n        /* \"contracts/Ownable.sol\":1999:2007  newOwner */\n      dup2\n        /* \"contracts/Ownable.sol\":1999:2021  newOwner != address(0) */\n      0xffffffffffffffffffffffffffffffffffffffff\n      and\n      sub\n        /* \"contracts/Ownable.sol\":1991:2064  require(newOwner != address(0), \"Ownable: new owner is the zero address\") */\n      tag_103\n      jumpi\n      mload(0x40)\n      0x08c379a000000000000000000000000000000000000000000000000000000000\n      dup2\n      mstore\n      0x04\n      add\n      tag_104\n      swap1\n      tag_105\n      jump\t// in\n    tag_104:\n      mload(0x40)\n      dup1\n      swap2\n      sub\n      swap1\n      revert\n    tag_103:\n        /* \"contracts/Ownable.sol\":2074:2102  _transferOwnership(newOwner) */\n      tag_106\n        /* \"contracts/Ownable.sol\":2093:2101  newOwner */\n      dup2\n        /* \"contracts/Ownable.sol\":2074:2092  _transferOwnership */\n      tag_67\n        /* \"contracts/Ownable.sol\":2074:2102  _transferOwnership(newOwner) */\n      jump\t// in\n    tag_106:\n        /* \"contracts/Ownable.sol\":1911:2109  function transferOwnership(address newOwner) public virtual onlyOwner {... */\n      pop\n      jump\t// out\n        /* \"contracts/Context.sol\":640:736  function _msgSender() internal view virtual returns (address) {... */\n    tag_42:\n        /* \"contracts/Context.sol\":693:700  address */\n      0x00\n        /* \"contracts/Context.sol\":719:729  msg.sender */\n      caller\n        /* \"contracts/Context.sol\":712:729  return msg.sender */\n      swap1\n      pop\n        /* \"contracts/Context.sol\":640:736  function _msgSender() internal view virtual returns (address) {... */\n      swap1\n      jump\t// out\n        /* \"contracts/Ownable.sol\":2263:2450  function _transferOwnership(address newOwner) internal virtual {... */\n    tag_67:\n        /* \"contracts/Ownable.sol\":2336:2352  address oldOwner */\n      0x00\n        /* \"contracts/Ownable.sol\":2355:2361  _owner */\n      dup1\n      0x00\n      swap1\n      sload\n      swap1\n      0x0100\n      exp\n      swap1\n      div\n      0xffffffffffffffffffffffffffffffffffffffff\n      and\n        /* \"contracts/Ownable.sol\":2336:2361  address oldOwner = _owner */\n      swap1\n      pop\n        /* \"contracts/Ownable.sol\":2380:2388  newOwner */\n      dup2\n        /* \"contracts/Ownable.sol\":2371:2377  _owner */\n      0x00\n      dup1\n        /* \"contracts/Ownable.sol\":2371:2388  _owner = newOwner */\n      0x0100\n      exp\n      dup2\n      sload\n      dup2\n      0xffffffffffffffffffffffffffffffffffffffff\n      mul\n      not\n      and\n      swap1\n      dup4\n      0xffffffffffffffffffffffffffffffffffffffff\n      and\n      mul\n      or\n      swap1\n      sstore\n      pop\n        /* \"contracts/Ownable.sol\":2434:2442  newOwner */\n      dup2\n        /* \"contracts/Ownable.sol\":2403:2443  OwnershipTransferred(oldOwner, newOwner) */\n      0xffffffffffffffffffffffffffffffffffffffff\n      and\n        /* \"contracts/Ownable.sol\":2424:2432  oldOwner */\n      dup2\n        /* \"contracts/Ownable.sol\":2403:2443  OwnershipTransferred(oldOwner, newOwner) */\n      0xffffffffffffffffffffffffffffffffffffffff\n      and\n      0x8be0079c531659141344cd1fd0a4f28419497f9722a3daafe3b4186f6b6457e0\n      mload(0x40)\n      mload(0x40)\n      dup1\n      swap2\n      sub\n      swap1\n      log3\n        /* \"contracts/Ownable.sol\":2326:2450  {... */\n      pop\n        /* \"contracts/Ownable.sol\":2263:2450  function _transferOwnership(address newOwner) internal virtual {... */\n      pop\n      jump\t// out\n    tag_51:\n      dup3\n      dup1\n      sload\n      tag_109\n      swap1\n      tag_71\n      jump\t// in\n    tag_109:\n      swap1\n      0x00\n      mstore\n      keccak256(0x00, 0x20)\n      swap1\n      0x1f\n      add\n      0x20\n      swap1\n      div\n      dup2\n      add\n      swap3\n      dup3\n      tag_111\n      jumpi\n      0x00\n      dup6\n      sstore\n      jump(tag_110)\n    tag_111:\n      dup3\n      0x1f\n      lt\n      tag_112\n      jumpi\n      dup1\n      mload\n      not(0xff)\n      and\n      dup4\n      dup1\n      add\n      or\n      dup6\n      sstore\n      jump(tag_110)\n    tag_112:\n      dup3\n      dup1\n      add\n      0x01\n      add\n      dup6\n      sstore\n      dup3\n      iszero\n      tag_110\n      jumpi\n      swap2\n      dup3\n      add\n    tag_113:\n      dup3\n      dup2\n      gt\n      iszero\n      tag_114\n      jumpi\n      dup3\n      mload\n      dup3\n      sstore\n      swap2\n      0x20\n      add\n      swap2\n      swap1\n      0x01\n      add\n      swap1\n      jump(tag_113)\n    tag_114:\n    tag_110:\n      pop\n      swap1\n      pop\n      tag_115\n      swap2\n      swap1\n      tag_116\n      jump\t// in\n    tag_115:\n      pop\n      swap1\n      jump\t// out\n    tag_116:\n    tag_117:\n      dup1\n      dup3\n      gt\n      iszero\n      tag_118\n      jumpi\n      0x00\n      dup2\n      0x00\n      swap1\n      sstore\n      pop\n      0x01\n      add\n      jump(tag_117)\n    tag_118:\n      pop\n      swap1\n      jump\t// out\n        /* \"#utility.yul\":7:82   */\n    tag_119:\n        /* \"#utility.yul\":40:46   */\n      0x00\n        /* \"#utility.yul\":73:75   */\n      0x40\n        /* \"#utility.yul\":67:76   */\n      mload\n        /* \"#utility.yul\":57:76   */\n      swap1\n      pop\n        /* \"#utility.yul\":7:82   */\n      swap1\n      jump\t// out\n        /* \"#utility.yul\":88:205   */\n    tag_120:\n        /* \"#utility.yul\":197:198   */\n      0x00\n        /* \"#utility.yul\":194:195   */\n      dup1\n        /* \"#utility.yul\":187:199   */\n      revert\n        /* \"#utility.yul\":211:328   */\n    tag_121:\n        /* \"#utility.yul\":320:321   */\n      0x00\n        /* \"#utility.yul\":317:318   */\n      dup1\n        /* \"#utility.yul\":310:322   */\n      revert\n        /* \"#utility.yul\":334:411   */\n    tag_122:\n        /* \"#utility.yul\":371:378   */\n      0x00\n        /* \"#utility.yul\":400:405   */\n      dup2\n        /* \"#utility.yul\":389:405   */\n      swap1\n      pop\n        /* \"#utility.yul\":334:411   */\n      swap2\n      swap1\n      pop\n      jump\t// out\n        /* \"#utility.yul\":417:539   */\n    tag_123:\n        /* \"#utility.yul\":490:514   */\n      tag_164\n        /* \"#utility.yul\":508:513   */\n      dup2\n        /* \"#utility.yul\":490:514   */\n      tag_122\n      jump\t// in\n    tag_164:\n        /* \"#utility.yul\":483:488   */\n      dup2\n        /* \"#utility.yul\":480:515   */\n      eq\n        /* \"#utility.yul\":470:533   */\n      tag_165\n      jumpi\n        /* \"#utility.yul\":529:530   */\n      0x00\n        /* \"#utility.yul\":526:527   */\n      dup1\n        /* \"#utility.yul\":519:531   */\n      revert\n        /* \"#utility.yul\":470:533   */\n    tag_165:\n        /* \"#utility.yul\":417:539   */\n      pop\n      jump\t// out\n        /* \"#utility.yul\":545:684   */\n    tag_124:\n        /* \"#utility.yul\":591:596   */\n      0x00\n        /* \"#utility.yul\":629:635   */\n      dup2\n        /* \"#utility.yul\":616:636   */\n      calldataload\n        /* \"#utility.yul\":607:636   */\n      swap1\n      pop\n        /* \"#utility.yul\":645:678   */\n      tag_167\n        /* \"#utility.yul\":672:677   */\n      dup2\n        /* \"#utility.yul\":645:678   */\n      tag_123\n      jump\t// in\n    tag_167:\n        /* \"#utility.yul\":545:684   */\n      swap3\n      swap2\n      pop\n      pop\n      jump\t// out\n        /* \"#utility.yul\":690:780   */\n    tag_125:\n        /* \"#utility.yul\":724:731   */\n      0x00\n        /* \"#utility.yul\":767:772   */\n      dup2\n        /* \"#utility.yul\":760:773   */\n      iszero\n        /* \"#utility.yul\":753:774   */\n      iszero\n        /* \"#utility.yul\":742:774   */\n      swap1\n      pop\n        /* \"#utility.yul\":690:780   */\n      swap2\n      swap1\n      pop\n      jump\t// out\n        /* \"#utility.yul\":786:902   */\n    tag_126:\n        /* \"#utility.yul\":856:877   */\n      tag_170\n        /* \"#utility.yul\":871:876   */\n      dup2\n        /* \"#utility.yul\":856:877   */\n      tag_125\n      jump\t// in\n    tag_170:\n        /* \"#utility.yul\":849:854   */\n      dup2\n        /* \"#utility.yul\":846:878   */\n      eq\n        /* \"#utility.yul\":836:896   */\n      tag_171\n      jumpi\n        /* \"#utility.yul\":892:893   */\n      0x00\n        /* \"#utility.yul\":889:890   */\n      dup1\n        /* \"#utility.yul\":882:894   */\n      revert\n        /* \"#utility.yul\":836:896   */\n    tag_171:\n        /* \"#utility.yul\":786:902   */\n      pop\n      jump\t// out\n        /* \"#utility.yul\":908:1041   */\n    tag_127:\n        /* \"#utility.yul\":951:956   */\n      0x00\n        /* \"#utility.yul\":989:995   */\n      dup2\n        /* \"#utility.yul\":976:996   */\n      calldataload\n        /* \"#utility.yul\":967:996   */\n      swap1\n      pop\n        /* \"#utility.yul\":1005:1035   */\n      tag_173\n        /* \"#utility.yul\":1029:1034   */\n      dup2\n        /* \"#utility.yul\":1005:1035   */\n      tag_126\n      jump\t// in\n    tag_173:\n        /* \"#utility.yul\":908:1041   */\n      swap3\n      swap2\n      pop\n      pop\n      jump\t// out\n        /* \"#utility.yul\":1047:1515   */\n    tag_13:\n        /* \"#utility.yul\":1112:1118   */\n      0x00\n        /* \"#utility.yul\":1120:1126   */\n      dup1\n        /* \"#utility.yul\":1169:1171   */\n      0x40\n        /* \"#utility.yul\":1157:1166   */\n      dup4\n        /* \"#utility.yul\":1148:1155   */\n      dup6\n        /* \"#utility.yul\":1144:1167   */\n      sub\n        /* \"#utility.yul\":1140:1172   */\n      slt\n        /* \"#utility.yul\":1137:1256   */\n      iszero\n      tag_175\n      jumpi\n        /* \"#utility.yul\":1175:1254   */\n      tag_176\n      tag_120\n      jump\t// in\n    tag_176:\n        /* \"#utility.yul\":1137:1256   */\n    tag_175:\n        /* \"#utility.yul\":1295:1296   */\n      0x00\n        /* \"#utility.yul\":1320:1373   */\n      tag_177\n        /* \"#utility.yul\":1365:1372   */\n      dup6\n        /* \"#utility.yul\":1356:1362   */\n      dup3\n        /* \"#utility.yul\":1345:1354   */\n      dup7\n        /* \"#utility.yul\":1341:1363   */\n      add\n        /* \"#utility.yul\":1320:1373   */\n      tag_124\n      jump\t// in\n    tag_177:\n        /* \"#utility.yul\":1310:1373   */\n      swap3\n      pop\n        /* \"#utility.yul\":1266:1383   */\n      pop\n        /* \"#utility.yul\":1422:1424   */\n      0x20\n        /* \"#utility.yul\":1448:1498   */\n      tag_178\n        /* \"#utility.yul\":1490:1497   */\n      dup6\n        /* \"#utility.yul\":1481:1487   */\n      dup3\n        /* \"#utility.yul\":1470:1479   */\n      dup7\n        /* \"#utility.yul\":1466:1488   */\n      add\n        /* \"#utility.yul\":1448:1498   */\n      tag_127\n      jump\t// in\n    tag_178:\n        /* \"#utility.yul\":1438:1498   */\n      swap2\n      pop\n        /* \"#utility.yul\":1393:1508   */\n      pop\n        /* \"#utility.yul\":1047:1515   */\n      swap3\n      pop\n      swap3\n      swap1\n      pop\n      jump\t// out\n        /* \"#utility.yul\":1521:1638   */\n    tag_128:\n        /* \"#utility.yul\":1630:1631   */\n      0x00\n        /* \"#utility.yul\":1627:1628   */\n      dup1\n        /* \"#utility.yul\":1620:1632   */\n      revert\n        /* \"#utility.yul\":1644:1761   */\n    tag_129:\n        /* \"#utility.yul\":1753:1754   */\n      0x00\n        /* \"#utility.yul\":1750:1751   */\n      dup1\n        /* \"#utility.yul\":1743:1755   */\n      revert\n        /* \"#utility.yul\":1767:1869   */\n    tag_130:\n        /* \"#utility.yul\":1808:1814   */\n      0x00\n        /* \"#utility.yul\":1859:1861   */\n      0x1f\n        /* \"#utility.yul\":1855:1862   */\n      not\n        /* \"#utility.yul\":1850:1852   */\n      0x1f\n        /* \"#utility.yul\":1843:1848   */\n      dup4\n        /* \"#utility.yul\":1839:1853   */\n      add\n        /* \"#utility.yul\":1835:1863   */\n      and\n        /* \"#utility.yul\":1825:1863   */\n      swap1\n      pop\n        /* \"#utility.yul\":1767:1869   */\n      swap2\n      swap1\n      pop\n      jump\t// out\n        /* \"#utility.yul\":1875:2055   */\n    tag_131:\n        /* \"#utility.yul\":1923:2000   */\n      0x4e487b7100000000000000000000000000000000000000000000000000000000\n        /* \"#utility.yul\":1920:1921   */\n      0x00\n        /* \"#utility.yul\":1913:2001   */\n      mstore\n        /* \"#utility.yul\":2020:2024   */\n      0x41\n        /* \"#utility.yul\":2017:2018   */\n      0x04\n        /* \"#utility.yul\":2010:2025   */\n      mstore\n        /* \"#utility.yul\":2044:2048   */\n      0x24\n        /* \"#utility.yul\":2041:2042   */\n      0x00\n        /* \"#utility.yul\":2034:2049   */\n      revert\n        /* \"#utility.yul\":2061:2342   */\n    tag_132:\n        /* \"#utility.yul\":2144:2171   */\n      tag_184\n        /* \"#utility.yul\":2166:2170   */\n      dup3\n        /* \"#utility.yul\":2144:2171   */\n      tag_130\n      jump\t// in\n    tag_184:\n        /* \"#utility.yul\":2136:2142   */\n      dup2\n        /* \"#utility.yul\":2132:2172   */\n      add\n        /* \"#utility.yul\":2274:2280   */\n      dup2\n        /* \"#utility.yul\":2262:2272   */\n      dup2\n        /* \"#utility.yul\":2259:2281   */\n      lt\n        /* \"#utility.yul\":2238:2256   */\n      0xffffffffffffffff\n        /* \"#utility.yul\":2226:2236   */\n      dup3\n        /* \"#utility.yul\":2223:2257   */\n      gt\n        /* \"#utility.yul\":2220:2282   */\n      or\n        /* \"#utility.yul\":2217:2305   */\n      iszero\n      tag_185\n      jumpi\n        /* \"#utility.yul\":2285:2303   */\n      tag_186\n      tag_131\n      jump\t// in\n    tag_186:\n        /* \"#utility.yul\":2217:2305   */\n    tag_185:\n        /* \"#utility.yul\":2325:2335   */\n      dup1\n        /* \"#utility.yul\":2321:2323   */\n      0x40\n        /* \"#utility.yul\":2314:2336   */\n      mstore\n        /* \"#utility.yul\":2104:2342   */\n      pop\n        /* \"#utility.yul\":2061:2342   */\n      pop\n      pop\n      jump\t// out\n        /* \"#utility.yul\":2348:2477   */\n    tag_133:\n        /* \"#utility.yul\":2382:2388   */\n      0x00\n        /* \"#utility.yul\":2409:2429   */\n      tag_188\n      tag_119\n      jump\t// in\n    tag_188:\n        /* \"#utility.yul\":2399:2429   */\n      swap1\n      pop\n        /* \"#utility.yul\":2438:2471   */\n      tag_189\n        /* \"#utility.yul\":2466:2470   */\n      dup3\n        /* \"#utility.yul\":2458:2464   */\n      dup3\n        /* \"#utility.yul\":2438:2471   */\n      tag_132\n      jump\t// in\n    tag_189:\n        /* \"#utility.yul\":2348:2477   */\n      swap2\n      swap1\n      pop\n      jump\t// out\n        /* \"#utility.yul\":2483:2791   */\n    tag_134:\n        /* \"#utility.yul\":2545:2549   */\n      0x00\n        /* \"#utility.yul\":2635:2653   */\n      0xffffffffffffffff\n        /* \"#utility.yul\":2627:2633   */\n      dup3\n        /* \"#utility.yul\":2624:2654   */\n      gt\n        /* \"#utility.yul\":2621:2677   */\n      iszero\n      tag_191\n      jumpi\n        /* \"#utility.yul\":2657:2675   */\n      tag_192\n      tag_131\n      jump\t// in\n    tag_192:\n        /* \"#utility.yul\":2621:2677   */\n    tag_191:\n        /* \"#utility.yul\":2695:2724   */\n      tag_193\n        /* \"#utility.yul\":2717:2723   */\n      dup3\n        /* \"#utility.yul\":2695:2724   */\n      tag_130\n      jump\t// in\n    tag_193:\n        /* \"#utility.yul\":2687:2724   */\n      swap1\n      pop\n        /* \"#utility.yul\":2779:2783   */\n      0x20\n        /* \"#utility.yul\":2773:2777   */\n      dup2\n        /* \"#utility.yul\":2769:2784   */\n      add\n        /* \"#utility.yul\":2761:2784   */\n      swap1\n      pop\n        /* \"#utility.yul\":2483:2791   */\n      swap2\n      swap1\n      pop\n      jump\t// out\n        /* \"#utility.yul\":2797:2951   */\n    tag_135:\n        /* \"#utility.yul\":2881:2887   */\n      dup3\n        /* \"#utility.yul\":2876:2879   */\n      dup2\n        /* \"#utility.yul\":2871:2874   */\n      dup4\n        /* \"#utility.yul\":2858:2888   */\n      calldatacopy\n        /* \"#utility.yul\":2943:2944   */\n      0x00\n        /* \"#utility.yul\":2934:2940   */\n      dup4\n        /* \"#utility.yul\":2929:2932   */\n      dup4\n        /* \"#utility.yul\":2925:2941   */\n      add\n        /* \"#utility.yul\":2918:2945   */\n      mstore\n        /* \"#utility.yul\":2797:2951   */\n      pop\n      pop\n      pop\n      jump\t// out\n        /* \"#utility.yul\":2957:3369   */\n    tag_136:\n        /* \"#utility.yul\":3035:3040   */\n      0x00\n        /* \"#utility.yul\":3060:3126   */\n      tag_196\n        /* \"#utility.yul\":3076:3125   */\n      tag_197\n        /* \"#utility.yul\":3118:3124   */\n      dup5\n        /* \"#utility.yul\":3076:3125   */\n      tag_134\n      jump\t// in\n    tag_197:\n        /* \"#utility.yul\":3060:3126   */\n      tag_133\n      jump\t// in\n    tag_196:\n        /* \"#utility.yul\":3051:3126   */\n      swap1\n      pop\n        /* \"#utility.yul\":3149:3155   */\n      dup3\n        /* \"#utility.yul\":3142:3147   */\n      dup2\n        /* \"#utility.yul\":3135:3156   */\n      mstore\n        /* \"#utility.yul\":3187:3191   */\n      0x20\n        /* \"#utility.yul\":3180:3185   */\n      dup2\n        /* \"#utility.yul\":3176:3192   */\n      add\n        /* \"#utility.yul\":3225:3228   */\n      dup5\n        /* \"#utility.yul\":3216:3222   */\n      dup5\n        /* \"#utility.yul\":3211:3214   */\n      dup5\n        /* \"#utility.yul\":3207:3223   */\n      add\n        /* \"#utility.yul\":3204:3229   */\n      gt\n        /* \"#utility.yul\":3201:3313   */\n      iszero\n      tag_198\n      jumpi\n        /* \"#utility.yul\":3232:3311   */\n      tag_199\n      tag_129\n      jump\t// in\n    tag_199:\n        /* \"#utility.yul\":3201:3313   */\n    tag_198:\n        /* \"#utility.yul\":3322:3363   */\n      tag_200\n        /* \"#utility.yul\":3356:3362   */\n      dup5\n        /* \"#utility.yul\":3351:3354   */\n      dup3\n        /* \"#utility.yul\":3346:3349   */\n      dup6\n        /* \"#utility.yul\":3322:3363   */\n      tag_135\n      jump\t// in\n    tag_200:\n        /* \"#utility.yul\":3041:3369   */\n      pop\n        /* \"#utility.yul\":2957:3369   */\n      swap4\n      swap3\n      pop\n      pop\n      pop\n      jump\t// out\n        /* \"#utility.yul\":3389:3729   */\n    tag_137:\n        /* \"#utility.yul\":3445:3450   */\n      0x00\n        /* \"#utility.yul\":3494:3497   */\n      dup3\n        /* \"#utility.yul\":3487:3491   */\n      0x1f\n        /* \"#utility.yul\":3479:3485   */\n      dup4\n        /* \"#utility.yul\":3475:3492   */\n      add\n        /* \"#utility.yul\":3471:3498   */\n      slt\n        /* \"#utility.yul\":3461:3583   */\n      tag_202\n      jumpi\n        /* \"#utility.yul\":3502:3581   */\n      tag_203\n      tag_128\n      jump\t// in\n    tag_203:\n        /* \"#utility.yul\":3461:3583   */\n    tag_202:\n        /* \"#utility.yul\":3619:3625   */\n      dup2\n        /* \"#utility.yul\":3606:3626   */\n      calldataload\n        /* \"#utility.yul\":3644:3723   */\n      tag_204\n        /* \"#utility.yul\":3719:3722   */\n      dup5\n        /* \"#utility.yul\":3711:3717   */\n      dup3\n        /* \"#utility.yul\":3704:3708   */\n      0x20\n        /* \"#utility.yul\":3696:3702   */\n      dup7\n        /* \"#utility.yul\":3692:3709   */\n      add\n        /* \"#utility.yul\":3644:3723   */\n      tag_136\n      jump\t// in\n    tag_204:\n        /* \"#utility.yul\":3635:3723   */\n      swap2\n      pop\n        /* \"#utility.yul\":3451:3729   */\n      pop\n        /* \"#utility.yul\":3389:3729   */\n      swap3\n      swap2\n      pop\n      pop\n      jump\t// out\n        /* \"#utility.yul\":3735:3821   */\n    tag_138:\n        /* \"#utility.yul\":3770:3777   */\n      0x00\n        /* \"#utility.yul\":3810:3814   */\n      0xff\n        /* \"#utility.yul\":3803:3808   */\n      dup3\n        /* \"#utility.yul\":3799:3815   */\n      and\n        /* \"#utility.yul\":3788:3815   */\n      swap1\n      pop\n        /* \"#utility.yul\":3735:3821   */\n      swap2\n      swap1\n      pop\n      jump\t// out\n        /* \"#utility.yul\":3827:3945   */\n    tag_139:\n        /* \"#utility.yul\":3898:3920   */\n      tag_207\n        /* \"#utility.yul\":3914:3919   */\n      dup2\n        /* \"#utility.yul\":3898:3920   */\n      tag_138\n      jump\t// in\n    tag_207:\n        /* \"#utility.yul\":3891:3896   */\n      dup2\n        /* \"#utility.yul\":3888:3921   */\n      eq\n        /* \"#utility.yul\":3878:3939   */\n      tag_208\n      jumpi\n        /* \"#utility.yul\":3935:3936   */\n      0x00\n        /* \"#utility.yul\":3932:3933   */\n      dup1\n        /* \"#utility.yul\":3925:3937   */\n      revert\n        /* \"#utility.yul\":3878:3939   */\n    tag_208:\n        /* \"#utility.yul\":3827:3945   */\n      pop\n      jump\t// out\n        /* \"#utility.yul\":3951:4086   */\n    tag_140:\n        /* \"#utility.yul\":3995:4000   */\n      0x00\n        /* \"#utility.yul\":4033:4039   */\n      dup2\n        /* \"#utility.yul\":4020:4040   */\n      calldataload\n        /* \"#utility.yul\":4011:4040   */\n      swap1\n      pop\n        /* \"#utility.yul\":4049:4080   */\n      tag_210\n        /* \"#utility.yul\":4074:4079   */\n      dup2\n        /* \"#utility.yul\":4049:4080   */\n      tag_139\n      jump\t// in\n    tag_210:\n        /* \"#utility.yul\":3951:4086   */\n      swap3\n      swap2\n      pop\n      pop\n      jump\t// out\n        /* \"#utility.yul\":4092:6187   */\n    tag_17:\n        /* \"#utility.yul\":4251:4257   */\n      0x00\n        /* \"#utility.yul\":4259:4265   */\n      dup1\n        /* \"#utility.yul\":4267:4273   */\n      0x00\n        /* \"#utility.yul\":4275:4281   */\n      dup1\n        /* \"#utility.yul\":4283:4289   */\n      0x00\n        /* \"#utility.yul\":4291:4297   */\n      dup1\n        /* \"#utility.yul\":4299:4305   */\n      0x00\n        /* \"#utility.yul\":4348:4351   */\n      0xe0\n        /* \"#utility.yul\":4336:4345   */\n      dup9\n        /* \"#utility.yul\":4327:4334   */\n      dup11\n        /* \"#utility.yul\":4323:4346   */\n      sub\n        /* \"#utility.yul\":4319:4352   */\n      slt\n        /* \"#utility.yul\":4316:4436   */\n      iszero\n      tag_212\n      jumpi\n        /* \"#utility.yul\":4355:4434   */\n      tag_213\n      tag_120\n      jump\t// in\n    tag_213:\n        /* \"#utility.yul\":4316:4436   */\n    tag_212:\n        /* \"#utility.yul\":4503:4504   */\n      0x00\n        /* \"#utility.yul\":4492:4501   */\n      dup9\n        /* \"#utility.yul\":4488:4505   */\n      add\n        /* \"#utility.yul\":4475:4506   */\n      calldataload\n        /* \"#utility.yul\":4533:4551   */\n      0xffffffffffffffff\n        /* \"#utility.yul\":4525:4531   */\n      dup2\n        /* \"#utility.yul\":4522:4552   */\n      gt\n        /* \"#utility.yul\":4519:4636   */\n      iszero\n      tag_214\n      jumpi\n        /* \"#utility.yul\":4555:4634   */\n      tag_215\n      tag_121\n      jump\t// in\n    tag_215:\n        /* \"#utility.yul\":4519:4636   */\n    tag_214:\n        /* \"#utility.yul\":4660:4723   */\n      tag_216\n        /* \"#utility.yul\":4715:4722   */\n      dup11\n        /* \"#utility.yul\":4706:4712   */\n      dup3\n        /* \"#utility.yul\":4695:4704   */\n      dup12\n        /* \"#utility.yul\":4691:4713   */\n      add\n        /* \"#utility.yul\":4660:4723   */\n      tag_137\n      jump\t// in\n    tag_216:\n        /* \"#utility.yul\":4650:4723   */\n      swap8\n      pop\n        /* \"#utility.yul\":4446:4733   */\n      pop\n        /* \"#utility.yul\":4800:4802   */\n      0x20\n        /* \"#utility.yul\":4789:4798   */\n      dup9\n        /* \"#utility.yul\":4785:4803   */\n      add\n        /* \"#utility.yul\":4772:4804   */\n      calldataload\n        /* \"#utility.yul\":4831:4849   */\n      0xffffffffffffffff\n        /* \"#utility.yul\":4823:4829   */\n      dup2\n        /* \"#utility.yul\":4820:4850   */\n      gt\n        /* \"#utility.yul\":4817:4934   */\n      iszero\n      tag_217\n      jumpi\n        /* \"#utility.yul\":4853:4932   */\n      tag_218\n      tag_121\n      jump\t// in\n    tag_218:\n        /* \"#utility.yul\":4817:4934   */\n    tag_217:\n        /* \"#utility.yul\":4958:5021   */\n      tag_219\n        /* \"#utility.yul\":5013:5020   */\n      dup11\n        /* \"#utility.yul\":5004:5010   */\n      dup3\n        /* \"#utility.yul\":4993:5002   */\n      dup12\n        /* \"#utility.yul\":4989:5011   */\n      add\n        /* \"#utility.yul\":4958:5021   */\n      tag_137\n      jump\t// in\n    tag_219:\n        /* \"#utility.yul\":4948:5021   */\n      swap7\n      pop\n        /* \"#utility.yul\":4743:5031   */\n      pop\n        /* \"#utility.yul\":5098:5100   */\n      0x40\n        /* \"#utility.yul\":5087:5096   */\n      dup9\n        /* \"#utility.yul\":5083:5101   */\n      add\n        /* \"#utility.yul\":5070:5102   */\n      calldataload\n        /* \"#utility.yul\":5129:5147   */\n      0xffffffffffffffff\n        /* \"#utility.yul\":5121:5127   */\n      dup2\n        /* \"#utility.yul\":5118:5148   */\n      gt\n        /* \"#utility.yul\":5115:5232   */\n      iszero\n      tag_220\n      jumpi\n        /* \"#utility.yul\":5151:5230   */\n      tag_221\n      tag_121\n      jump\t// in\n    tag_221:\n        /* \"#utility.yul\":5115:5232   */\n    tag_220:\n        /* \"#utility.yul\":5256:5319   */\n      tag_222\n        /* \"#utility.yul\":5311:5318   */\n      dup11\n        /* \"#utility.yul\":5302:5308   */\n      dup3\n        /* \"#utility.yul\":5291:5300   */\n      dup12\n        /* \"#utility.yul\":5287:5309   */\n      add\n        /* \"#utility.yul\":5256:5319   */\n      tag_137\n      jump\t// in\n    tag_222:\n        /* \"#utility.yul\":5246:5319   */\n      swap6\n      pop\n        /* \"#utility.yul\":5041:5329   */\n      pop\n        /* \"#utility.yul\":5396:5398   */\n      0x60\n        /* \"#utility.yul\":5385:5394   */\n      dup9\n        /* \"#utility.yul\":5381:5399   */\n      add\n        /* \"#utility.yul\":5368:5400   */\n      calldataload\n        /* \"#utility.yul\":5427:5445   */\n      0xffffffffffffffff\n        /* \"#utility.yul\":5419:5425   */\n      dup2\n        /* \"#utility.yul\":5416:5446   */\n      gt\n        /* \"#utility.yul\":5413:5530   */\n      iszero\n      tag_223\n      jumpi\n        /* \"#utility.yul\":5449:5528   */\n      tag_224\n      tag_121\n      jump\t// in\n    tag_224:\n        /* \"#utility.yul\":5413:5530   */\n    tag_223:\n        /* \"#utility.yul\":5554:5617   */\n      tag_225\n        /* \"#utility.yul\":5609:5616   */\n      dup11\n        /* \"#utility.yul\":5600:5606   */\n      dup3\n        /* \"#utility.yul\":5589:5598   */\n      dup12\n        /* \"#utility.yul\":5585:5607   */\n      add\n        /* \"#utility.yul\":5554:5617   */\n      tag_137\n      jump\t// in\n    tag_225:\n        /* \"#utility.yul\":5544:5617   */\n      swap5\n      pop\n        /* \"#utility.yul\":5339:5627   */\n      pop\n        /* \"#utility.yul\":5694:5697   */\n      0x80\n        /* \"#utility.yul\":5683:5692   */\n      dup9\n        /* \"#utility.yul\":5679:5698   */\n      add\n        /* \"#utility.yul\":5666:5699   */\n      calldataload\n        /* \"#utility.yul\":5726:5744   */\n      0xffffffffffffffff\n        /* \"#utility.yul\":5718:5724   */\n      dup2\n        /* \"#utility.yul\":5715:5745   */\n      gt\n        /* \"#utility.yul\":5712:5829   */\n      iszero\n      tag_226\n      jumpi\n        /* \"#utility.yul\":5748:5827   */\n      tag_227\n      tag_121\n      jump\t// in\n    tag_227:\n        /* \"#utility.yul\":5712:5829   */\n    tag_226:\n        /* \"#utility.yul\":5853:5916   */\n      tag_228\n        /* \"#utility.yul\":5908:5915   */\n      dup11\n        /* \"#utility.yul\":5899:5905   */\n      dup3\n        /* \"#utility.yul\":5888:5897   */\n      dup12\n        /* \"#utility.yul\":5884:5906   */\n      add\n        /* \"#utility.yul\":5853:5916   */\n      tag_137\n      jump\t// in\n    tag_228:\n        /* \"#utility.yul\":5843:5916   */\n      swap4\n      pop\n        /* \"#utility.yul\":5637:5926   */\n      pop\n        /* \"#utility.yul\":5965:5968   */\n      0xa0\n        /* \"#utility.yul\":5992:6043   */\n      tag_229\n        /* \"#utility.yul\":6035:6042   */\n      dup11\n        /* \"#utility.yul\":6026:6032   */\n      dup3\n        /* \"#utility.yul\":6015:6024   */\n      dup12\n        /* \"#utility.yul\":6011:6033   */\n      add\n        /* \"#utility.yul\":5992:6043   */\n      tag_140\n      jump\t// in\n    tag_229:\n        /* \"#utility.yul\":5982:6043   */\n      swap3\n      pop\n        /* \"#utility.yul\":5936:6053   */\n      pop\n        /* \"#utility.yul\":6092:6095   */\n      0xc0\n        /* \"#utility.yul\":6119:6170   */\n      tag_230\n        /* \"#utility.yul\":6162:6169   */\n      dup11\n        /* \"#utility.yul\":6153:6159   */\n      dup3\n        /* \"#utility.yul\":6142:6151   */\n      dup12\n        /* \"#utility.yul\":6138:6160   */\n      add\n        /* \"#utility.yul\":6119:6170   */\n      tag_140\n      jump\t// in\n    tag_230:\n        /* \"#utility.yul\":6109:6170   */\n      swap2\n      pop\n        /* \"#utility.yul\":6063:6180   */\n      pop\n        /* \"#utility.yul\":4092:6187   */\n      swap3\n      swap6\n      swap9\n      swap2\n      swap5\n      swap8\n      pop\n      swap3\n      swap6\n      pop\n      jump\t// out\n        /* \"#utility.yul\":6193:6522   */\n    tag_23:\n        /* \"#utility.yul\":6252:6258   */\n      0x00\n        /* \"#utility.yul\":6301:6303   */\n      0x20\n        /* \"#utility.yul\":6289:6298   */\n      dup3\n        /* \"#utility.yul\":6280:6287   */\n      dup5\n        /* \"#utility.yul\":6276:6299   */\n      sub\n        /* \"#utility.yul\":6272:6304   */\n      slt\n        /* \"#utility.yul\":6269:6388   */\n      iszero\n      tag_232\n      jumpi\n        /* \"#utility.yul\":6307:6386   */\n      tag_233\n      tag_120\n      jump\t// in\n    tag_233:\n        /* \"#utility.yul\":6269:6388   */\n    tag_232:\n        /* \"#utility.yul\":6427:6428   */\n      0x00\n        /* \"#utility.yul\":6452:6505   */\n      tag_234\n        /* \"#utility.yul\":6497:6504   */\n      dup5\n        /* \"#utility.yul\":6488:6494   */\n      dup3\n        /* \"#utility.yul\":6477:6486   */\n      dup6\n        /* \"#utility.yul\":6473:6495   */\n      add\n        /* \"#utility.yul\":6452:6505   */\n      tag_124\n      jump\t// in\n    tag_234:\n        /* \"#utility.yul\":6442:6505   */\n      swap2\n      pop\n        /* \"#utility.yul\":6398:6515   */\n      pop\n        /* \"#utility.yul\":6193:6522   */\n      swap3\n      swap2\n      pop\n      pop\n      jump\t// out\n        /* \"#utility.yul\":6528:6627   */\n    tag_141:\n        /* \"#utility.yul\":6580:6586   */\n      0x00\n        /* \"#utility.yul\":6614:6619   */\n      dup2\n        /* \"#utility.yul\":6608:6620   */\n      mload\n        /* \"#utility.yul\":6598:6620   */\n      swap1\n      pop\n        /* \"#utility.yul\":6528:6627   */\n      swap2\n      swap1\n      pop\n      jump\t// out\n        /* \"#utility.yul\":6633:6802   */\n    tag_142:\n        /* \"#utility.yul\":6717:6728   */\n      0x00\n        /* \"#utility.yul\":6751:6757   */\n      dup3\n        /* \"#utility.yul\":6746:6749   */\n      dup3\n        /* \"#utility.yul\":6739:6758   */\n      mstore\n        /* \"#utility.yul\":6791:6795   */\n      0x20\n        /* \"#utility.yul\":6786:6789   */\n      dup3\n        /* \"#utility.yul\":6782:6796   */\n      add\n        /* \"#utility.yul\":6767:6796   */\n      swap1\n      pop\n        /* \"#utility.yul\":6633:6802   */\n      swap3\n      swap2\n      pop\n      pop\n      jump\t// out\n        /* \"#utility.yul\":6808:7115   */\n    tag_143:\n        /* \"#utility.yul\":6876:6877   */\n      0x00\n        /* \"#utility.yul\":6886:6999   */\n    tag_238:\n        /* \"#utility.yul\":6900:6906   */\n      dup4\n        /* \"#utility.yul\":6897:6898   */\n      dup2\n        /* \"#utility.yul\":6894:6907   */\n      lt\n        /* \"#utility.yul\":6886:6999   */\n      iszero\n      tag_240\n      jumpi\n        /* \"#utility.yul\":6985:6986   */\n      dup1\n        /* \"#utility.yul\":6980:6983   */\n      dup3\n        /* \"#utility.yul\":6976:6987   */\n      add\n        /* \"#utility.yul\":6970:6988   */\n      mload\n        /* \"#utility.yul\":6966:6967   */\n      dup2\n        /* \"#utility.yul\":6961:6964   */\n      dup5\n        /* \"#utility.yul\":6957:6968   */\n      add\n        /* \"#utility.yul\":6950:6989   */\n      mstore\n        /* \"#utility.yul\":6922:6924   */\n      0x20\n        /* \"#utility.yul\":6919:6920   */\n      dup2\n        /* \"#utility.yul\":6915:6925   */\n      add\n        /* \"#utility.yul\":6910:6925   */\n      swap1\n      pop\n        /* \"#utility.yul\":6886:6999   */\n      jump(tag_238)\n    tag_240:\n        /* \"#utility.yul\":7017:7023   */\n      dup4\n        /* \"#utility.yul\":7014:7015   */\n      dup2\n        /* \"#utility.yul\":7011:7024   */\n      gt\n        /* \"#utility.yul\":7008:7109   */\n      iszero\n      tag_241\n      jumpi\n        /* \"#utility.yul\":7097:7098   */\n      0x00\n        /* \"#utility.yul\":7088:7094   */\n      dup5\n        /* \"#utility.yul\":7083:7086   */\n      dup5\n        /* \"#utility.yul\":7079:7095   */\n      add\n        /* \"#utility.yul\":7072:7099   */\n      mstore\n        /* \"#utility.yul\":7008:7109   */\n    tag_241:\n        /* \"#utility.yul\":6857:7115   */\n      pop\n        /* \"#utility.yul\":6808:7115   */\n      pop\n      pop\n      pop\n      jump\t// out\n        /* \"#utility.yul\":7121:7485   */\n    tag_144:\n        /* \"#utility.yul\":7209:7212   */\n      0x00\n        /* \"#utility.yul\":7237:7276   */\n      tag_243\n        /* \"#utility.yul\":7270:7275   */\n      dup3\n        /* \"#utility.yul\":7237:7276   */\n      tag_141\n      jump\t// in\n    tag_243:\n        /* \"#utility.yul\":7292:7363   */\n      tag_244\n        /* \"#utility.yul\":7356:7362   */\n      dup2\n        /* \"#utility.yul\":7351:7354   */\n      dup6\n        /* \"#utility.yul\":7292:7363   */\n      tag_142\n      jump\t// in\n    tag_244:\n        /* \"#utility.yul\":7285:7363   */\n      swap4\n      pop\n        /* \"#utility.yul\":7372:7424   */\n      tag_245\n        /* \"#utility.yul\":7417:7423   */\n      dup2\n        /* \"#utility.yul\":7412:7415   */\n      dup6\n        /* \"#utility.yul\":7405:7409   */\n      0x20\n        /* \"#utility.yul\":7398:7403   */\n      dup7\n        /* \"#utility.yul\":7394:7410   */\n      add\n        /* \"#utility.yul\":7372:7424   */\n      tag_143\n      jump\t// in\n    tag_245:\n        /* \"#utility.yul\":7449:7478   */\n      tag_246\n        /* \"#utility.yul\":7471:7477   */\n      dup2\n        /* \"#utility.yul\":7449:7478   */\n      tag_130\n      jump\t// in\n    tag_246:\n        /* \"#utility.yul\":7444:7447   */\n      dup5\n        /* \"#utility.yul\":7440:7479   */\n      add\n        /* \"#utility.yul\":7433:7479   */\n      swap2\n      pop\n        /* \"#utility.yul\":7213:7485   */\n      pop\n        /* \"#utility.yul\":7121:7485   */\n      swap3\n      swap2\n      pop\n      pop\n      jump\t// out\n        /* \"#utility.yul\":7491:7603   */\n    tag_145:\n        /* \"#utility.yul\":7574:7596   */\n      tag_248\n        /* \"#utility.yul\":7590:7595   */\n      dup2\n        /* \"#utility.yul\":7574:7596   */\n      tag_138\n      jump\t// in\n    tag_248:\n        /* \"#utility.yul\":7569:7572   */\n      dup3\n        /* \"#utility.yul\":7562:7597   */\n      mstore\n        /* \"#utility.yul\":7491:7603   */\n      pop\n      pop\n      jump\t// out\n        /* \"#utility.yul\":7609:8934   */\n    tag_26:\n        /* \"#utility.yul\":7962:7966   */\n      0x00\n        /* \"#utility.yul\":8000:8003   */\n      0xe0\n        /* \"#utility.yul\":7989:7998   */\n      dup3\n        /* \"#utility.yul\":7985:8004   */\n      add\n        /* \"#utility.yul\":7977:8004   */\n      swap1\n      pop\n        /* \"#utility.yul\":8050:8059   */\n      dup2\n        /* \"#utility.yul\":8044:8048   */\n      dup2\n        /* \"#utility.yul\":8040:8060   */\n      sub\n        /* \"#utility.yul\":8036:8037   */\n      0x00\n        /* \"#utility.yul\":8025:8034   */\n      dup4\n        /* \"#utility.yul\":8021:8038   */\n      add\n        /* \"#utility.yul\":8014:8061   */\n      mstore\n        /* \"#utility.yul\":8078:8156   */\n      tag_250\n        /* \"#utility.yul\":8151:8155   */\n      dup2\n        /* \"#utility.yul\":8142:8148   */\n      dup11\n        /* \"#utility.yul\":8078:8156   */\n      tag_144\n      jump\t// in\n    tag_250:\n        /* \"#utility.yul\":8070:8156   */\n      swap1\n      pop\n        /* \"#utility.yul\":8203:8212   */\n      dup2\n        /* \"#utility.yul\":8197:8201   */\n      dup2\n        /* \"#utility.yul\":8193:8213   */\n      sub\n        /* \"#utility.yul\":8188:8190   */\n      0x20\n        /* \"#utility.yul\":8177:8186   */\n      dup4\n        /* \"#utility.yul\":8173:8191   */\n      add\n        /* \"#utility.yul\":8166:8214   */\n      mstore\n        /* \"#utility.yul\":8231:8309   */\n      tag_251\n        /* \"#utility.yul\":8304:8308   */\n      dup2\n        /* \"#utility.yul\":8295:8301   */\n      dup10\n        /* \"#utility.yul\":8231:8309   */\n      tag_144\n      jump\t// in\n    tag_251:\n        /* \"#utility.yul\":8223:8309   */\n      swap1\n      pop\n        /* \"#utility.yul\":8356:8365   */\n      dup2\n        /* \"#utility.yul\":8350:8354   */\n      dup2\n        /* \"#utility.yul\":8346:8366   */\n      sub\n        /* \"#utility.yul\":8341:8343   */\n      0x40\n        /* \"#utility.yul\":8330:8339   */\n      dup4\n        /* \"#utility.yul\":8326:8344   */\n      add\n        /* \"#utility.yul\":8319:8367   */\n      mstore\n        /* \"#utility.yul\":8384:8462   */\n      tag_252\n        /* \"#utility.yul\":8457:8461   */\n      dup2\n        /* \"#utility.yul\":8448:8454   */\n      dup9\n        /* \"#utility.yul\":8384:8462   */\n      tag_144\n      jump\t// in\n    tag_252:\n        /* \"#utility.yul\":8376:8462   */\n      swap1\n      pop\n        /* \"#utility.yul\":8509:8518   */\n      dup2\n        /* \"#utility.yul\":8503:8507   */\n      dup2\n        /* \"#utility.yul\":8499:8519   */\n      sub\n        /* \"#utility.yul\":8494:8496   */\n      0x60\n        /* \"#utility.yul\":8483:8492   */\n      dup4\n        /* \"#utility.yul\":8479:8497   */\n      add\n        /* \"#utility.yul\":8472:8520   */\n      mstore\n        /* \"#utility.yul\":8537:8615   */\n      tag_253\n        /* \"#utility.yul\":8610:8614   */\n      dup2\n        /* \"#utility.yul\":8601:8607   */\n      dup8\n        /* \"#utility.yul\":8537:8615   */\n      tag_144\n      jump\t// in\n    tag_253:\n        /* \"#utility.yul\":8529:8615   */\n      swap1\n      pop\n        /* \"#utility.yul\":8663:8672   */\n      dup2\n        /* \"#utility.yul\":8657:8661   */\n      dup2\n        /* \"#utility.yul\":8653:8673   */\n      sub\n        /* \"#utility.yul\":8647:8650   */\n      0x80\n        /* \"#utility.yul\":8636:8645   */\n      dup4\n        /* \"#utility.yul\":8632:8651   */\n      add\n        /* \"#utility.yul\":8625:8674   */\n      mstore\n        /* \"#utility.yul\":8691:8769   */\n      tag_254\n        /* \"#utility.yul\":8764:8768   */\n      dup2\n        /* \"#utility.yul\":8755:8761   */\n      dup7\n        /* \"#utility.yul\":8691:8769   */\n      tag_144\n      jump\t// in\n    tag_254:\n        /* \"#utility.yul\":8683:8769   */\n      swap1\n      pop\n        /* \"#utility.yul\":8779:8848   */\n      tag_255\n        /* \"#utility.yul\":8843:8846   */\n      0xa0\n        /* \"#utility.yul\":8832:8841   */\n      dup4\n        /* \"#utility.yul\":8828:8847   */\n      add\n        /* \"#utility.yul\":8819:8825   */\n      dup6\n        /* \"#utility.yul\":8779:8848   */\n      tag_145\n      jump\t// in\n    tag_255:\n        /* \"#utility.yul\":8858:8927   */\n      tag_256\n        /* \"#utility.yul\":8922:8925   */\n      0xc0\n        /* \"#utility.yul\":8911:8920   */\n      dup4\n        /* \"#utility.yul\":8907:8926   */\n      add\n        /* \"#utility.yul\":8898:8904   */\n      dup5\n        /* \"#utility.yul\":8858:8927   */\n      tag_145\n      jump\t// in\n    tag_256:\n        /* \"#utility.yul\":7609:8934   */\n      swap9\n      swap8\n      pop\n      pop\n      pop\n      pop\n      pop\n      pop\n      pop\n      pop\n      jump\t// out\n        /* \"#utility.yul\":8940:9066   */\n    tag_146:\n        /* \"#utility.yul\":8977:8984   */\n      0x00\n        /* \"#utility.yul\":9017:9059   */\n      0xffffffffffffffffffffffffffffffffffffffff\n        /* \"#utility.yul\":9010:9015   */\n      dup3\n        /* \"#utility.yul\":9006:9060   */\n      and\n        /* \"#utility.yul\":8995:9060   */\n      swap1\n      pop\n        /* \"#utility.yul\":8940:9066   */\n      swap2\n      swap1\n      pop\n      jump\t// out\n        /* \"#utility.yul\":9072:9168   */\n    tag_147:\n        /* \"#utility.yul\":9109:9116   */\n      0x00\n        /* \"#utility.yul\":9138:9162   */\n      tag_259\n        /* \"#utility.yul\":9156:9161   */\n      dup3\n        /* \"#utility.yul\":9138:9162   */\n      tag_146\n      jump\t// in\n    tag_259:\n        /* \"#utility.yul\":9127:9162   */\n      swap1\n      pop\n        /* \"#utility.yul\":9072:9168   */\n      swap2\n      swap1\n      pop\n      jump\t// out\n        /* \"#utility.yul\":9174:9292   */\n    tag_148:\n        /* \"#utility.yul\":9261:9285   */\n      tag_261\n        /* \"#utility.yul\":9279:9284   */\n      dup2\n        /* \"#utility.yul\":9261:9285   */\n      tag_147\n      jump\t// in\n    tag_261:\n        /* \"#utility.yul\":9256:9259   */\n      dup3\n        /* \"#utility.yul\":9249:9286   */\n      mstore\n        /* \"#utility.yul\":9174:9292   */\n      pop\n      pop\n      jump\t// out\n        /* \"#utility.yul\":9298:9520   */\n    tag_30:\n        /* \"#utility.yul\":9391:9395   */\n      0x00\n        /* \"#utility.yul\":9429:9431   */\n      0x20\n        /* \"#utility.yul\":9418:9427   */\n      dup3\n        /* \"#utility.yul\":9414:9432   */\n      add\n        /* \"#utility.yul\":9406:9432   */\n      swap1\n      pop\n        /* \"#utility.yul\":9442:9513   */\n      tag_263\n        /* \"#utility.yul\":9510:9511   */\n      0x00\n        /* \"#utility.yul\":9499:9508   */\n      dup4\n        /* \"#utility.yul\":9495:9512   */\n      add\n        /* \"#utility.yul\":9486:9492   */\n      dup5\n        /* \"#utility.yul\":9442:9513   */\n      tag_148\n      jump\t// in\n    tag_263:\n        /* \"#utility.yul\":9298:9520   */\n      swap3\n      swap2\n      pop\n      pop\n      jump\t// out\n        /* \"#utility.yul\":9526:9635   */\n    tag_149:\n        /* \"#utility.yul\":9607:9628   */\n      tag_265\n        /* \"#utility.yul\":9622:9627   */\n      dup2\n        /* \"#utility.yul\":9607:9628   */\n      tag_125\n      jump\t// in\n    tag_265:\n        /* \"#utility.yul\":9602:9605   */\n      dup3\n        /* \"#utility.yul\":9595:9629   */\n      mstore\n        /* \"#utility.yul\":9526:9635   */\n      pop\n      pop\n      jump\t// out\n        /* \"#utility.yul\":9641:9851   */\n    tag_35:\n        /* \"#utility.yul\":9728:9732   */\n      0x00\n        /* \"#utility.yul\":9766:9768   */\n      0x20\n        /* \"#utility.yul\":9755:9764   */\n      dup3\n        /* \"#utility.yul\":9751:9769   */\n      add\n        /* \"#utility.yul\":9743:9769   */\n      swap1\n      pop\n        /* \"#utility.yul\":9779:9844   */\n      tag_267\n        /* \"#utility.yul\":9841:9842   */\n      0x00\n        /* \"#utility.yul\":9830:9839   */\n      dup4\n        /* \"#utility.yul\":9826:9843   */\n      add\n        /* \"#utility.yul\":9817:9823   */\n      dup5\n        /* \"#utility.yul\":9779:9844   */\n      tag_149\n      jump\t// in\n    tag_267:\n        /* \"#utility.yul\":9641:9851   */\n      swap3\n      swap2\n      pop\n      pop\n      jump\t// out\n        /* \"#utility.yul\":9857:9979   */\n    tag_150:\n        /* \"#utility.yul\":9930:9954   */\n      tag_269\n        /* \"#utility.yul\":9948:9953   */\n      dup2\n        /* \"#utility.yul\":9930:9954   */\n      tag_147\n      jump\t// in\n    tag_269:\n        /* \"#utility.yul\":9923:9928   */\n      dup2\n        /* \"#utility.yul\":9920:9955   */\n      eq\n        /* \"#utility.yul\":9910:9973   */\n      tag_270\n      jumpi\n        /* \"#utility.yul\":9969:9970   */\n      0x00\n        /* \"#utility.yul\":9966:9967   */\n      dup1\n        /* \"#utility.yul\":9959:9971   */\n      revert\n        /* \"#utility.yul\":9910:9973   */\n    tag_270:\n        /* \"#utility.yul\":9857:9979   */\n      pop\n      jump\t// out\n        /* \"#utility.yul\":9985:10124   */\n    tag_151:\n        /* \"#utility.yul\":10031:10036   */\n      0x00\n        /* \"#utility.yul\":10069:10075   */\n      dup2\n        /* \"#utility.yul\":10056:10076   */\n      calldataload\n        /* \"#utility.yul\":10047:10076   */\n      swap1\n      pop\n        /* \"#utility.yul\":10085:10118   */\n      tag_272\n        /* \"#utility.yul\":10112:10117   */\n      dup2\n        /* \"#utility.yul\":10085:10118   */\n      tag_150\n      jump\t// in\n    tag_272:\n        /* \"#utility.yul\":9985:10124   */\n      swap3\n      swap2\n      pop\n      pop\n      jump\t// out\n        /* \"#utility.yul\":10130:10459   */\n    tag_38:\n        /* \"#utility.yul\":10189:10195   */\n      0x00\n        /* \"#utility.yul\":10238:10240   */\n      0x20\n        /* \"#utility.yul\":10226:10235   */\n      dup3\n        /* \"#utility.yul\":10217:10224   */\n      dup5\n        /* \"#utility.yul\":10213:10236   */\n      sub\n        /* \"#utility.yul\":10209:10241   */\n      slt\n        /* \"#utility.yul\":10206:10325   */\n      iszero\n      tag_274\n      jumpi\n        /* \"#utility.yul\":10244:10323   */\n      tag_275\n      tag_120\n      jump\t// in\n    tag_275:\n        /* \"#utility.yul\":10206:10325   */\n    tag_274:\n        /* \"#utility.yul\":10364:10365   */\n      0x00\n        /* \"#utility.yul\":10389:10442   */\n      tag_276\n        /* \"#utility.yul\":10434:10441   */\n      dup5\n        /* \"#utility.yul\":10425:10431   */\n      dup3\n        /* \"#utility.yul\":10414:10423   */\n      dup6\n        /* \"#utility.yul\":10410:10432   */\n      add\n        /* \"#utility.yul\":10389:10442   */\n      tag_151\n      jump\t// in\n    tag_276:\n        /* \"#utility.yul\":10379:10442   */\n      swap2\n      pop\n        /* \"#utility.yul\":10335:10452   */\n      pop\n        /* \"#utility.yul\":10130:10459   */\n      swap3\n      swap2\n      pop\n      pop\n      jump\t// out\n        /* \"#utility.yul\":10465:10647   */\n    tag_152:\n        /* \"#utility.yul\":10605:10639   */\n      0x4f776e61626c653a2063616c6c6572206973206e6f7420746865206f776e6572\n        /* \"#utility.yul\":10601:10602   */\n      0x00\n        /* \"#utility.yul\":10593:10599   */\n      dup3\n        /* \"#utility.yul\":10589:10603   */\n      add\n        /* \"#utility.yul\":10582:10640   */\n      mstore\n        /* \"#utility.yul\":10465:10647   */\n      pop\n      jump\t// out\n        /* \"#utility.yul\":10653:11019   */\n    tag_153:\n        /* \"#utility.yul\":10795:10798   */\n      0x00\n        /* \"#utility.yul\":10816:10883   */\n      tag_279\n        /* \"#utility.yul\":10880:10882   */\n      0x20\n        /* \"#utility.yul\":10875:10878   */\n      dup4\n        /* \"#utility.yul\":10816:10883   */\n      tag_142\n      jump\t// in\n    tag_279:\n        /* \"#utility.yul\":10809:10883   */\n      swap2\n      pop\n        /* \"#utility.yul\":10892:10985   */\n      tag_280\n        /* \"#utility.yul\":10981:10984   */\n      dup3\n        /* \"#utility.yul\":10892:10985   */\n      tag_152\n      jump\t// in\n    tag_280:\n        /* \"#utility.yul\":11010:11012   */\n      0x20\n        /* \"#utility.yul\":11005:11008   */\n      dup3\n        /* \"#utility.yul\":11001:11013   */\n      add\n        /* \"#utility.yul\":10994:11013   */\n      swap1\n      pop\n        /* \"#utility.yul\":10653:11019   */\n      swap2\n      swap1\n      pop\n      jump\t// out\n        /* \"#utility.yul\":11025:11444   */\n    tag_46:\n        /* \"#utility.yul\":11191:11195   */\n      0x00\n        /* \"#utility.yul\":11229:11231   */\n      0x20\n        /* \"#utility.yul\":11218:11227   */\n      dup3\n        /* \"#utility.yul\":11214:11232   */\n      add\n        /* \"#utility.yul\":11206:11232   */\n      swap1\n      pop\n        /* \"#utility.yul\":11278:11287   */\n      dup2\n        /* \"#utility.yul\":11272:11276   */\n      dup2\n        /* \"#utility.yul\":11268:11288   */\n      sub\n        /* \"#utility.yul\":11264:11265   */\n      0x00\n        /* \"#utility.yul\":11253:11262   */\n      dup4\n        /* \"#utility.yul\":11249:11266   */\n      add\n        /* \"#utility.yul\":11242:11289   */\n      mstore\n        /* \"#utility.yul\":11306:11437   */\n      tag_282\n        /* \"#utility.yul\":11432:11436   */\n      dup2\n        /* \"#utility.yul\":11306:11437   */\n      tag_153\n      jump\t// in\n    tag_282:\n        /* \"#utility.yul\":11298:11437   */\n      swap1\n      pop\n        /* \"#utility.yul\":11025:11444   */\n      swap2\n      swap1\n      pop\n      jump\t// out\n        /* \"#utility.yul\":11450:11630   */\n    tag_154:\n        /* \"#utility.yul\":11498:11575   */\n      0x4e487b7100000000000000000000000000000000000000000000000000000000\n        /* \"#utility.yul\":11495:11496   */\n      0x00\n        /* \"#utility.yul\":11488:11576   */\n      mstore\n        /* \"#utility.yul\":11595:11599   */\n      0x11\n        /* \"#utility.yul\":11592:11593   */\n      0x04\n        /* \"#utility.yul\":11585:11600   */\n      mstore\n        /* \"#utility.yul\":11619:11623   */\n      0x24\n        /* \"#utility.yul\":11616:11617   */\n      0x00\n        /* \"#utility.yul\":11609:11624   */\n      revert\n        /* \"#utility.yul\":11636:11827   */\n    tag_57:\n        /* \"#utility.yul\":11676:11680   */\n      0x00\n        /* \"#utility.yul\":11696:11716   */\n      tag_285\n        /* \"#utility.yul\":11714:11715   */\n      dup3\n        /* \"#utility.yul\":11696:11716   */\n      tag_122\n      jump\t// in\n    tag_285:\n        /* \"#utility.yul\":11691:11716   */\n      swap2\n      pop\n        /* \"#utility.yul\":11730:11750   */\n      tag_286\n        /* \"#utility.yul\":11748:11749   */\n      dup4\n        /* \"#utility.yul\":11730:11750   */\n      tag_122\n      jump\t// in\n    tag_286:\n        /* \"#utility.yul\":11725:11750   */\n      swap3\n      pop\n        /* \"#utility.yul\":11769:11770   */\n      dup3\n        /* \"#utility.yul\":11766:11767   */\n      dup3\n        /* \"#utility.yul\":11763:11771   */\n      lt\n        /* \"#utility.yul\":11760:11794   */\n      iszero\n      tag_287\n      jumpi\n        /* \"#utility.yul\":11774:11792   */\n      tag_288\n      tag_154\n      jump\t// in\n    tag_288:\n        /* \"#utility.yul\":11760:11794   */\n    tag_287:\n        /* \"#utility.yul\":11819:11820   */\n      dup3\n        /* \"#utility.yul\":11816:11817   */\n      dup3\n        /* \"#utility.yul\":11812:11821   */\n      sub\n        /* \"#utility.yul\":11804:11821   */\n      swap1\n      pop\n        /* \"#utility.yul\":11636:11827   */\n      swap3\n      swap2\n      pop\n      pop\n      jump\t// out\n        /* \"#utility.yul\":11833:12248   */\n    tag_59:\n        /* \"#utility.yul\":11970:11974   */\n      0x00\n        /* \"#utility.yul\":12008:12010   */\n      0x40\n        /* \"#utility.yul\":11997:12006   */\n      dup3\n        /* \"#utility.yul\":11993:12011   */\n      add\n        /* \"#utility.yul\":11985:12011   */\n      swap1\n      pop\n        /* \"#utility.yul\":12057:12066   */\n      dup2\n        /* \"#utility.yul\":12051:12055   */\n      dup2\n        /* \"#utility.yul\":12047:12067   */\n      sub\n        /* \"#utility.yul\":12043:12044   */\n      0x00\n        /* \"#utility.yul\":12032:12041   */\n      dup4\n        /* \"#utility.yul\":12028:12045   */\n      add\n        /* \"#utility.yul\":12021:12068   */\n      mstore\n        /* \"#utility.yul\":12085:12163   */\n      tag_290\n        /* \"#utility.yul\":12158:12162   */\n      dup2\n        /* \"#utility.yul\":12149:12155   */\n      dup6\n        /* \"#utility.yul\":12085:12163   */\n      tag_144\n      jump\t// in\n    tag_290:\n        /* \"#utility.yul\":12077:12163   */\n      swap1\n      pop\n        /* \"#utility.yul\":12173:12241   */\n      tag_291\n        /* \"#utility.yul\":12237:12239   */\n      0x20\n        /* \"#utility.yul\":12226:12235   */\n      dup4\n        /* \"#utility.yul\":12222:12240   */\n      add\n        /* \"#utility.yul\":12213:12219   */\n      dup5\n        /* \"#utility.yul\":12173:12241   */\n      tag_145\n      jump\t// in\n    tag_291:\n        /* \"#utility.yul\":11833:12248   */\n      swap4\n      swap3\n      pop\n      pop\n      pop\n      jump\t// out\n        /* \"#utility.yul\":12254:12434   */\n    tag_155:\n        /* \"#utility.yul\":12302:12379   */\n      0x4e487b7100000000000000000000000000000000000000000000000000000000\n        /* \"#utility.yul\":12299:12300   */\n      0x00\n        /* \"#utility.yul\":12292:12380   */\n      mstore\n        /* \"#utility.yul\":12399:12403   */\n      0x22\n        /* \"#utility.yul\":12396:12397   */\n      0x04\n        /* \"#utility.yul\":12389:12404   */\n      mstore\n        /* \"#utility.yul\":12423:12427   */\n      0x24\n        /* \"#utility.yul\":12420:12421   */\n      0x00\n        /* \"#utility.yul\":12413:12428   */\n      revert\n        /* \"#utility.yul\":12440:12760   */\n    tag_71:\n        /* \"#utility.yul\":12484:12490   */\n      0x00\n        /* \"#utility.yul\":12521:12522   */\n      0x02\n        /* \"#utility.yul\":12515:12519   */\n      dup3\n        /* \"#utility.yul\":12511:12523   */\n      div\n        /* \"#utility.yul\":12501:12523   */\n      swap1\n      pop\n        /* \"#utility.yul\":12568:12569   */\n      0x01\n        /* \"#utility.yul\":12562:12566   */\n      dup3\n        /* \"#utility.yul\":12558:12570   */\n      and\n        /* \"#utility.yul\":12589:12607   */\n      dup1\n        /* \"#utility.yul\":12579:12660   */\n      tag_294\n      jumpi\n        /* \"#utility.yul\":12645:12649   */\n      0x7f\n        /* \"#utility.yul\":12637:12643   */\n      dup3\n        /* \"#utility.yul\":12633:12650   */\n      and\n        /* \"#utility.yul\":12623:12650   */\n      swap2\n      pop\n        /* \"#utility.yul\":12579:12660   */\n    tag_294:\n        /* \"#utility.yul\":12707:12709   */\n      0x20\n        /* \"#utility.yul\":12699:12705   */\n      dup3\n        /* \"#utility.yul\":12696:12710   */\n      lt\n        /* \"#utility.yul\":12676:12694   */\n      dup2\n        /* \"#utility.yul\":12673:12711   */\n      sub\n        /* \"#utility.yul\":12670:12754   */\n      tag_295\n      jumpi\n        /* \"#utility.yul\":12726:12744   */\n      tag_296\n      tag_155\n      jump\t// in\n    tag_296:\n        /* \"#utility.yul\":12670:12754   */\n    tag_295:\n        /* \"#utility.yul\":12491:12760   */\n      pop\n        /* \"#utility.yul\":12440:12760   */\n      swap2\n      swap1\n      pop\n      jump\t// out\n        /* \"#utility.yul\":12766:12991   */\n    tag_156:\n        /* \"#utility.yul\":12906:12940   */\n      0x4f776e61626c653a206e6577206f776e657220697320746865207a65726f2061\n        /* \"#utility.yul\":12902:12903   */\n      0x00\n        /* \"#utility.yul\":12894:12900   */\n      dup3\n        /* \"#utility.yul\":12890:12904   */\n      add\n        /* \"#utility.yul\":12883:12941   */\n      mstore\n        /* \"#utility.yul\":12975:12983   */\n      0x6464726573730000000000000000000000000000000000000000000000000000\n        /* \"#utility.yul\":12970:12972   */\n      0x20\n        /* \"#utility.yul\":12962:12968   */\n      dup3\n        /* \"#utility.yul\":12958:12973   */\n      add\n        /* \"#utility.yul\":12951:12984   */\n      mstore\n        /* \"#utility.yul\":12766:12991   */\n      pop\n      jump\t// out\n        /* \"#utility.yul\":12997:13363   */\n    tag_157:\n        /* \"#utility.yul\":13139:13142   */\n      0x00\n        /* \"#utility.yul\":13160:13227   */\n      tag_299\n        /* \"#utility.yul\":13224:13226   */\n      0x26\n        /* \"#utility.yul\":13219:13222   */\n      dup4\n        /* \"#utility.yul\":13160:13227   */\n      tag_142\n      jump\t// in\n    tag_299:\n        /* \"#utility.yul\":13153:13227   */\n      swap2\n      pop\n        /* \"#utility.yul\":13236:13329   */\n      tag_300\n        /* \"#utility.yul\":13325:13328   */\n      dup3\n        /* \"#utility.yul\":13236:13329   */\n      tag_156\n      jump\t// in\n    tag_300:\n        /* \"#utility.yul\":13354:13356   */\n      0x40\n        /* \"#utility.yul\":13349:13352   */\n      dup3\n        /* \"#utility.yul\":13345:13357   */\n      add\n        /* \"#utility.yul\":13338:13357   */\n      swap1\n      pop\n        /* \"#utility.yul\":12997:13363   */\n      swap2\n      swap1\n      pop\n      jump\t// out\n        /* \"#utility.yul\":13369:13788   */\n    tag_105:\n        /* \"#utility.yul\":13535:13539   */\n      0x00\n        /* \"#utility.yul\":13573:13575   */\n      0x20\n        /* \"#utility.yul\":13562:13571   */\n      dup3\n        /* \"#utility.yul\":13558:13576   */\n      add\n        /* \"#utility.yul\":13550:13576   */\n      swap1\n      pop\n        /* \"#utility.yul\":13622:13631   */\n      dup2\n        /* \"#utility.yul\":13616:13620   */\n      dup2\n        /* \"#utility.yul\":13612:13632   */\n      sub\n        /* \"#utility.yul\":13608:13609   */\n      0x00\n        /* \"#utility.yul\":13597:13606   */\n      dup4\n        /* \"#utility.yul\":13593:13610   */\n      add\n        /* \"#utility.yul\":13586:13633   */\n      mstore\n        /* \"#utility.yul\":13650:13781   */\n      tag_302\n        /* \"#utility.yul\":13776:13780   */\n      dup2\n        /* \"#utility.yul\":13650:13781   */\n      tag_157\n      jump\t// in\n    tag_302:\n        /* \"#utility.yul\":13642:13781   */\n      swap1\n      pop\n        /* \"#utility.yul\":13369:13788   */\n      swap2\n      swap1\n      pop\n      jump\t// out\n\n    auxdata: 0xa2646970667358221220f7cf3ec58c9407b22586eafead95dcd0f6c02347f63bb534453dd9c0734b6b7964736f6c634300080e0033\n}\n",
				"bytecode": {
					"linkReferences": {},
					"object": "608060405234801561001057600080fd5b5061002d61002261003260201b60201c565b61003a60201b60201c565b6100fe565b600033905090565b60008060009054906101000a900473ffffffffffffffffffffffffffffffffffffffff169050816000806101000a81548173ffffffffffffffffffffffffffffffffffffffff021916908373ffffffffffffffffffffffffffffffffffffffff1602179055508173ffffffffffffffffffffffffffffffffffffffff168173ffffffffffffffffffffffffffffffffffffffff167f8be0079c531659141344cd1fd0a4f28419497f9722a3daafe3b4186f6b6457e060405160405180910390a35050565b6111e28061010d6000396000f3fe608060405234801561001057600080fd5b506004361061007d5760003560e01c806388409afa1161005b57806388409afa146100c45780638da5cb5b146100fa578063905bd66714610118578063f2fde38b146101485761007d565b80631d3f7559146100825780634361790f1461009e578063715018a6146100ba575b600080fd5b61009c60048036038101906100979190610a99565b610164565b005b6100b860048036038101906100b39190610c58565b61020f565b005b6100c26103cc565b005b6100de60048036038101906100d99190610d86565b610454565b6040516100f19796959493929190610e4a565b60405180910390f35b610102610768565b60405161010f9190610f1d565b60405180910390f35b610132600480360381019061012d9190610d86565b610791565b60405161013f9190610f47565b60405180910390f35b610162600480360381019061015d9190610f8e565b6107b1565b005b61016c6108a8565b73ffffffffffffffffffffffffffffffffffffffff1661018a610768565b73ffffffffffffffffffffffffffffffffffffffff16146101e0576040517f08c379a00000000000000000000000000000000000000000000000000000000081526004016101d790611007565b60405180910390fd5b806002600084815260200190815260200160002060006101000a81548160ff0219169083151502179055505050565b60016040518060e001604052808981526020018881526020018781526020018681526020018581526020018460ff1681526020018360ff168152509080600181540180825580915050600190039060005260206000209060060201600090919091909150600082015181600001908051906020019061028f929190610974565b5060208201518160010190805190602001906102ac929190610974565b5060408201518160020190805190602001906102c9929190610974565b5060608201518160030190805190602001906102e6929190610974565b506080820151816004019080519060200190610303929190610974565b5060a08201518160050160006101000a81548160ff021916908360ff16021790555060c08201518160050160016101000a81548160ff021916908360ff160217905550505060006001808054905061035b9190611056565b905060016002600083815260200190815260200160002060006101000a81548160ff0219169083151502179055507f545dca5d847b655a9f03cdf5619f53f0b2546051fd0d015b18c09ae2a8b1a76588846040516103ba92919061108a565b60405180910390a15050505050505050565b6103d46108a8565b73ffffffffffffffffffffffffffffffffffffffff166103f2610768565b73ffffffffffffffffffffffffffffffffffffffff1614610448576040517f08c379a000000000000000000000000000000000000000000000000000000000815260040161043f90611007565b60405180910390fd5b61045260006108b0565b565b6001818154811061046457600080fd5b9060005260206000209060060201600091509050806000018054610487906110e9565b80601f01602080910402602001604051908101604052809291908181526020018280546104b3906110e9565b80156105005780601f106104d557610100808354040283529160200191610500565b820191906000526020600020905b8154815290600101906020018083116104e357829003601f168201915b505050505090806001018054610515906110e9565b80601f0160208091040260200160405190810160405280929190818152602001828054610541906110e9565b801561058e5780601f106105635761010080835404028352916020019161058e565b820191906000526020600020905b81548152906001019060200180831161057157829003601f168201915b5050505050908060020180546105a3906110e9565b80601f01602080910402602001604051908101604052809291908181526020018280546105cf906110e9565b801561061c5780601f106105f15761010080835404028352916020019161061c565b820191906000526020600020905b8154815290600101906020018083116105ff57829003601f168201915b505050505090806003018054610631906110e9565b80601f016020809104026020016040519081016040528092919081815260200182805461065d906110e9565b80156106aa5780601f1061067f576101008083540402835291602001916106aa565b820191906000526020600020905b81548152906001019060200180831161068d57829003601f168201915b5050505050908060040180546106bf906110e9565b80601f01602080910402602001604051908101604052809291908181526020018280546106eb906110e9565b80156107385780601f1061070d57610100808354040283529160200191610738565b820191906000526020600020905b81548152906001019060200180831161071b57829003601f168201915b5050505050908060050160009054906101000a900460ff16908060050160019054906101000a900460ff16905087565b60008060009054906101000a900473ffffffffffffffffffffffffffffffffffffffff16905090565b60026020528060005260406000206000915054906101000a900460ff1681565b6107b96108a8565b73ffffffffffffffffffffffffffffffffffffffff166107d7610768565b73ffffffffffffffffffffffffffffffffffffffff161461082d576040517f08c379a000000000000000000000000000000000000000000000000000000000815260040161082490611007565b60405180910390fd5b600073ffffffffffffffffffffffffffffffffffffffff168173ffffffffffffffffffffffffffffffffffffffff160361089c576040517f08c379a00000000000000000000000000000000000000000000000000000000081526004016108939061118c565b60405180910390fd5b6108a5816108b0565b50565b600033905090565b60008060009054906101000a900473ffffffffffffffffffffffffffffffffffffffff169050816000806101000a81548173ffffffffffffffffffffffffffffffffffffffff021916908373ffffffffffffffffffffffffffffffffffffffff1602179055508173ffffffffffffffffffffffffffffffffffffffff168173ffffffffffffffffffffffffffffffffffffffff167f8be0079c531659141344cd1fd0a4f28419497f9722a3daafe3b4186f6b6457e060405160405180910390a35050565b828054610980906110e9565b90600052602060002090601f0160209004810192826109a257600085556109e9565b82601f106109bb57805160ff19168380011785556109e9565b828001600101855582156109e9579182015b828111156109e85782518255916020019190600101906109cd565b5b5090506109f691906109fa565b5090565b5b80821115610a135760008160009055506001016109fb565b5090565b6000604051905090565b600080fd5b600080fd5b6000819050919050565b610a3e81610a2b565b8114610a4957600080fd5b50565b600081359050610a5b81610a35565b92915050565b60008115159050919050565b610a7681610a61565b8114610a8157600080fd5b50565b600081359050610a9381610a6d565b92915050565b60008060408385031215610ab057610aaf610a21565b5b6000610abe85828601610a4c565b9250506020610acf85828601610a84565b9150509250929050565b600080fd5b600080fd5b6000601f19601f8301169050919050565b7f4e487b7100000000000000000000000000000000000000000000000000000000600052604160045260246000fd5b610b2c82610ae3565b810181811067ffffffffffffffff82111715610b4b57610b4a610af4565b5b80604052505050565b6000610b5e610a17565b9050610b6a8282610b23565b919050565b600067ffffffffffffffff821115610b8a57610b89610af4565b5b610b9382610ae3565b9050602081019050919050565b82818337600083830152505050565b6000610bc2610bbd84610b6f565b610b54565b905082815260208101848484011115610bde57610bdd610ade565b5b610be9848285610ba0565b509392505050565b600082601f830112610c0657610c05610ad9565b5b8135610c16848260208601610baf565b91505092915050565b600060ff82169050919050565b610c3581610c1f565b8114610c4057600080fd5b50565b600081359050610c5281610c2c565b92915050565b600080600080600080600060e0888a031215610c7757610c76610a21565b5b600088013567ffffffffffffffff811115610c9557610c94610a26565b5b610ca18a828b01610bf1565b975050602088013567ffffffffffffffff811115610cc257610cc1610a26565b5b610cce8a828b01610bf1565b965050604088013567ffffffffffffffff811115610cef57610cee610a26565b5b610cfb8a828b01610bf1565b955050606088013567ffffffffffffffff811115610d1c57610d1b610a26565b5b610d288a828b01610bf1565b945050608088013567ffffffffffffffff811115610d4957610d48610a26565b5b610d558a828b01610bf1565b93505060a0610d668a828b01610c43565b92505060c0610d778a828b01610c43565b91505092959891949750929550565b600060208284031215610d9c57610d9b610a21565b5b6000610daa84828501610a4c565b91505092915050565b600081519050919050565b600082825260208201905092915050565b60005b83811015610ded578082015181840152602081019050610dd2565b83811115610dfc576000848401525b50505050565b6000610e0d82610db3565b610e178185610dbe565b9350610e27818560208601610dcf565b610e3081610ae3565b840191505092915050565b610e4481610c1f565b82525050565b600060e0820190508181036000830152610e64818a610e02565b90508181036020830152610e788189610e02565b90508181036040830152610e8c8188610e02565b90508181036060830152610ea08187610e02565b90508181036080830152610eb48186610e02565b9050610ec360a0830185610e3b565b610ed060c0830184610e3b565b98975050505050505050565b600073ffffffffffffffffffffffffffffffffffffffff82169050919050565b6000610f0782610edc565b9050919050565b610f1781610efc565b82525050565b6000602082019050610f326000830184610f0e565b92915050565b610f4181610a61565b82525050565b6000602082019050610f5c6000830184610f38565b92915050565b610f6b81610efc565b8114610f7657600080fd5b50565b600081359050610f8881610f62565b92915050565b600060208284031215610fa457610fa3610a21565b5b6000610fb284828501610f79565b91505092915050565b7f4f776e61626c653a2063616c6c6572206973206e6f7420746865206f776e6572600082015250565b6000610ff1602083610dbe565b9150610ffc82610fbb565b602082019050919050565b6000602082019050818103600083015261102081610fe4565b9050919050565b7f4e487b7100000000000000000000000000000000000000000000000000000000600052601160045260246000fd5b600061106182610a2b565b915061106c83610a2b565b92508282101561107f5761107e611027565b5b828203905092915050565b600060408201905081810360008301526110a48185610e02565b90506110b36020830184610e3b565b9392505050565b7f4e487b7100000000000000000000000000000000000000000000000000000000600052602260045260246000fd5b6000600282049050600182168061110157607f821691505b602082108103611114576111136110ba565b5b50919050565b7f4f776e61626c653a206e6577206f776e657220697320746865207a65726f206160008201527f6464726573730000000000000000000000000000000000000000000000000000602082015250565b6000611176602683610dbe565b91506111818261111a565b604082019050919050565b600060208201905081810360008301526111a581611169565b905091905056fea2646970667358221220f7cf3ec58c9407b22586eafead95dcd0f6c02347f63bb534453dd9c0734b6b7964736f6c634300080e0033",
					"opcodes": "PUSH1 0x80 PUSH1 0x40 MSTORE CALLVALUE DUP1 ISZERO PUSH2 0x10 JUMPI PUSH1 0x0 DUP1 REVERT JUMPDEST POP PUSH2 0x2D PUSH2 0x22 PUSH2 0x32 PUSH1 0x20 SHL PUSH1 0x20 SHR JUMP JUMPDEST PUSH2 0x3A PUSH1 0x20 SHL PUSH1 0x20 SHR JUMP JUMPDEST PUSH2 0xFE JUMP JUMPDEST PUSH1 0x0 CALLER SWAP1 POP SWAP1 JUMP JUMPDEST PUSH1 0x0 DUP1 PUSH1 0x0 SWAP1 SLOAD SWAP1 PUSH2 0x100 EXP SWAP1 DIV PUSH20 0xFFFFFFFFFFFFFFFFFFFFFFFFFFFFFFFFFFFFFFFF AND SWAP1 POP DUP2 PUSH1 0x0 DUP1 PUSH2 0x100 EXP DUP2 SLOAD DUP2 PUSH20 0xFFFFFFFFFFFFFFFFFFFFFFFFFFFFFFFFFFFFFFFF MUL NOT AND SWAP1 DUP4 PUSH20 0xFFFFFFFFFFFFFFFFFFFFFFFFFFFFFFFFFFFFFFFF AND MUL OR SWAP1 SSTORE POP DUP2 PUSH20 0xFFFFFFFFFFFFFFFFFFFFFFFFFFFFFFFFFFFFFFFF AND DUP2 PUSH20 0xFFFFFFFFFFFFFFFFFFFFFFFFFFFFFFFFFFFFFFFF AND PUSH32 0x8BE0079C531659141344CD1FD0A4F28419497F9722A3DAAFE3B4186F6B6457E0 PUSH1 0x40 MLOAD PUSH1 0x40 MLOAD DUP1 SWAP2 SUB SWAP1 LOG3 POP POP JUMP JUMPDEST PUSH2 0x11E2 DUP1 PUSH2 0x10D PUSH1 0x0 CODECOPY PUSH1 0x0 RETURN INVALID PUSH1 0x80 PUSH1 0x40 MSTORE CALLVALUE DUP1 ISZERO PUSH2 0x10 JUMPI PUSH1 0x0 DUP1 REVERT JUMPDEST POP PUSH1 0x4 CALLDATASIZE LT PUSH2 0x7D JUMPI PUSH1 0x0 CALLDATALOAD PUSH1 0xE0 SHR DUP1 PUSH4 0x88409AFA GT PUSH2 0x5B JUMPI DUP1 PUSH4 0x88409AFA EQ PUSH2 0xC4 JUMPI DUP1 PUSH4 0x8DA5CB5B EQ PUSH2 0xFA JUMPI DUP1 PUSH4 0x905BD667 EQ PUSH2 0x118 JUMPI DUP1 PUSH4 0xF2FDE38B EQ PUSH2 0x148 JUMPI PUSH2 0x7D JUMP JUMPDEST DUP1 PUSH4 0x1D3F7559 EQ PUSH2 0x82 JUMPI DUP1 PUSH4 0x4361790F EQ PUSH2 0x9E JUMPI DUP1 PUSH4 0x715018A6 EQ PUSH2 0xBA JUMPI JUMPDEST PUSH1 0x0 DUP1 REVERT JUMPDEST PUSH2 0x9C PUSH1 0x4 DUP1 CALLDATASIZE SUB DUP2 ADD SWAP1 PUSH2 0x97 SWAP2 SWAP1 PUSH2 0xA99 JUMP JUMPDEST PUSH2 0x164 JUMP JUMPDEST STOP JUMPDEST PUSH2 0xB8 PUSH1 0x4 DUP1 CALLDATASIZE SUB DUP2 ADD SWAP1 PUSH2 0xB3 SWAP2 SWAP1 PUSH2 0xC58 JUMP JUMPDEST PUSH2 0x20F JUMP JUMPDEST STOP JUMPDEST PUSH2 0xC2 PUSH2 0x3CC JUMP JUMPDEST STOP JUMPDEST PUSH2 0xDE PUSH1 0x4 DUP1 CALLDATASIZE SUB DUP2 ADD SWAP1 PUSH2 0xD9 SWAP2 SWAP1 PUSH2 0xD86 JUMP JUMPDEST PUSH2 0x454 JUMP JUMPDEST PUSH1 0x40 MLOAD PUSH2 0xF1 SWAP8 SWAP7 SWAP6 SWAP5 SWAP4 SWAP3 SWAP2 SWAP1 PUSH2 0xE4A JUMP JUMPDEST PUSH1 0x40 MLOAD DUP1 SWAP2 SUB SWAP1 RETURN JUMPDEST PUSH2 0x102 PUSH2 0x768 JUMP JUMPDEST PUSH1 0x40 MLOAD PUSH2 0x10F SWAP2 SWAP1 PUSH2 0xF1D JUMP JUMPDEST PUSH1 0x40 MLOAD DUP1 SWAP2 SUB SWAP1 RETURN JUMPDEST PUSH2 0x132 PUSH1 0x4 DUP1 CALLDATASIZE SUB DUP2 ADD SWAP1 PUSH2 0x12D SWAP2 SWAP1 PUSH2 0xD86 JUMP JUMPDEST PUSH2 0x791 JUMP JUMPDEST PUSH1 0x40 MLOAD PUSH2 0x13F SWAP2 SWAP1 PUSH2 0xF47 JUMP JUMPDEST PUSH1 0x40 MLOAD DUP1 SWAP2 SUB SWAP1 RETURN JUMPDEST PUSH2 0x162 PUSH1 0x4 DUP1 CALLDATASIZE SUB DUP2 ADD SWAP1 PUSH2 0x15D SWAP2 SWAP1 PUSH2 0xF8E JUMP JUMPDEST PUSH2 0x7B1 JUMP JUMPDEST STOP JUMPDEST PUSH2 0x16C PUSH2 0x8A8 JUMP JUMPDEST PUSH20 0xFFFFFFFFFFFFFFFFFFFFFFFFFFFFFFFFFFFFFFFF AND PUSH2 0x18A PUSH2 0x768 JUMP JUMPDEST PUSH20 0xFFFFFFFFFFFFFFFFFFFFFFFFFFFFFFFFFFFFFFFF AND EQ PUSH2 0x1E0 JUMPI PUSH1 0x40 MLOAD PUSH32 0x8C379A000000000000000000000000000000000000000000000000000000000 DUP2 MSTORE PUSH1 0x4 ADD PUSH2 0x1D7 SWAP1 PUSH2 0x1007 JUMP JUMPDEST PUSH1 0x40 MLOAD DUP1 SWAP2 SUB SWAP1 REVERT JUMPDEST DUP1 PUSH1 0x2 PUSH1 0x0 DUP5 DUP2 MSTORE PUSH1 0x20 ADD SWAP1 DUP2 MSTORE PUSH1 0x20 ADD PUSH1 0x0 KECCAK256 PUSH1 0x0 PUSH2 0x100 EXP DUP2 SLOAD DUP2 PUSH1 0xFF MUL NOT AND SWAP1 DUP4 ISZERO ISZERO MUL OR SWAP1 SSTORE POP POP POP JUMP JUMPDEST PUSH1 0x1 PUSH1 0x40 MLOAD DUP1 PUSH1 0xE0 ADD PUSH1 0x40 MSTORE DUP1 DUP10 DUP2 MSTORE PUSH1 0x20 ADD DUP9 DUP2 MSTORE PUSH1 0x20 ADD DUP8 DUP2 MSTORE PUSH1 0x20 ADD DUP7 DUP2 MSTORE PUSH1 0x20 ADD DUP6 DUP2 MSTORE PUSH1 0x20 ADD DUP5 PUSH1 0xFF AND DUP2 MSTORE PUSH1 0x20 ADD DUP4 PUSH1 0xFF AND DUP2 MSTORE POP SWAP1 DUP1 PUSH1 0x1 DUP2 SLOAD ADD DUP1 DUP3 SSTORE DUP1 SWAP2 POP POP PUSH1 0x1 SWAP1 SUB SWAP1 PUSH1 0x0 MSTORE PUSH1 0x20 PUSH1 0x0 KECCAK256 SWAP1 PUSH1 0x6 MUL ADD PUSH1 0x0 SWAP1 SWAP2 SWAP1 SWAP2 SWAP1 SWAP2 POP PUSH1 0x0 DUP3 ADD MLOAD DUP2 PUSH1 0x0 ADD SWAP1 DUP1 MLOAD SWAP1 PUSH1 0x20 ADD SWAP1 PUSH2 0x28F SWAP3 SWAP2 SWAP1 PUSH2 0x974 JUMP JUMPDEST POP PUSH1 0x20 DUP3 ADD MLOAD DUP2 PUSH1 0x1 ADD SWAP1 DUP1 MLOAD SWAP1 PUSH1 0x20 ADD SWAP1 PUSH2 0x2AC SWAP3 SWAP2 SWAP1 PUSH2 0x974 JUMP JUMPDEST POP PUSH1 0x40 DUP3 ADD MLOAD DUP2 PUSH1 0x2 ADD SWAP1 DUP1 MLOAD SWAP1 PUSH1 0x20 ADD SWAP1 PUSH2 0x2C9 SWAP3 SWAP2 SWAP1 PUSH2 0x974 JUMP JUMPDEST POP PUSH1 0x60 DUP3 ADD MLOAD DUP2 PUSH1 0x3 ADD SWAP1 DUP1 MLOAD SWAP1 PUSH1 0x20 ADD SWAP1 PUSH2 0x2E6 SWAP3 SWAP2 SWAP1 PUSH2 0x974 JUMP JUMPDEST POP PUSH1 0x80 DUP3 ADD MLOAD DUP2 PUSH1 0x4 ADD SWAP1 DUP1 MLOAD SWAP1 PUSH1 0x20 ADD SWAP1 PUSH2 0x303 SWAP3 SWAP2 SWAP1 PUSH2 0x974 JUMP JUMPDEST POP PUSH1 0xA0 DUP3 ADD MLOAD DUP2 PUSH1 0x5 ADD PUSH1 0x0 PUSH2 0x100 EXP DUP2 SLOAD DUP2 PUSH1 0xFF MUL NOT AND SWAP1 DUP4 PUSH1 0xFF AND MUL OR SWAP1 SSTORE POP PUSH1 0xC0 DUP3 ADD MLOAD DUP2 PUSH1 0x5 ADD PUSH1 0x1 PUSH2 0x100 EXP DUP2 SLOAD DUP2 PUSH1 0xFF MUL NOT AND SWAP1 DUP4 PUSH1 0xFF AND MUL OR SWAP1 SSTORE POP POP POP PUSH1 0x0 PUSH1 0x1 DUP1 DUP1 SLOAD SWAP1 POP PUSH2 0x35B SWAP2 SWAP1 PUSH2 0x1056 JUMP JUMPDEST SWAP1 POP PUSH1 0x1 PUSH1 0x2 PUSH1 0x0 DUP4 DUP2 MSTORE PUSH1 0x20 ADD SWAP1 DUP2 MSTORE PUSH1 0x20 ADD PUSH1 0x0 KECCAK256 PUSH1 0x0 PUSH2 0x100 EXP DUP2 SLOAD DUP2 PUSH1 0xFF MUL NOT AND SWAP1 DUP4 ISZERO ISZERO MUL OR SWAP1 SSTORE POP PUSH32 0x545DCA5D847B655A9F03CDF5619F53F0B2546051FD0D015B18C09AE2A8B1A765 DUP9 DUP5 PUSH1 0x40 MLOAD PUSH2 0x3BA SWAP3 SWAP2 SWAP1 PUSH2 0x108A JUMP JUMPDEST PUSH1 0x40 MLOAD DUP1 SWAP2 SUB SWAP1 LOG1 POP POP POP POP POP POP POP POP JUMP JUMPDEST PUSH2 0x3D4 PUSH2 0x8A8 JUMP JUMPDEST PUSH20 0xFFFFFFFFFFFFFFFFFFFFFFFFFFFFFFFFFFFFFFFF AND PUSH2 0x3F2 PUSH2 0x768 JUMP JUMPDEST PUSH20 0xFFFFFFFFFFFFFFFFFFFFFFFFFFFFFFFFFFFFFFFF AND EQ PUSH2 0x448 JUMPI PUSH1 0x40 MLOAD PUSH32 0x8C379A000000000000000000000000000000000000000000000000000000000 DUP2 MSTORE PUSH1 0x4 ADD PUSH2 0x43F SWAP1 PUSH2 0x1007 JUMP JUMPDEST PUSH1 0x40 MLOAD DUP1 SWAP2 SUB SWAP1 REVERT JUMPDEST PUSH2 0x452 PUSH1 0x0 PUSH2 0x8B0 JUMP JUMPDEST JUMP JUMPDEST PUSH1 0x1 DUP2 DUP2 SLOAD DUP2 LT PUSH2 0x464 JUMPI PUSH1 0x0 DUP1 REVERT JUMPDEST SWAP1 PUSH1 0x0 MSTORE PUSH1 0x20 PUSH1 0x0 KECCAK256 SWAP1 PUSH1 0x6 MUL ADD PUSH1 0x0 SWAP2 POP SWAP1 POP DUP1 PUSH1 0x0 ADD DUP1 SLOAD PUSH2 0x487 SWAP1 PUSH2 0x10E9 JUMP JUMPDEST DUP1 PUSH1 0x1F ADD PUSH1 0x20 DUP1 SWAP2 DIV MUL PUSH1 0x20 ADD PUSH1 0x40 MLOAD SWAP1 DUP2 ADD PUSH1 0x40 MSTORE DUP1 SWAP3 SWAP2 SWAP1 DUP2 DUP2 MSTORE PUSH1 0x20 ADD DUP3 DUP1 SLOAD PUSH2 0x4B3 SWAP1 PUSH2 0x10E9 JUMP JUMPDEST DUP1 ISZERO PUSH2 0x500 JUMPI DUP1 PUSH1 0x1F LT PUSH2 0x4D5 JUMPI PUSH2 0x100 DUP1 DUP4 SLOAD DIV MUL DUP4 MSTORE SWAP2 PUSH1 0x20 ADD SWAP2 PUSH2 0x500 JUMP JUMPDEST DUP3 ADD SWAP2 SWAP1 PUSH1 0x0 MSTORE PUSH1 0x20 PUSH1 0x0 KECCAK256 SWAP1 JUMPDEST DUP2 SLOAD DUP2 MSTORE SWAP1 PUSH1 0x1 ADD SWAP1 PUSH1 0x20 ADD DUP1 DUP4 GT PUSH2 0x4E3 JUMPI DUP3 SWAP1 SUB PUSH1 0x1F AND DUP3 ADD SWAP2 JUMPDEST POP POP POP POP POP SWAP1 DUP1 PUSH1 0x1 ADD DUP1 SLOAD PUSH2 0x515 SWAP1 PUSH2 0x10E9 JUMP JUMPDEST DUP1 PUSH1 0x1F ADD PUSH1 0x20 DUP1 SWAP2 DIV MUL PUSH1 0x20 ADD PUSH1 0x40 MLOAD SWAP1 DUP2 ADD PUSH1 0x40 MSTORE DUP1 SWAP3 SWAP2 SWAP1 DUP2 DUP2 MSTORE PUSH1 0x20 ADD DUP3 DUP1 SLOAD PUSH2 0x541 SWAP1 PUSH2 0x10E9 JUMP JUMPDEST DUP1 ISZERO PUSH2 0x58E JUMPI DUP1 PUSH1 0x1F LT PUSH2 0x563 JUMPI PUSH2 0x100 DUP1 DUP4 SLOAD DIV MUL DUP4 MSTORE SWAP2 PUSH1 0x20 ADD SWAP2 PUSH2 0x58E JUMP JUMPDEST DUP3 ADD SWAP2 SWAP1 PUSH1 0x0 MSTORE PUSH1 0x20 PUSH1 0x0 KECCAK256 SWAP1 JUMPDEST DUP2 SLOAD DUP2 MSTORE SWAP1 PUSH1 0x1 ADD SWAP1 PUSH1 0x20 ADD DUP1 DUP4 GT PUSH2 0x571 JUMPI DUP3 SWAP1 SUB PUSH1 0x1F AND DUP3 ADD SWAP2 JUMPDEST POP POP POP POP POP SWAP1 DUP1 PUSH1 0x2 ADD DUP1 SLOAD PUSH2 0x5A3 SWAP1 PUSH2 0x10E9 JUMP JUMPDEST DUP1 PUSH1 0x1F ADD PUSH1 0x20 DUP1 SWAP2 DIV MUL PUSH1 0x20 ADD PUSH1 0x40 MLOAD SWAP1 DUP2 ADD PUSH1 0x40 MSTORE DUP1 SWAP3 SWAP2 SWAP1 DUP2 DUP2 MSTORE PUSH1 0x20 ADD DUP3 DUP1 SLOAD PUSH2 0x5CF SWAP1 PUSH2 0x10E9 JUMP JUMPDEST DUP1 ISZERO PUSH2 0x61C JUMPI DUP1 PUSH1 0x1F LT PUSH2 0x5F1 JUMPI PUSH2 0x100 DUP1 DUP4 SLOAD DIV MUL DUP4 MSTORE SWAP2 PUSH1 0x20 ADD SWAP2 PUSH2 0x61C JUMP JUMPDEST DUP3 ADD SWAP2 SWAP1 PUSH1 0x0 MSTORE PUSH1 0x20 PUSH1 0x0 KECCAK256 SWAP1 JUMPDEST DUP2 SLOAD DUP2 MSTORE SWAP1 PUSH1 0x1 ADD SWAP1 PUSH1 0x20 ADD DUP1 DUP4 GT PUSH2 0x5FF JUMPI DUP3 SWAP1 SUB PUSH1 0x1F AND DUP3 ADD SWAP2 JUMPDEST POP POP POP POP POP SWAP1 DUP1 PUSH1 0x3 ADD DUP1 SLOAD PUSH2 0x631 SWAP1 PUSH2 0x10E9 JUMP JUMPDEST DUP1 PUSH1 0x1F ADD PUSH1 0x20 DUP1 SWAP2 DIV MUL PUSH1 0x20 ADD PUSH1 0x40 MLOAD SWAP1 DUP2 ADD PUSH1 0x40 MSTORE DUP1 SWAP3 SWAP2 SWAP1 DUP2 DUP2 MSTORE PUSH1 0x20 ADD DUP3 DUP1 SLOAD PUSH2 0x65D SWAP1 PUSH2 0x10E9 JUMP JUMPDEST DUP1 ISZERO PUSH2 0x6AA JUMPI DUP1 PUSH1 0x1F LT PUSH2 0x67F JUMPI PUSH2 0x100 DUP1 DUP4 SLOAD DIV MUL DUP4 MSTORE SWAP2 PUSH1 0x20 ADD SWAP2 PUSH2 0x6AA JUMP JUMPDEST DUP3 ADD SWAP2 SWAP1 PUSH1 0x0 MSTORE PUSH1 0x20 PUSH1 0x0 KECCAK256 SWAP1 JUMPDEST DUP2 SLOAD DUP2 MSTORE SWAP1 PUSH1 0x1 ADD SWAP1 PUSH1 0x20 ADD DUP1 DUP4 GT PUSH2 0x68D JUMPI DUP3 SWAP1 SUB PUSH1 0x1F AND DUP3 ADD SWAP2 JUMPDEST POP POP POP POP POP SWAP1 DUP1 PUSH1 0x4 ADD DUP1 SLOAD PUSH2 0x6BF SWAP1 PUSH2 0x10E9 JUMP JUMPDEST DUP1 PUSH1 0x1F ADD PUSH1 0x20 DUP1 SWAP2 DIV MUL PUSH1 0x20 ADD PUSH1 0x40 MLOAD SWAP1 DUP2 ADD PUSH1 0x40 MSTORE DUP1 SWAP3 SWAP2 SWAP1 DUP2 DUP2 MSTORE PUSH1 0x20 ADD DUP3 DUP1 SLOAD PUSH2 0x6EB SWAP1 PUSH2 0x10E9 JUMP JUMPDEST DUP1 ISZERO PUSH2 0x738 JUMPI DUP1 PUSH1 0x1F LT PUSH2 0x70D JUMPI PUSH2 0x100 DUP1 DUP4 SLOAD DIV MUL DUP4 MSTORE SWAP2 PUSH1 0x20 ADD SWAP2 PUSH2 0x738 JUMP JUMPDEST DUP3 ADD SWAP2 SWAP1 PUSH1 0x0 MSTORE PUSH1 0x20 PUSH1 0x0 KECCAK256 SWAP1 JUMPDEST DUP2 SLOAD DUP2 MSTORE SWAP1 PUSH1 0x1 ADD SWAP1 PUSH1 0x20 ADD DUP1 DUP4 GT PUSH2 0x71B JUMPI DUP3 SWAP1 SUB PUSH1 0x1F AND DUP3 ADD SWAP2 JUMPDEST POP POP POP POP POP SWAP1 DUP1 PUSH1 0x5 ADD PUSH1 0x0 SWAP1 SLOAD SWAP1 PUSH2 0x100 EXP SWAP1 DIV PUSH1 0xFF AND SWAP1 DUP1 PUSH1 0x5 ADD PUSH1 0x1 SWAP1 SLOAD SWAP1 PUSH2 0x100 EXP SWAP1 DIV PUSH1 0xFF AND SWAP1 POP DUP8 JUMP JUMPDEST PUSH1 0x0 DUP1 PUSH1 0x0 SWAP1 SLOAD SWAP1 PUSH2 0x100 EXP SWAP1 DIV PUSH20 0xFFFFFFFFFFFFFFFFFFFFFFFFFFFFFFFFFFFFFFFF AND SWAP1 POP SWAP1 JUMP JUMPDEST PUSH1 0x2 PUSH1 0x20 MSTORE DUP1 PUSH1 0x0 MSTORE PUSH1 0x40 PUSH1 0x0 KECCAK256 PUSH1 0x0 SWAP2 POP SLOAD SWAP1 PUSH2 0x100 EXP SWAP1 DIV PUSH1 0xFF AND DUP2 JUMP JUMPDEST PUSH2 0x7B9 PUSH2 0x8A8 JUMP JUMPDEST PUSH20 0xFFFFFFFFFFFFFFFFFFFFFFFFFFFFFFFFFFFFFFFF AND PUSH2 0x7D7 PUSH2 0x768 JUMP JUMPDEST PUSH20 0xFFFFFFFFFFFFFFFFFFFFFFFFFFFFFFFFFFFFFFFF AND EQ PUSH2 0x82D JUMPI PUSH1 0x40 MLOAD PUSH32 0x8C379A000000000000000000000000000000000000000000000000000000000 DUP2 MSTORE PUSH1 0x4 ADD PUSH2 0x824 SWAP1 PUSH2 0x1007 JUMP JUMPDEST PUSH1 0x40 MLOAD DUP1 SWAP2 SUB SWAP1 REVERT JUMPDEST PUSH1 0x0 PUSH20 0xFFFFFFFFFFFFFFFFFFFFFFFFFFFFFFFFFFFFFFFF AND DUP2 PUSH20 0xFFFFFFFFFFFFFFFFFFFFFFFFFFFFFFFFFFFFFFFF AND SUB PUSH2 0x89C JUMPI PUSH1 0x40 MLOAD PUSH32 0x8C379A000000000000000000000000000000000000000000000000000000000 DUP2 MSTORE PUSH1 0x4 ADD PUSH2 0x893 SWAP1 PUSH2 0x118C JUMP JUMPDEST PUSH1 0x40 MLOAD DUP1 SWAP2 SUB SWAP1 REVERT JUMPDEST PUSH2 0x8A5 DUP2 PUSH2 0x8B0 JUMP JUMPDEST POP JUMP JUMPDEST PUSH1 0x0 CALLER SWAP1 POP SWAP1 JUMP JUMPDEST PUSH1 0x0 DUP1 PUSH1 0x0 SWAP1 SLOAD SWAP1 PUSH2 0x100 EXP SWAP1 DIV PUSH20 0xFFFFFFFFFFFFFFFFFFFFFFFFFFFFFFFFFFFFFFFF AND SWAP1 POP DUP2 PUSH1 0x0 DUP1 PUSH2 0x100 EXP DUP2 SLOAD DUP2 PUSH20 0xFFFFFFFFFFFFFFFFFFFFFFFFFFFFFFFFFFFFFFFF MUL NOT AND SWAP1 DUP4 PUSH20 0xFFFFFFFFFFFFFFFFFFFFFFFFFFFFFFFFFFFFFFFF AND MUL OR SWAP1 SSTORE POP DUP2 PUSH20 0xFFFFFFFFFFFFFFFFFFFFFFFFFFFFFFFFFFFFFFFF AND DUP2 PUSH20 0xFFFFFFFFFFFFFFFFFFFFFFFFFFFFFFFFFFFFFFFF AND PUSH32 0x8BE0079C531659141344CD1FD0A4F28419497F9722A3DAAFE3B4186F6B6457E0 PUSH1 0x40 MLOAD PUSH1 0x40 MLOAD DUP1 SWAP2 SUB SWAP1 LOG3 POP POP JUMP JUMPDEST DUP3 DUP1 SLOAD PUSH2 0x980 SWAP1 PUSH2 0x10E9 JUMP JUMPDEST SWAP1 PUSH1 0x0 MSTORE PUSH1 0x20 PUSH1 0x0 KECCAK256 SWAP1 PUSH1 0x1F ADD PUSH1 0x20 SWAP1 DIV DUP2 ADD SWAP3 DUP3 PUSH2 0x9A2 JUMPI PUSH1 0x0 DUP6 SSTORE PUSH2 0x9E9 JUMP JUMPDEST DUP3 PUSH1 0x1F LT PUSH2 0x9BB JUMPI DUP1 MLOAD PUSH1 0xFF NOT AND DUP4 DUP1 ADD OR DUP6 SSTORE PUSH2 0x9E9 JUMP JUMPDEST DUP3 DUP1 ADD PUSH1 0x1 ADD DUP6 SSTORE DUP3 ISZERO PUSH2 0x9E9 JUMPI SWAP2 DUP3 ADD JUMPDEST DUP3 DUP2 GT ISZERO PUSH2 0x9E8 JUMPI DUP3 MLOAD DUP3 SSTORE SWAP2 PUSH1 0x20 ADD SWAP2 SWAP1 PUSH1 0x1 ADD SWAP1 PUSH2 0x9CD JUMP JUMPDEST JUMPDEST POP SWAP1 POP PUSH2 0x9F6 SWAP2 SWAP1 PUSH2 0x9FA JUMP JUMPDEST POP SWAP1 JUMP JUMPDEST JUMPDEST DUP1 DUP3 GT ISZERO PUSH2 0xA13 JUMPI PUSH1 0x0 DUP2 PUSH1 0x0 SWAP1 SSTORE POP PUSH1 0x1 ADD PUSH2 0x9FB JUMP JUMPDEST POP SWAP1 JUMP JUMPDEST PUSH1 0x0 PUSH1 0x40 MLOAD SWAP1 POP SWAP1 JUMP JUMPDEST PUSH1 0x0 DUP1 REVERT JUMPDEST PUSH1 0x0 DUP1 REVERT JUMPDEST PUSH1 0x0 DUP2 SWAP1 POP SWAP2 SWAP1 POP JUMP JUMPDEST PUSH2 0xA3E DUP2 PUSH2 0xA2B JUMP JUMPDEST DUP2 EQ PUSH2 0xA49 JUMPI PUSH1 0x0 DUP1 REVERT JUMPDEST POP JUMP JUMPDEST PUSH1 0x0 DUP2 CALLDATALOAD SWAP1 POP PUSH2 0xA5B DUP2 PUSH2 0xA35 JUMP JUMPDEST SWAP3 SWAP2 POP POP JUMP JUMPDEST PUSH1 0x0 DUP2 ISZERO ISZERO SWAP1 POP SWAP2 SWAP1 POP JUMP JUMPDEST PUSH2 0xA76 DUP2 PUSH2 0xA61 JUMP JUMPDEST DUP2 EQ PUSH2 0xA81 JUMPI PUSH1 0x0 DUP1 REVERT JUMPDEST POP JUMP JUMPDEST PUSH1 0x0 DUP2 CALLDATALOAD SWAP1 POP PUSH2 0xA93 DUP2 PUSH2 0xA6D JUMP JUMPDEST SWAP3 SWAP2 POP POP JUMP JUMPDEST PUSH1 0x0 DUP1 PUSH1 0x40 DUP4 DUP6 SUB SLT ISZERO PUSH2 0xAB0 JUMPI PUSH2 0xAAF PUSH2 0xA21 JUMP JUMPDEST JUMPDEST PUSH1 0x0 PUSH2 0xABE DUP6 DUP3 DUP7 ADD PUSH2 0xA4C JUMP JUMPDEST SWAP3 POP POP PUSH1 0x20 PUSH2 0xACF DUP6 DUP3 DUP7 ADD PUSH2 0xA84 JUMP JUMPDEST SWAP2 POP POP SWAP3 POP SWAP3 SWAP1 POP JUMP JUMPDEST PUSH1 0x0 DUP1 REVERT JUMPDEST PUSH1 0x0 DUP1 REVERT JUMPDEST PUSH1 0x0 PUSH1 0x1F NOT PUSH1 0x1F DUP4 ADD AND SWAP1 POP SWAP2 SWAP1 POP JUMP JUMPDEST PUSH32 0x4E487B7100000000000000000000000000000000000000000000000000000000 PUSH1 0x0 MSTORE PUSH1 0x41 PUSH1 0x4 MSTORE PUSH1 0x24 PUSH1 0x0 REVERT JUMPDEST PUSH2 0xB2C DUP3 PUSH2 0xAE3 JUMP JUMPDEST DUP2 ADD DUP2 DUP2 LT PUSH8 0xFFFFFFFFFFFFFFFF DUP3 GT OR ISZERO PUSH2 0xB4B JUMPI PUSH2 0xB4A PUSH2 0xAF4 JUMP JUMPDEST JUMPDEST DUP1 PUSH1 0x40 MSTORE POP POP POP JUMP JUMPDEST PUSH1 0x0 PUSH2 0xB5E PUSH2 0xA17 JUMP JUMPDEST SWAP1 POP PUSH2 0xB6A DUP3 DUP3 PUSH2 0xB23 JUMP JUMPDEST SWAP2 SWAP1 POP JUMP JUMPDEST PUSH1 0x0 PUSH8 0xFFFFFFFFFFFFFFFF DUP3 GT ISZERO PUSH2 0xB8A JUMPI PUSH2 0xB89 PUSH2 0xAF4 JUMP JUMPDEST JUMPDEST PUSH2 0xB93 DUP3 PUSH2 0xAE3 JUMP JUMPDEST SWAP1 POP PUSH1 0x20 DUP2 ADD SWAP1 POP SWAP2 SWAP1 POP JUMP JUMPDEST DUP3 DUP2 DUP4 CALLDATACOPY PUSH1 0x0 DUP4 DUP4 ADD MSTORE POP POP POP JUMP JUMPDEST PUSH1 0x0 PUSH2 0xBC2 PUSH2 0xBBD DUP5 PUSH2 0xB6F JUMP JUMPDEST PUSH2 0xB54 JUMP JUMPDEST SWAP1 POP DUP3 DUP2 MSTORE PUSH1 0x20 DUP2 ADD DUP5 DUP5 DUP5 ADD GT ISZERO PUSH2 0xBDE JUMPI PUSH2 0xBDD PUSH2 0xADE JUMP JUMPDEST JUMPDEST PUSH2 0xBE9 DUP5 DUP3 DUP6 PUSH2 0xBA0 JUMP JUMPDEST POP SWAP4 SWAP3 POP POP POP JUMP JUMPDEST PUSH1 0x0 DUP3 PUSH1 0x1F DUP4 ADD SLT PUSH2 0xC06 JUMPI PUSH2 0xC05 PUSH2 0xAD9 JUMP JUMPDEST JUMPDEST DUP2 CALLDATALOAD PUSH2 0xC16 DUP5 DUP3 PUSH1 0x20 DUP7 ADD PUSH2 0xBAF JUMP JUMPDEST SWAP2 POP POP SWAP3 SWAP2 POP POP JUMP JUMPDEST PUSH1 0x0 PUSH1 0xFF DUP3 AND SWAP1 POP SWAP2 SWAP1 POP JUMP JUMPDEST PUSH2 0xC35 DUP2 PUSH2 0xC1F JUMP JUMPDEST DUP2 EQ PUSH2 0xC40 JUMPI PUSH1 0x0 DUP1 REVERT JUMPDEST POP JUMP JUMPDEST PUSH1 0x0 DUP2 CALLDATALOAD SWAP1 POP PUSH2 0xC52 DUP2 PUSH2 0xC2C JUMP JUMPDEST SWAP3 SWAP2 POP POP JUMP JUMPDEST PUSH1 0x0 DUP1 PUSH1 0x0 DUP1 PUSH1 0x0 DUP1 PUSH1 0x0 PUSH1 0xE0 DUP9 DUP11 SUB SLT ISZERO PUSH2 0xC77 JUMPI PUSH2 0xC76 PUSH2 0xA21 JUMP JUMPDEST JUMPDEST PUSH1 0x0 DUP9 ADD CALLDATALOAD PUSH8 0xFFFFFFFFFFFFFFFF DUP2 GT ISZERO PUSH2 0xC95 JUMPI PUSH2 0xC94 PUSH2 0xA26 JUMP JUMPDEST JUMPDEST PUSH2 0xCA1 DUP11 DUP3 DUP12 ADD PUSH2 0xBF1 JUMP JUMPDEST SWAP8 POP POP PUSH1 0x20 DUP9 ADD CALLDATALOAD PUSH8 0xFFFFFFFFFFFFFFFF DUP2 GT ISZERO PUSH2 0xCC2 JUMPI PUSH2 0xCC1 PUSH2 0xA26 JUMP JUMPDEST JUMPDEST PUSH2 0xCCE DUP11 DUP3 DUP12 ADD PUSH2 0xBF1 JUMP JUMPDEST SWAP7 POP POP PUSH1 0x40 DUP9 ADD CALLDATALOAD PUSH8 0xFFFFFFFFFFFFFFFF DUP2 GT ISZERO PUSH2 0xCEF JUMPI PUSH2 0xCEE PUSH2 0xA26 JUMP JUMPDEST JUMPDEST PUSH2 0xCFB DUP11 DUP3 DUP12 ADD PUSH2 0xBF1 JUMP JUMPDEST SWAP6 POP POP PUSH1 0x60 DUP9 ADD CALLDATALOAD PUSH8 0xFFFFFFFFFFFFFFFF DUP2 GT ISZERO PUSH2 0xD1C JUMPI PUSH2 0xD1B PUSH2 0xA26 JUMP JUMPDEST JUMPDEST PUSH2 0xD28 DUP11 DUP3 DUP12 ADD PUSH2 0xBF1 JUMP JUMPDEST SWAP5 POP POP PUSH1 0x80 DUP9 ADD CALLDATALOAD PUSH8 0xFFFFFFFFFFFFFFFF DUP2 GT ISZERO PUSH2 0xD49 JUMPI PUSH2 0xD48 PUSH2 0xA26 JUMP JUMPDEST JUMPDEST PUSH2 0xD55 DUP11 DUP3 DUP12 ADD PUSH2 0xBF1 JUMP JUMPDEST SWAP4 POP POP PUSH1 0xA0 PUSH2 0xD66 DUP11 DUP3 DUP12 ADD PUSH2 0xC43 JUMP JUMPDEST SWAP3 POP POP PUSH1 0xC0 PUSH2 0xD77 DUP11 DUP3 DUP12 ADD PUSH2 0xC43 JUMP JUMPDEST SWAP2 POP POP SWAP3 SWAP6 SWAP9 SWAP2 SWAP5 SWAP8 POP SWAP3 SWAP6 POP JUMP JUMPDEST PUSH1 0x0 PUSH1 0x20 DUP3 DUP5 SUB SLT ISZERO PUSH2 0xD9C JUMPI PUSH2 0xD9B PUSH2 0xA21 JUMP JUMPDEST JUMPDEST PUSH1 0x0 PUSH2 0xDAA DUP5 DUP3 DUP6 ADD PUSH2 0xA4C JUMP JUMPDEST SWAP2 POP POP SWAP3 SWAP2 POP POP JUMP JUMPDEST PUSH1 0x0 DUP2 MLOAD SWAP1 POP SWAP2 SWAP1 POP JUMP JUMPDEST PUSH1 0x0 DUP3 DUP3 MSTORE PUSH1 0x20 DUP3 ADD SWAP1 POP SWAP3 SWAP2 POP POP JUMP JUMPDEST PUSH1 0x0 JUMPDEST DUP4 DUP2 LT ISZERO PUSH2 0xDED JUMPI DUP1 DUP3 ADD MLOAD DUP2 DUP5 ADD MSTORE PUSH1 0x20 DUP2 ADD SWAP1 POP PUSH2 0xDD2 JUMP JUMPDEST DUP4 DUP2 GT ISZERO PUSH2 0xDFC JUMPI PUSH1 0x0 DUP5 DUP5 ADD MSTORE JUMPDEST POP POP POP POP JUMP JUMPDEST PUSH1 0x0 PUSH2 0xE0D DUP3 PUSH2 0xDB3 JUMP JUMPDEST PUSH2 0xE17 DUP2 DUP6 PUSH2 0xDBE JUMP JUMPDEST SWAP4 POP PUSH2 0xE27 DUP2 DUP6 PUSH1 0x20 DUP7 ADD PUSH2 0xDCF JUMP JUMPDEST PUSH2 0xE30 DUP2 PUSH2 0xAE3 JUMP JUMPDEST DUP5 ADD SWAP2 POP POP SWAP3 SWAP2 POP POP JUMP JUMPDEST PUSH2 0xE44 DUP2 PUSH2 0xC1F JUMP JUMPDEST DUP3 MSTORE POP POP JUMP JUMPDEST PUSH1 0x0 PUSH1 0xE0 DUP3 ADD SWAP1 POP DUP2 DUP2 SUB PUSH1 0x0 DUP4 ADD MSTORE PUSH2 0xE64 DUP2 DUP11 PUSH2 0xE02 JUMP JUMPDEST SWAP1 POP DUP2 DUP2 SUB PUSH1 0x20 DUP4 ADD MSTORE PUSH2 0xE78 DUP2 DUP10 PUSH2 0xE02 JUMP JUMPDEST SWAP1 POP DUP2 DUP2 SUB PUSH1 0x40 DUP4 ADD MSTORE PUSH2 0xE8C DUP2 DUP9 PUSH2 0xE02 JUMP JUMPDEST SWAP1 POP DUP2 DUP2 SUB PUSH1 0x60 DUP4 ADD MSTORE PUSH2 0xEA0 DUP2 DUP8 PUSH2 0xE02 JUMP JUMPDEST SWAP1 POP DUP2 DUP2 SUB PUSH1 0x80 DUP4 ADD MSTORE PUSH2 0xEB4 DUP2 DUP7 PUSH2 0xE02 JUMP JUMPDEST SWAP1 POP PUSH2 0xEC3 PUSH1 0xA0 DUP4 ADD DUP6 PUSH2 0xE3B JUMP JUMPDEST PUSH2 0xED0 PUSH1 0xC0 DUP4 ADD DUP5 PUSH2 0xE3B JUMP JUMPDEST SWAP9 SWAP8 POP POP POP POP POP POP POP POP JUMP JUMPDEST PUSH1 0x0 PUSH20 0xFFFFFFFFFFFFFFFFFFFFFFFFFFFFFFFFFFFFFFFF DUP3 AND SWAP1 POP SWAP2 SWAP1 POP JUMP JUMPDEST PUSH1 0x0 PUSH2 0xF07 DUP3 PUSH2 0xEDC JUMP JUMPDEST SWAP1 POP SWAP2 SWAP1 POP JUMP JUMPDEST PUSH2 0xF17 DUP2 PUSH2 0xEFC JUMP JUMPDEST DUP3 MSTORE POP POP JUMP JUMPDEST PUSH1 0x0 PUSH1 0x20 DUP3 ADD SWAP1 POP PUSH2 0xF32 PUSH1 0x0 DUP4 ADD DUP5 PUSH2 0xF0E JUMP JUMPDEST SWAP3 SWAP2 POP POP JUMP JUMPDEST PUSH2 0xF41 DUP2 PUSH2 0xA61 JUMP JUMPDEST DUP3 MSTORE POP POP JUMP JUMPDEST PUSH1 0x0 PUSH1 0x20 DUP3 ADD SWAP1 POP PUSH2 0xF5C PUSH1 0x0 DUP4 ADD DUP5 PUSH2 0xF38 JUMP JUMPDEST SWAP3 SWAP2 POP POP JUMP JUMPDEST PUSH2 0xF6B DUP2 PUSH2 0xEFC JUMP JUMPDEST DUP2 EQ PUSH2 0xF76 JUMPI PUSH1 0x0 DUP1 REVERT JUMPDEST POP JUMP JUMPDEST PUSH1 0x0 DUP2 CALLDATALOAD SWAP1 POP PUSH2 0xF88 DUP2 PUSH2 0xF62 JUMP JUMPDEST SWAP3 SWAP2 POP POP JUMP JUMPDEST PUSH1 0x0 PUSH1 0x20 DUP3 DUP5 SUB SLT ISZERO PUSH2 0xFA4 JUMPI PUSH2 0xFA3 PUSH2 0xA21 JUMP JUMPDEST JUMPDEST PUSH1 0x0 PUSH2 0xFB2 DUP5 DUP3 DUP6 ADD PUSH2 0xF79 JUMP JUMPDEST SWAP2 POP POP SWAP3 SWAP2 POP POP JUMP JUMPDEST PUSH32 0x4F776E61626C653A2063616C6C6572206973206E6F7420746865206F776E6572 PUSH1 0x0 DUP3 ADD MSTORE POP JUMP JUMPDEST PUSH1 0x0 PUSH2 0xFF1 PUSH1 0x20 DUP4 PUSH2 0xDBE JUMP JUMPDEST SWAP2 POP PUSH2 0xFFC DUP3 PUSH2 0xFBB JUMP JUMPDEST PUSH1 0x20 DUP3 ADD SWAP1 POP SWAP2 SWAP1 POP JUMP JUMPDEST PUSH1 0x0 PUSH1 0x20 DUP3 ADD SWAP1 POP DUP2 DUP2 SUB PUSH1 0x0 DUP4 ADD MSTORE PUSH2 0x1020 DUP2 PUSH2 0xFE4 JUMP JUMPDEST SWAP1 POP SWAP2 SWAP1 POP JUMP JUMPDEST PUSH32 0x4E487B7100000000000000000000000000000000000000000000000000000000 PUSH1 0x0 MSTORE PUSH1 0x11 PUSH1 0x4 MSTORE PUSH1 0x24 PUSH1 0x0 REVERT JUMPDEST PUSH1 0x0 PUSH2 0x1061 DUP3 PUSH2 0xA2B JUMP JUMPDEST SWAP2 POP PUSH2 0x106C DUP4 PUSH2 0xA2B JUMP JUMPDEST SWAP3 POP DUP3 DUP3 LT ISZERO PUSH2 0x107F JUMPI PUSH2 0x107E PUSH2 0x1027 JUMP JUMPDEST JUMPDEST DUP3 DUP3 SUB SWAP1 POP SWAP3 SWAP2 POP POP JUMP JUMPDEST PUSH1 0x0 PUSH1 0x40 DUP3 ADD SWAP1 POP DUP2 DUP2 SUB PUSH1 0x0 DUP4 ADD MSTORE PUSH2 0x10A4 DUP2 DUP6 PUSH2 0xE02 JUMP JUMPDEST SWAP1 POP PUSH2 0x10B3 PUSH1 0x20 DUP4 ADD DUP5 PUSH2 0xE3B JUMP JUMPDEST SWAP4 SWAP3 POP POP POP JUMP JUMPDEST PUSH32 0x4E487B7100000000000000000000000000000000000000000000000000000000 PUSH1 0x0 MSTORE PUSH1 0x22 PUSH1 0x4 MSTORE PUSH1 0x24 PUSH1 0x0 REVERT JUMPDEST PUSH1 0x0 PUSH1 0x2 DUP3 DIV SWAP1 POP PUSH1 0x1 DUP3 AND DUP1 PUSH2 0x1101 JUMPI PUSH1 0x7F DUP3 AND SWAP2 POP JUMPDEST PUSH1 0x20 DUP3 LT DUP2 SUB PUSH2 0x1114 JUMPI PUSH2 0x1113 PUSH2 0x10BA JUMP JUMPDEST JUMPDEST POP SWAP2 SWAP1 POP JUMP JUMPDEST PUSH32 0x4F776E61626C653A206E6577206F776E657220697320746865207A65726F2061 PUSH1 0x0 DUP3 ADD MSTORE PUSH32 0x6464726573730000000000000000000000000000000000000000000000000000 PUSH1 0x20 DUP3 ADD MSTORE POP JUMP JUMPDEST PUSH1 0x0 PUSH2 0x1176 PUSH1 0x26 DUP4 PUSH2 0xDBE JUMP JUMPDEST SWAP2 POP PUSH2 0x1181 DUP3 PUSH2 0x111A JUMP JUMPDEST PUSH1 0x40 DUP3 ADD SWAP1 POP SWAP2 SWAP1 POP JUMP JUMPDEST PUSH1 0x0 PUSH1 0x20 DUP3 ADD SWAP1 POP DUP2 DUP2 SUB PUSH1 0x0 DUP4 ADD MSTORE PUSH2 0x11A5 DUP2 PUSH2 0x1169 JUMP JUMPDEST SWAP1 POP SWAP2 SWAP1 POP JUMP INVALID LOG2 PUSH5 0x6970667358 0x22 SLT KECCAK256 0xF7 0xCF RETURNDATACOPY 0xC5 DUP13 SWAP5 SMOD 0xB2 0x25 DUP7 0xEA INVALID 0xAD SWAP6 0xDC 0xD0 0xF6 0xC0 0x23 SELFBALANCE 0xF6 EXTCODESIZE 0xB5 CALLVALUE GASLIMIT RETURNDATASIZE 0xD9 0xC0 PUSH20 0x4B6B7964736F6C634300080E0033000000000000 "
				},
				"gasEstimates": {
					"creation": {
						"codeDepositCost": "915600",
						"executionCost": "infinite",
						"totalCost": "infinite"
					},
					"external": {
						"changeQuizStatus(uint256,bool)": "27171",
						"createQuiz(string,string,string,string,string,uint8,uint8)": "infinite",
						"owner()": "2544",
						"quizzIsActive(uint256)": "2840",
						"quizzes(uint256)": "infinite",
						"renounceOwnership()": "30419",
						"transferOwnership(address)": "30786"
					}
				},
				"methodIdentifiers": {
					"changeQuizStatus(uint256,bool)": "1d3f7559",
					"createQuiz(string,string,string,string,string,uint8,uint8)": "4361790f",
					"owner()": "8da5cb5b",
					"quizzIsActive(uint256)": "905bd667",
					"quizzes(uint256)": "88409afa",
					"renounceOwnership()": "715018a6",
					"transferOwnership(address)": "f2fde38b"
				}
			},
			"storageLayout": {
				"storage": [
					{
						"astId": 130,
						"contract": "contracts/CreateQuiz.sol:CreateQuiz",
						"label": "_owner",
						"offset": 0,
						"slot": "0",
						"type": "t_address"
					},
					{
						"astId": 51,
						"contract": "contracts/CreateQuiz.sol:CreateQuiz",
						"label": "quizzes",
						"offset": 0,
						"slot": "1",
						"type": "t_array(t_struct(Quiz)47_storage)dyn_storage"
					},
					{
						"astId": 55,
						"contract": "contracts/CreateQuiz.sol:CreateQuiz",
						"label": "quizzIsActive",
						"offset": 0,
						"slot": "2",
						"type": "t_mapping(t_uint256,t_bool)"
					}
				],
				"types": {
					"t_address": {
						"encoding": "inplace",
						"label": "address",
						"numberOfBytes": "20"
					},
					"t_array(t_struct(Quiz)47_storage)dyn_storage": {
						"base": "t_struct(Quiz)47_storage",
						"encoding": "dynamic_array",
						"label": "struct CreateQuiz.Quiz[]",
						"numberOfBytes": "32"
					},
					"t_bool": {
						"encoding": "inplace",
						"label": "bool",
						"numberOfBytes": "1"
					},
					"t_mapping(t_uint256,t_bool)": {
						"encoding": "mapping",
						"key": "t_uint256",
						"label": "mapping(uint256 => bool)",
						"numberOfBytes": "32",
						"value": "t_bool"
					},
					"t_string_storage": {
						"encoding": "bytes",
						"label": "string",
						"numberOfBytes": "32"
					},
					"t_struct(Quiz)47_storage": {
						"encoding": "inplace",
						"label": "struct CreateQuiz.Quiz",
						"members": [
							{
								"astId": 34,
								"contract": "contracts/CreateQuiz.sol:CreateQuiz",
								"label": "question",
								"offset": 0,
								"slot": "0",
								"type": "t_string_storage"
							},
							{
								"astId": 36,
								"contract": "contracts/CreateQuiz.sol:CreateQuiz",
								"label": "choice1",
								"offset": 0,
								"slot": "1",
								"type": "t_string_storage"
							},
							{
								"astId": 38,
								"contract": "contracts/CreateQuiz.sol:CreateQuiz",
								"label": "choice2",
								"offset": 0,
								"slot": "2",
								"type": "t_string_storage"
							},
							{
								"astId": 40,
								"contract": "contracts/CreateQuiz.sol:CreateQuiz",
								"label": "choice3",
								"offset": 0,
								"slot": "3",
								"type": "t_string_storage"
							},
							{
								"astId": 42,
								"contract": "contracts/CreateQuiz.sol:CreateQuiz",
								"label": "choice4",
								"offset": 0,
								"slot": "4",
								"type": "t_string_storage"
							},
							{
								"astId": 44,
								"contract": "contracts/CreateQuiz.sol:CreateQuiz",
								"label": "answer",
								"offset": 0,
								"slot": "5",
								"type": "t_uint8"
							},
							{
								"astId": 46,
								"contract": "contracts/CreateQuiz.sol:CreateQuiz",
								"label": "languageCode",
								"offset": 1,
								"slot": "5",
								"type": "t_uint8"
							}
						],
						"numberOfBytes": "192"
					},
					"t_uint256": {
						"encoding": "inplace",
						"label": "uint256",
						"numberOfBytes": "32"
					},
					"t_uint8": {
						"encoding": "inplace",
						"label": "uint8",
						"numberOfBytes": "1"
					}
				}
			},
			"userdoc": {
				"kind": "user",
				"methods": {},
				"version": 1
			}
		}
	}
}