{
	"contracts/ViewQuiz.sol": {
		"ViewQuiz": {
			"abi": [
				{
					"anonymous": false,
					"inputs": [
						{
							"components": [
								{
									"internalType": "string",
									"name": "question",
									"type": "string"
								},
								{
									"internalType": "string",
									"name": "choice1",
									"type": "string"
								},
								{
									"internalType": "string",
									"name": "choice2",
									"type": "string"
								},
								{
									"internalType": "string",
									"name": "choice3",
									"type": "string"
								},
								{
									"internalType": "string",
									"name": "choice4",
									"type": "string"
								},
								{
									"internalType": "string",
									"name": "hint",
									"type": "string"
								},
								{
									"internalType": "uint8",
									"name": "languageCode",
									"type": "uint8"
								},
								{
									"internalType": "uint256",
									"name": "reward",
									"type": "uint256"
								},
								{
									"internalType": "uint256",
									"name": "rewardPool",
									"type": "uint256"
								}
							],
							"indexed": false,
							"internalType": "struct CreateQuiz.Quiz",
							"name": "quiz",
							"type": "tuple"
						}
					],
					"name": "GetQuiz",
					"type": "event"
				},
				{
					"anonymous": false,
					"inputs": [
						{
							"indexed": false,
							"internalType": "string",
							"name": "question",
							"type": "string"
						},
						{
							"indexed": false,
							"internalType": "uint8",
							"name": "answer",
							"type": "uint8"
						}
					],
					"name": "NewQuiz",
					"type": "event"
				},
				{
					"anonymous": false,
					"inputs": [
						{
							"indexed": true,
							"internalType": "address",
							"name": "previousOwner",
							"type": "address"
						},
						{
							"indexed": true,
							"internalType": "address",
							"name": "newOwner",
							"type": "address"
						}
					],
					"name": "OwnershipTransferred",
					"type": "event"
				},
				{
					"anonymous": false,
					"inputs": [
						{
							"components": [
								{
									"internalType": "string",
									"name": "question",
									"type": "string"
								},
								{
									"internalType": "string",
									"name": "choice1",
									"type": "string"
								},
								{
									"internalType": "string",
									"name": "choice2",
									"type": "string"
								},
								{
									"internalType": "string",
									"name": "choice3",
									"type": "string"
								},
								{
									"internalType": "string",
									"name": "choice4",
									"type": "string"
								},
								{
									"internalType": "string",
									"name": "hint",
									"type": "string"
								},
								{
									"internalType": "uint8",
									"name": "languageCode",
									"type": "uint8"
								},
								{
									"internalType": "uint256",
									"name": "reward",
									"type": "uint256"
								},
								{
									"internalType": "uint256",
									"name": "rewardPool",
									"type": "uint256"
								}
							],
							"indexed": false,
							"internalType": "struct CreateQuiz.Quiz",
							"name": "quiz",
							"type": "tuple"
						},
						{
							"indexed": false,
							"internalType": "uint8",
							"name": "answer",
							"type": "uint8"
						}
					],
					"name": "QuizOwnerGetQuiz",
					"type": "event"
				},
				{
					"inputs": [
						{
							"internalType": "uint256",
							"name": "_quizId",
							"type": "uint256"
						},
						{
							"internalType": "bool",
							"name": "_quizStatus",
							"type": "bool"
						}
					],
					"name": "changeQuizStatus",
					"outputs": [],
					"stateMutability": "nonpayable",
					"type": "function"
				},
				{
					"inputs": [
						{
							"internalType": "string",
							"name": "_question",
							"type": "string"
						},
						{
							"internalType": "string",
							"name": "_choice1",
							"type": "string"
						},
						{
							"internalType": "string",
							"name": "_choice2",
							"type": "string"
						},
						{
							"internalType": "string",
							"name": "_choice3",
							"type": "string"
						},
						{
							"internalType": "string",
							"name": "_choice4",
							"type": "string"
						},
						{
							"internalType": "string",
							"name": "_hint",
							"type": "string"
						},
						{
							"internalType": "uint8",
							"name": "_answer",
							"type": "uint8"
						},
						{
							"internalType": "uint8",
							"name": "_languageCode",
							"type": "uint8"
						},
						{
							"internalType": "uint256",
							"name": "_reward",
							"type": "uint256"
						},
						{
							"internalType": "uint256",
							"name": "_rewardPool",
							"type": "uint256"
						}
					],
					"name": "createQuiz",
					"outputs": [],
					"stateMutability": "payable",
					"type": "function"
				},
				{
					"inputs": [
						{
							"internalType": "string",
							"name": "_seed",
							"type": "string"
						}
					],
					"name": "getRandomQuiz",
					"outputs": [
						{
							"components": [
								{
									"internalType": "string",
									"name": "question",
									"type": "string"
								},
								{
									"internalType": "string",
									"name": "choice1",
									"type": "string"
								},
								{
									"internalType": "string",
									"name": "choice2",
									"type": "string"
								},
								{
									"internalType": "string",
									"name": "choice3",
									"type": "string"
								},
								{
									"internalType": "string",
									"name": "choice4",
									"type": "string"
								},
								{
									"internalType": "string",
									"name": "hint",
									"type": "string"
								},
								{
									"internalType": "uint8",
									"name": "languageCode",
									"type": "uint8"
								},
								{
									"internalType": "uint256",
									"name": "reward",
									"type": "uint256"
								},
								{
									"internalType": "uint256",
									"name": "rewardPool",
									"type": "uint256"
								}
							],
							"internalType": "struct CreateQuiz.Quiz",
							"name": "",
							"type": "tuple"
						}
					],
					"stateMutability": "view",
					"type": "function"
				},
				{
					"inputs": [],
					"name": "owner",
					"outputs": [
						{
							"internalType": "address",
							"name": "",
							"type": "address"
						}
					],
					"stateMutability": "view",
					"type": "function"
				},
				{
					"inputs": [
						{
							"internalType": "uint256",
							"name": "",
							"type": "uint256"
						}
					],
					"name": "quizIsActive",
					"outputs": [
						{
							"internalType": "bool",
							"name": "",
							"type": "bool"
						}
					],
					"stateMutability": "view",
					"type": "function"
				},
				{
					"inputs": [
						{
							"internalType": "uint256",
							"name": "",
							"type": "uint256"
						}
					],
					"name": "quizOwner",
					"outputs": [
						{
							"internalType": "address",
							"name": "",
							"type": "address"
						}
					],
					"stateMutability": "view",
					"type": "function"
				},
				{
					"inputs": [
						{
							"internalType": "uint256",
							"name": "_quizId",
							"type": "uint256"
						},
						{
							"internalType": "string",
							"name": "_hint",
							"type": "string"
						}
					],
					"name": "quizOwnerChangeHint",
					"outputs": [],
					"stateMutability": "nonpayable",
					"type": "function"
				},
				{
					"inputs": [
						{
							"internalType": "uint256",
							"name": "_quizId",
							"type": "uint256"
						},
						{
							"internalType": "bool",
							"name": "_quizStatus",
							"type": "bool"
						}
					],
					"name": "quizOwnerChangeStatus",
					"outputs": [],
					"stateMutability": "nonpayable",
					"type": "function"
				},
				{
					"inputs": [
						{
							"internalType": "uint256",
							"name": "_quizId",
							"type": "uint256"
						}
					],
					"name": "quizOwnerGetQuiz",
					"outputs": [
						{
							"components": [
								{
									"internalType": "string",
									"name": "question",
									"type": "string"
								},
								{
									"internalType": "string",
									"name": "choice1",
									"type": "string"
								},
								{
									"internalType": "string",
									"name": "choice2",
									"type": "string"
								},
								{
									"internalType": "string",
									"name": "choice3",
									"type": "string"
								},
								{
									"internalType": "string",
									"name": "choice4",
									"type": "string"
								},
								{
									"internalType": "string",
									"name": "hint",
									"type": "string"
								},
								{
									"internalType": "uint8",
									"name": "languageCode",
									"type": "uint8"
								},
								{
									"internalType": "uint256",
									"name": "reward",
									"type": "uint256"
								},
								{
									"internalType": "uint256",
									"name": "rewardPool",
									"type": "uint256"
								}
							],
							"internalType": "struct CreateQuiz.Quiz",
							"name": "",
							"type": "tuple"
						},
						{
							"internalType": "uint8",
							"name": "",
							"type": "uint8"
						}
					],
					"stateMutability": "view",
					"type": "function"
				},
				{
					"inputs": [],
					"name": "renounceOwnership",
					"outputs": [],
					"stateMutability": "nonpayable",
					"type": "function"
				},
				{
					"inputs": [
						{
							"internalType": "address",
							"name": "newOwner",
							"type": "address"
						}
					],
					"name": "transferOwnership",
					"outputs": [],
					"stateMutability": "nonpayable",
					"type": "function"
				}
			],
			"devdoc": {
				"kind": "dev",
				"methods": {
					"owner()": {
						"details": "Returns the address of the current owner."
					},
					"renounceOwnership()": {
						"details": "Leaves the contract without owner. It will not be possible to call `onlyOwner` functions anymore. Can only be called by the current owner. NOTE: Renouncing ownership will leave the contract without an owner, thereby removing any functionality that is only available to the owner."
					},
					"transferOwnership(address)": {
						"details": "Transfers ownership of the contract to a new account (`newOwner`). Can only be called by the current owner."
					}
				},
				"version": 1
			},
			"evm": {
				"assembly": "    /* \"contracts/ViewQuiz.sol\":93:1335  contract ViewQuiz is CreateQuiz {... */\n  mstore(0x40, 0x80)\n  callvalue\n  dup1\n  iszero\n  tag_1\n  jumpi\n  0x00\n  dup1\n  revert\ntag_1:\n  pop\n    /* \"contracts/Ownable.sol\":914:946  _transferOwnership(_msgSender()) */\n  tag_4\n    /* \"contracts/Ownable.sol\":933:945  _msgSender() */\n  tag_5\n    /* \"contracts/Ownable.sol\":933:943  _msgSender */\n  shl(0x20, tag_6)\n    /* \"contracts/Ownable.sol\":933:945  _msgSender() */\n  0x20\n  shr\n  jump\t// in\ntag_5:\n    /* \"contracts/Ownable.sol\":914:932  _transferOwnership */\n  shl(0x20, tag_7)\n    /* \"contracts/Ownable.sol\":914:946  _transferOwnership(_msgSender()) */\n  0x20\n  shr\n  jump\t// in\ntag_4:\n    /* \"contracts/ViewQuiz.sol\":93:1335  contract ViewQuiz is CreateQuiz {... */\n  jump(tag_8)\n    /* \"contracts/Context.sol\":640:736  function _msgSender() internal view virtual returns (address) {... */\ntag_6:\n    /* \"contracts/Context.sol\":693:700  address */\n  0x00\n    /* \"contracts/Context.sol\":719:729  msg.sender */\n  caller\n    /* \"contracts/Context.sol\":712:729  return msg.sender */\n  swap1\n  pop\n    /* \"contracts/Context.sol\":640:736  function _msgSender() internal view virtual returns (address) {... */\n  swap1\n  jump\t// out\n    /* \"contracts/Ownable.sol\":2263:2450  function _transferOwnership(address newOwner) internal virtual {... */\ntag_7:\n    /* \"contracts/Ownable.sol\":2336:2352  address oldOwner */\n  0x00\n    /* \"contracts/Ownable.sol\":2355:2361  _owner */\n  dup1\n  0x00\n  swap1\n  sload\n  swap1\n  0x0100\n  exp\n  swap1\n  div\n  0xffffffffffffffffffffffffffffffffffffffff\n  and\n    /* \"contracts/Ownable.sol\":2336:2361  address oldOwner = _owner */\n  swap1\n  pop\n    /* \"contracts/Ownable.sol\":2380:2388  newOwner */\n  dup2\n    /* \"contracts/Ownable.sol\":2371:2377  _owner */\n  0x00\n  dup1\n    /* \"contracts/Ownable.sol\":2371:2388  _owner = newOwner */\n  0x0100\n  exp\n  dup2\n  sload\n  dup2\n  0xffffffffffffffffffffffffffffffffffffffff\n  mul\n  not\n  and\n  swap1\n  dup4\n  0xffffffffffffffffffffffffffffffffffffffff\n  and\n  mul\n  or\n  swap1\n  sstore\n  pop\n    /* \"contracts/Ownable.sol\":2434:2442  newOwner */\n  dup2\n    /* \"contracts/Ownable.sol\":2403:2443  OwnershipTransferred(oldOwner, newOwner) */\n  0xffffffffffffffffffffffffffffffffffffffff\n  and\n    /* \"contracts/Ownable.sol\":2424:2432  oldOwner */\n  dup2\n    /* \"contracts/Ownable.sol\":2403:2443  OwnershipTransferred(oldOwner, newOwner) */\n  0xffffffffffffffffffffffffffffffffffffffff\n  and\n  0x8be0079c531659141344cd1fd0a4f28419497f9722a3daafe3b4186f6b6457e0\n  mload(0x40)\n  mload(0x40)\n  dup1\n  swap2\n  sub\n  swap1\n  log3\n    /* \"contracts/Ownable.sol\":2326:2450  {... */\n  pop\n    /* \"contracts/Ownable.sol\":2263:2450  function _transferOwnership(address newOwner) internal virtual {... */\n  pop\n  jump\t// out\n    /* \"contracts/ViewQuiz.sol\":93:1335  contract ViewQuiz is CreateQuiz {... */\ntag_8:\n  dataSize(sub_0)\n  dup1\n  dataOffset(sub_0)\n  0x00\n  codecopy\n  0x00\n  return\nstop\n\nsub_0: assembly {\n        /* \"contracts/ViewQuiz.sol\":93:1335  contract ViewQuiz is CreateQuiz {... */\n      mstore(0x40, 0x80)\n      jumpi(tag_1, lt(calldatasize, 0x04))\n      shr(0xe0, calldataload(0x00))\n      dup1\n      0x728b0d87\n      gt\n      tag_13\n      jumpi\n      dup1\n      0x728b0d87\n      eq\n      tag_7\n      jumpi\n      dup1\n      0x8da5cb5b\n      eq\n      tag_8\n      jumpi\n      dup1\n      0x9a2dc409\n      eq\n      tag_9\n      jumpi\n      dup1\n      0xb9360cf1\n      eq\n      tag_10\n      jumpi\n      dup1\n      0xf2fde38b\n      eq\n      tag_11\n      jumpi\n      dup1\n      0xfbb3b6ce\n      eq\n      tag_12\n      jumpi\n      jump(tag_1)\n    tag_13:\n      dup1\n      0x1d3f7559\n      eq\n      tag_2\n      jumpi\n      dup1\n      0x377def85\n      eq\n      tag_3\n      jumpi\n      dup1\n      0x400ae0f9\n      eq\n      tag_4\n      jumpi\n      dup1\n      0x51a1d40e\n      eq\n      tag_5\n      jumpi\n      dup1\n      0x715018a6\n      eq\n      tag_6\n      jumpi\n    tag_1:\n      0x00\n      dup1\n      revert\n        /* \"contracts/CreateQuiz.sol\":2382:2509  function changeQuizStatus(uint _quizId, bool _quizStatus) public onlyOwner {... */\n    tag_2:\n      callvalue\n      dup1\n      iszero\n      tag_14\n      jumpi\n      0x00\n      dup1\n      revert\n    tag_14:\n      pop\n      tag_15\n      0x04\n      dup1\n      calldatasize\n      sub\n      dup2\n      add\n      swap1\n      tag_16\n      swap2\n      swap1\n      tag_17\n      jump\t// in\n    tag_16:\n      tag_18\n      jump\t// in\n    tag_15:\n      stop\n        /* \"contracts/CreateQuiz.sol\":1946:2091  function quizOwnerChangeStatus(uint _quizId, bool _quizStatus) public onlyQuizOwner(_quizId) {... */\n    tag_3:\n      callvalue\n      dup1\n      iszero\n      tag_19\n      jumpi\n      0x00\n      dup1\n      revert\n    tag_19:\n      pop\n      tag_20\n      0x04\n      dup1\n      calldatasize\n      sub\n      dup2\n      add\n      swap1\n      tag_21\n      swap2\n      swap1\n      tag_17\n      jump\t// in\n    tag_21:\n      tag_22\n      jump\t// in\n    tag_20:\n      stop\n        /* \"contracts/CreateQuiz.sol\":547:589  mapping (uint => address) public quizOwner */\n    tag_4:\n      callvalue\n      dup1\n      iszero\n      tag_23\n      jumpi\n      0x00\n      dup1\n      revert\n    tag_23:\n      pop\n      tag_24\n      0x04\n      dup1\n      calldatasize\n      sub\n      dup2\n      add\n      swap1\n      tag_25\n      swap2\n      swap1\n      tag_26\n      jump\t// in\n    tag_25:\n      tag_27\n      jump\t// in\n    tag_24:\n      mload(0x40)\n      tag_28\n      swap2\n      swap1\n      tag_29\n      jump\t// in\n    tag_28:\n      mload(0x40)\n      dup1\n      swap2\n      sub\n      swap1\n      return\n        /* \"contracts/CreateQuiz.sol\":450:492  mapping (uint => bool) public quizIsActive */\n    tag_5:\n      callvalue\n      dup1\n      iszero\n      tag_30\n      jumpi\n      0x00\n      dup1\n      revert\n    tag_30:\n      pop\n      tag_31\n      0x04\n      dup1\n      calldatasize\n      sub\n      dup2\n      add\n      swap1\n      tag_32\n      swap2\n      swap1\n      tag_26\n      jump\t// in\n    tag_32:\n      tag_33\n      jump\t// in\n    tag_31:\n      mload(0x40)\n      tag_34\n      swap2\n      swap1\n      tag_35\n      jump\t// in\n    tag_34:\n      mload(0x40)\n      dup1\n      swap2\n      sub\n      swap1\n      return\n        /* \"contracts/Ownable.sol\":1661:1762  function renounceOwnership() public virtual onlyOwner {... */\n    tag_6:\n      callvalue\n      dup1\n      iszero\n      tag_36\n      jumpi\n      0x00\n      dup1\n      revert\n    tag_36:\n      pop\n      tag_37\n      tag_38\n      jump\t// in\n    tag_37:\n      stop\n        /* \"contracts/ViewQuiz.sol\":264:829  function getRandomQuiz(string memory _seed) public view returns (Quiz memory) {... */\n    tag_7:\n      callvalue\n      dup1\n      iszero\n      tag_39\n      jumpi\n      0x00\n      dup1\n      revert\n    tag_39:\n      pop\n      tag_40\n      0x04\n      dup1\n      calldatasize\n      sub\n      dup2\n      add\n      swap1\n      tag_41\n      swap2\n      swap1\n      tag_42\n      jump\t// in\n    tag_41:\n      tag_43\n      jump\t// in\n    tag_40:\n      mload(0x40)\n      tag_44\n      swap2\n      swap1\n      tag_45\n      jump\t// in\n    tag_44:\n      mload(0x40)\n      dup1\n      swap2\n      sub\n      swap1\n      return\n        /* \"contracts/Ownable.sol\":1029:1114  function owner() public view virtual returns (address) {... */\n    tag_8:\n      callvalue\n      dup1\n      iszero\n      tag_46\n      jumpi\n      0x00\n      dup1\n      revert\n    tag_46:\n      pop\n      tag_47\n      tag_48\n      jump\t// in\n    tag_47:\n      mload(0x40)\n      tag_49\n      swap2\n      swap1\n      tag_29\n      jump\t// in\n    tag_49:\n      mload(0x40)\n      dup1\n      swap2\n      sub\n      swap1\n      return\n        /* \"contracts/CreateQuiz.sol\":1378:1883  function createQuiz(string memory _question, string memory _choice1, string memory _choice2, string memory _choice3, string memory _choice4, string memory _hint, uint8 _answer, uint8 _languageCode, uint _reward, uint _rewardPool) public payable {... */\n    tag_9:\n      tag_50\n      0x04\n      dup1\n      calldatasize\n      sub\n      dup2\n      add\n      swap1\n      tag_51\n      swap2\n      swap1\n      tag_52\n      jump\t// in\n    tag_51:\n      tag_53\n      jump\t// in\n    tag_50:\n      stop\n        /* \"contracts/ViewQuiz.sol\":1092:1331  function quizOwnerGetQuiz(uint _quizId) public view onlyQuizOwner(_quizId) returns (Quiz memory, uint8) {... */\n    tag_10:\n      callvalue\n      dup1\n      iszero\n      tag_54\n      jumpi\n      0x00\n      dup1\n      revert\n    tag_54:\n      pop\n      tag_55\n      0x04\n      dup1\n      calldatasize\n      sub\n      dup2\n      add\n      swap1\n      tag_56\n      swap2\n      swap1\n      tag_26\n      jump\t// in\n    tag_56:\n      tag_57\n      jump\t// in\n    tag_55:\n      mload(0x40)\n      tag_58\n      swap3\n      swap2\n      swap1\n      tag_59\n      jump\t// in\n    tag_58:\n      mload(0x40)\n      dup1\n      swap2\n      sub\n      swap1\n      return\n        /* \"contracts/Ownable.sol\":1911:2109  function transferOwnership(address newOwner) public virtual onlyOwner {... */\n    tag_11:\n      callvalue\n      dup1\n      iszero\n      tag_60\n      jumpi\n      0x00\n      dup1\n      revert\n    tag_60:\n      pop\n      tag_61\n      0x04\n      dup1\n      calldatasize\n      sub\n      dup2\n      add\n      swap1\n      tag_62\n      swap2\n      swap1\n      tag_63\n      jump\t// in\n    tag_62:\n      tag_64\n      jump\t// in\n    tag_61:\n      stop\n        /* \"contracts/CreateQuiz.sol\":2152:2292  function quizOwnerChangeHint(uint _quizId, string memory _hint) public onlyQuizOwner(_quizId) {... */\n    tag_12:\n      callvalue\n      dup1\n      iszero\n      tag_65\n      jumpi\n      0x00\n      dup1\n      revert\n    tag_65:\n      pop\n      tag_66\n      0x04\n      dup1\n      calldatasize\n      sub\n      dup2\n      add\n      swap1\n      tag_67\n      swap2\n      swap1\n      tag_68\n      jump\t// in\n    tag_67:\n      tag_69\n      jump\t// in\n    tag_66:\n      stop\n        /* \"contracts/CreateQuiz.sol\":2382:2509  function changeQuizStatus(uint _quizId, bool _quizStatus) public onlyOwner {... */\n    tag_18:\n        /* \"contracts/Ownable.sol\":1252:1264  _msgSender() */\n      tag_71\n        /* \"contracts/Ownable.sol\":1252:1262  _msgSender */\n      tag_72\n        /* \"contracts/Ownable.sol\":1252:1264  _msgSender() */\n      jump\t// in\n    tag_71:\n        /* \"contracts/Ownable.sol\":1241:1264  owner() == _msgSender() */\n      0xffffffffffffffffffffffffffffffffffffffff\n      and\n        /* \"contracts/Ownable.sol\":1241:1248  owner() */\n      tag_73\n        /* \"contracts/Ownable.sol\":1241:1246  owner */\n      tag_48\n        /* \"contracts/Ownable.sol\":1241:1248  owner() */\n      jump\t// in\n    tag_73:\n        /* \"contracts/Ownable.sol\":1241:1264  owner() == _msgSender() */\n      0xffffffffffffffffffffffffffffffffffffffff\n      and\n      eq\n        /* \"contracts/Ownable.sol\":1233:1301  require(owner() == _msgSender(), \"Ownable: caller is not the owner\") */\n      tag_74\n      jumpi\n      mload(0x40)\n      0x08c379a000000000000000000000000000000000000000000000000000000000\n      dup2\n      mstore\n      0x04\n      add\n      tag_75\n      swap1\n      tag_76\n      jump\t// in\n    tag_75:\n      mload(0x40)\n      dup1\n      swap2\n      sub\n      swap1\n      revert\n    tag_74:\n        /* \"contracts/CreateQuiz.sol\":2491:2502  _quizStatus */\n      dup1\n        /* \"contracts/CreateQuiz.sol\":2467:2479  quizIsActive */\n      0x02\n        /* \"contracts/CreateQuiz.sol\":2467:2488  quizIsActive[_quizId] */\n      0x00\n        /* \"contracts/CreateQuiz.sol\":2480:2487  _quizId */\n      dup5\n        /* \"contracts/CreateQuiz.sol\":2467:2488  quizIsActive[_quizId] */\n      dup2\n      mstore\n      0x20\n      add\n      swap1\n      dup2\n      mstore\n      0x20\n      add\n      0x00\n      keccak256\n      0x00\n        /* \"contracts/CreateQuiz.sol\":2467:2502  quizIsActive[_quizId] = _quizStatus */\n      0x0100\n      exp\n      dup2\n      sload\n      dup2\n      0xff\n      mul\n      not\n      and\n      swap1\n      dup4\n      iszero\n      iszero\n      mul\n      or\n      swap1\n      sstore\n      pop\n        /* \"contracts/CreateQuiz.sol\":2382:2509  function changeQuizStatus(uint _quizId, bool _quizStatus) public onlyOwner {... */\n      pop\n      pop\n      jump\t// out\n        /* \"contracts/CreateQuiz.sol\":1946:2091  function quizOwnerChangeStatus(uint _quizId, bool _quizStatus) public onlyQuizOwner(_quizId) {... */\n    tag_22:\n        /* \"contracts/CreateQuiz.sol\":2030:2037  _quizId */\n      dup2\n        /* \"contracts/CreateQuiz.sol\":674:684  msg.sender */\n      caller\n        /* \"contracts/CreateQuiz.sol\":652:684  quizOwner[_quizId] == msg.sender */\n      0xffffffffffffffffffffffffffffffffffffffff\n      and\n        /* \"contracts/CreateQuiz.sol\":652:661  quizOwner */\n      0x04\n        /* \"contracts/CreateQuiz.sol\":652:670  quizOwner[_quizId] */\n      0x00\n        /* \"contracts/CreateQuiz.sol\":662:669  _quizId */\n      dup4\n        /* \"contracts/CreateQuiz.sol\":652:670  quizOwner[_quizId] */\n      dup2\n      mstore\n      0x20\n      add\n      swap1\n      dup2\n      mstore\n      0x20\n      add\n      0x00\n      keccak256\n      0x00\n      swap1\n      sload\n      swap1\n      0x0100\n      exp\n      swap1\n      div\n      0xffffffffffffffffffffffffffffffffffffffff\n      and\n        /* \"contracts/CreateQuiz.sol\":652:684  quizOwner[_quizId] == msg.sender */\n      0xffffffffffffffffffffffffffffffffffffffff\n      and\n      eq\n        /* \"contracts/CreateQuiz.sol\":644:685  require(quizOwner[_quizId] == msg.sender) */\n      tag_79\n      jumpi\n      0x00\n      dup1\n      revert\n    tag_79:\n        /* \"contracts/CreateQuiz.sol\":2073:2084  _quizStatus */\n      dup2\n        /* \"contracts/CreateQuiz.sol\":2049:2061  quizIsActive */\n      0x02\n        /* \"contracts/CreateQuiz.sol\":2049:2070  quizIsActive[_quizId] */\n      0x00\n        /* \"contracts/CreateQuiz.sol\":2062:2069  _quizId */\n      dup6\n        /* \"contracts/CreateQuiz.sol\":2049:2070  quizIsActive[_quizId] */\n      dup2\n      mstore\n      0x20\n      add\n      swap1\n      dup2\n      mstore\n      0x20\n      add\n      0x00\n      keccak256\n      0x00\n        /* \"contracts/CreateQuiz.sol\":2049:2084  quizIsActive[_quizId] = _quizStatus */\n      0x0100\n      exp\n      dup2\n      sload\n      dup2\n      0xff\n      mul\n      not\n      and\n      swap1\n      dup4\n      iszero\n      iszero\n      mul\n      or\n      swap1\n      sstore\n      pop\n        /* \"contracts/CreateQuiz.sol\":1946:2091  function quizOwnerChangeStatus(uint _quizId, bool _quizStatus) public onlyQuizOwner(_quizId) {... */\n      pop\n      pop\n      pop\n      jump\t// out\n        /* \"contracts/CreateQuiz.sol\":547:589  mapping (uint => address) public quizOwner */\n    tag_27:\n      mstore(0x20, 0x04)\n      dup1\n      0x00\n      mstore\n      keccak256(0x00, 0x40)\n      0x00\n      swap2\n      pop\n      sload\n      swap1\n      0x0100\n      exp\n      swap1\n      div\n      0xffffffffffffffffffffffffffffffffffffffff\n      and\n      dup2\n      jump\t// out\n        /* \"contracts/CreateQuiz.sol\":450:492  mapping (uint => bool) public quizIsActive */\n    tag_33:\n      mstore(0x20, 0x02)\n      dup1\n      0x00\n      mstore\n      keccak256(0x00, 0x40)\n      0x00\n      swap2\n      pop\n      sload\n      swap1\n      0x0100\n      exp\n      swap1\n      div\n      0xff\n      and\n      dup2\n      jump\t// out\n        /* \"contracts/Ownable.sol\":1661:1762  function renounceOwnership() public virtual onlyOwner {... */\n    tag_38:\n        /* \"contracts/Ownable.sol\":1252:1264  _msgSender() */\n      tag_82\n        /* \"contracts/Ownable.sol\":1252:1262  _msgSender */\n      tag_72\n        /* \"contracts/Ownable.sol\":1252:1264  _msgSender() */\n      jump\t// in\n    tag_82:\n        /* \"contracts/Ownable.sol\":1241:1264  owner() == _msgSender() */\n      0xffffffffffffffffffffffffffffffffffffffff\n      and\n        /* \"contracts/Ownable.sol\":1241:1248  owner() */\n      tag_83\n        /* \"contracts/Ownable.sol\":1241:1246  owner */\n      tag_48\n        /* \"contracts/Ownable.sol\":1241:1248  owner() */\n      jump\t// in\n    tag_83:\n        /* \"contracts/Ownable.sol\":1241:1264  owner() == _msgSender() */\n      0xffffffffffffffffffffffffffffffffffffffff\n      and\n      eq\n        /* \"contracts/Ownable.sol\":1233:1301  require(owner() == _msgSender(), \"Ownable: caller is not the owner\") */\n      tag_84\n      jumpi\n      mload(0x40)\n      0x08c379a000000000000000000000000000000000000000000000000000000000\n      dup2\n      mstore\n      0x04\n      add\n      tag_85\n      swap1\n      tag_76\n      jump\t// in\n    tag_85:\n      mload(0x40)\n      dup1\n      swap2\n      sub\n      swap1\n      revert\n    tag_84:\n        /* \"contracts/Ownable.sol\":1725:1755  _transferOwnership(address(0)) */\n      tag_87\n        /* \"contracts/Ownable.sol\":1752:1753  0 */\n      0x00\n        /* \"contracts/Ownable.sol\":1725:1743  _transferOwnership */\n      tag_88\n        /* \"contracts/Ownable.sol\":1725:1755  _transferOwnership(address(0)) */\n      jump\t// in\n    tag_87:\n        /* \"contracts/Ownable.sol\":1661:1762  function renounceOwnership() public virtual onlyOwner {... */\n      jump\t// out\n        /* \"contracts/ViewQuiz.sol\":264:829  function getRandomQuiz(string memory _seed) public view returns (Quiz memory) {... */\n    tag_43:\n        /* \"contracts/ViewQuiz.sol\":329:340  Quiz memory */\n      tag_89\n      tag_90\n      jump\t// in\n    tag_89:\n        /* \"contracts/ViewQuiz.sol\":352:373  uint[] memory quizIds */\n      0x60\n        /* \"contracts/ViewQuiz.sol\":383:395  uint counter */\n      0x00\n        /* \"contracts/ViewQuiz.sol\":414:420  uint i */\n      dup1\n        /* \"contracts/ViewQuiz.sol\":409:583  for (uint i = 0; i < quizzes.length; i++) {... */\n    tag_92:\n        /* \"contracts/ViewQuiz.sol\":430:437  quizzes */\n      0x01\n        /* \"contracts/ViewQuiz.sol\":430:444  quizzes.length */\n      dup1\n      sload\n      swap1\n      pop\n        /* \"contracts/ViewQuiz.sol\":426:427  i */\n      dup2\n        /* \"contracts/ViewQuiz.sol\":426:444  i < quizzes.length */\n      lt\n        /* \"contracts/ViewQuiz.sol\":409:583  for (uint i = 0; i < quizzes.length; i++) {... */\n      iszero\n      tag_93\n      jumpi\n        /* \"contracts/ViewQuiz.sol\":487:491  true */\n      0x01\n        /* \"contracts/ViewQuiz.sol\":468:491  quizIsActive[i] == true */\n      iszero\n      iszero\n        /* \"contracts/ViewQuiz.sol\":468:480  quizIsActive */\n      0x02\n        /* \"contracts/ViewQuiz.sol\":468:483  quizIsActive[i] */\n      0x00\n        /* \"contracts/ViewQuiz.sol\":481:482  i */\n      dup4\n        /* \"contracts/ViewQuiz.sol\":468:483  quizIsActive[i] */\n      dup2\n      mstore\n      0x20\n      add\n      swap1\n      dup2\n      mstore\n      0x20\n      add\n      0x00\n      keccak256\n      0x00\n      swap1\n      sload\n      swap1\n      0x0100\n      exp\n      swap1\n      div\n      0xff\n      and\n        /* \"contracts/ViewQuiz.sol\":468:491  quizIsActive[i] == true */\n      iszero\n      iszero\n      sub\n        /* \"contracts/ViewQuiz.sol\":465:573  if(quizIsActive[i] == true) {... */\n      tag_95\n      jumpi\n        /* \"contracts/ViewQuiz.sol\":530:531  i */\n      dup1\n        /* \"contracts/ViewQuiz.sol\":511:518  quizIds */\n      dup4\n        /* \"contracts/ViewQuiz.sol\":519:526  counter */\n      dup4\n        /* \"contracts/ViewQuiz.sol\":511:527  quizIds[counter] */\n      dup2\n      mload\n      dup2\n      lt\n      tag_96\n      jumpi\n      tag_97\n      tag_98\n      jump\t// in\n    tag_97:\n    tag_96:\n      0x20\n      mul\n      0x20\n      add\n      add\n        /* \"contracts/ViewQuiz.sol\":511:531  quizIds[counter] = i */\n      dup2\n      dup2\n      mstore\n      pop\n      pop\n        /* \"contracts/ViewQuiz.sol\":549:558  counter++ */\n      dup2\n      dup1\n      tag_99\n      swap1\n      tag_100\n      jump\t// in\n    tag_99:\n      swap3\n      pop\n      pop\n        /* \"contracts/ViewQuiz.sol\":465:573  if(quizIsActive[i] == true) {... */\n    tag_95:\n        /* \"contracts/ViewQuiz.sol\":446:449  i++ */\n      dup1\n      dup1\n      tag_101\n      swap1\n      tag_100\n      jump\t// in\n    tag_101:\n      swap2\n      pop\n      pop\n        /* \"contracts/ViewQuiz.sol\":409:583  for (uint i = 0; i < quizzes.length; i++) {... */\n      jump(tag_92)\n    tag_93:\n      pop\n        /* \"contracts/ViewQuiz.sol\":592:601  uint rand */\n      0x00\n        /* \"contracts/ViewQuiz.sol\":676:683  quizIds */\n      dup3\n        /* \"contracts/ViewQuiz.sol\":676:690  quizIds.length */\n      mload\n        /* \"contracts/ViewQuiz.sol\":636:641  _seed */\n      dup6\n        /* \"contracts/ViewQuiz.sol\":643:658  block.timestamp */\n      timestamp\n        /* \"contracts/ViewQuiz.sol\":660:670  msg.sender */\n      caller\n        /* \"contracts/ViewQuiz.sol\":619:671  abi.encodePacked(_seed, block.timestamp, msg.sender) */\n      add(0x20, mload(0x40))\n      tag_102\n      swap4\n      swap3\n      swap2\n      swap1\n      tag_103\n      jump\t// in\n    tag_102:\n      mload(0x40)\n      0x20\n      dup2\n      dup4\n      sub\n      sub\n      dup2\n      mstore\n      swap1\n      0x40\n      mstore\n        /* \"contracts/ViewQuiz.sol\":609:672  keccak256(abi.encodePacked(_seed, block.timestamp, msg.sender)) */\n      dup1\n      mload\n      swap1\n      0x20\n      add\n      keccak256\n        /* \"contracts/ViewQuiz.sol\":604:673  uint(keccak256(abi.encodePacked(_seed, block.timestamp, msg.sender))) */\n      0x00\n      shr\n        /* \"contracts/ViewQuiz.sol\":604:690  uint(keccak256(abi.encodePacked(_seed, block.timestamp, msg.sender))) % quizIds.length */\n      tag_104\n      swap2\n      swap1\n      tag_105\n      jump\t// in\n    tag_104:\n        /* \"contracts/ViewQuiz.sol\":592:690  uint rand = uint(keccak256(abi.encodePacked(_seed, block.timestamp, msg.sender))) % quizIds.length */\n      swap1\n      pop\n        /* \"contracts/ViewQuiz.sol\":700:711  uint quizId */\n      0x00\n        /* \"contracts/ViewQuiz.sol\":714:721  quizIds */\n      dup4\n        /* \"contracts/ViewQuiz.sol\":722:726  rand */\n      dup3\n        /* \"contracts/ViewQuiz.sol\":714:727  quizIds[rand] */\n      dup2\n      mload\n      dup2\n      lt\n      tag_106\n      jumpi\n      tag_107\n      tag_98\n      jump\t// in\n    tag_107:\n    tag_106:\n      0x20\n      mul\n      0x20\n      add\n      add\n      mload\n        /* \"contracts/ViewQuiz.sol\":700:727  uint quizId = quizIds[rand] */\n      swap1\n      pop\n        /* \"contracts/ViewQuiz.sol\":737:753  Quiz memory quiz */\n      0x00\n        /* \"contracts/ViewQuiz.sol\":756:763  quizzes */\n      0x01\n        /* \"contracts/ViewQuiz.sol\":764:770  quizId */\n      dup3\n        /* \"contracts/ViewQuiz.sol\":756:771  quizzes[quizId] */\n      dup2\n      sload\n      dup2\n      lt\n      tag_108\n      jumpi\n      tag_109\n      tag_98\n      jump\t// in\n    tag_109:\n    tag_108:\n      swap1\n      0x00\n      mstore\n      keccak256(0x00, 0x20)\n      swap1\n      0x09\n      mul\n      add\n        /* \"contracts/ViewQuiz.sol\":737:771  Quiz memory quiz = quizzes[quizId] */\n      mload(0x40)\n      dup1\n      0x0120\n      add\n      0x40\n      mstore\n      swap1\n      dup2\n      0x00\n      dup3\n      add\n      dup1\n      sload\n      tag_111\n      swap1\n      tag_112\n      jump\t// in\n    tag_111:\n      dup1\n      0x1f\n      add\n      0x20\n      dup1\n      swap2\n      div\n      mul\n      0x20\n      add\n      mload(0x40)\n      swap1\n      dup2\n      add\n      0x40\n      mstore\n      dup1\n      swap3\n      swap2\n      swap1\n      dup2\n      dup2\n      mstore\n      0x20\n      add\n      dup3\n      dup1\n      sload\n      tag_113\n      swap1\n      tag_112\n      jump\t// in\n    tag_113:\n      dup1\n      iszero\n      tag_114\n      jumpi\n      dup1\n      0x1f\n      lt\n      tag_115\n      jumpi\n      0x0100\n      dup1\n      dup4\n      sload\n      div\n      mul\n      dup4\n      mstore\n      swap2\n      0x20\n      add\n      swap2\n      jump(tag_114)\n    tag_115:\n      dup3\n      add\n      swap2\n      swap1\n      0x00\n      mstore\n      keccak256(0x00, 0x20)\n      swap1\n    tag_116:\n      dup2\n      sload\n      dup2\n      mstore\n      swap1\n      0x01\n      add\n      swap1\n      0x20\n      add\n      dup1\n      dup4\n      gt\n      tag_116\n      jumpi\n      dup3\n      swap1\n      sub\n      0x1f\n      and\n      dup3\n      add\n      swap2\n    tag_114:\n      pop\n      pop\n      pop\n      pop\n      pop\n      dup2\n      mstore\n      0x20\n      add\n      0x01\n      dup3\n      add\n      dup1\n      sload\n      tag_117\n      swap1\n      tag_112\n      jump\t// in\n    tag_117:\n      dup1\n      0x1f\n      add\n      0x20\n      dup1\n      swap2\n      div\n      mul\n      0x20\n      add\n      mload(0x40)\n      swap1\n      dup2\n      add\n      0x40\n      mstore\n      dup1\n      swap3\n      swap2\n      swap1\n      dup2\n      dup2\n      mstore\n      0x20\n      add\n      dup3\n      dup1\n      sload\n      tag_118\n      swap1\n      tag_112\n      jump\t// in\n    tag_118:\n      dup1\n      iszero\n      tag_119\n      jumpi\n      dup1\n      0x1f\n      lt\n      tag_120\n      jumpi\n      0x0100\n      dup1\n      dup4\n      sload\n      div\n      mul\n      dup4\n      mstore\n      swap2\n      0x20\n      add\n      swap2\n      jump(tag_119)\n    tag_120:\n      dup3\n      add\n      swap2\n      swap1\n      0x00\n      mstore\n      keccak256(0x00, 0x20)\n      swap1\n    tag_121:\n      dup2\n      sload\n      dup2\n      mstore\n      swap1\n      0x01\n      add\n      swap1\n      0x20\n      add\n      dup1\n      dup4\n      gt\n      tag_121\n      jumpi\n      dup3\n      swap1\n      sub\n      0x1f\n      and\n      dup3\n      add\n      swap2\n    tag_119:\n      pop\n      pop\n      pop\n      pop\n      pop\n      dup2\n      mstore\n      0x20\n      add\n      0x02\n      dup3\n      add\n      dup1\n      sload\n      tag_122\n      swap1\n      tag_112\n      jump\t// in\n    tag_122:\n      dup1\n      0x1f\n      add\n      0x20\n      dup1\n      swap2\n      div\n      mul\n      0x20\n      add\n      mload(0x40)\n      swap1\n      dup2\n      add\n      0x40\n      mstore\n      dup1\n      swap3\n      swap2\n      swap1\n      dup2\n      dup2\n      mstore\n      0x20\n      add\n      dup3\n      dup1\n      sload\n      tag_123\n      swap1\n      tag_112\n      jump\t// in\n    tag_123:\n      dup1\n      iszero\n      tag_124\n      jumpi\n      dup1\n      0x1f\n      lt\n      tag_125\n      jumpi\n      0x0100\n      dup1\n      dup4\n      sload\n      div\n      mul\n      dup4\n      mstore\n      swap2\n      0x20\n      add\n      swap2\n      jump(tag_124)\n    tag_125:\n      dup3\n      add\n      swap2\n      swap1\n      0x00\n      mstore\n      keccak256(0x00, 0x20)\n      swap1\n    tag_126:\n      dup2\n      sload\n      dup2\n      mstore\n      swap1\n      0x01\n      add\n      swap1\n      0x20\n      add\n      dup1\n      dup4\n      gt\n      tag_126\n      jumpi\n      dup3\n      swap1\n      sub\n      0x1f\n      and\n      dup3\n      add\n      swap2\n    tag_124:\n      pop\n      pop\n      pop\n      pop\n      pop\n      dup2\n      mstore\n      0x20\n      add\n      0x03\n      dup3\n      add\n      dup1\n      sload\n      tag_127\n      swap1\n      tag_112\n      jump\t// in\n    tag_127:\n      dup1\n      0x1f\n      add\n      0x20\n      dup1\n      swap2\n      div\n      mul\n      0x20\n      add\n      mload(0x40)\n      swap1\n      dup2\n      add\n      0x40\n      mstore\n      dup1\n      swap3\n      swap2\n      swap1\n      dup2\n      dup2\n      mstore\n      0x20\n      add\n      dup3\n      dup1\n      sload\n      tag_128\n      swap1\n      tag_112\n      jump\t// in\n    tag_128:\n      dup1\n      iszero\n      tag_129\n      jumpi\n      dup1\n      0x1f\n      lt\n      tag_130\n      jumpi\n      0x0100\n      dup1\n      dup4\n      sload\n      div\n      mul\n      dup4\n      mstore\n      swap2\n      0x20\n      add\n      swap2\n      jump(tag_129)\n    tag_130:\n      dup3\n      add\n      swap2\n      swap1\n      0x00\n      mstore\n      keccak256(0x00, 0x20)\n      swap1\n    tag_131:\n      dup2\n      sload\n      dup2\n      mstore\n      swap1\n      0x01\n      add\n      swap1\n      0x20\n      add\n      dup1\n      dup4\n      gt\n      tag_131\n      jumpi\n      dup3\n      swap1\n      sub\n      0x1f\n      and\n      dup3\n      add\n      swap2\n    tag_129:\n      pop\n      pop\n      pop\n      pop\n      pop\n      dup2\n      mstore\n      0x20\n      add\n      0x04\n      dup3\n      add\n      dup1\n      sload\n      tag_132\n      swap1\n      tag_112\n      jump\t// in\n    tag_132:\n      dup1\n      0x1f\n      add\n      0x20\n      dup1\n      swap2\n      div\n      mul\n      0x20\n      add\n      mload(0x40)\n      swap1\n      dup2\n      add\n      0x40\n      mstore\n      dup1\n      swap3\n      swap2\n      swap1\n      dup2\n      dup2\n      mstore\n      0x20\n      add\n      dup3\n      dup1\n      sload\n      tag_133\n      swap1\n      tag_112\n      jump\t// in\n    tag_133:\n      dup1\n      iszero\n      tag_134\n      jumpi\n      dup1\n      0x1f\n      lt\n      tag_135\n      jumpi\n      0x0100\n      dup1\n      dup4\n      sload\n      div\n      mul\n      dup4\n      mstore\n      swap2\n      0x20\n      add\n      swap2\n      jump(tag_134)\n    tag_135:\n      dup3\n      add\n      swap2\n      swap1\n      0x00\n      mstore\n      keccak256(0x00, 0x20)\n      swap1\n    tag_136:\n      dup2\n      sload\n      dup2\n      mstore\n      swap1\n      0x01\n      add\n      swap1\n      0x20\n      add\n      dup1\n      dup4\n      gt\n      tag_136\n      jumpi\n      dup3\n      swap1\n      sub\n      0x1f\n      and\n      dup3\n      add\n      swap2\n    tag_134:\n      pop\n      pop\n      pop\n      pop\n      pop\n      dup2\n      mstore\n      0x20\n      add\n      0x05\n      dup3\n      add\n      dup1\n      sload\n      tag_137\n      swap1\n      tag_112\n      jump\t// in\n    tag_137:\n      dup1\n      0x1f\n      add\n      0x20\n      dup1\n      swap2\n      div\n      mul\n      0x20\n      add\n      mload(0x40)\n      swap1\n      dup2\n      add\n      0x40\n      mstore\n      dup1\n      swap3\n      swap2\n      swap1\n      dup2\n      dup2\n      mstore\n      0x20\n      add\n      dup3\n      dup1\n      sload\n      tag_138\n      swap1\n      tag_112\n      jump\t// in\n    tag_138:\n      dup1\n      iszero\n      tag_139\n      jumpi\n      dup1\n      0x1f\n      lt\n      tag_140\n      jumpi\n      0x0100\n      dup1\n      dup4\n      sload\n      div\n      mul\n      dup4\n      mstore\n      swap2\n      0x20\n      add\n      swap2\n      jump(tag_139)\n    tag_140:\n      dup3\n      add\n      swap2\n      swap1\n      0x00\n      mstore\n      keccak256(0x00, 0x20)\n      swap1\n    tag_141:\n      dup2\n      sload\n      dup2\n      mstore\n      swap1\n      0x01\n      add\n      swap1\n      0x20\n      add\n      dup1\n      dup4\n      gt\n      tag_141\n      jumpi\n      dup3\n      swap1\n      sub\n      0x1f\n      and\n      dup3\n      add\n      swap2\n    tag_139:\n      pop\n      pop\n      pop\n      pop\n      pop\n      dup2\n      mstore\n      0x20\n      add\n      0x06\n      dup3\n      add\n      0x00\n      swap1\n      sload\n      swap1\n      0x0100\n      exp\n      swap1\n      div\n      0xff\n      and\n      0xff\n      and\n      0xff\n      and\n      dup2\n      mstore\n      0x20\n      add\n      0x07\n      dup3\n      add\n      sload\n      dup2\n      mstore\n      0x20\n      add\n      0x08\n      dup3\n      add\n      sload\n      dup2\n      mstore\n      pop\n      pop\n      swap1\n      pop\n        /* \"contracts/ViewQuiz.sol\":818:822  quiz */\n      dup1\n        /* \"contracts/ViewQuiz.sol\":811:822  return quiz */\n      swap6\n      pop\n      pop\n      pop\n      pop\n      pop\n      pop\n        /* \"contracts/ViewQuiz.sol\":264:829  function getRandomQuiz(string memory _seed) public view returns (Quiz memory) {... */\n      swap2\n      swap1\n      pop\n      jump\t// out\n        /* \"contracts/Ownable.sol\":1029:1114  function owner() public view virtual returns (address) {... */\n    tag_48:\n        /* \"contracts/Ownable.sol\":1075:1082  address */\n      0x00\n        /* \"contracts/Ownable.sol\":1101:1107  _owner */\n      dup1\n      0x00\n      swap1\n      sload\n      swap1\n      0x0100\n      exp\n      swap1\n      div\n      0xffffffffffffffffffffffffffffffffffffffff\n      and\n        /* \"contracts/Ownable.sol\":1094:1107  return _owner */\n      swap1\n      pop\n        /* \"contracts/Ownable.sol\":1029:1114  function owner() public view virtual returns (address) {... */\n      swap1\n      jump\t// out\n        /* \"contracts/CreateQuiz.sol\":1378:1883  function createQuiz(string memory _question, string memory _choice1, string memory _choice2, string memory _choice3, string memory _choice4, string memory _hint, uint8 _answer, uint8 _languageCode, uint _reward, uint _rewardPool) public payable {... */\n    tag_53:\n        /* \"contracts/CreateQuiz.sol\":1654:1665  _rewardPool */\n      dup1\n        /* \"contracts/CreateQuiz.sol\":1641:1650  msg.value */\n      callvalue\n        /* \"contracts/CreateQuiz.sol\":1641:1665  msg.value == _rewardPool */\n      eq\n        /* \"contracts/CreateQuiz.sol\":1633:1666  require(msg.value == _rewardPool) */\n      tag_144\n      jumpi\n      0x00\n      dup1\n      revert\n    tag_144:\n        /* \"contracts/CreateQuiz.sol\":1709:1710  0 */\n      0x00\n        /* \"contracts/CreateQuiz.sol\":1698:1705  _reward */\n      dup3\n        /* \"contracts/CreateQuiz.sol\":1684:1695  _rewardPool */\n      dup3\n        /* \"contracts/CreateQuiz.sol\":1684:1705  _rewardPool % _reward */\n      tag_145\n      swap2\n      swap1\n      tag_105\n      jump\t// in\n    tag_145:\n        /* \"contracts/CreateQuiz.sol\":1684:1710  _rewardPool % _reward == 0 */\n      eq\n        /* \"contracts/CreateQuiz.sol\":1676:1711  require(_rewardPool % _reward == 0) */\n      tag_146\n      jumpi\n      0x00\n      dup1\n      revert\n    tag_146:\n        /* \"contracts/CreateQuiz.sol\":1743:1750  _reward */\n      dup2\n        /* \"contracts/CreateQuiz.sol\":1729:1740  _rewardPool */\n      dup2\n        /* \"contracts/CreateQuiz.sol\":1729:1750  _rewardPool > _reward */\n      gt\n        /* \"contracts/CreateQuiz.sol\":1721:1751  require(_rewardPool > _reward) */\n      tag_147\n      jumpi\n      0x00\n      dup1\n      revert\n    tag_147:\n        /* \"contracts/CreateQuiz.sol\":1761:1876  _createQuiz(_question, _choice1, _choice2, _choice3, _choice4, _hint, _answer, _languageCode, _reward, _rewardPool) */\n      tag_148\n        /* \"contracts/CreateQuiz.sol\":1773:1782  _question */\n      dup11\n        /* \"contracts/CreateQuiz.sol\":1784:1792  _choice1 */\n      dup11\n        /* \"contracts/CreateQuiz.sol\":1794:1802  _choice2 */\n      dup11\n        /* \"contracts/CreateQuiz.sol\":1804:1812  _choice3 */\n      dup11\n        /* \"contracts/CreateQuiz.sol\":1814:1822  _choice4 */\n      dup11\n        /* \"contracts/CreateQuiz.sol\":1824:1829  _hint */\n      dup11\n        /* \"contracts/CreateQuiz.sol\":1831:1838  _answer */\n      dup11\n        /* \"contracts/CreateQuiz.sol\":1840:1853  _languageCode */\n      dup11\n        /* \"contracts/CreateQuiz.sol\":1855:1862  _reward */\n      dup11\n        /* \"contracts/CreateQuiz.sol\":1864:1875  _rewardPool */\n      dup11\n        /* \"contracts/CreateQuiz.sol\":1761:1772  _createQuiz */\n      tag_149\n        /* \"contracts/CreateQuiz.sol\":1761:1876  _createQuiz(_question, _choice1, _choice2, _choice3, _choice4, _hint, _answer, _languageCode, _reward, _rewardPool) */\n      jump\t// in\n    tag_148:\n        /* \"contracts/CreateQuiz.sol\":1378:1883  function createQuiz(string memory _question, string memory _choice1, string memory _choice2, string memory _choice3, string memory _choice4, string memory _hint, uint8 _answer, uint8 _languageCode, uint _reward, uint _rewardPool) public payable {... */\n      pop\n      pop\n      pop\n      pop\n      pop\n      pop\n      pop\n      pop\n      pop\n      pop\n      jump\t// out\n        /* \"contracts/ViewQuiz.sol\":1092:1331  function quizOwnerGetQuiz(uint _quizId) public view onlyQuizOwner(_quizId) returns (Quiz memory, uint8) {... */\n    tag_57:\n        /* \"contracts/ViewQuiz.sol\":1176:1187  Quiz memory */\n      tag_150\n      tag_90\n      jump\t// in\n    tag_150:\n        /* \"contracts/ViewQuiz.sol\":1189:1194  uint8 */\n      0x00\n        /* \"contracts/ViewQuiz.sol\":1158:1165  _quizId */\n      dup3\n        /* \"contracts/CreateQuiz.sol\":674:684  msg.sender */\n      caller\n        /* \"contracts/CreateQuiz.sol\":652:684  quizOwner[_quizId] == msg.sender */\n      0xffffffffffffffffffffffffffffffffffffffff\n      and\n        /* \"contracts/CreateQuiz.sol\":652:661  quizOwner */\n      0x04\n        /* \"contracts/CreateQuiz.sol\":652:670  quizOwner[_quizId] */\n      0x00\n        /* \"contracts/CreateQuiz.sol\":662:669  _quizId */\n      dup4\n        /* \"contracts/CreateQuiz.sol\":652:670  quizOwner[_quizId] */\n      dup2\n      mstore\n      0x20\n      add\n      swap1\n      dup2\n      mstore\n      0x20\n      add\n      0x00\n      keccak256\n      0x00\n      swap1\n      sload\n      swap1\n      0x0100\n      exp\n      swap1\n      div\n      0xffffffffffffffffffffffffffffffffffffffff\n      and\n        /* \"contracts/CreateQuiz.sol\":652:684  quizOwner[_quizId] == msg.sender */\n      0xffffffffffffffffffffffffffffffffffffffff\n      and\n      eq\n        /* \"contracts/CreateQuiz.sol\":644:685  require(quizOwner[_quizId] == msg.sender) */\n      tag_152\n      jumpi\n      0x00\n      dup1\n      revert\n    tag_152:\n        /* \"contracts/ViewQuiz.sol\":1286:1293  quizzes */\n      0x01\n        /* \"contracts/ViewQuiz.sol\":1294:1301  _quizId */\n      dup5\n        /* \"contracts/ViewQuiz.sol\":1286:1302  quizzes[_quizId] */\n      dup2\n      sload\n      dup2\n      lt\n      tag_154\n      jumpi\n      tag_155\n      tag_98\n      jump\t// in\n    tag_155:\n    tag_154:\n      swap1\n      0x00\n      mstore\n      keccak256(0x00, 0x20)\n      swap1\n      0x09\n      mul\n      add\n        /* \"contracts/ViewQuiz.sol\":1304:1314  quizAnswer */\n      0x03\n        /* \"contracts/ViewQuiz.sol\":1304:1323  quizAnswer[_quizId] */\n      0x00\n        /* \"contracts/ViewQuiz.sol\":1315:1322  _quizId */\n      dup7\n        /* \"contracts/ViewQuiz.sol\":1304:1323  quizAnswer[_quizId] */\n      dup2\n      mstore\n      0x20\n      add\n      swap1\n      dup2\n      mstore\n      0x20\n      add\n      0x00\n      keccak256\n      0x00\n      swap1\n      sload\n      swap1\n      0x0100\n      exp\n      swap1\n      div\n      0xff\n      and\n        /* \"contracts/ViewQuiz.sol\":1278:1324  return (quizzes[_quizId], quizAnswer[_quizId]) */\n      dup2\n      mload(0x40)\n      dup1\n      0x0120\n      add\n      0x40\n      mstore\n      swap1\n      dup2\n      0x00\n      dup3\n      add\n      dup1\n      sload\n      tag_157\n      swap1\n      tag_112\n      jump\t// in\n    tag_157:\n      dup1\n      0x1f\n      add\n      0x20\n      dup1\n      swap2\n      div\n      mul\n      0x20\n      add\n      mload(0x40)\n      swap1\n      dup2\n      add\n      0x40\n      mstore\n      dup1\n      swap3\n      swap2\n      swap1\n      dup2\n      dup2\n      mstore\n      0x20\n      add\n      dup3\n      dup1\n      sload\n      tag_158\n      swap1\n      tag_112\n      jump\t// in\n    tag_158:\n      dup1\n      iszero\n      tag_159\n      jumpi\n      dup1\n      0x1f\n      lt\n      tag_160\n      jumpi\n      0x0100\n      dup1\n      dup4\n      sload\n      div\n      mul\n      dup4\n      mstore\n      swap2\n      0x20\n      add\n      swap2\n      jump(tag_159)\n    tag_160:\n      dup3\n      add\n      swap2\n      swap1\n      0x00\n      mstore\n      keccak256(0x00, 0x20)\n      swap1\n    tag_161:\n      dup2\n      sload\n      dup2\n      mstore\n      swap1\n      0x01\n      add\n      swap1\n      0x20\n      add\n      dup1\n      dup4\n      gt\n      tag_161\n      jumpi\n      dup3\n      swap1\n      sub\n      0x1f\n      and\n      dup3\n      add\n      swap2\n    tag_159:\n      pop\n      pop\n      pop\n      pop\n      pop\n      dup2\n      mstore\n      0x20\n      add\n      0x01\n      dup3\n      add\n      dup1\n      sload\n      tag_162\n      swap1\n      tag_112\n      jump\t// in\n    tag_162:\n      dup1\n      0x1f\n      add\n      0x20\n      dup1\n      swap2\n      div\n      mul\n      0x20\n      add\n      mload(0x40)\n      swap1\n      dup2\n      add\n      0x40\n      mstore\n      dup1\n      swap3\n      swap2\n      swap1\n      dup2\n      dup2\n      mstore\n      0x20\n      add\n      dup3\n      dup1\n      sload\n      tag_163\n      swap1\n      tag_112\n      jump\t// in\n    tag_163:\n      dup1\n      iszero\n      tag_164\n      jumpi\n      dup1\n      0x1f\n      lt\n      tag_165\n      jumpi\n      0x0100\n      dup1\n      dup4\n      sload\n      div\n      mul\n      dup4\n      mstore\n      swap2\n      0x20\n      add\n      swap2\n      jump(tag_164)\n    tag_165:\n      dup3\n      add\n      swap2\n      swap1\n      0x00\n      mstore\n      keccak256(0x00, 0x20)\n      swap1\n    tag_166:\n      dup2\n      sload\n      dup2\n      mstore\n      swap1\n      0x01\n      add\n      swap1\n      0x20\n      add\n      dup1\n      dup4\n      gt\n      tag_166\n      jumpi\n      dup3\n      swap1\n      sub\n      0x1f\n      and\n      dup3\n      add\n      swap2\n    tag_164:\n      pop\n      pop\n      pop\n      pop\n      pop\n      dup2\n      mstore\n      0x20\n      add\n      0x02\n      dup3\n      add\n      dup1\n      sload\n      tag_167\n      swap1\n      tag_112\n      jump\t// in\n    tag_167:\n      dup1\n      0x1f\n      add\n      0x20\n      dup1\n      swap2\n      div\n      mul\n      0x20\n      add\n      mload(0x40)\n      swap1\n      dup2\n      add\n      0x40\n      mstore\n      dup1\n      swap3\n      swap2\n      swap1\n      dup2\n      dup2\n      mstore\n      0x20\n      add\n      dup3\n      dup1\n      sload\n      tag_168\n      swap1\n      tag_112\n      jump\t// in\n    tag_168:\n      dup1\n      iszero\n      tag_169\n      jumpi\n      dup1\n      0x1f\n      lt\n      tag_170\n      jumpi\n      0x0100\n      dup1\n      dup4\n      sload\n      div\n      mul\n      dup4\n      mstore\n      swap2\n      0x20\n      add\n      swap2\n      jump(tag_169)\n    tag_170:\n      dup3\n      add\n      swap2\n      swap1\n      0x00\n      mstore\n      keccak256(0x00, 0x20)\n      swap1\n    tag_171:\n      dup2\n      sload\n      dup2\n      mstore\n      swap1\n      0x01\n      add\n      swap1\n      0x20\n      add\n      dup1\n      dup4\n      gt\n      tag_171\n      jumpi\n      dup3\n      swap1\n      sub\n      0x1f\n      and\n      dup3\n      add\n      swap2\n    tag_169:\n      pop\n      pop\n      pop\n      pop\n      pop\n      dup2\n      mstore\n      0x20\n      add\n      0x03\n      dup3\n      add\n      dup1\n      sload\n      tag_172\n      swap1\n      tag_112\n      jump\t// in\n    tag_172:\n      dup1\n      0x1f\n      add\n      0x20\n      dup1\n      swap2\n      div\n      mul\n      0x20\n      add\n      mload(0x40)\n      swap1\n      dup2\n      add\n      0x40\n      mstore\n      dup1\n      swap3\n      swap2\n      swap1\n      dup2\n      dup2\n      mstore\n      0x20\n      add\n      dup3\n      dup1\n      sload\n      tag_173\n      swap1\n      tag_112\n      jump\t// in\n    tag_173:\n      dup1\n      iszero\n      tag_174\n      jumpi\n      dup1\n      0x1f\n      lt\n      tag_175\n      jumpi\n      0x0100\n      dup1\n      dup4\n      sload\n      div\n      mul\n      dup4\n      mstore\n      swap2\n      0x20\n      add\n      swap2\n      jump(tag_174)\n    tag_175:\n      dup3\n      add\n      swap2\n      swap1\n      0x00\n      mstore\n      keccak256(0x00, 0x20)\n      swap1\n    tag_176:\n      dup2\n      sload\n      dup2\n      mstore\n      swap1\n      0x01\n      add\n      swap1\n      0x20\n      add\n      dup1\n      dup4\n      gt\n      tag_176\n      jumpi\n      dup3\n      swap1\n      sub\n      0x1f\n      and\n      dup3\n      add\n      swap2\n    tag_174:\n      pop\n      pop\n      pop\n      pop\n      pop\n      dup2\n      mstore\n      0x20\n      add\n      0x04\n      dup3\n      add\n      dup1\n      sload\n      tag_177\n      swap1\n      tag_112\n      jump\t// in\n    tag_177:\n      dup1\n      0x1f\n      add\n      0x20\n      dup1\n      swap2\n      div\n      mul\n      0x20\n      add\n      mload(0x40)\n      swap1\n      dup2\n      add\n      0x40\n      mstore\n      dup1\n      swap3\n      swap2\n      swap1\n      dup2\n      dup2\n      mstore\n      0x20\n      add\n      dup3\n      dup1\n      sload\n      tag_178\n      swap1\n      tag_112\n      jump\t// in\n    tag_178:\n      dup1\n      iszero\n      tag_179\n      jumpi\n      dup1\n      0x1f\n      lt\n      tag_180\n      jumpi\n      0x0100\n      dup1\n      dup4\n      sload\n      div\n      mul\n      dup4\n      mstore\n      swap2\n      0x20\n      add\n      swap2\n      jump(tag_179)\n    tag_180:\n      dup3\n      add\n      swap2\n      swap1\n      0x00\n      mstore\n      keccak256(0x00, 0x20)\n      swap1\n    tag_181:\n      dup2\n      sload\n      dup2\n      mstore\n      swap1\n      0x01\n      add\n      swap1\n      0x20\n      add\n      dup1\n      dup4\n      gt\n      tag_181\n      jumpi\n      dup3\n      swap1\n      sub\n      0x1f\n      and\n      dup3\n      add\n      swap2\n    tag_179:\n      pop\n      pop\n      pop\n      pop\n      pop\n      dup2\n      mstore\n      0x20\n      add\n      0x05\n      dup3\n      add\n      dup1\n      sload\n      tag_182\n      swap1\n      tag_112\n      jump\t// in\n    tag_182:\n      dup1\n      0x1f\n      add\n      0x20\n      dup1\n      swap2\n      div\n      mul\n      0x20\n      add\n      mload(0x40)\n      swap1\n      dup2\n      add\n      0x40\n      mstore\n      dup1\n      swap3\n      swap2\n      swap1\n      dup2\n      dup2\n      mstore\n      0x20\n      add\n      dup3\n      dup1\n      sload\n      tag_183\n      swap1\n      tag_112\n      jump\t// in\n    tag_183:\n      dup1\n      iszero\n      tag_184\n      jumpi\n      dup1\n      0x1f\n      lt\n      tag_185\n      jumpi\n      0x0100\n      dup1\n      dup4\n      sload\n      div\n      mul\n      dup4\n      mstore\n      swap2\n      0x20\n      add\n      swap2\n      jump(tag_184)\n    tag_185:\n      dup3\n      add\n      swap2\n      swap1\n      0x00\n      mstore\n      keccak256(0x00, 0x20)\n      swap1\n    tag_186:\n      dup2\n      sload\n      dup2\n      mstore\n      swap1\n      0x01\n      add\n      swap1\n      0x20\n      add\n      dup1\n      dup4\n      gt\n      tag_186\n      jumpi\n      dup3\n      swap1\n      sub\n      0x1f\n      and\n      dup3\n      add\n      swap2\n    tag_184:\n      pop\n      pop\n      pop\n      pop\n      pop\n      dup2\n      mstore\n      0x20\n      add\n      0x06\n      dup3\n      add\n      0x00\n      swap1\n      sload\n      swap1\n      0x0100\n      exp\n      swap1\n      div\n      0xff\n      and\n      0xff\n      and\n      0xff\n      and\n      dup2\n      mstore\n      0x20\n      add\n      0x07\n      dup3\n      add\n      sload\n      dup2\n      mstore\n      0x20\n      add\n      0x08\n      dup3\n      add\n      sload\n      dup2\n      mstore\n      pop\n      pop\n      swap2\n      pop\n      swap3\n      pop\n      swap3\n      pop\n        /* \"contracts/ViewQuiz.sol\":1092:1331  function quizOwnerGetQuiz(uint _quizId) public view onlyQuizOwner(_quizId) returns (Quiz memory, uint8) {... */\n      pop\n      swap2\n      pop\n      swap2\n      jump\t// out\n        /* \"contracts/Ownable.sol\":1911:2109  function transferOwnership(address newOwner) public virtual onlyOwner {... */\n    tag_64:\n        /* \"contracts/Ownable.sol\":1252:1264  _msgSender() */\n      tag_188\n        /* \"contracts/Ownable.sol\":1252:1262  _msgSender */\n      tag_72\n        /* \"contracts/Ownable.sol\":1252:1264  _msgSender() */\n      jump\t// in\n    tag_188:\n        /* \"contracts/Ownable.sol\":1241:1264  owner() == _msgSender() */\n      0xffffffffffffffffffffffffffffffffffffffff\n      and\n        /* \"contracts/Ownable.sol\":1241:1248  owner() */\n      tag_189\n        /* \"contracts/Ownable.sol\":1241:1246  owner */\n      tag_48\n        /* \"contracts/Ownable.sol\":1241:1248  owner() */\n      jump\t// in\n    tag_189:\n        /* \"contracts/Ownable.sol\":1241:1264  owner() == _msgSender() */\n      0xffffffffffffffffffffffffffffffffffffffff\n      and\n      eq\n        /* \"contracts/Ownable.sol\":1233:1301  require(owner() == _msgSender(), \"Ownable: caller is not the owner\") */\n      tag_190\n      jumpi\n      mload(0x40)\n      0x08c379a000000000000000000000000000000000000000000000000000000000\n      dup2\n      mstore\n      0x04\n      add\n      tag_191\n      swap1\n      tag_76\n      jump\t// in\n    tag_191:\n      mload(0x40)\n      dup1\n      swap2\n      sub\n      swap1\n      revert\n    tag_190:\n        /* \"contracts/Ownable.sol\":2019:2020  0 */\n      0x00\n        /* \"contracts/Ownable.sol\":1999:2021  newOwner != address(0) */\n      0xffffffffffffffffffffffffffffffffffffffff\n      and\n        /* \"contracts/Ownable.sol\":1999:2007  newOwner */\n      dup2\n        /* \"contracts/Ownable.sol\":1999:2021  newOwner != address(0) */\n      0xffffffffffffffffffffffffffffffffffffffff\n      and\n      sub\n        /* \"contracts/Ownable.sol\":1991:2064  require(newOwner != address(0), \"Ownable: new owner is the zero address\") */\n      tag_193\n      jumpi\n      mload(0x40)\n      0x08c379a000000000000000000000000000000000000000000000000000000000\n      dup2\n      mstore\n      0x04\n      add\n      tag_194\n      swap1\n      tag_195\n      jump\t// in\n    tag_194:\n      mload(0x40)\n      dup1\n      swap2\n      sub\n      swap1\n      revert\n    tag_193:\n        /* \"contracts/Ownable.sol\":2074:2102  _transferOwnership(newOwner) */\n      tag_196\n        /* \"contracts/Ownable.sol\":2093:2101  newOwner */\n      dup2\n        /* \"contracts/Ownable.sol\":2074:2092  _transferOwnership */\n      tag_88\n        /* \"contracts/Ownable.sol\":2074:2102  _transferOwnership(newOwner) */\n      jump\t// in\n    tag_196:\n        /* \"contracts/Ownable.sol\":1911:2109  function transferOwnership(address newOwner) public virtual onlyOwner {... */\n      pop\n      jump\t// out\n        /* \"contracts/CreateQuiz.sol\":2152:2292  function quizOwnerChangeHint(uint _quizId, string memory _hint) public onlyQuizOwner(_quizId) {... */\n    tag_69:\n        /* \"contracts/CreateQuiz.sol\":2237:2244  _quizId */\n      dup2\n        /* \"contracts/CreateQuiz.sol\":674:684  msg.sender */\n      caller\n        /* \"contracts/CreateQuiz.sol\":652:684  quizOwner[_quizId] == msg.sender */\n      0xffffffffffffffffffffffffffffffffffffffff\n      and\n        /* \"contracts/CreateQuiz.sol\":652:661  quizOwner */\n      0x04\n        /* \"contracts/CreateQuiz.sol\":652:670  quizOwner[_quizId] */\n      0x00\n        /* \"contracts/CreateQuiz.sol\":662:669  _quizId */\n      dup4\n        /* \"contracts/CreateQuiz.sol\":652:670  quizOwner[_quizId] */\n      dup2\n      mstore\n      0x20\n      add\n      swap1\n      dup2\n      mstore\n      0x20\n      add\n      0x00\n      keccak256\n      0x00\n      swap1\n      sload\n      swap1\n      0x0100\n      exp\n      swap1\n      div\n      0xffffffffffffffffffffffffffffffffffffffff\n      and\n        /* \"contracts/CreateQuiz.sol\":652:684  quizOwner[_quizId] == msg.sender */\n      0xffffffffffffffffffffffffffffffffffffffff\n      and\n      eq\n        /* \"contracts/CreateQuiz.sol\":644:685  require(quizOwner[_quizId] == msg.sender) */\n      tag_198\n      jumpi\n      0x00\n      dup1\n      revert\n    tag_198:\n        /* \"contracts/CreateQuiz.sol\":2280:2285  _hint */\n      dup2\n        /* \"contracts/CreateQuiz.sol\":2256:2263  quizzes */\n      0x01\n        /* \"contracts/CreateQuiz.sol\":2264:2271  _quizId */\n      dup5\n        /* \"contracts/CreateQuiz.sol\":2256:2272  quizzes[_quizId] */\n      dup2\n      sload\n      dup2\n      lt\n      tag_200\n      jumpi\n      tag_201\n      tag_98\n      jump\t// in\n    tag_201:\n    tag_200:\n      swap1\n      0x00\n      mstore\n      keccak256(0x00, 0x20)\n      swap1\n      0x09\n      mul\n      add\n        /* \"contracts/CreateQuiz.sol\":2256:2277  quizzes[_quizId].hint */\n      0x05\n      add\n        /* \"contracts/CreateQuiz.sol\":2256:2285  quizzes[_quizId].hint = _hint */\n      swap1\n      dup1\n      mload\n      swap1\n      0x20\n      add\n      swap1\n      tag_203\n      swap3\n      swap2\n      swap1\n      tag_204\n      jump\t// in\n    tag_203:\n      pop\n        /* \"contracts/CreateQuiz.sol\":2152:2292  function quizOwnerChangeHint(uint _quizId, string memory _hint) public onlyQuizOwner(_quizId) {... */\n      pop\n      pop\n      pop\n      jump\t// out\n        /* \"contracts/Context.sol\":640:736  function _msgSender() internal view virtual returns (address) {... */\n    tag_72:\n        /* \"contracts/Context.sol\":693:700  address */\n      0x00\n        /* \"contracts/Context.sol\":719:729  msg.sender */\n      caller\n        /* \"contracts/Context.sol\":712:729  return msg.sender */\n      swap1\n      pop\n        /* \"contracts/Context.sol\":640:736  function _msgSender() internal view virtual returns (address) {... */\n      swap1\n      jump\t// out\n        /* \"contracts/Ownable.sol\":2263:2450  function _transferOwnership(address newOwner) internal virtual {... */\n    tag_88:\n        /* \"contracts/Ownable.sol\":2336:2352  address oldOwner */\n      0x00\n        /* \"contracts/Ownable.sol\":2355:2361  _owner */\n      dup1\n      0x00\n      swap1\n      sload\n      swap1\n      0x0100\n      exp\n      swap1\n      div\n      0xffffffffffffffffffffffffffffffffffffffff\n      and\n        /* \"contracts/Ownable.sol\":2336:2361  address oldOwner = _owner */\n      swap1\n      pop\n        /* \"contracts/Ownable.sol\":2380:2388  newOwner */\n      dup2\n        /* \"contracts/Ownable.sol\":2371:2377  _owner */\n      0x00\n      dup1\n        /* \"contracts/Ownable.sol\":2371:2388  _owner = newOwner */\n      0x0100\n      exp\n      dup2\n      sload\n      dup2\n      0xffffffffffffffffffffffffffffffffffffffff\n      mul\n      not\n      and\n      swap1\n      dup4\n      0xffffffffffffffffffffffffffffffffffffffff\n      and\n      mul\n      or\n      swap1\n      sstore\n      pop\n        /* \"contracts/Ownable.sol\":2434:2442  newOwner */\n      dup2\n        /* \"contracts/Ownable.sol\":2403:2443  OwnershipTransferred(oldOwner, newOwner) */\n      0xffffffffffffffffffffffffffffffffffffffff\n      and\n        /* \"contracts/Ownable.sol\":2424:2432  oldOwner */\n      dup2\n        /* \"contracts/Ownable.sol\":2403:2443  OwnershipTransferred(oldOwner, newOwner) */\n      0xffffffffffffffffffffffffffffffffffffffff\n      and\n      0x8be0079c531659141344cd1fd0a4f28419497f9722a3daafe3b4186f6b6457e0\n      mload(0x40)\n      mload(0x40)\n      dup1\n      swap2\n      sub\n      swap1\n      log3\n        /* \"contracts/Ownable.sol\":2326:2450  {... */\n      pop\n        /* \"contracts/Ownable.sol\":2263:2450  function _transferOwnership(address newOwner) internal virtual {... */\n      pop\n      jump\t// out\n        /* \"contracts/CreateQuiz.sol\":781:1333  function _createQuiz(string memory _question, string memory _choice1, string memory _choice2, string memory _choice3, string memory _choice4, string memory _hint, uint8 _answer, uint8 _languageCode, uint _reward, uint _rewardPool) private {... */\n    tag_149:\n        /* \"contracts/CreateQuiz.sol\":1030:1037  quizzes */\n      0x01\n        /* \"contracts/CreateQuiz.sol\":1043:1142  Quiz(_question, _choice1, _choice2, _choice3, _choice4, _hint, _languageCode, _reward, _rewardPool) */\n      mload(0x40)\n      dup1\n      0x0120\n      add\n      0x40\n      mstore\n      dup1\n        /* \"contracts/CreateQuiz.sol\":1048:1057  _question */\n      dup13\n        /* \"contracts/CreateQuiz.sol\":1043:1142  Quiz(_question, _choice1, _choice2, _choice3, _choice4, _hint, _languageCode, _reward, _rewardPool) */\n      dup2\n      mstore\n      0x20\n      add\n        /* \"contracts/CreateQuiz.sol\":1059:1067  _choice1 */\n      dup12\n        /* \"contracts/CreateQuiz.sol\":1043:1142  Quiz(_question, _choice1, _choice2, _choice3, _choice4, _hint, _languageCode, _reward, _rewardPool) */\n      dup2\n      mstore\n      0x20\n      add\n        /* \"contracts/CreateQuiz.sol\":1069:1077  _choice2 */\n      dup11\n        /* \"contracts/CreateQuiz.sol\":1043:1142  Quiz(_question, _choice1, _choice2, _choice3, _choice4, _hint, _languageCode, _reward, _rewardPool) */\n      dup2\n      mstore\n      0x20\n      add\n        /* \"contracts/CreateQuiz.sol\":1079:1087  _choice3 */\n      dup10\n        /* \"contracts/CreateQuiz.sol\":1043:1142  Quiz(_question, _choice1, _choice2, _choice3, _choice4, _hint, _languageCode, _reward, _rewardPool) */\n      dup2\n      mstore\n      0x20\n      add\n        /* \"contracts/CreateQuiz.sol\":1089:1097  _choice4 */\n      dup9\n        /* \"contracts/CreateQuiz.sol\":1043:1142  Quiz(_question, _choice1, _choice2, _choice3, _choice4, _hint, _languageCode, _reward, _rewardPool) */\n      dup2\n      mstore\n      0x20\n      add\n        /* \"contracts/CreateQuiz.sol\":1099:1104  _hint */\n      dup8\n        /* \"contracts/CreateQuiz.sol\":1043:1142  Quiz(_question, _choice1, _choice2, _choice3, _choice4, _hint, _languageCode, _reward, _rewardPool) */\n      dup2\n      mstore\n      0x20\n      add\n        /* \"contracts/CreateQuiz.sol\":1106:1119  _languageCode */\n      dup6\n        /* \"contracts/CreateQuiz.sol\":1043:1142  Quiz(_question, _choice1, _choice2, _choice3, _choice4, _hint, _languageCode, _reward, _rewardPool) */\n      0xff\n      and\n      dup2\n      mstore\n      0x20\n      add\n        /* \"contracts/CreateQuiz.sol\":1121:1128  _reward */\n      dup5\n        /* \"contracts/CreateQuiz.sol\":1043:1142  Quiz(_question, _choice1, _choice2, _choice3, _choice4, _hint, _languageCode, _reward, _rewardPool) */\n      dup2\n      mstore\n      0x20\n      add\n        /* \"contracts/CreateQuiz.sol\":1130:1141  _rewardPool */\n      dup4\n        /* \"contracts/CreateQuiz.sol\":1043:1142  Quiz(_question, _choice1, _choice2, _choice3, _choice4, _hint, _languageCode, _reward, _rewardPool) */\n      dup2\n      mstore\n      pop\n        /* \"contracts/CreateQuiz.sol\":1030:1143  quizzes.push(Quiz(_question, _choice1, _choice2, _choice3, _choice4, _hint, _languageCode, _reward, _rewardPool)) */\n      swap1\n      dup1\n      0x01\n      dup2\n      sload\n      add\n      dup1\n      dup3\n      sstore\n      dup1\n      swap2\n      pop\n      pop\n      0x01\n      swap1\n      sub\n      swap1\n      0x00\n      mstore\n      keccak256(0x00, 0x20)\n      swap1\n      0x09\n      mul\n      add\n      0x00\n      swap1\n      swap2\n      swap1\n      swap2\n      swap1\n      swap2\n      pop\n      0x00\n      dup3\n      add\n      mload\n      dup2\n      0x00\n      add\n      swap1\n      dup1\n      mload\n      swap1\n      0x20\n      add\n      swap1\n      tag_209\n      swap3\n      swap2\n      swap1\n      tag_204\n      jump\t// in\n    tag_209:\n      pop\n      0x20\n      dup3\n      add\n      mload\n      dup2\n      0x01\n      add\n      swap1\n      dup1\n      mload\n      swap1\n      0x20\n      add\n      swap1\n      tag_210\n      swap3\n      swap2\n      swap1\n      tag_204\n      jump\t// in\n    tag_210:\n      pop\n      0x40\n      dup3\n      add\n      mload\n      dup2\n      0x02\n      add\n      swap1\n      dup1\n      mload\n      swap1\n      0x20\n      add\n      swap1\n      tag_211\n      swap3\n      swap2\n      swap1\n      tag_204\n      jump\t// in\n    tag_211:\n      pop\n      0x60\n      dup3\n      add\n      mload\n      dup2\n      0x03\n      add\n      swap1\n      dup1\n      mload\n      swap1\n      0x20\n      add\n      swap1\n      tag_212\n      swap3\n      swap2\n      swap1\n      tag_204\n      jump\t// in\n    tag_212:\n      pop\n      0x80\n      dup3\n      add\n      mload\n      dup2\n      0x04\n      add\n      swap1\n      dup1\n      mload\n      swap1\n      0x20\n      add\n      swap1\n      tag_213\n      swap3\n      swap2\n      swap1\n      tag_204\n      jump\t// in\n    tag_213:\n      pop\n      0xa0\n      dup3\n      add\n      mload\n      dup2\n      0x05\n      add\n      swap1\n      dup1\n      mload\n      swap1\n      0x20\n      add\n      swap1\n      tag_214\n      swap3\n      swap2\n      swap1\n      tag_204\n      jump\t// in\n    tag_214:\n      pop\n      0xc0\n      dup3\n      add\n      mload\n      dup2\n      0x06\n      add\n      exp(0x0100, 0x00)\n      dup2\n      sload\n      dup2\n      0xff\n      mul\n      not\n      and\n      swap1\n      dup4\n      0xff\n      and\n      mul\n      or\n      swap1\n      sstore\n      pop\n      0xe0\n      dup3\n      add\n      mload\n      dup2\n      0x07\n      add\n      sstore\n      0x0100\n      dup3\n      add\n      mload\n      dup2\n      0x08\n      add\n      sstore\n      pop\n      pop\n        /* \"contracts/CreateQuiz.sol\":1153:1160  uint id */\n      0x00\n        /* \"contracts/CreateQuiz.sol\":1180:1181  1 */\n      0x01\n        /* \"contracts/CreateQuiz.sol\":1163:1170  quizzes */\n      dup1\n        /* \"contracts/CreateQuiz.sol\":1163:1177  quizzes.length */\n      dup1\n      sload\n      swap1\n      pop\n        /* \"contracts/CreateQuiz.sol\":1163:1181  quizzes.length - 1 */\n      tag_215\n      swap2\n      swap1\n      tag_216\n      jump\t// in\n    tag_215:\n        /* \"contracts/CreateQuiz.sol\":1153:1181  uint id = quizzes.length - 1 */\n      swap1\n      pop\n        /* \"contracts/CreateQuiz.sol\":1208:1215  _answer */\n      dup5\n        /* \"contracts/CreateQuiz.sol\":1191:1201  quizAnswer */\n      0x03\n        /* \"contracts/CreateQuiz.sol\":1191:1205  quizAnswer[id] */\n      0x00\n        /* \"contracts/CreateQuiz.sol\":1202:1204  id */\n      dup4\n        /* \"contracts/CreateQuiz.sol\":1191:1205  quizAnswer[id] */\n      dup2\n      mstore\n      0x20\n      add\n      swap1\n      dup2\n      mstore\n      0x20\n      add\n      0x00\n      keccak256\n      0x00\n        /* \"contracts/CreateQuiz.sol\":1191:1215  quizAnswer[id] = _answer */\n      0x0100\n      exp\n      dup2\n      sload\n      dup2\n      0xff\n      mul\n      not\n      and\n      swap1\n      dup4\n      0xff\n      and\n      mul\n      or\n      swap1\n      sstore\n      pop\n        /* \"contracts/CreateQuiz.sol\":1241:1251  msg.sender */\n      caller\n        /* \"contracts/CreateQuiz.sol\":1225:1234  quizOwner */\n      0x04\n        /* \"contracts/CreateQuiz.sol\":1225:1238  quizOwner[id] */\n      0x00\n        /* \"contracts/CreateQuiz.sol\":1235:1237  id */\n      dup4\n        /* \"contracts/CreateQuiz.sol\":1225:1238  quizOwner[id] */\n      dup2\n      mstore\n      0x20\n      add\n      swap1\n      dup2\n      mstore\n      0x20\n      add\n      0x00\n      keccak256\n      0x00\n        /* \"contracts/CreateQuiz.sol\":1225:1251  quizOwner[id] = msg.sender */\n      0x0100\n      exp\n      dup2\n      sload\n      dup2\n      0xffffffffffffffffffffffffffffffffffffffff\n      mul\n      not\n      and\n      swap1\n      dup4\n      0xffffffffffffffffffffffffffffffffffffffff\n      and\n      mul\n      or\n      swap1\n      sstore\n      pop\n        /* \"contracts/CreateQuiz.sol\":1280:1284  true */\n      0x01\n        /* \"contracts/CreateQuiz.sol\":1261:1273  quizIsActive */\n      0x02\n        /* \"contracts/CreateQuiz.sol\":1261:1277  quizIsActive[id] */\n      0x00\n        /* \"contracts/CreateQuiz.sol\":1274:1276  id */\n      dup4\n        /* \"contracts/CreateQuiz.sol\":1261:1277  quizIsActive[id] */\n      dup2\n      mstore\n      0x20\n      add\n      swap1\n      dup2\n      mstore\n      0x20\n      add\n      0x00\n      keccak256\n      0x00\n        /* \"contracts/CreateQuiz.sol\":1261:1284  quizIsActive[id] = true */\n      0x0100\n      exp\n      dup2\n      sload\n      dup2\n      0xff\n      mul\n      not\n      and\n      swap1\n      dup4\n      iszero\n      iszero\n      mul\n      or\n      swap1\n      sstore\n      pop\n        /* \"contracts/CreateQuiz.sol\":1299:1326  NewQuiz(_question, _answer) */\n      0x545dca5d847b655a9f03cdf5619f53f0b2546051fd0d015b18c09ae2a8b1a765\n        /* \"contracts/CreateQuiz.sol\":1307:1316  _question */\n      dup12\n        /* \"contracts/CreateQuiz.sol\":1318:1325  _answer */\n      dup7\n        /* \"contracts/CreateQuiz.sol\":1299:1326  NewQuiz(_question, _answer) */\n      mload(0x40)\n      tag_217\n      swap3\n      swap2\n      swap1\n      tag_218\n      jump\t// in\n    tag_217:\n      mload(0x40)\n      dup1\n      swap2\n      sub\n      swap1\n      log1\n        /* \"contracts/CreateQuiz.sol\":1020:1333  {... */\n      pop\n        /* \"contracts/CreateQuiz.sol\":781:1333  function _createQuiz(string memory _question, string memory _choice1, string memory _choice2, string memory _choice3, string memory _choice4, string memory _hint, uint8 _answer, uint8 _languageCode, uint _reward, uint _rewardPool) private {... */\n      pop\n      pop\n      pop\n      pop\n      pop\n      pop\n      pop\n      pop\n      pop\n      pop\n      jump\t// out\n    tag_90:\n      mload(0x40)\n      dup1\n      0x0120\n      add\n      0x40\n      mstore\n      dup1\n      0x60\n      dup2\n      mstore\n      0x20\n      add\n      0x60\n      dup2\n      mstore\n      0x20\n      add\n      0x60\n      dup2\n      mstore\n      0x20\n      add\n      0x60\n      dup2\n      mstore\n      0x20\n      add\n      0x60\n      dup2\n      mstore\n      0x20\n      add\n      0x60\n      dup2\n      mstore\n      0x20\n      add\n      and(0xff, 0x00)\n      dup2\n      mstore\n      0x20\n      add\n      0x00\n      dup2\n      mstore\n      0x20\n      add\n      0x00\n      dup2\n      mstore\n      pop\n      swap1\n      jump\t// out\n    tag_204:\n      dup3\n      dup1\n      sload\n      tag_219\n      swap1\n      tag_112\n      jump\t// in\n    tag_219:\n      swap1\n      0x00\n      mstore\n      keccak256(0x00, 0x20)\n      swap1\n      0x1f\n      add\n      0x20\n      swap1\n      div\n      dup2\n      add\n      swap3\n      dup3\n      tag_221\n      jumpi\n      0x00\n      dup6\n      sstore\n      jump(tag_220)\n    tag_221:\n      dup3\n      0x1f\n      lt\n      tag_222\n      jumpi\n      dup1\n      mload\n      not(0xff)\n      and\n      dup4\n      dup1\n      add\n      or\n      dup6\n      sstore\n      jump(tag_220)\n    tag_222:\n      dup3\n      dup1\n      add\n      0x01\n      add\n      dup6\n      sstore\n      dup3\n      iszero\n      tag_220\n      jumpi\n      swap2\n      dup3\n      add\n    tag_223:\n      dup3\n      dup2\n      gt\n      iszero\n      tag_224\n      jumpi\n      dup3\n      mload\n      dup3\n      sstore\n      swap2\n      0x20\n      add\n      swap2\n      swap1\n      0x01\n      add\n      swap1\n      jump(tag_223)\n    tag_224:\n    tag_220:\n      pop\n      swap1\n      pop\n      tag_225\n      swap2\n      swap1\n      tag_226\n      jump\t// in\n    tag_225:\n      pop\n      swap1\n      jump\t// out\n    tag_226:\n    tag_227:\n      dup1\n      dup3\n      gt\n      iszero\n      tag_228\n      jumpi\n      0x00\n      dup2\n      0x00\n      swap1\n      sstore\n      pop\n      0x01\n      add\n      jump(tag_227)\n    tag_228:\n      pop\n      swap1\n      jump\t// out\n        /* \"#utility.yul\":7:82   */\n    tag_229:\n        /* \"#utility.yul\":40:46   */\n      0x00\n        /* \"#utility.yul\":73:75   */\n      0x40\n        /* \"#utility.yul\":67:76   */\n      mload\n        /* \"#utility.yul\":57:76   */\n      swap1\n      pop\n        /* \"#utility.yul\":7:82   */\n      swap1\n      jump\t// out\n        /* \"#utility.yul\":88:205   */\n    tag_230:\n        /* \"#utility.yul\":197:198   */\n      0x00\n        /* \"#utility.yul\":194:195   */\n      dup1\n        /* \"#utility.yul\":187:199   */\n      revert\n        /* \"#utility.yul\":211:328   */\n    tag_231:\n        /* \"#utility.yul\":320:321   */\n      0x00\n        /* \"#utility.yul\":317:318   */\n      dup1\n        /* \"#utility.yul\":310:322   */\n      revert\n        /* \"#utility.yul\":334:411   */\n    tag_232:\n        /* \"#utility.yul\":371:378   */\n      0x00\n        /* \"#utility.yul\":400:405   */\n      dup2\n        /* \"#utility.yul\":389:405   */\n      swap1\n      pop\n        /* \"#utility.yul\":334:411   */\n      swap2\n      swap1\n      pop\n      jump\t// out\n        /* \"#utility.yul\":417:539   */\n    tag_233:\n        /* \"#utility.yul\":490:514   */\n      tag_288\n        /* \"#utility.yul\":508:513   */\n      dup2\n        /* \"#utility.yul\":490:514   */\n      tag_232\n      jump\t// in\n    tag_288:\n        /* \"#utility.yul\":483:488   */\n      dup2\n        /* \"#utility.yul\":480:515   */\n      eq\n        /* \"#utility.yul\":470:533   */\n      tag_289\n      jumpi\n        /* \"#utility.yul\":529:530   */\n      0x00\n        /* \"#utility.yul\":526:527   */\n      dup1\n        /* \"#utility.yul\":519:531   */\n      revert\n        /* \"#utility.yul\":470:533   */\n    tag_289:\n        /* \"#utility.yul\":417:539   */\n      pop\n      jump\t// out\n        /* \"#utility.yul\":545:684   */\n    tag_234:\n        /* \"#utility.yul\":591:596   */\n      0x00\n        /* \"#utility.yul\":629:635   */\n      dup2\n        /* \"#utility.yul\":616:636   */\n      calldataload\n        /* \"#utility.yul\":607:636   */\n      swap1\n      pop\n        /* \"#utility.yul\":645:678   */\n      tag_291\n        /* \"#utility.yul\":672:677   */\n      dup2\n        /* \"#utility.yul\":645:678   */\n      tag_233\n      jump\t// in\n    tag_291:\n        /* \"#utility.yul\":545:684   */\n      swap3\n      swap2\n      pop\n      pop\n      jump\t// out\n        /* \"#utility.yul\":690:780   */\n    tag_235:\n        /* \"#utility.yul\":724:731   */\n      0x00\n        /* \"#utility.yul\":767:772   */\n      dup2\n        /* \"#utility.yul\":760:773   */\n      iszero\n        /* \"#utility.yul\":753:774   */\n      iszero\n        /* \"#utility.yul\":742:774   */\n      swap1\n      pop\n        /* \"#utility.yul\":690:780   */\n      swap2\n      swap1\n      pop\n      jump\t// out\n        /* \"#utility.yul\":786:902   */\n    tag_236:\n        /* \"#utility.yul\":856:877   */\n      tag_294\n        /* \"#utility.yul\":871:876   */\n      dup2\n        /* \"#utility.yul\":856:877   */\n      tag_235\n      jump\t// in\n    tag_294:\n        /* \"#utility.yul\":849:854   */\n      dup2\n        /* \"#utility.yul\":846:878   */\n      eq\n        /* \"#utility.yul\":836:896   */\n      tag_295\n      jumpi\n        /* \"#utility.yul\":892:893   */\n      0x00\n        /* \"#utility.yul\":889:890   */\n      dup1\n        /* \"#utility.yul\":882:894   */\n      revert\n        /* \"#utility.yul\":836:896   */\n    tag_295:\n        /* \"#utility.yul\":786:902   */\n      pop\n      jump\t// out\n        /* \"#utility.yul\":908:1041   */\n    tag_237:\n        /* \"#utility.yul\":951:956   */\n      0x00\n        /* \"#utility.yul\":989:995   */\n      dup2\n        /* \"#utility.yul\":976:996   */\n      calldataload\n        /* \"#utility.yul\":967:996   */\n      swap1\n      pop\n        /* \"#utility.yul\":1005:1035   */\n      tag_297\n        /* \"#utility.yul\":1029:1034   */\n      dup2\n        /* \"#utility.yul\":1005:1035   */\n      tag_236\n      jump\t// in\n    tag_297:\n        /* \"#utility.yul\":908:1041   */\n      swap3\n      swap2\n      pop\n      pop\n      jump\t// out\n        /* \"#utility.yul\":1047:1515   */\n    tag_17:\n        /* \"#utility.yul\":1112:1118   */\n      0x00\n        /* \"#utility.yul\":1120:1126   */\n      dup1\n        /* \"#utility.yul\":1169:1171   */\n      0x40\n        /* \"#utility.yul\":1157:1166   */\n      dup4\n        /* \"#utility.yul\":1148:1155   */\n      dup6\n        /* \"#utility.yul\":1144:1167   */\n      sub\n        /* \"#utility.yul\":1140:1172   */\n      slt\n        /* \"#utility.yul\":1137:1256   */\n      iszero\n      tag_299\n      jumpi\n        /* \"#utility.yul\":1175:1254   */\n      tag_300\n      tag_230\n      jump\t// in\n    tag_300:\n        /* \"#utility.yul\":1137:1256   */\n    tag_299:\n        /* \"#utility.yul\":1295:1296   */\n      0x00\n        /* \"#utility.yul\":1320:1373   */\n      tag_301\n        /* \"#utility.yul\":1365:1372   */\n      dup6\n        /* \"#utility.yul\":1356:1362   */\n      dup3\n        /* \"#utility.yul\":1345:1354   */\n      dup7\n        /* \"#utility.yul\":1341:1363   */\n      add\n        /* \"#utility.yul\":1320:1373   */\n      tag_234\n      jump\t// in\n    tag_301:\n        /* \"#utility.yul\":1310:1373   */\n      swap3\n      pop\n        /* \"#utility.yul\":1266:1383   */\n      pop\n        /* \"#utility.yul\":1422:1424   */\n      0x20\n        /* \"#utility.yul\":1448:1498   */\n      tag_302\n        /* \"#utility.yul\":1490:1497   */\n      dup6\n        /* \"#utility.yul\":1481:1487   */\n      dup3\n        /* \"#utility.yul\":1470:1479   */\n      dup7\n        /* \"#utility.yul\":1466:1488   */\n      add\n        /* \"#utility.yul\":1448:1498   */\n      tag_237\n      jump\t// in\n    tag_302:\n        /* \"#utility.yul\":1438:1498   */\n      swap2\n      pop\n        /* \"#utility.yul\":1393:1508   */\n      pop\n        /* \"#utility.yul\":1047:1515   */\n      swap3\n      pop\n      swap3\n      swap1\n      pop\n      jump\t// out\n        /* \"#utility.yul\":1521:1850   */\n    tag_26:\n        /* \"#utility.yul\":1580:1586   */\n      0x00\n        /* \"#utility.yul\":1629:1631   */\n      0x20\n        /* \"#utility.yul\":1617:1626   */\n      dup3\n        /* \"#utility.yul\":1608:1615   */\n      dup5\n        /* \"#utility.yul\":1604:1627   */\n      sub\n        /* \"#utility.yul\":1600:1632   */\n      slt\n        /* \"#utility.yul\":1597:1716   */\n      iszero\n      tag_304\n      jumpi\n        /* \"#utility.yul\":1635:1714   */\n      tag_305\n      tag_230\n      jump\t// in\n    tag_305:\n        /* \"#utility.yul\":1597:1716   */\n    tag_304:\n        /* \"#utility.yul\":1755:1756   */\n      0x00\n        /* \"#utility.yul\":1780:1833   */\n      tag_306\n        /* \"#utility.yul\":1825:1832   */\n      dup5\n        /* \"#utility.yul\":1816:1822   */\n      dup3\n        /* \"#utility.yul\":1805:1814   */\n      dup6\n        /* \"#utility.yul\":1801:1823   */\n      add\n        /* \"#utility.yul\":1780:1833   */\n      tag_234\n      jump\t// in\n    tag_306:\n        /* \"#utility.yul\":1770:1833   */\n      swap2\n      pop\n        /* \"#utility.yul\":1726:1843   */\n      pop\n        /* \"#utility.yul\":1521:1850   */\n      swap3\n      swap2\n      pop\n      pop\n      jump\t// out\n        /* \"#utility.yul\":1856:1982   */\n    tag_238:\n        /* \"#utility.yul\":1893:1900   */\n      0x00\n        /* \"#utility.yul\":1933:1975   */\n      0xffffffffffffffffffffffffffffffffffffffff\n        /* \"#utility.yul\":1926:1931   */\n      dup3\n        /* \"#utility.yul\":1922:1976   */\n      and\n        /* \"#utility.yul\":1911:1976   */\n      swap1\n      pop\n        /* \"#utility.yul\":1856:1982   */\n      swap2\n      swap1\n      pop\n      jump\t// out\n        /* \"#utility.yul\":1988:2084   */\n    tag_239:\n        /* \"#utility.yul\":2025:2032   */\n      0x00\n        /* \"#utility.yul\":2054:2078   */\n      tag_309\n        /* \"#utility.yul\":2072:2077   */\n      dup3\n        /* \"#utility.yul\":2054:2078   */\n      tag_238\n      jump\t// in\n    tag_309:\n        /* \"#utility.yul\":2043:2078   */\n      swap1\n      pop\n        /* \"#utility.yul\":1988:2084   */\n      swap2\n      swap1\n      pop\n      jump\t// out\n        /* \"#utility.yul\":2090:2208   */\n    tag_240:\n        /* \"#utility.yul\":2177:2201   */\n      tag_311\n        /* \"#utility.yul\":2195:2200   */\n      dup2\n        /* \"#utility.yul\":2177:2201   */\n      tag_239\n      jump\t// in\n    tag_311:\n        /* \"#utility.yul\":2172:2175   */\n      dup3\n        /* \"#utility.yul\":2165:2202   */\n      mstore\n        /* \"#utility.yul\":2090:2208   */\n      pop\n      pop\n      jump\t// out\n        /* \"#utility.yul\":2214:2436   */\n    tag_29:\n        /* \"#utility.yul\":2307:2311   */\n      0x00\n        /* \"#utility.yul\":2345:2347   */\n      0x20\n        /* \"#utility.yul\":2334:2343   */\n      dup3\n        /* \"#utility.yul\":2330:2348   */\n      add\n        /* \"#utility.yul\":2322:2348   */\n      swap1\n      pop\n        /* \"#utility.yul\":2358:2429   */\n      tag_313\n        /* \"#utility.yul\":2426:2427   */\n      0x00\n        /* \"#utility.yul\":2415:2424   */\n      dup4\n        /* \"#utility.yul\":2411:2428   */\n      add\n        /* \"#utility.yul\":2402:2408   */\n      dup5\n        /* \"#utility.yul\":2358:2429   */\n      tag_240\n      jump\t// in\n    tag_313:\n        /* \"#utility.yul\":2214:2436   */\n      swap3\n      swap2\n      pop\n      pop\n      jump\t// out\n        /* \"#utility.yul\":2442:2551   */\n    tag_241:\n        /* \"#utility.yul\":2523:2544   */\n      tag_315\n        /* \"#utility.yul\":2538:2543   */\n      dup2\n        /* \"#utility.yul\":2523:2544   */\n      tag_235\n      jump\t// in\n    tag_315:\n        /* \"#utility.yul\":2518:2521   */\n      dup3\n        /* \"#utility.yul\":2511:2545   */\n      mstore\n        /* \"#utility.yul\":2442:2551   */\n      pop\n      pop\n      jump\t// out\n        /* \"#utility.yul\":2557:2767   */\n    tag_35:\n        /* \"#utility.yul\":2644:2648   */\n      0x00\n        /* \"#utility.yul\":2682:2684   */\n      0x20\n        /* \"#utility.yul\":2671:2680   */\n      dup3\n        /* \"#utility.yul\":2667:2685   */\n      add\n        /* \"#utility.yul\":2659:2685   */\n      swap1\n      pop\n        /* \"#utility.yul\":2695:2760   */\n      tag_317\n        /* \"#utility.yul\":2757:2758   */\n      0x00\n        /* \"#utility.yul\":2746:2755   */\n      dup4\n        /* \"#utility.yul\":2742:2759   */\n      add\n        /* \"#utility.yul\":2733:2739   */\n      dup5\n        /* \"#utility.yul\":2695:2760   */\n      tag_241\n      jump\t// in\n    tag_317:\n        /* \"#utility.yul\":2557:2767   */\n      swap3\n      swap2\n      pop\n      pop\n      jump\t// out\n        /* \"#utility.yul\":2773:2890   */\n    tag_242:\n        /* \"#utility.yul\":2882:2883   */\n      0x00\n        /* \"#utility.yul\":2879:2880   */\n      dup1\n        /* \"#utility.yul\":2872:2884   */\n      revert\n        /* \"#utility.yul\":2896:3013   */\n    tag_243:\n        /* \"#utility.yul\":3005:3006   */\n      0x00\n        /* \"#utility.yul\":3002:3003   */\n      dup1\n        /* \"#utility.yul\":2995:3007   */\n      revert\n        /* \"#utility.yul\":3019:3121   */\n    tag_244:\n        /* \"#utility.yul\":3060:3066   */\n      0x00\n        /* \"#utility.yul\":3111:3113   */\n      0x1f\n        /* \"#utility.yul\":3107:3114   */\n      not\n        /* \"#utility.yul\":3102:3104   */\n      0x1f\n        /* \"#utility.yul\":3095:3100   */\n      dup4\n        /* \"#utility.yul\":3091:3105   */\n      add\n        /* \"#utility.yul\":3087:3115   */\n      and\n        /* \"#utility.yul\":3077:3115   */\n      swap1\n      pop\n        /* \"#utility.yul\":3019:3121   */\n      swap2\n      swap1\n      pop\n      jump\t// out\n        /* \"#utility.yul\":3127:3307   */\n    tag_245:\n        /* \"#utility.yul\":3175:3252   */\n      0x4e487b7100000000000000000000000000000000000000000000000000000000\n        /* \"#utility.yul\":3172:3173   */\n      0x00\n        /* \"#utility.yul\":3165:3253   */\n      mstore\n        /* \"#utility.yul\":3272:3276   */\n      0x41\n        /* \"#utility.yul\":3269:3270   */\n      0x04\n        /* \"#utility.yul\":3262:3277   */\n      mstore\n        /* \"#utility.yul\":3296:3300   */\n      0x24\n        /* \"#utility.yul\":3293:3294   */\n      0x00\n        /* \"#utility.yul\":3286:3301   */\n      revert\n        /* \"#utility.yul\":3313:3594   */\n    tag_246:\n        /* \"#utility.yul\":3396:3423   */\n      tag_323\n        /* \"#utility.yul\":3418:3422   */\n      dup3\n        /* \"#utility.yul\":3396:3423   */\n      tag_244\n      jump\t// in\n    tag_323:\n        /* \"#utility.yul\":3388:3394   */\n      dup2\n        /* \"#utility.yul\":3384:3424   */\n      add\n        /* \"#utility.yul\":3526:3532   */\n      dup2\n        /* \"#utility.yul\":3514:3524   */\n      dup2\n        /* \"#utility.yul\":3511:3533   */\n      lt\n        /* \"#utility.yul\":3490:3508   */\n      0xffffffffffffffff\n        /* \"#utility.yul\":3478:3488   */\n      dup3\n        /* \"#utility.yul\":3475:3509   */\n      gt\n        /* \"#utility.yul\":3472:3534   */\n      or\n        /* \"#utility.yul\":3469:3557   */\n      iszero\n      tag_324\n      jumpi\n        /* \"#utility.yul\":3537:3555   */\n      tag_325\n      tag_245\n      jump\t// in\n    tag_325:\n        /* \"#utility.yul\":3469:3557   */\n    tag_324:\n        /* \"#utility.yul\":3577:3587   */\n      dup1\n        /* \"#utility.yul\":3573:3575   */\n      0x40\n        /* \"#utility.yul\":3566:3588   */\n      mstore\n        /* \"#utility.yul\":3356:3594   */\n      pop\n        /* \"#utility.yul\":3313:3594   */\n      pop\n      pop\n      jump\t// out\n        /* \"#utility.yul\":3600:3729   */\n    tag_247:\n        /* \"#utility.yul\":3634:3640   */\n      0x00\n        /* \"#utility.yul\":3661:3681   */\n      tag_327\n      tag_229\n      jump\t// in\n    tag_327:\n        /* \"#utility.yul\":3651:3681   */\n      swap1\n      pop\n        /* \"#utility.yul\":3690:3723   */\n      tag_328\n        /* \"#utility.yul\":3718:3722   */\n      dup3\n        /* \"#utility.yul\":3710:3716   */\n      dup3\n        /* \"#utility.yul\":3690:3723   */\n      tag_246\n      jump\t// in\n    tag_328:\n        /* \"#utility.yul\":3600:3729   */\n      swap2\n      swap1\n      pop\n      jump\t// out\n        /* \"#utility.yul\":3735:4043   */\n    tag_248:\n        /* \"#utility.yul\":3797:3801   */\n      0x00\n        /* \"#utility.yul\":3887:3905   */\n      0xffffffffffffffff\n        /* \"#utility.yul\":3879:3885   */\n      dup3\n        /* \"#utility.yul\":3876:3906   */\n      gt\n        /* \"#utility.yul\":3873:3929   */\n      iszero\n      tag_330\n      jumpi\n        /* \"#utility.yul\":3909:3927   */\n      tag_331\n      tag_245\n      jump\t// in\n    tag_331:\n        /* \"#utility.yul\":3873:3929   */\n    tag_330:\n        /* \"#utility.yul\":3947:3976   */\n      tag_332\n        /* \"#utility.yul\":3969:3975   */\n      dup3\n        /* \"#utility.yul\":3947:3976   */\n      tag_244\n      jump\t// in\n    tag_332:\n        /* \"#utility.yul\":3939:3976   */\n      swap1\n      pop\n        /* \"#utility.yul\":4031:4035   */\n      0x20\n        /* \"#utility.yul\":4025:4029   */\n      dup2\n        /* \"#utility.yul\":4021:4036   */\n      add\n        /* \"#utility.yul\":4013:4036   */\n      swap1\n      pop\n        /* \"#utility.yul\":3735:4043   */\n      swap2\n      swap1\n      pop\n      jump\t// out\n        /* \"#utility.yul\":4049:4203   */\n    tag_249:\n        /* \"#utility.yul\":4133:4139   */\n      dup3\n        /* \"#utility.yul\":4128:4131   */\n      dup2\n        /* \"#utility.yul\":4123:4126   */\n      dup4\n        /* \"#utility.yul\":4110:4140   */\n      calldatacopy\n        /* \"#utility.yul\":4195:4196   */\n      0x00\n        /* \"#utility.yul\":4186:4192   */\n      dup4\n        /* \"#utility.yul\":4181:4184   */\n      dup4\n        /* \"#utility.yul\":4177:4193   */\n      add\n        /* \"#utility.yul\":4170:4197   */\n      mstore\n        /* \"#utility.yul\":4049:4203   */\n      pop\n      pop\n      pop\n      jump\t// out\n        /* \"#utility.yul\":4209:4621   */\n    tag_250:\n        /* \"#utility.yul\":4287:4292   */\n      0x00\n        /* \"#utility.yul\":4312:4378   */\n      tag_335\n        /* \"#utility.yul\":4328:4377   */\n      tag_336\n        /* \"#utility.yul\":4370:4376   */\n      dup5\n        /* \"#utility.yul\":4328:4377   */\n      tag_248\n      jump\t// in\n    tag_336:\n        /* \"#utility.yul\":4312:4378   */\n      tag_247\n      jump\t// in\n    tag_335:\n        /* \"#utility.yul\":4303:4378   */\n      swap1\n      pop\n        /* \"#utility.yul\":4401:4407   */\n      dup3\n        /* \"#utility.yul\":4394:4399   */\n      dup2\n        /* \"#utility.yul\":4387:4408   */\n      mstore\n        /* \"#utility.yul\":4439:4443   */\n      0x20\n        /* \"#utility.yul\":4432:4437   */\n      dup2\n        /* \"#utility.yul\":4428:4444   */\n      add\n        /* \"#utility.yul\":4477:4480   */\n      dup5\n        /* \"#utility.yul\":4468:4474   */\n      dup5\n        /* \"#utility.yul\":4463:4466   */\n      dup5\n        /* \"#utility.yul\":4459:4475   */\n      add\n        /* \"#utility.yul\":4456:4481   */\n      gt\n        /* \"#utility.yul\":4453:4565   */\n      iszero\n      tag_337\n      jumpi\n        /* \"#utility.yul\":4484:4563   */\n      tag_338\n      tag_243\n      jump\t// in\n    tag_338:\n        /* \"#utility.yul\":4453:4565   */\n    tag_337:\n        /* \"#utility.yul\":4574:4615   */\n      tag_339\n        /* \"#utility.yul\":4608:4614   */\n      dup5\n        /* \"#utility.yul\":4603:4606   */\n      dup3\n        /* \"#utility.yul\":4598:4601   */\n      dup6\n        /* \"#utility.yul\":4574:4615   */\n      tag_249\n      jump\t// in\n    tag_339:\n        /* \"#utility.yul\":4293:4621   */\n      pop\n        /* \"#utility.yul\":4209:4621   */\n      swap4\n      swap3\n      pop\n      pop\n      pop\n      jump\t// out\n        /* \"#utility.yul\":4641:4981   */\n    tag_251:\n        /* \"#utility.yul\":4697:4702   */\n      0x00\n        /* \"#utility.yul\":4746:4749   */\n      dup3\n        /* \"#utility.yul\":4739:4743   */\n      0x1f\n        /* \"#utility.yul\":4731:4737   */\n      dup4\n        /* \"#utility.yul\":4727:4744   */\n      add\n        /* \"#utility.yul\":4723:4750   */\n      slt\n        /* \"#utility.yul\":4713:4835   */\n      tag_341\n      jumpi\n        /* \"#utility.yul\":4754:4833   */\n      tag_342\n      tag_242\n      jump\t// in\n    tag_342:\n        /* \"#utility.yul\":4713:4835   */\n    tag_341:\n        /* \"#utility.yul\":4871:4877   */\n      dup2\n        /* \"#utility.yul\":4858:4878   */\n      calldataload\n        /* \"#utility.yul\":4896:4975   */\n      tag_343\n        /* \"#utility.yul\":4971:4974   */\n      dup5\n        /* \"#utility.yul\":4963:4969   */\n      dup3\n        /* \"#utility.yul\":4956:4960   */\n      0x20\n        /* \"#utility.yul\":4948:4954   */\n      dup7\n        /* \"#utility.yul\":4944:4961   */\n      add\n        /* \"#utility.yul\":4896:4975   */\n      tag_250\n      jump\t// in\n    tag_343:\n        /* \"#utility.yul\":4887:4975   */\n      swap2\n      pop\n        /* \"#utility.yul\":4703:4981   */\n      pop\n        /* \"#utility.yul\":4641:4981   */\n      swap3\n      swap2\n      pop\n      pop\n      jump\t// out\n        /* \"#utility.yul\":4987:5496   */\n    tag_42:\n        /* \"#utility.yul\":5056:5062   */\n      0x00\n        /* \"#utility.yul\":5105:5107   */\n      0x20\n        /* \"#utility.yul\":5093:5102   */\n      dup3\n        /* \"#utility.yul\":5084:5091   */\n      dup5\n        /* \"#utility.yul\":5080:5103   */\n      sub\n        /* \"#utility.yul\":5076:5108   */\n      slt\n        /* \"#utility.yul\":5073:5192   */\n      iszero\n      tag_345\n      jumpi\n        /* \"#utility.yul\":5111:5190   */\n      tag_346\n      tag_230\n      jump\t// in\n    tag_346:\n        /* \"#utility.yul\":5073:5192   */\n    tag_345:\n        /* \"#utility.yul\":5259:5260   */\n      0x00\n        /* \"#utility.yul\":5248:5257   */\n      dup3\n        /* \"#utility.yul\":5244:5261   */\n      add\n        /* \"#utility.yul\":5231:5262   */\n      calldataload\n        /* \"#utility.yul\":5289:5307   */\n      0xffffffffffffffff\n        /* \"#utility.yul\":5281:5287   */\n      dup2\n        /* \"#utility.yul\":5278:5308   */\n      gt\n        /* \"#utility.yul\":5275:5392   */\n      iszero\n      tag_347\n      jumpi\n        /* \"#utility.yul\":5311:5390   */\n      tag_348\n      tag_231\n      jump\t// in\n    tag_348:\n        /* \"#utility.yul\":5275:5392   */\n    tag_347:\n        /* \"#utility.yul\":5416:5479   */\n      tag_349\n        /* \"#utility.yul\":5471:5478   */\n      dup5\n        /* \"#utility.yul\":5462:5468   */\n      dup3\n        /* \"#utility.yul\":5451:5460   */\n      dup6\n        /* \"#utility.yul\":5447:5469   */\n      add\n        /* \"#utility.yul\":5416:5479   */\n      tag_251\n      jump\t// in\n    tag_349:\n        /* \"#utility.yul\":5406:5479   */\n      swap2\n      pop\n        /* \"#utility.yul\":5202:5489   */\n      pop\n        /* \"#utility.yul\":4987:5496   */\n      swap3\n      swap2\n      pop\n      pop\n      jump\t// out\n        /* \"#utility.yul\":5502:5601   */\n    tag_252:\n        /* \"#utility.yul\":5554:5560   */\n      0x00\n        /* \"#utility.yul\":5588:5593   */\n      dup2\n        /* \"#utility.yul\":5582:5594   */\n      mload\n        /* \"#utility.yul\":5572:5594   */\n      swap1\n      pop\n        /* \"#utility.yul\":5502:5601   */\n      swap2\n      swap1\n      pop\n      jump\t// out\n        /* \"#utility.yul\":5607:5766   */\n    tag_253:\n        /* \"#utility.yul\":5681:5692   */\n      0x00\n        /* \"#utility.yul\":5715:5721   */\n      dup3\n        /* \"#utility.yul\":5710:5713   */\n      dup3\n        /* \"#utility.yul\":5703:5722   */\n      mstore\n        /* \"#utility.yul\":5755:5759   */\n      0x20\n        /* \"#utility.yul\":5750:5753   */\n      dup3\n        /* \"#utility.yul\":5746:5760   */\n      add\n        /* \"#utility.yul\":5731:5760   */\n      swap1\n      pop\n        /* \"#utility.yul\":5607:5766   */\n      swap3\n      swap2\n      pop\n      pop\n      jump\t// out\n        /* \"#utility.yul\":5772:6079   */\n    tag_254:\n        /* \"#utility.yul\":5840:5841   */\n      0x00\n        /* \"#utility.yul\":5850:5963   */\n    tag_353:\n        /* \"#utility.yul\":5864:5870   */\n      dup4\n        /* \"#utility.yul\":5861:5862   */\n      dup2\n        /* \"#utility.yul\":5858:5871   */\n      lt\n        /* \"#utility.yul\":5850:5963   */\n      iszero\n      tag_355\n      jumpi\n        /* \"#utility.yul\":5949:5950   */\n      dup1\n        /* \"#utility.yul\":5944:5947   */\n      dup3\n        /* \"#utility.yul\":5940:5951   */\n      add\n        /* \"#utility.yul\":5934:5952   */\n      mload\n        /* \"#utility.yul\":5930:5931   */\n      dup2\n        /* \"#utility.yul\":5925:5928   */\n      dup5\n        /* \"#utility.yul\":5921:5932   */\n      add\n        /* \"#utility.yul\":5914:5953   */\n      mstore\n        /* \"#utility.yul\":5886:5888   */\n      0x20\n        /* \"#utility.yul\":5883:5884   */\n      dup2\n        /* \"#utility.yul\":5879:5889   */\n      add\n        /* \"#utility.yul\":5874:5889   */\n      swap1\n      pop\n        /* \"#utility.yul\":5850:5963   */\n      jump(tag_353)\n    tag_355:\n        /* \"#utility.yul\":5981:5987   */\n      dup4\n        /* \"#utility.yul\":5978:5979   */\n      dup2\n        /* \"#utility.yul\":5975:5988   */\n      gt\n        /* \"#utility.yul\":5972:6073   */\n      iszero\n      tag_356\n      jumpi\n        /* \"#utility.yul\":6061:6062   */\n      0x00\n        /* \"#utility.yul\":6052:6058   */\n      dup5\n        /* \"#utility.yul\":6047:6050   */\n      dup5\n        /* \"#utility.yul\":6043:6059   */\n      add\n        /* \"#utility.yul\":6036:6063   */\n      mstore\n        /* \"#utility.yul\":5972:6073   */\n    tag_356:\n        /* \"#utility.yul\":5821:6079   */\n      pop\n        /* \"#utility.yul\":5772:6079   */\n      pop\n      pop\n      pop\n      jump\t// out\n        /* \"#utility.yul\":6085:6429   */\n    tag_255:\n        /* \"#utility.yul\":6163:6166   */\n      0x00\n        /* \"#utility.yul\":6191:6230   */\n      tag_358\n        /* \"#utility.yul\":6224:6229   */\n      dup3\n        /* \"#utility.yul\":6191:6230   */\n      tag_252\n      jump\t// in\n    tag_358:\n        /* \"#utility.yul\":6246:6307   */\n      tag_359\n        /* \"#utility.yul\":6300:6306   */\n      dup2\n        /* \"#utility.yul\":6295:6298   */\n      dup6\n        /* \"#utility.yul\":6246:6307   */\n      tag_253\n      jump\t// in\n    tag_359:\n        /* \"#utility.yul\":6239:6307   */\n      swap4\n      pop\n        /* \"#utility.yul\":6316:6368   */\n      tag_360\n        /* \"#utility.yul\":6361:6367   */\n      dup2\n        /* \"#utility.yul\":6356:6359   */\n      dup6\n        /* \"#utility.yul\":6349:6353   */\n      0x20\n        /* \"#utility.yul\":6342:6347   */\n      dup7\n        /* \"#utility.yul\":6338:6354   */\n      add\n        /* \"#utility.yul\":6316:6368   */\n      tag_254\n      jump\t// in\n    tag_360:\n        /* \"#utility.yul\":6393:6422   */\n      tag_361\n        /* \"#utility.yul\":6415:6421   */\n      dup2\n        /* \"#utility.yul\":6393:6422   */\n      tag_244\n      jump\t// in\n    tag_361:\n        /* \"#utility.yul\":6388:6391   */\n      dup5\n        /* \"#utility.yul\":6384:6423   */\n      add\n        /* \"#utility.yul\":6377:6423   */\n      swap2\n      pop\n        /* \"#utility.yul\":6167:6429   */\n      pop\n        /* \"#utility.yul\":6085:6429   */\n      swap3\n      swap2\n      pop\n      pop\n      jump\t// out\n        /* \"#utility.yul\":6435:6521   */\n    tag_256:\n        /* \"#utility.yul\":6470:6477   */\n      0x00\n        /* \"#utility.yul\":6510:6514   */\n      0xff\n        /* \"#utility.yul\":6503:6508   */\n      dup3\n        /* \"#utility.yul\":6499:6515   */\n      and\n        /* \"#utility.yul\":6488:6515   */\n      swap1\n      pop\n        /* \"#utility.yul\":6435:6521   */\n      swap2\n      swap1\n      pop\n      jump\t// out\n        /* \"#utility.yul\":6527:6629   */\n    tag_257:\n        /* \"#utility.yul\":6600:6622   */\n      tag_364\n        /* \"#utility.yul\":6616:6621   */\n      dup2\n        /* \"#utility.yul\":6600:6622   */\n      tag_256\n      jump\t// in\n    tag_364:\n        /* \"#utility.yul\":6595:6598   */\n      dup3\n        /* \"#utility.yul\":6588:6623   */\n      mstore\n        /* \"#utility.yul\":6527:6629   */\n      pop\n      pop\n      jump\t// out\n        /* \"#utility.yul\":6635:6743   */\n    tag_258:\n        /* \"#utility.yul\":6712:6736   */\n      tag_366\n        /* \"#utility.yul\":6730:6735   */\n      dup2\n        /* \"#utility.yul\":6712:6736   */\n      tag_232\n      jump\t// in\n    tag_366:\n        /* \"#utility.yul\":6707:6710   */\n      dup3\n        /* \"#utility.yul\":6700:6737   */\n      mstore\n        /* \"#utility.yul\":6635:6743   */\n      pop\n      pop\n      jump\t// out\n        /* \"#utility.yul\":6805:9008   */\n    tag_259:\n        /* \"#utility.yul\":6914:6917   */\n      0x00\n        /* \"#utility.yul\":6950:6956   */\n      0x0120\n        /* \"#utility.yul\":6945:6948   */\n      dup4\n        /* \"#utility.yul\":6941:6957   */\n      add\n        /* \"#utility.yul\":7043:7047   */\n      0x00\n        /* \"#utility.yul\":7036:7041   */\n      dup4\n        /* \"#utility.yul\":7032:7048   */\n      add\n        /* \"#utility.yul\":7026:7049   */\n      mload\n        /* \"#utility.yul\":7096:7099   */\n      dup5\n        /* \"#utility.yul\":7090:7094   */\n      dup3\n        /* \"#utility.yul\":7086:7100   */\n      sub\n        /* \"#utility.yul\":7079:7083   */\n      0x00\n        /* \"#utility.yul\":7074:7077   */\n      dup7\n        /* \"#utility.yul\":7070:7084   */\n      add\n        /* \"#utility.yul\":7063:7101   */\n      mstore\n        /* \"#utility.yul\":7122:7195   */\n      tag_368\n        /* \"#utility.yul\":7190:7194   */\n      dup3\n        /* \"#utility.yul\":7176:7188   */\n      dup3\n        /* \"#utility.yul\":7122:7195   */\n      tag_255\n      jump\t// in\n    tag_368:\n        /* \"#utility.yul\":7114:7195   */\n      swap2\n      pop\n        /* \"#utility.yul\":6967:7206   */\n      pop\n        /* \"#utility.yul\":7291:7295   */\n      0x20\n        /* \"#utility.yul\":7284:7289   */\n      dup4\n        /* \"#utility.yul\":7280:7296   */\n      add\n        /* \"#utility.yul\":7274:7297   */\n      mload\n        /* \"#utility.yul\":7344:7347   */\n      dup5\n        /* \"#utility.yul\":7338:7342   */\n      dup3\n        /* \"#utility.yul\":7334:7348   */\n      sub\n        /* \"#utility.yul\":7327:7331   */\n      0x20\n        /* \"#utility.yul\":7322:7325   */\n      dup7\n        /* \"#utility.yul\":7318:7332   */\n      add\n        /* \"#utility.yul\":7311:7349   */\n      mstore\n        /* \"#utility.yul\":7370:7443   */\n      tag_369\n        /* \"#utility.yul\":7438:7442   */\n      dup3\n        /* \"#utility.yul\":7424:7436   */\n      dup3\n        /* \"#utility.yul\":7370:7443   */\n      tag_255\n      jump\t// in\n    tag_369:\n        /* \"#utility.yul\":7362:7443   */\n      swap2\n      pop\n        /* \"#utility.yul\":7216:7454   */\n      pop\n        /* \"#utility.yul\":7539:7543   */\n      0x40\n        /* \"#utility.yul\":7532:7537   */\n      dup4\n        /* \"#utility.yul\":7528:7544   */\n      add\n        /* \"#utility.yul\":7522:7545   */\n      mload\n        /* \"#utility.yul\":7592:7595   */\n      dup5\n        /* \"#utility.yul\":7586:7590   */\n      dup3\n        /* \"#utility.yul\":7582:7596   */\n      sub\n        /* \"#utility.yul\":7575:7579   */\n      0x40\n        /* \"#utility.yul\":7570:7573   */\n      dup7\n        /* \"#utility.yul\":7566:7580   */\n      add\n        /* \"#utility.yul\":7559:7597   */\n      mstore\n        /* \"#utility.yul\":7618:7691   */\n      tag_370\n        /* \"#utility.yul\":7686:7690   */\n      dup3\n        /* \"#utility.yul\":7672:7684   */\n      dup3\n        /* \"#utility.yul\":7618:7691   */\n      tag_255\n      jump\t// in\n    tag_370:\n        /* \"#utility.yul\":7610:7691   */\n      swap2\n      pop\n        /* \"#utility.yul\":7464:7702   */\n      pop\n        /* \"#utility.yul\":7787:7791   */\n      0x60\n        /* \"#utility.yul\":7780:7785   */\n      dup4\n        /* \"#utility.yul\":7776:7792   */\n      add\n        /* \"#utility.yul\":7770:7793   */\n      mload\n        /* \"#utility.yul\":7840:7843   */\n      dup5\n        /* \"#utility.yul\":7834:7838   */\n      dup3\n        /* \"#utility.yul\":7830:7844   */\n      sub\n        /* \"#utility.yul\":7823:7827   */\n      0x60\n        /* \"#utility.yul\":7818:7821   */\n      dup7\n        /* \"#utility.yul\":7814:7828   */\n      add\n        /* \"#utility.yul\":7807:7845   */\n      mstore\n        /* \"#utility.yul\":7866:7939   */\n      tag_371\n        /* \"#utility.yul\":7934:7938   */\n      dup3\n        /* \"#utility.yul\":7920:7932   */\n      dup3\n        /* \"#utility.yul\":7866:7939   */\n      tag_255\n      jump\t// in\n    tag_371:\n        /* \"#utility.yul\":7858:7939   */\n      swap2\n      pop\n        /* \"#utility.yul\":7712:7950   */\n      pop\n        /* \"#utility.yul\":8035:8039   */\n      0x80\n        /* \"#utility.yul\":8028:8033   */\n      dup4\n        /* \"#utility.yul\":8024:8040   */\n      add\n        /* \"#utility.yul\":8018:8041   */\n      mload\n        /* \"#utility.yul\":8088:8091   */\n      dup5\n        /* \"#utility.yul\":8082:8086   */\n      dup3\n        /* \"#utility.yul\":8078:8092   */\n      sub\n        /* \"#utility.yul\":8071:8075   */\n      0x80\n        /* \"#utility.yul\":8066:8069   */\n      dup7\n        /* \"#utility.yul\":8062:8076   */\n      add\n        /* \"#utility.yul\":8055:8093   */\n      mstore\n        /* \"#utility.yul\":8114:8187   */\n      tag_372\n        /* \"#utility.yul\":8182:8186   */\n      dup3\n        /* \"#utility.yul\":8168:8180   */\n      dup3\n        /* \"#utility.yul\":8114:8187   */\n      tag_255\n      jump\t// in\n    tag_372:\n        /* \"#utility.yul\":8106:8187   */\n      swap2\n      pop\n        /* \"#utility.yul\":7960:8198   */\n      pop\n        /* \"#utility.yul\":8280:8284   */\n      0xa0\n        /* \"#utility.yul\":8273:8278   */\n      dup4\n        /* \"#utility.yul\":8269:8285   */\n      add\n        /* \"#utility.yul\":8263:8286   */\n      mload\n        /* \"#utility.yul\":8333:8336   */\n      dup5\n        /* \"#utility.yul\":8327:8331   */\n      dup3\n        /* \"#utility.yul\":8323:8337   */\n      sub\n        /* \"#utility.yul\":8316:8320   */\n      0xa0\n        /* \"#utility.yul\":8311:8314   */\n      dup7\n        /* \"#utility.yul\":8307:8321   */\n      add\n        /* \"#utility.yul\":8300:8338   */\n      mstore\n        /* \"#utility.yul\":8359:8432   */\n      tag_373\n        /* \"#utility.yul\":8427:8431   */\n      dup3\n        /* \"#utility.yul\":8413:8425   */\n      dup3\n        /* \"#utility.yul\":8359:8432   */\n      tag_255\n      jump\t// in\n    tag_373:\n        /* \"#utility.yul\":8351:8432   */\n      swap2\n      pop\n        /* \"#utility.yul\":8208:8443   */\n      pop\n        /* \"#utility.yul\":8533:8537   */\n      0xc0\n        /* \"#utility.yul\":8526:8531   */\n      dup4\n        /* \"#utility.yul\":8522:8538   */\n      add\n        /* \"#utility.yul\":8516:8539   */\n      mload\n        /* \"#utility.yul\":8552:8611   */\n      tag_374\n        /* \"#utility.yul\":8605:8609   */\n      0xc0\n        /* \"#utility.yul\":8600:8603   */\n      dup7\n        /* \"#utility.yul\":8596:8610   */\n      add\n        /* \"#utility.yul\":8582:8594   */\n      dup3\n        /* \"#utility.yul\":8552:8611   */\n      tag_257\n      jump\t// in\n    tag_374:\n        /* \"#utility.yul\":8453:8621   */\n      pop\n        /* \"#utility.yul\":8705:8709   */\n      0xe0\n        /* \"#utility.yul\":8698:8703   */\n      dup4\n        /* \"#utility.yul\":8694:8710   */\n      add\n        /* \"#utility.yul\":8688:8711   */\n      mload\n        /* \"#utility.yul\":8724:8787   */\n      tag_375\n        /* \"#utility.yul\":8781:8785   */\n      0xe0\n        /* \"#utility.yul\":8776:8779   */\n      dup7\n        /* \"#utility.yul\":8772:8786   */\n      add\n        /* \"#utility.yul\":8758:8770   */\n      dup3\n        /* \"#utility.yul\":8724:8787   */\n      tag_258\n      jump\t// in\n    tag_375:\n        /* \"#utility.yul\":8631:8797   */\n      pop\n        /* \"#utility.yul\":8885:8891   */\n      0x0100\n        /* \"#utility.yul\":8878:8883   */\n      dup4\n        /* \"#utility.yul\":8874:8892   */\n      add\n        /* \"#utility.yul\":8868:8893   */\n      mload\n        /* \"#utility.yul\":8906:8971   */\n      tag_376\n        /* \"#utility.yul\":8963:8969   */\n      0x0100\n        /* \"#utility.yul\":8958:8961   */\n      dup7\n        /* \"#utility.yul\":8954:8970   */\n      add\n        /* \"#utility.yul\":8940:8952   */\n      dup3\n        /* \"#utility.yul\":8906:8971   */\n      tag_258\n      jump\t// in\n    tag_376:\n        /* \"#utility.yul\":8807:8981   */\n      pop\n        /* \"#utility.yul\":8998:9002   */\n      dup1\n        /* \"#utility.yul\":8991:9002   */\n      swap2\n      pop\n        /* \"#utility.yul\":6919:9008   */\n      pop\n        /* \"#utility.yul\":6805:9008   */\n      swap3\n      swap2\n      pop\n      pop\n      jump\t// out\n        /* \"#utility.yul\":9014:9367   */\n    tag_45:\n        /* \"#utility.yul\":9147:9151   */\n      0x00\n        /* \"#utility.yul\":9185:9187   */\n      0x20\n        /* \"#utility.yul\":9174:9183   */\n      dup3\n        /* \"#utility.yul\":9170:9188   */\n      add\n        /* \"#utility.yul\":9162:9188   */\n      swap1\n      pop\n        /* \"#utility.yul\":9234:9243   */\n      dup2\n        /* \"#utility.yul\":9228:9232   */\n      dup2\n        /* \"#utility.yul\":9224:9244   */\n      sub\n        /* \"#utility.yul\":9220:9221   */\n      0x00\n        /* \"#utility.yul\":9209:9218   */\n      dup4\n        /* \"#utility.yul\":9205:9222   */\n      add\n        /* \"#utility.yul\":9198:9245   */\n      mstore\n        /* \"#utility.yul\":9262:9360   */\n      tag_378\n        /* \"#utility.yul\":9355:9359   */\n      dup2\n        /* \"#utility.yul\":9346:9352   */\n      dup5\n        /* \"#utility.yul\":9262:9360   */\n      tag_259\n      jump\t// in\n    tag_378:\n        /* \"#utility.yul\":9254:9360   */\n      swap1\n      pop\n        /* \"#utility.yul\":9014:9367   */\n      swap3\n      swap2\n      pop\n      pop\n      jump\t// out\n        /* \"#utility.yul\":9373:9491   */\n    tag_260:\n        /* \"#utility.yul\":9444:9466   */\n      tag_380\n        /* \"#utility.yul\":9460:9465   */\n      dup2\n        /* \"#utility.yul\":9444:9466   */\n      tag_256\n      jump\t// in\n    tag_380:\n        /* \"#utility.yul\":9437:9442   */\n      dup2\n        /* \"#utility.yul\":9434:9467   */\n      eq\n        /* \"#utility.yul\":9424:9485   */\n      tag_381\n      jumpi\n        /* \"#utility.yul\":9481:9482   */\n      0x00\n        /* \"#utility.yul\":9478:9479   */\n      dup1\n        /* \"#utility.yul\":9471:9483   */\n      revert\n        /* \"#utility.yul\":9424:9485   */\n    tag_381:\n        /* \"#utility.yul\":9373:9491   */\n      pop\n      jump\t// out\n        /* \"#utility.yul\":9497:9632   */\n    tag_261:\n        /* \"#utility.yul\":9541:9546   */\n      0x00\n        /* \"#utility.yul\":9579:9585   */\n      dup2\n        /* \"#utility.yul\":9566:9586   */\n      calldataload\n        /* \"#utility.yul\":9557:9586   */\n      swap1\n      pop\n        /* \"#utility.yul\":9595:9626   */\n      tag_383\n        /* \"#utility.yul\":9620:9625   */\n      dup2\n        /* \"#utility.yul\":9595:9626   */\n      tag_260\n      jump\t// in\n    tag_383:\n        /* \"#utility.yul\":9497:9632   */\n      swap3\n      swap2\n      pop\n      pop\n      jump\t// out\n        /* \"#utility.yul\":9638:12351   */\n    tag_52:\n        /* \"#utility.yul\":9834:9840   */\n      0x00\n        /* \"#utility.yul\":9842:9848   */\n      dup1\n        /* \"#utility.yul\":9850:9856   */\n      0x00\n        /* \"#utility.yul\":9858:9864   */\n      dup1\n        /* \"#utility.yul\":9866:9872   */\n      0x00\n        /* \"#utility.yul\":9874:9880   */\n      dup1\n        /* \"#utility.yul\":9882:9888   */\n      0x00\n        /* \"#utility.yul\":9890:9896   */\n      dup1\n        /* \"#utility.yul\":9898:9904   */\n      0x00\n        /* \"#utility.yul\":9906:9912   */\n      dup1\n        /* \"#utility.yul\":9955:9958   */\n      0x0140\n        /* \"#utility.yul\":9943:9952   */\n      dup12\n        /* \"#utility.yul\":9934:9941   */\n      dup14\n        /* \"#utility.yul\":9930:9953   */\n      sub\n        /* \"#utility.yul\":9926:9959   */\n      slt\n        /* \"#utility.yul\":9923:10043   */\n      iszero\n      tag_385\n      jumpi\n        /* \"#utility.yul\":9962:10041   */\n      tag_386\n      tag_230\n      jump\t// in\n    tag_386:\n        /* \"#utility.yul\":9923:10043   */\n    tag_385:\n        /* \"#utility.yul\":10110:10111   */\n      0x00\n        /* \"#utility.yul\":10099:10108   */\n      dup12\n        /* \"#utility.yul\":10095:10112   */\n      add\n        /* \"#utility.yul\":10082:10113   */\n      calldataload\n        /* \"#utility.yul\":10140:10158   */\n      0xffffffffffffffff\n        /* \"#utility.yul\":10132:10138   */\n      dup2\n        /* \"#utility.yul\":10129:10159   */\n      gt\n        /* \"#utility.yul\":10126:10243   */\n      iszero\n      tag_387\n      jumpi\n        /* \"#utility.yul\":10162:10241   */\n      tag_388\n      tag_231\n      jump\t// in\n    tag_388:\n        /* \"#utility.yul\":10126:10243   */\n    tag_387:\n        /* \"#utility.yul\":10267:10330   */\n      tag_389\n        /* \"#utility.yul\":10322:10329   */\n      dup14\n        /* \"#utility.yul\":10313:10319   */\n      dup3\n        /* \"#utility.yul\":10302:10311   */\n      dup15\n        /* \"#utility.yul\":10298:10320   */\n      add\n        /* \"#utility.yul\":10267:10330   */\n      tag_251\n      jump\t// in\n    tag_389:\n        /* \"#utility.yul\":10257:10330   */\n      swap11\n      pop\n        /* \"#utility.yul\":10053:10340   */\n      pop\n        /* \"#utility.yul\":10407:10409   */\n      0x20\n        /* \"#utility.yul\":10396:10405   */\n      dup12\n        /* \"#utility.yul\":10392:10410   */\n      add\n        /* \"#utility.yul\":10379:10411   */\n      calldataload\n        /* \"#utility.yul\":10438:10456   */\n      0xffffffffffffffff\n        /* \"#utility.yul\":10430:10436   */\n      dup2\n        /* \"#utility.yul\":10427:10457   */\n      gt\n        /* \"#utility.yul\":10424:10541   */\n      iszero\n      tag_390\n      jumpi\n        /* \"#utility.yul\":10460:10539   */\n      tag_391\n      tag_231\n      jump\t// in\n    tag_391:\n        /* \"#utility.yul\":10424:10541   */\n    tag_390:\n        /* \"#utility.yul\":10565:10628   */\n      tag_392\n        /* \"#utility.yul\":10620:10627   */\n      dup14\n        /* \"#utility.yul\":10611:10617   */\n      dup3\n        /* \"#utility.yul\":10600:10609   */\n      dup15\n        /* \"#utility.yul\":10596:10618   */\n      add\n        /* \"#utility.yul\":10565:10628   */\n      tag_251\n      jump\t// in\n    tag_392:\n        /* \"#utility.yul\":10555:10628   */\n      swap10\n      pop\n        /* \"#utility.yul\":10350:10638   */\n      pop\n        /* \"#utility.yul\":10705:10707   */\n      0x40\n        /* \"#utility.yul\":10694:10703   */\n      dup12\n        /* \"#utility.yul\":10690:10708   */\n      add\n        /* \"#utility.yul\":10677:10709   */\n      calldataload\n        /* \"#utility.yul\":10736:10754   */\n      0xffffffffffffffff\n        /* \"#utility.yul\":10728:10734   */\n      dup2\n        /* \"#utility.yul\":10725:10755   */\n      gt\n        /* \"#utility.yul\":10722:10839   */\n      iszero\n      tag_393\n      jumpi\n        /* \"#utility.yul\":10758:10837   */\n      tag_394\n      tag_231\n      jump\t// in\n    tag_394:\n        /* \"#utility.yul\":10722:10839   */\n    tag_393:\n        /* \"#utility.yul\":10863:10926   */\n      tag_395\n        /* \"#utility.yul\":10918:10925   */\n      dup14\n        /* \"#utility.yul\":10909:10915   */\n      dup3\n        /* \"#utility.yul\":10898:10907   */\n      dup15\n        /* \"#utility.yul\":10894:10916   */\n      add\n        /* \"#utility.yul\":10863:10926   */\n      tag_251\n      jump\t// in\n    tag_395:\n        /* \"#utility.yul\":10853:10926   */\n      swap9\n      pop\n        /* \"#utility.yul\":10648:10936   */\n      pop\n        /* \"#utility.yul\":11003:11005   */\n      0x60\n        /* \"#utility.yul\":10992:11001   */\n      dup12\n        /* \"#utility.yul\":10988:11006   */\n      add\n        /* \"#utility.yul\":10975:11007   */\n      calldataload\n        /* \"#utility.yul\":11034:11052   */\n      0xffffffffffffffff\n        /* \"#utility.yul\":11026:11032   */\n      dup2\n        /* \"#utility.yul\":11023:11053   */\n      gt\n        /* \"#utility.yul\":11020:11137   */\n      iszero\n      tag_396\n      jumpi\n        /* \"#utility.yul\":11056:11135   */\n      tag_397\n      tag_231\n      jump\t// in\n    tag_397:\n        /* \"#utility.yul\":11020:11137   */\n    tag_396:\n        /* \"#utility.yul\":11161:11224   */\n      tag_398\n        /* \"#utility.yul\":11216:11223   */\n      dup14\n        /* \"#utility.yul\":11207:11213   */\n      dup3\n        /* \"#utility.yul\":11196:11205   */\n      dup15\n        /* \"#utility.yul\":11192:11214   */\n      add\n        /* \"#utility.yul\":11161:11224   */\n      tag_251\n      jump\t// in\n    tag_398:\n        /* \"#utility.yul\":11151:11224   */\n      swap8\n      pop\n        /* \"#utility.yul\":10946:11234   */\n      pop\n        /* \"#utility.yul\":11301:11304   */\n      0x80\n        /* \"#utility.yul\":11290:11299   */\n      dup12\n        /* \"#utility.yul\":11286:11305   */\n      add\n        /* \"#utility.yul\":11273:11306   */\n      calldataload\n        /* \"#utility.yul\":11333:11351   */\n      0xffffffffffffffff\n        /* \"#utility.yul\":11325:11331   */\n      dup2\n        /* \"#utility.yul\":11322:11352   */\n      gt\n        /* \"#utility.yul\":11319:11436   */\n      iszero\n      tag_399\n      jumpi\n        /* \"#utility.yul\":11355:11434   */\n      tag_400\n      tag_231\n      jump\t// in\n    tag_400:\n        /* \"#utility.yul\":11319:11436   */\n    tag_399:\n        /* \"#utility.yul\":11460:11523   */\n      tag_401\n        /* \"#utility.yul\":11515:11522   */\n      dup14\n        /* \"#utility.yul\":11506:11512   */\n      dup3\n        /* \"#utility.yul\":11495:11504   */\n      dup15\n        /* \"#utility.yul\":11491:11513   */\n      add\n        /* \"#utility.yul\":11460:11523   */\n      tag_251\n      jump\t// in\n    tag_401:\n        /* \"#utility.yul\":11450:11523   */\n      swap7\n      pop\n        /* \"#utility.yul\":11244:11533   */\n      pop\n        /* \"#utility.yul\":11600:11603   */\n      0xa0\n        /* \"#utility.yul\":11589:11598   */\n      dup12\n        /* \"#utility.yul\":11585:11604   */\n      add\n        /* \"#utility.yul\":11572:11605   */\n      calldataload\n        /* \"#utility.yul\":11632:11650   */\n      0xffffffffffffffff\n        /* \"#utility.yul\":11624:11630   */\n      dup2\n        /* \"#utility.yul\":11621:11651   */\n      gt\n        /* \"#utility.yul\":11618:11735   */\n      iszero\n      tag_402\n      jumpi\n        /* \"#utility.yul\":11654:11733   */\n      tag_403\n      tag_231\n      jump\t// in\n    tag_403:\n        /* \"#utility.yul\":11618:11735   */\n    tag_402:\n        /* \"#utility.yul\":11759:11822   */\n      tag_404\n        /* \"#utility.yul\":11814:11821   */\n      dup14\n        /* \"#utility.yul\":11805:11811   */\n      dup3\n        /* \"#utility.yul\":11794:11803   */\n      dup15\n        /* \"#utility.yul\":11790:11812   */\n      add\n        /* \"#utility.yul\":11759:11822   */\n      tag_251\n      jump\t// in\n    tag_404:\n        /* \"#utility.yul\":11749:11822   */\n      swap6\n      pop\n        /* \"#utility.yul\":11543:11832   */\n      pop\n        /* \"#utility.yul\":11871:11874   */\n      0xc0\n        /* \"#utility.yul\":11898:11949   */\n      tag_405\n        /* \"#utility.yul\":11941:11948   */\n      dup14\n        /* \"#utility.yul\":11932:11938   */\n      dup3\n        /* \"#utility.yul\":11921:11930   */\n      dup15\n        /* \"#utility.yul\":11917:11939   */\n      add\n        /* \"#utility.yul\":11898:11949   */\n      tag_261\n      jump\t// in\n    tag_405:\n        /* \"#utility.yul\":11888:11949   */\n      swap5\n      pop\n        /* \"#utility.yul\":11842:11959   */\n      pop\n        /* \"#utility.yul\":11998:12001   */\n      0xe0\n        /* \"#utility.yul\":12025:12076   */\n      tag_406\n        /* \"#utility.yul\":12068:12075   */\n      dup14\n        /* \"#utility.yul\":12059:12065   */\n      dup3\n        /* \"#utility.yul\":12048:12057   */\n      dup15\n        /* \"#utility.yul\":12044:12066   */\n      add\n        /* \"#utility.yul\":12025:12076   */\n      tag_261\n      jump\t// in\n    tag_406:\n        /* \"#utility.yul\":12015:12076   */\n      swap4\n      pop\n        /* \"#utility.yul\":11969:12086   */\n      pop\n        /* \"#utility.yul\":12125:12128   */\n      0x0100\n        /* \"#utility.yul\":12152:12205   */\n      tag_407\n        /* \"#utility.yul\":12197:12204   */\n      dup14\n        /* \"#utility.yul\":12188:12194   */\n      dup3\n        /* \"#utility.yul\":12177:12186   */\n      dup15\n        /* \"#utility.yul\":12173:12195   */\n      add\n        /* \"#utility.yul\":12152:12205   */\n      tag_234\n      jump\t// in\n    tag_407:\n        /* \"#utility.yul\":12142:12205   */\n      swap3\n      pop\n        /* \"#utility.yul\":12096:12215   */\n      pop\n        /* \"#utility.yul\":12254:12257   */\n      0x0120\n        /* \"#utility.yul\":12281:12334   */\n      tag_408\n        /* \"#utility.yul\":12326:12333   */\n      dup14\n        /* \"#utility.yul\":12317:12323   */\n      dup3\n        /* \"#utility.yul\":12306:12315   */\n      dup15\n        /* \"#utility.yul\":12302:12324   */\n      add\n        /* \"#utility.yul\":12281:12334   */\n      tag_234\n      jump\t// in\n    tag_408:\n        /* \"#utility.yul\":12271:12334   */\n      swap2\n      pop\n        /* \"#utility.yul\":12225:12344   */\n      pop\n        /* \"#utility.yul\":9638:12351   */\n      swap3\n      swap6\n      swap9\n      swap12\n      swap2\n      swap5\n      swap8\n      swap11\n      pop\n      swap3\n      swap6\n      swap9\n      pop\n      jump\t// out\n        /* \"#utility.yul\":12357:12469   */\n    tag_262:\n        /* \"#utility.yul\":12440:12462   */\n      tag_410\n        /* \"#utility.yul\":12456:12461   */\n      dup2\n        /* \"#utility.yul\":12440:12462   */\n      tag_256\n      jump\t// in\n    tag_410:\n        /* \"#utility.yul\":12435:12438   */\n      dup3\n        /* \"#utility.yul\":12428:12463   */\n      mstore\n        /* \"#utility.yul\":12357:12469   */\n      pop\n      pop\n      jump\t// out\n        /* \"#utility.yul\":12475:12930   */\n    tag_59:\n        /* \"#utility.yul\":12632:12636   */\n      0x00\n        /* \"#utility.yul\":12670:12672   */\n      0x40\n        /* \"#utility.yul\":12659:12668   */\n      dup3\n        /* \"#utility.yul\":12655:12673   */\n      add\n        /* \"#utility.yul\":12647:12673   */\n      swap1\n      pop\n        /* \"#utility.yul\":12719:12728   */\n      dup2\n        /* \"#utility.yul\":12713:12717   */\n      dup2\n        /* \"#utility.yul\":12709:12729   */\n      sub\n        /* \"#utility.yul\":12705:12706   */\n      0x00\n        /* \"#utility.yul\":12694:12703   */\n      dup4\n        /* \"#utility.yul\":12690:12707   */\n      add\n        /* \"#utility.yul\":12683:12730   */\n      mstore\n        /* \"#utility.yul\":12747:12845   */\n      tag_412\n        /* \"#utility.yul\":12840:12844   */\n      dup2\n        /* \"#utility.yul\":12831:12837   */\n      dup6\n        /* \"#utility.yul\":12747:12845   */\n      tag_259\n      jump\t// in\n    tag_412:\n        /* \"#utility.yul\":12739:12845   */\n      swap1\n      pop\n        /* \"#utility.yul\":12855:12923   */\n      tag_413\n        /* \"#utility.yul\":12919:12921   */\n      0x20\n        /* \"#utility.yul\":12908:12917   */\n      dup4\n        /* \"#utility.yul\":12904:12922   */\n      add\n        /* \"#utility.yul\":12895:12901   */\n      dup5\n        /* \"#utility.yul\":12855:12923   */\n      tag_262\n      jump\t// in\n    tag_413:\n        /* \"#utility.yul\":12475:12930   */\n      swap4\n      swap3\n      pop\n      pop\n      pop\n      jump\t// out\n        /* \"#utility.yul\":12936:13058   */\n    tag_263:\n        /* \"#utility.yul\":13009:13033   */\n      tag_415\n        /* \"#utility.yul\":13027:13032   */\n      dup2\n        /* \"#utility.yul\":13009:13033   */\n      tag_239\n      jump\t// in\n    tag_415:\n        /* \"#utility.yul\":13002:13007   */\n      dup2\n        /* \"#utility.yul\":12999:13034   */\n      eq\n        /* \"#utility.yul\":12989:13052   */\n      tag_416\n      jumpi\n        /* \"#utility.yul\":13048:13049   */\n      0x00\n        /* \"#utility.yul\":13045:13046   */\n      dup1\n        /* \"#utility.yul\":13038:13050   */\n      revert\n        /* \"#utility.yul\":12989:13052   */\n    tag_416:\n        /* \"#utility.yul\":12936:13058   */\n      pop\n      jump\t// out\n        /* \"#utility.yul\":13064:13203   */\n    tag_264:\n        /* \"#utility.yul\":13110:13115   */\n      0x00\n        /* \"#utility.yul\":13148:13154   */\n      dup2\n        /* \"#utility.yul\":13135:13155   */\n      calldataload\n        /* \"#utility.yul\":13126:13155   */\n      swap1\n      pop\n        /* \"#utility.yul\":13164:13197   */\n      tag_418\n        /* \"#utility.yul\":13191:13196   */\n      dup2\n        /* \"#utility.yul\":13164:13197   */\n      tag_263\n      jump\t// in\n    tag_418:\n        /* \"#utility.yul\":13064:13203   */\n      swap3\n      swap2\n      pop\n      pop\n      jump\t// out\n        /* \"#utility.yul\":13209:13538   */\n    tag_63:\n        /* \"#utility.yul\":13268:13274   */\n      0x00\n        /* \"#utility.yul\":13317:13319   */\n      0x20\n        /* \"#utility.yul\":13305:13314   */\n      dup3\n        /* \"#utility.yul\":13296:13303   */\n      dup5\n        /* \"#utility.yul\":13292:13315   */\n      sub\n        /* \"#utility.yul\":13288:13320   */\n      slt\n        /* \"#utility.yul\":13285:13404   */\n      iszero\n      tag_420\n      jumpi\n        /* \"#utility.yul\":13323:13402   */\n      tag_421\n      tag_230\n      jump\t// in\n    tag_421:\n        /* \"#utility.yul\":13285:13404   */\n    tag_420:\n        /* \"#utility.yul\":13443:13444   */\n      0x00\n        /* \"#utility.yul\":13468:13521   */\n      tag_422\n        /* \"#utility.yul\":13513:13520   */\n      dup5\n        /* \"#utility.yul\":13504:13510   */\n      dup3\n        /* \"#utility.yul\":13493:13502   */\n      dup6\n        /* \"#utility.yul\":13489:13511   */\n      add\n        /* \"#utility.yul\":13468:13521   */\n      tag_264\n      jump\t// in\n    tag_422:\n        /* \"#utility.yul\":13458:13521   */\n      swap2\n      pop\n        /* \"#utility.yul\":13414:13531   */\n      pop\n        /* \"#utility.yul\":13209:13538   */\n      swap3\n      swap2\n      pop\n      pop\n      jump\t// out\n        /* \"#utility.yul\":13544:14198   */\n    tag_68:\n        /* \"#utility.yul\":13622:13628   */\n      0x00\n        /* \"#utility.yul\":13630:13636   */\n      dup1\n        /* \"#utility.yul\":13679:13681   */\n      0x40\n        /* \"#utility.yul\":13667:13676   */\n      dup4\n        /* \"#utility.yul\":13658:13665   */\n      dup6\n        /* \"#utility.yul\":13654:13677   */\n      sub\n        /* \"#utility.yul\":13650:13682   */\n      slt\n        /* \"#utility.yul\":13647:13766   */\n      iszero\n      tag_424\n      jumpi\n        /* \"#utility.yul\":13685:13764   */\n      tag_425\n      tag_230\n      jump\t// in\n    tag_425:\n        /* \"#utility.yul\":13647:13766   */\n    tag_424:\n        /* \"#utility.yul\":13805:13806   */\n      0x00\n        /* \"#utility.yul\":13830:13883   */\n      tag_426\n        /* \"#utility.yul\":13875:13882   */\n      dup6\n        /* \"#utility.yul\":13866:13872   */\n      dup3\n        /* \"#utility.yul\":13855:13864   */\n      dup7\n        /* \"#utility.yul\":13851:13873   */\n      add\n        /* \"#utility.yul\":13830:13883   */\n      tag_234\n      jump\t// in\n    tag_426:\n        /* \"#utility.yul\":13820:13883   */\n      swap3\n      pop\n        /* \"#utility.yul\":13776:13893   */\n      pop\n        /* \"#utility.yul\":13960:13962   */\n      0x20\n        /* \"#utility.yul\":13949:13958   */\n      dup4\n        /* \"#utility.yul\":13945:13963   */\n      add\n        /* \"#utility.yul\":13932:13964   */\n      calldataload\n        /* \"#utility.yul\":13991:14009   */\n      0xffffffffffffffff\n        /* \"#utility.yul\":13983:13989   */\n      dup2\n        /* \"#utility.yul\":13980:14010   */\n      gt\n        /* \"#utility.yul\":13977:14094   */\n      iszero\n      tag_427\n      jumpi\n        /* \"#utility.yul\":14013:14092   */\n      tag_428\n      tag_231\n      jump\t// in\n    tag_428:\n        /* \"#utility.yul\":13977:14094   */\n    tag_427:\n        /* \"#utility.yul\":14118:14181   */\n      tag_429\n        /* \"#utility.yul\":14173:14180   */\n      dup6\n        /* \"#utility.yul\":14164:14170   */\n      dup3\n        /* \"#utility.yul\":14153:14162   */\n      dup7\n        /* \"#utility.yul\":14149:14171   */\n      add\n        /* \"#utility.yul\":14118:14181   */\n      tag_251\n      jump\t// in\n    tag_429:\n        /* \"#utility.yul\":14108:14181   */\n      swap2\n      pop\n        /* \"#utility.yul\":13903:14191   */\n      pop\n        /* \"#utility.yul\":13544:14198   */\n      swap3\n      pop\n      swap3\n      swap1\n      pop\n      jump\t// out\n        /* \"#utility.yul\":14204:14373   */\n    tag_265:\n        /* \"#utility.yul\":14288:14299   */\n      0x00\n        /* \"#utility.yul\":14322:14328   */\n      dup3\n        /* \"#utility.yul\":14317:14320   */\n      dup3\n        /* \"#utility.yul\":14310:14329   */\n      mstore\n        /* \"#utility.yul\":14362:14366   */\n      0x20\n        /* \"#utility.yul\":14357:14360   */\n      dup3\n        /* \"#utility.yul\":14353:14367   */\n      add\n        /* \"#utility.yul\":14338:14367   */\n      swap1\n      pop\n        /* \"#utility.yul\":14204:14373   */\n      swap3\n      swap2\n      pop\n      pop\n      jump\t// out\n        /* \"#utility.yul\":14379:14561   */\n    tag_266:\n        /* \"#utility.yul\":14519:14553   */\n      0x4f776e61626c653a2063616c6c6572206973206e6f7420746865206f776e6572\n        /* \"#utility.yul\":14515:14516   */\n      0x00\n        /* \"#utility.yul\":14507:14513   */\n      dup3\n        /* \"#utility.yul\":14503:14517   */\n      add\n        /* \"#utility.yul\":14496:14554   */\n      mstore\n        /* \"#utility.yul\":14379:14561   */\n      pop\n      jump\t// out\n        /* \"#utility.yul\":14567:14933   */\n    tag_267:\n        /* \"#utility.yul\":14709:14712   */\n      0x00\n        /* \"#utility.yul\":14730:14797   */\n      tag_433\n        /* \"#utility.yul\":14794:14796   */\n      0x20\n        /* \"#utility.yul\":14789:14792   */\n      dup4\n        /* \"#utility.yul\":14730:14797   */\n      tag_265\n      jump\t// in\n    tag_433:\n        /* \"#utility.yul\":14723:14797   */\n      swap2\n      pop\n        /* \"#utility.yul\":14806:14899   */\n      tag_434\n        /* \"#utility.yul\":14895:14898   */\n      dup3\n        /* \"#utility.yul\":14806:14899   */\n      tag_266\n      jump\t// in\n    tag_434:\n        /* \"#utility.yul\":14924:14926   */\n      0x20\n        /* \"#utility.yul\":14919:14922   */\n      dup3\n        /* \"#utility.yul\":14915:14927   */\n      add\n        /* \"#utility.yul\":14908:14927   */\n      swap1\n      pop\n        /* \"#utility.yul\":14567:14933   */\n      swap2\n      swap1\n      pop\n      jump\t// out\n        /* \"#utility.yul\":14939:15358   */\n    tag_76:\n        /* \"#utility.yul\":15105:15109   */\n      0x00\n        /* \"#utility.yul\":15143:15145   */\n      0x20\n        /* \"#utility.yul\":15132:15141   */\n      dup3\n        /* \"#utility.yul\":15128:15146   */\n      add\n        /* \"#utility.yul\":15120:15146   */\n      swap1\n      pop\n        /* \"#utility.yul\":15192:15201   */\n      dup2\n        /* \"#utility.yul\":15186:15190   */\n      dup2\n        /* \"#utility.yul\":15182:15202   */\n      sub\n        /* \"#utility.yul\":15178:15179   */\n      0x00\n        /* \"#utility.yul\":15167:15176   */\n      dup4\n        /* \"#utility.yul\":15163:15180   */\n      add\n        /* \"#utility.yul\":15156:15203   */\n      mstore\n        /* \"#utility.yul\":15220:15351   */\n      tag_436\n        /* \"#utility.yul\":15346:15350   */\n      dup2\n        /* \"#utility.yul\":15220:15351   */\n      tag_267\n      jump\t// in\n    tag_436:\n        /* \"#utility.yul\":15212:15351   */\n      swap1\n      pop\n        /* \"#utility.yul\":14939:15358   */\n      swap2\n      swap1\n      pop\n      jump\t// out\n        /* \"#utility.yul\":15364:15544   */\n    tag_98:\n        /* \"#utility.yul\":15412:15489   */\n      0x4e487b7100000000000000000000000000000000000000000000000000000000\n        /* \"#utility.yul\":15409:15410   */\n      0x00\n        /* \"#utility.yul\":15402:15490   */\n      mstore\n        /* \"#utility.yul\":15509:15513   */\n      0x32\n        /* \"#utility.yul\":15506:15507   */\n      0x04\n        /* \"#utility.yul\":15499:15514   */\n      mstore\n        /* \"#utility.yul\":15533:15537   */\n      0x24\n        /* \"#utility.yul\":15530:15531   */\n      0x00\n        /* \"#utility.yul\":15523:15538   */\n      revert\n        /* \"#utility.yul\":15550:15730   */\n    tag_268:\n        /* \"#utility.yul\":15598:15675   */\n      0x4e487b7100000000000000000000000000000000000000000000000000000000\n        /* \"#utility.yul\":15595:15596   */\n      0x00\n        /* \"#utility.yul\":15588:15676   */\n      mstore\n        /* \"#utility.yul\":15695:15699   */\n      0x11\n        /* \"#utility.yul\":15692:15693   */\n      0x04\n        /* \"#utility.yul\":15685:15700   */\n      mstore\n        /* \"#utility.yul\":15719:15723   */\n      0x24\n        /* \"#utility.yul\":15716:15717   */\n      0x00\n        /* \"#utility.yul\":15709:15724   */\n      revert\n        /* \"#utility.yul\":15736:15969   */\n    tag_100:\n        /* \"#utility.yul\":15775:15778   */\n      0x00\n        /* \"#utility.yul\":15798:15822   */\n      tag_440\n        /* \"#utility.yul\":15816:15821   */\n      dup3\n        /* \"#utility.yul\":15798:15822   */\n      tag_232\n      jump\t// in\n    tag_440:\n        /* \"#utility.yul\":15789:15822   */\n      swap2\n      pop\n        /* \"#utility.yul\":15844:15910   */\n      0xffffffffffffffffffffffffffffffffffffffffffffffffffffffffffffffff\n        /* \"#utility.yul\":15837:15842   */\n      dup3\n        /* \"#utility.yul\":15834:15911   */\n      sub\n        /* \"#utility.yul\":15831:15934   */\n      tag_441\n      jumpi\n        /* \"#utility.yul\":15914:15932   */\n      tag_442\n      tag_268\n      jump\t// in\n    tag_442:\n        /* \"#utility.yul\":15831:15934   */\n    tag_441:\n        /* \"#utility.yul\":15961:15962   */\n      0x01\n        /* \"#utility.yul\":15954:15959   */\n      dup3\n        /* \"#utility.yul\":15950:15963   */\n      add\n        /* \"#utility.yul\":15943:15963   */\n      swap1\n      pop\n        /* \"#utility.yul\":15736:15969   */\n      swap2\n      swap1\n      pop\n      jump\t// out\n        /* \"#utility.yul\":15975:16123   */\n    tag_269:\n        /* \"#utility.yul\":16077:16088   */\n      0x00\n        /* \"#utility.yul\":16114:16117   */\n      dup2\n        /* \"#utility.yul\":16099:16117   */\n      swap1\n      pop\n        /* \"#utility.yul\":15975:16123   */\n      swap3\n      swap2\n      pop\n      pop\n      jump\t// out\n        /* \"#utility.yul\":16129:16506   */\n    tag_270:\n        /* \"#utility.yul\":16235:16238   */\n      0x00\n        /* \"#utility.yul\":16263:16302   */\n      tag_445\n        /* \"#utility.yul\":16296:16301   */\n      dup3\n        /* \"#utility.yul\":16263:16302   */\n      tag_252\n      jump\t// in\n    tag_445:\n        /* \"#utility.yul\":16318:16407   */\n      tag_446\n        /* \"#utility.yul\":16400:16406   */\n      dup2\n        /* \"#utility.yul\":16395:16398   */\n      dup6\n        /* \"#utility.yul\":16318:16407   */\n      tag_269\n      jump\t// in\n    tag_446:\n        /* \"#utility.yul\":16311:16407   */\n      swap4\n      pop\n        /* \"#utility.yul\":16416:16468   */\n      tag_447\n        /* \"#utility.yul\":16461:16467   */\n      dup2\n        /* \"#utility.yul\":16456:16459   */\n      dup6\n        /* \"#utility.yul\":16449:16453   */\n      0x20\n        /* \"#utility.yul\":16442:16447   */\n      dup7\n        /* \"#utility.yul\":16438:16454   */\n      add\n        /* \"#utility.yul\":16416:16468   */\n      tag_254\n      jump\t// in\n    tag_447:\n        /* \"#utility.yul\":16493:16499   */\n      dup1\n        /* \"#utility.yul\":16488:16491   */\n      dup5\n        /* \"#utility.yul\":16484:16500   */\n      add\n        /* \"#utility.yul\":16477:16500   */\n      swap2\n      pop\n        /* \"#utility.yul\":16239:16506   */\n      pop\n        /* \"#utility.yul\":16129:16506   */\n      swap3\n      swap2\n      pop\n      pop\n      jump\t// out\n        /* \"#utility.yul\":16512:16591   */\n    tag_271:\n        /* \"#utility.yul\":16551:16558   */\n      0x00\n        /* \"#utility.yul\":16580:16585   */\n      dup2\n        /* \"#utility.yul\":16569:16585   */\n      swap1\n      pop\n        /* \"#utility.yul\":16512:16591   */\n      swap2\n      swap1\n      pop\n      jump\t// out\n        /* \"#utility.yul\":16597:16754   */\n    tag_272:\n        /* \"#utility.yul\":16702:16747   */\n      tag_450\n        /* \"#utility.yul\":16722:16746   */\n      tag_451\n        /* \"#utility.yul\":16740:16745   */\n      dup3\n        /* \"#utility.yul\":16722:16746   */\n      tag_232\n      jump\t// in\n    tag_451:\n        /* \"#utility.yul\":16702:16747   */\n      tag_271\n      jump\t// in\n    tag_450:\n        /* \"#utility.yul\":16697:16700   */\n      dup3\n        /* \"#utility.yul\":16690:16748   */\n      mstore\n        /* \"#utility.yul\":16597:16754   */\n      pop\n      pop\n      jump\t// out\n        /* \"#utility.yul\":16760:16854   */\n    tag_273:\n        /* \"#utility.yul\":16793:16801   */\n      0x00\n        /* \"#utility.yul\":16841:16846   */\n      dup2\n        /* \"#utility.yul\":16837:16839   */\n      0x60\n        /* \"#utility.yul\":16833:16847   */\n      shl\n        /* \"#utility.yul\":16812:16847   */\n      swap1\n      pop\n        /* \"#utility.yul\":16760:16854   */\n      swap2\n      swap1\n      pop\n      jump\t// out\n        /* \"#utility.yul\":16860:16954   */\n    tag_274:\n        /* \"#utility.yul\":16899:16906   */\n      0x00\n        /* \"#utility.yul\":16928:16948   */\n      tag_454\n        /* \"#utility.yul\":16942:16947   */\n      dup3\n        /* \"#utility.yul\":16928:16948   */\n      tag_273\n      jump\t// in\n    tag_454:\n        /* \"#utility.yul\":16917:16948   */\n      swap1\n      pop\n        /* \"#utility.yul\":16860:16954   */\n      swap2\n      swap1\n      pop\n      jump\t// out\n        /* \"#utility.yul\":16960:17060   */\n    tag_275:\n        /* \"#utility.yul\":16999:17006   */\n      0x00\n        /* \"#utility.yul\":17028:17054   */\n      tag_456\n        /* \"#utility.yul\":17048:17053   */\n      dup3\n        /* \"#utility.yul\":17028:17054   */\n      tag_274\n      jump\t// in\n    tag_456:\n        /* \"#utility.yul\":17017:17054   */\n      swap1\n      pop\n        /* \"#utility.yul\":16960:17060   */\n      swap2\n      swap1\n      pop\n      jump\t// out\n        /* \"#utility.yul\":17066:17223   */\n    tag_276:\n        /* \"#utility.yul\":17171:17216   */\n      tag_458\n        /* \"#utility.yul\":17191:17215   */\n      tag_459\n        /* \"#utility.yul\":17209:17214   */\n      dup3\n        /* \"#utility.yul\":17191:17215   */\n      tag_239\n      jump\t// in\n    tag_459:\n        /* \"#utility.yul\":17171:17216   */\n      tag_275\n      jump\t// in\n    tag_458:\n        /* \"#utility.yul\":17166:17169   */\n      dup3\n        /* \"#utility.yul\":17159:17217   */\n      mstore\n        /* \"#utility.yul\":17066:17223   */\n      pop\n      pop\n      jump\t// out\n        /* \"#utility.yul\":17229:17786   */\n    tag_103:\n        /* \"#utility.yul\":17417:17420   */\n      0x00\n        /* \"#utility.yul\":17439:17534   */\n      tag_461\n        /* \"#utility.yul\":17530:17533   */\n      dup3\n        /* \"#utility.yul\":17521:17527   */\n      dup7\n        /* \"#utility.yul\":17439:17534   */\n      tag_270\n      jump\t// in\n    tag_461:\n        /* \"#utility.yul\":17432:17534   */\n      swap2\n      pop\n        /* \"#utility.yul\":17544:17619   */\n      tag_462\n        /* \"#utility.yul\":17615:17618   */\n      dup3\n        /* \"#utility.yul\":17606:17612   */\n      dup6\n        /* \"#utility.yul\":17544:17619   */\n      tag_272\n      jump\t// in\n    tag_462:\n        /* \"#utility.yul\":17644:17646   */\n      0x20\n        /* \"#utility.yul\":17639:17642   */\n      dup3\n        /* \"#utility.yul\":17635:17647   */\n      add\n        /* \"#utility.yul\":17628:17647   */\n      swap2\n      pop\n        /* \"#utility.yul\":17657:17732   */\n      tag_463\n        /* \"#utility.yul\":17728:17731   */\n      dup3\n        /* \"#utility.yul\":17719:17725   */\n      dup5\n        /* \"#utility.yul\":17657:17732   */\n      tag_276\n      jump\t// in\n    tag_463:\n        /* \"#utility.yul\":17757:17759   */\n      0x14\n        /* \"#utility.yul\":17752:17755   */\n      dup3\n        /* \"#utility.yul\":17748:17760   */\n      add\n        /* \"#utility.yul\":17741:17760   */\n      swap2\n      pop\n        /* \"#utility.yul\":17777:17780   */\n      dup2\n        /* \"#utility.yul\":17770:17780   */\n      swap1\n      pop\n        /* \"#utility.yul\":17229:17786   */\n      swap5\n      swap4\n      pop\n      pop\n      pop\n      pop\n      jump\t// out\n        /* \"#utility.yul\":17792:17972   */\n    tag_277:\n        /* \"#utility.yul\":17840:17917   */\n      0x4e487b7100000000000000000000000000000000000000000000000000000000\n        /* \"#utility.yul\":17837:17838   */\n      0x00\n        /* \"#utility.yul\":17830:17918   */\n      mstore\n        /* \"#utility.yul\":17937:17941   */\n      0x12\n        /* \"#utility.yul\":17934:17935   */\n      0x04\n        /* \"#utility.yul\":17927:17942   */\n      mstore\n        /* \"#utility.yul\":17961:17965   */\n      0x24\n        /* \"#utility.yul\":17958:17959   */\n      0x00\n        /* \"#utility.yul\":17951:17966   */\n      revert\n        /* \"#utility.yul\":17978:18154   */\n    tag_105:\n        /* \"#utility.yul\":18010:18011   */\n      0x00\n        /* \"#utility.yul\":18027:18047   */\n      tag_466\n        /* \"#utility.yul\":18045:18046   */\n      dup3\n        /* \"#utility.yul\":18027:18047   */\n      tag_232\n      jump\t// in\n    tag_466:\n        /* \"#utility.yul\":18022:18047   */\n      swap2\n      pop\n        /* \"#utility.yul\":18061:18081   */\n      tag_467\n        /* \"#utility.yul\":18079:18080   */\n      dup4\n        /* \"#utility.yul\":18061:18081   */\n      tag_232\n      jump\t// in\n    tag_467:\n        /* \"#utility.yul\":18056:18081   */\n      swap3\n      pop\n        /* \"#utility.yul\":18100:18101   */\n      dup3\n        /* \"#utility.yul\":18090:18125   */\n      tag_468\n      jumpi\n        /* \"#utility.yul\":18105:18123   */\n      tag_469\n      tag_277\n      jump\t// in\n    tag_469:\n        /* \"#utility.yul\":18090:18125   */\n    tag_468:\n        /* \"#utility.yul\":18146:18147   */\n      dup3\n        /* \"#utility.yul\":18143:18144   */\n      dup3\n        /* \"#utility.yul\":18139:18148   */\n      mod\n        /* \"#utility.yul\":18134:18148   */\n      swap1\n      pop\n        /* \"#utility.yul\":17978:18154   */\n      swap3\n      swap2\n      pop\n      pop\n      jump\t// out\n        /* \"#utility.yul\":18160:18340   */\n    tag_278:\n        /* \"#utility.yul\":18208:18285   */\n      0x4e487b7100000000000000000000000000000000000000000000000000000000\n        /* \"#utility.yul\":18205:18206   */\n      0x00\n        /* \"#utility.yul\":18198:18286   */\n      mstore\n        /* \"#utility.yul\":18305:18309   */\n      0x22\n        /* \"#utility.yul\":18302:18303   */\n      0x04\n        /* \"#utility.yul\":18295:18310   */\n      mstore\n        /* \"#utility.yul\":18329:18333   */\n      0x24\n        /* \"#utility.yul\":18326:18327   */\n      0x00\n        /* \"#utility.yul\":18319:18334   */\n      revert\n        /* \"#utility.yul\":18346:18666   */\n    tag_112:\n        /* \"#utility.yul\":18390:18396   */\n      0x00\n        /* \"#utility.yul\":18427:18428   */\n      0x02\n        /* \"#utility.yul\":18421:18425   */\n      dup3\n        /* \"#utility.yul\":18417:18429   */\n      div\n        /* \"#utility.yul\":18407:18429   */\n      swap1\n      pop\n        /* \"#utility.yul\":18474:18475   */\n      0x01\n        /* \"#utility.yul\":18468:18472   */\n      dup3\n        /* \"#utility.yul\":18464:18476   */\n      and\n        /* \"#utility.yul\":18495:18513   */\n      dup1\n        /* \"#utility.yul\":18485:18566   */\n      tag_472\n      jumpi\n        /* \"#utility.yul\":18551:18555   */\n      0x7f\n        /* \"#utility.yul\":18543:18549   */\n      dup3\n        /* \"#utility.yul\":18539:18556   */\n      and\n        /* \"#utility.yul\":18529:18556   */\n      swap2\n      pop\n        /* \"#utility.yul\":18485:18566   */\n    tag_472:\n        /* \"#utility.yul\":18613:18615   */\n      0x20\n        /* \"#utility.yul\":18605:18611   */\n      dup3\n        /* \"#utility.yul\":18602:18616   */\n      lt\n        /* \"#utility.yul\":18582:18600   */\n      dup2\n        /* \"#utility.yul\":18579:18617   */\n      sub\n        /* \"#utility.yul\":18576:18660   */\n      tag_473\n      jumpi\n        /* \"#utility.yul\":18632:18650   */\n      tag_474\n      tag_278\n      jump\t// in\n    tag_474:\n        /* \"#utility.yul\":18576:18660   */\n    tag_473:\n        /* \"#utility.yul\":18397:18666   */\n      pop\n        /* \"#utility.yul\":18346:18666   */\n      swap2\n      swap1\n      pop\n      jump\t// out\n        /* \"#utility.yul\":18672:18897   */\n    tag_279:\n        /* \"#utility.yul\":18812:18846   */\n      0x4f776e61626c653a206e6577206f776e657220697320746865207a65726f2061\n        /* \"#utility.yul\":18808:18809   */\n      0x00\n        /* \"#utility.yul\":18800:18806   */\n      dup3\n        /* \"#utility.yul\":18796:18810   */\n      add\n        /* \"#utility.yul\":18789:18847   */\n      mstore\n        /* \"#utility.yul\":18881:18889   */\n      0x6464726573730000000000000000000000000000000000000000000000000000\n        /* \"#utility.yul\":18876:18878   */\n      0x20\n        /* \"#utility.yul\":18868:18874   */\n      dup3\n        /* \"#utility.yul\":18864:18879   */\n      add\n        /* \"#utility.yul\":18857:18890   */\n      mstore\n        /* \"#utility.yul\":18672:18897   */\n      pop\n      jump\t// out\n        /* \"#utility.yul\":18903:19269   */\n    tag_280:\n        /* \"#utility.yul\":19045:19048   */\n      0x00\n        /* \"#utility.yul\":19066:19133   */\n      tag_477\n        /* \"#utility.yul\":19130:19132   */\n      0x26\n        /* \"#utility.yul\":19125:19128   */\n      dup4\n        /* \"#utility.yul\":19066:19133   */\n      tag_265\n      jump\t// in\n    tag_477:\n        /* \"#utility.yul\":19059:19133   */\n      swap2\n      pop\n        /* \"#utility.yul\":19142:19235   */\n      tag_478\n        /* \"#utility.yul\":19231:19234   */\n      dup3\n        /* \"#utility.yul\":19142:19235   */\n      tag_279\n      jump\t// in\n    tag_478:\n        /* \"#utility.yul\":19260:19262   */\n      0x40\n        /* \"#utility.yul\":19255:19258   */\n      dup3\n        /* \"#utility.yul\":19251:19263   */\n      add\n        /* \"#utility.yul\":19244:19263   */\n      swap1\n      pop\n        /* \"#utility.yul\":18903:19269   */\n      swap2\n      swap1\n      pop\n      jump\t// out\n        /* \"#utility.yul\":19275:19694   */\n    tag_195:\n        /* \"#utility.yul\":19441:19445   */\n      0x00\n        /* \"#utility.yul\":19479:19481   */\n      0x20\n        /* \"#utility.yul\":19468:19477   */\n      dup3\n        /* \"#utility.yul\":19464:19482   */\n      add\n        /* \"#utility.yul\":19456:19482   */\n      swap1\n      pop\n        /* \"#utility.yul\":19528:19537   */\n      dup2\n        /* \"#utility.yul\":19522:19526   */\n      dup2\n        /* \"#utility.yul\":19518:19538   */\n      sub\n        /* \"#utility.yul\":19514:19515   */\n      0x00\n        /* \"#utility.yul\":19503:19512   */\n      dup4\n        /* \"#utility.yul\":19499:19516   */\n      add\n        /* \"#utility.yul\":19492:19539   */\n      mstore\n        /* \"#utility.yul\":19556:19687   */\n      tag_480\n        /* \"#utility.yul\":19682:19686   */\n      dup2\n        /* \"#utility.yul\":19556:19687   */\n      tag_280\n      jump\t// in\n    tag_480:\n        /* \"#utility.yul\":19548:19687   */\n      swap1\n      pop\n        /* \"#utility.yul\":19275:19694   */\n      swap2\n      swap1\n      pop\n      jump\t// out\n        /* \"#utility.yul\":19700:19891   */\n    tag_216:\n        /* \"#utility.yul\":19740:19744   */\n      0x00\n        /* \"#utility.yul\":19760:19780   */\n      tag_482\n        /* \"#utility.yul\":19778:19779   */\n      dup3\n        /* \"#utility.yul\":19760:19780   */\n      tag_232\n      jump\t// in\n    tag_482:\n        /* \"#utility.yul\":19755:19780   */\n      swap2\n      pop\n        /* \"#utility.yul\":19794:19814   */\n      tag_483\n        /* \"#utility.yul\":19812:19813   */\n      dup4\n        /* \"#utility.yul\":19794:19814   */\n      tag_232\n      jump\t// in\n    tag_483:\n        /* \"#utility.yul\":19789:19814   */\n      swap3\n      pop\n        /* \"#utility.yul\":19833:19834   */\n      dup3\n        /* \"#utility.yul\":19830:19831   */\n      dup3\n        /* \"#utility.yul\":19827:19835   */\n      lt\n        /* \"#utility.yul\":19824:19858   */\n      iszero\n      tag_484\n      jumpi\n        /* \"#utility.yul\":19838:19856   */\n      tag_485\n      tag_268\n      jump\t// in\n    tag_485:\n        /* \"#utility.yul\":19824:19858   */\n    tag_484:\n        /* \"#utility.yul\":19883:19884   */\n      dup3\n        /* \"#utility.yul\":19880:19881   */\n      dup3\n        /* \"#utility.yul\":19876:19885   */\n      sub\n        /* \"#utility.yul\":19868:19885   */\n      swap1\n      pop\n        /* \"#utility.yul\":19700:19891   */\n      swap3\n      swap2\n      pop\n      pop\n      jump\t// out\n        /* \"#utility.yul\":19897:20261   */\n    tag_281:\n        /* \"#utility.yul\":19985:19988   */\n      0x00\n        /* \"#utility.yul\":20013:20052   */\n      tag_487\n        /* \"#utility.yul\":20046:20051   */\n      dup3\n        /* \"#utility.yul\":20013:20052   */\n      tag_252\n      jump\t// in\n    tag_487:\n        /* \"#utility.yul\":20068:20139   */\n      tag_488\n        /* \"#utility.yul\":20132:20138   */\n      dup2\n        /* \"#utility.yul\":20127:20130   */\n      dup6\n        /* \"#utility.yul\":20068:20139   */\n      tag_265\n      jump\t// in\n    tag_488:\n        /* \"#utility.yul\":20061:20139   */\n      swap4\n      pop\n        /* \"#utility.yul\":20148:20200   */\n      tag_489\n        /* \"#utility.yul\":20193:20199   */\n      dup2\n        /* \"#utility.yul\":20188:20191   */\n      dup6\n        /* \"#utility.yul\":20181:20185   */\n      0x20\n        /* \"#utility.yul\":20174:20179   */\n      dup7\n        /* \"#utility.yul\":20170:20186   */\n      add\n        /* \"#utility.yul\":20148:20200   */\n      tag_254\n      jump\t// in\n    tag_489:\n        /* \"#utility.yul\":20225:20254   */\n      tag_490\n        /* \"#utility.yul\":20247:20253   */\n      dup2\n        /* \"#utility.yul\":20225:20254   */\n      tag_244\n      jump\t// in\n    tag_490:\n        /* \"#utility.yul\":20220:20223   */\n      dup5\n        /* \"#utility.yul\":20216:20255   */\n      add\n        /* \"#utility.yul\":20209:20255   */\n      swap2\n      pop\n        /* \"#utility.yul\":19989:20261   */\n      pop\n        /* \"#utility.yul\":19897:20261   */\n      swap3\n      swap2\n      pop\n      pop\n      jump\t// out\n        /* \"#utility.yul\":20267:20682   */\n    tag_218:\n        /* \"#utility.yul\":20404:20408   */\n      0x00\n        /* \"#utility.yul\":20442:20444   */\n      0x40\n        /* \"#utility.yul\":20431:20440   */\n      dup3\n        /* \"#utility.yul\":20427:20445   */\n      add\n        /* \"#utility.yul\":20419:20445   */\n      swap1\n      pop\n        /* \"#utility.yul\":20491:20500   */\n      dup2\n        /* \"#utility.yul\":20485:20489   */\n      dup2\n        /* \"#utility.yul\":20481:20501   */\n      sub\n        /* \"#utility.yul\":20477:20478   */\n      0x00\n        /* \"#utility.yul\":20466:20475   */\n      dup4\n        /* \"#utility.yul\":20462:20479   */\n      add\n        /* \"#utility.yul\":20455:20502   */\n      mstore\n        /* \"#utility.yul\":20519:20597   */\n      tag_492\n        /* \"#utility.yul\":20592:20596   */\n      dup2\n        /* \"#utility.yul\":20583:20589   */\n      dup6\n        /* \"#utility.yul\":20519:20597   */\n      tag_281\n      jump\t// in\n    tag_492:\n        /* \"#utility.yul\":20511:20597   */\n      swap1\n      pop\n        /* \"#utility.yul\":20607:20675   */\n      tag_493\n        /* \"#utility.yul\":20671:20673   */\n      0x20\n        /* \"#utility.yul\":20660:20669   */\n      dup4\n        /* \"#utility.yul\":20656:20674   */\n      add\n        /* \"#utility.yul\":20647:20653   */\n      dup5\n        /* \"#utility.yul\":20607:20675   */\n      tag_262\n      jump\t// in\n    tag_493:\n        /* \"#utility.yul\":20267:20682   */\n      swap4\n      swap3\n      pop\n      pop\n      pop\n      jump\t// out\n\n    auxdata: 0xa26469706673582212201d2087a27f643b78dba8c2cf9c5bb1835cec019a3b017d4b06afa77ec3d3da0764736f6c634300080e0033\n}\n",
				"bytecode": {
					"linkReferences": {},
					"object": "608060405234801561001057600080fd5b5061002d61002261003260201b60201c565b61003a60201b60201c565b6100fe565b600033905090565b60008060009054906101000a900473ffffffffffffffffffffffffffffffffffffffff169050816000806101000a81548173ffffffffffffffffffffffffffffffffffffffff021916908373ffffffffffffffffffffffffffffffffffffffff1602179055508173ffffffffffffffffffffffffffffffffffffffff168173ffffffffffffffffffffffffffffffffffffffff167f8be0079c531659141344cd1fd0a4f28419497f9722a3daafe3b4186f6b6457e060405160405180910390a35050565b611faa8061010d6000396000f3fe60806040526004361061009c5760003560e01c8063728b0d8711610064578063728b0d87146101845780638da5cb5b146101c15780639a2dc409146101ec578063b9360cf114610208578063f2fde38b14610246578063fbb3b6ce1461026f5761009c565b80631d3f7559146100a1578063377def85146100ca578063400ae0f9146100f357806351a1d40e14610130578063715018a61461016d575b600080fd5b3480156100ad57600080fd5b506100c860048036038101906100c3919061149e565b610298565b005b3480156100d657600080fd5b506100f160048036038101906100ec919061149e565b610343565b005b3480156100ff57600080fd5b5061011a600480360381019061011591906114de565b6103df565b604051610127919061154c565b60405180910390f35b34801561013c57600080fd5b50610157600480360381019061015291906114de565b610412565b6040516101649190611576565b60405180910390f35b34801561017957600080fd5b50610182610432565b005b34801561019057600080fd5b506101ab60048036038101906101a691906116d7565b6104ba565b6040516101b891906118bb565b60405180910390f35b3480156101cd57600080fd5b506101d661097d565b6040516101e3919061154c565b60405180910390f35b61020660048036038101906102019190611909565b6109a6565b005b34801561021457600080fd5b5061022f600480360381019061022a91906114de565b6109f4565b60405161023d929190611a9f565b60405180910390f35b34801561025257600080fd5b5061026d60048036038101906102689190611afb565b610e63565b005b34801561027b57600080fd5b5061029660048036038101906102919190611b28565b610f5a565b005b6102a0611005565b73ffffffffffffffffffffffffffffffffffffffff166102be61097d565b73ffffffffffffffffffffffffffffffffffffffff1614610314576040517f08c379a000000000000000000000000000000000000000000000000000000000815260040161030b90611be1565b60405180910390fd5b806002600084815260200190815260200160002060006101000a81548160ff0219169083151502179055505050565b813373ffffffffffffffffffffffffffffffffffffffff166004600083815260200190815260200160002060009054906101000a900473ffffffffffffffffffffffffffffffffffffffff1673ffffffffffffffffffffffffffffffffffffffff16146103af57600080fd5b816002600085815260200190815260200160002060006101000a81548160ff021916908315150217905550505050565b60046020528060005260406000206000915054906101000a900473ffffffffffffffffffffffffffffffffffffffff1681565b60026020528060005260406000206000915054906101000a900460ff1681565b61043a611005565b73ffffffffffffffffffffffffffffffffffffffff1661045861097d565b73ffffffffffffffffffffffffffffffffffffffff16146104ae576040517f08c379a00000000000000000000000000000000000000000000000000000000081526004016104a590611be1565b60405180910390fd5b6104b8600061100d565b565b6104c261132a565b60606000805b60018054905081101561054357600115156002600083815260200190815260200160002060009054906101000a900460ff16151503610530578083838151811061051557610514611c01565b5b602002602001018181525050818061052c90611c5f565b9250505b808061053b90611c5f565b9150506104c8565b506000825185423360405160200161055d93929190611d4c565b6040516020818303038152906040528051906020012060001c6105809190611db4565b9050600083828151811061059757610596611c01565b5b602002602001015190506000600182815481106105b7576105b6611c01565b5b9060005260206000209060090201604051806101200160405290816000820180546105e190611e14565b80601f016020809104026020016040519081016040528092919081815260200182805461060d90611e14565b801561065a5780601f1061062f5761010080835404028352916020019161065a565b820191906000526020600020905b81548152906001019060200180831161063d57829003601f168201915b5050505050815260200160018201805461067390611e14565b80601f016020809104026020016040519081016040528092919081815260200182805461069f90611e14565b80156106ec5780601f106106c1576101008083540402835291602001916106ec565b820191906000526020600020905b8154815290600101906020018083116106cf57829003601f168201915b5050505050815260200160028201805461070590611e14565b80601f016020809104026020016040519081016040528092919081815260200182805461073190611e14565b801561077e5780601f106107535761010080835404028352916020019161077e565b820191906000526020600020905b81548152906001019060200180831161076157829003601f168201915b5050505050815260200160038201805461079790611e14565b80601f01602080910402602001604051908101604052809291908181526020018280546107c390611e14565b80156108105780601f106107e557610100808354040283529160200191610810565b820191906000526020600020905b8154815290600101906020018083116107f357829003601f168201915b5050505050815260200160048201805461082990611e14565b80601f016020809104026020016040519081016040528092919081815260200182805461085590611e14565b80156108a25780601f10610877576101008083540402835291602001916108a2565b820191906000526020600020905b81548152906001019060200180831161088557829003601f168201915b505050505081526020016005820180546108bb90611e14565b80601f01602080910402602001604051908101604052809291908181526020018280546108e790611e14565b80156109345780601f1061090957610100808354040283529160200191610934565b820191906000526020600020905b81548152906001019060200180831161091757829003601f168201915b505050505081526020016006820160009054906101000a900460ff1660ff1660ff1681526020016007820154815260200160088201548152505090508095505050505050919050565b60008060009054906101000a900473ffffffffffffffffffffffffffffffffffffffff16905090565b8034146109b257600080fd5b600082826109c09190611db4565b146109ca57600080fd5b8181116109d657600080fd5b6109e88a8a8a8a8a8a8a8a8a8a6110d1565b50505050505050505050565b6109fc61132a565b6000823373ffffffffffffffffffffffffffffffffffffffff166004600083815260200190815260200160002060009054906101000a900473ffffffffffffffffffffffffffffffffffffffff1673ffffffffffffffffffffffffffffffffffffffff1614610a6a57600080fd5b60018481548110610a7e57610a7d611c01565b5b90600052602060002090600902016003600086815260200190815260200160002060009054906101000a900460ff168160405180610120016040529081600082018054610aca90611e14565b80601f0160208091040260200160405190810160405280929190818152602001828054610af690611e14565b8015610b435780601f10610b1857610100808354040283529160200191610b43565b820191906000526020600020905b815481529060010190602001808311610b2657829003601f168201915b50505050508152602001600182018054610b5c90611e14565b80601f0160208091040260200160405190810160405280929190818152602001828054610b8890611e14565b8015610bd55780601f10610baa57610100808354040283529160200191610bd5565b820191906000526020600020905b815481529060010190602001808311610bb857829003601f168201915b50505050508152602001600282018054610bee90611e14565b80601f0160208091040260200160405190810160405280929190818152602001828054610c1a90611e14565b8015610c675780601f10610c3c57610100808354040283529160200191610c67565b820191906000526020600020905b815481529060010190602001808311610c4a57829003601f168201915b50505050508152602001600382018054610c8090611e14565b80601f0160208091040260200160405190810160405280929190818152602001828054610cac90611e14565b8015610cf95780601f10610cce57610100808354040283529160200191610cf9565b820191906000526020600020905b815481529060010190602001808311610cdc57829003601f168201915b50505050508152602001600482018054610d1290611e14565b80601f0160208091040260200160405190810160405280929190818152602001828054610d3e90611e14565b8015610d8b5780601f10610d6057610100808354040283529160200191610d8b565b820191906000526020600020905b815481529060010190602001808311610d6e57829003601f168201915b50505050508152602001600582018054610da490611e14565b80601f0160208091040260200160405190810160405280929190818152602001828054610dd090611e14565b8015610e1d5780601f10610df257610100808354040283529160200191610e1d565b820191906000526020600020905b815481529060010190602001808311610e0057829003601f168201915b505050505081526020016006820160009054906101000a900460ff1660ff1660ff1681526020016007820154815260200160088201548152505091509250925050915091565b610e6b611005565b73ffffffffffffffffffffffffffffffffffffffff16610e8961097d565b73ffffffffffffffffffffffffffffffffffffffff1614610edf576040517f08c379a0000000000000000000000000000000000000000000000000000000008152600401610ed690611be1565b60405180910390fd5b600073ffffffffffffffffffffffffffffffffffffffff168173ffffffffffffffffffffffffffffffffffffffff1603610f4e576040517f08c379a0000000000000000000000000000000000000000000000000000000008152600401610f4590611eb7565b60405180910390fd5b610f578161100d565b50565b813373ffffffffffffffffffffffffffffffffffffffff166004600083815260200190815260200160002060009054906101000a900473ffffffffffffffffffffffffffffffffffffffff1673ffffffffffffffffffffffffffffffffffffffff1614610fc657600080fd5b8160018481548110610fdb57610fda611c01565b5b90600052602060002090600902016005019080519060200190610fff929190611379565b50505050565b600033905090565b60008060009054906101000a900473ffffffffffffffffffffffffffffffffffffffff169050816000806101000a81548173ffffffffffffffffffffffffffffffffffffffff021916908373ffffffffffffffffffffffffffffffffffffffff1602179055508173ffffffffffffffffffffffffffffffffffffffff168173ffffffffffffffffffffffffffffffffffffffff167f8be0079c531659141344cd1fd0a4f28419497f9722a3daafe3b4186f6b6457e060405160405180910390a35050565b60016040518061012001604052808c81526020018b81526020018a81526020018981526020018881526020018781526020018560ff168152602001848152602001838152509080600181540180825580915050600190039060005260206000209060090201600090919091909150600082015181600001908051906020019061115b929190611379565b506020820151816001019080519060200190611178929190611379565b506040820151816002019080519060200190611195929190611379565b5060608201518160030190805190602001906111b2929190611379565b5060808201518160040190805190602001906111cf929190611379565b5060a08201518160050190805190602001906111ec929190611379565b5060c08201518160060160006101000a81548160ff021916908360ff16021790555060e08201518160070155610100820151816008015550506000600180805490506112389190611ed7565b9050846003600083815260200190815260200160002060006101000a81548160ff021916908360ff160217905550336004600083815260200190815260200160002060006101000a81548173ffffffffffffffffffffffffffffffffffffffff021916908373ffffffffffffffffffffffffffffffffffffffff16021790555060016002600083815260200190815260200160002060006101000a81548160ff0219169083151502179055507f545dca5d847b655a9f03cdf5619f53f0b2546051fd0d015b18c09ae2a8b1a7658b86604051611315929190611f44565b60405180910390a15050505050505050505050565b604051806101200160405280606081526020016060815260200160608152602001606081526020016060815260200160608152602001600060ff16815260200160008152602001600081525090565b82805461138590611e14565b90600052602060002090601f0160209004810192826113a757600085556113ee565b82601f106113c057805160ff19168380011785556113ee565b828001600101855582156113ee579182015b828111156113ed5782518255916020019190600101906113d2565b5b5090506113fb91906113ff565b5090565b5b80821115611418576000816000905550600101611400565b5090565b6000604051905090565b600080fd5b600080fd5b6000819050919050565b61144381611430565b811461144e57600080fd5b50565b6000813590506114608161143a565b92915050565b60008115159050919050565b61147b81611466565b811461148657600080fd5b50565b60008135905061149881611472565b92915050565b600080604083850312156114b5576114b4611426565b5b60006114c385828601611451565b92505060206114d485828601611489565b9150509250929050565b6000602082840312156114f4576114f3611426565b5b600061150284828501611451565b91505092915050565b600073ffffffffffffffffffffffffffffffffffffffff82169050919050565b60006115368261150b565b9050919050565b6115468161152b565b82525050565b6000602082019050611561600083018461153d565b92915050565b61157081611466565b82525050565b600060208201905061158b6000830184611567565b92915050565b600080fd5b600080fd5b6000601f19601f8301169050919050565b7f4e487b7100000000000000000000000000000000000000000000000000000000600052604160045260246000fd5b6115e48261159b565b810181811067ffffffffffffffff82111715611603576116026115ac565b5b80604052505050565b600061161661141c565b905061162282826115db565b919050565b600067ffffffffffffffff821115611642576116416115ac565b5b61164b8261159b565b9050602081019050919050565b82818337600083830152505050565b600061167a61167584611627565b61160c565b90508281526020810184848401111561169657611695611596565b5b6116a1848285611658565b509392505050565b600082601f8301126116be576116bd611591565b5b81356116ce848260208601611667565b91505092915050565b6000602082840312156116ed576116ec611426565b5b600082013567ffffffffffffffff81111561170b5761170a61142b565b5b611717848285016116a9565b91505092915050565b600081519050919050565b600082825260208201905092915050565b60005b8381101561175a57808201518184015260208101905061173f565b83811115611769576000848401525b50505050565b600061177a82611720565b611784818561172b565b935061179481856020860161173c565b61179d8161159b565b840191505092915050565b600060ff82169050919050565b6117be816117a8565b82525050565b6117cd81611430565b82525050565b60006101208301600083015184820360008601526117f1828261176f565b9150506020830151848203602086015261180b828261176f565b91505060408301518482036040860152611825828261176f565b9150506060830151848203606086015261183f828261176f565b91505060808301518482036080860152611859828261176f565b91505060a083015184820360a0860152611873828261176f565b91505060c083015161188860c08601826117b5565b5060e083015161189b60e08601826117c4565b506101008301516118b06101008601826117c4565b508091505092915050565b600060208201905081810360008301526118d581846117d3565b905092915050565b6118e6816117a8565b81146118f157600080fd5b50565b600081359050611903816118dd565b92915050565b6000806000806000806000806000806101408b8d03121561192d5761192c611426565b5b60008b013567ffffffffffffffff81111561194b5761194a61142b565b5b6119578d828e016116a9565b9a505060208b013567ffffffffffffffff8111156119785761197761142b565b5b6119848d828e016116a9565b99505060408b013567ffffffffffffffff8111156119a5576119a461142b565b5b6119b18d828e016116a9565b98505060608b013567ffffffffffffffff8111156119d2576119d161142b565b5b6119de8d828e016116a9565b97505060808b013567ffffffffffffffff8111156119ff576119fe61142b565b5b611a0b8d828e016116a9565b96505060a08b013567ffffffffffffffff811115611a2c57611a2b61142b565b5b611a388d828e016116a9565b95505060c0611a498d828e016118f4565b94505060e0611a5a8d828e016118f4565b935050610100611a6c8d828e01611451565b925050610120611a7e8d828e01611451565b9150509295989b9194979a5092959850565b611a99816117a8565b82525050565b60006040820190508181036000830152611ab981856117d3565b9050611ac86020830184611a90565b9392505050565b611ad88161152b565b8114611ae357600080fd5b50565b600081359050611af581611acf565b92915050565b600060208284031215611b1157611b10611426565b5b6000611b1f84828501611ae6565b91505092915050565b60008060408385031215611b3f57611b3e611426565b5b6000611b4d85828601611451565b925050602083013567ffffffffffffffff811115611b6e57611b6d61142b565b5b611b7a858286016116a9565b9150509250929050565b600082825260208201905092915050565b7f4f776e61626c653a2063616c6c6572206973206e6f7420746865206f776e6572600082015250565b6000611bcb602083611b84565b9150611bd682611b95565b602082019050919050565b60006020820190508181036000830152611bfa81611bbe565b9050919050565b7f4e487b7100000000000000000000000000000000000000000000000000000000600052603260045260246000fd5b7f4e487b7100000000000000000000000000000000000000000000000000000000600052601160045260246000fd5b6000611c6a82611430565b91507fffffffffffffffffffffffffffffffffffffffffffffffffffffffffffffffff8203611c9c57611c9b611c30565b5b600182019050919050565b600081905092915050565b6000611cbd82611720565b611cc78185611ca7565b9350611cd781856020860161173c565b80840191505092915050565b6000819050919050565b611cfe611cf982611430565b611ce3565b82525050565b60008160601b9050919050565b6000611d1c82611d04565b9050919050565b6000611d2e82611d11565b9050919050565b611d46611d418261152b565b611d23565b82525050565b6000611d588286611cb2565b9150611d648285611ced565b602082019150611d748284611d35565b601482019150819050949350505050565b7f4e487b7100000000000000000000000000000000000000000000000000000000600052601260045260246000fd5b6000611dbf82611430565b9150611dca83611430565b925082611dda57611dd9611d85565b5b828206905092915050565b7f4e487b7100000000000000000000000000000000000000000000000000000000600052602260045260246000fd5b60006002820490506001821680611e2c57607f821691505b602082108103611e3f57611e3e611de5565b5b50919050565b7f4f776e61626c653a206e6577206f776e657220697320746865207a65726f206160008201527f6464726573730000000000000000000000000000000000000000000000000000602082015250565b6000611ea1602683611b84565b9150611eac82611e45565b604082019050919050565b60006020820190508181036000830152611ed081611e94565b9050919050565b6000611ee282611430565b9150611eed83611430565b925082821015611f0057611eff611c30565b5b828203905092915050565b6000611f1682611720565b611f208185611b84565b9350611f3081856020860161173c565b611f398161159b565b840191505092915050565b60006040820190508181036000830152611f5e8185611f0b565b9050611f6d6020830184611a90565b939250505056fea26469706673582212201d2087a27f643b78dba8c2cf9c5bb1835cec019a3b017d4b06afa77ec3d3da0764736f6c634300080e0033",
					"opcodes": "PUSH1 0x80 PUSH1 0x40 MSTORE CALLVALUE DUP1 ISZERO PUSH2 0x10 JUMPI PUSH1 0x0 DUP1 REVERT JUMPDEST POP PUSH2 0x2D PUSH2 0x22 PUSH2 0x32 PUSH1 0x20 SHL PUSH1 0x20 SHR JUMP JUMPDEST PUSH2 0x3A PUSH1 0x20 SHL PUSH1 0x20 SHR JUMP JUMPDEST PUSH2 0xFE JUMP JUMPDEST PUSH1 0x0 CALLER SWAP1 POP SWAP1 JUMP JUMPDEST PUSH1 0x0 DUP1 PUSH1 0x0 SWAP1 SLOAD SWAP1 PUSH2 0x100 EXP SWAP1 DIV PUSH20 0xFFFFFFFFFFFFFFFFFFFFFFFFFFFFFFFFFFFFFFFF AND SWAP1 POP DUP2 PUSH1 0x0 DUP1 PUSH2 0x100 EXP DUP2 SLOAD DUP2 PUSH20 0xFFFFFFFFFFFFFFFFFFFFFFFFFFFFFFFFFFFFFFFF MUL NOT AND SWAP1 DUP4 PUSH20 0xFFFFFFFFFFFFFFFFFFFFFFFFFFFFFFFFFFFFFFFF AND MUL OR SWAP1 SSTORE POP DUP2 PUSH20 0xFFFFFFFFFFFFFFFFFFFFFFFFFFFFFFFFFFFFFFFF AND DUP2 PUSH20 0xFFFFFFFFFFFFFFFFFFFFFFFFFFFFFFFFFFFFFFFF AND PUSH32 0x8BE0079C531659141344CD1FD0A4F28419497F9722A3DAAFE3B4186F6B6457E0 PUSH1 0x40 MLOAD PUSH1 0x40 MLOAD DUP1 SWAP2 SUB SWAP1 LOG3 POP POP JUMP JUMPDEST PUSH2 0x1FAA DUP1 PUSH2 0x10D PUSH1 0x0 CODECOPY PUSH1 0x0 RETURN INVALID PUSH1 0x80 PUSH1 0x40 MSTORE PUSH1 0x4 CALLDATASIZE LT PUSH2 0x9C JUMPI PUSH1 0x0 CALLDATALOAD PUSH1 0xE0 SHR DUP1 PUSH4 0x728B0D87 GT PUSH2 0x64 JUMPI DUP1 PUSH4 0x728B0D87 EQ PUSH2 0x184 JUMPI DUP1 PUSH4 0x8DA5CB5B EQ PUSH2 0x1C1 JUMPI DUP1 PUSH4 0x9A2DC409 EQ PUSH2 0x1EC JUMPI DUP1 PUSH4 0xB9360CF1 EQ PUSH2 0x208 JUMPI DUP1 PUSH4 0xF2FDE38B EQ PUSH2 0x246 JUMPI DUP1 PUSH4 0xFBB3B6CE EQ PUSH2 0x26F JUMPI PUSH2 0x9C JUMP JUMPDEST DUP1 PUSH4 0x1D3F7559 EQ PUSH2 0xA1 JUMPI DUP1 PUSH4 0x377DEF85 EQ PUSH2 0xCA JUMPI DUP1 PUSH4 0x400AE0F9 EQ PUSH2 0xF3 JUMPI DUP1 PUSH4 0x51A1D40E EQ PUSH2 0x130 JUMPI DUP1 PUSH4 0x715018A6 EQ PUSH2 0x16D JUMPI JUMPDEST PUSH1 0x0 DUP1 REVERT JUMPDEST CALLVALUE DUP1 ISZERO PUSH2 0xAD JUMPI PUSH1 0x0 DUP1 REVERT JUMPDEST POP PUSH2 0xC8 PUSH1 0x4 DUP1 CALLDATASIZE SUB DUP2 ADD SWAP1 PUSH2 0xC3 SWAP2 SWAP1 PUSH2 0x149E JUMP JUMPDEST PUSH2 0x298 JUMP JUMPDEST STOP JUMPDEST CALLVALUE DUP1 ISZERO PUSH2 0xD6 JUMPI PUSH1 0x0 DUP1 REVERT JUMPDEST POP PUSH2 0xF1 PUSH1 0x4 DUP1 CALLDATASIZE SUB DUP2 ADD SWAP1 PUSH2 0xEC SWAP2 SWAP1 PUSH2 0x149E JUMP JUMPDEST PUSH2 0x343 JUMP JUMPDEST STOP JUMPDEST CALLVALUE DUP1 ISZERO PUSH2 0xFF JUMPI PUSH1 0x0 DUP1 REVERT JUMPDEST POP PUSH2 0x11A PUSH1 0x4 DUP1 CALLDATASIZE SUB DUP2 ADD SWAP1 PUSH2 0x115 SWAP2 SWAP1 PUSH2 0x14DE JUMP JUMPDEST PUSH2 0x3DF JUMP JUMPDEST PUSH1 0x40 MLOAD PUSH2 0x127 SWAP2 SWAP1 PUSH2 0x154C JUMP JUMPDEST PUSH1 0x40 MLOAD DUP1 SWAP2 SUB SWAP1 RETURN JUMPDEST CALLVALUE DUP1 ISZERO PUSH2 0x13C JUMPI PUSH1 0x0 DUP1 REVERT JUMPDEST POP PUSH2 0x157 PUSH1 0x4 DUP1 CALLDATASIZE SUB DUP2 ADD SWAP1 PUSH2 0x152 SWAP2 SWAP1 PUSH2 0x14DE JUMP JUMPDEST PUSH2 0x412 JUMP JUMPDEST PUSH1 0x40 MLOAD PUSH2 0x164 SWAP2 SWAP1 PUSH2 0x1576 JUMP JUMPDEST PUSH1 0x40 MLOAD DUP1 SWAP2 SUB SWAP1 RETURN JUMPDEST CALLVALUE DUP1 ISZERO PUSH2 0x179 JUMPI PUSH1 0x0 DUP1 REVERT JUMPDEST POP PUSH2 0x182 PUSH2 0x432 JUMP JUMPDEST STOP JUMPDEST CALLVALUE DUP1 ISZERO PUSH2 0x190 JUMPI PUSH1 0x0 DUP1 REVERT JUMPDEST POP PUSH2 0x1AB PUSH1 0x4 DUP1 CALLDATASIZE SUB DUP2 ADD SWAP1 PUSH2 0x1A6 SWAP2 SWAP1 PUSH2 0x16D7 JUMP JUMPDEST PUSH2 0x4BA JUMP JUMPDEST PUSH1 0x40 MLOAD PUSH2 0x1B8 SWAP2 SWAP1 PUSH2 0x18BB JUMP JUMPDEST PUSH1 0x40 MLOAD DUP1 SWAP2 SUB SWAP1 RETURN JUMPDEST CALLVALUE DUP1 ISZERO PUSH2 0x1CD JUMPI PUSH1 0x0 DUP1 REVERT JUMPDEST POP PUSH2 0x1D6 PUSH2 0x97D JUMP JUMPDEST PUSH1 0x40 MLOAD PUSH2 0x1E3 SWAP2 SWAP1 PUSH2 0x154C JUMP JUMPDEST PUSH1 0x40 MLOAD DUP1 SWAP2 SUB SWAP1 RETURN JUMPDEST PUSH2 0x206 PUSH1 0x4 DUP1 CALLDATASIZE SUB DUP2 ADD SWAP1 PUSH2 0x201 SWAP2 SWAP1 PUSH2 0x1909 JUMP JUMPDEST PUSH2 0x9A6 JUMP JUMPDEST STOP JUMPDEST CALLVALUE DUP1 ISZERO PUSH2 0x214 JUMPI PUSH1 0x0 DUP1 REVERT JUMPDEST POP PUSH2 0x22F PUSH1 0x4 DUP1 CALLDATASIZE SUB DUP2 ADD SWAP1 PUSH2 0x22A SWAP2 SWAP1 PUSH2 0x14DE JUMP JUMPDEST PUSH2 0x9F4 JUMP JUMPDEST PUSH1 0x40 MLOAD PUSH2 0x23D SWAP3 SWAP2 SWAP1 PUSH2 0x1A9F JUMP JUMPDEST PUSH1 0x40 MLOAD DUP1 SWAP2 SUB SWAP1 RETURN JUMPDEST CALLVALUE DUP1 ISZERO PUSH2 0x252 JUMPI PUSH1 0x0 DUP1 REVERT JUMPDEST POP PUSH2 0x26D PUSH1 0x4 DUP1 CALLDATASIZE SUB DUP2 ADD SWAP1 PUSH2 0x268 SWAP2 SWAP1 PUSH2 0x1AFB JUMP JUMPDEST PUSH2 0xE63 JUMP JUMPDEST STOP JUMPDEST CALLVALUE DUP1 ISZERO PUSH2 0x27B JUMPI PUSH1 0x0 DUP1 REVERT JUMPDEST POP PUSH2 0x296 PUSH1 0x4 DUP1 CALLDATASIZE SUB DUP2 ADD SWAP1 PUSH2 0x291 SWAP2 SWAP1 PUSH2 0x1B28 JUMP JUMPDEST PUSH2 0xF5A JUMP JUMPDEST STOP JUMPDEST PUSH2 0x2A0 PUSH2 0x1005 JUMP JUMPDEST PUSH20 0xFFFFFFFFFFFFFFFFFFFFFFFFFFFFFFFFFFFFFFFF AND PUSH2 0x2BE PUSH2 0x97D JUMP JUMPDEST PUSH20 0xFFFFFFFFFFFFFFFFFFFFFFFFFFFFFFFFFFFFFFFF AND EQ PUSH2 0x314 JUMPI PUSH1 0x40 MLOAD PUSH32 0x8C379A000000000000000000000000000000000000000000000000000000000 DUP2 MSTORE PUSH1 0x4 ADD PUSH2 0x30B SWAP1 PUSH2 0x1BE1 JUMP JUMPDEST PUSH1 0x40 MLOAD DUP1 SWAP2 SUB SWAP1 REVERT JUMPDEST DUP1 PUSH1 0x2 PUSH1 0x0 DUP5 DUP2 MSTORE PUSH1 0x20 ADD SWAP1 DUP2 MSTORE PUSH1 0x20 ADD PUSH1 0x0 KECCAK256 PUSH1 0x0 PUSH2 0x100 EXP DUP2 SLOAD DUP2 PUSH1 0xFF MUL NOT AND SWAP1 DUP4 ISZERO ISZERO MUL OR SWAP1 SSTORE POP POP POP JUMP JUMPDEST DUP2 CALLER PUSH20 0xFFFFFFFFFFFFFFFFFFFFFFFFFFFFFFFFFFFFFFFF AND PUSH1 0x4 PUSH1 0x0 DUP4 DUP2 MSTORE PUSH1 0x20 ADD SWAP1 DUP2 MSTORE PUSH1 0x20 ADD PUSH1 0x0 KECCAK256 PUSH1 0x0 SWAP1 SLOAD SWAP1 PUSH2 0x100 EXP SWAP1 DIV PUSH20 0xFFFFFFFFFFFFFFFFFFFFFFFFFFFFFFFFFFFFFFFF AND PUSH20 0xFFFFFFFFFFFFFFFFFFFFFFFFFFFFFFFFFFFFFFFF AND EQ PUSH2 0x3AF JUMPI PUSH1 0x0 DUP1 REVERT JUMPDEST DUP2 PUSH1 0x2 PUSH1 0x0 DUP6 DUP2 MSTORE PUSH1 0x20 ADD SWAP1 DUP2 MSTORE PUSH1 0x20 ADD PUSH1 0x0 KECCAK256 PUSH1 0x0 PUSH2 0x100 EXP DUP2 SLOAD DUP2 PUSH1 0xFF MUL NOT AND SWAP1 DUP4 ISZERO ISZERO MUL OR SWAP1 SSTORE POP POP POP POP JUMP JUMPDEST PUSH1 0x4 PUSH1 0x20 MSTORE DUP1 PUSH1 0x0 MSTORE PUSH1 0x40 PUSH1 0x0 KECCAK256 PUSH1 0x0 SWAP2 POP SLOAD SWAP1 PUSH2 0x100 EXP SWAP1 DIV PUSH20 0xFFFFFFFFFFFFFFFFFFFFFFFFFFFFFFFFFFFFFFFF AND DUP2 JUMP JUMPDEST PUSH1 0x2 PUSH1 0x20 MSTORE DUP1 PUSH1 0x0 MSTORE PUSH1 0x40 PUSH1 0x0 KECCAK256 PUSH1 0x0 SWAP2 POP SLOAD SWAP1 PUSH2 0x100 EXP SWAP1 DIV PUSH1 0xFF AND DUP2 JUMP JUMPDEST PUSH2 0x43A PUSH2 0x1005 JUMP JUMPDEST PUSH20 0xFFFFFFFFFFFFFFFFFFFFFFFFFFFFFFFFFFFFFFFF AND PUSH2 0x458 PUSH2 0x97D JUMP JUMPDEST PUSH20 0xFFFFFFFFFFFFFFFFFFFFFFFFFFFFFFFFFFFFFFFF AND EQ PUSH2 0x4AE JUMPI PUSH1 0x40 MLOAD PUSH32 0x8C379A000000000000000000000000000000000000000000000000000000000 DUP2 MSTORE PUSH1 0x4 ADD PUSH2 0x4A5 SWAP1 PUSH2 0x1BE1 JUMP JUMPDEST PUSH1 0x40 MLOAD DUP1 SWAP2 SUB SWAP1 REVERT JUMPDEST PUSH2 0x4B8 PUSH1 0x0 PUSH2 0x100D JUMP JUMPDEST JUMP JUMPDEST PUSH2 0x4C2 PUSH2 0x132A JUMP JUMPDEST PUSH1 0x60 PUSH1 0x0 DUP1 JUMPDEST PUSH1 0x1 DUP1 SLOAD SWAP1 POP DUP2 LT ISZERO PUSH2 0x543 JUMPI PUSH1 0x1 ISZERO ISZERO PUSH1 0x2 PUSH1 0x0 DUP4 DUP2 MSTORE PUSH1 0x20 ADD SWAP1 DUP2 MSTORE PUSH1 0x20 ADD PUSH1 0x0 KECCAK256 PUSH1 0x0 SWAP1 SLOAD SWAP1 PUSH2 0x100 EXP SWAP1 DIV PUSH1 0xFF AND ISZERO ISZERO SUB PUSH2 0x530 JUMPI DUP1 DUP4 DUP4 DUP2 MLOAD DUP2 LT PUSH2 0x515 JUMPI PUSH2 0x514 PUSH2 0x1C01 JUMP JUMPDEST JUMPDEST PUSH1 0x20 MUL PUSH1 0x20 ADD ADD DUP2 DUP2 MSTORE POP POP DUP2 DUP1 PUSH2 0x52C SWAP1 PUSH2 0x1C5F JUMP JUMPDEST SWAP3 POP POP JUMPDEST DUP1 DUP1 PUSH2 0x53B SWAP1 PUSH2 0x1C5F JUMP JUMPDEST SWAP2 POP POP PUSH2 0x4C8 JUMP JUMPDEST POP PUSH1 0x0 DUP3 MLOAD DUP6 TIMESTAMP CALLER PUSH1 0x40 MLOAD PUSH1 0x20 ADD PUSH2 0x55D SWAP4 SWAP3 SWAP2 SWAP1 PUSH2 0x1D4C JUMP JUMPDEST PUSH1 0x40 MLOAD PUSH1 0x20 DUP2 DUP4 SUB SUB DUP2 MSTORE SWAP1 PUSH1 0x40 MSTORE DUP1 MLOAD SWAP1 PUSH1 0x20 ADD KECCAK256 PUSH1 0x0 SHR PUSH2 0x580 SWAP2 SWAP1 PUSH2 0x1DB4 JUMP JUMPDEST SWAP1 POP PUSH1 0x0 DUP4 DUP3 DUP2 MLOAD DUP2 LT PUSH2 0x597 JUMPI PUSH2 0x596 PUSH2 0x1C01 JUMP JUMPDEST JUMPDEST PUSH1 0x20 MUL PUSH1 0x20 ADD ADD MLOAD SWAP1 POP PUSH1 0x0 PUSH1 0x1 DUP3 DUP2 SLOAD DUP2 LT PUSH2 0x5B7 JUMPI PUSH2 0x5B6 PUSH2 0x1C01 JUMP JUMPDEST JUMPDEST SWAP1 PUSH1 0x0 MSTORE PUSH1 0x20 PUSH1 0x0 KECCAK256 SWAP1 PUSH1 0x9 MUL ADD PUSH1 0x40 MLOAD DUP1 PUSH2 0x120 ADD PUSH1 0x40 MSTORE SWAP1 DUP2 PUSH1 0x0 DUP3 ADD DUP1 SLOAD PUSH2 0x5E1 SWAP1 PUSH2 0x1E14 JUMP JUMPDEST DUP1 PUSH1 0x1F ADD PUSH1 0x20 DUP1 SWAP2 DIV MUL PUSH1 0x20 ADD PUSH1 0x40 MLOAD SWAP1 DUP2 ADD PUSH1 0x40 MSTORE DUP1 SWAP3 SWAP2 SWAP1 DUP2 DUP2 MSTORE PUSH1 0x20 ADD DUP3 DUP1 SLOAD PUSH2 0x60D SWAP1 PUSH2 0x1E14 JUMP JUMPDEST DUP1 ISZERO PUSH2 0x65A JUMPI DUP1 PUSH1 0x1F LT PUSH2 0x62F JUMPI PUSH2 0x100 DUP1 DUP4 SLOAD DIV MUL DUP4 MSTORE SWAP2 PUSH1 0x20 ADD SWAP2 PUSH2 0x65A JUMP JUMPDEST DUP3 ADD SWAP2 SWAP1 PUSH1 0x0 MSTORE PUSH1 0x20 PUSH1 0x0 KECCAK256 SWAP1 JUMPDEST DUP2 SLOAD DUP2 MSTORE SWAP1 PUSH1 0x1 ADD SWAP1 PUSH1 0x20 ADD DUP1 DUP4 GT PUSH2 0x63D JUMPI DUP3 SWAP1 SUB PUSH1 0x1F AND DUP3 ADD SWAP2 JUMPDEST POP POP POP POP POP DUP2 MSTORE PUSH1 0x20 ADD PUSH1 0x1 DUP3 ADD DUP1 SLOAD PUSH2 0x673 SWAP1 PUSH2 0x1E14 JUMP JUMPDEST DUP1 PUSH1 0x1F ADD PUSH1 0x20 DUP1 SWAP2 DIV MUL PUSH1 0x20 ADD PUSH1 0x40 MLOAD SWAP1 DUP2 ADD PUSH1 0x40 MSTORE DUP1 SWAP3 SWAP2 SWAP1 DUP2 DUP2 MSTORE PUSH1 0x20 ADD DUP3 DUP1 SLOAD PUSH2 0x69F SWAP1 PUSH2 0x1E14 JUMP JUMPDEST DUP1 ISZERO PUSH2 0x6EC JUMPI DUP1 PUSH1 0x1F LT PUSH2 0x6C1 JUMPI PUSH2 0x100 DUP1 DUP4 SLOAD DIV MUL DUP4 MSTORE SWAP2 PUSH1 0x20 ADD SWAP2 PUSH2 0x6EC JUMP JUMPDEST DUP3 ADD SWAP2 SWAP1 PUSH1 0x0 MSTORE PUSH1 0x20 PUSH1 0x0 KECCAK256 SWAP1 JUMPDEST DUP2 SLOAD DUP2 MSTORE SWAP1 PUSH1 0x1 ADD SWAP1 PUSH1 0x20 ADD DUP1 DUP4 GT PUSH2 0x6CF JUMPI DUP3 SWAP1 SUB PUSH1 0x1F AND DUP3 ADD SWAP2 JUMPDEST POP POP POP POP POP DUP2 MSTORE PUSH1 0x20 ADD PUSH1 0x2 DUP3 ADD DUP1 SLOAD PUSH2 0x705 SWAP1 PUSH2 0x1E14 JUMP JUMPDEST DUP1 PUSH1 0x1F ADD PUSH1 0x20 DUP1 SWAP2 DIV MUL PUSH1 0x20 ADD PUSH1 0x40 MLOAD SWAP1 DUP2 ADD PUSH1 0x40 MSTORE DUP1 SWAP3 SWAP2 SWAP1 DUP2 DUP2 MSTORE PUSH1 0x20 ADD DUP3 DUP1 SLOAD PUSH2 0x731 SWAP1 PUSH2 0x1E14 JUMP JUMPDEST DUP1 ISZERO PUSH2 0x77E JUMPI DUP1 PUSH1 0x1F LT PUSH2 0x753 JUMPI PUSH2 0x100 DUP1 DUP4 SLOAD DIV MUL DUP4 MSTORE SWAP2 PUSH1 0x20 ADD SWAP2 PUSH2 0x77E JUMP JUMPDEST DUP3 ADD SWAP2 SWAP1 PUSH1 0x0 MSTORE PUSH1 0x20 PUSH1 0x0 KECCAK256 SWAP1 JUMPDEST DUP2 SLOAD DUP2 MSTORE SWAP1 PUSH1 0x1 ADD SWAP1 PUSH1 0x20 ADD DUP1 DUP4 GT PUSH2 0x761 JUMPI DUP3 SWAP1 SUB PUSH1 0x1F AND DUP3 ADD SWAP2 JUMPDEST POP POP POP POP POP DUP2 MSTORE PUSH1 0x20 ADD PUSH1 0x3 DUP3 ADD DUP1 SLOAD PUSH2 0x797 SWAP1 PUSH2 0x1E14 JUMP JUMPDEST DUP1 PUSH1 0x1F ADD PUSH1 0x20 DUP1 SWAP2 DIV MUL PUSH1 0x20 ADD PUSH1 0x40 MLOAD SWAP1 DUP2 ADD PUSH1 0x40 MSTORE DUP1 SWAP3 SWAP2 SWAP1 DUP2 DUP2 MSTORE PUSH1 0x20 ADD DUP3 DUP1 SLOAD PUSH2 0x7C3 SWAP1 PUSH2 0x1E14 JUMP JUMPDEST DUP1 ISZERO PUSH2 0x810 JUMPI DUP1 PUSH1 0x1F LT PUSH2 0x7E5 JUMPI PUSH2 0x100 DUP1 DUP4 SLOAD DIV MUL DUP4 MSTORE SWAP2 PUSH1 0x20 ADD SWAP2 PUSH2 0x810 JUMP JUMPDEST DUP3 ADD SWAP2 SWAP1 PUSH1 0x0 MSTORE PUSH1 0x20 PUSH1 0x0 KECCAK256 SWAP1 JUMPDEST DUP2 SLOAD DUP2 MSTORE SWAP1 PUSH1 0x1 ADD SWAP1 PUSH1 0x20 ADD DUP1 DUP4 GT PUSH2 0x7F3 JUMPI DUP3 SWAP1 SUB PUSH1 0x1F AND DUP3 ADD SWAP2 JUMPDEST POP POP POP POP POP DUP2 MSTORE PUSH1 0x20 ADD PUSH1 0x4 DUP3 ADD DUP1 SLOAD PUSH2 0x829 SWAP1 PUSH2 0x1E14 JUMP JUMPDEST DUP1 PUSH1 0x1F ADD PUSH1 0x20 DUP1 SWAP2 DIV MUL PUSH1 0x20 ADD PUSH1 0x40 MLOAD SWAP1 DUP2 ADD PUSH1 0x40 MSTORE DUP1 SWAP3 SWAP2 SWAP1 DUP2 DUP2 MSTORE PUSH1 0x20 ADD DUP3 DUP1 SLOAD PUSH2 0x855 SWAP1 PUSH2 0x1E14 JUMP JUMPDEST DUP1 ISZERO PUSH2 0x8A2 JUMPI DUP1 PUSH1 0x1F LT PUSH2 0x877 JUMPI PUSH2 0x100 DUP1 DUP4 SLOAD DIV MUL DUP4 MSTORE SWAP2 PUSH1 0x20 ADD SWAP2 PUSH2 0x8A2 JUMP JUMPDEST DUP3 ADD SWAP2 SWAP1 PUSH1 0x0 MSTORE PUSH1 0x20 PUSH1 0x0 KECCAK256 SWAP1 JUMPDEST DUP2 SLOAD DUP2 MSTORE SWAP1 PUSH1 0x1 ADD SWAP1 PUSH1 0x20 ADD DUP1 DUP4 GT PUSH2 0x885 JUMPI DUP3 SWAP1 SUB PUSH1 0x1F AND DUP3 ADD SWAP2 JUMPDEST POP POP POP POP POP DUP2 MSTORE PUSH1 0x20 ADD PUSH1 0x5 DUP3 ADD DUP1 SLOAD PUSH2 0x8BB SWAP1 PUSH2 0x1E14 JUMP JUMPDEST DUP1 PUSH1 0x1F ADD PUSH1 0x20 DUP1 SWAP2 DIV MUL PUSH1 0x20 ADD PUSH1 0x40 MLOAD SWAP1 DUP2 ADD PUSH1 0x40 MSTORE DUP1 SWAP3 SWAP2 SWAP1 DUP2 DUP2 MSTORE PUSH1 0x20 ADD DUP3 DUP1 SLOAD PUSH2 0x8E7 SWAP1 PUSH2 0x1E14 JUMP JUMPDEST DUP1 ISZERO PUSH2 0x934 JUMPI DUP1 PUSH1 0x1F LT PUSH2 0x909 JUMPI PUSH2 0x100 DUP1 DUP4 SLOAD DIV MUL DUP4 MSTORE SWAP2 PUSH1 0x20 ADD SWAP2 PUSH2 0x934 JUMP JUMPDEST DUP3 ADD SWAP2 SWAP1 PUSH1 0x0 MSTORE PUSH1 0x20 PUSH1 0x0 KECCAK256 SWAP1 JUMPDEST DUP2 SLOAD DUP2 MSTORE SWAP1 PUSH1 0x1 ADD SWAP1 PUSH1 0x20 ADD DUP1 DUP4 GT PUSH2 0x917 JUMPI DUP3 SWAP1 SUB PUSH1 0x1F AND DUP3 ADD SWAP2 JUMPDEST POP POP POP POP POP DUP2 MSTORE PUSH1 0x20 ADD PUSH1 0x6 DUP3 ADD PUSH1 0x0 SWAP1 SLOAD SWAP1 PUSH2 0x100 EXP SWAP1 DIV PUSH1 0xFF AND PUSH1 0xFF AND PUSH1 0xFF AND DUP2 MSTORE PUSH1 0x20 ADD PUSH1 0x7 DUP3 ADD SLOAD DUP2 MSTORE PUSH1 0x20 ADD PUSH1 0x8 DUP3 ADD SLOAD DUP2 MSTORE POP POP SWAP1 POP DUP1 SWAP6 POP POP POP POP POP POP SWAP2 SWAP1 POP JUMP JUMPDEST PUSH1 0x0 DUP1 PUSH1 0x0 SWAP1 SLOAD SWAP1 PUSH2 0x100 EXP SWAP1 DIV PUSH20 0xFFFFFFFFFFFFFFFFFFFFFFFFFFFFFFFFFFFFFFFF AND SWAP1 POP SWAP1 JUMP JUMPDEST DUP1 CALLVALUE EQ PUSH2 0x9B2 JUMPI PUSH1 0x0 DUP1 REVERT JUMPDEST PUSH1 0x0 DUP3 DUP3 PUSH2 0x9C0 SWAP2 SWAP1 PUSH2 0x1DB4 JUMP JUMPDEST EQ PUSH2 0x9CA JUMPI PUSH1 0x0 DUP1 REVERT JUMPDEST DUP2 DUP2 GT PUSH2 0x9D6 JUMPI PUSH1 0x0 DUP1 REVERT JUMPDEST PUSH2 0x9E8 DUP11 DUP11 DUP11 DUP11 DUP11 DUP11 DUP11 DUP11 DUP11 DUP11 PUSH2 0x10D1 JUMP JUMPDEST POP POP POP POP POP POP POP POP POP POP JUMP JUMPDEST PUSH2 0x9FC PUSH2 0x132A JUMP JUMPDEST PUSH1 0x0 DUP3 CALLER PUSH20 0xFFFFFFFFFFFFFFFFFFFFFFFFFFFFFFFFFFFFFFFF AND PUSH1 0x4 PUSH1 0x0 DUP4 DUP2 MSTORE PUSH1 0x20 ADD SWAP1 DUP2 MSTORE PUSH1 0x20 ADD PUSH1 0x0 KECCAK256 PUSH1 0x0 SWAP1 SLOAD SWAP1 PUSH2 0x100 EXP SWAP1 DIV PUSH20 0xFFFFFFFFFFFFFFFFFFFFFFFFFFFFFFFFFFFFFFFF AND PUSH20 0xFFFFFFFFFFFFFFFFFFFFFFFFFFFFFFFFFFFFFFFF AND EQ PUSH2 0xA6A JUMPI PUSH1 0x0 DUP1 REVERT JUMPDEST PUSH1 0x1 DUP5 DUP2 SLOAD DUP2 LT PUSH2 0xA7E JUMPI PUSH2 0xA7D PUSH2 0x1C01 JUMP JUMPDEST JUMPDEST SWAP1 PUSH1 0x0 MSTORE PUSH1 0x20 PUSH1 0x0 KECCAK256 SWAP1 PUSH1 0x9 MUL ADD PUSH1 0x3 PUSH1 0x0 DUP7 DUP2 MSTORE PUSH1 0x20 ADD SWAP1 DUP2 MSTORE PUSH1 0x20 ADD PUSH1 0x0 KECCAK256 PUSH1 0x0 SWAP1 SLOAD SWAP1 PUSH2 0x100 EXP SWAP1 DIV PUSH1 0xFF AND DUP2 PUSH1 0x40 MLOAD DUP1 PUSH2 0x120 ADD PUSH1 0x40 MSTORE SWAP1 DUP2 PUSH1 0x0 DUP3 ADD DUP1 SLOAD PUSH2 0xACA SWAP1 PUSH2 0x1E14 JUMP JUMPDEST DUP1 PUSH1 0x1F ADD PUSH1 0x20 DUP1 SWAP2 DIV MUL PUSH1 0x20 ADD PUSH1 0x40 MLOAD SWAP1 DUP2 ADD PUSH1 0x40 MSTORE DUP1 SWAP3 SWAP2 SWAP1 DUP2 DUP2 MSTORE PUSH1 0x20 ADD DUP3 DUP1 SLOAD PUSH2 0xAF6 SWAP1 PUSH2 0x1E14 JUMP JUMPDEST DUP1 ISZERO PUSH2 0xB43 JUMPI DUP1 PUSH1 0x1F LT PUSH2 0xB18 JUMPI PUSH2 0x100 DUP1 DUP4 SLOAD DIV MUL DUP4 MSTORE SWAP2 PUSH1 0x20 ADD SWAP2 PUSH2 0xB43 JUMP JUMPDEST DUP3 ADD SWAP2 SWAP1 PUSH1 0x0 MSTORE PUSH1 0x20 PUSH1 0x0 KECCAK256 SWAP1 JUMPDEST DUP2 SLOAD DUP2 MSTORE SWAP1 PUSH1 0x1 ADD SWAP1 PUSH1 0x20 ADD DUP1 DUP4 GT PUSH2 0xB26 JUMPI DUP3 SWAP1 SUB PUSH1 0x1F AND DUP3 ADD SWAP2 JUMPDEST POP POP POP POP POP DUP2 MSTORE PUSH1 0x20 ADD PUSH1 0x1 DUP3 ADD DUP1 SLOAD PUSH2 0xB5C SWAP1 PUSH2 0x1E14 JUMP JUMPDEST DUP1 PUSH1 0x1F ADD PUSH1 0x20 DUP1 SWAP2 DIV MUL PUSH1 0x20 ADD PUSH1 0x40 MLOAD SWAP1 DUP2 ADD PUSH1 0x40 MSTORE DUP1 SWAP3 SWAP2 SWAP1 DUP2 DUP2 MSTORE PUSH1 0x20 ADD DUP3 DUP1 SLOAD PUSH2 0xB88 SWAP1 PUSH2 0x1E14 JUMP JUMPDEST DUP1 ISZERO PUSH2 0xBD5 JUMPI DUP1 PUSH1 0x1F LT PUSH2 0xBAA JUMPI PUSH2 0x100 DUP1 DUP4 SLOAD DIV MUL DUP4 MSTORE SWAP2 PUSH1 0x20 ADD SWAP2 PUSH2 0xBD5 JUMP JUMPDEST DUP3 ADD SWAP2 SWAP1 PUSH1 0x0 MSTORE PUSH1 0x20 PUSH1 0x0 KECCAK256 SWAP1 JUMPDEST DUP2 SLOAD DUP2 MSTORE SWAP1 PUSH1 0x1 ADD SWAP1 PUSH1 0x20 ADD DUP1 DUP4 GT PUSH2 0xBB8 JUMPI DUP3 SWAP1 SUB PUSH1 0x1F AND DUP3 ADD SWAP2 JUMPDEST POP POP POP POP POP DUP2 MSTORE PUSH1 0x20 ADD PUSH1 0x2 DUP3 ADD DUP1 SLOAD PUSH2 0xBEE SWAP1 PUSH2 0x1E14 JUMP JUMPDEST DUP1 PUSH1 0x1F ADD PUSH1 0x20 DUP1 SWAP2 DIV MUL PUSH1 0x20 ADD PUSH1 0x40 MLOAD SWAP1 DUP2 ADD PUSH1 0x40 MSTORE DUP1 SWAP3 SWAP2 SWAP1 DUP2 DUP2 MSTORE PUSH1 0x20 ADD DUP3 DUP1 SLOAD PUSH2 0xC1A SWAP1 PUSH2 0x1E14 JUMP JUMPDEST DUP1 ISZERO PUSH2 0xC67 JUMPI DUP1 PUSH1 0x1F LT PUSH2 0xC3C JUMPI PUSH2 0x100 DUP1 DUP4 SLOAD DIV MUL DUP4 MSTORE SWAP2 PUSH1 0x20 ADD SWAP2 PUSH2 0xC67 JUMP JUMPDEST DUP3 ADD SWAP2 SWAP1 PUSH1 0x0 MSTORE PUSH1 0x20 PUSH1 0x0 KECCAK256 SWAP1 JUMPDEST DUP2 SLOAD DUP2 MSTORE SWAP1 PUSH1 0x1 ADD SWAP1 PUSH1 0x20 ADD DUP1 DUP4 GT PUSH2 0xC4A JUMPI DUP3 SWAP1 SUB PUSH1 0x1F AND DUP3 ADD SWAP2 JUMPDEST POP POP POP POP POP DUP2 MSTORE PUSH1 0x20 ADD PUSH1 0x3 DUP3 ADD DUP1 SLOAD PUSH2 0xC80 SWAP1 PUSH2 0x1E14 JUMP JUMPDEST DUP1 PUSH1 0x1F ADD PUSH1 0x20 DUP1 SWAP2 DIV MUL PUSH1 0x20 ADD PUSH1 0x40 MLOAD SWAP1 DUP2 ADD PUSH1 0x40 MSTORE DUP1 SWAP3 SWAP2 SWAP1 DUP2 DUP2 MSTORE PUSH1 0x20 ADD DUP3 DUP1 SLOAD PUSH2 0xCAC SWAP1 PUSH2 0x1E14 JUMP JUMPDEST DUP1 ISZERO PUSH2 0xCF9 JUMPI DUP1 PUSH1 0x1F LT PUSH2 0xCCE JUMPI PUSH2 0x100 DUP1 DUP4 SLOAD DIV MUL DUP4 MSTORE SWAP2 PUSH1 0x20 ADD SWAP2 PUSH2 0xCF9 JUMP JUMPDEST DUP3 ADD SWAP2 SWAP1 PUSH1 0x0 MSTORE PUSH1 0x20 PUSH1 0x0 KECCAK256 SWAP1 JUMPDEST DUP2 SLOAD DUP2 MSTORE SWAP1 PUSH1 0x1 ADD SWAP1 PUSH1 0x20 ADD DUP1 DUP4 GT PUSH2 0xCDC JUMPI DUP3 SWAP1 SUB PUSH1 0x1F AND DUP3 ADD SWAP2 JUMPDEST POP POP POP POP POP DUP2 MSTORE PUSH1 0x20 ADD PUSH1 0x4 DUP3 ADD DUP1 SLOAD PUSH2 0xD12 SWAP1 PUSH2 0x1E14 JUMP JUMPDEST DUP1 PUSH1 0x1F ADD PUSH1 0x20 DUP1 SWAP2 DIV MUL PUSH1 0x20 ADD PUSH1 0x40 MLOAD SWAP1 DUP2 ADD PUSH1 0x40 MSTORE DUP1 SWAP3 SWAP2 SWAP1 DUP2 DUP2 MSTORE PUSH1 0x20 ADD DUP3 DUP1 SLOAD PUSH2 0xD3E SWAP1 PUSH2 0x1E14 JUMP JUMPDEST DUP1 ISZERO PUSH2 0xD8B JUMPI DUP1 PUSH1 0x1F LT PUSH2 0xD60 JUMPI PUSH2 0x100 DUP1 DUP4 SLOAD DIV MUL DUP4 MSTORE SWAP2 PUSH1 0x20 ADD SWAP2 PUSH2 0xD8B JUMP JUMPDEST DUP3 ADD SWAP2 SWAP1 PUSH1 0x0 MSTORE PUSH1 0x20 PUSH1 0x0 KECCAK256 SWAP1 JUMPDEST DUP2 SLOAD DUP2 MSTORE SWAP1 PUSH1 0x1 ADD SWAP1 PUSH1 0x20 ADD DUP1 DUP4 GT PUSH2 0xD6E JUMPI DUP3 SWAP1 SUB PUSH1 0x1F AND DUP3 ADD SWAP2 JUMPDEST POP POP POP POP POP DUP2 MSTORE PUSH1 0x20 ADD PUSH1 0x5 DUP3 ADD DUP1 SLOAD PUSH2 0xDA4 SWAP1 PUSH2 0x1E14 JUMP JUMPDEST DUP1 PUSH1 0x1F ADD PUSH1 0x20 DUP1 SWAP2 DIV MUL PUSH1 0x20 ADD PUSH1 0x40 MLOAD SWAP1 DUP2 ADD PUSH1 0x40 MSTORE DUP1 SWAP3 SWAP2 SWAP1 DUP2 DUP2 MSTORE PUSH1 0x20 ADD DUP3 DUP1 SLOAD PUSH2 0xDD0 SWAP1 PUSH2 0x1E14 JUMP JUMPDEST DUP1 ISZERO PUSH2 0xE1D JUMPI DUP1 PUSH1 0x1F LT PUSH2 0xDF2 JUMPI PUSH2 0x100 DUP1 DUP4 SLOAD DIV MUL DUP4 MSTORE SWAP2 PUSH1 0x20 ADD SWAP2 PUSH2 0xE1D JUMP JUMPDEST DUP3 ADD SWAP2 SWAP1 PUSH1 0x0 MSTORE PUSH1 0x20 PUSH1 0x0 KECCAK256 SWAP1 JUMPDEST DUP2 SLOAD DUP2 MSTORE SWAP1 PUSH1 0x1 ADD SWAP1 PUSH1 0x20 ADD DUP1 DUP4 GT PUSH2 0xE00 JUMPI DUP3 SWAP1 SUB PUSH1 0x1F AND DUP3 ADD SWAP2 JUMPDEST POP POP POP POP POP DUP2 MSTORE PUSH1 0x20 ADD PUSH1 0x6 DUP3 ADD PUSH1 0x0 SWAP1 SLOAD SWAP1 PUSH2 0x100 EXP SWAP1 DIV PUSH1 0xFF AND PUSH1 0xFF AND PUSH1 0xFF AND DUP2 MSTORE PUSH1 0x20 ADD PUSH1 0x7 DUP3 ADD SLOAD DUP2 MSTORE PUSH1 0x20 ADD PUSH1 0x8 DUP3 ADD SLOAD DUP2 MSTORE POP POP SWAP2 POP SWAP3 POP SWAP3 POP POP SWAP2 POP SWAP2 JUMP JUMPDEST PUSH2 0xE6B PUSH2 0x1005 JUMP JUMPDEST PUSH20 0xFFFFFFFFFFFFFFFFFFFFFFFFFFFFFFFFFFFFFFFF AND PUSH2 0xE89 PUSH2 0x97D JUMP JUMPDEST PUSH20 0xFFFFFFFFFFFFFFFFFFFFFFFFFFFFFFFFFFFFFFFF AND EQ PUSH2 0xEDF JUMPI PUSH1 0x40 MLOAD PUSH32 0x8C379A000000000000000000000000000000000000000000000000000000000 DUP2 MSTORE PUSH1 0x4 ADD PUSH2 0xED6 SWAP1 PUSH2 0x1BE1 JUMP JUMPDEST PUSH1 0x40 MLOAD DUP1 SWAP2 SUB SWAP1 REVERT JUMPDEST PUSH1 0x0 PUSH20 0xFFFFFFFFFFFFFFFFFFFFFFFFFFFFFFFFFFFFFFFF AND DUP2 PUSH20 0xFFFFFFFFFFFFFFFFFFFFFFFFFFFFFFFFFFFFFFFF AND SUB PUSH2 0xF4E JUMPI PUSH1 0x40 MLOAD PUSH32 0x8C379A000000000000000000000000000000000000000000000000000000000 DUP2 MSTORE PUSH1 0x4 ADD PUSH2 0xF45 SWAP1 PUSH2 0x1EB7 JUMP JUMPDEST PUSH1 0x40 MLOAD DUP1 SWAP2 SUB SWAP1 REVERT JUMPDEST PUSH2 0xF57 DUP2 PUSH2 0x100D JUMP JUMPDEST POP JUMP JUMPDEST DUP2 CALLER PUSH20 0xFFFFFFFFFFFFFFFFFFFFFFFFFFFFFFFFFFFFFFFF AND PUSH1 0x4 PUSH1 0x0 DUP4 DUP2 MSTORE PUSH1 0x20 ADD SWAP1 DUP2 MSTORE PUSH1 0x20 ADD PUSH1 0x0 KECCAK256 PUSH1 0x0 SWAP1 SLOAD SWAP1 PUSH2 0x100 EXP SWAP1 DIV PUSH20 0xFFFFFFFFFFFFFFFFFFFFFFFFFFFFFFFFFFFFFFFF AND PUSH20 0xFFFFFFFFFFFFFFFFFFFFFFFFFFFFFFFFFFFFFFFF AND EQ PUSH2 0xFC6 JUMPI PUSH1 0x0 DUP1 REVERT JUMPDEST DUP2 PUSH1 0x1 DUP5 DUP2 SLOAD DUP2 LT PUSH2 0xFDB JUMPI PUSH2 0xFDA PUSH2 0x1C01 JUMP JUMPDEST JUMPDEST SWAP1 PUSH1 0x0 MSTORE PUSH1 0x20 PUSH1 0x0 KECCAK256 SWAP1 PUSH1 0x9 MUL ADD PUSH1 0x5 ADD SWAP1 DUP1 MLOAD SWAP1 PUSH1 0x20 ADD SWAP1 PUSH2 0xFFF SWAP3 SWAP2 SWAP1 PUSH2 0x1379 JUMP JUMPDEST POP POP POP POP JUMP JUMPDEST PUSH1 0x0 CALLER SWAP1 POP SWAP1 JUMP JUMPDEST PUSH1 0x0 DUP1 PUSH1 0x0 SWAP1 SLOAD SWAP1 PUSH2 0x100 EXP SWAP1 DIV PUSH20 0xFFFFFFFFFFFFFFFFFFFFFFFFFFFFFFFFFFFFFFFF AND SWAP1 POP DUP2 PUSH1 0x0 DUP1 PUSH2 0x100 EXP DUP2 SLOAD DUP2 PUSH20 0xFFFFFFFFFFFFFFFFFFFFFFFFFFFFFFFFFFFFFFFF MUL NOT AND SWAP1 DUP4 PUSH20 0xFFFFFFFFFFFFFFFFFFFFFFFFFFFFFFFFFFFFFFFF AND MUL OR SWAP1 SSTORE POP DUP2 PUSH20 0xFFFFFFFFFFFFFFFFFFFFFFFFFFFFFFFFFFFFFFFF AND DUP2 PUSH20 0xFFFFFFFFFFFFFFFFFFFFFFFFFFFFFFFFFFFFFFFF AND PUSH32 0x8BE0079C531659141344CD1FD0A4F28419497F9722A3DAAFE3B4186F6B6457E0 PUSH1 0x40 MLOAD PUSH1 0x40 MLOAD DUP1 SWAP2 SUB SWAP1 LOG3 POP POP JUMP JUMPDEST PUSH1 0x1 PUSH1 0x40 MLOAD DUP1 PUSH2 0x120 ADD PUSH1 0x40 MSTORE DUP1 DUP13 DUP2 MSTORE PUSH1 0x20 ADD DUP12 DUP2 MSTORE PUSH1 0x20 ADD DUP11 DUP2 MSTORE PUSH1 0x20 ADD DUP10 DUP2 MSTORE PUSH1 0x20 ADD DUP9 DUP2 MSTORE PUSH1 0x20 ADD DUP8 DUP2 MSTORE PUSH1 0x20 ADD DUP6 PUSH1 0xFF AND DUP2 MSTORE PUSH1 0x20 ADD DUP5 DUP2 MSTORE PUSH1 0x20 ADD DUP4 DUP2 MSTORE POP SWAP1 DUP1 PUSH1 0x1 DUP2 SLOAD ADD DUP1 DUP3 SSTORE DUP1 SWAP2 POP POP PUSH1 0x1 SWAP1 SUB SWAP1 PUSH1 0x0 MSTORE PUSH1 0x20 PUSH1 0x0 KECCAK256 SWAP1 PUSH1 0x9 MUL ADD PUSH1 0x0 SWAP1 SWAP2 SWAP1 SWAP2 SWAP1 SWAP2 POP PUSH1 0x0 DUP3 ADD MLOAD DUP2 PUSH1 0x0 ADD SWAP1 DUP1 MLOAD SWAP1 PUSH1 0x20 ADD SWAP1 PUSH2 0x115B SWAP3 SWAP2 SWAP1 PUSH2 0x1379 JUMP JUMPDEST POP PUSH1 0x20 DUP3 ADD MLOAD DUP2 PUSH1 0x1 ADD SWAP1 DUP1 MLOAD SWAP1 PUSH1 0x20 ADD SWAP1 PUSH2 0x1178 SWAP3 SWAP2 SWAP1 PUSH2 0x1379 JUMP JUMPDEST POP PUSH1 0x40 DUP3 ADD MLOAD DUP2 PUSH1 0x2 ADD SWAP1 DUP1 MLOAD SWAP1 PUSH1 0x20 ADD SWAP1 PUSH2 0x1195 SWAP3 SWAP2 SWAP1 PUSH2 0x1379 JUMP JUMPDEST POP PUSH1 0x60 DUP3 ADD MLOAD DUP2 PUSH1 0x3 ADD SWAP1 DUP1 MLOAD SWAP1 PUSH1 0x20 ADD SWAP1 PUSH2 0x11B2 SWAP3 SWAP2 SWAP1 PUSH2 0x1379 JUMP JUMPDEST POP PUSH1 0x80 DUP3 ADD MLOAD DUP2 PUSH1 0x4 ADD SWAP1 DUP1 MLOAD SWAP1 PUSH1 0x20 ADD SWAP1 PUSH2 0x11CF SWAP3 SWAP2 SWAP1 PUSH2 0x1379 JUMP JUMPDEST POP PUSH1 0xA0 DUP3 ADD MLOAD DUP2 PUSH1 0x5 ADD SWAP1 DUP1 MLOAD SWAP1 PUSH1 0x20 ADD SWAP1 PUSH2 0x11EC SWAP3 SWAP2 SWAP1 PUSH2 0x1379 JUMP JUMPDEST POP PUSH1 0xC0 DUP3 ADD MLOAD DUP2 PUSH1 0x6 ADD PUSH1 0x0 PUSH2 0x100 EXP DUP2 SLOAD DUP2 PUSH1 0xFF MUL NOT AND SWAP1 DUP4 PUSH1 0xFF AND MUL OR SWAP1 SSTORE POP PUSH1 0xE0 DUP3 ADD MLOAD DUP2 PUSH1 0x7 ADD SSTORE PUSH2 0x100 DUP3 ADD MLOAD DUP2 PUSH1 0x8 ADD SSTORE POP POP PUSH1 0x0 PUSH1 0x1 DUP1 DUP1 SLOAD SWAP1 POP PUSH2 0x1238 SWAP2 SWAP1 PUSH2 0x1ED7 JUMP JUMPDEST SWAP1 POP DUP5 PUSH1 0x3 PUSH1 0x0 DUP4 DUP2 MSTORE PUSH1 0x20 ADD SWAP1 DUP2 MSTORE PUSH1 0x20 ADD PUSH1 0x0 KECCAK256 PUSH1 0x0 PUSH2 0x100 EXP DUP2 SLOAD DUP2 PUSH1 0xFF MUL NOT AND SWAP1 DUP4 PUSH1 0xFF AND MUL OR SWAP1 SSTORE POP CALLER PUSH1 0x4 PUSH1 0x0 DUP4 DUP2 MSTORE PUSH1 0x20 ADD SWAP1 DUP2 MSTORE PUSH1 0x20 ADD PUSH1 0x0 KECCAK256 PUSH1 0x0 PUSH2 0x100 EXP DUP2 SLOAD DUP2 PUSH20 0xFFFFFFFFFFFFFFFFFFFFFFFFFFFFFFFFFFFFFFFF MUL NOT AND SWAP1 DUP4 PUSH20 0xFFFFFFFFFFFFFFFFFFFFFFFFFFFFFFFFFFFFFFFF AND MUL OR SWAP1 SSTORE POP PUSH1 0x1 PUSH1 0x2 PUSH1 0x0 DUP4 DUP2 MSTORE PUSH1 0x20 ADD SWAP1 DUP2 MSTORE PUSH1 0x20 ADD PUSH1 0x0 KECCAK256 PUSH1 0x0 PUSH2 0x100 EXP DUP2 SLOAD DUP2 PUSH1 0xFF MUL NOT AND SWAP1 DUP4 ISZERO ISZERO MUL OR SWAP1 SSTORE POP PUSH32 0x545DCA5D847B655A9F03CDF5619F53F0B2546051FD0D015B18C09AE2A8B1A765 DUP12 DUP7 PUSH1 0x40 MLOAD PUSH2 0x1315 SWAP3 SWAP2 SWAP1 PUSH2 0x1F44 JUMP JUMPDEST PUSH1 0x40 MLOAD DUP1 SWAP2 SUB SWAP1 LOG1 POP POP POP POP POP POP POP POP POP POP POP JUMP JUMPDEST PUSH1 0x40 MLOAD DUP1 PUSH2 0x120 ADD PUSH1 0x40 MSTORE DUP1 PUSH1 0x60 DUP2 MSTORE PUSH1 0x20 ADD PUSH1 0x60 DUP2 MSTORE PUSH1 0x20 ADD PUSH1 0x60 DUP2 MSTORE PUSH1 0x20 ADD PUSH1 0x60 DUP2 MSTORE PUSH1 0x20 ADD PUSH1 0x60 DUP2 MSTORE PUSH1 0x20 ADD PUSH1 0x60 DUP2 MSTORE PUSH1 0x20 ADD PUSH1 0x0 PUSH1 0xFF AND DUP2 MSTORE PUSH1 0x20 ADD PUSH1 0x0 DUP2 MSTORE PUSH1 0x20 ADD PUSH1 0x0 DUP2 MSTORE POP SWAP1 JUMP JUMPDEST DUP3 DUP1 SLOAD PUSH2 0x1385 SWAP1 PUSH2 0x1E14 JUMP JUMPDEST SWAP1 PUSH1 0x0 MSTORE PUSH1 0x20 PUSH1 0x0 KECCAK256 SWAP1 PUSH1 0x1F ADD PUSH1 0x20 SWAP1 DIV DUP2 ADD SWAP3 DUP3 PUSH2 0x13A7 JUMPI PUSH1 0x0 DUP6 SSTORE PUSH2 0x13EE JUMP JUMPDEST DUP3 PUSH1 0x1F LT PUSH2 0x13C0 JUMPI DUP1 MLOAD PUSH1 0xFF NOT AND DUP4 DUP1 ADD OR DUP6 SSTORE PUSH2 0x13EE JUMP JUMPDEST DUP3 DUP1 ADD PUSH1 0x1 ADD DUP6 SSTORE DUP3 ISZERO PUSH2 0x13EE JUMPI SWAP2 DUP3 ADD JUMPDEST DUP3 DUP2 GT ISZERO PUSH2 0x13ED JUMPI DUP3 MLOAD DUP3 SSTORE SWAP2 PUSH1 0x20 ADD SWAP2 SWAP1 PUSH1 0x1 ADD SWAP1 PUSH2 0x13D2 JUMP JUMPDEST JUMPDEST POP SWAP1 POP PUSH2 0x13FB SWAP2 SWAP1 PUSH2 0x13FF JUMP JUMPDEST POP SWAP1 JUMP JUMPDEST JUMPDEST DUP1 DUP3 GT ISZERO PUSH2 0x1418 JUMPI PUSH1 0x0 DUP2 PUSH1 0x0 SWAP1 SSTORE POP PUSH1 0x1 ADD PUSH2 0x1400 JUMP JUMPDEST POP SWAP1 JUMP JUMPDEST PUSH1 0x0 PUSH1 0x40 MLOAD SWAP1 POP SWAP1 JUMP JUMPDEST PUSH1 0x0 DUP1 REVERT JUMPDEST PUSH1 0x0 DUP1 REVERT JUMPDEST PUSH1 0x0 DUP2 SWAP1 POP SWAP2 SWAP1 POP JUMP JUMPDEST PUSH2 0x1443 DUP2 PUSH2 0x1430 JUMP JUMPDEST DUP2 EQ PUSH2 0x144E JUMPI PUSH1 0x0 DUP1 REVERT JUMPDEST POP JUMP JUMPDEST PUSH1 0x0 DUP2 CALLDATALOAD SWAP1 POP PUSH2 0x1460 DUP2 PUSH2 0x143A JUMP JUMPDEST SWAP3 SWAP2 POP POP JUMP JUMPDEST PUSH1 0x0 DUP2 ISZERO ISZERO SWAP1 POP SWAP2 SWAP1 POP JUMP JUMPDEST PUSH2 0x147B DUP2 PUSH2 0x1466 JUMP JUMPDEST DUP2 EQ PUSH2 0x1486 JUMPI PUSH1 0x0 DUP1 REVERT JUMPDEST POP JUMP JUMPDEST PUSH1 0x0 DUP2 CALLDATALOAD SWAP1 POP PUSH2 0x1498 DUP2 PUSH2 0x1472 JUMP JUMPDEST SWAP3 SWAP2 POP POP JUMP JUMPDEST PUSH1 0x0 DUP1 PUSH1 0x40 DUP4 DUP6 SUB SLT ISZERO PUSH2 0x14B5 JUMPI PUSH2 0x14B4 PUSH2 0x1426 JUMP JUMPDEST JUMPDEST PUSH1 0x0 PUSH2 0x14C3 DUP6 DUP3 DUP7 ADD PUSH2 0x1451 JUMP JUMPDEST SWAP3 POP POP PUSH1 0x20 PUSH2 0x14D4 DUP6 DUP3 DUP7 ADD PUSH2 0x1489 JUMP JUMPDEST SWAP2 POP POP SWAP3 POP SWAP3 SWAP1 POP JUMP JUMPDEST PUSH1 0x0 PUSH1 0x20 DUP3 DUP5 SUB SLT ISZERO PUSH2 0x14F4 JUMPI PUSH2 0x14F3 PUSH2 0x1426 JUMP JUMPDEST JUMPDEST PUSH1 0x0 PUSH2 0x1502 DUP5 DUP3 DUP6 ADD PUSH2 0x1451 JUMP JUMPDEST SWAP2 POP POP SWAP3 SWAP2 POP POP JUMP JUMPDEST PUSH1 0x0 PUSH20 0xFFFFFFFFFFFFFFFFFFFFFFFFFFFFFFFFFFFFFFFF DUP3 AND SWAP1 POP SWAP2 SWAP1 POP JUMP JUMPDEST PUSH1 0x0 PUSH2 0x1536 DUP3 PUSH2 0x150B JUMP JUMPDEST SWAP1 POP SWAP2 SWAP1 POP JUMP JUMPDEST PUSH2 0x1546 DUP2 PUSH2 0x152B JUMP JUMPDEST DUP3 MSTORE POP POP JUMP JUMPDEST PUSH1 0x0 PUSH1 0x20 DUP3 ADD SWAP1 POP PUSH2 0x1561 PUSH1 0x0 DUP4 ADD DUP5 PUSH2 0x153D JUMP JUMPDEST SWAP3 SWAP2 POP POP JUMP JUMPDEST PUSH2 0x1570 DUP2 PUSH2 0x1466 JUMP JUMPDEST DUP3 MSTORE POP POP JUMP JUMPDEST PUSH1 0x0 PUSH1 0x20 DUP3 ADD SWAP1 POP PUSH2 0x158B PUSH1 0x0 DUP4 ADD DUP5 PUSH2 0x1567 JUMP JUMPDEST SWAP3 SWAP2 POP POP JUMP JUMPDEST PUSH1 0x0 DUP1 REVERT JUMPDEST PUSH1 0x0 DUP1 REVERT JUMPDEST PUSH1 0x0 PUSH1 0x1F NOT PUSH1 0x1F DUP4 ADD AND SWAP1 POP SWAP2 SWAP1 POP JUMP JUMPDEST PUSH32 0x4E487B7100000000000000000000000000000000000000000000000000000000 PUSH1 0x0 MSTORE PUSH1 0x41 PUSH1 0x4 MSTORE PUSH1 0x24 PUSH1 0x0 REVERT JUMPDEST PUSH2 0x15E4 DUP3 PUSH2 0x159B JUMP JUMPDEST DUP2 ADD DUP2 DUP2 LT PUSH8 0xFFFFFFFFFFFFFFFF DUP3 GT OR ISZERO PUSH2 0x1603 JUMPI PUSH2 0x1602 PUSH2 0x15AC JUMP JUMPDEST JUMPDEST DUP1 PUSH1 0x40 MSTORE POP POP POP JUMP JUMPDEST PUSH1 0x0 PUSH2 0x1616 PUSH2 0x141C JUMP JUMPDEST SWAP1 POP PUSH2 0x1622 DUP3 DUP3 PUSH2 0x15DB JUMP JUMPDEST SWAP2 SWAP1 POP JUMP JUMPDEST PUSH1 0x0 PUSH8 0xFFFFFFFFFFFFFFFF DUP3 GT ISZERO PUSH2 0x1642 JUMPI PUSH2 0x1641 PUSH2 0x15AC JUMP JUMPDEST JUMPDEST PUSH2 0x164B DUP3 PUSH2 0x159B JUMP JUMPDEST SWAP1 POP PUSH1 0x20 DUP2 ADD SWAP1 POP SWAP2 SWAP1 POP JUMP JUMPDEST DUP3 DUP2 DUP4 CALLDATACOPY PUSH1 0x0 DUP4 DUP4 ADD MSTORE POP POP POP JUMP JUMPDEST PUSH1 0x0 PUSH2 0x167A PUSH2 0x1675 DUP5 PUSH2 0x1627 JUMP JUMPDEST PUSH2 0x160C JUMP JUMPDEST SWAP1 POP DUP3 DUP2 MSTORE PUSH1 0x20 DUP2 ADD DUP5 DUP5 DUP5 ADD GT ISZERO PUSH2 0x1696 JUMPI PUSH2 0x1695 PUSH2 0x1596 JUMP JUMPDEST JUMPDEST PUSH2 0x16A1 DUP5 DUP3 DUP6 PUSH2 0x1658 JUMP JUMPDEST POP SWAP4 SWAP3 POP POP POP JUMP JUMPDEST PUSH1 0x0 DUP3 PUSH1 0x1F DUP4 ADD SLT PUSH2 0x16BE JUMPI PUSH2 0x16BD PUSH2 0x1591 JUMP JUMPDEST JUMPDEST DUP2 CALLDATALOAD PUSH2 0x16CE DUP5 DUP3 PUSH1 0x20 DUP7 ADD PUSH2 0x1667 JUMP JUMPDEST SWAP2 POP POP SWAP3 SWAP2 POP POP JUMP JUMPDEST PUSH1 0x0 PUSH1 0x20 DUP3 DUP5 SUB SLT ISZERO PUSH2 0x16ED JUMPI PUSH2 0x16EC PUSH2 0x1426 JUMP JUMPDEST JUMPDEST PUSH1 0x0 DUP3 ADD CALLDATALOAD PUSH8 0xFFFFFFFFFFFFFFFF DUP2 GT ISZERO PUSH2 0x170B JUMPI PUSH2 0x170A PUSH2 0x142B JUMP JUMPDEST JUMPDEST PUSH2 0x1717 DUP5 DUP3 DUP6 ADD PUSH2 0x16A9 JUMP JUMPDEST SWAP2 POP POP SWAP3 SWAP2 POP POP JUMP JUMPDEST PUSH1 0x0 DUP2 MLOAD SWAP1 POP SWAP2 SWAP1 POP JUMP JUMPDEST PUSH1 0x0 DUP3 DUP3 MSTORE PUSH1 0x20 DUP3 ADD SWAP1 POP SWAP3 SWAP2 POP POP JUMP JUMPDEST PUSH1 0x0 JUMPDEST DUP4 DUP2 LT ISZERO PUSH2 0x175A JUMPI DUP1 DUP3 ADD MLOAD DUP2 DUP5 ADD MSTORE PUSH1 0x20 DUP2 ADD SWAP1 POP PUSH2 0x173F JUMP JUMPDEST DUP4 DUP2 GT ISZERO PUSH2 0x1769 JUMPI PUSH1 0x0 DUP5 DUP5 ADD MSTORE JUMPDEST POP POP POP POP JUMP JUMPDEST PUSH1 0x0 PUSH2 0x177A DUP3 PUSH2 0x1720 JUMP JUMPDEST PUSH2 0x1784 DUP2 DUP6 PUSH2 0x172B JUMP JUMPDEST SWAP4 POP PUSH2 0x1794 DUP2 DUP6 PUSH1 0x20 DUP7 ADD PUSH2 0x173C JUMP JUMPDEST PUSH2 0x179D DUP2 PUSH2 0x159B JUMP JUMPDEST DUP5 ADD SWAP2 POP POP SWAP3 SWAP2 POP POP JUMP JUMPDEST PUSH1 0x0 PUSH1 0xFF DUP3 AND SWAP1 POP SWAP2 SWAP1 POP JUMP JUMPDEST PUSH2 0x17BE DUP2 PUSH2 0x17A8 JUMP JUMPDEST DUP3 MSTORE POP POP JUMP JUMPDEST PUSH2 0x17CD DUP2 PUSH2 0x1430 JUMP JUMPDEST DUP3 MSTORE POP POP JUMP JUMPDEST PUSH1 0x0 PUSH2 0x120 DUP4 ADD PUSH1 0x0 DUP4 ADD MLOAD DUP5 DUP3 SUB PUSH1 0x0 DUP7 ADD MSTORE PUSH2 0x17F1 DUP3 DUP3 PUSH2 0x176F JUMP JUMPDEST SWAP2 POP POP PUSH1 0x20 DUP4 ADD MLOAD DUP5 DUP3 SUB PUSH1 0x20 DUP7 ADD MSTORE PUSH2 0x180B DUP3 DUP3 PUSH2 0x176F JUMP JUMPDEST SWAP2 POP POP PUSH1 0x40 DUP4 ADD MLOAD DUP5 DUP3 SUB PUSH1 0x40 DUP7 ADD MSTORE PUSH2 0x1825 DUP3 DUP3 PUSH2 0x176F JUMP JUMPDEST SWAP2 POP POP PUSH1 0x60 DUP4 ADD MLOAD DUP5 DUP3 SUB PUSH1 0x60 DUP7 ADD MSTORE PUSH2 0x183F DUP3 DUP3 PUSH2 0x176F JUMP JUMPDEST SWAP2 POP POP PUSH1 0x80 DUP4 ADD MLOAD DUP5 DUP3 SUB PUSH1 0x80 DUP7 ADD MSTORE PUSH2 0x1859 DUP3 DUP3 PUSH2 0x176F JUMP JUMPDEST SWAP2 POP POP PUSH1 0xA0 DUP4 ADD MLOAD DUP5 DUP3 SUB PUSH1 0xA0 DUP7 ADD MSTORE PUSH2 0x1873 DUP3 DUP3 PUSH2 0x176F JUMP JUMPDEST SWAP2 POP POP PUSH1 0xC0 DUP4 ADD MLOAD PUSH2 0x1888 PUSH1 0xC0 DUP7 ADD DUP3 PUSH2 0x17B5 JUMP JUMPDEST POP PUSH1 0xE0 DUP4 ADD MLOAD PUSH2 0x189B PUSH1 0xE0 DUP7 ADD DUP3 PUSH2 0x17C4 JUMP JUMPDEST POP PUSH2 0x100 DUP4 ADD MLOAD PUSH2 0x18B0 PUSH2 0x100 DUP7 ADD DUP3 PUSH2 0x17C4 JUMP JUMPDEST POP DUP1 SWAP2 POP POP SWAP3 SWAP2 POP POP JUMP JUMPDEST PUSH1 0x0 PUSH1 0x20 DUP3 ADD SWAP1 POP DUP2 DUP2 SUB PUSH1 0x0 DUP4 ADD MSTORE PUSH2 0x18D5 DUP2 DUP5 PUSH2 0x17D3 JUMP JUMPDEST SWAP1 POP SWAP3 SWAP2 POP POP JUMP JUMPDEST PUSH2 0x18E6 DUP2 PUSH2 0x17A8 JUMP JUMPDEST DUP2 EQ PUSH2 0x18F1 JUMPI PUSH1 0x0 DUP1 REVERT JUMPDEST POP JUMP JUMPDEST PUSH1 0x0 DUP2 CALLDATALOAD SWAP1 POP PUSH2 0x1903 DUP2 PUSH2 0x18DD JUMP JUMPDEST SWAP3 SWAP2 POP POP JUMP JUMPDEST PUSH1 0x0 DUP1 PUSH1 0x0 DUP1 PUSH1 0x0 DUP1 PUSH1 0x0 DUP1 PUSH1 0x0 DUP1 PUSH2 0x140 DUP12 DUP14 SUB SLT ISZERO PUSH2 0x192D JUMPI PUSH2 0x192C PUSH2 0x1426 JUMP JUMPDEST JUMPDEST PUSH1 0x0 DUP12 ADD CALLDATALOAD PUSH8 0xFFFFFFFFFFFFFFFF DUP2 GT ISZERO PUSH2 0x194B JUMPI PUSH2 0x194A PUSH2 0x142B JUMP JUMPDEST JUMPDEST PUSH2 0x1957 DUP14 DUP3 DUP15 ADD PUSH2 0x16A9 JUMP JUMPDEST SWAP11 POP POP PUSH1 0x20 DUP12 ADD CALLDATALOAD PUSH8 0xFFFFFFFFFFFFFFFF DUP2 GT ISZERO PUSH2 0x1978 JUMPI PUSH2 0x1977 PUSH2 0x142B JUMP JUMPDEST JUMPDEST PUSH2 0x1984 DUP14 DUP3 DUP15 ADD PUSH2 0x16A9 JUMP JUMPDEST SWAP10 POP POP PUSH1 0x40 DUP12 ADD CALLDATALOAD PUSH8 0xFFFFFFFFFFFFFFFF DUP2 GT ISZERO PUSH2 0x19A5 JUMPI PUSH2 0x19A4 PUSH2 0x142B JUMP JUMPDEST JUMPDEST PUSH2 0x19B1 DUP14 DUP3 DUP15 ADD PUSH2 0x16A9 JUMP JUMPDEST SWAP9 POP POP PUSH1 0x60 DUP12 ADD CALLDATALOAD PUSH8 0xFFFFFFFFFFFFFFFF DUP2 GT ISZERO PUSH2 0x19D2 JUMPI PUSH2 0x19D1 PUSH2 0x142B JUMP JUMPDEST JUMPDEST PUSH2 0x19DE DUP14 DUP3 DUP15 ADD PUSH2 0x16A9 JUMP JUMPDEST SWAP8 POP POP PUSH1 0x80 DUP12 ADD CALLDATALOAD PUSH8 0xFFFFFFFFFFFFFFFF DUP2 GT ISZERO PUSH2 0x19FF JUMPI PUSH2 0x19FE PUSH2 0x142B JUMP JUMPDEST JUMPDEST PUSH2 0x1A0B DUP14 DUP3 DUP15 ADD PUSH2 0x16A9 JUMP JUMPDEST SWAP7 POP POP PUSH1 0xA0 DUP12 ADD CALLDATALOAD PUSH8 0xFFFFFFFFFFFFFFFF DUP2 GT ISZERO PUSH2 0x1A2C JUMPI PUSH2 0x1A2B PUSH2 0x142B JUMP JUMPDEST JUMPDEST PUSH2 0x1A38 DUP14 DUP3 DUP15 ADD PUSH2 0x16A9 JUMP JUMPDEST SWAP6 POP POP PUSH1 0xC0 PUSH2 0x1A49 DUP14 DUP3 DUP15 ADD PUSH2 0x18F4 JUMP JUMPDEST SWAP5 POP POP PUSH1 0xE0 PUSH2 0x1A5A DUP14 DUP3 DUP15 ADD PUSH2 0x18F4 JUMP JUMPDEST SWAP4 POP POP PUSH2 0x100 PUSH2 0x1A6C DUP14 DUP3 DUP15 ADD PUSH2 0x1451 JUMP JUMPDEST SWAP3 POP POP PUSH2 0x120 PUSH2 0x1A7E DUP14 DUP3 DUP15 ADD PUSH2 0x1451 JUMP JUMPDEST SWAP2 POP POP SWAP3 SWAP6 SWAP9 SWAP12 SWAP2 SWAP5 SWAP8 SWAP11 POP SWAP3 SWAP6 SWAP9 POP JUMP JUMPDEST PUSH2 0x1A99 DUP2 PUSH2 0x17A8 JUMP JUMPDEST DUP3 MSTORE POP POP JUMP JUMPDEST PUSH1 0x0 PUSH1 0x40 DUP3 ADD SWAP1 POP DUP2 DUP2 SUB PUSH1 0x0 DUP4 ADD MSTORE PUSH2 0x1AB9 DUP2 DUP6 PUSH2 0x17D3 JUMP JUMPDEST SWAP1 POP PUSH2 0x1AC8 PUSH1 0x20 DUP4 ADD DUP5 PUSH2 0x1A90 JUMP JUMPDEST SWAP4 SWAP3 POP POP POP JUMP JUMPDEST PUSH2 0x1AD8 DUP2 PUSH2 0x152B JUMP JUMPDEST DUP2 EQ PUSH2 0x1AE3 JUMPI PUSH1 0x0 DUP1 REVERT JUMPDEST POP JUMP JUMPDEST PUSH1 0x0 DUP2 CALLDATALOAD SWAP1 POP PUSH2 0x1AF5 DUP2 PUSH2 0x1ACF JUMP JUMPDEST SWAP3 SWAP2 POP POP JUMP JUMPDEST PUSH1 0x0 PUSH1 0x20 DUP3 DUP5 SUB SLT ISZERO PUSH2 0x1B11 JUMPI PUSH2 0x1B10 PUSH2 0x1426 JUMP JUMPDEST JUMPDEST PUSH1 0x0 PUSH2 0x1B1F DUP5 DUP3 DUP6 ADD PUSH2 0x1AE6 JUMP JUMPDEST SWAP2 POP POP SWAP3 SWAP2 POP POP JUMP JUMPDEST PUSH1 0x0 DUP1 PUSH1 0x40 DUP4 DUP6 SUB SLT ISZERO PUSH2 0x1B3F JUMPI PUSH2 0x1B3E PUSH2 0x1426 JUMP JUMPDEST JUMPDEST PUSH1 0x0 PUSH2 0x1B4D DUP6 DUP3 DUP7 ADD PUSH2 0x1451 JUMP JUMPDEST SWAP3 POP POP PUSH1 0x20 DUP4 ADD CALLDATALOAD PUSH8 0xFFFFFFFFFFFFFFFF DUP2 GT ISZERO PUSH2 0x1B6E JUMPI PUSH2 0x1B6D PUSH2 0x142B JUMP JUMPDEST JUMPDEST PUSH2 0x1B7A DUP6 DUP3 DUP7 ADD PUSH2 0x16A9 JUMP JUMPDEST SWAP2 POP POP SWAP3 POP SWAP3 SWAP1 POP JUMP JUMPDEST PUSH1 0x0 DUP3 DUP3 MSTORE PUSH1 0x20 DUP3 ADD SWAP1 POP SWAP3 SWAP2 POP POP JUMP JUMPDEST PUSH32 0x4F776E61626C653A2063616C6C6572206973206E6F7420746865206F776E6572 PUSH1 0x0 DUP3 ADD MSTORE POP JUMP JUMPDEST PUSH1 0x0 PUSH2 0x1BCB PUSH1 0x20 DUP4 PUSH2 0x1B84 JUMP JUMPDEST SWAP2 POP PUSH2 0x1BD6 DUP3 PUSH2 0x1B95 JUMP JUMPDEST PUSH1 0x20 DUP3 ADD SWAP1 POP SWAP2 SWAP1 POP JUMP JUMPDEST PUSH1 0x0 PUSH1 0x20 DUP3 ADD SWAP1 POP DUP2 DUP2 SUB PUSH1 0x0 DUP4 ADD MSTORE PUSH2 0x1BFA DUP2 PUSH2 0x1BBE JUMP JUMPDEST SWAP1 POP SWAP2 SWAP1 POP JUMP JUMPDEST PUSH32 0x4E487B7100000000000000000000000000000000000000000000000000000000 PUSH1 0x0 MSTORE PUSH1 0x32 PUSH1 0x4 MSTORE PUSH1 0x24 PUSH1 0x0 REVERT JUMPDEST PUSH32 0x4E487B7100000000000000000000000000000000000000000000000000000000 PUSH1 0x0 MSTORE PUSH1 0x11 PUSH1 0x4 MSTORE PUSH1 0x24 PUSH1 0x0 REVERT JUMPDEST PUSH1 0x0 PUSH2 0x1C6A DUP3 PUSH2 0x1430 JUMP JUMPDEST SWAP2 POP PUSH32 0xFFFFFFFFFFFFFFFFFFFFFFFFFFFFFFFFFFFFFFFFFFFFFFFFFFFFFFFFFFFFFFFF DUP3 SUB PUSH2 0x1C9C JUMPI PUSH2 0x1C9B PUSH2 0x1C30 JUMP JUMPDEST JUMPDEST PUSH1 0x1 DUP3 ADD SWAP1 POP SWAP2 SWAP1 POP JUMP JUMPDEST PUSH1 0x0 DUP2 SWAP1 POP SWAP3 SWAP2 POP POP JUMP JUMPDEST PUSH1 0x0 PUSH2 0x1CBD DUP3 PUSH2 0x1720 JUMP JUMPDEST PUSH2 0x1CC7 DUP2 DUP6 PUSH2 0x1CA7 JUMP JUMPDEST SWAP4 POP PUSH2 0x1CD7 DUP2 DUP6 PUSH1 0x20 DUP7 ADD PUSH2 0x173C JUMP JUMPDEST DUP1 DUP5 ADD SWAP2 POP POP SWAP3 SWAP2 POP POP JUMP JUMPDEST PUSH1 0x0 DUP2 SWAP1 POP SWAP2 SWAP1 POP JUMP JUMPDEST PUSH2 0x1CFE PUSH2 0x1CF9 DUP3 PUSH2 0x1430 JUMP JUMPDEST PUSH2 0x1CE3 JUMP JUMPDEST DUP3 MSTORE POP POP JUMP JUMPDEST PUSH1 0x0 DUP2 PUSH1 0x60 SHL SWAP1 POP SWAP2 SWAP1 POP JUMP JUMPDEST PUSH1 0x0 PUSH2 0x1D1C DUP3 PUSH2 0x1D04 JUMP JUMPDEST SWAP1 POP SWAP2 SWAP1 POP JUMP JUMPDEST PUSH1 0x0 PUSH2 0x1D2E DUP3 PUSH2 0x1D11 JUMP JUMPDEST SWAP1 POP SWAP2 SWAP1 POP JUMP JUMPDEST PUSH2 0x1D46 PUSH2 0x1D41 DUP3 PUSH2 0x152B JUMP JUMPDEST PUSH2 0x1D23 JUMP JUMPDEST DUP3 MSTORE POP POP JUMP JUMPDEST PUSH1 0x0 PUSH2 0x1D58 DUP3 DUP7 PUSH2 0x1CB2 JUMP JUMPDEST SWAP2 POP PUSH2 0x1D64 DUP3 DUP6 PUSH2 0x1CED JUMP JUMPDEST PUSH1 0x20 DUP3 ADD SWAP2 POP PUSH2 0x1D74 DUP3 DUP5 PUSH2 0x1D35 JUMP JUMPDEST PUSH1 0x14 DUP3 ADD SWAP2 POP DUP2 SWAP1 POP SWAP5 SWAP4 POP POP POP POP JUMP JUMPDEST PUSH32 0x4E487B7100000000000000000000000000000000000000000000000000000000 PUSH1 0x0 MSTORE PUSH1 0x12 PUSH1 0x4 MSTORE PUSH1 0x24 PUSH1 0x0 REVERT JUMPDEST PUSH1 0x0 PUSH2 0x1DBF DUP3 PUSH2 0x1430 JUMP JUMPDEST SWAP2 POP PUSH2 0x1DCA DUP4 PUSH2 0x1430 JUMP JUMPDEST SWAP3 POP DUP3 PUSH2 0x1DDA JUMPI PUSH2 0x1DD9 PUSH2 0x1D85 JUMP JUMPDEST JUMPDEST DUP3 DUP3 MOD SWAP1 POP SWAP3 SWAP2 POP POP JUMP JUMPDEST PUSH32 0x4E487B7100000000000000000000000000000000000000000000000000000000 PUSH1 0x0 MSTORE PUSH1 0x22 PUSH1 0x4 MSTORE PUSH1 0x24 PUSH1 0x0 REVERT JUMPDEST PUSH1 0x0 PUSH1 0x2 DUP3 DIV SWAP1 POP PUSH1 0x1 DUP3 AND DUP1 PUSH2 0x1E2C JUMPI PUSH1 0x7F DUP3 AND SWAP2 POP JUMPDEST PUSH1 0x20 DUP3 LT DUP2 SUB PUSH2 0x1E3F JUMPI PUSH2 0x1E3E PUSH2 0x1DE5 JUMP JUMPDEST JUMPDEST POP SWAP2 SWAP1 POP JUMP JUMPDEST PUSH32 0x4F776E61626C653A206E6577206F776E657220697320746865207A65726F2061 PUSH1 0x0 DUP3 ADD MSTORE PUSH32 0x6464726573730000000000000000000000000000000000000000000000000000 PUSH1 0x20 DUP3 ADD MSTORE POP JUMP JUMPDEST PUSH1 0x0 PUSH2 0x1EA1 PUSH1 0x26 DUP4 PUSH2 0x1B84 JUMP JUMPDEST SWAP2 POP PUSH2 0x1EAC DUP3 PUSH2 0x1E45 JUMP JUMPDEST PUSH1 0x40 DUP3 ADD SWAP1 POP SWAP2 SWAP1 POP JUMP JUMPDEST PUSH1 0x0 PUSH1 0x20 DUP3 ADD SWAP1 POP DUP2 DUP2 SUB PUSH1 0x0 DUP4 ADD MSTORE PUSH2 0x1ED0 DUP2 PUSH2 0x1E94 JUMP JUMPDEST SWAP1 POP SWAP2 SWAP1 POP JUMP JUMPDEST PUSH1 0x0 PUSH2 0x1EE2 DUP3 PUSH2 0x1430 JUMP JUMPDEST SWAP2 POP PUSH2 0x1EED DUP4 PUSH2 0x1430 JUMP JUMPDEST SWAP3 POP DUP3 DUP3 LT ISZERO PUSH2 0x1F00 JUMPI PUSH2 0x1EFF PUSH2 0x1C30 JUMP JUMPDEST JUMPDEST DUP3 DUP3 SUB SWAP1 POP SWAP3 SWAP2 POP POP JUMP JUMPDEST PUSH1 0x0 PUSH2 0x1F16 DUP3 PUSH2 0x1720 JUMP JUMPDEST PUSH2 0x1F20 DUP2 DUP6 PUSH2 0x1B84 JUMP JUMPDEST SWAP4 POP PUSH2 0x1F30 DUP2 DUP6 PUSH1 0x20 DUP7 ADD PUSH2 0x173C JUMP JUMPDEST PUSH2 0x1F39 DUP2 PUSH2 0x159B JUMP JUMPDEST DUP5 ADD SWAP2 POP POP SWAP3 SWAP2 POP POP JUMP JUMPDEST PUSH1 0x0 PUSH1 0x40 DUP3 ADD SWAP1 POP DUP2 DUP2 SUB PUSH1 0x0 DUP4 ADD MSTORE PUSH2 0x1F5E DUP2 DUP6 PUSH2 0x1F0B JUMP JUMPDEST SWAP1 POP PUSH2 0x1F6D PUSH1 0x20 DUP4 ADD DUP5 PUSH2 0x1A90 JUMP JUMPDEST SWAP4 SWAP3 POP POP POP JUMP INVALID LOG2 PUSH5 0x6970667358 0x22 SLT KECCAK256 SAR KECCAK256 DUP8 LOG2 PUSH32 0x643B78DBA8C2CF9C5BB1835CEC019A3B017D4B06AFA77EC3D3DA0764736F6C63 NUMBER STOP ADDMOD 0xE STOP CALLER "
				},
				"gasEstimates": {
					"creation": {
						"codeDepositCost": "1621200",
						"executionCost": "infinite",
						"totalCost": "infinite"
					},
					"external": {
						"changeQuizStatus(uint256,bool)": "27171",
						"createQuiz(string,string,string,string,string,string,uint8,uint8,uint256,uint256)": "infinite",
						"getRandomQuiz(string)": "infinite",
						"owner()": "2544",
						"quizIsActive(uint256)": "2863",
						"quizOwner(uint256)": "2884",
						"quizOwnerChangeHint(uint256,string)": "infinite",
						"quizOwnerChangeStatus(uint256,bool)": "27206",
						"quizOwnerGetQuiz(uint256)": "infinite",
						"renounceOwnership()": "30463",
						"transferOwnership(address)": "30808"
					}
				},
				"methodIdentifiers": {
					"changeQuizStatus(uint256,bool)": "1d3f7559",
					"createQuiz(string,string,string,string,string,string,uint8,uint8,uint256,uint256)": "9a2dc409",
					"getRandomQuiz(string)": "728b0d87",
					"owner()": "8da5cb5b",
					"quizIsActive(uint256)": "51a1d40e",
					"quizOwner(uint256)": "400ae0f9",
					"quizOwnerChangeHint(uint256,string)": "fbb3b6ce",
					"quizOwnerChangeStatus(uint256,bool)": "377def85",
					"quizOwnerGetQuiz(uint256)": "b9360cf1",
					"renounceOwnership()": "715018a6",
					"transferOwnership(address)": "f2fde38b"
				}
			},
			"storageLayout": {
				"storage": [
					{
						"astId": 271,
						"contract": "contracts/ViewQuiz.sol:ViewQuiz",
						"label": "_owner",
						"offset": 0,
						"slot": "0",
						"type": "t_address"
					},
					{
						"astId": 55,
						"contract": "contracts/ViewQuiz.sol:ViewQuiz",
						"label": "quizzes",
						"offset": 0,
						"slot": "1",
						"type": "t_array(t_struct(Quiz)51_storage)dyn_storage"
					},
					{
						"astId": 59,
						"contract": "contracts/ViewQuiz.sol:ViewQuiz",
						"label": "quizIsActive",
						"offset": 0,
						"slot": "2",
						"type": "t_mapping(t_uint256,t_bool)"
					},
					{
						"astId": 63,
						"contract": "contracts/ViewQuiz.sol:ViewQuiz",
						"label": "quizAnswer",
						"offset": 0,
						"slot": "3",
						"type": "t_mapping(t_uint256,t_uint8)"
					},
					{
						"astId": 67,
						"contract": "contracts/ViewQuiz.sol:ViewQuiz",
						"label": "quizOwner",
						"offset": 0,
						"slot": "4",
						"type": "t_mapping(t_uint256,t_address)"
					}
				],
				"types": {
					"t_address": {
						"encoding": "inplace",
						"label": "address",
						"numberOfBytes": "20"
					},
					"t_array(t_struct(Quiz)51_storage)dyn_storage": {
						"base": "t_struct(Quiz)51_storage",
						"encoding": "dynamic_array",
						"label": "struct CreateQuiz.Quiz[]",
						"numberOfBytes": "32"
					},
					"t_bool": {
						"encoding": "inplace",
						"label": "bool",
						"numberOfBytes": "1"
					},
					"t_mapping(t_uint256,t_address)": {
						"encoding": "mapping",
						"key": "t_uint256",
						"label": "mapping(uint256 => address)",
						"numberOfBytes": "32",
						"value": "t_address"
					},
					"t_mapping(t_uint256,t_bool)": {
						"encoding": "mapping",
						"key": "t_uint256",
						"label": "mapping(uint256 => bool)",
						"numberOfBytes": "32",
						"value": "t_bool"
					},
					"t_mapping(t_uint256,t_uint8)": {
						"encoding": "mapping",
						"key": "t_uint256",
						"label": "mapping(uint256 => uint8)",
						"numberOfBytes": "32",
						"value": "t_uint8"
					},
					"t_string_storage": {
						"encoding": "bytes",
						"label": "string",
						"numberOfBytes": "32"
					},
					"t_struct(Quiz)51_storage": {
						"encoding": "inplace",
						"label": "struct CreateQuiz.Quiz",
						"members": [
							{
								"astId": 34,
								"contract": "contracts/ViewQuiz.sol:ViewQuiz",
								"label": "question",
								"offset": 0,
								"slot": "0",
								"type": "t_string_storage"
							},
							{
								"astId": 36,
								"contract": "contracts/ViewQuiz.sol:ViewQuiz",
								"label": "choice1",
								"offset": 0,
								"slot": "1",
								"type": "t_string_storage"
							},
							{
								"astId": 38,
								"contract": "contracts/ViewQuiz.sol:ViewQuiz",
								"label": "choice2",
								"offset": 0,
								"slot": "2",
								"type": "t_string_storage"
							},
							{
								"astId": 40,
								"contract": "contracts/ViewQuiz.sol:ViewQuiz",
								"label": "choice3",
								"offset": 0,
								"slot": "3",
								"type": "t_string_storage"
							},
							{
								"astId": 42,
								"contract": "contracts/ViewQuiz.sol:ViewQuiz",
								"label": "choice4",
								"offset": 0,
								"slot": "4",
								"type": "t_string_storage"
							},
							{
								"astId": 44,
								"contract": "contracts/ViewQuiz.sol:ViewQuiz",
								"label": "hint",
								"offset": 0,
								"slot": "5",
								"type": "t_string_storage"
							},
							{
								"astId": 46,
								"contract": "contracts/ViewQuiz.sol:ViewQuiz",
								"label": "languageCode",
								"offset": 0,
								"slot": "6",
								"type": "t_uint8"
							},
							{
								"astId": 48,
								"contract": "contracts/ViewQuiz.sol:ViewQuiz",
								"label": "reward",
								"offset": 0,
								"slot": "7",
								"type": "t_uint256"
							},
							{
								"astId": 50,
								"contract": "contracts/ViewQuiz.sol:ViewQuiz",
								"label": "rewardPool",
								"offset": 0,
								"slot": "8",
								"type": "t_uint256"
							}
						],
						"numberOfBytes": "288"
					},
					"t_uint256": {
						"encoding": "inplace",
						"label": "uint256",
						"numberOfBytes": "32"
					},
					"t_uint8": {
						"encoding": "inplace",
						"label": "uint8",
						"numberOfBytes": "1"
					}
				}
			},
			"userdoc": {
				"kind": "user",
				"methods": {},
				"version": 1
			}
		}
	}
}