{
	"contracts/CreateQuiz.sol": {
		"CreateQuiz": {
			"abi": [
				{
					"anonymous": false,
					"inputs": [
						{
							"indexed": false,
							"internalType": "string",
							"name": "question",
							"type": "string"
						},
						{
							"indexed": false,
							"internalType": "uint8",
							"name": "answer",
							"type": "uint8"
						}
					],
					"name": "NewQuiz",
					"type": "event"
				},
				{
					"anonymous": false,
					"inputs": [
						{
							"indexed": true,
							"internalType": "address",
							"name": "previousOwner",
							"type": "address"
						},
						{
							"indexed": true,
							"internalType": "address",
							"name": "newOwner",
							"type": "address"
						}
					],
					"name": "OwnershipTransferred",
					"type": "event"
				},
				{
					"inputs": [
						{
							"internalType": "uint256",
							"name": "_quizId",
							"type": "uint256"
						},
						{
							"internalType": "bool",
							"name": "_quizStatus",
							"type": "bool"
						}
					],
					"name": "changeQuizStatus",
					"outputs": [],
					"stateMutability": "nonpayable",
					"type": "function"
				},
				{
					"inputs": [
						{
							"internalType": "string",
							"name": "_question",
							"type": "string"
						},
						{
							"internalType": "string",
							"name": "_choice1",
							"type": "string"
						},
						{
							"internalType": "string",
							"name": "_choice2",
							"type": "string"
						},
						{
							"internalType": "string",
							"name": "_choice3",
							"type": "string"
						},
						{
							"internalType": "string",
							"name": "_choice4",
							"type": "string"
						},
						{
							"internalType": "string",
							"name": "_hint",
							"type": "string"
						},
						{
							"internalType": "uint8",
							"name": "_answer",
							"type": "uint8"
						},
						{
							"internalType": "uint8",
							"name": "_languageCode",
							"type": "uint8"
						},
						{
							"internalType": "uint256",
							"name": "_reward",
							"type": "uint256"
						},
						{
							"internalType": "uint256",
							"name": "_rewardPool",
							"type": "uint256"
						}
					],
					"name": "createQuiz",
					"outputs": [],
					"stateMutability": "payable",
					"type": "function"
				},
				{
					"inputs": [],
					"name": "owner",
					"outputs": [
						{
							"internalType": "address",
							"name": "",
							"type": "address"
						}
					],
					"stateMutability": "view",
					"type": "function"
				},
				{
					"inputs": [
						{
							"internalType": "uint256",
							"name": "",
							"type": "uint256"
						}
					],
					"name": "quizIsActive",
					"outputs": [
						{
							"internalType": "bool",
							"name": "",
							"type": "bool"
						}
					],
					"stateMutability": "view",
					"type": "function"
				},
				{
					"inputs": [
						{
							"internalType": "uint256",
							"name": "",
							"type": "uint256"
						}
					],
					"name": "quizOwner",
					"outputs": [
						{
							"internalType": "address",
							"name": "",
							"type": "address"
						}
					],
					"stateMutability": "view",
					"type": "function"
				},
				{
					"inputs": [
						{
							"internalType": "uint256",
							"name": "_quizId",
							"type": "uint256"
						},
						{
							"internalType": "string",
							"name": "_hint",
							"type": "string"
						}
					],
					"name": "quizOwnerChangeHint",
					"outputs": [],
					"stateMutability": "nonpayable",
					"type": "function"
				},
				{
					"inputs": [
						{
							"internalType": "uint256",
							"name": "_quizId",
							"type": "uint256"
						},
						{
							"internalType": "bool",
							"name": "_quizStatus",
							"type": "bool"
						}
					],
					"name": "quizOwnerChangeStatus",
					"outputs": [],
					"stateMutability": "nonpayable",
					"type": "function"
				},
				{
					"inputs": [],
					"name": "renounceOwnership",
					"outputs": [],
					"stateMutability": "nonpayable",
					"type": "function"
				},
				{
					"inputs": [
						{
							"internalType": "address",
							"name": "newOwner",
							"type": "address"
						}
					],
					"name": "transferOwnership",
					"outputs": [],
					"stateMutability": "nonpayable",
					"type": "function"
				}
			],
			"devdoc": {
				"kind": "dev",
				"methods": {
					"owner()": {
						"details": "Returns the address of the current owner."
					},
					"renounceOwnership()": {
						"details": "Leaves the contract without owner. It will not be possible to call `onlyOwner` functions anymore. Can only be called by the current owner. NOTE: Renouncing ownership will leave the contract without an owner, thereby removing any functionality that is only available to the owner."
					},
					"transferOwnership(address)": {
						"details": "Transfers ownership of the contract to a new account (`newOwner`). Can only be called by the current owner."
					}
				},
				"version": 1
			},
			"evm": {
				"assembly": "    /* \"contracts/CreateQuiz.sol\":90:2512  contract CreateQuiz is Ownable {... */\n  mstore(0x40, 0x80)\n  callvalue\n  dup1\n  iszero\n  tag_1\n  jumpi\n  0x00\n  dup1\n  revert\ntag_1:\n  pop\n    /* \"contracts/Ownable.sol\":914:946  _transferOwnership(_msgSender()) */\n  tag_4\n    /* \"contracts/Ownable.sol\":933:945  _msgSender() */\n  tag_5\n    /* \"contracts/Ownable.sol\":933:943  _msgSender */\n  shl(0x20, tag_6)\n    /* \"contracts/Ownable.sol\":933:945  _msgSender() */\n  0x20\n  shr\n  jump\t// in\ntag_5:\n    /* \"contracts/Ownable.sol\":914:932  _transferOwnership */\n  shl(0x20, tag_7)\n    /* \"contracts/Ownable.sol\":914:946  _transferOwnership(_msgSender()) */\n  0x20\n  shr\n  jump\t// in\ntag_4:\n    /* \"contracts/CreateQuiz.sol\":90:2512  contract CreateQuiz is Ownable {... */\n  jump(tag_8)\n    /* \"contracts/Context.sol\":640:736  function _msgSender() internal view virtual returns (address) {... */\ntag_6:\n    /* \"contracts/Context.sol\":693:700  address */\n  0x00\n    /* \"contracts/Context.sol\":719:729  msg.sender */\n  caller\n    /* \"contracts/Context.sol\":712:729  return msg.sender */\n  swap1\n  pop\n    /* \"contracts/Context.sol\":640:736  function _msgSender() internal view virtual returns (address) {... */\n  swap1\n  jump\t// out\n    /* \"contracts/Ownable.sol\":2263:2450  function _transferOwnership(address newOwner) internal virtual {... */\ntag_7:\n    /* \"contracts/Ownable.sol\":2336:2352  address oldOwner */\n  0x00\n    /* \"contracts/Ownable.sol\":2355:2361  _owner */\n  dup1\n  0x00\n  swap1\n  sload\n  swap1\n  0x0100\n  exp\n  swap1\n  div\n  0xffffffffffffffffffffffffffffffffffffffff\n  and\n    /* \"contracts/Ownable.sol\":2336:2361  address oldOwner = _owner */\n  swap1\n  pop\n    /* \"contracts/Ownable.sol\":2380:2388  newOwner */\n  dup2\n    /* \"contracts/Ownable.sol\":2371:2377  _owner */\n  0x00\n  dup1\n    /* \"contracts/Ownable.sol\":2371:2388  _owner = newOwner */\n  0x0100\n  exp\n  dup2\n  sload\n  dup2\n  0xffffffffffffffffffffffffffffffffffffffff\n  mul\n  not\n  and\n  swap1\n  dup4\n  0xffffffffffffffffffffffffffffffffffffffff\n  and\n  mul\n  or\n  swap1\n  sstore\n  pop\n    /* \"contracts/Ownable.sol\":2434:2442  newOwner */\n  dup2\n    /* \"contracts/Ownable.sol\":2403:2443  OwnershipTransferred(oldOwner, newOwner) */\n  0xffffffffffffffffffffffffffffffffffffffff\n  and\n    /* \"contracts/Ownable.sol\":2424:2432  oldOwner */\n  dup2\n    /* \"contracts/Ownable.sol\":2403:2443  OwnershipTransferred(oldOwner, newOwner) */\n  0xffffffffffffffffffffffffffffffffffffffff\n  and\n  0x8be0079c531659141344cd1fd0a4f28419497f9722a3daafe3b4186f6b6457e0\n  mload(0x40)\n  mload(0x40)\n  dup1\n  swap2\n  sub\n  swap1\n  log3\n    /* \"contracts/Ownable.sol\":2326:2450  {... */\n  pop\n    /* \"contracts/Ownable.sol\":2263:2450  function _transferOwnership(address newOwner) internal virtual {... */\n  pop\n  jump\t// out\n    /* \"contracts/CreateQuiz.sol\":90:2512  contract CreateQuiz is Ownable {... */\ntag_8:\n  dataSize(sub_0)\n  dup1\n  dataOffset(sub_0)\n  0x00\n  codecopy\n  0x00\n  return\nstop\n\nsub_0: assembly {\n        /* \"contracts/CreateQuiz.sol\":90:2512  contract CreateQuiz is Ownable {... */\n      mstore(0x40, 0x80)\n      jumpi(tag_1, lt(calldatasize, 0x04))\n      shr(0xe0, calldataload(0x00))\n      dup1\n      0x715018a6\n      gt\n      tag_11\n      jumpi\n      dup1\n      0x715018a6\n      eq\n      tag_6\n      jumpi\n      dup1\n      0x8da5cb5b\n      eq\n      tag_7\n      jumpi\n      dup1\n      0x9a2dc409\n      eq\n      tag_8\n      jumpi\n      dup1\n      0xf2fde38b\n      eq\n      tag_9\n      jumpi\n      dup1\n      0xfbb3b6ce\n      eq\n      tag_10\n      jumpi\n      jump(tag_1)\n    tag_11:\n      dup1\n      0x1d3f7559\n      eq\n      tag_2\n      jumpi\n      dup1\n      0x377def85\n      eq\n      tag_3\n      jumpi\n      dup1\n      0x400ae0f9\n      eq\n      tag_4\n      jumpi\n      dup1\n      0x51a1d40e\n      eq\n      tag_5\n      jumpi\n    tag_1:\n      0x00\n      dup1\n      revert\n        /* \"contracts/CreateQuiz.sol\":2382:2509  function changeQuizStatus(uint _quizId, bool _quizStatus) public onlyOwner {... */\n    tag_2:\n      callvalue\n      dup1\n      iszero\n      tag_12\n      jumpi\n      0x00\n      dup1\n      revert\n    tag_12:\n      pop\n      tag_13\n      0x04\n      dup1\n      calldatasize\n      sub\n      dup2\n      add\n      swap1\n      tag_14\n      swap2\n      swap1\n      tag_15\n      jump\t// in\n    tag_14:\n      tag_16\n      jump\t// in\n    tag_13:\n      stop\n        /* \"contracts/CreateQuiz.sol\":1946:2091  function quizOwnerChangeStatus(uint _quizId, bool _quizStatus) public onlyQuizOwner(_quizId) {... */\n    tag_3:\n      callvalue\n      dup1\n      iszero\n      tag_17\n      jumpi\n      0x00\n      dup1\n      revert\n    tag_17:\n      pop\n      tag_18\n      0x04\n      dup1\n      calldatasize\n      sub\n      dup2\n      add\n      swap1\n      tag_19\n      swap2\n      swap1\n      tag_15\n      jump\t// in\n    tag_19:\n      tag_20\n      jump\t// in\n    tag_18:\n      stop\n        /* \"contracts/CreateQuiz.sol\":547:589  mapping (uint => address) public quizOwner */\n    tag_4:\n      callvalue\n      dup1\n      iszero\n      tag_21\n      jumpi\n      0x00\n      dup1\n      revert\n    tag_21:\n      pop\n      tag_22\n      0x04\n      dup1\n      calldatasize\n      sub\n      dup2\n      add\n      swap1\n      tag_23\n      swap2\n      swap1\n      tag_24\n      jump\t// in\n    tag_23:\n      tag_25\n      jump\t// in\n    tag_22:\n      mload(0x40)\n      tag_26\n      swap2\n      swap1\n      tag_27\n      jump\t// in\n    tag_26:\n      mload(0x40)\n      dup1\n      swap2\n      sub\n      swap1\n      return\n        /* \"contracts/CreateQuiz.sol\":450:492  mapping (uint => bool) public quizIsActive */\n    tag_5:\n      callvalue\n      dup1\n      iszero\n      tag_28\n      jumpi\n      0x00\n      dup1\n      revert\n    tag_28:\n      pop\n      tag_29\n      0x04\n      dup1\n      calldatasize\n      sub\n      dup2\n      add\n      swap1\n      tag_30\n      swap2\n      swap1\n      tag_24\n      jump\t// in\n    tag_30:\n      tag_31\n      jump\t// in\n    tag_29:\n      mload(0x40)\n      tag_32\n      swap2\n      swap1\n      tag_33\n      jump\t// in\n    tag_32:\n      mload(0x40)\n      dup1\n      swap2\n      sub\n      swap1\n      return\n        /* \"contracts/Ownable.sol\":1661:1762  function renounceOwnership() public virtual onlyOwner {... */\n    tag_6:\n      callvalue\n      dup1\n      iszero\n      tag_34\n      jumpi\n      0x00\n      dup1\n      revert\n    tag_34:\n      pop\n      tag_35\n      tag_36\n      jump\t// in\n    tag_35:\n      stop\n        /* \"contracts/Ownable.sol\":1029:1114  function owner() public view virtual returns (address) {... */\n    tag_7:\n      callvalue\n      dup1\n      iszero\n      tag_37\n      jumpi\n      0x00\n      dup1\n      revert\n    tag_37:\n      pop\n      tag_38\n      tag_39\n      jump\t// in\n    tag_38:\n      mload(0x40)\n      tag_40\n      swap2\n      swap1\n      tag_27\n      jump\t// in\n    tag_40:\n      mload(0x40)\n      dup1\n      swap2\n      sub\n      swap1\n      return\n        /* \"contracts/CreateQuiz.sol\":1378:1883  function createQuiz(string memory _question, string memory _choice1, string memory _choice2, string memory _choice3, string memory _choice4, string memory _hint, uint8 _answer, uint8 _languageCode, uint _reward, uint _rewardPool) public payable {... */\n    tag_8:\n      tag_41\n      0x04\n      dup1\n      calldatasize\n      sub\n      dup2\n      add\n      swap1\n      tag_42\n      swap2\n      swap1\n      tag_43\n      jump\t// in\n    tag_42:\n      tag_44\n      jump\t// in\n    tag_41:\n      stop\n        /* \"contracts/Ownable.sol\":1911:2109  function transferOwnership(address newOwner) public virtual onlyOwner {... */\n    tag_9:\n      callvalue\n      dup1\n      iszero\n      tag_45\n      jumpi\n      0x00\n      dup1\n      revert\n    tag_45:\n      pop\n      tag_46\n      0x04\n      dup1\n      calldatasize\n      sub\n      dup2\n      add\n      swap1\n      tag_47\n      swap2\n      swap1\n      tag_48\n      jump\t// in\n    tag_47:\n      tag_49\n      jump\t// in\n    tag_46:\n      stop\n        /* \"contracts/CreateQuiz.sol\":2152:2292  function quizOwnerChangeHint(uint _quizId, string memory _hint) public onlyQuizOwner(_quizId) {... */\n    tag_10:\n      callvalue\n      dup1\n      iszero\n      tag_50\n      jumpi\n      0x00\n      dup1\n      revert\n    tag_50:\n      pop\n      tag_51\n      0x04\n      dup1\n      calldatasize\n      sub\n      dup2\n      add\n      swap1\n      tag_52\n      swap2\n      swap1\n      tag_53\n      jump\t// in\n    tag_52:\n      tag_54\n      jump\t// in\n    tag_51:\n      stop\n        /* \"contracts/CreateQuiz.sol\":2382:2509  function changeQuizStatus(uint _quizId, bool _quizStatus) public onlyOwner {... */\n    tag_16:\n        /* \"contracts/Ownable.sol\":1252:1264  _msgSender() */\n      tag_56\n        /* \"contracts/Ownable.sol\":1252:1262  _msgSender */\n      tag_57\n        /* \"contracts/Ownable.sol\":1252:1264  _msgSender() */\n      jump\t// in\n    tag_56:\n        /* \"contracts/Ownable.sol\":1241:1264  owner() == _msgSender() */\n      0xffffffffffffffffffffffffffffffffffffffff\n      and\n        /* \"contracts/Ownable.sol\":1241:1248  owner() */\n      tag_58\n        /* \"contracts/Ownable.sol\":1241:1246  owner */\n      tag_39\n        /* \"contracts/Ownable.sol\":1241:1248  owner() */\n      jump\t// in\n    tag_58:\n        /* \"contracts/Ownable.sol\":1241:1264  owner() == _msgSender() */\n      0xffffffffffffffffffffffffffffffffffffffff\n      and\n      eq\n        /* \"contracts/Ownable.sol\":1233:1301  require(owner() == _msgSender(), \"Ownable: caller is not the owner\") */\n      tag_59\n      jumpi\n      mload(0x40)\n      0x08c379a000000000000000000000000000000000000000000000000000000000\n      dup2\n      mstore\n      0x04\n      add\n      tag_60\n      swap1\n      tag_61\n      jump\t// in\n    tag_60:\n      mload(0x40)\n      dup1\n      swap2\n      sub\n      swap1\n      revert\n    tag_59:\n        /* \"contracts/CreateQuiz.sol\":2491:2502  _quizStatus */\n      dup1\n        /* \"contracts/CreateQuiz.sol\":2467:2479  quizIsActive */\n      0x02\n        /* \"contracts/CreateQuiz.sol\":2467:2488  quizIsActive[_quizId] */\n      0x00\n        /* \"contracts/CreateQuiz.sol\":2480:2487  _quizId */\n      dup5\n        /* \"contracts/CreateQuiz.sol\":2467:2488  quizIsActive[_quizId] */\n      dup2\n      mstore\n      0x20\n      add\n      swap1\n      dup2\n      mstore\n      0x20\n      add\n      0x00\n      keccak256\n      0x00\n        /* \"contracts/CreateQuiz.sol\":2467:2502  quizIsActive[_quizId] = _quizStatus */\n      0x0100\n      exp\n      dup2\n      sload\n      dup2\n      0xff\n      mul\n      not\n      and\n      swap1\n      dup4\n      iszero\n      iszero\n      mul\n      or\n      swap1\n      sstore\n      pop\n        /* \"contracts/CreateQuiz.sol\":2382:2509  function changeQuizStatus(uint _quizId, bool _quizStatus) public onlyOwner {... */\n      pop\n      pop\n      jump\t// out\n        /* \"contracts/CreateQuiz.sol\":1946:2091  function quizOwnerChangeStatus(uint _quizId, bool _quizStatus) public onlyQuizOwner(_quizId) {... */\n    tag_20:\n        /* \"contracts/CreateQuiz.sol\":2030:2037  _quizId */\n      dup2\n        /* \"contracts/CreateQuiz.sol\":674:684  msg.sender */\n      caller\n        /* \"contracts/CreateQuiz.sol\":652:684  quizOwner[_quizId] == msg.sender */\n      0xffffffffffffffffffffffffffffffffffffffff\n      and\n        /* \"contracts/CreateQuiz.sol\":652:661  quizOwner */\n      0x04\n        /* \"contracts/CreateQuiz.sol\":652:670  quizOwner[_quizId] */\n      0x00\n        /* \"contracts/CreateQuiz.sol\":662:669  _quizId */\n      dup4\n        /* \"contracts/CreateQuiz.sol\":652:670  quizOwner[_quizId] */\n      dup2\n      mstore\n      0x20\n      add\n      swap1\n      dup2\n      mstore\n      0x20\n      add\n      0x00\n      keccak256\n      0x00\n      swap1\n      sload\n      swap1\n      0x0100\n      exp\n      swap1\n      div\n      0xffffffffffffffffffffffffffffffffffffffff\n      and\n        /* \"contracts/CreateQuiz.sol\":652:684  quizOwner[_quizId] == msg.sender */\n      0xffffffffffffffffffffffffffffffffffffffff\n      and\n      eq\n        /* \"contracts/CreateQuiz.sol\":644:685  require(quizOwner[_quizId] == msg.sender) */\n      tag_64\n      jumpi\n      0x00\n      dup1\n      revert\n    tag_64:\n        /* \"contracts/CreateQuiz.sol\":2073:2084  _quizStatus */\n      dup2\n        /* \"contracts/CreateQuiz.sol\":2049:2061  quizIsActive */\n      0x02\n        /* \"contracts/CreateQuiz.sol\":2049:2070  quizIsActive[_quizId] */\n      0x00\n        /* \"contracts/CreateQuiz.sol\":2062:2069  _quizId */\n      dup6\n        /* \"contracts/CreateQuiz.sol\":2049:2070  quizIsActive[_quizId] */\n      dup2\n      mstore\n      0x20\n      add\n      swap1\n      dup2\n      mstore\n      0x20\n      add\n      0x00\n      keccak256\n      0x00\n        /* \"contracts/CreateQuiz.sol\":2049:2084  quizIsActive[_quizId] = _quizStatus */\n      0x0100\n      exp\n      dup2\n      sload\n      dup2\n      0xff\n      mul\n      not\n      and\n      swap1\n      dup4\n      iszero\n      iszero\n      mul\n      or\n      swap1\n      sstore\n      pop\n        /* \"contracts/CreateQuiz.sol\":1946:2091  function quizOwnerChangeStatus(uint _quizId, bool _quizStatus) public onlyQuizOwner(_quizId) {... */\n      pop\n      pop\n      pop\n      jump\t// out\n        /* \"contracts/CreateQuiz.sol\":547:589  mapping (uint => address) public quizOwner */\n    tag_25:\n      mstore(0x20, 0x04)\n      dup1\n      0x00\n      mstore\n      keccak256(0x00, 0x40)\n      0x00\n      swap2\n      pop\n      sload\n      swap1\n      0x0100\n      exp\n      swap1\n      div\n      0xffffffffffffffffffffffffffffffffffffffff\n      and\n      dup2\n      jump\t// out\n        /* \"contracts/CreateQuiz.sol\":450:492  mapping (uint => bool) public quizIsActive */\n    tag_31:\n      mstore(0x20, 0x02)\n      dup1\n      0x00\n      mstore\n      keccak256(0x00, 0x40)\n      0x00\n      swap2\n      pop\n      sload\n      swap1\n      0x0100\n      exp\n      swap1\n      div\n      0xff\n      and\n      dup2\n      jump\t// out\n        /* \"contracts/Ownable.sol\":1661:1762  function renounceOwnership() public virtual onlyOwner {... */\n    tag_36:\n        /* \"contracts/Ownable.sol\":1252:1264  _msgSender() */\n      tag_67\n        /* \"contracts/Ownable.sol\":1252:1262  _msgSender */\n      tag_57\n        /* \"contracts/Ownable.sol\":1252:1264  _msgSender() */\n      jump\t// in\n    tag_67:\n        /* \"contracts/Ownable.sol\":1241:1264  owner() == _msgSender() */\n      0xffffffffffffffffffffffffffffffffffffffff\n      and\n        /* \"contracts/Ownable.sol\":1241:1248  owner() */\n      tag_68\n        /* \"contracts/Ownable.sol\":1241:1246  owner */\n      tag_39\n        /* \"contracts/Ownable.sol\":1241:1248  owner() */\n      jump\t// in\n    tag_68:\n        /* \"contracts/Ownable.sol\":1241:1264  owner() == _msgSender() */\n      0xffffffffffffffffffffffffffffffffffffffff\n      and\n      eq\n        /* \"contracts/Ownable.sol\":1233:1301  require(owner() == _msgSender(), \"Ownable: caller is not the owner\") */\n      tag_69\n      jumpi\n      mload(0x40)\n      0x08c379a000000000000000000000000000000000000000000000000000000000\n      dup2\n      mstore\n      0x04\n      add\n      tag_70\n      swap1\n      tag_61\n      jump\t// in\n    tag_70:\n      mload(0x40)\n      dup1\n      swap2\n      sub\n      swap1\n      revert\n    tag_69:\n        /* \"contracts/Ownable.sol\":1725:1755  _transferOwnership(address(0)) */\n      tag_72\n        /* \"contracts/Ownable.sol\":1752:1753  0 */\n      0x00\n        /* \"contracts/Ownable.sol\":1725:1743  _transferOwnership */\n      tag_73\n        /* \"contracts/Ownable.sol\":1725:1755  _transferOwnership(address(0)) */\n      jump\t// in\n    tag_72:\n        /* \"contracts/Ownable.sol\":1661:1762  function renounceOwnership() public virtual onlyOwner {... */\n      jump\t// out\n        /* \"contracts/Ownable.sol\":1029:1114  function owner() public view virtual returns (address) {... */\n    tag_39:\n        /* \"contracts/Ownable.sol\":1075:1082  address */\n      0x00\n        /* \"contracts/Ownable.sol\":1101:1107  _owner */\n      dup1\n      0x00\n      swap1\n      sload\n      swap1\n      0x0100\n      exp\n      swap1\n      div\n      0xffffffffffffffffffffffffffffffffffffffff\n      and\n        /* \"contracts/Ownable.sol\":1094:1107  return _owner */\n      swap1\n      pop\n        /* \"contracts/Ownable.sol\":1029:1114  function owner() public view virtual returns (address) {... */\n      swap1\n      jump\t// out\n        /* \"contracts/CreateQuiz.sol\":1378:1883  function createQuiz(string memory _question, string memory _choice1, string memory _choice2, string memory _choice3, string memory _choice4, string memory _hint, uint8 _answer, uint8 _languageCode, uint _reward, uint _rewardPool) public payable {... */\n    tag_44:\n        /* \"contracts/CreateQuiz.sol\":1654:1665  _rewardPool */\n      dup1\n        /* \"contracts/CreateQuiz.sol\":1641:1650  msg.value */\n      callvalue\n        /* \"contracts/CreateQuiz.sol\":1641:1665  msg.value == _rewardPool */\n      eq\n        /* \"contracts/CreateQuiz.sol\":1633:1666  require(msg.value == _rewardPool) */\n      tag_76\n      jumpi\n      0x00\n      dup1\n      revert\n    tag_76:\n        /* \"contracts/CreateQuiz.sol\":1709:1710  0 */\n      0x00\n        /* \"contracts/CreateQuiz.sol\":1698:1705  _reward */\n      dup3\n        /* \"contracts/CreateQuiz.sol\":1684:1695  _rewardPool */\n      dup3\n        /* \"contracts/CreateQuiz.sol\":1684:1705  _rewardPool % _reward */\n      tag_77\n      swap2\n      swap1\n      tag_78\n      jump\t// in\n    tag_77:\n        /* \"contracts/CreateQuiz.sol\":1684:1710  _rewardPool % _reward == 0 */\n      eq\n        /* \"contracts/CreateQuiz.sol\":1676:1711  require(_rewardPool % _reward == 0) */\n      tag_79\n      jumpi\n      0x00\n      dup1\n      revert\n    tag_79:\n        /* \"contracts/CreateQuiz.sol\":1743:1750  _reward */\n      dup2\n        /* \"contracts/CreateQuiz.sol\":1729:1740  _rewardPool */\n      dup2\n        /* \"contracts/CreateQuiz.sol\":1729:1750  _rewardPool > _reward */\n      gt\n        /* \"contracts/CreateQuiz.sol\":1721:1751  require(_rewardPool > _reward) */\n      tag_80\n      jumpi\n      0x00\n      dup1\n      revert\n    tag_80:\n        /* \"contracts/CreateQuiz.sol\":1761:1876  _createQuiz(_question, _choice1, _choice2, _choice3, _choice4, _hint, _answer, _languageCode, _reward, _rewardPool) */\n      tag_81\n        /* \"contracts/CreateQuiz.sol\":1773:1782  _question */\n      dup11\n        /* \"contracts/CreateQuiz.sol\":1784:1792  _choice1 */\n      dup11\n        /* \"contracts/CreateQuiz.sol\":1794:1802  _choice2 */\n      dup11\n        /* \"contracts/CreateQuiz.sol\":1804:1812  _choice3 */\n      dup11\n        /* \"contracts/CreateQuiz.sol\":1814:1822  _choice4 */\n      dup11\n        /* \"contracts/CreateQuiz.sol\":1824:1829  _hint */\n      dup11\n        /* \"contracts/CreateQuiz.sol\":1831:1838  _answer */\n      dup11\n        /* \"contracts/CreateQuiz.sol\":1840:1853  _languageCode */\n      dup11\n        /* \"contracts/CreateQuiz.sol\":1855:1862  _reward */\n      dup11\n        /* \"contracts/CreateQuiz.sol\":1864:1875  _rewardPool */\n      dup11\n        /* \"contracts/CreateQuiz.sol\":1761:1772  _createQuiz */\n      tag_82\n        /* \"contracts/CreateQuiz.sol\":1761:1876  _createQuiz(_question, _choice1, _choice2, _choice3, _choice4, _hint, _answer, _languageCode, _reward, _rewardPool) */\n      jump\t// in\n    tag_81:\n        /* \"contracts/CreateQuiz.sol\":1378:1883  function createQuiz(string memory _question, string memory _choice1, string memory _choice2, string memory _choice3, string memory _choice4, string memory _hint, uint8 _answer, uint8 _languageCode, uint _reward, uint _rewardPool) public payable {... */\n      pop\n      pop\n      pop\n      pop\n      pop\n      pop\n      pop\n      pop\n      pop\n      pop\n      jump\t// out\n        /* \"contracts/Ownable.sol\":1911:2109  function transferOwnership(address newOwner) public virtual onlyOwner {... */\n    tag_49:\n        /* \"contracts/Ownable.sol\":1252:1264  _msgSender() */\n      tag_84\n        /* \"contracts/Ownable.sol\":1252:1262  _msgSender */\n      tag_57\n        /* \"contracts/Ownable.sol\":1252:1264  _msgSender() */\n      jump\t// in\n    tag_84:\n        /* \"contracts/Ownable.sol\":1241:1264  owner() == _msgSender() */\n      0xffffffffffffffffffffffffffffffffffffffff\n      and\n        /* \"contracts/Ownable.sol\":1241:1248  owner() */\n      tag_85\n        /* \"contracts/Ownable.sol\":1241:1246  owner */\n      tag_39\n        /* \"contracts/Ownable.sol\":1241:1248  owner() */\n      jump\t// in\n    tag_85:\n        /* \"contracts/Ownable.sol\":1241:1264  owner() == _msgSender() */\n      0xffffffffffffffffffffffffffffffffffffffff\n      and\n      eq\n        /* \"contracts/Ownable.sol\":1233:1301  require(owner() == _msgSender(), \"Ownable: caller is not the owner\") */\n      tag_86\n      jumpi\n      mload(0x40)\n      0x08c379a000000000000000000000000000000000000000000000000000000000\n      dup2\n      mstore\n      0x04\n      add\n      tag_87\n      swap1\n      tag_61\n      jump\t// in\n    tag_87:\n      mload(0x40)\n      dup1\n      swap2\n      sub\n      swap1\n      revert\n    tag_86:\n        /* \"contracts/Ownable.sol\":2019:2020  0 */\n      0x00\n        /* \"contracts/Ownable.sol\":1999:2021  newOwner != address(0) */\n      0xffffffffffffffffffffffffffffffffffffffff\n      and\n        /* \"contracts/Ownable.sol\":1999:2007  newOwner */\n      dup2\n        /* \"contracts/Ownable.sol\":1999:2021  newOwner != address(0) */\n      0xffffffffffffffffffffffffffffffffffffffff\n      and\n      sub\n        /* \"contracts/Ownable.sol\":1991:2064  require(newOwner != address(0), \"Ownable: new owner is the zero address\") */\n      tag_89\n      jumpi\n      mload(0x40)\n      0x08c379a000000000000000000000000000000000000000000000000000000000\n      dup2\n      mstore\n      0x04\n      add\n      tag_90\n      swap1\n      tag_91\n      jump\t// in\n    tag_90:\n      mload(0x40)\n      dup1\n      swap2\n      sub\n      swap1\n      revert\n    tag_89:\n        /* \"contracts/Ownable.sol\":2074:2102  _transferOwnership(newOwner) */\n      tag_92\n        /* \"contracts/Ownable.sol\":2093:2101  newOwner */\n      dup2\n        /* \"contracts/Ownable.sol\":2074:2092  _transferOwnership */\n      tag_73\n        /* \"contracts/Ownable.sol\":2074:2102  _transferOwnership(newOwner) */\n      jump\t// in\n    tag_92:\n        /* \"contracts/Ownable.sol\":1911:2109  function transferOwnership(address newOwner) public virtual onlyOwner {... */\n      pop\n      jump\t// out\n        /* \"contracts/CreateQuiz.sol\":2152:2292  function quizOwnerChangeHint(uint _quizId, string memory _hint) public onlyQuizOwner(_quizId) {... */\n    tag_54:\n        /* \"contracts/CreateQuiz.sol\":2237:2244  _quizId */\n      dup2\n        /* \"contracts/CreateQuiz.sol\":674:684  msg.sender */\n      caller\n        /* \"contracts/CreateQuiz.sol\":652:684  quizOwner[_quizId] == msg.sender */\n      0xffffffffffffffffffffffffffffffffffffffff\n      and\n        /* \"contracts/CreateQuiz.sol\":652:661  quizOwner */\n      0x04\n        /* \"contracts/CreateQuiz.sol\":652:670  quizOwner[_quizId] */\n      0x00\n        /* \"contracts/CreateQuiz.sol\":662:669  _quizId */\n      dup4\n        /* \"contracts/CreateQuiz.sol\":652:670  quizOwner[_quizId] */\n      dup2\n      mstore\n      0x20\n      add\n      swap1\n      dup2\n      mstore\n      0x20\n      add\n      0x00\n      keccak256\n      0x00\n      swap1\n      sload\n      swap1\n      0x0100\n      exp\n      swap1\n      div\n      0xffffffffffffffffffffffffffffffffffffffff\n      and\n        /* \"contracts/CreateQuiz.sol\":652:684  quizOwner[_quizId] == msg.sender */\n      0xffffffffffffffffffffffffffffffffffffffff\n      and\n      eq\n        /* \"contracts/CreateQuiz.sol\":644:685  require(quizOwner[_quizId] == msg.sender) */\n      tag_94\n      jumpi\n      0x00\n      dup1\n      revert\n    tag_94:\n        /* \"contracts/CreateQuiz.sol\":2280:2285  _hint */\n      dup2\n        /* \"contracts/CreateQuiz.sol\":2256:2263  quizzes */\n      0x01\n        /* \"contracts/CreateQuiz.sol\":2264:2271  _quizId */\n      dup5\n        /* \"contracts/CreateQuiz.sol\":2256:2272  quizzes[_quizId] */\n      dup2\n      sload\n      dup2\n      lt\n      tag_96\n      jumpi\n      tag_97\n      tag_98\n      jump\t// in\n    tag_97:\n    tag_96:\n      swap1\n      0x00\n      mstore\n      keccak256(0x00, 0x20)\n      swap1\n      0x09\n      mul\n      add\n        /* \"contracts/CreateQuiz.sol\":2256:2277  quizzes[_quizId].hint */\n      0x05\n      add\n        /* \"contracts/CreateQuiz.sol\":2256:2285  quizzes[_quizId].hint = _hint */\n      swap1\n      dup1\n      mload\n      swap1\n      0x20\n      add\n      swap1\n      tag_100\n      swap3\n      swap2\n      swap1\n      tag_101\n      jump\t// in\n    tag_100:\n      pop\n        /* \"contracts/CreateQuiz.sol\":2152:2292  function quizOwnerChangeHint(uint _quizId, string memory _hint) public onlyQuizOwner(_quizId) {... */\n      pop\n      pop\n      pop\n      jump\t// out\n        /* \"contracts/Context.sol\":640:736  function _msgSender() internal view virtual returns (address) {... */\n    tag_57:\n        /* \"contracts/Context.sol\":693:700  address */\n      0x00\n        /* \"contracts/Context.sol\":719:729  msg.sender */\n      caller\n        /* \"contracts/Context.sol\":712:729  return msg.sender */\n      swap1\n      pop\n        /* \"contracts/Context.sol\":640:736  function _msgSender() internal view virtual returns (address) {... */\n      swap1\n      jump\t// out\n        /* \"contracts/Ownable.sol\":2263:2450  function _transferOwnership(address newOwner) internal virtual {... */\n    tag_73:\n        /* \"contracts/Ownable.sol\":2336:2352  address oldOwner */\n      0x00\n        /* \"contracts/Ownable.sol\":2355:2361  _owner */\n      dup1\n      0x00\n      swap1\n      sload\n      swap1\n      0x0100\n      exp\n      swap1\n      div\n      0xffffffffffffffffffffffffffffffffffffffff\n      and\n        /* \"contracts/Ownable.sol\":2336:2361  address oldOwner = _owner */\n      swap1\n      pop\n        /* \"contracts/Ownable.sol\":2380:2388  newOwner */\n      dup2\n        /* \"contracts/Ownable.sol\":2371:2377  _owner */\n      0x00\n      dup1\n        /* \"contracts/Ownable.sol\":2371:2388  _owner = newOwner */\n      0x0100\n      exp\n      dup2\n      sload\n      dup2\n      0xffffffffffffffffffffffffffffffffffffffff\n      mul\n      not\n      and\n      swap1\n      dup4\n      0xffffffffffffffffffffffffffffffffffffffff\n      and\n      mul\n      or\n      swap1\n      sstore\n      pop\n        /* \"contracts/Ownable.sol\":2434:2442  newOwner */\n      dup2\n        /* \"contracts/Ownable.sol\":2403:2443  OwnershipTransferred(oldOwner, newOwner) */\n      0xffffffffffffffffffffffffffffffffffffffff\n      and\n        /* \"contracts/Ownable.sol\":2424:2432  oldOwner */\n      dup2\n        /* \"contracts/Ownable.sol\":2403:2443  OwnershipTransferred(oldOwner, newOwner) */\n      0xffffffffffffffffffffffffffffffffffffffff\n      and\n      0x8be0079c531659141344cd1fd0a4f28419497f9722a3daafe3b4186f6b6457e0\n      mload(0x40)\n      mload(0x40)\n      dup1\n      swap2\n      sub\n      swap1\n      log3\n        /* \"contracts/Ownable.sol\":2326:2450  {... */\n      pop\n        /* \"contracts/Ownable.sol\":2263:2450  function _transferOwnership(address newOwner) internal virtual {... */\n      pop\n      jump\t// out\n        /* \"contracts/CreateQuiz.sol\":781:1333  function _createQuiz(string memory _question, string memory _choice1, string memory _choice2, string memory _choice3, string memory _choice4, string memory _hint, uint8 _answer, uint8 _languageCode, uint _reward, uint _rewardPool) private {... */\n    tag_82:\n        /* \"contracts/CreateQuiz.sol\":1030:1037  quizzes */\n      0x01\n        /* \"contracts/CreateQuiz.sol\":1043:1142  Quiz(_question, _choice1, _choice2, _choice3, _choice4, _hint, _languageCode, _reward, _rewardPool) */\n      mload(0x40)\n      dup1\n      0x0120\n      add\n      0x40\n      mstore\n      dup1\n        /* \"contracts/CreateQuiz.sol\":1048:1057  _question */\n      dup13\n        /* \"contracts/CreateQuiz.sol\":1043:1142  Quiz(_question, _choice1, _choice2, _choice3, _choice4, _hint, _languageCode, _reward, _rewardPool) */\n      dup2\n      mstore\n      0x20\n      add\n        /* \"contracts/CreateQuiz.sol\":1059:1067  _choice1 */\n      dup12\n        /* \"contracts/CreateQuiz.sol\":1043:1142  Quiz(_question, _choice1, _choice2, _choice3, _choice4, _hint, _languageCode, _reward, _rewardPool) */\n      dup2\n      mstore\n      0x20\n      add\n        /* \"contracts/CreateQuiz.sol\":1069:1077  _choice2 */\n      dup11\n        /* \"contracts/CreateQuiz.sol\":1043:1142  Quiz(_question, _choice1, _choice2, _choice3, _choice4, _hint, _languageCode, _reward, _rewardPool) */\n      dup2\n      mstore\n      0x20\n      add\n        /* \"contracts/CreateQuiz.sol\":1079:1087  _choice3 */\n      dup10\n        /* \"contracts/CreateQuiz.sol\":1043:1142  Quiz(_question, _choice1, _choice2, _choice3, _choice4, _hint, _languageCode, _reward, _rewardPool) */\n      dup2\n      mstore\n      0x20\n      add\n        /* \"contracts/CreateQuiz.sol\":1089:1097  _choice4 */\n      dup9\n        /* \"contracts/CreateQuiz.sol\":1043:1142  Quiz(_question, _choice1, _choice2, _choice3, _choice4, _hint, _languageCode, _reward, _rewardPool) */\n      dup2\n      mstore\n      0x20\n      add\n        /* \"contracts/CreateQuiz.sol\":1099:1104  _hint */\n      dup8\n        /* \"contracts/CreateQuiz.sol\":1043:1142  Quiz(_question, _choice1, _choice2, _choice3, _choice4, _hint, _languageCode, _reward, _rewardPool) */\n      dup2\n      mstore\n      0x20\n      add\n        /* \"contracts/CreateQuiz.sol\":1106:1119  _languageCode */\n      dup6\n        /* \"contracts/CreateQuiz.sol\":1043:1142  Quiz(_question, _choice1, _choice2, _choice3, _choice4, _hint, _languageCode, _reward, _rewardPool) */\n      0xff\n      and\n      dup2\n      mstore\n      0x20\n      add\n        /* \"contracts/CreateQuiz.sol\":1121:1128  _reward */\n      dup5\n        /* \"contracts/CreateQuiz.sol\":1043:1142  Quiz(_question, _choice1, _choice2, _choice3, _choice4, _hint, _languageCode, _reward, _rewardPool) */\n      dup2\n      mstore\n      0x20\n      add\n        /* \"contracts/CreateQuiz.sol\":1130:1141  _rewardPool */\n      dup4\n        /* \"contracts/CreateQuiz.sol\":1043:1142  Quiz(_question, _choice1, _choice2, _choice3, _choice4, _hint, _languageCode, _reward, _rewardPool) */\n      dup2\n      mstore\n      pop\n        /* \"contracts/CreateQuiz.sol\":1030:1143  quizzes.push(Quiz(_question, _choice1, _choice2, _choice3, _choice4, _hint, _languageCode, _reward, _rewardPool)) */\n      swap1\n      dup1\n      0x01\n      dup2\n      sload\n      add\n      dup1\n      dup3\n      sstore\n      dup1\n      swap2\n      pop\n      pop\n      0x01\n      swap1\n      sub\n      swap1\n      0x00\n      mstore\n      keccak256(0x00, 0x20)\n      swap1\n      0x09\n      mul\n      add\n      0x00\n      swap1\n      swap2\n      swap1\n      swap2\n      swap1\n      swap2\n      pop\n      0x00\n      dup3\n      add\n      mload\n      dup2\n      0x00\n      add\n      swap1\n      dup1\n      mload\n      swap1\n      0x20\n      add\n      swap1\n      tag_106\n      swap3\n      swap2\n      swap1\n      tag_101\n      jump\t// in\n    tag_106:\n      pop\n      0x20\n      dup3\n      add\n      mload\n      dup2\n      0x01\n      add\n      swap1\n      dup1\n      mload\n      swap1\n      0x20\n      add\n      swap1\n      tag_107\n      swap3\n      swap2\n      swap1\n      tag_101\n      jump\t// in\n    tag_107:\n      pop\n      0x40\n      dup3\n      add\n      mload\n      dup2\n      0x02\n      add\n      swap1\n      dup1\n      mload\n      swap1\n      0x20\n      add\n      swap1\n      tag_108\n      swap3\n      swap2\n      swap1\n      tag_101\n      jump\t// in\n    tag_108:\n      pop\n      0x60\n      dup3\n      add\n      mload\n      dup2\n      0x03\n      add\n      swap1\n      dup1\n      mload\n      swap1\n      0x20\n      add\n      swap1\n      tag_109\n      swap3\n      swap2\n      swap1\n      tag_101\n      jump\t// in\n    tag_109:\n      pop\n      0x80\n      dup3\n      add\n      mload\n      dup2\n      0x04\n      add\n      swap1\n      dup1\n      mload\n      swap1\n      0x20\n      add\n      swap1\n      tag_110\n      swap3\n      swap2\n      swap1\n      tag_101\n      jump\t// in\n    tag_110:\n      pop\n      0xa0\n      dup3\n      add\n      mload\n      dup2\n      0x05\n      add\n      swap1\n      dup1\n      mload\n      swap1\n      0x20\n      add\n      swap1\n      tag_111\n      swap3\n      swap2\n      swap1\n      tag_101\n      jump\t// in\n    tag_111:\n      pop\n      0xc0\n      dup3\n      add\n      mload\n      dup2\n      0x06\n      add\n      exp(0x0100, 0x00)\n      dup2\n      sload\n      dup2\n      0xff\n      mul\n      not\n      and\n      swap1\n      dup4\n      0xff\n      and\n      mul\n      or\n      swap1\n      sstore\n      pop\n      0xe0\n      dup3\n      add\n      mload\n      dup2\n      0x07\n      add\n      sstore\n      0x0100\n      dup3\n      add\n      mload\n      dup2\n      0x08\n      add\n      sstore\n      pop\n      pop\n        /* \"contracts/CreateQuiz.sol\":1153:1160  uint id */\n      0x00\n        /* \"contracts/CreateQuiz.sol\":1180:1181  1 */\n      0x01\n        /* \"contracts/CreateQuiz.sol\":1163:1170  quizzes */\n      dup1\n        /* \"contracts/CreateQuiz.sol\":1163:1177  quizzes.length */\n      dup1\n      sload\n      swap1\n      pop\n        /* \"contracts/CreateQuiz.sol\":1163:1181  quizzes.length - 1 */\n      tag_112\n      swap2\n      swap1\n      tag_113\n      jump\t// in\n    tag_112:\n        /* \"contracts/CreateQuiz.sol\":1153:1181  uint id = quizzes.length - 1 */\n      swap1\n      pop\n        /* \"contracts/CreateQuiz.sol\":1208:1215  _answer */\n      dup5\n        /* \"contracts/CreateQuiz.sol\":1191:1201  quizAnswer */\n      0x03\n        /* \"contracts/CreateQuiz.sol\":1191:1205  quizAnswer[id] */\n      0x00\n        /* \"contracts/CreateQuiz.sol\":1202:1204  id */\n      dup4\n        /* \"contracts/CreateQuiz.sol\":1191:1205  quizAnswer[id] */\n      dup2\n      mstore\n      0x20\n      add\n      swap1\n      dup2\n      mstore\n      0x20\n      add\n      0x00\n      keccak256\n      0x00\n        /* \"contracts/CreateQuiz.sol\":1191:1215  quizAnswer[id] = _answer */\n      0x0100\n      exp\n      dup2\n      sload\n      dup2\n      0xff\n      mul\n      not\n      and\n      swap1\n      dup4\n      0xff\n      and\n      mul\n      or\n      swap1\n      sstore\n      pop\n        /* \"contracts/CreateQuiz.sol\":1241:1251  msg.sender */\n      caller\n        /* \"contracts/CreateQuiz.sol\":1225:1234  quizOwner */\n      0x04\n        /* \"contracts/CreateQuiz.sol\":1225:1238  quizOwner[id] */\n      0x00\n        /* \"contracts/CreateQuiz.sol\":1235:1237  id */\n      dup4\n        /* \"contracts/CreateQuiz.sol\":1225:1238  quizOwner[id] */\n      dup2\n      mstore\n      0x20\n      add\n      swap1\n      dup2\n      mstore\n      0x20\n      add\n      0x00\n      keccak256\n      0x00\n        /* \"contracts/CreateQuiz.sol\":1225:1251  quizOwner[id] = msg.sender */\n      0x0100\n      exp\n      dup2\n      sload\n      dup2\n      0xffffffffffffffffffffffffffffffffffffffff\n      mul\n      not\n      and\n      swap1\n      dup4\n      0xffffffffffffffffffffffffffffffffffffffff\n      and\n      mul\n      or\n      swap1\n      sstore\n      pop\n        /* \"contracts/CreateQuiz.sol\":1280:1284  true */\n      0x01\n        /* \"contracts/CreateQuiz.sol\":1261:1273  quizIsActive */\n      0x02\n        /* \"contracts/CreateQuiz.sol\":1261:1277  quizIsActive[id] */\n      0x00\n        /* \"contracts/CreateQuiz.sol\":1274:1276  id */\n      dup4\n        /* \"contracts/CreateQuiz.sol\":1261:1277  quizIsActive[id] */\n      dup2\n      mstore\n      0x20\n      add\n      swap1\n      dup2\n      mstore\n      0x20\n      add\n      0x00\n      keccak256\n      0x00\n        /* \"contracts/CreateQuiz.sol\":1261:1284  quizIsActive[id] = true */\n      0x0100\n      exp\n      dup2\n      sload\n      dup2\n      0xff\n      mul\n      not\n      and\n      swap1\n      dup4\n      iszero\n      iszero\n      mul\n      or\n      swap1\n      sstore\n      pop\n        /* \"contracts/CreateQuiz.sol\":1299:1326  NewQuiz(_question, _answer) */\n      0x545dca5d847b655a9f03cdf5619f53f0b2546051fd0d015b18c09ae2a8b1a765\n        /* \"contracts/CreateQuiz.sol\":1307:1316  _question */\n      dup12\n        /* \"contracts/CreateQuiz.sol\":1318:1325  _answer */\n      dup7\n        /* \"contracts/CreateQuiz.sol\":1299:1326  NewQuiz(_question, _answer) */\n      mload(0x40)\n      tag_114\n      swap3\n      swap2\n      swap1\n      tag_115\n      jump\t// in\n    tag_114:\n      mload(0x40)\n      dup1\n      swap2\n      sub\n      swap1\n      log1\n        /* \"contracts/CreateQuiz.sol\":1020:1333  {... */\n      pop\n        /* \"contracts/CreateQuiz.sol\":781:1333  function _createQuiz(string memory _question, string memory _choice1, string memory _choice2, string memory _choice3, string memory _choice4, string memory _hint, uint8 _answer, uint8 _languageCode, uint _reward, uint _rewardPool) private {... */\n      pop\n      pop\n      pop\n      pop\n      pop\n      pop\n      pop\n      pop\n      pop\n      pop\n      jump\t// out\n    tag_101:\n      dup3\n      dup1\n      sload\n      tag_116\n      swap1\n      tag_117\n      jump\t// in\n    tag_116:\n      swap1\n      0x00\n      mstore\n      keccak256(0x00, 0x20)\n      swap1\n      0x1f\n      add\n      0x20\n      swap1\n      div\n      dup2\n      add\n      swap3\n      dup3\n      tag_119\n      jumpi\n      0x00\n      dup6\n      sstore\n      jump(tag_118)\n    tag_119:\n      dup3\n      0x1f\n      lt\n      tag_120\n      jumpi\n      dup1\n      mload\n      not(0xff)\n      and\n      dup4\n      dup1\n      add\n      or\n      dup6\n      sstore\n      jump(tag_118)\n    tag_120:\n      dup3\n      dup1\n      add\n      0x01\n      add\n      dup6\n      sstore\n      dup3\n      iszero\n      tag_118\n      jumpi\n      swap2\n      dup3\n      add\n    tag_121:\n      dup3\n      dup2\n      gt\n      iszero\n      tag_122\n      jumpi\n      dup3\n      mload\n      dup3\n      sstore\n      swap2\n      0x20\n      add\n      swap2\n      swap1\n      0x01\n      add\n      swap1\n      jump(tag_121)\n    tag_122:\n    tag_118:\n      pop\n      swap1\n      pop\n      tag_123\n      swap2\n      swap1\n      tag_124\n      jump\t// in\n    tag_123:\n      pop\n      swap1\n      jump\t// out\n    tag_124:\n    tag_125:\n      dup1\n      dup3\n      gt\n      iszero\n      tag_126\n      jumpi\n      0x00\n      dup2\n      0x00\n      swap1\n      sstore\n      pop\n      0x01\n      add\n      jump(tag_125)\n    tag_126:\n      pop\n      swap1\n      jump\t// out\n        /* \"#utility.yul\":7:82   */\n    tag_127:\n        /* \"#utility.yul\":40:46   */\n      0x00\n        /* \"#utility.yul\":73:75   */\n      0x40\n        /* \"#utility.yul\":67:76   */\n      mload\n        /* \"#utility.yul\":57:76   */\n      swap1\n      pop\n        /* \"#utility.yul\":7:82   */\n      swap1\n      jump\t// out\n        /* \"#utility.yul\":88:205   */\n    tag_128:\n        /* \"#utility.yul\":197:198   */\n      0x00\n        /* \"#utility.yul\":194:195   */\n      dup1\n        /* \"#utility.yul\":187:199   */\n      revert\n        /* \"#utility.yul\":211:328   */\n    tag_129:\n        /* \"#utility.yul\":320:321   */\n      0x00\n        /* \"#utility.yul\":317:318   */\n      dup1\n        /* \"#utility.yul\":310:322   */\n      revert\n        /* \"#utility.yul\":334:411   */\n    tag_130:\n        /* \"#utility.yul\":371:378   */\n      0x00\n        /* \"#utility.yul\":400:405   */\n      dup2\n        /* \"#utility.yul\":389:405   */\n      swap1\n      pop\n        /* \"#utility.yul\":334:411   */\n      swap2\n      swap1\n      pop\n      jump\t// out\n        /* \"#utility.yul\":417:539   */\n    tag_131:\n        /* \"#utility.yul\":490:514   */\n      tag_173\n        /* \"#utility.yul\":508:513   */\n      dup2\n        /* \"#utility.yul\":490:514   */\n      tag_130\n      jump\t// in\n    tag_173:\n        /* \"#utility.yul\":483:488   */\n      dup2\n        /* \"#utility.yul\":480:515   */\n      eq\n        /* \"#utility.yul\":470:533   */\n      tag_174\n      jumpi\n        /* \"#utility.yul\":529:530   */\n      0x00\n        /* \"#utility.yul\":526:527   */\n      dup1\n        /* \"#utility.yul\":519:531   */\n      revert\n        /* \"#utility.yul\":470:533   */\n    tag_174:\n        /* \"#utility.yul\":417:539   */\n      pop\n      jump\t// out\n        /* \"#utility.yul\":545:684   */\n    tag_132:\n        /* \"#utility.yul\":591:596   */\n      0x00\n        /* \"#utility.yul\":629:635   */\n      dup2\n        /* \"#utility.yul\":616:636   */\n      calldataload\n        /* \"#utility.yul\":607:636   */\n      swap1\n      pop\n        /* \"#utility.yul\":645:678   */\n      tag_176\n        /* \"#utility.yul\":672:677   */\n      dup2\n        /* \"#utility.yul\":645:678   */\n      tag_131\n      jump\t// in\n    tag_176:\n        /* \"#utility.yul\":545:684   */\n      swap3\n      swap2\n      pop\n      pop\n      jump\t// out\n        /* \"#utility.yul\":690:780   */\n    tag_133:\n        /* \"#utility.yul\":724:731   */\n      0x00\n        /* \"#utility.yul\":767:772   */\n      dup2\n        /* \"#utility.yul\":760:773   */\n      iszero\n        /* \"#utility.yul\":753:774   */\n      iszero\n        /* \"#utility.yul\":742:774   */\n      swap1\n      pop\n        /* \"#utility.yul\":690:780   */\n      swap2\n      swap1\n      pop\n      jump\t// out\n        /* \"#utility.yul\":786:902   */\n    tag_134:\n        /* \"#utility.yul\":856:877   */\n      tag_179\n        /* \"#utility.yul\":871:876   */\n      dup2\n        /* \"#utility.yul\":856:877   */\n      tag_133\n      jump\t// in\n    tag_179:\n        /* \"#utility.yul\":849:854   */\n      dup2\n        /* \"#utility.yul\":846:878   */\n      eq\n        /* \"#utility.yul\":836:896   */\n      tag_180\n      jumpi\n        /* \"#utility.yul\":892:893   */\n      0x00\n        /* \"#utility.yul\":889:890   */\n      dup1\n        /* \"#utility.yul\":882:894   */\n      revert\n        /* \"#utility.yul\":836:896   */\n    tag_180:\n        /* \"#utility.yul\":786:902   */\n      pop\n      jump\t// out\n        /* \"#utility.yul\":908:1041   */\n    tag_135:\n        /* \"#utility.yul\":951:956   */\n      0x00\n        /* \"#utility.yul\":989:995   */\n      dup2\n        /* \"#utility.yul\":976:996   */\n      calldataload\n        /* \"#utility.yul\":967:996   */\n      swap1\n      pop\n        /* \"#utility.yul\":1005:1035   */\n      tag_182\n        /* \"#utility.yul\":1029:1034   */\n      dup2\n        /* \"#utility.yul\":1005:1035   */\n      tag_134\n      jump\t// in\n    tag_182:\n        /* \"#utility.yul\":908:1041   */\n      swap3\n      swap2\n      pop\n      pop\n      jump\t// out\n        /* \"#utility.yul\":1047:1515   */\n    tag_15:\n        /* \"#utility.yul\":1112:1118   */\n      0x00\n        /* \"#utility.yul\":1120:1126   */\n      dup1\n        /* \"#utility.yul\":1169:1171   */\n      0x40\n        /* \"#utility.yul\":1157:1166   */\n      dup4\n        /* \"#utility.yul\":1148:1155   */\n      dup6\n        /* \"#utility.yul\":1144:1167   */\n      sub\n        /* \"#utility.yul\":1140:1172   */\n      slt\n        /* \"#utility.yul\":1137:1256   */\n      iszero\n      tag_184\n      jumpi\n        /* \"#utility.yul\":1175:1254   */\n      tag_185\n      tag_128\n      jump\t// in\n    tag_185:\n        /* \"#utility.yul\":1137:1256   */\n    tag_184:\n        /* \"#utility.yul\":1295:1296   */\n      0x00\n        /* \"#utility.yul\":1320:1373   */\n      tag_186\n        /* \"#utility.yul\":1365:1372   */\n      dup6\n        /* \"#utility.yul\":1356:1362   */\n      dup3\n        /* \"#utility.yul\":1345:1354   */\n      dup7\n        /* \"#utility.yul\":1341:1363   */\n      add\n        /* \"#utility.yul\":1320:1373   */\n      tag_132\n      jump\t// in\n    tag_186:\n        /* \"#utility.yul\":1310:1373   */\n      swap3\n      pop\n        /* \"#utility.yul\":1266:1383   */\n      pop\n        /* \"#utility.yul\":1422:1424   */\n      0x20\n        /* \"#utility.yul\":1448:1498   */\n      tag_187\n        /* \"#utility.yul\":1490:1497   */\n      dup6\n        /* \"#utility.yul\":1481:1487   */\n      dup3\n        /* \"#utility.yul\":1470:1479   */\n      dup7\n        /* \"#utility.yul\":1466:1488   */\n      add\n        /* \"#utility.yul\":1448:1498   */\n      tag_135\n      jump\t// in\n    tag_187:\n        /* \"#utility.yul\":1438:1498   */\n      swap2\n      pop\n        /* \"#utility.yul\":1393:1508   */\n      pop\n        /* \"#utility.yul\":1047:1515   */\n      swap3\n      pop\n      swap3\n      swap1\n      pop\n      jump\t// out\n        /* \"#utility.yul\":1521:1850   */\n    tag_24:\n        /* \"#utility.yul\":1580:1586   */\n      0x00\n        /* \"#utility.yul\":1629:1631   */\n      0x20\n        /* \"#utility.yul\":1617:1626   */\n      dup3\n        /* \"#utility.yul\":1608:1615   */\n      dup5\n        /* \"#utility.yul\":1604:1627   */\n      sub\n        /* \"#utility.yul\":1600:1632   */\n      slt\n        /* \"#utility.yul\":1597:1716   */\n      iszero\n      tag_189\n      jumpi\n        /* \"#utility.yul\":1635:1714   */\n      tag_190\n      tag_128\n      jump\t// in\n    tag_190:\n        /* \"#utility.yul\":1597:1716   */\n    tag_189:\n        /* \"#utility.yul\":1755:1756   */\n      0x00\n        /* \"#utility.yul\":1780:1833   */\n      tag_191\n        /* \"#utility.yul\":1825:1832   */\n      dup5\n        /* \"#utility.yul\":1816:1822   */\n      dup3\n        /* \"#utility.yul\":1805:1814   */\n      dup6\n        /* \"#utility.yul\":1801:1823   */\n      add\n        /* \"#utility.yul\":1780:1833   */\n      tag_132\n      jump\t// in\n    tag_191:\n        /* \"#utility.yul\":1770:1833   */\n      swap2\n      pop\n        /* \"#utility.yul\":1726:1843   */\n      pop\n        /* \"#utility.yul\":1521:1850   */\n      swap3\n      swap2\n      pop\n      pop\n      jump\t// out\n        /* \"#utility.yul\":1856:1982   */\n    tag_136:\n        /* \"#utility.yul\":1893:1900   */\n      0x00\n        /* \"#utility.yul\":1933:1975   */\n      0xffffffffffffffffffffffffffffffffffffffff\n        /* \"#utility.yul\":1926:1931   */\n      dup3\n        /* \"#utility.yul\":1922:1976   */\n      and\n        /* \"#utility.yul\":1911:1976   */\n      swap1\n      pop\n        /* \"#utility.yul\":1856:1982   */\n      swap2\n      swap1\n      pop\n      jump\t// out\n        /* \"#utility.yul\":1988:2084   */\n    tag_137:\n        /* \"#utility.yul\":2025:2032   */\n      0x00\n        /* \"#utility.yul\":2054:2078   */\n      tag_194\n        /* \"#utility.yul\":2072:2077   */\n      dup3\n        /* \"#utility.yul\":2054:2078   */\n      tag_136\n      jump\t// in\n    tag_194:\n        /* \"#utility.yul\":2043:2078   */\n      swap1\n      pop\n        /* \"#utility.yul\":1988:2084   */\n      swap2\n      swap1\n      pop\n      jump\t// out\n        /* \"#utility.yul\":2090:2208   */\n    tag_138:\n        /* \"#utility.yul\":2177:2201   */\n      tag_196\n        /* \"#utility.yul\":2195:2200   */\n      dup2\n        /* \"#utility.yul\":2177:2201   */\n      tag_137\n      jump\t// in\n    tag_196:\n        /* \"#utility.yul\":2172:2175   */\n      dup3\n        /* \"#utility.yul\":2165:2202   */\n      mstore\n        /* \"#utility.yul\":2090:2208   */\n      pop\n      pop\n      jump\t// out\n        /* \"#utility.yul\":2214:2436   */\n    tag_27:\n        /* \"#utility.yul\":2307:2311   */\n      0x00\n        /* \"#utility.yul\":2345:2347   */\n      0x20\n        /* \"#utility.yul\":2334:2343   */\n      dup3\n        /* \"#utility.yul\":2330:2348   */\n      add\n        /* \"#utility.yul\":2322:2348   */\n      swap1\n      pop\n        /* \"#utility.yul\":2358:2429   */\n      tag_198\n        /* \"#utility.yul\":2426:2427   */\n      0x00\n        /* \"#utility.yul\":2415:2424   */\n      dup4\n        /* \"#utility.yul\":2411:2428   */\n      add\n        /* \"#utility.yul\":2402:2408   */\n      dup5\n        /* \"#utility.yul\":2358:2429   */\n      tag_138\n      jump\t// in\n    tag_198:\n        /* \"#utility.yul\":2214:2436   */\n      swap3\n      swap2\n      pop\n      pop\n      jump\t// out\n        /* \"#utility.yul\":2442:2551   */\n    tag_139:\n        /* \"#utility.yul\":2523:2544   */\n      tag_200\n        /* \"#utility.yul\":2538:2543   */\n      dup2\n        /* \"#utility.yul\":2523:2544   */\n      tag_133\n      jump\t// in\n    tag_200:\n        /* \"#utility.yul\":2518:2521   */\n      dup3\n        /* \"#utility.yul\":2511:2545   */\n      mstore\n        /* \"#utility.yul\":2442:2551   */\n      pop\n      pop\n      jump\t// out\n        /* \"#utility.yul\":2557:2767   */\n    tag_33:\n        /* \"#utility.yul\":2644:2648   */\n      0x00\n        /* \"#utility.yul\":2682:2684   */\n      0x20\n        /* \"#utility.yul\":2671:2680   */\n      dup3\n        /* \"#utility.yul\":2667:2685   */\n      add\n        /* \"#utility.yul\":2659:2685   */\n      swap1\n      pop\n        /* \"#utility.yul\":2695:2760   */\n      tag_202\n        /* \"#utility.yul\":2757:2758   */\n      0x00\n        /* \"#utility.yul\":2746:2755   */\n      dup4\n        /* \"#utility.yul\":2742:2759   */\n      add\n        /* \"#utility.yul\":2733:2739   */\n      dup5\n        /* \"#utility.yul\":2695:2760   */\n      tag_139\n      jump\t// in\n    tag_202:\n        /* \"#utility.yul\":2557:2767   */\n      swap3\n      swap2\n      pop\n      pop\n      jump\t// out\n        /* \"#utility.yul\":2773:2890   */\n    tag_140:\n        /* \"#utility.yul\":2882:2883   */\n      0x00\n        /* \"#utility.yul\":2879:2880   */\n      dup1\n        /* \"#utility.yul\":2872:2884   */\n      revert\n        /* \"#utility.yul\":2896:3013   */\n    tag_141:\n        /* \"#utility.yul\":3005:3006   */\n      0x00\n        /* \"#utility.yul\":3002:3003   */\n      dup1\n        /* \"#utility.yul\":2995:3007   */\n      revert\n        /* \"#utility.yul\":3019:3121   */\n    tag_142:\n        /* \"#utility.yul\":3060:3066   */\n      0x00\n        /* \"#utility.yul\":3111:3113   */\n      0x1f\n        /* \"#utility.yul\":3107:3114   */\n      not\n        /* \"#utility.yul\":3102:3104   */\n      0x1f\n        /* \"#utility.yul\":3095:3100   */\n      dup4\n        /* \"#utility.yul\":3091:3105   */\n      add\n        /* \"#utility.yul\":3087:3115   */\n      and\n        /* \"#utility.yul\":3077:3115   */\n      swap1\n      pop\n        /* \"#utility.yul\":3019:3121   */\n      swap2\n      swap1\n      pop\n      jump\t// out\n        /* \"#utility.yul\":3127:3307   */\n    tag_143:\n        /* \"#utility.yul\":3175:3252   */\n      0x4e487b7100000000000000000000000000000000000000000000000000000000\n        /* \"#utility.yul\":3172:3173   */\n      0x00\n        /* \"#utility.yul\":3165:3253   */\n      mstore\n        /* \"#utility.yul\":3272:3276   */\n      0x41\n        /* \"#utility.yul\":3269:3270   */\n      0x04\n        /* \"#utility.yul\":3262:3277   */\n      mstore\n        /* \"#utility.yul\":3296:3300   */\n      0x24\n        /* \"#utility.yul\":3293:3294   */\n      0x00\n        /* \"#utility.yul\":3286:3301   */\n      revert\n        /* \"#utility.yul\":3313:3594   */\n    tag_144:\n        /* \"#utility.yul\":3396:3423   */\n      tag_208\n        /* \"#utility.yul\":3418:3422   */\n      dup3\n        /* \"#utility.yul\":3396:3423   */\n      tag_142\n      jump\t// in\n    tag_208:\n        /* \"#utility.yul\":3388:3394   */\n      dup2\n        /* \"#utility.yul\":3384:3424   */\n      add\n        /* \"#utility.yul\":3526:3532   */\n      dup2\n        /* \"#utility.yul\":3514:3524   */\n      dup2\n        /* \"#utility.yul\":3511:3533   */\n      lt\n        /* \"#utility.yul\":3490:3508   */\n      0xffffffffffffffff\n        /* \"#utility.yul\":3478:3488   */\n      dup3\n        /* \"#utility.yul\":3475:3509   */\n      gt\n        /* \"#utility.yul\":3472:3534   */\n      or\n        /* \"#utility.yul\":3469:3557   */\n      iszero\n      tag_209\n      jumpi\n        /* \"#utility.yul\":3537:3555   */\n      tag_210\n      tag_143\n      jump\t// in\n    tag_210:\n        /* \"#utility.yul\":3469:3557   */\n    tag_209:\n        /* \"#utility.yul\":3577:3587   */\n      dup1\n        /* \"#utility.yul\":3573:3575   */\n      0x40\n        /* \"#utility.yul\":3566:3588   */\n      mstore\n        /* \"#utility.yul\":3356:3594   */\n      pop\n        /* \"#utility.yul\":3313:3594   */\n      pop\n      pop\n      jump\t// out\n        /* \"#utility.yul\":3600:3729   */\n    tag_145:\n        /* \"#utility.yul\":3634:3640   */\n      0x00\n        /* \"#utility.yul\":3661:3681   */\n      tag_212\n      tag_127\n      jump\t// in\n    tag_212:\n        /* \"#utility.yul\":3651:3681   */\n      swap1\n      pop\n        /* \"#utility.yul\":3690:3723   */\n      tag_213\n        /* \"#utility.yul\":3718:3722   */\n      dup3\n        /* \"#utility.yul\":3710:3716   */\n      dup3\n        /* \"#utility.yul\":3690:3723   */\n      tag_144\n      jump\t// in\n    tag_213:\n        /* \"#utility.yul\":3600:3729   */\n      swap2\n      swap1\n      pop\n      jump\t// out\n        /* \"#utility.yul\":3735:4043   */\n    tag_146:\n        /* \"#utility.yul\":3797:3801   */\n      0x00\n        /* \"#utility.yul\":3887:3905   */\n      0xffffffffffffffff\n        /* \"#utility.yul\":3879:3885   */\n      dup3\n        /* \"#utility.yul\":3876:3906   */\n      gt\n        /* \"#utility.yul\":3873:3929   */\n      iszero\n      tag_215\n      jumpi\n        /* \"#utility.yul\":3909:3927   */\n      tag_216\n      tag_143\n      jump\t// in\n    tag_216:\n        /* \"#utility.yul\":3873:3929   */\n    tag_215:\n        /* \"#utility.yul\":3947:3976   */\n      tag_217\n        /* \"#utility.yul\":3969:3975   */\n      dup3\n        /* \"#utility.yul\":3947:3976   */\n      tag_142\n      jump\t// in\n    tag_217:\n        /* \"#utility.yul\":3939:3976   */\n      swap1\n      pop\n        /* \"#utility.yul\":4031:4035   */\n      0x20\n        /* \"#utility.yul\":4025:4029   */\n      dup2\n        /* \"#utility.yul\":4021:4036   */\n      add\n        /* \"#utility.yul\":4013:4036   */\n      swap1\n      pop\n        /* \"#utility.yul\":3735:4043   */\n      swap2\n      swap1\n      pop\n      jump\t// out\n        /* \"#utility.yul\":4049:4203   */\n    tag_147:\n        /* \"#utility.yul\":4133:4139   */\n      dup3\n        /* \"#utility.yul\":4128:4131   */\n      dup2\n        /* \"#utility.yul\":4123:4126   */\n      dup4\n        /* \"#utility.yul\":4110:4140   */\n      calldatacopy\n        /* \"#utility.yul\":4195:4196   */\n      0x00\n        /* \"#utility.yul\":4186:4192   */\n      dup4\n        /* \"#utility.yul\":4181:4184   */\n      dup4\n        /* \"#utility.yul\":4177:4193   */\n      add\n        /* \"#utility.yul\":4170:4197   */\n      mstore\n        /* \"#utility.yul\":4049:4203   */\n      pop\n      pop\n      pop\n      jump\t// out\n        /* \"#utility.yul\":4209:4621   */\n    tag_148:\n        /* \"#utility.yul\":4287:4292   */\n      0x00\n        /* \"#utility.yul\":4312:4378   */\n      tag_220\n        /* \"#utility.yul\":4328:4377   */\n      tag_221\n        /* \"#utility.yul\":4370:4376   */\n      dup5\n        /* \"#utility.yul\":4328:4377   */\n      tag_146\n      jump\t// in\n    tag_221:\n        /* \"#utility.yul\":4312:4378   */\n      tag_145\n      jump\t// in\n    tag_220:\n        /* \"#utility.yul\":4303:4378   */\n      swap1\n      pop\n        /* \"#utility.yul\":4401:4407   */\n      dup3\n        /* \"#utility.yul\":4394:4399   */\n      dup2\n        /* \"#utility.yul\":4387:4408   */\n      mstore\n        /* \"#utility.yul\":4439:4443   */\n      0x20\n        /* \"#utility.yul\":4432:4437   */\n      dup2\n        /* \"#utility.yul\":4428:4444   */\n      add\n        /* \"#utility.yul\":4477:4480   */\n      dup5\n        /* \"#utility.yul\":4468:4474   */\n      dup5\n        /* \"#utility.yul\":4463:4466   */\n      dup5\n        /* \"#utility.yul\":4459:4475   */\n      add\n        /* \"#utility.yul\":4456:4481   */\n      gt\n        /* \"#utility.yul\":4453:4565   */\n      iszero\n      tag_222\n      jumpi\n        /* \"#utility.yul\":4484:4563   */\n      tag_223\n      tag_141\n      jump\t// in\n    tag_223:\n        /* \"#utility.yul\":4453:4565   */\n    tag_222:\n        /* \"#utility.yul\":4574:4615   */\n      tag_224\n        /* \"#utility.yul\":4608:4614   */\n      dup5\n        /* \"#utility.yul\":4603:4606   */\n      dup3\n        /* \"#utility.yul\":4598:4601   */\n      dup6\n        /* \"#utility.yul\":4574:4615   */\n      tag_147\n      jump\t// in\n    tag_224:\n        /* \"#utility.yul\":4293:4621   */\n      pop\n        /* \"#utility.yul\":4209:4621   */\n      swap4\n      swap3\n      pop\n      pop\n      pop\n      jump\t// out\n        /* \"#utility.yul\":4641:4981   */\n    tag_149:\n        /* \"#utility.yul\":4697:4702   */\n      0x00\n        /* \"#utility.yul\":4746:4749   */\n      dup3\n        /* \"#utility.yul\":4739:4743   */\n      0x1f\n        /* \"#utility.yul\":4731:4737   */\n      dup4\n        /* \"#utility.yul\":4727:4744   */\n      add\n        /* \"#utility.yul\":4723:4750   */\n      slt\n        /* \"#utility.yul\":4713:4835   */\n      tag_226\n      jumpi\n        /* \"#utility.yul\":4754:4833   */\n      tag_227\n      tag_140\n      jump\t// in\n    tag_227:\n        /* \"#utility.yul\":4713:4835   */\n    tag_226:\n        /* \"#utility.yul\":4871:4877   */\n      dup2\n        /* \"#utility.yul\":4858:4878   */\n      calldataload\n        /* \"#utility.yul\":4896:4975   */\n      tag_228\n        /* \"#utility.yul\":4971:4974   */\n      dup5\n        /* \"#utility.yul\":4963:4969   */\n      dup3\n        /* \"#utility.yul\":4956:4960   */\n      0x20\n        /* \"#utility.yul\":4948:4954   */\n      dup7\n        /* \"#utility.yul\":4944:4961   */\n      add\n        /* \"#utility.yul\":4896:4975   */\n      tag_148\n      jump\t// in\n    tag_228:\n        /* \"#utility.yul\":4887:4975   */\n      swap2\n      pop\n        /* \"#utility.yul\":4703:4981   */\n      pop\n        /* \"#utility.yul\":4641:4981   */\n      swap3\n      swap2\n      pop\n      pop\n      jump\t// out\n        /* \"#utility.yul\":4987:5073   */\n    tag_150:\n        /* \"#utility.yul\":5022:5029   */\n      0x00\n        /* \"#utility.yul\":5062:5066   */\n      0xff\n        /* \"#utility.yul\":5055:5060   */\n      dup3\n        /* \"#utility.yul\":5051:5067   */\n      and\n        /* \"#utility.yul\":5040:5067   */\n      swap1\n      pop\n        /* \"#utility.yul\":4987:5073   */\n      swap2\n      swap1\n      pop\n      jump\t// out\n        /* \"#utility.yul\":5079:5197   */\n    tag_151:\n        /* \"#utility.yul\":5150:5172   */\n      tag_231\n        /* \"#utility.yul\":5166:5171   */\n      dup2\n        /* \"#utility.yul\":5150:5172   */\n      tag_150\n      jump\t// in\n    tag_231:\n        /* \"#utility.yul\":5143:5148   */\n      dup2\n        /* \"#utility.yul\":5140:5173   */\n      eq\n        /* \"#utility.yul\":5130:5191   */\n      tag_232\n      jumpi\n        /* \"#utility.yul\":5187:5188   */\n      0x00\n        /* \"#utility.yul\":5184:5185   */\n      dup1\n        /* \"#utility.yul\":5177:5189   */\n      revert\n        /* \"#utility.yul\":5130:5191   */\n    tag_232:\n        /* \"#utility.yul\":5079:5197   */\n      pop\n      jump\t// out\n        /* \"#utility.yul\":5203:5338   */\n    tag_152:\n        /* \"#utility.yul\":5247:5252   */\n      0x00\n        /* \"#utility.yul\":5285:5291   */\n      dup2\n        /* \"#utility.yul\":5272:5292   */\n      calldataload\n        /* \"#utility.yul\":5263:5292   */\n      swap1\n      pop\n        /* \"#utility.yul\":5301:5332   */\n      tag_234\n        /* \"#utility.yul\":5326:5331   */\n      dup2\n        /* \"#utility.yul\":5301:5332   */\n      tag_151\n      jump\t// in\n    tag_234:\n        /* \"#utility.yul\":5203:5338   */\n      swap3\n      swap2\n      pop\n      pop\n      jump\t// out\n        /* \"#utility.yul\":5344:8057   */\n    tag_43:\n        /* \"#utility.yul\":5540:5546   */\n      0x00\n        /* \"#utility.yul\":5548:5554   */\n      dup1\n        /* \"#utility.yul\":5556:5562   */\n      0x00\n        /* \"#utility.yul\":5564:5570   */\n      dup1\n        /* \"#utility.yul\":5572:5578   */\n      0x00\n        /* \"#utility.yul\":5580:5586   */\n      dup1\n        /* \"#utility.yul\":5588:5594   */\n      0x00\n        /* \"#utility.yul\":5596:5602   */\n      dup1\n        /* \"#utility.yul\":5604:5610   */\n      0x00\n        /* \"#utility.yul\":5612:5618   */\n      dup1\n        /* \"#utility.yul\":5661:5664   */\n      0x0140\n        /* \"#utility.yul\":5649:5658   */\n      dup12\n        /* \"#utility.yul\":5640:5647   */\n      dup14\n        /* \"#utility.yul\":5636:5659   */\n      sub\n        /* \"#utility.yul\":5632:5665   */\n      slt\n        /* \"#utility.yul\":5629:5749   */\n      iszero\n      tag_236\n      jumpi\n        /* \"#utility.yul\":5668:5747   */\n      tag_237\n      tag_128\n      jump\t// in\n    tag_237:\n        /* \"#utility.yul\":5629:5749   */\n    tag_236:\n        /* \"#utility.yul\":5816:5817   */\n      0x00\n        /* \"#utility.yul\":5805:5814   */\n      dup12\n        /* \"#utility.yul\":5801:5818   */\n      add\n        /* \"#utility.yul\":5788:5819   */\n      calldataload\n        /* \"#utility.yul\":5846:5864   */\n      0xffffffffffffffff\n        /* \"#utility.yul\":5838:5844   */\n      dup2\n        /* \"#utility.yul\":5835:5865   */\n      gt\n        /* \"#utility.yul\":5832:5949   */\n      iszero\n      tag_238\n      jumpi\n        /* \"#utility.yul\":5868:5947   */\n      tag_239\n      tag_129\n      jump\t// in\n    tag_239:\n        /* \"#utility.yul\":5832:5949   */\n    tag_238:\n        /* \"#utility.yul\":5973:6036   */\n      tag_240\n        /* \"#utility.yul\":6028:6035   */\n      dup14\n        /* \"#utility.yul\":6019:6025   */\n      dup3\n        /* \"#utility.yul\":6008:6017   */\n      dup15\n        /* \"#utility.yul\":6004:6026   */\n      add\n        /* \"#utility.yul\":5973:6036   */\n      tag_149\n      jump\t// in\n    tag_240:\n        /* \"#utility.yul\":5963:6036   */\n      swap11\n      pop\n        /* \"#utility.yul\":5759:6046   */\n      pop\n        /* \"#utility.yul\":6113:6115   */\n      0x20\n        /* \"#utility.yul\":6102:6111   */\n      dup12\n        /* \"#utility.yul\":6098:6116   */\n      add\n        /* \"#utility.yul\":6085:6117   */\n      calldataload\n        /* \"#utility.yul\":6144:6162   */\n      0xffffffffffffffff\n        /* \"#utility.yul\":6136:6142   */\n      dup2\n        /* \"#utility.yul\":6133:6163   */\n      gt\n        /* \"#utility.yul\":6130:6247   */\n      iszero\n      tag_241\n      jumpi\n        /* \"#utility.yul\":6166:6245   */\n      tag_242\n      tag_129\n      jump\t// in\n    tag_242:\n        /* \"#utility.yul\":6130:6247   */\n    tag_241:\n        /* \"#utility.yul\":6271:6334   */\n      tag_243\n        /* \"#utility.yul\":6326:6333   */\n      dup14\n        /* \"#utility.yul\":6317:6323   */\n      dup3\n        /* \"#utility.yul\":6306:6315   */\n      dup15\n        /* \"#utility.yul\":6302:6324   */\n      add\n        /* \"#utility.yul\":6271:6334   */\n      tag_149\n      jump\t// in\n    tag_243:\n        /* \"#utility.yul\":6261:6334   */\n      swap10\n      pop\n        /* \"#utility.yul\":6056:6344   */\n      pop\n        /* \"#utility.yul\":6411:6413   */\n      0x40\n        /* \"#utility.yul\":6400:6409   */\n      dup12\n        /* \"#utility.yul\":6396:6414   */\n      add\n        /* \"#utility.yul\":6383:6415   */\n      calldataload\n        /* \"#utility.yul\":6442:6460   */\n      0xffffffffffffffff\n        /* \"#utility.yul\":6434:6440   */\n      dup2\n        /* \"#utility.yul\":6431:6461   */\n      gt\n        /* \"#utility.yul\":6428:6545   */\n      iszero\n      tag_244\n      jumpi\n        /* \"#utility.yul\":6464:6543   */\n      tag_245\n      tag_129\n      jump\t// in\n    tag_245:\n        /* \"#utility.yul\":6428:6545   */\n    tag_244:\n        /* \"#utility.yul\":6569:6632   */\n      tag_246\n        /* \"#utility.yul\":6624:6631   */\n      dup14\n        /* \"#utility.yul\":6615:6621   */\n      dup3\n        /* \"#utility.yul\":6604:6613   */\n      dup15\n        /* \"#utility.yul\":6600:6622   */\n      add\n        /* \"#utility.yul\":6569:6632   */\n      tag_149\n      jump\t// in\n    tag_246:\n        /* \"#utility.yul\":6559:6632   */\n      swap9\n      pop\n        /* \"#utility.yul\":6354:6642   */\n      pop\n        /* \"#utility.yul\":6709:6711   */\n      0x60\n        /* \"#utility.yul\":6698:6707   */\n      dup12\n        /* \"#utility.yul\":6694:6712   */\n      add\n        /* \"#utility.yul\":6681:6713   */\n      calldataload\n        /* \"#utility.yul\":6740:6758   */\n      0xffffffffffffffff\n        /* \"#utility.yul\":6732:6738   */\n      dup2\n        /* \"#utility.yul\":6729:6759   */\n      gt\n        /* \"#utility.yul\":6726:6843   */\n      iszero\n      tag_247\n      jumpi\n        /* \"#utility.yul\":6762:6841   */\n      tag_248\n      tag_129\n      jump\t// in\n    tag_248:\n        /* \"#utility.yul\":6726:6843   */\n    tag_247:\n        /* \"#utility.yul\":6867:6930   */\n      tag_249\n        /* \"#utility.yul\":6922:6929   */\n      dup14\n        /* \"#utility.yul\":6913:6919   */\n      dup3\n        /* \"#utility.yul\":6902:6911   */\n      dup15\n        /* \"#utility.yul\":6898:6920   */\n      add\n        /* \"#utility.yul\":6867:6930   */\n      tag_149\n      jump\t// in\n    tag_249:\n        /* \"#utility.yul\":6857:6930   */\n      swap8\n      pop\n        /* \"#utility.yul\":6652:6940   */\n      pop\n        /* \"#utility.yul\":7007:7010   */\n      0x80\n        /* \"#utility.yul\":6996:7005   */\n      dup12\n        /* \"#utility.yul\":6992:7011   */\n      add\n        /* \"#utility.yul\":6979:7012   */\n      calldataload\n        /* \"#utility.yul\":7039:7057   */\n      0xffffffffffffffff\n        /* \"#utility.yul\":7031:7037   */\n      dup2\n        /* \"#utility.yul\":7028:7058   */\n      gt\n        /* \"#utility.yul\":7025:7142   */\n      iszero\n      tag_250\n      jumpi\n        /* \"#utility.yul\":7061:7140   */\n      tag_251\n      tag_129\n      jump\t// in\n    tag_251:\n        /* \"#utility.yul\":7025:7142   */\n    tag_250:\n        /* \"#utility.yul\":7166:7229   */\n      tag_252\n        /* \"#utility.yul\":7221:7228   */\n      dup14\n        /* \"#utility.yul\":7212:7218   */\n      dup3\n        /* \"#utility.yul\":7201:7210   */\n      dup15\n        /* \"#utility.yul\":7197:7219   */\n      add\n        /* \"#utility.yul\":7166:7229   */\n      tag_149\n      jump\t// in\n    tag_252:\n        /* \"#utility.yul\":7156:7229   */\n      swap7\n      pop\n        /* \"#utility.yul\":6950:7239   */\n      pop\n        /* \"#utility.yul\":7306:7309   */\n      0xa0\n        /* \"#utility.yul\":7295:7304   */\n      dup12\n        /* \"#utility.yul\":7291:7310   */\n      add\n        /* \"#utility.yul\":7278:7311   */\n      calldataload\n        /* \"#utility.yul\":7338:7356   */\n      0xffffffffffffffff\n        /* \"#utility.yul\":7330:7336   */\n      dup2\n        /* \"#utility.yul\":7327:7357   */\n      gt\n        /* \"#utility.yul\":7324:7441   */\n      iszero\n      tag_253\n      jumpi\n        /* \"#utility.yul\":7360:7439   */\n      tag_254\n      tag_129\n      jump\t// in\n    tag_254:\n        /* \"#utility.yul\":7324:7441   */\n    tag_253:\n        /* \"#utility.yul\":7465:7528   */\n      tag_255\n        /* \"#utility.yul\":7520:7527   */\n      dup14\n        /* \"#utility.yul\":7511:7517   */\n      dup3\n        /* \"#utility.yul\":7500:7509   */\n      dup15\n        /* \"#utility.yul\":7496:7518   */\n      add\n        /* \"#utility.yul\":7465:7528   */\n      tag_149\n      jump\t// in\n    tag_255:\n        /* \"#utility.yul\":7455:7528   */\n      swap6\n      pop\n        /* \"#utility.yul\":7249:7538   */\n      pop\n        /* \"#utility.yul\":7577:7580   */\n      0xc0\n        /* \"#utility.yul\":7604:7655   */\n      tag_256\n        /* \"#utility.yul\":7647:7654   */\n      dup14\n        /* \"#utility.yul\":7638:7644   */\n      dup3\n        /* \"#utility.yul\":7627:7636   */\n      dup15\n        /* \"#utility.yul\":7623:7645   */\n      add\n        /* \"#utility.yul\":7604:7655   */\n      tag_152\n      jump\t// in\n    tag_256:\n        /* \"#utility.yul\":7594:7655   */\n      swap5\n      pop\n        /* \"#utility.yul\":7548:7665   */\n      pop\n        /* \"#utility.yul\":7704:7707   */\n      0xe0\n        /* \"#utility.yul\":7731:7782   */\n      tag_257\n        /* \"#utility.yul\":7774:7781   */\n      dup14\n        /* \"#utility.yul\":7765:7771   */\n      dup3\n        /* \"#utility.yul\":7754:7763   */\n      dup15\n        /* \"#utility.yul\":7750:7772   */\n      add\n        /* \"#utility.yul\":7731:7782   */\n      tag_152\n      jump\t// in\n    tag_257:\n        /* \"#utility.yul\":7721:7782   */\n      swap4\n      pop\n        /* \"#utility.yul\":7675:7792   */\n      pop\n        /* \"#utility.yul\":7831:7834   */\n      0x0100\n        /* \"#utility.yul\":7858:7911   */\n      tag_258\n        /* \"#utility.yul\":7903:7910   */\n      dup14\n        /* \"#utility.yul\":7894:7900   */\n      dup3\n        /* \"#utility.yul\":7883:7892   */\n      dup15\n        /* \"#utility.yul\":7879:7901   */\n      add\n        /* \"#utility.yul\":7858:7911   */\n      tag_132\n      jump\t// in\n    tag_258:\n        /* \"#utility.yul\":7848:7911   */\n      swap3\n      pop\n        /* \"#utility.yul\":7802:7921   */\n      pop\n        /* \"#utility.yul\":7960:7963   */\n      0x0120\n        /* \"#utility.yul\":7987:8040   */\n      tag_259\n        /* \"#utility.yul\":8032:8039   */\n      dup14\n        /* \"#utility.yul\":8023:8029   */\n      dup3\n        /* \"#utility.yul\":8012:8021   */\n      dup15\n        /* \"#utility.yul\":8008:8030   */\n      add\n        /* \"#utility.yul\":7987:8040   */\n      tag_132\n      jump\t// in\n    tag_259:\n        /* \"#utility.yul\":7977:8040   */\n      swap2\n      pop\n        /* \"#utility.yul\":7931:8050   */\n      pop\n        /* \"#utility.yul\":5344:8057   */\n      swap3\n      swap6\n      swap9\n      swap12\n      swap2\n      swap5\n      swap8\n      swap11\n      pop\n      swap3\n      swap6\n      swap9\n      pop\n      jump\t// out\n        /* \"#utility.yul\":8063:8185   */\n    tag_153:\n        /* \"#utility.yul\":8136:8160   */\n      tag_261\n        /* \"#utility.yul\":8154:8159   */\n      dup2\n        /* \"#utility.yul\":8136:8160   */\n      tag_137\n      jump\t// in\n    tag_261:\n        /* \"#utility.yul\":8129:8134   */\n      dup2\n        /* \"#utility.yul\":8126:8161   */\n      eq\n        /* \"#utility.yul\":8116:8179   */\n      tag_262\n      jumpi\n        /* \"#utility.yul\":8175:8176   */\n      0x00\n        /* \"#utility.yul\":8172:8173   */\n      dup1\n        /* \"#utility.yul\":8165:8177   */\n      revert\n        /* \"#utility.yul\":8116:8179   */\n    tag_262:\n        /* \"#utility.yul\":8063:8185   */\n      pop\n      jump\t// out\n        /* \"#utility.yul\":8191:8330   */\n    tag_154:\n        /* \"#utility.yul\":8237:8242   */\n      0x00\n        /* \"#utility.yul\":8275:8281   */\n      dup2\n        /* \"#utility.yul\":8262:8282   */\n      calldataload\n        /* \"#utility.yul\":8253:8282   */\n      swap1\n      pop\n        /* \"#utility.yul\":8291:8324   */\n      tag_264\n        /* \"#utility.yul\":8318:8323   */\n      dup2\n        /* \"#utility.yul\":8291:8324   */\n      tag_153\n      jump\t// in\n    tag_264:\n        /* \"#utility.yul\":8191:8330   */\n      swap3\n      swap2\n      pop\n      pop\n      jump\t// out\n        /* \"#utility.yul\":8336:8665   */\n    tag_48:\n        /* \"#utility.yul\":8395:8401   */\n      0x00\n        /* \"#utility.yul\":8444:8446   */\n      0x20\n        /* \"#utility.yul\":8432:8441   */\n      dup3\n        /* \"#utility.yul\":8423:8430   */\n      dup5\n        /* \"#utility.yul\":8419:8442   */\n      sub\n        /* \"#utility.yul\":8415:8447   */\n      slt\n        /* \"#utility.yul\":8412:8531   */\n      iszero\n      tag_266\n      jumpi\n        /* \"#utility.yul\":8450:8529   */\n      tag_267\n      tag_128\n      jump\t// in\n    tag_267:\n        /* \"#utility.yul\":8412:8531   */\n    tag_266:\n        /* \"#utility.yul\":8570:8571   */\n      0x00\n        /* \"#utility.yul\":8595:8648   */\n      tag_268\n        /* \"#utility.yul\":8640:8647   */\n      dup5\n        /* \"#utility.yul\":8631:8637   */\n      dup3\n        /* \"#utility.yul\":8620:8629   */\n      dup6\n        /* \"#utility.yul\":8616:8638   */\n      add\n        /* \"#utility.yul\":8595:8648   */\n      tag_154\n      jump\t// in\n    tag_268:\n        /* \"#utility.yul\":8585:8648   */\n      swap2\n      pop\n        /* \"#utility.yul\":8541:8658   */\n      pop\n        /* \"#utility.yul\":8336:8665   */\n      swap3\n      swap2\n      pop\n      pop\n      jump\t// out\n        /* \"#utility.yul\":8671:9325   */\n    tag_53:\n        /* \"#utility.yul\":8749:8755   */\n      0x00\n        /* \"#utility.yul\":8757:8763   */\n      dup1\n        /* \"#utility.yul\":8806:8808   */\n      0x40\n        /* \"#utility.yul\":8794:8803   */\n      dup4\n        /* \"#utility.yul\":8785:8792   */\n      dup6\n        /* \"#utility.yul\":8781:8804   */\n      sub\n        /* \"#utility.yul\":8777:8809   */\n      slt\n        /* \"#utility.yul\":8774:8893   */\n      iszero\n      tag_270\n      jumpi\n        /* \"#utility.yul\":8812:8891   */\n      tag_271\n      tag_128\n      jump\t// in\n    tag_271:\n        /* \"#utility.yul\":8774:8893   */\n    tag_270:\n        /* \"#utility.yul\":8932:8933   */\n      0x00\n        /* \"#utility.yul\":8957:9010   */\n      tag_272\n        /* \"#utility.yul\":9002:9009   */\n      dup6\n        /* \"#utility.yul\":8993:8999   */\n      dup3\n        /* \"#utility.yul\":8982:8991   */\n      dup7\n        /* \"#utility.yul\":8978:9000   */\n      add\n        /* \"#utility.yul\":8957:9010   */\n      tag_132\n      jump\t// in\n    tag_272:\n        /* \"#utility.yul\":8947:9010   */\n      swap3\n      pop\n        /* \"#utility.yul\":8903:9020   */\n      pop\n        /* \"#utility.yul\":9087:9089   */\n      0x20\n        /* \"#utility.yul\":9076:9085   */\n      dup4\n        /* \"#utility.yul\":9072:9090   */\n      add\n        /* \"#utility.yul\":9059:9091   */\n      calldataload\n        /* \"#utility.yul\":9118:9136   */\n      0xffffffffffffffff\n        /* \"#utility.yul\":9110:9116   */\n      dup2\n        /* \"#utility.yul\":9107:9137   */\n      gt\n        /* \"#utility.yul\":9104:9221   */\n      iszero\n      tag_273\n      jumpi\n        /* \"#utility.yul\":9140:9219   */\n      tag_274\n      tag_129\n      jump\t// in\n    tag_274:\n        /* \"#utility.yul\":9104:9221   */\n    tag_273:\n        /* \"#utility.yul\":9245:9308   */\n      tag_275\n        /* \"#utility.yul\":9300:9307   */\n      dup6\n        /* \"#utility.yul\":9291:9297   */\n      dup3\n        /* \"#utility.yul\":9280:9289   */\n      dup7\n        /* \"#utility.yul\":9276:9298   */\n      add\n        /* \"#utility.yul\":9245:9308   */\n      tag_149\n      jump\t// in\n    tag_275:\n        /* \"#utility.yul\":9235:9308   */\n      swap2\n      pop\n        /* \"#utility.yul\":9030:9318   */\n      pop\n        /* \"#utility.yul\":8671:9325   */\n      swap3\n      pop\n      swap3\n      swap1\n      pop\n      jump\t// out\n        /* \"#utility.yul\":9331:9500   */\n    tag_155:\n        /* \"#utility.yul\":9415:9426   */\n      0x00\n        /* \"#utility.yul\":9449:9455   */\n      dup3\n        /* \"#utility.yul\":9444:9447   */\n      dup3\n        /* \"#utility.yul\":9437:9456   */\n      mstore\n        /* \"#utility.yul\":9489:9493   */\n      0x20\n        /* \"#utility.yul\":9484:9487   */\n      dup3\n        /* \"#utility.yul\":9480:9494   */\n      add\n        /* \"#utility.yul\":9465:9494   */\n      swap1\n      pop\n        /* \"#utility.yul\":9331:9500   */\n      swap3\n      swap2\n      pop\n      pop\n      jump\t// out\n        /* \"#utility.yul\":9506:9688   */\n    tag_156:\n        /* \"#utility.yul\":9646:9680   */\n      0x4f776e61626c653a2063616c6c6572206973206e6f7420746865206f776e6572\n        /* \"#utility.yul\":9642:9643   */\n      0x00\n        /* \"#utility.yul\":9634:9640   */\n      dup3\n        /* \"#utility.yul\":9630:9644   */\n      add\n        /* \"#utility.yul\":9623:9681   */\n      mstore\n        /* \"#utility.yul\":9506:9688   */\n      pop\n      jump\t// out\n        /* \"#utility.yul\":9694:10060   */\n    tag_157:\n        /* \"#utility.yul\":9836:9839   */\n      0x00\n        /* \"#utility.yul\":9857:9924   */\n      tag_279\n        /* \"#utility.yul\":9921:9923   */\n      0x20\n        /* \"#utility.yul\":9916:9919   */\n      dup4\n        /* \"#utility.yul\":9857:9924   */\n      tag_155\n      jump\t// in\n    tag_279:\n        /* \"#utility.yul\":9850:9924   */\n      swap2\n      pop\n        /* \"#utility.yul\":9933:10026   */\n      tag_280\n        /* \"#utility.yul\":10022:10025   */\n      dup3\n        /* \"#utility.yul\":9933:10026   */\n      tag_156\n      jump\t// in\n    tag_280:\n        /* \"#utility.yul\":10051:10053   */\n      0x20\n        /* \"#utility.yul\":10046:10049   */\n      dup3\n        /* \"#utility.yul\":10042:10054   */\n      add\n        /* \"#utility.yul\":10035:10054   */\n      swap1\n      pop\n        /* \"#utility.yul\":9694:10060   */\n      swap2\n      swap1\n      pop\n      jump\t// out\n        /* \"#utility.yul\":10066:10485   */\n    tag_61:\n        /* \"#utility.yul\":10232:10236   */\n      0x00\n        /* \"#utility.yul\":10270:10272   */\n      0x20\n        /* \"#utility.yul\":10259:10268   */\n      dup3\n        /* \"#utility.yul\":10255:10273   */\n      add\n        /* \"#utility.yul\":10247:10273   */\n      swap1\n      pop\n        /* \"#utility.yul\":10319:10328   */\n      dup2\n        /* \"#utility.yul\":10313:10317   */\n      dup2\n        /* \"#utility.yul\":10309:10329   */\n      sub\n        /* \"#utility.yul\":10305:10306   */\n      0x00\n        /* \"#utility.yul\":10294:10303   */\n      dup4\n        /* \"#utility.yul\":10290:10307   */\n      add\n        /* \"#utility.yul\":10283:10330   */\n      mstore\n        /* \"#utility.yul\":10347:10478   */\n      tag_282\n        /* \"#utility.yul\":10473:10477   */\n      dup2\n        /* \"#utility.yul\":10347:10478   */\n      tag_157\n      jump\t// in\n    tag_282:\n        /* \"#utility.yul\":10339:10478   */\n      swap1\n      pop\n        /* \"#utility.yul\":10066:10485   */\n      swap2\n      swap1\n      pop\n      jump\t// out\n        /* \"#utility.yul\":10491:10671   */\n    tag_158:\n        /* \"#utility.yul\":10539:10616   */\n      0x4e487b7100000000000000000000000000000000000000000000000000000000\n        /* \"#utility.yul\":10536:10537   */\n      0x00\n        /* \"#utility.yul\":10529:10617   */\n      mstore\n        /* \"#utility.yul\":10636:10640   */\n      0x12\n        /* \"#utility.yul\":10633:10634   */\n      0x04\n        /* \"#utility.yul\":10626:10641   */\n      mstore\n        /* \"#utility.yul\":10660:10664   */\n      0x24\n        /* \"#utility.yul\":10657:10658   */\n      0x00\n        /* \"#utility.yul\":10650:10665   */\n      revert\n        /* \"#utility.yul\":10677:10853   */\n    tag_78:\n        /* \"#utility.yul\":10709:10710   */\n      0x00\n        /* \"#utility.yul\":10726:10746   */\n      tag_285\n        /* \"#utility.yul\":10744:10745   */\n      dup3\n        /* \"#utility.yul\":10726:10746   */\n      tag_130\n      jump\t// in\n    tag_285:\n        /* \"#utility.yul\":10721:10746   */\n      swap2\n      pop\n        /* \"#utility.yul\":10760:10780   */\n      tag_286\n        /* \"#utility.yul\":10778:10779   */\n      dup4\n        /* \"#utility.yul\":10760:10780   */\n      tag_130\n      jump\t// in\n    tag_286:\n        /* \"#utility.yul\":10755:10780   */\n      swap3\n      pop\n        /* \"#utility.yul\":10799:10800   */\n      dup3\n        /* \"#utility.yul\":10789:10824   */\n      tag_287\n      jumpi\n        /* \"#utility.yul\":10804:10822   */\n      tag_288\n      tag_158\n      jump\t// in\n    tag_288:\n        /* \"#utility.yul\":10789:10824   */\n    tag_287:\n        /* \"#utility.yul\":10845:10846   */\n      dup3\n        /* \"#utility.yul\":10842:10843   */\n      dup3\n        /* \"#utility.yul\":10838:10847   */\n      mod\n        /* \"#utility.yul\":10833:10847   */\n      swap1\n      pop\n        /* \"#utility.yul\":10677:10853   */\n      swap3\n      swap2\n      pop\n      pop\n      jump\t// out\n        /* \"#utility.yul\":10859:11084   */\n    tag_159:\n        /* \"#utility.yul\":10999:11033   */\n      0x4f776e61626c653a206e6577206f776e657220697320746865207a65726f2061\n        /* \"#utility.yul\":10995:10996   */\n      0x00\n        /* \"#utility.yul\":10987:10993   */\n      dup3\n        /* \"#utility.yul\":10983:10997   */\n      add\n        /* \"#utility.yul\":10976:11034   */\n      mstore\n        /* \"#utility.yul\":11068:11076   */\n      0x6464726573730000000000000000000000000000000000000000000000000000\n        /* \"#utility.yul\":11063:11065   */\n      0x20\n        /* \"#utility.yul\":11055:11061   */\n      dup3\n        /* \"#utility.yul\":11051:11066   */\n      add\n        /* \"#utility.yul\":11044:11077   */\n      mstore\n        /* \"#utility.yul\":10859:11084   */\n      pop\n      jump\t// out\n        /* \"#utility.yul\":11090:11456   */\n    tag_160:\n        /* \"#utility.yul\":11232:11235   */\n      0x00\n        /* \"#utility.yul\":11253:11320   */\n      tag_291\n        /* \"#utility.yul\":11317:11319   */\n      0x26\n        /* \"#utility.yul\":11312:11315   */\n      dup4\n        /* \"#utility.yul\":11253:11320   */\n      tag_155\n      jump\t// in\n    tag_291:\n        /* \"#utility.yul\":11246:11320   */\n      swap2\n      pop\n        /* \"#utility.yul\":11329:11422   */\n      tag_292\n        /* \"#utility.yul\":11418:11421   */\n      dup3\n        /* \"#utility.yul\":11329:11422   */\n      tag_159\n      jump\t// in\n    tag_292:\n        /* \"#utility.yul\":11447:11449   */\n      0x40\n        /* \"#utility.yul\":11442:11445   */\n      dup3\n        /* \"#utility.yul\":11438:11450   */\n      add\n        /* \"#utility.yul\":11431:11450   */\n      swap1\n      pop\n        /* \"#utility.yul\":11090:11456   */\n      swap2\n      swap1\n      pop\n      jump\t// out\n        /* \"#utility.yul\":11462:11881   */\n    tag_91:\n        /* \"#utility.yul\":11628:11632   */\n      0x00\n        /* \"#utility.yul\":11666:11668   */\n      0x20\n        /* \"#utility.yul\":11655:11664   */\n      dup3\n        /* \"#utility.yul\":11651:11669   */\n      add\n        /* \"#utility.yul\":11643:11669   */\n      swap1\n      pop\n        /* \"#utility.yul\":11715:11724   */\n      dup2\n        /* \"#utility.yul\":11709:11713   */\n      dup2\n        /* \"#utility.yul\":11705:11725   */\n      sub\n        /* \"#utility.yul\":11701:11702   */\n      0x00\n        /* \"#utility.yul\":11690:11699   */\n      dup4\n        /* \"#utility.yul\":11686:11703   */\n      add\n        /* \"#utility.yul\":11679:11726   */\n      mstore\n        /* \"#utility.yul\":11743:11874   */\n      tag_294\n        /* \"#utility.yul\":11869:11873   */\n      dup2\n        /* \"#utility.yul\":11743:11874   */\n      tag_160\n      jump\t// in\n    tag_294:\n        /* \"#utility.yul\":11735:11874   */\n      swap1\n      pop\n        /* \"#utility.yul\":11462:11881   */\n      swap2\n      swap1\n      pop\n      jump\t// out\n        /* \"#utility.yul\":11887:12067   */\n    tag_98:\n        /* \"#utility.yul\":11935:12012   */\n      0x4e487b7100000000000000000000000000000000000000000000000000000000\n        /* \"#utility.yul\":11932:11933   */\n      0x00\n        /* \"#utility.yul\":11925:12013   */\n      mstore\n        /* \"#utility.yul\":12032:12036   */\n      0x32\n        /* \"#utility.yul\":12029:12030   */\n      0x04\n        /* \"#utility.yul\":12022:12037   */\n      mstore\n        /* \"#utility.yul\":12056:12060   */\n      0x24\n        /* \"#utility.yul\":12053:12054   */\n      0x00\n        /* \"#utility.yul\":12046:12061   */\n      revert\n        /* \"#utility.yul\":12073:12253   */\n    tag_161:\n        /* \"#utility.yul\":12121:12198   */\n      0x4e487b7100000000000000000000000000000000000000000000000000000000\n        /* \"#utility.yul\":12118:12119   */\n      0x00\n        /* \"#utility.yul\":12111:12199   */\n      mstore\n        /* \"#utility.yul\":12218:12222   */\n      0x11\n        /* \"#utility.yul\":12215:12216   */\n      0x04\n        /* \"#utility.yul\":12208:12223   */\n      mstore\n        /* \"#utility.yul\":12242:12246   */\n      0x24\n        /* \"#utility.yul\":12239:12240   */\n      0x00\n        /* \"#utility.yul\":12232:12247   */\n      revert\n        /* \"#utility.yul\":12259:12450   */\n    tag_113:\n        /* \"#utility.yul\":12299:12303   */\n      0x00\n        /* \"#utility.yul\":12319:12339   */\n      tag_298\n        /* \"#utility.yul\":12337:12338   */\n      dup3\n        /* \"#utility.yul\":12319:12339   */\n      tag_130\n      jump\t// in\n    tag_298:\n        /* \"#utility.yul\":12314:12339   */\n      swap2\n      pop\n        /* \"#utility.yul\":12353:12373   */\n      tag_299\n        /* \"#utility.yul\":12371:12372   */\n      dup4\n        /* \"#utility.yul\":12353:12373   */\n      tag_130\n      jump\t// in\n    tag_299:\n        /* \"#utility.yul\":12348:12373   */\n      swap3\n      pop\n        /* \"#utility.yul\":12392:12393   */\n      dup3\n        /* \"#utility.yul\":12389:12390   */\n      dup3\n        /* \"#utility.yul\":12386:12394   */\n      lt\n        /* \"#utility.yul\":12383:12417   */\n      iszero\n      tag_300\n      jumpi\n        /* \"#utility.yul\":12397:12415   */\n      tag_301\n      tag_161\n      jump\t// in\n    tag_301:\n        /* \"#utility.yul\":12383:12417   */\n    tag_300:\n        /* \"#utility.yul\":12442:12443   */\n      dup3\n        /* \"#utility.yul\":12439:12440   */\n      dup3\n        /* \"#utility.yul\":12435:12444   */\n      sub\n        /* \"#utility.yul\":12427:12444   */\n      swap1\n      pop\n        /* \"#utility.yul\":12259:12450   */\n      swap3\n      swap2\n      pop\n      pop\n      jump\t// out\n        /* \"#utility.yul\":12456:12555   */\n    tag_162:\n        /* \"#utility.yul\":12508:12514   */\n      0x00\n        /* \"#utility.yul\":12542:12547   */\n      dup2\n        /* \"#utility.yul\":12536:12548   */\n      mload\n        /* \"#utility.yul\":12526:12548   */\n      swap1\n      pop\n        /* \"#utility.yul\":12456:12555   */\n      swap2\n      swap1\n      pop\n      jump\t// out\n        /* \"#utility.yul\":12561:12868   */\n    tag_163:\n        /* \"#utility.yul\":12629:12630   */\n      0x00\n        /* \"#utility.yul\":12639:12752   */\n    tag_304:\n        /* \"#utility.yul\":12653:12659   */\n      dup4\n        /* \"#utility.yul\":12650:12651   */\n      dup2\n        /* \"#utility.yul\":12647:12660   */\n      lt\n        /* \"#utility.yul\":12639:12752   */\n      iszero\n      tag_306\n      jumpi\n        /* \"#utility.yul\":12738:12739   */\n      dup1\n        /* \"#utility.yul\":12733:12736   */\n      dup3\n        /* \"#utility.yul\":12729:12740   */\n      add\n        /* \"#utility.yul\":12723:12741   */\n      mload\n        /* \"#utility.yul\":12719:12720   */\n      dup2\n        /* \"#utility.yul\":12714:12717   */\n      dup5\n        /* \"#utility.yul\":12710:12721   */\n      add\n        /* \"#utility.yul\":12703:12742   */\n      mstore\n        /* \"#utility.yul\":12675:12677   */\n      0x20\n        /* \"#utility.yul\":12672:12673   */\n      dup2\n        /* \"#utility.yul\":12668:12678   */\n      add\n        /* \"#utility.yul\":12663:12678   */\n      swap1\n      pop\n        /* \"#utility.yul\":12639:12752   */\n      jump(tag_304)\n    tag_306:\n        /* \"#utility.yul\":12770:12776   */\n      dup4\n        /* \"#utility.yul\":12767:12768   */\n      dup2\n        /* \"#utility.yul\":12764:12777   */\n      gt\n        /* \"#utility.yul\":12761:12862   */\n      iszero\n      tag_307\n      jumpi\n        /* \"#utility.yul\":12850:12851   */\n      0x00\n        /* \"#utility.yul\":12841:12847   */\n      dup5\n        /* \"#utility.yul\":12836:12839   */\n      dup5\n        /* \"#utility.yul\":12832:12848   */\n      add\n        /* \"#utility.yul\":12825:12852   */\n      mstore\n        /* \"#utility.yul\":12761:12862   */\n    tag_307:\n        /* \"#utility.yul\":12610:12868   */\n      pop\n        /* \"#utility.yul\":12561:12868   */\n      pop\n      pop\n      pop\n      jump\t// out\n        /* \"#utility.yul\":12874:13238   */\n    tag_164:\n        /* \"#utility.yul\":12962:12965   */\n      0x00\n        /* \"#utility.yul\":12990:13029   */\n      tag_309\n        /* \"#utility.yul\":13023:13028   */\n      dup3\n        /* \"#utility.yul\":12990:13029   */\n      tag_162\n      jump\t// in\n    tag_309:\n        /* \"#utility.yul\":13045:13116   */\n      tag_310\n        /* \"#utility.yul\":13109:13115   */\n      dup2\n        /* \"#utility.yul\":13104:13107   */\n      dup6\n        /* \"#utility.yul\":13045:13116   */\n      tag_155\n      jump\t// in\n    tag_310:\n        /* \"#utility.yul\":13038:13116   */\n      swap4\n      pop\n        /* \"#utility.yul\":13125:13177   */\n      tag_311\n        /* \"#utility.yul\":13170:13176   */\n      dup2\n        /* \"#utility.yul\":13165:13168   */\n      dup6\n        /* \"#utility.yul\":13158:13162   */\n      0x20\n        /* \"#utility.yul\":13151:13156   */\n      dup7\n        /* \"#utility.yul\":13147:13163   */\n      add\n        /* \"#utility.yul\":13125:13177   */\n      tag_163\n      jump\t// in\n    tag_311:\n        /* \"#utility.yul\":13202:13231   */\n      tag_312\n        /* \"#utility.yul\":13224:13230   */\n      dup2\n        /* \"#utility.yul\":13202:13231   */\n      tag_142\n      jump\t// in\n    tag_312:\n        /* \"#utility.yul\":13197:13200   */\n      dup5\n        /* \"#utility.yul\":13193:13232   */\n      add\n        /* \"#utility.yul\":13186:13232   */\n      swap2\n      pop\n        /* \"#utility.yul\":12966:13238   */\n      pop\n        /* \"#utility.yul\":12874:13238   */\n      swap3\n      swap2\n      pop\n      pop\n      jump\t// out\n        /* \"#utility.yul\":13244:13356   */\n    tag_165:\n        /* \"#utility.yul\":13327:13349   */\n      tag_314\n        /* \"#utility.yul\":13343:13348   */\n      dup2\n        /* \"#utility.yul\":13327:13349   */\n      tag_150\n      jump\t// in\n    tag_314:\n        /* \"#utility.yul\":13322:13325   */\n      dup3\n        /* \"#utility.yul\":13315:13350   */\n      mstore\n        /* \"#utility.yul\":13244:13356   */\n      pop\n      pop\n      jump\t// out\n        /* \"#utility.yul\":13362:13777   */\n    tag_115:\n        /* \"#utility.yul\":13499:13503   */\n      0x00\n        /* \"#utility.yul\":13537:13539   */\n      0x40\n        /* \"#utility.yul\":13526:13535   */\n      dup3\n        /* \"#utility.yul\":13522:13540   */\n      add\n        /* \"#utility.yul\":13514:13540   */\n      swap1\n      pop\n        /* \"#utility.yul\":13586:13595   */\n      dup2\n        /* \"#utility.yul\":13580:13584   */\n      dup2\n        /* \"#utility.yul\":13576:13596   */\n      sub\n        /* \"#utility.yul\":13572:13573   */\n      0x00\n        /* \"#utility.yul\":13561:13570   */\n      dup4\n        /* \"#utility.yul\":13557:13574   */\n      add\n        /* \"#utility.yul\":13550:13597   */\n      mstore\n        /* \"#utility.yul\":13614:13692   */\n      tag_316\n        /* \"#utility.yul\":13687:13691   */\n      dup2\n        /* \"#utility.yul\":13678:13684   */\n      dup6\n        /* \"#utility.yul\":13614:13692   */\n      tag_164\n      jump\t// in\n    tag_316:\n        /* \"#utility.yul\":13606:13692   */\n      swap1\n      pop\n        /* \"#utility.yul\":13702:13770   */\n      tag_317\n        /* \"#utility.yul\":13766:13768   */\n      0x20\n        /* \"#utility.yul\":13755:13764   */\n      dup4\n        /* \"#utility.yul\":13751:13769   */\n      add\n        /* \"#utility.yul\":13742:13748   */\n      dup5\n        /* \"#utility.yul\":13702:13770   */\n      tag_165\n      jump\t// in\n    tag_317:\n        /* \"#utility.yul\":13362:13777   */\n      swap4\n      swap3\n      pop\n      pop\n      pop\n      jump\t// out\n        /* \"#utility.yul\":13783:13963   */\n    tag_166:\n        /* \"#utility.yul\":13831:13908   */\n      0x4e487b7100000000000000000000000000000000000000000000000000000000\n        /* \"#utility.yul\":13828:13829   */\n      0x00\n        /* \"#utility.yul\":13821:13909   */\n      mstore\n        /* \"#utility.yul\":13928:13932   */\n      0x22\n        /* \"#utility.yul\":13925:13926   */\n      0x04\n        /* \"#utility.yul\":13918:13933   */\n      mstore\n        /* \"#utility.yul\":13952:13956   */\n      0x24\n        /* \"#utility.yul\":13949:13950   */\n      0x00\n        /* \"#utility.yul\":13942:13957   */\n      revert\n        /* \"#utility.yul\":13969:14289   */\n    tag_117:\n        /* \"#utility.yul\":14013:14019   */\n      0x00\n        /* \"#utility.yul\":14050:14051   */\n      0x02\n        /* \"#utility.yul\":14044:14048   */\n      dup3\n        /* \"#utility.yul\":14040:14052   */\n      div\n        /* \"#utility.yul\":14030:14052   */\n      swap1\n      pop\n        /* \"#utility.yul\":14097:14098   */\n      0x01\n        /* \"#utility.yul\":14091:14095   */\n      dup3\n        /* \"#utility.yul\":14087:14099   */\n      and\n        /* \"#utility.yul\":14118:14136   */\n      dup1\n        /* \"#utility.yul\":14108:14189   */\n      tag_320\n      jumpi\n        /* \"#utility.yul\":14174:14178   */\n      0x7f\n        /* \"#utility.yul\":14166:14172   */\n      dup3\n        /* \"#utility.yul\":14162:14179   */\n      and\n        /* \"#utility.yul\":14152:14179   */\n      swap2\n      pop\n        /* \"#utility.yul\":14108:14189   */\n    tag_320:\n        /* \"#utility.yul\":14236:14238   */\n      0x20\n        /* \"#utility.yul\":14228:14234   */\n      dup3\n        /* \"#utility.yul\":14225:14239   */\n      lt\n        /* \"#utility.yul\":14205:14223   */\n      dup2\n        /* \"#utility.yul\":14202:14240   */\n      sub\n        /* \"#utility.yul\":14199:14283   */\n      tag_321\n      jumpi\n        /* \"#utility.yul\":14255:14273   */\n      tag_322\n      tag_166\n      jump\t// in\n    tag_322:\n        /* \"#utility.yul\":14199:14283   */\n    tag_321:\n        /* \"#utility.yul\":14020:14289   */\n      pop\n        /* \"#utility.yul\":13969:14289   */\n      swap2\n      swap1\n      pop\n      jump\t// out\n\n    auxdata: 0xa2646970667358221220446aaa69917be2bdd0118504ec5a31be430f7f086a42ede05237f9c97e1cd36f64736f6c634300080e0033\n}\n",
				"bytecode": {
					"linkReferences": {},
					"object": "608060405234801561001057600080fd5b5061002d61002261003260201b60201c565b61003a60201b60201c565b6100fe565b600033905090565b60008060009054906101000a900473ffffffffffffffffffffffffffffffffffffffff169050816000806101000a81548173ffffffffffffffffffffffffffffffffffffffff021916908373ffffffffffffffffffffffffffffffffffffffff1602179055508173ffffffffffffffffffffffffffffffffffffffff168173ffffffffffffffffffffffffffffffffffffffff167f8be0079c531659141344cd1fd0a4f28419497f9722a3daafe3b4186f6b6457e060405160405180910390a35050565b6112878061010d6000396000f3fe6080604052600436106100865760003560e01c8063715018a611610059578063715018a6146101575780638da5cb5b1461016e5780639a2dc40914610199578063f2fde38b146101b5578063fbb3b6ce146101de57610086565b80631d3f75591461008b578063377def85146100b4578063400ae0f9146100dd57806351a1d40e1461011a575b600080fd5b34801561009757600080fd5b506100b260048036038101906100ad9190610a8c565b610207565b005b3480156100c057600080fd5b506100db60048036038101906100d69190610a8c565b6102b2565b005b3480156100e957600080fd5b5061010460048036038101906100ff9190610acc565b61034e565b6040516101119190610b3a565b60405180910390f35b34801561012657600080fd5b50610141600480360381019061013c9190610acc565b610381565b60405161014e9190610b64565b60405180910390f35b34801561016357600080fd5b5061016c6103a1565b005b34801561017a57600080fd5b50610183610429565b6040516101909190610b3a565b60405180910390f35b6101b360048036038101906101ae9190610cfe565b610452565b005b3480156101c157600080fd5b506101dc60048036038101906101d79190610eb1565b6104a0565b005b3480156101ea57600080fd5b5061020560048036038101906102009190610ede565b610597565b005b61020f610642565b73ffffffffffffffffffffffffffffffffffffffff1661022d610429565b73ffffffffffffffffffffffffffffffffffffffff1614610283576040517f08c379a000000000000000000000000000000000000000000000000000000000815260040161027a90610f97565b60405180910390fd5b806002600084815260200190815260200160002060006101000a81548160ff0219169083151502179055505050565b813373ffffffffffffffffffffffffffffffffffffffff166004600083815260200190815260200160002060009054906101000a900473ffffffffffffffffffffffffffffffffffffffff1673ffffffffffffffffffffffffffffffffffffffff161461031e57600080fd5b816002600085815260200190815260200160002060006101000a81548160ff021916908315150217905550505050565b60046020528060005260406000206000915054906101000a900473ffffffffffffffffffffffffffffffffffffffff1681565b60026020528060005260406000206000915054906101000a900460ff1681565b6103a9610642565b73ffffffffffffffffffffffffffffffffffffffff166103c7610429565b73ffffffffffffffffffffffffffffffffffffffff161461041d576040517f08c379a000000000000000000000000000000000000000000000000000000000815260040161041490610f97565b60405180910390fd5b610427600061064a565b565b60008060009054906101000a900473ffffffffffffffffffffffffffffffffffffffff16905090565b80341461045e57600080fd5b6000828261046c9190610fe6565b1461047657600080fd5b81811161048257600080fd5b6104948a8a8a8a8a8a8a8a8a8a61070e565b50505050505050505050565b6104a8610642565b73ffffffffffffffffffffffffffffffffffffffff166104c6610429565b73ffffffffffffffffffffffffffffffffffffffff161461051c576040517f08c379a000000000000000000000000000000000000000000000000000000000815260040161051390610f97565b60405180910390fd5b600073ffffffffffffffffffffffffffffffffffffffff168173ffffffffffffffffffffffffffffffffffffffff160361058b576040517f08c379a000000000000000000000000000000000000000000000000000000000815260040161058290611089565b60405180910390fd5b6105948161064a565b50565b813373ffffffffffffffffffffffffffffffffffffffff166004600083815260200190815260200160002060009054906101000a900473ffffffffffffffffffffffffffffffffffffffff1673ffffffffffffffffffffffffffffffffffffffff161461060357600080fd5b8160018481548110610618576106176110a9565b5b9060005260206000209060090201600501908051906020019061063c929190610967565b50505050565b600033905090565b60008060009054906101000a900473ffffffffffffffffffffffffffffffffffffffff169050816000806101000a81548173ffffffffffffffffffffffffffffffffffffffff021916908373ffffffffffffffffffffffffffffffffffffffff1602179055508173ffffffffffffffffffffffffffffffffffffffff168173ffffffffffffffffffffffffffffffffffffffff167f8be0079c531659141344cd1fd0a4f28419497f9722a3daafe3b4186f6b6457e060405160405180910390a35050565b60016040518061012001604052808c81526020018b81526020018a81526020018981526020018881526020018781526020018560ff1681526020018481526020018381525090806001815401808255809150506001900390600052602060002090600902016000909190919091506000820151816000019080519060200190610798929190610967565b5060208201518160010190805190602001906107b5929190610967565b5060408201518160020190805190602001906107d2929190610967565b5060608201518160030190805190602001906107ef929190610967565b50608082015181600401908051906020019061080c929190610967565b5060a0820151816005019080519060200190610829929190610967565b5060c08201518160060160006101000a81548160ff021916908360ff16021790555060e08201518160070155610100820151816008015550506000600180805490506108759190611107565b9050846003600083815260200190815260200160002060006101000a81548160ff021916908360ff160217905550336004600083815260200190815260200160002060006101000a81548173ffffffffffffffffffffffffffffffffffffffff021916908373ffffffffffffffffffffffffffffffffffffffff16021790555060016002600083815260200190815260200160002060006101000a81548160ff0219169083151502179055507f545dca5d847b655a9f03cdf5619f53f0b2546051fd0d015b18c09ae2a8b1a7658b866040516109529291906111c1565b60405180910390a15050505050505050505050565b82805461097390611220565b90600052602060002090601f01602090048101928261099557600085556109dc565b82601f106109ae57805160ff19168380011785556109dc565b828001600101855582156109dc579182015b828111156109db5782518255916020019190600101906109c0565b5b5090506109e991906109ed565b5090565b5b80821115610a065760008160009055506001016109ee565b5090565b6000604051905090565b600080fd5b600080fd5b6000819050919050565b610a3181610a1e565b8114610a3c57600080fd5b50565b600081359050610a4e81610a28565b92915050565b60008115159050919050565b610a6981610a54565b8114610a7457600080fd5b50565b600081359050610a8681610a60565b92915050565b60008060408385031215610aa357610aa2610a14565b5b6000610ab185828601610a3f565b9250506020610ac285828601610a77565b9150509250929050565b600060208284031215610ae257610ae1610a14565b5b6000610af084828501610a3f565b91505092915050565b600073ffffffffffffffffffffffffffffffffffffffff82169050919050565b6000610b2482610af9565b9050919050565b610b3481610b19565b82525050565b6000602082019050610b4f6000830184610b2b565b92915050565b610b5e81610a54565b82525050565b6000602082019050610b796000830184610b55565b92915050565b600080fd5b600080fd5b6000601f19601f8301169050919050565b7f4e487b7100000000000000000000000000000000000000000000000000000000600052604160045260246000fd5b610bd282610b89565b810181811067ffffffffffffffff82111715610bf157610bf0610b9a565b5b80604052505050565b6000610c04610a0a565b9050610c108282610bc9565b919050565b600067ffffffffffffffff821115610c3057610c2f610b9a565b5b610c3982610b89565b9050602081019050919050565b82818337600083830152505050565b6000610c68610c6384610c15565b610bfa565b905082815260208101848484011115610c8457610c83610b84565b5b610c8f848285610c46565b509392505050565b600082601f830112610cac57610cab610b7f565b5b8135610cbc848260208601610c55565b91505092915050565b600060ff82169050919050565b610cdb81610cc5565b8114610ce657600080fd5b50565b600081359050610cf881610cd2565b92915050565b6000806000806000806000806000806101408b8d031215610d2257610d21610a14565b5b60008b013567ffffffffffffffff811115610d4057610d3f610a19565b5b610d4c8d828e01610c97565b9a505060208b013567ffffffffffffffff811115610d6d57610d6c610a19565b5b610d798d828e01610c97565b99505060408b013567ffffffffffffffff811115610d9a57610d99610a19565b5b610da68d828e01610c97565b98505060608b013567ffffffffffffffff811115610dc757610dc6610a19565b5b610dd38d828e01610c97565b97505060808b013567ffffffffffffffff811115610df457610df3610a19565b5b610e008d828e01610c97565b96505060a08b013567ffffffffffffffff811115610e2157610e20610a19565b5b610e2d8d828e01610c97565b95505060c0610e3e8d828e01610ce9565b94505060e0610e4f8d828e01610ce9565b935050610100610e618d828e01610a3f565b925050610120610e738d828e01610a3f565b9150509295989b9194979a5092959850565b610e8e81610b19565b8114610e9957600080fd5b50565b600081359050610eab81610e85565b92915050565b600060208284031215610ec757610ec6610a14565b5b6000610ed584828501610e9c565b91505092915050565b60008060408385031215610ef557610ef4610a14565b5b6000610f0385828601610a3f565b925050602083013567ffffffffffffffff811115610f2457610f23610a19565b5b610f3085828601610c97565b9150509250929050565b600082825260208201905092915050565b7f4f776e61626c653a2063616c6c6572206973206e6f7420746865206f776e6572600082015250565b6000610f81602083610f3a565b9150610f8c82610f4b565b602082019050919050565b60006020820190508181036000830152610fb081610f74565b9050919050565b7f4e487b7100000000000000000000000000000000000000000000000000000000600052601260045260246000fd5b6000610ff182610a1e565b9150610ffc83610a1e565b92508261100c5761100b610fb7565b5b828206905092915050565b7f4f776e61626c653a206e6577206f776e657220697320746865207a65726f206160008201527f6464726573730000000000000000000000000000000000000000000000000000602082015250565b6000611073602683610f3a565b915061107e82611017565b604082019050919050565b600060208201905081810360008301526110a281611066565b9050919050565b7f4e487b7100000000000000000000000000000000000000000000000000000000600052603260045260246000fd5b7f4e487b7100000000000000000000000000000000000000000000000000000000600052601160045260246000fd5b600061111282610a1e565b915061111d83610a1e565b9250828210156111305761112f6110d8565b5b828203905092915050565b600081519050919050565b60005b83811015611164578082015181840152602081019050611149565b83811115611173576000848401525b50505050565b60006111848261113b565b61118e8185610f3a565b935061119e818560208601611146565b6111a781610b89565b840191505092915050565b6111bb81610cc5565b82525050565b600060408201905081810360008301526111db8185611179565b90506111ea60208301846111b2565b9392505050565b7f4e487b7100000000000000000000000000000000000000000000000000000000600052602260045260246000fd5b6000600282049050600182168061123857607f821691505b60208210810361124b5761124a6111f1565b5b5091905056fea2646970667358221220446aaa69917be2bdd0118504ec5a31be430f7f086a42ede05237f9c97e1cd36f64736f6c634300080e0033",
					"opcodes": "PUSH1 0x80 PUSH1 0x40 MSTORE CALLVALUE DUP1 ISZERO PUSH2 0x10 JUMPI PUSH1 0x0 DUP1 REVERT JUMPDEST POP PUSH2 0x2D PUSH2 0x22 PUSH2 0x32 PUSH1 0x20 SHL PUSH1 0x20 SHR JUMP JUMPDEST PUSH2 0x3A PUSH1 0x20 SHL PUSH1 0x20 SHR JUMP JUMPDEST PUSH2 0xFE JUMP JUMPDEST PUSH1 0x0 CALLER SWAP1 POP SWAP1 JUMP JUMPDEST PUSH1 0x0 DUP1 PUSH1 0x0 SWAP1 SLOAD SWAP1 PUSH2 0x100 EXP SWAP1 DIV PUSH20 0xFFFFFFFFFFFFFFFFFFFFFFFFFFFFFFFFFFFFFFFF AND SWAP1 POP DUP2 PUSH1 0x0 DUP1 PUSH2 0x100 EXP DUP2 SLOAD DUP2 PUSH20 0xFFFFFFFFFFFFFFFFFFFFFFFFFFFFFFFFFFFFFFFF MUL NOT AND SWAP1 DUP4 PUSH20 0xFFFFFFFFFFFFFFFFFFFFFFFFFFFFFFFFFFFFFFFF AND MUL OR SWAP1 SSTORE POP DUP2 PUSH20 0xFFFFFFFFFFFFFFFFFFFFFFFFFFFFFFFFFFFFFFFF AND DUP2 PUSH20 0xFFFFFFFFFFFFFFFFFFFFFFFFFFFFFFFFFFFFFFFF AND PUSH32 0x8BE0079C531659141344CD1FD0A4F28419497F9722A3DAAFE3B4186F6B6457E0 PUSH1 0x40 MLOAD PUSH1 0x40 MLOAD DUP1 SWAP2 SUB SWAP1 LOG3 POP POP JUMP JUMPDEST PUSH2 0x1287 DUP1 PUSH2 0x10D PUSH1 0x0 CODECOPY PUSH1 0x0 RETURN INVALID PUSH1 0x80 PUSH1 0x40 MSTORE PUSH1 0x4 CALLDATASIZE LT PUSH2 0x86 JUMPI PUSH1 0x0 CALLDATALOAD PUSH1 0xE0 SHR DUP1 PUSH4 0x715018A6 GT PUSH2 0x59 JUMPI DUP1 PUSH4 0x715018A6 EQ PUSH2 0x157 JUMPI DUP1 PUSH4 0x8DA5CB5B EQ PUSH2 0x16E JUMPI DUP1 PUSH4 0x9A2DC409 EQ PUSH2 0x199 JUMPI DUP1 PUSH4 0xF2FDE38B EQ PUSH2 0x1B5 JUMPI DUP1 PUSH4 0xFBB3B6CE EQ PUSH2 0x1DE JUMPI PUSH2 0x86 JUMP JUMPDEST DUP1 PUSH4 0x1D3F7559 EQ PUSH2 0x8B JUMPI DUP1 PUSH4 0x377DEF85 EQ PUSH2 0xB4 JUMPI DUP1 PUSH4 0x400AE0F9 EQ PUSH2 0xDD JUMPI DUP1 PUSH4 0x51A1D40E EQ PUSH2 0x11A JUMPI JUMPDEST PUSH1 0x0 DUP1 REVERT JUMPDEST CALLVALUE DUP1 ISZERO PUSH2 0x97 JUMPI PUSH1 0x0 DUP1 REVERT JUMPDEST POP PUSH2 0xB2 PUSH1 0x4 DUP1 CALLDATASIZE SUB DUP2 ADD SWAP1 PUSH2 0xAD SWAP2 SWAP1 PUSH2 0xA8C JUMP JUMPDEST PUSH2 0x207 JUMP JUMPDEST STOP JUMPDEST CALLVALUE DUP1 ISZERO PUSH2 0xC0 JUMPI PUSH1 0x0 DUP1 REVERT JUMPDEST POP PUSH2 0xDB PUSH1 0x4 DUP1 CALLDATASIZE SUB DUP2 ADD SWAP1 PUSH2 0xD6 SWAP2 SWAP1 PUSH2 0xA8C JUMP JUMPDEST PUSH2 0x2B2 JUMP JUMPDEST STOP JUMPDEST CALLVALUE DUP1 ISZERO PUSH2 0xE9 JUMPI PUSH1 0x0 DUP1 REVERT JUMPDEST POP PUSH2 0x104 PUSH1 0x4 DUP1 CALLDATASIZE SUB DUP2 ADD SWAP1 PUSH2 0xFF SWAP2 SWAP1 PUSH2 0xACC JUMP JUMPDEST PUSH2 0x34E JUMP JUMPDEST PUSH1 0x40 MLOAD PUSH2 0x111 SWAP2 SWAP1 PUSH2 0xB3A JUMP JUMPDEST PUSH1 0x40 MLOAD DUP1 SWAP2 SUB SWAP1 RETURN JUMPDEST CALLVALUE DUP1 ISZERO PUSH2 0x126 JUMPI PUSH1 0x0 DUP1 REVERT JUMPDEST POP PUSH2 0x141 PUSH1 0x4 DUP1 CALLDATASIZE SUB DUP2 ADD SWAP1 PUSH2 0x13C SWAP2 SWAP1 PUSH2 0xACC JUMP JUMPDEST PUSH2 0x381 JUMP JUMPDEST PUSH1 0x40 MLOAD PUSH2 0x14E SWAP2 SWAP1 PUSH2 0xB64 JUMP JUMPDEST PUSH1 0x40 MLOAD DUP1 SWAP2 SUB SWAP1 RETURN JUMPDEST CALLVALUE DUP1 ISZERO PUSH2 0x163 JUMPI PUSH1 0x0 DUP1 REVERT JUMPDEST POP PUSH2 0x16C PUSH2 0x3A1 JUMP JUMPDEST STOP JUMPDEST CALLVALUE DUP1 ISZERO PUSH2 0x17A JUMPI PUSH1 0x0 DUP1 REVERT JUMPDEST POP PUSH2 0x183 PUSH2 0x429 JUMP JUMPDEST PUSH1 0x40 MLOAD PUSH2 0x190 SWAP2 SWAP1 PUSH2 0xB3A JUMP JUMPDEST PUSH1 0x40 MLOAD DUP1 SWAP2 SUB SWAP1 RETURN JUMPDEST PUSH2 0x1B3 PUSH1 0x4 DUP1 CALLDATASIZE SUB DUP2 ADD SWAP1 PUSH2 0x1AE SWAP2 SWAP1 PUSH2 0xCFE JUMP JUMPDEST PUSH2 0x452 JUMP JUMPDEST STOP JUMPDEST CALLVALUE DUP1 ISZERO PUSH2 0x1C1 JUMPI PUSH1 0x0 DUP1 REVERT JUMPDEST POP PUSH2 0x1DC PUSH1 0x4 DUP1 CALLDATASIZE SUB DUP2 ADD SWAP1 PUSH2 0x1D7 SWAP2 SWAP1 PUSH2 0xEB1 JUMP JUMPDEST PUSH2 0x4A0 JUMP JUMPDEST STOP JUMPDEST CALLVALUE DUP1 ISZERO PUSH2 0x1EA JUMPI PUSH1 0x0 DUP1 REVERT JUMPDEST POP PUSH2 0x205 PUSH1 0x4 DUP1 CALLDATASIZE SUB DUP2 ADD SWAP1 PUSH2 0x200 SWAP2 SWAP1 PUSH2 0xEDE JUMP JUMPDEST PUSH2 0x597 JUMP JUMPDEST STOP JUMPDEST PUSH2 0x20F PUSH2 0x642 JUMP JUMPDEST PUSH20 0xFFFFFFFFFFFFFFFFFFFFFFFFFFFFFFFFFFFFFFFF AND PUSH2 0x22D PUSH2 0x429 JUMP JUMPDEST PUSH20 0xFFFFFFFFFFFFFFFFFFFFFFFFFFFFFFFFFFFFFFFF AND EQ PUSH2 0x283 JUMPI PUSH1 0x40 MLOAD PUSH32 0x8C379A000000000000000000000000000000000000000000000000000000000 DUP2 MSTORE PUSH1 0x4 ADD PUSH2 0x27A SWAP1 PUSH2 0xF97 JUMP JUMPDEST PUSH1 0x40 MLOAD DUP1 SWAP2 SUB SWAP1 REVERT JUMPDEST DUP1 PUSH1 0x2 PUSH1 0x0 DUP5 DUP2 MSTORE PUSH1 0x20 ADD SWAP1 DUP2 MSTORE PUSH1 0x20 ADD PUSH1 0x0 KECCAK256 PUSH1 0x0 PUSH2 0x100 EXP DUP2 SLOAD DUP2 PUSH1 0xFF MUL NOT AND SWAP1 DUP4 ISZERO ISZERO MUL OR SWAP1 SSTORE POP POP POP JUMP JUMPDEST DUP2 CALLER PUSH20 0xFFFFFFFFFFFFFFFFFFFFFFFFFFFFFFFFFFFFFFFF AND PUSH1 0x4 PUSH1 0x0 DUP4 DUP2 MSTORE PUSH1 0x20 ADD SWAP1 DUP2 MSTORE PUSH1 0x20 ADD PUSH1 0x0 KECCAK256 PUSH1 0x0 SWAP1 SLOAD SWAP1 PUSH2 0x100 EXP SWAP1 DIV PUSH20 0xFFFFFFFFFFFFFFFFFFFFFFFFFFFFFFFFFFFFFFFF AND PUSH20 0xFFFFFFFFFFFFFFFFFFFFFFFFFFFFFFFFFFFFFFFF AND EQ PUSH2 0x31E JUMPI PUSH1 0x0 DUP1 REVERT JUMPDEST DUP2 PUSH1 0x2 PUSH1 0x0 DUP6 DUP2 MSTORE PUSH1 0x20 ADD SWAP1 DUP2 MSTORE PUSH1 0x20 ADD PUSH1 0x0 KECCAK256 PUSH1 0x0 PUSH2 0x100 EXP DUP2 SLOAD DUP2 PUSH1 0xFF MUL NOT AND SWAP1 DUP4 ISZERO ISZERO MUL OR SWAP1 SSTORE POP POP POP POP JUMP JUMPDEST PUSH1 0x4 PUSH1 0x20 MSTORE DUP1 PUSH1 0x0 MSTORE PUSH1 0x40 PUSH1 0x0 KECCAK256 PUSH1 0x0 SWAP2 POP SLOAD SWAP1 PUSH2 0x100 EXP SWAP1 DIV PUSH20 0xFFFFFFFFFFFFFFFFFFFFFFFFFFFFFFFFFFFFFFFF AND DUP2 JUMP JUMPDEST PUSH1 0x2 PUSH1 0x20 MSTORE DUP1 PUSH1 0x0 MSTORE PUSH1 0x40 PUSH1 0x0 KECCAK256 PUSH1 0x0 SWAP2 POP SLOAD SWAP1 PUSH2 0x100 EXP SWAP1 DIV PUSH1 0xFF AND DUP2 JUMP JUMPDEST PUSH2 0x3A9 PUSH2 0x642 JUMP JUMPDEST PUSH20 0xFFFFFFFFFFFFFFFFFFFFFFFFFFFFFFFFFFFFFFFF AND PUSH2 0x3C7 PUSH2 0x429 JUMP JUMPDEST PUSH20 0xFFFFFFFFFFFFFFFFFFFFFFFFFFFFFFFFFFFFFFFF AND EQ PUSH2 0x41D JUMPI PUSH1 0x40 MLOAD PUSH32 0x8C379A000000000000000000000000000000000000000000000000000000000 DUP2 MSTORE PUSH1 0x4 ADD PUSH2 0x414 SWAP1 PUSH2 0xF97 JUMP JUMPDEST PUSH1 0x40 MLOAD DUP1 SWAP2 SUB SWAP1 REVERT JUMPDEST PUSH2 0x427 PUSH1 0x0 PUSH2 0x64A JUMP JUMPDEST JUMP JUMPDEST PUSH1 0x0 DUP1 PUSH1 0x0 SWAP1 SLOAD SWAP1 PUSH2 0x100 EXP SWAP1 DIV PUSH20 0xFFFFFFFFFFFFFFFFFFFFFFFFFFFFFFFFFFFFFFFF AND SWAP1 POP SWAP1 JUMP JUMPDEST DUP1 CALLVALUE EQ PUSH2 0x45E JUMPI PUSH1 0x0 DUP1 REVERT JUMPDEST PUSH1 0x0 DUP3 DUP3 PUSH2 0x46C SWAP2 SWAP1 PUSH2 0xFE6 JUMP JUMPDEST EQ PUSH2 0x476 JUMPI PUSH1 0x0 DUP1 REVERT JUMPDEST DUP2 DUP2 GT PUSH2 0x482 JUMPI PUSH1 0x0 DUP1 REVERT JUMPDEST PUSH2 0x494 DUP11 DUP11 DUP11 DUP11 DUP11 DUP11 DUP11 DUP11 DUP11 DUP11 PUSH2 0x70E JUMP JUMPDEST POP POP POP POP POP POP POP POP POP POP JUMP JUMPDEST PUSH2 0x4A8 PUSH2 0x642 JUMP JUMPDEST PUSH20 0xFFFFFFFFFFFFFFFFFFFFFFFFFFFFFFFFFFFFFFFF AND PUSH2 0x4C6 PUSH2 0x429 JUMP JUMPDEST PUSH20 0xFFFFFFFFFFFFFFFFFFFFFFFFFFFFFFFFFFFFFFFF AND EQ PUSH2 0x51C JUMPI PUSH1 0x40 MLOAD PUSH32 0x8C379A000000000000000000000000000000000000000000000000000000000 DUP2 MSTORE PUSH1 0x4 ADD PUSH2 0x513 SWAP1 PUSH2 0xF97 JUMP JUMPDEST PUSH1 0x40 MLOAD DUP1 SWAP2 SUB SWAP1 REVERT JUMPDEST PUSH1 0x0 PUSH20 0xFFFFFFFFFFFFFFFFFFFFFFFFFFFFFFFFFFFFFFFF AND DUP2 PUSH20 0xFFFFFFFFFFFFFFFFFFFFFFFFFFFFFFFFFFFFFFFF AND SUB PUSH2 0x58B JUMPI PUSH1 0x40 MLOAD PUSH32 0x8C379A000000000000000000000000000000000000000000000000000000000 DUP2 MSTORE PUSH1 0x4 ADD PUSH2 0x582 SWAP1 PUSH2 0x1089 JUMP JUMPDEST PUSH1 0x40 MLOAD DUP1 SWAP2 SUB SWAP1 REVERT JUMPDEST PUSH2 0x594 DUP2 PUSH2 0x64A JUMP JUMPDEST POP JUMP JUMPDEST DUP2 CALLER PUSH20 0xFFFFFFFFFFFFFFFFFFFFFFFFFFFFFFFFFFFFFFFF AND PUSH1 0x4 PUSH1 0x0 DUP4 DUP2 MSTORE PUSH1 0x20 ADD SWAP1 DUP2 MSTORE PUSH1 0x20 ADD PUSH1 0x0 KECCAK256 PUSH1 0x0 SWAP1 SLOAD SWAP1 PUSH2 0x100 EXP SWAP1 DIV PUSH20 0xFFFFFFFFFFFFFFFFFFFFFFFFFFFFFFFFFFFFFFFF AND PUSH20 0xFFFFFFFFFFFFFFFFFFFFFFFFFFFFFFFFFFFFFFFF AND EQ PUSH2 0x603 JUMPI PUSH1 0x0 DUP1 REVERT JUMPDEST DUP2 PUSH1 0x1 DUP5 DUP2 SLOAD DUP2 LT PUSH2 0x618 JUMPI PUSH2 0x617 PUSH2 0x10A9 JUMP JUMPDEST JUMPDEST SWAP1 PUSH1 0x0 MSTORE PUSH1 0x20 PUSH1 0x0 KECCAK256 SWAP1 PUSH1 0x9 MUL ADD PUSH1 0x5 ADD SWAP1 DUP1 MLOAD SWAP1 PUSH1 0x20 ADD SWAP1 PUSH2 0x63C SWAP3 SWAP2 SWAP1 PUSH2 0x967 JUMP JUMPDEST POP POP POP POP JUMP JUMPDEST PUSH1 0x0 CALLER SWAP1 POP SWAP1 JUMP JUMPDEST PUSH1 0x0 DUP1 PUSH1 0x0 SWAP1 SLOAD SWAP1 PUSH2 0x100 EXP SWAP1 DIV PUSH20 0xFFFFFFFFFFFFFFFFFFFFFFFFFFFFFFFFFFFFFFFF AND SWAP1 POP DUP2 PUSH1 0x0 DUP1 PUSH2 0x100 EXP DUP2 SLOAD DUP2 PUSH20 0xFFFFFFFFFFFFFFFFFFFFFFFFFFFFFFFFFFFFFFFF MUL NOT AND SWAP1 DUP4 PUSH20 0xFFFFFFFFFFFFFFFFFFFFFFFFFFFFFFFFFFFFFFFF AND MUL OR SWAP1 SSTORE POP DUP2 PUSH20 0xFFFFFFFFFFFFFFFFFFFFFFFFFFFFFFFFFFFFFFFF AND DUP2 PUSH20 0xFFFFFFFFFFFFFFFFFFFFFFFFFFFFFFFFFFFFFFFF AND PUSH32 0x8BE0079C531659141344CD1FD0A4F28419497F9722A3DAAFE3B4186F6B6457E0 PUSH1 0x40 MLOAD PUSH1 0x40 MLOAD DUP1 SWAP2 SUB SWAP1 LOG3 POP POP JUMP JUMPDEST PUSH1 0x1 PUSH1 0x40 MLOAD DUP1 PUSH2 0x120 ADD PUSH1 0x40 MSTORE DUP1 DUP13 DUP2 MSTORE PUSH1 0x20 ADD DUP12 DUP2 MSTORE PUSH1 0x20 ADD DUP11 DUP2 MSTORE PUSH1 0x20 ADD DUP10 DUP2 MSTORE PUSH1 0x20 ADD DUP9 DUP2 MSTORE PUSH1 0x20 ADD DUP8 DUP2 MSTORE PUSH1 0x20 ADD DUP6 PUSH1 0xFF AND DUP2 MSTORE PUSH1 0x20 ADD DUP5 DUP2 MSTORE PUSH1 0x20 ADD DUP4 DUP2 MSTORE POP SWAP1 DUP1 PUSH1 0x1 DUP2 SLOAD ADD DUP1 DUP3 SSTORE DUP1 SWAP2 POP POP PUSH1 0x1 SWAP1 SUB SWAP1 PUSH1 0x0 MSTORE PUSH1 0x20 PUSH1 0x0 KECCAK256 SWAP1 PUSH1 0x9 MUL ADD PUSH1 0x0 SWAP1 SWAP2 SWAP1 SWAP2 SWAP1 SWAP2 POP PUSH1 0x0 DUP3 ADD MLOAD DUP2 PUSH1 0x0 ADD SWAP1 DUP1 MLOAD SWAP1 PUSH1 0x20 ADD SWAP1 PUSH2 0x798 SWAP3 SWAP2 SWAP1 PUSH2 0x967 JUMP JUMPDEST POP PUSH1 0x20 DUP3 ADD MLOAD DUP2 PUSH1 0x1 ADD SWAP1 DUP1 MLOAD SWAP1 PUSH1 0x20 ADD SWAP1 PUSH2 0x7B5 SWAP3 SWAP2 SWAP1 PUSH2 0x967 JUMP JUMPDEST POP PUSH1 0x40 DUP3 ADD MLOAD DUP2 PUSH1 0x2 ADD SWAP1 DUP1 MLOAD SWAP1 PUSH1 0x20 ADD SWAP1 PUSH2 0x7D2 SWAP3 SWAP2 SWAP1 PUSH2 0x967 JUMP JUMPDEST POP PUSH1 0x60 DUP3 ADD MLOAD DUP2 PUSH1 0x3 ADD SWAP1 DUP1 MLOAD SWAP1 PUSH1 0x20 ADD SWAP1 PUSH2 0x7EF SWAP3 SWAP2 SWAP1 PUSH2 0x967 JUMP JUMPDEST POP PUSH1 0x80 DUP3 ADD MLOAD DUP2 PUSH1 0x4 ADD SWAP1 DUP1 MLOAD SWAP1 PUSH1 0x20 ADD SWAP1 PUSH2 0x80C SWAP3 SWAP2 SWAP1 PUSH2 0x967 JUMP JUMPDEST POP PUSH1 0xA0 DUP3 ADD MLOAD DUP2 PUSH1 0x5 ADD SWAP1 DUP1 MLOAD SWAP1 PUSH1 0x20 ADD SWAP1 PUSH2 0x829 SWAP3 SWAP2 SWAP1 PUSH2 0x967 JUMP JUMPDEST POP PUSH1 0xC0 DUP3 ADD MLOAD DUP2 PUSH1 0x6 ADD PUSH1 0x0 PUSH2 0x100 EXP DUP2 SLOAD DUP2 PUSH1 0xFF MUL NOT AND SWAP1 DUP4 PUSH1 0xFF AND MUL OR SWAP1 SSTORE POP PUSH1 0xE0 DUP3 ADD MLOAD DUP2 PUSH1 0x7 ADD SSTORE PUSH2 0x100 DUP3 ADD MLOAD DUP2 PUSH1 0x8 ADD SSTORE POP POP PUSH1 0x0 PUSH1 0x1 DUP1 DUP1 SLOAD SWAP1 POP PUSH2 0x875 SWAP2 SWAP1 PUSH2 0x1107 JUMP JUMPDEST SWAP1 POP DUP5 PUSH1 0x3 PUSH1 0x0 DUP4 DUP2 MSTORE PUSH1 0x20 ADD SWAP1 DUP2 MSTORE PUSH1 0x20 ADD PUSH1 0x0 KECCAK256 PUSH1 0x0 PUSH2 0x100 EXP DUP2 SLOAD DUP2 PUSH1 0xFF MUL NOT AND SWAP1 DUP4 PUSH1 0xFF AND MUL OR SWAP1 SSTORE POP CALLER PUSH1 0x4 PUSH1 0x0 DUP4 DUP2 MSTORE PUSH1 0x20 ADD SWAP1 DUP2 MSTORE PUSH1 0x20 ADD PUSH1 0x0 KECCAK256 PUSH1 0x0 PUSH2 0x100 EXP DUP2 SLOAD DUP2 PUSH20 0xFFFFFFFFFFFFFFFFFFFFFFFFFFFFFFFFFFFFFFFF MUL NOT AND SWAP1 DUP4 PUSH20 0xFFFFFFFFFFFFFFFFFFFFFFFFFFFFFFFFFFFFFFFF AND MUL OR SWAP1 SSTORE POP PUSH1 0x1 PUSH1 0x2 PUSH1 0x0 DUP4 DUP2 MSTORE PUSH1 0x20 ADD SWAP1 DUP2 MSTORE PUSH1 0x20 ADD PUSH1 0x0 KECCAK256 PUSH1 0x0 PUSH2 0x100 EXP DUP2 SLOAD DUP2 PUSH1 0xFF MUL NOT AND SWAP1 DUP4 ISZERO ISZERO MUL OR SWAP1 SSTORE POP PUSH32 0x545DCA5D847B655A9F03CDF5619F53F0B2546051FD0D015B18C09AE2A8B1A765 DUP12 DUP7 PUSH1 0x40 MLOAD PUSH2 0x952 SWAP3 SWAP2 SWAP1 PUSH2 0x11C1 JUMP JUMPDEST PUSH1 0x40 MLOAD DUP1 SWAP2 SUB SWAP1 LOG1 POP POP POP POP POP POP POP POP POP POP POP JUMP JUMPDEST DUP3 DUP1 SLOAD PUSH2 0x973 SWAP1 PUSH2 0x1220 JUMP JUMPDEST SWAP1 PUSH1 0x0 MSTORE PUSH1 0x20 PUSH1 0x0 KECCAK256 SWAP1 PUSH1 0x1F ADD PUSH1 0x20 SWAP1 DIV DUP2 ADD SWAP3 DUP3 PUSH2 0x995 JUMPI PUSH1 0x0 DUP6 SSTORE PUSH2 0x9DC JUMP JUMPDEST DUP3 PUSH1 0x1F LT PUSH2 0x9AE JUMPI DUP1 MLOAD PUSH1 0xFF NOT AND DUP4 DUP1 ADD OR DUP6 SSTORE PUSH2 0x9DC JUMP JUMPDEST DUP3 DUP1 ADD PUSH1 0x1 ADD DUP6 SSTORE DUP3 ISZERO PUSH2 0x9DC JUMPI SWAP2 DUP3 ADD JUMPDEST DUP3 DUP2 GT ISZERO PUSH2 0x9DB JUMPI DUP3 MLOAD DUP3 SSTORE SWAP2 PUSH1 0x20 ADD SWAP2 SWAP1 PUSH1 0x1 ADD SWAP1 PUSH2 0x9C0 JUMP JUMPDEST JUMPDEST POP SWAP1 POP PUSH2 0x9E9 SWAP2 SWAP1 PUSH2 0x9ED JUMP JUMPDEST POP SWAP1 JUMP JUMPDEST JUMPDEST DUP1 DUP3 GT ISZERO PUSH2 0xA06 JUMPI PUSH1 0x0 DUP2 PUSH1 0x0 SWAP1 SSTORE POP PUSH1 0x1 ADD PUSH2 0x9EE JUMP JUMPDEST POP SWAP1 JUMP JUMPDEST PUSH1 0x0 PUSH1 0x40 MLOAD SWAP1 POP SWAP1 JUMP JUMPDEST PUSH1 0x0 DUP1 REVERT JUMPDEST PUSH1 0x0 DUP1 REVERT JUMPDEST PUSH1 0x0 DUP2 SWAP1 POP SWAP2 SWAP1 POP JUMP JUMPDEST PUSH2 0xA31 DUP2 PUSH2 0xA1E JUMP JUMPDEST DUP2 EQ PUSH2 0xA3C JUMPI PUSH1 0x0 DUP1 REVERT JUMPDEST POP JUMP JUMPDEST PUSH1 0x0 DUP2 CALLDATALOAD SWAP1 POP PUSH2 0xA4E DUP2 PUSH2 0xA28 JUMP JUMPDEST SWAP3 SWAP2 POP POP JUMP JUMPDEST PUSH1 0x0 DUP2 ISZERO ISZERO SWAP1 POP SWAP2 SWAP1 POP JUMP JUMPDEST PUSH2 0xA69 DUP2 PUSH2 0xA54 JUMP JUMPDEST DUP2 EQ PUSH2 0xA74 JUMPI PUSH1 0x0 DUP1 REVERT JUMPDEST POP JUMP JUMPDEST PUSH1 0x0 DUP2 CALLDATALOAD SWAP1 POP PUSH2 0xA86 DUP2 PUSH2 0xA60 JUMP JUMPDEST SWAP3 SWAP2 POP POP JUMP JUMPDEST PUSH1 0x0 DUP1 PUSH1 0x40 DUP4 DUP6 SUB SLT ISZERO PUSH2 0xAA3 JUMPI PUSH2 0xAA2 PUSH2 0xA14 JUMP JUMPDEST JUMPDEST PUSH1 0x0 PUSH2 0xAB1 DUP6 DUP3 DUP7 ADD PUSH2 0xA3F JUMP JUMPDEST SWAP3 POP POP PUSH1 0x20 PUSH2 0xAC2 DUP6 DUP3 DUP7 ADD PUSH2 0xA77 JUMP JUMPDEST SWAP2 POP POP SWAP3 POP SWAP3 SWAP1 POP JUMP JUMPDEST PUSH1 0x0 PUSH1 0x20 DUP3 DUP5 SUB SLT ISZERO PUSH2 0xAE2 JUMPI PUSH2 0xAE1 PUSH2 0xA14 JUMP JUMPDEST JUMPDEST PUSH1 0x0 PUSH2 0xAF0 DUP5 DUP3 DUP6 ADD PUSH2 0xA3F JUMP JUMPDEST SWAP2 POP POP SWAP3 SWAP2 POP POP JUMP JUMPDEST PUSH1 0x0 PUSH20 0xFFFFFFFFFFFFFFFFFFFFFFFFFFFFFFFFFFFFFFFF DUP3 AND SWAP1 POP SWAP2 SWAP1 POP JUMP JUMPDEST PUSH1 0x0 PUSH2 0xB24 DUP3 PUSH2 0xAF9 JUMP JUMPDEST SWAP1 POP SWAP2 SWAP1 POP JUMP JUMPDEST PUSH2 0xB34 DUP2 PUSH2 0xB19 JUMP JUMPDEST DUP3 MSTORE POP POP JUMP JUMPDEST PUSH1 0x0 PUSH1 0x20 DUP3 ADD SWAP1 POP PUSH2 0xB4F PUSH1 0x0 DUP4 ADD DUP5 PUSH2 0xB2B JUMP JUMPDEST SWAP3 SWAP2 POP POP JUMP JUMPDEST PUSH2 0xB5E DUP2 PUSH2 0xA54 JUMP JUMPDEST DUP3 MSTORE POP POP JUMP JUMPDEST PUSH1 0x0 PUSH1 0x20 DUP3 ADD SWAP1 POP PUSH2 0xB79 PUSH1 0x0 DUP4 ADD DUP5 PUSH2 0xB55 JUMP JUMPDEST SWAP3 SWAP2 POP POP JUMP JUMPDEST PUSH1 0x0 DUP1 REVERT JUMPDEST PUSH1 0x0 DUP1 REVERT JUMPDEST PUSH1 0x0 PUSH1 0x1F NOT PUSH1 0x1F DUP4 ADD AND SWAP1 POP SWAP2 SWAP1 POP JUMP JUMPDEST PUSH32 0x4E487B7100000000000000000000000000000000000000000000000000000000 PUSH1 0x0 MSTORE PUSH1 0x41 PUSH1 0x4 MSTORE PUSH1 0x24 PUSH1 0x0 REVERT JUMPDEST PUSH2 0xBD2 DUP3 PUSH2 0xB89 JUMP JUMPDEST DUP2 ADD DUP2 DUP2 LT PUSH8 0xFFFFFFFFFFFFFFFF DUP3 GT OR ISZERO PUSH2 0xBF1 JUMPI PUSH2 0xBF0 PUSH2 0xB9A JUMP JUMPDEST JUMPDEST DUP1 PUSH1 0x40 MSTORE POP POP POP JUMP JUMPDEST PUSH1 0x0 PUSH2 0xC04 PUSH2 0xA0A JUMP JUMPDEST SWAP1 POP PUSH2 0xC10 DUP3 DUP3 PUSH2 0xBC9 JUMP JUMPDEST SWAP2 SWAP1 POP JUMP JUMPDEST PUSH1 0x0 PUSH8 0xFFFFFFFFFFFFFFFF DUP3 GT ISZERO PUSH2 0xC30 JUMPI PUSH2 0xC2F PUSH2 0xB9A JUMP JUMPDEST JUMPDEST PUSH2 0xC39 DUP3 PUSH2 0xB89 JUMP JUMPDEST SWAP1 POP PUSH1 0x20 DUP2 ADD SWAP1 POP SWAP2 SWAP1 POP JUMP JUMPDEST DUP3 DUP2 DUP4 CALLDATACOPY PUSH1 0x0 DUP4 DUP4 ADD MSTORE POP POP POP JUMP JUMPDEST PUSH1 0x0 PUSH2 0xC68 PUSH2 0xC63 DUP5 PUSH2 0xC15 JUMP JUMPDEST PUSH2 0xBFA JUMP JUMPDEST SWAP1 POP DUP3 DUP2 MSTORE PUSH1 0x20 DUP2 ADD DUP5 DUP5 DUP5 ADD GT ISZERO PUSH2 0xC84 JUMPI PUSH2 0xC83 PUSH2 0xB84 JUMP JUMPDEST JUMPDEST PUSH2 0xC8F DUP5 DUP3 DUP6 PUSH2 0xC46 JUMP JUMPDEST POP SWAP4 SWAP3 POP POP POP JUMP JUMPDEST PUSH1 0x0 DUP3 PUSH1 0x1F DUP4 ADD SLT PUSH2 0xCAC JUMPI PUSH2 0xCAB PUSH2 0xB7F JUMP JUMPDEST JUMPDEST DUP2 CALLDATALOAD PUSH2 0xCBC DUP5 DUP3 PUSH1 0x20 DUP7 ADD PUSH2 0xC55 JUMP JUMPDEST SWAP2 POP POP SWAP3 SWAP2 POP POP JUMP JUMPDEST PUSH1 0x0 PUSH1 0xFF DUP3 AND SWAP1 POP SWAP2 SWAP1 POP JUMP JUMPDEST PUSH2 0xCDB DUP2 PUSH2 0xCC5 JUMP JUMPDEST DUP2 EQ PUSH2 0xCE6 JUMPI PUSH1 0x0 DUP1 REVERT JUMPDEST POP JUMP JUMPDEST PUSH1 0x0 DUP2 CALLDATALOAD SWAP1 POP PUSH2 0xCF8 DUP2 PUSH2 0xCD2 JUMP JUMPDEST SWAP3 SWAP2 POP POP JUMP JUMPDEST PUSH1 0x0 DUP1 PUSH1 0x0 DUP1 PUSH1 0x0 DUP1 PUSH1 0x0 DUP1 PUSH1 0x0 DUP1 PUSH2 0x140 DUP12 DUP14 SUB SLT ISZERO PUSH2 0xD22 JUMPI PUSH2 0xD21 PUSH2 0xA14 JUMP JUMPDEST JUMPDEST PUSH1 0x0 DUP12 ADD CALLDATALOAD PUSH8 0xFFFFFFFFFFFFFFFF DUP2 GT ISZERO PUSH2 0xD40 JUMPI PUSH2 0xD3F PUSH2 0xA19 JUMP JUMPDEST JUMPDEST PUSH2 0xD4C DUP14 DUP3 DUP15 ADD PUSH2 0xC97 JUMP JUMPDEST SWAP11 POP POP PUSH1 0x20 DUP12 ADD CALLDATALOAD PUSH8 0xFFFFFFFFFFFFFFFF DUP2 GT ISZERO PUSH2 0xD6D JUMPI PUSH2 0xD6C PUSH2 0xA19 JUMP JUMPDEST JUMPDEST PUSH2 0xD79 DUP14 DUP3 DUP15 ADD PUSH2 0xC97 JUMP JUMPDEST SWAP10 POP POP PUSH1 0x40 DUP12 ADD CALLDATALOAD PUSH8 0xFFFFFFFFFFFFFFFF DUP2 GT ISZERO PUSH2 0xD9A JUMPI PUSH2 0xD99 PUSH2 0xA19 JUMP JUMPDEST JUMPDEST PUSH2 0xDA6 DUP14 DUP3 DUP15 ADD PUSH2 0xC97 JUMP JUMPDEST SWAP9 POP POP PUSH1 0x60 DUP12 ADD CALLDATALOAD PUSH8 0xFFFFFFFFFFFFFFFF DUP2 GT ISZERO PUSH2 0xDC7 JUMPI PUSH2 0xDC6 PUSH2 0xA19 JUMP JUMPDEST JUMPDEST PUSH2 0xDD3 DUP14 DUP3 DUP15 ADD PUSH2 0xC97 JUMP JUMPDEST SWAP8 POP POP PUSH1 0x80 DUP12 ADD CALLDATALOAD PUSH8 0xFFFFFFFFFFFFFFFF DUP2 GT ISZERO PUSH2 0xDF4 JUMPI PUSH2 0xDF3 PUSH2 0xA19 JUMP JUMPDEST JUMPDEST PUSH2 0xE00 DUP14 DUP3 DUP15 ADD PUSH2 0xC97 JUMP JUMPDEST SWAP7 POP POP PUSH1 0xA0 DUP12 ADD CALLDATALOAD PUSH8 0xFFFFFFFFFFFFFFFF DUP2 GT ISZERO PUSH2 0xE21 JUMPI PUSH2 0xE20 PUSH2 0xA19 JUMP JUMPDEST JUMPDEST PUSH2 0xE2D DUP14 DUP3 DUP15 ADD PUSH2 0xC97 JUMP JUMPDEST SWAP6 POP POP PUSH1 0xC0 PUSH2 0xE3E DUP14 DUP3 DUP15 ADD PUSH2 0xCE9 JUMP JUMPDEST SWAP5 POP POP PUSH1 0xE0 PUSH2 0xE4F DUP14 DUP3 DUP15 ADD PUSH2 0xCE9 JUMP JUMPDEST SWAP4 POP POP PUSH2 0x100 PUSH2 0xE61 DUP14 DUP3 DUP15 ADD PUSH2 0xA3F JUMP JUMPDEST SWAP3 POP POP PUSH2 0x120 PUSH2 0xE73 DUP14 DUP3 DUP15 ADD PUSH2 0xA3F JUMP JUMPDEST SWAP2 POP POP SWAP3 SWAP6 SWAP9 SWAP12 SWAP2 SWAP5 SWAP8 SWAP11 POP SWAP3 SWAP6 SWAP9 POP JUMP JUMPDEST PUSH2 0xE8E DUP2 PUSH2 0xB19 JUMP JUMPDEST DUP2 EQ PUSH2 0xE99 JUMPI PUSH1 0x0 DUP1 REVERT JUMPDEST POP JUMP JUMPDEST PUSH1 0x0 DUP2 CALLDATALOAD SWAP1 POP PUSH2 0xEAB DUP2 PUSH2 0xE85 JUMP JUMPDEST SWAP3 SWAP2 POP POP JUMP JUMPDEST PUSH1 0x0 PUSH1 0x20 DUP3 DUP5 SUB SLT ISZERO PUSH2 0xEC7 JUMPI PUSH2 0xEC6 PUSH2 0xA14 JUMP JUMPDEST JUMPDEST PUSH1 0x0 PUSH2 0xED5 DUP5 DUP3 DUP6 ADD PUSH2 0xE9C JUMP JUMPDEST SWAP2 POP POP SWAP3 SWAP2 POP POP JUMP JUMPDEST PUSH1 0x0 DUP1 PUSH1 0x40 DUP4 DUP6 SUB SLT ISZERO PUSH2 0xEF5 JUMPI PUSH2 0xEF4 PUSH2 0xA14 JUMP JUMPDEST JUMPDEST PUSH1 0x0 PUSH2 0xF03 DUP6 DUP3 DUP7 ADD PUSH2 0xA3F JUMP JUMPDEST SWAP3 POP POP PUSH1 0x20 DUP4 ADD CALLDATALOAD PUSH8 0xFFFFFFFFFFFFFFFF DUP2 GT ISZERO PUSH2 0xF24 JUMPI PUSH2 0xF23 PUSH2 0xA19 JUMP JUMPDEST JUMPDEST PUSH2 0xF30 DUP6 DUP3 DUP7 ADD PUSH2 0xC97 JUMP JUMPDEST SWAP2 POP POP SWAP3 POP SWAP3 SWAP1 POP JUMP JUMPDEST PUSH1 0x0 DUP3 DUP3 MSTORE PUSH1 0x20 DUP3 ADD SWAP1 POP SWAP3 SWAP2 POP POP JUMP JUMPDEST PUSH32 0x4F776E61626C653A2063616C6C6572206973206E6F7420746865206F776E6572 PUSH1 0x0 DUP3 ADD MSTORE POP JUMP JUMPDEST PUSH1 0x0 PUSH2 0xF81 PUSH1 0x20 DUP4 PUSH2 0xF3A JUMP JUMPDEST SWAP2 POP PUSH2 0xF8C DUP3 PUSH2 0xF4B JUMP JUMPDEST PUSH1 0x20 DUP3 ADD SWAP1 POP SWAP2 SWAP1 POP JUMP JUMPDEST PUSH1 0x0 PUSH1 0x20 DUP3 ADD SWAP1 POP DUP2 DUP2 SUB PUSH1 0x0 DUP4 ADD MSTORE PUSH2 0xFB0 DUP2 PUSH2 0xF74 JUMP JUMPDEST SWAP1 POP SWAP2 SWAP1 POP JUMP JUMPDEST PUSH32 0x4E487B7100000000000000000000000000000000000000000000000000000000 PUSH1 0x0 MSTORE PUSH1 0x12 PUSH1 0x4 MSTORE PUSH1 0x24 PUSH1 0x0 REVERT JUMPDEST PUSH1 0x0 PUSH2 0xFF1 DUP3 PUSH2 0xA1E JUMP JUMPDEST SWAP2 POP PUSH2 0xFFC DUP4 PUSH2 0xA1E JUMP JUMPDEST SWAP3 POP DUP3 PUSH2 0x100C JUMPI PUSH2 0x100B PUSH2 0xFB7 JUMP JUMPDEST JUMPDEST DUP3 DUP3 MOD SWAP1 POP SWAP3 SWAP2 POP POP JUMP JUMPDEST PUSH32 0x4F776E61626C653A206E6577206F776E657220697320746865207A65726F2061 PUSH1 0x0 DUP3 ADD MSTORE PUSH32 0x6464726573730000000000000000000000000000000000000000000000000000 PUSH1 0x20 DUP3 ADD MSTORE POP JUMP JUMPDEST PUSH1 0x0 PUSH2 0x1073 PUSH1 0x26 DUP4 PUSH2 0xF3A JUMP JUMPDEST SWAP2 POP PUSH2 0x107E DUP3 PUSH2 0x1017 JUMP JUMPDEST PUSH1 0x40 DUP3 ADD SWAP1 POP SWAP2 SWAP1 POP JUMP JUMPDEST PUSH1 0x0 PUSH1 0x20 DUP3 ADD SWAP1 POP DUP2 DUP2 SUB PUSH1 0x0 DUP4 ADD MSTORE PUSH2 0x10A2 DUP2 PUSH2 0x1066 JUMP JUMPDEST SWAP1 POP SWAP2 SWAP1 POP JUMP JUMPDEST PUSH32 0x4E487B7100000000000000000000000000000000000000000000000000000000 PUSH1 0x0 MSTORE PUSH1 0x32 PUSH1 0x4 MSTORE PUSH1 0x24 PUSH1 0x0 REVERT JUMPDEST PUSH32 0x4E487B7100000000000000000000000000000000000000000000000000000000 PUSH1 0x0 MSTORE PUSH1 0x11 PUSH1 0x4 MSTORE PUSH1 0x24 PUSH1 0x0 REVERT JUMPDEST PUSH1 0x0 PUSH2 0x1112 DUP3 PUSH2 0xA1E JUMP JUMPDEST SWAP2 POP PUSH2 0x111D DUP4 PUSH2 0xA1E JUMP JUMPDEST SWAP3 POP DUP3 DUP3 LT ISZERO PUSH2 0x1130 JUMPI PUSH2 0x112F PUSH2 0x10D8 JUMP JUMPDEST JUMPDEST DUP3 DUP3 SUB SWAP1 POP SWAP3 SWAP2 POP POP JUMP JUMPDEST PUSH1 0x0 DUP2 MLOAD SWAP1 POP SWAP2 SWAP1 POP JUMP JUMPDEST PUSH1 0x0 JUMPDEST DUP4 DUP2 LT ISZERO PUSH2 0x1164 JUMPI DUP1 DUP3 ADD MLOAD DUP2 DUP5 ADD MSTORE PUSH1 0x20 DUP2 ADD SWAP1 POP PUSH2 0x1149 JUMP JUMPDEST DUP4 DUP2 GT ISZERO PUSH2 0x1173 JUMPI PUSH1 0x0 DUP5 DUP5 ADD MSTORE JUMPDEST POP POP POP POP JUMP JUMPDEST PUSH1 0x0 PUSH2 0x1184 DUP3 PUSH2 0x113B JUMP JUMPDEST PUSH2 0x118E DUP2 DUP6 PUSH2 0xF3A JUMP JUMPDEST SWAP4 POP PUSH2 0x119E DUP2 DUP6 PUSH1 0x20 DUP7 ADD PUSH2 0x1146 JUMP JUMPDEST PUSH2 0x11A7 DUP2 PUSH2 0xB89 JUMP JUMPDEST DUP5 ADD SWAP2 POP POP SWAP3 SWAP2 POP POP JUMP JUMPDEST PUSH2 0x11BB DUP2 PUSH2 0xCC5 JUMP JUMPDEST DUP3 MSTORE POP POP JUMP JUMPDEST PUSH1 0x0 PUSH1 0x40 DUP3 ADD SWAP1 POP DUP2 DUP2 SUB PUSH1 0x0 DUP4 ADD MSTORE PUSH2 0x11DB DUP2 DUP6 PUSH2 0x1179 JUMP JUMPDEST SWAP1 POP PUSH2 0x11EA PUSH1 0x20 DUP4 ADD DUP5 PUSH2 0x11B2 JUMP JUMPDEST SWAP4 SWAP3 POP POP POP JUMP JUMPDEST PUSH32 0x4E487B7100000000000000000000000000000000000000000000000000000000 PUSH1 0x0 MSTORE PUSH1 0x22 PUSH1 0x4 MSTORE PUSH1 0x24 PUSH1 0x0 REVERT JUMPDEST PUSH1 0x0 PUSH1 0x2 DUP3 DIV SWAP1 POP PUSH1 0x1 DUP3 AND DUP1 PUSH2 0x1238 JUMPI PUSH1 0x7F DUP3 AND SWAP2 POP JUMPDEST PUSH1 0x20 DUP3 LT DUP2 SUB PUSH2 0x124B JUMPI PUSH2 0x124A PUSH2 0x11F1 JUMP JUMPDEST JUMPDEST POP SWAP2 SWAP1 POP JUMP INVALID LOG2 PUSH5 0x6970667358 0x22 SLT KECCAK256 DIFFICULTY PUSH11 0xAA69917BE2BDD0118504EC GAS BALANCE 0xBE NUMBER 0xF PUSH32 0x86A42EDE05237F9C97E1CD36F64736F6C634300080E00330000000000000000 "
				},
				"gasEstimates": {
					"creation": {
						"codeDepositCost": "948600",
						"executionCost": "infinite",
						"totalCost": "infinite"
					},
					"external": {
						"changeQuizStatus(uint256,bool)": "27171",
						"createQuiz(string,string,string,string,string,string,uint8,uint8,uint256,uint256)": "infinite",
						"owner()": "2544",
						"quizIsActive(uint256)": "2863",
						"quizOwner(uint256)": "2884",
						"quizOwnerChangeHint(uint256,string)": "infinite",
						"quizOwnerChangeStatus(uint256,bool)": "27206",
						"renounceOwnership()": "30374",
						"transferOwnership(address)": "30786"
					},
					"internal": {
						"_createQuiz(string memory,string memory,string memory,string memory,string memory,string memory,uint8,uint8,uint256,uint256)": "infinite"
					}
				},
				"methodIdentifiers": {
					"changeQuizStatus(uint256,bool)": "1d3f7559",
					"createQuiz(string,string,string,string,string,string,uint8,uint8,uint256,uint256)": "9a2dc409",
					"owner()": "8da5cb5b",
					"quizIsActive(uint256)": "51a1d40e",
					"quizOwner(uint256)": "400ae0f9",
					"quizOwnerChangeHint(uint256,string)": "fbb3b6ce",
					"quizOwnerChangeStatus(uint256,bool)": "377def85",
					"renounceOwnership()": "715018a6",
					"transferOwnership(address)": "f2fde38b"
				}
			},
			"storageLayout": {
				"storage": [
					{
						"astId": 271,
						"contract": "contracts/CreateQuiz.sol:CreateQuiz",
						"label": "_owner",
						"offset": 0,
						"slot": "0",
						"type": "t_address"
					},
					{
						"astId": 55,
						"contract": "contracts/CreateQuiz.sol:CreateQuiz",
						"label": "quizzes",
						"offset": 0,
						"slot": "1",
						"type": "t_array(t_struct(Quiz)51_storage)dyn_storage"
					},
					{
						"astId": 59,
						"contract": "contracts/CreateQuiz.sol:CreateQuiz",
						"label": "quizIsActive",
						"offset": 0,
						"slot": "2",
						"type": "t_mapping(t_uint256,t_bool)"
					},
					{
						"astId": 63,
						"contract": "contracts/CreateQuiz.sol:CreateQuiz",
						"label": "quizAnswer",
						"offset": 0,
						"slot": "3",
						"type": "t_mapping(t_uint256,t_uint8)"
					},
					{
						"astId": 67,
						"contract": "contracts/CreateQuiz.sol:CreateQuiz",
						"label": "quizOwner",
						"offset": 0,
						"slot": "4",
						"type": "t_mapping(t_uint256,t_address)"
					}
				],
				"types": {
					"t_address": {
						"encoding": "inplace",
						"label": "address",
						"numberOfBytes": "20"
					},
					"t_array(t_struct(Quiz)51_storage)dyn_storage": {
						"base": "t_struct(Quiz)51_storage",
						"encoding": "dynamic_array",
						"label": "struct CreateQuiz.Quiz[]",
						"numberOfBytes": "32"
					},
					"t_bool": {
						"encoding": "inplace",
						"label": "bool",
						"numberOfBytes": "1"
					},
					"t_mapping(t_uint256,t_address)": {
						"encoding": "mapping",
						"key": "t_uint256",
						"label": "mapping(uint256 => address)",
						"numberOfBytes": "32",
						"value": "t_address"
					},
					"t_mapping(t_uint256,t_bool)": {
						"encoding": "mapping",
						"key": "t_uint256",
						"label": "mapping(uint256 => bool)",
						"numberOfBytes": "32",
						"value": "t_bool"
					},
					"t_mapping(t_uint256,t_uint8)": {
						"encoding": "mapping",
						"key": "t_uint256",
						"label": "mapping(uint256 => uint8)",
						"numberOfBytes": "32",
						"value": "t_uint8"
					},
					"t_string_storage": {
						"encoding": "bytes",
						"label": "string",
						"numberOfBytes": "32"
					},
					"t_struct(Quiz)51_storage": {
						"encoding": "inplace",
						"label": "struct CreateQuiz.Quiz",
						"members": [
							{
								"astId": 34,
								"contract": "contracts/CreateQuiz.sol:CreateQuiz",
								"label": "question",
								"offset": 0,
								"slot": "0",
								"type": "t_string_storage"
							},
							{
								"astId": 36,
								"contract": "contracts/CreateQuiz.sol:CreateQuiz",
								"label": "choice1",
								"offset": 0,
								"slot": "1",
								"type": "t_string_storage"
							},
							{
								"astId": 38,
								"contract": "contracts/CreateQuiz.sol:CreateQuiz",
								"label": "choice2",
								"offset": 0,
								"slot": "2",
								"type": "t_string_storage"
							},
							{
								"astId": 40,
								"contract": "contracts/CreateQuiz.sol:CreateQuiz",
								"label": "choice3",
								"offset": 0,
								"slot": "3",
								"type": "t_string_storage"
							},
							{
								"astId": 42,
								"contract": "contracts/CreateQuiz.sol:CreateQuiz",
								"label": "choice4",
								"offset": 0,
								"slot": "4",
								"type": "t_string_storage"
							},
							{
								"astId": 44,
								"contract": "contracts/CreateQuiz.sol:CreateQuiz",
								"label": "hint",
								"offset": 0,
								"slot": "5",
								"type": "t_string_storage"
							},
							{
								"astId": 46,
								"contract": "contracts/CreateQuiz.sol:CreateQuiz",
								"label": "languageCode",
								"offset": 0,
								"slot": "6",
								"type": "t_uint8"
							},
							{
								"astId": 48,
								"contract": "contracts/CreateQuiz.sol:CreateQuiz",
								"label": "reward",
								"offset": 0,
								"slot": "7",
								"type": "t_uint256"
							},
							{
								"astId": 50,
								"contract": "contracts/CreateQuiz.sol:CreateQuiz",
								"label": "rewardPool",
								"offset": 0,
								"slot": "8",
								"type": "t_uint256"
							}
						],
						"numberOfBytes": "288"
					},
					"t_uint256": {
						"encoding": "inplace",
						"label": "uint256",
						"numberOfBytes": "32"
					},
					"t_uint8": {
						"encoding": "inplace",
						"label": "uint8",
						"numberOfBytes": "1"
					}
				}
			},
			"userdoc": {
				"kind": "user",
				"methods": {},
				"version": 1
			}
		}
	}
}