{
	"data": {
		"bytecode": {
			"linkReferences": {},
			"object": "608060405234801561001057600080fd5b5061002d61002261003260201b60201c565b61003a60201b60201c565b6100fe565b600033905090565b60008060009054906101000a900473ffffffffffffffffffffffffffffffffffffffff169050816000806101000a81548173ffffffffffffffffffffffffffffffffffffffff021916908373ffffffffffffffffffffffffffffffffffffffff1602179055508173ffffffffffffffffffffffffffffffffffffffff168173ffffffffffffffffffffffffffffffffffffffff167f8be0079c531659141344cd1fd0a4f28419497f9722a3daafe3b4186f6b6457e060405160405180910390a35050565b6112878061010d6000396000f3fe6080604052600436106100865760003560e01c8063715018a611610059578063715018a6146101575780638da5cb5b1461016e5780639a2dc40914610199578063f2fde38b146101b5578063fbb3b6ce146101de57610086565b80631d3f75591461008b578063377def85146100b4578063400ae0f9146100dd57806351a1d40e1461011a575b600080fd5b34801561009757600080fd5b506100b260048036038101906100ad9190610a8c565b610207565b005b3480156100c057600080fd5b506100db60048036038101906100d69190610a8c565b6102b2565b005b3480156100e957600080fd5b5061010460048036038101906100ff9190610acc565b61034e565b6040516101119190610b3a565b60405180910390f35b34801561012657600080fd5b50610141600480360381019061013c9190610acc565b610381565b60405161014e9190610b64565b60405180910390f35b34801561016357600080fd5b5061016c6103a1565b005b34801561017a57600080fd5b50610183610429565b6040516101909190610b3a565b60405180910390f35b6101b360048036038101906101ae9190610cfe565b610452565b005b3480156101c157600080fd5b506101dc60048036038101906101d79190610eb1565b6104a0565b005b3480156101ea57600080fd5b5061020560048036038101906102009190610ede565b610597565b005b61020f610642565b73ffffffffffffffffffffffffffffffffffffffff1661022d610429565b73ffffffffffffffffffffffffffffffffffffffff1614610283576040517f08c379a000000000000000000000000000000000000000000000000000000000815260040161027a90610f97565b60405180910390fd5b806002600084815260200190815260200160002060006101000a81548160ff0219169083151502179055505050565b813373ffffffffffffffffffffffffffffffffffffffff166004600083815260200190815260200160002060009054906101000a900473ffffffffffffffffffffffffffffffffffffffff1673ffffffffffffffffffffffffffffffffffffffff161461031e57600080fd5b816002600085815260200190815260200160002060006101000a81548160ff021916908315150217905550505050565b60046020528060005260406000206000915054906101000a900473ffffffffffffffffffffffffffffffffffffffff1681565b60026020528060005260406000206000915054906101000a900460ff1681565b6103a9610642565b73ffffffffffffffffffffffffffffffffffffffff166103c7610429565b73ffffffffffffffffffffffffffffffffffffffff161461041d576040517f08c379a000000000000000000000000000000000000000000000000000000000815260040161041490610f97565b60405180910390fd5b610427600061064a565b565b60008060009054906101000a900473ffffffffffffffffffffffffffffffffffffffff16905090565b80341461045e57600080fd5b6000828261046c9190610fe6565b1461047657600080fd5b81811161048257600080fd5b6104948a8a8a8a8a8a8a8a8a8a61070e565b50505050505050505050565b6104a8610642565b73ffffffffffffffffffffffffffffffffffffffff166104c6610429565b73ffffffffffffffffffffffffffffffffffffffff161461051c576040517f08c379a000000000000000000000000000000000000000000000000000000000815260040161051390610f97565b60405180910390fd5b600073ffffffffffffffffffffffffffffffffffffffff168173ffffffffffffffffffffffffffffffffffffffff160361058b576040517f08c379a000000000000000000000000000000000000000000000000000000000815260040161058290611089565b60405180910390fd5b6105948161064a565b50565b813373ffffffffffffffffffffffffffffffffffffffff166004600083815260200190815260200160002060009054906101000a900473ffffffffffffffffffffffffffffffffffffffff1673ffffffffffffffffffffffffffffffffffffffff161461060357600080fd5b8160018481548110610618576106176110a9565b5b9060005260206000209060090201600501908051906020019061063c929190610967565b50505050565b600033905090565b60008060009054906101000a900473ffffffffffffffffffffffffffffffffffffffff169050816000806101000a81548173ffffffffffffffffffffffffffffffffffffffff021916908373ffffffffffffffffffffffffffffffffffffffff1602179055508173ffffffffffffffffffffffffffffffffffffffff168173ffffffffffffffffffffffffffffffffffffffff167f8be0079c531659141344cd1fd0a4f28419497f9722a3daafe3b4186f6b6457e060405160405180910390a35050565b60016040518061012001604052808c81526020018b81526020018a81526020018981526020018881526020018781526020018560ff1681526020018481526020018381525090806001815401808255809150506001900390600052602060002090600902016000909190919091506000820151816000019080519060200190610798929190610967565b5060208201518160010190805190602001906107b5929190610967565b5060408201518160020190805190602001906107d2929190610967565b5060608201518160030190805190602001906107ef929190610967565b50608082015181600401908051906020019061080c929190610967565b5060a0820151816005019080519060200190610829929190610967565b5060c08201518160060160006101000a81548160ff021916908360ff16021790555060e08201518160070155610100820151816008015550506000600180805490506108759190611107565b9050846003600083815260200190815260200160002060006101000a81548160ff021916908360ff160217905550336004600083815260200190815260200160002060006101000a81548173ffffffffffffffffffffffffffffffffffffffff021916908373ffffffffffffffffffffffffffffffffffffffff16021790555060016002600083815260200190815260200160002060006101000a81548160ff0219169083151502179055507f545dca5d847b655a9f03cdf5619f53f0b2546051fd0d015b18c09ae2a8b1a7658b866040516109529291906111c1565b60405180910390a15050505050505050505050565b82805461097390611220565b90600052602060002090601f01602090048101928261099557600085556109dc565b82601f106109ae57805160ff19168380011785556109dc565b828001600101855582156109dc579182015b828111156109db5782518255916020019190600101906109c0565b5b5090506109e991906109ed565b5090565b5b80821115610a065760008160009055506001016109ee565b5090565b6000604051905090565b600080fd5b600080fd5b6000819050919050565b610a3181610a1e565b8114610a3c57600080fd5b50565b600081359050610a4e81610a28565b92915050565b60008115159050919050565b610a6981610a54565b8114610a7457600080fd5b50565b600081359050610a8681610a60565b92915050565b60008060408385031215610aa357610aa2610a14565b5b6000610ab185828601610a3f565b9250506020610ac285828601610a77565b9150509250929050565b600060208284031215610ae257610ae1610a14565b5b6000610af084828501610a3f565b91505092915050565b600073ffffffffffffffffffffffffffffffffffffffff82169050919050565b6000610b2482610af9565b9050919050565b610b3481610b19565b82525050565b6000602082019050610b4f6000830184610b2b565b92915050565b610b5e81610a54565b82525050565b6000602082019050610b796000830184610b55565b92915050565b600080fd5b600080fd5b6000601f19601f8301169050919050565b7f4e487b7100000000000000000000000000000000000000000000000000000000600052604160045260246000fd5b610bd282610b89565b810181811067ffffffffffffffff82111715610bf157610bf0610b9a565b5b80604052505050565b6000610c04610a0a565b9050610c108282610bc9565b919050565b600067ffffffffffffffff821115610c3057610c2f610b9a565b5b610c3982610b89565b9050602081019050919050565b82818337600083830152505050565b6000610c68610c6384610c15565b610bfa565b905082815260208101848484011115610c8457610c83610b84565b5b610c8f848285610c46565b509392505050565b600082601f830112610cac57610cab610b7f565b5b8135610cbc848260208601610c55565b91505092915050565b600060ff82169050919050565b610cdb81610cc5565b8114610ce657600080fd5b50565b600081359050610cf881610cd2565b92915050565b6000806000806000806000806000806101408b8d031215610d2257610d21610a14565b5b60008b013567ffffffffffffffff811115610d4057610d3f610a19565b5b610d4c8d828e01610c97565b9a505060208b013567ffffffffffffffff811115610d6d57610d6c610a19565b5b610d798d828e01610c97565b99505060408b013567ffffffffffffffff811115610d9a57610d99610a19565b5b610da68d828e01610c97565b98505060608b013567ffffffffffffffff811115610dc757610dc6610a19565b5b610dd38d828e01610c97565b97505060808b013567ffffffffffffffff811115610df457610df3610a19565b5b610e008d828e01610c97565b96505060a08b013567ffffffffffffffff811115610e2157610e20610a19565b5b610e2d8d828e01610c97565b95505060c0610e3e8d828e01610ce9565b94505060e0610e4f8d828e01610ce9565b935050610100610e618d828e01610a3f565b925050610120610e738d828e01610a3f565b9150509295989b9194979a5092959850565b610e8e81610b19565b8114610e9957600080fd5b50565b600081359050610eab81610e85565b92915050565b600060208284031215610ec757610ec6610a14565b5b6000610ed584828501610e9c565b91505092915050565b60008060408385031215610ef557610ef4610a14565b5b6000610f0385828601610a3f565b925050602083013567ffffffffffffffff811115610f2457610f23610a19565b5b610f3085828601610c97565b9150509250929050565b600082825260208201905092915050565b7f4f776e61626c653a2063616c6c6572206973206e6f7420746865206f776e6572600082015250565b6000610f81602083610f3a565b9150610f8c82610f4b565b602082019050919050565b60006020820190508181036000830152610fb081610f74565b9050919050565b7f4e487b7100000000000000000000000000000000000000000000000000000000600052601260045260246000fd5b6000610ff182610a1e565b9150610ffc83610a1e565b92508261100c5761100b610fb7565b5b828206905092915050565b7f4f776e61626c653a206e6577206f776e657220697320746865207a65726f206160008201527f6464726573730000000000000000000000000000000000000000000000000000602082015250565b6000611073602683610f3a565b915061107e82611017565b604082019050919050565b600060208201905081810360008301526110a281611066565b9050919050565b7f4e487b7100000000000000000000000000000000000000000000000000000000600052603260045260246000fd5b7f4e487b7100000000000000000000000000000000000000000000000000000000600052601160045260246000fd5b600061111282610a1e565b915061111d83610a1e565b9250828210156111305761112f6110d8565b5b828203905092915050565b600081519050919050565b60005b83811015611164578082015181840152602081019050611149565b83811115611173576000848401525b50505050565b60006111848261113b565b61118e8185610f3a565b935061119e818560208601611146565b6111a781610b89565b840191505092915050565b6111bb81610cc5565b82525050565b600060408201905081810360008301526111db8185611179565b90506111ea60208301846111b2565b9392505050565b7f4e487b7100000000000000000000000000000000000000000000000000000000600052602260045260246000fd5b6000600282049050600182168061123857607f821691505b60208210810361124b5761124a6111f1565b5b5091905056fea2646970667358221220446aaa69917be2bdd0118504ec5a31be430f7f086a42ede05237f9c97e1cd36f64736f6c634300080e0033",
			"opcodes": "PUSH1 0x80 PUSH1 0x40 MSTORE CALLVALUE DUP1 ISZERO PUSH2 0x10 JUMPI PUSH1 0x0 DUP1 REVERT JUMPDEST POP PUSH2 0x2D PUSH2 0x22 PUSH2 0x32 PUSH1 0x20 SHL PUSH1 0x20 SHR JUMP JUMPDEST PUSH2 0x3A PUSH1 0x20 SHL PUSH1 0x20 SHR JUMP JUMPDEST PUSH2 0xFE JUMP JUMPDEST PUSH1 0x0 CALLER SWAP1 POP SWAP1 JUMP JUMPDEST PUSH1 0x0 DUP1 PUSH1 0x0 SWAP1 SLOAD SWAP1 PUSH2 0x100 EXP SWAP1 DIV PUSH20 0xFFFFFFFFFFFFFFFFFFFFFFFFFFFFFFFFFFFFFFFF AND SWAP1 POP DUP2 PUSH1 0x0 DUP1 PUSH2 0x100 EXP DUP2 SLOAD DUP2 PUSH20 0xFFFFFFFFFFFFFFFFFFFFFFFFFFFFFFFFFFFFFFFF MUL NOT AND SWAP1 DUP4 PUSH20 0xFFFFFFFFFFFFFFFFFFFFFFFFFFFFFFFFFFFFFFFF AND MUL OR SWAP1 SSTORE POP DUP2 PUSH20 0xFFFFFFFFFFFFFFFFFFFFFFFFFFFFFFFFFFFFFFFF AND DUP2 PUSH20 0xFFFFFFFFFFFFFFFFFFFFFFFFFFFFFFFFFFFFFFFF AND PUSH32 0x8BE0079C531659141344CD1FD0A4F28419497F9722A3DAAFE3B4186F6B6457E0 PUSH1 0x40 MLOAD PUSH1 0x40 MLOAD DUP1 SWAP2 SUB SWAP1 LOG3 POP POP JUMP JUMPDEST PUSH2 0x1287 DUP1 PUSH2 0x10D PUSH1 0x0 CODECOPY PUSH1 0x0 RETURN INVALID PUSH1 0x80 PUSH1 0x40 MSTORE PUSH1 0x4 CALLDATASIZE LT PUSH2 0x86 JUMPI PUSH1 0x0 CALLDATALOAD PUSH1 0xE0 SHR DUP1 PUSH4 0x715018A6 GT PUSH2 0x59 JUMPI DUP1 PUSH4 0x715018A6 EQ PUSH2 0x157 JUMPI DUP1 PUSH4 0x8DA5CB5B EQ PUSH2 0x16E JUMPI DUP1 PUSH4 0x9A2DC409 EQ PUSH2 0x199 JUMPI DUP1 PUSH4 0xF2FDE38B EQ PUSH2 0x1B5 JUMPI DUP1 PUSH4 0xFBB3B6CE EQ PUSH2 0x1DE JUMPI PUSH2 0x86 JUMP JUMPDEST DUP1 PUSH4 0x1D3F7559 EQ PUSH2 0x8B JUMPI DUP1 PUSH4 0x377DEF85 EQ PUSH2 0xB4 JUMPI DUP1 PUSH4 0x400AE0F9 EQ PUSH2 0xDD JUMPI DUP1 PUSH4 0x51A1D40E EQ PUSH2 0x11A JUMPI JUMPDEST PUSH1 0x0 DUP1 REVERT JUMPDEST CALLVALUE DUP1 ISZERO PUSH2 0x97 JUMPI PUSH1 0x0 DUP1 REVERT JUMPDEST POP PUSH2 0xB2 PUSH1 0x4 DUP1 CALLDATASIZE SUB DUP2 ADD SWAP1 PUSH2 0xAD SWAP2 SWAP1 PUSH2 0xA8C JUMP JUMPDEST PUSH2 0x207 JUMP JUMPDEST STOP JUMPDEST CALLVALUE DUP1 ISZERO PUSH2 0xC0 JUMPI PUSH1 0x0 DUP1 REVERT JUMPDEST POP PUSH2 0xDB PUSH1 0x4 DUP1 CALLDATASIZE SUB DUP2 ADD SWAP1 PUSH2 0xD6 SWAP2 SWAP1 PUSH2 0xA8C JUMP JUMPDEST PUSH2 0x2B2 JUMP JUMPDEST STOP JUMPDEST CALLVALUE DUP1 ISZERO PUSH2 0xE9 JUMPI PUSH1 0x0 DUP1 REVERT JUMPDEST POP PUSH2 0x104 PUSH1 0x4 DUP1 CALLDATASIZE SUB DUP2 ADD SWAP1 PUSH2 0xFF SWAP2 SWAP1 PUSH2 0xACC JUMP JUMPDEST PUSH2 0x34E JUMP JUMPDEST PUSH1 0x40 MLOAD PUSH2 0x111 SWAP2 SWAP1 PUSH2 0xB3A JUMP JUMPDEST PUSH1 0x40 MLOAD DUP1 SWAP2 SUB SWAP1 RETURN JUMPDEST CALLVALUE DUP1 ISZERO PUSH2 0x126 JUMPI PUSH1 0x0 DUP1 REVERT JUMPDEST POP PUSH2 0x141 PUSH1 0x4 DUP1 CALLDATASIZE SUB DUP2 ADD SWAP1 PUSH2 0x13C SWAP2 SWAP1 PUSH2 0xACC JUMP JUMPDEST PUSH2 0x381 JUMP JUMPDEST PUSH1 0x40 MLOAD PUSH2 0x14E SWAP2 SWAP1 PUSH2 0xB64 JUMP JUMPDEST PUSH1 0x40 MLOAD DUP1 SWAP2 SUB SWAP1 RETURN JUMPDEST CALLVALUE DUP1 ISZERO PUSH2 0x163 JUMPI PUSH1 0x0 DUP1 REVERT JUMPDEST POP PUSH2 0x16C PUSH2 0x3A1 JUMP JUMPDEST STOP JUMPDEST CALLVALUE DUP1 ISZERO PUSH2 0x17A JUMPI PUSH1 0x0 DUP1 REVERT JUMPDEST POP PUSH2 0x183 PUSH2 0x429 JUMP JUMPDEST PUSH1 0x40 MLOAD PUSH2 0x190 SWAP2 SWAP1 PUSH2 0xB3A JUMP JUMPDEST PUSH1 0x40 MLOAD DUP1 SWAP2 SUB SWAP1 RETURN JUMPDEST PUSH2 0x1B3 PUSH1 0x4 DUP1 CALLDATASIZE SUB DUP2 ADD SWAP1 PUSH2 0x1AE SWAP2 SWAP1 PUSH2 0xCFE JUMP JUMPDEST PUSH2 0x452 JUMP JUMPDEST STOP JUMPDEST CALLVALUE DUP1 ISZERO PUSH2 0x1C1 JUMPI PUSH1 0x0 DUP1 REVERT JUMPDEST POP PUSH2 0x1DC PUSH1 0x4 DUP1 CALLDATASIZE SUB DUP2 ADD SWAP1 PUSH2 0x1D7 SWAP2 SWAP1 PUSH2 0xEB1 JUMP JUMPDEST PUSH2 0x4A0 JUMP JUMPDEST STOP JUMPDEST CALLVALUE DUP1 ISZERO PUSH2 0x1EA JUMPI PUSH1 0x0 DUP1 REVERT JUMPDEST POP PUSH2 0x205 PUSH1 0x4 DUP1 CALLDATASIZE SUB DUP2 ADD SWAP1 PUSH2 0x200 SWAP2 SWAP1 PUSH2 0xEDE JUMP JUMPDEST PUSH2 0x597 JUMP JUMPDEST STOP JUMPDEST PUSH2 0x20F PUSH2 0x642 JUMP JUMPDEST PUSH20 0xFFFFFFFFFFFFFFFFFFFFFFFFFFFFFFFFFFFFFFFF AND PUSH2 0x22D PUSH2 0x429 JUMP JUMPDEST PUSH20 0xFFFFFFFFFFFFFFFFFFFFFFFFFFFFFFFFFFFFFFFF AND EQ PUSH2 0x283 JUMPI PUSH1 0x40 MLOAD PUSH32 0x8C379A000000000000000000000000000000000000000000000000000000000 DUP2 MSTORE PUSH1 0x4 ADD PUSH2 0x27A SWAP1 PUSH2 0xF97 JUMP JUMPDEST PUSH1 0x40 MLOAD DUP1 SWAP2 SUB SWAP1 REVERT JUMPDEST DUP1 PUSH1 0x2 PUSH1 0x0 DUP5 DUP2 MSTORE PUSH1 0x20 ADD SWAP1 DUP2 MSTORE PUSH1 0x20 ADD PUSH1 0x0 KECCAK256 PUSH1 0x0 PUSH2 0x100 EXP DUP2 SLOAD DUP2 PUSH1 0xFF MUL NOT AND SWAP1 DUP4 ISZERO ISZERO MUL OR SWAP1 SSTORE POP POP POP JUMP JUMPDEST DUP2 CALLER PUSH20 0xFFFFFFFFFFFFFFFFFFFFFFFFFFFFFFFFFFFFFFFF AND PUSH1 0x4 PUSH1 0x0 DUP4 DUP2 MSTORE PUSH1 0x20 ADD SWAP1 DUP2 MSTORE PUSH1 0x20 ADD PUSH1 0x0 KECCAK256 PUSH1 0x0 SWAP1 SLOAD SWAP1 PUSH2 0x100 EXP SWAP1 DIV PUSH20 0xFFFFFFFFFFFFFFFFFFFFFFFFFFFFFFFFFFFFFFFF AND PUSH20 0xFFFFFFFFFFFFFFFFFFFFFFFFFFFFFFFFFFFFFFFF AND EQ PUSH2 0x31E JUMPI PUSH1 0x0 DUP1 REVERT JUMPDEST DUP2 PUSH1 0x2 PUSH1 0x0 DUP6 DUP2 MSTORE PUSH1 0x20 ADD SWAP1 DUP2 MSTORE PUSH1 0x20 ADD PUSH1 0x0 KECCAK256 PUSH1 0x0 PUSH2 0x100 EXP DUP2 SLOAD DUP2 PUSH1 0xFF MUL NOT AND SWAP1 DUP4 ISZERO ISZERO MUL OR SWAP1 SSTORE POP POP POP POP JUMP JUMPDEST PUSH1 0x4 PUSH1 0x20 MSTORE DUP1 PUSH1 0x0 MSTORE PUSH1 0x40 PUSH1 0x0 KECCAK256 PUSH1 0x0 SWAP2 POP SLOAD SWAP1 PUSH2 0x100 EXP SWAP1 DIV PUSH20 0xFFFFFFFFFFFFFFFFFFFFFFFFFFFFFFFFFFFFFFFF AND DUP2 JUMP JUMPDEST PUSH1 0x2 PUSH1 0x20 MSTORE DUP1 PUSH1 0x0 MSTORE PUSH1 0x40 PUSH1 0x0 KECCAK256 PUSH1 0x0 SWAP2 POP SLOAD SWAP1 PUSH2 0x100 EXP SWAP1 DIV PUSH1 0xFF AND DUP2 JUMP JUMPDEST PUSH2 0x3A9 PUSH2 0x642 JUMP JUMPDEST PUSH20 0xFFFFFFFFFFFFFFFFFFFFFFFFFFFFFFFFFFFFFFFF AND PUSH2 0x3C7 PUSH2 0x429 JUMP JUMPDEST PUSH20 0xFFFFFFFFFFFFFFFFFFFFFFFFFFFFFFFFFFFFFFFF AND EQ PUSH2 0x41D JUMPI PUSH1 0x40 MLOAD PUSH32 0x8C379A000000000000000000000000000000000000000000000000000000000 DUP2 MSTORE PUSH1 0x4 ADD PUSH2 0x414 SWAP1 PUSH2 0xF97 JUMP JUMPDEST PUSH1 0x40 MLOAD DUP1 SWAP2 SUB SWAP1 REVERT JUMPDEST PUSH2 0x427 PUSH1 0x0 PUSH2 0x64A JUMP JUMPDEST JUMP JUMPDEST PUSH1 0x0 DUP1 PUSH1 0x0 SWAP1 SLOAD SWAP1 PUSH2 0x100 EXP SWAP1 DIV PUSH20 0xFFFFFFFFFFFFFFFFFFFFFFFFFFFFFFFFFFFFFFFF AND SWAP1 POP SWAP1 JUMP JUMPDEST DUP1 CALLVALUE EQ PUSH2 0x45E JUMPI PUSH1 0x0 DUP1 REVERT JUMPDEST PUSH1 0x0 DUP3 DUP3 PUSH2 0x46C SWAP2 SWAP1 PUSH2 0xFE6 JUMP JUMPDEST EQ PUSH2 0x476 JUMPI PUSH1 0x0 DUP1 REVERT JUMPDEST DUP2 DUP2 GT PUSH2 0x482 JUMPI PUSH1 0x0 DUP1 REVERT JUMPDEST PUSH2 0x494 DUP11 DUP11 DUP11 DUP11 DUP11 DUP11 DUP11 DUP11 DUP11 DUP11 PUSH2 0x70E JUMP JUMPDEST POP POP POP POP POP POP POP POP POP POP JUMP JUMPDEST PUSH2 0x4A8 PUSH2 0x642 JUMP JUMPDEST PUSH20 0xFFFFFFFFFFFFFFFFFFFFFFFFFFFFFFFFFFFFFFFF AND PUSH2 0x4C6 PUSH2 0x429 JUMP JUMPDEST PUSH20 0xFFFFFFFFFFFFFFFFFFFFFFFFFFFFFFFFFFFFFFFF AND EQ PUSH2 0x51C JUMPI PUSH1 0x40 MLOAD PUSH32 0x8C379A000000000000000000000000000000000000000000000000000000000 DUP2 MSTORE PUSH1 0x4 ADD PUSH2 0x513 SWAP1 PUSH2 0xF97 JUMP JUMPDEST PUSH1 0x40 MLOAD DUP1 SWAP2 SUB SWAP1 REVERT JUMPDEST PUSH1 0x0 PUSH20 0xFFFFFFFFFFFFFFFFFFFFFFFFFFFFFFFFFFFFFFFF AND DUP2 PUSH20 0xFFFFFFFFFFFFFFFFFFFFFFFFFFFFFFFFFFFFFFFF AND SUB PUSH2 0x58B JUMPI PUSH1 0x40 MLOAD PUSH32 0x8C379A000000000000000000000000000000000000000000000000000000000 DUP2 MSTORE PUSH1 0x4 ADD PUSH2 0x582 SWAP1 PUSH2 0x1089 JUMP JUMPDEST PUSH1 0x40 MLOAD DUP1 SWAP2 SUB SWAP1 REVERT JUMPDEST PUSH2 0x594 DUP2 PUSH2 0x64A JUMP JUMPDEST POP JUMP JUMPDEST DUP2 CALLER PUSH20 0xFFFFFFFFFFFFFFFFFFFFFFFFFFFFFFFFFFFFFFFF AND PUSH1 0x4 PUSH1 0x0 DUP4 DUP2 MSTORE PUSH1 0x20 ADD SWAP1 DUP2 MSTORE PUSH1 0x20 ADD PUSH1 0x0 KECCAK256 PUSH1 0x0 SWAP1 SLOAD SWAP1 PUSH2 0x100 EXP SWAP1 DIV PUSH20 0xFFFFFFFFFFFFFFFFFFFFFFFFFFFFFFFFFFFFFFFF AND PUSH20 0xFFFFFFFFFFFFFFFFFFFFFFFFFFFFFFFFFFFFFFFF AND EQ PUSH2 0x603 JUMPI PUSH1 0x0 DUP1 REVERT JUMPDEST DUP2 PUSH1 0x1 DUP5 DUP2 SLOAD DUP2 LT PUSH2 0x618 JUMPI PUSH2 0x617 PUSH2 0x10A9 JUMP JUMPDEST JUMPDEST SWAP1 PUSH1 0x0 MSTORE PUSH1 0x20 PUSH1 0x0 KECCAK256 SWAP1 PUSH1 0x9 MUL ADD PUSH1 0x5 ADD SWAP1 DUP1 MLOAD SWAP1 PUSH1 0x20 ADD SWAP1 PUSH2 0x63C SWAP3 SWAP2 SWAP1 PUSH2 0x967 JUMP JUMPDEST POP POP POP POP JUMP JUMPDEST PUSH1 0x0 CALLER SWAP1 POP SWAP1 JUMP JUMPDEST PUSH1 0x0 DUP1 PUSH1 0x0 SWAP1 SLOAD SWAP1 PUSH2 0x100 EXP SWAP1 DIV PUSH20 0xFFFFFFFFFFFFFFFFFFFFFFFFFFFFFFFFFFFFFFFF AND SWAP1 POP DUP2 PUSH1 0x0 DUP1 PUSH2 0x100 EXP DUP2 SLOAD DUP2 PUSH20 0xFFFFFFFFFFFFFFFFFFFFFFFFFFFFFFFFFFFFFFFF MUL NOT AND SWAP1 DUP4 PUSH20 0xFFFFFFFFFFFFFFFFFFFFFFFFFFFFFFFFFFFFFFFF AND MUL OR SWAP1 SSTORE POP DUP2 PUSH20 0xFFFFFFFFFFFFFFFFFFFFFFFFFFFFFFFFFFFFFFFF AND DUP2 PUSH20 0xFFFFFFFFFFFFFFFFFFFFFFFFFFFFFFFFFFFFFFFF AND PUSH32 0x8BE0079C531659141344CD1FD0A4F28419497F9722A3DAAFE3B4186F6B6457E0 PUSH1 0x40 MLOAD PUSH1 0x40 MLOAD DUP1 SWAP2 SUB SWAP1 LOG3 POP POP JUMP JUMPDEST PUSH1 0x1 PUSH1 0x40 MLOAD DUP1 PUSH2 0x120 ADD PUSH1 0x40 MSTORE DUP1 DUP13 DUP2 MSTORE PUSH1 0x20 ADD DUP12 DUP2 MSTORE PUSH1 0x20 ADD DUP11 DUP2 MSTORE PUSH1 0x20 ADD DUP10 DUP2 MSTORE PUSH1 0x20 ADD DUP9 DUP2 MSTORE PUSH1 0x20 ADD DUP8 DUP2 MSTORE PUSH1 0x20 ADD DUP6 PUSH1 0xFF AND DUP2 MSTORE PUSH1 0x20 ADD DUP5 DUP2 MSTORE PUSH1 0x20 ADD DUP4 DUP2 MSTORE POP SWAP1 DUP1 PUSH1 0x1 DUP2 SLOAD ADD DUP1 DUP3 SSTORE DUP1 SWAP2 POP POP PUSH1 0x1 SWAP1 SUB SWAP1 PUSH1 0x0 MSTORE PUSH1 0x20 PUSH1 0x0 KECCAK256 SWAP1 PUSH1 0x9 MUL ADD PUSH1 0x0 SWAP1 SWAP2 SWAP1 SWAP2 SWAP1 SWAP2 POP PUSH1 0x0 DUP3 ADD MLOAD DUP2 PUSH1 0x0 ADD SWAP1 DUP1 MLOAD SWAP1 PUSH1 0x20 ADD SWAP1 PUSH2 0x798 SWAP3 SWAP2 SWAP1 PUSH2 0x967 JUMP JUMPDEST POP PUSH1 0x20 DUP3 ADD MLOAD DUP2 PUSH1 0x1 ADD SWAP1 DUP1 MLOAD SWAP1 PUSH1 0x20 ADD SWAP1 PUSH2 0x7B5 SWAP3 SWAP2 SWAP1 PUSH2 0x967 JUMP JUMPDEST POP PUSH1 0x40 DUP3 ADD MLOAD DUP2 PUSH1 0x2 ADD SWAP1 DUP1 MLOAD SWAP1 PUSH1 0x20 ADD SWAP1 PUSH2 0x7D2 SWAP3 SWAP2 SWAP1 PUSH2 0x967 JUMP JUMPDEST POP PUSH1 0x60 DUP3 ADD MLOAD DUP2 PUSH1 0x3 ADD SWAP1 DUP1 MLOAD SWAP1 PUSH1 0x20 ADD SWAP1 PUSH2 0x7EF SWAP3 SWAP2 SWAP1 PUSH2 0x967 JUMP JUMPDEST POP PUSH1 0x80 DUP3 ADD MLOAD DUP2 PUSH1 0x4 ADD SWAP1 DUP1 MLOAD SWAP1 PUSH1 0x20 ADD SWAP1 PUSH2 0x80C SWAP3 SWAP2 SWAP1 PUSH2 0x967 JUMP JUMPDEST POP PUSH1 0xA0 DUP3 ADD MLOAD DUP2 PUSH1 0x5 ADD SWAP1 DUP1 MLOAD SWAP1 PUSH1 0x20 ADD SWAP1 PUSH2 0x829 SWAP3 SWAP2 SWAP1 PUSH2 0x967 JUMP JUMPDEST POP PUSH1 0xC0 DUP3 ADD MLOAD DUP2 PUSH1 0x6 ADD PUSH1 0x0 PUSH2 0x100 EXP DUP2 SLOAD DUP2 PUSH1 0xFF MUL NOT AND SWAP1 DUP4 PUSH1 0xFF AND MUL OR SWAP1 SSTORE POP PUSH1 0xE0 DUP3 ADD MLOAD DUP2 PUSH1 0x7 ADD SSTORE PUSH2 0x100 DUP3 ADD MLOAD DUP2 PUSH1 0x8 ADD SSTORE POP POP PUSH1 0x0 PUSH1 0x1 DUP1 DUP1 SLOAD SWAP1 POP PUSH2 0x875 SWAP2 SWAP1 PUSH2 0x1107 JUMP JUMPDEST SWAP1 POP DUP5 PUSH1 0x3 PUSH1 0x0 DUP4 DUP2 MSTORE PUSH1 0x20 ADD SWAP1 DUP2 MSTORE PUSH1 0x20 ADD PUSH1 0x0 KECCAK256 PUSH1 0x0 PUSH2 0x100 EXP DUP2 SLOAD DUP2 PUSH1 0xFF MUL NOT AND SWAP1 DUP4 PUSH1 0xFF AND MUL OR SWAP1 SSTORE POP CALLER PUSH1 0x4 PUSH1 0x0 DUP4 DUP2 MSTORE PUSH1 0x20 ADD SWAP1 DUP2 MSTORE PUSH1 0x20 ADD PUSH1 0x0 KECCAK256 PUSH1 0x0 PUSH2 0x100 EXP DUP2 SLOAD DUP2 PUSH20 0xFFFFFFFFFFFFFFFFFFFFFFFFFFFFFFFFFFFFFFFF MUL NOT AND SWAP1 DUP4 PUSH20 0xFFFFFFFFFFFFFFFFFFFFFFFFFFFFFFFFFFFFFFFF AND MUL OR SWAP1 SSTORE POP PUSH1 0x1 PUSH1 0x2 PUSH1 0x0 DUP4 DUP2 MSTORE PUSH1 0x20 ADD SWAP1 DUP2 MSTORE PUSH1 0x20 ADD PUSH1 0x0 KECCAK256 PUSH1 0x0 PUSH2 0x100 EXP DUP2 SLOAD DUP2 PUSH1 0xFF MUL NOT AND SWAP1 DUP4 ISZERO ISZERO MUL OR SWAP1 SSTORE POP PUSH32 0x545DCA5D847B655A9F03CDF5619F53F0B2546051FD0D015B18C09AE2A8B1A765 DUP12 DUP7 PUSH1 0x40 MLOAD PUSH2 0x952 SWAP3 SWAP2 SWAP1 PUSH2 0x11C1 JUMP JUMPDEST PUSH1 0x40 MLOAD DUP1 SWAP2 SUB SWAP1 LOG1 POP POP POP POP POP POP POP POP POP POP POP JUMP JUMPDEST DUP3 DUP1 SLOAD PUSH2 0x973 SWAP1 PUSH2 0x1220 JUMP JUMPDEST SWAP1 PUSH1 0x0 MSTORE PUSH1 0x20 PUSH1 0x0 KECCAK256 SWAP1 PUSH1 0x1F ADD PUSH1 0x20 SWAP1 DIV DUP2 ADD SWAP3 DUP3 PUSH2 0x995 JUMPI PUSH1 0x0 DUP6 SSTORE PUSH2 0x9DC JUMP JUMPDEST DUP3 PUSH1 0x1F LT PUSH2 0x9AE JUMPI DUP1 MLOAD PUSH1 0xFF NOT AND DUP4 DUP1 ADD OR DUP6 SSTORE PUSH2 0x9DC JUMP JUMPDEST DUP3 DUP1 ADD PUSH1 0x1 ADD DUP6 SSTORE DUP3 ISZERO PUSH2 0x9DC JUMPI SWAP2 DUP3 ADD JUMPDEST DUP3 DUP2 GT ISZERO PUSH2 0x9DB JUMPI DUP3 MLOAD DUP3 SSTORE SWAP2 PUSH1 0x20 ADD SWAP2 SWAP1 PUSH1 0x1 ADD SWAP1 PUSH2 0x9C0 JUMP JUMPDEST JUMPDEST POP SWAP1 POP PUSH2 0x9E9 SWAP2 SWAP1 PUSH2 0x9ED JUMP JUMPDEST POP SWAP1 JUMP JUMPDEST JUMPDEST DUP1 DUP3 GT ISZERO PUSH2 0xA06 JUMPI PUSH1 0x0 DUP2 PUSH1 0x0 SWAP1 SSTORE POP PUSH1 0x1 ADD PUSH2 0x9EE JUMP JUMPDEST POP SWAP1 JUMP JUMPDEST PUSH1 0x0 PUSH1 0x40 MLOAD SWAP1 POP SWAP1 JUMP JUMPDEST PUSH1 0x0 DUP1 REVERT JUMPDEST PUSH1 0x0 DUP1 REVERT JUMPDEST PUSH1 0x0 DUP2 SWAP1 POP SWAP2 SWAP1 POP JUMP JUMPDEST PUSH2 0xA31 DUP2 PUSH2 0xA1E JUMP JUMPDEST DUP2 EQ PUSH2 0xA3C JUMPI PUSH1 0x0 DUP1 REVERT JUMPDEST POP JUMP JUMPDEST PUSH1 0x0 DUP2 CALLDATALOAD SWAP1 POP PUSH2 0xA4E DUP2 PUSH2 0xA28 JUMP JUMPDEST SWAP3 SWAP2 POP POP JUMP JUMPDEST PUSH1 0x0 DUP2 ISZERO ISZERO SWAP1 POP SWAP2 SWAP1 POP JUMP JUMPDEST PUSH2 0xA69 DUP2 PUSH2 0xA54 JUMP JUMPDEST DUP2 EQ PUSH2 0xA74 JUMPI PUSH1 0x0 DUP1 REVERT JUMPDEST POP JUMP JUMPDEST PUSH1 0x0 DUP2 CALLDATALOAD SWAP1 POP PUSH2 0xA86 DUP2 PUSH2 0xA60 JUMP JUMPDEST SWAP3 SWAP2 POP POP JUMP JUMPDEST PUSH1 0x0 DUP1 PUSH1 0x40 DUP4 DUP6 SUB SLT ISZERO PUSH2 0xAA3 JUMPI PUSH2 0xAA2 PUSH2 0xA14 JUMP JUMPDEST JUMPDEST PUSH1 0x0 PUSH2 0xAB1 DUP6 DUP3 DUP7 ADD PUSH2 0xA3F JUMP JUMPDEST SWAP3 POP POP PUSH1 0x20 PUSH2 0xAC2 DUP6 DUP3 DUP7 ADD PUSH2 0xA77 JUMP JUMPDEST SWAP2 POP POP SWAP3 POP SWAP3 SWAP1 POP JUMP JUMPDEST PUSH1 0x0 PUSH1 0x20 DUP3 DUP5 SUB SLT ISZERO PUSH2 0xAE2 JUMPI PUSH2 0xAE1 PUSH2 0xA14 JUMP JUMPDEST JUMPDEST PUSH1 0x0 PUSH2 0xAF0 DUP5 DUP3 DUP6 ADD PUSH2 0xA3F JUMP JUMPDEST SWAP2 POP POP SWAP3 SWAP2 POP POP JUMP JUMPDEST PUSH1 0x0 PUSH20 0xFFFFFFFFFFFFFFFFFFFFFFFFFFFFFFFFFFFFFFFF DUP3 AND SWAP1 POP SWAP2 SWAP1 POP JUMP JUMPDEST PUSH1 0x0 PUSH2 0xB24 DUP3 PUSH2 0xAF9 JUMP JUMPDEST SWAP1 POP SWAP2 SWAP1 POP JUMP JUMPDEST PUSH2 0xB34 DUP2 PUSH2 0xB19 JUMP JUMPDEST DUP3 MSTORE POP POP JUMP JUMPDEST PUSH1 0x0 PUSH1 0x20 DUP3 ADD SWAP1 POP PUSH2 0xB4F PUSH1 0x0 DUP4 ADD DUP5 PUSH2 0xB2B JUMP JUMPDEST SWAP3 SWAP2 POP POP JUMP JUMPDEST PUSH2 0xB5E DUP2 PUSH2 0xA54 JUMP JUMPDEST DUP3 MSTORE POP POP JUMP JUMPDEST PUSH1 0x0 PUSH1 0x20 DUP3 ADD SWAP1 POP PUSH2 0xB79 PUSH1 0x0 DUP4 ADD DUP5 PUSH2 0xB55 JUMP JUMPDEST SWAP3 SWAP2 POP POP JUMP JUMPDEST PUSH1 0x0 DUP1 REVERT JUMPDEST PUSH1 0x0 DUP1 REVERT JUMPDEST PUSH1 0x0 PUSH1 0x1F NOT PUSH1 0x1F DUP4 ADD AND SWAP1 POP SWAP2 SWAP1 POP JUMP JUMPDEST PUSH32 0x4E487B7100000000000000000000000000000000000000000000000000000000 PUSH1 0x0 MSTORE PUSH1 0x41 PUSH1 0x4 MSTORE PUSH1 0x24 PUSH1 0x0 REVERT JUMPDEST PUSH2 0xBD2 DUP3 PUSH2 0xB89 JUMP JUMPDEST DUP2 ADD DUP2 DUP2 LT PUSH8 0xFFFFFFFFFFFFFFFF DUP3 GT OR ISZERO PUSH2 0xBF1 JUMPI PUSH2 0xBF0 PUSH2 0xB9A JUMP JUMPDEST JUMPDEST DUP1 PUSH1 0x40 MSTORE POP POP POP JUMP JUMPDEST PUSH1 0x0 PUSH2 0xC04 PUSH2 0xA0A JUMP JUMPDEST SWAP1 POP PUSH2 0xC10 DUP3 DUP3 PUSH2 0xBC9 JUMP JUMPDEST SWAP2 SWAP1 POP JUMP JUMPDEST PUSH1 0x0 PUSH8 0xFFFFFFFFFFFFFFFF DUP3 GT ISZERO PUSH2 0xC30 JUMPI PUSH2 0xC2F PUSH2 0xB9A JUMP JUMPDEST JUMPDEST PUSH2 0xC39 DUP3 PUSH2 0xB89 JUMP JUMPDEST SWAP1 POP PUSH1 0x20 DUP2 ADD SWAP1 POP SWAP2 SWAP1 POP JUMP JUMPDEST DUP3 DUP2 DUP4 CALLDATACOPY PUSH1 0x0 DUP4 DUP4 ADD MSTORE POP POP POP JUMP JUMPDEST PUSH1 0x0 PUSH2 0xC68 PUSH2 0xC63 DUP5 PUSH2 0xC15 JUMP JUMPDEST PUSH2 0xBFA JUMP JUMPDEST SWAP1 POP DUP3 DUP2 MSTORE PUSH1 0x20 DUP2 ADD DUP5 DUP5 DUP5 ADD GT ISZERO PUSH2 0xC84 JUMPI PUSH2 0xC83 PUSH2 0xB84 JUMP JUMPDEST JUMPDEST PUSH2 0xC8F DUP5 DUP3 DUP6 PUSH2 0xC46 JUMP JUMPDEST POP SWAP4 SWAP3 POP POP POP JUMP JUMPDEST PUSH1 0x0 DUP3 PUSH1 0x1F DUP4 ADD SLT PUSH2 0xCAC JUMPI PUSH2 0xCAB PUSH2 0xB7F JUMP JUMPDEST JUMPDEST DUP2 CALLDATALOAD PUSH2 0xCBC DUP5 DUP3 PUSH1 0x20 DUP7 ADD PUSH2 0xC55 JUMP JUMPDEST SWAP2 POP POP SWAP3 SWAP2 POP POP JUMP JUMPDEST PUSH1 0x0 PUSH1 0xFF DUP3 AND SWAP1 POP SWAP2 SWAP1 POP JUMP JUMPDEST PUSH2 0xCDB DUP2 PUSH2 0xCC5 JUMP JUMPDEST DUP2 EQ PUSH2 0xCE6 JUMPI PUSH1 0x0 DUP1 REVERT JUMPDEST POP JUMP JUMPDEST PUSH1 0x0 DUP2 CALLDATALOAD SWAP1 POP PUSH2 0xCF8 DUP2 PUSH2 0xCD2 JUMP JUMPDEST SWAP3 SWAP2 POP POP JUMP JUMPDEST PUSH1 0x0 DUP1 PUSH1 0x0 DUP1 PUSH1 0x0 DUP1 PUSH1 0x0 DUP1 PUSH1 0x0 DUP1 PUSH2 0x140 DUP12 DUP14 SUB SLT ISZERO PUSH2 0xD22 JUMPI PUSH2 0xD21 PUSH2 0xA14 JUMP JUMPDEST JUMPDEST PUSH1 0x0 DUP12 ADD CALLDATALOAD PUSH8 0xFFFFFFFFFFFFFFFF DUP2 GT ISZERO PUSH2 0xD40 JUMPI PUSH2 0xD3F PUSH2 0xA19 JUMP JUMPDEST JUMPDEST PUSH2 0xD4C DUP14 DUP3 DUP15 ADD PUSH2 0xC97 JUMP JUMPDEST SWAP11 POP POP PUSH1 0x20 DUP12 ADD CALLDATALOAD PUSH8 0xFFFFFFFFFFFFFFFF DUP2 GT ISZERO PUSH2 0xD6D JUMPI PUSH2 0xD6C PUSH2 0xA19 JUMP JUMPDEST JUMPDEST PUSH2 0xD79 DUP14 DUP3 DUP15 ADD PUSH2 0xC97 JUMP JUMPDEST SWAP10 POP POP PUSH1 0x40 DUP12 ADD CALLDATALOAD PUSH8 0xFFFFFFFFFFFFFFFF DUP2 GT ISZERO PUSH2 0xD9A JUMPI PUSH2 0xD99 PUSH2 0xA19 JUMP JUMPDEST JUMPDEST PUSH2 0xDA6 DUP14 DUP3 DUP15 ADD PUSH2 0xC97 JUMP JUMPDEST SWAP9 POP POP PUSH1 0x60 DUP12 ADD CALLDATALOAD PUSH8 0xFFFFFFFFFFFFFFFF DUP2 GT ISZERO PUSH2 0xDC7 JUMPI PUSH2 0xDC6 PUSH2 0xA19 JUMP JUMPDEST JUMPDEST PUSH2 0xDD3 DUP14 DUP3 DUP15 ADD PUSH2 0xC97 JUMP JUMPDEST SWAP8 POP POP PUSH1 0x80 DUP12 ADD CALLDATALOAD PUSH8 0xFFFFFFFFFFFFFFFF DUP2 GT ISZERO PUSH2 0xDF4 JUMPI PUSH2 0xDF3 PUSH2 0xA19 JUMP JUMPDEST JUMPDEST PUSH2 0xE00 DUP14 DUP3 DUP15 ADD PUSH2 0xC97 JUMP JUMPDEST SWAP7 POP POP PUSH1 0xA0 DUP12 ADD CALLDATALOAD PUSH8 0xFFFFFFFFFFFFFFFF DUP2 GT ISZERO PUSH2 0xE21 JUMPI PUSH2 0xE20 PUSH2 0xA19 JUMP JUMPDEST JUMPDEST PUSH2 0xE2D DUP14 DUP3 DUP15 ADD PUSH2 0xC97 JUMP JUMPDEST SWAP6 POP POP PUSH1 0xC0 PUSH2 0xE3E DUP14 DUP3 DUP15 ADD PUSH2 0xCE9 JUMP JUMPDEST SWAP5 POP POP PUSH1 0xE0 PUSH2 0xE4F DUP14 DUP3 DUP15 ADD PUSH2 0xCE9 JUMP JUMPDEST SWAP4 POP POP PUSH2 0x100 PUSH2 0xE61 DUP14 DUP3 DUP15 ADD PUSH2 0xA3F JUMP JUMPDEST SWAP3 POP POP PUSH2 0x120 PUSH2 0xE73 DUP14 DUP3 DUP15 ADD PUSH2 0xA3F JUMP JUMPDEST SWAP2 POP POP SWAP3 SWAP6 SWAP9 SWAP12 SWAP2 SWAP5 SWAP8 SWAP11 POP SWAP3 SWAP6 SWAP9 POP JUMP JUMPDEST PUSH2 0xE8E DUP2 PUSH2 0xB19 JUMP JUMPDEST DUP2 EQ PUSH2 0xE99 JUMPI PUSH1 0x0 DUP1 REVERT JUMPDEST POP JUMP JUMPDEST PUSH1 0x0 DUP2 CALLDATALOAD SWAP1 POP PUSH2 0xEAB DUP2 PUSH2 0xE85 JUMP JUMPDEST SWAP3 SWAP2 POP POP JUMP JUMPDEST PUSH1 0x0 PUSH1 0x20 DUP3 DUP5 SUB SLT ISZERO PUSH2 0xEC7 JUMPI PUSH2 0xEC6 PUSH2 0xA14 JUMP JUMPDEST JUMPDEST PUSH1 0x0 PUSH2 0xED5 DUP5 DUP3 DUP6 ADD PUSH2 0xE9C JUMP JUMPDEST SWAP2 POP POP SWAP3 SWAP2 POP POP JUMP JUMPDEST PUSH1 0x0 DUP1 PUSH1 0x40 DUP4 DUP6 SUB SLT ISZERO PUSH2 0xEF5 JUMPI PUSH2 0xEF4 PUSH2 0xA14 JUMP JUMPDEST JUMPDEST PUSH1 0x0 PUSH2 0xF03 DUP6 DUP3 DUP7 ADD PUSH2 0xA3F JUMP JUMPDEST SWAP3 POP POP PUSH1 0x20 DUP4 ADD CALLDATALOAD PUSH8 0xFFFFFFFFFFFFFFFF DUP2 GT ISZERO PUSH2 0xF24 JUMPI PUSH2 0xF23 PUSH2 0xA19 JUMP JUMPDEST JUMPDEST PUSH2 0xF30 DUP6 DUP3 DUP7 ADD PUSH2 0xC97 JUMP JUMPDEST SWAP2 POP POP SWAP3 POP SWAP3 SWAP1 POP JUMP JUMPDEST PUSH1 0x0 DUP3 DUP3 MSTORE PUSH1 0x20 DUP3 ADD SWAP1 POP SWAP3 SWAP2 POP POP JUMP JUMPDEST PUSH32 0x4F776E61626C653A2063616C6C6572206973206E6F7420746865206F776E6572 PUSH1 0x0 DUP3 ADD MSTORE POP JUMP JUMPDEST PUSH1 0x0 PUSH2 0xF81 PUSH1 0x20 DUP4 PUSH2 0xF3A JUMP JUMPDEST SWAP2 POP PUSH2 0xF8C DUP3 PUSH2 0xF4B JUMP JUMPDEST PUSH1 0x20 DUP3 ADD SWAP1 POP SWAP2 SWAP1 POP JUMP JUMPDEST PUSH1 0x0 PUSH1 0x20 DUP3 ADD SWAP1 POP DUP2 DUP2 SUB PUSH1 0x0 DUP4 ADD MSTORE PUSH2 0xFB0 DUP2 PUSH2 0xF74 JUMP JUMPDEST SWAP1 POP SWAP2 SWAP1 POP JUMP JUMPDEST PUSH32 0x4E487B7100000000000000000000000000000000000000000000000000000000 PUSH1 0x0 MSTORE PUSH1 0x12 PUSH1 0x4 MSTORE PUSH1 0x24 PUSH1 0x0 REVERT JUMPDEST PUSH1 0x0 PUSH2 0xFF1 DUP3 PUSH2 0xA1E JUMP JUMPDEST SWAP2 POP PUSH2 0xFFC DUP4 PUSH2 0xA1E JUMP JUMPDEST SWAP3 POP DUP3 PUSH2 0x100C JUMPI PUSH2 0x100B PUSH2 0xFB7 JUMP JUMPDEST JUMPDEST DUP3 DUP3 MOD SWAP1 POP SWAP3 SWAP2 POP POP JUMP JUMPDEST PUSH32 0x4F776E61626C653A206E6577206F776E657220697320746865207A65726F2061 PUSH1 0x0 DUP3 ADD MSTORE PUSH32 0x6464726573730000000000000000000000000000000000000000000000000000 PUSH1 0x20 DUP3 ADD MSTORE POP JUMP JUMPDEST PUSH1 0x0 PUSH2 0x1073 PUSH1 0x26 DUP4 PUSH2 0xF3A JUMP JUMPDEST SWAP2 POP PUSH2 0x107E DUP3 PUSH2 0x1017 JUMP JUMPDEST PUSH1 0x40 DUP3 ADD SWAP1 POP SWAP2 SWAP1 POP JUMP JUMPDEST PUSH1 0x0 PUSH1 0x20 DUP3 ADD SWAP1 POP DUP2 DUP2 SUB PUSH1 0x0 DUP4 ADD MSTORE PUSH2 0x10A2 DUP2 PUSH2 0x1066 JUMP JUMPDEST SWAP1 POP SWAP2 SWAP1 POP JUMP JUMPDEST PUSH32 0x4E487B7100000000000000000000000000000000000000000000000000000000 PUSH1 0x0 MSTORE PUSH1 0x32 PUSH1 0x4 MSTORE PUSH1 0x24 PUSH1 0x0 REVERT JUMPDEST PUSH32 0x4E487B7100000000000000000000000000000000000000000000000000000000 PUSH1 0x0 MSTORE PUSH1 0x11 PUSH1 0x4 MSTORE PUSH1 0x24 PUSH1 0x0 REVERT JUMPDEST PUSH1 0x0 PUSH2 0x1112 DUP3 PUSH2 0xA1E JUMP JUMPDEST SWAP2 POP PUSH2 0x111D DUP4 PUSH2 0xA1E JUMP JUMPDEST SWAP3 POP DUP3 DUP3 LT ISZERO PUSH2 0x1130 JUMPI PUSH2 0x112F PUSH2 0x10D8 JUMP JUMPDEST JUMPDEST DUP3 DUP3 SUB SWAP1 POP SWAP3 SWAP2 POP POP JUMP JUMPDEST PUSH1 0x0 DUP2 MLOAD SWAP1 POP SWAP2 SWAP1 POP JUMP JUMPDEST PUSH1 0x0 JUMPDEST DUP4 DUP2 LT ISZERO PUSH2 0x1164 JUMPI DUP1 DUP3 ADD MLOAD DUP2 DUP5 ADD MSTORE PUSH1 0x20 DUP2 ADD SWAP1 POP PUSH2 0x1149 JUMP JUMPDEST DUP4 DUP2 GT ISZERO PUSH2 0x1173 JUMPI PUSH1 0x0 DUP5 DUP5 ADD MSTORE JUMPDEST POP POP POP POP JUMP JUMPDEST PUSH1 0x0 PUSH2 0x1184 DUP3 PUSH2 0x113B JUMP JUMPDEST PUSH2 0x118E DUP2 DUP6 PUSH2 0xF3A JUMP JUMPDEST SWAP4 POP PUSH2 0x119E DUP2 DUP6 PUSH1 0x20 DUP7 ADD PUSH2 0x1146 JUMP JUMPDEST PUSH2 0x11A7 DUP2 PUSH2 0xB89 JUMP JUMPDEST DUP5 ADD SWAP2 POP POP SWAP3 SWAP2 POP POP JUMP JUMPDEST PUSH2 0x11BB DUP2 PUSH2 0xCC5 JUMP JUMPDEST DUP3 MSTORE POP POP JUMP JUMPDEST PUSH1 0x0 PUSH1 0x40 DUP3 ADD SWAP1 POP DUP2 DUP2 SUB PUSH1 0x0 DUP4 ADD MSTORE PUSH2 0x11DB DUP2 DUP6 PUSH2 0x1179 JUMP JUMPDEST SWAP1 POP PUSH2 0x11EA PUSH1 0x20 DUP4 ADD DUP5 PUSH2 0x11B2 JUMP JUMPDEST SWAP4 SWAP3 POP POP POP JUMP JUMPDEST PUSH32 0x4E487B7100000000000000000000000000000000000000000000000000000000 PUSH1 0x0 MSTORE PUSH1 0x22 PUSH1 0x4 MSTORE PUSH1 0x24 PUSH1 0x0 REVERT JUMPDEST PUSH1 0x0 PUSH1 0x2 DUP3 DIV SWAP1 POP PUSH1 0x1 DUP3 AND DUP1 PUSH2 0x1238 JUMPI PUSH1 0x7F DUP3 AND SWAP2 POP JUMPDEST PUSH1 0x20 DUP3 LT DUP2 SUB PUSH2 0x124B JUMPI PUSH2 0x124A PUSH2 0x11F1 JUMP JUMPDEST JUMPDEST POP SWAP2 SWAP1 POP JUMP INVALID LOG2 PUSH5 0x6970667358 0x22 SLT KECCAK256 DIFFICULTY PUSH11 0xAA69917BE2BDD0118504EC GAS BALANCE 0xBE NUMBER 0xF PUSH32 0x86A42EDE05237F9C97E1CD36F64736F6C634300080E00330000000000000000 "
		},
		"gasEstimates": {
			"creation": {
				"codeDepositCost": "948600",
				"executionCost": "infinite",
				"totalCost": "infinite"
			},
			"external": {
				"changeQuizStatus(uint256,bool)": "27171",
				"createQuiz(string,string,string,string,string,string,uint8,uint8,uint256,uint256)": "infinite",
				"owner()": "2544",
				"quizIsActive(uint256)": "2863",
				"quizOwner(uint256)": "2884",
				"quizOwnerChangeHint(uint256,string)": "infinite",
				"quizOwnerChangeStatus(uint256,bool)": "27206",
				"renounceOwnership()": "30374",
				"transferOwnership(address)": "30786"
			},
			"internal": {
				"_createQuiz(string memory,string memory,string memory,string memory,string memory,string memory,uint8,uint8,uint256,uint256)": "infinite"
			}
		},
		"methodIdentifiers": {
			"changeQuizStatus(uint256,bool)": "1d3f7559",
			"createQuiz(string,string,string,string,string,string,uint8,uint8,uint256,uint256)": "9a2dc409",
			"owner()": "8da5cb5b",
			"quizIsActive(uint256)": "51a1d40e",
			"quizOwner(uint256)": "400ae0f9",
			"quizOwnerChangeHint(uint256,string)": "fbb3b6ce",
			"quizOwnerChangeStatus(uint256,bool)": "377def85",
			"renounceOwnership()": "715018a6",
			"transferOwnership(address)": "f2fde38b"
		}
	},
	"abi": [
		{
			"anonymous": false,
			"inputs": [
				{
					"indexed": false,
					"internalType": "string",
					"name": "question",
					"type": "string"
				},
				{
					"indexed": false,
					"internalType": "uint8",
					"name": "answer",
					"type": "uint8"
				}
			],
			"name": "NewQuiz",
			"type": "event"
		},
		{
			"anonymous": false,
			"inputs": [
				{
					"indexed": true,
					"internalType": "address",
					"name": "previousOwner",
					"type": "address"
				},
				{
					"indexed": true,
					"internalType": "address",
					"name": "newOwner",
					"type": "address"
				}
			],
			"name": "OwnershipTransferred",
			"type": "event"
		},
		{
			"inputs": [
				{
					"internalType": "uint256",
					"name": "_quizId",
					"type": "uint256"
				},
				{
					"internalType": "bool",
					"name": "_quizStatus",
					"type": "bool"
				}
			],
			"name": "changeQuizStatus",
			"outputs": [],
			"stateMutability": "nonpayable",
			"type": "function"
		},
		{
			"inputs": [
				{
					"internalType": "string",
					"name": "_question",
					"type": "string"
				},
				{
					"internalType": "string",
					"name": "_choice1",
					"type": "string"
				},
				{
					"internalType": "string",
					"name": "_choice2",
					"type": "string"
				},
				{
					"internalType": "string",
					"name": "_choice3",
					"type": "string"
				},
				{
					"internalType": "string",
					"name": "_choice4",
					"type": "string"
				},
				{
					"internalType": "string",
					"name": "_hint",
					"type": "string"
				},
				{
					"internalType": "uint8",
					"name": "_answer",
					"type": "uint8"
				},
				{
					"internalType": "uint8",
					"name": "_languageCode",
					"type": "uint8"
				},
				{
					"internalType": "uint256",
					"name": "_reward",
					"type": "uint256"
				},
				{
					"internalType": "uint256",
					"name": "_rewardPool",
					"type": "uint256"
				}
			],
			"name": "createQuiz",
			"outputs": [],
			"stateMutability": "payable",
			"type": "function"
		},
		{
			"inputs": [],
			"name": "owner",
			"outputs": [
				{
					"internalType": "address",
					"name": "",
					"type": "address"
				}
			],
			"stateMutability": "view",
			"type": "function"
		},
		{
			"inputs": [
				{
					"internalType": "uint256",
					"name": "",
					"type": "uint256"
				}
			],
			"name": "quizIsActive",
			"outputs": [
				{
					"internalType": "bool",
					"name": "",
					"type": "bool"
				}
			],
			"stateMutability": "view",
			"type": "function"
		},
		{
			"inputs": [
				{
					"internalType": "uint256",
					"name": "",
					"type": "uint256"
				}
			],
			"name": "quizOwner",
			"outputs": [
				{
					"internalType": "address",
					"name": "",
					"type": "address"
				}
			],
			"stateMutability": "view",
			"type": "function"
		},
		{
			"inputs": [
				{
					"internalType": "uint256",
					"name": "_quizId",
					"type": "uint256"
				},
				{
					"internalType": "string",
					"name": "_hint",
					"type": "string"
				}
			],
			"name": "quizOwnerChangeHint",
			"outputs": [],
			"stateMutability": "nonpayable",
			"type": "function"
		},
		{
			"inputs": [
				{
					"internalType": "uint256",
					"name": "_quizId",
					"type": "uint256"
				},
				{
					"internalType": "bool",
					"name": "_quizStatus",
					"type": "bool"
				}
			],
			"name": "quizOwnerChangeStatus",
			"outputs": [],
			"stateMutability": "nonpayable",
			"type": "function"
		},
		{
			"inputs": [],
			"name": "renounceOwnership",
			"outputs": [],
			"stateMutability": "nonpayable",
			"type": "function"
		},
		{
			"inputs": [
				{
					"internalType": "address",
					"name": "newOwner",
					"type": "address"
				}
			],
			"name": "transferOwnership",
			"outputs": [],
			"stateMutability": "nonpayable",
			"type": "function"
		}
	]
}