{
	"data": {
		"bytecode": {
			"linkReferences": {},
			"object": "608060405234801561001057600080fd5b5061002d61002261003260201b60201c565b61003a60201b60201c565b6100fe565b600033905090565b60008060009054906101000a900473ffffffffffffffffffffffffffffffffffffffff169050816000806101000a81548173ffffffffffffffffffffffffffffffffffffffff021916908373ffffffffffffffffffffffffffffffffffffffff1602179055508173ffffffffffffffffffffffffffffffffffffffff168173ffffffffffffffffffffffffffffffffffffffff167f8be0079c531659141344cd1fd0a4f28419497f9722a3daafe3b4186f6b6457e060405160405180910390a35050565b611f528061010d6000396000f3fe60806040526004361061009c5760003560e01c80638da5cb5b116100645780638da5cb5b146101845780639a2dc409146101af578063a0af60de146101cb578063b9360cf1146101f6578063f2fde38b14610234578063fbb3b6ce1461025d5761009c565b80631d3f7559146100a1578063377def85146100ca578063400ae0f9146100f357806351a1d40e14610130578063715018a61461016d575b600080fd5b3480156100ad57600080fd5b506100c860048036038101906100c391906114d8565b610286565b005b3480156100d657600080fd5b506100f160048036038101906100ec91906114d8565b610331565b005b3480156100ff57600080fd5b5061011a60048036038101906101159190611518565b6103cd565b6040516101279190611586565b60405180910390f35b34801561013c57600080fd5b5061015760048036038101906101529190611518565b610400565b60405161016491906115b0565b60405180910390f35b34801561017957600080fd5b50610182610420565b005b34801561019057600080fd5b506101996104a8565b6040516101a69190611586565b60405180910390f35b6101c960048036038101906101c4919061174a565b6104d1565b005b3480156101d757600080fd5b506101e061051f565b6040516101ed9190611a5f565b60405180910390f35b34801561020257600080fd5b5061021d60048036038101906102189190611518565b610a2e565b60405161022b929190611a90565b60405180910390f35b34801561024057600080fd5b5061025b60048036038101906102569190611aec565b610e9d565b005b34801561026957600080fd5b50610284600480360381019061027f9190611b19565b610f94565b005b61028e61103f565b73ffffffffffffffffffffffffffffffffffffffff166102ac6104a8565b73ffffffffffffffffffffffffffffffffffffffff1614610302576040517f08c379a00000000000000000000000000000000000000000000000000000000081526004016102f990611bd2565b60405180910390fd5b806002600084815260200190815260200160002060006101000a81548160ff0219169083151502179055505050565b813373ffffffffffffffffffffffffffffffffffffffff166004600083815260200190815260200160002060009054906101000a900473ffffffffffffffffffffffffffffffffffffffff1673ffffffffffffffffffffffffffffffffffffffff161461039d57600080fd5b816002600085815260200190815260200160002060006101000a81548160ff021916908315150217905550505050565b60046020528060005260406000206000915054906101000a900473ffffffffffffffffffffffffffffffffffffffff1681565b60026020528060005260406000206000915054906101000a900460ff1681565b61042861103f565b73ffffffffffffffffffffffffffffffffffffffff166104466104a8565b73ffffffffffffffffffffffffffffffffffffffff161461049c576040517f08c379a000000000000000000000000000000000000000000000000000000000815260040161049390611bd2565b60405180910390fd5b6104a66000611047565b565b60008060009054906101000a900473ffffffffffffffffffffffffffffffffffffffff16905090565b8034146104dd57600080fd5b600082826104eb9190611c21565b146104f557600080fd5b81811161050157600080fd5b6105138a8a8a8a8a8a8a8a8a8a61110b565b50505050505050505050565b610527611364565b600060018054905067ffffffffffffffff811115610548576105476115e6565b5b6040519080825280602002602001820160405280156105765781602001602082028036833780820191505090505b5090506000805b6001805490508110156105f857600115156002600083815260200190815260200160002060009054906101000a900460ff161515036105e557808383815181106105ca576105c9611c52565b5b60200260200101818152505081806105e190611cb0565b9250505b80806105f090611cb0565b91505061057d565b50600082514233604051602001610610929190611d61565b6040516020818303038152906040528051906020012060001c6106339190611c21565b9050600083828151811061064a57610649611c52565b5b6020026020010151905060006001828154811061066a57610669611c52565b5b90600052602060002090600902016040518061012001604052908160008201805461069490611dbc565b80601f01602080910402602001604051908101604052809291908181526020018280546106c090611dbc565b801561070d5780601f106106e25761010080835404028352916020019161070d565b820191906000526020600020905b8154815290600101906020018083116106f057829003601f168201915b5050505050815260200160018201805461072690611dbc565b80601f016020809104026020016040519081016040528092919081815260200182805461075290611dbc565b801561079f5780601f106107745761010080835404028352916020019161079f565b820191906000526020600020905b81548152906001019060200180831161078257829003601f168201915b505050505081526020016002820180546107b890611dbc565b80601f01602080910402602001604051908101604052809291908181526020018280546107e490611dbc565b80156108315780601f1061080657610100808354040283529160200191610831565b820191906000526020600020905b81548152906001019060200180831161081457829003601f168201915b5050505050815260200160038201805461084a90611dbc565b80601f016020809104026020016040519081016040528092919081815260200182805461087690611dbc565b80156108c35780601f10610898576101008083540402835291602001916108c3565b820191906000526020600020905b8154815290600101906020018083116108a657829003601f168201915b505050505081526020016004820180546108dc90611dbc565b80601f016020809104026020016040519081016040528092919081815260200182805461090890611dbc565b80156109555780601f1061092a57610100808354040283529160200191610955565b820191906000526020600020905b81548152906001019060200180831161093857829003601f168201915b5050505050815260200160058201805461096e90611dbc565b80601f016020809104026020016040519081016040528092919081815260200182805461099a90611dbc565b80156109e75780601f106109bc576101008083540402835291602001916109e7565b820191906000526020600020905b8154815290600101906020018083116109ca57829003601f168201915b505050505081526020016006820160009054906101000a900460ff1660ff1660ff168152602001600782015481526020016008820154815250509050809550505050505090565b610a36611364565b6000823373ffffffffffffffffffffffffffffffffffffffff166004600083815260200190815260200160002060009054906101000a900473ffffffffffffffffffffffffffffffffffffffff1673ffffffffffffffffffffffffffffffffffffffff1614610aa457600080fd5b60018481548110610ab857610ab7611c52565b5b90600052602060002090600902016003600086815260200190815260200160002060009054906101000a900460ff168160405180610120016040529081600082018054610b0490611dbc565b80601f0160208091040260200160405190810160405280929190818152602001828054610b3090611dbc565b8015610b7d5780601f10610b5257610100808354040283529160200191610b7d565b820191906000526020600020905b815481529060010190602001808311610b6057829003601f168201915b50505050508152602001600182018054610b9690611dbc565b80601f0160208091040260200160405190810160405280929190818152602001828054610bc290611dbc565b8015610c0f5780601f10610be457610100808354040283529160200191610c0f565b820191906000526020600020905b815481529060010190602001808311610bf257829003601f168201915b50505050508152602001600282018054610c2890611dbc565b80601f0160208091040260200160405190810160405280929190818152602001828054610c5490611dbc565b8015610ca15780601f10610c7657610100808354040283529160200191610ca1565b820191906000526020600020905b815481529060010190602001808311610c8457829003601f168201915b50505050508152602001600382018054610cba90611dbc565b80601f0160208091040260200160405190810160405280929190818152602001828054610ce690611dbc565b8015610d335780601f10610d0857610100808354040283529160200191610d33565b820191906000526020600020905b815481529060010190602001808311610d1657829003601f168201915b50505050508152602001600482018054610d4c90611dbc565b80601f0160208091040260200160405190810160405280929190818152602001828054610d7890611dbc565b8015610dc55780601f10610d9a57610100808354040283529160200191610dc5565b820191906000526020600020905b815481529060010190602001808311610da857829003601f168201915b50505050508152602001600582018054610dde90611dbc565b80601f0160208091040260200160405190810160405280929190818152602001828054610e0a90611dbc565b8015610e575780601f10610e2c57610100808354040283529160200191610e57565b820191906000526020600020905b815481529060010190602001808311610e3a57829003601f168201915b505050505081526020016006820160009054906101000a900460ff1660ff1660ff1681526020016007820154815260200160088201548152505091509250925050915091565b610ea561103f565b73ffffffffffffffffffffffffffffffffffffffff16610ec36104a8565b73ffffffffffffffffffffffffffffffffffffffff1614610f19576040517f08c379a0000000000000000000000000000000000000000000000000000000008152600401610f1090611bd2565b60405180910390fd5b600073ffffffffffffffffffffffffffffffffffffffff168173ffffffffffffffffffffffffffffffffffffffff1603610f88576040517f08c379a0000000000000000000000000000000000000000000000000000000008152600401610f7f90611e5f565b60405180910390fd5b610f9181611047565b50565b813373ffffffffffffffffffffffffffffffffffffffff166004600083815260200190815260200160002060009054906101000a900473ffffffffffffffffffffffffffffffffffffffff1673ffffffffffffffffffffffffffffffffffffffff161461100057600080fd5b816001848154811061101557611014611c52565b5b906000526020600020906009020160050190805190602001906110399291906113b3565b50505050565b600033905090565b60008060009054906101000a900473ffffffffffffffffffffffffffffffffffffffff169050816000806101000a81548173ffffffffffffffffffffffffffffffffffffffff021916908373ffffffffffffffffffffffffffffffffffffffff1602179055508173ffffffffffffffffffffffffffffffffffffffff168173ffffffffffffffffffffffffffffffffffffffff167f8be0079c531659141344cd1fd0a4f28419497f9722a3daafe3b4186f6b6457e060405160405180910390a35050565b60016040518061012001604052808c81526020018b81526020018a81526020018981526020018881526020018781526020018560ff16815260200184815260200183815250908060018154018082558091505060019003906000526020600020906009020160009091909190915060008201518160000190805190602001906111959291906113b3565b5060208201518160010190805190602001906111b29291906113b3565b5060408201518160020190805190602001906111cf9291906113b3565b5060608201518160030190805190602001906111ec9291906113b3565b5060808201518160040190805190602001906112099291906113b3565b5060a08201518160050190805190602001906112269291906113b3565b5060c08201518160060160006101000a81548160ff021916908360ff16021790555060e08201518160070155610100820151816008015550506000600180805490506112729190611e7f565b9050846003600083815260200190815260200160002060006101000a81548160ff021916908360ff160217905550336004600083815260200190815260200160002060006101000a81548173ffffffffffffffffffffffffffffffffffffffff021916908373ffffffffffffffffffffffffffffffffffffffff16021790555060016002600083815260200190815260200160002060006101000a81548160ff0219169083151502179055507f545dca5d847b655a9f03cdf5619f53f0b2546051fd0d015b18c09ae2a8b1a7658b8660405161134f929190611eec565b60405180910390a15050505050505050505050565b604051806101200160405280606081526020016060815260200160608152602001606081526020016060815260200160608152602001600060ff16815260200160008152602001600081525090565b8280546113bf90611dbc565b90600052602060002090601f0160209004810192826113e15760008555611428565b82601f106113fa57805160ff1916838001178555611428565b82800160010185558215611428579182015b8281111561142757825182559160200191906001019061140c565b5b5090506114359190611439565b5090565b5b8082111561145257600081600090555060010161143a565b5090565b6000604051905090565b600080fd5b600080fd5b6000819050919050565b61147d8161146a565b811461148857600080fd5b50565b60008135905061149a81611474565b92915050565b60008115159050919050565b6114b5816114a0565b81146114c057600080fd5b50565b6000813590506114d2816114ac565b92915050565b600080604083850312156114ef576114ee611460565b5b60006114fd8582860161148b565b925050602061150e858286016114c3565b9150509250929050565b60006020828403121561152e5761152d611460565b5b600061153c8482850161148b565b91505092915050565b600073ffffffffffffffffffffffffffffffffffffffff82169050919050565b600061157082611545565b9050919050565b61158081611565565b82525050565b600060208201905061159b6000830184611577565b92915050565b6115aa816114a0565b82525050565b60006020820190506115c560008301846115a1565b92915050565b600080fd5b600080fd5b6000601f19601f8301169050919050565b7f4e487b7100000000000000000000000000000000000000000000000000000000600052604160045260246000fd5b61161e826115d5565b810181811067ffffffffffffffff8211171561163d5761163c6115e6565b5b80604052505050565b6000611650611456565b905061165c8282611615565b919050565b600067ffffffffffffffff82111561167c5761167b6115e6565b5b611685826115d5565b9050602081019050919050565b82818337600083830152505050565b60006116b46116af84611661565b611646565b9050828152602081018484840111156116d0576116cf6115d0565b5b6116db848285611692565b509392505050565b600082601f8301126116f8576116f76115cb565b5b81356117088482602086016116a1565b91505092915050565b600060ff82169050919050565b61172781611711565b811461173257600080fd5b50565b6000813590506117448161171e565b92915050565b6000806000806000806000806000806101408b8d03121561176e5761176d611460565b5b60008b013567ffffffffffffffff81111561178c5761178b611465565b5b6117988d828e016116e3565b9a505060208b013567ffffffffffffffff8111156117b9576117b8611465565b5b6117c58d828e016116e3565b99505060408b013567ffffffffffffffff8111156117e6576117e5611465565b5b6117f28d828e016116e3565b98505060608b013567ffffffffffffffff81111561181357611812611465565b5b61181f8d828e016116e3565b97505060808b013567ffffffffffffffff8111156118405761183f611465565b5b61184c8d828e016116e3565b96505060a08b013567ffffffffffffffff81111561186d5761186c611465565b5b6118798d828e016116e3565b95505060c061188a8d828e01611735565b94505060e061189b8d828e01611735565b9350506101006118ad8d828e0161148b565b9250506101206118bf8d828e0161148b565b9150509295989b9194979a5092959850565b600081519050919050565b600082825260208201905092915050565b60005b8381101561190b5780820151818401526020810190506118f0565b8381111561191a576000848401525b50505050565b600061192b826118d1565b61193581856118dc565b93506119458185602086016118ed565b61194e816115d5565b840191505092915050565b61196281611711565b82525050565b6119718161146a565b82525050565b60006101208301600083015184820360008601526119958282611920565b915050602083015184820360208601526119af8282611920565b915050604083015184820360408601526119c98282611920565b915050606083015184820360608601526119e38282611920565b915050608083015184820360808601526119fd8282611920565b91505060a083015184820360a0860152611a178282611920565b91505060c0830151611a2c60c0860182611959565b5060e0830151611a3f60e0860182611968565b50610100830151611a54610100860182611968565b508091505092915050565b60006020820190508181036000830152611a798184611977565b905092915050565b611a8a81611711565b82525050565b60006040820190508181036000830152611aaa8185611977565b9050611ab96020830184611a81565b9392505050565b611ac981611565565b8114611ad457600080fd5b50565b600081359050611ae681611ac0565b92915050565b600060208284031215611b0257611b01611460565b5b6000611b1084828501611ad7565b91505092915050565b60008060408385031215611b3057611b2f611460565b5b6000611b3e8582860161148b565b925050602083013567ffffffffffffffff811115611b5f57611b5e611465565b5b611b6b858286016116e3565b9150509250929050565b600082825260208201905092915050565b7f4f776e61626c653a2063616c6c6572206973206e6f7420746865206f776e6572600082015250565b6000611bbc602083611b75565b9150611bc782611b86565b602082019050919050565b60006020820190508181036000830152611beb81611baf565b9050919050565b7f4e487b7100000000000000000000000000000000000000000000000000000000600052601260045260246000fd5b6000611c2c8261146a565b9150611c378361146a565b925082611c4757611c46611bf2565b5b828206905092915050565b7f4e487b7100000000000000000000000000000000000000000000000000000000600052603260045260246000fd5b7f4e487b7100000000000000000000000000000000000000000000000000000000600052601160045260246000fd5b6000611cbb8261146a565b91507fffffffffffffffffffffffffffffffffffffffffffffffffffffffffffffffff8203611ced57611cec611c81565b5b600182019050919050565b6000819050919050565b611d13611d0e8261146a565b611cf8565b82525050565b60008160601b9050919050565b6000611d3182611d19565b9050919050565b6000611d4382611d26565b9050919050565b611d5b611d5682611565565b611d38565b82525050565b6000611d6d8285611d02565b602082019150611d7d8284611d4a565b6014820191508190509392505050565b7f4e487b7100000000000000000000000000000000000000000000000000000000600052602260045260246000fd5b60006002820490506001821680611dd457607f821691505b602082108103611de757611de6611d8d565b5b50919050565b7f4f776e61626c653a206e6577206f776e657220697320746865207a65726f206160008201527f6464726573730000000000000000000000000000000000000000000000000000602082015250565b6000611e49602683611b75565b9150611e5482611ded565b604082019050919050565b60006020820190508181036000830152611e7881611e3c565b9050919050565b6000611e8a8261146a565b9150611e958361146a565b925082821015611ea857611ea7611c81565b5b828203905092915050565b6000611ebe826118d1565b611ec88185611b75565b9350611ed88185602086016118ed565b611ee1816115d5565b840191505092915050565b60006040820190508181036000830152611f068185611eb3565b9050611f156020830184611a81565b939250505056fea2646970667358221220ad9f15a0e3a9f4d775716835ccdc4049a531d796406be6f9b9426f8435fd214d64736f6c634300080e0033",
			"opcodes": "PUSH1 0x80 PUSH1 0x40 MSTORE CALLVALUE DUP1 ISZERO PUSH2 0x10 JUMPI PUSH1 0x0 DUP1 REVERT JUMPDEST POP PUSH2 0x2D PUSH2 0x22 PUSH2 0x32 PUSH1 0x20 SHL PUSH1 0x20 SHR JUMP JUMPDEST PUSH2 0x3A PUSH1 0x20 SHL PUSH1 0x20 SHR JUMP JUMPDEST PUSH2 0xFE JUMP JUMPDEST PUSH1 0x0 CALLER SWAP1 POP SWAP1 JUMP JUMPDEST PUSH1 0x0 DUP1 PUSH1 0x0 SWAP1 SLOAD SWAP1 PUSH2 0x100 EXP SWAP1 DIV PUSH20 0xFFFFFFFFFFFFFFFFFFFFFFFFFFFFFFFFFFFFFFFF AND SWAP1 POP DUP2 PUSH1 0x0 DUP1 PUSH2 0x100 EXP DUP2 SLOAD DUP2 PUSH20 0xFFFFFFFFFFFFFFFFFFFFFFFFFFFFFFFFFFFFFFFF MUL NOT AND SWAP1 DUP4 PUSH20 0xFFFFFFFFFFFFFFFFFFFFFFFFFFFFFFFFFFFFFFFF AND MUL OR SWAP1 SSTORE POP DUP2 PUSH20 0xFFFFFFFFFFFFFFFFFFFFFFFFFFFFFFFFFFFFFFFF AND DUP2 PUSH20 0xFFFFFFFFFFFFFFFFFFFFFFFFFFFFFFFFFFFFFFFF AND PUSH32 0x8BE0079C531659141344CD1FD0A4F28419497F9722A3DAAFE3B4186F6B6457E0 PUSH1 0x40 MLOAD PUSH1 0x40 MLOAD DUP1 SWAP2 SUB SWAP1 LOG3 POP POP JUMP JUMPDEST PUSH2 0x1F52 DUP1 PUSH2 0x10D PUSH1 0x0 CODECOPY PUSH1 0x0 RETURN INVALID PUSH1 0x80 PUSH1 0x40 MSTORE PUSH1 0x4 CALLDATASIZE LT PUSH2 0x9C JUMPI PUSH1 0x0 CALLDATALOAD PUSH1 0xE0 SHR DUP1 PUSH4 0x8DA5CB5B GT PUSH2 0x64 JUMPI DUP1 PUSH4 0x8DA5CB5B EQ PUSH2 0x184 JUMPI DUP1 PUSH4 0x9A2DC409 EQ PUSH2 0x1AF JUMPI DUP1 PUSH4 0xA0AF60DE EQ PUSH2 0x1CB JUMPI DUP1 PUSH4 0xB9360CF1 EQ PUSH2 0x1F6 JUMPI DUP1 PUSH4 0xF2FDE38B EQ PUSH2 0x234 JUMPI DUP1 PUSH4 0xFBB3B6CE EQ PUSH2 0x25D JUMPI PUSH2 0x9C JUMP JUMPDEST DUP1 PUSH4 0x1D3F7559 EQ PUSH2 0xA1 JUMPI DUP1 PUSH4 0x377DEF85 EQ PUSH2 0xCA JUMPI DUP1 PUSH4 0x400AE0F9 EQ PUSH2 0xF3 JUMPI DUP1 PUSH4 0x51A1D40E EQ PUSH2 0x130 JUMPI DUP1 PUSH4 0x715018A6 EQ PUSH2 0x16D JUMPI JUMPDEST PUSH1 0x0 DUP1 REVERT JUMPDEST CALLVALUE DUP1 ISZERO PUSH2 0xAD JUMPI PUSH1 0x0 DUP1 REVERT JUMPDEST POP PUSH2 0xC8 PUSH1 0x4 DUP1 CALLDATASIZE SUB DUP2 ADD SWAP1 PUSH2 0xC3 SWAP2 SWAP1 PUSH2 0x14D8 JUMP JUMPDEST PUSH2 0x286 JUMP JUMPDEST STOP JUMPDEST CALLVALUE DUP1 ISZERO PUSH2 0xD6 JUMPI PUSH1 0x0 DUP1 REVERT JUMPDEST POP PUSH2 0xF1 PUSH1 0x4 DUP1 CALLDATASIZE SUB DUP2 ADD SWAP1 PUSH2 0xEC SWAP2 SWAP1 PUSH2 0x14D8 JUMP JUMPDEST PUSH2 0x331 JUMP JUMPDEST STOP JUMPDEST CALLVALUE DUP1 ISZERO PUSH2 0xFF JUMPI PUSH1 0x0 DUP1 REVERT JUMPDEST POP PUSH2 0x11A PUSH1 0x4 DUP1 CALLDATASIZE SUB DUP2 ADD SWAP1 PUSH2 0x115 SWAP2 SWAP1 PUSH2 0x1518 JUMP JUMPDEST PUSH2 0x3CD JUMP JUMPDEST PUSH1 0x40 MLOAD PUSH2 0x127 SWAP2 SWAP1 PUSH2 0x1586 JUMP JUMPDEST PUSH1 0x40 MLOAD DUP1 SWAP2 SUB SWAP1 RETURN JUMPDEST CALLVALUE DUP1 ISZERO PUSH2 0x13C JUMPI PUSH1 0x0 DUP1 REVERT JUMPDEST POP PUSH2 0x157 PUSH1 0x4 DUP1 CALLDATASIZE SUB DUP2 ADD SWAP1 PUSH2 0x152 SWAP2 SWAP1 PUSH2 0x1518 JUMP JUMPDEST PUSH2 0x400 JUMP JUMPDEST PUSH1 0x40 MLOAD PUSH2 0x164 SWAP2 SWAP1 PUSH2 0x15B0 JUMP JUMPDEST PUSH1 0x40 MLOAD DUP1 SWAP2 SUB SWAP1 RETURN JUMPDEST CALLVALUE DUP1 ISZERO PUSH2 0x179 JUMPI PUSH1 0x0 DUP1 REVERT JUMPDEST POP PUSH2 0x182 PUSH2 0x420 JUMP JUMPDEST STOP JUMPDEST CALLVALUE DUP1 ISZERO PUSH2 0x190 JUMPI PUSH1 0x0 DUP1 REVERT JUMPDEST POP PUSH2 0x199 PUSH2 0x4A8 JUMP JUMPDEST PUSH1 0x40 MLOAD PUSH2 0x1A6 SWAP2 SWAP1 PUSH2 0x1586 JUMP JUMPDEST PUSH1 0x40 MLOAD DUP1 SWAP2 SUB SWAP1 RETURN JUMPDEST PUSH2 0x1C9 PUSH1 0x4 DUP1 CALLDATASIZE SUB DUP2 ADD SWAP1 PUSH2 0x1C4 SWAP2 SWAP1 PUSH2 0x174A JUMP JUMPDEST PUSH2 0x4D1 JUMP JUMPDEST STOP JUMPDEST CALLVALUE DUP1 ISZERO PUSH2 0x1D7 JUMPI PUSH1 0x0 DUP1 REVERT JUMPDEST POP PUSH2 0x1E0 PUSH2 0x51F JUMP JUMPDEST PUSH1 0x40 MLOAD PUSH2 0x1ED SWAP2 SWAP1 PUSH2 0x1A5F JUMP JUMPDEST PUSH1 0x40 MLOAD DUP1 SWAP2 SUB SWAP1 RETURN JUMPDEST CALLVALUE DUP1 ISZERO PUSH2 0x202 JUMPI PUSH1 0x0 DUP1 REVERT JUMPDEST POP PUSH2 0x21D PUSH1 0x4 DUP1 CALLDATASIZE SUB DUP2 ADD SWAP1 PUSH2 0x218 SWAP2 SWAP1 PUSH2 0x1518 JUMP JUMPDEST PUSH2 0xA2E JUMP JUMPDEST PUSH1 0x40 MLOAD PUSH2 0x22B SWAP3 SWAP2 SWAP1 PUSH2 0x1A90 JUMP JUMPDEST PUSH1 0x40 MLOAD DUP1 SWAP2 SUB SWAP1 RETURN JUMPDEST CALLVALUE DUP1 ISZERO PUSH2 0x240 JUMPI PUSH1 0x0 DUP1 REVERT JUMPDEST POP PUSH2 0x25B PUSH1 0x4 DUP1 CALLDATASIZE SUB DUP2 ADD SWAP1 PUSH2 0x256 SWAP2 SWAP1 PUSH2 0x1AEC JUMP JUMPDEST PUSH2 0xE9D JUMP JUMPDEST STOP JUMPDEST CALLVALUE DUP1 ISZERO PUSH2 0x269 JUMPI PUSH1 0x0 DUP1 REVERT JUMPDEST POP PUSH2 0x284 PUSH1 0x4 DUP1 CALLDATASIZE SUB DUP2 ADD SWAP1 PUSH2 0x27F SWAP2 SWAP1 PUSH2 0x1B19 JUMP JUMPDEST PUSH2 0xF94 JUMP JUMPDEST STOP JUMPDEST PUSH2 0x28E PUSH2 0x103F JUMP JUMPDEST PUSH20 0xFFFFFFFFFFFFFFFFFFFFFFFFFFFFFFFFFFFFFFFF AND PUSH2 0x2AC PUSH2 0x4A8 JUMP JUMPDEST PUSH20 0xFFFFFFFFFFFFFFFFFFFFFFFFFFFFFFFFFFFFFFFF AND EQ PUSH2 0x302 JUMPI PUSH1 0x40 MLOAD PUSH32 0x8C379A000000000000000000000000000000000000000000000000000000000 DUP2 MSTORE PUSH1 0x4 ADD PUSH2 0x2F9 SWAP1 PUSH2 0x1BD2 JUMP JUMPDEST PUSH1 0x40 MLOAD DUP1 SWAP2 SUB SWAP1 REVERT JUMPDEST DUP1 PUSH1 0x2 PUSH1 0x0 DUP5 DUP2 MSTORE PUSH1 0x20 ADD SWAP1 DUP2 MSTORE PUSH1 0x20 ADD PUSH1 0x0 KECCAK256 PUSH1 0x0 PUSH2 0x100 EXP DUP2 SLOAD DUP2 PUSH1 0xFF MUL NOT AND SWAP1 DUP4 ISZERO ISZERO MUL OR SWAP1 SSTORE POP POP POP JUMP JUMPDEST DUP2 CALLER PUSH20 0xFFFFFFFFFFFFFFFFFFFFFFFFFFFFFFFFFFFFFFFF AND PUSH1 0x4 PUSH1 0x0 DUP4 DUP2 MSTORE PUSH1 0x20 ADD SWAP1 DUP2 MSTORE PUSH1 0x20 ADD PUSH1 0x0 KECCAK256 PUSH1 0x0 SWAP1 SLOAD SWAP1 PUSH2 0x100 EXP SWAP1 DIV PUSH20 0xFFFFFFFFFFFFFFFFFFFFFFFFFFFFFFFFFFFFFFFF AND PUSH20 0xFFFFFFFFFFFFFFFFFFFFFFFFFFFFFFFFFFFFFFFF AND EQ PUSH2 0x39D JUMPI PUSH1 0x0 DUP1 REVERT JUMPDEST DUP2 PUSH1 0x2 PUSH1 0x0 DUP6 DUP2 MSTORE PUSH1 0x20 ADD SWAP1 DUP2 MSTORE PUSH1 0x20 ADD PUSH1 0x0 KECCAK256 PUSH1 0x0 PUSH2 0x100 EXP DUP2 SLOAD DUP2 PUSH1 0xFF MUL NOT AND SWAP1 DUP4 ISZERO ISZERO MUL OR SWAP1 SSTORE POP POP POP POP JUMP JUMPDEST PUSH1 0x4 PUSH1 0x20 MSTORE DUP1 PUSH1 0x0 MSTORE PUSH1 0x40 PUSH1 0x0 KECCAK256 PUSH1 0x0 SWAP2 POP SLOAD SWAP1 PUSH2 0x100 EXP SWAP1 DIV PUSH20 0xFFFFFFFFFFFFFFFFFFFFFFFFFFFFFFFFFFFFFFFF AND DUP2 JUMP JUMPDEST PUSH1 0x2 PUSH1 0x20 MSTORE DUP1 PUSH1 0x0 MSTORE PUSH1 0x40 PUSH1 0x0 KECCAK256 PUSH1 0x0 SWAP2 POP SLOAD SWAP1 PUSH2 0x100 EXP SWAP1 DIV PUSH1 0xFF AND DUP2 JUMP JUMPDEST PUSH2 0x428 PUSH2 0x103F JUMP JUMPDEST PUSH20 0xFFFFFFFFFFFFFFFFFFFFFFFFFFFFFFFFFFFFFFFF AND PUSH2 0x446 PUSH2 0x4A8 JUMP JUMPDEST PUSH20 0xFFFFFFFFFFFFFFFFFFFFFFFFFFFFFFFFFFFFFFFF AND EQ PUSH2 0x49C JUMPI PUSH1 0x40 MLOAD PUSH32 0x8C379A000000000000000000000000000000000000000000000000000000000 DUP2 MSTORE PUSH1 0x4 ADD PUSH2 0x493 SWAP1 PUSH2 0x1BD2 JUMP JUMPDEST PUSH1 0x40 MLOAD DUP1 SWAP2 SUB SWAP1 REVERT JUMPDEST PUSH2 0x4A6 PUSH1 0x0 PUSH2 0x1047 JUMP JUMPDEST JUMP JUMPDEST PUSH1 0x0 DUP1 PUSH1 0x0 SWAP1 SLOAD SWAP1 PUSH2 0x100 EXP SWAP1 DIV PUSH20 0xFFFFFFFFFFFFFFFFFFFFFFFFFFFFFFFFFFFFFFFF AND SWAP1 POP SWAP1 JUMP JUMPDEST DUP1 CALLVALUE EQ PUSH2 0x4DD JUMPI PUSH1 0x0 DUP1 REVERT JUMPDEST PUSH1 0x0 DUP3 DUP3 PUSH2 0x4EB SWAP2 SWAP1 PUSH2 0x1C21 JUMP JUMPDEST EQ PUSH2 0x4F5 JUMPI PUSH1 0x0 DUP1 REVERT JUMPDEST DUP2 DUP2 GT PUSH2 0x501 JUMPI PUSH1 0x0 DUP1 REVERT JUMPDEST PUSH2 0x513 DUP11 DUP11 DUP11 DUP11 DUP11 DUP11 DUP11 DUP11 DUP11 DUP11 PUSH2 0x110B JUMP JUMPDEST POP POP POP POP POP POP POP POP POP POP JUMP JUMPDEST PUSH2 0x527 PUSH2 0x1364 JUMP JUMPDEST PUSH1 0x0 PUSH1 0x1 DUP1 SLOAD SWAP1 POP PUSH8 0xFFFFFFFFFFFFFFFF DUP2 GT ISZERO PUSH2 0x548 JUMPI PUSH2 0x547 PUSH2 0x15E6 JUMP JUMPDEST JUMPDEST PUSH1 0x40 MLOAD SWAP1 DUP1 DUP3 MSTORE DUP1 PUSH1 0x20 MUL PUSH1 0x20 ADD DUP3 ADD PUSH1 0x40 MSTORE DUP1 ISZERO PUSH2 0x576 JUMPI DUP2 PUSH1 0x20 ADD PUSH1 0x20 DUP3 MUL DUP1 CALLDATASIZE DUP4 CALLDATACOPY DUP1 DUP3 ADD SWAP2 POP POP SWAP1 POP JUMPDEST POP SWAP1 POP PUSH1 0x0 DUP1 JUMPDEST PUSH1 0x1 DUP1 SLOAD SWAP1 POP DUP2 LT ISZERO PUSH2 0x5F8 JUMPI PUSH1 0x1 ISZERO ISZERO PUSH1 0x2 PUSH1 0x0 DUP4 DUP2 MSTORE PUSH1 0x20 ADD SWAP1 DUP2 MSTORE PUSH1 0x20 ADD PUSH1 0x0 KECCAK256 PUSH1 0x0 SWAP1 SLOAD SWAP1 PUSH2 0x100 EXP SWAP1 DIV PUSH1 0xFF AND ISZERO ISZERO SUB PUSH2 0x5E5 JUMPI DUP1 DUP4 DUP4 DUP2 MLOAD DUP2 LT PUSH2 0x5CA JUMPI PUSH2 0x5C9 PUSH2 0x1C52 JUMP JUMPDEST JUMPDEST PUSH1 0x20 MUL PUSH1 0x20 ADD ADD DUP2 DUP2 MSTORE POP POP DUP2 DUP1 PUSH2 0x5E1 SWAP1 PUSH2 0x1CB0 JUMP JUMPDEST SWAP3 POP POP JUMPDEST DUP1 DUP1 PUSH2 0x5F0 SWAP1 PUSH2 0x1CB0 JUMP JUMPDEST SWAP2 POP POP PUSH2 0x57D JUMP JUMPDEST POP PUSH1 0x0 DUP3 MLOAD TIMESTAMP CALLER PUSH1 0x40 MLOAD PUSH1 0x20 ADD PUSH2 0x610 SWAP3 SWAP2 SWAP1 PUSH2 0x1D61 JUMP JUMPDEST PUSH1 0x40 MLOAD PUSH1 0x20 DUP2 DUP4 SUB SUB DUP2 MSTORE SWAP1 PUSH1 0x40 MSTORE DUP1 MLOAD SWAP1 PUSH1 0x20 ADD KECCAK256 PUSH1 0x0 SHR PUSH2 0x633 SWAP2 SWAP1 PUSH2 0x1C21 JUMP JUMPDEST SWAP1 POP PUSH1 0x0 DUP4 DUP3 DUP2 MLOAD DUP2 LT PUSH2 0x64A JUMPI PUSH2 0x649 PUSH2 0x1C52 JUMP JUMPDEST JUMPDEST PUSH1 0x20 MUL PUSH1 0x20 ADD ADD MLOAD SWAP1 POP PUSH1 0x0 PUSH1 0x1 DUP3 DUP2 SLOAD DUP2 LT PUSH2 0x66A JUMPI PUSH2 0x669 PUSH2 0x1C52 JUMP JUMPDEST JUMPDEST SWAP1 PUSH1 0x0 MSTORE PUSH1 0x20 PUSH1 0x0 KECCAK256 SWAP1 PUSH1 0x9 MUL ADD PUSH1 0x40 MLOAD DUP1 PUSH2 0x120 ADD PUSH1 0x40 MSTORE SWAP1 DUP2 PUSH1 0x0 DUP3 ADD DUP1 SLOAD PUSH2 0x694 SWAP1 PUSH2 0x1DBC JUMP JUMPDEST DUP1 PUSH1 0x1F ADD PUSH1 0x20 DUP1 SWAP2 DIV MUL PUSH1 0x20 ADD PUSH1 0x40 MLOAD SWAP1 DUP2 ADD PUSH1 0x40 MSTORE DUP1 SWAP3 SWAP2 SWAP1 DUP2 DUP2 MSTORE PUSH1 0x20 ADD DUP3 DUP1 SLOAD PUSH2 0x6C0 SWAP1 PUSH2 0x1DBC JUMP JUMPDEST DUP1 ISZERO PUSH2 0x70D JUMPI DUP1 PUSH1 0x1F LT PUSH2 0x6E2 JUMPI PUSH2 0x100 DUP1 DUP4 SLOAD DIV MUL DUP4 MSTORE SWAP2 PUSH1 0x20 ADD SWAP2 PUSH2 0x70D JUMP JUMPDEST DUP3 ADD SWAP2 SWAP1 PUSH1 0x0 MSTORE PUSH1 0x20 PUSH1 0x0 KECCAK256 SWAP1 JUMPDEST DUP2 SLOAD DUP2 MSTORE SWAP1 PUSH1 0x1 ADD SWAP1 PUSH1 0x20 ADD DUP1 DUP4 GT PUSH2 0x6F0 JUMPI DUP3 SWAP1 SUB PUSH1 0x1F AND DUP3 ADD SWAP2 JUMPDEST POP POP POP POP POP DUP2 MSTORE PUSH1 0x20 ADD PUSH1 0x1 DUP3 ADD DUP1 SLOAD PUSH2 0x726 SWAP1 PUSH2 0x1DBC JUMP JUMPDEST DUP1 PUSH1 0x1F ADD PUSH1 0x20 DUP1 SWAP2 DIV MUL PUSH1 0x20 ADD PUSH1 0x40 MLOAD SWAP1 DUP2 ADD PUSH1 0x40 MSTORE DUP1 SWAP3 SWAP2 SWAP1 DUP2 DUP2 MSTORE PUSH1 0x20 ADD DUP3 DUP1 SLOAD PUSH2 0x752 SWAP1 PUSH2 0x1DBC JUMP JUMPDEST DUP1 ISZERO PUSH2 0x79F JUMPI DUP1 PUSH1 0x1F LT PUSH2 0x774 JUMPI PUSH2 0x100 DUP1 DUP4 SLOAD DIV MUL DUP4 MSTORE SWAP2 PUSH1 0x20 ADD SWAP2 PUSH2 0x79F JUMP JUMPDEST DUP3 ADD SWAP2 SWAP1 PUSH1 0x0 MSTORE PUSH1 0x20 PUSH1 0x0 KECCAK256 SWAP1 JUMPDEST DUP2 SLOAD DUP2 MSTORE SWAP1 PUSH1 0x1 ADD SWAP1 PUSH1 0x20 ADD DUP1 DUP4 GT PUSH2 0x782 JUMPI DUP3 SWAP1 SUB PUSH1 0x1F AND DUP3 ADD SWAP2 JUMPDEST POP POP POP POP POP DUP2 MSTORE PUSH1 0x20 ADD PUSH1 0x2 DUP3 ADD DUP1 SLOAD PUSH2 0x7B8 SWAP1 PUSH2 0x1DBC JUMP JUMPDEST DUP1 PUSH1 0x1F ADD PUSH1 0x20 DUP1 SWAP2 DIV MUL PUSH1 0x20 ADD PUSH1 0x40 MLOAD SWAP1 DUP2 ADD PUSH1 0x40 MSTORE DUP1 SWAP3 SWAP2 SWAP1 DUP2 DUP2 MSTORE PUSH1 0x20 ADD DUP3 DUP1 SLOAD PUSH2 0x7E4 SWAP1 PUSH2 0x1DBC JUMP JUMPDEST DUP1 ISZERO PUSH2 0x831 JUMPI DUP1 PUSH1 0x1F LT PUSH2 0x806 JUMPI PUSH2 0x100 DUP1 DUP4 SLOAD DIV MUL DUP4 MSTORE SWAP2 PUSH1 0x20 ADD SWAP2 PUSH2 0x831 JUMP JUMPDEST DUP3 ADD SWAP2 SWAP1 PUSH1 0x0 MSTORE PUSH1 0x20 PUSH1 0x0 KECCAK256 SWAP1 JUMPDEST DUP2 SLOAD DUP2 MSTORE SWAP1 PUSH1 0x1 ADD SWAP1 PUSH1 0x20 ADD DUP1 DUP4 GT PUSH2 0x814 JUMPI DUP3 SWAP1 SUB PUSH1 0x1F AND DUP3 ADD SWAP2 JUMPDEST POP POP POP POP POP DUP2 MSTORE PUSH1 0x20 ADD PUSH1 0x3 DUP3 ADD DUP1 SLOAD PUSH2 0x84A SWAP1 PUSH2 0x1DBC JUMP JUMPDEST DUP1 PUSH1 0x1F ADD PUSH1 0x20 DUP1 SWAP2 DIV MUL PUSH1 0x20 ADD PUSH1 0x40 MLOAD SWAP1 DUP2 ADD PUSH1 0x40 MSTORE DUP1 SWAP3 SWAP2 SWAP1 DUP2 DUP2 MSTORE PUSH1 0x20 ADD DUP3 DUP1 SLOAD PUSH2 0x876 SWAP1 PUSH2 0x1DBC JUMP JUMPDEST DUP1 ISZERO PUSH2 0x8C3 JUMPI DUP1 PUSH1 0x1F LT PUSH2 0x898 JUMPI PUSH2 0x100 DUP1 DUP4 SLOAD DIV MUL DUP4 MSTORE SWAP2 PUSH1 0x20 ADD SWAP2 PUSH2 0x8C3 JUMP JUMPDEST DUP3 ADD SWAP2 SWAP1 PUSH1 0x0 MSTORE PUSH1 0x20 PUSH1 0x0 KECCAK256 SWAP1 JUMPDEST DUP2 SLOAD DUP2 MSTORE SWAP1 PUSH1 0x1 ADD SWAP1 PUSH1 0x20 ADD DUP1 DUP4 GT PUSH2 0x8A6 JUMPI DUP3 SWAP1 SUB PUSH1 0x1F AND DUP3 ADD SWAP2 JUMPDEST POP POP POP POP POP DUP2 MSTORE PUSH1 0x20 ADD PUSH1 0x4 DUP3 ADD DUP1 SLOAD PUSH2 0x8DC SWAP1 PUSH2 0x1DBC JUMP JUMPDEST DUP1 PUSH1 0x1F ADD PUSH1 0x20 DUP1 SWAP2 DIV MUL PUSH1 0x20 ADD PUSH1 0x40 MLOAD SWAP1 DUP2 ADD PUSH1 0x40 MSTORE DUP1 SWAP3 SWAP2 SWAP1 DUP2 DUP2 MSTORE PUSH1 0x20 ADD DUP3 DUP1 SLOAD PUSH2 0x908 SWAP1 PUSH2 0x1DBC JUMP JUMPDEST DUP1 ISZERO PUSH2 0x955 JUMPI DUP1 PUSH1 0x1F LT PUSH2 0x92A JUMPI PUSH2 0x100 DUP1 DUP4 SLOAD DIV MUL DUP4 MSTORE SWAP2 PUSH1 0x20 ADD SWAP2 PUSH2 0x955 JUMP JUMPDEST DUP3 ADD SWAP2 SWAP1 PUSH1 0x0 MSTORE PUSH1 0x20 PUSH1 0x0 KECCAK256 SWAP1 JUMPDEST DUP2 SLOAD DUP2 MSTORE SWAP1 PUSH1 0x1 ADD SWAP1 PUSH1 0x20 ADD DUP1 DUP4 GT PUSH2 0x938 JUMPI DUP3 SWAP1 SUB PUSH1 0x1F AND DUP3 ADD SWAP2 JUMPDEST POP POP POP POP POP DUP2 MSTORE PUSH1 0x20 ADD PUSH1 0x5 DUP3 ADD DUP1 SLOAD PUSH2 0x96E SWAP1 PUSH2 0x1DBC JUMP JUMPDEST DUP1 PUSH1 0x1F ADD PUSH1 0x20 DUP1 SWAP2 DIV MUL PUSH1 0x20 ADD PUSH1 0x40 MLOAD SWAP1 DUP2 ADD PUSH1 0x40 MSTORE DUP1 SWAP3 SWAP2 SWAP1 DUP2 DUP2 MSTORE PUSH1 0x20 ADD DUP3 DUP1 SLOAD PUSH2 0x99A SWAP1 PUSH2 0x1DBC JUMP JUMPDEST DUP1 ISZERO PUSH2 0x9E7 JUMPI DUP1 PUSH1 0x1F LT PUSH2 0x9BC JUMPI PUSH2 0x100 DUP1 DUP4 SLOAD DIV MUL DUP4 MSTORE SWAP2 PUSH1 0x20 ADD SWAP2 PUSH2 0x9E7 JUMP JUMPDEST DUP3 ADD SWAP2 SWAP1 PUSH1 0x0 MSTORE PUSH1 0x20 PUSH1 0x0 KECCAK256 SWAP1 JUMPDEST DUP2 SLOAD DUP2 MSTORE SWAP1 PUSH1 0x1 ADD SWAP1 PUSH1 0x20 ADD DUP1 DUP4 GT PUSH2 0x9CA JUMPI DUP3 SWAP1 SUB PUSH1 0x1F AND DUP3 ADD SWAP2 JUMPDEST POP POP POP POP POP DUP2 MSTORE PUSH1 0x20 ADD PUSH1 0x6 DUP3 ADD PUSH1 0x0 SWAP1 SLOAD SWAP1 PUSH2 0x100 EXP SWAP1 DIV PUSH1 0xFF AND PUSH1 0xFF AND PUSH1 0xFF AND DUP2 MSTORE PUSH1 0x20 ADD PUSH1 0x7 DUP3 ADD SLOAD DUP2 MSTORE PUSH1 0x20 ADD PUSH1 0x8 DUP3 ADD SLOAD DUP2 MSTORE POP POP SWAP1 POP DUP1 SWAP6 POP POP POP POP POP POP SWAP1 JUMP JUMPDEST PUSH2 0xA36 PUSH2 0x1364 JUMP JUMPDEST PUSH1 0x0 DUP3 CALLER PUSH20 0xFFFFFFFFFFFFFFFFFFFFFFFFFFFFFFFFFFFFFFFF AND PUSH1 0x4 PUSH1 0x0 DUP4 DUP2 MSTORE PUSH1 0x20 ADD SWAP1 DUP2 MSTORE PUSH1 0x20 ADD PUSH1 0x0 KECCAK256 PUSH1 0x0 SWAP1 SLOAD SWAP1 PUSH2 0x100 EXP SWAP1 DIV PUSH20 0xFFFFFFFFFFFFFFFFFFFFFFFFFFFFFFFFFFFFFFFF AND PUSH20 0xFFFFFFFFFFFFFFFFFFFFFFFFFFFFFFFFFFFFFFFF AND EQ PUSH2 0xAA4 JUMPI PUSH1 0x0 DUP1 REVERT JUMPDEST PUSH1 0x1 DUP5 DUP2 SLOAD DUP2 LT PUSH2 0xAB8 JUMPI PUSH2 0xAB7 PUSH2 0x1C52 JUMP JUMPDEST JUMPDEST SWAP1 PUSH1 0x0 MSTORE PUSH1 0x20 PUSH1 0x0 KECCAK256 SWAP1 PUSH1 0x9 MUL ADD PUSH1 0x3 PUSH1 0x0 DUP7 DUP2 MSTORE PUSH1 0x20 ADD SWAP1 DUP2 MSTORE PUSH1 0x20 ADD PUSH1 0x0 KECCAK256 PUSH1 0x0 SWAP1 SLOAD SWAP1 PUSH2 0x100 EXP SWAP1 DIV PUSH1 0xFF AND DUP2 PUSH1 0x40 MLOAD DUP1 PUSH2 0x120 ADD PUSH1 0x40 MSTORE SWAP1 DUP2 PUSH1 0x0 DUP3 ADD DUP1 SLOAD PUSH2 0xB04 SWAP1 PUSH2 0x1DBC JUMP JUMPDEST DUP1 PUSH1 0x1F ADD PUSH1 0x20 DUP1 SWAP2 DIV MUL PUSH1 0x20 ADD PUSH1 0x40 MLOAD SWAP1 DUP2 ADD PUSH1 0x40 MSTORE DUP1 SWAP3 SWAP2 SWAP1 DUP2 DUP2 MSTORE PUSH1 0x20 ADD DUP3 DUP1 SLOAD PUSH2 0xB30 SWAP1 PUSH2 0x1DBC JUMP JUMPDEST DUP1 ISZERO PUSH2 0xB7D JUMPI DUP1 PUSH1 0x1F LT PUSH2 0xB52 JUMPI PUSH2 0x100 DUP1 DUP4 SLOAD DIV MUL DUP4 MSTORE SWAP2 PUSH1 0x20 ADD SWAP2 PUSH2 0xB7D JUMP JUMPDEST DUP3 ADD SWAP2 SWAP1 PUSH1 0x0 MSTORE PUSH1 0x20 PUSH1 0x0 KECCAK256 SWAP1 JUMPDEST DUP2 SLOAD DUP2 MSTORE SWAP1 PUSH1 0x1 ADD SWAP1 PUSH1 0x20 ADD DUP1 DUP4 GT PUSH2 0xB60 JUMPI DUP3 SWAP1 SUB PUSH1 0x1F AND DUP3 ADD SWAP2 JUMPDEST POP POP POP POP POP DUP2 MSTORE PUSH1 0x20 ADD PUSH1 0x1 DUP3 ADD DUP1 SLOAD PUSH2 0xB96 SWAP1 PUSH2 0x1DBC JUMP JUMPDEST DUP1 PUSH1 0x1F ADD PUSH1 0x20 DUP1 SWAP2 DIV MUL PUSH1 0x20 ADD PUSH1 0x40 MLOAD SWAP1 DUP2 ADD PUSH1 0x40 MSTORE DUP1 SWAP3 SWAP2 SWAP1 DUP2 DUP2 MSTORE PUSH1 0x20 ADD DUP3 DUP1 SLOAD PUSH2 0xBC2 SWAP1 PUSH2 0x1DBC JUMP JUMPDEST DUP1 ISZERO PUSH2 0xC0F JUMPI DUP1 PUSH1 0x1F LT PUSH2 0xBE4 JUMPI PUSH2 0x100 DUP1 DUP4 SLOAD DIV MUL DUP4 MSTORE SWAP2 PUSH1 0x20 ADD SWAP2 PUSH2 0xC0F JUMP JUMPDEST DUP3 ADD SWAP2 SWAP1 PUSH1 0x0 MSTORE PUSH1 0x20 PUSH1 0x0 KECCAK256 SWAP1 JUMPDEST DUP2 SLOAD DUP2 MSTORE SWAP1 PUSH1 0x1 ADD SWAP1 PUSH1 0x20 ADD DUP1 DUP4 GT PUSH2 0xBF2 JUMPI DUP3 SWAP1 SUB PUSH1 0x1F AND DUP3 ADD SWAP2 JUMPDEST POP POP POP POP POP DUP2 MSTORE PUSH1 0x20 ADD PUSH1 0x2 DUP3 ADD DUP1 SLOAD PUSH2 0xC28 SWAP1 PUSH2 0x1DBC JUMP JUMPDEST DUP1 PUSH1 0x1F ADD PUSH1 0x20 DUP1 SWAP2 DIV MUL PUSH1 0x20 ADD PUSH1 0x40 MLOAD SWAP1 DUP2 ADD PUSH1 0x40 MSTORE DUP1 SWAP3 SWAP2 SWAP1 DUP2 DUP2 MSTORE PUSH1 0x20 ADD DUP3 DUP1 SLOAD PUSH2 0xC54 SWAP1 PUSH2 0x1DBC JUMP JUMPDEST DUP1 ISZERO PUSH2 0xCA1 JUMPI DUP1 PUSH1 0x1F LT PUSH2 0xC76 JUMPI PUSH2 0x100 DUP1 DUP4 SLOAD DIV MUL DUP4 MSTORE SWAP2 PUSH1 0x20 ADD SWAP2 PUSH2 0xCA1 JUMP JUMPDEST DUP3 ADD SWAP2 SWAP1 PUSH1 0x0 MSTORE PUSH1 0x20 PUSH1 0x0 KECCAK256 SWAP1 JUMPDEST DUP2 SLOAD DUP2 MSTORE SWAP1 PUSH1 0x1 ADD SWAP1 PUSH1 0x20 ADD DUP1 DUP4 GT PUSH2 0xC84 JUMPI DUP3 SWAP1 SUB PUSH1 0x1F AND DUP3 ADD SWAP2 JUMPDEST POP POP POP POP POP DUP2 MSTORE PUSH1 0x20 ADD PUSH1 0x3 DUP3 ADD DUP1 SLOAD PUSH2 0xCBA SWAP1 PUSH2 0x1DBC JUMP JUMPDEST DUP1 PUSH1 0x1F ADD PUSH1 0x20 DUP1 SWAP2 DIV MUL PUSH1 0x20 ADD PUSH1 0x40 MLOAD SWAP1 DUP2 ADD PUSH1 0x40 MSTORE DUP1 SWAP3 SWAP2 SWAP1 DUP2 DUP2 MSTORE PUSH1 0x20 ADD DUP3 DUP1 SLOAD PUSH2 0xCE6 SWAP1 PUSH2 0x1DBC JUMP JUMPDEST DUP1 ISZERO PUSH2 0xD33 JUMPI DUP1 PUSH1 0x1F LT PUSH2 0xD08 JUMPI PUSH2 0x100 DUP1 DUP4 SLOAD DIV MUL DUP4 MSTORE SWAP2 PUSH1 0x20 ADD SWAP2 PUSH2 0xD33 JUMP JUMPDEST DUP3 ADD SWAP2 SWAP1 PUSH1 0x0 MSTORE PUSH1 0x20 PUSH1 0x0 KECCAK256 SWAP1 JUMPDEST DUP2 SLOAD DUP2 MSTORE SWAP1 PUSH1 0x1 ADD SWAP1 PUSH1 0x20 ADD DUP1 DUP4 GT PUSH2 0xD16 JUMPI DUP3 SWAP1 SUB PUSH1 0x1F AND DUP3 ADD SWAP2 JUMPDEST POP POP POP POP POP DUP2 MSTORE PUSH1 0x20 ADD PUSH1 0x4 DUP3 ADD DUP1 SLOAD PUSH2 0xD4C SWAP1 PUSH2 0x1DBC JUMP JUMPDEST DUP1 PUSH1 0x1F ADD PUSH1 0x20 DUP1 SWAP2 DIV MUL PUSH1 0x20 ADD PUSH1 0x40 MLOAD SWAP1 DUP2 ADD PUSH1 0x40 MSTORE DUP1 SWAP3 SWAP2 SWAP1 DUP2 DUP2 MSTORE PUSH1 0x20 ADD DUP3 DUP1 SLOAD PUSH2 0xD78 SWAP1 PUSH2 0x1DBC JUMP JUMPDEST DUP1 ISZERO PUSH2 0xDC5 JUMPI DUP1 PUSH1 0x1F LT PUSH2 0xD9A JUMPI PUSH2 0x100 DUP1 DUP4 SLOAD DIV MUL DUP4 MSTORE SWAP2 PUSH1 0x20 ADD SWAP2 PUSH2 0xDC5 JUMP JUMPDEST DUP3 ADD SWAP2 SWAP1 PUSH1 0x0 MSTORE PUSH1 0x20 PUSH1 0x0 KECCAK256 SWAP1 JUMPDEST DUP2 SLOAD DUP2 MSTORE SWAP1 PUSH1 0x1 ADD SWAP1 PUSH1 0x20 ADD DUP1 DUP4 GT PUSH2 0xDA8 JUMPI DUP3 SWAP1 SUB PUSH1 0x1F AND DUP3 ADD SWAP2 JUMPDEST POP POP POP POP POP DUP2 MSTORE PUSH1 0x20 ADD PUSH1 0x5 DUP3 ADD DUP1 SLOAD PUSH2 0xDDE SWAP1 PUSH2 0x1DBC JUMP JUMPDEST DUP1 PUSH1 0x1F ADD PUSH1 0x20 DUP1 SWAP2 DIV MUL PUSH1 0x20 ADD PUSH1 0x40 MLOAD SWAP1 DUP2 ADD PUSH1 0x40 MSTORE DUP1 SWAP3 SWAP2 SWAP1 DUP2 DUP2 MSTORE PUSH1 0x20 ADD DUP3 DUP1 SLOAD PUSH2 0xE0A SWAP1 PUSH2 0x1DBC JUMP JUMPDEST DUP1 ISZERO PUSH2 0xE57 JUMPI DUP1 PUSH1 0x1F LT PUSH2 0xE2C JUMPI PUSH2 0x100 DUP1 DUP4 SLOAD DIV MUL DUP4 MSTORE SWAP2 PUSH1 0x20 ADD SWAP2 PUSH2 0xE57 JUMP JUMPDEST DUP3 ADD SWAP2 SWAP1 PUSH1 0x0 MSTORE PUSH1 0x20 PUSH1 0x0 KECCAK256 SWAP1 JUMPDEST DUP2 SLOAD DUP2 MSTORE SWAP1 PUSH1 0x1 ADD SWAP1 PUSH1 0x20 ADD DUP1 DUP4 GT PUSH2 0xE3A JUMPI DUP3 SWAP1 SUB PUSH1 0x1F AND DUP3 ADD SWAP2 JUMPDEST POP POP POP POP POP DUP2 MSTORE PUSH1 0x20 ADD PUSH1 0x6 DUP3 ADD PUSH1 0x0 SWAP1 SLOAD SWAP1 PUSH2 0x100 EXP SWAP1 DIV PUSH1 0xFF AND PUSH1 0xFF AND PUSH1 0xFF AND DUP2 MSTORE PUSH1 0x20 ADD PUSH1 0x7 DUP3 ADD SLOAD DUP2 MSTORE PUSH1 0x20 ADD PUSH1 0x8 DUP3 ADD SLOAD DUP2 MSTORE POP POP SWAP2 POP SWAP3 POP SWAP3 POP POP SWAP2 POP SWAP2 JUMP JUMPDEST PUSH2 0xEA5 PUSH2 0x103F JUMP JUMPDEST PUSH20 0xFFFFFFFFFFFFFFFFFFFFFFFFFFFFFFFFFFFFFFFF AND PUSH2 0xEC3 PUSH2 0x4A8 JUMP JUMPDEST PUSH20 0xFFFFFFFFFFFFFFFFFFFFFFFFFFFFFFFFFFFFFFFF AND EQ PUSH2 0xF19 JUMPI PUSH1 0x40 MLOAD PUSH32 0x8C379A000000000000000000000000000000000000000000000000000000000 DUP2 MSTORE PUSH1 0x4 ADD PUSH2 0xF10 SWAP1 PUSH2 0x1BD2 JUMP JUMPDEST PUSH1 0x40 MLOAD DUP1 SWAP2 SUB SWAP1 REVERT JUMPDEST PUSH1 0x0 PUSH20 0xFFFFFFFFFFFFFFFFFFFFFFFFFFFFFFFFFFFFFFFF AND DUP2 PUSH20 0xFFFFFFFFFFFFFFFFFFFFFFFFFFFFFFFFFFFFFFFF AND SUB PUSH2 0xF88 JUMPI PUSH1 0x40 MLOAD PUSH32 0x8C379A000000000000000000000000000000000000000000000000000000000 DUP2 MSTORE PUSH1 0x4 ADD PUSH2 0xF7F SWAP1 PUSH2 0x1E5F JUMP JUMPDEST PUSH1 0x40 MLOAD DUP1 SWAP2 SUB SWAP1 REVERT JUMPDEST PUSH2 0xF91 DUP2 PUSH2 0x1047 JUMP JUMPDEST POP JUMP JUMPDEST DUP2 CALLER PUSH20 0xFFFFFFFFFFFFFFFFFFFFFFFFFFFFFFFFFFFFFFFF AND PUSH1 0x4 PUSH1 0x0 DUP4 DUP2 MSTORE PUSH1 0x20 ADD SWAP1 DUP2 MSTORE PUSH1 0x20 ADD PUSH1 0x0 KECCAK256 PUSH1 0x0 SWAP1 SLOAD SWAP1 PUSH2 0x100 EXP SWAP1 DIV PUSH20 0xFFFFFFFFFFFFFFFFFFFFFFFFFFFFFFFFFFFFFFFF AND PUSH20 0xFFFFFFFFFFFFFFFFFFFFFFFFFFFFFFFFFFFFFFFF AND EQ PUSH2 0x1000 JUMPI PUSH1 0x0 DUP1 REVERT JUMPDEST DUP2 PUSH1 0x1 DUP5 DUP2 SLOAD DUP2 LT PUSH2 0x1015 JUMPI PUSH2 0x1014 PUSH2 0x1C52 JUMP JUMPDEST JUMPDEST SWAP1 PUSH1 0x0 MSTORE PUSH1 0x20 PUSH1 0x0 KECCAK256 SWAP1 PUSH1 0x9 MUL ADD PUSH1 0x5 ADD SWAP1 DUP1 MLOAD SWAP1 PUSH1 0x20 ADD SWAP1 PUSH2 0x1039 SWAP3 SWAP2 SWAP1 PUSH2 0x13B3 JUMP JUMPDEST POP POP POP POP JUMP JUMPDEST PUSH1 0x0 CALLER SWAP1 POP SWAP1 JUMP JUMPDEST PUSH1 0x0 DUP1 PUSH1 0x0 SWAP1 SLOAD SWAP1 PUSH2 0x100 EXP SWAP1 DIV PUSH20 0xFFFFFFFFFFFFFFFFFFFFFFFFFFFFFFFFFFFFFFFF AND SWAP1 POP DUP2 PUSH1 0x0 DUP1 PUSH2 0x100 EXP DUP2 SLOAD DUP2 PUSH20 0xFFFFFFFFFFFFFFFFFFFFFFFFFFFFFFFFFFFFFFFF MUL NOT AND SWAP1 DUP4 PUSH20 0xFFFFFFFFFFFFFFFFFFFFFFFFFFFFFFFFFFFFFFFF AND MUL OR SWAP1 SSTORE POP DUP2 PUSH20 0xFFFFFFFFFFFFFFFFFFFFFFFFFFFFFFFFFFFFFFFF AND DUP2 PUSH20 0xFFFFFFFFFFFFFFFFFFFFFFFFFFFFFFFFFFFFFFFF AND PUSH32 0x8BE0079C531659141344CD1FD0A4F28419497F9722A3DAAFE3B4186F6B6457E0 PUSH1 0x40 MLOAD PUSH1 0x40 MLOAD DUP1 SWAP2 SUB SWAP1 LOG3 POP POP JUMP JUMPDEST PUSH1 0x1 PUSH1 0x40 MLOAD DUP1 PUSH2 0x120 ADD PUSH1 0x40 MSTORE DUP1 DUP13 DUP2 MSTORE PUSH1 0x20 ADD DUP12 DUP2 MSTORE PUSH1 0x20 ADD DUP11 DUP2 MSTORE PUSH1 0x20 ADD DUP10 DUP2 MSTORE PUSH1 0x20 ADD DUP9 DUP2 MSTORE PUSH1 0x20 ADD DUP8 DUP2 MSTORE PUSH1 0x20 ADD DUP6 PUSH1 0xFF AND DUP2 MSTORE PUSH1 0x20 ADD DUP5 DUP2 MSTORE PUSH1 0x20 ADD DUP4 DUP2 MSTORE POP SWAP1 DUP1 PUSH1 0x1 DUP2 SLOAD ADD DUP1 DUP3 SSTORE DUP1 SWAP2 POP POP PUSH1 0x1 SWAP1 SUB SWAP1 PUSH1 0x0 MSTORE PUSH1 0x20 PUSH1 0x0 KECCAK256 SWAP1 PUSH1 0x9 MUL ADD PUSH1 0x0 SWAP1 SWAP2 SWAP1 SWAP2 SWAP1 SWAP2 POP PUSH1 0x0 DUP3 ADD MLOAD DUP2 PUSH1 0x0 ADD SWAP1 DUP1 MLOAD SWAP1 PUSH1 0x20 ADD SWAP1 PUSH2 0x1195 SWAP3 SWAP2 SWAP1 PUSH2 0x13B3 JUMP JUMPDEST POP PUSH1 0x20 DUP3 ADD MLOAD DUP2 PUSH1 0x1 ADD SWAP1 DUP1 MLOAD SWAP1 PUSH1 0x20 ADD SWAP1 PUSH2 0x11B2 SWAP3 SWAP2 SWAP1 PUSH2 0x13B3 JUMP JUMPDEST POP PUSH1 0x40 DUP3 ADD MLOAD DUP2 PUSH1 0x2 ADD SWAP1 DUP1 MLOAD SWAP1 PUSH1 0x20 ADD SWAP1 PUSH2 0x11CF SWAP3 SWAP2 SWAP1 PUSH2 0x13B3 JUMP JUMPDEST POP PUSH1 0x60 DUP3 ADD MLOAD DUP2 PUSH1 0x3 ADD SWAP1 DUP1 MLOAD SWAP1 PUSH1 0x20 ADD SWAP1 PUSH2 0x11EC SWAP3 SWAP2 SWAP1 PUSH2 0x13B3 JUMP JUMPDEST POP PUSH1 0x80 DUP3 ADD MLOAD DUP2 PUSH1 0x4 ADD SWAP1 DUP1 MLOAD SWAP1 PUSH1 0x20 ADD SWAP1 PUSH2 0x1209 SWAP3 SWAP2 SWAP1 PUSH2 0x13B3 JUMP JUMPDEST POP PUSH1 0xA0 DUP3 ADD MLOAD DUP2 PUSH1 0x5 ADD SWAP1 DUP1 MLOAD SWAP1 PUSH1 0x20 ADD SWAP1 PUSH2 0x1226 SWAP3 SWAP2 SWAP1 PUSH2 0x13B3 JUMP JUMPDEST POP PUSH1 0xC0 DUP3 ADD MLOAD DUP2 PUSH1 0x6 ADD PUSH1 0x0 PUSH2 0x100 EXP DUP2 SLOAD DUP2 PUSH1 0xFF MUL NOT AND SWAP1 DUP4 PUSH1 0xFF AND MUL OR SWAP1 SSTORE POP PUSH1 0xE0 DUP3 ADD MLOAD DUP2 PUSH1 0x7 ADD SSTORE PUSH2 0x100 DUP3 ADD MLOAD DUP2 PUSH1 0x8 ADD SSTORE POP POP PUSH1 0x0 PUSH1 0x1 DUP1 DUP1 SLOAD SWAP1 POP PUSH2 0x1272 SWAP2 SWAP1 PUSH2 0x1E7F JUMP JUMPDEST SWAP1 POP DUP5 PUSH1 0x3 PUSH1 0x0 DUP4 DUP2 MSTORE PUSH1 0x20 ADD SWAP1 DUP2 MSTORE PUSH1 0x20 ADD PUSH1 0x0 KECCAK256 PUSH1 0x0 PUSH2 0x100 EXP DUP2 SLOAD DUP2 PUSH1 0xFF MUL NOT AND SWAP1 DUP4 PUSH1 0xFF AND MUL OR SWAP1 SSTORE POP CALLER PUSH1 0x4 PUSH1 0x0 DUP4 DUP2 MSTORE PUSH1 0x20 ADD SWAP1 DUP2 MSTORE PUSH1 0x20 ADD PUSH1 0x0 KECCAK256 PUSH1 0x0 PUSH2 0x100 EXP DUP2 SLOAD DUP2 PUSH20 0xFFFFFFFFFFFFFFFFFFFFFFFFFFFFFFFFFFFFFFFF MUL NOT AND SWAP1 DUP4 PUSH20 0xFFFFFFFFFFFFFFFFFFFFFFFFFFFFFFFFFFFFFFFF AND MUL OR SWAP1 SSTORE POP PUSH1 0x1 PUSH1 0x2 PUSH1 0x0 DUP4 DUP2 MSTORE PUSH1 0x20 ADD SWAP1 DUP2 MSTORE PUSH1 0x20 ADD PUSH1 0x0 KECCAK256 PUSH1 0x0 PUSH2 0x100 EXP DUP2 SLOAD DUP2 PUSH1 0xFF MUL NOT AND SWAP1 DUP4 ISZERO ISZERO MUL OR SWAP1 SSTORE POP PUSH32 0x545DCA5D847B655A9F03CDF5619F53F0B2546051FD0D015B18C09AE2A8B1A765 DUP12 DUP7 PUSH1 0x40 MLOAD PUSH2 0x134F SWAP3 SWAP2 SWAP1 PUSH2 0x1EEC JUMP JUMPDEST PUSH1 0x40 MLOAD DUP1 SWAP2 SUB SWAP1 LOG1 POP POP POP POP POP POP POP POP POP POP POP JUMP JUMPDEST PUSH1 0x40 MLOAD DUP1 PUSH2 0x120 ADD PUSH1 0x40 MSTORE DUP1 PUSH1 0x60 DUP2 MSTORE PUSH1 0x20 ADD PUSH1 0x60 DUP2 MSTORE PUSH1 0x20 ADD PUSH1 0x60 DUP2 MSTORE PUSH1 0x20 ADD PUSH1 0x60 DUP2 MSTORE PUSH1 0x20 ADD PUSH1 0x60 DUP2 MSTORE PUSH1 0x20 ADD PUSH1 0x60 DUP2 MSTORE PUSH1 0x20 ADD PUSH1 0x0 PUSH1 0xFF AND DUP2 MSTORE PUSH1 0x20 ADD PUSH1 0x0 DUP2 MSTORE PUSH1 0x20 ADD PUSH1 0x0 DUP2 MSTORE POP SWAP1 JUMP JUMPDEST DUP3 DUP1 SLOAD PUSH2 0x13BF SWAP1 PUSH2 0x1DBC JUMP JUMPDEST SWAP1 PUSH1 0x0 MSTORE PUSH1 0x20 PUSH1 0x0 KECCAK256 SWAP1 PUSH1 0x1F ADD PUSH1 0x20 SWAP1 DIV DUP2 ADD SWAP3 DUP3 PUSH2 0x13E1 JUMPI PUSH1 0x0 DUP6 SSTORE PUSH2 0x1428 JUMP JUMPDEST DUP3 PUSH1 0x1F LT PUSH2 0x13FA JUMPI DUP1 MLOAD PUSH1 0xFF NOT AND DUP4 DUP1 ADD OR DUP6 SSTORE PUSH2 0x1428 JUMP JUMPDEST DUP3 DUP1 ADD PUSH1 0x1 ADD DUP6 SSTORE DUP3 ISZERO PUSH2 0x1428 JUMPI SWAP2 DUP3 ADD JUMPDEST DUP3 DUP2 GT ISZERO PUSH2 0x1427 JUMPI DUP3 MLOAD DUP3 SSTORE SWAP2 PUSH1 0x20 ADD SWAP2 SWAP1 PUSH1 0x1 ADD SWAP1 PUSH2 0x140C JUMP JUMPDEST JUMPDEST POP SWAP1 POP PUSH2 0x1435 SWAP2 SWAP1 PUSH2 0x1439 JUMP JUMPDEST POP SWAP1 JUMP JUMPDEST JUMPDEST DUP1 DUP3 GT ISZERO PUSH2 0x1452 JUMPI PUSH1 0x0 DUP2 PUSH1 0x0 SWAP1 SSTORE POP PUSH1 0x1 ADD PUSH2 0x143A JUMP JUMPDEST POP SWAP1 JUMP JUMPDEST PUSH1 0x0 PUSH1 0x40 MLOAD SWAP1 POP SWAP1 JUMP JUMPDEST PUSH1 0x0 DUP1 REVERT JUMPDEST PUSH1 0x0 DUP1 REVERT JUMPDEST PUSH1 0x0 DUP2 SWAP1 POP SWAP2 SWAP1 POP JUMP JUMPDEST PUSH2 0x147D DUP2 PUSH2 0x146A JUMP JUMPDEST DUP2 EQ PUSH2 0x1488 JUMPI PUSH1 0x0 DUP1 REVERT JUMPDEST POP JUMP JUMPDEST PUSH1 0x0 DUP2 CALLDATALOAD SWAP1 POP PUSH2 0x149A DUP2 PUSH2 0x1474 JUMP JUMPDEST SWAP3 SWAP2 POP POP JUMP JUMPDEST PUSH1 0x0 DUP2 ISZERO ISZERO SWAP1 POP SWAP2 SWAP1 POP JUMP JUMPDEST PUSH2 0x14B5 DUP2 PUSH2 0x14A0 JUMP JUMPDEST DUP2 EQ PUSH2 0x14C0 JUMPI PUSH1 0x0 DUP1 REVERT JUMPDEST POP JUMP JUMPDEST PUSH1 0x0 DUP2 CALLDATALOAD SWAP1 POP PUSH2 0x14D2 DUP2 PUSH2 0x14AC JUMP JUMPDEST SWAP3 SWAP2 POP POP JUMP JUMPDEST PUSH1 0x0 DUP1 PUSH1 0x40 DUP4 DUP6 SUB SLT ISZERO PUSH2 0x14EF JUMPI PUSH2 0x14EE PUSH2 0x1460 JUMP JUMPDEST JUMPDEST PUSH1 0x0 PUSH2 0x14FD DUP6 DUP3 DUP7 ADD PUSH2 0x148B JUMP JUMPDEST SWAP3 POP POP PUSH1 0x20 PUSH2 0x150E DUP6 DUP3 DUP7 ADD PUSH2 0x14C3 JUMP JUMPDEST SWAP2 POP POP SWAP3 POP SWAP3 SWAP1 POP JUMP JUMPDEST PUSH1 0x0 PUSH1 0x20 DUP3 DUP5 SUB SLT ISZERO PUSH2 0x152E JUMPI PUSH2 0x152D PUSH2 0x1460 JUMP JUMPDEST JUMPDEST PUSH1 0x0 PUSH2 0x153C DUP5 DUP3 DUP6 ADD PUSH2 0x148B JUMP JUMPDEST SWAP2 POP POP SWAP3 SWAP2 POP POP JUMP JUMPDEST PUSH1 0x0 PUSH20 0xFFFFFFFFFFFFFFFFFFFFFFFFFFFFFFFFFFFFFFFF DUP3 AND SWAP1 POP SWAP2 SWAP1 POP JUMP JUMPDEST PUSH1 0x0 PUSH2 0x1570 DUP3 PUSH2 0x1545 JUMP JUMPDEST SWAP1 POP SWAP2 SWAP1 POP JUMP JUMPDEST PUSH2 0x1580 DUP2 PUSH2 0x1565 JUMP JUMPDEST DUP3 MSTORE POP POP JUMP JUMPDEST PUSH1 0x0 PUSH1 0x20 DUP3 ADD SWAP1 POP PUSH2 0x159B PUSH1 0x0 DUP4 ADD DUP5 PUSH2 0x1577 JUMP JUMPDEST SWAP3 SWAP2 POP POP JUMP JUMPDEST PUSH2 0x15AA DUP2 PUSH2 0x14A0 JUMP JUMPDEST DUP3 MSTORE POP POP JUMP JUMPDEST PUSH1 0x0 PUSH1 0x20 DUP3 ADD SWAP1 POP PUSH2 0x15C5 PUSH1 0x0 DUP4 ADD DUP5 PUSH2 0x15A1 JUMP JUMPDEST SWAP3 SWAP2 POP POP JUMP JUMPDEST PUSH1 0x0 DUP1 REVERT JUMPDEST PUSH1 0x0 DUP1 REVERT JUMPDEST PUSH1 0x0 PUSH1 0x1F NOT PUSH1 0x1F DUP4 ADD AND SWAP1 POP SWAP2 SWAP1 POP JUMP JUMPDEST PUSH32 0x4E487B7100000000000000000000000000000000000000000000000000000000 PUSH1 0x0 MSTORE PUSH1 0x41 PUSH1 0x4 MSTORE PUSH1 0x24 PUSH1 0x0 REVERT JUMPDEST PUSH2 0x161E DUP3 PUSH2 0x15D5 JUMP JUMPDEST DUP2 ADD DUP2 DUP2 LT PUSH8 0xFFFFFFFFFFFFFFFF DUP3 GT OR ISZERO PUSH2 0x163D JUMPI PUSH2 0x163C PUSH2 0x15E6 JUMP JUMPDEST JUMPDEST DUP1 PUSH1 0x40 MSTORE POP POP POP JUMP JUMPDEST PUSH1 0x0 PUSH2 0x1650 PUSH2 0x1456 JUMP JUMPDEST SWAP1 POP PUSH2 0x165C DUP3 DUP3 PUSH2 0x1615 JUMP JUMPDEST SWAP2 SWAP1 POP JUMP JUMPDEST PUSH1 0x0 PUSH8 0xFFFFFFFFFFFFFFFF DUP3 GT ISZERO PUSH2 0x167C JUMPI PUSH2 0x167B PUSH2 0x15E6 JUMP JUMPDEST JUMPDEST PUSH2 0x1685 DUP3 PUSH2 0x15D5 JUMP JUMPDEST SWAP1 POP PUSH1 0x20 DUP2 ADD SWAP1 POP SWAP2 SWAP1 POP JUMP JUMPDEST DUP3 DUP2 DUP4 CALLDATACOPY PUSH1 0x0 DUP4 DUP4 ADD MSTORE POP POP POP JUMP JUMPDEST PUSH1 0x0 PUSH2 0x16B4 PUSH2 0x16AF DUP5 PUSH2 0x1661 JUMP JUMPDEST PUSH2 0x1646 JUMP JUMPDEST SWAP1 POP DUP3 DUP2 MSTORE PUSH1 0x20 DUP2 ADD DUP5 DUP5 DUP5 ADD GT ISZERO PUSH2 0x16D0 JUMPI PUSH2 0x16CF PUSH2 0x15D0 JUMP JUMPDEST JUMPDEST PUSH2 0x16DB DUP5 DUP3 DUP6 PUSH2 0x1692 JUMP JUMPDEST POP SWAP4 SWAP3 POP POP POP JUMP JUMPDEST PUSH1 0x0 DUP3 PUSH1 0x1F DUP4 ADD SLT PUSH2 0x16F8 JUMPI PUSH2 0x16F7 PUSH2 0x15CB JUMP JUMPDEST JUMPDEST DUP2 CALLDATALOAD PUSH2 0x1708 DUP5 DUP3 PUSH1 0x20 DUP7 ADD PUSH2 0x16A1 JUMP JUMPDEST SWAP2 POP POP SWAP3 SWAP2 POP POP JUMP JUMPDEST PUSH1 0x0 PUSH1 0xFF DUP3 AND SWAP1 POP SWAP2 SWAP1 POP JUMP JUMPDEST PUSH2 0x1727 DUP2 PUSH2 0x1711 JUMP JUMPDEST DUP2 EQ PUSH2 0x1732 JUMPI PUSH1 0x0 DUP1 REVERT JUMPDEST POP JUMP JUMPDEST PUSH1 0x0 DUP2 CALLDATALOAD SWAP1 POP PUSH2 0x1744 DUP2 PUSH2 0x171E JUMP JUMPDEST SWAP3 SWAP2 POP POP JUMP JUMPDEST PUSH1 0x0 DUP1 PUSH1 0x0 DUP1 PUSH1 0x0 DUP1 PUSH1 0x0 DUP1 PUSH1 0x0 DUP1 PUSH2 0x140 DUP12 DUP14 SUB SLT ISZERO PUSH2 0x176E JUMPI PUSH2 0x176D PUSH2 0x1460 JUMP JUMPDEST JUMPDEST PUSH1 0x0 DUP12 ADD CALLDATALOAD PUSH8 0xFFFFFFFFFFFFFFFF DUP2 GT ISZERO PUSH2 0x178C JUMPI PUSH2 0x178B PUSH2 0x1465 JUMP JUMPDEST JUMPDEST PUSH2 0x1798 DUP14 DUP3 DUP15 ADD PUSH2 0x16E3 JUMP JUMPDEST SWAP11 POP POP PUSH1 0x20 DUP12 ADD CALLDATALOAD PUSH8 0xFFFFFFFFFFFFFFFF DUP2 GT ISZERO PUSH2 0x17B9 JUMPI PUSH2 0x17B8 PUSH2 0x1465 JUMP JUMPDEST JUMPDEST PUSH2 0x17C5 DUP14 DUP3 DUP15 ADD PUSH2 0x16E3 JUMP JUMPDEST SWAP10 POP POP PUSH1 0x40 DUP12 ADD CALLDATALOAD PUSH8 0xFFFFFFFFFFFFFFFF DUP2 GT ISZERO PUSH2 0x17E6 JUMPI PUSH2 0x17E5 PUSH2 0x1465 JUMP JUMPDEST JUMPDEST PUSH2 0x17F2 DUP14 DUP3 DUP15 ADD PUSH2 0x16E3 JUMP JUMPDEST SWAP9 POP POP PUSH1 0x60 DUP12 ADD CALLDATALOAD PUSH8 0xFFFFFFFFFFFFFFFF DUP2 GT ISZERO PUSH2 0x1813 JUMPI PUSH2 0x1812 PUSH2 0x1465 JUMP JUMPDEST JUMPDEST PUSH2 0x181F DUP14 DUP3 DUP15 ADD PUSH2 0x16E3 JUMP JUMPDEST SWAP8 POP POP PUSH1 0x80 DUP12 ADD CALLDATALOAD PUSH8 0xFFFFFFFFFFFFFFFF DUP2 GT ISZERO PUSH2 0x1840 JUMPI PUSH2 0x183F PUSH2 0x1465 JUMP JUMPDEST JUMPDEST PUSH2 0x184C DUP14 DUP3 DUP15 ADD PUSH2 0x16E3 JUMP JUMPDEST SWAP7 POP POP PUSH1 0xA0 DUP12 ADD CALLDATALOAD PUSH8 0xFFFFFFFFFFFFFFFF DUP2 GT ISZERO PUSH2 0x186D JUMPI PUSH2 0x186C PUSH2 0x1465 JUMP JUMPDEST JUMPDEST PUSH2 0x1879 DUP14 DUP3 DUP15 ADD PUSH2 0x16E3 JUMP JUMPDEST SWAP6 POP POP PUSH1 0xC0 PUSH2 0x188A DUP14 DUP3 DUP15 ADD PUSH2 0x1735 JUMP JUMPDEST SWAP5 POP POP PUSH1 0xE0 PUSH2 0x189B DUP14 DUP3 DUP15 ADD PUSH2 0x1735 JUMP JUMPDEST SWAP4 POP POP PUSH2 0x100 PUSH2 0x18AD DUP14 DUP3 DUP15 ADD PUSH2 0x148B JUMP JUMPDEST SWAP3 POP POP PUSH2 0x120 PUSH2 0x18BF DUP14 DUP3 DUP15 ADD PUSH2 0x148B JUMP JUMPDEST SWAP2 POP POP SWAP3 SWAP6 SWAP9 SWAP12 SWAP2 SWAP5 SWAP8 SWAP11 POP SWAP3 SWAP6 SWAP9 POP JUMP JUMPDEST PUSH1 0x0 DUP2 MLOAD SWAP1 POP SWAP2 SWAP1 POP JUMP JUMPDEST PUSH1 0x0 DUP3 DUP3 MSTORE PUSH1 0x20 DUP3 ADD SWAP1 POP SWAP3 SWAP2 POP POP JUMP JUMPDEST PUSH1 0x0 JUMPDEST DUP4 DUP2 LT ISZERO PUSH2 0x190B JUMPI DUP1 DUP3 ADD MLOAD DUP2 DUP5 ADD MSTORE PUSH1 0x20 DUP2 ADD SWAP1 POP PUSH2 0x18F0 JUMP JUMPDEST DUP4 DUP2 GT ISZERO PUSH2 0x191A JUMPI PUSH1 0x0 DUP5 DUP5 ADD MSTORE JUMPDEST POP POP POP POP JUMP JUMPDEST PUSH1 0x0 PUSH2 0x192B DUP3 PUSH2 0x18D1 JUMP JUMPDEST PUSH2 0x1935 DUP2 DUP6 PUSH2 0x18DC JUMP JUMPDEST SWAP4 POP PUSH2 0x1945 DUP2 DUP6 PUSH1 0x20 DUP7 ADD PUSH2 0x18ED JUMP JUMPDEST PUSH2 0x194E DUP2 PUSH2 0x15D5 JUMP JUMPDEST DUP5 ADD SWAP2 POP POP SWAP3 SWAP2 POP POP JUMP JUMPDEST PUSH2 0x1962 DUP2 PUSH2 0x1711 JUMP JUMPDEST DUP3 MSTORE POP POP JUMP JUMPDEST PUSH2 0x1971 DUP2 PUSH2 0x146A JUMP JUMPDEST DUP3 MSTORE POP POP JUMP JUMPDEST PUSH1 0x0 PUSH2 0x120 DUP4 ADD PUSH1 0x0 DUP4 ADD MLOAD DUP5 DUP3 SUB PUSH1 0x0 DUP7 ADD MSTORE PUSH2 0x1995 DUP3 DUP3 PUSH2 0x1920 JUMP JUMPDEST SWAP2 POP POP PUSH1 0x20 DUP4 ADD MLOAD DUP5 DUP3 SUB PUSH1 0x20 DUP7 ADD MSTORE PUSH2 0x19AF DUP3 DUP3 PUSH2 0x1920 JUMP JUMPDEST SWAP2 POP POP PUSH1 0x40 DUP4 ADD MLOAD DUP5 DUP3 SUB PUSH1 0x40 DUP7 ADD MSTORE PUSH2 0x19C9 DUP3 DUP3 PUSH2 0x1920 JUMP JUMPDEST SWAP2 POP POP PUSH1 0x60 DUP4 ADD MLOAD DUP5 DUP3 SUB PUSH1 0x60 DUP7 ADD MSTORE PUSH2 0x19E3 DUP3 DUP3 PUSH2 0x1920 JUMP JUMPDEST SWAP2 POP POP PUSH1 0x80 DUP4 ADD MLOAD DUP5 DUP3 SUB PUSH1 0x80 DUP7 ADD MSTORE PUSH2 0x19FD DUP3 DUP3 PUSH2 0x1920 JUMP JUMPDEST SWAP2 POP POP PUSH1 0xA0 DUP4 ADD MLOAD DUP5 DUP3 SUB PUSH1 0xA0 DUP7 ADD MSTORE PUSH2 0x1A17 DUP3 DUP3 PUSH2 0x1920 JUMP JUMPDEST SWAP2 POP POP PUSH1 0xC0 DUP4 ADD MLOAD PUSH2 0x1A2C PUSH1 0xC0 DUP7 ADD DUP3 PUSH2 0x1959 JUMP JUMPDEST POP PUSH1 0xE0 DUP4 ADD MLOAD PUSH2 0x1A3F PUSH1 0xE0 DUP7 ADD DUP3 PUSH2 0x1968 JUMP JUMPDEST POP PUSH2 0x100 DUP4 ADD MLOAD PUSH2 0x1A54 PUSH2 0x100 DUP7 ADD DUP3 PUSH2 0x1968 JUMP JUMPDEST POP DUP1 SWAP2 POP POP SWAP3 SWAP2 POP POP JUMP JUMPDEST PUSH1 0x0 PUSH1 0x20 DUP3 ADD SWAP1 POP DUP2 DUP2 SUB PUSH1 0x0 DUP4 ADD MSTORE PUSH2 0x1A79 DUP2 DUP5 PUSH2 0x1977 JUMP JUMPDEST SWAP1 POP SWAP3 SWAP2 POP POP JUMP JUMPDEST PUSH2 0x1A8A DUP2 PUSH2 0x1711 JUMP JUMPDEST DUP3 MSTORE POP POP JUMP JUMPDEST PUSH1 0x0 PUSH1 0x40 DUP3 ADD SWAP1 POP DUP2 DUP2 SUB PUSH1 0x0 DUP4 ADD MSTORE PUSH2 0x1AAA DUP2 DUP6 PUSH2 0x1977 JUMP JUMPDEST SWAP1 POP PUSH2 0x1AB9 PUSH1 0x20 DUP4 ADD DUP5 PUSH2 0x1A81 JUMP JUMPDEST SWAP4 SWAP3 POP POP POP JUMP JUMPDEST PUSH2 0x1AC9 DUP2 PUSH2 0x1565 JUMP JUMPDEST DUP2 EQ PUSH2 0x1AD4 JUMPI PUSH1 0x0 DUP1 REVERT JUMPDEST POP JUMP JUMPDEST PUSH1 0x0 DUP2 CALLDATALOAD SWAP1 POP PUSH2 0x1AE6 DUP2 PUSH2 0x1AC0 JUMP JUMPDEST SWAP3 SWAP2 POP POP JUMP JUMPDEST PUSH1 0x0 PUSH1 0x20 DUP3 DUP5 SUB SLT ISZERO PUSH2 0x1B02 JUMPI PUSH2 0x1B01 PUSH2 0x1460 JUMP JUMPDEST JUMPDEST PUSH1 0x0 PUSH2 0x1B10 DUP5 DUP3 DUP6 ADD PUSH2 0x1AD7 JUMP JUMPDEST SWAP2 POP POP SWAP3 SWAP2 POP POP JUMP JUMPDEST PUSH1 0x0 DUP1 PUSH1 0x40 DUP4 DUP6 SUB SLT ISZERO PUSH2 0x1B30 JUMPI PUSH2 0x1B2F PUSH2 0x1460 JUMP JUMPDEST JUMPDEST PUSH1 0x0 PUSH2 0x1B3E DUP6 DUP3 DUP7 ADD PUSH2 0x148B JUMP JUMPDEST SWAP3 POP POP PUSH1 0x20 DUP4 ADD CALLDATALOAD PUSH8 0xFFFFFFFFFFFFFFFF DUP2 GT ISZERO PUSH2 0x1B5F JUMPI PUSH2 0x1B5E PUSH2 0x1465 JUMP JUMPDEST JUMPDEST PUSH2 0x1B6B DUP6 DUP3 DUP7 ADD PUSH2 0x16E3 JUMP JUMPDEST SWAP2 POP POP SWAP3 POP SWAP3 SWAP1 POP JUMP JUMPDEST PUSH1 0x0 DUP3 DUP3 MSTORE PUSH1 0x20 DUP3 ADD SWAP1 POP SWAP3 SWAP2 POP POP JUMP JUMPDEST PUSH32 0x4F776E61626C653A2063616C6C6572206973206E6F7420746865206F776E6572 PUSH1 0x0 DUP3 ADD MSTORE POP JUMP JUMPDEST PUSH1 0x0 PUSH2 0x1BBC PUSH1 0x20 DUP4 PUSH2 0x1B75 JUMP JUMPDEST SWAP2 POP PUSH2 0x1BC7 DUP3 PUSH2 0x1B86 JUMP JUMPDEST PUSH1 0x20 DUP3 ADD SWAP1 POP SWAP2 SWAP1 POP JUMP JUMPDEST PUSH1 0x0 PUSH1 0x20 DUP3 ADD SWAP1 POP DUP2 DUP2 SUB PUSH1 0x0 DUP4 ADD MSTORE PUSH2 0x1BEB DUP2 PUSH2 0x1BAF JUMP JUMPDEST SWAP1 POP SWAP2 SWAP1 POP JUMP JUMPDEST PUSH32 0x4E487B7100000000000000000000000000000000000000000000000000000000 PUSH1 0x0 MSTORE PUSH1 0x12 PUSH1 0x4 MSTORE PUSH1 0x24 PUSH1 0x0 REVERT JUMPDEST PUSH1 0x0 PUSH2 0x1C2C DUP3 PUSH2 0x146A JUMP JUMPDEST SWAP2 POP PUSH2 0x1C37 DUP4 PUSH2 0x146A JUMP JUMPDEST SWAP3 POP DUP3 PUSH2 0x1C47 JUMPI PUSH2 0x1C46 PUSH2 0x1BF2 JUMP JUMPDEST JUMPDEST DUP3 DUP3 MOD SWAP1 POP SWAP3 SWAP2 POP POP JUMP JUMPDEST PUSH32 0x4E487B7100000000000000000000000000000000000000000000000000000000 PUSH1 0x0 MSTORE PUSH1 0x32 PUSH1 0x4 MSTORE PUSH1 0x24 PUSH1 0x0 REVERT JUMPDEST PUSH32 0x4E487B7100000000000000000000000000000000000000000000000000000000 PUSH1 0x0 MSTORE PUSH1 0x11 PUSH1 0x4 MSTORE PUSH1 0x24 PUSH1 0x0 REVERT JUMPDEST PUSH1 0x0 PUSH2 0x1CBB DUP3 PUSH2 0x146A JUMP JUMPDEST SWAP2 POP PUSH32 0xFFFFFFFFFFFFFFFFFFFFFFFFFFFFFFFFFFFFFFFFFFFFFFFFFFFFFFFFFFFFFFFF DUP3 SUB PUSH2 0x1CED JUMPI PUSH2 0x1CEC PUSH2 0x1C81 JUMP JUMPDEST JUMPDEST PUSH1 0x1 DUP3 ADD SWAP1 POP SWAP2 SWAP1 POP JUMP JUMPDEST PUSH1 0x0 DUP2 SWAP1 POP SWAP2 SWAP1 POP JUMP JUMPDEST PUSH2 0x1D13 PUSH2 0x1D0E DUP3 PUSH2 0x146A JUMP JUMPDEST PUSH2 0x1CF8 JUMP JUMPDEST DUP3 MSTORE POP POP JUMP JUMPDEST PUSH1 0x0 DUP2 PUSH1 0x60 SHL SWAP1 POP SWAP2 SWAP1 POP JUMP JUMPDEST PUSH1 0x0 PUSH2 0x1D31 DUP3 PUSH2 0x1D19 JUMP JUMPDEST SWAP1 POP SWAP2 SWAP1 POP JUMP JUMPDEST PUSH1 0x0 PUSH2 0x1D43 DUP3 PUSH2 0x1D26 JUMP JUMPDEST SWAP1 POP SWAP2 SWAP1 POP JUMP JUMPDEST PUSH2 0x1D5B PUSH2 0x1D56 DUP3 PUSH2 0x1565 JUMP JUMPDEST PUSH2 0x1D38 JUMP JUMPDEST DUP3 MSTORE POP POP JUMP JUMPDEST PUSH1 0x0 PUSH2 0x1D6D DUP3 DUP6 PUSH2 0x1D02 JUMP JUMPDEST PUSH1 0x20 DUP3 ADD SWAP2 POP PUSH2 0x1D7D DUP3 DUP5 PUSH2 0x1D4A JUMP JUMPDEST PUSH1 0x14 DUP3 ADD SWAP2 POP DUP2 SWAP1 POP SWAP4 SWAP3 POP POP POP JUMP JUMPDEST PUSH32 0x4E487B7100000000000000000000000000000000000000000000000000000000 PUSH1 0x0 MSTORE PUSH1 0x22 PUSH1 0x4 MSTORE PUSH1 0x24 PUSH1 0x0 REVERT JUMPDEST PUSH1 0x0 PUSH1 0x2 DUP3 DIV SWAP1 POP PUSH1 0x1 DUP3 AND DUP1 PUSH2 0x1DD4 JUMPI PUSH1 0x7F DUP3 AND SWAP2 POP JUMPDEST PUSH1 0x20 DUP3 LT DUP2 SUB PUSH2 0x1DE7 JUMPI PUSH2 0x1DE6 PUSH2 0x1D8D JUMP JUMPDEST JUMPDEST POP SWAP2 SWAP1 POP JUMP JUMPDEST PUSH32 0x4F776E61626C653A206E6577206F776E657220697320746865207A65726F2061 PUSH1 0x0 DUP3 ADD MSTORE PUSH32 0x6464726573730000000000000000000000000000000000000000000000000000 PUSH1 0x20 DUP3 ADD MSTORE POP JUMP JUMPDEST PUSH1 0x0 PUSH2 0x1E49 PUSH1 0x26 DUP4 PUSH2 0x1B75 JUMP JUMPDEST SWAP2 POP PUSH2 0x1E54 DUP3 PUSH2 0x1DED JUMP JUMPDEST PUSH1 0x40 DUP3 ADD SWAP1 POP SWAP2 SWAP1 POP JUMP JUMPDEST PUSH1 0x0 PUSH1 0x20 DUP3 ADD SWAP1 POP DUP2 DUP2 SUB PUSH1 0x0 DUP4 ADD MSTORE PUSH2 0x1E78 DUP2 PUSH2 0x1E3C JUMP JUMPDEST SWAP1 POP SWAP2 SWAP1 POP JUMP JUMPDEST PUSH1 0x0 PUSH2 0x1E8A DUP3 PUSH2 0x146A JUMP JUMPDEST SWAP2 POP PUSH2 0x1E95 DUP4 PUSH2 0x146A JUMP JUMPDEST SWAP3 POP DUP3 DUP3 LT ISZERO PUSH2 0x1EA8 JUMPI PUSH2 0x1EA7 PUSH2 0x1C81 JUMP JUMPDEST JUMPDEST DUP3 DUP3 SUB SWAP1 POP SWAP3 SWAP2 POP POP JUMP JUMPDEST PUSH1 0x0 PUSH2 0x1EBE DUP3 PUSH2 0x18D1 JUMP JUMPDEST PUSH2 0x1EC8 DUP2 DUP6 PUSH2 0x1B75 JUMP JUMPDEST SWAP4 POP PUSH2 0x1ED8 DUP2 DUP6 PUSH1 0x20 DUP7 ADD PUSH2 0x18ED JUMP JUMPDEST PUSH2 0x1EE1 DUP2 PUSH2 0x15D5 JUMP JUMPDEST DUP5 ADD SWAP2 POP POP SWAP3 SWAP2 POP POP JUMP JUMPDEST PUSH1 0x0 PUSH1 0x40 DUP3 ADD SWAP1 POP DUP2 DUP2 SUB PUSH1 0x0 DUP4 ADD MSTORE PUSH2 0x1F06 DUP2 DUP6 PUSH2 0x1EB3 JUMP JUMPDEST SWAP1 POP PUSH2 0x1F15 PUSH1 0x20 DUP4 ADD DUP5 PUSH2 0x1A81 JUMP JUMPDEST SWAP4 SWAP3 POP POP POP JUMP INVALID LOG2 PUSH5 0x6970667358 0x22 SLT KECCAK256 0xAD SWAP16 ISZERO LOG0 0xE3 0xA9 DELEGATECALL 0xD7 PUSH22 0x716835CCDC4049A531D796406BE6F9B9426F8435FD21 0x4D PUSH5 0x736F6C6343 STOP ADDMOD 0xE STOP CALLER "
		},
		"gasEstimates": {
			"creation": {
				"codeDepositCost": "1603600",
				"executionCost": "infinite",
				"totalCost": "infinite"
			},
			"external": {
				"changeQuizStatus(uint256,bool)": "27171",
				"createQuiz(string,string,string,string,string,string,uint8,uint8,uint256,uint256)": "infinite",
				"getRandomQuiz()": "infinite",
				"owner()": "2522",
				"quizIsActive(uint256)": "2863",
				"quizOwner(uint256)": "2884",
				"quizOwnerChangeHint(uint256,string)": "infinite",
				"quizOwnerChangeStatus(uint256,bool)": "27206",
				"quizOwnerGetQuiz(uint256)": "infinite",
				"renounceOwnership()": "30463",
				"transferOwnership(address)": "30808"
			}
		},
		"methodIdentifiers": {
			"changeQuizStatus(uint256,bool)": "1d3f7559",
			"createQuiz(string,string,string,string,string,string,uint8,uint8,uint256,uint256)": "9a2dc409",
			"getRandomQuiz()": "a0af60de",
			"owner()": "8da5cb5b",
			"quizIsActive(uint256)": "51a1d40e",
			"quizOwner(uint256)": "400ae0f9",
			"quizOwnerChangeHint(uint256,string)": "fbb3b6ce",
			"quizOwnerChangeStatus(uint256,bool)": "377def85",
			"quizOwnerGetQuiz(uint256)": "b9360cf1",
			"renounceOwnership()": "715018a6",
			"transferOwnership(address)": "f2fde38b"
		}
	},
	"abi": [
		{
			"anonymous": false,
			"inputs": [
				{
					"components": [
						{
							"internalType": "string",
							"name": "question",
							"type": "string"
						},
						{
							"internalType": "string",
							"name": "choice1",
							"type": "string"
						},
						{
							"internalType": "string",
							"name": "choice2",
							"type": "string"
						},
						{
							"internalType": "string",
							"name": "choice3",
							"type": "string"
						},
						{
							"internalType": "string",
							"name": "choice4",
							"type": "string"
						},
						{
							"internalType": "string",
							"name": "hint",
							"type": "string"
						},
						{
							"internalType": "uint8",
							"name": "languageCode",
							"type": "uint8"
						},
						{
							"internalType": "uint256",
							"name": "reward",
							"type": "uint256"
						},
						{
							"internalType": "uint256",
							"name": "rewardPool",
							"type": "uint256"
						}
					],
					"indexed": false,
					"internalType": "struct CreateQuiz.Quiz",
					"name": "quiz",
					"type": "tuple"
				}
			],
			"name": "GetQuiz",
			"type": "event"
		},
		{
			"anonymous": false,
			"inputs": [
				{
					"indexed": false,
					"internalType": "string",
					"name": "question",
					"type": "string"
				},
				{
					"indexed": false,
					"internalType": "uint8",
					"name": "answer",
					"type": "uint8"
				}
			],
			"name": "NewQuiz",
			"type": "event"
		},
		{
			"anonymous": false,
			"inputs": [
				{
					"indexed": true,
					"internalType": "address",
					"name": "previousOwner",
					"type": "address"
				},
				{
					"indexed": true,
					"internalType": "address",
					"name": "newOwner",
					"type": "address"
				}
			],
			"name": "OwnershipTransferred",
			"type": "event"
		},
		{
			"anonymous": false,
			"inputs": [
				{
					"components": [
						{
							"internalType": "string",
							"name": "question",
							"type": "string"
						},
						{
							"internalType": "string",
							"name": "choice1",
							"type": "string"
						},
						{
							"internalType": "string",
							"name": "choice2",
							"type": "string"
						},
						{
							"internalType": "string",
							"name": "choice3",
							"type": "string"
						},
						{
							"internalType": "string",
							"name": "choice4",
							"type": "string"
						},
						{
							"internalType": "string",
							"name": "hint",
							"type": "string"
						},
						{
							"internalType": "uint8",
							"name": "languageCode",
							"type": "uint8"
						},
						{
							"internalType": "uint256",
							"name": "reward",
							"type": "uint256"
						},
						{
							"internalType": "uint256",
							"name": "rewardPool",
							"type": "uint256"
						}
					],
					"indexed": false,
					"internalType": "struct CreateQuiz.Quiz",
					"name": "quiz",
					"type": "tuple"
				},
				{
					"indexed": false,
					"internalType": "uint8",
					"name": "answer",
					"type": "uint8"
				}
			],
			"name": "QuizOwnerGetQuiz",
			"type": "event"
		},
		{
			"inputs": [
				{
					"internalType": "uint256",
					"name": "_quizId",
					"type": "uint256"
				},
				{
					"internalType": "bool",
					"name": "_quizStatus",
					"type": "bool"
				}
			],
			"name": "changeQuizStatus",
			"outputs": [],
			"stateMutability": "nonpayable",
			"type": "function"
		},
		{
			"inputs": [
				{
					"internalType": "string",
					"name": "_question",
					"type": "string"
				},
				{
					"internalType": "string",
					"name": "_choice1",
					"type": "string"
				},
				{
					"internalType": "string",
					"name": "_choice2",
					"type": "string"
				},
				{
					"internalType": "string",
					"name": "_choice3",
					"type": "string"
				},
				{
					"internalType": "string",
					"name": "_choice4",
					"type": "string"
				},
				{
					"internalType": "string",
					"name": "_hint",
					"type": "string"
				},
				{
					"internalType": "uint8",
					"name": "_answer",
					"type": "uint8"
				},
				{
					"internalType": "uint8",
					"name": "_languageCode",
					"type": "uint8"
				},
				{
					"internalType": "uint256",
					"name": "_reward",
					"type": "uint256"
				},
				{
					"internalType": "uint256",
					"name": "_rewardPool",
					"type": "uint256"
				}
			],
			"name": "createQuiz",
			"outputs": [],
			"stateMutability": "payable",
			"type": "function"
		},
		{
			"inputs": [],
			"name": "getRandomQuiz",
			"outputs": [
				{
					"components": [
						{
							"internalType": "string",
							"name": "question",
							"type": "string"
						},
						{
							"internalType": "string",
							"name": "choice1",
							"type": "string"
						},
						{
							"internalType": "string",
							"name": "choice2",
							"type": "string"
						},
						{
							"internalType": "string",
							"name": "choice3",
							"type": "string"
						},
						{
							"internalType": "string",
							"name": "choice4",
							"type": "string"
						},
						{
							"internalType": "string",
							"name": "hint",
							"type": "string"
						},
						{
							"internalType": "uint8",
							"name": "languageCode",
							"type": "uint8"
						},
						{
							"internalType": "uint256",
							"name": "reward",
							"type": "uint256"
						},
						{
							"internalType": "uint256",
							"name": "rewardPool",
							"type": "uint256"
						}
					],
					"internalType": "struct CreateQuiz.Quiz",
					"name": "",
					"type": "tuple"
				}
			],
			"stateMutability": "view",
			"type": "function"
		},
		{
			"inputs": [],
			"name": "owner",
			"outputs": [
				{
					"internalType": "address",
					"name": "",
					"type": "address"
				}
			],
			"stateMutability": "view",
			"type": "function"
		},
		{
			"inputs": [
				{
					"internalType": "uint256",
					"name": "",
					"type": "uint256"
				}
			],
			"name": "quizIsActive",
			"outputs": [
				{
					"internalType": "bool",
					"name": "",
					"type": "bool"
				}
			],
			"stateMutability": "view",
			"type": "function"
		},
		{
			"inputs": [
				{
					"internalType": "uint256",
					"name": "",
					"type": "uint256"
				}
			],
			"name": "quizOwner",
			"outputs": [
				{
					"internalType": "address",
					"name": "",
					"type": "address"
				}
			],
			"stateMutability": "view",
			"type": "function"
		},
		{
			"inputs": [
				{
					"internalType": "uint256",
					"name": "_quizId",
					"type": "uint256"
				},
				{
					"internalType": "string",
					"name": "_hint",
					"type": "string"
				}
			],
			"name": "quizOwnerChangeHint",
			"outputs": [],
			"stateMutability": "nonpayable",
			"type": "function"
		},
		{
			"inputs": [
				{
					"internalType": "uint256",
					"name": "_quizId",
					"type": "uint256"
				},
				{
					"internalType": "bool",
					"name": "_quizStatus",
					"type": "bool"
				}
			],
			"name": "quizOwnerChangeStatus",
			"outputs": [],
			"stateMutability": "nonpayable",
			"type": "function"
		},
		{
			"inputs": [
				{
					"internalType": "uint256",
					"name": "_quizId",
					"type": "uint256"
				}
			],
			"name": "quizOwnerGetQuiz",
			"outputs": [
				{
					"components": [
						{
							"internalType": "string",
							"name": "question",
							"type": "string"
						},
						{
							"internalType": "string",
							"name": "choice1",
							"type": "string"
						},
						{
							"internalType": "string",
							"name": "choice2",
							"type": "string"
						},
						{
							"internalType": "string",
							"name": "choice3",
							"type": "string"
						},
						{
							"internalType": "string",
							"name": "choice4",
							"type": "string"
						},
						{
							"internalType": "string",
							"name": "hint",
							"type": "string"
						},
						{
							"internalType": "uint8",
							"name": "languageCode",
							"type": "uint8"
						},
						{
							"internalType": "uint256",
							"name": "reward",
							"type": "uint256"
						},
						{
							"internalType": "uint256",
							"name": "rewardPool",
							"type": "uint256"
						}
					],
					"internalType": "struct CreateQuiz.Quiz",
					"name": "",
					"type": "tuple"
				},
				{
					"internalType": "uint8",
					"name": "",
					"type": "uint8"
				}
			],
			"stateMutability": "view",
			"type": "function"
		},
		{
			"inputs": [],
			"name": "renounceOwnership",
			"outputs": [],
			"stateMutability": "nonpayable",
			"type": "function"
		},
		{
			"inputs": [
				{
					"internalType": "address",
					"name": "newOwner",
					"type": "address"
				}
			],
			"name": "transferOwnership",
			"outputs": [],
			"stateMutability": "nonpayable",
			"type": "function"
		}
	]
}