{
	"data": {
		"bytecode": {
			"linkReferences": {},
			"object": "608060405234801561001057600080fd5b5061002d61002261003260201b60201c565b61003a60201b60201c565b6100fe565b600033905090565b60008060009054906101000a900473ffffffffffffffffffffffffffffffffffffffff169050816000806101000a81548173ffffffffffffffffffffffffffffffffffffffff021916908373ffffffffffffffffffffffffffffffffffffffff1602179055508173ffffffffffffffffffffffffffffffffffffffff168173ffffffffffffffffffffffffffffffffffffffff167f8be0079c531659141344cd1fd0a4f28419497f9722a3daafe3b4186f6b6457e060405160405180910390a35050565b612245806200010e6000396000f3fe60806040526004361061009c5760003560e01c8063728b0d8711610064578063728b0d87146101845780638da5cb5b146101c15780639a2dc409146101ec578063b9360cf114610208578063f2fde38b14610246578063fbb3b6ce1461026f5761009c565b80631d3f7559146100a1578063377def85146100ca578063400ae0f9146100f357806351a1d40e14610130578063715018a61461016d575b600080fd5b3480156100ad57600080fd5b506100c860048036038101906100c39190611518565b610298565b005b3480156100d657600080fd5b506100f160048036038101906100ec9190611518565b610343565b005b3480156100ff57600080fd5b5061011a60048036038101906101159190611558565b6103df565b60405161012791906115c6565b60405180910390f35b34801561013c57600080fd5b5061015760048036038101906101529190611558565b610412565b60405161016491906115f0565b60405180910390f35b34801561017957600080fd5b50610182610432565b005b34801561019057600080fd5b506101ab60048036038101906101a69190611751565b6104ba565b6040516101b89190611935565b60405180910390f35b3480156101cd57600080fd5b506101d661097d565b6040516101e391906115c6565b60405180910390f35b61020660048036038101906102019190611983565b6109a6565b005b34801561021457600080fd5b5061022f600480360381019061022a9190611558565b6109f4565b60405161023d929190611b19565b60405180910390f35b34801561025257600080fd5b5061026d60048036038101906102689190611b75565b610edd565b005b34801561027b57600080fd5b5061029660048036038101906102919190611ba2565b610fd4565b005b6102a061107f565b73ffffffffffffffffffffffffffffffffffffffff166102be61097d565b73ffffffffffffffffffffffffffffffffffffffff1614610314576040517f08c379a000000000000000000000000000000000000000000000000000000000815260040161030b90611c5b565b60405180910390fd5b806002600084815260200190815260200160002060006101000a81548160ff0219169083151502179055505050565b813373ffffffffffffffffffffffffffffffffffffffff166004600083815260200190815260200160002060009054906101000a900473ffffffffffffffffffffffffffffffffffffffff1673ffffffffffffffffffffffffffffffffffffffff16146103af57600080fd5b816002600085815260200190815260200160002060006101000a81548160ff021916908315150217905550505050565b60046020528060005260406000206000915054906101000a900473ffffffffffffffffffffffffffffffffffffffff1681565b60026020528060005260406000206000915054906101000a900460ff1681565b61043a61107f565b73ffffffffffffffffffffffffffffffffffffffff1661045861097d565b73ffffffffffffffffffffffffffffffffffffffff16146104ae576040517f08c379a00000000000000000000000000000000000000000000000000000000081526004016104a590611c5b565b60405180910390fd5b6104b86000611087565b565b6104c26113a4565b60606000805b60018054905081101561054357600115156002600083815260200190815260200160002060009054906101000a900460ff16151503610530578083838151811061051557610514611c7b565b5b602002602001018181525050818061052c90611cd9565b9250505b808061053b90611cd9565b9150506104c8565b506000825185423360405160200161055d93929190611dc6565b6040516020818303038152906040528051906020012060001c6105809190611e2e565b9050600083828151811061059757610596611c7b565b5b602002602001015190506000600182815481106105b7576105b6611c7b565b5b9060005260206000209060090201604051806101200160405290816000820180546105e190611e8e565b80601f016020809104026020016040519081016040528092919081815260200182805461060d90611e8e565b801561065a5780601f1061062f5761010080835404028352916020019161065a565b820191906000526020600020905b81548152906001019060200180831161063d57829003601f168201915b5050505050815260200160018201805461067390611e8e565b80601f016020809104026020016040519081016040528092919081815260200182805461069f90611e8e565b80156106ec5780601f106106c1576101008083540402835291602001916106ec565b820191906000526020600020905b8154815290600101906020018083116106cf57829003601f168201915b5050505050815260200160028201805461070590611e8e565b80601f016020809104026020016040519081016040528092919081815260200182805461073190611e8e565b801561077e5780601f106107535761010080835404028352916020019161077e565b820191906000526020600020905b81548152906001019060200180831161076157829003601f168201915b5050505050815260200160038201805461079790611e8e565b80601f01602080910402602001604051908101604052809291908181526020018280546107c390611e8e565b80156108105780601f106107e557610100808354040283529160200191610810565b820191906000526020600020905b8154815290600101906020018083116107f357829003601f168201915b5050505050815260200160048201805461082990611e8e565b80601f016020809104026020016040519081016040528092919081815260200182805461085590611e8e565b80156108a25780601f10610877576101008083540402835291602001916108a2565b820191906000526020600020905b81548152906001019060200180831161088557829003601f168201915b505050505081526020016005820180546108bb90611e8e565b80601f01602080910402602001604051908101604052809291908181526020018280546108e790611e8e565b80156109345780601f1061090957610100808354040283529160200191610934565b820191906000526020600020905b81548152906001019060200180831161091757829003601f168201915b505050505081526020016006820160009054906101000a900460ff1660ff1660ff1681526020016007820154815260200160088201548152505090508095505050505050919050565b60008060009054906101000a900473ffffffffffffffffffffffffffffffffffffffff16905090565b8034146109b257600080fd5b600082826109c09190611e2e565b146109ca57600080fd5b8181116109d657600080fd5b6109e88a8a8a8a8a8a8a8a8a8a61114b565b50505050505050505050565b6109fc6113a4565b6000823373ffffffffffffffffffffffffffffffffffffffff166004600083815260200190815260200160002060009054906101000a900473ffffffffffffffffffffffffffffffffffffffff1673ffffffffffffffffffffffffffffffffffffffff1614610a6a57600080fd5b7f1a74486300338ccfc1d22ebc3073195695d7bb84c8326394ea4e38ab4fead21f60018581548110610a9f57610a9e611c7b565b5b90600052602060002090600902016003600087815260200190815260200160002060009054906101000a900460ff16604051610adc9291906120b0565b60405180910390a160018481548110610af857610af7611c7b565b5b90600052602060002090600902016003600086815260200190815260200160002060009054906101000a900460ff168160405180610120016040529081600082018054610b4490611e8e565b80601f0160208091040260200160405190810160405280929190818152602001828054610b7090611e8e565b8015610bbd5780601f10610b9257610100808354040283529160200191610bbd565b820191906000526020600020905b815481529060010190602001808311610ba057829003601f168201915b50505050508152602001600182018054610bd690611e8e565b80601f0160208091040260200160405190810160405280929190818152602001828054610c0290611e8e565b8015610c4f5780601f10610c2457610100808354040283529160200191610c4f565b820191906000526020600020905b815481529060010190602001808311610c3257829003601f168201915b50505050508152602001600282018054610c6890611e8e565b80601f0160208091040260200160405190810160405280929190818152602001828054610c9490611e8e565b8015610ce15780601f10610cb657610100808354040283529160200191610ce1565b820191906000526020600020905b815481529060010190602001808311610cc457829003601f168201915b50505050508152602001600382018054610cfa90611e8e565b80601f0160208091040260200160405190810160405280929190818152602001828054610d2690611e8e565b8015610d735780601f10610d4857610100808354040283529160200191610d73565b820191906000526020600020905b815481529060010190602001808311610d5657829003601f168201915b50505050508152602001600482018054610d8c90611e8e565b80601f0160208091040260200160405190810160405280929190818152602001828054610db890611e8e565b8015610e055780601f10610dda57610100808354040283529160200191610e05565b820191906000526020600020905b815481529060010190602001808311610de857829003601f168201915b50505050508152602001600582018054610e1e90611e8e565b80601f0160208091040260200160405190810160405280929190818152602001828054610e4a90611e8e565b8015610e975780601f10610e6c57610100808354040283529160200191610e97565b820191906000526020600020905b815481529060010190602001808311610e7a57829003601f168201915b505050505081526020016006820160009054906101000a900460ff1660ff1660ff1681526020016007820154815260200160088201548152505091509250925050915091565b610ee561107f565b73ffffffffffffffffffffffffffffffffffffffff16610f0361097d565b73ffffffffffffffffffffffffffffffffffffffff1614610f59576040517f08c379a0000000000000000000000000000000000000000000000000000000008152600401610f5090611c5b565b60405180910390fd5b600073ffffffffffffffffffffffffffffffffffffffff168173ffffffffffffffffffffffffffffffffffffffff1603610fc8576040517f08c379a0000000000000000000000000000000000000000000000000000000008152600401610fbf90612152565b60405180910390fd5b610fd181611087565b50565b813373ffffffffffffffffffffffffffffffffffffffff166004600083815260200190815260200160002060009054906101000a900473ffffffffffffffffffffffffffffffffffffffff1673ffffffffffffffffffffffffffffffffffffffff161461104057600080fd5b816001848154811061105557611054611c7b565b5b906000526020600020906009020160050190805190602001906110799291906113f3565b50505050565b600033905090565b60008060009054906101000a900473ffffffffffffffffffffffffffffffffffffffff169050816000806101000a81548173ffffffffffffffffffffffffffffffffffffffff021916908373ffffffffffffffffffffffffffffffffffffffff1602179055508173ffffffffffffffffffffffffffffffffffffffff168173ffffffffffffffffffffffffffffffffffffffff167f8be0079c531659141344cd1fd0a4f28419497f9722a3daafe3b4186f6b6457e060405160405180910390a35050565b60016040518061012001604052808c81526020018b81526020018a81526020018981526020018881526020018781526020018560ff16815260200184815260200183815250908060018154018082558091505060019003906000526020600020906009020160009091909190915060008201518160000190805190602001906111d59291906113f3565b5060208201518160010190805190602001906111f29291906113f3565b50604082015181600201908051906020019061120f9291906113f3565b50606082015181600301908051906020019061122c9291906113f3565b5060808201518160040190805190602001906112499291906113f3565b5060a08201518160050190805190602001906112669291906113f3565b5060c08201518160060160006101000a81548160ff021916908360ff16021790555060e08201518160070155610100820151816008015550506000600180805490506112b29190612172565b9050846003600083815260200190815260200160002060006101000a81548160ff021916908360ff160217905550336004600083815260200190815260200160002060006101000a81548173ffffffffffffffffffffffffffffffffffffffff021916908373ffffffffffffffffffffffffffffffffffffffff16021790555060016002600083815260200190815260200160002060006101000a81548160ff0219169083151502179055507f545dca5d847b655a9f03cdf5619f53f0b2546051fd0d015b18c09ae2a8b1a7658b8660405161138f9291906121df565b60405180910390a15050505050505050505050565b604051806101200160405280606081526020016060815260200160608152602001606081526020016060815260200160608152602001600060ff16815260200160008152602001600081525090565b8280546113ff90611e8e565b90600052602060002090601f0160209004810192826114215760008555611468565b82601f1061143a57805160ff1916838001178555611468565b82800160010185558215611468579182015b8281111561146757825182559160200191906001019061144c565b5b5090506114759190611479565b5090565b5b8082111561149257600081600090555060010161147a565b5090565b6000604051905090565b600080fd5b600080fd5b6000819050919050565b6114bd816114aa565b81146114c857600080fd5b50565b6000813590506114da816114b4565b92915050565b60008115159050919050565b6114f5816114e0565b811461150057600080fd5b50565b600081359050611512816114ec565b92915050565b6000806040838503121561152f5761152e6114a0565b5b600061153d858286016114cb565b925050602061154e85828601611503565b9150509250929050565b60006020828403121561156e5761156d6114a0565b5b600061157c848285016114cb565b91505092915050565b600073ffffffffffffffffffffffffffffffffffffffff82169050919050565b60006115b082611585565b9050919050565b6115c0816115a5565b82525050565b60006020820190506115db60008301846115b7565b92915050565b6115ea816114e0565b82525050565b600060208201905061160560008301846115e1565b92915050565b600080fd5b600080fd5b6000601f19601f8301169050919050565b7f4e487b7100000000000000000000000000000000000000000000000000000000600052604160045260246000fd5b61165e82611615565b810181811067ffffffffffffffff8211171561167d5761167c611626565b5b80604052505050565b6000611690611496565b905061169c8282611655565b919050565b600067ffffffffffffffff8211156116bc576116bb611626565b5b6116c582611615565b9050602081019050919050565b82818337600083830152505050565b60006116f46116ef846116a1565b611686565b9050828152602081018484840111156117105761170f611610565b5b61171b8482856116d2565b509392505050565b600082601f8301126117385761173761160b565b5b81356117488482602086016116e1565b91505092915050565b600060208284031215611767576117666114a0565b5b600082013567ffffffffffffffff811115611785576117846114a5565b5b61179184828501611723565b91505092915050565b600081519050919050565b600082825260208201905092915050565b60005b838110156117d45780820151818401526020810190506117b9565b838111156117e3576000848401525b50505050565b60006117f48261179a565b6117fe81856117a5565b935061180e8185602086016117b6565b61181781611615565b840191505092915050565b600060ff82169050919050565b61183881611822565b82525050565b611847816114aa565b82525050565b600061012083016000830151848203600086015261186b82826117e9565b9150506020830151848203602086015261188582826117e9565b9150506040830151848203604086015261189f82826117e9565b915050606083015184820360608601526118b982826117e9565b915050608083015184820360808601526118d382826117e9565b91505060a083015184820360a08601526118ed82826117e9565b91505060c083015161190260c086018261182f565b5060e083015161191560e086018261183e565b5061010083015161192a61010086018261183e565b508091505092915050565b6000602082019050818103600083015261194f818461184d565b905092915050565b61196081611822565b811461196b57600080fd5b50565b60008135905061197d81611957565b92915050565b6000806000806000806000806000806101408b8d0312156119a7576119a66114a0565b5b60008b013567ffffffffffffffff8111156119c5576119c46114a5565b5b6119d18d828e01611723565b9a505060208b013567ffffffffffffffff8111156119f2576119f16114a5565b5b6119fe8d828e01611723565b99505060408b013567ffffffffffffffff811115611a1f57611a1e6114a5565b5b611a2b8d828e01611723565b98505060608b013567ffffffffffffffff811115611a4c57611a4b6114a5565b5b611a588d828e01611723565b97505060808b013567ffffffffffffffff811115611a7957611a786114a5565b5b611a858d828e01611723565b96505060a08b013567ffffffffffffffff811115611aa657611aa56114a5565b5b611ab28d828e01611723565b95505060c0611ac38d828e0161196e565b94505060e0611ad48d828e0161196e565b935050610100611ae68d828e016114cb565b925050610120611af88d828e016114cb565b9150509295989b9194979a5092959850565b611b1381611822565b82525050565b60006040820190508181036000830152611b33818561184d565b9050611b426020830184611b0a565b9392505050565b611b52816115a5565b8114611b5d57600080fd5b50565b600081359050611b6f81611b49565b92915050565b600060208284031215611b8b57611b8a6114a0565b5b6000611b9984828501611b60565b91505092915050565b60008060408385031215611bb957611bb86114a0565b5b6000611bc7858286016114cb565b925050602083013567ffffffffffffffff811115611be857611be76114a5565b5b611bf485828601611723565b9150509250929050565b600082825260208201905092915050565b7f4f776e61626c653a2063616c6c6572206973206e6f7420746865206f776e6572600082015250565b6000611c45602083611bfe565b9150611c5082611c0f565b602082019050919050565b60006020820190508181036000830152611c7481611c38565b9050919050565b7f4e487b7100000000000000000000000000000000000000000000000000000000600052603260045260246000fd5b7f4e487b7100000000000000000000000000000000000000000000000000000000600052601160045260246000fd5b6000611ce4826114aa565b91507fffffffffffffffffffffffffffffffffffffffffffffffffffffffffffffffff8203611d1657611d15611caa565b5b600182019050919050565b600081905092915050565b6000611d378261179a565b611d418185611d21565b9350611d518185602086016117b6565b80840191505092915050565b6000819050919050565b611d78611d73826114aa565b611d5d565b82525050565b60008160601b9050919050565b6000611d9682611d7e565b9050919050565b6000611da882611d8b565b9050919050565b611dc0611dbb826115a5565b611d9d565b82525050565b6000611dd28286611d2c565b9150611dde8285611d67565b602082019150611dee8284611daf565b601482019150819050949350505050565b7f4e487b7100000000000000000000000000000000000000000000000000000000600052601260045260246000fd5b6000611e39826114aa565b9150611e44836114aa565b925082611e5457611e53611dff565b5b828206905092915050565b7f4e487b7100000000000000000000000000000000000000000000000000000000600052602260045260246000fd5b60006002820490506001821680611ea657607f821691505b602082108103611eb957611eb8611e5f565b5b50919050565b60008190508160005260206000209050919050565b60008154611ee181611e8e565b611eeb81866117a5565b94506001821660008114611f065760018114611f1857611f4b565b60ff1983168652602086019350611f4b565b611f2185611ebf565b60005b83811015611f4357815481890152600182019150602081019050611f24565b808801955050505b50505092915050565b60008160001c9050919050565b600060ff82169050919050565b6000611f81611f7c83611f54565b611f61565b9050919050565b6000819050919050565b6000611fa5611fa083611f54565b611f88565b9050919050565b6000610120830160008084018583036000870152611fca8382611ed4565b925050600184018583036020870152611fe38382611ed4565b925050600284018583036040870152611ffc8382611ed4565b9250506003840185830360608701526120158382611ed4565b92505060048401858303608087015261202e8382611ed4565b9250506005840185830360a08701526120478382611ed4565b9250506006840154905061205a81611f6e565b61206760c087018261182f565b506007840154905061207881611f92565b61208560e087018261183e565b506008840154905061209681611f92565b6120a461010087018261183e565b50819250505092915050565b600060408201905081810360008301526120ca8185611fac565b90506120d96020830184611b0a565b9392505050565b7f4f776e61626c653a206e6577206f776e657220697320746865207a65726f206160008201527f6464726573730000000000000000000000000000000000000000000000000000602082015250565b600061213c602683611bfe565b9150612147826120e0565b604082019050919050565b6000602082019050818103600083015261216b8161212f565b9050919050565b600061217d826114aa565b9150612188836114aa565b92508282101561219b5761219a611caa565b5b828203905092915050565b60006121b18261179a565b6121bb8185611bfe565b93506121cb8185602086016117b6565b6121d481611615565b840191505092915050565b600060408201905081810360008301526121f981856121a6565b90506122086020830184611b0a565b939250505056fea2646970667358221220e5240b2f355cdb922a4b0618cdfea5cfe774f6d915a010ba6f80397394c0e62564736f6c634300080e0033",
			"opcodes": "PUSH1 0x80 PUSH1 0x40 MSTORE CALLVALUE DUP1 ISZERO PUSH2 0x10 JUMPI PUSH1 0x0 DUP1 REVERT JUMPDEST POP PUSH2 0x2D PUSH2 0x22 PUSH2 0x32 PUSH1 0x20 SHL PUSH1 0x20 SHR JUMP JUMPDEST PUSH2 0x3A PUSH1 0x20 SHL PUSH1 0x20 SHR JUMP JUMPDEST PUSH2 0xFE JUMP JUMPDEST PUSH1 0x0 CALLER SWAP1 POP SWAP1 JUMP JUMPDEST PUSH1 0x0 DUP1 PUSH1 0x0 SWAP1 SLOAD SWAP1 PUSH2 0x100 EXP SWAP1 DIV PUSH20 0xFFFFFFFFFFFFFFFFFFFFFFFFFFFFFFFFFFFFFFFF AND SWAP1 POP DUP2 PUSH1 0x0 DUP1 PUSH2 0x100 EXP DUP2 SLOAD DUP2 PUSH20 0xFFFFFFFFFFFFFFFFFFFFFFFFFFFFFFFFFFFFFFFF MUL NOT AND SWAP1 DUP4 PUSH20 0xFFFFFFFFFFFFFFFFFFFFFFFFFFFFFFFFFFFFFFFF AND MUL OR SWAP1 SSTORE POP DUP2 PUSH20 0xFFFFFFFFFFFFFFFFFFFFFFFFFFFFFFFFFFFFFFFF AND DUP2 PUSH20 0xFFFFFFFFFFFFFFFFFFFFFFFFFFFFFFFFFFFFFFFF AND PUSH32 0x8BE0079C531659141344CD1FD0A4F28419497F9722A3DAAFE3B4186F6B6457E0 PUSH1 0x40 MLOAD PUSH1 0x40 MLOAD DUP1 SWAP2 SUB SWAP1 LOG3 POP POP JUMP JUMPDEST PUSH2 0x2245 DUP1 PUSH3 0x10E PUSH1 0x0 CODECOPY PUSH1 0x0 RETURN INVALID PUSH1 0x80 PUSH1 0x40 MSTORE PUSH1 0x4 CALLDATASIZE LT PUSH2 0x9C JUMPI PUSH1 0x0 CALLDATALOAD PUSH1 0xE0 SHR DUP1 PUSH4 0x728B0D87 GT PUSH2 0x64 JUMPI DUP1 PUSH4 0x728B0D87 EQ PUSH2 0x184 JUMPI DUP1 PUSH4 0x8DA5CB5B EQ PUSH2 0x1C1 JUMPI DUP1 PUSH4 0x9A2DC409 EQ PUSH2 0x1EC JUMPI DUP1 PUSH4 0xB9360CF1 EQ PUSH2 0x208 JUMPI DUP1 PUSH4 0xF2FDE38B EQ PUSH2 0x246 JUMPI DUP1 PUSH4 0xFBB3B6CE EQ PUSH2 0x26F JUMPI PUSH2 0x9C JUMP JUMPDEST DUP1 PUSH4 0x1D3F7559 EQ PUSH2 0xA1 JUMPI DUP1 PUSH4 0x377DEF85 EQ PUSH2 0xCA JUMPI DUP1 PUSH4 0x400AE0F9 EQ PUSH2 0xF3 JUMPI DUP1 PUSH4 0x51A1D40E EQ PUSH2 0x130 JUMPI DUP1 PUSH4 0x715018A6 EQ PUSH2 0x16D JUMPI JUMPDEST PUSH1 0x0 DUP1 REVERT JUMPDEST CALLVALUE DUP1 ISZERO PUSH2 0xAD JUMPI PUSH1 0x0 DUP1 REVERT JUMPDEST POP PUSH2 0xC8 PUSH1 0x4 DUP1 CALLDATASIZE SUB DUP2 ADD SWAP1 PUSH2 0xC3 SWAP2 SWAP1 PUSH2 0x1518 JUMP JUMPDEST PUSH2 0x298 JUMP JUMPDEST STOP JUMPDEST CALLVALUE DUP1 ISZERO PUSH2 0xD6 JUMPI PUSH1 0x0 DUP1 REVERT JUMPDEST POP PUSH2 0xF1 PUSH1 0x4 DUP1 CALLDATASIZE SUB DUP2 ADD SWAP1 PUSH2 0xEC SWAP2 SWAP1 PUSH2 0x1518 JUMP JUMPDEST PUSH2 0x343 JUMP JUMPDEST STOP JUMPDEST CALLVALUE DUP1 ISZERO PUSH2 0xFF JUMPI PUSH1 0x0 DUP1 REVERT JUMPDEST POP PUSH2 0x11A PUSH1 0x4 DUP1 CALLDATASIZE SUB DUP2 ADD SWAP1 PUSH2 0x115 SWAP2 SWAP1 PUSH2 0x1558 JUMP JUMPDEST PUSH2 0x3DF JUMP JUMPDEST PUSH1 0x40 MLOAD PUSH2 0x127 SWAP2 SWAP1 PUSH2 0x15C6 JUMP JUMPDEST PUSH1 0x40 MLOAD DUP1 SWAP2 SUB SWAP1 RETURN JUMPDEST CALLVALUE DUP1 ISZERO PUSH2 0x13C JUMPI PUSH1 0x0 DUP1 REVERT JUMPDEST POP PUSH2 0x157 PUSH1 0x4 DUP1 CALLDATASIZE SUB DUP2 ADD SWAP1 PUSH2 0x152 SWAP2 SWAP1 PUSH2 0x1558 JUMP JUMPDEST PUSH2 0x412 JUMP JUMPDEST PUSH1 0x40 MLOAD PUSH2 0x164 SWAP2 SWAP1 PUSH2 0x15F0 JUMP JUMPDEST PUSH1 0x40 MLOAD DUP1 SWAP2 SUB SWAP1 RETURN JUMPDEST CALLVALUE DUP1 ISZERO PUSH2 0x179 JUMPI PUSH1 0x0 DUP1 REVERT JUMPDEST POP PUSH2 0x182 PUSH2 0x432 JUMP JUMPDEST STOP JUMPDEST CALLVALUE DUP1 ISZERO PUSH2 0x190 JUMPI PUSH1 0x0 DUP1 REVERT JUMPDEST POP PUSH2 0x1AB PUSH1 0x4 DUP1 CALLDATASIZE SUB DUP2 ADD SWAP1 PUSH2 0x1A6 SWAP2 SWAP1 PUSH2 0x1751 JUMP JUMPDEST PUSH2 0x4BA JUMP JUMPDEST PUSH1 0x40 MLOAD PUSH2 0x1B8 SWAP2 SWAP1 PUSH2 0x1935 JUMP JUMPDEST PUSH1 0x40 MLOAD DUP1 SWAP2 SUB SWAP1 RETURN JUMPDEST CALLVALUE DUP1 ISZERO PUSH2 0x1CD JUMPI PUSH1 0x0 DUP1 REVERT JUMPDEST POP PUSH2 0x1D6 PUSH2 0x97D JUMP JUMPDEST PUSH1 0x40 MLOAD PUSH2 0x1E3 SWAP2 SWAP1 PUSH2 0x15C6 JUMP JUMPDEST PUSH1 0x40 MLOAD DUP1 SWAP2 SUB SWAP1 RETURN JUMPDEST PUSH2 0x206 PUSH1 0x4 DUP1 CALLDATASIZE SUB DUP2 ADD SWAP1 PUSH2 0x201 SWAP2 SWAP1 PUSH2 0x1983 JUMP JUMPDEST PUSH2 0x9A6 JUMP JUMPDEST STOP JUMPDEST CALLVALUE DUP1 ISZERO PUSH2 0x214 JUMPI PUSH1 0x0 DUP1 REVERT JUMPDEST POP PUSH2 0x22F PUSH1 0x4 DUP1 CALLDATASIZE SUB DUP2 ADD SWAP1 PUSH2 0x22A SWAP2 SWAP1 PUSH2 0x1558 JUMP JUMPDEST PUSH2 0x9F4 JUMP JUMPDEST PUSH1 0x40 MLOAD PUSH2 0x23D SWAP3 SWAP2 SWAP1 PUSH2 0x1B19 JUMP JUMPDEST PUSH1 0x40 MLOAD DUP1 SWAP2 SUB SWAP1 RETURN JUMPDEST CALLVALUE DUP1 ISZERO PUSH2 0x252 JUMPI PUSH1 0x0 DUP1 REVERT JUMPDEST POP PUSH2 0x26D PUSH1 0x4 DUP1 CALLDATASIZE SUB DUP2 ADD SWAP1 PUSH2 0x268 SWAP2 SWAP1 PUSH2 0x1B75 JUMP JUMPDEST PUSH2 0xEDD JUMP JUMPDEST STOP JUMPDEST CALLVALUE DUP1 ISZERO PUSH2 0x27B JUMPI PUSH1 0x0 DUP1 REVERT JUMPDEST POP PUSH2 0x296 PUSH1 0x4 DUP1 CALLDATASIZE SUB DUP2 ADD SWAP1 PUSH2 0x291 SWAP2 SWAP1 PUSH2 0x1BA2 JUMP JUMPDEST PUSH2 0xFD4 JUMP JUMPDEST STOP JUMPDEST PUSH2 0x2A0 PUSH2 0x107F JUMP JUMPDEST PUSH20 0xFFFFFFFFFFFFFFFFFFFFFFFFFFFFFFFFFFFFFFFF AND PUSH2 0x2BE PUSH2 0x97D JUMP JUMPDEST PUSH20 0xFFFFFFFFFFFFFFFFFFFFFFFFFFFFFFFFFFFFFFFF AND EQ PUSH2 0x314 JUMPI PUSH1 0x40 MLOAD PUSH32 0x8C379A000000000000000000000000000000000000000000000000000000000 DUP2 MSTORE PUSH1 0x4 ADD PUSH2 0x30B SWAP1 PUSH2 0x1C5B JUMP JUMPDEST PUSH1 0x40 MLOAD DUP1 SWAP2 SUB SWAP1 REVERT JUMPDEST DUP1 PUSH1 0x2 PUSH1 0x0 DUP5 DUP2 MSTORE PUSH1 0x20 ADD SWAP1 DUP2 MSTORE PUSH1 0x20 ADD PUSH1 0x0 KECCAK256 PUSH1 0x0 PUSH2 0x100 EXP DUP2 SLOAD DUP2 PUSH1 0xFF MUL NOT AND SWAP1 DUP4 ISZERO ISZERO MUL OR SWAP1 SSTORE POP POP POP JUMP JUMPDEST DUP2 CALLER PUSH20 0xFFFFFFFFFFFFFFFFFFFFFFFFFFFFFFFFFFFFFFFF AND PUSH1 0x4 PUSH1 0x0 DUP4 DUP2 MSTORE PUSH1 0x20 ADD SWAP1 DUP2 MSTORE PUSH1 0x20 ADD PUSH1 0x0 KECCAK256 PUSH1 0x0 SWAP1 SLOAD SWAP1 PUSH2 0x100 EXP SWAP1 DIV PUSH20 0xFFFFFFFFFFFFFFFFFFFFFFFFFFFFFFFFFFFFFFFF AND PUSH20 0xFFFFFFFFFFFFFFFFFFFFFFFFFFFFFFFFFFFFFFFF AND EQ PUSH2 0x3AF JUMPI PUSH1 0x0 DUP1 REVERT JUMPDEST DUP2 PUSH1 0x2 PUSH1 0x0 DUP6 DUP2 MSTORE PUSH1 0x20 ADD SWAP1 DUP2 MSTORE PUSH1 0x20 ADD PUSH1 0x0 KECCAK256 PUSH1 0x0 PUSH2 0x100 EXP DUP2 SLOAD DUP2 PUSH1 0xFF MUL NOT AND SWAP1 DUP4 ISZERO ISZERO MUL OR SWAP1 SSTORE POP POP POP POP JUMP JUMPDEST PUSH1 0x4 PUSH1 0x20 MSTORE DUP1 PUSH1 0x0 MSTORE PUSH1 0x40 PUSH1 0x0 KECCAK256 PUSH1 0x0 SWAP2 POP SLOAD SWAP1 PUSH2 0x100 EXP SWAP1 DIV PUSH20 0xFFFFFFFFFFFFFFFFFFFFFFFFFFFFFFFFFFFFFFFF AND DUP2 JUMP JUMPDEST PUSH1 0x2 PUSH1 0x20 MSTORE DUP1 PUSH1 0x0 MSTORE PUSH1 0x40 PUSH1 0x0 KECCAK256 PUSH1 0x0 SWAP2 POP SLOAD SWAP1 PUSH2 0x100 EXP SWAP1 DIV PUSH1 0xFF AND DUP2 JUMP JUMPDEST PUSH2 0x43A PUSH2 0x107F JUMP JUMPDEST PUSH20 0xFFFFFFFFFFFFFFFFFFFFFFFFFFFFFFFFFFFFFFFF AND PUSH2 0x458 PUSH2 0x97D JUMP JUMPDEST PUSH20 0xFFFFFFFFFFFFFFFFFFFFFFFFFFFFFFFFFFFFFFFF AND EQ PUSH2 0x4AE JUMPI PUSH1 0x40 MLOAD PUSH32 0x8C379A000000000000000000000000000000000000000000000000000000000 DUP2 MSTORE PUSH1 0x4 ADD PUSH2 0x4A5 SWAP1 PUSH2 0x1C5B JUMP JUMPDEST PUSH1 0x40 MLOAD DUP1 SWAP2 SUB SWAP1 REVERT JUMPDEST PUSH2 0x4B8 PUSH1 0x0 PUSH2 0x1087 JUMP JUMPDEST JUMP JUMPDEST PUSH2 0x4C2 PUSH2 0x13A4 JUMP JUMPDEST PUSH1 0x60 PUSH1 0x0 DUP1 JUMPDEST PUSH1 0x1 DUP1 SLOAD SWAP1 POP DUP2 LT ISZERO PUSH2 0x543 JUMPI PUSH1 0x1 ISZERO ISZERO PUSH1 0x2 PUSH1 0x0 DUP4 DUP2 MSTORE PUSH1 0x20 ADD SWAP1 DUP2 MSTORE PUSH1 0x20 ADD PUSH1 0x0 KECCAK256 PUSH1 0x0 SWAP1 SLOAD SWAP1 PUSH2 0x100 EXP SWAP1 DIV PUSH1 0xFF AND ISZERO ISZERO SUB PUSH2 0x530 JUMPI DUP1 DUP4 DUP4 DUP2 MLOAD DUP2 LT PUSH2 0x515 JUMPI PUSH2 0x514 PUSH2 0x1C7B JUMP JUMPDEST JUMPDEST PUSH1 0x20 MUL PUSH1 0x20 ADD ADD DUP2 DUP2 MSTORE POP POP DUP2 DUP1 PUSH2 0x52C SWAP1 PUSH2 0x1CD9 JUMP JUMPDEST SWAP3 POP POP JUMPDEST DUP1 DUP1 PUSH2 0x53B SWAP1 PUSH2 0x1CD9 JUMP JUMPDEST SWAP2 POP POP PUSH2 0x4C8 JUMP JUMPDEST POP PUSH1 0x0 DUP3 MLOAD DUP6 TIMESTAMP CALLER PUSH1 0x40 MLOAD PUSH1 0x20 ADD PUSH2 0x55D SWAP4 SWAP3 SWAP2 SWAP1 PUSH2 0x1DC6 JUMP JUMPDEST PUSH1 0x40 MLOAD PUSH1 0x20 DUP2 DUP4 SUB SUB DUP2 MSTORE SWAP1 PUSH1 0x40 MSTORE DUP1 MLOAD SWAP1 PUSH1 0x20 ADD KECCAK256 PUSH1 0x0 SHR PUSH2 0x580 SWAP2 SWAP1 PUSH2 0x1E2E JUMP JUMPDEST SWAP1 POP PUSH1 0x0 DUP4 DUP3 DUP2 MLOAD DUP2 LT PUSH2 0x597 JUMPI PUSH2 0x596 PUSH2 0x1C7B JUMP JUMPDEST JUMPDEST PUSH1 0x20 MUL PUSH1 0x20 ADD ADD MLOAD SWAP1 POP PUSH1 0x0 PUSH1 0x1 DUP3 DUP2 SLOAD DUP2 LT PUSH2 0x5B7 JUMPI PUSH2 0x5B6 PUSH2 0x1C7B JUMP JUMPDEST JUMPDEST SWAP1 PUSH1 0x0 MSTORE PUSH1 0x20 PUSH1 0x0 KECCAK256 SWAP1 PUSH1 0x9 MUL ADD PUSH1 0x40 MLOAD DUP1 PUSH2 0x120 ADD PUSH1 0x40 MSTORE SWAP1 DUP2 PUSH1 0x0 DUP3 ADD DUP1 SLOAD PUSH2 0x5E1 SWAP1 PUSH2 0x1E8E JUMP JUMPDEST DUP1 PUSH1 0x1F ADD PUSH1 0x20 DUP1 SWAP2 DIV MUL PUSH1 0x20 ADD PUSH1 0x40 MLOAD SWAP1 DUP2 ADD PUSH1 0x40 MSTORE DUP1 SWAP3 SWAP2 SWAP1 DUP2 DUP2 MSTORE PUSH1 0x20 ADD DUP3 DUP1 SLOAD PUSH2 0x60D SWAP1 PUSH2 0x1E8E JUMP JUMPDEST DUP1 ISZERO PUSH2 0x65A JUMPI DUP1 PUSH1 0x1F LT PUSH2 0x62F JUMPI PUSH2 0x100 DUP1 DUP4 SLOAD DIV MUL DUP4 MSTORE SWAP2 PUSH1 0x20 ADD SWAP2 PUSH2 0x65A JUMP JUMPDEST DUP3 ADD SWAP2 SWAP1 PUSH1 0x0 MSTORE PUSH1 0x20 PUSH1 0x0 KECCAK256 SWAP1 JUMPDEST DUP2 SLOAD DUP2 MSTORE SWAP1 PUSH1 0x1 ADD SWAP1 PUSH1 0x20 ADD DUP1 DUP4 GT PUSH2 0x63D JUMPI DUP3 SWAP1 SUB PUSH1 0x1F AND DUP3 ADD SWAP2 JUMPDEST POP POP POP POP POP DUP2 MSTORE PUSH1 0x20 ADD PUSH1 0x1 DUP3 ADD DUP1 SLOAD PUSH2 0x673 SWAP1 PUSH2 0x1E8E JUMP JUMPDEST DUP1 PUSH1 0x1F ADD PUSH1 0x20 DUP1 SWAP2 DIV MUL PUSH1 0x20 ADD PUSH1 0x40 MLOAD SWAP1 DUP2 ADD PUSH1 0x40 MSTORE DUP1 SWAP3 SWAP2 SWAP1 DUP2 DUP2 MSTORE PUSH1 0x20 ADD DUP3 DUP1 SLOAD PUSH2 0x69F SWAP1 PUSH2 0x1E8E JUMP JUMPDEST DUP1 ISZERO PUSH2 0x6EC JUMPI DUP1 PUSH1 0x1F LT PUSH2 0x6C1 JUMPI PUSH2 0x100 DUP1 DUP4 SLOAD DIV MUL DUP4 MSTORE SWAP2 PUSH1 0x20 ADD SWAP2 PUSH2 0x6EC JUMP JUMPDEST DUP3 ADD SWAP2 SWAP1 PUSH1 0x0 MSTORE PUSH1 0x20 PUSH1 0x0 KECCAK256 SWAP1 JUMPDEST DUP2 SLOAD DUP2 MSTORE SWAP1 PUSH1 0x1 ADD SWAP1 PUSH1 0x20 ADD DUP1 DUP4 GT PUSH2 0x6CF JUMPI DUP3 SWAP1 SUB PUSH1 0x1F AND DUP3 ADD SWAP2 JUMPDEST POP POP POP POP POP DUP2 MSTORE PUSH1 0x20 ADD PUSH1 0x2 DUP3 ADD DUP1 SLOAD PUSH2 0x705 SWAP1 PUSH2 0x1E8E JUMP JUMPDEST DUP1 PUSH1 0x1F ADD PUSH1 0x20 DUP1 SWAP2 DIV MUL PUSH1 0x20 ADD PUSH1 0x40 MLOAD SWAP1 DUP2 ADD PUSH1 0x40 MSTORE DUP1 SWAP3 SWAP2 SWAP1 DUP2 DUP2 MSTORE PUSH1 0x20 ADD DUP3 DUP1 SLOAD PUSH2 0x731 SWAP1 PUSH2 0x1E8E JUMP JUMPDEST DUP1 ISZERO PUSH2 0x77E JUMPI DUP1 PUSH1 0x1F LT PUSH2 0x753 JUMPI PUSH2 0x100 DUP1 DUP4 SLOAD DIV MUL DUP4 MSTORE SWAP2 PUSH1 0x20 ADD SWAP2 PUSH2 0x77E JUMP JUMPDEST DUP3 ADD SWAP2 SWAP1 PUSH1 0x0 MSTORE PUSH1 0x20 PUSH1 0x0 KECCAK256 SWAP1 JUMPDEST DUP2 SLOAD DUP2 MSTORE SWAP1 PUSH1 0x1 ADD SWAP1 PUSH1 0x20 ADD DUP1 DUP4 GT PUSH2 0x761 JUMPI DUP3 SWAP1 SUB PUSH1 0x1F AND DUP3 ADD SWAP2 JUMPDEST POP POP POP POP POP DUP2 MSTORE PUSH1 0x20 ADD PUSH1 0x3 DUP3 ADD DUP1 SLOAD PUSH2 0x797 SWAP1 PUSH2 0x1E8E JUMP JUMPDEST DUP1 PUSH1 0x1F ADD PUSH1 0x20 DUP1 SWAP2 DIV MUL PUSH1 0x20 ADD PUSH1 0x40 MLOAD SWAP1 DUP2 ADD PUSH1 0x40 MSTORE DUP1 SWAP3 SWAP2 SWAP1 DUP2 DUP2 MSTORE PUSH1 0x20 ADD DUP3 DUP1 SLOAD PUSH2 0x7C3 SWAP1 PUSH2 0x1E8E JUMP JUMPDEST DUP1 ISZERO PUSH2 0x810 JUMPI DUP1 PUSH1 0x1F LT PUSH2 0x7E5 JUMPI PUSH2 0x100 DUP1 DUP4 SLOAD DIV MUL DUP4 MSTORE SWAP2 PUSH1 0x20 ADD SWAP2 PUSH2 0x810 JUMP JUMPDEST DUP3 ADD SWAP2 SWAP1 PUSH1 0x0 MSTORE PUSH1 0x20 PUSH1 0x0 KECCAK256 SWAP1 JUMPDEST DUP2 SLOAD DUP2 MSTORE SWAP1 PUSH1 0x1 ADD SWAP1 PUSH1 0x20 ADD DUP1 DUP4 GT PUSH2 0x7F3 JUMPI DUP3 SWAP1 SUB PUSH1 0x1F AND DUP3 ADD SWAP2 JUMPDEST POP POP POP POP POP DUP2 MSTORE PUSH1 0x20 ADD PUSH1 0x4 DUP3 ADD DUP1 SLOAD PUSH2 0x829 SWAP1 PUSH2 0x1E8E JUMP JUMPDEST DUP1 PUSH1 0x1F ADD PUSH1 0x20 DUP1 SWAP2 DIV MUL PUSH1 0x20 ADD PUSH1 0x40 MLOAD SWAP1 DUP2 ADD PUSH1 0x40 MSTORE DUP1 SWAP3 SWAP2 SWAP1 DUP2 DUP2 MSTORE PUSH1 0x20 ADD DUP3 DUP1 SLOAD PUSH2 0x855 SWAP1 PUSH2 0x1E8E JUMP JUMPDEST DUP1 ISZERO PUSH2 0x8A2 JUMPI DUP1 PUSH1 0x1F LT PUSH2 0x877 JUMPI PUSH2 0x100 DUP1 DUP4 SLOAD DIV MUL DUP4 MSTORE SWAP2 PUSH1 0x20 ADD SWAP2 PUSH2 0x8A2 JUMP JUMPDEST DUP3 ADD SWAP2 SWAP1 PUSH1 0x0 MSTORE PUSH1 0x20 PUSH1 0x0 KECCAK256 SWAP1 JUMPDEST DUP2 SLOAD DUP2 MSTORE SWAP1 PUSH1 0x1 ADD SWAP1 PUSH1 0x20 ADD DUP1 DUP4 GT PUSH2 0x885 JUMPI DUP3 SWAP1 SUB PUSH1 0x1F AND DUP3 ADD SWAP2 JUMPDEST POP POP POP POP POP DUP2 MSTORE PUSH1 0x20 ADD PUSH1 0x5 DUP3 ADD DUP1 SLOAD PUSH2 0x8BB SWAP1 PUSH2 0x1E8E JUMP JUMPDEST DUP1 PUSH1 0x1F ADD PUSH1 0x20 DUP1 SWAP2 DIV MUL PUSH1 0x20 ADD PUSH1 0x40 MLOAD SWAP1 DUP2 ADD PUSH1 0x40 MSTORE DUP1 SWAP3 SWAP2 SWAP1 DUP2 DUP2 MSTORE PUSH1 0x20 ADD DUP3 DUP1 SLOAD PUSH2 0x8E7 SWAP1 PUSH2 0x1E8E JUMP JUMPDEST DUP1 ISZERO PUSH2 0x934 JUMPI DUP1 PUSH1 0x1F LT PUSH2 0x909 JUMPI PUSH2 0x100 DUP1 DUP4 SLOAD DIV MUL DUP4 MSTORE SWAP2 PUSH1 0x20 ADD SWAP2 PUSH2 0x934 JUMP JUMPDEST DUP3 ADD SWAP2 SWAP1 PUSH1 0x0 MSTORE PUSH1 0x20 PUSH1 0x0 KECCAK256 SWAP1 JUMPDEST DUP2 SLOAD DUP2 MSTORE SWAP1 PUSH1 0x1 ADD SWAP1 PUSH1 0x20 ADD DUP1 DUP4 GT PUSH2 0x917 JUMPI DUP3 SWAP1 SUB PUSH1 0x1F AND DUP3 ADD SWAP2 JUMPDEST POP POP POP POP POP DUP2 MSTORE PUSH1 0x20 ADD PUSH1 0x6 DUP3 ADD PUSH1 0x0 SWAP1 SLOAD SWAP1 PUSH2 0x100 EXP SWAP1 DIV PUSH1 0xFF AND PUSH1 0xFF AND PUSH1 0xFF AND DUP2 MSTORE PUSH1 0x20 ADD PUSH1 0x7 DUP3 ADD SLOAD DUP2 MSTORE PUSH1 0x20 ADD PUSH1 0x8 DUP3 ADD SLOAD DUP2 MSTORE POP POP SWAP1 POP DUP1 SWAP6 POP POP POP POP POP POP SWAP2 SWAP1 POP JUMP JUMPDEST PUSH1 0x0 DUP1 PUSH1 0x0 SWAP1 SLOAD SWAP1 PUSH2 0x100 EXP SWAP1 DIV PUSH20 0xFFFFFFFFFFFFFFFFFFFFFFFFFFFFFFFFFFFFFFFF AND SWAP1 POP SWAP1 JUMP JUMPDEST DUP1 CALLVALUE EQ PUSH2 0x9B2 JUMPI PUSH1 0x0 DUP1 REVERT JUMPDEST PUSH1 0x0 DUP3 DUP3 PUSH2 0x9C0 SWAP2 SWAP1 PUSH2 0x1E2E JUMP JUMPDEST EQ PUSH2 0x9CA JUMPI PUSH1 0x0 DUP1 REVERT JUMPDEST DUP2 DUP2 GT PUSH2 0x9D6 JUMPI PUSH1 0x0 DUP1 REVERT JUMPDEST PUSH2 0x9E8 DUP11 DUP11 DUP11 DUP11 DUP11 DUP11 DUP11 DUP11 DUP11 DUP11 PUSH2 0x114B JUMP JUMPDEST POP POP POP POP POP POP POP POP POP POP JUMP JUMPDEST PUSH2 0x9FC PUSH2 0x13A4 JUMP JUMPDEST PUSH1 0x0 DUP3 CALLER PUSH20 0xFFFFFFFFFFFFFFFFFFFFFFFFFFFFFFFFFFFFFFFF AND PUSH1 0x4 PUSH1 0x0 DUP4 DUP2 MSTORE PUSH1 0x20 ADD SWAP1 DUP2 MSTORE PUSH1 0x20 ADD PUSH1 0x0 KECCAK256 PUSH1 0x0 SWAP1 SLOAD SWAP1 PUSH2 0x100 EXP SWAP1 DIV PUSH20 0xFFFFFFFFFFFFFFFFFFFFFFFFFFFFFFFFFFFFFFFF AND PUSH20 0xFFFFFFFFFFFFFFFFFFFFFFFFFFFFFFFFFFFFFFFF AND EQ PUSH2 0xA6A JUMPI PUSH1 0x0 DUP1 REVERT JUMPDEST PUSH32 0x1A74486300338CCFC1D22EBC3073195695D7BB84C8326394EA4E38AB4FEAD21F PUSH1 0x1 DUP6 DUP2 SLOAD DUP2 LT PUSH2 0xA9F JUMPI PUSH2 0xA9E PUSH2 0x1C7B JUMP JUMPDEST JUMPDEST SWAP1 PUSH1 0x0 MSTORE PUSH1 0x20 PUSH1 0x0 KECCAK256 SWAP1 PUSH1 0x9 MUL ADD PUSH1 0x3 PUSH1 0x0 DUP8 DUP2 MSTORE PUSH1 0x20 ADD SWAP1 DUP2 MSTORE PUSH1 0x20 ADD PUSH1 0x0 KECCAK256 PUSH1 0x0 SWAP1 SLOAD SWAP1 PUSH2 0x100 EXP SWAP1 DIV PUSH1 0xFF AND PUSH1 0x40 MLOAD PUSH2 0xADC SWAP3 SWAP2 SWAP1 PUSH2 0x20B0 JUMP JUMPDEST PUSH1 0x40 MLOAD DUP1 SWAP2 SUB SWAP1 LOG1 PUSH1 0x1 DUP5 DUP2 SLOAD DUP2 LT PUSH2 0xAF8 JUMPI PUSH2 0xAF7 PUSH2 0x1C7B JUMP JUMPDEST JUMPDEST SWAP1 PUSH1 0x0 MSTORE PUSH1 0x20 PUSH1 0x0 KECCAK256 SWAP1 PUSH1 0x9 MUL ADD PUSH1 0x3 PUSH1 0x0 DUP7 DUP2 MSTORE PUSH1 0x20 ADD SWAP1 DUP2 MSTORE PUSH1 0x20 ADD PUSH1 0x0 KECCAK256 PUSH1 0x0 SWAP1 SLOAD SWAP1 PUSH2 0x100 EXP SWAP1 DIV PUSH1 0xFF AND DUP2 PUSH1 0x40 MLOAD DUP1 PUSH2 0x120 ADD PUSH1 0x40 MSTORE SWAP1 DUP2 PUSH1 0x0 DUP3 ADD DUP1 SLOAD PUSH2 0xB44 SWAP1 PUSH2 0x1E8E JUMP JUMPDEST DUP1 PUSH1 0x1F ADD PUSH1 0x20 DUP1 SWAP2 DIV MUL PUSH1 0x20 ADD PUSH1 0x40 MLOAD SWAP1 DUP2 ADD PUSH1 0x40 MSTORE DUP1 SWAP3 SWAP2 SWAP1 DUP2 DUP2 MSTORE PUSH1 0x20 ADD DUP3 DUP1 SLOAD PUSH2 0xB70 SWAP1 PUSH2 0x1E8E JUMP JUMPDEST DUP1 ISZERO PUSH2 0xBBD JUMPI DUP1 PUSH1 0x1F LT PUSH2 0xB92 JUMPI PUSH2 0x100 DUP1 DUP4 SLOAD DIV MUL DUP4 MSTORE SWAP2 PUSH1 0x20 ADD SWAP2 PUSH2 0xBBD JUMP JUMPDEST DUP3 ADD SWAP2 SWAP1 PUSH1 0x0 MSTORE PUSH1 0x20 PUSH1 0x0 KECCAK256 SWAP1 JUMPDEST DUP2 SLOAD DUP2 MSTORE SWAP1 PUSH1 0x1 ADD SWAP1 PUSH1 0x20 ADD DUP1 DUP4 GT PUSH2 0xBA0 JUMPI DUP3 SWAP1 SUB PUSH1 0x1F AND DUP3 ADD SWAP2 JUMPDEST POP POP POP POP POP DUP2 MSTORE PUSH1 0x20 ADD PUSH1 0x1 DUP3 ADD DUP1 SLOAD PUSH2 0xBD6 SWAP1 PUSH2 0x1E8E JUMP JUMPDEST DUP1 PUSH1 0x1F ADD PUSH1 0x20 DUP1 SWAP2 DIV MUL PUSH1 0x20 ADD PUSH1 0x40 MLOAD SWAP1 DUP2 ADD PUSH1 0x40 MSTORE DUP1 SWAP3 SWAP2 SWAP1 DUP2 DUP2 MSTORE PUSH1 0x20 ADD DUP3 DUP1 SLOAD PUSH2 0xC02 SWAP1 PUSH2 0x1E8E JUMP JUMPDEST DUP1 ISZERO PUSH2 0xC4F JUMPI DUP1 PUSH1 0x1F LT PUSH2 0xC24 JUMPI PUSH2 0x100 DUP1 DUP4 SLOAD DIV MUL DUP4 MSTORE SWAP2 PUSH1 0x20 ADD SWAP2 PUSH2 0xC4F JUMP JUMPDEST DUP3 ADD SWAP2 SWAP1 PUSH1 0x0 MSTORE PUSH1 0x20 PUSH1 0x0 KECCAK256 SWAP1 JUMPDEST DUP2 SLOAD DUP2 MSTORE SWAP1 PUSH1 0x1 ADD SWAP1 PUSH1 0x20 ADD DUP1 DUP4 GT PUSH2 0xC32 JUMPI DUP3 SWAP1 SUB PUSH1 0x1F AND DUP3 ADD SWAP2 JUMPDEST POP POP POP POP POP DUP2 MSTORE PUSH1 0x20 ADD PUSH1 0x2 DUP3 ADD DUP1 SLOAD PUSH2 0xC68 SWAP1 PUSH2 0x1E8E JUMP JUMPDEST DUP1 PUSH1 0x1F ADD PUSH1 0x20 DUP1 SWAP2 DIV MUL PUSH1 0x20 ADD PUSH1 0x40 MLOAD SWAP1 DUP2 ADD PUSH1 0x40 MSTORE DUP1 SWAP3 SWAP2 SWAP1 DUP2 DUP2 MSTORE PUSH1 0x20 ADD DUP3 DUP1 SLOAD PUSH2 0xC94 SWAP1 PUSH2 0x1E8E JUMP JUMPDEST DUP1 ISZERO PUSH2 0xCE1 JUMPI DUP1 PUSH1 0x1F LT PUSH2 0xCB6 JUMPI PUSH2 0x100 DUP1 DUP4 SLOAD DIV MUL DUP4 MSTORE SWAP2 PUSH1 0x20 ADD SWAP2 PUSH2 0xCE1 JUMP JUMPDEST DUP3 ADD SWAP2 SWAP1 PUSH1 0x0 MSTORE PUSH1 0x20 PUSH1 0x0 KECCAK256 SWAP1 JUMPDEST DUP2 SLOAD DUP2 MSTORE SWAP1 PUSH1 0x1 ADD SWAP1 PUSH1 0x20 ADD DUP1 DUP4 GT PUSH2 0xCC4 JUMPI DUP3 SWAP1 SUB PUSH1 0x1F AND DUP3 ADD SWAP2 JUMPDEST POP POP POP POP POP DUP2 MSTORE PUSH1 0x20 ADD PUSH1 0x3 DUP3 ADD DUP1 SLOAD PUSH2 0xCFA SWAP1 PUSH2 0x1E8E JUMP JUMPDEST DUP1 PUSH1 0x1F ADD PUSH1 0x20 DUP1 SWAP2 DIV MUL PUSH1 0x20 ADD PUSH1 0x40 MLOAD SWAP1 DUP2 ADD PUSH1 0x40 MSTORE DUP1 SWAP3 SWAP2 SWAP1 DUP2 DUP2 MSTORE PUSH1 0x20 ADD DUP3 DUP1 SLOAD PUSH2 0xD26 SWAP1 PUSH2 0x1E8E JUMP JUMPDEST DUP1 ISZERO PUSH2 0xD73 JUMPI DUP1 PUSH1 0x1F LT PUSH2 0xD48 JUMPI PUSH2 0x100 DUP1 DUP4 SLOAD DIV MUL DUP4 MSTORE SWAP2 PUSH1 0x20 ADD SWAP2 PUSH2 0xD73 JUMP JUMPDEST DUP3 ADD SWAP2 SWAP1 PUSH1 0x0 MSTORE PUSH1 0x20 PUSH1 0x0 KECCAK256 SWAP1 JUMPDEST DUP2 SLOAD DUP2 MSTORE SWAP1 PUSH1 0x1 ADD SWAP1 PUSH1 0x20 ADD DUP1 DUP4 GT PUSH2 0xD56 JUMPI DUP3 SWAP1 SUB PUSH1 0x1F AND DUP3 ADD SWAP2 JUMPDEST POP POP POP POP POP DUP2 MSTORE PUSH1 0x20 ADD PUSH1 0x4 DUP3 ADD DUP1 SLOAD PUSH2 0xD8C SWAP1 PUSH2 0x1E8E JUMP JUMPDEST DUP1 PUSH1 0x1F ADD PUSH1 0x20 DUP1 SWAP2 DIV MUL PUSH1 0x20 ADD PUSH1 0x40 MLOAD SWAP1 DUP2 ADD PUSH1 0x40 MSTORE DUP1 SWAP3 SWAP2 SWAP1 DUP2 DUP2 MSTORE PUSH1 0x20 ADD DUP3 DUP1 SLOAD PUSH2 0xDB8 SWAP1 PUSH2 0x1E8E JUMP JUMPDEST DUP1 ISZERO PUSH2 0xE05 JUMPI DUP1 PUSH1 0x1F LT PUSH2 0xDDA JUMPI PUSH2 0x100 DUP1 DUP4 SLOAD DIV MUL DUP4 MSTORE SWAP2 PUSH1 0x20 ADD SWAP2 PUSH2 0xE05 JUMP JUMPDEST DUP3 ADD SWAP2 SWAP1 PUSH1 0x0 MSTORE PUSH1 0x20 PUSH1 0x0 KECCAK256 SWAP1 JUMPDEST DUP2 SLOAD DUP2 MSTORE SWAP1 PUSH1 0x1 ADD SWAP1 PUSH1 0x20 ADD DUP1 DUP4 GT PUSH2 0xDE8 JUMPI DUP3 SWAP1 SUB PUSH1 0x1F AND DUP3 ADD SWAP2 JUMPDEST POP POP POP POP POP DUP2 MSTORE PUSH1 0x20 ADD PUSH1 0x5 DUP3 ADD DUP1 SLOAD PUSH2 0xE1E SWAP1 PUSH2 0x1E8E JUMP JUMPDEST DUP1 PUSH1 0x1F ADD PUSH1 0x20 DUP1 SWAP2 DIV MUL PUSH1 0x20 ADD PUSH1 0x40 MLOAD SWAP1 DUP2 ADD PUSH1 0x40 MSTORE DUP1 SWAP3 SWAP2 SWAP1 DUP2 DUP2 MSTORE PUSH1 0x20 ADD DUP3 DUP1 SLOAD PUSH2 0xE4A SWAP1 PUSH2 0x1E8E JUMP JUMPDEST DUP1 ISZERO PUSH2 0xE97 JUMPI DUP1 PUSH1 0x1F LT PUSH2 0xE6C JUMPI PUSH2 0x100 DUP1 DUP4 SLOAD DIV MUL DUP4 MSTORE SWAP2 PUSH1 0x20 ADD SWAP2 PUSH2 0xE97 JUMP JUMPDEST DUP3 ADD SWAP2 SWAP1 PUSH1 0x0 MSTORE PUSH1 0x20 PUSH1 0x0 KECCAK256 SWAP1 JUMPDEST DUP2 SLOAD DUP2 MSTORE SWAP1 PUSH1 0x1 ADD SWAP1 PUSH1 0x20 ADD DUP1 DUP4 GT PUSH2 0xE7A JUMPI DUP3 SWAP1 SUB PUSH1 0x1F AND DUP3 ADD SWAP2 JUMPDEST POP POP POP POP POP DUP2 MSTORE PUSH1 0x20 ADD PUSH1 0x6 DUP3 ADD PUSH1 0x0 SWAP1 SLOAD SWAP1 PUSH2 0x100 EXP SWAP1 DIV PUSH1 0xFF AND PUSH1 0xFF AND PUSH1 0xFF AND DUP2 MSTORE PUSH1 0x20 ADD PUSH1 0x7 DUP3 ADD SLOAD DUP2 MSTORE PUSH1 0x20 ADD PUSH1 0x8 DUP3 ADD SLOAD DUP2 MSTORE POP POP SWAP2 POP SWAP3 POP SWAP3 POP POP SWAP2 POP SWAP2 JUMP JUMPDEST PUSH2 0xEE5 PUSH2 0x107F JUMP JUMPDEST PUSH20 0xFFFFFFFFFFFFFFFFFFFFFFFFFFFFFFFFFFFFFFFF AND PUSH2 0xF03 PUSH2 0x97D JUMP JUMPDEST PUSH20 0xFFFFFFFFFFFFFFFFFFFFFFFFFFFFFFFFFFFFFFFF AND EQ PUSH2 0xF59 JUMPI PUSH1 0x40 MLOAD PUSH32 0x8C379A000000000000000000000000000000000000000000000000000000000 DUP2 MSTORE PUSH1 0x4 ADD PUSH2 0xF50 SWAP1 PUSH2 0x1C5B JUMP JUMPDEST PUSH1 0x40 MLOAD DUP1 SWAP2 SUB SWAP1 REVERT JUMPDEST PUSH1 0x0 PUSH20 0xFFFFFFFFFFFFFFFFFFFFFFFFFFFFFFFFFFFFFFFF AND DUP2 PUSH20 0xFFFFFFFFFFFFFFFFFFFFFFFFFFFFFFFFFFFFFFFF AND SUB PUSH2 0xFC8 JUMPI PUSH1 0x40 MLOAD PUSH32 0x8C379A000000000000000000000000000000000000000000000000000000000 DUP2 MSTORE PUSH1 0x4 ADD PUSH2 0xFBF SWAP1 PUSH2 0x2152 JUMP JUMPDEST PUSH1 0x40 MLOAD DUP1 SWAP2 SUB SWAP1 REVERT JUMPDEST PUSH2 0xFD1 DUP2 PUSH2 0x1087 JUMP JUMPDEST POP JUMP JUMPDEST DUP2 CALLER PUSH20 0xFFFFFFFFFFFFFFFFFFFFFFFFFFFFFFFFFFFFFFFF AND PUSH1 0x4 PUSH1 0x0 DUP4 DUP2 MSTORE PUSH1 0x20 ADD SWAP1 DUP2 MSTORE PUSH1 0x20 ADD PUSH1 0x0 KECCAK256 PUSH1 0x0 SWAP1 SLOAD SWAP1 PUSH2 0x100 EXP SWAP1 DIV PUSH20 0xFFFFFFFFFFFFFFFFFFFFFFFFFFFFFFFFFFFFFFFF AND PUSH20 0xFFFFFFFFFFFFFFFFFFFFFFFFFFFFFFFFFFFFFFFF AND EQ PUSH2 0x1040 JUMPI PUSH1 0x0 DUP1 REVERT JUMPDEST DUP2 PUSH1 0x1 DUP5 DUP2 SLOAD DUP2 LT PUSH2 0x1055 JUMPI PUSH2 0x1054 PUSH2 0x1C7B JUMP JUMPDEST JUMPDEST SWAP1 PUSH1 0x0 MSTORE PUSH1 0x20 PUSH1 0x0 KECCAK256 SWAP1 PUSH1 0x9 MUL ADD PUSH1 0x5 ADD SWAP1 DUP1 MLOAD SWAP1 PUSH1 0x20 ADD SWAP1 PUSH2 0x1079 SWAP3 SWAP2 SWAP1 PUSH2 0x13F3 JUMP JUMPDEST POP POP POP POP JUMP JUMPDEST PUSH1 0x0 CALLER SWAP1 POP SWAP1 JUMP JUMPDEST PUSH1 0x0 DUP1 PUSH1 0x0 SWAP1 SLOAD SWAP1 PUSH2 0x100 EXP SWAP1 DIV PUSH20 0xFFFFFFFFFFFFFFFFFFFFFFFFFFFFFFFFFFFFFFFF AND SWAP1 POP DUP2 PUSH1 0x0 DUP1 PUSH2 0x100 EXP DUP2 SLOAD DUP2 PUSH20 0xFFFFFFFFFFFFFFFFFFFFFFFFFFFFFFFFFFFFFFFF MUL NOT AND SWAP1 DUP4 PUSH20 0xFFFFFFFFFFFFFFFFFFFFFFFFFFFFFFFFFFFFFFFF AND MUL OR SWAP1 SSTORE POP DUP2 PUSH20 0xFFFFFFFFFFFFFFFFFFFFFFFFFFFFFFFFFFFFFFFF AND DUP2 PUSH20 0xFFFFFFFFFFFFFFFFFFFFFFFFFFFFFFFFFFFFFFFF AND PUSH32 0x8BE0079C531659141344CD1FD0A4F28419497F9722A3DAAFE3B4186F6B6457E0 PUSH1 0x40 MLOAD PUSH1 0x40 MLOAD DUP1 SWAP2 SUB SWAP1 LOG3 POP POP JUMP JUMPDEST PUSH1 0x1 PUSH1 0x40 MLOAD DUP1 PUSH2 0x120 ADD PUSH1 0x40 MSTORE DUP1 DUP13 DUP2 MSTORE PUSH1 0x20 ADD DUP12 DUP2 MSTORE PUSH1 0x20 ADD DUP11 DUP2 MSTORE PUSH1 0x20 ADD DUP10 DUP2 MSTORE PUSH1 0x20 ADD DUP9 DUP2 MSTORE PUSH1 0x20 ADD DUP8 DUP2 MSTORE PUSH1 0x20 ADD DUP6 PUSH1 0xFF AND DUP2 MSTORE PUSH1 0x20 ADD DUP5 DUP2 MSTORE PUSH1 0x20 ADD DUP4 DUP2 MSTORE POP SWAP1 DUP1 PUSH1 0x1 DUP2 SLOAD ADD DUP1 DUP3 SSTORE DUP1 SWAP2 POP POP PUSH1 0x1 SWAP1 SUB SWAP1 PUSH1 0x0 MSTORE PUSH1 0x20 PUSH1 0x0 KECCAK256 SWAP1 PUSH1 0x9 MUL ADD PUSH1 0x0 SWAP1 SWAP2 SWAP1 SWAP2 SWAP1 SWAP2 POP PUSH1 0x0 DUP3 ADD MLOAD DUP2 PUSH1 0x0 ADD SWAP1 DUP1 MLOAD SWAP1 PUSH1 0x20 ADD SWAP1 PUSH2 0x11D5 SWAP3 SWAP2 SWAP1 PUSH2 0x13F3 JUMP JUMPDEST POP PUSH1 0x20 DUP3 ADD MLOAD DUP2 PUSH1 0x1 ADD SWAP1 DUP1 MLOAD SWAP1 PUSH1 0x20 ADD SWAP1 PUSH2 0x11F2 SWAP3 SWAP2 SWAP1 PUSH2 0x13F3 JUMP JUMPDEST POP PUSH1 0x40 DUP3 ADD MLOAD DUP2 PUSH1 0x2 ADD SWAP1 DUP1 MLOAD SWAP1 PUSH1 0x20 ADD SWAP1 PUSH2 0x120F SWAP3 SWAP2 SWAP1 PUSH2 0x13F3 JUMP JUMPDEST POP PUSH1 0x60 DUP3 ADD MLOAD DUP2 PUSH1 0x3 ADD SWAP1 DUP1 MLOAD SWAP1 PUSH1 0x20 ADD SWAP1 PUSH2 0x122C SWAP3 SWAP2 SWAP1 PUSH2 0x13F3 JUMP JUMPDEST POP PUSH1 0x80 DUP3 ADD MLOAD DUP2 PUSH1 0x4 ADD SWAP1 DUP1 MLOAD SWAP1 PUSH1 0x20 ADD SWAP1 PUSH2 0x1249 SWAP3 SWAP2 SWAP1 PUSH2 0x13F3 JUMP JUMPDEST POP PUSH1 0xA0 DUP3 ADD MLOAD DUP2 PUSH1 0x5 ADD SWAP1 DUP1 MLOAD SWAP1 PUSH1 0x20 ADD SWAP1 PUSH2 0x1266 SWAP3 SWAP2 SWAP1 PUSH2 0x13F3 JUMP JUMPDEST POP PUSH1 0xC0 DUP3 ADD MLOAD DUP2 PUSH1 0x6 ADD PUSH1 0x0 PUSH2 0x100 EXP DUP2 SLOAD DUP2 PUSH1 0xFF MUL NOT AND SWAP1 DUP4 PUSH1 0xFF AND MUL OR SWAP1 SSTORE POP PUSH1 0xE0 DUP3 ADD MLOAD DUP2 PUSH1 0x7 ADD SSTORE PUSH2 0x100 DUP3 ADD MLOAD DUP2 PUSH1 0x8 ADD SSTORE POP POP PUSH1 0x0 PUSH1 0x1 DUP1 DUP1 SLOAD SWAP1 POP PUSH2 0x12B2 SWAP2 SWAP1 PUSH2 0x2172 JUMP JUMPDEST SWAP1 POP DUP5 PUSH1 0x3 PUSH1 0x0 DUP4 DUP2 MSTORE PUSH1 0x20 ADD SWAP1 DUP2 MSTORE PUSH1 0x20 ADD PUSH1 0x0 KECCAK256 PUSH1 0x0 PUSH2 0x100 EXP DUP2 SLOAD DUP2 PUSH1 0xFF MUL NOT AND SWAP1 DUP4 PUSH1 0xFF AND MUL OR SWAP1 SSTORE POP CALLER PUSH1 0x4 PUSH1 0x0 DUP4 DUP2 MSTORE PUSH1 0x20 ADD SWAP1 DUP2 MSTORE PUSH1 0x20 ADD PUSH1 0x0 KECCAK256 PUSH1 0x0 PUSH2 0x100 EXP DUP2 SLOAD DUP2 PUSH20 0xFFFFFFFFFFFFFFFFFFFFFFFFFFFFFFFFFFFFFFFF MUL NOT AND SWAP1 DUP4 PUSH20 0xFFFFFFFFFFFFFFFFFFFFFFFFFFFFFFFFFFFFFFFF AND MUL OR SWAP1 SSTORE POP PUSH1 0x1 PUSH1 0x2 PUSH1 0x0 DUP4 DUP2 MSTORE PUSH1 0x20 ADD SWAP1 DUP2 MSTORE PUSH1 0x20 ADD PUSH1 0x0 KECCAK256 PUSH1 0x0 PUSH2 0x100 EXP DUP2 SLOAD DUP2 PUSH1 0xFF MUL NOT AND SWAP1 DUP4 ISZERO ISZERO MUL OR SWAP1 SSTORE POP PUSH32 0x545DCA5D847B655A9F03CDF5619F53F0B2546051FD0D015B18C09AE2A8B1A765 DUP12 DUP7 PUSH1 0x40 MLOAD PUSH2 0x138F SWAP3 SWAP2 SWAP1 PUSH2 0x21DF JUMP JUMPDEST PUSH1 0x40 MLOAD DUP1 SWAP2 SUB SWAP1 LOG1 POP POP POP POP POP POP POP POP POP POP POP JUMP JUMPDEST PUSH1 0x40 MLOAD DUP1 PUSH2 0x120 ADD PUSH1 0x40 MSTORE DUP1 PUSH1 0x60 DUP2 MSTORE PUSH1 0x20 ADD PUSH1 0x60 DUP2 MSTORE PUSH1 0x20 ADD PUSH1 0x60 DUP2 MSTORE PUSH1 0x20 ADD PUSH1 0x60 DUP2 MSTORE PUSH1 0x20 ADD PUSH1 0x60 DUP2 MSTORE PUSH1 0x20 ADD PUSH1 0x60 DUP2 MSTORE PUSH1 0x20 ADD PUSH1 0x0 PUSH1 0xFF AND DUP2 MSTORE PUSH1 0x20 ADD PUSH1 0x0 DUP2 MSTORE PUSH1 0x20 ADD PUSH1 0x0 DUP2 MSTORE POP SWAP1 JUMP JUMPDEST DUP3 DUP1 SLOAD PUSH2 0x13FF SWAP1 PUSH2 0x1E8E JUMP JUMPDEST SWAP1 PUSH1 0x0 MSTORE PUSH1 0x20 PUSH1 0x0 KECCAK256 SWAP1 PUSH1 0x1F ADD PUSH1 0x20 SWAP1 DIV DUP2 ADD SWAP3 DUP3 PUSH2 0x1421 JUMPI PUSH1 0x0 DUP6 SSTORE PUSH2 0x1468 JUMP JUMPDEST DUP3 PUSH1 0x1F LT PUSH2 0x143A JUMPI DUP1 MLOAD PUSH1 0xFF NOT AND DUP4 DUP1 ADD OR DUP6 SSTORE PUSH2 0x1468 JUMP JUMPDEST DUP3 DUP1 ADD PUSH1 0x1 ADD DUP6 SSTORE DUP3 ISZERO PUSH2 0x1468 JUMPI SWAP2 DUP3 ADD JUMPDEST DUP3 DUP2 GT ISZERO PUSH2 0x1467 JUMPI DUP3 MLOAD DUP3 SSTORE SWAP2 PUSH1 0x20 ADD SWAP2 SWAP1 PUSH1 0x1 ADD SWAP1 PUSH2 0x144C JUMP JUMPDEST JUMPDEST POP SWAP1 POP PUSH2 0x1475 SWAP2 SWAP1 PUSH2 0x1479 JUMP JUMPDEST POP SWAP1 JUMP JUMPDEST JUMPDEST DUP1 DUP3 GT ISZERO PUSH2 0x1492 JUMPI PUSH1 0x0 DUP2 PUSH1 0x0 SWAP1 SSTORE POP PUSH1 0x1 ADD PUSH2 0x147A JUMP JUMPDEST POP SWAP1 JUMP JUMPDEST PUSH1 0x0 PUSH1 0x40 MLOAD SWAP1 POP SWAP1 JUMP JUMPDEST PUSH1 0x0 DUP1 REVERT JUMPDEST PUSH1 0x0 DUP1 REVERT JUMPDEST PUSH1 0x0 DUP2 SWAP1 POP SWAP2 SWAP1 POP JUMP JUMPDEST PUSH2 0x14BD DUP2 PUSH2 0x14AA JUMP JUMPDEST DUP2 EQ PUSH2 0x14C8 JUMPI PUSH1 0x0 DUP1 REVERT JUMPDEST POP JUMP JUMPDEST PUSH1 0x0 DUP2 CALLDATALOAD SWAP1 POP PUSH2 0x14DA DUP2 PUSH2 0x14B4 JUMP JUMPDEST SWAP3 SWAP2 POP POP JUMP JUMPDEST PUSH1 0x0 DUP2 ISZERO ISZERO SWAP1 POP SWAP2 SWAP1 POP JUMP JUMPDEST PUSH2 0x14F5 DUP2 PUSH2 0x14E0 JUMP JUMPDEST DUP2 EQ PUSH2 0x1500 JUMPI PUSH1 0x0 DUP1 REVERT JUMPDEST POP JUMP JUMPDEST PUSH1 0x0 DUP2 CALLDATALOAD SWAP1 POP PUSH2 0x1512 DUP2 PUSH2 0x14EC JUMP JUMPDEST SWAP3 SWAP2 POP POP JUMP JUMPDEST PUSH1 0x0 DUP1 PUSH1 0x40 DUP4 DUP6 SUB SLT ISZERO PUSH2 0x152F JUMPI PUSH2 0x152E PUSH2 0x14A0 JUMP JUMPDEST JUMPDEST PUSH1 0x0 PUSH2 0x153D DUP6 DUP3 DUP7 ADD PUSH2 0x14CB JUMP JUMPDEST SWAP3 POP POP PUSH1 0x20 PUSH2 0x154E DUP6 DUP3 DUP7 ADD PUSH2 0x1503 JUMP JUMPDEST SWAP2 POP POP SWAP3 POP SWAP3 SWAP1 POP JUMP JUMPDEST PUSH1 0x0 PUSH1 0x20 DUP3 DUP5 SUB SLT ISZERO PUSH2 0x156E JUMPI PUSH2 0x156D PUSH2 0x14A0 JUMP JUMPDEST JUMPDEST PUSH1 0x0 PUSH2 0x157C DUP5 DUP3 DUP6 ADD PUSH2 0x14CB JUMP JUMPDEST SWAP2 POP POP SWAP3 SWAP2 POP POP JUMP JUMPDEST PUSH1 0x0 PUSH20 0xFFFFFFFFFFFFFFFFFFFFFFFFFFFFFFFFFFFFFFFF DUP3 AND SWAP1 POP SWAP2 SWAP1 POP JUMP JUMPDEST PUSH1 0x0 PUSH2 0x15B0 DUP3 PUSH2 0x1585 JUMP JUMPDEST SWAP1 POP SWAP2 SWAP1 POP JUMP JUMPDEST PUSH2 0x15C0 DUP2 PUSH2 0x15A5 JUMP JUMPDEST DUP3 MSTORE POP POP JUMP JUMPDEST PUSH1 0x0 PUSH1 0x20 DUP3 ADD SWAP1 POP PUSH2 0x15DB PUSH1 0x0 DUP4 ADD DUP5 PUSH2 0x15B7 JUMP JUMPDEST SWAP3 SWAP2 POP POP JUMP JUMPDEST PUSH2 0x15EA DUP2 PUSH2 0x14E0 JUMP JUMPDEST DUP3 MSTORE POP POP JUMP JUMPDEST PUSH1 0x0 PUSH1 0x20 DUP3 ADD SWAP1 POP PUSH2 0x1605 PUSH1 0x0 DUP4 ADD DUP5 PUSH2 0x15E1 JUMP JUMPDEST SWAP3 SWAP2 POP POP JUMP JUMPDEST PUSH1 0x0 DUP1 REVERT JUMPDEST PUSH1 0x0 DUP1 REVERT JUMPDEST PUSH1 0x0 PUSH1 0x1F NOT PUSH1 0x1F DUP4 ADD AND SWAP1 POP SWAP2 SWAP1 POP JUMP JUMPDEST PUSH32 0x4E487B7100000000000000000000000000000000000000000000000000000000 PUSH1 0x0 MSTORE PUSH1 0x41 PUSH1 0x4 MSTORE PUSH1 0x24 PUSH1 0x0 REVERT JUMPDEST PUSH2 0x165E DUP3 PUSH2 0x1615 JUMP JUMPDEST DUP2 ADD DUP2 DUP2 LT PUSH8 0xFFFFFFFFFFFFFFFF DUP3 GT OR ISZERO PUSH2 0x167D JUMPI PUSH2 0x167C PUSH2 0x1626 JUMP JUMPDEST JUMPDEST DUP1 PUSH1 0x40 MSTORE POP POP POP JUMP JUMPDEST PUSH1 0x0 PUSH2 0x1690 PUSH2 0x1496 JUMP JUMPDEST SWAP1 POP PUSH2 0x169C DUP3 DUP3 PUSH2 0x1655 JUMP JUMPDEST SWAP2 SWAP1 POP JUMP JUMPDEST PUSH1 0x0 PUSH8 0xFFFFFFFFFFFFFFFF DUP3 GT ISZERO PUSH2 0x16BC JUMPI PUSH2 0x16BB PUSH2 0x1626 JUMP JUMPDEST JUMPDEST PUSH2 0x16C5 DUP3 PUSH2 0x1615 JUMP JUMPDEST SWAP1 POP PUSH1 0x20 DUP2 ADD SWAP1 POP SWAP2 SWAP1 POP JUMP JUMPDEST DUP3 DUP2 DUP4 CALLDATACOPY PUSH1 0x0 DUP4 DUP4 ADD MSTORE POP POP POP JUMP JUMPDEST PUSH1 0x0 PUSH2 0x16F4 PUSH2 0x16EF DUP5 PUSH2 0x16A1 JUMP JUMPDEST PUSH2 0x1686 JUMP JUMPDEST SWAP1 POP DUP3 DUP2 MSTORE PUSH1 0x20 DUP2 ADD DUP5 DUP5 DUP5 ADD GT ISZERO PUSH2 0x1710 JUMPI PUSH2 0x170F PUSH2 0x1610 JUMP JUMPDEST JUMPDEST PUSH2 0x171B DUP5 DUP3 DUP6 PUSH2 0x16D2 JUMP JUMPDEST POP SWAP4 SWAP3 POP POP POP JUMP JUMPDEST PUSH1 0x0 DUP3 PUSH1 0x1F DUP4 ADD SLT PUSH2 0x1738 JUMPI PUSH2 0x1737 PUSH2 0x160B JUMP JUMPDEST JUMPDEST DUP2 CALLDATALOAD PUSH2 0x1748 DUP5 DUP3 PUSH1 0x20 DUP7 ADD PUSH2 0x16E1 JUMP JUMPDEST SWAP2 POP POP SWAP3 SWAP2 POP POP JUMP JUMPDEST PUSH1 0x0 PUSH1 0x20 DUP3 DUP5 SUB SLT ISZERO PUSH2 0x1767 JUMPI PUSH2 0x1766 PUSH2 0x14A0 JUMP JUMPDEST JUMPDEST PUSH1 0x0 DUP3 ADD CALLDATALOAD PUSH8 0xFFFFFFFFFFFFFFFF DUP2 GT ISZERO PUSH2 0x1785 JUMPI PUSH2 0x1784 PUSH2 0x14A5 JUMP JUMPDEST JUMPDEST PUSH2 0x1791 DUP5 DUP3 DUP6 ADD PUSH2 0x1723 JUMP JUMPDEST SWAP2 POP POP SWAP3 SWAP2 POP POP JUMP JUMPDEST PUSH1 0x0 DUP2 MLOAD SWAP1 POP SWAP2 SWAP1 POP JUMP JUMPDEST PUSH1 0x0 DUP3 DUP3 MSTORE PUSH1 0x20 DUP3 ADD SWAP1 POP SWAP3 SWAP2 POP POP JUMP JUMPDEST PUSH1 0x0 JUMPDEST DUP4 DUP2 LT ISZERO PUSH2 0x17D4 JUMPI DUP1 DUP3 ADD MLOAD DUP2 DUP5 ADD MSTORE PUSH1 0x20 DUP2 ADD SWAP1 POP PUSH2 0x17B9 JUMP JUMPDEST DUP4 DUP2 GT ISZERO PUSH2 0x17E3 JUMPI PUSH1 0x0 DUP5 DUP5 ADD MSTORE JUMPDEST POP POP POP POP JUMP JUMPDEST PUSH1 0x0 PUSH2 0x17F4 DUP3 PUSH2 0x179A JUMP JUMPDEST PUSH2 0x17FE DUP2 DUP6 PUSH2 0x17A5 JUMP JUMPDEST SWAP4 POP PUSH2 0x180E DUP2 DUP6 PUSH1 0x20 DUP7 ADD PUSH2 0x17B6 JUMP JUMPDEST PUSH2 0x1817 DUP2 PUSH2 0x1615 JUMP JUMPDEST DUP5 ADD SWAP2 POP POP SWAP3 SWAP2 POP POP JUMP JUMPDEST PUSH1 0x0 PUSH1 0xFF DUP3 AND SWAP1 POP SWAP2 SWAP1 POP JUMP JUMPDEST PUSH2 0x1838 DUP2 PUSH2 0x1822 JUMP JUMPDEST DUP3 MSTORE POP POP JUMP JUMPDEST PUSH2 0x1847 DUP2 PUSH2 0x14AA JUMP JUMPDEST DUP3 MSTORE POP POP JUMP JUMPDEST PUSH1 0x0 PUSH2 0x120 DUP4 ADD PUSH1 0x0 DUP4 ADD MLOAD DUP5 DUP3 SUB PUSH1 0x0 DUP7 ADD MSTORE PUSH2 0x186B DUP3 DUP3 PUSH2 0x17E9 JUMP JUMPDEST SWAP2 POP POP PUSH1 0x20 DUP4 ADD MLOAD DUP5 DUP3 SUB PUSH1 0x20 DUP7 ADD MSTORE PUSH2 0x1885 DUP3 DUP3 PUSH2 0x17E9 JUMP JUMPDEST SWAP2 POP POP PUSH1 0x40 DUP4 ADD MLOAD DUP5 DUP3 SUB PUSH1 0x40 DUP7 ADD MSTORE PUSH2 0x189F DUP3 DUP3 PUSH2 0x17E9 JUMP JUMPDEST SWAP2 POP POP PUSH1 0x60 DUP4 ADD MLOAD DUP5 DUP3 SUB PUSH1 0x60 DUP7 ADD MSTORE PUSH2 0x18B9 DUP3 DUP3 PUSH2 0x17E9 JUMP JUMPDEST SWAP2 POP POP PUSH1 0x80 DUP4 ADD MLOAD DUP5 DUP3 SUB PUSH1 0x80 DUP7 ADD MSTORE PUSH2 0x18D3 DUP3 DUP3 PUSH2 0x17E9 JUMP JUMPDEST SWAP2 POP POP PUSH1 0xA0 DUP4 ADD MLOAD DUP5 DUP3 SUB PUSH1 0xA0 DUP7 ADD MSTORE PUSH2 0x18ED DUP3 DUP3 PUSH2 0x17E9 JUMP JUMPDEST SWAP2 POP POP PUSH1 0xC0 DUP4 ADD MLOAD PUSH2 0x1902 PUSH1 0xC0 DUP7 ADD DUP3 PUSH2 0x182F JUMP JUMPDEST POP PUSH1 0xE0 DUP4 ADD MLOAD PUSH2 0x1915 PUSH1 0xE0 DUP7 ADD DUP3 PUSH2 0x183E JUMP JUMPDEST POP PUSH2 0x100 DUP4 ADD MLOAD PUSH2 0x192A PUSH2 0x100 DUP7 ADD DUP3 PUSH2 0x183E JUMP JUMPDEST POP DUP1 SWAP2 POP POP SWAP3 SWAP2 POP POP JUMP JUMPDEST PUSH1 0x0 PUSH1 0x20 DUP3 ADD SWAP1 POP DUP2 DUP2 SUB PUSH1 0x0 DUP4 ADD MSTORE PUSH2 0x194F DUP2 DUP5 PUSH2 0x184D JUMP JUMPDEST SWAP1 POP SWAP3 SWAP2 POP POP JUMP JUMPDEST PUSH2 0x1960 DUP2 PUSH2 0x1822 JUMP JUMPDEST DUP2 EQ PUSH2 0x196B JUMPI PUSH1 0x0 DUP1 REVERT JUMPDEST POP JUMP JUMPDEST PUSH1 0x0 DUP2 CALLDATALOAD SWAP1 POP PUSH2 0x197D DUP2 PUSH2 0x1957 JUMP JUMPDEST SWAP3 SWAP2 POP POP JUMP JUMPDEST PUSH1 0x0 DUP1 PUSH1 0x0 DUP1 PUSH1 0x0 DUP1 PUSH1 0x0 DUP1 PUSH1 0x0 DUP1 PUSH2 0x140 DUP12 DUP14 SUB SLT ISZERO PUSH2 0x19A7 JUMPI PUSH2 0x19A6 PUSH2 0x14A0 JUMP JUMPDEST JUMPDEST PUSH1 0x0 DUP12 ADD CALLDATALOAD PUSH8 0xFFFFFFFFFFFFFFFF DUP2 GT ISZERO PUSH2 0x19C5 JUMPI PUSH2 0x19C4 PUSH2 0x14A5 JUMP JUMPDEST JUMPDEST PUSH2 0x19D1 DUP14 DUP3 DUP15 ADD PUSH2 0x1723 JUMP JUMPDEST SWAP11 POP POP PUSH1 0x20 DUP12 ADD CALLDATALOAD PUSH8 0xFFFFFFFFFFFFFFFF DUP2 GT ISZERO PUSH2 0x19F2 JUMPI PUSH2 0x19F1 PUSH2 0x14A5 JUMP JUMPDEST JUMPDEST PUSH2 0x19FE DUP14 DUP3 DUP15 ADD PUSH2 0x1723 JUMP JUMPDEST SWAP10 POP POP PUSH1 0x40 DUP12 ADD CALLDATALOAD PUSH8 0xFFFFFFFFFFFFFFFF DUP2 GT ISZERO PUSH2 0x1A1F JUMPI PUSH2 0x1A1E PUSH2 0x14A5 JUMP JUMPDEST JUMPDEST PUSH2 0x1A2B DUP14 DUP3 DUP15 ADD PUSH2 0x1723 JUMP JUMPDEST SWAP9 POP POP PUSH1 0x60 DUP12 ADD CALLDATALOAD PUSH8 0xFFFFFFFFFFFFFFFF DUP2 GT ISZERO PUSH2 0x1A4C JUMPI PUSH2 0x1A4B PUSH2 0x14A5 JUMP JUMPDEST JUMPDEST PUSH2 0x1A58 DUP14 DUP3 DUP15 ADD PUSH2 0x1723 JUMP JUMPDEST SWAP8 POP POP PUSH1 0x80 DUP12 ADD CALLDATALOAD PUSH8 0xFFFFFFFFFFFFFFFF DUP2 GT ISZERO PUSH2 0x1A79 JUMPI PUSH2 0x1A78 PUSH2 0x14A5 JUMP JUMPDEST JUMPDEST PUSH2 0x1A85 DUP14 DUP3 DUP15 ADD PUSH2 0x1723 JUMP JUMPDEST SWAP7 POP POP PUSH1 0xA0 DUP12 ADD CALLDATALOAD PUSH8 0xFFFFFFFFFFFFFFFF DUP2 GT ISZERO PUSH2 0x1AA6 JUMPI PUSH2 0x1AA5 PUSH2 0x14A5 JUMP JUMPDEST JUMPDEST PUSH2 0x1AB2 DUP14 DUP3 DUP15 ADD PUSH2 0x1723 JUMP JUMPDEST SWAP6 POP POP PUSH1 0xC0 PUSH2 0x1AC3 DUP14 DUP3 DUP15 ADD PUSH2 0x196E JUMP JUMPDEST SWAP5 POP POP PUSH1 0xE0 PUSH2 0x1AD4 DUP14 DUP3 DUP15 ADD PUSH2 0x196E JUMP JUMPDEST SWAP4 POP POP PUSH2 0x100 PUSH2 0x1AE6 DUP14 DUP3 DUP15 ADD PUSH2 0x14CB JUMP JUMPDEST SWAP3 POP POP PUSH2 0x120 PUSH2 0x1AF8 DUP14 DUP3 DUP15 ADD PUSH2 0x14CB JUMP JUMPDEST SWAP2 POP POP SWAP3 SWAP6 SWAP9 SWAP12 SWAP2 SWAP5 SWAP8 SWAP11 POP SWAP3 SWAP6 SWAP9 POP JUMP JUMPDEST PUSH2 0x1B13 DUP2 PUSH2 0x1822 JUMP JUMPDEST DUP3 MSTORE POP POP JUMP JUMPDEST PUSH1 0x0 PUSH1 0x40 DUP3 ADD SWAP1 POP DUP2 DUP2 SUB PUSH1 0x0 DUP4 ADD MSTORE PUSH2 0x1B33 DUP2 DUP6 PUSH2 0x184D JUMP JUMPDEST SWAP1 POP PUSH2 0x1B42 PUSH1 0x20 DUP4 ADD DUP5 PUSH2 0x1B0A JUMP JUMPDEST SWAP4 SWAP3 POP POP POP JUMP JUMPDEST PUSH2 0x1B52 DUP2 PUSH2 0x15A5 JUMP JUMPDEST DUP2 EQ PUSH2 0x1B5D JUMPI PUSH1 0x0 DUP1 REVERT JUMPDEST POP JUMP JUMPDEST PUSH1 0x0 DUP2 CALLDATALOAD SWAP1 POP PUSH2 0x1B6F DUP2 PUSH2 0x1B49 JUMP JUMPDEST SWAP3 SWAP2 POP POP JUMP JUMPDEST PUSH1 0x0 PUSH1 0x20 DUP3 DUP5 SUB SLT ISZERO PUSH2 0x1B8B JUMPI PUSH2 0x1B8A PUSH2 0x14A0 JUMP JUMPDEST JUMPDEST PUSH1 0x0 PUSH2 0x1B99 DUP5 DUP3 DUP6 ADD PUSH2 0x1B60 JUMP JUMPDEST SWAP2 POP POP SWAP3 SWAP2 POP POP JUMP JUMPDEST PUSH1 0x0 DUP1 PUSH1 0x40 DUP4 DUP6 SUB SLT ISZERO PUSH2 0x1BB9 JUMPI PUSH2 0x1BB8 PUSH2 0x14A0 JUMP JUMPDEST JUMPDEST PUSH1 0x0 PUSH2 0x1BC7 DUP6 DUP3 DUP7 ADD PUSH2 0x14CB JUMP JUMPDEST SWAP3 POP POP PUSH1 0x20 DUP4 ADD CALLDATALOAD PUSH8 0xFFFFFFFFFFFFFFFF DUP2 GT ISZERO PUSH2 0x1BE8 JUMPI PUSH2 0x1BE7 PUSH2 0x14A5 JUMP JUMPDEST JUMPDEST PUSH2 0x1BF4 DUP6 DUP3 DUP7 ADD PUSH2 0x1723 JUMP JUMPDEST SWAP2 POP POP SWAP3 POP SWAP3 SWAP1 POP JUMP JUMPDEST PUSH1 0x0 DUP3 DUP3 MSTORE PUSH1 0x20 DUP3 ADD SWAP1 POP SWAP3 SWAP2 POP POP JUMP JUMPDEST PUSH32 0x4F776E61626C653A2063616C6C6572206973206E6F7420746865206F776E6572 PUSH1 0x0 DUP3 ADD MSTORE POP JUMP JUMPDEST PUSH1 0x0 PUSH2 0x1C45 PUSH1 0x20 DUP4 PUSH2 0x1BFE JUMP JUMPDEST SWAP2 POP PUSH2 0x1C50 DUP3 PUSH2 0x1C0F JUMP JUMPDEST PUSH1 0x20 DUP3 ADD SWAP1 POP SWAP2 SWAP1 POP JUMP JUMPDEST PUSH1 0x0 PUSH1 0x20 DUP3 ADD SWAP1 POP DUP2 DUP2 SUB PUSH1 0x0 DUP4 ADD MSTORE PUSH2 0x1C74 DUP2 PUSH2 0x1C38 JUMP JUMPDEST SWAP1 POP SWAP2 SWAP1 POP JUMP JUMPDEST PUSH32 0x4E487B7100000000000000000000000000000000000000000000000000000000 PUSH1 0x0 MSTORE PUSH1 0x32 PUSH1 0x4 MSTORE PUSH1 0x24 PUSH1 0x0 REVERT JUMPDEST PUSH32 0x4E487B7100000000000000000000000000000000000000000000000000000000 PUSH1 0x0 MSTORE PUSH1 0x11 PUSH1 0x4 MSTORE PUSH1 0x24 PUSH1 0x0 REVERT JUMPDEST PUSH1 0x0 PUSH2 0x1CE4 DUP3 PUSH2 0x14AA JUMP JUMPDEST SWAP2 POP PUSH32 0xFFFFFFFFFFFFFFFFFFFFFFFFFFFFFFFFFFFFFFFFFFFFFFFFFFFFFFFFFFFFFFFF DUP3 SUB PUSH2 0x1D16 JUMPI PUSH2 0x1D15 PUSH2 0x1CAA JUMP JUMPDEST JUMPDEST PUSH1 0x1 DUP3 ADD SWAP1 POP SWAP2 SWAP1 POP JUMP JUMPDEST PUSH1 0x0 DUP2 SWAP1 POP SWAP3 SWAP2 POP POP JUMP JUMPDEST PUSH1 0x0 PUSH2 0x1D37 DUP3 PUSH2 0x179A JUMP JUMPDEST PUSH2 0x1D41 DUP2 DUP6 PUSH2 0x1D21 JUMP JUMPDEST SWAP4 POP PUSH2 0x1D51 DUP2 DUP6 PUSH1 0x20 DUP7 ADD PUSH2 0x17B6 JUMP JUMPDEST DUP1 DUP5 ADD SWAP2 POP POP SWAP3 SWAP2 POP POP JUMP JUMPDEST PUSH1 0x0 DUP2 SWAP1 POP SWAP2 SWAP1 POP JUMP JUMPDEST PUSH2 0x1D78 PUSH2 0x1D73 DUP3 PUSH2 0x14AA JUMP JUMPDEST PUSH2 0x1D5D JUMP JUMPDEST DUP3 MSTORE POP POP JUMP JUMPDEST PUSH1 0x0 DUP2 PUSH1 0x60 SHL SWAP1 POP SWAP2 SWAP1 POP JUMP JUMPDEST PUSH1 0x0 PUSH2 0x1D96 DUP3 PUSH2 0x1D7E JUMP JUMPDEST SWAP1 POP SWAP2 SWAP1 POP JUMP JUMPDEST PUSH1 0x0 PUSH2 0x1DA8 DUP3 PUSH2 0x1D8B JUMP JUMPDEST SWAP1 POP SWAP2 SWAP1 POP JUMP JUMPDEST PUSH2 0x1DC0 PUSH2 0x1DBB DUP3 PUSH2 0x15A5 JUMP JUMPDEST PUSH2 0x1D9D JUMP JUMPDEST DUP3 MSTORE POP POP JUMP JUMPDEST PUSH1 0x0 PUSH2 0x1DD2 DUP3 DUP7 PUSH2 0x1D2C JUMP JUMPDEST SWAP2 POP PUSH2 0x1DDE DUP3 DUP6 PUSH2 0x1D67 JUMP JUMPDEST PUSH1 0x20 DUP3 ADD SWAP2 POP PUSH2 0x1DEE DUP3 DUP5 PUSH2 0x1DAF JUMP JUMPDEST PUSH1 0x14 DUP3 ADD SWAP2 POP DUP2 SWAP1 POP SWAP5 SWAP4 POP POP POP POP JUMP JUMPDEST PUSH32 0x4E487B7100000000000000000000000000000000000000000000000000000000 PUSH1 0x0 MSTORE PUSH1 0x12 PUSH1 0x4 MSTORE PUSH1 0x24 PUSH1 0x0 REVERT JUMPDEST PUSH1 0x0 PUSH2 0x1E39 DUP3 PUSH2 0x14AA JUMP JUMPDEST SWAP2 POP PUSH2 0x1E44 DUP4 PUSH2 0x14AA JUMP JUMPDEST SWAP3 POP DUP3 PUSH2 0x1E54 JUMPI PUSH2 0x1E53 PUSH2 0x1DFF JUMP JUMPDEST JUMPDEST DUP3 DUP3 MOD SWAP1 POP SWAP3 SWAP2 POP POP JUMP JUMPDEST PUSH32 0x4E487B7100000000000000000000000000000000000000000000000000000000 PUSH1 0x0 MSTORE PUSH1 0x22 PUSH1 0x4 MSTORE PUSH1 0x24 PUSH1 0x0 REVERT JUMPDEST PUSH1 0x0 PUSH1 0x2 DUP3 DIV SWAP1 POP PUSH1 0x1 DUP3 AND DUP1 PUSH2 0x1EA6 JUMPI PUSH1 0x7F DUP3 AND SWAP2 POP JUMPDEST PUSH1 0x20 DUP3 LT DUP2 SUB PUSH2 0x1EB9 JUMPI PUSH2 0x1EB8 PUSH2 0x1E5F JUMP JUMPDEST JUMPDEST POP SWAP2 SWAP1 POP JUMP JUMPDEST PUSH1 0x0 DUP2 SWAP1 POP DUP2 PUSH1 0x0 MSTORE PUSH1 0x20 PUSH1 0x0 KECCAK256 SWAP1 POP SWAP2 SWAP1 POP JUMP JUMPDEST PUSH1 0x0 DUP2 SLOAD PUSH2 0x1EE1 DUP2 PUSH2 0x1E8E JUMP JUMPDEST PUSH2 0x1EEB DUP2 DUP7 PUSH2 0x17A5 JUMP JUMPDEST SWAP5 POP PUSH1 0x1 DUP3 AND PUSH1 0x0 DUP2 EQ PUSH2 0x1F06 JUMPI PUSH1 0x1 DUP2 EQ PUSH2 0x1F18 JUMPI PUSH2 0x1F4B JUMP JUMPDEST PUSH1 0xFF NOT DUP4 AND DUP7 MSTORE PUSH1 0x20 DUP7 ADD SWAP4 POP PUSH2 0x1F4B JUMP JUMPDEST PUSH2 0x1F21 DUP6 PUSH2 0x1EBF JUMP JUMPDEST PUSH1 0x0 JUMPDEST DUP4 DUP2 LT ISZERO PUSH2 0x1F43 JUMPI DUP2 SLOAD DUP2 DUP10 ADD MSTORE PUSH1 0x1 DUP3 ADD SWAP2 POP PUSH1 0x20 DUP2 ADD SWAP1 POP PUSH2 0x1F24 JUMP JUMPDEST DUP1 DUP9 ADD SWAP6 POP POP POP JUMPDEST POP POP POP SWAP3 SWAP2 POP POP JUMP JUMPDEST PUSH1 0x0 DUP2 PUSH1 0x0 SHR SWAP1 POP SWAP2 SWAP1 POP JUMP JUMPDEST PUSH1 0x0 PUSH1 0xFF DUP3 AND SWAP1 POP SWAP2 SWAP1 POP JUMP JUMPDEST PUSH1 0x0 PUSH2 0x1F81 PUSH2 0x1F7C DUP4 PUSH2 0x1F54 JUMP JUMPDEST PUSH2 0x1F61 JUMP JUMPDEST SWAP1 POP SWAP2 SWAP1 POP JUMP JUMPDEST PUSH1 0x0 DUP2 SWAP1 POP SWAP2 SWAP1 POP JUMP JUMPDEST PUSH1 0x0 PUSH2 0x1FA5 PUSH2 0x1FA0 DUP4 PUSH2 0x1F54 JUMP JUMPDEST PUSH2 0x1F88 JUMP JUMPDEST SWAP1 POP SWAP2 SWAP1 POP JUMP JUMPDEST PUSH1 0x0 PUSH2 0x120 DUP4 ADD PUSH1 0x0 DUP1 DUP5 ADD DUP6 DUP4 SUB PUSH1 0x0 DUP8 ADD MSTORE PUSH2 0x1FCA DUP4 DUP3 PUSH2 0x1ED4 JUMP JUMPDEST SWAP3 POP POP PUSH1 0x1 DUP5 ADD DUP6 DUP4 SUB PUSH1 0x20 DUP8 ADD MSTORE PUSH2 0x1FE3 DUP4 DUP3 PUSH2 0x1ED4 JUMP JUMPDEST SWAP3 POP POP PUSH1 0x2 DUP5 ADD DUP6 DUP4 SUB PUSH1 0x40 DUP8 ADD MSTORE PUSH2 0x1FFC DUP4 DUP3 PUSH2 0x1ED4 JUMP JUMPDEST SWAP3 POP POP PUSH1 0x3 DUP5 ADD DUP6 DUP4 SUB PUSH1 0x60 DUP8 ADD MSTORE PUSH2 0x2015 DUP4 DUP3 PUSH2 0x1ED4 JUMP JUMPDEST SWAP3 POP POP PUSH1 0x4 DUP5 ADD DUP6 DUP4 SUB PUSH1 0x80 DUP8 ADD MSTORE PUSH2 0x202E DUP4 DUP3 PUSH2 0x1ED4 JUMP JUMPDEST SWAP3 POP POP PUSH1 0x5 DUP5 ADD DUP6 DUP4 SUB PUSH1 0xA0 DUP8 ADD MSTORE PUSH2 0x2047 DUP4 DUP3 PUSH2 0x1ED4 JUMP JUMPDEST SWAP3 POP POP PUSH1 0x6 DUP5 ADD SLOAD SWAP1 POP PUSH2 0x205A DUP2 PUSH2 0x1F6E JUMP JUMPDEST PUSH2 0x2067 PUSH1 0xC0 DUP8 ADD DUP3 PUSH2 0x182F JUMP JUMPDEST POP PUSH1 0x7 DUP5 ADD SLOAD SWAP1 POP PUSH2 0x2078 DUP2 PUSH2 0x1F92 JUMP JUMPDEST PUSH2 0x2085 PUSH1 0xE0 DUP8 ADD DUP3 PUSH2 0x183E JUMP JUMPDEST POP PUSH1 0x8 DUP5 ADD SLOAD SWAP1 POP PUSH2 0x2096 DUP2 PUSH2 0x1F92 JUMP JUMPDEST PUSH2 0x20A4 PUSH2 0x100 DUP8 ADD DUP3 PUSH2 0x183E JUMP JUMPDEST POP DUP2 SWAP3 POP POP POP SWAP3 SWAP2 POP POP JUMP JUMPDEST PUSH1 0x0 PUSH1 0x40 DUP3 ADD SWAP1 POP DUP2 DUP2 SUB PUSH1 0x0 DUP4 ADD MSTORE PUSH2 0x20CA DUP2 DUP6 PUSH2 0x1FAC JUMP JUMPDEST SWAP1 POP PUSH2 0x20D9 PUSH1 0x20 DUP4 ADD DUP5 PUSH2 0x1B0A JUMP JUMPDEST SWAP4 SWAP3 POP POP POP JUMP JUMPDEST PUSH32 0x4F776E61626C653A206E6577206F776E657220697320746865207A65726F2061 PUSH1 0x0 DUP3 ADD MSTORE PUSH32 0x6464726573730000000000000000000000000000000000000000000000000000 PUSH1 0x20 DUP3 ADD MSTORE POP JUMP JUMPDEST PUSH1 0x0 PUSH2 0x213C PUSH1 0x26 DUP4 PUSH2 0x1BFE JUMP JUMPDEST SWAP2 POP PUSH2 0x2147 DUP3 PUSH2 0x20E0 JUMP JUMPDEST PUSH1 0x40 DUP3 ADD SWAP1 POP SWAP2 SWAP1 POP JUMP JUMPDEST PUSH1 0x0 PUSH1 0x20 DUP3 ADD SWAP1 POP DUP2 DUP2 SUB PUSH1 0x0 DUP4 ADD MSTORE PUSH2 0x216B DUP2 PUSH2 0x212F JUMP JUMPDEST SWAP1 POP SWAP2 SWAP1 POP JUMP JUMPDEST PUSH1 0x0 PUSH2 0x217D DUP3 PUSH2 0x14AA JUMP JUMPDEST SWAP2 POP PUSH2 0x2188 DUP4 PUSH2 0x14AA JUMP JUMPDEST SWAP3 POP DUP3 DUP3 LT ISZERO PUSH2 0x219B JUMPI PUSH2 0x219A PUSH2 0x1CAA JUMP JUMPDEST JUMPDEST DUP3 DUP3 SUB SWAP1 POP SWAP3 SWAP2 POP POP JUMP JUMPDEST PUSH1 0x0 PUSH2 0x21B1 DUP3 PUSH2 0x179A JUMP JUMPDEST PUSH2 0x21BB DUP2 DUP6 PUSH2 0x1BFE JUMP JUMPDEST SWAP4 POP PUSH2 0x21CB DUP2 DUP6 PUSH1 0x20 DUP7 ADD PUSH2 0x17B6 JUMP JUMPDEST PUSH2 0x21D4 DUP2 PUSH2 0x1615 JUMP JUMPDEST DUP5 ADD SWAP2 POP POP SWAP3 SWAP2 POP POP JUMP JUMPDEST PUSH1 0x0 PUSH1 0x40 DUP3 ADD SWAP1 POP DUP2 DUP2 SUB PUSH1 0x0 DUP4 ADD MSTORE PUSH2 0x21F9 DUP2 DUP6 PUSH2 0x21A6 JUMP JUMPDEST SWAP1 POP PUSH2 0x2208 PUSH1 0x20 DUP4 ADD DUP5 PUSH2 0x1B0A JUMP JUMPDEST SWAP4 SWAP3 POP POP POP JUMP INVALID LOG2 PUSH5 0x6970667358 0x22 SLT KECCAK256 0xE5 0x24 SIGNEXTEND 0x2F CALLDATALOAD 0x5C 0xDB SWAP3 0x2A 0x4B MOD XOR 0xCD INVALID 0xA5 0xCF 0xE7 PUSH21 0xF6D915A010BA6F80397394C0E62564736F6C634300 ADDMOD 0xE STOP CALLER "
		},
		"gasEstimates": {
			"creation": {
				"codeDepositCost": "1754600",
				"executionCost": "infinite",
				"totalCost": "infinite"
			},
			"external": {
				"changeQuizStatus(uint256,bool)": "27171",
				"createQuiz(string,string,string,string,string,string,uint8,uint8,uint256,uint256)": "infinite",
				"getRandomQuiz(string)": "infinite",
				"owner()": "2544",
				"quizIsActive(uint256)": "2863",
				"quizOwner(uint256)": "2884",
				"quizOwnerChangeHint(uint256,string)": "infinite",
				"quizOwnerChangeStatus(uint256,bool)": "27206",
				"quizOwnerGetQuiz(uint256)": "infinite",
				"renounceOwnership()": "30463",
				"transferOwnership(address)": "30808"
			}
		},
		"methodIdentifiers": {
			"changeQuizStatus(uint256,bool)": "1d3f7559",
			"createQuiz(string,string,string,string,string,string,uint8,uint8,uint256,uint256)": "9a2dc409",
			"getRandomQuiz(string)": "728b0d87",
			"owner()": "8da5cb5b",
			"quizIsActive(uint256)": "51a1d40e",
			"quizOwner(uint256)": "400ae0f9",
			"quizOwnerChangeHint(uint256,string)": "fbb3b6ce",
			"quizOwnerChangeStatus(uint256,bool)": "377def85",
			"quizOwnerGetQuiz(uint256)": "b9360cf1",
			"renounceOwnership()": "715018a6",
			"transferOwnership(address)": "f2fde38b"
		}
	},
	"abi": [
		{
			"anonymous": false,
			"inputs": [
				{
					"components": [
						{
							"internalType": "string",
							"name": "question",
							"type": "string"
						},
						{
							"internalType": "string",
							"name": "choice1",
							"type": "string"
						},
						{
							"internalType": "string",
							"name": "choice2",
							"type": "string"
						},
						{
							"internalType": "string",
							"name": "choice3",
							"type": "string"
						},
						{
							"internalType": "string",
							"name": "choice4",
							"type": "string"
						},
						{
							"internalType": "string",
							"name": "hint",
							"type": "string"
						},
						{
							"internalType": "uint8",
							"name": "languageCode",
							"type": "uint8"
						},
						{
							"internalType": "uint256",
							"name": "reward",
							"type": "uint256"
						},
						{
							"internalType": "uint256",
							"name": "rewardPool",
							"type": "uint256"
						}
					],
					"indexed": false,
					"internalType": "struct CreateQuiz.Quiz",
					"name": "quiz",
					"type": "tuple"
				}
			],
			"name": "GetQuiz",
			"type": "event"
		},
		{
			"anonymous": false,
			"inputs": [
				{
					"indexed": false,
					"internalType": "string",
					"name": "question",
					"type": "string"
				},
				{
					"indexed": false,
					"internalType": "uint8",
					"name": "answer",
					"type": "uint8"
				}
			],
			"name": "NewQuiz",
			"type": "event"
		},
		{
			"anonymous": false,
			"inputs": [
				{
					"indexed": true,
					"internalType": "address",
					"name": "previousOwner",
					"type": "address"
				},
				{
					"indexed": true,
					"internalType": "address",
					"name": "newOwner",
					"type": "address"
				}
			],
			"name": "OwnershipTransferred",
			"type": "event"
		},
		{
			"anonymous": false,
			"inputs": [
				{
					"components": [
						{
							"internalType": "string",
							"name": "question",
							"type": "string"
						},
						{
							"internalType": "string",
							"name": "choice1",
							"type": "string"
						},
						{
							"internalType": "string",
							"name": "choice2",
							"type": "string"
						},
						{
							"internalType": "string",
							"name": "choice3",
							"type": "string"
						},
						{
							"internalType": "string",
							"name": "choice4",
							"type": "string"
						},
						{
							"internalType": "string",
							"name": "hint",
							"type": "string"
						},
						{
							"internalType": "uint8",
							"name": "languageCode",
							"type": "uint8"
						},
						{
							"internalType": "uint256",
							"name": "reward",
							"type": "uint256"
						},
						{
							"internalType": "uint256",
							"name": "rewardPool",
							"type": "uint256"
						}
					],
					"indexed": false,
					"internalType": "struct CreateQuiz.Quiz",
					"name": "quiz",
					"type": "tuple"
				},
				{
					"indexed": false,
					"internalType": "uint8",
					"name": "answer",
					"type": "uint8"
				}
			],
			"name": "QuizOwnerGetQuiz",
			"type": "event"
		},
		{
			"inputs": [
				{
					"internalType": "uint256",
					"name": "_quizId",
					"type": "uint256"
				},
				{
					"internalType": "bool",
					"name": "_quizStatus",
					"type": "bool"
				}
			],
			"name": "changeQuizStatus",
			"outputs": [],
			"stateMutability": "nonpayable",
			"type": "function"
		},
		{
			"inputs": [
				{
					"internalType": "string",
					"name": "_question",
					"type": "string"
				},
				{
					"internalType": "string",
					"name": "_choice1",
					"type": "string"
				},
				{
					"internalType": "string",
					"name": "_choice2",
					"type": "string"
				},
				{
					"internalType": "string",
					"name": "_choice3",
					"type": "string"
				},
				{
					"internalType": "string",
					"name": "_choice4",
					"type": "string"
				},
				{
					"internalType": "string",
					"name": "_hint",
					"type": "string"
				},
				{
					"internalType": "uint8",
					"name": "_answer",
					"type": "uint8"
				},
				{
					"internalType": "uint8",
					"name": "_languageCode",
					"type": "uint8"
				},
				{
					"internalType": "uint256",
					"name": "_reward",
					"type": "uint256"
				},
				{
					"internalType": "uint256",
					"name": "_rewardPool",
					"type": "uint256"
				}
			],
			"name": "createQuiz",
			"outputs": [],
			"stateMutability": "payable",
			"type": "function"
		},
		{
			"inputs": [
				{
					"internalType": "string",
					"name": "_seed",
					"type": "string"
				}
			],
			"name": "getRandomQuiz",
			"outputs": [
				{
					"components": [
						{
							"internalType": "string",
							"name": "question",
							"type": "string"
						},
						{
							"internalType": "string",
							"name": "choice1",
							"type": "string"
						},
						{
							"internalType": "string",
							"name": "choice2",
							"type": "string"
						},
						{
							"internalType": "string",
							"name": "choice3",
							"type": "string"
						},
						{
							"internalType": "string",
							"name": "choice4",
							"type": "string"
						},
						{
							"internalType": "string",
							"name": "hint",
							"type": "string"
						},
						{
							"internalType": "uint8",
							"name": "languageCode",
							"type": "uint8"
						},
						{
							"internalType": "uint256",
							"name": "reward",
							"type": "uint256"
						},
						{
							"internalType": "uint256",
							"name": "rewardPool",
							"type": "uint256"
						}
					],
					"internalType": "struct CreateQuiz.Quiz",
					"name": "",
					"type": "tuple"
				}
			],
			"stateMutability": "view",
			"type": "function"
		},
		{
			"inputs": [],
			"name": "owner",
			"outputs": [
				{
					"internalType": "address",
					"name": "",
					"type": "address"
				}
			],
			"stateMutability": "view",
			"type": "function"
		},
		{
			"inputs": [
				{
					"internalType": "uint256",
					"name": "",
					"type": "uint256"
				}
			],
			"name": "quizIsActive",
			"outputs": [
				{
					"internalType": "bool",
					"name": "",
					"type": "bool"
				}
			],
			"stateMutability": "view",
			"type": "function"
		},
		{
			"inputs": [
				{
					"internalType": "uint256",
					"name": "",
					"type": "uint256"
				}
			],
			"name": "quizOwner",
			"outputs": [
				{
					"internalType": "address",
					"name": "",
					"type": "address"
				}
			],
			"stateMutability": "view",
			"type": "function"
		},
		{
			"inputs": [
				{
					"internalType": "uint256",
					"name": "_quizId",
					"type": "uint256"
				},
				{
					"internalType": "string",
					"name": "_hint",
					"type": "string"
				}
			],
			"name": "quizOwnerChangeHint",
			"outputs": [],
			"stateMutability": "nonpayable",
			"type": "function"
		},
		{
			"inputs": [
				{
					"internalType": "uint256",
					"name": "_quizId",
					"type": "uint256"
				},
				{
					"internalType": "bool",
					"name": "_quizStatus",
					"type": "bool"
				}
			],
			"name": "quizOwnerChangeStatus",
			"outputs": [],
			"stateMutability": "nonpayable",
			"type": "function"
		},
		{
			"inputs": [
				{
					"internalType": "uint256",
					"name": "_quizId",
					"type": "uint256"
				}
			],
			"name": "quizOwnerGetQuiz",
			"outputs": [
				{
					"components": [
						{
							"internalType": "string",
							"name": "question",
							"type": "string"
						},
						{
							"internalType": "string",
							"name": "choice1",
							"type": "string"
						},
						{
							"internalType": "string",
							"name": "choice2",
							"type": "string"
						},
						{
							"internalType": "string",
							"name": "choice3",
							"type": "string"
						},
						{
							"internalType": "string",
							"name": "choice4",
							"type": "string"
						},
						{
							"internalType": "string",
							"name": "hint",
							"type": "string"
						},
						{
							"internalType": "uint8",
							"name": "languageCode",
							"type": "uint8"
						},
						{
							"internalType": "uint256",
							"name": "reward",
							"type": "uint256"
						},
						{
							"internalType": "uint256",
							"name": "rewardPool",
							"type": "uint256"
						}
					],
					"internalType": "struct CreateQuiz.Quiz",
					"name": "",
					"type": "tuple"
				},
				{
					"internalType": "uint8",
					"name": "",
					"type": "uint8"
				}
			],
			"stateMutability": "nonpayable",
			"type": "function"
		},
		{
			"inputs": [],
			"name": "renounceOwnership",
			"outputs": [],
			"stateMutability": "nonpayable",
			"type": "function"
		},
		{
			"inputs": [
				{
					"internalType": "address",
					"name": "newOwner",
					"type": "address"
				}
			],
			"name": "transferOwnership",
			"outputs": [],
			"stateMutability": "nonpayable",
			"type": "function"
		}
	]
}